{"abi":[{"inputs":[{"internalType":"string","name":"_name","type":"string"},{"internalType":"string","name":"_symbol","type":"string"},{"internalType":"string","name":"_baseURI","type":"string"},{"internalType":"uint256","name":"_teamMintSupply","type":"uint256"},{"internalType":"uint256","name":"_totalSaleSupply","type":"uint256"}],"stateMutability":"nonpayable","type":"constructor","name":"constructor"},{"anonymous":false,"inputs":[{"indexed":true,"internalType":"address","name":"owner","type":"address"},{"indexed":true,"internalType":"address","name":"approved","type":"address"},{"indexed":true,"internalType":"uint256","name":"tokenId","type":"uint256"}],"name":"Approval","type":"event"},{"anonymous":false,"inputs":[{"indexed":true,"internalType":"address","name":"owner","type":"address"},{"indexed":true,"internalType":"address","name":"operator","type":"address"},{"indexed":false,"internalType":"bool","name":"approved","type":"bool"}],"name":"ApprovalForAll","type":"event"},{"anonymous":false,"inputs":[{"indexed":true,"internalType":"address","name":"previousOwner","type":"address"},{"indexed":true,"internalType":"address","name":"newOwner","type":"address"}],"name":"OwnershipTransferred","type":"event"},{"anonymous":false,"inputs":[{"indexed":false,"internalType":"address","name":"account","type":"address"}],"name":"Paused","type":"event"},{"anonymous":false,"inputs":[{"indexed":true,"internalType":"address","name":"from","type":"address"},{"indexed":true,"internalType":"address","name":"to","type":"address"},{"indexed":true,"internalType":"uint256","name":"tokenId","type":"uint256"}],"name":"Transfer","type":"event"},{"anonymous":false,"inputs":[{"indexed":false,"internalType":"address","name":"account","type":"address"}],"name":"Unpaused","type":"event"},{"inputs":[{"internalType":"uint256","name":"mintAmount","type":"uint256"},{"internalType":"address","name":"to","type":"address"}],"name":"airdrop","outputs":[],"stateMutability":"nonpayable","type":"function"},{"inputs":[{"internalType":"address","name":"to","type":"address"},{"internalType":"uint256","name":"tokenId","type":"uint256"}],"name":"approve","outputs":[],"stateMutability":"nonpayable","type":"function"},{"inputs":[{"internalType":"address","name":"owner","type":"address"}],"name":"balanceOf","outputs":[{"internalType":"uint256","name":"","type":"uint256"}],"stateMutability":"view","type":"function"},{"inputs":[],"name":"baseExtension","outputs":[{"internalType":"string","name":"","type":"string"}],"stateMutability":"view","type":"function"},{"inputs":[],"name":"baseURI","outputs":[{"internalType":"string","name":"","type":"string"}],"stateMutability":"view","type":"function"},{"inputs":[{"internalType":"address","name":"","type":"address"}],"name":"claimed","outputs":[{"internalType":"uint256","name":"","type":"uint256"}],"stateMutability":"view","type":"function"},{"inputs":[],"name":"freezeBaseURI","outputs":[],"stateMutability":"nonpayable","type":"function"},{"inputs":[],"name":"freezeProvenanceHash","outputs":[],"stateMutability":"nonpayable","type":"function"},{"inputs":[{"internalType":"uint256","name":"tokenId","type":"uint256"}],"name":"getApproved","outputs":[{"internalType":"address","name":"","type":"address"}],"stateMutability":"view","type":"function"},{"inputs":[],"name":"getTokensLeft","outputs":[{"internalType":"uint256","name":"","type":"uint256"}],"stateMutability":"view","type":"function"},{"inputs":[{"internalType":"address","name":"owner","type":"address"},{"internalType":"address","name":"operator","type":"address"}],"name":"isApprovedForAll","outputs":[{"internalType":"bool","name":"","type":"bool"}],"stateMutability":"view","type":"function"},{"inputs":[],"name":"lastMintAddress","outputs":[{"internalType":"address","name":"","type":"address"}],"stateMutability":"view","type":"function"},{"inputs":[],"name":"lastMintID","outputs":[{"internalType":"uint256","name":"","type":"uint256"}],"stateMutability":"view","type":"function"},{"inputs":[],"name":"merkleRoot","outputs":[{"internalType":"bytes32","name":"","type":"bytes32"}],"stateMutability":"view","type":"function"},{"inputs":[],"name":"name","outputs":[{"internalType":"string","name":"","type":"string"}],"stateMutability":"view","type":"function"},{"inputs":[],"name":"owner","outputs":[{"internalType":"address","name":"","type":"address"}],"stateMutability":"view","type":"function"},{"inputs":[{"internalType":"uint256","name":"tokenId","type":"uint256"}],"name":"ownerOf","outputs":[{"internalType":"address","name":"","type":"address"}],"stateMutability":"view","type":"function"},{"inputs":[],"name":"pause","outputs":[],"stateMutability":"nonpayable","type":"function"},{"inputs":[],"name":"paused","outputs":[{"internalType":"bool","name":"","type":"bool"}],"stateMutability":"view","type":"function"},{"inputs":[],"name":"provenanceHash","outputs":[{"internalType":"string","name":"","type":"string"}],"stateMutability":"view","type":"function"},{"inputs":[],"name":"provenanceHashFrozen","outputs":[{"internalType":"bool","name":"","type":"bool"}],"stateMutability":"view","type":"function"},{"inputs":[],"name":"publicMint","outputs":[],"stateMutability":"nonpayable","type":"function"},{"inputs":[],"name":"renounceOwnership","outputs":[],"stateMutability":"nonpayable","type":"function"},{"inputs":[{"internalType":"address","name":"from","type":"address"},{"internalType":"address","name":"to","type":"address"},{"internalType":"uint256","name":"tokenId","type":"uint256"}],"name":"safeTransferFrom","outputs":[],"stateMutability":"nonpayable","type":"function"},{"inputs":[{"internalType":"address","name":"from","type":"address"},{"internalType":"address","name":"to","type":"address"},{"internalType":"uint256","name":"tokenId","type":"uint256"},{"internalType":"bytes","name":"_data","type":"bytes"}],"name":"safeTransferFrom","outputs":[],"stateMutability":"nonpayable","type":"function"},{"inputs":[{"internalType":"address","name":"operator","type":"address"},{"internalType":"bool","name":"approved","type":"bool"}],"name":"setApprovalForAll","outputs":[],"stateMutability":"nonpayable","type":"function"},{"inputs":[{"internalType":"string","name":"_newBaseExtension","type":"string"}],"name":"setBaseExtension","outputs":[],"stateMutability":"nonpayable","type":"function"},{"inputs":[{"internalType":"string","name":"_newBaseURI","type":"string"}],"name":"setBaseURI","outputs":[],"stateMutability":"nonpayable","type":"function"},{"inputs":[{"internalType":"address","name":"wlAddress","type":"address"},{"internalType":"uint256","name":"amount","type":"uint256"}],"name":"setClaim","outputs":[],"stateMutability":"nonpayable","type":"function"},{"inputs":[{"internalType":"bytes32","name":"_merkleRoot","type":"bytes32"}],"name":"setMerkleRoot","outputs":[],"stateMutability":"nonpayable","type":"function"},{"inputs":[{"internalType":"string","name":"_provenanceHash","type":"string"}],"name":"setProvenanceHash","outputs":[],"stateMutability":"nonpayable","type":"function"},{"inputs":[{"internalType":"enum test.Stage","name":"_stage","type":"uint8"}],"name":"setStage","outputs":[],"stateMutability":"nonpayable","type":"function"},{"inputs":[{"internalType":"address","name":"_withdrawlAddress","type":"address"}],"name":"setWithdrawlAddress","outputs":[],"stateMutability":"nonpayable","type":"function"},{"inputs":[],"name":"stage","outputs":[{"internalType":"enum test.Stage","name":"","type":"uint8"}],"stateMutability":"view","type":"function"},{"inputs":[{"internalType":"bytes4","name":"interfaceId","type":"bytes4"}],"name":"supportsInterface","outputs":[{"internalType":"bool","name":"","type":"bool"}],"stateMutability":"view","type":"function"},{"inputs":[],"name":"symbol","outputs":[{"internalType":"string","name":"","type":"string"}],"stateMutability":"view","type":"function"},{"inputs":[{"internalType":"uint256","name":"mintAmount","type":"uint256"}],"name":"teamMint","outputs":[],"stateMutability":"nonpayable","type":"function"},{"inputs":[],"name":"teamMintCount","outputs":[{"internalType":"uint256","name":"","type":"uint256"}],"stateMutability":"view","type":"function"},{"inputs":[],"name":"teamMintSupply","outputs":[{"internalType":"uint256","name":"","type":"uint256"}],"stateMutability":"view","type":"function"},{"inputs":[{"internalType":"uint256","name":"index","type":"uint256"}],"name":"tokenByIndex","outputs":[{"internalType":"uint256","name":"","type":"uint256"}],"stateMutability":"view","type":"function"},{"inputs":[{"internalType":"address","name":"owner","type":"address"},{"internalType":"uint256","name":"index","type":"uint256"}],"name":"tokenOfOwnerByIndex","outputs":[{"internalType":"uint256","name":"","type":"uint256"}],"stateMutability":"view","type":"function"},{"inputs":[{"internalType":"uint256","name":"tokenId","type":"uint256"}],"name":"tokenURI","outputs":[{"internalType":"string","name":"","type":"string"}],"stateMutability":"view","type":"function"},{"inputs":[],"name":"tokenURIFrozen","outputs":[{"internalType":"bool","name":"","type":"bool"}],"stateMutability":"view","type":"function"},{"inputs":[],"name":"totalSaleSupply","outputs":[{"internalType":"uint256","name":"","type":"uint256"}],"stateMutability":"view","type":"function"},{"inputs":[],"name":"totalSupply","outputs":[{"internalType":"uint256","name":"","type":"uint256"}],"stateMutability":"view","type":"function"},{"inputs":[{"internalType":"address","name":"from","type":"address"},{"internalType":"address","name":"to","type":"address"},{"internalType":"uint256","name":"tokenId","type":"uint256"}],"name":"transferFrom","outputs":[],"stateMutability":"nonpayable","type":"function"},{"inputs":[{"internalType":"address","name":"newOwner","type":"address"}],"name":"transferOwnership","outputs":[],"stateMutability":"nonpayable","type":"function"},{"inputs":[],"name":"unpause","outputs":[],"stateMutability":"nonpayable","type":"function"},{"inputs":[{"internalType":"address","name":"account","type":"address"},{"internalType":"bytes32[]","name":"merkleProof","type":"bytes32[]"}],"name":"verify","outputs":[{"internalType":"bool","name":"","type":"bool"}],"stateMutability":"view","type":"function"},{"inputs":[{"internalType":"address","name":"owner","type":"address"}],"name":"walletOfOwner","outputs":[{"internalType":"uint256[]","name":"","type":"uint256[]"}],"stateMutability":"view","type":"function"},{"inputs":[{"internalType":"bytes32[]","name":"merkleProof","type":"bytes32[]"}],"name":"whitelistMint","outputs":[],"stateMutability":"nonpayable","type":"function"},{"inputs":[],"name":"withdraw","outputs":[],"stateMutability":"nonpayable","type":"function"},{"inputs":[],"name":"withdrawlAddress","outputs":[{"internalType":"address","name":"","type":"address"}],"stateMutability":"view","type":"function"}],"bytecode":"60a06040819052600060808190526200001b91600f9162000194565b5060408051808201909152600580825264173539b7b760d91b60209092019182526200004a9160109162000194565b50601180546001600160b01b03191675a2062484e6e705272e98d20e40f154172ec9f30500001790553480156200008057600080fd5b50604051620037f8380380620037f8833981016040819052620000a39162000307565b845185908590620000bc90600090602085019062000194565b508051620000d290600190602084019062000194565b5050600a805460ff1916905550620000ea3362000131565b6001600b556013829055601581905582516200010e90600f90602086019062000194565b5062000126600c6200018b60201b62001ea21760201c565b5050505050620003e8565b600a80546001600160a01b03838116610100818102610100600160a81b031985161790945560405193909204169182907f8be0079c531659141344cd1fd0a4f28419497f9722a3daafe3b4186f6b6457e090600090a35050565b80546001019055565b828054620001a290620003ab565b90600052602060002090601f016020900481019282620001c6576000855562000211565b82601f10620001e157805160ff191683800117855562000211565b8280016001018555821562000211579182015b8281111562000211578251825591602001919060010190620001f4565b506200021f92915062000223565b5090565b5b808211156200021f576000815560010162000224565b634e487b7160e01b600052604160045260246000fd5b600082601f8301126200026257600080fd5b81516001600160401b03808211156200027f576200027f6200023a565b604051601f8301601f19908116603f01168101908282118183101715620002aa57620002aa6200023a565b81604052838152602092508683858801011115620002c757600080fd5b600091505b83821015620002eb5785820183015181830184015290820190620002cc565b83821115620002fd5760008385830101525b9695505050505050565b600080600080600060a086880312156200032057600080fd5b85516001600160401b03808211156200033857600080fd5b6200034689838a0162000250565b965060208801519150808211156200035d57600080fd5b6200036b89838a0162000250565b955060408801519150808211156200038257600080fd5b50620003918882890162000250565b606088015160809098015196999598509695949350505050565b600181811c90821680620003c057607f821691505b60208210811415620003e257634e487b7160e01b600052602260045260246000fd5b50919050565b61340080620003f86000396000f3fe608060405234801561001057600080fd5b50600436106103275760003560e01c806378231978116101b8578063c321458111610104578063da3ef23f116100a2578063e985e9c51161007c578063e985e9c514610656578063f2fde38b14610692578063f4efa3e6146106a5578063ffa9cd3b146106b857600080fd5b8063da3ef23f14610633578063de5f986614610646578063e7bc82081461064e57600080fd5b8063c87b56dd116100de578063c87b56dd146105e5578063c884ef83146105f8578063ce3cd99714610618578063d6d67a091461062b57600080fd5b8063c3214581146105cc578063c6682862146105d5578063c6ab67a3146105dd57600080fd5b80639a2a9c3d11610171578063b88d4fde1161014b578063b88d4fde1461057f578063bc63f02e14610592578063c040e6b8146105a5578063c29de630146105bf57600080fd5b80639a2a9c3d14610547578063a22cb46514610559578063b76a0df41461056c57600080fd5b806378231978146104fd5780637cb647591461050657806381c162f2146105195780638456cb59146105215780638da5cb5b1461052957806395d89b411461053f57600080fd5b80633ccfd60b116102775780635c975abb116102305780636c0360eb1161020a5780636c0360eb146104d25780636cbb8985146104da57806370a08231146104e2578063715018a6146104f557600080fd5b80635c975abb146104a157806361aec1e0146104ac5780636352211e146104bf57600080fd5b80633ccfd60b146104385780633f4ba83a1461044057806342842e0e14610448578063438b63001461045b5780634f6ccce71461047b57806355f804b31461048e57600080fd5b806318160ddd116102e45780632eb4a7ab116102be5780632eb4a7ab146103f65780632f745c59146103ff5780632fbba11514610412578063372f657c1461042557600080fd5b806318160ddd146103d357806323b872dd146103db57806326092b83146103ee57600080fd5b806301ffc9a71461032c57806306fdde0314610354578063081812fc14610369578063088139a614610394578063095ea7b3146103ab57806310969523146103c0575b600080fd5b61033f61033a366004612bb1565b6106d1565b60405190151581526020015b60405180910390f35b61035c6106e2565b60405161034b9190612c26565b61037c610377366004612c39565b610774565b6040516001600160a01b03909116815260200161034b565b61039d60145481565b60405190815260200161034b565b6103be6103b9366004612c6e565b61080e565b005b6103be6103ce366004612d24565b610924565b60085461039d565b6103be6103e9366004612d6d565b610a24565b6103be610a55565b61039d600d5481565b61039d61040d366004612c6e565b610c05565b6103be610420366004612c39565b610c9b565b6103be610433366004612df5565b610e83565b6103be61114c565b6103be611273565b6103be610456366004612d6d565b6112ad565b61046e610469366004612e37565b6112c8565b60405161034b9190612e52565b61039d610489366004612c39565b61136a565b6103be61049c366004612d24565b6113fd565b600a5460ff1661033f565b6103be6104ba366004612c6e565b611488565b61037c6104cd366004612c39565b6114d4565b61035c61154b565b61037c6115d9565b61039d6104f0366004612e37565b6115ec565b6103be611673565b61039d60155481565b6103be610514366004612c39565b6116ad565b6103be6116e2565b6103be6117e4565b600a5461010090046001600160a01b031661037c565b61035c61181c565b60115461033f90610100900460ff1681565b6103be610567366004612e96565b61182b565b61033f61057a366004612ed2565b611836565b6103be61058d366004612f25565b6118ca565b6103be6105a0366004612fa1565b611902565b6016546105b29060ff1681565b60405161034b9190612fe3565b60115461033f9060ff1681565b61039d60135481565b61035c611a3e565b61035c611a4b565b61035c6105f3366004612c39565b611a58565b61039d610606366004612e37565b60126020526000908152604090205481565b6103be61062636600461300b565b611b0d565b61039d611c51565b6103be610641366004612d24565b611c5c565b61039d611c9f565b6103be611cb7565b61033f61066436600461302c565b6001600160a01b03918216600090815260056020908152604080832093909416825291909152205460ff1690565b6103be6106a0366004612e37565b611da7565b6103be6106b3366004612e37565b611e48565b60115461037c906201000090046001600160a01b031681565b60006106dc82611eab565b92915050565b6060600080546106f190613056565b80601f016020809104026020016040519081016040528092919081815260200182805461071d90613056565b801561076a5780601f1061073f5761010080835404028352916020019161076a565b820191906000526020600020905b81548152906001019060200180831161074d57829003601f168201915b5050505050905090565b6000818152600260205260408120546001600160a01b03166107f25760405162461bcd60e51b815260206004820152602c60248201527f4552433732313a20617070726f76656420717565727920666f72206e6f6e657860448201526b34b9ba32b73a103a37b5b2b760a11b60648201526084015b60405180910390fd5b506000908152600460205260409020546001600160a01b031690565b6000610819826114d4565b9050806001600160a01b0316836001600160a01b031614156108875760405162461bcd60e51b815260206004820152602160248201527f4552433732313a20617070726f76616c20746f2063757272656e74206f776e656044820152603960f91b60648201526084016107e9565b336001600160a01b03821614806108a357506108a38133610664565b6109155760405162461bcd60e51b815260206004820152603860248201527f4552433732313a20617070726f76652063616c6c6572206973206e6f74206f7760448201527f6e6572206e6f7220617070726f76656420666f7220616c6c000000000000000060648201526084016107e9565b61091f8383611ed0565b505050565b600a546001600160a01b036101009091041633146109545760405162461bcd60e51b81526004016107e990613091565b60008151116109b55760405162461bcd60e51b815260206004820152602760248201527f50726f76656e616e636520686173682063616e6e6f7420626520656d7074792060448201526639ba3934b7339760c91b60648201526084016107e9565b601154610100900460ff1615610a0d5760405162461bcd60e51b815260206004820152601a60248201527f50726f76656e616e636520686173682069732066726f7a656e2e00000000000060448201526064016107e9565b8051610a2090600e906020840190612b02565b5050565b610a2e3382611f3e565b610a4a5760405162461bcd60e51b81526004016107e9906130c6565b61091f838383612035565b6002600b541415610aa85760405162461bcd60e51b815260206004820152601f60248201527f5265656e7472616e637947756172643a207265656e7472616e742063616c6c0060448201526064016107e9565b6002600b55600a5460ff1615610ad05760405162461bcd60e51b81526004016107e990613117565b600460165460ff166004811115610ae957610ae9612fcd565b14610b365760405162461bcd60e51b815260206004820152601a60248201527f5075626c69632053616c65206e6f7420696e697469617465642e00000000000060448201526064016107e9565b601554600854610b47906001613157565b1115610b655760405162461bcd60e51b81526004016107e99061316f565b33600090815260126020526040902054600211610bb85760405162461bcd60e51b815260206004820152601160248201527026b0bc1019103832b9103bb0b63632ba1760791b60448201526064016107e9565b336000908152601260205260408120805460019290610bd8908490613157565b90915550610bf0905033610beb600c5490565b6121dc565b610bfe600c80546001019055565b6001600b55565b6000610c10836115ec565b8210610c725760405162461bcd60e51b815260206004820152602b60248201527f455243373231456e756d657261626c653a206f776e657220696e646578206f7560448201526a74206f6620626f756e647360a81b60648201526084016107e9565b506001600160a01b03919091166000908152600660209081526040808320938352929052205490565b600a546001600160a01b03610100909104163314610ccb5760405162461bcd60e51b81526004016107e990613091565b600360165460ff166004811115610ce457610ce4612fcd565b14610d315760405162461bcd60e51b815260206004820152601860248201527f5465616d206d696e74206e6f7420696e697469617465642e000000000000000060448201526064016107e9565b60008111610d8d5760405162461bcd60e51b815260206004820152602360248201527f4d696e7420616d6f756e74206d7573742062652067726561746572207468616e60448201526210181760e91b60648201526084016107e9565b601354601454610d9d9083613157565b1115610dff5760405162461bcd60e51b815260206004820152602b60248201527f5472616e73616374696f6e206578636565647320746f74616c207465616d207360448201526a30b6329039bab838363c9760a91b60648201526084016107e9565b60155481610e0c60085490565b610e169190613157565b1115610e345760405162461bcd60e51b81526004016107e99061316f565b8060146000828254610e469190613157565b90915550600190505b818111610a2057610e6333610beb600c5490565b610e71600c80546001019055565b80610e7b816131b5565b915050610e4f565b6002600b541415610ed65760405162461bcd60e51b815260206004820152601f60248201527f5265656e7472616e637947756172643a207265656e7472616e742063616c6c0060448201526064016107e9565b6002600b55600a5460ff1615610efe5760405162461bcd60e51b81526004016107e990613117565b600260165460ff166004811115610f1757610f17612fcd565b14610f645760405162461bcd60e51b815260206004820152601d60248201527f57686974656c6973742073616c65206e6f7420696e697469617465642e00000060448201526064016107e9565b600d546040516bffffffffffffffffffffffff193360601b166020820152610fdd9190603401604051602081830303815290604052805190602001208484808060200260200160405190810160405280939291908181526020018383602002808284376000920191909152509294939250506121f69050565b6110295760405162461bcd60e51b815260206004820152601960248201527f41646472657373206e6f7420696e2077686974656c6973742e0000000000000060448201526064016107e9565b60135460155461103991906131d0565b600854611047906001613157565b11156110a35760405162461bcd60e51b815260206004820152602560248201527f5472616e73616374696f6e20657863656564732077686974656c6973742073756044820152643838363c9760d91b60648201526084016107e9565b336000908152601260205260409020546001116111025760405162461bcd60e51b815260206004820152601f60248201527f57686974656c697374206d696e7420616c726561647920636c61696d65642e0060448201526064016107e9565b336000908152601260205260408120805460019290611122908490613157565b90915550611135905033610beb600c5490565b611143600c80546001019055565b50506001600b55565b600a546001600160a01b0361010090910416331461117c5760405162461bcd60e51b81526004016107e990613091565b47806111ca5760405162461bcd60e51b815260206004820152601760248201527f4e6f2062616c616e636520746f2077697468647261772e00000000000000000060448201526064016107e9565b6011546040516000916201000090046001600160a01b03169083908381818185875af1925050503d806000811461121d576040519150601f19603f3d011682016040523d82523d6000602084013e611222565b606091505b5050905080610a205760405162461bcd60e51b815260206004820152601b60248201527f4661696c656420746f2077697468647261772062616c616e63652e000000000060448201526064016107e9565b600a546001600160a01b036101009091041633146112a35760405162461bcd60e51b81526004016107e990613091565b6112ab61220c565b565b61091f838383604051806020016040528060008152506118ca565b606060006112d5836115ec565b905060008167ffffffffffffffff8111156112f2576112f2612c98565b60405190808252806020026020018201604052801561131b578160200160208202803683370190505b50905060005b82811015611362576113338582610c05565b828281518110611345576113456131e7565b60209081029190910101528061135a816131b5565b915050611321565b509392505050565b600061137560085490565b82106113d85760405162461bcd60e51b815260206004820152602c60248201527f455243373231456e756d657261626c653a20676c6f62616c20696e646578206f60448201526b7574206f6620626f756e647360a01b60648201526084016107e9565b600882815481106113eb576113eb6131e7565b90600052602060002001549050919050565b600a546001600160a01b0361010090910416331461142d5760405162461bcd60e51b81526004016107e990613091565b60115460ff16156114755760405162461bcd60e51b81526020600482015260126024820152712130b9b2aaa9249034b990333937bd32b71760711b60448201526064016107e9565b8051610a2090600f906020840190612b02565b600a546001600160a01b036101009091041633146114b85760405162461bcd60e51b81526004016107e990613091565b6001600160a01b03909116600090815260126020526040902055565b6000818152600260205260408120546001600160a01b0316806106dc5760405162461bcd60e51b815260206004820152602960248201527f4552433732313a206f776e657220717565727920666f72206e6f6e657869737460448201526832b73a103a37b5b2b760b91b60648201526084016107e9565b600f805461155890613056565b80601f016020809104026020016040519081016040528092919081815260200182805461158490613056565b80156115d15780601f106115a6576101008083540402835291602001916115d1565b820191906000526020600020905b8154815290600101906020018083116115b457829003601f168201915b505050505081565b60006115e76104cd60085490565b905090565b60006001600160a01b0382166116575760405162461bcd60e51b815260206004820152602a60248201527f4552433732313a2062616c616e636520717565727920666f7220746865207a65604482015269726f206164647265737360b01b60648201526084016107e9565b506001600160a01b031660009081526003602052604090205490565b600a546001600160a01b036101009091041633146116a35760405162461bcd60e51b81526004016107e990613091565b6112ab600061229f565b600a546001600160a01b036101009091041633146116dd5760405162461bcd60e51b81526004016107e990613091565b600d55565b600a546001600160a01b036101009091041633146117125760405162461bcd60e51b81526004016107e990613091565b6000600e805461172190613056565b9050116117705760405162461bcd60e51b815260206004820152601b60248201527f50726f76656e616e63652068617368206973206e6f74207365742e000000000060448201526064016107e9565b601154610100900460ff16156117d35760405162461bcd60e51b815260206004820152602260248201527f50726f76656e616e6365206861736820697320616c72656164792066726f7a65604482015261371760f11b60648201526084016107e9565b6011805461ff001916610100179055565b600a546001600160a01b036101009091041633146118145760405162461bcd60e51b81526004016107e990613091565b6112ab6122f9565b6060600180546106f190613056565b610a20338383612351565b600d546040516bffffffffffffffffffffffff19606086901b1660208201526000916118b291603401604051602081830303815290604052805190602001208585808060200260200160405190810160405280939291908181526020018383602002808284376000920191909152509294939250506121f69050565b156118bf575060016118c3565b5060005b9392505050565b6118d43383611f3e565b6118f05760405162461bcd60e51b81526004016107e9906130c6565b6118fc84848484612420565b50505050565b600a546001600160a01b036101009091041633146119325760405162461bcd60e51b81526004016107e990613091565b600060165460ff16600481111561194b5761194b612fcd565b1161198f5760405162461bcd60e51b815260206004820152601460248201527327379030b4b9323937b8399030ba1034b734ba1760611b60448201526064016107e9565b6015548261199c60085490565b6119a69190613157565b1115611a075760405162461bcd60e51b815260206004820152602a60248201527f4d696e7420616d6f756e742077696c6c2065786365656420746f74616c20736160448201526936329039bab838363c9760b11b60648201526084016107e9565b60015b82811161091f57611a1e82610beb600c5490565b611a2c600c80546001019055565b80611a36816131b5565b915050611a0a565b6010805461155890613056565b600e805461155890613056565b6000818152600260205260409020546060906001600160a01b0316611ad85760405162461bcd60e51b815260206004820152603060248201527f4552433732314d657461646174613a2055524920717565727920666f72206e6f60448201526f3732bc34b9ba32b73a103a37b5b2b71760811b60648201526084016107e9565b600f611ae383612453565b6010604051602001611af793929190613297565b6040516020818303038152906040529050919050565b600a546001600160a01b03610100909104163314611b3d5760405162461bcd60e51b81526004016107e990613091565b60115460ff610100909104161515600114611bc05760405162461bcd60e51b815260206004820152603860248201527f50726f76656e616e63652068617368206d7573742062652066726f7a656e206260448201527f65666f7265206d696e74696e672063616e2073746172742e000000000000000060648201526084016107e9565b600d54611c2a5760405162461bcd60e51b815260206004820152603260248201527f4d65726b6c6520726f6f74206d7573742062652073657420626565666f72652060448201527136b4b73a34b7339031b0b71039ba30b93a1760711b60648201526084016107e9565b6016805482919060ff19166001836004811115611c4957611c49612fcd565b021790555050565b60006115e760085490565b600a546001600160a01b03610100909104163314611c8c5760405162461bcd60e51b81526004016107e990613091565b8051610a20906010906020840190612b02565b6000611caa60085490565b6015546115e791906131d0565b600a546001600160a01b03610100909104163314611ce75760405162461bcd60e51b81526004016107e990613091565b6000600f8054611cf690613056565b905011611d455760405162461bcd60e51b815260206004820152601860248201527f426173655552492063616e6e6f7420626520656d7074792e000000000000000060448201526064016107e9565b60115460ff1615611d985760405162461bcd60e51b815260206004820152601a60248201527f4261736555524920697320616c72656164792066726f7a656e2e00000000000060448201526064016107e9565b6011805460ff19166001179055565b600a546001600160a01b03610100909104163314611dd75760405162461bcd60e51b81526004016107e990613091565b6001600160a01b038116611e3c5760405162461bcd60e51b815260206004820152602660248201527f4f776e61626c653a206e6577206f776e657220697320746865207a65726f206160448201526564647265737360d01b60648201526084016107e9565b611e458161229f565b50565b600a546001600160a01b03610100909104163314611e785760405162461bcd60e51b81526004016107e990613091565b601180546001600160a01b03909216620100000262010000600160b01b0319909216919091179055565b80546001019055565b60006001600160e01b0319821663780e9d6360e01b14806106dc57506106dc82612551565b600081815260046020526040902080546001600160a01b0319166001600160a01b0384169081179091558190611f05826114d4565b6001600160a01b03167f8c5be1e5ebec7d5bd14f71427d1e84f3dd0314c0f7b2291e5b200ac8c7c3b92560405160405180910390a45050565b6000818152600260205260408120546001600160a01b0316611fb75760405162461bcd60e51b815260206004820152602c60248201527f4552433732313a206f70657261746f7220717565727920666f72206e6f6e657860448201526b34b9ba32b73a103a37b5b2b760a11b60648201526084016107e9565b6000611fc2836114d4565b9050806001600160a01b0316846001600160a01b03161480611ffd5750836001600160a01b0316611ff284610774565b6001600160a01b0316145b8061202d57506001600160a01b0380821660009081526005602090815260408083209388168352929052205460ff165b949350505050565b826001600160a01b0316612048826114d4565b6001600160a01b0316146120ac5760405162461bcd60e51b815260206004820152602560248201527f4552433732313a207472616e736665722066726f6d20696e636f72726563742060448201526437bbb732b960d91b60648201526084016107e9565b6001600160a01b03821661210e5760405162461bcd60e51b8152602060048201526024808201527f4552433732313a207472616e7366657220746f20746865207a65726f206164646044820152637265737360e01b60648201526084016107e9565b6121198383836125a1565b612124600082611ed0565b6001600160a01b038316600090815260036020526040812080546001929061214d9084906131d0565b90915550506001600160a01b038216600090815260036020526040812080546001929061217b908490613157565b909155505060008181526002602052604080822080546001600160a01b0319166001600160a01b0386811691821790925591518493918716917fddf252ad1be2c89b69c2b068fc378daa952ba7f163c4a11628f55a4df523b3ef91a4505050565b610a208282604051806020016040528060008152506125cf565b6000826122038584612602565b14949350505050565b600a5460ff166122555760405162461bcd60e51b815260206004820152601460248201527314185d5cd8589b194e881b9bdd081c185d5cd95960621b60448201526064016107e9565b600a805460ff191690557f5db9ee0a495bf2e6ff9c91a7834c1ba4fdd244a5e8aa4e537bd38aeae4b073aa335b6040516001600160a01b03909116815260200160405180910390a1565b600a80546001600160a01b03838116610100818102610100600160a81b031985161790945560405193909204169182907f8be0079c531659141344cd1fd0a4f28419497f9722a3daafe3b4186f6b6457e090600090a35050565b600a5460ff161561231c5760405162461bcd60e51b81526004016107e990613117565b600a805460ff191660011790557f62e78cea01bee320cd4e420270b5ea74000d11b0c9f74754ebdbfc544b05a2586122823390565b816001600160a01b0316836001600160a01b031614156123b35760405162461bcd60e51b815260206004820152601960248201527f4552433732313a20617070726f766520746f2063616c6c65720000000000000060448201526064016107e9565b6001600160a01b03838116600081815260056020908152604080832094871680845294825291829020805460ff191686151590811790915591519182527f17307eab39ab6107e8899845ad3d59bd9653f200f220920489ca2b5937696c31910160405180910390a3505050565b61242b848484612035565b6124378484848461266e565b6118fc5760405162461bcd60e51b81526004016107e9906132ca565b6060816124775750506040805180820190915260018152600360fc1b602082015290565b8160005b81156124a1578061248b816131b5565b915061249a9050600a83613332565b915061247b565b60008167ffffffffffffffff8111156124bc576124bc612c98565b6040519080825280601f01601f1916602001820160405280156124e6576020820181803683370190505b5090505b841561202d576124fb6001836131d0565b9150612508600a86613346565b612513906030613157565b60f81b818381518110612528576125286131e7565b60200101906001600160f81b031916908160001a90535061254a600a86613332565b94506124ea565b60006001600160e01b031982166380ac58cd60e01b148061258257506001600160e01b03198216635b5e139f60e01b145b806106dc57506301ffc9a760e01b6001600160e01b03198316146106dc565b600a5460ff16156125c45760405162461bcd60e51b81526004016107e990613117565b61091f83838361276c565b6125d98383612824565b6125e6600084848461266e565b61091f5760405162461bcd60e51b81526004016107e9906132ca565b600081815b8451811015611362576000858281518110612624576126246131e7565b6020026020010151905080831161264a576000838152602082905260409020925061265b565b600081815260208490526040902092505b5080612666816131b5565b915050612607565b60006001600160a01b0384163b1561276157604051630a85bd0160e11b81526001600160a01b0385169063150b7a02906126b290339089908890889060040161335a565b6020604051808303816000875af19250505080156126ed575060408051601f3d908101601f191682019092526126ea91810190613397565b60015b612747573d80801561271b576040519150601f19603f3d011682016040523d82523d6000602084013e612720565b606091505b50805161273f5760405162461bcd60e51b81526004016107e9906132ca565b805181602001fd5b6001600160e01b031916630a85bd0160e11b14905061202d565b506001949350505050565b6001600160a01b0383166127c7576127c281600880546000838152600960205260408120829055600182018355919091527ff3f7a9fe364faab93b216da50a3214154f22a0a2b415b23a84c8169e8b636ee30155565b6127ea565b816001600160a01b0316836001600160a01b0316146127ea576127ea8382612972565b6001600160a01b0382166128015761091f81612a0f565b826001600160a01b0316826001600160a01b03161461091f5761091f8282612abe565b6001600160a01b03821661287a5760405162461bcd60e51b815260206004820181905260248201527f4552433732313a206d696e7420746f20746865207a65726f206164647265737360448201526064016107e9565b6000818152600260205260409020546001600160a01b0316156128df5760405162461bcd60e51b815260206004820152601c60248201527f4552433732313a20746f6b656e20616c7265616479206d696e7465640000000060448201526064016107e9565b6128eb600083836125a1565b6001600160a01b0382166000908152600360205260408120805460019290612914908490613157565b909155505060008181526002602052604080822080546001600160a01b0319166001600160a01b03861690811790915590518392907fddf252ad1be2c89b69c2b068fc378daa952ba7f163c4a11628f55a4df523b3ef908290a45050565b6000600161297f846115ec565b61298991906131d0565b6000838152600760205260409020549091508082146129dc576001600160a01b03841660009081526006602090815260408083208584528252808320548484528184208190558352600790915290208190555b5060009182526007602090815260408084208490556001600160a01b039094168352600681528383209183525290812055565b600854600090612a21906001906131d0565b60008381526009602052604081205460088054939450909284908110612a4957612a496131e7565b906000526020600020015490508060088381548110612a6a57612a6a6131e7565b6000918252602080832090910192909255828152600990915260408082208490558582528120556008805480612aa257612aa26133b4565b6001900381819060005260206000200160009055905550505050565b6000612ac9836115ec565b6001600160a01b039093166000908152600660209081526040808320868452825280832085905593825260079052919091209190915550565b828054612b0e90613056565b90600052602060002090601f016020900481019282612b305760008555612b76565b82601f10612b4957805160ff1916838001178555612b76565b82800160010185558215612b76579182015b82811115612b76578251825591602001919060010190612b5b565b50612b82929150612b86565b5090565b5b80821115612b825760008155600101612b87565b6001600160e01b031981168114611e4557600080fd5b600060208284031215612bc357600080fd5b81356118c381612b9b565b60005b83811015612be9578181015183820152602001612bd1565b838111156118fc5750506000910152565b60008151808452612c12816020860160208601612bce565b601f01601f19169290920160200192915050565b6020815260006118c36020830184612bfa565b600060208284031215612c4b57600080fd5b5035919050565b80356001600160a01b0381168114612c6957600080fd5b919050565b60008060408385031215612c8157600080fd5b612c8a83612c52565b946020939093013593505050565b634e487b7160e01b600052604160045260246000fd5b600067ffffffffffffffff80841115612cc957612cc9612c98565b604051601f8501601f19908116603f01168101908282118183101715612cf157612cf1612c98565b81604052809350858152868686011115612d0a57600080fd5b858560208301376000602087830101525050509392505050565b600060208284031215612d3657600080fd5b813567ffffffffffffffff811115612d4d57600080fd5b8201601f81018413612d5e57600080fd5b61202d84823560208401612cae565b600080600060608486031215612d8257600080fd5b612d8b84612c52565b9250612d9960208501612c52565b9150604084013590509250925092565b60008083601f840112612dbb57600080fd5b50813567ffffffffffffffff811115612dd357600080fd5b6020830191508360208260051b8501011115612dee57600080fd5b9250929050565b60008060208385031215612e0857600080fd5b823567ffffffffffffffff811115612e1f57600080fd5b612e2b85828601612da9565b90969095509350505050565b600060208284031215612e4957600080fd5b6118c382612c52565b6020808252825182820181905260009190848201906040850190845b81811015612e8a57835183529284019291840191600101612e6e565b50909695505050505050565b60008060408385031215612ea957600080fd5b612eb283612c52565b915060208301358015158114612ec757600080fd5b809150509250929050565b600080600060408486031215612ee757600080fd5b612ef084612c52565b9250602084013567ffffffffffffffff811115612f0c57600080fd5b612f1886828701612da9565b9497909650939450505050565b60008060008060808587031215612f3b57600080fd5b612f4485612c52565b9350612f5260208601612c52565b925060408501359150606085013567ffffffffffffffff811115612f7557600080fd5b8501601f81018713612f8657600080fd5b612f9587823560208401612cae565b91505092959194509250565b60008060408385031215612fb457600080fd5b82359150612fc460208401612c52565b90509250929050565b634e487b7160e01b600052602160045260246000fd5b602081016005831061300557634e487b7160e01b600052602160045260246000fd5b91905290565b60006020828403121561301d57600080fd5b8135600581106118c357600080fd5b6000806040838503121561303f57600080fd5b61304883612c52565b9150612fc460208401612c52565b600181811c9082168061306a57607f821691505b6020821081141561308b57634e487b7160e01b600052602260045260246000fd5b50919050565b6020808252818101527f4f776e61626c653a2063616c6c6572206973206e6f7420746865206f776e6572604082015260600190565b60208082526031908201527f4552433732313a207472616e736665722063616c6c6572206973206e6f74206f6040820152701ddb995c881b9bdc88185c1c1c9bdd9959607a1b606082015260800190565b60208082526010908201526f14185d5cd8589b194e881c185d5cd95960821b604082015260600190565b634e487b7160e01b600052601160045260246000fd5b6000821982111561316a5761316a613141565b500190565b60208082526026908201527f5472616e73616374696f6e206578636565647320746f74616c2073616c6520736040820152653ab838363c9760d11b606082015260800190565b60006000198214156131c9576131c9613141565b5060010190565b6000828210156131e2576131e2613141565b500390565b634e487b7160e01b600052603260045260246000fd5b8054600090600181811c908083168061321757607f831692505b602080841082141561323957634e487b7160e01b600052602260045260246000fd5b81801561324d576001811461325e5761328b565b60ff1986168952848901965061328b565b60008881526020902060005b868110156132835781548b82015290850190830161326a565b505084890196505b50505050505092915050565b60006132a382866131fd565b84516132b3818360208901612bce565b6132bf818301866131fd565b979650505050505050565b60208082526032908201527f4552433732313a207472616e7366657220746f206e6f6e20455243373231526560408201527131b2b4bb32b91034b6b83632b6b2b73a32b960711b606082015260800190565b634e487b7160e01b600052601260045260246000fd5b6000826133415761334161331c565b500490565b6000826133555761335561331c565b500690565b6001600160a01b038581168252841660208201526040810183905260806060820181905260009061338d90830184612bfa565b9695505050505050565b6000602082840312156133a957600080fd5b81516118c381612b9b565b634e487b7160e01b600052603160045260246000fdfea2646970667358221220187cb5982a4f8db6c06d10ccbb994a4b389a2eac3832657a2b58c9c1c462665364736f6c634300080b0033","bytecodeSha1":"05adbccc90029f4502a7fa5f123f6fd0eda67c83","compiler":{"evm_version":"istanbul","optimizer":{"enabled":true,"runs":200},"version":"0.8.11+commit.d7f03943"},"contractName":"test","language":"Solidity","natspec":{"kind":"dev","methods":{"approve(address,uint256)":{"details":"See {IERC721-approve}."},"balanceOf(address)":{"details":"See {IERC721-balanceOf}."},"getApproved(uint256)":{"details":"See {IERC721-getApproved}."},"isApprovedForAll(address,address)":{"details":"See {IERC721-isApprovedForAll}."},"name()":{"details":"See {IERC721Metadata-name}."},"owner()":{"details":"Returns the address of the current owner."},"ownerOf(uint256)":{"details":"See {IERC721-ownerOf}."},"paused()":{"details":"Returns true if the contract is paused, and false otherwise."},"renounceOwnership()":{"details":"Leaves the contract without owner. It will not be possible to call `onlyOwner` functions anymore. Can only be called by the current owner. NOTE: Renouncing ownership will leave the contract without an owner, thereby removing any functionality that is only available to the owner."},"safeTransferFrom(address,address,uint256)":{"details":"See {IERC721-safeTransferFrom}."},"safeTransferFrom(address,address,uint256,bytes)":{"details":"See {IERC721-safeTransferFrom}."},"setApprovalForAll(address,bool)":{"details":"See {IERC721-setApprovalForAll}."},"symbol()":{"details":"See {IERC721Metadata-symbol}."},"tokenByIndex(uint256)":{"details":"See {IERC721Enumerable-tokenByIndex}."},"tokenOfOwnerByIndex(address,uint256)":{"details":"See {IERC721Enumerable-tokenOfOwnerByIndex}."},"tokenURI(uint256)":{"details":"See {IERC721Metadata-tokenURI}."},"totalSupply()":{"details":"See {IERC721Enumerable-totalSupply}."},"transferFrom(address,address,uint256)":{"details":"See {IERC721-transferFrom}."},"transferOwnership(address)":{"details":"Transfers ownership of the contract to a new account (`newOwner`). Can only be called by the current owner."}},"version":1},"opcodes":"PUSH1 0x80 PUSH1 0x40 MSTORE CALLVALUE DUP1 ISZERO PUSH2 0x10 JUMPI PUSH1 0x0 DUP1 REVERT JUMPDEST POP PUSH1 0x4 CALLDATASIZE LT PUSH2 0x327 JUMPI PUSH1 0x0 CALLDATALOAD PUSH1 0xE0 SHR DUP1 PUSH4 0x78231978 GT PUSH2 0x1B8 JUMPI DUP1 PUSH4 0xC3214581 GT PUSH2 0x104 JUMPI DUP1 PUSH4 0xDA3EF23F GT PUSH2 0xA2 JUMPI DUP1 PUSH4 0xE985E9C5 GT PUSH2 0x7C JUMPI DUP1 PUSH4 0xE985E9C5 EQ PUSH2 0x656 JUMPI DUP1 PUSH4 0xF2FDE38B EQ PUSH2 0x692 JUMPI DUP1 PUSH4 0xF4EFA3E6 EQ PUSH2 0x6A5 JUMPI DUP1 PUSH4 0xFFA9CD3B EQ PUSH2 0x6B8 JUMPI PUSH1 0x0 DUP1 REVERT JUMPDEST DUP1 PUSH4 0xDA3EF23F EQ PUSH2 0x633 JUMPI DUP1 PUSH4 0xDE5F9866 EQ PUSH2 0x646 JUMPI DUP1 PUSH4 0xE7BC8208 EQ PUSH2 0x64E JUMPI PUSH1 0x0 DUP1 REVERT JUMPDEST DUP1 PUSH4 0xC87B56DD GT PUSH2 0xDE JUMPI DUP1 PUSH4 0xC87B56DD EQ PUSH2 0x5E5 JUMPI DUP1 PUSH4 0xC884EF83 EQ PUSH2 0x5F8 JUMPI DUP1 PUSH4 0xCE3CD997 EQ PUSH2 0x618 JUMPI DUP1 PUSH4 0xD6D67A09 EQ PUSH2 0x62B JUMPI PUSH1 0x0 DUP1 REVERT JUMPDEST DUP1 PUSH4 0xC3214581 EQ PUSH2 0x5CC JUMPI DUP1 PUSH4 0xC6682862 EQ PUSH2 0x5D5 JUMPI DUP1 PUSH4 0xC6AB67A3 EQ PUSH2 0x5DD JUMPI PUSH1 0x0 DUP1 REVERT JUMPDEST DUP1 PUSH4 0x9A2A9C3D GT PUSH2 0x171 JUMPI DUP1 PUSH4 0xB88D4FDE GT PUSH2 0x14B JUMPI DUP1 PUSH4 0xB88D4FDE EQ PUSH2 0x57F JUMPI DUP1 PUSH4 0xBC63F02E EQ PUSH2 0x592 JUMPI DUP1 PUSH4 0xC040E6B8 EQ PUSH2 0x5A5 JUMPI DUP1 PUSH4 0xC29DE630 EQ PUSH2 0x5BF JUMPI PUSH1 0x0 DUP1 REVERT JUMPDEST DUP1 PUSH4 0x9A2A9C3D EQ PUSH2 0x547 JUMPI DUP1 PUSH4 0xA22CB465 EQ PUSH2 0x559 JUMPI DUP1 PUSH4 0xB76A0DF4 EQ PUSH2 0x56C JUMPI PUSH1 0x0 DUP1 REVERT JUMPDEST DUP1 PUSH4 0x78231978 EQ PUSH2 0x4FD JUMPI DUP1 PUSH4 0x7CB64759 EQ PUSH2 0x506 JUMPI DUP1 PUSH4 0x81C162F2 EQ PUSH2 0x519 JUMPI DUP1 PUSH4 0x8456CB59 EQ PUSH2 0x521 JUMPI DUP1 PUSH4 0x8DA5CB5B EQ PUSH2 0x529 JUMPI DUP1 PUSH4 0x95D89B41 EQ PUSH2 0x53F JUMPI PUSH1 0x0 DUP1 REVERT JUMPDEST DUP1 PUSH4 0x3CCFD60B GT PUSH2 0x277 JUMPI DUP1 PUSH4 0x5C975ABB GT PUSH2 0x230 JUMPI DUP1 PUSH4 0x6C0360EB GT PUSH2 0x20A JUMPI DUP1 PUSH4 0x6C0360EB EQ PUSH2 0x4D2 JUMPI DUP1 PUSH4 0x6CBB8985 EQ PUSH2 0x4DA JUMPI DUP1 PUSH4 0x70A08231 EQ PUSH2 0x4E2 JUMPI DUP1 PUSH4 0x715018A6 EQ PUSH2 0x4F5 JUMPI PUSH1 0x0 DUP1 REVERT JUMPDEST DUP1 PUSH4 0x5C975ABB EQ PUSH2 0x4A1 JUMPI DUP1 PUSH4 0x61AEC1E0 EQ PUSH2 0x4AC JUMPI DUP1 PUSH4 0x6352211E EQ PUSH2 0x4BF JUMPI PUSH1 0x0 DUP1 REVERT JUMPDEST DUP1 PUSH4 0x3CCFD60B EQ PUSH2 0x438 JUMPI DUP1 PUSH4 0x3F4BA83A EQ PUSH2 0x440 JUMPI DUP1 PUSH4 0x42842E0E EQ PUSH2 0x448 JUMPI DUP1 PUSH4 0x438B6300 EQ PUSH2 0x45B JUMPI DUP1 PUSH4 0x4F6CCCE7 EQ PUSH2 0x47B JUMPI DUP1 PUSH4 0x55F804B3 EQ PUSH2 0x48E JUMPI PUSH1 0x0 DUP1 REVERT JUMPDEST DUP1 PUSH4 0x18160DDD GT PUSH2 0x2E4 JUMPI DUP1 PUSH4 0x2EB4A7AB GT PUSH2 0x2BE JUMPI DUP1 PUSH4 0x2EB4A7AB EQ PUSH2 0x3F6 JUMPI DUP1 PUSH4 0x2F745C59 EQ PUSH2 0x3FF JUMPI DUP1 PUSH4 0x2FBBA115 EQ PUSH2 0x412 JUMPI DUP1 PUSH4 0x372F657C EQ PUSH2 0x425 JUMPI PUSH1 0x0 DUP1 REVERT JUMPDEST DUP1 PUSH4 0x18160DDD EQ PUSH2 0x3D3 JUMPI DUP1 PUSH4 0x23B872DD EQ PUSH2 0x3DB JUMPI DUP1 PUSH4 0x26092B83 EQ PUSH2 0x3EE JUMPI PUSH1 0x0 DUP1 REVERT JUMPDEST DUP1 PUSH4 0x1FFC9A7 EQ PUSH2 0x32C JUMPI DUP1 PUSH4 0x6FDDE03 EQ PUSH2 0x354 JUMPI DUP1 PUSH4 0x81812FC EQ PUSH2 0x369 JUMPI DUP1 PUSH4 0x88139A6 EQ PUSH2 0x394 JUMPI DUP1 PUSH4 0x95EA7B3 EQ PUSH2 0x3AB JUMPI DUP1 PUSH4 0x10969523 EQ PUSH2 0x3C0 JUMPI JUMPDEST PUSH1 0x0 DUP1 REVERT JUMPDEST PUSH2 0x33F PUSH2 0x33A CALLDATASIZE PUSH1 0x4 PUSH2 0x2BB1 JUMP JUMPDEST PUSH2 0x6D1 JUMP JUMPDEST PUSH1 0x40 MLOAD SWAP1 ISZERO ISZERO DUP2 MSTORE PUSH1 0x20 ADD JUMPDEST PUSH1 0x40 MLOAD DUP1 SWAP2 SUB SWAP1 RETURN JUMPDEST PUSH2 0x35C PUSH2 0x6E2 JUMP JUMPDEST PUSH1 0x40 MLOAD PUSH2 0x34B SWAP2 SWAP1 PUSH2 0x2C26 JUMP JUMPDEST PUSH2 0x37C PUSH2 0x377 CALLDATASIZE PUSH1 0x4 PUSH2 0x2C39 JUMP JUMPDEST PUSH2 0x774 JUMP JUMPDEST PUSH1 0x40 MLOAD PUSH1 0x1 PUSH1 0x1 PUSH1 0xA0 SHL SUB SWAP1 SWAP2 AND DUP2 MSTORE PUSH1 0x20 ADD PUSH2 0x34B JUMP JUMPDEST PUSH2 0x39D PUSH1 0x14 SLOAD DUP2 JUMP JUMPDEST PUSH1 0x40 MLOAD SWAP1 DUP2 MSTORE PUSH1 0x20 ADD PUSH2 0x34B JUMP JUMPDEST PUSH2 0x3BE PUSH2 0x3B9 CALLDATASIZE PUSH1 0x4 PUSH2 0x2C6E JUMP JUMPDEST PUSH2 0x80E JUMP JUMPDEST STOP JUMPDEST PUSH2 0x3BE PUSH2 0x3CE CALLDATASIZE PUSH1 0x4 PUSH2 0x2D24 JUMP JUMPDEST PUSH2 0x924 JUMP JUMPDEST PUSH1 0x8 SLOAD PUSH2 0x39D JUMP JUMPDEST PUSH2 0x3BE PUSH2 0x3E9 CALLDATASIZE PUSH1 0x4 PUSH2 0x2D6D JUMP JUMPDEST PUSH2 0xA24 JUMP JUMPDEST PUSH2 0x3BE PUSH2 0xA55 JUMP JUMPDEST PUSH2 0x39D PUSH1 0xD SLOAD DUP2 JUMP JUMPDEST PUSH2 0x39D PUSH2 0x40D CALLDATASIZE PUSH1 0x4 PUSH2 0x2C6E JUMP JUMPDEST PUSH2 0xC05 JUMP JUMPDEST PUSH2 0x3BE PUSH2 0x420 CALLDATASIZE PUSH1 0x4 PUSH2 0x2C39 JUMP JUMPDEST PUSH2 0xC9B JUMP JUMPDEST PUSH2 0x3BE PUSH2 0x433 CALLDATASIZE PUSH1 0x4 PUSH2 0x2DF5 JUMP JUMPDEST PUSH2 0xE83 JUMP JUMPDEST PUSH2 0x3BE PUSH2 0x114C JUMP JUMPDEST PUSH2 0x3BE PUSH2 0x1273 JUMP JUMPDEST PUSH2 0x3BE PUSH2 0x456 CALLDATASIZE PUSH1 0x4 PUSH2 0x2D6D JUMP JUMPDEST PUSH2 0x12AD JUMP JUMPDEST PUSH2 0x46E PUSH2 0x469 CALLDATASIZE PUSH1 0x4 PUSH2 0x2E37 JUMP JUMPDEST PUSH2 0x12C8 JUMP JUMPDEST PUSH1 0x40 MLOAD PUSH2 0x34B SWAP2 SWAP1 PUSH2 0x2E52 JUMP JUMPDEST PUSH2 0x39D PUSH2 0x489 CALLDATASIZE PUSH1 0x4 PUSH2 0x2C39 JUMP JUMPDEST PUSH2 0x136A JUMP JUMPDEST PUSH2 0x3BE PUSH2 0x49C CALLDATASIZE PUSH1 0x4 PUSH2 0x2D24 JUMP JUMPDEST PUSH2 0x13FD JUMP JUMPDEST PUSH1 0xA SLOAD PUSH1 0xFF AND PUSH2 0x33F JUMP JUMPDEST PUSH2 0x3BE PUSH2 0x4BA CALLDATASIZE PUSH1 0x4 PUSH2 0x2C6E JUMP JUMPDEST PUSH2 0x1488 JUMP JUMPDEST PUSH2 0x37C PUSH2 0x4CD CALLDATASIZE PUSH1 0x4 PUSH2 0x2C39 JUMP JUMPDEST PUSH2 0x14D4 JUMP JUMPDEST PUSH2 0x35C PUSH2 0x154B JUMP JUMPDEST PUSH2 0x37C PUSH2 0x15D9 JUMP JUMPDEST PUSH2 0x39D PUSH2 0x4F0 CALLDATASIZE PUSH1 0x4 PUSH2 0x2E37 JUMP JUMPDEST PUSH2 0x15EC JUMP JUMPDEST PUSH2 0x3BE PUSH2 0x1673 JUMP JUMPDEST PUSH2 0x39D PUSH1 0x15 SLOAD DUP2 JUMP JUMPDEST PUSH2 0x3BE PUSH2 0x514 CALLDATASIZE PUSH1 0x4 PUSH2 0x2C39 JUMP JUMPDEST PUSH2 0x16AD JUMP JUMPDEST PUSH2 0x3BE PUSH2 0x16E2 JUMP JUMPDEST PUSH2 0x3BE PUSH2 0x17E4 JUMP JUMPDEST PUSH1 0xA SLOAD PUSH2 0x100 SWAP1 DIV PUSH1 0x1 PUSH1 0x1 PUSH1 0xA0 SHL SUB AND PUSH2 0x37C JUMP JUMPDEST PUSH2 0x35C PUSH2 0x181C JUMP JUMPDEST PUSH1 0x11 SLOAD PUSH2 0x33F SWAP1 PUSH2 0x100 SWAP1 DIV PUSH1 0xFF AND DUP2 JUMP JUMPDEST PUSH2 0x3BE PUSH2 0x567 CALLDATASIZE PUSH1 0x4 PUSH2 0x2E96 JUMP JUMPDEST PUSH2 0x182B JUMP JUMPDEST PUSH2 0x33F PUSH2 0x57A CALLDATASIZE PUSH1 0x4 PUSH2 0x2ED2 JUMP JUMPDEST PUSH2 0x1836 JUMP JUMPDEST PUSH2 0x3BE PUSH2 0x58D CALLDATASIZE PUSH1 0x4 PUSH2 0x2F25 JUMP JUMPDEST PUSH2 0x18CA JUMP JUMPDEST PUSH2 0x3BE PUSH2 0x5A0 CALLDATASIZE PUSH1 0x4 PUSH2 0x2FA1 JUMP JUMPDEST PUSH2 0x1902 JUMP JUMPDEST PUSH1 0x16 SLOAD PUSH2 0x5B2 SWAP1 PUSH1 0xFF AND DUP2 JUMP JUMPDEST PUSH1 0x40 MLOAD PUSH2 0x34B SWAP2 SWAP1 PUSH2 0x2FE3 JUMP JUMPDEST PUSH1 0x11 SLOAD PUSH2 0x33F SWAP1 PUSH1 0xFF AND DUP2 JUMP JUMPDEST PUSH2 0x39D PUSH1 0x13 SLOAD DUP2 JUMP JUMPDEST PUSH2 0x35C PUSH2 0x1A3E JUMP JUMPDEST PUSH2 0x35C PUSH2 0x1A4B JUMP JUMPDEST PUSH2 0x35C PUSH2 0x5F3 CALLDATASIZE PUSH1 0x4 PUSH2 0x2C39 JUMP JUMPDEST PUSH2 0x1A58 JUMP JUMPDEST PUSH2 0x39D PUSH2 0x606 CALLDATASIZE PUSH1 0x4 PUSH2 0x2E37 JUMP JUMPDEST PUSH1 0x12 PUSH1 0x20 MSTORE PUSH1 0x0 SWAP1 DUP2 MSTORE PUSH1 0x40 SWAP1 KECCAK256 SLOAD DUP2 JUMP JUMPDEST PUSH2 0x3BE PUSH2 0x626 CALLDATASIZE PUSH1 0x4 PUSH2 0x300B JUMP JUMPDEST PUSH2 0x1B0D JUMP JUMPDEST PUSH2 0x39D PUSH2 0x1C51 JUMP JUMPDEST PUSH2 0x3BE PUSH2 0x641 CALLDATASIZE PUSH1 0x4 PUSH2 0x2D24 JUMP JUMPDEST PUSH2 0x1C5C JUMP JUMPDEST PUSH2 0x39D PUSH2 0x1C9F JUMP JUMPDEST PUSH2 0x3BE PUSH2 0x1CB7 JUMP JUMPDEST PUSH2 0x33F PUSH2 0x664 CALLDATASIZE PUSH1 0x4 PUSH2 0x302C JUMP JUMPDEST PUSH1 0x1 PUSH1 0x1 PUSH1 0xA0 SHL SUB SWAP2 DUP3 AND PUSH1 0x0 SWAP1 DUP2 MSTORE PUSH1 0x5 PUSH1 0x20 SWAP1 DUP2 MSTORE PUSH1 0x40 DUP1 DUP4 KECCAK256 SWAP4 SWAP1 SWAP5 AND DUP3 MSTORE SWAP2 SWAP1 SWAP2 MSTORE KECCAK256 SLOAD PUSH1 0xFF AND SWAP1 JUMP JUMPDEST PUSH2 0x3BE PUSH2 0x6A0 CALLDATASIZE PUSH1 0x4 PUSH2 0x2E37 JUMP JUMPDEST PUSH2 0x1DA7 JUMP JUMPDEST PUSH2 0x3BE PUSH2 0x6B3 CALLDATASIZE PUSH1 0x4 PUSH2 0x2E37 JUMP JUMPDEST PUSH2 0x1E48 JUMP JUMPDEST PUSH1 0x11 SLOAD PUSH2 0x37C SWAP1 PUSH3 0x10000 SWAP1 DIV PUSH1 0x1 PUSH1 0x1 PUSH1 0xA0 SHL SUB AND DUP2 JUMP JUMPDEST PUSH1 0x0 PUSH2 0x6DC DUP3 PUSH2 0x1EAB JUMP JUMPDEST SWAP3 SWAP2 POP POP JUMP JUMPDEST PUSH1 0x60 PUSH1 0x0 DUP1 SLOAD PUSH2 0x6F1 SWAP1 PUSH2 0x3056 JUMP JUMPDEST DUP1 PUSH1 0x1F ADD PUSH1 0x20 DUP1 SWAP2 DIV MUL PUSH1 0x20 ADD PUSH1 0x40 MLOAD SWAP1 DUP2 ADD PUSH1 0x40 MSTORE DUP1 SWAP3 SWAP2 SWAP1 DUP2 DUP2 MSTORE PUSH1 0x20 ADD DUP3 DUP1 SLOAD PUSH2 0x71D SWAP1 PUSH2 0x3056 JUMP JUMPDEST DUP1 ISZERO PUSH2 0x76A JUMPI DUP1 PUSH1 0x1F LT PUSH2 0x73F JUMPI PUSH2 0x100 DUP1 DUP4 SLOAD DIV MUL DUP4 MSTORE SWAP2 PUSH1 0x20 ADD SWAP2 PUSH2 0x76A JUMP JUMPDEST DUP3 ADD SWAP2 SWAP1 PUSH1 0x0 MSTORE PUSH1 0x20 PUSH1 0x0 KECCAK256 SWAP1 JUMPDEST DUP2 SLOAD DUP2 MSTORE SWAP1 PUSH1 0x1 ADD SWAP1 PUSH1 0x20 ADD DUP1 DUP4 GT PUSH2 0x74D JUMPI DUP3 SWAP1 SUB PUSH1 0x1F AND DUP3 ADD SWAP2 JUMPDEST POP POP POP POP POP SWAP1 POP SWAP1 JUMP JUMPDEST PUSH1 0x0 DUP2 DUP2 MSTORE PUSH1 0x2 PUSH1 0x20 MSTORE PUSH1 0x40 DUP2 KECCAK256 SLOAD PUSH1 0x1 PUSH1 0x1 PUSH1 0xA0 SHL SUB AND PUSH2 0x7F2 JUMPI PUSH1 0x40 MLOAD PUSH3 0x461BCD PUSH1 0xE5 SHL DUP2 MSTORE PUSH1 0x20 PUSH1 0x4 DUP3 ADD MSTORE PUSH1 0x2C PUSH1 0x24 DUP3 ADD MSTORE PUSH32 0x4552433732313A20617070726F76656420717565727920666F72206E6F6E6578 PUSH1 0x44 DUP3 ADD MSTORE PUSH12 0x34B9BA32B73A103A37B5B2B7 PUSH1 0xA1 SHL PUSH1 0x64 DUP3 ADD MSTORE PUSH1 0x84 ADD JUMPDEST PUSH1 0x40 MLOAD DUP1 SWAP2 SUB SWAP1 REVERT JUMPDEST POP PUSH1 0x0 SWAP1 DUP2 MSTORE PUSH1 0x4 PUSH1 0x20 MSTORE PUSH1 0x40 SWAP1 KECCAK256 SLOAD PUSH1 0x1 PUSH1 0x1 PUSH1 0xA0 SHL SUB AND SWAP1 JUMP JUMPDEST PUSH1 0x0 PUSH2 0x819 DUP3 PUSH2 0x14D4 JUMP JUMPDEST SWAP1 POP DUP1 PUSH1 0x1 PUSH1 0x1 PUSH1 0xA0 SHL SUB AND DUP4 PUSH1 0x1 PUSH1 0x1 PUSH1 0xA0 SHL SUB AND EQ ISZERO PUSH2 0x887 JUMPI PUSH1 0x40 MLOAD PUSH3 0x461BCD PUSH1 0xE5 SHL DUP2 MSTORE PUSH1 0x20 PUSH1 0x4 DUP3 ADD MSTORE PUSH1 0x21 PUSH1 0x24 DUP3 ADD MSTORE PUSH32 0x4552433732313A20617070726F76616C20746F2063757272656E74206F776E65 PUSH1 0x44 DUP3 ADD MSTORE PUSH1 0x39 PUSH1 0xF9 SHL PUSH1 0x64 DUP3 ADD MSTORE PUSH1 0x84 ADD PUSH2 0x7E9 JUMP JUMPDEST CALLER PUSH1 0x1 PUSH1 0x1 PUSH1 0xA0 SHL SUB DUP3 AND EQ DUP1 PUSH2 0x8A3 JUMPI POP PUSH2 0x8A3 DUP2 CALLER PUSH2 0x664 JUMP JUMPDEST PUSH2 0x915 JUMPI PUSH1 0x40 MLOAD PUSH3 0x461BCD PUSH1 0xE5 SHL DUP2 MSTORE PUSH1 0x20 PUSH1 0x4 DUP3 ADD MSTORE PUSH1 0x38 PUSH1 0x24 DUP3 ADD MSTORE PUSH32 0x4552433732313A20617070726F76652063616C6C6572206973206E6F74206F77 PUSH1 0x44 DUP3 ADD MSTORE PUSH32 0x6E6572206E6F7220617070726F76656420666F7220616C6C0000000000000000 PUSH1 0x64 DUP3 ADD MSTORE PUSH1 0x84 ADD PUSH2 0x7E9 JUMP JUMPDEST PUSH2 0x91F DUP4 DUP4 PUSH2 0x1ED0 JUMP JUMPDEST POP POP POP JUMP JUMPDEST PUSH1 0xA SLOAD PUSH1 0x1 PUSH1 0x1 PUSH1 0xA0 SHL SUB PUSH2 0x100 SWAP1 SWAP2 DIV AND CALLER EQ PUSH2 0x954 JUMPI PUSH1 0x40 MLOAD PUSH3 0x461BCD PUSH1 0xE5 SHL DUP2 MSTORE PUSH1 0x4 ADD PUSH2 0x7E9 SWAP1 PUSH2 0x3091 JUMP JUMPDEST PUSH1 0x0 DUP2 MLOAD GT PUSH2 0x9B5 JUMPI PUSH1 0x40 MLOAD PUSH3 0x461BCD PUSH1 0xE5 SHL DUP2 MSTORE PUSH1 0x20 PUSH1 0x4 DUP3 ADD MSTORE PUSH1 0x27 PUSH1 0x24 DUP3 ADD MSTORE PUSH32 0x50726F76656E616E636520686173682063616E6E6F7420626520656D70747920 PUSH1 0x44 DUP3 ADD MSTORE PUSH7 0x39BA3934B73397 PUSH1 0xC9 SHL PUSH1 0x64 DUP3 ADD MSTORE PUSH1 0x84 ADD PUSH2 0x7E9 JUMP JUMPDEST PUSH1 0x11 SLOAD PUSH2 0x100 SWAP1 DIV PUSH1 0xFF AND ISZERO PUSH2 0xA0D JUMPI PUSH1 0x40 MLOAD PUSH3 0x461BCD PUSH1 0xE5 SHL DUP2 MSTORE PUSH1 0x20 PUSH1 0x4 DUP3 ADD MSTORE PUSH1 0x1A PUSH1 0x24 DUP3 ADD MSTORE PUSH32 0x50726F76656E616E636520686173682069732066726F7A656E2E000000000000 PUSH1 0x44 DUP3 ADD MSTORE PUSH1 0x64 ADD PUSH2 0x7E9 JUMP JUMPDEST DUP1 MLOAD PUSH2 0xA20 SWAP1 PUSH1 0xE SWAP1 PUSH1 0x20 DUP5 ADD SWAP1 PUSH2 0x2B02 JUMP JUMPDEST POP POP JUMP JUMPDEST PUSH2 0xA2E CALLER DUP3 PUSH2 0x1F3E JUMP JUMPDEST PUSH2 0xA4A JUMPI PUSH1 0x40 MLOAD PUSH3 0x461BCD PUSH1 0xE5 SHL DUP2 MSTORE PUSH1 0x4 ADD PUSH2 0x7E9 SWAP1 PUSH2 0x30C6 JUMP JUMPDEST PUSH2 0x91F DUP4 DUP4 DUP4 PUSH2 0x2035 JUMP JUMPDEST PUSH1 0x2 PUSH1 0xB SLOAD EQ ISZERO PUSH2 0xAA8 JUMPI PUSH1 0x40 MLOAD PUSH3 0x461BCD PUSH1 0xE5 SHL DUP2 MSTORE PUSH1 0x20 PUSH1 0x4 DUP3 ADD MSTORE PUSH1 0x1F PUSH1 0x24 DUP3 ADD MSTORE PUSH32 0x5265656E7472616E637947756172643A207265656E7472616E742063616C6C00 PUSH1 0x44 DUP3 ADD MSTORE PUSH1 0x64 ADD PUSH2 0x7E9 JUMP JUMPDEST PUSH1 0x2 PUSH1 0xB SSTORE PUSH1 0xA SLOAD PUSH1 0xFF AND ISZERO PUSH2 0xAD0 JUMPI PUSH1 0x40 MLOAD PUSH3 0x461BCD PUSH1 0xE5 SHL DUP2 MSTORE PUSH1 0x4 ADD PUSH2 0x7E9 SWAP1 PUSH2 0x3117 JUMP JUMPDEST PUSH1 0x4 PUSH1 0x16 SLOAD PUSH1 0xFF AND PUSH1 0x4 DUP2 GT ISZERO PUSH2 0xAE9 JUMPI PUSH2 0xAE9 PUSH2 0x2FCD JUMP JUMPDEST EQ PUSH2 0xB36 JUMPI PUSH1 0x40 MLOAD PUSH3 0x461BCD PUSH1 0xE5 SHL DUP2 MSTORE PUSH1 0x20 PUSH1 0x4 DUP3 ADD MSTORE PUSH1 0x1A PUSH1 0x24 DUP3 ADD MSTORE PUSH32 0x5075626C69632053616C65206E6F7420696E697469617465642E000000000000 PUSH1 0x44 DUP3 ADD MSTORE PUSH1 0x64 ADD PUSH2 0x7E9 JUMP JUMPDEST PUSH1 0x15 SLOAD PUSH1 0x8 SLOAD PUSH2 0xB47 SWAP1 PUSH1 0x1 PUSH2 0x3157 JUMP JUMPDEST GT ISZERO PUSH2 0xB65 JUMPI PUSH1 0x40 MLOAD PUSH3 0x461BCD PUSH1 0xE5 SHL DUP2 MSTORE PUSH1 0x4 ADD PUSH2 0x7E9 SWAP1 PUSH2 0x316F JUMP JUMPDEST CALLER PUSH1 0x0 SWAP1 DUP2 MSTORE PUSH1 0x12 PUSH1 0x20 MSTORE PUSH1 0x40 SWAP1 KECCAK256 SLOAD PUSH1 0x2 GT PUSH2 0xBB8 JUMPI PUSH1 0x40 MLOAD PUSH3 0x461BCD PUSH1 0xE5 SHL DUP2 MSTORE PUSH1 0x20 PUSH1 0x4 DUP3 ADD MSTORE PUSH1 0x11 PUSH1 0x24 DUP3 ADD MSTORE PUSH17 0x26B0BC1019103832B9103BB0B63632BA17 PUSH1 0x79 SHL PUSH1 0x44 DUP3 ADD MSTORE PUSH1 0x64 ADD PUSH2 0x7E9 JUMP JUMPDEST CALLER PUSH1 0x0 SWAP1 DUP2 MSTORE PUSH1 0x12 PUSH1 0x20 MSTORE PUSH1 0x40 DUP2 KECCAK256 DUP1 SLOAD PUSH1 0x1 SWAP3 SWAP1 PUSH2 0xBD8 SWAP1 DUP5 SWAP1 PUSH2 0x3157 JUMP JUMPDEST SWAP1 SWAP2 SSTORE POP PUSH2 0xBF0 SWAP1 POP CALLER PUSH2 0xBEB PUSH1 0xC SLOAD SWAP1 JUMP JUMPDEST PUSH2 0x21DC JUMP JUMPDEST PUSH2 0xBFE PUSH1 0xC DUP1 SLOAD PUSH1 0x1 ADD SWAP1 SSTORE JUMP JUMPDEST PUSH1 0x1 PUSH1 0xB SSTORE JUMP JUMPDEST PUSH1 0x0 PUSH2 0xC10 DUP4 PUSH2 0x15EC JUMP JUMPDEST DUP3 LT PUSH2 0xC72 JUMPI PUSH1 0x40 MLOAD PUSH3 0x461BCD PUSH1 0xE5 SHL DUP2 MSTORE PUSH1 0x20 PUSH1 0x4 DUP3 ADD MSTORE PUSH1 0x2B PUSH1 0x24 DUP3 ADD MSTORE PUSH32 0x455243373231456E756D657261626C653A206F776E657220696E646578206F75 PUSH1 0x44 DUP3 ADD MSTORE PUSH11 0x74206F6620626F756E6473 PUSH1 0xA8 SHL PUSH1 0x64 DUP3 ADD MSTORE PUSH1 0x84 ADD PUSH2 0x7E9 JUMP JUMPDEST POP PUSH1 0x1 PUSH1 0x1 PUSH1 0xA0 SHL SUB SWAP2 SWAP1 SWAP2 AND PUSH1 0x0 SWAP1 DUP2 MSTORE PUSH1 0x6 PUSH1 0x20 SWAP1 DUP2 MSTORE PUSH1 0x40 DUP1 DUP4 KECCAK256 SWAP4 DUP4 MSTORE SWAP3 SWAP1 MSTORE KECCAK256 SLOAD SWAP1 JUMP JUMPDEST PUSH1 0xA SLOAD PUSH1 0x1 PUSH1 0x1 PUSH1 0xA0 SHL SUB PUSH2 0x100 SWAP1 SWAP2 DIV AND CALLER EQ PUSH2 0xCCB JUMPI PUSH1 0x40 MLOAD PUSH3 0x461BCD PUSH1 0xE5 SHL DUP2 MSTORE PUSH1 0x4 ADD PUSH2 0x7E9 SWAP1 PUSH2 0x3091 JUMP JUMPDEST PUSH1 0x3 PUSH1 0x16 SLOAD PUSH1 0xFF AND PUSH1 0x4 DUP2 GT ISZERO PUSH2 0xCE4 JUMPI PUSH2 0xCE4 PUSH2 0x2FCD JUMP JUMPDEST EQ PUSH2 0xD31 JUMPI PUSH1 0x40 MLOAD PUSH3 0x461BCD PUSH1 0xE5 SHL DUP2 MSTORE PUSH1 0x20 PUSH1 0x4 DUP3 ADD MSTORE PUSH1 0x18 PUSH1 0x24 DUP3 ADD MSTORE PUSH32 0x5465616D206D696E74206E6F7420696E697469617465642E0000000000000000 PUSH1 0x44 DUP3 ADD MSTORE PUSH1 0x64 ADD PUSH2 0x7E9 JUMP JUMPDEST PUSH1 0x0 DUP2 GT PUSH2 0xD8D JUMPI PUSH1 0x40 MLOAD PUSH3 0x461BCD PUSH1 0xE5 SHL DUP2 MSTORE PUSH1 0x20 PUSH1 0x4 DUP3 ADD MSTORE PUSH1 0x23 PUSH1 0x24 DUP3 ADD MSTORE PUSH32 0x4D696E7420616D6F756E74206D7573742062652067726561746572207468616E PUSH1 0x44 DUP3 ADD MSTORE PUSH3 0x101817 PUSH1 0xE9 SHL PUSH1 0x64 DUP3 ADD MSTORE PUSH1 0x84 ADD PUSH2 0x7E9 JUMP JUMPDEST PUSH1 0x13 SLOAD PUSH1 0x14 SLOAD PUSH2 0xD9D SWAP1 DUP4 PUSH2 0x3157 JUMP JUMPDEST GT ISZERO PUSH2 0xDFF JUMPI PUSH1 0x40 MLOAD PUSH3 0x461BCD PUSH1 0xE5 SHL DUP2 MSTORE PUSH1 0x20 PUSH1 0x4 DUP3 ADD MSTORE PUSH1 0x2B PUSH1 0x24 DUP3 ADD MSTORE PUSH32 0x5472616E73616374696F6E206578636565647320746F74616C207465616D2073 PUSH1 0x44 DUP3 ADD MSTORE PUSH11 0x30B6329039BAB838363C97 PUSH1 0xA9 SHL PUSH1 0x64 DUP3 ADD MSTORE PUSH1 0x84 ADD PUSH2 0x7E9 JUMP JUMPDEST PUSH1 0x15 SLOAD DUP2 PUSH2 0xE0C PUSH1 0x8 SLOAD SWAP1 JUMP JUMPDEST PUSH2 0xE16 SWAP2 SWAP1 PUSH2 0x3157 JUMP JUMPDEST GT ISZERO PUSH2 0xE34 JUMPI PUSH1 0x40 MLOAD PUSH3 0x461BCD PUSH1 0xE5 SHL DUP2 MSTORE PUSH1 0x4 ADD PUSH2 0x7E9 SWAP1 PUSH2 0x316F JUMP JUMPDEST DUP1 PUSH1 0x14 PUSH1 0x0 DUP3 DUP3 SLOAD PUSH2 0xE46 SWAP2 SWAP1 PUSH2 0x3157 JUMP JUMPDEST SWAP1 SWAP2 SSTORE POP PUSH1 0x1 SWAP1 POP JUMPDEST DUP2 DUP2 GT PUSH2 0xA20 JUMPI PUSH2 0xE63 CALLER PUSH2 0xBEB PUSH1 0xC SLOAD SWAP1 JUMP JUMPDEST PUSH2 0xE71 PUSH1 0xC DUP1 SLOAD PUSH1 0x1 ADD SWAP1 SSTORE JUMP JUMPDEST DUP1 PUSH2 0xE7B DUP2 PUSH2 0x31B5 JUMP JUMPDEST SWAP2 POP POP PUSH2 0xE4F JUMP JUMPDEST PUSH1 0x2 PUSH1 0xB SLOAD EQ ISZERO PUSH2 0xED6 JUMPI PUSH1 0x40 MLOAD PUSH3 0x461BCD PUSH1 0xE5 SHL DUP2 MSTORE PUSH1 0x20 PUSH1 0x4 DUP3 ADD MSTORE PUSH1 0x1F PUSH1 0x24 DUP3 ADD MSTORE PUSH32 0x5265656E7472616E637947756172643A207265656E7472616E742063616C6C00 PUSH1 0x44 DUP3 ADD MSTORE PUSH1 0x64 ADD PUSH2 0x7E9 JUMP JUMPDEST PUSH1 0x2 PUSH1 0xB SSTORE PUSH1 0xA SLOAD PUSH1 0xFF AND ISZERO PUSH2 0xEFE JUMPI PUSH1 0x40 MLOAD PUSH3 0x461BCD PUSH1 0xE5 SHL DUP2 MSTORE PUSH1 0x4 ADD PUSH2 0x7E9 SWAP1 PUSH2 0x3117 JUMP JUMPDEST PUSH1 0x2 PUSH1 0x16 SLOAD PUSH1 0xFF AND PUSH1 0x4 DUP2 GT ISZERO PUSH2 0xF17 JUMPI PUSH2 0xF17 PUSH2 0x2FCD JUMP JUMPDEST EQ PUSH2 0xF64 JUMPI PUSH1 0x40 MLOAD PUSH3 0x461BCD PUSH1 0xE5 SHL DUP2 MSTORE PUSH1 0x20 PUSH1 0x4 DUP3 ADD MSTORE PUSH1 0x1D PUSH1 0x24 DUP3 ADD MSTORE PUSH32 0x57686974656C6973742073616C65206E6F7420696E697469617465642E000000 PUSH1 0x44 DUP3 ADD MSTORE PUSH1 0x64 ADD PUSH2 0x7E9 JUMP JUMPDEST PUSH1 0xD SLOAD PUSH1 0x40 MLOAD PUSH12 0xFFFFFFFFFFFFFFFFFFFFFFFF NOT CALLER PUSH1 0x60 SHL AND PUSH1 0x20 DUP3 ADD MSTORE PUSH2 0xFDD SWAP2 SWAP1 PUSH1 0x34 ADD PUSH1 0x40 MLOAD PUSH1 0x20 DUP2 DUP4 SUB SUB DUP2 MSTORE SWAP1 PUSH1 0x40 MSTORE DUP1 MLOAD SWAP1 PUSH1 0x20 ADD KECCAK256 DUP5 DUP5 DUP1 DUP1 PUSH1 0x20 MUL PUSH1 0x20 ADD PUSH1 0x40 MLOAD SWAP1 DUP2 ADD PUSH1 0x40 MSTORE DUP1 SWAP4 SWAP3 SWAP2 SWAP1 DUP2 DUP2 MSTORE PUSH1 0x20 ADD DUP4 DUP4 PUSH1 0x20 MUL DUP1 DUP3 DUP5 CALLDATACOPY PUSH1 0x0 SWAP3 ADD SWAP2 SWAP1 SWAP2 MSTORE POP SWAP3 SWAP5 SWAP4 SWAP3 POP POP PUSH2 0x21F6 SWAP1 POP JUMP JUMPDEST PUSH2 0x1029 JUMPI PUSH1 0x40 MLOAD PUSH3 0x461BCD PUSH1 0xE5 SHL DUP2 MSTORE PUSH1 0x20 PUSH1 0x4 DUP3 ADD MSTORE PUSH1 0x19 PUSH1 0x24 DUP3 ADD MSTORE PUSH32 0x41646472657373206E6F7420696E2077686974656C6973742E00000000000000 PUSH1 0x44 DUP3 ADD MSTORE PUSH1 0x64 ADD PUSH2 0x7E9 JUMP JUMPDEST PUSH1 0x13 SLOAD PUSH1 0x15 SLOAD PUSH2 0x1039 SWAP2 SWAP1 PUSH2 0x31D0 JUMP JUMPDEST PUSH1 0x8 SLOAD PUSH2 0x1047 SWAP1 PUSH1 0x1 PUSH2 0x3157 JUMP JUMPDEST GT ISZERO PUSH2 0x10A3 JUMPI PUSH1 0x40 MLOAD PUSH3 0x461BCD PUSH1 0xE5 SHL DUP2 MSTORE PUSH1 0x20 PUSH1 0x4 DUP3 ADD MSTORE PUSH1 0x25 PUSH1 0x24 DUP3 ADD MSTORE PUSH32 0x5472616E73616374696F6E20657863656564732077686974656C697374207375 PUSH1 0x44 DUP3 ADD MSTORE PUSH5 0x3838363C97 PUSH1 0xD9 SHL PUSH1 0x64 DUP3 ADD MSTORE PUSH1 0x84 ADD PUSH2 0x7E9 JUMP JUMPDEST CALLER PUSH1 0x0 SWAP1 DUP2 MSTORE PUSH1 0x12 PUSH1 0x20 MSTORE PUSH1 0x40 SWAP1 KECCAK256 SLOAD PUSH1 0x1 GT PUSH2 0x1102 JUMPI PUSH1 0x40 MLOAD PUSH3 0x461BCD PUSH1 0xE5 SHL DUP2 MSTORE PUSH1 0x20 PUSH1 0x4 DUP3 ADD MSTORE PUSH1 0x1F PUSH1 0x24 DUP3 ADD MSTORE PUSH32 0x57686974656C697374206D696E7420616C726561647920636C61696D65642E00 PUSH1 0x44 DUP3 ADD MSTORE PUSH1 0x64 ADD PUSH2 0x7E9 JUMP JUMPDEST CALLER PUSH1 0x0 SWAP1 DUP2 MSTORE PUSH1 0x12 PUSH1 0x20 MSTORE PUSH1 0x40 DUP2 KECCAK256 DUP1 SLOAD PUSH1 0x1 SWAP3 SWAP1 PUSH2 0x1122 SWAP1 DUP5 SWAP1 PUSH2 0x3157 JUMP JUMPDEST SWAP1 SWAP2 SSTORE POP PUSH2 0x1135 SWAP1 POP CALLER PUSH2 0xBEB PUSH1 0xC SLOAD SWAP1 JUMP JUMPDEST PUSH2 0x1143 PUSH1 0xC DUP1 SLOAD PUSH1 0x1 ADD SWAP1 SSTORE JUMP JUMPDEST POP POP PUSH1 0x1 PUSH1 0xB SSTORE JUMP JUMPDEST PUSH1 0xA SLOAD PUSH1 0x1 PUSH1 0x1 PUSH1 0xA0 SHL SUB PUSH2 0x100 SWAP1 SWAP2 DIV AND CALLER EQ PUSH2 0x117C JUMPI PUSH1 0x40 MLOAD PUSH3 0x461BCD PUSH1 0xE5 SHL DUP2 MSTORE PUSH1 0x4 ADD PUSH2 0x7E9 SWAP1 PUSH2 0x3091 JUMP JUMPDEST SELFBALANCE DUP1 PUSH2 0x11CA JUMPI PUSH1 0x40 MLOAD PUSH3 0x461BCD PUSH1 0xE5 SHL DUP2 MSTORE PUSH1 0x20 PUSH1 0x4 DUP3 ADD MSTORE PUSH1 0x17 PUSH1 0x24 DUP3 ADD MSTORE PUSH32 0x4E6F2062616C616E636520746F2077697468647261772E000000000000000000 PUSH1 0x44 DUP3 ADD MSTORE PUSH1 0x64 ADD PUSH2 0x7E9 JUMP JUMPDEST PUSH1 0x11 SLOAD PUSH1 0x40 MLOAD PUSH1 0x0 SWAP2 PUSH3 0x10000 SWAP1 DIV PUSH1 0x1 PUSH1 0x1 PUSH1 0xA0 SHL SUB AND SWAP1 DUP4 SWAP1 DUP4 DUP2 DUP2 DUP2 DUP6 DUP8 GAS CALL SWAP3 POP POP POP RETURNDATASIZE DUP1 PUSH1 0x0 DUP2 EQ PUSH2 0x121D JUMPI PUSH1 0x40 MLOAD SWAP2 POP PUSH1 0x1F NOT PUSH1 0x3F RETURNDATASIZE ADD AND DUP3 ADD PUSH1 0x40 MSTORE RETURNDATASIZE DUP3 MSTORE RETURNDATASIZE PUSH1 0x0 PUSH1 0x20 DUP5 ADD RETURNDATACOPY PUSH2 0x1222 JUMP JUMPDEST PUSH1 0x60 SWAP2 POP JUMPDEST POP POP SWAP1 POP DUP1 PUSH2 0xA20 JUMPI PUSH1 0x40 MLOAD PUSH3 0x461BCD PUSH1 0xE5 SHL DUP2 MSTORE PUSH1 0x20 PUSH1 0x4 DUP3 ADD MSTORE PUSH1 0x1B PUSH1 0x24 DUP3 ADD MSTORE PUSH32 0x4661696C656420746F2077697468647261772062616C616E63652E0000000000 PUSH1 0x44 DUP3 ADD MSTORE PUSH1 0x64 ADD PUSH2 0x7E9 JUMP JUMPDEST PUSH1 0xA SLOAD PUSH1 0x1 PUSH1 0x1 PUSH1 0xA0 SHL SUB PUSH2 0x100 SWAP1 SWAP2 DIV AND CALLER EQ PUSH2 0x12A3 JUMPI PUSH1 0x40 MLOAD PUSH3 0x461BCD PUSH1 0xE5 SHL DUP2 MSTORE PUSH1 0x4 ADD PUSH2 0x7E9 SWAP1 PUSH2 0x3091 JUMP JUMPDEST PUSH2 0x12AB PUSH2 0x220C JUMP JUMPDEST JUMP JUMPDEST PUSH2 0x91F DUP4 DUP4 DUP4 PUSH1 0x40 MLOAD DUP1 PUSH1 0x20 ADD PUSH1 0x40 MSTORE DUP1 PUSH1 0x0 DUP2 MSTORE POP PUSH2 0x18CA JUMP JUMPDEST PUSH1 0x60 PUSH1 0x0 PUSH2 0x12D5 DUP4 PUSH2 0x15EC JUMP JUMPDEST SWAP1 POP PUSH1 0x0 DUP2 PUSH8 0xFFFFFFFFFFFFFFFF DUP2 GT ISZERO PUSH2 0x12F2 JUMPI PUSH2 0x12F2 PUSH2 0x2C98 JUMP JUMPDEST PUSH1 0x40 MLOAD SWAP1 DUP1 DUP3 MSTORE DUP1 PUSH1 0x20 MUL PUSH1 0x20 ADD DUP3 ADD PUSH1 0x40 MSTORE DUP1 ISZERO PUSH2 0x131B JUMPI DUP2 PUSH1 0x20 ADD PUSH1 0x20 DUP3 MUL DUP1 CALLDATASIZE DUP4 CALLDATACOPY ADD SWAP1 POP JUMPDEST POP SWAP1 POP PUSH1 0x0 JUMPDEST DUP3 DUP2 LT ISZERO PUSH2 0x1362 JUMPI PUSH2 0x1333 DUP6 DUP3 PUSH2 0xC05 JUMP JUMPDEST DUP3 DUP3 DUP2 MLOAD DUP2 LT PUSH2 0x1345 JUMPI PUSH2 0x1345 PUSH2 0x31E7 JUMP JUMPDEST PUSH1 0x20 SWAP1 DUP2 MUL SWAP2 SWAP1 SWAP2 ADD ADD MSTORE DUP1 PUSH2 0x135A DUP2 PUSH2 0x31B5 JUMP JUMPDEST SWAP2 POP POP PUSH2 0x1321 JUMP JUMPDEST POP SWAP4 SWAP3 POP POP POP JUMP JUMPDEST PUSH1 0x0 PUSH2 0x1375 PUSH1 0x8 SLOAD SWAP1 JUMP JUMPDEST DUP3 LT PUSH2 0x13D8 JUMPI PUSH1 0x40 MLOAD PUSH3 0x461BCD PUSH1 0xE5 SHL DUP2 MSTORE PUSH1 0x20 PUSH1 0x4 DUP3 ADD MSTORE PUSH1 0x2C PUSH1 0x24 DUP3 ADD MSTORE PUSH32 0x455243373231456E756D657261626C653A20676C6F62616C20696E646578206F PUSH1 0x44 DUP3 ADD MSTORE PUSH12 0x7574206F6620626F756E6473 PUSH1 0xA0 SHL PUSH1 0x64 DUP3 ADD MSTORE PUSH1 0x84 ADD PUSH2 0x7E9 JUMP JUMPDEST PUSH1 0x8 DUP3 DUP2 SLOAD DUP2 LT PUSH2 0x13EB JUMPI PUSH2 0x13EB PUSH2 0x31E7 JUMP JUMPDEST SWAP1 PUSH1 0x0 MSTORE PUSH1 0x20 PUSH1 0x0 KECCAK256 ADD SLOAD SWAP1 POP SWAP2 SWAP1 POP JUMP JUMPDEST PUSH1 0xA SLOAD PUSH1 0x1 PUSH1 0x1 PUSH1 0xA0 SHL SUB PUSH2 0x100 SWAP1 SWAP2 DIV AND CALLER EQ PUSH2 0x142D JUMPI PUSH1 0x40 MLOAD PUSH3 0x461BCD PUSH1 0xE5 SHL DUP2 MSTORE PUSH1 0x4 ADD PUSH2 0x7E9 SWAP1 PUSH2 0x3091 JUMP JUMPDEST PUSH1 0x11 SLOAD PUSH1 0xFF AND ISZERO PUSH2 0x1475 JUMPI PUSH1 0x40 MLOAD PUSH3 0x461BCD PUSH1 0xE5 SHL DUP2 MSTORE PUSH1 0x20 PUSH1 0x4 DUP3 ADD MSTORE PUSH1 0x12 PUSH1 0x24 DUP3 ADD MSTORE PUSH18 0x2130B9B2AAA9249034B990333937BD32B717 PUSH1 0x71 SHL PUSH1 0x44 DUP3 ADD MSTORE PUSH1 0x64 ADD PUSH2 0x7E9 JUMP JUMPDEST DUP1 MLOAD PUSH2 0xA20 SWAP1 PUSH1 0xF SWAP1 PUSH1 0x20 DUP5 ADD SWAP1 PUSH2 0x2B02 JUMP JUMPDEST PUSH1 0xA SLOAD PUSH1 0x1 PUSH1 0x1 PUSH1 0xA0 SHL SUB PUSH2 0x100 SWAP1 SWAP2 DIV AND CALLER EQ PUSH2 0x14B8 JUMPI PUSH1 0x40 MLOAD PUSH3 0x461BCD PUSH1 0xE5 SHL DUP2 MSTORE PUSH1 0x4 ADD PUSH2 0x7E9 SWAP1 PUSH2 0x3091 JUMP JUMPDEST PUSH1 0x1 PUSH1 0x1 PUSH1 0xA0 SHL SUB SWAP1 SWAP2 AND PUSH1 0x0 SWAP1 DUP2 MSTORE PUSH1 0x12 PUSH1 0x20 MSTORE PUSH1 0x40 SWAP1 KECCAK256 SSTORE JUMP JUMPDEST PUSH1 0x0 DUP2 DUP2 MSTORE PUSH1 0x2 PUSH1 0x20 MSTORE PUSH1 0x40 DUP2 KECCAK256 SLOAD PUSH1 0x1 PUSH1 0x1 PUSH1 0xA0 SHL SUB AND DUP1 PUSH2 0x6DC JUMPI PUSH1 0x40 MLOAD PUSH3 0x461BCD PUSH1 0xE5 SHL DUP2 MSTORE PUSH1 0x20 PUSH1 0x4 DUP3 ADD MSTORE PUSH1 0x29 PUSH1 0x24 DUP3 ADD MSTORE PUSH32 0x4552433732313A206F776E657220717565727920666F72206E6F6E6578697374 PUSH1 0x44 DUP3 ADD MSTORE PUSH9 0x32B73A103A37B5B2B7 PUSH1 0xB9 SHL PUSH1 0x64 DUP3 ADD MSTORE PUSH1 0x84 ADD PUSH2 0x7E9 JUMP JUMPDEST PUSH1 0xF DUP1 SLOAD PUSH2 0x1558 SWAP1 PUSH2 0x3056 JUMP JUMPDEST DUP1 PUSH1 0x1F ADD PUSH1 0x20 DUP1 SWAP2 DIV MUL PUSH1 0x20 ADD PUSH1 0x40 MLOAD SWAP1 DUP2 ADD PUSH1 0x40 MSTORE DUP1 SWAP3 SWAP2 SWAP1 DUP2 DUP2 MSTORE PUSH1 0x20 ADD DUP3 DUP1 SLOAD PUSH2 0x1584 SWAP1 PUSH2 0x3056 JUMP JUMPDEST DUP1 ISZERO PUSH2 0x15D1 JUMPI DUP1 PUSH1 0x1F LT PUSH2 0x15A6 JUMPI PUSH2 0x100 DUP1 DUP4 SLOAD DIV MUL DUP4 MSTORE SWAP2 PUSH1 0x20 ADD SWAP2 PUSH2 0x15D1 JUMP JUMPDEST DUP3 ADD SWAP2 SWAP1 PUSH1 0x0 MSTORE PUSH1 0x20 PUSH1 0x0 KECCAK256 SWAP1 JUMPDEST DUP2 SLOAD DUP2 MSTORE SWAP1 PUSH1 0x1 ADD SWAP1 PUSH1 0x20 ADD DUP1 DUP4 GT PUSH2 0x15B4 JUMPI DUP3 SWAP1 SUB PUSH1 0x1F AND DUP3 ADD SWAP2 JUMPDEST POP POP POP POP POP DUP2 JUMP JUMPDEST PUSH1 0x0 PUSH2 0x15E7 PUSH2 0x4CD PUSH1 0x8 SLOAD SWAP1 JUMP JUMPDEST SWAP1 POP SWAP1 JUMP JUMPDEST PUSH1 0x0 PUSH1 0x1 PUSH1 0x1 PUSH1 0xA0 SHL SUB DUP3 AND PUSH2 0x1657 JUMPI PUSH1 0x40 MLOAD PUSH3 0x461BCD PUSH1 0xE5 SHL DUP2 MSTORE PUSH1 0x20 PUSH1 0x4 DUP3 ADD MSTORE PUSH1 0x2A PUSH1 0x24 DUP3 ADD MSTORE PUSH32 0x4552433732313A2062616C616E636520717565727920666F7220746865207A65 PUSH1 0x44 DUP3 ADD MSTORE PUSH10 0x726F2061646472657373 PUSH1 0xB0 SHL PUSH1 0x64 DUP3 ADD MSTORE PUSH1 0x84 ADD PUSH2 0x7E9 JUMP JUMPDEST POP PUSH1 0x1 PUSH1 0x1 PUSH1 0xA0 SHL SUB AND PUSH1 0x0 SWAP1 DUP2 MSTORE PUSH1 0x3 PUSH1 0x20 MSTORE PUSH1 0x40 SWAP1 KECCAK256 SLOAD SWAP1 JUMP JUMPDEST PUSH1 0xA SLOAD PUSH1 0x1 PUSH1 0x1 PUSH1 0xA0 SHL SUB PUSH2 0x100 SWAP1 SWAP2 DIV AND CALLER EQ PUSH2 0x16A3 JUMPI PUSH1 0x40 MLOAD PUSH3 0x461BCD PUSH1 0xE5 SHL DUP2 MSTORE PUSH1 0x4 ADD PUSH2 0x7E9 SWAP1 PUSH2 0x3091 JUMP JUMPDEST PUSH2 0x12AB PUSH1 0x0 PUSH2 0x229F JUMP JUMPDEST PUSH1 0xA SLOAD PUSH1 0x1 PUSH1 0x1 PUSH1 0xA0 SHL SUB PUSH2 0x100 SWAP1 SWAP2 DIV AND CALLER EQ PUSH2 0x16DD JUMPI PUSH1 0x40 MLOAD PUSH3 0x461BCD PUSH1 0xE5 SHL DUP2 MSTORE PUSH1 0x4 ADD PUSH2 0x7E9 SWAP1 PUSH2 0x3091 JUMP JUMPDEST PUSH1 0xD SSTORE JUMP JUMPDEST PUSH1 0xA SLOAD PUSH1 0x1 PUSH1 0x1 PUSH1 0xA0 SHL SUB PUSH2 0x100 SWAP1 SWAP2 DIV AND CALLER EQ PUSH2 0x1712 JUMPI PUSH1 0x40 MLOAD PUSH3 0x461BCD PUSH1 0xE5 SHL DUP2 MSTORE PUSH1 0x4 ADD PUSH2 0x7E9 SWAP1 PUSH2 0x3091 JUMP JUMPDEST PUSH1 0x0 PUSH1 0xE DUP1 SLOAD PUSH2 0x1721 SWAP1 PUSH2 0x3056 JUMP JUMPDEST SWAP1 POP GT PUSH2 0x1770 JUMPI PUSH1 0x40 MLOAD PUSH3 0x461BCD PUSH1 0xE5 SHL DUP2 MSTORE PUSH1 0x20 PUSH1 0x4 DUP3 ADD MSTORE PUSH1 0x1B PUSH1 0x24 DUP3 ADD MSTORE PUSH32 0x50726F76656E616E63652068617368206973206E6F74207365742E0000000000 PUSH1 0x44 DUP3 ADD MSTORE PUSH1 0x64 ADD PUSH2 0x7E9 JUMP JUMPDEST PUSH1 0x11 SLOAD PUSH2 0x100 SWAP1 DIV PUSH1 0xFF AND ISZERO PUSH2 0x17D3 JUMPI PUSH1 0x40 MLOAD PUSH3 0x461BCD PUSH1 0xE5 SHL DUP2 MSTORE PUSH1 0x20 PUSH1 0x4 DUP3 ADD MSTORE PUSH1 0x22 PUSH1 0x24 DUP3 ADD MSTORE PUSH32 0x50726F76656E616E6365206861736820697320616C72656164792066726F7A65 PUSH1 0x44 DUP3 ADD MSTORE PUSH2 0x3717 PUSH1 0xF1 SHL PUSH1 0x64 DUP3 ADD MSTORE PUSH1 0x84 ADD PUSH2 0x7E9 JUMP JUMPDEST PUSH1 0x11 DUP1 SLOAD PUSH2 0xFF00 NOT AND PUSH2 0x100 OR SWAP1 SSTORE JUMP JUMPDEST PUSH1 0xA SLOAD PUSH1 0x1 PUSH1 0x1 PUSH1 0xA0 SHL SUB PUSH2 0x100 SWAP1 SWAP2 DIV AND CALLER EQ PUSH2 0x1814 JUMPI PUSH1 0x40 MLOAD PUSH3 0x461BCD PUSH1 0xE5 SHL DUP2 MSTORE PUSH1 0x4 ADD PUSH2 0x7E9 SWAP1 PUSH2 0x3091 JUMP JUMPDEST PUSH2 0x12AB PUSH2 0x22F9 JUMP JUMPDEST PUSH1 0x60 PUSH1 0x1 DUP1 SLOAD PUSH2 0x6F1 SWAP1 PUSH2 0x3056 JUMP JUMPDEST PUSH2 0xA20 CALLER DUP4 DUP4 PUSH2 0x2351 JUMP JUMPDEST PUSH1 0xD SLOAD PUSH1 0x40 MLOAD PUSH12 0xFFFFFFFFFFFFFFFFFFFFFFFF NOT PUSH1 0x60 DUP7 SWAP1 SHL AND PUSH1 0x20 DUP3 ADD MSTORE PUSH1 0x0 SWAP2 PUSH2 0x18B2 SWAP2 PUSH1 0x34 ADD PUSH1 0x40 MLOAD PUSH1 0x20 DUP2 DUP4 SUB SUB DUP2 MSTORE SWAP1 PUSH1 0x40 MSTORE DUP1 MLOAD SWAP1 PUSH1 0x20 ADD KECCAK256 DUP6 DUP6 DUP1 DUP1 PUSH1 0x20 MUL PUSH1 0x20 ADD PUSH1 0x40 MLOAD SWAP1 DUP2 ADD PUSH1 0x40 MSTORE DUP1 SWAP4 SWAP3 SWAP2 SWAP1 DUP2 DUP2 MSTORE PUSH1 0x20 ADD DUP4 DUP4 PUSH1 0x20 MUL DUP1 DUP3 DUP5 CALLDATACOPY PUSH1 0x0 SWAP3 ADD SWAP2 SWAP1 SWAP2 MSTORE POP SWAP3 SWAP5 SWAP4 SWAP3 POP POP PUSH2 0x21F6 SWAP1 POP JUMP JUMPDEST ISZERO PUSH2 0x18BF JUMPI POP PUSH1 0x1 PUSH2 0x18C3 JUMP JUMPDEST POP PUSH1 0x0 JUMPDEST SWAP4 SWAP3 POP POP POP JUMP JUMPDEST PUSH2 0x18D4 CALLER DUP4 PUSH2 0x1F3E JUMP JUMPDEST PUSH2 0x18F0 JUMPI PUSH1 0x40 MLOAD PUSH3 0x461BCD PUSH1 0xE5 SHL DUP2 MSTORE PUSH1 0x4 ADD PUSH2 0x7E9 SWAP1 PUSH2 0x30C6 JUMP JUMPDEST PUSH2 0x18FC DUP5 DUP5 DUP5 DUP5 PUSH2 0x2420 JUMP JUMPDEST POP POP POP POP JUMP JUMPDEST PUSH1 0xA SLOAD PUSH1 0x1 PUSH1 0x1 PUSH1 0xA0 SHL SUB PUSH2 0x100 SWAP1 SWAP2 DIV AND CALLER EQ PUSH2 0x1932 JUMPI PUSH1 0x40 MLOAD PUSH3 0x461BCD PUSH1 0xE5 SHL DUP2 MSTORE PUSH1 0x4 ADD PUSH2 0x7E9 SWAP1 PUSH2 0x3091 JUMP JUMPDEST PUSH1 0x0 PUSH1 0x16 SLOAD PUSH1 0xFF AND PUSH1 0x4 DUP2 GT ISZERO PUSH2 0x194B JUMPI PUSH2 0x194B PUSH2 0x2FCD JUMP JUMPDEST GT PUSH2 0x198F JUMPI PUSH1 0x40 MLOAD PUSH3 0x461BCD PUSH1 0xE5 SHL DUP2 MSTORE PUSH1 0x20 PUSH1 0x4 DUP3 ADD MSTORE PUSH1 0x14 PUSH1 0x24 DUP3 ADD MSTORE PUSH20 0x27379030B4B9323937B8399030BA1034B734BA17 PUSH1 0x61 SHL PUSH1 0x44 DUP3 ADD MSTORE PUSH1 0x64 ADD PUSH2 0x7E9 JUMP JUMPDEST PUSH1 0x15 SLOAD DUP3 PUSH2 0x199C PUSH1 0x8 SLOAD SWAP1 JUMP JUMPDEST PUSH2 0x19A6 SWAP2 SWAP1 PUSH2 0x3157 JUMP JUMPDEST GT ISZERO PUSH2 0x1A07 JUMPI PUSH1 0x40 MLOAD PUSH3 0x461BCD PUSH1 0xE5 SHL DUP2 MSTORE PUSH1 0x20 PUSH1 0x4 DUP3 ADD MSTORE PUSH1 0x2A PUSH1 0x24 DUP3 ADD MSTORE PUSH32 0x4D696E7420616D6F756E742077696C6C2065786365656420746F74616C207361 PUSH1 0x44 DUP3 ADD MSTORE PUSH10 0x36329039BAB838363C97 PUSH1 0xB1 SHL PUSH1 0x64 DUP3 ADD MSTORE PUSH1 0x84 ADD PUSH2 0x7E9 JUMP JUMPDEST PUSH1 0x1 JUMPDEST DUP3 DUP2 GT PUSH2 0x91F JUMPI PUSH2 0x1A1E DUP3 PUSH2 0xBEB PUSH1 0xC SLOAD SWAP1 JUMP JUMPDEST PUSH2 0x1A2C PUSH1 0xC DUP1 SLOAD PUSH1 0x1 ADD SWAP1 SSTORE JUMP JUMPDEST DUP1 PUSH2 0x1A36 DUP2 PUSH2 0x31B5 JUMP JUMPDEST SWAP2 POP POP PUSH2 0x1A0A JUMP JUMPDEST PUSH1 0x10 DUP1 SLOAD PUSH2 0x1558 SWAP1 PUSH2 0x3056 JUMP JUMPDEST PUSH1 0xE DUP1 SLOAD PUSH2 0x1558 SWAP1 PUSH2 0x3056 JUMP JUMPDEST PUSH1 0x0 DUP2 DUP2 MSTORE PUSH1 0x2 PUSH1 0x20 MSTORE PUSH1 0x40 SWAP1 KECCAK256 SLOAD PUSH1 0x60 SWAP1 PUSH1 0x1 PUSH1 0x1 PUSH1 0xA0 SHL SUB AND PUSH2 0x1AD8 JUMPI PUSH1 0x40 MLOAD PUSH3 0x461BCD PUSH1 0xE5 SHL DUP2 MSTORE PUSH1 0x20 PUSH1 0x4 DUP3 ADD MSTORE PUSH1 0x30 PUSH1 0x24 DUP3 ADD MSTORE PUSH32 0x4552433732314D657461646174613A2055524920717565727920666F72206E6F PUSH1 0x44 DUP3 ADD MSTORE PUSH16 0x3732BC34B9BA32B73A103A37B5B2B717 PUSH1 0x81 SHL PUSH1 0x64 DUP3 ADD MSTORE PUSH1 0x84 ADD PUSH2 0x7E9 JUMP JUMPDEST PUSH1 0xF PUSH2 0x1AE3 DUP4 PUSH2 0x2453 JUMP JUMPDEST PUSH1 0x10 PUSH1 0x40 MLOAD PUSH1 0x20 ADD PUSH2 0x1AF7 SWAP4 SWAP3 SWAP2 SWAP1 PUSH2 0x3297 JUMP JUMPDEST PUSH1 0x40 MLOAD PUSH1 0x20 DUP2 DUP4 SUB SUB DUP2 MSTORE SWAP1 PUSH1 0x40 MSTORE SWAP1 POP SWAP2 SWAP1 POP JUMP JUMPDEST PUSH1 0xA SLOAD PUSH1 0x1 PUSH1 0x1 PUSH1 0xA0 SHL SUB PUSH2 0x100 SWAP1 SWAP2 DIV AND CALLER EQ PUSH2 0x1B3D JUMPI PUSH1 0x40 MLOAD PUSH3 0x461BCD PUSH1 0xE5 SHL DUP2 MSTORE PUSH1 0x4 ADD PUSH2 0x7E9 SWAP1 PUSH2 0x3091 JUMP JUMPDEST PUSH1 0x11 SLOAD PUSH1 0xFF PUSH2 0x100 SWAP1 SWAP2 DIV AND ISZERO ISZERO PUSH1 0x1 EQ PUSH2 0x1BC0 JUMPI PUSH1 0x40 MLOAD PUSH3 0x461BCD PUSH1 0xE5 SHL DUP2 MSTORE PUSH1 0x20 PUSH1 0x4 DUP3 ADD MSTORE PUSH1 0x38 PUSH1 0x24 DUP3 ADD MSTORE PUSH32 0x50726F76656E616E63652068617368206D7573742062652066726F7A656E2062 PUSH1 0x44 DUP3 ADD MSTORE PUSH32 0x65666F7265206D696E74696E672063616E2073746172742E0000000000000000 PUSH1 0x64 DUP3 ADD MSTORE PUSH1 0x84 ADD PUSH2 0x7E9 JUMP JUMPDEST PUSH1 0xD SLOAD PUSH2 0x1C2A JUMPI PUSH1 0x40 MLOAD PUSH3 0x461BCD PUSH1 0xE5 SHL DUP2 MSTORE PUSH1 0x20 PUSH1 0x4 DUP3 ADD MSTORE PUSH1 0x32 PUSH1 0x24 DUP3 ADD MSTORE PUSH32 0x4D65726B6C6520726F6F74206D7573742062652073657420626565666F726520 PUSH1 0x44 DUP3 ADD MSTORE PUSH18 0x36B4B73A34B7339031B0B71039BA30B93A17 PUSH1 0x71 SHL PUSH1 0x64 DUP3 ADD MSTORE PUSH1 0x84 ADD PUSH2 0x7E9 JUMP JUMPDEST PUSH1 0x16 DUP1 SLOAD DUP3 SWAP2 SWAP1 PUSH1 0xFF NOT AND PUSH1 0x1 DUP4 PUSH1 0x4 DUP2 GT ISZERO PUSH2 0x1C49 JUMPI PUSH2 0x1C49 PUSH2 0x2FCD JUMP JUMPDEST MUL OR SWAP1 SSTORE POP POP JUMP JUMPDEST PUSH1 0x0 PUSH2 0x15E7 PUSH1 0x8 SLOAD SWAP1 JUMP JUMPDEST PUSH1 0xA SLOAD PUSH1 0x1 PUSH1 0x1 PUSH1 0xA0 SHL SUB PUSH2 0x100 SWAP1 SWAP2 DIV AND CALLER EQ PUSH2 0x1C8C JUMPI PUSH1 0x40 MLOAD PUSH3 0x461BCD PUSH1 0xE5 SHL DUP2 MSTORE PUSH1 0x4 ADD PUSH2 0x7E9 SWAP1 PUSH2 0x3091 JUMP JUMPDEST DUP1 MLOAD PUSH2 0xA20 SWAP1 PUSH1 0x10 SWAP1 PUSH1 0x20 DUP5 ADD SWAP1 PUSH2 0x2B02 JUMP JUMPDEST PUSH1 0x0 PUSH2 0x1CAA PUSH1 0x8 SLOAD SWAP1 JUMP JUMPDEST PUSH1 0x15 SLOAD PUSH2 0x15E7 SWAP2 SWAP1 PUSH2 0x31D0 JUMP JUMPDEST PUSH1 0xA SLOAD PUSH1 0x1 PUSH1 0x1 PUSH1 0xA0 SHL SUB PUSH2 0x100 SWAP1 SWAP2 DIV AND CALLER EQ PUSH2 0x1CE7 JUMPI PUSH1 0x40 MLOAD PUSH3 0x461BCD PUSH1 0xE5 SHL DUP2 MSTORE PUSH1 0x4 ADD PUSH2 0x7E9 SWAP1 PUSH2 0x3091 JUMP JUMPDEST PUSH1 0x0 PUSH1 0xF DUP1 SLOAD PUSH2 0x1CF6 SWAP1 PUSH2 0x3056 JUMP JUMPDEST SWAP1 POP GT PUSH2 0x1D45 JUMPI PUSH1 0x40 MLOAD PUSH3 0x461BCD PUSH1 0xE5 SHL DUP2 MSTORE PUSH1 0x20 PUSH1 0x4 DUP3 ADD MSTORE PUSH1 0x18 PUSH1 0x24 DUP3 ADD MSTORE PUSH32 0x426173655552492063616E6E6F7420626520656D7074792E0000000000000000 PUSH1 0x44 DUP3 ADD MSTORE PUSH1 0x64 ADD PUSH2 0x7E9 JUMP JUMPDEST PUSH1 0x11 SLOAD PUSH1 0xFF AND ISZERO PUSH2 0x1D98 JUMPI PUSH1 0x40 MLOAD PUSH3 0x461BCD PUSH1 0xE5 SHL DUP2 MSTORE PUSH1 0x20 PUSH1 0x4 DUP3 ADD MSTORE PUSH1 0x1A PUSH1 0x24 DUP3 ADD MSTORE PUSH32 0x4261736555524920697320616C72656164792066726F7A656E2E000000000000 PUSH1 0x44 DUP3 ADD MSTORE PUSH1 0x64 ADD PUSH2 0x7E9 JUMP JUMPDEST PUSH1 0x11 DUP1 SLOAD PUSH1 0xFF NOT AND PUSH1 0x1 OR SWAP1 SSTORE JUMP JUMPDEST PUSH1 0xA SLOAD PUSH1 0x1 PUSH1 0x1 PUSH1 0xA0 SHL SUB PUSH2 0x100 SWAP1 SWAP2 DIV AND CALLER EQ PUSH2 0x1DD7 JUMPI PUSH1 0x40 MLOAD PUSH3 0x461BCD PUSH1 0xE5 SHL DUP2 MSTORE PUSH1 0x4 ADD PUSH2 0x7E9 SWAP1 PUSH2 0x3091 JUMP JUMPDEST PUSH1 0x1 PUSH1 0x1 PUSH1 0xA0 SHL SUB DUP2 AND PUSH2 0x1E3C JUMPI PUSH1 0x40 MLOAD PUSH3 0x461BCD PUSH1 0xE5 SHL DUP2 MSTORE PUSH1 0x20 PUSH1 0x4 DUP3 ADD MSTORE PUSH1 0x26 PUSH1 0x24 DUP3 ADD MSTORE PUSH32 0x4F776E61626C653A206E6577206F776E657220697320746865207A65726F2061 PUSH1 0x44 DUP3 ADD MSTORE PUSH6 0x646472657373 PUSH1 0xD0 SHL PUSH1 0x64 DUP3 ADD MSTORE PUSH1 0x84 ADD PUSH2 0x7E9 JUMP JUMPDEST PUSH2 0x1E45 DUP2 PUSH2 0x229F JUMP JUMPDEST POP JUMP JUMPDEST PUSH1 0xA SLOAD PUSH1 0x1 PUSH1 0x1 PUSH1 0xA0 SHL SUB PUSH2 0x100 SWAP1 SWAP2 DIV AND CALLER EQ PUSH2 0x1E78 JUMPI PUSH1 0x40 MLOAD PUSH3 0x461BCD PUSH1 0xE5 SHL DUP2 MSTORE PUSH1 0x4 ADD PUSH2 0x7E9 SWAP1 PUSH2 0x3091 JUMP JUMPDEST PUSH1 0x11 DUP1 SLOAD PUSH1 0x1 PUSH1 0x1 PUSH1 0xA0 SHL SUB SWAP1 SWAP3 AND PUSH3 0x10000 MUL PUSH3 0x10000 PUSH1 0x1 PUSH1 0xB0 SHL SUB NOT SWAP1 SWAP3 AND SWAP2 SWAP1 SWAP2 OR SWAP1 SSTORE JUMP JUMPDEST DUP1 SLOAD PUSH1 0x1 ADD SWAP1 SSTORE JUMP JUMPDEST PUSH1 0x0 PUSH1 0x1 PUSH1 0x1 PUSH1 0xE0 SHL SUB NOT DUP3 AND PUSH4 0x780E9D63 PUSH1 0xE0 SHL EQ DUP1 PUSH2 0x6DC JUMPI POP PUSH2 0x6DC DUP3 PUSH2 0x2551 JUMP JUMPDEST PUSH1 0x0 DUP2 DUP2 MSTORE PUSH1 0x4 PUSH1 0x20 MSTORE PUSH1 0x40 SWAP1 KECCAK256 DUP1 SLOAD PUSH1 0x1 PUSH1 0x1 PUSH1 0xA0 SHL SUB NOT AND PUSH1 0x1 PUSH1 0x1 PUSH1 0xA0 SHL SUB DUP5 AND SWAP1 DUP2 OR SWAP1 SWAP2 SSTORE DUP2 SWAP1 PUSH2 0x1F05 DUP3 PUSH2 0x14D4 JUMP JUMPDEST PUSH1 0x1 PUSH1 0x1 PUSH1 0xA0 SHL SUB AND PUSH32 0x8C5BE1E5EBEC7D5BD14F71427D1E84F3DD0314C0F7B2291E5B200AC8C7C3B925 PUSH1 0x40 MLOAD PUSH1 0x40 MLOAD DUP1 SWAP2 SUB SWAP1 LOG4 POP POP JUMP JUMPDEST PUSH1 0x0 DUP2 DUP2 MSTORE PUSH1 0x2 PUSH1 0x20 MSTORE PUSH1 0x40 DUP2 KECCAK256 SLOAD PUSH1 0x1 PUSH1 0x1 PUSH1 0xA0 SHL SUB AND PUSH2 0x1FB7 JUMPI PUSH1 0x40 MLOAD PUSH3 0x461BCD PUSH1 0xE5 SHL DUP2 MSTORE PUSH1 0x20 PUSH1 0x4 DUP3 ADD MSTORE PUSH1 0x2C PUSH1 0x24 DUP3 ADD MSTORE PUSH32 0x4552433732313A206F70657261746F7220717565727920666F72206E6F6E6578 PUSH1 0x44 DUP3 ADD MSTORE PUSH12 0x34B9BA32B73A103A37B5B2B7 PUSH1 0xA1 SHL PUSH1 0x64 DUP3 ADD MSTORE PUSH1 0x84 ADD PUSH2 0x7E9 JUMP JUMPDEST PUSH1 0x0 PUSH2 0x1FC2 DUP4 PUSH2 0x14D4 JUMP JUMPDEST SWAP1 POP DUP1 PUSH1 0x1 PUSH1 0x1 PUSH1 0xA0 SHL SUB AND DUP5 PUSH1 0x1 PUSH1 0x1 PUSH1 0xA0 SHL SUB AND EQ DUP1 PUSH2 0x1FFD JUMPI POP DUP4 PUSH1 0x1 PUSH1 0x1 PUSH1 0xA0 SHL SUB AND PUSH2 0x1FF2 DUP5 PUSH2 0x774 JUMP JUMPDEST PUSH1 0x1 PUSH1 0x1 PUSH1 0xA0 SHL SUB AND EQ JUMPDEST DUP1 PUSH2 0x202D JUMPI POP PUSH1 0x1 PUSH1 0x1 PUSH1 0xA0 SHL SUB DUP1 DUP3 AND PUSH1 0x0 SWAP1 DUP2 MSTORE PUSH1 0x5 PUSH1 0x20 SWAP1 DUP2 MSTORE PUSH1 0x40 DUP1 DUP4 KECCAK256 SWAP4 DUP9 AND DUP4 MSTORE SWAP3 SWAP1 MSTORE KECCAK256 SLOAD PUSH1 0xFF AND JUMPDEST SWAP5 SWAP4 POP POP POP POP JUMP JUMPDEST DUP3 PUSH1 0x1 PUSH1 0x1 PUSH1 0xA0 SHL SUB AND PUSH2 0x2048 DUP3 PUSH2 0x14D4 JUMP JUMPDEST PUSH1 0x1 PUSH1 0x1 PUSH1 0xA0 SHL SUB AND EQ PUSH2 0x20AC JUMPI PUSH1 0x40 MLOAD PUSH3 0x461BCD PUSH1 0xE5 SHL DUP2 MSTORE PUSH1 0x20 PUSH1 0x4 DUP3 ADD MSTORE PUSH1 0x25 PUSH1 0x24 DUP3 ADD MSTORE PUSH32 0x4552433732313A207472616E736665722066726F6D20696E636F727265637420 PUSH1 0x44 DUP3 ADD MSTORE PUSH5 0x37BBB732B9 PUSH1 0xD9 SHL PUSH1 0x64 DUP3 ADD MSTORE PUSH1 0x84 ADD PUSH2 0x7E9 JUMP JUMPDEST PUSH1 0x1 PUSH1 0x1 PUSH1 0xA0 SHL SUB DUP3 AND PUSH2 0x210E JUMPI PUSH1 0x40 MLOAD PUSH3 0x461BCD PUSH1 0xE5 SHL DUP2 MSTORE PUSH1 0x20 PUSH1 0x4 DUP3 ADD MSTORE PUSH1 0x24 DUP1 DUP3 ADD MSTORE PUSH32 0x4552433732313A207472616E7366657220746F20746865207A65726F20616464 PUSH1 0x44 DUP3 ADD MSTORE PUSH4 0x72657373 PUSH1 0xE0 SHL PUSH1 0x64 DUP3 ADD MSTORE PUSH1 0x84 ADD PUSH2 0x7E9 JUMP JUMPDEST PUSH2 0x2119 DUP4 DUP4 DUP4 PUSH2 0x25A1 JUMP JUMPDEST PUSH2 0x2124 PUSH1 0x0 DUP3 PUSH2 0x1ED0 JUMP JUMPDEST PUSH1 0x1 PUSH1 0x1 PUSH1 0xA0 SHL SUB DUP4 AND PUSH1 0x0 SWAP1 DUP2 MSTORE PUSH1 0x3 PUSH1 0x20 MSTORE PUSH1 0x40 DUP2 KECCAK256 DUP1 SLOAD PUSH1 0x1 SWAP3 SWAP1 PUSH2 0x214D SWAP1 DUP5 SWAP1 PUSH2 0x31D0 JUMP JUMPDEST SWAP1 SWAP2 SSTORE POP POP PUSH1 0x1 PUSH1 0x1 PUSH1 0xA0 SHL SUB DUP3 AND PUSH1 0x0 SWAP1 DUP2 MSTORE PUSH1 0x3 PUSH1 0x20 MSTORE PUSH1 0x40 DUP2 KECCAK256 DUP1 SLOAD PUSH1 0x1 SWAP3 SWAP1 PUSH2 0x217B SWAP1 DUP5 SWAP1 PUSH2 0x3157 JUMP JUMPDEST SWAP1 SWAP2 SSTORE POP POP PUSH1 0x0 DUP2 DUP2 MSTORE PUSH1 0x2 PUSH1 0x20 MSTORE PUSH1 0x40 DUP1 DUP3 KECCAK256 DUP1 SLOAD PUSH1 0x1 PUSH1 0x1 PUSH1 0xA0 SHL SUB NOT AND PUSH1 0x1 PUSH1 0x1 PUSH1 0xA0 SHL SUB DUP7 DUP2 AND SWAP2 DUP3 OR SWAP1 SWAP3 SSTORE SWAP2 MLOAD DUP5 SWAP4 SWAP2 DUP8 AND SWAP2 PUSH32 0xDDF252AD1BE2C89B69C2B068FC378DAA952BA7F163C4A11628F55A4DF523B3EF SWAP2 LOG4 POP POP POP JUMP JUMPDEST PUSH2 0xA20 DUP3 DUP3 PUSH1 0x40 MLOAD DUP1 PUSH1 0x20 ADD PUSH1 0x40 MSTORE DUP1 PUSH1 0x0 DUP2 MSTORE POP PUSH2 0x25CF JUMP JUMPDEST PUSH1 0x0 DUP3 PUSH2 0x2203 DUP6 DUP5 PUSH2 0x2602 JUMP JUMPDEST EQ SWAP5 SWAP4 POP POP POP POP JUMP JUMPDEST PUSH1 0xA SLOAD PUSH1 0xFF AND PUSH2 0x2255 JUMPI PUSH1 0x40 MLOAD PUSH3 0x461BCD PUSH1 0xE5 SHL DUP2 MSTORE PUSH1 0x20 PUSH1 0x4 DUP3 ADD MSTORE PUSH1 0x14 PUSH1 0x24 DUP3 ADD MSTORE PUSH20 0x14185D5CD8589B194E881B9BDD081C185D5CD959 PUSH1 0x62 SHL PUSH1 0x44 DUP3 ADD MSTORE PUSH1 0x64 ADD PUSH2 0x7E9 JUMP JUMPDEST PUSH1 0xA DUP1 SLOAD PUSH1 0xFF NOT AND SWAP1 SSTORE PUSH32 0x5DB9EE0A495BF2E6FF9C91A7834C1BA4FDD244A5E8AA4E537BD38AEAE4B073AA CALLER JUMPDEST PUSH1 0x40 MLOAD PUSH1 0x1 PUSH1 0x1 PUSH1 0xA0 SHL SUB SWAP1 SWAP2 AND DUP2 MSTORE PUSH1 0x20 ADD PUSH1 0x40 MLOAD DUP1 SWAP2 SUB SWAP1 LOG1 JUMP JUMPDEST PUSH1 0xA DUP1 SLOAD PUSH1 0x1 PUSH1 0x1 PUSH1 0xA0 SHL SUB DUP4 DUP2 AND PUSH2 0x100 DUP2 DUP2 MUL PUSH2 0x100 PUSH1 0x1 PUSH1 0xA8 SHL SUB NOT DUP6 AND OR SWAP1 SWAP5 SSTORE PUSH1 0x40 MLOAD SWAP4 SWAP1 SWAP3 DIV AND SWAP2 DUP3 SWAP1 PUSH32 0x8BE0079C531659141344CD1FD0A4F28419497F9722A3DAAFE3B4186F6B6457E0 SWAP1 PUSH1 0x0 SWAP1 LOG3 POP POP JUMP JUMPDEST PUSH1 0xA SLOAD PUSH1 0xFF AND ISZERO PUSH2 0x231C JUMPI PUSH1 0x40 MLOAD PUSH3 0x461BCD PUSH1 0xE5 SHL DUP2 MSTORE PUSH1 0x4 ADD PUSH2 0x7E9 SWAP1 PUSH2 0x3117 JUMP JUMPDEST PUSH1 0xA DUP1 SLOAD PUSH1 0xFF NOT AND PUSH1 0x1 OR SWAP1 SSTORE PUSH32 0x62E78CEA01BEE320CD4E420270B5EA74000D11B0C9F74754EBDBFC544B05A258 PUSH2 0x2282 CALLER SWAP1 JUMP JUMPDEST DUP2 PUSH1 0x1 PUSH1 0x1 PUSH1 0xA0 SHL SUB AND DUP4 PUSH1 0x1 PUSH1 0x1 PUSH1 0xA0 SHL SUB AND EQ ISZERO PUSH2 0x23B3 JUMPI PUSH1 0x40 MLOAD PUSH3 0x461BCD PUSH1 0xE5 SHL DUP2 MSTORE PUSH1 0x20 PUSH1 0x4 DUP3 ADD MSTORE PUSH1 0x19 PUSH1 0x24 DUP3 ADD MSTORE PUSH32 0x4552433732313A20617070726F766520746F2063616C6C657200000000000000 PUSH1 0x44 DUP3 ADD MSTORE PUSH1 0x64 ADD PUSH2 0x7E9 JUMP JUMPDEST PUSH1 0x1 PUSH1 0x1 PUSH1 0xA0 SHL SUB DUP4 DUP2 AND PUSH1 0x0 DUP2 DUP2 MSTORE PUSH1 0x5 PUSH1 0x20 SWAP1 DUP2 MSTORE PUSH1 0x40 DUP1 DUP4 KECCAK256 SWAP5 DUP8 AND DUP1 DUP5 MSTORE SWAP5 DUP3 MSTORE SWAP2 DUP3 SWAP1 KECCAK256 DUP1 SLOAD PUSH1 0xFF NOT AND DUP7 ISZERO ISZERO SWAP1 DUP2 OR SWAP1 SWAP2 SSTORE SWAP2 MLOAD SWAP2 DUP3 MSTORE PUSH32 0x17307EAB39AB6107E8899845AD3D59BD9653F200F220920489CA2B5937696C31 SWAP2 ADD PUSH1 0x40 MLOAD DUP1 SWAP2 SUB SWAP1 LOG3 POP POP POP JUMP JUMPDEST PUSH2 0x242B DUP5 DUP5 DUP5 PUSH2 0x2035 JUMP JUMPDEST PUSH2 0x2437 DUP5 DUP5 DUP5 DUP5 PUSH2 0x266E JUMP JUMPDEST PUSH2 0x18FC JUMPI PUSH1 0x40 MLOAD PUSH3 0x461BCD PUSH1 0xE5 SHL DUP2 MSTORE PUSH1 0x4 ADD PUSH2 0x7E9 SWAP1 PUSH2 0x32CA JUMP JUMPDEST PUSH1 0x60 DUP2 PUSH2 0x2477 JUMPI POP POP PUSH1 0x40 DUP1 MLOAD DUP1 DUP3 ADD SWAP1 SWAP2 MSTORE PUSH1 0x1 DUP2 MSTORE PUSH1 0x3 PUSH1 0xFC SHL PUSH1 0x20 DUP3 ADD MSTORE SWAP1 JUMP JUMPDEST DUP2 PUSH1 0x0 JUMPDEST DUP2 ISZERO PUSH2 0x24A1 JUMPI DUP1 PUSH2 0x248B DUP2 PUSH2 0x31B5 JUMP JUMPDEST SWAP2 POP PUSH2 0x249A SWAP1 POP PUSH1 0xA DUP4 PUSH2 0x3332 JUMP JUMPDEST SWAP2 POP PUSH2 0x247B JUMP JUMPDEST PUSH1 0x0 DUP2 PUSH8 0xFFFFFFFFFFFFFFFF DUP2 GT ISZERO PUSH2 0x24BC JUMPI PUSH2 0x24BC PUSH2 0x2C98 JUMP JUMPDEST PUSH1 0x40 MLOAD SWAP1 DUP1 DUP3 MSTORE DUP1 PUSH1 0x1F ADD PUSH1 0x1F NOT AND PUSH1 0x20 ADD DUP3 ADD PUSH1 0x40 MSTORE DUP1 ISZERO PUSH2 0x24E6 JUMPI PUSH1 0x20 DUP3 ADD DUP2 DUP1 CALLDATASIZE DUP4 CALLDATACOPY ADD SWAP1 POP JUMPDEST POP SWAP1 POP JUMPDEST DUP5 ISZERO PUSH2 0x202D JUMPI PUSH2 0x24FB PUSH1 0x1 DUP4 PUSH2 0x31D0 JUMP JUMPDEST SWAP2 POP PUSH2 0x2508 PUSH1 0xA DUP7 PUSH2 0x3346 JUMP JUMPDEST PUSH2 0x2513 SWAP1 PUSH1 0x30 PUSH2 0x3157 JUMP JUMPDEST PUSH1 0xF8 SHL DUP2 DUP4 DUP2 MLOAD DUP2 LT PUSH2 0x2528 JUMPI PUSH2 0x2528 PUSH2 0x31E7 JUMP JUMPDEST PUSH1 0x20 ADD ADD SWAP1 PUSH1 0x1 PUSH1 0x1 PUSH1 0xF8 SHL SUB NOT AND SWAP1 DUP2 PUSH1 0x0 BYTE SWAP1 MSTORE8 POP PUSH2 0x254A PUSH1 0xA DUP7 PUSH2 0x3332 JUMP JUMPDEST SWAP5 POP PUSH2 0x24EA JUMP JUMPDEST PUSH1 0x0 PUSH1 0x1 PUSH1 0x1 PUSH1 0xE0 SHL SUB NOT DUP3 AND PUSH4 0x80AC58CD PUSH1 0xE0 SHL EQ DUP1 PUSH2 0x2582 JUMPI POP PUSH1 0x1 PUSH1 0x1 PUSH1 0xE0 SHL SUB NOT DUP3 AND PUSH4 0x5B5E139F PUSH1 0xE0 SHL EQ JUMPDEST DUP1 PUSH2 0x6DC JUMPI POP PUSH4 0x1FFC9A7 PUSH1 0xE0 SHL PUSH1 0x1 PUSH1 0x1 PUSH1 0xE0 SHL SUB NOT DUP4 AND EQ PUSH2 0x6DC JUMP JUMPDEST PUSH1 0xA SLOAD PUSH1 0xFF AND ISZERO PUSH2 0x25C4 JUMPI PUSH1 0x40 MLOAD PUSH3 0x461BCD PUSH1 0xE5 SHL DUP2 MSTORE PUSH1 0x4 ADD PUSH2 0x7E9 SWAP1 PUSH2 0x3117 JUMP JUMPDEST PUSH2 0x91F DUP4 DUP4 DUP4 PUSH2 0x276C JUMP JUMPDEST PUSH2 0x25D9 DUP4 DUP4 PUSH2 0x2824 JUMP JUMPDEST PUSH2 0x25E6 PUSH1 0x0 DUP5 DUP5 DUP5 PUSH2 0x266E JUMP JUMPDEST PUSH2 0x91F JUMPI PUSH1 0x40 MLOAD PUSH3 0x461BCD PUSH1 0xE5 SHL DUP2 MSTORE PUSH1 0x4 ADD PUSH2 0x7E9 SWAP1 PUSH2 0x32CA JUMP JUMPDEST PUSH1 0x0 DUP2 DUP2 JUMPDEST DUP5 MLOAD DUP2 LT ISZERO PUSH2 0x1362 JUMPI PUSH1 0x0 DUP6 DUP3 DUP2 MLOAD DUP2 LT PUSH2 0x2624 JUMPI PUSH2 0x2624 PUSH2 0x31E7 JUMP JUMPDEST PUSH1 0x20 MUL PUSH1 0x20 ADD ADD MLOAD SWAP1 POP DUP1 DUP4 GT PUSH2 0x264A JUMPI PUSH1 0x0 DUP4 DUP2 MSTORE PUSH1 0x20 DUP3 SWAP1 MSTORE PUSH1 0x40 SWAP1 KECCAK256 SWAP3 POP PUSH2 0x265B JUMP JUMPDEST PUSH1 0x0 DUP2 DUP2 MSTORE PUSH1 0x20 DUP5 SWAP1 MSTORE PUSH1 0x40 SWAP1 KECCAK256 SWAP3 POP JUMPDEST POP DUP1 PUSH2 0x2666 DUP2 PUSH2 0x31B5 JUMP JUMPDEST SWAP2 POP POP PUSH2 0x2607 JUMP JUMPDEST PUSH1 0x0 PUSH1 0x1 PUSH1 0x1 PUSH1 0xA0 SHL SUB DUP5 AND EXTCODESIZE ISZERO PUSH2 0x2761 JUMPI PUSH1 0x40 MLOAD PUSH4 0xA85BD01 PUSH1 0xE1 SHL DUP2 MSTORE PUSH1 0x1 PUSH1 0x1 PUSH1 0xA0 SHL SUB DUP6 AND SWAP1 PUSH4 0x150B7A02 SWAP1 PUSH2 0x26B2 SWAP1 CALLER SWAP1 DUP10 SWAP1 DUP9 SWAP1 DUP9 SWAP1 PUSH1 0x4 ADD PUSH2 0x335A JUMP JUMPDEST PUSH1 0x20 PUSH1 0x40 MLOAD DUP1 DUP4 SUB DUP2 PUSH1 0x0 DUP8 GAS CALL SWAP3 POP POP POP DUP1 ISZERO PUSH2 0x26ED JUMPI POP PUSH1 0x40 DUP1 MLOAD PUSH1 0x1F RETURNDATASIZE SWAP1 DUP2 ADD PUSH1 0x1F NOT AND DUP3 ADD SWAP1 SWAP3 MSTORE PUSH2 0x26EA SWAP2 DUP2 ADD SWAP1 PUSH2 0x3397 JUMP JUMPDEST PUSH1 0x1 JUMPDEST PUSH2 0x2747 JUMPI RETURNDATASIZE DUP1 DUP1 ISZERO PUSH2 0x271B JUMPI PUSH1 0x40 MLOAD SWAP2 POP PUSH1 0x1F NOT PUSH1 0x3F RETURNDATASIZE ADD AND DUP3 ADD PUSH1 0x40 MSTORE RETURNDATASIZE DUP3 MSTORE RETURNDATASIZE PUSH1 0x0 PUSH1 0x20 DUP5 ADD RETURNDATACOPY PUSH2 0x2720 JUMP JUMPDEST PUSH1 0x60 SWAP2 POP JUMPDEST POP DUP1 MLOAD PUSH2 0x273F JUMPI PUSH1 0x40 MLOAD PUSH3 0x461BCD PUSH1 0xE5 SHL DUP2 MSTORE PUSH1 0x4 ADD PUSH2 0x7E9 SWAP1 PUSH2 0x32CA JUMP JUMPDEST DUP1 MLOAD DUP2 PUSH1 0x20 ADD REVERT JUMPDEST PUSH1 0x1 PUSH1 0x1 PUSH1 0xE0 SHL SUB NOT AND PUSH4 0xA85BD01 PUSH1 0xE1 SHL EQ SWAP1 POP PUSH2 0x202D JUMP JUMPDEST POP PUSH1 0x1 SWAP5 SWAP4 POP POP POP POP JUMP JUMPDEST PUSH1 0x1 PUSH1 0x1 PUSH1 0xA0 SHL SUB DUP4 AND PUSH2 0x27C7 JUMPI PUSH2 0x27C2 DUP2 PUSH1 0x8 DUP1 SLOAD PUSH1 0x0 DUP4 DUP2 MSTORE PUSH1 0x9 PUSH1 0x20 MSTORE PUSH1 0x40 DUP2 KECCAK256 DUP3 SWAP1 SSTORE PUSH1 0x1 DUP3 ADD DUP4 SSTORE SWAP2 SWAP1 SWAP2 MSTORE PUSH32 0xF3F7A9FE364FAAB93B216DA50A3214154F22A0A2B415B23A84C8169E8B636EE3 ADD SSTORE JUMP JUMPDEST PUSH2 0x27EA JUMP JUMPDEST DUP2 PUSH1 0x1 PUSH1 0x1 PUSH1 0xA0 SHL SUB AND DUP4 PUSH1 0x1 PUSH1 0x1 PUSH1 0xA0 SHL SUB AND EQ PUSH2 0x27EA JUMPI PUSH2 0x27EA DUP4 DUP3 PUSH2 0x2972 JUMP JUMPDEST PUSH1 0x1 PUSH1 0x1 PUSH1 0xA0 SHL SUB DUP3 AND PUSH2 0x2801 JUMPI PUSH2 0x91F DUP2 PUSH2 0x2A0F JUMP JUMPDEST DUP3 PUSH1 0x1 PUSH1 0x1 PUSH1 0xA0 SHL SUB AND DUP3 PUSH1 0x1 PUSH1 0x1 PUSH1 0xA0 SHL SUB AND EQ PUSH2 0x91F JUMPI PUSH2 0x91F DUP3 DUP3 PUSH2 0x2ABE JUMP JUMPDEST PUSH1 0x1 PUSH1 0x1 PUSH1 0xA0 SHL SUB DUP3 AND PUSH2 0x287A JUMPI PUSH1 0x40 MLOAD PUSH3 0x461BCD PUSH1 0xE5 SHL DUP2 MSTORE PUSH1 0x20 PUSH1 0x4 DUP3 ADD DUP2 SWAP1 MSTORE PUSH1 0x24 DUP3 ADD MSTORE PUSH32 0x4552433732313A206D696E7420746F20746865207A65726F2061646472657373 PUSH1 0x44 DUP3 ADD MSTORE PUSH1 0x64 ADD PUSH2 0x7E9 JUMP JUMPDEST PUSH1 0x0 DUP2 DUP2 MSTORE PUSH1 0x2 PUSH1 0x20 MSTORE PUSH1 0x40 SWAP1 KECCAK256 SLOAD PUSH1 0x1 PUSH1 0x1 PUSH1 0xA0 SHL SUB AND ISZERO PUSH2 0x28DF JUMPI PUSH1 0x40 MLOAD PUSH3 0x461BCD PUSH1 0xE5 SHL DUP2 MSTORE PUSH1 0x20 PUSH1 0x4 DUP3 ADD MSTORE PUSH1 0x1C PUSH1 0x24 DUP3 ADD MSTORE PUSH32 0x4552433732313A20746F6B656E20616C7265616479206D696E74656400000000 PUSH1 0x44 DUP3 ADD MSTORE PUSH1 0x64 ADD PUSH2 0x7E9 JUMP JUMPDEST PUSH2 0x28EB PUSH1 0x0 DUP4 DUP4 PUSH2 0x25A1 JUMP JUMPDEST PUSH1 0x1 PUSH1 0x1 PUSH1 0xA0 SHL SUB DUP3 AND PUSH1 0x0 SWAP1 DUP2 MSTORE PUSH1 0x3 PUSH1 0x20 MSTORE PUSH1 0x40 DUP2 KECCAK256 DUP1 SLOAD PUSH1 0x1 SWAP3 SWAP1 PUSH2 0x2914 SWAP1 DUP5 SWAP1 PUSH2 0x3157 JUMP JUMPDEST SWAP1 SWAP2 SSTORE POP POP PUSH1 0x0 DUP2 DUP2 MSTORE PUSH1 0x2 PUSH1 0x20 MSTORE PUSH1 0x40 DUP1 DUP3 KECCAK256 DUP1 SLOAD PUSH1 0x1 PUSH1 0x1 PUSH1 0xA0 SHL SUB NOT AND PUSH1 0x1 PUSH1 0x1 PUSH1 0xA0 SHL SUB DUP7 AND SWAP1 DUP2 OR SWAP1 SWAP2 SSTORE SWAP1 MLOAD DUP4 SWAP3 SWAP1 PUSH32 0xDDF252AD1BE2C89B69C2B068FC378DAA952BA7F163C4A11628F55A4DF523B3EF SWAP1 DUP3 SWAP1 LOG4 POP POP JUMP JUMPDEST PUSH1 0x0 PUSH1 0x1 PUSH2 0x297F DUP5 PUSH2 0x15EC JUMP JUMPDEST PUSH2 0x2989 SWAP2 SWAP1 PUSH2 0x31D0 JUMP JUMPDEST PUSH1 0x0 DUP4 DUP2 MSTORE PUSH1 0x7 PUSH1 0x20 MSTORE PUSH1 0x40 SWAP1 KECCAK256 SLOAD SWAP1 SWAP2 POP DUP1 DUP3 EQ PUSH2 0x29DC JUMPI PUSH1 0x1 PUSH1 0x1 PUSH1 0xA0 SHL SUB DUP5 AND PUSH1 0x0 SWAP1 DUP2 MSTORE PUSH1 0x6 PUSH1 0x20 SWAP1 DUP2 MSTORE PUSH1 0x40 DUP1 DUP4 KECCAK256 DUP6 DUP5 MSTORE DUP3 MSTORE DUP1 DUP4 KECCAK256 SLOAD DUP5 DUP5 MSTORE DUP2 DUP5 KECCAK256 DUP2 SWAP1 SSTORE DUP4 MSTORE PUSH1 0x7 SWAP1 SWAP2 MSTORE SWAP1 KECCAK256 DUP2 SWAP1 SSTORE JUMPDEST POP PUSH1 0x0 SWAP2 DUP3 MSTORE PUSH1 0x7 PUSH1 0x20 SWAP1 DUP2 MSTORE PUSH1 0x40 DUP1 DUP5 KECCAK256 DUP5 SWAP1 SSTORE PUSH1 0x1 PUSH1 0x1 PUSH1 0xA0 SHL SUB SWAP1 SWAP5 AND DUP4 MSTORE PUSH1 0x6 DUP2 MSTORE DUP4 DUP4 KECCAK256 SWAP2 DUP4 MSTORE MSTORE SWAP1 DUP2 KECCAK256 SSTORE JUMP JUMPDEST PUSH1 0x8 SLOAD PUSH1 0x0 SWAP1 PUSH2 0x2A21 SWAP1 PUSH1 0x1 SWAP1 PUSH2 0x31D0 JUMP JUMPDEST PUSH1 0x0 DUP4 DUP2 MSTORE PUSH1 0x9 PUSH1 0x20 MSTORE PUSH1 0x40 DUP2 KECCAK256 SLOAD PUSH1 0x8 DUP1 SLOAD SWAP4 SWAP5 POP SWAP1 SWAP3 DUP5 SWAP1 DUP2 LT PUSH2 0x2A49 JUMPI PUSH2 0x2A49 PUSH2 0x31E7 JUMP JUMPDEST SWAP1 PUSH1 0x0 MSTORE PUSH1 0x20 PUSH1 0x0 KECCAK256 ADD SLOAD SWAP1 POP DUP1 PUSH1 0x8 DUP4 DUP2 SLOAD DUP2 LT PUSH2 0x2A6A JUMPI PUSH2 0x2A6A PUSH2 0x31E7 JUMP JUMPDEST PUSH1 0x0 SWAP2 DUP3 MSTORE PUSH1 0x20 DUP1 DUP4 KECCAK256 SWAP1 SWAP2 ADD SWAP3 SWAP1 SWAP3 SSTORE DUP3 DUP2 MSTORE PUSH1 0x9 SWAP1 SWAP2 MSTORE PUSH1 0x40 DUP1 DUP3 KECCAK256 DUP5 SWAP1 SSTORE DUP6 DUP3 MSTORE DUP2 KECCAK256 SSTORE PUSH1 0x8 DUP1 SLOAD DUP1 PUSH2 0x2AA2 JUMPI PUSH2 0x2AA2 PUSH2 0x33B4 JUMP JUMPDEST PUSH1 0x1 SWAP1 SUB DUP2 DUP2 SWAP1 PUSH1 0x0 MSTORE PUSH1 0x20 PUSH1 0x0 KECCAK256 ADD PUSH1 0x0 SWAP1 SSTORE SWAP1 SSTORE POP POP POP POP JUMP JUMPDEST PUSH1 0x0 PUSH2 0x2AC9 DUP4 PUSH2 0x15EC JUMP JUMPDEST PUSH1 0x1 PUSH1 0x1 PUSH1 0xA0 SHL SUB SWAP1 SWAP4 AND PUSH1 0x0 SWAP1 DUP2 MSTORE PUSH1 0x6 PUSH1 0x20 SWAP1 DUP2 MSTORE PUSH1 0x40 DUP1 DUP4 KECCAK256 DUP7 DUP5 MSTORE DUP3 MSTORE DUP1 DUP4 KECCAK256 DUP6 SWAP1 SSTORE SWAP4 DUP3 MSTORE PUSH1 0x7 SWAP1 MSTORE SWAP2 SWAP1 SWAP2 KECCAK256 SWAP2 SWAP1 SWAP2 SSTORE POP JUMP JUMPDEST DUP3 DUP1 SLOAD PUSH2 0x2B0E SWAP1 PUSH2 0x3056 JUMP JUMPDEST SWAP1 PUSH1 0x0 MSTORE PUSH1 0x20 PUSH1 0x0 KECCAK256 SWAP1 PUSH1 0x1F ADD PUSH1 0x20 SWAP1 DIV DUP2 ADD SWAP3 DUP3 PUSH2 0x2B30 JUMPI PUSH1 0x0 DUP6 SSTORE PUSH2 0x2B76 JUMP JUMPDEST DUP3 PUSH1 0x1F LT PUSH2 0x2B49 JUMPI DUP1 MLOAD PUSH1 0xFF NOT AND DUP4 DUP1 ADD OR DUP6 SSTORE PUSH2 0x2B76 JUMP JUMPDEST DUP3 DUP1 ADD PUSH1 0x1 ADD DUP6 SSTORE DUP3 ISZERO PUSH2 0x2B76 JUMPI SWAP2 DUP3 ADD JUMPDEST DUP3 DUP2 GT ISZERO PUSH2 0x2B76 JUMPI DUP3 MLOAD DUP3 SSTORE SWAP2 PUSH1 0x20 ADD SWAP2 SWAP1 PUSH1 0x1 ADD SWAP1 PUSH2 0x2B5B JUMP JUMPDEST POP PUSH2 0x2B82 SWAP3 SWAP2 POP PUSH2 0x2B86 JUMP JUMPDEST POP SWAP1 JUMP JUMPDEST JUMPDEST DUP1 DUP3 GT ISZERO PUSH2 0x2B82 JUMPI PUSH1 0x0 DUP2 SSTORE PUSH1 0x1 ADD PUSH2 0x2B87 JUMP JUMPDEST PUSH1 0x1 PUSH1 0x1 PUSH1 0xE0 SHL SUB NOT DUP2 AND DUP2 EQ PUSH2 0x1E45 JUMPI PUSH1 0x0 DUP1 REVERT JUMPDEST PUSH1 0x0 PUSH1 0x20 DUP3 DUP5 SUB SLT ISZERO PUSH2 0x2BC3 JUMPI PUSH1 0x0 DUP1 REVERT JUMPDEST DUP2 CALLDATALOAD PUSH2 0x18C3 DUP2 PUSH2 0x2B9B JUMP JUMPDEST PUSH1 0x0 JUMPDEST DUP4 DUP2 LT ISZERO PUSH2 0x2BE9 JUMPI DUP2 DUP2 ADD MLOAD DUP4 DUP3 ADD MSTORE PUSH1 0x20 ADD PUSH2 0x2BD1 JUMP JUMPDEST DUP4 DUP2 GT ISZERO PUSH2 0x18FC JUMPI POP POP PUSH1 0x0 SWAP2 ADD MSTORE JUMP JUMPDEST PUSH1 0x0 DUP2 MLOAD DUP1 DUP5 MSTORE PUSH2 0x2C12 DUP2 PUSH1 0x20 DUP7 ADD PUSH1 0x20 DUP7 ADD PUSH2 0x2BCE JUMP JUMPDEST PUSH1 0x1F ADD PUSH1 0x1F NOT AND SWAP3 SWAP1 SWAP3 ADD PUSH1 0x20 ADD SWAP3 SWAP2 POP POP JUMP JUMPDEST PUSH1 0x20 DUP2 MSTORE PUSH1 0x0 PUSH2 0x18C3 PUSH1 0x20 DUP4 ADD DUP5 PUSH2 0x2BFA JUMP JUMPDEST PUSH1 0x0 PUSH1 0x20 DUP3 DUP5 SUB SLT ISZERO PUSH2 0x2C4B JUMPI PUSH1 0x0 DUP1 REVERT JUMPDEST POP CALLDATALOAD SWAP2 SWAP1 POP JUMP JUMPDEST DUP1 CALLDATALOAD PUSH1 0x1 PUSH1 0x1 PUSH1 0xA0 SHL SUB DUP2 AND DUP2 EQ PUSH2 0x2C69 JUMPI PUSH1 0x0 DUP1 REVERT JUMPDEST SWAP2 SWAP1 POP JUMP JUMPDEST PUSH1 0x0 DUP1 PUSH1 0x40 DUP4 DUP6 SUB SLT ISZERO PUSH2 0x2C81 JUMPI PUSH1 0x0 DUP1 REVERT JUMPDEST PUSH2 0x2C8A DUP4 PUSH2 0x2C52 JUMP JUMPDEST SWAP5 PUSH1 0x20 SWAP4 SWAP1 SWAP4 ADD CALLDATALOAD SWAP4 POP POP POP JUMP JUMPDEST PUSH4 0x4E487B71 PUSH1 0xE0 SHL PUSH1 0x0 MSTORE PUSH1 0x41 PUSH1 0x4 MSTORE PUSH1 0x24 PUSH1 0x0 REVERT JUMPDEST PUSH1 0x0 PUSH8 0xFFFFFFFFFFFFFFFF DUP1 DUP5 GT ISZERO PUSH2 0x2CC9 JUMPI PUSH2 0x2CC9 PUSH2 0x2C98 JUMP JUMPDEST PUSH1 0x40 MLOAD PUSH1 0x1F DUP6 ADD PUSH1 0x1F NOT SWAP1 DUP2 AND PUSH1 0x3F ADD AND DUP2 ADD SWAP1 DUP3 DUP3 GT DUP2 DUP4 LT OR ISZERO PUSH2 0x2CF1 JUMPI PUSH2 0x2CF1 PUSH2 0x2C98 JUMP JUMPDEST DUP2 PUSH1 0x40 MSTORE DUP1 SWAP4 POP DUP6 DUP2 MSTORE DUP7 DUP7 DUP7 ADD GT ISZERO PUSH2 0x2D0A JUMPI PUSH1 0x0 DUP1 REVERT JUMPDEST DUP6 DUP6 PUSH1 0x20 DUP4 ADD CALLDATACOPY PUSH1 0x0 PUSH1 0x20 DUP8 DUP4 ADD ADD MSTORE POP POP POP SWAP4 SWAP3 POP POP POP JUMP JUMPDEST PUSH1 0x0 PUSH1 0x20 DUP3 DUP5 SUB SLT ISZERO PUSH2 0x2D36 JUMPI PUSH1 0x0 DUP1 REVERT JUMPDEST DUP2 CALLDATALOAD PUSH8 0xFFFFFFFFFFFFFFFF DUP2 GT ISZERO PUSH2 0x2D4D JUMPI PUSH1 0x0 DUP1 REVERT JUMPDEST DUP3 ADD PUSH1 0x1F DUP2 ADD DUP5 SGT PUSH2 0x2D5E JUMPI PUSH1 0x0 DUP1 REVERT JUMPDEST PUSH2 0x202D DUP5 DUP3 CALLDATALOAD PUSH1 0x20 DUP5 ADD PUSH2 0x2CAE JUMP JUMPDEST PUSH1 0x0 DUP1 PUSH1 0x0 PUSH1 0x60 DUP5 DUP7 SUB SLT ISZERO PUSH2 0x2D82 JUMPI PUSH1 0x0 DUP1 REVERT JUMPDEST PUSH2 0x2D8B DUP5 PUSH2 0x2C52 JUMP JUMPDEST SWAP3 POP PUSH2 0x2D99 PUSH1 0x20 DUP6 ADD PUSH2 0x2C52 JUMP JUMPDEST SWAP2 POP PUSH1 0x40 DUP5 ADD CALLDATALOAD SWAP1 POP SWAP3 POP SWAP3 POP SWAP3 JUMP JUMPDEST PUSH1 0x0 DUP1 DUP4 PUSH1 0x1F DUP5 ADD SLT PUSH2 0x2DBB JUMPI PUSH1 0x0 DUP1 REVERT JUMPDEST POP DUP2 CALLDATALOAD PUSH8 0xFFFFFFFFFFFFFFFF DUP2 GT ISZERO PUSH2 0x2DD3 JUMPI PUSH1 0x0 DUP1 REVERT JUMPDEST PUSH1 0x20 DUP4 ADD SWAP2 POP DUP4 PUSH1 0x20 DUP3 PUSH1 0x5 SHL DUP6 ADD ADD GT ISZERO PUSH2 0x2DEE JUMPI PUSH1 0x0 DUP1 REVERT JUMPDEST SWAP3 POP SWAP3 SWAP1 POP JUMP JUMPDEST PUSH1 0x0 DUP1 PUSH1 0x20 DUP4 DUP6 SUB SLT ISZERO PUSH2 0x2E08 JUMPI PUSH1 0x0 DUP1 REVERT JUMPDEST DUP3 CALLDATALOAD PUSH8 0xFFFFFFFFFFFFFFFF DUP2 GT ISZERO PUSH2 0x2E1F JUMPI PUSH1 0x0 DUP1 REVERT JUMPDEST PUSH2 0x2E2B DUP6 DUP3 DUP7 ADD PUSH2 0x2DA9 JUMP JUMPDEST SWAP1 SWAP7 SWAP1 SWAP6 POP SWAP4 POP POP POP POP JUMP JUMPDEST PUSH1 0x0 PUSH1 0x20 DUP3 DUP5 SUB SLT ISZERO PUSH2 0x2E49 JUMPI PUSH1 0x0 DUP1 REVERT JUMPDEST PUSH2 0x18C3 DUP3 PUSH2 0x2C52 JUMP JUMPDEST PUSH1 0x20 DUP1 DUP3 MSTORE DUP3 MLOAD DUP3 DUP3 ADD DUP2 SWAP1 MSTORE PUSH1 0x0 SWAP2 SWAP1 DUP5 DUP3 ADD SWAP1 PUSH1 0x40 DUP6 ADD SWAP1 DUP5 JUMPDEST DUP2 DUP2 LT ISZERO PUSH2 0x2E8A JUMPI DUP4 MLOAD DUP4 MSTORE SWAP3 DUP5 ADD SWAP3 SWAP2 DUP5 ADD SWAP2 PUSH1 0x1 ADD PUSH2 0x2E6E JUMP JUMPDEST POP SWAP1 SWAP7 SWAP6 POP POP POP POP POP POP JUMP JUMPDEST PUSH1 0x0 DUP1 PUSH1 0x40 DUP4 DUP6 SUB SLT ISZERO PUSH2 0x2EA9 JUMPI PUSH1 0x0 DUP1 REVERT JUMPDEST PUSH2 0x2EB2 DUP4 PUSH2 0x2C52 JUMP JUMPDEST SWAP2 POP PUSH1 0x20 DUP4 ADD CALLDATALOAD DUP1 ISZERO ISZERO DUP2 EQ PUSH2 0x2EC7 JUMPI PUSH1 0x0 DUP1 REVERT JUMPDEST DUP1 SWAP2 POP POP SWAP3 POP SWAP3 SWAP1 POP JUMP JUMPDEST PUSH1 0x0 DUP1 PUSH1 0x0 PUSH1 0x40 DUP5 DUP7 SUB SLT ISZERO PUSH2 0x2EE7 JUMPI PUSH1 0x0 DUP1 REVERT JUMPDEST PUSH2 0x2EF0 DUP5 PUSH2 0x2C52 JUMP JUMPDEST SWAP3 POP PUSH1 0x20 DUP5 ADD CALLDATALOAD PUSH8 0xFFFFFFFFFFFFFFFF DUP2 GT ISZERO PUSH2 0x2F0C JUMPI PUSH1 0x0 DUP1 REVERT JUMPDEST PUSH2 0x2F18 DUP7 DUP3 DUP8 ADD PUSH2 0x2DA9 JUMP JUMPDEST SWAP5 SWAP8 SWAP1 SWAP7 POP SWAP4 SWAP5 POP POP POP POP JUMP JUMPDEST PUSH1 0x0 DUP1 PUSH1 0x0 DUP1 PUSH1 0x80 DUP6 DUP8 SUB SLT ISZERO PUSH2 0x2F3B JUMPI PUSH1 0x0 DUP1 REVERT JUMPDEST PUSH2 0x2F44 DUP6 PUSH2 0x2C52 JUMP JUMPDEST SWAP4 POP PUSH2 0x2F52 PUSH1 0x20 DUP7 ADD PUSH2 0x2C52 JUMP JUMPDEST SWAP3 POP PUSH1 0x40 DUP6 ADD CALLDATALOAD SWAP2 POP PUSH1 0x60 DUP6 ADD CALLDATALOAD PUSH8 0xFFFFFFFFFFFFFFFF DUP2 GT ISZERO PUSH2 0x2F75 JUMPI PUSH1 0x0 DUP1 REVERT JUMPDEST DUP6 ADD PUSH1 0x1F DUP2 ADD DUP8 SGT PUSH2 0x2F86 JUMPI PUSH1 0x0 DUP1 REVERT JUMPDEST PUSH2 0x2F95 DUP8 DUP3 CALLDATALOAD PUSH1 0x20 DUP5 ADD PUSH2 0x2CAE JUMP JUMPDEST SWAP2 POP POP SWAP3 SWAP6 SWAP2 SWAP5 POP SWAP3 POP JUMP JUMPDEST PUSH1 0x0 DUP1 PUSH1 0x40 DUP4 DUP6 SUB SLT ISZERO PUSH2 0x2FB4 JUMPI PUSH1 0x0 DUP1 REVERT JUMPDEST DUP3 CALLDATALOAD SWAP2 POP PUSH2 0x2FC4 PUSH1 0x20 DUP5 ADD PUSH2 0x2C52 JUMP JUMPDEST SWAP1 POP SWAP3 POP SWAP3 SWAP1 POP JUMP JUMPDEST PUSH4 0x4E487B71 PUSH1 0xE0 SHL PUSH1 0x0 MSTORE PUSH1 0x21 PUSH1 0x4 MSTORE PUSH1 0x24 PUSH1 0x0 REVERT JUMPDEST PUSH1 0x20 DUP2 ADD PUSH1 0x5 DUP4 LT PUSH2 0x3005 JUMPI PUSH4 0x4E487B71 PUSH1 0xE0 SHL PUSH1 0x0 MSTORE PUSH1 0x21 PUSH1 0x4 MSTORE PUSH1 0x24 PUSH1 0x0 REVERT JUMPDEST SWAP2 SWAP1 MSTORE SWAP1 JUMP JUMPDEST PUSH1 0x0 PUSH1 0x20 DUP3 DUP5 SUB SLT ISZERO PUSH2 0x301D JUMPI PUSH1 0x0 DUP1 REVERT JUMPDEST DUP2 CALLDATALOAD PUSH1 0x5 DUP2 LT PUSH2 0x18C3 JUMPI PUSH1 0x0 DUP1 REVERT JUMPDEST PUSH1 0x0 DUP1 PUSH1 0x40 DUP4 DUP6 SUB SLT ISZERO PUSH2 0x303F JUMPI PUSH1 0x0 DUP1 REVERT JUMPDEST PUSH2 0x3048 DUP4 PUSH2 0x2C52 JUMP JUMPDEST SWAP2 POP PUSH2 0x2FC4 PUSH1 0x20 DUP5 ADD PUSH2 0x2C52 JUMP JUMPDEST PUSH1 0x1 DUP2 DUP2 SHR SWAP1 DUP3 AND DUP1 PUSH2 0x306A JUMPI PUSH1 0x7F DUP3 AND SWAP2 POP JUMPDEST PUSH1 0x20 DUP3 LT DUP2 EQ ISZERO PUSH2 0x308B JUMPI PUSH4 0x4E487B71 PUSH1 0xE0 SHL PUSH1 0x0 MSTORE PUSH1 0x22 PUSH1 0x4 MSTORE PUSH1 0x24 PUSH1 0x0 REVERT JUMPDEST POP SWAP2 SWAP1 POP JUMP JUMPDEST PUSH1 0x20 DUP1 DUP3 MSTORE DUP2 DUP2 ADD MSTORE PUSH32 0x4F776E61626C653A2063616C6C6572206973206E6F7420746865206F776E6572 PUSH1 0x40 DUP3 ADD MSTORE PUSH1 0x60 ADD SWAP1 JUMP JUMPDEST PUSH1 0x20 DUP1 DUP3 MSTORE PUSH1 0x31 SWAP1 DUP3 ADD MSTORE PUSH32 0x4552433732313A207472616E736665722063616C6C6572206973206E6F74206F PUSH1 0x40 DUP3 ADD MSTORE PUSH17 0x1DDB995C881B9BDC88185C1C1C9BDD9959 PUSH1 0x7A SHL PUSH1 0x60 DUP3 ADD MSTORE PUSH1 0x80 ADD SWAP1 JUMP JUMPDEST PUSH1 0x20 DUP1 DUP3 MSTORE PUSH1 0x10 SWAP1 DUP3 ADD MSTORE PUSH16 0x14185D5CD8589B194E881C185D5CD959 PUSH1 0x82 SHL PUSH1 0x40 DUP3 ADD MSTORE PUSH1 0x60 ADD SWAP1 JUMP JUMPDEST PUSH4 0x4E487B71 PUSH1 0xE0 SHL PUSH1 0x0 MSTORE PUSH1 0x11 PUSH1 0x4 MSTORE PUSH1 0x24 PUSH1 0x0 REVERT JUMPDEST PUSH1 0x0 DUP3 NOT DUP3 GT ISZERO PUSH2 0x316A JUMPI PUSH2 0x316A PUSH2 0x3141 JUMP JUMPDEST POP ADD SWAP1 JUMP JUMPDEST PUSH1 0x20 DUP1 DUP3 MSTORE PUSH1 0x26 SWAP1 DUP3 ADD MSTORE PUSH32 0x5472616E73616374696F6E206578636565647320746F74616C2073616C652073 PUSH1 0x40 DUP3 ADD MSTORE PUSH6 0x3AB838363C97 PUSH1 0xD1 SHL PUSH1 0x60 DUP3 ADD MSTORE PUSH1 0x80 ADD SWAP1 JUMP JUMPDEST PUSH1 0x0 PUSH1 0x0 NOT DUP3 EQ ISZERO PUSH2 0x31C9 JUMPI PUSH2 0x31C9 PUSH2 0x3141 JUMP JUMPDEST POP PUSH1 0x1 ADD SWAP1 JUMP JUMPDEST PUSH1 0x0 DUP3 DUP3 LT ISZERO PUSH2 0x31E2 JUMPI PUSH2 0x31E2 PUSH2 0x3141 JUMP JUMPDEST POP SUB SWAP1 JUMP JUMPDEST PUSH4 0x4E487B71 PUSH1 0xE0 SHL PUSH1 0x0 MSTORE PUSH1 0x32 PUSH1 0x4 MSTORE PUSH1 0x24 PUSH1 0x0 REVERT JUMPDEST DUP1 SLOAD PUSH1 0x0 SWAP1 PUSH1 0x1 DUP2 DUP2 SHR SWAP1 DUP1 DUP4 AND DUP1 PUSH2 0x3217 JUMPI PUSH1 0x7F DUP4 AND SWAP3 POP JUMPDEST PUSH1 0x20 DUP1 DUP5 LT DUP3 EQ ISZERO PUSH2 0x3239 JUMPI PUSH4 0x4E487B71 PUSH1 0xE0 SHL PUSH1 0x0 MSTORE PUSH1 0x22 PUSH1 0x4 MSTORE PUSH1 0x24 PUSH1 0x0 REVERT JUMPDEST DUP2 DUP1 ISZERO PUSH2 0x324D JUMPI PUSH1 0x1 DUP2 EQ PUSH2 0x325E JUMPI PUSH2 0x328B JUMP JUMPDEST PUSH1 0xFF NOT DUP7 AND DUP10 MSTORE DUP5 DUP10 ADD SWAP7 POP PUSH2 0x328B JUMP JUMPDEST PUSH1 0x0 DUP9 DUP2 MSTORE PUSH1 0x20 SWAP1 KECCAK256 PUSH1 0x0 JUMPDEST DUP7 DUP2 LT ISZERO PUSH2 0x3283 JUMPI DUP2 SLOAD DUP12 DUP3 ADD MSTORE SWAP1 DUP6 ADD SWAP1 DUP4 ADD PUSH2 0x326A JUMP JUMPDEST POP POP DUP5 DUP10 ADD SWAP7 POP JUMPDEST POP POP POP POP POP POP SWAP3 SWAP2 POP POP JUMP JUMPDEST PUSH1 0x0 PUSH2 0x32A3 DUP3 DUP7 PUSH2 0x31FD JUMP JUMPDEST DUP5 MLOAD PUSH2 0x32B3 DUP2 DUP4 PUSH1 0x20 DUP10 ADD PUSH2 0x2BCE JUMP JUMPDEST PUSH2 0x32BF DUP2 DUP4 ADD DUP7 PUSH2 0x31FD JUMP JUMPDEST SWAP8 SWAP7 POP POP POP POP POP POP POP JUMP JUMPDEST PUSH1 0x20 DUP1 DUP3 MSTORE PUSH1 0x32 SWAP1 DUP3 ADD MSTORE PUSH32 0x4552433732313A207472616E7366657220746F206E6F6E204552433732315265 PUSH1 0x40 DUP3 ADD MSTORE PUSH18 0x31B2B4BB32B91034B6B83632B6B2B73A32B9 PUSH1 0x71 SHL PUSH1 0x60 DUP3 ADD MSTORE PUSH1 0x80 ADD SWAP1 JUMP JUMPDEST PUSH4 0x4E487B71 PUSH1 0xE0 SHL PUSH1 0x0 MSTORE PUSH1 0x12 PUSH1 0x4 MSTORE PUSH1 0x24 PUSH1 0x0 REVERT JUMPDEST PUSH1 0x0 DUP3 PUSH2 0x3341 JUMPI PUSH2 0x3341 PUSH2 0x331C JUMP JUMPDEST POP DIV SWAP1 JUMP JUMPDEST PUSH1 0x0 DUP3 PUSH2 0x3355 JUMPI PUSH2 0x3355 PUSH2 0x331C JUMP JUMPDEST POP MOD SWAP1 JUMP JUMPDEST PUSH1 0x1 PUSH1 0x1 PUSH1 0xA0 SHL SUB DUP6 DUP2 AND DUP3 MSTORE DUP5 AND PUSH1 0x20 DUP3 ADD MSTORE PUSH1 0x40 DUP2 ADD DUP4 SWAP1 MSTORE PUSH1 0x80 PUSH1 0x60 DUP3 ADD DUP2 SWAP1 MSTORE PUSH1 0x0 SWAP1 PUSH2 0x338D SWAP1 DUP4 ADD DUP5 PUSH2 0x2BFA JUMP JUMPDEST SWAP7 SWAP6 POP POP POP POP POP POP JUMP JUMPDEST PUSH1 0x0 PUSH1 0x20 DUP3 DUP5 SUB SLT ISZERO PUSH2 0x33A9 JUMPI PUSH1 0x0 DUP1 REVERT JUMPDEST DUP2 MLOAD PUSH2 0x18C3 DUP2 PUSH2 0x2B9B JUMP JUMPDEST PUSH4 0x4E487B71 PUSH1 0xE0 SHL PUSH1 0x0 MSTORE PUSH1 0x31 PUSH1 0x4 MSTORE PUSH1 0x24 PUSH1 0x0 REVERT INVALID LOG2 PUSH5 0x6970667358 0x22 SLT KECCAK256 XOR PUSH29 0xB5982A4F8DB6C06D10CCBB994A4B389A2EAC3832657A2B58C9C1C46266 MSTORE8 PUSH5 0x736F6C6343 STOP ADDMOD SIGNEXTEND STOP CALLER ","sha1":"e5b2cb53aa2c99be359ce2aa63493dd3c7638470","source":"// SPDX-License-Identifier: MIT\npragma solidity ^0.8.10;\n\nimport '@openzeppelin/contracts/token/ERC721/ERC721.sol';\nimport '@openzeppelin/contracts/token/ERC721/extensions/ERC721Enumerable.sol';\nimport '@openzeppelin/contracts/access/Ownable.sol';\nimport '@openzeppelin/contracts/security/ReentrancyGuard.sol';\nimport '@openzeppelin/contracts/utils/Counters.sol';\nimport '@openzeppelin/contracts/security/Pausable.sol';\nimport '@openzeppelin/contracts/utils/cryptography/MerkleProof.sol';\n\ncontract test is ERC721, ERC721Enumerable, Pausable, Ownable, ReentrancyGuard{ \n    using Strings for uint256;\n    using Counters for Counters.Counter;\n    using MerkleProof for bytes32[];\n\n    enum Stage {\n        Init,\n        Airdrop,\n        Whitelist,\n        TeamMint,\n        PublicSale\n    }\n\n    Counters.Counter private _tokenIdCounter;\n    \n    bytes32 public merkleRoot;\n    string public provenanceHash;\n    string public baseURI = \"\";\n    string public baseExtension = \".json\";    \n    bool public tokenURIFrozen = false;\n    bool public provenanceHashFrozen = false;\n\n    address public withdrawlAddress = 0xa2062484E6e705272e98d20e40f154172ec9f305;\n\n    // ~ Sale stages ~\n    // stage 0: Init\n    // stage 1: Airdrop\n    // stage 2: Whitelist\n    // stage 3: Team Mint \n    // stage 4: Public Sale\n\n    // Whitelist mint (stage=2)                   \n    mapping(address => uint256) public claimed;          \n    \n    // Team Mint (stage=3)\n    uint256 public teamMintSupply;                          \n    uint256 public teamMintCount;\n\n    // Public Sale (stage=4)\n    uint256 public totalSaleSupply;         \n\n    Stage public stage;\n\n    constructor(\n        string memory _name,\n        string memory _symbol,\n        string memory _baseURI,\n        uint256 _teamMintSupply,\n        uint256 _totalSaleSupply\n\n    )   ERC721(_name, _symbol) {\n        teamMintSupply = _teamMintSupply;\n        totalSaleSupply = _totalSaleSupply;\n        baseURI = _baseURI;\n        _tokenIdCounter.increment();\n    }\n\n    // Stage 1 - Airdrop\n    function airdrop(\n        uint256 mintAmount, \n        address to\n    ) \n        external\n        onlyOwner \n    {\n        require(stage > Stage.Init, \"No airdrops at init.\");\n        require(totalSupply()  + mintAmount <= totalSaleSupply, \"Mint amount will exceed total sale supply.\");\n        for (uint256 i = 1; i <= mintAmount; i++) {\n            _safeMint(to, _tokenIdCounter.current());\n            _tokenIdCounter.increment();\n        }\n    }\n\n    // Stage 2 - Whitelist Sale\n    function whitelistMint(\n        bytes32[] calldata merkleProof\n    ) \n        external\n        nonReentrant \n        whenNotPaused \n    {\n        require(stage == Stage.Whitelist, \"Whitelist sale not initiated.\");\n        require(merkleProof.verify(merkleRoot, keccak256(abi.encodePacked(msg.sender))), \"Address not in whitelist.\");\n        require(totalSupply()  + 1 <= totalSaleSupply - teamMintSupply, \"Transaction exceeds whitelist supply.\");  \n        require(claimed[msg.sender] < 1, \"Whitelist mint already claimed.\"); \n        claimed[msg.sender] += 1;\n        _safeMint(msg.sender, _tokenIdCounter.current());\n        _tokenIdCounter.increment();\n    }\n\n    // Stage 3 - Team Mint\n    function teamMint(\n        uint256 mintAmount\n    ) \n        external \n        onlyOwner \n    {\n        require(stage == Stage.TeamMint, \"Team mint not initiated.\");\n        require(mintAmount > 0, \"Mint amount must be greater than 0.\");\n        require(mintAmount + teamMintCount <= teamMintSupply, \"Transaction exceeds total team sale supply.\");   \n        require(totalSupply()  + mintAmount <= totalSaleSupply, \"Transaction exceeds total sale supply.\");  \n        teamMintCount += mintAmount;\n        for (uint256 i = 1; i <= mintAmount; i++) {\n            _safeMint(msg.sender, _tokenIdCounter.current());\n            _tokenIdCounter.increment();\n        }\n    }\n\n    // Stage 4 - Public Mint\n    function publicMint(\n    ) \n        external\n        nonReentrant \n        whenNotPaused  \n    {\n        require(stage == Stage.PublicSale, \"Public Sale not initiated.\");\n        require(totalSupply()  + 1 <= totalSaleSupply, \"Transaction exceeds total sale supply.\");\n        require(claimed[msg.sender] < 2, \"Max 2 per wallet.\"); \n        claimed[msg.sender] += 1;\n        _safeMint(msg.sender, _tokenIdCounter.current());\n        _tokenIdCounter.increment();\n    }\n\n    //Owner functions\n    function pause() external onlyOwner {\n        _pause();\n    }\n\n    function unpause() external onlyOwner {\n        _unpause();\n    }\n\n    // to be used in case of manual override\n    function setClaim(address wlAddress, uint256 amount) external onlyOwner{\n        claimed[wlAddress] = amount;\n    }\n\n    function setMerkleRoot(bytes32 _merkleRoot) external onlyOwner {\n        merkleRoot = _merkleRoot;\n    }\n\n    function setBaseURI(string memory _newBaseURI) external onlyOwner {\n        require(!tokenURIFrozen, \"BaseURI is frozen.\");\n        baseURI = _newBaseURI;\n    } \n    \n    function freezeBaseURI() external onlyOwner {\n        require(bytes(baseURI).length > 0, \"BaseURI cannot be empty.\");\n        require(!tokenURIFrozen, \"BaseURI is already frozen.\");\n        tokenURIFrozen = true;\n    }\n\n    function setBaseExtension(string memory _newBaseExtension) external onlyOwner {\n        baseExtension = _newBaseExtension;\n    }\n\n    function setProvenanceHash(string memory _provenanceHash) external onlyOwner {\n        require(bytes(_provenanceHash).length > 0, \"Provenance hash cannot be empty string.\");\n        require(!provenanceHashFrozen, \"Provenance hash is frozen.\");\n        provenanceHash = _provenanceHash;\n    }\n\n    function freezeProvenanceHash() external onlyOwner {\n        require(bytes(provenanceHash).length > 0, \"Provenance hash is not set.\");\n        require(!provenanceHashFrozen, \"Provenance hash is already frozen.\");\n        provenanceHashFrozen = true;\n    }\n\n    function setWithdrawlAddress(address _withdrawlAddress) external onlyOwner {\n        withdrawlAddress = _withdrawlAddress;\n    }\n\n    function withdraw() external onlyOwner {\n        uint256 balance = address(this).balance;\n        require(balance > 0, \"No balance to withdraw.\");\n        (bool success, ) = payable(withdrawlAddress).call{value: balance}(\"\");\n        require(success, \"Failed to withdraw balance.\");\n    }\n\n    function setStage(Stage _stage) external onlyOwner {\n        require(provenanceHashFrozen == true, \"Provenance hash must be frozen before minting can start.\");\n        require(merkleRoot != 0, \"Merkle root must be set beefore minting can start.\");\n        stage = _stage;\n    }\n\n    // External view functions\n    function lastMintAddress() external view returns (address){\n        return ownerOf(totalSupply());\n    }\n\n    function lastMintID() external view returns (uint256){\n        return(totalSupply());\n    }\n\n    function tokenURI(uint256 tokenId) public view virtual override returns (string memory) {\n        require(_exists(tokenId), \"ERC721Metadata: URI query for nonexistent token.\");\n        return string(abi.encodePacked(baseURI, tokenId.toString(), baseExtension));\n    }\n\n    function getTokensLeft() external view returns (uint256) {\n        return totalSaleSupply - totalSupply();\n    }\n    \n    function walletOfOwner(address owner) external view returns (uint256[] memory) {\n        uint256 ownerTokenCount = balanceOf(owner);\n        uint256[] memory tokensIds = new uint256[](ownerTokenCount);\n        for (uint256 i; i < ownerTokenCount; i++) {\n            tokensIds[i] = tokenOfOwnerByIndex(owner, i);\n        }\n        return tokensIds;\n    }\n\n    function verify(address account, bytes32[] calldata merkleProof) external view returns (bool) {\n        if (merkleProof.verify(merkleRoot, keccak256(abi.encodePacked(account)))) {\n            return true;\n        }\n        return false;\n    }\n    \n    function _beforeTokenTransfer(address from, address to, uint256 tokenId) internal whenNotPaused override(ERC721, ERC721Enumerable) {\n        super._beforeTokenTransfer(from, to, tokenId);\n    }\n\n    // The following functions are overrides required by Solidity.\n\n    function supportsInterface(bytes4 interfaceId) public view override(ERC721, ERC721Enumerable) returns (bool) {\n        return super.supportsInterface(interfaceId);\n    }\n\n} ","sourcePath":"contracts/test.sol","type":"contract","deployment":{"address":"0x0843d16Fcb172E8803d7BE6E20D1ab6f7A1d743E","chainid":"421611","blockHeight":12924972}}