{
  "abi": [
    {
      "inputs": [
        {
          "internalType": "string",
          "name": "_name",
          "type": "string"
        },
        {
          "internalType": "string",
          "name": "_symbol",
          "type": "string"
        },
        {
          "internalType": "string",
          "name": "_baseURI",
          "type": "string"
        },
        {
          "internalType": "uint256",
          "name": "_whitelistSupply",
          "type": "uint256"
        },
        {
          "internalType": "uint256",
          "name": "_teamMintSupply",
          "type": "uint256"
        },
        {
          "internalType": "uint256",
          "name": "_totalSaleSupply",
          "type": "uint256"
        },
        {
          "internalType": "uint8",
          "name": "_maxMintPerTx",
          "type": "uint8"
        }
      ],
      "stateMutability": "nonpayable",
      "type": "constructor"
    },
    {
      "anonymous": false,
      "inputs": [
        {
          "indexed": true,
          "internalType": "address",
          "name": "owner",
          "type": "address"
        },
        {
          "indexed": true,
          "internalType": "address",
          "name": "approved",
          "type": "address"
        },
        {
          "indexed": true,
          "internalType": "uint256",
          "name": "tokenId",
          "type": "uint256"
        }
      ],
      "name": "Approval",
      "type": "event"
    },
    {
      "anonymous": false,
      "inputs": [
        {
          "indexed": true,
          "internalType": "address",
          "name": "owner",
          "type": "address"
        },
        {
          "indexed": true,
          "internalType": "address",
          "name": "operator",
          "type": "address"
        },
        {
          "indexed": false,
          "internalType": "bool",
          "name": "approved",
          "type": "bool"
        }
      ],
      "name": "ApprovalForAll",
      "type": "event"
    },
    {
      "anonymous": false,
      "inputs": [
        {
          "indexed": true,
          "internalType": "address",
          "name": "previousOwner",
          "type": "address"
        },
        {
          "indexed": true,
          "internalType": "address",
          "name": "newOwner",
          "type": "address"
        }
      ],
      "name": "OwnershipTransferred",
      "type": "event"
    },
    {
      "anonymous": false,
      "inputs": [
        {
          "indexed": false,
          "internalType": "address",
          "name": "account",
          "type": "address"
        }
      ],
      "name": "Paused",
      "type": "event"
    },
    {
      "anonymous": false,
      "inputs": [
        {
          "indexed": true,
          "internalType": "address",
          "name": "from",
          "type": "address"
        },
        {
          "indexed": true,
          "internalType": "address",
          "name": "to",
          "type": "address"
        },
        {
          "indexed": true,
          "internalType": "uint256",
          "name": "tokenId",
          "type": "uint256"
        }
      ],
      "name": "Transfer",
      "type": "event"
    },
    {
      "anonymous": false,
      "inputs": [
        {
          "indexed": false,
          "internalType": "address",
          "name": "account",
          "type": "address"
        }
      ],
      "name": "Unpaused",
      "type": "event"
    },
    {
      "inputs": [
        {
          "internalType": "uint8",
          "name": "mintAmount",
          "type": "uint8"
        },
        {
          "internalType": "address",
          "name": "to",
          "type": "address"
        }
      ],
      "name": "airdropCryptid",
      "outputs": [],
      "stateMutability": "nonpayable",
      "type": "function"
    },
    {
      "inputs": [
        {
          "internalType": "address",
          "name": "to",
          "type": "address"
        },
        {
          "internalType": "uint256",
          "name": "tokenId",
          "type": "uint256"
        }
      ],
      "name": "approve",
      "outputs": [],
      "stateMutability": "nonpayable",
      "type": "function"
    },
    {
      "inputs": [
        {
          "internalType": "address",
          "name": "owner",
          "type": "address"
        }
      ],
      "name": "balanceOf",
      "outputs": [
        {
          "internalType": "uint256",
          "name": "",
          "type": "uint256"
        }
      ],
      "stateMutability": "view",
      "type": "function"
    },
    {
      "inputs": [],
      "name": "baseExtension",
      "outputs": [
        {
          "internalType": "string",
          "name": "",
          "type": "string"
        }
      ],
      "stateMutability": "view",
      "type": "function"
    },
    {
      "inputs": [],
      "name": "baseURI",
      "outputs": [
        {
          "internalType": "string",
          "name": "",
          "type": "string"
        }
      ],
      "stateMutability": "view",
      "type": "function"
    },
    {
      "inputs": [
        {
          "internalType": "address",
          "name": "",
          "type": "address"
        }
      ],
      "name": "claimed",
      "outputs": [
        {
          "internalType": "bool",
          "name": "",
          "type": "bool"
        }
      ],
      "stateMutability": "view",
      "type": "function"
    },
    {
      "inputs": [],
      "name": "freezeBaseURI",
      "outputs": [],
      "stateMutability": "nonpayable",
      "type": "function"
    },
    {
      "inputs": [],
      "name": "freezeProvenanceHash",
      "outputs": [],
      "stateMutability": "nonpayable",
      "type": "function"
    },
    {
      "inputs": [
        {
          "internalType": "uint256",
          "name": "tokenId",
          "type": "uint256"
        }
      ],
      "name": "getApproved",
      "outputs": [
        {
          "internalType": "address",
          "name": "",
          "type": "address"
        }
      ],
      "stateMutability": "view",
      "type": "function"
    },
    {
      "inputs": [],
      "name": "getTokensLeft",
      "outputs": [
        {
          "internalType": "uint256",
          "name": "",
          "type": "uint256"
        }
      ],
      "stateMutability": "view",
      "type": "function"
    },
    {
      "inputs": [
        {
          "internalType": "address",
          "name": "owner",
          "type": "address"
        },
        {
          "internalType": "address",
          "name": "operator",
          "type": "address"
        }
      ],
      "name": "isApprovedForAll",
      "outputs": [
        {
          "internalType": "bool",
          "name": "",
          "type": "bool"
        }
      ],
      "stateMutability": "view",
      "type": "function"
    },
    {
      "inputs": [],
      "name": "lastMintAddress",
      "outputs": [
        {
          "internalType": "address",
          "name": "",
          "type": "address"
        }
      ],
      "stateMutability": "view",
      "type": "function"
    },
    {
      "inputs": [],
      "name": "lastMintID",
      "outputs": [
        {
          "internalType": "uint256",
          "name": "",
          "type": "uint256"
        }
      ],
      "stateMutability": "view",
      "type": "function"
    },
    {
      "inputs": [],
      "name": "maxMintPerTx",
      "outputs": [
        {
          "internalType": "uint8",
          "name": "",
          "type": "uint8"
        }
      ],
      "stateMutability": "view",
      "type": "function"
    },
    {
      "inputs": [],
      "name": "merkleRoot",
      "outputs": [
        {
          "internalType": "bytes32",
          "name": "",
          "type": "bytes32"
        }
      ],
      "stateMutability": "view",
      "type": "function"
    },
    {
      "inputs": [],
      "name": "name",
      "outputs": [
        {
          "internalType": "string",
          "name": "",
          "type": "string"
        }
      ],
      "stateMutability": "view",
      "type": "function"
    },
    {
      "inputs": [],
      "name": "owner",
      "outputs": [
        {
          "internalType": "address",
          "name": "",
          "type": "address"
        }
      ],
      "stateMutability": "view",
      "type": "function"
    },
    {
      "inputs": [
        {
          "internalType": "uint256",
          "name": "tokenId",
          "type": "uint256"
        }
      ],
      "name": "ownerOf",
      "outputs": [
        {
          "internalType": "address",
          "name": "",
          "type": "address"
        }
      ],
      "stateMutability": "view",
      "type": "function"
    },
    {
      "inputs": [],
      "name": "pause",
      "outputs": [],
      "stateMutability": "nonpayable",
      "type": "function"
    },
    {
      "inputs": [],
      "name": "paused",
      "outputs": [
        {
          "internalType": "bool",
          "name": "",
          "type": "bool"
        }
      ],
      "stateMutability": "view",
      "type": "function"
    },
    {
      "inputs": [],
      "name": "provenanceHash",
      "outputs": [
        {
          "internalType": "string",
          "name": "",
          "type": "string"
        }
      ],
      "stateMutability": "view",
      "type": "function"
    },
    {
      "inputs": [],
      "name": "provenanceHashFrozen",
      "outputs": [
        {
          "internalType": "bool",
          "name": "",
          "type": "bool"
        }
      ],
      "stateMutability": "view",
      "type": "function"
    },
    {
      "inputs": [
        {
          "internalType": "uint8",
          "name": "mintAmount",
          "type": "uint8"
        }
      ],
      "name": "publicMint",
      "outputs": [],
      "stateMutability": "payable",
      "type": "function"
    },
    {
      "inputs": [],
      "name": "renounceOwnership",
      "outputs": [],
      "stateMutability": "nonpayable",
      "type": "function"
    },
    {
      "inputs": [
        {
          "internalType": "address",
          "name": "from",
          "type": "address"
        },
        {
          "internalType": "address",
          "name": "to",
          "type": "address"
        },
        {
          "internalType": "uint256",
          "name": "tokenId",
          "type": "uint256"
        }
      ],
      "name": "safeTransferFrom",
      "outputs": [],
      "stateMutability": "nonpayable",
      "type": "function"
    },
    {
      "inputs": [
        {
          "internalType": "address",
          "name": "from",
          "type": "address"
        },
        {
          "internalType": "address",
          "name": "to",
          "type": "address"
        },
        {
          "internalType": "uint256",
          "name": "tokenId",
          "type": "uint256"
        },
        {
          "internalType": "bytes",
          "name": "_data",
          "type": "bytes"
        }
      ],
      "name": "safeTransferFrom",
      "outputs": [],
      "stateMutability": "nonpayable",
      "type": "function"
    },
    {
      "inputs": [],
      "name": "salePrice",
      "outputs": [
        {
          "internalType": "uint256",
          "name": "",
          "type": "uint256"
        }
      ],
      "stateMutability": "view",
      "type": "function"
    },
    {
      "inputs": [
        {
          "internalType": "address",
          "name": "operator",
          "type": "address"
        },
        {
          "internalType": "bool",
          "name": "approved",
          "type": "bool"
        }
      ],
      "name": "setApprovalForAll",
      "outputs": [],
      "stateMutability": "nonpayable",
      "type": "function"
    },
    {
      "inputs": [
        {
          "internalType": "string",
          "name": "_newBaseExtension",
          "type": "string"
        }
      ],
      "name": "setBaseExtension",
      "outputs": [],
      "stateMutability": "nonpayable",
      "type": "function"
    },
    {
      "inputs": [
        {
          "internalType": "string",
          "name": "_newBaseURI",
          "type": "string"
        }
      ],
      "name": "setBaseURI",
      "outputs": [],
      "stateMutability": "nonpayable",
      "type": "function"
    },
    {
      "inputs": [
        {
          "internalType": "address",
          "name": "wlAddress",
          "type": "address"
        }
      ],
      "name": "setClaim",
      "outputs": [],
      "stateMutability": "nonpayable",
      "type": "function"
    },
    {
      "inputs": [
        {
          "internalType": "bytes32",
          "name": "_merkleRoot",
          "type": "bytes32"
        }
      ],
      "name": "setMerkleRoot",
      "outputs": [],
      "stateMutability": "nonpayable",
      "type": "function"
    },
    {
      "inputs": [
        {
          "internalType": "string",
          "name": "_provenanceHash",
          "type": "string"
        }
      ],
      "name": "setProvenanceHash",
      "outputs": [],
      "stateMutability": "nonpayable",
      "type": "function"
    },
    {
      "inputs": [
        {
          "internalType": "enum CryptidToken.Stage",
          "name": "_stage",
          "type": "uint8"
        }
      ],
      "name": "setStage",
      "outputs": [],
      "stateMutability": "nonpayable",
      "type": "function"
    },
    {
      "inputs": [
        {
          "internalType": "address",
          "name": "_withdrawlAddress",
          "type": "address"
        }
      ],
      "name": "setWithdrawlAddress",
      "outputs": [],
      "stateMutability": "nonpayable",
      "type": "function"
    },
    {
      "inputs": [],
      "name": "stage",
      "outputs": [
        {
          "internalType": "enum CryptidToken.Stage",
          "name": "",
          "type": "uint8"
        }
      ],
      "stateMutability": "view",
      "type": "function"
    },
    {
      "inputs": [
        {
          "internalType": "bytes4",
          "name": "interfaceId",
          "type": "bytes4"
        }
      ],
      "name": "supportsInterface",
      "outputs": [
        {
          "internalType": "bool",
          "name": "",
          "type": "bool"
        }
      ],
      "stateMutability": "view",
      "type": "function"
    },
    {
      "inputs": [],
      "name": "symbol",
      "outputs": [
        {
          "internalType": "string",
          "name": "",
          "type": "string"
        }
      ],
      "stateMutability": "view",
      "type": "function"
    },
    {
      "inputs": [
        {
          "internalType": "uint8",
          "name": "mintAmount",
          "type": "uint8"
        }
      ],
      "name": "teamMint",
      "outputs": [],
      "stateMutability": "nonpayable",
      "type": "function"
    },
    {
      "inputs": [],
      "name": "teamMintCount",
      "outputs": [
        {
          "internalType": "uint256",
          "name": "",
          "type": "uint256"
        }
      ],
      "stateMutability": "view",
      "type": "function"
    },
    {
      "inputs": [],
      "name": "teamMintSupply",
      "outputs": [
        {
          "internalType": "uint256",
          "name": "",
          "type": "uint256"
        }
      ],
      "stateMutability": "view",
      "type": "function"
    },
    {
      "inputs": [
        {
          "internalType": "uint256",
          "name": "index",
          "type": "uint256"
        }
      ],
      "name": "tokenByIndex",
      "outputs": [
        {
          "internalType": "uint256",
          "name": "",
          "type": "uint256"
        }
      ],
      "stateMutability": "view",
      "type": "function"
    },
    {
      "inputs": [
        {
          "internalType": "address",
          "name": "owner",
          "type": "address"
        },
        {
          "internalType": "uint256",
          "name": "index",
          "type": "uint256"
        }
      ],
      "name": "tokenOfOwnerByIndex",
      "outputs": [
        {
          "internalType": "uint256",
          "name": "",
          "type": "uint256"
        }
      ],
      "stateMutability": "view",
      "type": "function"
    },
    {
      "inputs": [
        {
          "internalType": "uint256",
          "name": "tokenId",
          "type": "uint256"
        }
      ],
      "name": "tokenURI",
      "outputs": [
        {
          "internalType": "string",
          "name": "",
          "type": "string"
        }
      ],
      "stateMutability": "view",
      "type": "function"
    },
    {
      "inputs": [],
      "name": "tokenURIFrozen",
      "outputs": [
        {
          "internalType": "bool",
          "name": "",
          "type": "bool"
        }
      ],
      "stateMutability": "view",
      "type": "function"
    },
    {
      "inputs": [],
      "name": "totalSaleSupply",
      "outputs": [
        {
          "internalType": "uint256",
          "name": "",
          "type": "uint256"
        }
      ],
      "stateMutability": "view",
      "type": "function"
    },
    {
      "inputs": [],
      "name": "totalSupply",
      "outputs": [
        {
          "internalType": "uint256",
          "name": "",
          "type": "uint256"
        }
      ],
      "stateMutability": "view",
      "type": "function"
    },
    {
      "inputs": [
        {
          "internalType": "address",
          "name": "from",
          "type": "address"
        },
        {
          "internalType": "address",
          "name": "to",
          "type": "address"
        },
        {
          "internalType": "uint256",
          "name": "tokenId",
          "type": "uint256"
        }
      ],
      "name": "transferFrom",
      "outputs": [],
      "stateMutability": "nonpayable",
      "type": "function"
    },
    {
      "inputs": [
        {
          "internalType": "address",
          "name": "newOwner",
          "type": "address"
        }
      ],
      "name": "transferOwnership",
      "outputs": [],
      "stateMutability": "nonpayable",
      "type": "function"
    },
    {
      "inputs": [
        {
          "internalType": "address",
          "name": "wlAddress",
          "type": "address"
        }
      ],
      "name": "undoClaim",
      "outputs": [],
      "stateMutability": "nonpayable",
      "type": "function"
    },
    {
      "inputs": [],
      "name": "unpause",
      "outputs": [],
      "stateMutability": "nonpayable",
      "type": "function"
    },
    {
      "inputs": [
        {
          "internalType": "address",
          "name": "owner",
          "type": "address"
        }
      ],
      "name": "walletOfOwner",
      "outputs": [
        {
          "internalType": "uint256[]",
          "name": "",
          "type": "uint256[]"
        }
      ],
      "stateMutability": "view",
      "type": "function"
    },
    {
      "inputs": [
        {
          "internalType": "bytes32[]",
          "name": "merkleProof",
          "type": "bytes32[]"
        }
      ],
      "name": "whitelistMint",
      "outputs": [],
      "stateMutability": "payable",
      "type": "function"
    },
    {
      "inputs": [],
      "name": "whitelistSupply",
      "outputs": [
        {
          "internalType": "uint256",
          "name": "",
          "type": "uint256"
        }
      ],
      "stateMutability": "view",
      "type": "function"
    },
    {
      "inputs": [],
      "name": "withdraw",
      "outputs": [],
      "stateMutability": "payable",
      "type": "function"
    },
    {
      "inputs": [],
      "name": "withdrawlAddress",
      "outputs": [
        {
          "internalType": "address",
          "name": "",
          "type": "address"
        }
      ],
      "stateMutability": "view",
      "type": "function"
    }
  ],
  "bytecode": "60a06040819052600060808190526200001b91600f91620001b8565b5060408051808201909152600580825264173539b7b760d91b60209092019182526200004a91601091620001b8565b5060118054610100600160b81b0319167612b58f5331a6dc897932aa7fb5101667acdf03e200000017905567016345785d8a00006017553480156200008e57600080fd5b5060405162003ad138038062003ad1833981016040819052620000b1916200032b565b865187908790620000ca906000906020850190620001b8565b508051620000e0906001906020840190620001b8565b5050600a805460ff1916905550620000f83362000155565b6001600b556012849055601483905560168290556011805460ff191660ff831617905584516200013090600f906020880190620001b8565b5062000148600c620001af60201b620021981760201c565b5050505050505062000432565b600a80546001600160a01b03838116610100818102610100600160a81b031985161790945560405193909204169182907f8be0079c531659141344cd1fd0a4f28419497f9722a3daafe3b4186f6b6457e090600090a35050565b80546001019055565b828054620001c690620003f5565b90600052602060002090601f016020900481019282620001ea576000855562000235565b82601f106200020557805160ff191683800117855562000235565b8280016001018555821562000235579182015b828111156200023557825182559160200191906001019062000218565b506200024392915062000247565b5090565b5b8082111562000243576000815560010162000248565b634e487b7160e01b600052604160045260246000fd5b600082601f8301126200028657600080fd5b81516001600160401b0380821115620002a357620002a36200025e565b604051601f8301601f19908116603f01168101908282118183101715620002ce57620002ce6200025e565b81604052838152602092508683858801011115620002eb57600080fd5b600091505b838210156200030f5785820183015181830184015290820190620002f0565b83821115620003215760008385830101525b9695505050505050565b600080600080600080600060e0888a0312156200034757600080fd5b87516001600160401b03808211156200035f57600080fd5b6200036d8b838c0162000274565b985060208a01519150808211156200038457600080fd5b620003928b838c0162000274565b975060408a0151915080821115620003a957600080fd5b50620003b88a828b0162000274565b955050606088015193506080880151925060a0880151915060c088015160ff81168114620003e557600080fd5b8091505092959891949750929550565b600181811c908216806200040a57607f821691505b602082108114156200042c57634e487b7160e01b600052602260045260246000fd5b50919050565b61368f80620004426000396000f3fe60806040526004361061036b5760003560e01c806381c162f2116101c6578063c6ab67a3116100f7578063de7fcb1d11610095578063f2fde38b1161006f578063f2fde38b1461098f578063f4efa3e6146109af578063f51f96dd146109cf578063ffa9cd3b146109e557600080fd5b8063de7fcb1d14610905578063e7bc820814610931578063e985e9c51461094657600080fd5b8063ce3cd997116100d1578063ce3cd9971461089b578063d6d67a09146108bb578063da3ef23f146108d0578063de5f9866146108f057600080fd5b8063c6ab67a314610836578063c87b56dd1461084b578063c884ef831461086b57600080fd5b8063b3caad0111610164578063c040e6b81161013e578063c040e6b8146107c5578063c29de630146107ec578063c32145811461080b578063c66828621461082157600080fd5b8063b3caad0114610765578063b88d4fde14610785578063bb31b77b146107a557600080fd5b80638da5cb5b116101a05780638da5cb5b146106ed57806395d89b41146107105780639a2a9c3d14610725578063a22cb4651461074557600080fd5b806381c162f2146106b05780638456cb59146106c5578063858e83b5146106da57600080fd5b806342842e0e116102a05780636c0360eb1161023e578063715018a611610218578063715018a614610645578063782319781461065a5780637b671780146106705780637cb647591461069057600080fd5b80636c0360eb146105fb5780636cbb89851461061057806370a082311461062557600080fd5b806355f804b31161027a57806355f804b31461058357806357ed9e4e146105a35780635c975abb146105c35780636352211e146105db57600080fd5b806342842e0e14610516578063438b6300146105365780634f6ccce71461056357600080fd5b806323b872dd1161030d57806333e61413116102e757806333e61413146104d0578063372f657c146104e65780633ccfd60b146104f95780633f4ba83a1461050157600080fd5b806323b872dd1461047a5780632eb4a7ab1461049a5780632f745c59146104b057600080fd5b8063088139a611610349578063088139a6146103ff578063095ea7b314610423578063109695231461044557806318160ddd1461046557600080fd5b806301ffc9a71461037057806306fdde03146103a5578063081812fc146103c7575b600080fd5b34801561037c57600080fd5b5061039061038b366004612ea7565b610a0c565b60405190151581526020015b60405180910390f35b3480156103b157600080fd5b506103ba610a1d565b60405161039c9190612f23565b3480156103d357600080fd5b506103e76103e2366004612f36565b610aaf565b6040516001600160a01b03909116815260200161039c565b34801561040b57600080fd5b5061041560155481565b60405190815260200161039c565b34801561042f57600080fd5b5061044361043e366004612f6b565b610b49565b005b34801561045157600080fd5b50610443610460366004613021565b610c5f565b34801561047157600080fd5b50600854610415565b34801561048657600080fd5b5061044361049536600461306a565b610d60565b3480156104a657600080fd5b50610415600d5481565b3480156104bc57600080fd5b506104156104cb366004612f6b565b610d91565b3480156104dc57600080fd5b5061041560125481565b6104436104f43660046130a6565b610e27565b6104436110bd565b34801561050d57600080fd5b506104436111d7565b34801561052257600080fd5b5061044361053136600461306a565b611211565b34801561054257600080fd5b5061055661055136600461311b565b61122c565b60405161039c9190613136565b34801561056f57600080fd5b5061041561057e366004612f36565b6112ce565b34801561058f57600080fd5b5061044361059e366004613021565b611361565b3480156105af57600080fd5b506104436105be36600461311b565b6113f1565b3480156105cf57600080fd5b50600a5460ff16610390565b3480156105e757600080fd5b506103e76105f6366004612f36565b611442565b34801561060757600080fd5b506103ba6114b9565b34801561061c57600080fd5b506103e7611547565b34801561063157600080fd5b5061041561064036600461311b565b61155a565b34801561065157600080fd5b506104436115e1565b34801561066657600080fd5b5061041560165481565b34801561067c57600080fd5b5061044361068b36600461318b565b61161b565b34801561069c57600080fd5b506104436106ab366004612f36565b61177b565b3480156106bc57600080fd5b506104436117b0565b3480156106d157600080fd5b506104436118b5565b6104436106e836600461318b565b6118ed565b3480156106f957600080fd5b50600a5461010090046001600160a01b03166103e7565b34801561071c57600080fd5b506103ba611b46565b34801561073157600080fd5b506011546103909062010000900460ff1681565b34801561075157600080fd5b506104436107603660046131a6565b611b55565b34801561077157600080fd5b506104436107803660046131e2565b611b60565b34801561079157600080fd5b506104436107a0366004613215565b611ca2565b3480156107b157600080fd5b506104436107c036600461311b565b611cda565b3480156107d157600080fd5b506018546107df9060ff1681565b60405161039c91906132a7565b3480156107f857600080fd5b5060115461039090610100900460ff1681565b34801561081757600080fd5b5061041560145481565b34801561082d57600080fd5b506103ba611d2e565b34801561084257600080fd5b506103ba611d3b565b34801561085757600080fd5b506103ba610866366004612f36565b611d48565b34801561087757600080fd5b5061039061088636600461311b565b60136020526000908152604090205460ff1681565b3480156108a757600080fd5b506104436108b63660046132cf565b611dfd565b3480156108c757600080fd5b50610415611f41565b3480156108dc57600080fd5b506104436108eb366004613021565b611f4c565b3480156108fc57600080fd5b50610415611f8f565b34801561091157600080fd5b5060115461091f9060ff1681565b60405160ff909116815260200161039c565b34801561093d57600080fd5b50610443611fa7565b34801561095257600080fd5b506103906109613660046132f0565b6001600160a01b03918216600090815260056020908152604080832093909416825291909152205460ff1690565b34801561099b57600080fd5b506104436109aa36600461311b565b61209e565b3480156109bb57600080fd5b506104436109ca36600461311b565b61213c565b3480156109db57600080fd5b5061041560175481565b3480156109f157600080fd5b506011546103e790630100000090046001600160a01b031681565b6000610a17826121a1565b92915050565b606060008054610a2c9061330c565b80601f0160208091040260200160405190810160405280929190818152602001828054610a589061330c565b8015610aa55780601f10610a7a57610100808354040283529160200191610aa5565b820191906000526020600020905b815481529060010190602001808311610a8857829003601f168201915b5050505050905090565b6000818152600260205260408120546001600160a01b0316610b2d5760405162461bcd60e51b815260206004820152602c60248201527f4552433732313a20617070726f76656420717565727920666f72206e6f6e657860448201526b34b9ba32b73a103a37b5b2b760a11b60648201526084015b60405180910390fd5b506000908152600460205260409020546001600160a01b031690565b6000610b5482611442565b9050806001600160a01b0316836001600160a01b03161415610bc25760405162461bcd60e51b815260206004820152602160248201527f4552433732313a20617070726f76616c20746f2063757272656e74206f776e656044820152603960f91b6064820152608401610b24565b336001600160a01b0382161480610bde5750610bde8133610961565b610c505760405162461bcd60e51b815260206004820152603860248201527f4552433732313a20617070726f76652063616c6c6572206973206e6f74206f7760448201527f6e6572206e6f7220617070726f76656420666f7220616c6c00000000000000006064820152608401610b24565b610c5a83836121c6565b505050565b600a546001600160a01b03610100909104163314610c8f5760405162461bcd60e51b8152600401610b2490613347565b6000815111610cf05760405162461bcd60e51b815260206004820152602760248201527f50726f76656e616e636520686173682063616e6e6f7420626520656d7074792060448201526639ba3934b7339760c91b6064820152608401610b24565b60115462010000900460ff1615610d495760405162461bcd60e51b815260206004820152601a60248201527f50726f76656e616e636520686173682069732066726f7a656e2e0000000000006044820152606401610b24565b8051610d5c90600e906020840190612df8565b5050565b610d6a3382612234565b610d865760405162461bcd60e51b8152600401610b249061337c565b610c5a83838361232b565b6000610d9c8361155a565b8210610dfe5760405162461bcd60e51b815260206004820152602b60248201527f455243373231456e756d657261626c653a206f776e657220696e646578206f7560448201526a74206f6620626f756e647360a81b6064820152608401610b24565b506001600160a01b03919091166000908152600660209081526040808320938352929052205490565b6002600b541415610e7a5760405162461bcd60e51b815260206004820152601f60248201527f5265656e7472616e637947756172643a207265656e7472616e742063616c6c006044820152606401610b24565b6002600b55600a5460ff1615610ea25760405162461bcd60e51b8152600401610b24906133cd565b3460175414610eef5760405162461bcd60e51b815260206004820152601960248201527824b731b7b93932b1ba1022aa24103b30b63ab29039b2b73a1760391b6044820152606401610b24565b600260185460ff166004811115610f0857610f08613291565b14610f555760405162461bcd60e51b815260206004820152601d60248201527f57686974656c6973742073616c65206e6f7420696e697469617465642e0000006044820152606401610b24565b600d546040516bffffffffffffffffffffffff193360601b166020820152610fce9190603401604051602081830303815290604052805190602001208484808060200260200160405190810160405280939291908181526020018383602002808284376000920191909152509294939250506124d29050565b61101a5760405162461bcd60e51b815260206004820152601960248201527f41646472657373206e6f7420696e2077686974656c6973742e000000000000006044820152606401610b24565b3360009081526013602052604090205460ff161561107a5760405162461bcd60e51b815260206004820152601f60248201527f57686974656c697374206d696e7420616c726561647920636c61696d65642e006044820152606401610b24565b336000818152601360205260409020805460ff191660011790556110a6906110a1600c5490565b6124e8565b6110b4600c80546001019055565b50506001600b55565b600a546001600160a01b036101009091041633146110ed5760405162461bcd60e51b8152600401610b2490613347565b600047116111365760405162461bcd60e51b815260206004820152601660248201527521b7b73a3930b1ba103130b630b731b29034b990181760511b6044820152606401610b24565b601154604051600091630100000090046001600160a01b03169047908381818185875af1925050503d806000811461118a576040519150601f19603f3d011682016040523d82523d6000602084013e61118f565b606091505b50509050806111d45760405162461bcd60e51b81526020600482015260116024820152702bb4ba34323930bbb6103330b4b632b21760791b6044820152606401610b24565b50565b600a546001600160a01b036101009091041633146112075760405162461bcd60e51b8152600401610b2490613347565b61120f612502565b565b610c5a83838360405180602001604052806000815250611ca2565b606060006112398361155a565b905060008167ffffffffffffffff81111561125657611256612f95565b60405190808252806020026020018201604052801561127f578160200160208202803683370190505b50905060005b828110156112c6576112978582610d91565b8282815181106112a9576112a96133f7565b6020908102919091010152806112be81613423565b915050611285565b509392505050565b60006112d960085490565b821061133c5760405162461bcd60e51b815260206004820152602c60248201527f455243373231456e756d657261626c653a20676c6f62616c20696e646578206f60448201526b7574206f6620626f756e647360a01b6064820152608401610b24565b6008828154811061134f5761134f6133f7565b90600052602060002001549050919050565b600a546001600160a01b036101009091041633146113915760405162461bcd60e51b8152600401610b2490613347565b601154610100900460ff16156113de5760405162461bcd60e51b81526020600482015260126024820152712130b9b2aaa9249034b990333937bd32b71760711b6044820152606401610b24565b8051610d5c90600f906020840190612df8565b600a546001600160a01b036101009091041633146114215760405162461bcd60e51b8152600401610b2490613347565b6001600160a01b03166000908152601360205260409020805460ff19169055565b6000818152600260205260408120546001600160a01b031680610a175760405162461bcd60e51b815260206004820152602960248201527f4552433732313a206f776e657220717565727920666f72206e6f6e657869737460448201526832b73a103a37b5b2b760b91b6064820152608401610b24565b600f80546114c69061330c565b80601f01602080910402602001604051908101604052809291908181526020018280546114f29061330c565b801561153f5780601f106115145761010080835404028352916020019161153f565b820191906000526020600020905b81548152906001019060200180831161152257829003601f168201915b505050505081565b60006115556105f660085490565b905090565b60006001600160a01b0382166115c55760405162461bcd60e51b815260206004820152602a60248201527f4552433732313a2062616c616e636520717565727920666f7220746865207a65604482015269726f206164647265737360b01b6064820152608401610b24565b506001600160a01b031660009081526003602052604090205490565b600a546001600160a01b036101009091041633146116115760405162461bcd60e51b8152600401610b2490613347565b61120f6000612595565b600a546001600160a01b0361010090910416331461164b5760405162461bcd60e51b8152600401610b2490613347565b600360185460ff16600481111561166457611664613291565b146116b15760405162461bcd60e51b815260206004820152601860248201527f5465616d206d696e74206e6f7420696e697469617465642e00000000000000006044820152606401610b24565b6014546015546116c49060ff841661343e565b11156117265760405162461bcd60e51b815260206004820152602b60248201527f5472616e73616374696f6e206578636565647320746f74616c207465616d207360448201526a30b6329039bab838363c9760a91b6064820152608401610b24565b8060ff166015600082825461173b919061343e565b90915550600190505b8160ff168111610d5c5761175b336110a1600c5490565b611769600c80546001019055565b8061177381613423565b915050611744565b600a546001600160a01b036101009091041633146117ab5760405162461bcd60e51b8152600401610b2490613347565b600d55565b600a546001600160a01b036101009091041633146117e05760405162461bcd60e51b8152600401610b2490613347565b6000600e80546117ef9061330c565b90501161183e5760405162461bcd60e51b815260206004820152601b60248201527f50726f76656e616e63652068617368206973206e6f74207365742e00000000006044820152606401610b24565b60115462010000900460ff16156118a25760405162461bcd60e51b815260206004820152602260248201527f50726f76656e616e6365206861736820697320616c72656164792066726f7a65604482015261371760f11b6064820152608401610b24565b6011805462ff0000191662010000179055565b600a546001600160a01b036101009091041633146118e55760405162461bcd60e51b8152600401610b2490613347565b61120f6125ef565b6002600b5414156119405760405162461bcd60e51b815260206004820152601f60248201527f5265656e7472616e637947756172643a207265656e7472616e742063616c6c006044820152606401610b24565b6002600b55600a5460ff16156119685760405162461bcd60e51b8152600401610b24906133cd565b348160ff1660175461197a9190613456565b146119c35760405162461bcd60e51b815260206004820152601960248201527824b731b7b93932b1ba1022aa24103b30b63ab29039b2b73a1760391b6044820152606401610b24565b600460185460ff1660048111156119dc576119dc613291565b14611a295760405162461bcd60e51b815260206004820152601a60248201527f5075626c69632053616c65206e6f7420696e697469617465642e0000000000006044820152606401610b24565b6016548160ff16611a3960085490565b611a43919061343e565b1115611aa05760405162461bcd60e51b815260206004820152602660248201527f5472616e73616374696f6e206578636565647320746f74616c2073616c6520736044820152653ab838363c9760d11b6064820152608401610b24565b60115460ff9081169082161115611b0c5760405162461bcd60e51b815260206004820152602a60248201527f45786365656473206d617820616c6c6f776564206d696e74732070657220747260448201526930b739b0b1ba34b7b71760b11b6064820152608401610b24565b60015b8160ff1681116110b457611b26336110a1600c5490565b611b34600c80546001019055565b80611b3e81613423565b915050611b0f565b606060018054610a2c9061330c565b610d5c338383612647565b600a546001600160a01b03610100909104163314611b905760405162461bcd60e51b8152600401610b2490613347565b600060185460ff166004811115611ba957611ba9613291565b11611bed5760405162461bcd60e51b815260206004820152601460248201527327379030b4b9323937b8399030ba1034b734ba1760611b6044820152606401610b24565b6016548260ff16611bfd60085490565b611c07919061343e565b1115611c685760405162461bcd60e51b815260206004820152602a60248201527f4d696e7420616d6f756e742077696c6c2065786365656420746f74616c20736160448201526936329039bab838363c9760b11b6064820152608401610b24565b60015b8260ff168111610c5a57611c82826110a1600c5490565b611c90600c80546001019055565b80611c9a81613423565b915050611c6b565b611cac3383612234565b611cc85760405162461bcd60e51b8152600401610b249061337c565b611cd484848484612716565b50505050565b600a546001600160a01b03610100909104163314611d0a5760405162461bcd60e51b8152600401610b2490613347565b6001600160a01b03166000908152601360205260409020805460ff19166001179055565b601080546114c69061330c565b600e80546114c69061330c565b6000818152600260205260409020546060906001600160a01b0316611dc85760405162461bcd60e51b815260206004820152603060248201527f4552433732314d657461646174613a2055524920717565727920666f72206e6f60448201526f3732bc34b9ba32b73a103a37b5b2b71760811b6064820152608401610b24565b600f611dd383612749565b6010604051602001611de79392919061350f565b6040516020818303038152906040529050919050565b600a546001600160a01b03610100909104163314611e2d5760405162461bcd60e51b8152600401610b2490613347565b60115462010000900460ff161515600114611eb05760405162461bcd60e51b815260206004820152603860248201527f50726f76656e616e63652068617368206d7573742062652066726f7a656e206260448201527f65666f7265206d696e74696e672063616e2073746172742e00000000000000006064820152608401610b24565b600d54611f1a5760405162461bcd60e51b815260206004820152603260248201527f4d65726b6c6520726f6f74206d7573742062652073657420626565666f72652060448201527136b4b73a34b7339031b0b71039ba30b93a1760711b6064820152608401610b24565b6018805482919060ff19166001836004811115611f3957611f39613291565b021790555050565b600061155560085490565b600a546001600160a01b03610100909104163314611f7c5760405162461bcd60e51b8152600401610b2490613347565b8051610d5c906010906020840190612df8565b6000611f9a60085490565b6016546115559190613542565b600a546001600160a01b03610100909104163314611fd75760405162461bcd60e51b8152600401610b2490613347565b6000600f8054611fe69061330c565b9050116120355760405162461bcd60e51b815260206004820152601860248201527f426173655552492063616e6e6f7420626520656d7074792e00000000000000006044820152606401610b24565b601154610100900460ff161561208d5760405162461bcd60e51b815260206004820152601a60248201527f4261736555524920697320616c72656164792066726f7a656e2e0000000000006044820152606401610b24565b6011805461ff001916610100179055565b600a546001600160a01b036101009091041633146120ce5760405162461bcd60e51b8152600401610b2490613347565b6001600160a01b0381166121335760405162461bcd60e51b815260206004820152602660248201527f4f776e61626c653a206e6577206f776e657220697320746865207a65726f206160448201526564647265737360d01b6064820152608401610b24565b6111d481612595565b600a546001600160a01b0361010090910416331461216c5760405162461bcd60e51b8152600401610b2490613347565b601180546001600160a01b039092166301000000026301000000600160b81b0319909216919091179055565b80546001019055565b60006001600160e01b0319821663780e9d6360e01b1480610a175750610a1782612847565b600081815260046020526040902080546001600160a01b0319166001600160a01b03841690811790915581906121fb82611442565b6001600160a01b03167f8c5be1e5ebec7d5bd14f71427d1e84f3dd0314c0f7b2291e5b200ac8c7c3b92560405160405180910390a45050565b6000818152600260205260408120546001600160a01b03166122ad5760405162461bcd60e51b815260206004820152602c60248201527f4552433732313a206f70657261746f7220717565727920666f72206e6f6e657860448201526b34b9ba32b73a103a37b5b2b760a11b6064820152608401610b24565b60006122b883611442565b9050806001600160a01b0316846001600160a01b031614806122f35750836001600160a01b03166122e884610aaf565b6001600160a01b0316145b8061232357506001600160a01b0380821660009081526005602090815260408083209388168352929052205460ff165b949350505050565b826001600160a01b031661233e82611442565b6001600160a01b0316146123a25760405162461bcd60e51b815260206004820152602560248201527f4552433732313a207472616e736665722066726f6d20696e636f72726563742060448201526437bbb732b960d91b6064820152608401610b24565b6001600160a01b0382166124045760405162461bcd60e51b8152602060048201526024808201527f4552433732313a207472616e7366657220746f20746865207a65726f206164646044820152637265737360e01b6064820152608401610b24565b61240f838383612897565b61241a6000826121c6565b6001600160a01b0383166000908152600360205260408120805460019290612443908490613542565b90915550506001600160a01b038216600090815260036020526040812080546001929061247190849061343e565b909155505060008181526002602052604080822080546001600160a01b0319166001600160a01b0386811691821790925591518493918716917fddf252ad1be2c89b69c2b068fc378daa952ba7f163c4a11628f55a4df523b3ef91a4505050565b6000826124df85846128c5565b14949350505050565b610d5c828260405180602001604052806000815250612931565b600a5460ff1661254b5760405162461bcd60e51b815260206004820152601460248201527314185d5cd8589b194e881b9bdd081c185d5cd95960621b6044820152606401610b24565b600a805460ff191690557f5db9ee0a495bf2e6ff9c91a7834c1ba4fdd244a5e8aa4e537bd38aeae4b073aa335b6040516001600160a01b03909116815260200160405180910390a1565b600a80546001600160a01b03838116610100818102610100600160a81b031985161790945560405193909204169182907f8be0079c531659141344cd1fd0a4f28419497f9722a3daafe3b4186f6b6457e090600090a35050565b600a5460ff16156126125760405162461bcd60e51b8152600401610b24906133cd565b600a805460ff191660011790557f62e78cea01bee320cd4e420270b5ea74000d11b0c9f74754ebdbfc544b05a2586125783390565b816001600160a01b0316836001600160a01b031614156126a95760405162461bcd60e51b815260206004820152601960248201527f4552433732313a20617070726f766520746f2063616c6c6572000000000000006044820152606401610b24565b6001600160a01b03838116600081815260056020908152604080832094871680845294825291829020805460ff191686151590811790915591519182527f17307eab39ab6107e8899845ad3d59bd9653f200f220920489ca2b5937696c31910160405180910390a3505050565b61272184848461232b565b61272d84848484612964565b611cd45760405162461bcd60e51b8152600401610b2490613559565b60608161276d5750506040805180820190915260018152600360fc1b602082015290565b8160005b8115612797578061278181613423565b91506127909050600a836135c1565b9150612771565b60008167ffffffffffffffff8111156127b2576127b2612f95565b6040519080825280601f01601f1916602001820160405280156127dc576020820181803683370190505b5090505b8415612323576127f1600183613542565b91506127fe600a866135d5565b61280990603061343e565b60f81b81838151811061281e5761281e6133f7565b60200101906001600160f81b031916908160001a905350612840600a866135c1565b94506127e0565b60006001600160e01b031982166380ac58cd60e01b148061287857506001600160e01b03198216635b5e139f60e01b145b80610a1757506301ffc9a760e01b6001600160e01b0319831614610a17565b600a5460ff16156128ba5760405162461bcd60e51b8152600401610b24906133cd565b610c5a838383612a62565b600081815b84518110156112c65760008582815181106128e7576128e76133f7565b6020026020010151905080831161290d576000838152602082905260409020925061291e565b600081815260208490526040902092505b508061292981613423565b9150506128ca565b61293b8383612b1a565b6129486000848484612964565b610c5a5760405162461bcd60e51b8152600401610b2490613559565b60006001600160a01b0384163b15612a5757604051630a85bd0160e11b81526001600160a01b0385169063150b7a02906129a89033908990889088906004016135e9565b6020604051808303816000875af19250505080156129e3575060408051601f3d908101601f191682019092526129e091810190613626565b60015b612a3d573d808015612a11576040519150601f19603f3d011682016040523d82523d6000602084013e612a16565b606091505b508051612a355760405162461bcd60e51b8152600401610b2490613559565b805181602001fd5b6001600160e01b031916630a85bd0160e11b149050612323565b506001949350505050565b6001600160a01b038316612abd57612ab881600880546000838152600960205260408120829055600182018355919091527ff3f7a9fe364faab93b216da50a3214154f22a0a2b415b23a84c8169e8b636ee30155565b612ae0565b816001600160a01b0316836001600160a01b031614612ae057612ae08382612c68565b6001600160a01b038216612af757610c5a81612d05565b826001600160a01b0316826001600160a01b031614610c5a57610c5a8282612db4565b6001600160a01b038216612b705760405162461bcd60e51b815260206004820181905260248201527f4552433732313a206d696e7420746f20746865207a65726f20616464726573736044820152606401610b24565b6000818152600260205260409020546001600160a01b031615612bd55760405162461bcd60e51b815260206004820152601c60248201527f4552433732313a20746f6b656e20616c7265616479206d696e746564000000006044820152606401610b24565b612be160008383612897565b6001600160a01b0382166000908152600360205260408120805460019290612c0a90849061343e565b909155505060008181526002602052604080822080546001600160a01b0319166001600160a01b03861690811790915590518392907fddf252ad1be2c89b69c2b068fc378daa952ba7f163c4a11628f55a4df523b3ef908290a45050565b60006001612c758461155a565b612c7f9190613542565b600083815260076020526040902054909150808214612cd2576001600160a01b03841660009081526006602090815260408083208584528252808320548484528184208190558352600790915290208190555b5060009182526007602090815260408084208490556001600160a01b039094168352600681528383209183525290812055565b600854600090612d1790600190613542565b60008381526009602052604081205460088054939450909284908110612d3f57612d3f6133f7565b906000526020600020015490508060088381548110612d6057612d606133f7565b6000918252602080832090910192909255828152600990915260408082208490558582528120556008805480612d9857612d98613643565b6001900381819060005260206000200160009055905550505050565b6000612dbf8361155a565b6001600160a01b039093166000908152600660209081526040808320868452825280832085905593825260079052919091209190915550565b828054612e049061330c565b90600052602060002090601f016020900481019282612e265760008555612e6c565b82601f10612e3f57805160ff1916838001178555612e6c565b82800160010185558215612e6c579182015b82811115612e6c578251825591602001919060010190612e51565b50612e78929150612e7c565b5090565b5b80821115612e785760008155600101612e7d565b6001600160e01b0319811681146111d457600080fd5b600060208284031215612eb957600080fd5b8135612ec481612e91565b9392505050565b60005b83811015612ee6578181015183820152602001612ece565b83811115611cd45750506000910152565b60008151808452612f0f816020860160208601612ecb565b601f01601f19169290920160200192915050565b602081526000612ec46020830184612ef7565b600060208284031215612f4857600080fd5b5035919050565b80356001600160a01b0381168114612f6657600080fd5b919050565b60008060408385031215612f7e57600080fd5b612f8783612f4f565b946020939093013593505050565b634e487b7160e01b600052604160045260246000fd5b600067ffffffffffffffff80841115612fc657612fc6612f95565b604051601f8501601f19908116603f01168101908282118183101715612fee57612fee612f95565b8160405280935085815286868601111561300757600080fd5b858560208301376000602087830101525050509392505050565b60006020828403121561303357600080fd5b813567ffffffffffffffff81111561304a57600080fd5b8201601f8101841361305b57600080fd5b61232384823560208401612fab565b60008060006060848603121561307f57600080fd5b61308884612f4f565b925061309660208501612f4f565b9150604084013590509250925092565b600080602083850312156130b957600080fd5b823567ffffffffffffffff808211156130d157600080fd5b818501915085601f8301126130e557600080fd5b8135818111156130f457600080fd5b8660208260051b850101111561310957600080fd5b60209290920196919550909350505050565b60006020828403121561312d57600080fd5b612ec482612f4f565b6020808252825182820181905260009190848201906040850190845b8181101561316e57835183529284019291840191600101613152565b50909695505050505050565b803560ff81168114612f6657600080fd5b60006020828403121561319d57600080fd5b612ec48261317a565b600080604083850312156131b957600080fd5b6131c283612f4f565b9150602083013580151581146131d757600080fd5b809150509250929050565b600080604083850312156131f557600080fd5b6131fe8361317a565b915061320c60208401612f4f565b90509250929050565b6000806000806080858703121561322b57600080fd5b61323485612f4f565b935061324260208601612f4f565b925060408501359150606085013567ffffffffffffffff81111561326557600080fd5b8501601f8101871361327657600080fd5b61328587823560208401612fab565b91505092959194509250565b634e487b7160e01b600052602160045260246000fd5b60208101600583106132c957634e487b7160e01b600052602160045260246000fd5b91905290565b6000602082840312156132e157600080fd5b813560058110612ec457600080fd5b6000806040838503121561330357600080fd5b6131fe83612f4f565b600181811c9082168061332057607f821691505b6020821081141561334157634e487b7160e01b600052602260045260246000fd5b50919050565b6020808252818101527f4f776e61626c653a2063616c6c6572206973206e6f7420746865206f776e6572604082015260600190565b60208082526031908201527f4552433732313a207472616e736665722063616c6c6572206973206e6f74206f6040820152701ddb995c881b9bdc88185c1c1c9bdd9959607a1b606082015260800190565b60208082526010908201526f14185d5cd8589b194e881c185d5cd95960821b604082015260600190565b634e487b7160e01b600052603260045260246000fd5b634e487b7160e01b600052601160045260246000fd5b60006000198214156134375761343761340d565b5060010190565b600082198211156134515761345161340d565b500190565b60008160001904831182151516156134705761347061340d565b500290565b8054600090600181811c908083168061348f57607f831692505b60208084108214156134b157634e487b7160e01b600052602260045260246000fd5b8180156134c557600181146134d657613503565b60ff19861689528489019650613503565b60008881526020902060005b868110156134fb5781548b8201529085019083016134e2565b505084890196505b50505050505092915050565b600061351b8286613475565b845161352b818360208901612ecb565b61353781830186613475565b979650505050505050565b6000828210156135545761355461340d565b500390565b60208082526032908201527f4552433732313a207472616e7366657220746f206e6f6e20455243373231526560408201527131b2b4bb32b91034b6b83632b6b2b73a32b960711b606082015260800190565b634e487b7160e01b600052601260045260246000fd5b6000826135d0576135d06135ab565b500490565b6000826135e4576135e46135ab565b500690565b6001600160a01b038581168252841660208201526040810183905260806060820181905260009061361c90830184612ef7565b9695505050505050565b60006020828403121561363857600080fd5b8151612ec481612e91565b634e487b7160e01b600052603160045260246000fdfea26469706673582212207c7ad4cb4580a48dbd0676aea78263d34bc7e8637988bb55bf1b3388facd787464736f6c634300080a0033",
  "bytecodeSha1": "4ea29211e40d73bcdda359f0db78b0a21d60b91b",
  "compiler": {
    "evm_version": "istanbul",
    "optimizer": {
      "enabled": true,
      "runs": 200
    },
    "version": "0.8.10+commit.fc410830"
  },
  "contractName": "CryptidToken",
  "language": "Solidity",
  "natspec": {
    "author": "@chrisrusselljr",
    "details": "All function calls are currently implemented without side effects",
    "kind": "dev",
    "methods": {
      "approve(address,uint256)": {
        "details": "See {IERC721-approve}."
      },
      "balanceOf(address)": {
        "details": "See {IERC721-balanceOf}."
      },
      "getApproved(uint256)": {
        "details": "See {IERC721-getApproved}."
      },
      "isApprovedForAll(address,address)": {
        "details": "See {IERC721-isApprovedForAll}."
      },
      "name()": {
        "details": "See {IERC721Metadata-name}."
      },
      "owner()": {
        "details": "Returns the address of the current owner."
      },
      "ownerOf(uint256)": {
        "details": "See {IERC721-ownerOf}."
      },
      "paused()": {
        "details": "Returns true if the contract is paused, and false otherwise."
      },
      "renounceOwnership()": {
        "details": "Leaves the contract without owner. It will not be possible to call `onlyOwner` functions anymore. Can only be called by the current owner. NOTE: Renouncing ownership will leave the contract without an owner, thereby removing any functionality that is only available to the owner."
      },
      "safeTransferFrom(address,address,uint256)": {
        "details": "See {IERC721-safeTransferFrom}."
      },
      "safeTransferFrom(address,address,uint256,bytes)": {
        "details": "See {IERC721-safeTransferFrom}."
      },
      "setApprovalForAll(address,bool)": {
        "details": "See {IERC721-setApprovalForAll}."
      },
      "symbol()": {
        "details": "See {IERC721Metadata-symbol}."
      },
      "tokenByIndex(uint256)": {
        "details": "See {IERC721Enumerable-tokenByIndex}."
      },
      "tokenOfOwnerByIndex(address,uint256)": {
        "details": "See {IERC721Enumerable-tokenOfOwnerByIndex}."
      },
      "tokenURI(uint256)": {
        "details": "See {IERC721Metadata-tokenURI}."
      },
      "totalSupply()": {
        "details": "See {IERC721Enumerable-totalSupply}."
      },
      "transferFrom(address,address,uint256)": {
        "details": "See {IERC721-transferFrom}."
      },
      "transferOwnership(address)": {
        "details": "Transfers ownership of the contract to a new account (`newOwner`). Can only be called by the current owner."
      }
    },
    "notice": "You can use this contract to mint, sent, and interact with CRYPTIDS",
    "title": "CryptidToken NFT Contract",
    "version": 1
  },
  "opcodes": "PUSH1 0x80 PUSH1 0x40 MSTORE PUSH1 0x4 CALLDATASIZE LT PUSH2 0x36B JUMPI PUSH1 0x0 CALLDATALOAD PUSH1 0xE0 SHR DUP1 PUSH4 0x81C162F2 GT PUSH2 0x1C6 JUMPI DUP1 PUSH4 0xC6AB67A3 GT PUSH2 0xF7 JUMPI DUP1 PUSH4 0xDE7FCB1D GT PUSH2 0x95 JUMPI DUP1 PUSH4 0xF2FDE38B GT PUSH2 0x6F JUMPI DUP1 PUSH4 0xF2FDE38B EQ PUSH2 0x98F JUMPI DUP1 PUSH4 0xF4EFA3E6 EQ PUSH2 0x9AF JUMPI DUP1 PUSH4 0xF51F96DD EQ PUSH2 0x9CF JUMPI DUP1 PUSH4 0xFFA9CD3B EQ PUSH2 0x9E5 JUMPI PUSH1 0x0 DUP1 REVERT JUMPDEST DUP1 PUSH4 0xDE7FCB1D EQ PUSH2 0x905 JUMPI DUP1 PUSH4 0xE7BC8208 EQ PUSH2 0x931 JUMPI DUP1 PUSH4 0xE985E9C5 EQ PUSH2 0x946 JUMPI PUSH1 0x0 DUP1 REVERT JUMPDEST DUP1 PUSH4 0xCE3CD997 GT PUSH2 0xD1 JUMPI DUP1 PUSH4 0xCE3CD997 EQ PUSH2 0x89B JUMPI DUP1 PUSH4 0xD6D67A09 EQ PUSH2 0x8BB JUMPI DUP1 PUSH4 0xDA3EF23F EQ PUSH2 0x8D0 JUMPI DUP1 PUSH4 0xDE5F9866 EQ PUSH2 0x8F0 JUMPI PUSH1 0x0 DUP1 REVERT JUMPDEST DUP1 PUSH4 0xC6AB67A3 EQ PUSH2 0x836 JUMPI DUP1 PUSH4 0xC87B56DD EQ PUSH2 0x84B JUMPI DUP1 PUSH4 0xC884EF83 EQ PUSH2 0x86B JUMPI PUSH1 0x0 DUP1 REVERT JUMPDEST DUP1 PUSH4 0xB3CAAD01 GT PUSH2 0x164 JUMPI DUP1 PUSH4 0xC040E6B8 GT PUSH2 0x13E JUMPI DUP1 PUSH4 0xC040E6B8 EQ PUSH2 0x7C5 JUMPI DUP1 PUSH4 0xC29DE630 EQ PUSH2 0x7EC JUMPI DUP1 PUSH4 0xC3214581 EQ PUSH2 0x80B JUMPI DUP1 PUSH4 0xC6682862 EQ PUSH2 0x821 JUMPI PUSH1 0x0 DUP1 REVERT JUMPDEST DUP1 PUSH4 0xB3CAAD01 EQ PUSH2 0x765 JUMPI DUP1 PUSH4 0xB88D4FDE EQ PUSH2 0x785 JUMPI DUP1 PUSH4 0xBB31B77B EQ PUSH2 0x7A5 JUMPI PUSH1 0x0 DUP1 REVERT JUMPDEST DUP1 PUSH4 0x8DA5CB5B GT PUSH2 0x1A0 JUMPI DUP1 PUSH4 0x8DA5CB5B EQ PUSH2 0x6ED JUMPI DUP1 PUSH4 0x95D89B41 EQ PUSH2 0x710 JUMPI DUP1 PUSH4 0x9A2A9C3D EQ PUSH2 0x725 JUMPI DUP1 PUSH4 0xA22CB465 EQ PUSH2 0x745 JUMPI PUSH1 0x0 DUP1 REVERT JUMPDEST DUP1 PUSH4 0x81C162F2 EQ PUSH2 0x6B0 JUMPI DUP1 PUSH4 0x8456CB59 EQ PUSH2 0x6C5 JUMPI DUP1 PUSH4 0x858E83B5 EQ PUSH2 0x6DA JUMPI PUSH1 0x0 DUP1 REVERT JUMPDEST DUP1 PUSH4 0x42842E0E GT PUSH2 0x2A0 JUMPI DUP1 PUSH4 0x6C0360EB GT PUSH2 0x23E JUMPI DUP1 PUSH4 0x715018A6 GT PUSH2 0x218 JUMPI DUP1 PUSH4 0x715018A6 EQ PUSH2 0x645 JUMPI DUP1 PUSH4 0x78231978 EQ PUSH2 0x65A JUMPI DUP1 PUSH4 0x7B671780 EQ PUSH2 0x670 JUMPI DUP1 PUSH4 0x7CB64759 EQ PUSH2 0x690 JUMPI PUSH1 0x0 DUP1 REVERT JUMPDEST DUP1 PUSH4 0x6C0360EB EQ PUSH2 0x5FB JUMPI DUP1 PUSH4 0x6CBB8985 EQ PUSH2 0x610 JUMPI DUP1 PUSH4 0x70A08231 EQ PUSH2 0x625 JUMPI PUSH1 0x0 DUP1 REVERT JUMPDEST DUP1 PUSH4 0x55F804B3 GT PUSH2 0x27A JUMPI DUP1 PUSH4 0x55F804B3 EQ PUSH2 0x583 JUMPI DUP1 PUSH4 0x57ED9E4E EQ PUSH2 0x5A3 JUMPI DUP1 PUSH4 0x5C975ABB EQ PUSH2 0x5C3 JUMPI DUP1 PUSH4 0x6352211E EQ PUSH2 0x5DB JUMPI PUSH1 0x0 DUP1 REVERT JUMPDEST DUP1 PUSH4 0x42842E0E EQ PUSH2 0x516 JUMPI DUP1 PUSH4 0x438B6300 EQ PUSH2 0x536 JUMPI DUP1 PUSH4 0x4F6CCCE7 EQ PUSH2 0x563 JUMPI PUSH1 0x0 DUP1 REVERT JUMPDEST DUP1 PUSH4 0x23B872DD GT PUSH2 0x30D JUMPI DUP1 PUSH4 0x33E61413 GT PUSH2 0x2E7 JUMPI DUP1 PUSH4 0x33E61413 EQ PUSH2 0x4D0 JUMPI DUP1 PUSH4 0x372F657C EQ PUSH2 0x4E6 JUMPI DUP1 PUSH4 0x3CCFD60B EQ PUSH2 0x4F9 JUMPI DUP1 PUSH4 0x3F4BA83A EQ PUSH2 0x501 JUMPI PUSH1 0x0 DUP1 REVERT JUMPDEST DUP1 PUSH4 0x23B872DD EQ PUSH2 0x47A JUMPI DUP1 PUSH4 0x2EB4A7AB EQ PUSH2 0x49A JUMPI DUP1 PUSH4 0x2F745C59 EQ PUSH2 0x4B0 JUMPI PUSH1 0x0 DUP1 REVERT JUMPDEST DUP1 PUSH4 0x88139A6 GT PUSH2 0x349 JUMPI DUP1 PUSH4 0x88139A6 EQ PUSH2 0x3FF JUMPI DUP1 PUSH4 0x95EA7B3 EQ PUSH2 0x423 JUMPI DUP1 PUSH4 0x10969523 EQ PUSH2 0x445 JUMPI DUP1 PUSH4 0x18160DDD EQ PUSH2 0x465 JUMPI PUSH1 0x0 DUP1 REVERT JUMPDEST DUP1 PUSH4 0x1FFC9A7 EQ PUSH2 0x370 JUMPI DUP1 PUSH4 0x6FDDE03 EQ PUSH2 0x3A5 JUMPI DUP1 PUSH4 0x81812FC EQ PUSH2 0x3C7 JUMPI JUMPDEST PUSH1 0x0 DUP1 REVERT JUMPDEST CALLVALUE DUP1 ISZERO PUSH2 0x37C JUMPI PUSH1 0x0 DUP1 REVERT JUMPDEST POP PUSH2 0x390 PUSH2 0x38B CALLDATASIZE PUSH1 0x4 PUSH2 0x2EA7 JUMP JUMPDEST PUSH2 0xA0C JUMP JUMPDEST PUSH1 0x40 MLOAD SWAP1 ISZERO ISZERO DUP2 MSTORE PUSH1 0x20 ADD JUMPDEST PUSH1 0x40 MLOAD DUP1 SWAP2 SUB SWAP1 RETURN JUMPDEST CALLVALUE DUP1 ISZERO PUSH2 0x3B1 JUMPI PUSH1 0x0 DUP1 REVERT JUMPDEST POP PUSH2 0x3BA PUSH2 0xA1D JUMP JUMPDEST PUSH1 0x40 MLOAD PUSH2 0x39C SWAP2 SWAP1 PUSH2 0x2F23 JUMP JUMPDEST CALLVALUE DUP1 ISZERO PUSH2 0x3D3 JUMPI PUSH1 0x0 DUP1 REVERT JUMPDEST POP PUSH2 0x3E7 PUSH2 0x3E2 CALLDATASIZE PUSH1 0x4 PUSH2 0x2F36 JUMP JUMPDEST PUSH2 0xAAF JUMP JUMPDEST PUSH1 0x40 MLOAD PUSH1 0x1 PUSH1 0x1 PUSH1 0xA0 SHL SUB SWAP1 SWAP2 AND DUP2 MSTORE PUSH1 0x20 ADD PUSH2 0x39C JUMP JUMPDEST CALLVALUE DUP1 ISZERO PUSH2 0x40B JUMPI PUSH1 0x0 DUP1 REVERT JUMPDEST POP PUSH2 0x415 PUSH1 0x15 SLOAD DUP2 JUMP JUMPDEST PUSH1 0x40 MLOAD SWAP1 DUP2 MSTORE PUSH1 0x20 ADD PUSH2 0x39C JUMP JUMPDEST CALLVALUE DUP1 ISZERO PUSH2 0x42F JUMPI PUSH1 0x0 DUP1 REVERT JUMPDEST POP PUSH2 0x443 PUSH2 0x43E CALLDATASIZE PUSH1 0x4 PUSH2 0x2F6B JUMP JUMPDEST PUSH2 0xB49 JUMP JUMPDEST STOP JUMPDEST CALLVALUE DUP1 ISZERO PUSH2 0x451 JUMPI PUSH1 0x0 DUP1 REVERT JUMPDEST POP PUSH2 0x443 PUSH2 0x460 CALLDATASIZE PUSH1 0x4 PUSH2 0x3021 JUMP JUMPDEST PUSH2 0xC5F JUMP JUMPDEST CALLVALUE DUP1 ISZERO PUSH2 0x471 JUMPI PUSH1 0x0 DUP1 REVERT JUMPDEST POP PUSH1 0x8 SLOAD PUSH2 0x415 JUMP JUMPDEST CALLVALUE DUP1 ISZERO PUSH2 0x486 JUMPI PUSH1 0x0 DUP1 REVERT JUMPDEST POP PUSH2 0x443 PUSH2 0x495 CALLDATASIZE PUSH1 0x4 PUSH2 0x306A JUMP JUMPDEST PUSH2 0xD60 JUMP JUMPDEST CALLVALUE DUP1 ISZERO PUSH2 0x4A6 JUMPI PUSH1 0x0 DUP1 REVERT JUMPDEST POP PUSH2 0x415 PUSH1 0xD SLOAD DUP2 JUMP JUMPDEST CALLVALUE DUP1 ISZERO PUSH2 0x4BC JUMPI PUSH1 0x0 DUP1 REVERT JUMPDEST POP PUSH2 0x415 PUSH2 0x4CB CALLDATASIZE PUSH1 0x4 PUSH2 0x2F6B JUMP JUMPDEST PUSH2 0xD91 JUMP JUMPDEST CALLVALUE DUP1 ISZERO PUSH2 0x4DC JUMPI PUSH1 0x0 DUP1 REVERT JUMPDEST POP PUSH2 0x415 PUSH1 0x12 SLOAD DUP2 JUMP JUMPDEST PUSH2 0x443 PUSH2 0x4F4 CALLDATASIZE PUSH1 0x4 PUSH2 0x30A6 JUMP JUMPDEST PUSH2 0xE27 JUMP JUMPDEST PUSH2 0x443 PUSH2 0x10BD JUMP JUMPDEST CALLVALUE DUP1 ISZERO PUSH2 0x50D JUMPI PUSH1 0x0 DUP1 REVERT JUMPDEST POP PUSH2 0x443 PUSH2 0x11D7 JUMP JUMPDEST CALLVALUE DUP1 ISZERO PUSH2 0x522 JUMPI PUSH1 0x0 DUP1 REVERT JUMPDEST POP PUSH2 0x443 PUSH2 0x531 CALLDATASIZE PUSH1 0x4 PUSH2 0x306A JUMP JUMPDEST PUSH2 0x1211 JUMP JUMPDEST CALLVALUE DUP1 ISZERO PUSH2 0x542 JUMPI PUSH1 0x0 DUP1 REVERT JUMPDEST POP PUSH2 0x556 PUSH2 0x551 CALLDATASIZE PUSH1 0x4 PUSH2 0x311B JUMP JUMPDEST PUSH2 0x122C JUMP JUMPDEST PUSH1 0x40 MLOAD PUSH2 0x39C SWAP2 SWAP1 PUSH2 0x3136 JUMP JUMPDEST CALLVALUE DUP1 ISZERO PUSH2 0x56F JUMPI PUSH1 0x0 DUP1 REVERT JUMPDEST POP PUSH2 0x415 PUSH2 0x57E CALLDATASIZE PUSH1 0x4 PUSH2 0x2F36 JUMP JUMPDEST PUSH2 0x12CE JUMP JUMPDEST CALLVALUE DUP1 ISZERO PUSH2 0x58F JUMPI PUSH1 0x0 DUP1 REVERT JUMPDEST POP PUSH2 0x443 PUSH2 0x59E CALLDATASIZE PUSH1 0x4 PUSH2 0x3021 JUMP JUMPDEST PUSH2 0x1361 JUMP JUMPDEST CALLVALUE DUP1 ISZERO PUSH2 0x5AF JUMPI PUSH1 0x0 DUP1 REVERT JUMPDEST POP PUSH2 0x443 PUSH2 0x5BE CALLDATASIZE PUSH1 0x4 PUSH2 0x311B JUMP JUMPDEST PUSH2 0x13F1 JUMP JUMPDEST CALLVALUE DUP1 ISZERO PUSH2 0x5CF JUMPI PUSH1 0x0 DUP1 REVERT JUMPDEST POP PUSH1 0xA SLOAD PUSH1 0xFF AND PUSH2 0x390 JUMP JUMPDEST CALLVALUE DUP1 ISZERO PUSH2 0x5E7 JUMPI PUSH1 0x0 DUP1 REVERT JUMPDEST POP PUSH2 0x3E7 PUSH2 0x5F6 CALLDATASIZE PUSH1 0x4 PUSH2 0x2F36 JUMP JUMPDEST PUSH2 0x1442 JUMP JUMPDEST CALLVALUE DUP1 ISZERO PUSH2 0x607 JUMPI PUSH1 0x0 DUP1 REVERT JUMPDEST POP PUSH2 0x3BA PUSH2 0x14B9 JUMP JUMPDEST CALLVALUE DUP1 ISZERO PUSH2 0x61C JUMPI PUSH1 0x0 DUP1 REVERT JUMPDEST POP PUSH2 0x3E7 PUSH2 0x1547 JUMP JUMPDEST CALLVALUE DUP1 ISZERO PUSH2 0x631 JUMPI PUSH1 0x0 DUP1 REVERT JUMPDEST POP PUSH2 0x415 PUSH2 0x640 CALLDATASIZE PUSH1 0x4 PUSH2 0x311B JUMP JUMPDEST PUSH2 0x155A JUMP JUMPDEST CALLVALUE DUP1 ISZERO PUSH2 0x651 JUMPI PUSH1 0x0 DUP1 REVERT JUMPDEST POP PUSH2 0x443 PUSH2 0x15E1 JUMP JUMPDEST CALLVALUE DUP1 ISZERO PUSH2 0x666 JUMPI PUSH1 0x0 DUP1 REVERT JUMPDEST POP PUSH2 0x415 PUSH1 0x16 SLOAD DUP2 JUMP JUMPDEST CALLVALUE DUP1 ISZERO PUSH2 0x67C JUMPI PUSH1 0x0 DUP1 REVERT JUMPDEST POP PUSH2 0x443 PUSH2 0x68B CALLDATASIZE PUSH1 0x4 PUSH2 0x318B JUMP JUMPDEST PUSH2 0x161B JUMP JUMPDEST CALLVALUE DUP1 ISZERO PUSH2 0x69C JUMPI PUSH1 0x0 DUP1 REVERT JUMPDEST POP PUSH2 0x443 PUSH2 0x6AB CALLDATASIZE PUSH1 0x4 PUSH2 0x2F36 JUMP JUMPDEST PUSH2 0x177B JUMP JUMPDEST CALLVALUE DUP1 ISZERO PUSH2 0x6BC JUMPI PUSH1 0x0 DUP1 REVERT JUMPDEST POP PUSH2 0x443 PUSH2 0x17B0 JUMP JUMPDEST CALLVALUE DUP1 ISZERO PUSH2 0x6D1 JUMPI PUSH1 0x0 DUP1 REVERT JUMPDEST POP PUSH2 0x443 PUSH2 0x18B5 JUMP JUMPDEST PUSH2 0x443 PUSH2 0x6E8 CALLDATASIZE PUSH1 0x4 PUSH2 0x318B JUMP JUMPDEST PUSH2 0x18ED JUMP JUMPDEST CALLVALUE DUP1 ISZERO PUSH2 0x6F9 JUMPI PUSH1 0x0 DUP1 REVERT JUMPDEST POP PUSH1 0xA SLOAD PUSH2 0x100 SWAP1 DIV PUSH1 0x1 PUSH1 0x1 PUSH1 0xA0 SHL SUB AND PUSH2 0x3E7 JUMP JUMPDEST CALLVALUE DUP1 ISZERO PUSH2 0x71C JUMPI PUSH1 0x0 DUP1 REVERT JUMPDEST POP PUSH2 0x3BA PUSH2 0x1B46 JUMP JUMPDEST CALLVALUE DUP1 ISZERO PUSH2 0x731 JUMPI PUSH1 0x0 DUP1 REVERT JUMPDEST POP PUSH1 0x11 SLOAD PUSH2 0x390 SWAP1 PUSH3 0x10000 SWAP1 DIV PUSH1 0xFF AND DUP2 JUMP JUMPDEST CALLVALUE DUP1 ISZERO PUSH2 0x751 JUMPI PUSH1 0x0 DUP1 REVERT JUMPDEST POP PUSH2 0x443 PUSH2 0x760 CALLDATASIZE PUSH1 0x4 PUSH2 0x31A6 JUMP JUMPDEST PUSH2 0x1B55 JUMP JUMPDEST CALLVALUE DUP1 ISZERO PUSH2 0x771 JUMPI PUSH1 0x0 DUP1 REVERT JUMPDEST POP PUSH2 0x443 PUSH2 0x780 CALLDATASIZE PUSH1 0x4 PUSH2 0x31E2 JUMP JUMPDEST PUSH2 0x1B60 JUMP JUMPDEST CALLVALUE DUP1 ISZERO PUSH2 0x791 JUMPI PUSH1 0x0 DUP1 REVERT JUMPDEST POP PUSH2 0x443 PUSH2 0x7A0 CALLDATASIZE PUSH1 0x4 PUSH2 0x3215 JUMP JUMPDEST PUSH2 0x1CA2 JUMP JUMPDEST CALLVALUE DUP1 ISZERO PUSH2 0x7B1 JUMPI PUSH1 0x0 DUP1 REVERT JUMPDEST POP PUSH2 0x443 PUSH2 0x7C0 CALLDATASIZE PUSH1 0x4 PUSH2 0x311B JUMP JUMPDEST PUSH2 0x1CDA JUMP JUMPDEST CALLVALUE DUP1 ISZERO PUSH2 0x7D1 JUMPI PUSH1 0x0 DUP1 REVERT JUMPDEST POP PUSH1 0x18 SLOAD PUSH2 0x7DF SWAP1 PUSH1 0xFF AND DUP2 JUMP JUMPDEST PUSH1 0x40 MLOAD PUSH2 0x39C SWAP2 SWAP1 PUSH2 0x32A7 JUMP JUMPDEST CALLVALUE DUP1 ISZERO PUSH2 0x7F8 JUMPI PUSH1 0x0 DUP1 REVERT JUMPDEST POP PUSH1 0x11 SLOAD PUSH2 0x390 SWAP1 PUSH2 0x100 SWAP1 DIV PUSH1 0xFF AND DUP2 JUMP JUMPDEST CALLVALUE DUP1 ISZERO PUSH2 0x817 JUMPI PUSH1 0x0 DUP1 REVERT JUMPDEST POP PUSH2 0x415 PUSH1 0x14 SLOAD DUP2 JUMP JUMPDEST CALLVALUE DUP1 ISZERO PUSH2 0x82D JUMPI PUSH1 0x0 DUP1 REVERT JUMPDEST POP PUSH2 0x3BA PUSH2 0x1D2E JUMP JUMPDEST CALLVALUE DUP1 ISZERO PUSH2 0x842 JUMPI PUSH1 0x0 DUP1 REVERT JUMPDEST POP PUSH2 0x3BA PUSH2 0x1D3B JUMP JUMPDEST CALLVALUE DUP1 ISZERO PUSH2 0x857 JUMPI PUSH1 0x0 DUP1 REVERT JUMPDEST POP PUSH2 0x3BA PUSH2 0x866 CALLDATASIZE PUSH1 0x4 PUSH2 0x2F36 JUMP JUMPDEST PUSH2 0x1D48 JUMP JUMPDEST CALLVALUE DUP1 ISZERO PUSH2 0x877 JUMPI PUSH1 0x0 DUP1 REVERT JUMPDEST POP PUSH2 0x390 PUSH2 0x886 CALLDATASIZE PUSH1 0x4 PUSH2 0x311B JUMP JUMPDEST PUSH1 0x13 PUSH1 0x20 MSTORE PUSH1 0x0 SWAP1 DUP2 MSTORE PUSH1 0x40 SWAP1 KECCAK256 SLOAD PUSH1 0xFF AND DUP2 JUMP JUMPDEST CALLVALUE DUP1 ISZERO PUSH2 0x8A7 JUMPI PUSH1 0x0 DUP1 REVERT JUMPDEST POP PUSH2 0x443 PUSH2 0x8B6 CALLDATASIZE PUSH1 0x4 PUSH2 0x32CF JUMP JUMPDEST PUSH2 0x1DFD JUMP JUMPDEST CALLVALUE DUP1 ISZERO PUSH2 0x8C7 JUMPI PUSH1 0x0 DUP1 REVERT JUMPDEST POP PUSH2 0x415 PUSH2 0x1F41 JUMP JUMPDEST CALLVALUE DUP1 ISZERO PUSH2 0x8DC JUMPI PUSH1 0x0 DUP1 REVERT JUMPDEST POP PUSH2 0x443 PUSH2 0x8EB CALLDATASIZE PUSH1 0x4 PUSH2 0x3021 JUMP JUMPDEST PUSH2 0x1F4C JUMP JUMPDEST CALLVALUE DUP1 ISZERO PUSH2 0x8FC JUMPI PUSH1 0x0 DUP1 REVERT JUMPDEST POP PUSH2 0x415 PUSH2 0x1F8F JUMP JUMPDEST CALLVALUE DUP1 ISZERO PUSH2 0x911 JUMPI PUSH1 0x0 DUP1 REVERT JUMPDEST POP PUSH1 0x11 SLOAD PUSH2 0x91F SWAP1 PUSH1 0xFF AND DUP2 JUMP JUMPDEST PUSH1 0x40 MLOAD PUSH1 0xFF SWAP1 SWAP2 AND DUP2 MSTORE PUSH1 0x20 ADD PUSH2 0x39C JUMP JUMPDEST CALLVALUE DUP1 ISZERO PUSH2 0x93D JUMPI PUSH1 0x0 DUP1 REVERT JUMPDEST POP PUSH2 0x443 PUSH2 0x1FA7 JUMP JUMPDEST CALLVALUE DUP1 ISZERO PUSH2 0x952 JUMPI PUSH1 0x0 DUP1 REVERT JUMPDEST POP PUSH2 0x390 PUSH2 0x961 CALLDATASIZE PUSH1 0x4 PUSH2 0x32F0 JUMP JUMPDEST PUSH1 0x1 PUSH1 0x1 PUSH1 0xA0 SHL SUB SWAP2 DUP3 AND PUSH1 0x0 SWAP1 DUP2 MSTORE PUSH1 0x5 PUSH1 0x20 SWAP1 DUP2 MSTORE PUSH1 0x40 DUP1 DUP4 KECCAK256 SWAP4 SWAP1 SWAP5 AND DUP3 MSTORE SWAP2 SWAP1 SWAP2 MSTORE KECCAK256 SLOAD PUSH1 0xFF AND SWAP1 JUMP JUMPDEST CALLVALUE DUP1 ISZERO PUSH2 0x99B JUMPI PUSH1 0x0 DUP1 REVERT JUMPDEST POP PUSH2 0x443 PUSH2 0x9AA CALLDATASIZE PUSH1 0x4 PUSH2 0x311B JUMP JUMPDEST PUSH2 0x209E JUMP JUMPDEST CALLVALUE DUP1 ISZERO PUSH2 0x9BB JUMPI PUSH1 0x0 DUP1 REVERT JUMPDEST POP PUSH2 0x443 PUSH2 0x9CA CALLDATASIZE PUSH1 0x4 PUSH2 0x311B JUMP JUMPDEST PUSH2 0x213C JUMP JUMPDEST CALLVALUE DUP1 ISZERO PUSH2 0x9DB JUMPI PUSH1 0x0 DUP1 REVERT JUMPDEST POP PUSH2 0x415 PUSH1 0x17 SLOAD DUP2 JUMP JUMPDEST CALLVALUE DUP1 ISZERO PUSH2 0x9F1 JUMPI PUSH1 0x0 DUP1 REVERT JUMPDEST POP PUSH1 0x11 SLOAD PUSH2 0x3E7 SWAP1 PUSH4 0x1000000 SWAP1 DIV PUSH1 0x1 PUSH1 0x1 PUSH1 0xA0 SHL SUB AND DUP2 JUMP JUMPDEST PUSH1 0x0 PUSH2 0xA17 DUP3 PUSH2 0x21A1 JUMP JUMPDEST SWAP3 SWAP2 POP POP JUMP JUMPDEST PUSH1 0x60 PUSH1 0x0 DUP1 SLOAD PUSH2 0xA2C SWAP1 PUSH2 0x330C JUMP JUMPDEST DUP1 PUSH1 0x1F ADD PUSH1 0x20 DUP1 SWAP2 DIV MUL PUSH1 0x20 ADD PUSH1 0x40 MLOAD SWAP1 DUP2 ADD PUSH1 0x40 MSTORE DUP1 SWAP3 SWAP2 SWAP1 DUP2 DUP2 MSTORE PUSH1 0x20 ADD DUP3 DUP1 SLOAD PUSH2 0xA58 SWAP1 PUSH2 0x330C JUMP JUMPDEST DUP1 ISZERO PUSH2 0xAA5 JUMPI DUP1 PUSH1 0x1F LT PUSH2 0xA7A JUMPI PUSH2 0x100 DUP1 DUP4 SLOAD DIV MUL DUP4 MSTORE SWAP2 PUSH1 0x20 ADD SWAP2 PUSH2 0xAA5 JUMP JUMPDEST DUP3 ADD SWAP2 SWAP1 PUSH1 0x0 MSTORE PUSH1 0x20 PUSH1 0x0 KECCAK256 SWAP1 JUMPDEST DUP2 SLOAD DUP2 MSTORE SWAP1 PUSH1 0x1 ADD SWAP1 PUSH1 0x20 ADD DUP1 DUP4 GT PUSH2 0xA88 JUMPI DUP3 SWAP1 SUB PUSH1 0x1F AND DUP3 ADD SWAP2 JUMPDEST POP POP POP POP POP SWAP1 POP SWAP1 JUMP JUMPDEST PUSH1 0x0 DUP2 DUP2 MSTORE PUSH1 0x2 PUSH1 0x20 MSTORE PUSH1 0x40 DUP2 KECCAK256 SLOAD PUSH1 0x1 PUSH1 0x1 PUSH1 0xA0 SHL SUB AND PUSH2 0xB2D JUMPI PUSH1 0x40 MLOAD PUSH3 0x461BCD PUSH1 0xE5 SHL DUP2 MSTORE PUSH1 0x20 PUSH1 0x4 DUP3 ADD MSTORE PUSH1 0x2C PUSH1 0x24 DUP3 ADD MSTORE PUSH32 0x4552433732313A20617070726F76656420717565727920666F72206E6F6E6578 PUSH1 0x44 DUP3 ADD MSTORE PUSH12 0x34B9BA32B73A103A37B5B2B7 PUSH1 0xA1 SHL PUSH1 0x64 DUP3 ADD MSTORE PUSH1 0x84 ADD JUMPDEST PUSH1 0x40 MLOAD DUP1 SWAP2 SUB SWAP1 REVERT JUMPDEST POP PUSH1 0x0 SWAP1 DUP2 MSTORE PUSH1 0x4 PUSH1 0x20 MSTORE PUSH1 0x40 SWAP1 KECCAK256 SLOAD PUSH1 0x1 PUSH1 0x1 PUSH1 0xA0 SHL SUB AND SWAP1 JUMP JUMPDEST PUSH1 0x0 PUSH2 0xB54 DUP3 PUSH2 0x1442 JUMP JUMPDEST SWAP1 POP DUP1 PUSH1 0x1 PUSH1 0x1 PUSH1 0xA0 SHL SUB AND DUP4 PUSH1 0x1 PUSH1 0x1 PUSH1 0xA0 SHL SUB AND EQ ISZERO PUSH2 0xBC2 JUMPI PUSH1 0x40 MLOAD PUSH3 0x461BCD PUSH1 0xE5 SHL DUP2 MSTORE PUSH1 0x20 PUSH1 0x4 DUP3 ADD MSTORE PUSH1 0x21 PUSH1 0x24 DUP3 ADD MSTORE PUSH32 0x4552433732313A20617070726F76616C20746F2063757272656E74206F776E65 PUSH1 0x44 DUP3 ADD MSTORE PUSH1 0x39 PUSH1 0xF9 SHL PUSH1 0x64 DUP3 ADD MSTORE PUSH1 0x84 ADD PUSH2 0xB24 JUMP JUMPDEST CALLER PUSH1 0x1 PUSH1 0x1 PUSH1 0xA0 SHL SUB DUP3 AND EQ DUP1 PUSH2 0xBDE JUMPI POP PUSH2 0xBDE DUP2 CALLER PUSH2 0x961 JUMP JUMPDEST PUSH2 0xC50 JUMPI PUSH1 0x40 MLOAD PUSH3 0x461BCD PUSH1 0xE5 SHL DUP2 MSTORE PUSH1 0x20 PUSH1 0x4 DUP3 ADD MSTORE PUSH1 0x38 PUSH1 0x24 DUP3 ADD MSTORE PUSH32 0x4552433732313A20617070726F76652063616C6C6572206973206E6F74206F77 PUSH1 0x44 DUP3 ADD MSTORE PUSH32 0x6E6572206E6F7220617070726F76656420666F7220616C6C0000000000000000 PUSH1 0x64 DUP3 ADD MSTORE PUSH1 0x84 ADD PUSH2 0xB24 JUMP JUMPDEST PUSH2 0xC5A DUP4 DUP4 PUSH2 0x21C6 JUMP JUMPDEST POP POP POP JUMP JUMPDEST PUSH1 0xA SLOAD PUSH1 0x1 PUSH1 0x1 PUSH1 0xA0 SHL SUB PUSH2 0x100 SWAP1 SWAP2 DIV AND CALLER EQ PUSH2 0xC8F JUMPI PUSH1 0x40 MLOAD PUSH3 0x461BCD PUSH1 0xE5 SHL DUP2 MSTORE PUSH1 0x4 ADD PUSH2 0xB24 SWAP1 PUSH2 0x3347 JUMP JUMPDEST PUSH1 0x0 DUP2 MLOAD GT PUSH2 0xCF0 JUMPI PUSH1 0x40 MLOAD PUSH3 0x461BCD PUSH1 0xE5 SHL DUP2 MSTORE PUSH1 0x20 PUSH1 0x4 DUP3 ADD MSTORE PUSH1 0x27 PUSH1 0x24 DUP3 ADD MSTORE PUSH32 0x50726F76656E616E636520686173682063616E6E6F7420626520656D70747920 PUSH1 0x44 DUP3 ADD MSTORE PUSH7 0x39BA3934B73397 PUSH1 0xC9 SHL PUSH1 0x64 DUP3 ADD MSTORE PUSH1 0x84 ADD PUSH2 0xB24 JUMP JUMPDEST PUSH1 0x11 SLOAD PUSH3 0x10000 SWAP1 DIV PUSH1 0xFF AND ISZERO PUSH2 0xD49 JUMPI PUSH1 0x40 MLOAD PUSH3 0x461BCD PUSH1 0xE5 SHL DUP2 MSTORE PUSH1 0x20 PUSH1 0x4 DUP3 ADD MSTORE PUSH1 0x1A PUSH1 0x24 DUP3 ADD MSTORE PUSH32 0x50726F76656E616E636520686173682069732066726F7A656E2E000000000000 PUSH1 0x44 DUP3 ADD MSTORE PUSH1 0x64 ADD PUSH2 0xB24 JUMP JUMPDEST DUP1 MLOAD PUSH2 0xD5C SWAP1 PUSH1 0xE SWAP1 PUSH1 0x20 DUP5 ADD SWAP1 PUSH2 0x2DF8 JUMP JUMPDEST POP POP JUMP JUMPDEST PUSH2 0xD6A CALLER DUP3 PUSH2 0x2234 JUMP JUMPDEST PUSH2 0xD86 JUMPI PUSH1 0x40 MLOAD PUSH3 0x461BCD PUSH1 0xE5 SHL DUP2 MSTORE PUSH1 0x4 ADD PUSH2 0xB24 SWAP1 PUSH2 0x337C JUMP JUMPDEST PUSH2 0xC5A DUP4 DUP4 DUP4 PUSH2 0x232B JUMP JUMPDEST PUSH1 0x0 PUSH2 0xD9C DUP4 PUSH2 0x155A JUMP JUMPDEST DUP3 LT PUSH2 0xDFE JUMPI PUSH1 0x40 MLOAD PUSH3 0x461BCD PUSH1 0xE5 SHL DUP2 MSTORE PUSH1 0x20 PUSH1 0x4 DUP3 ADD MSTORE PUSH1 0x2B PUSH1 0x24 DUP3 ADD MSTORE PUSH32 0x455243373231456E756D657261626C653A206F776E657220696E646578206F75 PUSH1 0x44 DUP3 ADD MSTORE PUSH11 0x74206F6620626F756E6473 PUSH1 0xA8 SHL PUSH1 0x64 DUP3 ADD MSTORE PUSH1 0x84 ADD PUSH2 0xB24 JUMP JUMPDEST POP PUSH1 0x1 PUSH1 0x1 PUSH1 0xA0 SHL SUB SWAP2 SWAP1 SWAP2 AND PUSH1 0x0 SWAP1 DUP2 MSTORE PUSH1 0x6 PUSH1 0x20 SWAP1 DUP2 MSTORE PUSH1 0x40 DUP1 DUP4 KECCAK256 SWAP4 DUP4 MSTORE SWAP3 SWAP1 MSTORE KECCAK256 SLOAD SWAP1 JUMP JUMPDEST PUSH1 0x2 PUSH1 0xB SLOAD EQ ISZERO PUSH2 0xE7A JUMPI PUSH1 0x40 MLOAD PUSH3 0x461BCD PUSH1 0xE5 SHL DUP2 MSTORE PUSH1 0x20 PUSH1 0x4 DUP3 ADD MSTORE PUSH1 0x1F PUSH1 0x24 DUP3 ADD MSTORE PUSH32 0x5265656E7472616E637947756172643A207265656E7472616E742063616C6C00 PUSH1 0x44 DUP3 ADD MSTORE PUSH1 0x64 ADD PUSH2 0xB24 JUMP JUMPDEST PUSH1 0x2 PUSH1 0xB SSTORE PUSH1 0xA SLOAD PUSH1 0xFF AND ISZERO PUSH2 0xEA2 JUMPI PUSH1 0x40 MLOAD PUSH3 0x461BCD PUSH1 0xE5 SHL DUP2 MSTORE PUSH1 0x4 ADD PUSH2 0xB24 SWAP1 PUSH2 0x33CD JUMP JUMPDEST CALLVALUE PUSH1 0x17 SLOAD EQ PUSH2 0xEEF JUMPI PUSH1 0x40 MLOAD PUSH3 0x461BCD PUSH1 0xE5 SHL DUP2 MSTORE PUSH1 0x20 PUSH1 0x4 DUP3 ADD MSTORE PUSH1 0x19 PUSH1 0x24 DUP3 ADD MSTORE PUSH25 0x24B731B7B93932B1BA1022AA24103B30B63AB29039B2B73A17 PUSH1 0x39 SHL PUSH1 0x44 DUP3 ADD MSTORE PUSH1 0x64 ADD PUSH2 0xB24 JUMP JUMPDEST PUSH1 0x2 PUSH1 0x18 SLOAD PUSH1 0xFF AND PUSH1 0x4 DUP2 GT ISZERO PUSH2 0xF08 JUMPI PUSH2 0xF08 PUSH2 0x3291 JUMP JUMPDEST EQ PUSH2 0xF55 JUMPI PUSH1 0x40 MLOAD PUSH3 0x461BCD PUSH1 0xE5 SHL DUP2 MSTORE PUSH1 0x20 PUSH1 0x4 DUP3 ADD MSTORE PUSH1 0x1D PUSH1 0x24 DUP3 ADD MSTORE PUSH32 0x57686974656C6973742073616C65206E6F7420696E697469617465642E000000 PUSH1 0x44 DUP3 ADD MSTORE PUSH1 0x64 ADD PUSH2 0xB24 JUMP JUMPDEST PUSH1 0xD SLOAD PUSH1 0x40 MLOAD PUSH12 0xFFFFFFFFFFFFFFFFFFFFFFFF NOT CALLER PUSH1 0x60 SHL AND PUSH1 0x20 DUP3 ADD MSTORE PUSH2 0xFCE SWAP2 SWAP1 PUSH1 0x34 ADD PUSH1 0x40 MLOAD PUSH1 0x20 DUP2 DUP4 SUB SUB DUP2 MSTORE SWAP1 PUSH1 0x40 MSTORE DUP1 MLOAD SWAP1 PUSH1 0x20 ADD KECCAK256 DUP5 DUP5 DUP1 DUP1 PUSH1 0x20 MUL PUSH1 0x20 ADD PUSH1 0x40 MLOAD SWAP1 DUP2 ADD PUSH1 0x40 MSTORE DUP1 SWAP4 SWAP3 SWAP2 SWAP1 DUP2 DUP2 MSTORE PUSH1 0x20 ADD DUP4 DUP4 PUSH1 0x20 MUL DUP1 DUP3 DUP5 CALLDATACOPY PUSH1 0x0 SWAP3 ADD SWAP2 SWAP1 SWAP2 MSTORE POP SWAP3 SWAP5 SWAP4 SWAP3 POP POP PUSH2 0x24D2 SWAP1 POP JUMP JUMPDEST PUSH2 0x101A JUMPI PUSH1 0x40 MLOAD PUSH3 0x461BCD PUSH1 0xE5 SHL DUP2 MSTORE PUSH1 0x20 PUSH1 0x4 DUP3 ADD MSTORE PUSH1 0x19 PUSH1 0x24 DUP3 ADD MSTORE PUSH32 0x41646472657373206E6F7420696E2077686974656C6973742E00000000000000 PUSH1 0x44 DUP3 ADD MSTORE PUSH1 0x64 ADD PUSH2 0xB24 JUMP JUMPDEST CALLER PUSH1 0x0 SWAP1 DUP2 MSTORE PUSH1 0x13 PUSH1 0x20 MSTORE PUSH1 0x40 SWAP1 KECCAK256 SLOAD PUSH1 0xFF AND ISZERO PUSH2 0x107A JUMPI PUSH1 0x40 MLOAD PUSH3 0x461BCD PUSH1 0xE5 SHL DUP2 MSTORE PUSH1 0x20 PUSH1 0x4 DUP3 ADD MSTORE PUSH1 0x1F PUSH1 0x24 DUP3 ADD MSTORE PUSH32 0x57686974656C697374206D696E7420616C726561647920636C61696D65642E00 PUSH1 0x44 DUP3 ADD MSTORE PUSH1 0x64 ADD PUSH2 0xB24 JUMP JUMPDEST CALLER PUSH1 0x0 DUP2 DUP2 MSTORE PUSH1 0x13 PUSH1 0x20 MSTORE PUSH1 0x40 SWAP1 KECCAK256 DUP1 SLOAD PUSH1 0xFF NOT AND PUSH1 0x1 OR SWAP1 SSTORE PUSH2 0x10A6 SWAP1 PUSH2 0x10A1 PUSH1 0xC SLOAD SWAP1 JUMP JUMPDEST PUSH2 0x24E8 JUMP JUMPDEST PUSH2 0x10B4 PUSH1 0xC DUP1 SLOAD PUSH1 0x1 ADD SWAP1 SSTORE JUMP JUMPDEST POP POP PUSH1 0x1 PUSH1 0xB SSTORE JUMP JUMPDEST PUSH1 0xA SLOAD PUSH1 0x1 PUSH1 0x1 PUSH1 0xA0 SHL SUB PUSH2 0x100 SWAP1 SWAP2 DIV AND CALLER EQ PUSH2 0x10ED JUMPI PUSH1 0x40 MLOAD PUSH3 0x461BCD PUSH1 0xE5 SHL DUP2 MSTORE PUSH1 0x4 ADD PUSH2 0xB24 SWAP1 PUSH2 0x3347 JUMP JUMPDEST PUSH1 0x0 SELFBALANCE GT PUSH2 0x1136 JUMPI PUSH1 0x40 MLOAD PUSH3 0x461BCD PUSH1 0xE5 SHL DUP2 MSTORE PUSH1 0x20 PUSH1 0x4 DUP3 ADD MSTORE PUSH1 0x16 PUSH1 0x24 DUP3 ADD MSTORE PUSH22 0x21B7B73A3930B1BA103130B630B731B29034B9901817 PUSH1 0x51 SHL PUSH1 0x44 DUP3 ADD MSTORE PUSH1 0x64 ADD PUSH2 0xB24 JUMP JUMPDEST PUSH1 0x11 SLOAD PUSH1 0x40 MLOAD PUSH1 0x0 SWAP2 PUSH4 0x1000000 SWAP1 DIV PUSH1 0x1 PUSH1 0x1 PUSH1 0xA0 SHL SUB AND SWAP1 SELFBALANCE SWAP1 DUP4 DUP2 DUP2 DUP2 DUP6 DUP8 GAS CALL SWAP3 POP POP POP RETURNDATASIZE DUP1 PUSH1 0x0 DUP2 EQ PUSH2 0x118A JUMPI PUSH1 0x40 MLOAD SWAP2 POP PUSH1 0x1F NOT PUSH1 0x3F RETURNDATASIZE ADD AND DUP3 ADD PUSH1 0x40 MSTORE RETURNDATASIZE DUP3 MSTORE RETURNDATASIZE PUSH1 0x0 PUSH1 0x20 DUP5 ADD RETURNDATACOPY PUSH2 0x118F JUMP JUMPDEST PUSH1 0x60 SWAP2 POP JUMPDEST POP POP SWAP1 POP DUP1 PUSH2 0x11D4 JUMPI PUSH1 0x40 MLOAD PUSH3 0x461BCD PUSH1 0xE5 SHL DUP2 MSTORE PUSH1 0x20 PUSH1 0x4 DUP3 ADD MSTORE PUSH1 0x11 PUSH1 0x24 DUP3 ADD MSTORE PUSH17 0x2BB4BA34323930BBB6103330B4B632B217 PUSH1 0x79 SHL PUSH1 0x44 DUP3 ADD MSTORE PUSH1 0x64 ADD PUSH2 0xB24 JUMP JUMPDEST POP JUMP JUMPDEST PUSH1 0xA SLOAD PUSH1 0x1 PUSH1 0x1 PUSH1 0xA0 SHL SUB PUSH2 0x100 SWAP1 SWAP2 DIV AND CALLER EQ PUSH2 0x1207 JUMPI PUSH1 0x40 MLOAD PUSH3 0x461BCD PUSH1 0xE5 SHL DUP2 MSTORE PUSH1 0x4 ADD PUSH2 0xB24 SWAP1 PUSH2 0x3347 JUMP JUMPDEST PUSH2 0x120F PUSH2 0x2502 JUMP JUMPDEST JUMP JUMPDEST PUSH2 0xC5A DUP4 DUP4 DUP4 PUSH1 0x40 MLOAD DUP1 PUSH1 0x20 ADD PUSH1 0x40 MSTORE DUP1 PUSH1 0x0 DUP2 MSTORE POP PUSH2 0x1CA2 JUMP JUMPDEST PUSH1 0x60 PUSH1 0x0 PUSH2 0x1239 DUP4 PUSH2 0x155A JUMP JUMPDEST SWAP1 POP PUSH1 0x0 DUP2 PUSH8 0xFFFFFFFFFFFFFFFF DUP2 GT ISZERO PUSH2 0x1256 JUMPI PUSH2 0x1256 PUSH2 0x2F95 JUMP JUMPDEST PUSH1 0x40 MLOAD SWAP1 DUP1 DUP3 MSTORE DUP1 PUSH1 0x20 MUL PUSH1 0x20 ADD DUP3 ADD PUSH1 0x40 MSTORE DUP1 ISZERO PUSH2 0x127F JUMPI DUP2 PUSH1 0x20 ADD PUSH1 0x20 DUP3 MUL DUP1 CALLDATASIZE DUP4 CALLDATACOPY ADD SWAP1 POP JUMPDEST POP SWAP1 POP PUSH1 0x0 JUMPDEST DUP3 DUP2 LT ISZERO PUSH2 0x12C6 JUMPI PUSH2 0x1297 DUP6 DUP3 PUSH2 0xD91 JUMP JUMPDEST DUP3 DUP3 DUP2 MLOAD DUP2 LT PUSH2 0x12A9 JUMPI PUSH2 0x12A9 PUSH2 0x33F7 JUMP JUMPDEST PUSH1 0x20 SWAP1 DUP2 MUL SWAP2 SWAP1 SWAP2 ADD ADD MSTORE DUP1 PUSH2 0x12BE DUP2 PUSH2 0x3423 JUMP JUMPDEST SWAP2 POP POP PUSH2 0x1285 JUMP JUMPDEST POP SWAP4 SWAP3 POP POP POP JUMP JUMPDEST PUSH1 0x0 PUSH2 0x12D9 PUSH1 0x8 SLOAD SWAP1 JUMP JUMPDEST DUP3 LT PUSH2 0x133C JUMPI PUSH1 0x40 MLOAD PUSH3 0x461BCD PUSH1 0xE5 SHL DUP2 MSTORE PUSH1 0x20 PUSH1 0x4 DUP3 ADD MSTORE PUSH1 0x2C PUSH1 0x24 DUP3 ADD MSTORE PUSH32 0x455243373231456E756D657261626C653A20676C6F62616C20696E646578206F PUSH1 0x44 DUP3 ADD MSTORE PUSH12 0x7574206F6620626F756E6473 PUSH1 0xA0 SHL PUSH1 0x64 DUP3 ADD MSTORE PUSH1 0x84 ADD PUSH2 0xB24 JUMP JUMPDEST PUSH1 0x8 DUP3 DUP2 SLOAD DUP2 LT PUSH2 0x134F JUMPI PUSH2 0x134F PUSH2 0x33F7 JUMP JUMPDEST SWAP1 PUSH1 0x0 MSTORE PUSH1 0x20 PUSH1 0x0 KECCAK256 ADD SLOAD SWAP1 POP SWAP2 SWAP1 POP JUMP JUMPDEST PUSH1 0xA SLOAD PUSH1 0x1 PUSH1 0x1 PUSH1 0xA0 SHL SUB PUSH2 0x100 SWAP1 SWAP2 DIV AND CALLER EQ PUSH2 0x1391 JUMPI PUSH1 0x40 MLOAD PUSH3 0x461BCD PUSH1 0xE5 SHL DUP2 MSTORE PUSH1 0x4 ADD PUSH2 0xB24 SWAP1 PUSH2 0x3347 JUMP JUMPDEST PUSH1 0x11 SLOAD PUSH2 0x100 SWAP1 DIV PUSH1 0xFF AND ISZERO PUSH2 0x13DE JUMPI PUSH1 0x40 MLOAD PUSH3 0x461BCD PUSH1 0xE5 SHL DUP2 MSTORE PUSH1 0x20 PUSH1 0x4 DUP3 ADD MSTORE PUSH1 0x12 PUSH1 0x24 DUP3 ADD MSTORE PUSH18 0x2130B9B2AAA9249034B990333937BD32B717 PUSH1 0x71 SHL PUSH1 0x44 DUP3 ADD MSTORE PUSH1 0x64 ADD PUSH2 0xB24 JUMP JUMPDEST DUP1 MLOAD PUSH2 0xD5C SWAP1 PUSH1 0xF SWAP1 PUSH1 0x20 DUP5 ADD SWAP1 PUSH2 0x2DF8 JUMP JUMPDEST PUSH1 0xA SLOAD PUSH1 0x1 PUSH1 0x1 PUSH1 0xA0 SHL SUB PUSH2 0x100 SWAP1 SWAP2 DIV AND CALLER EQ PUSH2 0x1421 JUMPI PUSH1 0x40 MLOAD PUSH3 0x461BCD PUSH1 0xE5 SHL DUP2 MSTORE PUSH1 0x4 ADD PUSH2 0xB24 SWAP1 PUSH2 0x3347 JUMP JUMPDEST PUSH1 0x1 PUSH1 0x1 PUSH1 0xA0 SHL SUB AND PUSH1 0x0 SWAP1 DUP2 MSTORE PUSH1 0x13 PUSH1 0x20 MSTORE PUSH1 0x40 SWAP1 KECCAK256 DUP1 SLOAD PUSH1 0xFF NOT AND SWAP1 SSTORE JUMP JUMPDEST PUSH1 0x0 DUP2 DUP2 MSTORE PUSH1 0x2 PUSH1 0x20 MSTORE PUSH1 0x40 DUP2 KECCAK256 SLOAD PUSH1 0x1 PUSH1 0x1 PUSH1 0xA0 SHL SUB AND DUP1 PUSH2 0xA17 JUMPI PUSH1 0x40 MLOAD PUSH3 0x461BCD PUSH1 0xE5 SHL DUP2 MSTORE PUSH1 0x20 PUSH1 0x4 DUP3 ADD MSTORE PUSH1 0x29 PUSH1 0x24 DUP3 ADD MSTORE PUSH32 0x4552433732313A206F776E657220717565727920666F72206E6F6E6578697374 PUSH1 0x44 DUP3 ADD MSTORE PUSH9 0x32B73A103A37B5B2B7 PUSH1 0xB9 SHL PUSH1 0x64 DUP3 ADD MSTORE PUSH1 0x84 ADD PUSH2 0xB24 JUMP JUMPDEST PUSH1 0xF DUP1 SLOAD PUSH2 0x14C6 SWAP1 PUSH2 0x330C JUMP JUMPDEST DUP1 PUSH1 0x1F ADD PUSH1 0x20 DUP1 SWAP2 DIV MUL PUSH1 0x20 ADD PUSH1 0x40 MLOAD SWAP1 DUP2 ADD PUSH1 0x40 MSTORE DUP1 SWAP3 SWAP2 SWAP1 DUP2 DUP2 MSTORE PUSH1 0x20 ADD DUP3 DUP1 SLOAD PUSH2 0x14F2 SWAP1 PUSH2 0x330C JUMP JUMPDEST DUP1 ISZERO PUSH2 0x153F JUMPI DUP1 PUSH1 0x1F LT PUSH2 0x1514 JUMPI PUSH2 0x100 DUP1 DUP4 SLOAD DIV MUL DUP4 MSTORE SWAP2 PUSH1 0x20 ADD SWAP2 PUSH2 0x153F JUMP JUMPDEST DUP3 ADD SWAP2 SWAP1 PUSH1 0x0 MSTORE PUSH1 0x20 PUSH1 0x0 KECCAK256 SWAP1 JUMPDEST DUP2 SLOAD DUP2 MSTORE SWAP1 PUSH1 0x1 ADD SWAP1 PUSH1 0x20 ADD DUP1 DUP4 GT PUSH2 0x1522 JUMPI DUP3 SWAP1 SUB PUSH1 0x1F AND DUP3 ADD SWAP2 JUMPDEST POP POP POP POP POP DUP2 JUMP JUMPDEST PUSH1 0x0 PUSH2 0x1555 PUSH2 0x5F6 PUSH1 0x8 SLOAD SWAP1 JUMP JUMPDEST SWAP1 POP SWAP1 JUMP JUMPDEST PUSH1 0x0 PUSH1 0x1 PUSH1 0x1 PUSH1 0xA0 SHL SUB DUP3 AND PUSH2 0x15C5 JUMPI PUSH1 0x40 MLOAD PUSH3 0x461BCD PUSH1 0xE5 SHL DUP2 MSTORE PUSH1 0x20 PUSH1 0x4 DUP3 ADD MSTORE PUSH1 0x2A PUSH1 0x24 DUP3 ADD MSTORE PUSH32 0x4552433732313A2062616C616E636520717565727920666F7220746865207A65 PUSH1 0x44 DUP3 ADD MSTORE PUSH10 0x726F2061646472657373 PUSH1 0xB0 SHL PUSH1 0x64 DUP3 ADD MSTORE PUSH1 0x84 ADD PUSH2 0xB24 JUMP JUMPDEST POP PUSH1 0x1 PUSH1 0x1 PUSH1 0xA0 SHL SUB AND PUSH1 0x0 SWAP1 DUP2 MSTORE PUSH1 0x3 PUSH1 0x20 MSTORE PUSH1 0x40 SWAP1 KECCAK256 SLOAD SWAP1 JUMP JUMPDEST PUSH1 0xA SLOAD PUSH1 0x1 PUSH1 0x1 PUSH1 0xA0 SHL SUB PUSH2 0x100 SWAP1 SWAP2 DIV AND CALLER EQ PUSH2 0x1611 JUMPI PUSH1 0x40 MLOAD PUSH3 0x461BCD PUSH1 0xE5 SHL DUP2 MSTORE PUSH1 0x4 ADD PUSH2 0xB24 SWAP1 PUSH2 0x3347 JUMP JUMPDEST PUSH2 0x120F PUSH1 0x0 PUSH2 0x2595 JUMP JUMPDEST PUSH1 0xA SLOAD PUSH1 0x1 PUSH1 0x1 PUSH1 0xA0 SHL SUB PUSH2 0x100 SWAP1 SWAP2 DIV AND CALLER EQ PUSH2 0x164B JUMPI PUSH1 0x40 MLOAD PUSH3 0x461BCD PUSH1 0xE5 SHL DUP2 MSTORE PUSH1 0x4 ADD PUSH2 0xB24 SWAP1 PUSH2 0x3347 JUMP JUMPDEST PUSH1 0x3 PUSH1 0x18 SLOAD PUSH1 0xFF AND PUSH1 0x4 DUP2 GT ISZERO PUSH2 0x1664 JUMPI PUSH2 0x1664 PUSH2 0x3291 JUMP JUMPDEST EQ PUSH2 0x16B1 JUMPI PUSH1 0x40 MLOAD PUSH3 0x461BCD PUSH1 0xE5 SHL DUP2 MSTORE PUSH1 0x20 PUSH1 0x4 DUP3 ADD MSTORE PUSH1 0x18 PUSH1 0x24 DUP3 ADD MSTORE PUSH32 0x5465616D206D696E74206E6F7420696E697469617465642E0000000000000000 PUSH1 0x44 DUP3 ADD MSTORE PUSH1 0x64 ADD PUSH2 0xB24 JUMP JUMPDEST PUSH1 0x14 SLOAD PUSH1 0x15 SLOAD PUSH2 0x16C4 SWAP1 PUSH1 0xFF DUP5 AND PUSH2 0x343E JUMP JUMPDEST GT ISZERO PUSH2 0x1726 JUMPI PUSH1 0x40 MLOAD PUSH3 0x461BCD PUSH1 0xE5 SHL DUP2 MSTORE PUSH1 0x20 PUSH1 0x4 DUP3 ADD MSTORE PUSH1 0x2B PUSH1 0x24 DUP3 ADD MSTORE PUSH32 0x5472616E73616374696F6E206578636565647320746F74616C207465616D2073 PUSH1 0x44 DUP3 ADD MSTORE PUSH11 0x30B6329039BAB838363C97 PUSH1 0xA9 SHL PUSH1 0x64 DUP3 ADD MSTORE PUSH1 0x84 ADD PUSH2 0xB24 JUMP JUMPDEST DUP1 PUSH1 0xFF AND PUSH1 0x15 PUSH1 0x0 DUP3 DUP3 SLOAD PUSH2 0x173B SWAP2 SWAP1 PUSH2 0x343E JUMP JUMPDEST SWAP1 SWAP2 SSTORE POP PUSH1 0x1 SWAP1 POP JUMPDEST DUP2 PUSH1 0xFF AND DUP2 GT PUSH2 0xD5C JUMPI PUSH2 0x175B CALLER PUSH2 0x10A1 PUSH1 0xC SLOAD SWAP1 JUMP JUMPDEST PUSH2 0x1769 PUSH1 0xC DUP1 SLOAD PUSH1 0x1 ADD SWAP1 SSTORE JUMP JUMPDEST DUP1 PUSH2 0x1773 DUP2 PUSH2 0x3423 JUMP JUMPDEST SWAP2 POP POP PUSH2 0x1744 JUMP JUMPDEST PUSH1 0xA SLOAD PUSH1 0x1 PUSH1 0x1 PUSH1 0xA0 SHL SUB PUSH2 0x100 SWAP1 SWAP2 DIV AND CALLER EQ PUSH2 0x17AB JUMPI PUSH1 0x40 MLOAD PUSH3 0x461BCD PUSH1 0xE5 SHL DUP2 MSTORE PUSH1 0x4 ADD PUSH2 0xB24 SWAP1 PUSH2 0x3347 JUMP JUMPDEST PUSH1 0xD SSTORE JUMP JUMPDEST PUSH1 0xA SLOAD PUSH1 0x1 PUSH1 0x1 PUSH1 0xA0 SHL SUB PUSH2 0x100 SWAP1 SWAP2 DIV AND CALLER EQ PUSH2 0x17E0 JUMPI PUSH1 0x40 MLOAD PUSH3 0x461BCD PUSH1 0xE5 SHL DUP2 MSTORE PUSH1 0x4 ADD PUSH2 0xB24 SWAP1 PUSH2 0x3347 JUMP JUMPDEST PUSH1 0x0 PUSH1 0xE DUP1 SLOAD PUSH2 0x17EF SWAP1 PUSH2 0x330C JUMP JUMPDEST SWAP1 POP GT PUSH2 0x183E JUMPI PUSH1 0x40 MLOAD PUSH3 0x461BCD PUSH1 0xE5 SHL DUP2 MSTORE PUSH1 0x20 PUSH1 0x4 DUP3 ADD MSTORE PUSH1 0x1B PUSH1 0x24 DUP3 ADD MSTORE PUSH32 0x50726F76656E616E63652068617368206973206E6F74207365742E0000000000 PUSH1 0x44 DUP3 ADD MSTORE PUSH1 0x64 ADD PUSH2 0xB24 JUMP JUMPDEST PUSH1 0x11 SLOAD PUSH3 0x10000 SWAP1 DIV PUSH1 0xFF AND ISZERO PUSH2 0x18A2 JUMPI PUSH1 0x40 MLOAD PUSH3 0x461BCD PUSH1 0xE5 SHL DUP2 MSTORE PUSH1 0x20 PUSH1 0x4 DUP3 ADD MSTORE PUSH1 0x22 PUSH1 0x24 DUP3 ADD MSTORE PUSH32 0x50726F76656E616E6365206861736820697320616C72656164792066726F7A65 PUSH1 0x44 DUP3 ADD MSTORE PUSH2 0x3717 PUSH1 0xF1 SHL PUSH1 0x64 DUP3 ADD MSTORE PUSH1 0x84 ADD PUSH2 0xB24 JUMP JUMPDEST PUSH1 0x11 DUP1 SLOAD PUSH3 0xFF0000 NOT AND PUSH3 0x10000 OR SWAP1 SSTORE JUMP JUMPDEST PUSH1 0xA SLOAD PUSH1 0x1 PUSH1 0x1 PUSH1 0xA0 SHL SUB PUSH2 0x100 SWAP1 SWAP2 DIV AND CALLER EQ PUSH2 0x18E5 JUMPI PUSH1 0x40 MLOAD PUSH3 0x461BCD PUSH1 0xE5 SHL DUP2 MSTORE PUSH1 0x4 ADD PUSH2 0xB24 SWAP1 PUSH2 0x3347 JUMP JUMPDEST PUSH2 0x120F PUSH2 0x25EF JUMP JUMPDEST PUSH1 0x2 PUSH1 0xB SLOAD EQ ISZERO PUSH2 0x1940 JUMPI PUSH1 0x40 MLOAD PUSH3 0x461BCD PUSH1 0xE5 SHL DUP2 MSTORE PUSH1 0x20 PUSH1 0x4 DUP3 ADD MSTORE PUSH1 0x1F PUSH1 0x24 DUP3 ADD MSTORE PUSH32 0x5265656E7472616E637947756172643A207265656E7472616E742063616C6C00 PUSH1 0x44 DUP3 ADD MSTORE PUSH1 0x64 ADD PUSH2 0xB24 JUMP JUMPDEST PUSH1 0x2 PUSH1 0xB SSTORE PUSH1 0xA SLOAD PUSH1 0xFF AND ISZERO PUSH2 0x1968 JUMPI PUSH1 0x40 MLOAD PUSH3 0x461BCD PUSH1 0xE5 SHL DUP2 MSTORE PUSH1 0x4 ADD PUSH2 0xB24 SWAP1 PUSH2 0x33CD JUMP JUMPDEST CALLVALUE DUP2 PUSH1 0xFF AND PUSH1 0x17 SLOAD PUSH2 0x197A SWAP2 SWAP1 PUSH2 0x3456 JUMP JUMPDEST EQ PUSH2 0x19C3 JUMPI PUSH1 0x40 MLOAD PUSH3 0x461BCD PUSH1 0xE5 SHL DUP2 MSTORE PUSH1 0x20 PUSH1 0x4 DUP3 ADD MSTORE PUSH1 0x19 PUSH1 0x24 DUP3 ADD MSTORE PUSH25 0x24B731B7B93932B1BA1022AA24103B30B63AB29039B2B73A17 PUSH1 0x39 SHL PUSH1 0x44 DUP3 ADD MSTORE PUSH1 0x64 ADD PUSH2 0xB24 JUMP JUMPDEST PUSH1 0x4 PUSH1 0x18 SLOAD PUSH1 0xFF AND PUSH1 0x4 DUP2 GT ISZERO PUSH2 0x19DC JUMPI PUSH2 0x19DC PUSH2 0x3291 JUMP JUMPDEST EQ PUSH2 0x1A29 JUMPI PUSH1 0x40 MLOAD PUSH3 0x461BCD PUSH1 0xE5 SHL DUP2 MSTORE PUSH1 0x20 PUSH1 0x4 DUP3 ADD MSTORE PUSH1 0x1A PUSH1 0x24 DUP3 ADD MSTORE PUSH32 0x5075626C69632053616C65206E6F7420696E697469617465642E000000000000 PUSH1 0x44 DUP3 ADD MSTORE PUSH1 0x64 ADD PUSH2 0xB24 JUMP JUMPDEST PUSH1 0x16 SLOAD DUP2 PUSH1 0xFF AND PUSH2 0x1A39 PUSH1 0x8 SLOAD SWAP1 JUMP JUMPDEST PUSH2 0x1A43 SWAP2 SWAP1 PUSH2 0x343E JUMP JUMPDEST GT ISZERO PUSH2 0x1AA0 JUMPI PUSH1 0x40 MLOAD PUSH3 0x461BCD PUSH1 0xE5 SHL DUP2 MSTORE PUSH1 0x20 PUSH1 0x4 DUP3 ADD MSTORE PUSH1 0x26 PUSH1 0x24 DUP3 ADD MSTORE PUSH32 0x5472616E73616374696F6E206578636565647320746F74616C2073616C652073 PUSH1 0x44 DUP3 ADD MSTORE PUSH6 0x3AB838363C97 PUSH1 0xD1 SHL PUSH1 0x64 DUP3 ADD MSTORE PUSH1 0x84 ADD PUSH2 0xB24 JUMP JUMPDEST PUSH1 0x11 SLOAD PUSH1 0xFF SWAP1 DUP2 AND SWAP1 DUP3 AND GT ISZERO PUSH2 0x1B0C JUMPI PUSH1 0x40 MLOAD PUSH3 0x461BCD PUSH1 0xE5 SHL DUP2 MSTORE PUSH1 0x20 PUSH1 0x4 DUP3 ADD MSTORE PUSH1 0x2A PUSH1 0x24 DUP3 ADD MSTORE PUSH32 0x45786365656473206D617820616C6C6F776564206D696E747320706572207472 PUSH1 0x44 DUP3 ADD MSTORE PUSH10 0x30B739B0B1BA34B7B717 PUSH1 0xB1 SHL PUSH1 0x64 DUP3 ADD MSTORE PUSH1 0x84 ADD PUSH2 0xB24 JUMP JUMPDEST PUSH1 0x1 JUMPDEST DUP2 PUSH1 0xFF AND DUP2 GT PUSH2 0x10B4 JUMPI PUSH2 0x1B26 CALLER PUSH2 0x10A1 PUSH1 0xC SLOAD SWAP1 JUMP JUMPDEST PUSH2 0x1B34 PUSH1 0xC DUP1 SLOAD PUSH1 0x1 ADD SWAP1 SSTORE JUMP JUMPDEST DUP1 PUSH2 0x1B3E DUP2 PUSH2 0x3423 JUMP JUMPDEST SWAP2 POP POP PUSH2 0x1B0F JUMP JUMPDEST PUSH1 0x60 PUSH1 0x1 DUP1 SLOAD PUSH2 0xA2C SWAP1 PUSH2 0x330C JUMP JUMPDEST PUSH2 0xD5C CALLER DUP4 DUP4 PUSH2 0x2647 JUMP JUMPDEST PUSH1 0xA SLOAD PUSH1 0x1 PUSH1 0x1 PUSH1 0xA0 SHL SUB PUSH2 0x100 SWAP1 SWAP2 DIV AND CALLER EQ PUSH2 0x1B90 JUMPI PUSH1 0x40 MLOAD PUSH3 0x461BCD PUSH1 0xE5 SHL DUP2 MSTORE PUSH1 0x4 ADD PUSH2 0xB24 SWAP1 PUSH2 0x3347 JUMP JUMPDEST PUSH1 0x0 PUSH1 0x18 SLOAD PUSH1 0xFF AND PUSH1 0x4 DUP2 GT ISZERO PUSH2 0x1BA9 JUMPI PUSH2 0x1BA9 PUSH2 0x3291 JUMP JUMPDEST GT PUSH2 0x1BED JUMPI PUSH1 0x40 MLOAD PUSH3 0x461BCD PUSH1 0xE5 SHL DUP2 MSTORE PUSH1 0x20 PUSH1 0x4 DUP3 ADD MSTORE PUSH1 0x14 PUSH1 0x24 DUP3 ADD MSTORE PUSH20 0x27379030B4B9323937B8399030BA1034B734BA17 PUSH1 0x61 SHL PUSH1 0x44 DUP3 ADD MSTORE PUSH1 0x64 ADD PUSH2 0xB24 JUMP JUMPDEST PUSH1 0x16 SLOAD DUP3 PUSH1 0xFF AND PUSH2 0x1BFD PUSH1 0x8 SLOAD SWAP1 JUMP JUMPDEST PUSH2 0x1C07 SWAP2 SWAP1 PUSH2 0x343E JUMP JUMPDEST GT ISZERO PUSH2 0x1C68 JUMPI PUSH1 0x40 MLOAD PUSH3 0x461BCD PUSH1 0xE5 SHL DUP2 MSTORE PUSH1 0x20 PUSH1 0x4 DUP3 ADD MSTORE PUSH1 0x2A PUSH1 0x24 DUP3 ADD MSTORE PUSH32 0x4D696E7420616D6F756E742077696C6C2065786365656420746F74616C207361 PUSH1 0x44 DUP3 ADD MSTORE PUSH10 0x36329039BAB838363C97 PUSH1 0xB1 SHL PUSH1 0x64 DUP3 ADD MSTORE PUSH1 0x84 ADD PUSH2 0xB24 JUMP JUMPDEST PUSH1 0x1 JUMPDEST DUP3 PUSH1 0xFF AND DUP2 GT PUSH2 0xC5A JUMPI PUSH2 0x1C82 DUP3 PUSH2 0x10A1 PUSH1 0xC SLOAD SWAP1 JUMP JUMPDEST PUSH2 0x1C90 PUSH1 0xC DUP1 SLOAD PUSH1 0x1 ADD SWAP1 SSTORE JUMP JUMPDEST DUP1 PUSH2 0x1C9A DUP2 PUSH2 0x3423 JUMP JUMPDEST SWAP2 POP POP PUSH2 0x1C6B JUMP JUMPDEST PUSH2 0x1CAC CALLER DUP4 PUSH2 0x2234 JUMP JUMPDEST PUSH2 0x1CC8 JUMPI PUSH1 0x40 MLOAD PUSH3 0x461BCD PUSH1 0xE5 SHL DUP2 MSTORE PUSH1 0x4 ADD PUSH2 0xB24 SWAP1 PUSH2 0x337C JUMP JUMPDEST PUSH2 0x1CD4 DUP5 DUP5 DUP5 DUP5 PUSH2 0x2716 JUMP JUMPDEST POP POP POP POP JUMP JUMPDEST PUSH1 0xA SLOAD PUSH1 0x1 PUSH1 0x1 PUSH1 0xA0 SHL SUB PUSH2 0x100 SWAP1 SWAP2 DIV AND CALLER EQ PUSH2 0x1D0A JUMPI PUSH1 0x40 MLOAD PUSH3 0x461BCD PUSH1 0xE5 SHL DUP2 MSTORE PUSH1 0x4 ADD PUSH2 0xB24 SWAP1 PUSH2 0x3347 JUMP JUMPDEST PUSH1 0x1 PUSH1 0x1 PUSH1 0xA0 SHL SUB AND PUSH1 0x0 SWAP1 DUP2 MSTORE PUSH1 0x13 PUSH1 0x20 MSTORE PUSH1 0x40 SWAP1 KECCAK256 DUP1 SLOAD PUSH1 0xFF NOT AND PUSH1 0x1 OR SWAP1 SSTORE JUMP JUMPDEST PUSH1 0x10 DUP1 SLOAD PUSH2 0x14C6 SWAP1 PUSH2 0x330C JUMP JUMPDEST PUSH1 0xE DUP1 SLOAD PUSH2 0x14C6 SWAP1 PUSH2 0x330C JUMP JUMPDEST PUSH1 0x0 DUP2 DUP2 MSTORE PUSH1 0x2 PUSH1 0x20 MSTORE PUSH1 0x40 SWAP1 KECCAK256 SLOAD PUSH1 0x60 SWAP1 PUSH1 0x1 PUSH1 0x1 PUSH1 0xA0 SHL SUB AND PUSH2 0x1DC8 JUMPI PUSH1 0x40 MLOAD PUSH3 0x461BCD PUSH1 0xE5 SHL DUP2 MSTORE PUSH1 0x20 PUSH1 0x4 DUP3 ADD MSTORE PUSH1 0x30 PUSH1 0x24 DUP3 ADD MSTORE PUSH32 0x4552433732314D657461646174613A2055524920717565727920666F72206E6F PUSH1 0x44 DUP3 ADD MSTORE PUSH16 0x3732BC34B9BA32B73A103A37B5B2B717 PUSH1 0x81 SHL PUSH1 0x64 DUP3 ADD MSTORE PUSH1 0x84 ADD PUSH2 0xB24 JUMP JUMPDEST PUSH1 0xF PUSH2 0x1DD3 DUP4 PUSH2 0x2749 JUMP JUMPDEST PUSH1 0x10 PUSH1 0x40 MLOAD PUSH1 0x20 ADD PUSH2 0x1DE7 SWAP4 SWAP3 SWAP2 SWAP1 PUSH2 0x350F JUMP JUMPDEST PUSH1 0x40 MLOAD PUSH1 0x20 DUP2 DUP4 SUB SUB DUP2 MSTORE SWAP1 PUSH1 0x40 MSTORE SWAP1 POP SWAP2 SWAP1 POP JUMP JUMPDEST PUSH1 0xA SLOAD PUSH1 0x1 PUSH1 0x1 PUSH1 0xA0 SHL SUB PUSH2 0x100 SWAP1 SWAP2 DIV AND CALLER EQ PUSH2 0x1E2D JUMPI PUSH1 0x40 MLOAD PUSH3 0x461BCD PUSH1 0xE5 SHL DUP2 MSTORE PUSH1 0x4 ADD PUSH2 0xB24 SWAP1 PUSH2 0x3347 JUMP JUMPDEST PUSH1 0x11 SLOAD PUSH3 0x10000 SWAP1 DIV PUSH1 0xFF AND ISZERO ISZERO PUSH1 0x1 EQ PUSH2 0x1EB0 JUMPI PUSH1 0x40 MLOAD PUSH3 0x461BCD PUSH1 0xE5 SHL DUP2 MSTORE PUSH1 0x20 PUSH1 0x4 DUP3 ADD MSTORE PUSH1 0x38 PUSH1 0x24 DUP3 ADD MSTORE PUSH32 0x50726F76656E616E63652068617368206D7573742062652066726F7A656E2062 PUSH1 0x44 DUP3 ADD MSTORE PUSH32 0x65666F7265206D696E74696E672063616E2073746172742E0000000000000000 PUSH1 0x64 DUP3 ADD MSTORE PUSH1 0x84 ADD PUSH2 0xB24 JUMP JUMPDEST PUSH1 0xD SLOAD PUSH2 0x1F1A JUMPI PUSH1 0x40 MLOAD PUSH3 0x461BCD PUSH1 0xE5 SHL DUP2 MSTORE PUSH1 0x20 PUSH1 0x4 DUP3 ADD MSTORE PUSH1 0x32 PUSH1 0x24 DUP3 ADD MSTORE PUSH32 0x4D65726B6C6520726F6F74206D7573742062652073657420626565666F726520 PUSH1 0x44 DUP3 ADD MSTORE PUSH18 0x36B4B73A34B7339031B0B71039BA30B93A17 PUSH1 0x71 SHL PUSH1 0x64 DUP3 ADD MSTORE PUSH1 0x84 ADD PUSH2 0xB24 JUMP JUMPDEST PUSH1 0x18 DUP1 SLOAD DUP3 SWAP2 SWAP1 PUSH1 0xFF NOT AND PUSH1 0x1 DUP4 PUSH1 0x4 DUP2 GT ISZERO PUSH2 0x1F39 JUMPI PUSH2 0x1F39 PUSH2 0x3291 JUMP JUMPDEST MUL OR SWAP1 SSTORE POP POP JUMP JUMPDEST PUSH1 0x0 PUSH2 0x1555 PUSH1 0x8 SLOAD SWAP1 JUMP JUMPDEST PUSH1 0xA SLOAD PUSH1 0x1 PUSH1 0x1 PUSH1 0xA0 SHL SUB PUSH2 0x100 SWAP1 SWAP2 DIV AND CALLER EQ PUSH2 0x1F7C JUMPI PUSH1 0x40 MLOAD PUSH3 0x461BCD PUSH1 0xE5 SHL DUP2 MSTORE PUSH1 0x4 ADD PUSH2 0xB24 SWAP1 PUSH2 0x3347 JUMP JUMPDEST DUP1 MLOAD PUSH2 0xD5C SWAP1 PUSH1 0x10 SWAP1 PUSH1 0x20 DUP5 ADD SWAP1 PUSH2 0x2DF8 JUMP JUMPDEST PUSH1 0x0 PUSH2 0x1F9A PUSH1 0x8 SLOAD SWAP1 JUMP JUMPDEST PUSH1 0x16 SLOAD PUSH2 0x1555 SWAP2 SWAP1 PUSH2 0x3542 JUMP JUMPDEST PUSH1 0xA SLOAD PUSH1 0x1 PUSH1 0x1 PUSH1 0xA0 SHL SUB PUSH2 0x100 SWAP1 SWAP2 DIV AND CALLER EQ PUSH2 0x1FD7 JUMPI PUSH1 0x40 MLOAD PUSH3 0x461BCD PUSH1 0xE5 SHL DUP2 MSTORE PUSH1 0x4 ADD PUSH2 0xB24 SWAP1 PUSH2 0x3347 JUMP JUMPDEST PUSH1 0x0 PUSH1 0xF DUP1 SLOAD PUSH2 0x1FE6 SWAP1 PUSH2 0x330C JUMP JUMPDEST SWAP1 POP GT PUSH2 0x2035 JUMPI PUSH1 0x40 MLOAD PUSH3 0x461BCD PUSH1 0xE5 SHL DUP2 MSTORE PUSH1 0x20 PUSH1 0x4 DUP3 ADD MSTORE PUSH1 0x18 PUSH1 0x24 DUP3 ADD MSTORE PUSH32 0x426173655552492063616E6E6F7420626520656D7074792E0000000000000000 PUSH1 0x44 DUP3 ADD MSTORE PUSH1 0x64 ADD PUSH2 0xB24 JUMP JUMPDEST PUSH1 0x11 SLOAD PUSH2 0x100 SWAP1 DIV PUSH1 0xFF AND ISZERO PUSH2 0x208D JUMPI PUSH1 0x40 MLOAD PUSH3 0x461BCD PUSH1 0xE5 SHL DUP2 MSTORE PUSH1 0x20 PUSH1 0x4 DUP3 ADD MSTORE PUSH1 0x1A PUSH1 0x24 DUP3 ADD MSTORE PUSH32 0x4261736555524920697320616C72656164792066726F7A656E2E000000000000 PUSH1 0x44 DUP3 ADD MSTORE PUSH1 0x64 ADD PUSH2 0xB24 JUMP JUMPDEST PUSH1 0x11 DUP1 SLOAD PUSH2 0xFF00 NOT AND PUSH2 0x100 OR SWAP1 SSTORE JUMP JUMPDEST PUSH1 0xA SLOAD PUSH1 0x1 PUSH1 0x1 PUSH1 0xA0 SHL SUB PUSH2 0x100 SWAP1 SWAP2 DIV AND CALLER EQ PUSH2 0x20CE JUMPI PUSH1 0x40 MLOAD PUSH3 0x461BCD PUSH1 0xE5 SHL DUP2 MSTORE PUSH1 0x4 ADD PUSH2 0xB24 SWAP1 PUSH2 0x3347 JUMP JUMPDEST PUSH1 0x1 PUSH1 0x1 PUSH1 0xA0 SHL SUB DUP2 AND PUSH2 0x2133 JUMPI PUSH1 0x40 MLOAD PUSH3 0x461BCD PUSH1 0xE5 SHL DUP2 MSTORE PUSH1 0x20 PUSH1 0x4 DUP3 ADD MSTORE PUSH1 0x26 PUSH1 0x24 DUP3 ADD MSTORE PUSH32 0x4F776E61626C653A206E6577206F776E657220697320746865207A65726F2061 PUSH1 0x44 DUP3 ADD MSTORE PUSH6 0x646472657373 PUSH1 0xD0 SHL PUSH1 0x64 DUP3 ADD MSTORE PUSH1 0x84 ADD PUSH2 0xB24 JUMP JUMPDEST PUSH2 0x11D4 DUP2 PUSH2 0x2595 JUMP JUMPDEST PUSH1 0xA SLOAD PUSH1 0x1 PUSH1 0x1 PUSH1 0xA0 SHL SUB PUSH2 0x100 SWAP1 SWAP2 DIV AND CALLER EQ PUSH2 0x216C JUMPI PUSH1 0x40 MLOAD PUSH3 0x461BCD PUSH1 0xE5 SHL DUP2 MSTORE PUSH1 0x4 ADD PUSH2 0xB24 SWAP1 PUSH2 0x3347 JUMP JUMPDEST PUSH1 0x11 DUP1 SLOAD PUSH1 0x1 PUSH1 0x1 PUSH1 0xA0 SHL SUB SWAP1 SWAP3 AND PUSH4 0x1000000 MUL PUSH4 0x1000000 PUSH1 0x1 PUSH1 0xB8 SHL SUB NOT SWAP1 SWAP3 AND SWAP2 SWAP1 SWAP2 OR SWAP1 SSTORE JUMP JUMPDEST DUP1 SLOAD PUSH1 0x1 ADD SWAP1 SSTORE JUMP JUMPDEST PUSH1 0x0 PUSH1 0x1 PUSH1 0x1 PUSH1 0xE0 SHL SUB NOT DUP3 AND PUSH4 0x780E9D63 PUSH1 0xE0 SHL EQ DUP1 PUSH2 0xA17 JUMPI POP PUSH2 0xA17 DUP3 PUSH2 0x2847 JUMP JUMPDEST PUSH1 0x0 DUP2 DUP2 MSTORE PUSH1 0x4 PUSH1 0x20 MSTORE PUSH1 0x40 SWAP1 KECCAK256 DUP1 SLOAD PUSH1 0x1 PUSH1 0x1 PUSH1 0xA0 SHL SUB NOT AND PUSH1 0x1 PUSH1 0x1 PUSH1 0xA0 SHL SUB DUP5 AND SWAP1 DUP2 OR SWAP1 SWAP2 SSTORE DUP2 SWAP1 PUSH2 0x21FB DUP3 PUSH2 0x1442 JUMP JUMPDEST PUSH1 0x1 PUSH1 0x1 PUSH1 0xA0 SHL SUB AND PUSH32 0x8C5BE1E5EBEC7D5BD14F71427D1E84F3DD0314C0F7B2291E5B200AC8C7C3B925 PUSH1 0x40 MLOAD PUSH1 0x40 MLOAD DUP1 SWAP2 SUB SWAP1 LOG4 POP POP JUMP JUMPDEST PUSH1 0x0 DUP2 DUP2 MSTORE PUSH1 0x2 PUSH1 0x20 MSTORE PUSH1 0x40 DUP2 KECCAK256 SLOAD PUSH1 0x1 PUSH1 0x1 PUSH1 0xA0 SHL SUB AND PUSH2 0x22AD JUMPI PUSH1 0x40 MLOAD PUSH3 0x461BCD PUSH1 0xE5 SHL DUP2 MSTORE PUSH1 0x20 PUSH1 0x4 DUP3 ADD MSTORE PUSH1 0x2C PUSH1 0x24 DUP3 ADD MSTORE PUSH32 0x4552433732313A206F70657261746F7220717565727920666F72206E6F6E6578 PUSH1 0x44 DUP3 ADD MSTORE PUSH12 0x34B9BA32B73A103A37B5B2B7 PUSH1 0xA1 SHL PUSH1 0x64 DUP3 ADD MSTORE PUSH1 0x84 ADD PUSH2 0xB24 JUMP JUMPDEST PUSH1 0x0 PUSH2 0x22B8 DUP4 PUSH2 0x1442 JUMP JUMPDEST SWAP1 POP DUP1 PUSH1 0x1 PUSH1 0x1 PUSH1 0xA0 SHL SUB AND DUP5 PUSH1 0x1 PUSH1 0x1 PUSH1 0xA0 SHL SUB AND EQ DUP1 PUSH2 0x22F3 JUMPI POP DUP4 PUSH1 0x1 PUSH1 0x1 PUSH1 0xA0 SHL SUB AND PUSH2 0x22E8 DUP5 PUSH2 0xAAF JUMP JUMPDEST PUSH1 0x1 PUSH1 0x1 PUSH1 0xA0 SHL SUB AND EQ JUMPDEST DUP1 PUSH2 0x2323 JUMPI POP PUSH1 0x1 PUSH1 0x1 PUSH1 0xA0 SHL SUB DUP1 DUP3 AND PUSH1 0x0 SWAP1 DUP2 MSTORE PUSH1 0x5 PUSH1 0x20 SWAP1 DUP2 MSTORE PUSH1 0x40 DUP1 DUP4 KECCAK256 SWAP4 DUP9 AND DUP4 MSTORE SWAP3 SWAP1 MSTORE KECCAK256 SLOAD PUSH1 0xFF AND JUMPDEST SWAP5 SWAP4 POP POP POP POP JUMP JUMPDEST DUP3 PUSH1 0x1 PUSH1 0x1 PUSH1 0xA0 SHL SUB AND PUSH2 0x233E DUP3 PUSH2 0x1442 JUMP JUMPDEST PUSH1 0x1 PUSH1 0x1 PUSH1 0xA0 SHL SUB AND EQ PUSH2 0x23A2 JUMPI PUSH1 0x40 MLOAD PUSH3 0x461BCD PUSH1 0xE5 SHL DUP2 MSTORE PUSH1 0x20 PUSH1 0x4 DUP3 ADD MSTORE PUSH1 0x25 PUSH1 0x24 DUP3 ADD MSTORE PUSH32 0x4552433732313A207472616E736665722066726F6D20696E636F727265637420 PUSH1 0x44 DUP3 ADD MSTORE PUSH5 0x37BBB732B9 PUSH1 0xD9 SHL PUSH1 0x64 DUP3 ADD MSTORE PUSH1 0x84 ADD PUSH2 0xB24 JUMP JUMPDEST PUSH1 0x1 PUSH1 0x1 PUSH1 0xA0 SHL SUB DUP3 AND PUSH2 0x2404 JUMPI PUSH1 0x40 MLOAD PUSH3 0x461BCD PUSH1 0xE5 SHL DUP2 MSTORE PUSH1 0x20 PUSH1 0x4 DUP3 ADD MSTORE PUSH1 0x24 DUP1 DUP3 ADD MSTORE PUSH32 0x4552433732313A207472616E7366657220746F20746865207A65726F20616464 PUSH1 0x44 DUP3 ADD MSTORE PUSH4 0x72657373 PUSH1 0xE0 SHL PUSH1 0x64 DUP3 ADD MSTORE PUSH1 0x84 ADD PUSH2 0xB24 JUMP JUMPDEST PUSH2 0x240F DUP4 DUP4 DUP4 PUSH2 0x2897 JUMP JUMPDEST PUSH2 0x241A PUSH1 0x0 DUP3 PUSH2 0x21C6 JUMP JUMPDEST PUSH1 0x1 PUSH1 0x1 PUSH1 0xA0 SHL SUB DUP4 AND PUSH1 0x0 SWAP1 DUP2 MSTORE PUSH1 0x3 PUSH1 0x20 MSTORE PUSH1 0x40 DUP2 KECCAK256 DUP1 SLOAD PUSH1 0x1 SWAP3 SWAP1 PUSH2 0x2443 SWAP1 DUP5 SWAP1 PUSH2 0x3542 JUMP JUMPDEST SWAP1 SWAP2 SSTORE POP POP PUSH1 0x1 PUSH1 0x1 PUSH1 0xA0 SHL SUB DUP3 AND PUSH1 0x0 SWAP1 DUP2 MSTORE PUSH1 0x3 PUSH1 0x20 MSTORE PUSH1 0x40 DUP2 KECCAK256 DUP1 SLOAD PUSH1 0x1 SWAP3 SWAP1 PUSH2 0x2471 SWAP1 DUP5 SWAP1 PUSH2 0x343E JUMP JUMPDEST SWAP1 SWAP2 SSTORE POP POP PUSH1 0x0 DUP2 DUP2 MSTORE PUSH1 0x2 PUSH1 0x20 MSTORE PUSH1 0x40 DUP1 DUP3 KECCAK256 DUP1 SLOAD PUSH1 0x1 PUSH1 0x1 PUSH1 0xA0 SHL SUB NOT AND PUSH1 0x1 PUSH1 0x1 PUSH1 0xA0 SHL SUB DUP7 DUP2 AND SWAP2 DUP3 OR SWAP1 SWAP3 SSTORE SWAP2 MLOAD DUP5 SWAP4 SWAP2 DUP8 AND SWAP2 PUSH32 0xDDF252AD1BE2C89B69C2B068FC378DAA952BA7F163C4A11628F55A4DF523B3EF SWAP2 LOG4 POP POP POP JUMP JUMPDEST PUSH1 0x0 DUP3 PUSH2 0x24DF DUP6 DUP5 PUSH2 0x28C5 JUMP JUMPDEST EQ SWAP5 SWAP4 POP POP POP POP JUMP JUMPDEST PUSH2 0xD5C DUP3 DUP3 PUSH1 0x40 MLOAD DUP1 PUSH1 0x20 ADD PUSH1 0x40 MSTORE DUP1 PUSH1 0x0 DUP2 MSTORE POP PUSH2 0x2931 JUMP JUMPDEST PUSH1 0xA SLOAD PUSH1 0xFF AND PUSH2 0x254B JUMPI PUSH1 0x40 MLOAD PUSH3 0x461BCD PUSH1 0xE5 SHL DUP2 MSTORE PUSH1 0x20 PUSH1 0x4 DUP3 ADD MSTORE PUSH1 0x14 PUSH1 0x24 DUP3 ADD MSTORE PUSH20 0x14185D5CD8589B194E881B9BDD081C185D5CD959 PUSH1 0x62 SHL PUSH1 0x44 DUP3 ADD MSTORE PUSH1 0x64 ADD PUSH2 0xB24 JUMP JUMPDEST PUSH1 0xA DUP1 SLOAD PUSH1 0xFF NOT AND SWAP1 SSTORE PUSH32 0x5DB9EE0A495BF2E6FF9C91A7834C1BA4FDD244A5E8AA4E537BD38AEAE4B073AA CALLER JUMPDEST PUSH1 0x40 MLOAD PUSH1 0x1 PUSH1 0x1 PUSH1 0xA0 SHL SUB SWAP1 SWAP2 AND DUP2 MSTORE PUSH1 0x20 ADD PUSH1 0x40 MLOAD DUP1 SWAP2 SUB SWAP1 LOG1 JUMP JUMPDEST PUSH1 0xA DUP1 SLOAD PUSH1 0x1 PUSH1 0x1 PUSH1 0xA0 SHL SUB DUP4 DUP2 AND PUSH2 0x100 DUP2 DUP2 MUL PUSH2 0x100 PUSH1 0x1 PUSH1 0xA8 SHL SUB NOT DUP6 AND OR SWAP1 SWAP5 SSTORE PUSH1 0x40 MLOAD SWAP4 SWAP1 SWAP3 DIV AND SWAP2 DUP3 SWAP1 PUSH32 0x8BE0079C531659141344CD1FD0A4F28419497F9722A3DAAFE3B4186F6B6457E0 SWAP1 PUSH1 0x0 SWAP1 LOG3 POP POP JUMP JUMPDEST PUSH1 0xA SLOAD PUSH1 0xFF AND ISZERO PUSH2 0x2612 JUMPI PUSH1 0x40 MLOAD PUSH3 0x461BCD PUSH1 0xE5 SHL DUP2 MSTORE PUSH1 0x4 ADD PUSH2 0xB24 SWAP1 PUSH2 0x33CD JUMP JUMPDEST PUSH1 0xA DUP1 SLOAD PUSH1 0xFF NOT AND PUSH1 0x1 OR SWAP1 SSTORE PUSH32 0x62E78CEA01BEE320CD4E420270B5EA74000D11B0C9F74754EBDBFC544B05A258 PUSH2 0x2578 CALLER SWAP1 JUMP JUMPDEST DUP2 PUSH1 0x1 PUSH1 0x1 PUSH1 0xA0 SHL SUB AND DUP4 PUSH1 0x1 PUSH1 0x1 PUSH1 0xA0 SHL SUB AND EQ ISZERO PUSH2 0x26A9 JUMPI PUSH1 0x40 MLOAD PUSH3 0x461BCD PUSH1 0xE5 SHL DUP2 MSTORE PUSH1 0x20 PUSH1 0x4 DUP3 ADD MSTORE PUSH1 0x19 PUSH1 0x24 DUP3 ADD MSTORE PUSH32 0x4552433732313A20617070726F766520746F2063616C6C657200000000000000 PUSH1 0x44 DUP3 ADD MSTORE PUSH1 0x64 ADD PUSH2 0xB24 JUMP JUMPDEST PUSH1 0x1 PUSH1 0x1 PUSH1 0xA0 SHL SUB DUP4 DUP2 AND PUSH1 0x0 DUP2 DUP2 MSTORE PUSH1 0x5 PUSH1 0x20 SWAP1 DUP2 MSTORE PUSH1 0x40 DUP1 DUP4 KECCAK256 SWAP5 DUP8 AND DUP1 DUP5 MSTORE SWAP5 DUP3 MSTORE SWAP2 DUP3 SWAP1 KECCAK256 DUP1 SLOAD PUSH1 0xFF NOT AND DUP7 ISZERO ISZERO SWAP1 DUP2 OR SWAP1 SWAP2 SSTORE SWAP2 MLOAD SWAP2 DUP3 MSTORE PUSH32 0x17307EAB39AB6107E8899845AD3D59BD9653F200F220920489CA2B5937696C31 SWAP2 ADD PUSH1 0x40 MLOAD DUP1 SWAP2 SUB SWAP1 LOG3 POP POP POP JUMP JUMPDEST PUSH2 0x2721 DUP5 DUP5 DUP5 PUSH2 0x232B JUMP JUMPDEST PUSH2 0x272D DUP5 DUP5 DUP5 DUP5 PUSH2 0x2964 JUMP JUMPDEST PUSH2 0x1CD4 JUMPI PUSH1 0x40 MLOAD PUSH3 0x461BCD PUSH1 0xE5 SHL DUP2 MSTORE PUSH1 0x4 ADD PUSH2 0xB24 SWAP1 PUSH2 0x3559 JUMP JUMPDEST PUSH1 0x60 DUP2 PUSH2 0x276D JUMPI POP POP PUSH1 0x40 DUP1 MLOAD DUP1 DUP3 ADD SWAP1 SWAP2 MSTORE PUSH1 0x1 DUP2 MSTORE PUSH1 0x3 PUSH1 0xFC SHL PUSH1 0x20 DUP3 ADD MSTORE SWAP1 JUMP JUMPDEST DUP2 PUSH1 0x0 JUMPDEST DUP2 ISZERO PUSH2 0x2797 JUMPI DUP1 PUSH2 0x2781 DUP2 PUSH2 0x3423 JUMP JUMPDEST SWAP2 POP PUSH2 0x2790 SWAP1 POP PUSH1 0xA DUP4 PUSH2 0x35C1 JUMP JUMPDEST SWAP2 POP PUSH2 0x2771 JUMP JUMPDEST PUSH1 0x0 DUP2 PUSH8 0xFFFFFFFFFFFFFFFF DUP2 GT ISZERO PUSH2 0x27B2 JUMPI PUSH2 0x27B2 PUSH2 0x2F95 JUMP JUMPDEST PUSH1 0x40 MLOAD SWAP1 DUP1 DUP3 MSTORE DUP1 PUSH1 0x1F ADD PUSH1 0x1F NOT AND PUSH1 0x20 ADD DUP3 ADD PUSH1 0x40 MSTORE DUP1 ISZERO PUSH2 0x27DC JUMPI PUSH1 0x20 DUP3 ADD DUP2 DUP1 CALLDATASIZE DUP4 CALLDATACOPY ADD SWAP1 POP JUMPDEST POP SWAP1 POP JUMPDEST DUP5 ISZERO PUSH2 0x2323 JUMPI PUSH2 0x27F1 PUSH1 0x1 DUP4 PUSH2 0x3542 JUMP JUMPDEST SWAP2 POP PUSH2 0x27FE PUSH1 0xA DUP7 PUSH2 0x35D5 JUMP JUMPDEST PUSH2 0x2809 SWAP1 PUSH1 0x30 PUSH2 0x343E JUMP JUMPDEST PUSH1 0xF8 SHL DUP2 DUP4 DUP2 MLOAD DUP2 LT PUSH2 0x281E JUMPI PUSH2 0x281E PUSH2 0x33F7 JUMP JUMPDEST PUSH1 0x20 ADD ADD SWAP1 PUSH1 0x1 PUSH1 0x1 PUSH1 0xF8 SHL SUB NOT AND SWAP1 DUP2 PUSH1 0x0 BYTE SWAP1 MSTORE8 POP PUSH2 0x2840 PUSH1 0xA DUP7 PUSH2 0x35C1 JUMP JUMPDEST SWAP5 POP PUSH2 0x27E0 JUMP JUMPDEST PUSH1 0x0 PUSH1 0x1 PUSH1 0x1 PUSH1 0xE0 SHL SUB NOT DUP3 AND PUSH4 0x80AC58CD PUSH1 0xE0 SHL EQ DUP1 PUSH2 0x2878 JUMPI POP PUSH1 0x1 PUSH1 0x1 PUSH1 0xE0 SHL SUB NOT DUP3 AND PUSH4 0x5B5E139F PUSH1 0xE0 SHL EQ JUMPDEST DUP1 PUSH2 0xA17 JUMPI POP PUSH4 0x1FFC9A7 PUSH1 0xE0 SHL PUSH1 0x1 PUSH1 0x1 PUSH1 0xE0 SHL SUB NOT DUP4 AND EQ PUSH2 0xA17 JUMP JUMPDEST PUSH1 0xA SLOAD PUSH1 0xFF AND ISZERO PUSH2 0x28BA JUMPI PUSH1 0x40 MLOAD PUSH3 0x461BCD PUSH1 0xE5 SHL DUP2 MSTORE PUSH1 0x4 ADD PUSH2 0xB24 SWAP1 PUSH2 0x33CD JUMP JUMPDEST PUSH2 0xC5A DUP4 DUP4 DUP4 PUSH2 0x2A62 JUMP JUMPDEST PUSH1 0x0 DUP2 DUP2 JUMPDEST DUP5 MLOAD DUP2 LT ISZERO PUSH2 0x12C6 JUMPI PUSH1 0x0 DUP6 DUP3 DUP2 MLOAD DUP2 LT PUSH2 0x28E7 JUMPI PUSH2 0x28E7 PUSH2 0x33F7 JUMP JUMPDEST PUSH1 0x20 MUL PUSH1 0x20 ADD ADD MLOAD SWAP1 POP DUP1 DUP4 GT PUSH2 0x290D JUMPI PUSH1 0x0 DUP4 DUP2 MSTORE PUSH1 0x20 DUP3 SWAP1 MSTORE PUSH1 0x40 SWAP1 KECCAK256 SWAP3 POP PUSH2 0x291E JUMP JUMPDEST PUSH1 0x0 DUP2 DUP2 MSTORE PUSH1 0x20 DUP5 SWAP1 MSTORE PUSH1 0x40 SWAP1 KECCAK256 SWAP3 POP JUMPDEST POP DUP1 PUSH2 0x2929 DUP2 PUSH2 0x3423 JUMP JUMPDEST SWAP2 POP POP PUSH2 0x28CA JUMP JUMPDEST PUSH2 0x293B DUP4 DUP4 PUSH2 0x2B1A JUMP JUMPDEST PUSH2 0x2948 PUSH1 0x0 DUP5 DUP5 DUP5 PUSH2 0x2964 JUMP JUMPDEST PUSH2 0xC5A JUMPI PUSH1 0x40 MLOAD PUSH3 0x461BCD PUSH1 0xE5 SHL DUP2 MSTORE PUSH1 0x4 ADD PUSH2 0xB24 SWAP1 PUSH2 0x3559 JUMP JUMPDEST PUSH1 0x0 PUSH1 0x1 PUSH1 0x1 PUSH1 0xA0 SHL SUB DUP5 AND EXTCODESIZE ISZERO PUSH2 0x2A57 JUMPI PUSH1 0x40 MLOAD PUSH4 0xA85BD01 PUSH1 0xE1 SHL DUP2 MSTORE PUSH1 0x1 PUSH1 0x1 PUSH1 0xA0 SHL SUB DUP6 AND SWAP1 PUSH4 0x150B7A02 SWAP1 PUSH2 0x29A8 SWAP1 CALLER SWAP1 DUP10 SWAP1 DUP9 SWAP1 DUP9 SWAP1 PUSH1 0x4 ADD PUSH2 0x35E9 JUMP JUMPDEST PUSH1 0x20 PUSH1 0x40 MLOAD DUP1 DUP4 SUB DUP2 PUSH1 0x0 DUP8 GAS CALL SWAP3 POP POP POP DUP1 ISZERO PUSH2 0x29E3 JUMPI POP PUSH1 0x40 DUP1 MLOAD PUSH1 0x1F RETURNDATASIZE SWAP1 DUP2 ADD PUSH1 0x1F NOT AND DUP3 ADD SWAP1 SWAP3 MSTORE PUSH2 0x29E0 SWAP2 DUP2 ADD SWAP1 PUSH2 0x3626 JUMP JUMPDEST PUSH1 0x1 JUMPDEST PUSH2 0x2A3D JUMPI RETURNDATASIZE DUP1 DUP1 ISZERO PUSH2 0x2A11 JUMPI PUSH1 0x40 MLOAD SWAP2 POP PUSH1 0x1F NOT PUSH1 0x3F RETURNDATASIZE ADD AND DUP3 ADD PUSH1 0x40 MSTORE RETURNDATASIZE DUP3 MSTORE RETURNDATASIZE PUSH1 0x0 PUSH1 0x20 DUP5 ADD RETURNDATACOPY PUSH2 0x2A16 JUMP JUMPDEST PUSH1 0x60 SWAP2 POP JUMPDEST POP DUP1 MLOAD PUSH2 0x2A35 JUMPI PUSH1 0x40 MLOAD PUSH3 0x461BCD PUSH1 0xE5 SHL DUP2 MSTORE PUSH1 0x4 ADD PUSH2 0xB24 SWAP1 PUSH2 0x3559 JUMP JUMPDEST DUP1 MLOAD DUP2 PUSH1 0x20 ADD REVERT JUMPDEST PUSH1 0x1 PUSH1 0x1 PUSH1 0xE0 SHL SUB NOT AND PUSH4 0xA85BD01 PUSH1 0xE1 SHL EQ SWAP1 POP PUSH2 0x2323 JUMP JUMPDEST POP PUSH1 0x1 SWAP5 SWAP4 POP POP POP POP JUMP JUMPDEST PUSH1 0x1 PUSH1 0x1 PUSH1 0xA0 SHL SUB DUP4 AND PUSH2 0x2ABD JUMPI PUSH2 0x2AB8 DUP2 PUSH1 0x8 DUP1 SLOAD PUSH1 0x0 DUP4 DUP2 MSTORE PUSH1 0x9 PUSH1 0x20 MSTORE PUSH1 0x40 DUP2 KECCAK256 DUP3 SWAP1 SSTORE PUSH1 0x1 DUP3 ADD DUP4 SSTORE SWAP2 SWAP1 SWAP2 MSTORE PUSH32 0xF3F7A9FE364FAAB93B216DA50A3214154F22A0A2B415B23A84C8169E8B636EE3 ADD SSTORE JUMP JUMPDEST PUSH2 0x2AE0 JUMP JUMPDEST DUP2 PUSH1 0x1 PUSH1 0x1 PUSH1 0xA0 SHL SUB AND DUP4 PUSH1 0x1 PUSH1 0x1 PUSH1 0xA0 SHL SUB AND EQ PUSH2 0x2AE0 JUMPI PUSH2 0x2AE0 DUP4 DUP3 PUSH2 0x2C68 JUMP JUMPDEST PUSH1 0x1 PUSH1 0x1 PUSH1 0xA0 SHL SUB DUP3 AND PUSH2 0x2AF7 JUMPI PUSH2 0xC5A DUP2 PUSH2 0x2D05 JUMP JUMPDEST DUP3 PUSH1 0x1 PUSH1 0x1 PUSH1 0xA0 SHL SUB AND DUP3 PUSH1 0x1 PUSH1 0x1 PUSH1 0xA0 SHL SUB AND EQ PUSH2 0xC5A JUMPI PUSH2 0xC5A DUP3 DUP3 PUSH2 0x2DB4 JUMP JUMPDEST PUSH1 0x1 PUSH1 0x1 PUSH1 0xA0 SHL SUB DUP3 AND PUSH2 0x2B70 JUMPI PUSH1 0x40 MLOAD PUSH3 0x461BCD PUSH1 0xE5 SHL DUP2 MSTORE PUSH1 0x20 PUSH1 0x4 DUP3 ADD DUP2 SWAP1 MSTORE PUSH1 0x24 DUP3 ADD MSTORE PUSH32 0x4552433732313A206D696E7420746F20746865207A65726F2061646472657373 PUSH1 0x44 DUP3 ADD MSTORE PUSH1 0x64 ADD PUSH2 0xB24 JUMP JUMPDEST PUSH1 0x0 DUP2 DUP2 MSTORE PUSH1 0x2 PUSH1 0x20 MSTORE PUSH1 0x40 SWAP1 KECCAK256 SLOAD PUSH1 0x1 PUSH1 0x1 PUSH1 0xA0 SHL SUB AND ISZERO PUSH2 0x2BD5 JUMPI PUSH1 0x40 MLOAD PUSH3 0x461BCD PUSH1 0xE5 SHL DUP2 MSTORE PUSH1 0x20 PUSH1 0x4 DUP3 ADD MSTORE PUSH1 0x1C PUSH1 0x24 DUP3 ADD MSTORE PUSH32 0x4552433732313A20746F6B656E20616C7265616479206D696E74656400000000 PUSH1 0x44 DUP3 ADD MSTORE PUSH1 0x64 ADD PUSH2 0xB24 JUMP JUMPDEST PUSH2 0x2BE1 PUSH1 0x0 DUP4 DUP4 PUSH2 0x2897 JUMP JUMPDEST PUSH1 0x1 PUSH1 0x1 PUSH1 0xA0 SHL SUB DUP3 AND PUSH1 0x0 SWAP1 DUP2 MSTORE PUSH1 0x3 PUSH1 0x20 MSTORE PUSH1 0x40 DUP2 KECCAK256 DUP1 SLOAD PUSH1 0x1 SWAP3 SWAP1 PUSH2 0x2C0A SWAP1 DUP5 SWAP1 PUSH2 0x343E JUMP JUMPDEST SWAP1 SWAP2 SSTORE POP POP PUSH1 0x0 DUP2 DUP2 MSTORE PUSH1 0x2 PUSH1 0x20 MSTORE PUSH1 0x40 DUP1 DUP3 KECCAK256 DUP1 SLOAD PUSH1 0x1 PUSH1 0x1 PUSH1 0xA0 SHL SUB NOT AND PUSH1 0x1 PUSH1 0x1 PUSH1 0xA0 SHL SUB DUP7 AND SWAP1 DUP2 OR SWAP1 SWAP2 SSTORE SWAP1 MLOAD DUP4 SWAP3 SWAP1 PUSH32 0xDDF252AD1BE2C89B69C2B068FC378DAA952BA7F163C4A11628F55A4DF523B3EF SWAP1 DUP3 SWAP1 LOG4 POP POP JUMP JUMPDEST PUSH1 0x0 PUSH1 0x1 PUSH2 0x2C75 DUP5 PUSH2 0x155A JUMP JUMPDEST PUSH2 0x2C7F SWAP2 SWAP1 PUSH2 0x3542 JUMP JUMPDEST PUSH1 0x0 DUP4 DUP2 MSTORE PUSH1 0x7 PUSH1 0x20 MSTORE PUSH1 0x40 SWAP1 KECCAK256 SLOAD SWAP1 SWAP2 POP DUP1 DUP3 EQ PUSH2 0x2CD2 JUMPI PUSH1 0x1 PUSH1 0x1 PUSH1 0xA0 SHL SUB DUP5 AND PUSH1 0x0 SWAP1 DUP2 MSTORE PUSH1 0x6 PUSH1 0x20 SWAP1 DUP2 MSTORE PUSH1 0x40 DUP1 DUP4 KECCAK256 DUP6 DUP5 MSTORE DUP3 MSTORE DUP1 DUP4 KECCAK256 SLOAD DUP5 DUP5 MSTORE DUP2 DUP5 KECCAK256 DUP2 SWAP1 SSTORE DUP4 MSTORE PUSH1 0x7 SWAP1 SWAP2 MSTORE SWAP1 KECCAK256 DUP2 SWAP1 SSTORE JUMPDEST POP PUSH1 0x0 SWAP2 DUP3 MSTORE PUSH1 0x7 PUSH1 0x20 SWAP1 DUP2 MSTORE PUSH1 0x40 DUP1 DUP5 KECCAK256 DUP5 SWAP1 SSTORE PUSH1 0x1 PUSH1 0x1 PUSH1 0xA0 SHL SUB SWAP1 SWAP5 AND DUP4 MSTORE PUSH1 0x6 DUP2 MSTORE DUP4 DUP4 KECCAK256 SWAP2 DUP4 MSTORE MSTORE SWAP1 DUP2 KECCAK256 SSTORE JUMP JUMPDEST PUSH1 0x8 SLOAD PUSH1 0x0 SWAP1 PUSH2 0x2D17 SWAP1 PUSH1 0x1 SWAP1 PUSH2 0x3542 JUMP JUMPDEST PUSH1 0x0 DUP4 DUP2 MSTORE PUSH1 0x9 PUSH1 0x20 MSTORE PUSH1 0x40 DUP2 KECCAK256 SLOAD PUSH1 0x8 DUP1 SLOAD SWAP4 SWAP5 POP SWAP1 SWAP3 DUP5 SWAP1 DUP2 LT PUSH2 0x2D3F JUMPI PUSH2 0x2D3F PUSH2 0x33F7 JUMP JUMPDEST SWAP1 PUSH1 0x0 MSTORE PUSH1 0x20 PUSH1 0x0 KECCAK256 ADD SLOAD SWAP1 POP DUP1 PUSH1 0x8 DUP4 DUP2 SLOAD DUP2 LT PUSH2 0x2D60 JUMPI PUSH2 0x2D60 PUSH2 0x33F7 JUMP JUMPDEST PUSH1 0x0 SWAP2 DUP3 MSTORE PUSH1 0x20 DUP1 DUP4 KECCAK256 SWAP1 SWAP2 ADD SWAP3 SWAP1 SWAP3 SSTORE DUP3 DUP2 MSTORE PUSH1 0x9 SWAP1 SWAP2 MSTORE PUSH1 0x40 DUP1 DUP3 KECCAK256 DUP5 SWAP1 SSTORE DUP6 DUP3 MSTORE DUP2 KECCAK256 SSTORE PUSH1 0x8 DUP1 SLOAD DUP1 PUSH2 0x2D98 JUMPI PUSH2 0x2D98 PUSH2 0x3643 JUMP JUMPDEST PUSH1 0x1 SWAP1 SUB DUP2 DUP2 SWAP1 PUSH1 0x0 MSTORE PUSH1 0x20 PUSH1 0x0 KECCAK256 ADD PUSH1 0x0 SWAP1 SSTORE SWAP1 SSTORE POP POP POP POP JUMP JUMPDEST PUSH1 0x0 PUSH2 0x2DBF DUP4 PUSH2 0x155A JUMP JUMPDEST PUSH1 0x1 PUSH1 0x1 PUSH1 0xA0 SHL SUB SWAP1 SWAP4 AND PUSH1 0x0 SWAP1 DUP2 MSTORE PUSH1 0x6 PUSH1 0x20 SWAP1 DUP2 MSTORE PUSH1 0x40 DUP1 DUP4 KECCAK256 DUP7 DUP5 MSTORE DUP3 MSTORE DUP1 DUP4 KECCAK256 DUP6 SWAP1 SSTORE SWAP4 DUP3 MSTORE PUSH1 0x7 SWAP1 MSTORE SWAP2 SWAP1 SWAP2 KECCAK256 SWAP2 SWAP1 SWAP2 SSTORE POP JUMP JUMPDEST DUP3 DUP1 SLOAD PUSH2 0x2E04 SWAP1 PUSH2 0x330C JUMP JUMPDEST SWAP1 PUSH1 0x0 MSTORE PUSH1 0x20 PUSH1 0x0 KECCAK256 SWAP1 PUSH1 0x1F ADD PUSH1 0x20 SWAP1 DIV DUP2 ADD SWAP3 DUP3 PUSH2 0x2E26 JUMPI PUSH1 0x0 DUP6 SSTORE PUSH2 0x2E6C JUMP JUMPDEST DUP3 PUSH1 0x1F LT PUSH2 0x2E3F JUMPI DUP1 MLOAD PUSH1 0xFF NOT AND DUP4 DUP1 ADD OR DUP6 SSTORE PUSH2 0x2E6C JUMP JUMPDEST DUP3 DUP1 ADD PUSH1 0x1 ADD DUP6 SSTORE DUP3 ISZERO PUSH2 0x2E6C JUMPI SWAP2 DUP3 ADD JUMPDEST DUP3 DUP2 GT ISZERO PUSH2 0x2E6C JUMPI DUP3 MLOAD DUP3 SSTORE SWAP2 PUSH1 0x20 ADD SWAP2 SWAP1 PUSH1 0x1 ADD SWAP1 PUSH2 0x2E51 JUMP JUMPDEST POP PUSH2 0x2E78 SWAP3 SWAP2 POP PUSH2 0x2E7C JUMP JUMPDEST POP SWAP1 JUMP JUMPDEST JUMPDEST DUP1 DUP3 GT ISZERO PUSH2 0x2E78 JUMPI PUSH1 0x0 DUP2 SSTORE PUSH1 0x1 ADD PUSH2 0x2E7D JUMP JUMPDEST PUSH1 0x1 PUSH1 0x1 PUSH1 0xE0 SHL SUB NOT DUP2 AND DUP2 EQ PUSH2 0x11D4 JUMPI PUSH1 0x0 DUP1 REVERT JUMPDEST PUSH1 0x0 PUSH1 0x20 DUP3 DUP5 SUB SLT ISZERO PUSH2 0x2EB9 JUMPI PUSH1 0x0 DUP1 REVERT JUMPDEST DUP2 CALLDATALOAD PUSH2 0x2EC4 DUP2 PUSH2 0x2E91 JUMP JUMPDEST SWAP4 SWAP3 POP POP POP JUMP JUMPDEST PUSH1 0x0 JUMPDEST DUP4 DUP2 LT ISZERO PUSH2 0x2EE6 JUMPI DUP2 DUP2 ADD MLOAD DUP4 DUP3 ADD MSTORE PUSH1 0x20 ADD PUSH2 0x2ECE JUMP JUMPDEST DUP4 DUP2 GT ISZERO PUSH2 0x1CD4 JUMPI POP POP PUSH1 0x0 SWAP2 ADD MSTORE JUMP JUMPDEST PUSH1 0x0 DUP2 MLOAD DUP1 DUP5 MSTORE PUSH2 0x2F0F DUP2 PUSH1 0x20 DUP7 ADD PUSH1 0x20 DUP7 ADD PUSH2 0x2ECB JUMP JUMPDEST PUSH1 0x1F ADD PUSH1 0x1F NOT AND SWAP3 SWAP1 SWAP3 ADD PUSH1 0x20 ADD SWAP3 SWAP2 POP POP JUMP JUMPDEST PUSH1 0x20 DUP2 MSTORE PUSH1 0x0 PUSH2 0x2EC4 PUSH1 0x20 DUP4 ADD DUP5 PUSH2 0x2EF7 JUMP JUMPDEST PUSH1 0x0 PUSH1 0x20 DUP3 DUP5 SUB SLT ISZERO PUSH2 0x2F48 JUMPI PUSH1 0x0 DUP1 REVERT JUMPDEST POP CALLDATALOAD SWAP2 SWAP1 POP JUMP JUMPDEST DUP1 CALLDATALOAD PUSH1 0x1 PUSH1 0x1 PUSH1 0xA0 SHL SUB DUP2 AND DUP2 EQ PUSH2 0x2F66 JUMPI PUSH1 0x0 DUP1 REVERT JUMPDEST SWAP2 SWAP1 POP JUMP JUMPDEST PUSH1 0x0 DUP1 PUSH1 0x40 DUP4 DUP6 SUB SLT ISZERO PUSH2 0x2F7E JUMPI PUSH1 0x0 DUP1 REVERT JUMPDEST PUSH2 0x2F87 DUP4 PUSH2 0x2F4F JUMP JUMPDEST SWAP5 PUSH1 0x20 SWAP4 SWAP1 SWAP4 ADD CALLDATALOAD SWAP4 POP POP POP JUMP JUMPDEST PUSH4 0x4E487B71 PUSH1 0xE0 SHL PUSH1 0x0 MSTORE PUSH1 0x41 PUSH1 0x4 MSTORE PUSH1 0x24 PUSH1 0x0 REVERT JUMPDEST PUSH1 0x0 PUSH8 0xFFFFFFFFFFFFFFFF DUP1 DUP5 GT ISZERO PUSH2 0x2FC6 JUMPI PUSH2 0x2FC6 PUSH2 0x2F95 JUMP JUMPDEST PUSH1 0x40 MLOAD PUSH1 0x1F DUP6 ADD PUSH1 0x1F NOT SWAP1 DUP2 AND PUSH1 0x3F ADD AND DUP2 ADD SWAP1 DUP3 DUP3 GT DUP2 DUP4 LT OR ISZERO PUSH2 0x2FEE JUMPI PUSH2 0x2FEE PUSH2 0x2F95 JUMP JUMPDEST DUP2 PUSH1 0x40 MSTORE DUP1 SWAP4 POP DUP6 DUP2 MSTORE DUP7 DUP7 DUP7 ADD GT ISZERO PUSH2 0x3007 JUMPI PUSH1 0x0 DUP1 REVERT JUMPDEST DUP6 DUP6 PUSH1 0x20 DUP4 ADD CALLDATACOPY PUSH1 0x0 PUSH1 0x20 DUP8 DUP4 ADD ADD MSTORE POP POP POP SWAP4 SWAP3 POP POP POP JUMP JUMPDEST PUSH1 0x0 PUSH1 0x20 DUP3 DUP5 SUB SLT ISZERO PUSH2 0x3033 JUMPI PUSH1 0x0 DUP1 REVERT JUMPDEST DUP2 CALLDATALOAD PUSH8 0xFFFFFFFFFFFFFFFF DUP2 GT ISZERO PUSH2 0x304A JUMPI PUSH1 0x0 DUP1 REVERT JUMPDEST DUP3 ADD PUSH1 0x1F DUP2 ADD DUP5 SGT PUSH2 0x305B JUMPI PUSH1 0x0 DUP1 REVERT JUMPDEST PUSH2 0x2323 DUP5 DUP3 CALLDATALOAD PUSH1 0x20 DUP5 ADD PUSH2 0x2FAB JUMP JUMPDEST PUSH1 0x0 DUP1 PUSH1 0x0 PUSH1 0x60 DUP5 DUP7 SUB SLT ISZERO PUSH2 0x307F JUMPI PUSH1 0x0 DUP1 REVERT JUMPDEST PUSH2 0x3088 DUP5 PUSH2 0x2F4F JUMP JUMPDEST SWAP3 POP PUSH2 0x3096 PUSH1 0x20 DUP6 ADD PUSH2 0x2F4F JUMP JUMPDEST SWAP2 POP PUSH1 0x40 DUP5 ADD CALLDATALOAD SWAP1 POP SWAP3 POP SWAP3 POP SWAP3 JUMP JUMPDEST PUSH1 0x0 DUP1 PUSH1 0x20 DUP4 DUP6 SUB SLT ISZERO PUSH2 0x30B9 JUMPI PUSH1 0x0 DUP1 REVERT JUMPDEST DUP3 CALLDATALOAD PUSH8 0xFFFFFFFFFFFFFFFF DUP1 DUP3 GT ISZERO PUSH2 0x30D1 JUMPI PUSH1 0x0 DUP1 REVERT JUMPDEST DUP2 DUP6 ADD SWAP2 POP DUP6 PUSH1 0x1F DUP4 ADD SLT PUSH2 0x30E5 JUMPI PUSH1 0x0 DUP1 REVERT JUMPDEST DUP2 CALLDATALOAD DUP2 DUP2 GT ISZERO PUSH2 0x30F4 JUMPI PUSH1 0x0 DUP1 REVERT JUMPDEST DUP7 PUSH1 0x20 DUP3 PUSH1 0x5 SHL DUP6 ADD ADD GT ISZERO PUSH2 0x3109 JUMPI PUSH1 0x0 DUP1 REVERT JUMPDEST PUSH1 0x20 SWAP3 SWAP1 SWAP3 ADD SWAP7 SWAP2 SWAP6 POP SWAP1 SWAP4 POP POP POP POP JUMP JUMPDEST PUSH1 0x0 PUSH1 0x20 DUP3 DUP5 SUB SLT ISZERO PUSH2 0x312D JUMPI PUSH1 0x0 DUP1 REVERT JUMPDEST PUSH2 0x2EC4 DUP3 PUSH2 0x2F4F JUMP JUMPDEST PUSH1 0x20 DUP1 DUP3 MSTORE DUP3 MLOAD DUP3 DUP3 ADD DUP2 SWAP1 MSTORE PUSH1 0x0 SWAP2 SWAP1 DUP5 DUP3 ADD SWAP1 PUSH1 0x40 DUP6 ADD SWAP1 DUP5 JUMPDEST DUP2 DUP2 LT ISZERO PUSH2 0x316E JUMPI DUP4 MLOAD DUP4 MSTORE SWAP3 DUP5 ADD SWAP3 SWAP2 DUP5 ADD SWAP2 PUSH1 0x1 ADD PUSH2 0x3152 JUMP JUMPDEST POP SWAP1 SWAP7 SWAP6 POP POP POP POP POP POP JUMP JUMPDEST DUP1 CALLDATALOAD PUSH1 0xFF DUP2 AND DUP2 EQ PUSH2 0x2F66 JUMPI PUSH1 0x0 DUP1 REVERT JUMPDEST PUSH1 0x0 PUSH1 0x20 DUP3 DUP5 SUB SLT ISZERO PUSH2 0x319D JUMPI PUSH1 0x0 DUP1 REVERT JUMPDEST PUSH2 0x2EC4 DUP3 PUSH2 0x317A JUMP JUMPDEST PUSH1 0x0 DUP1 PUSH1 0x40 DUP4 DUP6 SUB SLT ISZERO PUSH2 0x31B9 JUMPI PUSH1 0x0 DUP1 REVERT JUMPDEST PUSH2 0x31C2 DUP4 PUSH2 0x2F4F JUMP JUMPDEST SWAP2 POP PUSH1 0x20 DUP4 ADD CALLDATALOAD DUP1 ISZERO ISZERO DUP2 EQ PUSH2 0x31D7 JUMPI PUSH1 0x0 DUP1 REVERT JUMPDEST DUP1 SWAP2 POP POP SWAP3 POP SWAP3 SWAP1 POP JUMP JUMPDEST PUSH1 0x0 DUP1 PUSH1 0x40 DUP4 DUP6 SUB SLT ISZERO PUSH2 0x31F5 JUMPI PUSH1 0x0 DUP1 REVERT JUMPDEST PUSH2 0x31FE DUP4 PUSH2 0x317A JUMP JUMPDEST SWAP2 POP PUSH2 0x320C PUSH1 0x20 DUP5 ADD PUSH2 0x2F4F JUMP JUMPDEST SWAP1 POP SWAP3 POP SWAP3 SWAP1 POP JUMP JUMPDEST PUSH1 0x0 DUP1 PUSH1 0x0 DUP1 PUSH1 0x80 DUP6 DUP8 SUB SLT ISZERO PUSH2 0x322B JUMPI PUSH1 0x0 DUP1 REVERT JUMPDEST PUSH2 0x3234 DUP6 PUSH2 0x2F4F JUMP JUMPDEST SWAP4 POP PUSH2 0x3242 PUSH1 0x20 DUP7 ADD PUSH2 0x2F4F JUMP JUMPDEST SWAP3 POP PUSH1 0x40 DUP6 ADD CALLDATALOAD SWAP2 POP PUSH1 0x60 DUP6 ADD CALLDATALOAD PUSH8 0xFFFFFFFFFFFFFFFF DUP2 GT ISZERO PUSH2 0x3265 JUMPI PUSH1 0x0 DUP1 REVERT JUMPDEST DUP6 ADD PUSH1 0x1F DUP2 ADD DUP8 SGT PUSH2 0x3276 JUMPI PUSH1 0x0 DUP1 REVERT JUMPDEST PUSH2 0x3285 DUP8 DUP3 CALLDATALOAD PUSH1 0x20 DUP5 ADD PUSH2 0x2FAB JUMP JUMPDEST SWAP2 POP POP SWAP3 SWAP6 SWAP2 SWAP5 POP SWAP3 POP JUMP JUMPDEST PUSH4 0x4E487B71 PUSH1 0xE0 SHL PUSH1 0x0 MSTORE PUSH1 0x21 PUSH1 0x4 MSTORE PUSH1 0x24 PUSH1 0x0 REVERT JUMPDEST PUSH1 0x20 DUP2 ADD PUSH1 0x5 DUP4 LT PUSH2 0x32C9 JUMPI PUSH4 0x4E487B71 PUSH1 0xE0 SHL PUSH1 0x0 MSTORE PUSH1 0x21 PUSH1 0x4 MSTORE PUSH1 0x24 PUSH1 0x0 REVERT JUMPDEST SWAP2 SWAP1 MSTORE SWAP1 JUMP JUMPDEST PUSH1 0x0 PUSH1 0x20 DUP3 DUP5 SUB SLT ISZERO PUSH2 0x32E1 JUMPI PUSH1 0x0 DUP1 REVERT JUMPDEST DUP2 CALLDATALOAD PUSH1 0x5 DUP2 LT PUSH2 0x2EC4 JUMPI PUSH1 0x0 DUP1 REVERT JUMPDEST PUSH1 0x0 DUP1 PUSH1 0x40 DUP4 DUP6 SUB SLT ISZERO PUSH2 0x3303 JUMPI PUSH1 0x0 DUP1 REVERT JUMPDEST PUSH2 0x31FE DUP4 PUSH2 0x2F4F JUMP JUMPDEST PUSH1 0x1 DUP2 DUP2 SHR SWAP1 DUP3 AND DUP1 PUSH2 0x3320 JUMPI PUSH1 0x7F DUP3 AND SWAP2 POP JUMPDEST PUSH1 0x20 DUP3 LT DUP2 EQ ISZERO PUSH2 0x3341 JUMPI PUSH4 0x4E487B71 PUSH1 0xE0 SHL PUSH1 0x0 MSTORE PUSH1 0x22 PUSH1 0x4 MSTORE PUSH1 0x24 PUSH1 0x0 REVERT JUMPDEST POP SWAP2 SWAP1 POP JUMP JUMPDEST PUSH1 0x20 DUP1 DUP3 MSTORE DUP2 DUP2 ADD MSTORE PUSH32 0x4F776E61626C653A2063616C6C6572206973206E6F7420746865206F776E6572 PUSH1 0x40 DUP3 ADD MSTORE PUSH1 0x60 ADD SWAP1 JUMP JUMPDEST PUSH1 0x20 DUP1 DUP3 MSTORE PUSH1 0x31 SWAP1 DUP3 ADD MSTORE PUSH32 0x4552433732313A207472616E736665722063616C6C6572206973206E6F74206F PUSH1 0x40 DUP3 ADD MSTORE PUSH17 0x1DDB995C881B9BDC88185C1C1C9BDD9959 PUSH1 0x7A SHL PUSH1 0x60 DUP3 ADD MSTORE PUSH1 0x80 ADD SWAP1 JUMP JUMPDEST PUSH1 0x20 DUP1 DUP3 MSTORE PUSH1 0x10 SWAP1 DUP3 ADD MSTORE PUSH16 0x14185D5CD8589B194E881C185D5CD959 PUSH1 0x82 SHL PUSH1 0x40 DUP3 ADD MSTORE PUSH1 0x60 ADD SWAP1 JUMP JUMPDEST PUSH4 0x4E487B71 PUSH1 0xE0 SHL PUSH1 0x0 MSTORE PUSH1 0x32 PUSH1 0x4 MSTORE PUSH1 0x24 PUSH1 0x0 REVERT JUMPDEST PUSH4 0x4E487B71 PUSH1 0xE0 SHL PUSH1 0x0 MSTORE PUSH1 0x11 PUSH1 0x4 MSTORE PUSH1 0x24 PUSH1 0x0 REVERT JUMPDEST PUSH1 0x0 PUSH1 0x0 NOT DUP3 EQ ISZERO PUSH2 0x3437 JUMPI PUSH2 0x3437 PUSH2 0x340D JUMP JUMPDEST POP PUSH1 0x1 ADD SWAP1 JUMP JUMPDEST PUSH1 0x0 DUP3 NOT DUP3 GT ISZERO PUSH2 0x3451 JUMPI PUSH2 0x3451 PUSH2 0x340D JUMP JUMPDEST POP ADD SWAP1 JUMP JUMPDEST PUSH1 0x0 DUP2 PUSH1 0x0 NOT DIV DUP4 GT DUP3 ISZERO ISZERO AND ISZERO PUSH2 0x3470 JUMPI PUSH2 0x3470 PUSH2 0x340D JUMP JUMPDEST POP MUL SWAP1 JUMP JUMPDEST DUP1 SLOAD PUSH1 0x0 SWAP1 PUSH1 0x1 DUP2 DUP2 SHR SWAP1 DUP1 DUP4 AND DUP1 PUSH2 0x348F JUMPI PUSH1 0x7F DUP4 AND SWAP3 POP JUMPDEST PUSH1 0x20 DUP1 DUP5 LT DUP3 EQ ISZERO PUSH2 0x34B1 JUMPI PUSH4 0x4E487B71 PUSH1 0xE0 SHL PUSH1 0x0 MSTORE PUSH1 0x22 PUSH1 0x4 MSTORE PUSH1 0x24 PUSH1 0x0 REVERT JUMPDEST DUP2 DUP1 ISZERO PUSH2 0x34C5 JUMPI PUSH1 0x1 DUP2 EQ PUSH2 0x34D6 JUMPI PUSH2 0x3503 JUMP JUMPDEST PUSH1 0xFF NOT DUP7 AND DUP10 MSTORE DUP5 DUP10 ADD SWAP7 POP PUSH2 0x3503 JUMP JUMPDEST PUSH1 0x0 DUP9 DUP2 MSTORE PUSH1 0x20 SWAP1 KECCAK256 PUSH1 0x0 JUMPDEST DUP7 DUP2 LT ISZERO PUSH2 0x34FB JUMPI DUP2 SLOAD DUP12 DUP3 ADD MSTORE SWAP1 DUP6 ADD SWAP1 DUP4 ADD PUSH2 0x34E2 JUMP JUMPDEST POP POP DUP5 DUP10 ADD SWAP7 POP JUMPDEST POP POP POP POP POP POP SWAP3 SWAP2 POP POP JUMP JUMPDEST PUSH1 0x0 PUSH2 0x351B DUP3 DUP7 PUSH2 0x3475 JUMP JUMPDEST DUP5 MLOAD PUSH2 0x352B DUP2 DUP4 PUSH1 0x20 DUP10 ADD PUSH2 0x2ECB JUMP JUMPDEST PUSH2 0x3537 DUP2 DUP4 ADD DUP7 PUSH2 0x3475 JUMP JUMPDEST SWAP8 SWAP7 POP POP POP POP POP POP POP JUMP JUMPDEST PUSH1 0x0 DUP3 DUP3 LT ISZERO PUSH2 0x3554 JUMPI PUSH2 0x3554 PUSH2 0x340D JUMP JUMPDEST POP SUB SWAP1 JUMP JUMPDEST PUSH1 0x20 DUP1 DUP3 MSTORE PUSH1 0x32 SWAP1 DUP3 ADD MSTORE PUSH32 0x4552433732313A207472616E7366657220746F206E6F6E204552433732315265 PUSH1 0x40 DUP3 ADD MSTORE PUSH18 0x31B2B4BB32B91034B6B83632B6B2B73A32B9 PUSH1 0x71 SHL PUSH1 0x60 DUP3 ADD MSTORE PUSH1 0x80 ADD SWAP1 JUMP JUMPDEST PUSH4 0x4E487B71 PUSH1 0xE0 SHL PUSH1 0x0 MSTORE PUSH1 0x12 PUSH1 0x4 MSTORE PUSH1 0x24 PUSH1 0x0 REVERT JUMPDEST PUSH1 0x0 DUP3 PUSH2 0x35D0 JUMPI PUSH2 0x35D0 PUSH2 0x35AB JUMP JUMPDEST POP DIV SWAP1 JUMP JUMPDEST PUSH1 0x0 DUP3 PUSH2 0x35E4 JUMPI PUSH2 0x35E4 PUSH2 0x35AB JUMP JUMPDEST POP MOD SWAP1 JUMP JUMPDEST PUSH1 0x1 PUSH1 0x1 PUSH1 0xA0 SHL SUB DUP6 DUP2 AND DUP3 MSTORE DUP5 AND PUSH1 0x20 DUP3 ADD MSTORE PUSH1 0x40 DUP2 ADD DUP4 SWAP1 MSTORE PUSH1 0x80 PUSH1 0x60 DUP3 ADD DUP2 SWAP1 MSTORE PUSH1 0x0 SWAP1 PUSH2 0x361C SWAP1 DUP4 ADD DUP5 PUSH2 0x2EF7 JUMP JUMPDEST SWAP7 SWAP6 POP POP POP POP POP POP JUMP JUMPDEST PUSH1 0x0 PUSH1 0x20 DUP3 DUP5 SUB SLT ISZERO PUSH2 0x3638 JUMPI PUSH1 0x0 DUP1 REVERT JUMPDEST DUP2 MLOAD PUSH2 0x2EC4 DUP2 PUSH2 0x2E91 JUMP JUMPDEST PUSH4 0x4E487B71 PUSH1 0xE0 SHL PUSH1 0x0 MSTORE PUSH1 0x31 PUSH1 0x4 MSTORE PUSH1 0x24 PUSH1 0x0 REVERT INVALID LOG2 PUSH5 0x6970667358 0x22 SLT KECCAK256 PUSH29 0x7AD4CB4580A48DBD0676AEA78263D34BC7E8637988BB55BF1B3388FACD PUSH25 0x7464736F6C634300080A003300000000000000000000000000 ",
  "sha1": "02c7103b61db0bea8e6429adfd3a1aa58a1dc303",
  "source": "// SPDX-License-Identifier: MIT\npragma solidity ^0.8.10;\n\nimport '@openzeppelin/contracts/token/ERC721/ERC721.sol';\nimport '@openzeppelin/contracts/token/ERC721/extensions/ERC721Enumerable.sol';\nimport '@openzeppelin/contracts/access/Ownable.sol';\nimport '@openzeppelin/contracts/security/ReentrancyGuard.sol';\nimport '@openzeppelin/contracts/utils/Counters.sol';\nimport '@openzeppelin/contracts/security/Pausable.sol';\nimport '@openzeppelin/contracts/utils/cryptography/MerkleProof.sol';\n\n/// @title CryptidToken NFT Contract\n/// @author @chrisrusselljr\n/// @notice You can use this contract to mint, sent, and interact with CRYPTIDS\n/// @dev All function calls are currently implemented without side effects\ncontract CryptidToken is ERC721, ERC721Enumerable, Pausable, Ownable, ReentrancyGuard{ \n    using Strings for uint256;\n    using Counters for Counters.Counter;\n    using MerkleProof for bytes32[];\n\n    enum Stage {\n        Init,\n        Airdrop,\n        Whitelist,\n        TeamMint,\n        PublicSale\n    }\n\n    Counters.Counter private _tokenIdCounter;\n    \n    bytes32 public merkleRoot;\n    string public provenanceHash;\n    string public baseURI = \"\";\n    string public baseExtension = \".json\";\n    uint8 public maxMintPerTx;     \n    bool public tokenURIFrozen = false;\n    bool public provenanceHashFrozen = false;\n\n    address public withdrawlAddress = 0x12B58f5331a6DC897932AA7FB5101667ACdf03e2;\n\n    // ~ Sale stages ~\n    // stage 0: Init\n    // stage 1: Airdrop\n    // stage 2: Whitelist\n    // stage 3: Team Mint \n    // stage 4: Public Sale\n\n    // Whitelist mint (stage=2)\n    uint256 public whitelistSupply;                       \n    mapping(address => bool) public claimed;              \n    \n    // Team Mint (stage=3)\n    uint256 public teamMintSupply;                          \n    uint256 public teamMintCount;\n\n    // Public Sale (stage=4)\n    uint256 public totalSaleSupply;         \n    uint256 public salePrice = 0.1 ether;  \n\n    Stage public stage;\n\n    constructor(\n        string memory _name,\n        string memory _symbol,\n        string memory _baseURI,\n        uint256 _whitelistSupply,\n        uint256 _teamMintSupply,\n        uint256 _totalSaleSupply,\n        uint8 _maxMintPerTx\n\n    )   ERC721(_name, _symbol) {\n        whitelistSupply = _whitelistSupply;\n        teamMintSupply = _teamMintSupply;\n        totalSaleSupply = _totalSaleSupply;\n        maxMintPerTx = _maxMintPerTx;\n        baseURI = _baseURI;\n        _tokenIdCounter.increment();\n    }\n\n    // Stage 1 - Airdrop\n    function airdropCryptid(\n        uint8 mintAmount, \n        address to\n    ) \n        external\n        onlyOwner \n    {\n        require(stage > Stage.Init, \"No airdrops at init.\");\n        require(totalSupply()  + mintAmount <= totalSaleSupply, \"Mint amount will exceed total sale supply.\");\n        for (uint256 i = 1; i <= mintAmount; i++) {\n            _safeMint(to, _tokenIdCounter.current());\n            _tokenIdCounter.increment();\n        }\n    }\n\n    // Stage 2 - Whitelist Sale\n    function whitelistMint(\n        bytes32[] calldata merkleProof\n    ) \n        external\n        payable \n        nonReentrant \n        whenNotPaused \n    {\n        require(salePrice == msg.value, \"Incorrect ETH value sent.\");\n        require(stage == Stage.Whitelist, \"Whitelist sale not initiated.\");\n        require(merkleProof.verify(merkleRoot, keccak256(abi.encodePacked(msg.sender))), \"Address not in whitelist.\");\n        require(claimed[msg.sender] == false, \"Whitelist mint already claimed.\"); \n        claimed[msg.sender] = true;\n        _safeMint(msg.sender, _tokenIdCounter.current());\n        _tokenIdCounter.increment();\n    }\n\n    // Stage 3 - Team Mint\n    function teamMint(\n        uint8 mintAmount\n    ) \n        external \n        onlyOwner \n    {\n        require(stage == Stage.TeamMint, \"Team mint not initiated.\");\n        require(mintAmount + teamMintCount <= teamMintSupply, \"Transaction exceeds total team sale supply.\");     \n        teamMintCount += mintAmount;\n        for (uint256 i = 1; i <= mintAmount; i++) {\n            _safeMint(msg.sender, _tokenIdCounter.current());\n            _tokenIdCounter.increment();\n        }\n    }\n\n    // Stage 4 - Public Mint\n    function publicMint(\n        uint8 mintAmount\n    ) \n        external\n        payable \n        nonReentrant \n        whenNotPaused  \n    {\n        require(salePrice * mintAmount == msg.value, \"Incorrect ETH value sent.\");\n        require(stage == Stage.PublicSale, \"Public Sale not initiated.\");\n        require(totalSupply()  + mintAmount <= totalSaleSupply, \"Transaction exceeds total sale supply.\");\n        require(mintAmount <= maxMintPerTx, \"Exceeds max allowed mints per transaction.\");  \n        for (uint256 i = 1; i <= mintAmount; i++) {\n            _safeMint(msg.sender, _tokenIdCounter.current());\n            _tokenIdCounter.increment();\n        }\n    }\n\n    //Owner functions\n    function pause() external onlyOwner {\n        _pause();\n    }\n\n    function unpause() external onlyOwner {\n        _unpause();\n    }\n\n    // to be used in case of manual override\n    function setClaim(address wlAddress) external onlyOwner{\n        claimed[wlAddress] = true;\n    }\n\n    // to be used in case of WL error\n    function undoClaim(address wlAddress) external onlyOwner{\n        claimed[wlAddress] = false;\n    }\n\n    function setMerkleRoot(bytes32 _merkleRoot) external onlyOwner {\n        merkleRoot = _merkleRoot;\n    }\n\n    function setBaseURI(string memory _newBaseURI) external onlyOwner {\n        require(!tokenURIFrozen, \"BaseURI is frozen.\");\n        baseURI = _newBaseURI;\n    } \n    \n    function freezeBaseURI() external onlyOwner {\n        require(bytes(baseURI).length > 0, \"BaseURI cannot be empty.\");\n        require(!tokenURIFrozen, \"BaseURI is already frozen.\");\n        tokenURIFrozen = true;\n    }\n\n    function setBaseExtension(string memory _newBaseExtension) external onlyOwner {\n        baseExtension = _newBaseExtension;\n    }\n\n    function setProvenanceHash(string memory _provenanceHash) external onlyOwner {\n        require(bytes(_provenanceHash).length > 0, \"Provenance hash cannot be empty string.\");\n        require(!provenanceHashFrozen, \"Provenance hash is frozen.\");\n        provenanceHash = _provenanceHash;\n    }\n\n    function freezeProvenanceHash() external onlyOwner {\n        require(bytes(provenanceHash).length > 0, \"Provenance hash is not set.\");\n        require(!provenanceHashFrozen, \"Provenance hash is already frozen.\");\n        provenanceHashFrozen = true;\n    }\n\n    function setWithdrawlAddress(address _withdrawlAddress) external onlyOwner {\n        withdrawlAddress = _withdrawlAddress;\n    }\n\n    function withdraw() external payable onlyOwner {\n        require(address(this).balance > 0, \"Contract balance is 0.\");\n        (bool success, ) = payable(withdrawlAddress).call{value: address(this).balance}(\"\");\n        require(success, \"Withdrawl failed.\");\n    }\n\n    function setStage(Stage _stage) external onlyOwner {\n        require(provenanceHashFrozen == true, \"Provenance hash must be frozen before minting can start.\");\n        require(merkleRoot != 0, \"Merkle root must be set beefore minting can start.\");\n        stage = _stage;\n    }\n\n    // External view functions\n    function lastMintAddress() external view returns (address){\n        return ownerOf(totalSupply());\n    }\n\n    function lastMintID() external view returns (uint256){\n        return(totalSupply());\n    }\n\n    function tokenURI(uint256 tokenId) public view virtual override returns (string memory) {\n        require(_exists(tokenId), \"ERC721Metadata: URI query for nonexistent token.\");\n        return string(abi.encodePacked(baseURI, tokenId.toString(), baseExtension));\n    }\n\n    function getTokensLeft() external view returns (uint256) {\n        return totalSaleSupply - totalSupply();\n    }\n    \n    function walletOfOwner(address owner) external view returns (uint256[] memory) {\n        uint256 ownerTokenCount = balanceOf(owner);\n        uint256[] memory tokensIds = new uint256[](ownerTokenCount);\n        for (uint256 i; i < ownerTokenCount; i++) {\n            tokensIds[i] = tokenOfOwnerByIndex(owner, i);\n        }\n        return tokensIds;\n    }\n    \n    function _beforeTokenTransfer(address from, address to, uint256 tokenId) internal whenNotPaused override(ERC721, ERC721Enumerable) {\n        super._beforeTokenTransfer(from, to, tokenId);\n    }\n\n    // The following functions are overrides required by Solidity.\n\n    function supportsInterface(bytes4 interfaceId) public view override(ERC721, ERC721Enumerable) returns (bool) {\n        return super.supportsInterface(interfaceId);\n    }\n\n}",
  "sourcePath": "contracts/CryptidToken.sol",
  "type": "contract"
}