{
  "abi": [
    {
      "inputs": [
        {
          "internalType": "string",
          "name": "_name",
          "type": "string"
        },
        {
          "internalType": "string",
          "name": "_symbol",
          "type": "string"
        },
        {
          "internalType": "string",
          "name": "_baseURI",
          "type": "string"
        },
        {
          "internalType": "uint256",
          "name": "_whitelistSupply",
          "type": "uint256"
        },
        {
          "internalType": "uint256",
          "name": "_teamMintSupply",
          "type": "uint256"
        },
        {
          "internalType": "uint256",
          "name": "_totalSaleSupply",
          "type": "uint256"
        },
        {
          "internalType": "uint256",
          "name": "_maxMintPerTx",
          "type": "uint256"
        }
      ],
      "stateMutability": "nonpayable",
      "type": "constructor"
    },
    {
      "anonymous": false,
      "inputs": [
        {
          "indexed": true,
          "internalType": "address",
          "name": "owner",
          "type": "address"
        },
        {
          "indexed": true,
          "internalType": "address",
          "name": "approved",
          "type": "address"
        },
        {
          "indexed": true,
          "internalType": "uint256",
          "name": "tokenId",
          "type": "uint256"
        }
      ],
      "name": "Approval",
      "type": "event"
    },
    {
      "anonymous": false,
      "inputs": [
        {
          "indexed": true,
          "internalType": "address",
          "name": "owner",
          "type": "address"
        },
        {
          "indexed": true,
          "internalType": "address",
          "name": "operator",
          "type": "address"
        },
        {
          "indexed": false,
          "internalType": "bool",
          "name": "approved",
          "type": "bool"
        }
      ],
      "name": "ApprovalForAll",
      "type": "event"
    },
    {
      "anonymous": false,
      "inputs": [
        {
          "indexed": true,
          "internalType": "address",
          "name": "previousOwner",
          "type": "address"
        },
        {
          "indexed": true,
          "internalType": "address",
          "name": "newOwner",
          "type": "address"
        }
      ],
      "name": "OwnershipTransferred",
      "type": "event"
    },
    {
      "anonymous": false,
      "inputs": [
        {
          "indexed": false,
          "internalType": "address",
          "name": "account",
          "type": "address"
        }
      ],
      "name": "Paused",
      "type": "event"
    },
    {
      "anonymous": false,
      "inputs": [
        {
          "indexed": true,
          "internalType": "address",
          "name": "from",
          "type": "address"
        },
        {
          "indexed": true,
          "internalType": "address",
          "name": "to",
          "type": "address"
        },
        {
          "indexed": true,
          "internalType": "uint256",
          "name": "tokenId",
          "type": "uint256"
        }
      ],
      "name": "Transfer",
      "type": "event"
    },
    {
      "anonymous": false,
      "inputs": [
        {
          "indexed": false,
          "internalType": "address",
          "name": "account",
          "type": "address"
        }
      ],
      "name": "Unpaused",
      "type": "event"
    },
    {
      "inputs": [
        {
          "internalType": "uint8",
          "name": "mintAmount",
          "type": "uint8"
        },
        {
          "internalType": "address",
          "name": "to",
          "type": "address"
        }
      ],
      "name": "airdropCryptid",
      "outputs": [],
      "stateMutability": "nonpayable",
      "type": "function"
    },
    {
      "inputs": [
        {
          "internalType": "address",
          "name": "to",
          "type": "address"
        },
        {
          "internalType": "uint256",
          "name": "tokenId",
          "type": "uint256"
        }
      ],
      "name": "approve",
      "outputs": [],
      "stateMutability": "nonpayable",
      "type": "function"
    },
    {
      "inputs": [
        {
          "internalType": "address",
          "name": "owner",
          "type": "address"
        }
      ],
      "name": "balanceOf",
      "outputs": [
        {
          "internalType": "uint256",
          "name": "",
          "type": "uint256"
        }
      ],
      "stateMutability": "view",
      "type": "function"
    },
    {
      "inputs": [],
      "name": "baseExtension",
      "outputs": [
        {
          "internalType": "string",
          "name": "",
          "type": "string"
        }
      ],
      "stateMutability": "view",
      "type": "function"
    },
    {
      "inputs": [],
      "name": "baseURI",
      "outputs": [
        {
          "internalType": "string",
          "name": "",
          "type": "string"
        }
      ],
      "stateMutability": "view",
      "type": "function"
    },
    {
      "inputs": [
        {
          "internalType": "address",
          "name": "",
          "type": "address"
        }
      ],
      "name": "claimed",
      "outputs": [
        {
          "internalType": "bool",
          "name": "",
          "type": "bool"
        }
      ],
      "stateMutability": "view",
      "type": "function"
    },
    {
      "inputs": [],
      "name": "freezeBaseURI",
      "outputs": [],
      "stateMutability": "nonpayable",
      "type": "function"
    },
    {
      "inputs": [],
      "name": "freezeProvenanceHash",
      "outputs": [],
      "stateMutability": "nonpayable",
      "type": "function"
    },
    {
      "inputs": [
        {
          "internalType": "uint256",
          "name": "tokenId",
          "type": "uint256"
        }
      ],
      "name": "getApproved",
      "outputs": [
        {
          "internalType": "address",
          "name": "",
          "type": "address"
        }
      ],
      "stateMutability": "view",
      "type": "function"
    },
    {
      "inputs": [],
      "name": "getTokensLeft",
      "outputs": [
        {
          "internalType": "uint256",
          "name": "",
          "type": "uint256"
        }
      ],
      "stateMutability": "view",
      "type": "function"
    },
    {
      "inputs": [
        {
          "internalType": "address",
          "name": "owner",
          "type": "address"
        },
        {
          "internalType": "address",
          "name": "operator",
          "type": "address"
        }
      ],
      "name": "isApprovedForAll",
      "outputs": [
        {
          "internalType": "bool",
          "name": "",
          "type": "bool"
        }
      ],
      "stateMutability": "view",
      "type": "function"
    },
    {
      "inputs": [],
      "name": "lastMintAddress",
      "outputs": [
        {
          "internalType": "address",
          "name": "",
          "type": "address"
        }
      ],
      "stateMutability": "view",
      "type": "function"
    },
    {
      "inputs": [],
      "name": "lastMintID",
      "outputs": [
        {
          "internalType": "uint256",
          "name": "",
          "type": "uint256"
        }
      ],
      "stateMutability": "view",
      "type": "function"
    },
    {
      "inputs": [],
      "name": "maxMintPerTx",
      "outputs": [
        {
          "internalType": "uint256",
          "name": "",
          "type": "uint256"
        }
      ],
      "stateMutability": "view",
      "type": "function"
    },
    {
      "inputs": [],
      "name": "merkleRoot",
      "outputs": [
        {
          "internalType": "bytes32",
          "name": "",
          "type": "bytes32"
        }
      ],
      "stateMutability": "view",
      "type": "function"
    },
    {
      "inputs": [],
      "name": "name",
      "outputs": [
        {
          "internalType": "string",
          "name": "",
          "type": "string"
        }
      ],
      "stateMutability": "view",
      "type": "function"
    },
    {
      "inputs": [],
      "name": "owner",
      "outputs": [
        {
          "internalType": "address",
          "name": "",
          "type": "address"
        }
      ],
      "stateMutability": "view",
      "type": "function"
    },
    {
      "inputs": [
        {
          "internalType": "uint256",
          "name": "tokenId",
          "type": "uint256"
        }
      ],
      "name": "ownerOf",
      "outputs": [
        {
          "internalType": "address",
          "name": "",
          "type": "address"
        }
      ],
      "stateMutability": "view",
      "type": "function"
    },
    {
      "inputs": [],
      "name": "pause",
      "outputs": [],
      "stateMutability": "nonpayable",
      "type": "function"
    },
    {
      "inputs": [],
      "name": "paused",
      "outputs": [
        {
          "internalType": "bool",
          "name": "",
          "type": "bool"
        }
      ],
      "stateMutability": "view",
      "type": "function"
    },
    {
      "inputs": [],
      "name": "provenanceHash",
      "outputs": [
        {
          "internalType": "string",
          "name": "",
          "type": "string"
        }
      ],
      "stateMutability": "view",
      "type": "function"
    },
    {
      "inputs": [],
      "name": "provenanceHashFrozen",
      "outputs": [
        {
          "internalType": "bool",
          "name": "",
          "type": "bool"
        }
      ],
      "stateMutability": "view",
      "type": "function"
    },
    {
      "inputs": [
        {
          "internalType": "uint256",
          "name": "mintAmount",
          "type": "uint256"
        }
      ],
      "name": "publicMint",
      "outputs": [],
      "stateMutability": "payable",
      "type": "function"
    },
    {
      "inputs": [],
      "name": "renounceOwnership",
      "outputs": [],
      "stateMutability": "nonpayable",
      "type": "function"
    },
    {
      "inputs": [
        {
          "internalType": "address",
          "name": "from",
          "type": "address"
        },
        {
          "internalType": "address",
          "name": "to",
          "type": "address"
        },
        {
          "internalType": "uint256",
          "name": "tokenId",
          "type": "uint256"
        }
      ],
      "name": "safeTransferFrom",
      "outputs": [],
      "stateMutability": "nonpayable",
      "type": "function"
    },
    {
      "inputs": [
        {
          "internalType": "address",
          "name": "from",
          "type": "address"
        },
        {
          "internalType": "address",
          "name": "to",
          "type": "address"
        },
        {
          "internalType": "uint256",
          "name": "tokenId",
          "type": "uint256"
        },
        {
          "internalType": "bytes",
          "name": "_data",
          "type": "bytes"
        }
      ],
      "name": "safeTransferFrom",
      "outputs": [],
      "stateMutability": "nonpayable",
      "type": "function"
    },
    {
      "inputs": [],
      "name": "salePrice",
      "outputs": [
        {
          "internalType": "uint256",
          "name": "",
          "type": "uint256"
        }
      ],
      "stateMutability": "view",
      "type": "function"
    },
    {
      "inputs": [
        {
          "internalType": "address",
          "name": "operator",
          "type": "address"
        },
        {
          "internalType": "bool",
          "name": "approved",
          "type": "bool"
        }
      ],
      "name": "setApprovalForAll",
      "outputs": [],
      "stateMutability": "nonpayable",
      "type": "function"
    },
    {
      "inputs": [
        {
          "internalType": "string",
          "name": "_newBaseExtension",
          "type": "string"
        }
      ],
      "name": "setBaseExtension",
      "outputs": [],
      "stateMutability": "nonpayable",
      "type": "function"
    },
    {
      "inputs": [
        {
          "internalType": "string",
          "name": "_newBaseURI",
          "type": "string"
        }
      ],
      "name": "setBaseURI",
      "outputs": [],
      "stateMutability": "nonpayable",
      "type": "function"
    },
    {
      "inputs": [
        {
          "internalType": "address",
          "name": "wlAddress",
          "type": "address"
        }
      ],
      "name": "setClaim",
      "outputs": [],
      "stateMutability": "nonpayable",
      "type": "function"
    },
    {
      "inputs": [
        {
          "internalType": "uint256",
          "name": "_maxMintPerTx",
          "type": "uint256"
        }
      ],
      "name": "setMaxMintPerTx",
      "outputs": [],
      "stateMutability": "nonpayable",
      "type": "function"
    },
    {
      "inputs": [
        {
          "internalType": "bytes32",
          "name": "_merkleRoot",
          "type": "bytes32"
        }
      ],
      "name": "setMerkleRoot",
      "outputs": [],
      "stateMutability": "nonpayable",
      "type": "function"
    },
    {
      "inputs": [
        {
          "internalType": "string",
          "name": "_provenanceHash",
          "type": "string"
        }
      ],
      "name": "setProvenanceHash",
      "outputs": [],
      "stateMutability": "nonpayable",
      "type": "function"
    },
    {
      "inputs": [
        {
          "internalType": "uint256",
          "name": "_salePrice",
          "type": "uint256"
        }
      ],
      "name": "setSalePrice",
      "outputs": [],
      "stateMutability": "nonpayable",
      "type": "function"
    },
    {
      "inputs": [
        {
          "internalType": "enum CryptidToken.Stage",
          "name": "_stage",
          "type": "uint8"
        }
      ],
      "name": "setStage",
      "outputs": [],
      "stateMutability": "nonpayable",
      "type": "function"
    },
    {
      "inputs": [
        {
          "internalType": "address",
          "name": "_withdrawlAddress",
          "type": "address"
        }
      ],
      "name": "setWithdrawlAddress",
      "outputs": [],
      "stateMutability": "nonpayable",
      "type": "function"
    },
    {
      "inputs": [],
      "name": "stage",
      "outputs": [
        {
          "internalType": "enum CryptidToken.Stage",
          "name": "",
          "type": "uint8"
        }
      ],
      "stateMutability": "view",
      "type": "function"
    },
    {
      "inputs": [
        {
          "internalType": "bytes4",
          "name": "interfaceId",
          "type": "bytes4"
        }
      ],
      "name": "supportsInterface",
      "outputs": [
        {
          "internalType": "bool",
          "name": "",
          "type": "bool"
        }
      ],
      "stateMutability": "view",
      "type": "function"
    },
    {
      "inputs": [],
      "name": "symbol",
      "outputs": [
        {
          "internalType": "string",
          "name": "",
          "type": "string"
        }
      ],
      "stateMutability": "view",
      "type": "function"
    },
    {
      "inputs": [
        {
          "internalType": "uint8",
          "name": "mintAmount",
          "type": "uint8"
        }
      ],
      "name": "teamMint",
      "outputs": [],
      "stateMutability": "nonpayable",
      "type": "function"
    },
    {
      "inputs": [],
      "name": "teamMintCount",
      "outputs": [
        {
          "internalType": "uint256",
          "name": "",
          "type": "uint256"
        }
      ],
      "stateMutability": "view",
      "type": "function"
    },
    {
      "inputs": [],
      "name": "teamMintSupply",
      "outputs": [
        {
          "internalType": "uint256",
          "name": "",
          "type": "uint256"
        }
      ],
      "stateMutability": "view",
      "type": "function"
    },
    {
      "inputs": [
        {
          "internalType": "uint256",
          "name": "index",
          "type": "uint256"
        }
      ],
      "name": "tokenByIndex",
      "outputs": [
        {
          "internalType": "uint256",
          "name": "",
          "type": "uint256"
        }
      ],
      "stateMutability": "view",
      "type": "function"
    },
    {
      "inputs": [
        {
          "internalType": "address",
          "name": "owner",
          "type": "address"
        },
        {
          "internalType": "uint256",
          "name": "index",
          "type": "uint256"
        }
      ],
      "name": "tokenOfOwnerByIndex",
      "outputs": [
        {
          "internalType": "uint256",
          "name": "",
          "type": "uint256"
        }
      ],
      "stateMutability": "view",
      "type": "function"
    },
    {
      "inputs": [
        {
          "internalType": "uint256",
          "name": "tokenId",
          "type": "uint256"
        }
      ],
      "name": "tokenURI",
      "outputs": [
        {
          "internalType": "string",
          "name": "",
          "type": "string"
        }
      ],
      "stateMutability": "view",
      "type": "function"
    },
    {
      "inputs": [],
      "name": "tokenURIFrozen",
      "outputs": [
        {
          "internalType": "bool",
          "name": "",
          "type": "bool"
        }
      ],
      "stateMutability": "view",
      "type": "function"
    },
    {
      "inputs": [],
      "name": "totalSaleSupply",
      "outputs": [
        {
          "internalType": "uint256",
          "name": "",
          "type": "uint256"
        }
      ],
      "stateMutability": "view",
      "type": "function"
    },
    {
      "inputs": [],
      "name": "totalSupply",
      "outputs": [
        {
          "internalType": "uint256",
          "name": "",
          "type": "uint256"
        }
      ],
      "stateMutability": "view",
      "type": "function"
    },
    {
      "inputs": [
        {
          "internalType": "address",
          "name": "from",
          "type": "address"
        },
        {
          "internalType": "address",
          "name": "to",
          "type": "address"
        },
        {
          "internalType": "uint256",
          "name": "tokenId",
          "type": "uint256"
        }
      ],
      "name": "transferFrom",
      "outputs": [],
      "stateMutability": "nonpayable",
      "type": "function"
    },
    {
      "inputs": [
        {
          "internalType": "address",
          "name": "newOwner",
          "type": "address"
        }
      ],
      "name": "transferOwnership",
      "outputs": [],
      "stateMutability": "nonpayable",
      "type": "function"
    },
    {
      "inputs": [
        {
          "internalType": "address",
          "name": "wlAddress",
          "type": "address"
        }
      ],
      "name": "undoClaim",
      "outputs": [],
      "stateMutability": "nonpayable",
      "type": "function"
    },
    {
      "inputs": [],
      "name": "unpause",
      "outputs": [],
      "stateMutability": "nonpayable",
      "type": "function"
    },
    {
      "inputs": [
        {
          "internalType": "address",
          "name": "account",
          "type": "address"
        },
        {
          "internalType": "bytes32[]",
          "name": "merkleProof",
          "type": "bytes32[]"
        }
      ],
      "name": "verify",
      "outputs": [
        {
          "internalType": "bool",
          "name": "",
          "type": "bool"
        }
      ],
      "stateMutability": "view",
      "type": "function"
    },
    {
      "inputs": [
        {
          "internalType": "address",
          "name": "owner",
          "type": "address"
        }
      ],
      "name": "walletOfOwner",
      "outputs": [
        {
          "internalType": "uint256[]",
          "name": "",
          "type": "uint256[]"
        }
      ],
      "stateMutability": "view",
      "type": "function"
    },
    {
      "inputs": [
        {
          "internalType": "bytes32[]",
          "name": "merkleProof",
          "type": "bytes32[]"
        }
      ],
      "name": "whitelistMint",
      "outputs": [],
      "stateMutability": "payable",
      "type": "function"
    },
    {
      "inputs": [],
      "name": "whitelistSupply",
      "outputs": [
        {
          "internalType": "uint256",
          "name": "",
          "type": "uint256"
        }
      ],
      "stateMutability": "view",
      "type": "function"
    },
    {
      "inputs": [],
      "name": "withdraw",
      "outputs": [],
      "stateMutability": "payable",
      "type": "function"
    },
    {
      "inputs": [],
      "name": "withdrawlAddress",
      "outputs": [
        {
          "internalType": "address",
          "name": "",
          "type": "address"
        }
      ],
      "stateMutability": "view",
      "type": "function"
    }
  ],
  "bytecode": "60a06040819052600060808190526200001b91600f91620001ab565b5060408051808201909152600580825264173539b7b760d91b60209092019182526200004a91601091620001ab565b50601280546001600160b01b0319167512b58f5331a6dc897932aa7fb5101667acdf03e20000179055662386f26fc100006018553480156200008b57600080fd5b5060405162003c5638038062003c56833981016040819052620000ae916200031e565b865187908790620000c7906000906020850190620001ab565b508051620000dd906001906020840190620001ab565b5050600a805460ff1916905550620000f53362000148565b6001600b55601384905560158390556017829055601181905584516200012390600f906020880190620001ab565b506200013b600c620001a260201b620022d71760201c565b5050505050505062000413565b600a80546001600160a01b03838116610100818102610100600160a81b031985161790945560405193909204169182907f8be0079c531659141344cd1fd0a4f28419497f9722a3daafe3b4186f6b6457e090600090a35050565b80546001019055565b828054620001b990620003d6565b90600052602060002090601f016020900481019282620001dd576000855562000228565b82601f10620001f857805160ff191683800117855562000228565b8280016001018555821562000228579182015b82811115620002285782518255916020019190600101906200020b565b50620002369291506200023a565b5090565b5b808211156200023657600081556001016200023b565b634e487b7160e01b600052604160045260246000fd5b600082601f8301126200027957600080fd5b81516001600160401b038082111562000296576200029662000251565b604051601f8301601f19908116603f01168101908282118183101715620002c157620002c162000251565b81604052838152602092508683858801011115620002de57600080fd5b600091505b83821015620003025785820183015181830184015290820190620002e3565b83821115620003145760008385830101525b9695505050505050565b600080600080600080600060e0888a0312156200033a57600080fd5b87516001600160401b03808211156200035257600080fd5b620003608b838c0162000267565b985060208a01519150808211156200037757600080fd5b620003858b838c0162000267565b975060408a01519150808211156200039c57600080fd5b50620003ab8a828b0162000267565b955050606088015193506080880151925060a0880151915060c0880151905092959891949750929550565b600181811c90821680620003eb57607f821691505b602082108114156200040d57634e487b7160e01b600052602260045260246000fd5b50919050565b61383380620004236000396000f3fe60806040526004361061038c5760003560e01c80637b671780116101dc578063c668286211610102578063de5f9866116100a0578063f2fde38b1161006f578063f2fde38b146109f4578063f4efa3e614610a14578063f51f96dd14610a34578063ffa9cd3b14610a4a57600080fd5b8063de5f98661461096b578063de7fcb1d14610980578063e7bc820814610996578063e985e9c5146109ab57600080fd5b8063c884ef83116100dc578063c884ef83146108e6578063ce3cd99714610916578063d6d67a0914610936578063da3ef23f1461094b57600080fd5b8063c66828621461089c578063c6ab67a3146108b1578063c87b56dd146108c657600080fd5b8063a22cb4651161017a578063bb31b77b11610149578063bb31b77b14610825578063c040e6b814610845578063c29de6301461086c578063c32145811461088657600080fd5b8063a22cb465146107a5578063b3caad01146107c5578063b76a0df4146107e5578063b88d4fde1461080557600080fd5b80638456cb59116101b65780638456cb59146107395780638da5cb5b1461074e57806395d89b41146107715780639a2a9c3d1461078657600080fd5b80637b671780146106e45780637cb647591461070457806381c162f21461072457600080fd5b80633ccfd60b116102c15780635c975abb1161025f5780636cbb89851161022e5780636cbb89851461068457806370a0823114610699578063715018a6146106b957806378231978146106ce57600080fd5b80635c975abb14610617578063616cdb1e1461062f5780636352211e1461064f5780636c0360eb1461066f57600080fd5b8063438b63001161029b578063438b63001461058a5780634f6ccce7146105b757806355f804b3146105d757806357ed9e4e146105f757600080fd5b80633ccfd60b1461054d5780633f4ba83a1461055557806342842e0e1461056a57600080fd5b80631919fed71161032e5780632eb4a7ab116103085780632eb4a7ab146104ee5780632f745c591461050457806333e6141314610524578063372f657c1461053a57600080fd5b80631919fed71461049b57806323b872dd146104bb5780632db11544146104db57600080fd5b8063088139a61161036a578063088139a614610420578063095ea7b314610444578063109695231461046657806318160ddd1461048657600080fd5b806301ffc9a71461039157806306fdde03146103c6578063081812fc146103e8575b600080fd5b34801561039d57600080fd5b506103b16103ac366004612fe6565b610a70565b60405190151581526020015b60405180910390f35b3480156103d257600080fd5b506103db610a81565b6040516103bd919061305b565b3480156103f457600080fd5b5061040861040336600461306e565b610b13565b6040516001600160a01b0390911681526020016103bd565b34801561042c57600080fd5b5061043660165481565b6040519081526020016103bd565b34801561045057600080fd5b5061046461045f3660046130a3565b610bad565b005b34801561047257600080fd5b50610464610481366004613159565b610cc3565b34801561049257600080fd5b50600854610436565b3480156104a757600080fd5b506104646104b636600461306e565b610dc3565b3480156104c757600080fd5b506104646104d63660046131a2565b610df8565b6104646104e936600461306e565b610e29565b3480156104fa57600080fd5b50610436600d5481565b34801561051057600080fd5b5061043661051f3660046130a3565b611080565b34801561053057600080fd5b5061043660135481565b61046461054836600461322a565b611116565b61046461139e565b34801561056157600080fd5b506104646114b7565b34801561057657600080fd5b506104646105853660046131a2565b6114f1565b34801561059657600080fd5b506105aa6105a536600461326c565b61150c565b6040516103bd9190613287565b3480156105c357600080fd5b506104366105d236600461306e565b6115ae565b3480156105e357600080fd5b506104646105f2366004613159565b611641565b34801561060357600080fd5b5061046461061236600461326c565b6116cc565b34801561062357600080fd5b50600a5460ff166103b1565b34801561063b57600080fd5b5061046461064a36600461306e565b61171d565b34801561065b57600080fd5b5061040861066a36600461306e565b611752565b34801561067b57600080fd5b506103db6117c9565b34801561069057600080fd5b50610408611857565b3480156106a557600080fd5b506104366106b436600461326c565b61186a565b3480156106c557600080fd5b506104646118f1565b3480156106da57600080fd5b5061043660175481565b3480156106f057600080fd5b506104646106ff3660046132dc565b61192b565b34801561071057600080fd5b5061046461071f36600461306e565b611a8b565b34801561073057600080fd5b50610464611ac0565b34801561074557600080fd5b50610464611bc2565b34801561075a57600080fd5b50600a5461010090046001600160a01b0316610408565b34801561077d57600080fd5b506103db611bfa565b34801561079257600080fd5b506012546103b190610100900460ff1681565b3480156107b157600080fd5b506104646107c03660046132f7565b611c09565b3480156107d157600080fd5b506104646107e0366004613333565b611c14565b3480156107f157600080fd5b506103b1610800366004613366565b611d56565b34801561081157600080fd5b506104646108203660046133b9565b611dea565b34801561083157600080fd5b5061046461084036600461326c565b611e22565b34801561085157600080fd5b5060195461085f9060ff1681565b6040516103bd919061344b565b34801561087857600080fd5b506012546103b19060ff1681565b34801561089257600080fd5b5061043660155481565b3480156108a857600080fd5b506103db611e76565b3480156108bd57600080fd5b506103db611e83565b3480156108d257600080fd5b506103db6108e136600461306e565b611e90565b3480156108f257600080fd5b506103b161090136600461326c565b60146020526000908152604090205460ff1681565b34801561092257600080fd5b50610464610931366004613473565b611f45565b34801561094257600080fd5b50610436612089565b34801561095757600080fd5b50610464610966366004613159565b612094565b34801561097757600080fd5b506104366120d7565b34801561098c57600080fd5b5061043660115481565b3480156109a257600080fd5b506104646120ef565b3480156109b757600080fd5b506103b16109c6366004613494565b6001600160a01b03918216600090815260056020908152604080832093909416825291909152205460ff1690565b348015610a0057600080fd5b50610464610a0f36600461326c565b6121df565b348015610a2057600080fd5b50610464610a2f36600461326c565b61227d565b348015610a4057600080fd5b5061043660185481565b348015610a5657600080fd5b50601254610408906201000090046001600160a01b031681565b6000610a7b826122e0565b92915050565b606060008054610a90906134b0565b80601f0160208091040260200160405190810160405280929190818152602001828054610abc906134b0565b8015610b095780601f10610ade57610100808354040283529160200191610b09565b820191906000526020600020905b815481529060010190602001808311610aec57829003601f168201915b5050505050905090565b6000818152600260205260408120546001600160a01b0316610b915760405162461bcd60e51b815260206004820152602c60248201527f4552433732313a20617070726f76656420717565727920666f72206e6f6e657860448201526b34b9ba32b73a103a37b5b2b760a11b60648201526084015b60405180910390fd5b506000908152600460205260409020546001600160a01b031690565b6000610bb882611752565b9050806001600160a01b0316836001600160a01b03161415610c265760405162461bcd60e51b815260206004820152602160248201527f4552433732313a20617070726f76616c20746f2063757272656e74206f776e656044820152603960f91b6064820152608401610b88565b336001600160a01b0382161480610c425750610c4281336109c6565b610cb45760405162461bcd60e51b815260206004820152603860248201527f4552433732313a20617070726f76652063616c6c6572206973206e6f74206f7760448201527f6e6572206e6f7220617070726f76656420666f7220616c6c00000000000000006064820152608401610b88565b610cbe8383612305565b505050565b600a546001600160a01b03610100909104163314610cf35760405162461bcd60e51b8152600401610b88906134eb565b6000815111610d545760405162461bcd60e51b815260206004820152602760248201527f50726f76656e616e636520686173682063616e6e6f7420626520656d7074792060448201526639ba3934b7339760c91b6064820152608401610b88565b601254610100900460ff1615610dac5760405162461bcd60e51b815260206004820152601a60248201527f50726f76656e616e636520686173682069732066726f7a656e2e0000000000006044820152606401610b88565b8051610dbf90600e906020840190612f37565b5050565b600a546001600160a01b03610100909104163314610df35760405162461bcd60e51b8152600401610b88906134eb565b601855565b610e023382612373565b610e1e5760405162461bcd60e51b8152600401610b8890613520565b610cbe83838361246a565b6002600b541415610e7c5760405162461bcd60e51b815260206004820152601f60248201527f5265656e7472616e637947756172643a207265656e7472616e742063616c6c006044820152606401610b88565b6002600b55600a5460ff1615610ea45760405162461bcd60e51b8152600401610b8890613571565b600460195460ff166004811115610ebd57610ebd613435565b14610f0a5760405162461bcd60e51b815260206004820152601a60248201527f5075626c69632053616c65206e6f7420696e697469617465642e0000000000006044820152606401610b88565b3481601854610f1991906135b1565b14610f625760405162461bcd60e51b815260206004820152601960248201527824b731b7b93932b1ba1022aa24103b30b63ab29039b2b73a1760391b6044820152606401610b88565b60175481610f6f60085490565b610f7991906135d0565b1115610fd65760405162461bcd60e51b815260206004820152602660248201527f5472616e73616374696f6e206578636565647320746f74616c2073616c6520736044820152653ab838363c9760d11b6064820152608401610b88565b60115481111561103b5760405162461bcd60e51b815260206004820152602a60248201527f45786365656473206d617820616c6c6f776564206d696e74732070657220747260448201526930b739b0b1ba34b7b71760b11b6064820152608401610b88565b60015b8181116110775761105733611052600c5490565b612611565b611065600c80546001019055565b8061106f816135e8565b91505061103e565b50506001600b55565b600061108b8361186a565b82106110ed5760405162461bcd60e51b815260206004820152602b60248201527f455243373231456e756d657261626c653a206f776e657220696e646578206f7560448201526a74206f6620626f756e647360a81b6064820152608401610b88565b506001600160a01b03919091166000908152600660209081526040808320938352929052205490565b6002600b5414156111695760405162461bcd60e51b815260206004820152601f60248201527f5265656e7472616e637947756172643a207265656e7472616e742063616c6c006044820152606401610b88565b6002600b55600a5460ff16156111915760405162461bcd60e51b8152600401610b8890613571565b600260195460ff1660048111156111aa576111aa613435565b146111f75760405162461bcd60e51b815260206004820152601d60248201527f57686974656c6973742073616c65206e6f7420696e697469617465642e0000006044820152606401610b88565b34601854146112445760405162461bcd60e51b815260206004820152601960248201527824b731b7b93932b1ba1022aa24103b30b63ab29039b2b73a1760391b6044820152606401610b88565b600d546040516bffffffffffffffffffffffff193360601b1660208201526112bd91906034016040516020818303038152906040528051906020012084848080602002602001604051908101604052809392919081815260200183836020028082843760009201919091525092949392505061262b9050565b6113095760405162461bcd60e51b815260206004820152601960248201527f41646472657373206e6f7420696e2077686974656c6973742e000000000000006044820152606401610b88565b3360009081526014602052604090205460ff16156113695760405162461bcd60e51b815260206004820152601f60248201527f57686974656c697374206d696e7420616c726561647920636c61696d65642e006044820152606401610b88565b336000818152601460205260409020805460ff1916600117905561139090611052600c5490565b611077600c80546001019055565b600a546001600160a01b036101009091041633146113ce5760405162461bcd60e51b8152600401610b88906134eb565b600047116114175760405162461bcd60e51b815260206004820152601660248201527521b7b73a3930b1ba103130b630b731b29034b990181760511b6044820152606401610b88565b6012546040516000916201000090046001600160a01b03169047908381818185875af1925050503d806000811461146a576040519150601f19603f3d011682016040523d82523d6000602084013e61146f565b606091505b50509050806114b45760405162461bcd60e51b81526020600482015260116024820152702bb4ba34323930bbb6103330b4b632b21760791b6044820152606401610b88565b50565b600a546001600160a01b036101009091041633146114e75760405162461bcd60e51b8152600401610b88906134eb565b6114ef612641565b565b610cbe83838360405180602001604052806000815250611dea565b606060006115198361186a565b905060008167ffffffffffffffff811115611536576115366130cd565b60405190808252806020026020018201604052801561155f578160200160208202803683370190505b50905060005b828110156115a6576115778582611080565b82828151811061158957611589613603565b60209081029190910101528061159e816135e8565b915050611565565b509392505050565b60006115b960085490565b821061161c5760405162461bcd60e51b815260206004820152602c60248201527f455243373231456e756d657261626c653a20676c6f62616c20696e646578206f60448201526b7574206f6620626f756e647360a01b6064820152608401610b88565b6008828154811061162f5761162f613603565b90600052602060002001549050919050565b600a546001600160a01b036101009091041633146116715760405162461bcd60e51b8152600401610b88906134eb565b60125460ff16156116b95760405162461bcd60e51b81526020600482015260126024820152712130b9b2aaa9249034b990333937bd32b71760711b6044820152606401610b88565b8051610dbf90600f906020840190612f37565b600a546001600160a01b036101009091041633146116fc5760405162461bcd60e51b8152600401610b88906134eb565b6001600160a01b03166000908152601460205260409020805460ff19169055565b600a546001600160a01b0361010090910416331461174d5760405162461bcd60e51b8152600401610b88906134eb565b601155565b6000818152600260205260408120546001600160a01b031680610a7b5760405162461bcd60e51b815260206004820152602960248201527f4552433732313a206f776e657220717565727920666f72206e6f6e657869737460448201526832b73a103a37b5b2b760b91b6064820152608401610b88565b600f80546117d6906134b0565b80601f0160208091040260200160405190810160405280929190818152602001828054611802906134b0565b801561184f5780601f106118245761010080835404028352916020019161184f565b820191906000526020600020905b81548152906001019060200180831161183257829003601f168201915b505050505081565b600061186561066a60085490565b905090565b60006001600160a01b0382166118d55760405162461bcd60e51b815260206004820152602a60248201527f4552433732313a2062616c616e636520717565727920666f7220746865207a65604482015269726f206164647265737360b01b6064820152608401610b88565b506001600160a01b031660009081526003602052604090205490565b600a546001600160a01b036101009091041633146119215760405162461bcd60e51b8152600401610b88906134eb565b6114ef60006126d4565b600a546001600160a01b0361010090910416331461195b5760405162461bcd60e51b8152600401610b88906134eb565b600360195460ff16600481111561197457611974613435565b146119c15760405162461bcd60e51b815260206004820152601860248201527f5465616d206d696e74206e6f7420696e697469617465642e00000000000000006044820152606401610b88565b6015546016546119d49060ff84166135d0565b1115611a365760405162461bcd60e51b815260206004820152602b60248201527f5472616e73616374696f6e206578636565647320746f74616c207465616d207360448201526a30b6329039bab838363c9760a91b6064820152608401610b88565b8060ff1660166000828254611a4b91906135d0565b90915550600190505b8160ff168111610dbf57611a6b33611052600c5490565b611a79600c80546001019055565b80611a83816135e8565b915050611a54565b600a546001600160a01b03610100909104163314611abb5760405162461bcd60e51b8152600401610b88906134eb565b600d55565b600a546001600160a01b03610100909104163314611af05760405162461bcd60e51b8152600401610b88906134eb565b6000600e8054611aff906134b0565b905011611b4e5760405162461bcd60e51b815260206004820152601b60248201527f50726f76656e616e63652068617368206973206e6f74207365742e00000000006044820152606401610b88565b601254610100900460ff1615611bb15760405162461bcd60e51b815260206004820152602260248201527f50726f76656e616e6365206861736820697320616c72656164792066726f7a65604482015261371760f11b6064820152608401610b88565b6012805461ff001916610100179055565b600a546001600160a01b03610100909104163314611bf25760405162461bcd60e51b8152600401610b88906134eb565b6114ef61272e565b606060018054610a90906134b0565b610dbf338383612786565b600a546001600160a01b03610100909104163314611c445760405162461bcd60e51b8152600401610b88906134eb565b600060195460ff166004811115611c5d57611c5d613435565b11611ca15760405162461bcd60e51b815260206004820152601460248201527327379030b4b9323937b8399030ba1034b734ba1760611b6044820152606401610b88565b6017548260ff16611cb160085490565b611cbb91906135d0565b1115611d1c5760405162461bcd60e51b815260206004820152602a60248201527f4d696e7420616d6f756e742077696c6c2065786365656420746f74616c20736160448201526936329039bab838363c9760b11b6064820152608401610b88565b60015b8260ff168111610cbe57611d3682611052600c5490565b611d44600c80546001019055565b80611d4e816135e8565b915050611d1f565b600d546040516bffffffffffffffffffffffff19606086901b166020820152600091611dd2916034016040516020818303038152906040528051906020012085858080602002602001604051908101604052809392919081815260200183836020028082843760009201919091525092949392505061262b9050565b15611ddf57506001611de3565b5060005b9392505050565b611df43383612373565b611e105760405162461bcd60e51b8152600401610b8890613520565b611e1c84848484612855565b50505050565b600a546001600160a01b03610100909104163314611e525760405162461bcd60e51b8152600401610b88906134eb565b6001600160a01b03166000908152601460205260409020805460ff19166001179055565b601080546117d6906134b0565b600e80546117d6906134b0565b6000818152600260205260409020546060906001600160a01b0316611f105760405162461bcd60e51b815260206004820152603060248201527f4552433732314d657461646174613a2055524920717565727920666f72206e6f60448201526f3732bc34b9ba32b73a103a37b5b2b71760811b6064820152608401610b88565b600f611f1b83612888565b6010604051602001611f2f939291906136b3565b6040516020818303038152906040529050919050565b600a546001600160a01b03610100909104163314611f755760405162461bcd60e51b8152600401610b88906134eb565b60125460ff610100909104161515600114611ff85760405162461bcd60e51b815260206004820152603860248201527f50726f76656e616e63652068617368206d7573742062652066726f7a656e206260448201527f65666f7265206d696e74696e672063616e2073746172742e00000000000000006064820152608401610b88565b600d546120625760405162461bcd60e51b815260206004820152603260248201527f4d65726b6c6520726f6f74206d7573742062652073657420626565666f72652060448201527136b4b73a34b7339031b0b71039ba30b93a1760711b6064820152608401610b88565b6019805482919060ff1916600183600481111561208157612081613435565b021790555050565b600061186560085490565b600a546001600160a01b036101009091041633146120c45760405162461bcd60e51b8152600401610b88906134eb565b8051610dbf906010906020840190612f37565b60006120e260085490565b60175461186591906136e6565b600a546001600160a01b0361010090910416331461211f5760405162461bcd60e51b8152600401610b88906134eb565b6000600f805461212e906134b0565b90501161217d5760405162461bcd60e51b815260206004820152601860248201527f426173655552492063616e6e6f7420626520656d7074792e00000000000000006044820152606401610b88565b60125460ff16156121d05760405162461bcd60e51b815260206004820152601a60248201527f4261736555524920697320616c72656164792066726f7a656e2e0000000000006044820152606401610b88565b6012805460ff19166001179055565b600a546001600160a01b0361010090910416331461220f5760405162461bcd60e51b8152600401610b88906134eb565b6001600160a01b0381166122745760405162461bcd60e51b815260206004820152602660248201527f4f776e61626c653a206e6577206f776e657220697320746865207a65726f206160448201526564647265737360d01b6064820152608401610b88565b6114b4816126d4565b600a546001600160a01b036101009091041633146122ad5760405162461bcd60e51b8152600401610b88906134eb565b601280546001600160a01b03909216620100000262010000600160b01b0319909216919091179055565b80546001019055565b60006001600160e01b0319821663780e9d6360e01b1480610a7b5750610a7b82612986565b600081815260046020526040902080546001600160a01b0319166001600160a01b038416908117909155819061233a82611752565b6001600160a01b03167f8c5be1e5ebec7d5bd14f71427d1e84f3dd0314c0f7b2291e5b200ac8c7c3b92560405160405180910390a45050565b6000818152600260205260408120546001600160a01b03166123ec5760405162461bcd60e51b815260206004820152602c60248201527f4552433732313a206f70657261746f7220717565727920666f72206e6f6e657860448201526b34b9ba32b73a103a37b5b2b760a11b6064820152608401610b88565b60006123f783611752565b9050806001600160a01b0316846001600160a01b031614806124325750836001600160a01b031661242784610b13565b6001600160a01b0316145b8061246257506001600160a01b0380821660009081526005602090815260408083209388168352929052205460ff165b949350505050565b826001600160a01b031661247d82611752565b6001600160a01b0316146124e15760405162461bcd60e51b815260206004820152602560248201527f4552433732313a207472616e736665722066726f6d20696e636f72726563742060448201526437bbb732b960d91b6064820152608401610b88565b6001600160a01b0382166125435760405162461bcd60e51b8152602060048201526024808201527f4552433732313a207472616e7366657220746f20746865207a65726f206164646044820152637265737360e01b6064820152608401610b88565b61254e8383836129d6565b612559600082612305565b6001600160a01b03831660009081526003602052604081208054600192906125829084906136e6565b90915550506001600160a01b03821660009081526003602052604081208054600192906125b09084906135d0565b909155505060008181526002602052604080822080546001600160a01b0319166001600160a01b0386811691821790925591518493918716917fddf252ad1be2c89b69c2b068fc378daa952ba7f163c4a11628f55a4df523b3ef91a4505050565b610dbf828260405180602001604052806000815250612a04565b6000826126388584612a37565b14949350505050565b600a5460ff1661268a5760405162461bcd60e51b815260206004820152601460248201527314185d5cd8589b194e881b9bdd081c185d5cd95960621b6044820152606401610b88565b600a805460ff191690557f5db9ee0a495bf2e6ff9c91a7834c1ba4fdd244a5e8aa4e537bd38aeae4b073aa335b6040516001600160a01b03909116815260200160405180910390a1565b600a80546001600160a01b03838116610100818102610100600160a81b031985161790945560405193909204169182907f8be0079c531659141344cd1fd0a4f28419497f9722a3daafe3b4186f6b6457e090600090a35050565b600a5460ff16156127515760405162461bcd60e51b8152600401610b8890613571565b600a805460ff191660011790557f62e78cea01bee320cd4e420270b5ea74000d11b0c9f74754ebdbfc544b05a2586126b73390565b816001600160a01b0316836001600160a01b031614156127e85760405162461bcd60e51b815260206004820152601960248201527f4552433732313a20617070726f766520746f2063616c6c6572000000000000006044820152606401610b88565b6001600160a01b03838116600081815260056020908152604080832094871680845294825291829020805460ff191686151590811790915591519182527f17307eab39ab6107e8899845ad3d59bd9653f200f220920489ca2b5937696c31910160405180910390a3505050565b61286084848461246a565b61286c84848484612aa3565b611e1c5760405162461bcd60e51b8152600401610b88906136fd565b6060816128ac5750506040805180820190915260018152600360fc1b602082015290565b8160005b81156128d657806128c0816135e8565b91506128cf9050600a83613765565b91506128b0565b60008167ffffffffffffffff8111156128f1576128f16130cd565b6040519080825280601f01601f19166020018201604052801561291b576020820181803683370190505b5090505b8415612462576129306001836136e6565b915061293d600a86613779565b6129489060306135d0565b60f81b81838151811061295d5761295d613603565b60200101906001600160f81b031916908160001a90535061297f600a86613765565b945061291f565b60006001600160e01b031982166380ac58cd60e01b14806129b757506001600160e01b03198216635b5e139f60e01b145b80610a7b57506301ffc9a760e01b6001600160e01b0319831614610a7b565b600a5460ff16156129f95760405162461bcd60e51b8152600401610b8890613571565b610cbe838383612ba1565b612a0e8383612c59565b612a1b6000848484612aa3565b610cbe5760405162461bcd60e51b8152600401610b88906136fd565b600081815b84518110156115a6576000858281518110612a5957612a59613603565b60200260200101519050808311612a7f5760008381526020829052604090209250612a90565b600081815260208490526040902092505b5080612a9b816135e8565b915050612a3c565b60006001600160a01b0384163b15612b9657604051630a85bd0160e11b81526001600160a01b0385169063150b7a0290612ae790339089908890889060040161378d565b6020604051808303816000875af1925050508015612b22575060408051601f3d908101601f19168201909252612b1f918101906137ca565b60015b612b7c573d808015612b50576040519150601f19603f3d011682016040523d82523d6000602084013e612b55565b606091505b508051612b745760405162461bcd60e51b8152600401610b88906136fd565b805181602001fd5b6001600160e01b031916630a85bd0160e11b149050612462565b506001949350505050565b6001600160a01b038316612bfc57612bf781600880546000838152600960205260408120829055600182018355919091527ff3f7a9fe364faab93b216da50a3214154f22a0a2b415b23a84c8169e8b636ee30155565b612c1f565b816001600160a01b0316836001600160a01b031614612c1f57612c1f8382612da7565b6001600160a01b038216612c3657610cbe81612e44565b826001600160a01b0316826001600160a01b031614610cbe57610cbe8282612ef3565b6001600160a01b038216612caf5760405162461bcd60e51b815260206004820181905260248201527f4552433732313a206d696e7420746f20746865207a65726f20616464726573736044820152606401610b88565b6000818152600260205260409020546001600160a01b031615612d145760405162461bcd60e51b815260206004820152601c60248201527f4552433732313a20746f6b656e20616c7265616479206d696e746564000000006044820152606401610b88565b612d20600083836129d6565b6001600160a01b0382166000908152600360205260408120805460019290612d499084906135d0565b909155505060008181526002602052604080822080546001600160a01b0319166001600160a01b03861690811790915590518392907fddf252ad1be2c89b69c2b068fc378daa952ba7f163c4a11628f55a4df523b3ef908290a45050565b60006001612db48461186a565b612dbe91906136e6565b600083815260076020526040902054909150808214612e11576001600160a01b03841660009081526006602090815260408083208584528252808320548484528184208190558352600790915290208190555b5060009182526007602090815260408084208490556001600160a01b039094168352600681528383209183525290812055565b600854600090612e56906001906136e6565b60008381526009602052604081205460088054939450909284908110612e7e57612e7e613603565b906000526020600020015490508060088381548110612e9f57612e9f613603565b6000918252602080832090910192909255828152600990915260408082208490558582528120556008805480612ed757612ed76137e7565b6001900381819060005260206000200160009055905550505050565b6000612efe8361186a565b6001600160a01b039093166000908152600660209081526040808320868452825280832085905593825260079052919091209190915550565b828054612f43906134b0565b90600052602060002090601f016020900481019282612f655760008555612fab565b82601f10612f7e57805160ff1916838001178555612fab565b82800160010185558215612fab579182015b82811115612fab578251825591602001919060010190612f90565b50612fb7929150612fbb565b5090565b5b80821115612fb75760008155600101612fbc565b6001600160e01b0319811681146114b457600080fd5b600060208284031215612ff857600080fd5b8135611de381612fd0565b60005b8381101561301e578181015183820152602001613006565b83811115611e1c5750506000910152565b60008151808452613047816020860160208601613003565b601f01601f19169290920160200192915050565b602081526000611de3602083018461302f565b60006020828403121561308057600080fd5b5035919050565b80356001600160a01b038116811461309e57600080fd5b919050565b600080604083850312156130b657600080fd5b6130bf83613087565b946020939093013593505050565b634e487b7160e01b600052604160045260246000fd5b600067ffffffffffffffff808411156130fe576130fe6130cd565b604051601f8501601f19908116603f01168101908282118183101715613126576131266130cd565b8160405280935085815286868601111561313f57600080fd5b858560208301376000602087830101525050509392505050565b60006020828403121561316b57600080fd5b813567ffffffffffffffff81111561318257600080fd5b8201601f8101841361319357600080fd5b612462848235602084016130e3565b6000806000606084860312156131b757600080fd5b6131c084613087565b92506131ce60208501613087565b9150604084013590509250925092565b60008083601f8401126131f057600080fd5b50813567ffffffffffffffff81111561320857600080fd5b6020830191508360208260051b850101111561322357600080fd5b9250929050565b6000806020838503121561323d57600080fd5b823567ffffffffffffffff81111561325457600080fd5b613260858286016131de565b90969095509350505050565b60006020828403121561327e57600080fd5b611de382613087565b6020808252825182820181905260009190848201906040850190845b818110156132bf578351835292840192918401916001016132a3565b50909695505050505050565b803560ff8116811461309e57600080fd5b6000602082840312156132ee57600080fd5b611de3826132cb565b6000806040838503121561330a57600080fd5b61331383613087565b91506020830135801515811461332857600080fd5b809150509250929050565b6000806040838503121561334657600080fd5b61334f836132cb565b915061335d60208401613087565b90509250929050565b60008060006040848603121561337b57600080fd5b61338484613087565b9250602084013567ffffffffffffffff8111156133a057600080fd5b6133ac868287016131de565b9497909650939450505050565b600080600080608085870312156133cf57600080fd5b6133d885613087565b93506133e660208601613087565b925060408501359150606085013567ffffffffffffffff81111561340957600080fd5b8501601f8101871361341a57600080fd5b613429878235602084016130e3565b91505092959194509250565b634e487b7160e01b600052602160045260246000fd5b602081016005831061346d57634e487b7160e01b600052602160045260246000fd5b91905290565b60006020828403121561348557600080fd5b813560058110611de357600080fd5b600080604083850312156134a757600080fd5b61334f83613087565b600181811c908216806134c457607f821691505b602082108114156134e557634e487b7160e01b600052602260045260246000fd5b50919050565b6020808252818101527f4f776e61626c653a2063616c6c6572206973206e6f7420746865206f776e6572604082015260600190565b60208082526031908201527f4552433732313a207472616e736665722063616c6c6572206973206e6f74206f6040820152701ddb995c881b9bdc88185c1c1c9bdd9959607a1b606082015260800190565b60208082526010908201526f14185d5cd8589b194e881c185d5cd95960821b604082015260600190565b634e487b7160e01b600052601160045260246000fd5b60008160001904831182151516156135cb576135cb61359b565b500290565b600082198211156135e3576135e361359b565b500190565b60006000198214156135fc576135fc61359b565b5060010190565b634e487b7160e01b600052603260045260246000fd5b8054600090600181811c908083168061363357607f831692505b602080841082141561365557634e487b7160e01b600052602260045260246000fd5b818015613669576001811461367a576136a7565b60ff198616895284890196506136a7565b60008881526020902060005b8681101561369f5781548b820152908501908301613686565b505084890196505b50505050505092915050565b60006136bf8286613619565b84516136cf818360208901613003565b6136db81830186613619565b979650505050505050565b6000828210156136f8576136f861359b565b500390565b60208082526032908201527f4552433732313a207472616e7366657220746f206e6f6e20455243373231526560408201527131b2b4bb32b91034b6b83632b6b2b73a32b960711b606082015260800190565b634e487b7160e01b600052601260045260246000fd5b6000826137745761377461374f565b500490565b6000826137885761378861374f565b500690565b6001600160a01b03858116825284166020820152604081018390526080606082018190526000906137c09083018461302f565b9695505050505050565b6000602082840312156137dc57600080fd5b8151611de381612fd0565b634e487b7160e01b600052603160045260246000fdfea264697066735822122079c892872283c8ae5f6b75100079d4bc693d91028b2ae8af1bfe2f1dba809a3764736f6c634300080b0033",
  "bytecodeSha1": "0ac2f3109f56849d35bd2ccbf867232619b05c1c",
  "compiler": {
    "evm_version": "istanbul",
    "optimizer": {
      "enabled": true,
      "runs": 200
    },
    "version": "0.8.11+commit.d7f03943"
  },
  "contractName": "CryptidToken",
  "language": "Solidity",
  "natspec": {
    "author": "@chrisrusselljr",
    "details": "All function calls are currently implemented without side effects",
    "kind": "dev",
    "methods": {
      "approve(address,uint256)": {
        "details": "See {IERC721-approve}."
      },
      "balanceOf(address)": {
        "details": "See {IERC721-balanceOf}."
      },
      "getApproved(uint256)": {
        "details": "See {IERC721-getApproved}."
      },
      "isApprovedForAll(address,address)": {
        "details": "See {IERC721-isApprovedForAll}."
      },
      "name()": {
        "details": "See {IERC721Metadata-name}."
      },
      "owner()": {
        "details": "Returns the address of the current owner."
      },
      "ownerOf(uint256)": {
        "details": "See {IERC721-ownerOf}."
      },
      "paused()": {
        "details": "Returns true if the contract is paused, and false otherwise."
      },
      "renounceOwnership()": {
        "details": "Leaves the contract without owner. It will not be possible to call `onlyOwner` functions anymore. Can only be called by the current owner. NOTE: Renouncing ownership will leave the contract without an owner, thereby removing any functionality that is only available to the owner."
      },
      "safeTransferFrom(address,address,uint256)": {
        "details": "See {IERC721-safeTransferFrom}."
      },
      "safeTransferFrom(address,address,uint256,bytes)": {
        "details": "See {IERC721-safeTransferFrom}."
      },
      "setApprovalForAll(address,bool)": {
        "details": "See {IERC721-setApprovalForAll}."
      },
      "symbol()": {
        "details": "See {IERC721Metadata-symbol}."
      },
      "tokenByIndex(uint256)": {
        "details": "See {IERC721Enumerable-tokenByIndex}."
      },
      "tokenOfOwnerByIndex(address,uint256)": {
        "details": "See {IERC721Enumerable-tokenOfOwnerByIndex}."
      },
      "tokenURI(uint256)": {
        "details": "See {IERC721Metadata-tokenURI}."
      },
      "totalSupply()": {
        "details": "See {IERC721Enumerable-totalSupply}."
      },
      "transferFrom(address,address,uint256)": {
        "details": "See {IERC721-transferFrom}."
      },
      "transferOwnership(address)": {
        "details": "Transfers ownership of the contract to a new account (`newOwner`). Can only be called by the current owner."
      }
    },
    "notice": "You can use this contract to mint, send, and interact with CRYPTIDS",
    "title": "CryptidToken NFT Contract",
    "version": 1
  },
  "opcodes": "PUSH1 0x80 PUSH1 0x40 MSTORE PUSH1 0x4 CALLDATASIZE LT PUSH2 0x38C JUMPI PUSH1 0x0 CALLDATALOAD PUSH1 0xE0 SHR DUP1 PUSH4 0x7B671780 GT PUSH2 0x1DC JUMPI DUP1 PUSH4 0xC6682862 GT PUSH2 0x102 JUMPI DUP1 PUSH4 0xDE5F9866 GT PUSH2 0xA0 JUMPI DUP1 PUSH4 0xF2FDE38B GT PUSH2 0x6F JUMPI DUP1 PUSH4 0xF2FDE38B EQ PUSH2 0x9F4 JUMPI DUP1 PUSH4 0xF4EFA3E6 EQ PUSH2 0xA14 JUMPI DUP1 PUSH4 0xF51F96DD EQ PUSH2 0xA34 JUMPI DUP1 PUSH4 0xFFA9CD3B EQ PUSH2 0xA4A JUMPI PUSH1 0x0 DUP1 REVERT JUMPDEST DUP1 PUSH4 0xDE5F9866 EQ PUSH2 0x96B JUMPI DUP1 PUSH4 0xDE7FCB1D EQ PUSH2 0x980 JUMPI DUP1 PUSH4 0xE7BC8208 EQ PUSH2 0x996 JUMPI DUP1 PUSH4 0xE985E9C5 EQ PUSH2 0x9AB JUMPI PUSH1 0x0 DUP1 REVERT JUMPDEST DUP1 PUSH4 0xC884EF83 GT PUSH2 0xDC JUMPI DUP1 PUSH4 0xC884EF83 EQ PUSH2 0x8E6 JUMPI DUP1 PUSH4 0xCE3CD997 EQ PUSH2 0x916 JUMPI DUP1 PUSH4 0xD6D67A09 EQ PUSH2 0x936 JUMPI DUP1 PUSH4 0xDA3EF23F EQ PUSH2 0x94B JUMPI PUSH1 0x0 DUP1 REVERT JUMPDEST DUP1 PUSH4 0xC6682862 EQ PUSH2 0x89C JUMPI DUP1 PUSH4 0xC6AB67A3 EQ PUSH2 0x8B1 JUMPI DUP1 PUSH4 0xC87B56DD EQ PUSH2 0x8C6 JUMPI PUSH1 0x0 DUP1 REVERT JUMPDEST DUP1 PUSH4 0xA22CB465 GT PUSH2 0x17A JUMPI DUP1 PUSH4 0xBB31B77B GT PUSH2 0x149 JUMPI DUP1 PUSH4 0xBB31B77B EQ PUSH2 0x825 JUMPI DUP1 PUSH4 0xC040E6B8 EQ PUSH2 0x845 JUMPI DUP1 PUSH4 0xC29DE630 EQ PUSH2 0x86C JUMPI DUP1 PUSH4 0xC3214581 EQ PUSH2 0x886 JUMPI PUSH1 0x0 DUP1 REVERT JUMPDEST DUP1 PUSH4 0xA22CB465 EQ PUSH2 0x7A5 JUMPI DUP1 PUSH4 0xB3CAAD01 EQ PUSH2 0x7C5 JUMPI DUP1 PUSH4 0xB76A0DF4 EQ PUSH2 0x7E5 JUMPI DUP1 PUSH4 0xB88D4FDE EQ PUSH2 0x805 JUMPI PUSH1 0x0 DUP1 REVERT JUMPDEST DUP1 PUSH4 0x8456CB59 GT PUSH2 0x1B6 JUMPI DUP1 PUSH4 0x8456CB59 EQ PUSH2 0x739 JUMPI DUP1 PUSH4 0x8DA5CB5B EQ PUSH2 0x74E JUMPI DUP1 PUSH4 0x95D89B41 EQ PUSH2 0x771 JUMPI DUP1 PUSH4 0x9A2A9C3D EQ PUSH2 0x786 JUMPI PUSH1 0x0 DUP1 REVERT JUMPDEST DUP1 PUSH4 0x7B671780 EQ PUSH2 0x6E4 JUMPI DUP1 PUSH4 0x7CB64759 EQ PUSH2 0x704 JUMPI DUP1 PUSH4 0x81C162F2 EQ PUSH2 0x724 JUMPI PUSH1 0x0 DUP1 REVERT JUMPDEST DUP1 PUSH4 0x3CCFD60B GT PUSH2 0x2C1 JUMPI DUP1 PUSH4 0x5C975ABB GT PUSH2 0x25F JUMPI DUP1 PUSH4 0x6CBB8985 GT PUSH2 0x22E JUMPI DUP1 PUSH4 0x6CBB8985 EQ PUSH2 0x684 JUMPI DUP1 PUSH4 0x70A08231 EQ PUSH2 0x699 JUMPI DUP1 PUSH4 0x715018A6 EQ PUSH2 0x6B9 JUMPI DUP1 PUSH4 0x78231978 EQ PUSH2 0x6CE JUMPI PUSH1 0x0 DUP1 REVERT JUMPDEST DUP1 PUSH4 0x5C975ABB EQ PUSH2 0x617 JUMPI DUP1 PUSH4 0x616CDB1E EQ PUSH2 0x62F JUMPI DUP1 PUSH4 0x6352211E EQ PUSH2 0x64F JUMPI DUP1 PUSH4 0x6C0360EB EQ PUSH2 0x66F JUMPI PUSH1 0x0 DUP1 REVERT JUMPDEST DUP1 PUSH4 0x438B6300 GT PUSH2 0x29B JUMPI DUP1 PUSH4 0x438B6300 EQ PUSH2 0x58A JUMPI DUP1 PUSH4 0x4F6CCCE7 EQ PUSH2 0x5B7 JUMPI DUP1 PUSH4 0x55F804B3 EQ PUSH2 0x5D7 JUMPI DUP1 PUSH4 0x57ED9E4E EQ PUSH2 0x5F7 JUMPI PUSH1 0x0 DUP1 REVERT JUMPDEST DUP1 PUSH4 0x3CCFD60B EQ PUSH2 0x54D JUMPI DUP1 PUSH4 0x3F4BA83A EQ PUSH2 0x555 JUMPI DUP1 PUSH4 0x42842E0E EQ PUSH2 0x56A JUMPI PUSH1 0x0 DUP1 REVERT JUMPDEST DUP1 PUSH4 0x1919FED7 GT PUSH2 0x32E JUMPI DUP1 PUSH4 0x2EB4A7AB GT PUSH2 0x308 JUMPI DUP1 PUSH4 0x2EB4A7AB EQ PUSH2 0x4EE JUMPI DUP1 PUSH4 0x2F745C59 EQ PUSH2 0x504 JUMPI DUP1 PUSH4 0x33E61413 EQ PUSH2 0x524 JUMPI DUP1 PUSH4 0x372F657C EQ PUSH2 0x53A JUMPI PUSH1 0x0 DUP1 REVERT JUMPDEST DUP1 PUSH4 0x1919FED7 EQ PUSH2 0x49B JUMPI DUP1 PUSH4 0x23B872DD EQ PUSH2 0x4BB JUMPI DUP1 PUSH4 0x2DB11544 EQ PUSH2 0x4DB JUMPI PUSH1 0x0 DUP1 REVERT JUMPDEST DUP1 PUSH4 0x88139A6 GT PUSH2 0x36A JUMPI DUP1 PUSH4 0x88139A6 EQ PUSH2 0x420 JUMPI DUP1 PUSH4 0x95EA7B3 EQ PUSH2 0x444 JUMPI DUP1 PUSH4 0x10969523 EQ PUSH2 0x466 JUMPI DUP1 PUSH4 0x18160DDD EQ PUSH2 0x486 JUMPI PUSH1 0x0 DUP1 REVERT JUMPDEST DUP1 PUSH4 0x1FFC9A7 EQ PUSH2 0x391 JUMPI DUP1 PUSH4 0x6FDDE03 EQ PUSH2 0x3C6 JUMPI DUP1 PUSH4 0x81812FC EQ PUSH2 0x3E8 JUMPI JUMPDEST PUSH1 0x0 DUP1 REVERT JUMPDEST CALLVALUE DUP1 ISZERO PUSH2 0x39D JUMPI PUSH1 0x0 DUP1 REVERT JUMPDEST POP PUSH2 0x3B1 PUSH2 0x3AC CALLDATASIZE PUSH1 0x4 PUSH2 0x2FE6 JUMP JUMPDEST PUSH2 0xA70 JUMP JUMPDEST PUSH1 0x40 MLOAD SWAP1 ISZERO ISZERO DUP2 MSTORE PUSH1 0x20 ADD JUMPDEST PUSH1 0x40 MLOAD DUP1 SWAP2 SUB SWAP1 RETURN JUMPDEST CALLVALUE DUP1 ISZERO PUSH2 0x3D2 JUMPI PUSH1 0x0 DUP1 REVERT JUMPDEST POP PUSH2 0x3DB PUSH2 0xA81 JUMP JUMPDEST PUSH1 0x40 MLOAD PUSH2 0x3BD SWAP2 SWAP1 PUSH2 0x305B JUMP JUMPDEST CALLVALUE DUP1 ISZERO PUSH2 0x3F4 JUMPI PUSH1 0x0 DUP1 REVERT JUMPDEST POP PUSH2 0x408 PUSH2 0x403 CALLDATASIZE PUSH1 0x4 PUSH2 0x306E JUMP JUMPDEST PUSH2 0xB13 JUMP JUMPDEST PUSH1 0x40 MLOAD PUSH1 0x1 PUSH1 0x1 PUSH1 0xA0 SHL SUB SWAP1 SWAP2 AND DUP2 MSTORE PUSH1 0x20 ADD PUSH2 0x3BD JUMP JUMPDEST CALLVALUE DUP1 ISZERO PUSH2 0x42C JUMPI PUSH1 0x0 DUP1 REVERT JUMPDEST POP PUSH2 0x436 PUSH1 0x16 SLOAD DUP2 JUMP JUMPDEST PUSH1 0x40 MLOAD SWAP1 DUP2 MSTORE PUSH1 0x20 ADD PUSH2 0x3BD JUMP JUMPDEST CALLVALUE DUP1 ISZERO PUSH2 0x450 JUMPI PUSH1 0x0 DUP1 REVERT JUMPDEST POP PUSH2 0x464 PUSH2 0x45F CALLDATASIZE PUSH1 0x4 PUSH2 0x30A3 JUMP JUMPDEST PUSH2 0xBAD JUMP JUMPDEST STOP JUMPDEST CALLVALUE DUP1 ISZERO PUSH2 0x472 JUMPI PUSH1 0x0 DUP1 REVERT JUMPDEST POP PUSH2 0x464 PUSH2 0x481 CALLDATASIZE PUSH1 0x4 PUSH2 0x3159 JUMP JUMPDEST PUSH2 0xCC3 JUMP JUMPDEST CALLVALUE DUP1 ISZERO PUSH2 0x492 JUMPI PUSH1 0x0 DUP1 REVERT JUMPDEST POP PUSH1 0x8 SLOAD PUSH2 0x436 JUMP JUMPDEST CALLVALUE DUP1 ISZERO PUSH2 0x4A7 JUMPI PUSH1 0x0 DUP1 REVERT JUMPDEST POP PUSH2 0x464 PUSH2 0x4B6 CALLDATASIZE PUSH1 0x4 PUSH2 0x306E JUMP JUMPDEST PUSH2 0xDC3 JUMP JUMPDEST CALLVALUE DUP1 ISZERO PUSH2 0x4C7 JUMPI PUSH1 0x0 DUP1 REVERT JUMPDEST POP PUSH2 0x464 PUSH2 0x4D6 CALLDATASIZE PUSH1 0x4 PUSH2 0x31A2 JUMP JUMPDEST PUSH2 0xDF8 JUMP JUMPDEST PUSH2 0x464 PUSH2 0x4E9 CALLDATASIZE PUSH1 0x4 PUSH2 0x306E JUMP JUMPDEST PUSH2 0xE29 JUMP JUMPDEST CALLVALUE DUP1 ISZERO PUSH2 0x4FA JUMPI PUSH1 0x0 DUP1 REVERT JUMPDEST POP PUSH2 0x436 PUSH1 0xD SLOAD DUP2 JUMP JUMPDEST CALLVALUE DUP1 ISZERO PUSH2 0x510 JUMPI PUSH1 0x0 DUP1 REVERT JUMPDEST POP PUSH2 0x436 PUSH2 0x51F CALLDATASIZE PUSH1 0x4 PUSH2 0x30A3 JUMP JUMPDEST PUSH2 0x1080 JUMP JUMPDEST CALLVALUE DUP1 ISZERO PUSH2 0x530 JUMPI PUSH1 0x0 DUP1 REVERT JUMPDEST POP PUSH2 0x436 PUSH1 0x13 SLOAD DUP2 JUMP JUMPDEST PUSH2 0x464 PUSH2 0x548 CALLDATASIZE PUSH1 0x4 PUSH2 0x322A JUMP JUMPDEST PUSH2 0x1116 JUMP JUMPDEST PUSH2 0x464 PUSH2 0x139E JUMP JUMPDEST CALLVALUE DUP1 ISZERO PUSH2 0x561 JUMPI PUSH1 0x0 DUP1 REVERT JUMPDEST POP PUSH2 0x464 PUSH2 0x14B7 JUMP JUMPDEST CALLVALUE DUP1 ISZERO PUSH2 0x576 JUMPI PUSH1 0x0 DUP1 REVERT JUMPDEST POP PUSH2 0x464 PUSH2 0x585 CALLDATASIZE PUSH1 0x4 PUSH2 0x31A2 JUMP JUMPDEST PUSH2 0x14F1 JUMP JUMPDEST CALLVALUE DUP1 ISZERO PUSH2 0x596 JUMPI PUSH1 0x0 DUP1 REVERT JUMPDEST POP PUSH2 0x5AA PUSH2 0x5A5 CALLDATASIZE PUSH1 0x4 PUSH2 0x326C JUMP JUMPDEST PUSH2 0x150C JUMP JUMPDEST PUSH1 0x40 MLOAD PUSH2 0x3BD SWAP2 SWAP1 PUSH2 0x3287 JUMP JUMPDEST CALLVALUE DUP1 ISZERO PUSH2 0x5C3 JUMPI PUSH1 0x0 DUP1 REVERT JUMPDEST POP PUSH2 0x436 PUSH2 0x5D2 CALLDATASIZE PUSH1 0x4 PUSH2 0x306E JUMP JUMPDEST PUSH2 0x15AE JUMP JUMPDEST CALLVALUE DUP1 ISZERO PUSH2 0x5E3 JUMPI PUSH1 0x0 DUP1 REVERT JUMPDEST POP PUSH2 0x464 PUSH2 0x5F2 CALLDATASIZE PUSH1 0x4 PUSH2 0x3159 JUMP JUMPDEST PUSH2 0x1641 JUMP JUMPDEST CALLVALUE DUP1 ISZERO PUSH2 0x603 JUMPI PUSH1 0x0 DUP1 REVERT JUMPDEST POP PUSH2 0x464 PUSH2 0x612 CALLDATASIZE PUSH1 0x4 PUSH2 0x326C JUMP JUMPDEST PUSH2 0x16CC JUMP JUMPDEST CALLVALUE DUP1 ISZERO PUSH2 0x623 JUMPI PUSH1 0x0 DUP1 REVERT JUMPDEST POP PUSH1 0xA SLOAD PUSH1 0xFF AND PUSH2 0x3B1 JUMP JUMPDEST CALLVALUE DUP1 ISZERO PUSH2 0x63B JUMPI PUSH1 0x0 DUP1 REVERT JUMPDEST POP PUSH2 0x464 PUSH2 0x64A CALLDATASIZE PUSH1 0x4 PUSH2 0x306E JUMP JUMPDEST PUSH2 0x171D JUMP JUMPDEST CALLVALUE DUP1 ISZERO PUSH2 0x65B JUMPI PUSH1 0x0 DUP1 REVERT JUMPDEST POP PUSH2 0x408 PUSH2 0x66A CALLDATASIZE PUSH1 0x4 PUSH2 0x306E JUMP JUMPDEST PUSH2 0x1752 JUMP JUMPDEST CALLVALUE DUP1 ISZERO PUSH2 0x67B JUMPI PUSH1 0x0 DUP1 REVERT JUMPDEST POP PUSH2 0x3DB PUSH2 0x17C9 JUMP JUMPDEST CALLVALUE DUP1 ISZERO PUSH2 0x690 JUMPI PUSH1 0x0 DUP1 REVERT JUMPDEST POP PUSH2 0x408 PUSH2 0x1857 JUMP JUMPDEST CALLVALUE DUP1 ISZERO PUSH2 0x6A5 JUMPI PUSH1 0x0 DUP1 REVERT JUMPDEST POP PUSH2 0x436 PUSH2 0x6B4 CALLDATASIZE PUSH1 0x4 PUSH2 0x326C JUMP JUMPDEST PUSH2 0x186A JUMP JUMPDEST CALLVALUE DUP1 ISZERO PUSH2 0x6C5 JUMPI PUSH1 0x0 DUP1 REVERT JUMPDEST POP PUSH2 0x464 PUSH2 0x18F1 JUMP JUMPDEST CALLVALUE DUP1 ISZERO PUSH2 0x6DA JUMPI PUSH1 0x0 DUP1 REVERT JUMPDEST POP PUSH2 0x436 PUSH1 0x17 SLOAD DUP2 JUMP JUMPDEST CALLVALUE DUP1 ISZERO PUSH2 0x6F0 JUMPI PUSH1 0x0 DUP1 REVERT JUMPDEST POP PUSH2 0x464 PUSH2 0x6FF CALLDATASIZE PUSH1 0x4 PUSH2 0x32DC JUMP JUMPDEST PUSH2 0x192B JUMP JUMPDEST CALLVALUE DUP1 ISZERO PUSH2 0x710 JUMPI PUSH1 0x0 DUP1 REVERT JUMPDEST POP PUSH2 0x464 PUSH2 0x71F CALLDATASIZE PUSH1 0x4 PUSH2 0x306E JUMP JUMPDEST PUSH2 0x1A8B JUMP JUMPDEST CALLVALUE DUP1 ISZERO PUSH2 0x730 JUMPI PUSH1 0x0 DUP1 REVERT JUMPDEST POP PUSH2 0x464 PUSH2 0x1AC0 JUMP JUMPDEST CALLVALUE DUP1 ISZERO PUSH2 0x745 JUMPI PUSH1 0x0 DUP1 REVERT JUMPDEST POP PUSH2 0x464 PUSH2 0x1BC2 JUMP JUMPDEST CALLVALUE DUP1 ISZERO PUSH2 0x75A JUMPI PUSH1 0x0 DUP1 REVERT JUMPDEST POP PUSH1 0xA SLOAD PUSH2 0x100 SWAP1 DIV PUSH1 0x1 PUSH1 0x1 PUSH1 0xA0 SHL SUB AND PUSH2 0x408 JUMP JUMPDEST CALLVALUE DUP1 ISZERO PUSH2 0x77D JUMPI PUSH1 0x0 DUP1 REVERT JUMPDEST POP PUSH2 0x3DB PUSH2 0x1BFA JUMP JUMPDEST CALLVALUE DUP1 ISZERO PUSH2 0x792 JUMPI PUSH1 0x0 DUP1 REVERT JUMPDEST POP PUSH1 0x12 SLOAD PUSH2 0x3B1 SWAP1 PUSH2 0x100 SWAP1 DIV PUSH1 0xFF AND DUP2 JUMP JUMPDEST CALLVALUE DUP1 ISZERO PUSH2 0x7B1 JUMPI PUSH1 0x0 DUP1 REVERT JUMPDEST POP PUSH2 0x464 PUSH2 0x7C0 CALLDATASIZE PUSH1 0x4 PUSH2 0x32F7 JUMP JUMPDEST PUSH2 0x1C09 JUMP JUMPDEST CALLVALUE DUP1 ISZERO PUSH2 0x7D1 JUMPI PUSH1 0x0 DUP1 REVERT JUMPDEST POP PUSH2 0x464 PUSH2 0x7E0 CALLDATASIZE PUSH1 0x4 PUSH2 0x3333 JUMP JUMPDEST PUSH2 0x1C14 JUMP JUMPDEST CALLVALUE DUP1 ISZERO PUSH2 0x7F1 JUMPI PUSH1 0x0 DUP1 REVERT JUMPDEST POP PUSH2 0x3B1 PUSH2 0x800 CALLDATASIZE PUSH1 0x4 PUSH2 0x3366 JUMP JUMPDEST PUSH2 0x1D56 JUMP JUMPDEST CALLVALUE DUP1 ISZERO PUSH2 0x811 JUMPI PUSH1 0x0 DUP1 REVERT JUMPDEST POP PUSH2 0x464 PUSH2 0x820 CALLDATASIZE PUSH1 0x4 PUSH2 0x33B9 JUMP JUMPDEST PUSH2 0x1DEA JUMP JUMPDEST CALLVALUE DUP1 ISZERO PUSH2 0x831 JUMPI PUSH1 0x0 DUP1 REVERT JUMPDEST POP PUSH2 0x464 PUSH2 0x840 CALLDATASIZE PUSH1 0x4 PUSH2 0x326C JUMP JUMPDEST PUSH2 0x1E22 JUMP JUMPDEST CALLVALUE DUP1 ISZERO PUSH2 0x851 JUMPI PUSH1 0x0 DUP1 REVERT JUMPDEST POP PUSH1 0x19 SLOAD PUSH2 0x85F SWAP1 PUSH1 0xFF AND DUP2 JUMP JUMPDEST PUSH1 0x40 MLOAD PUSH2 0x3BD SWAP2 SWAP1 PUSH2 0x344B JUMP JUMPDEST CALLVALUE DUP1 ISZERO PUSH2 0x878 JUMPI PUSH1 0x0 DUP1 REVERT JUMPDEST POP PUSH1 0x12 SLOAD PUSH2 0x3B1 SWAP1 PUSH1 0xFF AND DUP2 JUMP JUMPDEST CALLVALUE DUP1 ISZERO PUSH2 0x892 JUMPI PUSH1 0x0 DUP1 REVERT JUMPDEST POP PUSH2 0x436 PUSH1 0x15 SLOAD DUP2 JUMP JUMPDEST CALLVALUE DUP1 ISZERO PUSH2 0x8A8 JUMPI PUSH1 0x0 DUP1 REVERT JUMPDEST POP PUSH2 0x3DB PUSH2 0x1E76 JUMP JUMPDEST CALLVALUE DUP1 ISZERO PUSH2 0x8BD JUMPI PUSH1 0x0 DUP1 REVERT JUMPDEST POP PUSH2 0x3DB PUSH2 0x1E83 JUMP JUMPDEST CALLVALUE DUP1 ISZERO PUSH2 0x8D2 JUMPI PUSH1 0x0 DUP1 REVERT JUMPDEST POP PUSH2 0x3DB PUSH2 0x8E1 CALLDATASIZE PUSH1 0x4 PUSH2 0x306E JUMP JUMPDEST PUSH2 0x1E90 JUMP JUMPDEST CALLVALUE DUP1 ISZERO PUSH2 0x8F2 JUMPI PUSH1 0x0 DUP1 REVERT JUMPDEST POP PUSH2 0x3B1 PUSH2 0x901 CALLDATASIZE PUSH1 0x4 PUSH2 0x326C JUMP JUMPDEST PUSH1 0x14 PUSH1 0x20 MSTORE PUSH1 0x0 SWAP1 DUP2 MSTORE PUSH1 0x40 SWAP1 KECCAK256 SLOAD PUSH1 0xFF AND DUP2 JUMP JUMPDEST CALLVALUE DUP1 ISZERO PUSH2 0x922 JUMPI PUSH1 0x0 DUP1 REVERT JUMPDEST POP PUSH2 0x464 PUSH2 0x931 CALLDATASIZE PUSH1 0x4 PUSH2 0x3473 JUMP JUMPDEST PUSH2 0x1F45 JUMP JUMPDEST CALLVALUE DUP1 ISZERO PUSH2 0x942 JUMPI PUSH1 0x0 DUP1 REVERT JUMPDEST POP PUSH2 0x436 PUSH2 0x2089 JUMP JUMPDEST CALLVALUE DUP1 ISZERO PUSH2 0x957 JUMPI PUSH1 0x0 DUP1 REVERT JUMPDEST POP PUSH2 0x464 PUSH2 0x966 CALLDATASIZE PUSH1 0x4 PUSH2 0x3159 JUMP JUMPDEST PUSH2 0x2094 JUMP JUMPDEST CALLVALUE DUP1 ISZERO PUSH2 0x977 JUMPI PUSH1 0x0 DUP1 REVERT JUMPDEST POP PUSH2 0x436 PUSH2 0x20D7 JUMP JUMPDEST CALLVALUE DUP1 ISZERO PUSH2 0x98C JUMPI PUSH1 0x0 DUP1 REVERT JUMPDEST POP PUSH2 0x436 PUSH1 0x11 SLOAD DUP2 JUMP JUMPDEST CALLVALUE DUP1 ISZERO PUSH2 0x9A2 JUMPI PUSH1 0x0 DUP1 REVERT JUMPDEST POP PUSH2 0x464 PUSH2 0x20EF JUMP JUMPDEST CALLVALUE DUP1 ISZERO PUSH2 0x9B7 JUMPI PUSH1 0x0 DUP1 REVERT JUMPDEST POP PUSH2 0x3B1 PUSH2 0x9C6 CALLDATASIZE PUSH1 0x4 PUSH2 0x3494 JUMP JUMPDEST PUSH1 0x1 PUSH1 0x1 PUSH1 0xA0 SHL SUB SWAP2 DUP3 AND PUSH1 0x0 SWAP1 DUP2 MSTORE PUSH1 0x5 PUSH1 0x20 SWAP1 DUP2 MSTORE PUSH1 0x40 DUP1 DUP4 KECCAK256 SWAP4 SWAP1 SWAP5 AND DUP3 MSTORE SWAP2 SWAP1 SWAP2 MSTORE KECCAK256 SLOAD PUSH1 0xFF AND SWAP1 JUMP JUMPDEST CALLVALUE DUP1 ISZERO PUSH2 0xA00 JUMPI PUSH1 0x0 DUP1 REVERT JUMPDEST POP PUSH2 0x464 PUSH2 0xA0F CALLDATASIZE PUSH1 0x4 PUSH2 0x326C JUMP JUMPDEST PUSH2 0x21DF JUMP JUMPDEST CALLVALUE DUP1 ISZERO PUSH2 0xA20 JUMPI PUSH1 0x0 DUP1 REVERT JUMPDEST POP PUSH2 0x464 PUSH2 0xA2F CALLDATASIZE PUSH1 0x4 PUSH2 0x326C JUMP JUMPDEST PUSH2 0x227D JUMP JUMPDEST CALLVALUE DUP1 ISZERO PUSH2 0xA40 JUMPI PUSH1 0x0 DUP1 REVERT JUMPDEST POP PUSH2 0x436 PUSH1 0x18 SLOAD DUP2 JUMP JUMPDEST CALLVALUE DUP1 ISZERO PUSH2 0xA56 JUMPI PUSH1 0x0 DUP1 REVERT JUMPDEST POP PUSH1 0x12 SLOAD PUSH2 0x408 SWAP1 PUSH3 0x10000 SWAP1 DIV PUSH1 0x1 PUSH1 0x1 PUSH1 0xA0 SHL SUB AND DUP2 JUMP JUMPDEST PUSH1 0x0 PUSH2 0xA7B DUP3 PUSH2 0x22E0 JUMP JUMPDEST SWAP3 SWAP2 POP POP JUMP JUMPDEST PUSH1 0x60 PUSH1 0x0 DUP1 SLOAD PUSH2 0xA90 SWAP1 PUSH2 0x34B0 JUMP JUMPDEST DUP1 PUSH1 0x1F ADD PUSH1 0x20 DUP1 SWAP2 DIV MUL PUSH1 0x20 ADD PUSH1 0x40 MLOAD SWAP1 DUP2 ADD PUSH1 0x40 MSTORE DUP1 SWAP3 SWAP2 SWAP1 DUP2 DUP2 MSTORE PUSH1 0x20 ADD DUP3 DUP1 SLOAD PUSH2 0xABC SWAP1 PUSH2 0x34B0 JUMP JUMPDEST DUP1 ISZERO PUSH2 0xB09 JUMPI DUP1 PUSH1 0x1F LT PUSH2 0xADE JUMPI PUSH2 0x100 DUP1 DUP4 SLOAD DIV MUL DUP4 MSTORE SWAP2 PUSH1 0x20 ADD SWAP2 PUSH2 0xB09 JUMP JUMPDEST DUP3 ADD SWAP2 SWAP1 PUSH1 0x0 MSTORE PUSH1 0x20 PUSH1 0x0 KECCAK256 SWAP1 JUMPDEST DUP2 SLOAD DUP2 MSTORE SWAP1 PUSH1 0x1 ADD SWAP1 PUSH1 0x20 ADD DUP1 DUP4 GT PUSH2 0xAEC JUMPI DUP3 SWAP1 SUB PUSH1 0x1F AND DUP3 ADD SWAP2 JUMPDEST POP POP POP POP POP SWAP1 POP SWAP1 JUMP JUMPDEST PUSH1 0x0 DUP2 DUP2 MSTORE PUSH1 0x2 PUSH1 0x20 MSTORE PUSH1 0x40 DUP2 KECCAK256 SLOAD PUSH1 0x1 PUSH1 0x1 PUSH1 0xA0 SHL SUB AND PUSH2 0xB91 JUMPI PUSH1 0x40 MLOAD PUSH3 0x461BCD PUSH1 0xE5 SHL DUP2 MSTORE PUSH1 0x20 PUSH1 0x4 DUP3 ADD MSTORE PUSH1 0x2C PUSH1 0x24 DUP3 ADD MSTORE PUSH32 0x4552433732313A20617070726F76656420717565727920666F72206E6F6E6578 PUSH1 0x44 DUP3 ADD MSTORE PUSH12 0x34B9BA32B73A103A37B5B2B7 PUSH1 0xA1 SHL PUSH1 0x64 DUP3 ADD MSTORE PUSH1 0x84 ADD JUMPDEST PUSH1 0x40 MLOAD DUP1 SWAP2 SUB SWAP1 REVERT JUMPDEST POP PUSH1 0x0 SWAP1 DUP2 MSTORE PUSH1 0x4 PUSH1 0x20 MSTORE PUSH1 0x40 SWAP1 KECCAK256 SLOAD PUSH1 0x1 PUSH1 0x1 PUSH1 0xA0 SHL SUB AND SWAP1 JUMP JUMPDEST PUSH1 0x0 PUSH2 0xBB8 DUP3 PUSH2 0x1752 JUMP JUMPDEST SWAP1 POP DUP1 PUSH1 0x1 PUSH1 0x1 PUSH1 0xA0 SHL SUB AND DUP4 PUSH1 0x1 PUSH1 0x1 PUSH1 0xA0 SHL SUB AND EQ ISZERO PUSH2 0xC26 JUMPI PUSH1 0x40 MLOAD PUSH3 0x461BCD PUSH1 0xE5 SHL DUP2 MSTORE PUSH1 0x20 PUSH1 0x4 DUP3 ADD MSTORE PUSH1 0x21 PUSH1 0x24 DUP3 ADD MSTORE PUSH32 0x4552433732313A20617070726F76616C20746F2063757272656E74206F776E65 PUSH1 0x44 DUP3 ADD MSTORE PUSH1 0x39 PUSH1 0xF9 SHL PUSH1 0x64 DUP3 ADD MSTORE PUSH1 0x84 ADD PUSH2 0xB88 JUMP JUMPDEST CALLER PUSH1 0x1 PUSH1 0x1 PUSH1 0xA0 SHL SUB DUP3 AND EQ DUP1 PUSH2 0xC42 JUMPI POP PUSH2 0xC42 DUP2 CALLER PUSH2 0x9C6 JUMP JUMPDEST PUSH2 0xCB4 JUMPI PUSH1 0x40 MLOAD PUSH3 0x461BCD PUSH1 0xE5 SHL DUP2 MSTORE PUSH1 0x20 PUSH1 0x4 DUP3 ADD MSTORE PUSH1 0x38 PUSH1 0x24 DUP3 ADD MSTORE PUSH32 0x4552433732313A20617070726F76652063616C6C6572206973206E6F74206F77 PUSH1 0x44 DUP3 ADD MSTORE PUSH32 0x6E6572206E6F7220617070726F76656420666F7220616C6C0000000000000000 PUSH1 0x64 DUP3 ADD MSTORE PUSH1 0x84 ADD PUSH2 0xB88 JUMP JUMPDEST PUSH2 0xCBE DUP4 DUP4 PUSH2 0x2305 JUMP JUMPDEST POP POP POP JUMP JUMPDEST PUSH1 0xA SLOAD PUSH1 0x1 PUSH1 0x1 PUSH1 0xA0 SHL SUB PUSH2 0x100 SWAP1 SWAP2 DIV AND CALLER EQ PUSH2 0xCF3 JUMPI PUSH1 0x40 MLOAD PUSH3 0x461BCD PUSH1 0xE5 SHL DUP2 MSTORE PUSH1 0x4 ADD PUSH2 0xB88 SWAP1 PUSH2 0x34EB JUMP JUMPDEST PUSH1 0x0 DUP2 MLOAD GT PUSH2 0xD54 JUMPI PUSH1 0x40 MLOAD PUSH3 0x461BCD PUSH1 0xE5 SHL DUP2 MSTORE PUSH1 0x20 PUSH1 0x4 DUP3 ADD MSTORE PUSH1 0x27 PUSH1 0x24 DUP3 ADD MSTORE PUSH32 0x50726F76656E616E636520686173682063616E6E6F7420626520656D70747920 PUSH1 0x44 DUP3 ADD MSTORE PUSH7 0x39BA3934B73397 PUSH1 0xC9 SHL PUSH1 0x64 DUP3 ADD MSTORE PUSH1 0x84 ADD PUSH2 0xB88 JUMP JUMPDEST PUSH1 0x12 SLOAD PUSH2 0x100 SWAP1 DIV PUSH1 0xFF AND ISZERO PUSH2 0xDAC JUMPI PUSH1 0x40 MLOAD PUSH3 0x461BCD PUSH1 0xE5 SHL DUP2 MSTORE PUSH1 0x20 PUSH1 0x4 DUP3 ADD MSTORE PUSH1 0x1A PUSH1 0x24 DUP3 ADD MSTORE PUSH32 0x50726F76656E616E636520686173682069732066726F7A656E2E000000000000 PUSH1 0x44 DUP3 ADD MSTORE PUSH1 0x64 ADD PUSH2 0xB88 JUMP JUMPDEST DUP1 MLOAD PUSH2 0xDBF SWAP1 PUSH1 0xE SWAP1 PUSH1 0x20 DUP5 ADD SWAP1 PUSH2 0x2F37 JUMP JUMPDEST POP POP JUMP JUMPDEST PUSH1 0xA SLOAD PUSH1 0x1 PUSH1 0x1 PUSH1 0xA0 SHL SUB PUSH2 0x100 SWAP1 SWAP2 DIV AND CALLER EQ PUSH2 0xDF3 JUMPI PUSH1 0x40 MLOAD PUSH3 0x461BCD PUSH1 0xE5 SHL DUP2 MSTORE PUSH1 0x4 ADD PUSH2 0xB88 SWAP1 PUSH2 0x34EB JUMP JUMPDEST PUSH1 0x18 SSTORE JUMP JUMPDEST PUSH2 0xE02 CALLER DUP3 PUSH2 0x2373 JUMP JUMPDEST PUSH2 0xE1E JUMPI PUSH1 0x40 MLOAD PUSH3 0x461BCD PUSH1 0xE5 SHL DUP2 MSTORE PUSH1 0x4 ADD PUSH2 0xB88 SWAP1 PUSH2 0x3520 JUMP JUMPDEST PUSH2 0xCBE DUP4 DUP4 DUP4 PUSH2 0x246A JUMP JUMPDEST PUSH1 0x2 PUSH1 0xB SLOAD EQ ISZERO PUSH2 0xE7C JUMPI PUSH1 0x40 MLOAD PUSH3 0x461BCD PUSH1 0xE5 SHL DUP2 MSTORE PUSH1 0x20 PUSH1 0x4 DUP3 ADD MSTORE PUSH1 0x1F PUSH1 0x24 DUP3 ADD MSTORE PUSH32 0x5265656E7472616E637947756172643A207265656E7472616E742063616C6C00 PUSH1 0x44 DUP3 ADD MSTORE PUSH1 0x64 ADD PUSH2 0xB88 JUMP JUMPDEST PUSH1 0x2 PUSH1 0xB SSTORE PUSH1 0xA SLOAD PUSH1 0xFF AND ISZERO PUSH2 0xEA4 JUMPI PUSH1 0x40 MLOAD PUSH3 0x461BCD PUSH1 0xE5 SHL DUP2 MSTORE PUSH1 0x4 ADD PUSH2 0xB88 SWAP1 PUSH2 0x3571 JUMP JUMPDEST PUSH1 0x4 PUSH1 0x19 SLOAD PUSH1 0xFF AND PUSH1 0x4 DUP2 GT ISZERO PUSH2 0xEBD JUMPI PUSH2 0xEBD PUSH2 0x3435 JUMP JUMPDEST EQ PUSH2 0xF0A JUMPI PUSH1 0x40 MLOAD PUSH3 0x461BCD PUSH1 0xE5 SHL DUP2 MSTORE PUSH1 0x20 PUSH1 0x4 DUP3 ADD MSTORE PUSH1 0x1A PUSH1 0x24 DUP3 ADD MSTORE PUSH32 0x5075626C69632053616C65206E6F7420696E697469617465642E000000000000 PUSH1 0x44 DUP3 ADD MSTORE PUSH1 0x64 ADD PUSH2 0xB88 JUMP JUMPDEST CALLVALUE DUP2 PUSH1 0x18 SLOAD PUSH2 0xF19 SWAP2 SWAP1 PUSH2 0x35B1 JUMP JUMPDEST EQ PUSH2 0xF62 JUMPI PUSH1 0x40 MLOAD PUSH3 0x461BCD PUSH1 0xE5 SHL DUP2 MSTORE PUSH1 0x20 PUSH1 0x4 DUP3 ADD MSTORE PUSH1 0x19 PUSH1 0x24 DUP3 ADD MSTORE PUSH25 0x24B731B7B93932B1BA1022AA24103B30B63AB29039B2B73A17 PUSH1 0x39 SHL PUSH1 0x44 DUP3 ADD MSTORE PUSH1 0x64 ADD PUSH2 0xB88 JUMP JUMPDEST PUSH1 0x17 SLOAD DUP2 PUSH2 0xF6F PUSH1 0x8 SLOAD SWAP1 JUMP JUMPDEST PUSH2 0xF79 SWAP2 SWAP1 PUSH2 0x35D0 JUMP JUMPDEST GT ISZERO PUSH2 0xFD6 JUMPI PUSH1 0x40 MLOAD PUSH3 0x461BCD PUSH1 0xE5 SHL DUP2 MSTORE PUSH1 0x20 PUSH1 0x4 DUP3 ADD MSTORE PUSH1 0x26 PUSH1 0x24 DUP3 ADD MSTORE PUSH32 0x5472616E73616374696F6E206578636565647320746F74616C2073616C652073 PUSH1 0x44 DUP3 ADD MSTORE PUSH6 0x3AB838363C97 PUSH1 0xD1 SHL PUSH1 0x64 DUP3 ADD MSTORE PUSH1 0x84 ADD PUSH2 0xB88 JUMP JUMPDEST PUSH1 0x11 SLOAD DUP2 GT ISZERO PUSH2 0x103B JUMPI PUSH1 0x40 MLOAD PUSH3 0x461BCD PUSH1 0xE5 SHL DUP2 MSTORE PUSH1 0x20 PUSH1 0x4 DUP3 ADD MSTORE PUSH1 0x2A PUSH1 0x24 DUP3 ADD MSTORE PUSH32 0x45786365656473206D617820616C6C6F776564206D696E747320706572207472 PUSH1 0x44 DUP3 ADD MSTORE PUSH10 0x30B739B0B1BA34B7B717 PUSH1 0xB1 SHL PUSH1 0x64 DUP3 ADD MSTORE PUSH1 0x84 ADD PUSH2 0xB88 JUMP JUMPDEST PUSH1 0x1 JUMPDEST DUP2 DUP2 GT PUSH2 0x1077 JUMPI PUSH2 0x1057 CALLER PUSH2 0x1052 PUSH1 0xC SLOAD SWAP1 JUMP JUMPDEST PUSH2 0x2611 JUMP JUMPDEST PUSH2 0x1065 PUSH1 0xC DUP1 SLOAD PUSH1 0x1 ADD SWAP1 SSTORE JUMP JUMPDEST DUP1 PUSH2 0x106F DUP2 PUSH2 0x35E8 JUMP JUMPDEST SWAP2 POP POP PUSH2 0x103E JUMP JUMPDEST POP POP PUSH1 0x1 PUSH1 0xB SSTORE JUMP JUMPDEST PUSH1 0x0 PUSH2 0x108B DUP4 PUSH2 0x186A JUMP JUMPDEST DUP3 LT PUSH2 0x10ED JUMPI PUSH1 0x40 MLOAD PUSH3 0x461BCD PUSH1 0xE5 SHL DUP2 MSTORE PUSH1 0x20 PUSH1 0x4 DUP3 ADD MSTORE PUSH1 0x2B PUSH1 0x24 DUP3 ADD MSTORE PUSH32 0x455243373231456E756D657261626C653A206F776E657220696E646578206F75 PUSH1 0x44 DUP3 ADD MSTORE PUSH11 0x74206F6620626F756E6473 PUSH1 0xA8 SHL PUSH1 0x64 DUP3 ADD MSTORE PUSH1 0x84 ADD PUSH2 0xB88 JUMP JUMPDEST POP PUSH1 0x1 PUSH1 0x1 PUSH1 0xA0 SHL SUB SWAP2 SWAP1 SWAP2 AND PUSH1 0x0 SWAP1 DUP2 MSTORE PUSH1 0x6 PUSH1 0x20 SWAP1 DUP2 MSTORE PUSH1 0x40 DUP1 DUP4 KECCAK256 SWAP4 DUP4 MSTORE SWAP3 SWAP1 MSTORE KECCAK256 SLOAD SWAP1 JUMP JUMPDEST PUSH1 0x2 PUSH1 0xB SLOAD EQ ISZERO PUSH2 0x1169 JUMPI PUSH1 0x40 MLOAD PUSH3 0x461BCD PUSH1 0xE5 SHL DUP2 MSTORE PUSH1 0x20 PUSH1 0x4 DUP3 ADD MSTORE PUSH1 0x1F PUSH1 0x24 DUP3 ADD MSTORE PUSH32 0x5265656E7472616E637947756172643A207265656E7472616E742063616C6C00 PUSH1 0x44 DUP3 ADD MSTORE PUSH1 0x64 ADD PUSH2 0xB88 JUMP JUMPDEST PUSH1 0x2 PUSH1 0xB SSTORE PUSH1 0xA SLOAD PUSH1 0xFF AND ISZERO PUSH2 0x1191 JUMPI PUSH1 0x40 MLOAD PUSH3 0x461BCD PUSH1 0xE5 SHL DUP2 MSTORE PUSH1 0x4 ADD PUSH2 0xB88 SWAP1 PUSH2 0x3571 JUMP JUMPDEST PUSH1 0x2 PUSH1 0x19 SLOAD PUSH1 0xFF AND PUSH1 0x4 DUP2 GT ISZERO PUSH2 0x11AA JUMPI PUSH2 0x11AA PUSH2 0x3435 JUMP JUMPDEST EQ PUSH2 0x11F7 JUMPI PUSH1 0x40 MLOAD PUSH3 0x461BCD PUSH1 0xE5 SHL DUP2 MSTORE PUSH1 0x20 PUSH1 0x4 DUP3 ADD MSTORE PUSH1 0x1D PUSH1 0x24 DUP3 ADD MSTORE PUSH32 0x57686974656C6973742073616C65206E6F7420696E697469617465642E000000 PUSH1 0x44 DUP3 ADD MSTORE PUSH1 0x64 ADD PUSH2 0xB88 JUMP JUMPDEST CALLVALUE PUSH1 0x18 SLOAD EQ PUSH2 0x1244 JUMPI PUSH1 0x40 MLOAD PUSH3 0x461BCD PUSH1 0xE5 SHL DUP2 MSTORE PUSH1 0x20 PUSH1 0x4 DUP3 ADD MSTORE PUSH1 0x19 PUSH1 0x24 DUP3 ADD MSTORE PUSH25 0x24B731B7B93932B1BA1022AA24103B30B63AB29039B2B73A17 PUSH1 0x39 SHL PUSH1 0x44 DUP3 ADD MSTORE PUSH1 0x64 ADD PUSH2 0xB88 JUMP JUMPDEST PUSH1 0xD SLOAD PUSH1 0x40 MLOAD PUSH12 0xFFFFFFFFFFFFFFFFFFFFFFFF NOT CALLER PUSH1 0x60 SHL AND PUSH1 0x20 DUP3 ADD MSTORE PUSH2 0x12BD SWAP2 SWAP1 PUSH1 0x34 ADD PUSH1 0x40 MLOAD PUSH1 0x20 DUP2 DUP4 SUB SUB DUP2 MSTORE SWAP1 PUSH1 0x40 MSTORE DUP1 MLOAD SWAP1 PUSH1 0x20 ADD KECCAK256 DUP5 DUP5 DUP1 DUP1 PUSH1 0x20 MUL PUSH1 0x20 ADD PUSH1 0x40 MLOAD SWAP1 DUP2 ADD PUSH1 0x40 MSTORE DUP1 SWAP4 SWAP3 SWAP2 SWAP1 DUP2 DUP2 MSTORE PUSH1 0x20 ADD DUP4 DUP4 PUSH1 0x20 MUL DUP1 DUP3 DUP5 CALLDATACOPY PUSH1 0x0 SWAP3 ADD SWAP2 SWAP1 SWAP2 MSTORE POP SWAP3 SWAP5 SWAP4 SWAP3 POP POP PUSH2 0x262B SWAP1 POP JUMP JUMPDEST PUSH2 0x1309 JUMPI PUSH1 0x40 MLOAD PUSH3 0x461BCD PUSH1 0xE5 SHL DUP2 MSTORE PUSH1 0x20 PUSH1 0x4 DUP3 ADD MSTORE PUSH1 0x19 PUSH1 0x24 DUP3 ADD MSTORE PUSH32 0x41646472657373206E6F7420696E2077686974656C6973742E00000000000000 PUSH1 0x44 DUP3 ADD MSTORE PUSH1 0x64 ADD PUSH2 0xB88 JUMP JUMPDEST CALLER PUSH1 0x0 SWAP1 DUP2 MSTORE PUSH1 0x14 PUSH1 0x20 MSTORE PUSH1 0x40 SWAP1 KECCAK256 SLOAD PUSH1 0xFF AND ISZERO PUSH2 0x1369 JUMPI PUSH1 0x40 MLOAD PUSH3 0x461BCD PUSH1 0xE5 SHL DUP2 MSTORE PUSH1 0x20 PUSH1 0x4 DUP3 ADD MSTORE PUSH1 0x1F PUSH1 0x24 DUP3 ADD MSTORE PUSH32 0x57686974656C697374206D696E7420616C726561647920636C61696D65642E00 PUSH1 0x44 DUP3 ADD MSTORE PUSH1 0x64 ADD PUSH2 0xB88 JUMP JUMPDEST CALLER PUSH1 0x0 DUP2 DUP2 MSTORE PUSH1 0x14 PUSH1 0x20 MSTORE PUSH1 0x40 SWAP1 KECCAK256 DUP1 SLOAD PUSH1 0xFF NOT AND PUSH1 0x1 OR SWAP1 SSTORE PUSH2 0x1390 SWAP1 PUSH2 0x1052 PUSH1 0xC SLOAD SWAP1 JUMP JUMPDEST PUSH2 0x1077 PUSH1 0xC DUP1 SLOAD PUSH1 0x1 ADD SWAP1 SSTORE JUMP JUMPDEST PUSH1 0xA SLOAD PUSH1 0x1 PUSH1 0x1 PUSH1 0xA0 SHL SUB PUSH2 0x100 SWAP1 SWAP2 DIV AND CALLER EQ PUSH2 0x13CE JUMPI PUSH1 0x40 MLOAD PUSH3 0x461BCD PUSH1 0xE5 SHL DUP2 MSTORE PUSH1 0x4 ADD PUSH2 0xB88 SWAP1 PUSH2 0x34EB JUMP JUMPDEST PUSH1 0x0 SELFBALANCE GT PUSH2 0x1417 JUMPI PUSH1 0x40 MLOAD PUSH3 0x461BCD PUSH1 0xE5 SHL DUP2 MSTORE PUSH1 0x20 PUSH1 0x4 DUP3 ADD MSTORE PUSH1 0x16 PUSH1 0x24 DUP3 ADD MSTORE PUSH22 0x21B7B73A3930B1BA103130B630B731B29034B9901817 PUSH1 0x51 SHL PUSH1 0x44 DUP3 ADD MSTORE PUSH1 0x64 ADD PUSH2 0xB88 JUMP JUMPDEST PUSH1 0x12 SLOAD PUSH1 0x40 MLOAD PUSH1 0x0 SWAP2 PUSH3 0x10000 SWAP1 DIV PUSH1 0x1 PUSH1 0x1 PUSH1 0xA0 SHL SUB AND SWAP1 SELFBALANCE SWAP1 DUP4 DUP2 DUP2 DUP2 DUP6 DUP8 GAS CALL SWAP3 POP POP POP RETURNDATASIZE DUP1 PUSH1 0x0 DUP2 EQ PUSH2 0x146A JUMPI PUSH1 0x40 MLOAD SWAP2 POP PUSH1 0x1F NOT PUSH1 0x3F RETURNDATASIZE ADD AND DUP3 ADD PUSH1 0x40 MSTORE RETURNDATASIZE DUP3 MSTORE RETURNDATASIZE PUSH1 0x0 PUSH1 0x20 DUP5 ADD RETURNDATACOPY PUSH2 0x146F JUMP JUMPDEST PUSH1 0x60 SWAP2 POP JUMPDEST POP POP SWAP1 POP DUP1 PUSH2 0x14B4 JUMPI PUSH1 0x40 MLOAD PUSH3 0x461BCD PUSH1 0xE5 SHL DUP2 MSTORE PUSH1 0x20 PUSH1 0x4 DUP3 ADD MSTORE PUSH1 0x11 PUSH1 0x24 DUP3 ADD MSTORE PUSH17 0x2BB4BA34323930BBB6103330B4B632B217 PUSH1 0x79 SHL PUSH1 0x44 DUP3 ADD MSTORE PUSH1 0x64 ADD PUSH2 0xB88 JUMP JUMPDEST POP JUMP JUMPDEST PUSH1 0xA SLOAD PUSH1 0x1 PUSH1 0x1 PUSH1 0xA0 SHL SUB PUSH2 0x100 SWAP1 SWAP2 DIV AND CALLER EQ PUSH2 0x14E7 JUMPI PUSH1 0x40 MLOAD PUSH3 0x461BCD PUSH1 0xE5 SHL DUP2 MSTORE PUSH1 0x4 ADD PUSH2 0xB88 SWAP1 PUSH2 0x34EB JUMP JUMPDEST PUSH2 0x14EF PUSH2 0x2641 JUMP JUMPDEST JUMP JUMPDEST PUSH2 0xCBE DUP4 DUP4 DUP4 PUSH1 0x40 MLOAD DUP1 PUSH1 0x20 ADD PUSH1 0x40 MSTORE DUP1 PUSH1 0x0 DUP2 MSTORE POP PUSH2 0x1DEA JUMP JUMPDEST PUSH1 0x60 PUSH1 0x0 PUSH2 0x1519 DUP4 PUSH2 0x186A JUMP JUMPDEST SWAP1 POP PUSH1 0x0 DUP2 PUSH8 0xFFFFFFFFFFFFFFFF DUP2 GT ISZERO PUSH2 0x1536 JUMPI PUSH2 0x1536 PUSH2 0x30CD JUMP JUMPDEST PUSH1 0x40 MLOAD SWAP1 DUP1 DUP3 MSTORE DUP1 PUSH1 0x20 MUL PUSH1 0x20 ADD DUP3 ADD PUSH1 0x40 MSTORE DUP1 ISZERO PUSH2 0x155F JUMPI DUP2 PUSH1 0x20 ADD PUSH1 0x20 DUP3 MUL DUP1 CALLDATASIZE DUP4 CALLDATACOPY ADD SWAP1 POP JUMPDEST POP SWAP1 POP PUSH1 0x0 JUMPDEST DUP3 DUP2 LT ISZERO PUSH2 0x15A6 JUMPI PUSH2 0x1577 DUP6 DUP3 PUSH2 0x1080 JUMP JUMPDEST DUP3 DUP3 DUP2 MLOAD DUP2 LT PUSH2 0x1589 JUMPI PUSH2 0x1589 PUSH2 0x3603 JUMP JUMPDEST PUSH1 0x20 SWAP1 DUP2 MUL SWAP2 SWAP1 SWAP2 ADD ADD MSTORE DUP1 PUSH2 0x159E DUP2 PUSH2 0x35E8 JUMP JUMPDEST SWAP2 POP POP PUSH2 0x1565 JUMP JUMPDEST POP SWAP4 SWAP3 POP POP POP JUMP JUMPDEST PUSH1 0x0 PUSH2 0x15B9 PUSH1 0x8 SLOAD SWAP1 JUMP JUMPDEST DUP3 LT PUSH2 0x161C JUMPI PUSH1 0x40 MLOAD PUSH3 0x461BCD PUSH1 0xE5 SHL DUP2 MSTORE PUSH1 0x20 PUSH1 0x4 DUP3 ADD MSTORE PUSH1 0x2C PUSH1 0x24 DUP3 ADD MSTORE PUSH32 0x455243373231456E756D657261626C653A20676C6F62616C20696E646578206F PUSH1 0x44 DUP3 ADD MSTORE PUSH12 0x7574206F6620626F756E6473 PUSH1 0xA0 SHL PUSH1 0x64 DUP3 ADD MSTORE PUSH1 0x84 ADD PUSH2 0xB88 JUMP JUMPDEST PUSH1 0x8 DUP3 DUP2 SLOAD DUP2 LT PUSH2 0x162F JUMPI PUSH2 0x162F PUSH2 0x3603 JUMP JUMPDEST SWAP1 PUSH1 0x0 MSTORE PUSH1 0x20 PUSH1 0x0 KECCAK256 ADD SLOAD SWAP1 POP SWAP2 SWAP1 POP JUMP JUMPDEST PUSH1 0xA SLOAD PUSH1 0x1 PUSH1 0x1 PUSH1 0xA0 SHL SUB PUSH2 0x100 SWAP1 SWAP2 DIV AND CALLER EQ PUSH2 0x1671 JUMPI PUSH1 0x40 MLOAD PUSH3 0x461BCD PUSH1 0xE5 SHL DUP2 MSTORE PUSH1 0x4 ADD PUSH2 0xB88 SWAP1 PUSH2 0x34EB JUMP JUMPDEST PUSH1 0x12 SLOAD PUSH1 0xFF AND ISZERO PUSH2 0x16B9 JUMPI PUSH1 0x40 MLOAD PUSH3 0x461BCD PUSH1 0xE5 SHL DUP2 MSTORE PUSH1 0x20 PUSH1 0x4 DUP3 ADD MSTORE PUSH1 0x12 PUSH1 0x24 DUP3 ADD MSTORE PUSH18 0x2130B9B2AAA9249034B990333937BD32B717 PUSH1 0x71 SHL PUSH1 0x44 DUP3 ADD MSTORE PUSH1 0x64 ADD PUSH2 0xB88 JUMP JUMPDEST DUP1 MLOAD PUSH2 0xDBF SWAP1 PUSH1 0xF SWAP1 PUSH1 0x20 DUP5 ADD SWAP1 PUSH2 0x2F37 JUMP JUMPDEST PUSH1 0xA SLOAD PUSH1 0x1 PUSH1 0x1 PUSH1 0xA0 SHL SUB PUSH2 0x100 SWAP1 SWAP2 DIV AND CALLER EQ PUSH2 0x16FC JUMPI PUSH1 0x40 MLOAD PUSH3 0x461BCD PUSH1 0xE5 SHL DUP2 MSTORE PUSH1 0x4 ADD PUSH2 0xB88 SWAP1 PUSH2 0x34EB JUMP JUMPDEST PUSH1 0x1 PUSH1 0x1 PUSH1 0xA0 SHL SUB AND PUSH1 0x0 SWAP1 DUP2 MSTORE PUSH1 0x14 PUSH1 0x20 MSTORE PUSH1 0x40 SWAP1 KECCAK256 DUP1 SLOAD PUSH1 0xFF NOT AND SWAP1 SSTORE JUMP JUMPDEST PUSH1 0xA SLOAD PUSH1 0x1 PUSH1 0x1 PUSH1 0xA0 SHL SUB PUSH2 0x100 SWAP1 SWAP2 DIV AND CALLER EQ PUSH2 0x174D JUMPI PUSH1 0x40 MLOAD PUSH3 0x461BCD PUSH1 0xE5 SHL DUP2 MSTORE PUSH1 0x4 ADD PUSH2 0xB88 SWAP1 PUSH2 0x34EB JUMP JUMPDEST PUSH1 0x11 SSTORE JUMP JUMPDEST PUSH1 0x0 DUP2 DUP2 MSTORE PUSH1 0x2 PUSH1 0x20 MSTORE PUSH1 0x40 DUP2 KECCAK256 SLOAD PUSH1 0x1 PUSH1 0x1 PUSH1 0xA0 SHL SUB AND DUP1 PUSH2 0xA7B JUMPI PUSH1 0x40 MLOAD PUSH3 0x461BCD PUSH1 0xE5 SHL DUP2 MSTORE PUSH1 0x20 PUSH1 0x4 DUP3 ADD MSTORE PUSH1 0x29 PUSH1 0x24 DUP3 ADD MSTORE PUSH32 0x4552433732313A206F776E657220717565727920666F72206E6F6E6578697374 PUSH1 0x44 DUP3 ADD MSTORE PUSH9 0x32B73A103A37B5B2B7 PUSH1 0xB9 SHL PUSH1 0x64 DUP3 ADD MSTORE PUSH1 0x84 ADD PUSH2 0xB88 JUMP JUMPDEST PUSH1 0xF DUP1 SLOAD PUSH2 0x17D6 SWAP1 PUSH2 0x34B0 JUMP JUMPDEST DUP1 PUSH1 0x1F ADD PUSH1 0x20 DUP1 SWAP2 DIV MUL PUSH1 0x20 ADD PUSH1 0x40 MLOAD SWAP1 DUP2 ADD PUSH1 0x40 MSTORE DUP1 SWAP3 SWAP2 SWAP1 DUP2 DUP2 MSTORE PUSH1 0x20 ADD DUP3 DUP1 SLOAD PUSH2 0x1802 SWAP1 PUSH2 0x34B0 JUMP JUMPDEST DUP1 ISZERO PUSH2 0x184F JUMPI DUP1 PUSH1 0x1F LT PUSH2 0x1824 JUMPI PUSH2 0x100 DUP1 DUP4 SLOAD DIV MUL DUP4 MSTORE SWAP2 PUSH1 0x20 ADD SWAP2 PUSH2 0x184F JUMP JUMPDEST DUP3 ADD SWAP2 SWAP1 PUSH1 0x0 MSTORE PUSH1 0x20 PUSH1 0x0 KECCAK256 SWAP1 JUMPDEST DUP2 SLOAD DUP2 MSTORE SWAP1 PUSH1 0x1 ADD SWAP1 PUSH1 0x20 ADD DUP1 DUP4 GT PUSH2 0x1832 JUMPI DUP3 SWAP1 SUB PUSH1 0x1F AND DUP3 ADD SWAP2 JUMPDEST POP POP POP POP POP DUP2 JUMP JUMPDEST PUSH1 0x0 PUSH2 0x1865 PUSH2 0x66A PUSH1 0x8 SLOAD SWAP1 JUMP JUMPDEST SWAP1 POP SWAP1 JUMP JUMPDEST PUSH1 0x0 PUSH1 0x1 PUSH1 0x1 PUSH1 0xA0 SHL SUB DUP3 AND PUSH2 0x18D5 JUMPI PUSH1 0x40 MLOAD PUSH3 0x461BCD PUSH1 0xE5 SHL DUP2 MSTORE PUSH1 0x20 PUSH1 0x4 DUP3 ADD MSTORE PUSH1 0x2A PUSH1 0x24 DUP3 ADD MSTORE PUSH32 0x4552433732313A2062616C616E636520717565727920666F7220746865207A65 PUSH1 0x44 DUP3 ADD MSTORE PUSH10 0x726F2061646472657373 PUSH1 0xB0 SHL PUSH1 0x64 DUP3 ADD MSTORE PUSH1 0x84 ADD PUSH2 0xB88 JUMP JUMPDEST POP PUSH1 0x1 PUSH1 0x1 PUSH1 0xA0 SHL SUB AND PUSH1 0x0 SWAP1 DUP2 MSTORE PUSH1 0x3 PUSH1 0x20 MSTORE PUSH1 0x40 SWAP1 KECCAK256 SLOAD SWAP1 JUMP JUMPDEST PUSH1 0xA SLOAD PUSH1 0x1 PUSH1 0x1 PUSH1 0xA0 SHL SUB PUSH2 0x100 SWAP1 SWAP2 DIV AND CALLER EQ PUSH2 0x1921 JUMPI PUSH1 0x40 MLOAD PUSH3 0x461BCD PUSH1 0xE5 SHL DUP2 MSTORE PUSH1 0x4 ADD PUSH2 0xB88 SWAP1 PUSH2 0x34EB JUMP JUMPDEST PUSH2 0x14EF PUSH1 0x0 PUSH2 0x26D4 JUMP JUMPDEST PUSH1 0xA SLOAD PUSH1 0x1 PUSH1 0x1 PUSH1 0xA0 SHL SUB PUSH2 0x100 SWAP1 SWAP2 DIV AND CALLER EQ PUSH2 0x195B JUMPI PUSH1 0x40 MLOAD PUSH3 0x461BCD PUSH1 0xE5 SHL DUP2 MSTORE PUSH1 0x4 ADD PUSH2 0xB88 SWAP1 PUSH2 0x34EB JUMP JUMPDEST PUSH1 0x3 PUSH1 0x19 SLOAD PUSH1 0xFF AND PUSH1 0x4 DUP2 GT ISZERO PUSH2 0x1974 JUMPI PUSH2 0x1974 PUSH2 0x3435 JUMP JUMPDEST EQ PUSH2 0x19C1 JUMPI PUSH1 0x40 MLOAD PUSH3 0x461BCD PUSH1 0xE5 SHL DUP2 MSTORE PUSH1 0x20 PUSH1 0x4 DUP3 ADD MSTORE PUSH1 0x18 PUSH1 0x24 DUP3 ADD MSTORE PUSH32 0x5465616D206D696E74206E6F7420696E697469617465642E0000000000000000 PUSH1 0x44 DUP3 ADD MSTORE PUSH1 0x64 ADD PUSH2 0xB88 JUMP JUMPDEST PUSH1 0x15 SLOAD PUSH1 0x16 SLOAD PUSH2 0x19D4 SWAP1 PUSH1 0xFF DUP5 AND PUSH2 0x35D0 JUMP JUMPDEST GT ISZERO PUSH2 0x1A36 JUMPI PUSH1 0x40 MLOAD PUSH3 0x461BCD PUSH1 0xE5 SHL DUP2 MSTORE PUSH1 0x20 PUSH1 0x4 DUP3 ADD MSTORE PUSH1 0x2B PUSH1 0x24 DUP3 ADD MSTORE PUSH32 0x5472616E73616374696F6E206578636565647320746F74616C207465616D2073 PUSH1 0x44 DUP3 ADD MSTORE PUSH11 0x30B6329039BAB838363C97 PUSH1 0xA9 SHL PUSH1 0x64 DUP3 ADD MSTORE PUSH1 0x84 ADD PUSH2 0xB88 JUMP JUMPDEST DUP1 PUSH1 0xFF AND PUSH1 0x16 PUSH1 0x0 DUP3 DUP3 SLOAD PUSH2 0x1A4B SWAP2 SWAP1 PUSH2 0x35D0 JUMP JUMPDEST SWAP1 SWAP2 SSTORE POP PUSH1 0x1 SWAP1 POP JUMPDEST DUP2 PUSH1 0xFF AND DUP2 GT PUSH2 0xDBF JUMPI PUSH2 0x1A6B CALLER PUSH2 0x1052 PUSH1 0xC SLOAD SWAP1 JUMP JUMPDEST PUSH2 0x1A79 PUSH1 0xC DUP1 SLOAD PUSH1 0x1 ADD SWAP1 SSTORE JUMP JUMPDEST DUP1 PUSH2 0x1A83 DUP2 PUSH2 0x35E8 JUMP JUMPDEST SWAP2 POP POP PUSH2 0x1A54 JUMP JUMPDEST PUSH1 0xA SLOAD PUSH1 0x1 PUSH1 0x1 PUSH1 0xA0 SHL SUB PUSH2 0x100 SWAP1 SWAP2 DIV AND CALLER EQ PUSH2 0x1ABB JUMPI PUSH1 0x40 MLOAD PUSH3 0x461BCD PUSH1 0xE5 SHL DUP2 MSTORE PUSH1 0x4 ADD PUSH2 0xB88 SWAP1 PUSH2 0x34EB JUMP JUMPDEST PUSH1 0xD SSTORE JUMP JUMPDEST PUSH1 0xA SLOAD PUSH1 0x1 PUSH1 0x1 PUSH1 0xA0 SHL SUB PUSH2 0x100 SWAP1 SWAP2 DIV AND CALLER EQ PUSH2 0x1AF0 JUMPI PUSH1 0x40 MLOAD PUSH3 0x461BCD PUSH1 0xE5 SHL DUP2 MSTORE PUSH1 0x4 ADD PUSH2 0xB88 SWAP1 PUSH2 0x34EB JUMP JUMPDEST PUSH1 0x0 PUSH1 0xE DUP1 SLOAD PUSH2 0x1AFF SWAP1 PUSH2 0x34B0 JUMP JUMPDEST SWAP1 POP GT PUSH2 0x1B4E JUMPI PUSH1 0x40 MLOAD PUSH3 0x461BCD PUSH1 0xE5 SHL DUP2 MSTORE PUSH1 0x20 PUSH1 0x4 DUP3 ADD MSTORE PUSH1 0x1B PUSH1 0x24 DUP3 ADD MSTORE PUSH32 0x50726F76656E616E63652068617368206973206E6F74207365742E0000000000 PUSH1 0x44 DUP3 ADD MSTORE PUSH1 0x64 ADD PUSH2 0xB88 JUMP JUMPDEST PUSH1 0x12 SLOAD PUSH2 0x100 SWAP1 DIV PUSH1 0xFF AND ISZERO PUSH2 0x1BB1 JUMPI PUSH1 0x40 MLOAD PUSH3 0x461BCD PUSH1 0xE5 SHL DUP2 MSTORE PUSH1 0x20 PUSH1 0x4 DUP3 ADD MSTORE PUSH1 0x22 PUSH1 0x24 DUP3 ADD MSTORE PUSH32 0x50726F76656E616E6365206861736820697320616C72656164792066726F7A65 PUSH1 0x44 DUP3 ADD MSTORE PUSH2 0x3717 PUSH1 0xF1 SHL PUSH1 0x64 DUP3 ADD MSTORE PUSH1 0x84 ADD PUSH2 0xB88 JUMP JUMPDEST PUSH1 0x12 DUP1 SLOAD PUSH2 0xFF00 NOT AND PUSH2 0x100 OR SWAP1 SSTORE JUMP JUMPDEST PUSH1 0xA SLOAD PUSH1 0x1 PUSH1 0x1 PUSH1 0xA0 SHL SUB PUSH2 0x100 SWAP1 SWAP2 DIV AND CALLER EQ PUSH2 0x1BF2 JUMPI PUSH1 0x40 MLOAD PUSH3 0x461BCD PUSH1 0xE5 SHL DUP2 MSTORE PUSH1 0x4 ADD PUSH2 0xB88 SWAP1 PUSH2 0x34EB JUMP JUMPDEST PUSH2 0x14EF PUSH2 0x272E JUMP JUMPDEST PUSH1 0x60 PUSH1 0x1 DUP1 SLOAD PUSH2 0xA90 SWAP1 PUSH2 0x34B0 JUMP JUMPDEST PUSH2 0xDBF CALLER DUP4 DUP4 PUSH2 0x2786 JUMP JUMPDEST PUSH1 0xA SLOAD PUSH1 0x1 PUSH1 0x1 PUSH1 0xA0 SHL SUB PUSH2 0x100 SWAP1 SWAP2 DIV AND CALLER EQ PUSH2 0x1C44 JUMPI PUSH1 0x40 MLOAD PUSH3 0x461BCD PUSH1 0xE5 SHL DUP2 MSTORE PUSH1 0x4 ADD PUSH2 0xB88 SWAP1 PUSH2 0x34EB JUMP JUMPDEST PUSH1 0x0 PUSH1 0x19 SLOAD PUSH1 0xFF AND PUSH1 0x4 DUP2 GT ISZERO PUSH2 0x1C5D JUMPI PUSH2 0x1C5D PUSH2 0x3435 JUMP JUMPDEST GT PUSH2 0x1CA1 JUMPI PUSH1 0x40 MLOAD PUSH3 0x461BCD PUSH1 0xE5 SHL DUP2 MSTORE PUSH1 0x20 PUSH1 0x4 DUP3 ADD MSTORE PUSH1 0x14 PUSH1 0x24 DUP3 ADD MSTORE PUSH20 0x27379030B4B9323937B8399030BA1034B734BA17 PUSH1 0x61 SHL PUSH1 0x44 DUP3 ADD MSTORE PUSH1 0x64 ADD PUSH2 0xB88 JUMP JUMPDEST PUSH1 0x17 SLOAD DUP3 PUSH1 0xFF AND PUSH2 0x1CB1 PUSH1 0x8 SLOAD SWAP1 JUMP JUMPDEST PUSH2 0x1CBB SWAP2 SWAP1 PUSH2 0x35D0 JUMP JUMPDEST GT ISZERO PUSH2 0x1D1C JUMPI PUSH1 0x40 MLOAD PUSH3 0x461BCD PUSH1 0xE5 SHL DUP2 MSTORE PUSH1 0x20 PUSH1 0x4 DUP3 ADD MSTORE PUSH1 0x2A PUSH1 0x24 DUP3 ADD MSTORE PUSH32 0x4D696E7420616D6F756E742077696C6C2065786365656420746F74616C207361 PUSH1 0x44 DUP3 ADD MSTORE PUSH10 0x36329039BAB838363C97 PUSH1 0xB1 SHL PUSH1 0x64 DUP3 ADD MSTORE PUSH1 0x84 ADD PUSH2 0xB88 JUMP JUMPDEST PUSH1 0x1 JUMPDEST DUP3 PUSH1 0xFF AND DUP2 GT PUSH2 0xCBE JUMPI PUSH2 0x1D36 DUP3 PUSH2 0x1052 PUSH1 0xC SLOAD SWAP1 JUMP JUMPDEST PUSH2 0x1D44 PUSH1 0xC DUP1 SLOAD PUSH1 0x1 ADD SWAP1 SSTORE JUMP JUMPDEST DUP1 PUSH2 0x1D4E DUP2 PUSH2 0x35E8 JUMP JUMPDEST SWAP2 POP POP PUSH2 0x1D1F JUMP JUMPDEST PUSH1 0xD SLOAD PUSH1 0x40 MLOAD PUSH12 0xFFFFFFFFFFFFFFFFFFFFFFFF NOT PUSH1 0x60 DUP7 SWAP1 SHL AND PUSH1 0x20 DUP3 ADD MSTORE PUSH1 0x0 SWAP2 PUSH2 0x1DD2 SWAP2 PUSH1 0x34 ADD PUSH1 0x40 MLOAD PUSH1 0x20 DUP2 DUP4 SUB SUB DUP2 MSTORE SWAP1 PUSH1 0x40 MSTORE DUP1 MLOAD SWAP1 PUSH1 0x20 ADD KECCAK256 DUP6 DUP6 DUP1 DUP1 PUSH1 0x20 MUL PUSH1 0x20 ADD PUSH1 0x40 MLOAD SWAP1 DUP2 ADD PUSH1 0x40 MSTORE DUP1 SWAP4 SWAP3 SWAP2 SWAP1 DUP2 DUP2 MSTORE PUSH1 0x20 ADD DUP4 DUP4 PUSH1 0x20 MUL DUP1 DUP3 DUP5 CALLDATACOPY PUSH1 0x0 SWAP3 ADD SWAP2 SWAP1 SWAP2 MSTORE POP SWAP3 SWAP5 SWAP4 SWAP3 POP POP PUSH2 0x262B SWAP1 POP JUMP JUMPDEST ISZERO PUSH2 0x1DDF JUMPI POP PUSH1 0x1 PUSH2 0x1DE3 JUMP JUMPDEST POP PUSH1 0x0 JUMPDEST SWAP4 SWAP3 POP POP POP JUMP JUMPDEST PUSH2 0x1DF4 CALLER DUP4 PUSH2 0x2373 JUMP JUMPDEST PUSH2 0x1E10 JUMPI PUSH1 0x40 MLOAD PUSH3 0x461BCD PUSH1 0xE5 SHL DUP2 MSTORE PUSH1 0x4 ADD PUSH2 0xB88 SWAP1 PUSH2 0x3520 JUMP JUMPDEST PUSH2 0x1E1C DUP5 DUP5 DUP5 DUP5 PUSH2 0x2855 JUMP JUMPDEST POP POP POP POP JUMP JUMPDEST PUSH1 0xA SLOAD PUSH1 0x1 PUSH1 0x1 PUSH1 0xA0 SHL SUB PUSH2 0x100 SWAP1 SWAP2 DIV AND CALLER EQ PUSH2 0x1E52 JUMPI PUSH1 0x40 MLOAD PUSH3 0x461BCD PUSH1 0xE5 SHL DUP2 MSTORE PUSH1 0x4 ADD PUSH2 0xB88 SWAP1 PUSH2 0x34EB JUMP JUMPDEST PUSH1 0x1 PUSH1 0x1 PUSH1 0xA0 SHL SUB AND PUSH1 0x0 SWAP1 DUP2 MSTORE PUSH1 0x14 PUSH1 0x20 MSTORE PUSH1 0x40 SWAP1 KECCAK256 DUP1 SLOAD PUSH1 0xFF NOT AND PUSH1 0x1 OR SWAP1 SSTORE JUMP JUMPDEST PUSH1 0x10 DUP1 SLOAD PUSH2 0x17D6 SWAP1 PUSH2 0x34B0 JUMP JUMPDEST PUSH1 0xE DUP1 SLOAD PUSH2 0x17D6 SWAP1 PUSH2 0x34B0 JUMP JUMPDEST PUSH1 0x0 DUP2 DUP2 MSTORE PUSH1 0x2 PUSH1 0x20 MSTORE PUSH1 0x40 SWAP1 KECCAK256 SLOAD PUSH1 0x60 SWAP1 PUSH1 0x1 PUSH1 0x1 PUSH1 0xA0 SHL SUB AND PUSH2 0x1F10 JUMPI PUSH1 0x40 MLOAD PUSH3 0x461BCD PUSH1 0xE5 SHL DUP2 MSTORE PUSH1 0x20 PUSH1 0x4 DUP3 ADD MSTORE PUSH1 0x30 PUSH1 0x24 DUP3 ADD MSTORE PUSH32 0x4552433732314D657461646174613A2055524920717565727920666F72206E6F PUSH1 0x44 DUP3 ADD MSTORE PUSH16 0x3732BC34B9BA32B73A103A37B5B2B717 PUSH1 0x81 SHL PUSH1 0x64 DUP3 ADD MSTORE PUSH1 0x84 ADD PUSH2 0xB88 JUMP JUMPDEST PUSH1 0xF PUSH2 0x1F1B DUP4 PUSH2 0x2888 JUMP JUMPDEST PUSH1 0x10 PUSH1 0x40 MLOAD PUSH1 0x20 ADD PUSH2 0x1F2F SWAP4 SWAP3 SWAP2 SWAP1 PUSH2 0x36B3 JUMP JUMPDEST PUSH1 0x40 MLOAD PUSH1 0x20 DUP2 DUP4 SUB SUB DUP2 MSTORE SWAP1 PUSH1 0x40 MSTORE SWAP1 POP SWAP2 SWAP1 POP JUMP JUMPDEST PUSH1 0xA SLOAD PUSH1 0x1 PUSH1 0x1 PUSH1 0xA0 SHL SUB PUSH2 0x100 SWAP1 SWAP2 DIV AND CALLER EQ PUSH2 0x1F75 JUMPI PUSH1 0x40 MLOAD PUSH3 0x461BCD PUSH1 0xE5 SHL DUP2 MSTORE PUSH1 0x4 ADD PUSH2 0xB88 SWAP1 PUSH2 0x34EB JUMP JUMPDEST PUSH1 0x12 SLOAD PUSH1 0xFF PUSH2 0x100 SWAP1 SWAP2 DIV AND ISZERO ISZERO PUSH1 0x1 EQ PUSH2 0x1FF8 JUMPI PUSH1 0x40 MLOAD PUSH3 0x461BCD PUSH1 0xE5 SHL DUP2 MSTORE PUSH1 0x20 PUSH1 0x4 DUP3 ADD MSTORE PUSH1 0x38 PUSH1 0x24 DUP3 ADD MSTORE PUSH32 0x50726F76656E616E63652068617368206D7573742062652066726F7A656E2062 PUSH1 0x44 DUP3 ADD MSTORE PUSH32 0x65666F7265206D696E74696E672063616E2073746172742E0000000000000000 PUSH1 0x64 DUP3 ADD MSTORE PUSH1 0x84 ADD PUSH2 0xB88 JUMP JUMPDEST PUSH1 0xD SLOAD PUSH2 0x2062 JUMPI PUSH1 0x40 MLOAD PUSH3 0x461BCD PUSH1 0xE5 SHL DUP2 MSTORE PUSH1 0x20 PUSH1 0x4 DUP3 ADD MSTORE PUSH1 0x32 PUSH1 0x24 DUP3 ADD MSTORE PUSH32 0x4D65726B6C6520726F6F74206D7573742062652073657420626565666F726520 PUSH1 0x44 DUP3 ADD MSTORE PUSH18 0x36B4B73A34B7339031B0B71039BA30B93A17 PUSH1 0x71 SHL PUSH1 0x64 DUP3 ADD MSTORE PUSH1 0x84 ADD PUSH2 0xB88 JUMP JUMPDEST PUSH1 0x19 DUP1 SLOAD DUP3 SWAP2 SWAP1 PUSH1 0xFF NOT AND PUSH1 0x1 DUP4 PUSH1 0x4 DUP2 GT ISZERO PUSH2 0x2081 JUMPI PUSH2 0x2081 PUSH2 0x3435 JUMP JUMPDEST MUL OR SWAP1 SSTORE POP POP JUMP JUMPDEST PUSH1 0x0 PUSH2 0x1865 PUSH1 0x8 SLOAD SWAP1 JUMP JUMPDEST PUSH1 0xA SLOAD PUSH1 0x1 PUSH1 0x1 PUSH1 0xA0 SHL SUB PUSH2 0x100 SWAP1 SWAP2 DIV AND CALLER EQ PUSH2 0x20C4 JUMPI PUSH1 0x40 MLOAD PUSH3 0x461BCD PUSH1 0xE5 SHL DUP2 MSTORE PUSH1 0x4 ADD PUSH2 0xB88 SWAP1 PUSH2 0x34EB JUMP JUMPDEST DUP1 MLOAD PUSH2 0xDBF SWAP1 PUSH1 0x10 SWAP1 PUSH1 0x20 DUP5 ADD SWAP1 PUSH2 0x2F37 JUMP JUMPDEST PUSH1 0x0 PUSH2 0x20E2 PUSH1 0x8 SLOAD SWAP1 JUMP JUMPDEST PUSH1 0x17 SLOAD PUSH2 0x1865 SWAP2 SWAP1 PUSH2 0x36E6 JUMP JUMPDEST PUSH1 0xA SLOAD PUSH1 0x1 PUSH1 0x1 PUSH1 0xA0 SHL SUB PUSH2 0x100 SWAP1 SWAP2 DIV AND CALLER EQ PUSH2 0x211F JUMPI PUSH1 0x40 MLOAD PUSH3 0x461BCD PUSH1 0xE5 SHL DUP2 MSTORE PUSH1 0x4 ADD PUSH2 0xB88 SWAP1 PUSH2 0x34EB JUMP JUMPDEST PUSH1 0x0 PUSH1 0xF DUP1 SLOAD PUSH2 0x212E SWAP1 PUSH2 0x34B0 JUMP JUMPDEST SWAP1 POP GT PUSH2 0x217D JUMPI PUSH1 0x40 MLOAD PUSH3 0x461BCD PUSH1 0xE5 SHL DUP2 MSTORE PUSH1 0x20 PUSH1 0x4 DUP3 ADD MSTORE PUSH1 0x18 PUSH1 0x24 DUP3 ADD MSTORE PUSH32 0x426173655552492063616E6E6F7420626520656D7074792E0000000000000000 PUSH1 0x44 DUP3 ADD MSTORE PUSH1 0x64 ADD PUSH2 0xB88 JUMP JUMPDEST PUSH1 0x12 SLOAD PUSH1 0xFF AND ISZERO PUSH2 0x21D0 JUMPI PUSH1 0x40 MLOAD PUSH3 0x461BCD PUSH1 0xE5 SHL DUP2 MSTORE PUSH1 0x20 PUSH1 0x4 DUP3 ADD MSTORE PUSH1 0x1A PUSH1 0x24 DUP3 ADD MSTORE PUSH32 0x4261736555524920697320616C72656164792066726F7A656E2E000000000000 PUSH1 0x44 DUP3 ADD MSTORE PUSH1 0x64 ADD PUSH2 0xB88 JUMP JUMPDEST PUSH1 0x12 DUP1 SLOAD PUSH1 0xFF NOT AND PUSH1 0x1 OR SWAP1 SSTORE JUMP JUMPDEST PUSH1 0xA SLOAD PUSH1 0x1 PUSH1 0x1 PUSH1 0xA0 SHL SUB PUSH2 0x100 SWAP1 SWAP2 DIV AND CALLER EQ PUSH2 0x220F JUMPI PUSH1 0x40 MLOAD PUSH3 0x461BCD PUSH1 0xE5 SHL DUP2 MSTORE PUSH1 0x4 ADD PUSH2 0xB88 SWAP1 PUSH2 0x34EB JUMP JUMPDEST PUSH1 0x1 PUSH1 0x1 PUSH1 0xA0 SHL SUB DUP2 AND PUSH2 0x2274 JUMPI PUSH1 0x40 MLOAD PUSH3 0x461BCD PUSH1 0xE5 SHL DUP2 MSTORE PUSH1 0x20 PUSH1 0x4 DUP3 ADD MSTORE PUSH1 0x26 PUSH1 0x24 DUP3 ADD MSTORE PUSH32 0x4F776E61626C653A206E6577206F776E657220697320746865207A65726F2061 PUSH1 0x44 DUP3 ADD MSTORE PUSH6 0x646472657373 PUSH1 0xD0 SHL PUSH1 0x64 DUP3 ADD MSTORE PUSH1 0x84 ADD PUSH2 0xB88 JUMP JUMPDEST PUSH2 0x14B4 DUP2 PUSH2 0x26D4 JUMP JUMPDEST PUSH1 0xA SLOAD PUSH1 0x1 PUSH1 0x1 PUSH1 0xA0 SHL SUB PUSH2 0x100 SWAP1 SWAP2 DIV AND CALLER EQ PUSH2 0x22AD JUMPI PUSH1 0x40 MLOAD PUSH3 0x461BCD PUSH1 0xE5 SHL DUP2 MSTORE PUSH1 0x4 ADD PUSH2 0xB88 SWAP1 PUSH2 0x34EB JUMP JUMPDEST PUSH1 0x12 DUP1 SLOAD PUSH1 0x1 PUSH1 0x1 PUSH1 0xA0 SHL SUB SWAP1 SWAP3 AND PUSH3 0x10000 MUL PUSH3 0x10000 PUSH1 0x1 PUSH1 0xB0 SHL SUB NOT SWAP1 SWAP3 AND SWAP2 SWAP1 SWAP2 OR SWAP1 SSTORE JUMP JUMPDEST DUP1 SLOAD PUSH1 0x1 ADD SWAP1 SSTORE JUMP JUMPDEST PUSH1 0x0 PUSH1 0x1 PUSH1 0x1 PUSH1 0xE0 SHL SUB NOT DUP3 AND PUSH4 0x780E9D63 PUSH1 0xE0 SHL EQ DUP1 PUSH2 0xA7B JUMPI POP PUSH2 0xA7B DUP3 PUSH2 0x2986 JUMP JUMPDEST PUSH1 0x0 DUP2 DUP2 MSTORE PUSH1 0x4 PUSH1 0x20 MSTORE PUSH1 0x40 SWAP1 KECCAK256 DUP1 SLOAD PUSH1 0x1 PUSH1 0x1 PUSH1 0xA0 SHL SUB NOT AND PUSH1 0x1 PUSH1 0x1 PUSH1 0xA0 SHL SUB DUP5 AND SWAP1 DUP2 OR SWAP1 SWAP2 SSTORE DUP2 SWAP1 PUSH2 0x233A DUP3 PUSH2 0x1752 JUMP JUMPDEST PUSH1 0x1 PUSH1 0x1 PUSH1 0xA0 SHL SUB AND PUSH32 0x8C5BE1E5EBEC7D5BD14F71427D1E84F3DD0314C0F7B2291E5B200AC8C7C3B925 PUSH1 0x40 MLOAD PUSH1 0x40 MLOAD DUP1 SWAP2 SUB SWAP1 LOG4 POP POP JUMP JUMPDEST PUSH1 0x0 DUP2 DUP2 MSTORE PUSH1 0x2 PUSH1 0x20 MSTORE PUSH1 0x40 DUP2 KECCAK256 SLOAD PUSH1 0x1 PUSH1 0x1 PUSH1 0xA0 SHL SUB AND PUSH2 0x23EC JUMPI PUSH1 0x40 MLOAD PUSH3 0x461BCD PUSH1 0xE5 SHL DUP2 MSTORE PUSH1 0x20 PUSH1 0x4 DUP3 ADD MSTORE PUSH1 0x2C PUSH1 0x24 DUP3 ADD MSTORE PUSH32 0x4552433732313A206F70657261746F7220717565727920666F72206E6F6E6578 PUSH1 0x44 DUP3 ADD MSTORE PUSH12 0x34B9BA32B73A103A37B5B2B7 PUSH1 0xA1 SHL PUSH1 0x64 DUP3 ADD MSTORE PUSH1 0x84 ADD PUSH2 0xB88 JUMP JUMPDEST PUSH1 0x0 PUSH2 0x23F7 DUP4 PUSH2 0x1752 JUMP JUMPDEST SWAP1 POP DUP1 PUSH1 0x1 PUSH1 0x1 PUSH1 0xA0 SHL SUB AND DUP5 PUSH1 0x1 PUSH1 0x1 PUSH1 0xA0 SHL SUB AND EQ DUP1 PUSH2 0x2432 JUMPI POP DUP4 PUSH1 0x1 PUSH1 0x1 PUSH1 0xA0 SHL SUB AND PUSH2 0x2427 DUP5 PUSH2 0xB13 JUMP JUMPDEST PUSH1 0x1 PUSH1 0x1 PUSH1 0xA0 SHL SUB AND EQ JUMPDEST DUP1 PUSH2 0x2462 JUMPI POP PUSH1 0x1 PUSH1 0x1 PUSH1 0xA0 SHL SUB DUP1 DUP3 AND PUSH1 0x0 SWAP1 DUP2 MSTORE PUSH1 0x5 PUSH1 0x20 SWAP1 DUP2 MSTORE PUSH1 0x40 DUP1 DUP4 KECCAK256 SWAP4 DUP9 AND DUP4 MSTORE SWAP3 SWAP1 MSTORE KECCAK256 SLOAD PUSH1 0xFF AND JUMPDEST SWAP5 SWAP4 POP POP POP POP JUMP JUMPDEST DUP3 PUSH1 0x1 PUSH1 0x1 PUSH1 0xA0 SHL SUB AND PUSH2 0x247D DUP3 PUSH2 0x1752 JUMP JUMPDEST PUSH1 0x1 PUSH1 0x1 PUSH1 0xA0 SHL SUB AND EQ PUSH2 0x24E1 JUMPI PUSH1 0x40 MLOAD PUSH3 0x461BCD PUSH1 0xE5 SHL DUP2 MSTORE PUSH1 0x20 PUSH1 0x4 DUP3 ADD MSTORE PUSH1 0x25 PUSH1 0x24 DUP3 ADD MSTORE PUSH32 0x4552433732313A207472616E736665722066726F6D20696E636F727265637420 PUSH1 0x44 DUP3 ADD MSTORE PUSH5 0x37BBB732B9 PUSH1 0xD9 SHL PUSH1 0x64 DUP3 ADD MSTORE PUSH1 0x84 ADD PUSH2 0xB88 JUMP JUMPDEST PUSH1 0x1 PUSH1 0x1 PUSH1 0xA0 SHL SUB DUP3 AND PUSH2 0x2543 JUMPI PUSH1 0x40 MLOAD PUSH3 0x461BCD PUSH1 0xE5 SHL DUP2 MSTORE PUSH1 0x20 PUSH1 0x4 DUP3 ADD MSTORE PUSH1 0x24 DUP1 DUP3 ADD MSTORE PUSH32 0x4552433732313A207472616E7366657220746F20746865207A65726F20616464 PUSH1 0x44 DUP3 ADD MSTORE PUSH4 0x72657373 PUSH1 0xE0 SHL PUSH1 0x64 DUP3 ADD MSTORE PUSH1 0x84 ADD PUSH2 0xB88 JUMP JUMPDEST PUSH2 0x254E DUP4 DUP4 DUP4 PUSH2 0x29D6 JUMP JUMPDEST PUSH2 0x2559 PUSH1 0x0 DUP3 PUSH2 0x2305 JUMP JUMPDEST PUSH1 0x1 PUSH1 0x1 PUSH1 0xA0 SHL SUB DUP4 AND PUSH1 0x0 SWAP1 DUP2 MSTORE PUSH1 0x3 PUSH1 0x20 MSTORE PUSH1 0x40 DUP2 KECCAK256 DUP1 SLOAD PUSH1 0x1 SWAP3 SWAP1 PUSH2 0x2582 SWAP1 DUP5 SWAP1 PUSH2 0x36E6 JUMP JUMPDEST SWAP1 SWAP2 SSTORE POP POP PUSH1 0x1 PUSH1 0x1 PUSH1 0xA0 SHL SUB DUP3 AND PUSH1 0x0 SWAP1 DUP2 MSTORE PUSH1 0x3 PUSH1 0x20 MSTORE PUSH1 0x40 DUP2 KECCAK256 DUP1 SLOAD PUSH1 0x1 SWAP3 SWAP1 PUSH2 0x25B0 SWAP1 DUP5 SWAP1 PUSH2 0x35D0 JUMP JUMPDEST SWAP1 SWAP2 SSTORE POP POP PUSH1 0x0 DUP2 DUP2 MSTORE PUSH1 0x2 PUSH1 0x20 MSTORE PUSH1 0x40 DUP1 DUP3 KECCAK256 DUP1 SLOAD PUSH1 0x1 PUSH1 0x1 PUSH1 0xA0 SHL SUB NOT AND PUSH1 0x1 PUSH1 0x1 PUSH1 0xA0 SHL SUB DUP7 DUP2 AND SWAP2 DUP3 OR SWAP1 SWAP3 SSTORE SWAP2 MLOAD DUP5 SWAP4 SWAP2 DUP8 AND SWAP2 PUSH32 0xDDF252AD1BE2C89B69C2B068FC378DAA952BA7F163C4A11628F55A4DF523B3EF SWAP2 LOG4 POP POP POP JUMP JUMPDEST PUSH2 0xDBF DUP3 DUP3 PUSH1 0x40 MLOAD DUP1 PUSH1 0x20 ADD PUSH1 0x40 MSTORE DUP1 PUSH1 0x0 DUP2 MSTORE POP PUSH2 0x2A04 JUMP JUMPDEST PUSH1 0x0 DUP3 PUSH2 0x2638 DUP6 DUP5 PUSH2 0x2A37 JUMP JUMPDEST EQ SWAP5 SWAP4 POP POP POP POP JUMP JUMPDEST PUSH1 0xA SLOAD PUSH1 0xFF AND PUSH2 0x268A JUMPI PUSH1 0x40 MLOAD PUSH3 0x461BCD PUSH1 0xE5 SHL DUP2 MSTORE PUSH1 0x20 PUSH1 0x4 DUP3 ADD MSTORE PUSH1 0x14 PUSH1 0x24 DUP3 ADD MSTORE PUSH20 0x14185D5CD8589B194E881B9BDD081C185D5CD959 PUSH1 0x62 SHL PUSH1 0x44 DUP3 ADD MSTORE PUSH1 0x64 ADD PUSH2 0xB88 JUMP JUMPDEST PUSH1 0xA DUP1 SLOAD PUSH1 0xFF NOT AND SWAP1 SSTORE PUSH32 0x5DB9EE0A495BF2E6FF9C91A7834C1BA4FDD244A5E8AA4E537BD38AEAE4B073AA CALLER JUMPDEST PUSH1 0x40 MLOAD PUSH1 0x1 PUSH1 0x1 PUSH1 0xA0 SHL SUB SWAP1 SWAP2 AND DUP2 MSTORE PUSH1 0x20 ADD PUSH1 0x40 MLOAD DUP1 SWAP2 SUB SWAP1 LOG1 JUMP JUMPDEST PUSH1 0xA DUP1 SLOAD PUSH1 0x1 PUSH1 0x1 PUSH1 0xA0 SHL SUB DUP4 DUP2 AND PUSH2 0x100 DUP2 DUP2 MUL PUSH2 0x100 PUSH1 0x1 PUSH1 0xA8 SHL SUB NOT DUP6 AND OR SWAP1 SWAP5 SSTORE PUSH1 0x40 MLOAD SWAP4 SWAP1 SWAP3 DIV AND SWAP2 DUP3 SWAP1 PUSH32 0x8BE0079C531659141344CD1FD0A4F28419497F9722A3DAAFE3B4186F6B6457E0 SWAP1 PUSH1 0x0 SWAP1 LOG3 POP POP JUMP JUMPDEST PUSH1 0xA SLOAD PUSH1 0xFF AND ISZERO PUSH2 0x2751 JUMPI PUSH1 0x40 MLOAD PUSH3 0x461BCD PUSH1 0xE5 SHL DUP2 MSTORE PUSH1 0x4 ADD PUSH2 0xB88 SWAP1 PUSH2 0x3571 JUMP JUMPDEST PUSH1 0xA DUP1 SLOAD PUSH1 0xFF NOT AND PUSH1 0x1 OR SWAP1 SSTORE PUSH32 0x62E78CEA01BEE320CD4E420270B5EA74000D11B0C9F74754EBDBFC544B05A258 PUSH2 0x26B7 CALLER SWAP1 JUMP JUMPDEST DUP2 PUSH1 0x1 PUSH1 0x1 PUSH1 0xA0 SHL SUB AND DUP4 PUSH1 0x1 PUSH1 0x1 PUSH1 0xA0 SHL SUB AND EQ ISZERO PUSH2 0x27E8 JUMPI PUSH1 0x40 MLOAD PUSH3 0x461BCD PUSH1 0xE5 SHL DUP2 MSTORE PUSH1 0x20 PUSH1 0x4 DUP3 ADD MSTORE PUSH1 0x19 PUSH1 0x24 DUP3 ADD MSTORE PUSH32 0x4552433732313A20617070726F766520746F2063616C6C657200000000000000 PUSH1 0x44 DUP3 ADD MSTORE PUSH1 0x64 ADD PUSH2 0xB88 JUMP JUMPDEST PUSH1 0x1 PUSH1 0x1 PUSH1 0xA0 SHL SUB DUP4 DUP2 AND PUSH1 0x0 DUP2 DUP2 MSTORE PUSH1 0x5 PUSH1 0x20 SWAP1 DUP2 MSTORE PUSH1 0x40 DUP1 DUP4 KECCAK256 SWAP5 DUP8 AND DUP1 DUP5 MSTORE SWAP5 DUP3 MSTORE SWAP2 DUP3 SWAP1 KECCAK256 DUP1 SLOAD PUSH1 0xFF NOT AND DUP7 ISZERO ISZERO SWAP1 DUP2 OR SWAP1 SWAP2 SSTORE SWAP2 MLOAD SWAP2 DUP3 MSTORE PUSH32 0x17307EAB39AB6107E8899845AD3D59BD9653F200F220920489CA2B5937696C31 SWAP2 ADD PUSH1 0x40 MLOAD DUP1 SWAP2 SUB SWAP1 LOG3 POP POP POP JUMP JUMPDEST PUSH2 0x2860 DUP5 DUP5 DUP5 PUSH2 0x246A JUMP JUMPDEST PUSH2 0x286C DUP5 DUP5 DUP5 DUP5 PUSH2 0x2AA3 JUMP JUMPDEST PUSH2 0x1E1C JUMPI PUSH1 0x40 MLOAD PUSH3 0x461BCD PUSH1 0xE5 SHL DUP2 MSTORE PUSH1 0x4 ADD PUSH2 0xB88 SWAP1 PUSH2 0x36FD JUMP JUMPDEST PUSH1 0x60 DUP2 PUSH2 0x28AC JUMPI POP POP PUSH1 0x40 DUP1 MLOAD DUP1 DUP3 ADD SWAP1 SWAP2 MSTORE PUSH1 0x1 DUP2 MSTORE PUSH1 0x3 PUSH1 0xFC SHL PUSH1 0x20 DUP3 ADD MSTORE SWAP1 JUMP JUMPDEST DUP2 PUSH1 0x0 JUMPDEST DUP2 ISZERO PUSH2 0x28D6 JUMPI DUP1 PUSH2 0x28C0 DUP2 PUSH2 0x35E8 JUMP JUMPDEST SWAP2 POP PUSH2 0x28CF SWAP1 POP PUSH1 0xA DUP4 PUSH2 0x3765 JUMP JUMPDEST SWAP2 POP PUSH2 0x28B0 JUMP JUMPDEST PUSH1 0x0 DUP2 PUSH8 0xFFFFFFFFFFFFFFFF DUP2 GT ISZERO PUSH2 0x28F1 JUMPI PUSH2 0x28F1 PUSH2 0x30CD JUMP JUMPDEST PUSH1 0x40 MLOAD SWAP1 DUP1 DUP3 MSTORE DUP1 PUSH1 0x1F ADD PUSH1 0x1F NOT AND PUSH1 0x20 ADD DUP3 ADD PUSH1 0x40 MSTORE DUP1 ISZERO PUSH2 0x291B JUMPI PUSH1 0x20 DUP3 ADD DUP2 DUP1 CALLDATASIZE DUP4 CALLDATACOPY ADD SWAP1 POP JUMPDEST POP SWAP1 POP JUMPDEST DUP5 ISZERO PUSH2 0x2462 JUMPI PUSH2 0x2930 PUSH1 0x1 DUP4 PUSH2 0x36E6 JUMP JUMPDEST SWAP2 POP PUSH2 0x293D PUSH1 0xA DUP7 PUSH2 0x3779 JUMP JUMPDEST PUSH2 0x2948 SWAP1 PUSH1 0x30 PUSH2 0x35D0 JUMP JUMPDEST PUSH1 0xF8 SHL DUP2 DUP4 DUP2 MLOAD DUP2 LT PUSH2 0x295D JUMPI PUSH2 0x295D PUSH2 0x3603 JUMP JUMPDEST PUSH1 0x20 ADD ADD SWAP1 PUSH1 0x1 PUSH1 0x1 PUSH1 0xF8 SHL SUB NOT AND SWAP1 DUP2 PUSH1 0x0 BYTE SWAP1 MSTORE8 POP PUSH2 0x297F PUSH1 0xA DUP7 PUSH2 0x3765 JUMP JUMPDEST SWAP5 POP PUSH2 0x291F JUMP JUMPDEST PUSH1 0x0 PUSH1 0x1 PUSH1 0x1 PUSH1 0xE0 SHL SUB NOT DUP3 AND PUSH4 0x80AC58CD PUSH1 0xE0 SHL EQ DUP1 PUSH2 0x29B7 JUMPI POP PUSH1 0x1 PUSH1 0x1 PUSH1 0xE0 SHL SUB NOT DUP3 AND PUSH4 0x5B5E139F PUSH1 0xE0 SHL EQ JUMPDEST DUP1 PUSH2 0xA7B JUMPI POP PUSH4 0x1FFC9A7 PUSH1 0xE0 SHL PUSH1 0x1 PUSH1 0x1 PUSH1 0xE0 SHL SUB NOT DUP4 AND EQ PUSH2 0xA7B JUMP JUMPDEST PUSH1 0xA SLOAD PUSH1 0xFF AND ISZERO PUSH2 0x29F9 JUMPI PUSH1 0x40 MLOAD PUSH3 0x461BCD PUSH1 0xE5 SHL DUP2 MSTORE PUSH1 0x4 ADD PUSH2 0xB88 SWAP1 PUSH2 0x3571 JUMP JUMPDEST PUSH2 0xCBE DUP4 DUP4 DUP4 PUSH2 0x2BA1 JUMP JUMPDEST PUSH2 0x2A0E DUP4 DUP4 PUSH2 0x2C59 JUMP JUMPDEST PUSH2 0x2A1B PUSH1 0x0 DUP5 DUP5 DUP5 PUSH2 0x2AA3 JUMP JUMPDEST PUSH2 0xCBE JUMPI PUSH1 0x40 MLOAD PUSH3 0x461BCD PUSH1 0xE5 SHL DUP2 MSTORE PUSH1 0x4 ADD PUSH2 0xB88 SWAP1 PUSH2 0x36FD JUMP JUMPDEST PUSH1 0x0 DUP2 DUP2 JUMPDEST DUP5 MLOAD DUP2 LT ISZERO PUSH2 0x15A6 JUMPI PUSH1 0x0 DUP6 DUP3 DUP2 MLOAD DUP2 LT PUSH2 0x2A59 JUMPI PUSH2 0x2A59 PUSH2 0x3603 JUMP JUMPDEST PUSH1 0x20 MUL PUSH1 0x20 ADD ADD MLOAD SWAP1 POP DUP1 DUP4 GT PUSH2 0x2A7F JUMPI PUSH1 0x0 DUP4 DUP2 MSTORE PUSH1 0x20 DUP3 SWAP1 MSTORE PUSH1 0x40 SWAP1 KECCAK256 SWAP3 POP PUSH2 0x2A90 JUMP JUMPDEST PUSH1 0x0 DUP2 DUP2 MSTORE PUSH1 0x20 DUP5 SWAP1 MSTORE PUSH1 0x40 SWAP1 KECCAK256 SWAP3 POP JUMPDEST POP DUP1 PUSH2 0x2A9B DUP2 PUSH2 0x35E8 JUMP JUMPDEST SWAP2 POP POP PUSH2 0x2A3C JUMP JUMPDEST PUSH1 0x0 PUSH1 0x1 PUSH1 0x1 PUSH1 0xA0 SHL SUB DUP5 AND EXTCODESIZE ISZERO PUSH2 0x2B96 JUMPI PUSH1 0x40 MLOAD PUSH4 0xA85BD01 PUSH1 0xE1 SHL DUP2 MSTORE PUSH1 0x1 PUSH1 0x1 PUSH1 0xA0 SHL SUB DUP6 AND SWAP1 PUSH4 0x150B7A02 SWAP1 PUSH2 0x2AE7 SWAP1 CALLER SWAP1 DUP10 SWAP1 DUP9 SWAP1 DUP9 SWAP1 PUSH1 0x4 ADD PUSH2 0x378D JUMP JUMPDEST PUSH1 0x20 PUSH1 0x40 MLOAD DUP1 DUP4 SUB DUP2 PUSH1 0x0 DUP8 GAS CALL SWAP3 POP POP POP DUP1 ISZERO PUSH2 0x2B22 JUMPI POP PUSH1 0x40 DUP1 MLOAD PUSH1 0x1F RETURNDATASIZE SWAP1 DUP2 ADD PUSH1 0x1F NOT AND DUP3 ADD SWAP1 SWAP3 MSTORE PUSH2 0x2B1F SWAP2 DUP2 ADD SWAP1 PUSH2 0x37CA JUMP JUMPDEST PUSH1 0x1 JUMPDEST PUSH2 0x2B7C JUMPI RETURNDATASIZE DUP1 DUP1 ISZERO PUSH2 0x2B50 JUMPI PUSH1 0x40 MLOAD SWAP2 POP PUSH1 0x1F NOT PUSH1 0x3F RETURNDATASIZE ADD AND DUP3 ADD PUSH1 0x40 MSTORE RETURNDATASIZE DUP3 MSTORE RETURNDATASIZE PUSH1 0x0 PUSH1 0x20 DUP5 ADD RETURNDATACOPY PUSH2 0x2B55 JUMP JUMPDEST PUSH1 0x60 SWAP2 POP JUMPDEST POP DUP1 MLOAD PUSH2 0x2B74 JUMPI PUSH1 0x40 MLOAD PUSH3 0x461BCD PUSH1 0xE5 SHL DUP2 MSTORE PUSH1 0x4 ADD PUSH2 0xB88 SWAP1 PUSH2 0x36FD JUMP JUMPDEST DUP1 MLOAD DUP2 PUSH1 0x20 ADD REVERT JUMPDEST PUSH1 0x1 PUSH1 0x1 PUSH1 0xE0 SHL SUB NOT AND PUSH4 0xA85BD01 PUSH1 0xE1 SHL EQ SWAP1 POP PUSH2 0x2462 JUMP JUMPDEST POP PUSH1 0x1 SWAP5 SWAP4 POP POP POP POP JUMP JUMPDEST PUSH1 0x1 PUSH1 0x1 PUSH1 0xA0 SHL SUB DUP4 AND PUSH2 0x2BFC JUMPI PUSH2 0x2BF7 DUP2 PUSH1 0x8 DUP1 SLOAD PUSH1 0x0 DUP4 DUP2 MSTORE PUSH1 0x9 PUSH1 0x20 MSTORE PUSH1 0x40 DUP2 KECCAK256 DUP3 SWAP1 SSTORE PUSH1 0x1 DUP3 ADD DUP4 SSTORE SWAP2 SWAP1 SWAP2 MSTORE PUSH32 0xF3F7A9FE364FAAB93B216DA50A3214154F22A0A2B415B23A84C8169E8B636EE3 ADD SSTORE JUMP JUMPDEST PUSH2 0x2C1F JUMP JUMPDEST DUP2 PUSH1 0x1 PUSH1 0x1 PUSH1 0xA0 SHL SUB AND DUP4 PUSH1 0x1 PUSH1 0x1 PUSH1 0xA0 SHL SUB AND EQ PUSH2 0x2C1F JUMPI PUSH2 0x2C1F DUP4 DUP3 PUSH2 0x2DA7 JUMP JUMPDEST PUSH1 0x1 PUSH1 0x1 PUSH1 0xA0 SHL SUB DUP3 AND PUSH2 0x2C36 JUMPI PUSH2 0xCBE DUP2 PUSH2 0x2E44 JUMP JUMPDEST DUP3 PUSH1 0x1 PUSH1 0x1 PUSH1 0xA0 SHL SUB AND DUP3 PUSH1 0x1 PUSH1 0x1 PUSH1 0xA0 SHL SUB AND EQ PUSH2 0xCBE JUMPI PUSH2 0xCBE DUP3 DUP3 PUSH2 0x2EF3 JUMP JUMPDEST PUSH1 0x1 PUSH1 0x1 PUSH1 0xA0 SHL SUB DUP3 AND PUSH2 0x2CAF JUMPI PUSH1 0x40 MLOAD PUSH3 0x461BCD PUSH1 0xE5 SHL DUP2 MSTORE PUSH1 0x20 PUSH1 0x4 DUP3 ADD DUP2 SWAP1 MSTORE PUSH1 0x24 DUP3 ADD MSTORE PUSH32 0x4552433732313A206D696E7420746F20746865207A65726F2061646472657373 PUSH1 0x44 DUP3 ADD MSTORE PUSH1 0x64 ADD PUSH2 0xB88 JUMP JUMPDEST PUSH1 0x0 DUP2 DUP2 MSTORE PUSH1 0x2 PUSH1 0x20 MSTORE PUSH1 0x40 SWAP1 KECCAK256 SLOAD PUSH1 0x1 PUSH1 0x1 PUSH1 0xA0 SHL SUB AND ISZERO PUSH2 0x2D14 JUMPI PUSH1 0x40 MLOAD PUSH3 0x461BCD PUSH1 0xE5 SHL DUP2 MSTORE PUSH1 0x20 PUSH1 0x4 DUP3 ADD MSTORE PUSH1 0x1C PUSH1 0x24 DUP3 ADD MSTORE PUSH32 0x4552433732313A20746F6B656E20616C7265616479206D696E74656400000000 PUSH1 0x44 DUP3 ADD MSTORE PUSH1 0x64 ADD PUSH2 0xB88 JUMP JUMPDEST PUSH2 0x2D20 PUSH1 0x0 DUP4 DUP4 PUSH2 0x29D6 JUMP JUMPDEST PUSH1 0x1 PUSH1 0x1 PUSH1 0xA0 SHL SUB DUP3 AND PUSH1 0x0 SWAP1 DUP2 MSTORE PUSH1 0x3 PUSH1 0x20 MSTORE PUSH1 0x40 DUP2 KECCAK256 DUP1 SLOAD PUSH1 0x1 SWAP3 SWAP1 PUSH2 0x2D49 SWAP1 DUP5 SWAP1 PUSH2 0x35D0 JUMP JUMPDEST SWAP1 SWAP2 SSTORE POP POP PUSH1 0x0 DUP2 DUP2 MSTORE PUSH1 0x2 PUSH1 0x20 MSTORE PUSH1 0x40 DUP1 DUP3 KECCAK256 DUP1 SLOAD PUSH1 0x1 PUSH1 0x1 PUSH1 0xA0 SHL SUB NOT AND PUSH1 0x1 PUSH1 0x1 PUSH1 0xA0 SHL SUB DUP7 AND SWAP1 DUP2 OR SWAP1 SWAP2 SSTORE SWAP1 MLOAD DUP4 SWAP3 SWAP1 PUSH32 0xDDF252AD1BE2C89B69C2B068FC378DAA952BA7F163C4A11628F55A4DF523B3EF SWAP1 DUP3 SWAP1 LOG4 POP POP JUMP JUMPDEST PUSH1 0x0 PUSH1 0x1 PUSH2 0x2DB4 DUP5 PUSH2 0x186A JUMP JUMPDEST PUSH2 0x2DBE SWAP2 SWAP1 PUSH2 0x36E6 JUMP JUMPDEST PUSH1 0x0 DUP4 DUP2 MSTORE PUSH1 0x7 PUSH1 0x20 MSTORE PUSH1 0x40 SWAP1 KECCAK256 SLOAD SWAP1 SWAP2 POP DUP1 DUP3 EQ PUSH2 0x2E11 JUMPI PUSH1 0x1 PUSH1 0x1 PUSH1 0xA0 SHL SUB DUP5 AND PUSH1 0x0 SWAP1 DUP2 MSTORE PUSH1 0x6 PUSH1 0x20 SWAP1 DUP2 MSTORE PUSH1 0x40 DUP1 DUP4 KECCAK256 DUP6 DUP5 MSTORE DUP3 MSTORE DUP1 DUP4 KECCAK256 SLOAD DUP5 DUP5 MSTORE DUP2 DUP5 KECCAK256 DUP2 SWAP1 SSTORE DUP4 MSTORE PUSH1 0x7 SWAP1 SWAP2 MSTORE SWAP1 KECCAK256 DUP2 SWAP1 SSTORE JUMPDEST POP PUSH1 0x0 SWAP2 DUP3 MSTORE PUSH1 0x7 PUSH1 0x20 SWAP1 DUP2 MSTORE PUSH1 0x40 DUP1 DUP5 KECCAK256 DUP5 SWAP1 SSTORE PUSH1 0x1 PUSH1 0x1 PUSH1 0xA0 SHL SUB SWAP1 SWAP5 AND DUP4 MSTORE PUSH1 0x6 DUP2 MSTORE DUP4 DUP4 KECCAK256 SWAP2 DUP4 MSTORE MSTORE SWAP1 DUP2 KECCAK256 SSTORE JUMP JUMPDEST PUSH1 0x8 SLOAD PUSH1 0x0 SWAP1 PUSH2 0x2E56 SWAP1 PUSH1 0x1 SWAP1 PUSH2 0x36E6 JUMP JUMPDEST PUSH1 0x0 DUP4 DUP2 MSTORE PUSH1 0x9 PUSH1 0x20 MSTORE PUSH1 0x40 DUP2 KECCAK256 SLOAD PUSH1 0x8 DUP1 SLOAD SWAP4 SWAP5 POP SWAP1 SWAP3 DUP5 SWAP1 DUP2 LT PUSH2 0x2E7E JUMPI PUSH2 0x2E7E PUSH2 0x3603 JUMP JUMPDEST SWAP1 PUSH1 0x0 MSTORE PUSH1 0x20 PUSH1 0x0 KECCAK256 ADD SLOAD SWAP1 POP DUP1 PUSH1 0x8 DUP4 DUP2 SLOAD DUP2 LT PUSH2 0x2E9F JUMPI PUSH2 0x2E9F PUSH2 0x3603 JUMP JUMPDEST PUSH1 0x0 SWAP2 DUP3 MSTORE PUSH1 0x20 DUP1 DUP4 KECCAK256 SWAP1 SWAP2 ADD SWAP3 SWAP1 SWAP3 SSTORE DUP3 DUP2 MSTORE PUSH1 0x9 SWAP1 SWAP2 MSTORE PUSH1 0x40 DUP1 DUP3 KECCAK256 DUP5 SWAP1 SSTORE DUP6 DUP3 MSTORE DUP2 KECCAK256 SSTORE PUSH1 0x8 DUP1 SLOAD DUP1 PUSH2 0x2ED7 JUMPI PUSH2 0x2ED7 PUSH2 0x37E7 JUMP JUMPDEST PUSH1 0x1 SWAP1 SUB DUP2 DUP2 SWAP1 PUSH1 0x0 MSTORE PUSH1 0x20 PUSH1 0x0 KECCAK256 ADD PUSH1 0x0 SWAP1 SSTORE SWAP1 SSTORE POP POP POP POP JUMP JUMPDEST PUSH1 0x0 PUSH2 0x2EFE DUP4 PUSH2 0x186A JUMP JUMPDEST PUSH1 0x1 PUSH1 0x1 PUSH1 0xA0 SHL SUB SWAP1 SWAP4 AND PUSH1 0x0 SWAP1 DUP2 MSTORE PUSH1 0x6 PUSH1 0x20 SWAP1 DUP2 MSTORE PUSH1 0x40 DUP1 DUP4 KECCAK256 DUP7 DUP5 MSTORE DUP3 MSTORE DUP1 DUP4 KECCAK256 DUP6 SWAP1 SSTORE SWAP4 DUP3 MSTORE PUSH1 0x7 SWAP1 MSTORE SWAP2 SWAP1 SWAP2 KECCAK256 SWAP2 SWAP1 SWAP2 SSTORE POP JUMP JUMPDEST DUP3 DUP1 SLOAD PUSH2 0x2F43 SWAP1 PUSH2 0x34B0 JUMP JUMPDEST SWAP1 PUSH1 0x0 MSTORE PUSH1 0x20 PUSH1 0x0 KECCAK256 SWAP1 PUSH1 0x1F ADD PUSH1 0x20 SWAP1 DIV DUP2 ADD SWAP3 DUP3 PUSH2 0x2F65 JUMPI PUSH1 0x0 DUP6 SSTORE PUSH2 0x2FAB JUMP JUMPDEST DUP3 PUSH1 0x1F LT PUSH2 0x2F7E JUMPI DUP1 MLOAD PUSH1 0xFF NOT AND DUP4 DUP1 ADD OR DUP6 SSTORE PUSH2 0x2FAB JUMP JUMPDEST DUP3 DUP1 ADD PUSH1 0x1 ADD DUP6 SSTORE DUP3 ISZERO PUSH2 0x2FAB JUMPI SWAP2 DUP3 ADD JUMPDEST DUP3 DUP2 GT ISZERO PUSH2 0x2FAB JUMPI DUP3 MLOAD DUP3 SSTORE SWAP2 PUSH1 0x20 ADD SWAP2 SWAP1 PUSH1 0x1 ADD SWAP1 PUSH2 0x2F90 JUMP JUMPDEST POP PUSH2 0x2FB7 SWAP3 SWAP2 POP PUSH2 0x2FBB JUMP JUMPDEST POP SWAP1 JUMP JUMPDEST JUMPDEST DUP1 DUP3 GT ISZERO PUSH2 0x2FB7 JUMPI PUSH1 0x0 DUP2 SSTORE PUSH1 0x1 ADD PUSH2 0x2FBC JUMP JUMPDEST PUSH1 0x1 PUSH1 0x1 PUSH1 0xE0 SHL SUB NOT DUP2 AND DUP2 EQ PUSH2 0x14B4 JUMPI PUSH1 0x0 DUP1 REVERT JUMPDEST PUSH1 0x0 PUSH1 0x20 DUP3 DUP5 SUB SLT ISZERO PUSH2 0x2FF8 JUMPI PUSH1 0x0 DUP1 REVERT JUMPDEST DUP2 CALLDATALOAD PUSH2 0x1DE3 DUP2 PUSH2 0x2FD0 JUMP JUMPDEST PUSH1 0x0 JUMPDEST DUP4 DUP2 LT ISZERO PUSH2 0x301E JUMPI DUP2 DUP2 ADD MLOAD DUP4 DUP3 ADD MSTORE PUSH1 0x20 ADD PUSH2 0x3006 JUMP JUMPDEST DUP4 DUP2 GT ISZERO PUSH2 0x1E1C JUMPI POP POP PUSH1 0x0 SWAP2 ADD MSTORE JUMP JUMPDEST PUSH1 0x0 DUP2 MLOAD DUP1 DUP5 MSTORE PUSH2 0x3047 DUP2 PUSH1 0x20 DUP7 ADD PUSH1 0x20 DUP7 ADD PUSH2 0x3003 JUMP JUMPDEST PUSH1 0x1F ADD PUSH1 0x1F NOT AND SWAP3 SWAP1 SWAP3 ADD PUSH1 0x20 ADD SWAP3 SWAP2 POP POP JUMP JUMPDEST PUSH1 0x20 DUP2 MSTORE PUSH1 0x0 PUSH2 0x1DE3 PUSH1 0x20 DUP4 ADD DUP5 PUSH2 0x302F JUMP JUMPDEST PUSH1 0x0 PUSH1 0x20 DUP3 DUP5 SUB SLT ISZERO PUSH2 0x3080 JUMPI PUSH1 0x0 DUP1 REVERT JUMPDEST POP CALLDATALOAD SWAP2 SWAP1 POP JUMP JUMPDEST DUP1 CALLDATALOAD PUSH1 0x1 PUSH1 0x1 PUSH1 0xA0 SHL SUB DUP2 AND DUP2 EQ PUSH2 0x309E JUMPI PUSH1 0x0 DUP1 REVERT JUMPDEST SWAP2 SWAP1 POP JUMP JUMPDEST PUSH1 0x0 DUP1 PUSH1 0x40 DUP4 DUP6 SUB SLT ISZERO PUSH2 0x30B6 JUMPI PUSH1 0x0 DUP1 REVERT JUMPDEST PUSH2 0x30BF DUP4 PUSH2 0x3087 JUMP JUMPDEST SWAP5 PUSH1 0x20 SWAP4 SWAP1 SWAP4 ADD CALLDATALOAD SWAP4 POP POP POP JUMP JUMPDEST PUSH4 0x4E487B71 PUSH1 0xE0 SHL PUSH1 0x0 MSTORE PUSH1 0x41 PUSH1 0x4 MSTORE PUSH1 0x24 PUSH1 0x0 REVERT JUMPDEST PUSH1 0x0 PUSH8 0xFFFFFFFFFFFFFFFF DUP1 DUP5 GT ISZERO PUSH2 0x30FE JUMPI PUSH2 0x30FE PUSH2 0x30CD JUMP JUMPDEST PUSH1 0x40 MLOAD PUSH1 0x1F DUP6 ADD PUSH1 0x1F NOT SWAP1 DUP2 AND PUSH1 0x3F ADD AND DUP2 ADD SWAP1 DUP3 DUP3 GT DUP2 DUP4 LT OR ISZERO PUSH2 0x3126 JUMPI PUSH2 0x3126 PUSH2 0x30CD JUMP JUMPDEST DUP2 PUSH1 0x40 MSTORE DUP1 SWAP4 POP DUP6 DUP2 MSTORE DUP7 DUP7 DUP7 ADD GT ISZERO PUSH2 0x313F JUMPI PUSH1 0x0 DUP1 REVERT JUMPDEST DUP6 DUP6 PUSH1 0x20 DUP4 ADD CALLDATACOPY PUSH1 0x0 PUSH1 0x20 DUP8 DUP4 ADD ADD MSTORE POP POP POP SWAP4 SWAP3 POP POP POP JUMP JUMPDEST PUSH1 0x0 PUSH1 0x20 DUP3 DUP5 SUB SLT ISZERO PUSH2 0x316B JUMPI PUSH1 0x0 DUP1 REVERT JUMPDEST DUP2 CALLDATALOAD PUSH8 0xFFFFFFFFFFFFFFFF DUP2 GT ISZERO PUSH2 0x3182 JUMPI PUSH1 0x0 DUP1 REVERT JUMPDEST DUP3 ADD PUSH1 0x1F DUP2 ADD DUP5 SGT PUSH2 0x3193 JUMPI PUSH1 0x0 DUP1 REVERT JUMPDEST PUSH2 0x2462 DUP5 DUP3 CALLDATALOAD PUSH1 0x20 DUP5 ADD PUSH2 0x30E3 JUMP JUMPDEST PUSH1 0x0 DUP1 PUSH1 0x0 PUSH1 0x60 DUP5 DUP7 SUB SLT ISZERO PUSH2 0x31B7 JUMPI PUSH1 0x0 DUP1 REVERT JUMPDEST PUSH2 0x31C0 DUP5 PUSH2 0x3087 JUMP JUMPDEST SWAP3 POP PUSH2 0x31CE PUSH1 0x20 DUP6 ADD PUSH2 0x3087 JUMP JUMPDEST SWAP2 POP PUSH1 0x40 DUP5 ADD CALLDATALOAD SWAP1 POP SWAP3 POP SWAP3 POP SWAP3 JUMP JUMPDEST PUSH1 0x0 DUP1 DUP4 PUSH1 0x1F DUP5 ADD SLT PUSH2 0x31F0 JUMPI PUSH1 0x0 DUP1 REVERT JUMPDEST POP DUP2 CALLDATALOAD PUSH8 0xFFFFFFFFFFFFFFFF DUP2 GT ISZERO PUSH2 0x3208 JUMPI PUSH1 0x0 DUP1 REVERT JUMPDEST PUSH1 0x20 DUP4 ADD SWAP2 POP DUP4 PUSH1 0x20 DUP3 PUSH1 0x5 SHL DUP6 ADD ADD GT ISZERO PUSH2 0x3223 JUMPI PUSH1 0x0 DUP1 REVERT JUMPDEST SWAP3 POP SWAP3 SWAP1 POP JUMP JUMPDEST PUSH1 0x0 DUP1 PUSH1 0x20 DUP4 DUP6 SUB SLT ISZERO PUSH2 0x323D JUMPI PUSH1 0x0 DUP1 REVERT JUMPDEST DUP3 CALLDATALOAD PUSH8 0xFFFFFFFFFFFFFFFF DUP2 GT ISZERO PUSH2 0x3254 JUMPI PUSH1 0x0 DUP1 REVERT JUMPDEST PUSH2 0x3260 DUP6 DUP3 DUP7 ADD PUSH2 0x31DE JUMP JUMPDEST SWAP1 SWAP7 SWAP1 SWAP6 POP SWAP4 POP POP POP POP JUMP JUMPDEST PUSH1 0x0 PUSH1 0x20 DUP3 DUP5 SUB SLT ISZERO PUSH2 0x327E JUMPI PUSH1 0x0 DUP1 REVERT JUMPDEST PUSH2 0x1DE3 DUP3 PUSH2 0x3087 JUMP JUMPDEST PUSH1 0x20 DUP1 DUP3 MSTORE DUP3 MLOAD DUP3 DUP3 ADD DUP2 SWAP1 MSTORE PUSH1 0x0 SWAP2 SWAP1 DUP5 DUP3 ADD SWAP1 PUSH1 0x40 DUP6 ADD SWAP1 DUP5 JUMPDEST DUP2 DUP2 LT ISZERO PUSH2 0x32BF JUMPI DUP4 MLOAD DUP4 MSTORE SWAP3 DUP5 ADD SWAP3 SWAP2 DUP5 ADD SWAP2 PUSH1 0x1 ADD PUSH2 0x32A3 JUMP JUMPDEST POP SWAP1 SWAP7 SWAP6 POP POP POP POP POP POP JUMP JUMPDEST DUP1 CALLDATALOAD PUSH1 0xFF DUP2 AND DUP2 EQ PUSH2 0x309E JUMPI PUSH1 0x0 DUP1 REVERT JUMPDEST PUSH1 0x0 PUSH1 0x20 DUP3 DUP5 SUB SLT ISZERO PUSH2 0x32EE JUMPI PUSH1 0x0 DUP1 REVERT JUMPDEST PUSH2 0x1DE3 DUP3 PUSH2 0x32CB JUMP JUMPDEST PUSH1 0x0 DUP1 PUSH1 0x40 DUP4 DUP6 SUB SLT ISZERO PUSH2 0x330A JUMPI PUSH1 0x0 DUP1 REVERT JUMPDEST PUSH2 0x3313 DUP4 PUSH2 0x3087 JUMP JUMPDEST SWAP2 POP PUSH1 0x20 DUP4 ADD CALLDATALOAD DUP1 ISZERO ISZERO DUP2 EQ PUSH2 0x3328 JUMPI PUSH1 0x0 DUP1 REVERT JUMPDEST DUP1 SWAP2 POP POP SWAP3 POP SWAP3 SWAP1 POP JUMP JUMPDEST PUSH1 0x0 DUP1 PUSH1 0x40 DUP4 DUP6 SUB SLT ISZERO PUSH2 0x3346 JUMPI PUSH1 0x0 DUP1 REVERT JUMPDEST PUSH2 0x334F DUP4 PUSH2 0x32CB JUMP JUMPDEST SWAP2 POP PUSH2 0x335D PUSH1 0x20 DUP5 ADD PUSH2 0x3087 JUMP JUMPDEST SWAP1 POP SWAP3 POP SWAP3 SWAP1 POP JUMP JUMPDEST PUSH1 0x0 DUP1 PUSH1 0x0 PUSH1 0x40 DUP5 DUP7 SUB SLT ISZERO PUSH2 0x337B JUMPI PUSH1 0x0 DUP1 REVERT JUMPDEST PUSH2 0x3384 DUP5 PUSH2 0x3087 JUMP JUMPDEST SWAP3 POP PUSH1 0x20 DUP5 ADD CALLDATALOAD PUSH8 0xFFFFFFFFFFFFFFFF DUP2 GT ISZERO PUSH2 0x33A0 JUMPI PUSH1 0x0 DUP1 REVERT JUMPDEST PUSH2 0x33AC DUP7 DUP3 DUP8 ADD PUSH2 0x31DE JUMP JUMPDEST SWAP5 SWAP8 SWAP1 SWAP7 POP SWAP4 SWAP5 POP POP POP POP JUMP JUMPDEST PUSH1 0x0 DUP1 PUSH1 0x0 DUP1 PUSH1 0x80 DUP6 DUP8 SUB SLT ISZERO PUSH2 0x33CF JUMPI PUSH1 0x0 DUP1 REVERT JUMPDEST PUSH2 0x33D8 DUP6 PUSH2 0x3087 JUMP JUMPDEST SWAP4 POP PUSH2 0x33E6 PUSH1 0x20 DUP7 ADD PUSH2 0x3087 JUMP JUMPDEST SWAP3 POP PUSH1 0x40 DUP6 ADD CALLDATALOAD SWAP2 POP PUSH1 0x60 DUP6 ADD CALLDATALOAD PUSH8 0xFFFFFFFFFFFFFFFF DUP2 GT ISZERO PUSH2 0x3409 JUMPI PUSH1 0x0 DUP1 REVERT JUMPDEST DUP6 ADD PUSH1 0x1F DUP2 ADD DUP8 SGT PUSH2 0x341A JUMPI PUSH1 0x0 DUP1 REVERT JUMPDEST PUSH2 0x3429 DUP8 DUP3 CALLDATALOAD PUSH1 0x20 DUP5 ADD PUSH2 0x30E3 JUMP JUMPDEST SWAP2 POP POP SWAP3 SWAP6 SWAP2 SWAP5 POP SWAP3 POP JUMP JUMPDEST PUSH4 0x4E487B71 PUSH1 0xE0 SHL PUSH1 0x0 MSTORE PUSH1 0x21 PUSH1 0x4 MSTORE PUSH1 0x24 PUSH1 0x0 REVERT JUMPDEST PUSH1 0x20 DUP2 ADD PUSH1 0x5 DUP4 LT PUSH2 0x346D JUMPI PUSH4 0x4E487B71 PUSH1 0xE0 SHL PUSH1 0x0 MSTORE PUSH1 0x21 PUSH1 0x4 MSTORE PUSH1 0x24 PUSH1 0x0 REVERT JUMPDEST SWAP2 SWAP1 MSTORE SWAP1 JUMP JUMPDEST PUSH1 0x0 PUSH1 0x20 DUP3 DUP5 SUB SLT ISZERO PUSH2 0x3485 JUMPI PUSH1 0x0 DUP1 REVERT JUMPDEST DUP2 CALLDATALOAD PUSH1 0x5 DUP2 LT PUSH2 0x1DE3 JUMPI PUSH1 0x0 DUP1 REVERT JUMPDEST PUSH1 0x0 DUP1 PUSH1 0x40 DUP4 DUP6 SUB SLT ISZERO PUSH2 0x34A7 JUMPI PUSH1 0x0 DUP1 REVERT JUMPDEST PUSH2 0x334F DUP4 PUSH2 0x3087 JUMP JUMPDEST PUSH1 0x1 DUP2 DUP2 SHR SWAP1 DUP3 AND DUP1 PUSH2 0x34C4 JUMPI PUSH1 0x7F DUP3 AND SWAP2 POP JUMPDEST PUSH1 0x20 DUP3 LT DUP2 EQ ISZERO PUSH2 0x34E5 JUMPI PUSH4 0x4E487B71 PUSH1 0xE0 SHL PUSH1 0x0 MSTORE PUSH1 0x22 PUSH1 0x4 MSTORE PUSH1 0x24 PUSH1 0x0 REVERT JUMPDEST POP SWAP2 SWAP1 POP JUMP JUMPDEST PUSH1 0x20 DUP1 DUP3 MSTORE DUP2 DUP2 ADD MSTORE PUSH32 0x4F776E61626C653A2063616C6C6572206973206E6F7420746865206F776E6572 PUSH1 0x40 DUP3 ADD MSTORE PUSH1 0x60 ADD SWAP1 JUMP JUMPDEST PUSH1 0x20 DUP1 DUP3 MSTORE PUSH1 0x31 SWAP1 DUP3 ADD MSTORE PUSH32 0x4552433732313A207472616E736665722063616C6C6572206973206E6F74206F PUSH1 0x40 DUP3 ADD MSTORE PUSH17 0x1DDB995C881B9BDC88185C1C1C9BDD9959 PUSH1 0x7A SHL PUSH1 0x60 DUP3 ADD MSTORE PUSH1 0x80 ADD SWAP1 JUMP JUMPDEST PUSH1 0x20 DUP1 DUP3 MSTORE PUSH1 0x10 SWAP1 DUP3 ADD MSTORE PUSH16 0x14185D5CD8589B194E881C185D5CD959 PUSH1 0x82 SHL PUSH1 0x40 DUP3 ADD MSTORE PUSH1 0x60 ADD SWAP1 JUMP JUMPDEST PUSH4 0x4E487B71 PUSH1 0xE0 SHL PUSH1 0x0 MSTORE PUSH1 0x11 PUSH1 0x4 MSTORE PUSH1 0x24 PUSH1 0x0 REVERT JUMPDEST PUSH1 0x0 DUP2 PUSH1 0x0 NOT DIV DUP4 GT DUP3 ISZERO ISZERO AND ISZERO PUSH2 0x35CB JUMPI PUSH2 0x35CB PUSH2 0x359B JUMP JUMPDEST POP MUL SWAP1 JUMP JUMPDEST PUSH1 0x0 DUP3 NOT DUP3 GT ISZERO PUSH2 0x35E3 JUMPI PUSH2 0x35E3 PUSH2 0x359B JUMP JUMPDEST POP ADD SWAP1 JUMP JUMPDEST PUSH1 0x0 PUSH1 0x0 NOT DUP3 EQ ISZERO PUSH2 0x35FC JUMPI PUSH2 0x35FC PUSH2 0x359B JUMP JUMPDEST POP PUSH1 0x1 ADD SWAP1 JUMP JUMPDEST PUSH4 0x4E487B71 PUSH1 0xE0 SHL PUSH1 0x0 MSTORE PUSH1 0x32 PUSH1 0x4 MSTORE PUSH1 0x24 PUSH1 0x0 REVERT JUMPDEST DUP1 SLOAD PUSH1 0x0 SWAP1 PUSH1 0x1 DUP2 DUP2 SHR SWAP1 DUP1 DUP4 AND DUP1 PUSH2 0x3633 JUMPI PUSH1 0x7F DUP4 AND SWAP3 POP JUMPDEST PUSH1 0x20 DUP1 DUP5 LT DUP3 EQ ISZERO PUSH2 0x3655 JUMPI PUSH4 0x4E487B71 PUSH1 0xE0 SHL PUSH1 0x0 MSTORE PUSH1 0x22 PUSH1 0x4 MSTORE PUSH1 0x24 PUSH1 0x0 REVERT JUMPDEST DUP2 DUP1 ISZERO PUSH2 0x3669 JUMPI PUSH1 0x1 DUP2 EQ PUSH2 0x367A JUMPI PUSH2 0x36A7 JUMP JUMPDEST PUSH1 0xFF NOT DUP7 AND DUP10 MSTORE DUP5 DUP10 ADD SWAP7 POP PUSH2 0x36A7 JUMP JUMPDEST PUSH1 0x0 DUP9 DUP2 MSTORE PUSH1 0x20 SWAP1 KECCAK256 PUSH1 0x0 JUMPDEST DUP7 DUP2 LT ISZERO PUSH2 0x369F JUMPI DUP2 SLOAD DUP12 DUP3 ADD MSTORE SWAP1 DUP6 ADD SWAP1 DUP4 ADD PUSH2 0x3686 JUMP JUMPDEST POP POP DUP5 DUP10 ADD SWAP7 POP JUMPDEST POP POP POP POP POP POP SWAP3 SWAP2 POP POP JUMP JUMPDEST PUSH1 0x0 PUSH2 0x36BF DUP3 DUP7 PUSH2 0x3619 JUMP JUMPDEST DUP5 MLOAD PUSH2 0x36CF DUP2 DUP4 PUSH1 0x20 DUP10 ADD PUSH2 0x3003 JUMP JUMPDEST PUSH2 0x36DB DUP2 DUP4 ADD DUP7 PUSH2 0x3619 JUMP JUMPDEST SWAP8 SWAP7 POP POP POP POP POP POP POP JUMP JUMPDEST PUSH1 0x0 DUP3 DUP3 LT ISZERO PUSH2 0x36F8 JUMPI PUSH2 0x36F8 PUSH2 0x359B JUMP JUMPDEST POP SUB SWAP1 JUMP JUMPDEST PUSH1 0x20 DUP1 DUP3 MSTORE PUSH1 0x32 SWAP1 DUP3 ADD MSTORE PUSH32 0x4552433732313A207472616E7366657220746F206E6F6E204552433732315265 PUSH1 0x40 DUP3 ADD MSTORE PUSH18 0x31B2B4BB32B91034B6B83632B6B2B73A32B9 PUSH1 0x71 SHL PUSH1 0x60 DUP3 ADD MSTORE PUSH1 0x80 ADD SWAP1 JUMP JUMPDEST PUSH4 0x4E487B71 PUSH1 0xE0 SHL PUSH1 0x0 MSTORE PUSH1 0x12 PUSH1 0x4 MSTORE PUSH1 0x24 PUSH1 0x0 REVERT JUMPDEST PUSH1 0x0 DUP3 PUSH2 0x3774 JUMPI PUSH2 0x3774 PUSH2 0x374F JUMP JUMPDEST POP DIV SWAP1 JUMP JUMPDEST PUSH1 0x0 DUP3 PUSH2 0x3788 JUMPI PUSH2 0x3788 PUSH2 0x374F JUMP JUMPDEST POP MOD SWAP1 JUMP JUMPDEST PUSH1 0x1 PUSH1 0x1 PUSH1 0xA0 SHL SUB DUP6 DUP2 AND DUP3 MSTORE DUP5 AND PUSH1 0x20 DUP3 ADD MSTORE PUSH1 0x40 DUP2 ADD DUP4 SWAP1 MSTORE PUSH1 0x80 PUSH1 0x60 DUP3 ADD DUP2 SWAP1 MSTORE PUSH1 0x0 SWAP1 PUSH2 0x37C0 SWAP1 DUP4 ADD DUP5 PUSH2 0x302F JUMP JUMPDEST SWAP7 SWAP6 POP POP POP POP POP POP JUMP JUMPDEST PUSH1 0x0 PUSH1 0x20 DUP3 DUP5 SUB SLT ISZERO PUSH2 0x37DC JUMPI PUSH1 0x0 DUP1 REVERT JUMPDEST DUP2 MLOAD PUSH2 0x1DE3 DUP2 PUSH2 0x2FD0 JUMP JUMPDEST PUSH4 0x4E487B71 PUSH1 0xE0 SHL PUSH1 0x0 MSTORE PUSH1 0x31 PUSH1 0x4 MSTORE PUSH1 0x24 PUSH1 0x0 REVERT INVALID LOG2 PUSH5 0x6970667358 0x22 SLT KECCAK256 PUSH26 0xC892872283C8AE5F6B75100079D4BC693D91028B2AE8AF1BFE2F SAR 0xBA DUP1 SWAP11 CALLDATACOPY PUSH5 0x736F6C6343 STOP ADDMOD SIGNEXTEND STOP CALLER ",
  "sha1": "b6c8d9d6ac73c61f923841f159b0d6164629aabd",
  "source": "// SPDX-License-Identifier: MIT\npragma solidity ^0.8.10;\n\nimport '@openzeppelin/contracts/token/ERC721/ERC721.sol';\nimport '@openzeppelin/contracts/token/ERC721/extensions/ERC721Enumerable.sol';\nimport '@openzeppelin/contracts/access/Ownable.sol';\nimport '@openzeppelin/contracts/security/ReentrancyGuard.sol';\nimport '@openzeppelin/contracts/utils/Counters.sol';\nimport '@openzeppelin/contracts/security/Pausable.sol';\nimport '@openzeppelin/contracts/utils/cryptography/MerkleProof.sol';\n\n/// @title CryptidToken NFT Contract\n/// @author @chrisrusselljr\n/// @notice You can use this contract to mint, send, and interact with CRYPTIDS\n/// @dev All function calls are currently implemented without side effects\ncontract CryptidToken is ERC721, ERC721Enumerable, Pausable, Ownable, ReentrancyGuard{ \n    using Strings for uint256;\n    using Counters for Counters.Counter;\n    using MerkleProof for bytes32[];\n\n    enum Stage {\n        Init,\n        Airdrop,\n        Whitelist,\n        TeamMint,\n        PublicSale\n    }\n\n    Counters.Counter private _tokenIdCounter;\n    \n    bytes32 public merkleRoot;\n    string public provenanceHash;\n    string public baseURI = \"\";\n    string public baseExtension = \".json\";\n    uint256 public maxMintPerTx;     \n    bool public tokenURIFrozen = false;\n    bool public provenanceHashFrozen = false;\n\n    address public withdrawlAddress = 0x12B58f5331a6DC897932AA7FB5101667ACdf03e2;\n\n    // ~ Sale stages ~\n    // stage 0: Init\n    // stage 1: Airdrop\n    // stage 2: Whitelist\n    // stage 3: Team Mint \n    // stage 4: Public Sale\n\n    // Whitelist mint (stage=2)\n    uint256 public whitelistSupply;                       \n    mapping(address => bool) public claimed;              \n    \n    // Team Mint (stage=3)\n    uint256 public teamMintSupply;                          \n    uint256 public teamMintCount;\n\n    // Public Sale (stage=4)\n    uint256 public totalSaleSupply;         \n    uint256 public salePrice = 0.01 ether;  \n\n    Stage public stage;\n\n    constructor(\n        string memory _name,\n        string memory _symbol,\n        string memory _baseURI,\n        uint256 _whitelistSupply,\n        uint256 _teamMintSupply,\n        uint256 _totalSaleSupply,\n        uint256 _maxMintPerTx\n\n    )   ERC721(_name, _symbol) {\n        whitelistSupply = _whitelistSupply;\n        teamMintSupply = _teamMintSupply;\n        totalSaleSupply = _totalSaleSupply;\n        maxMintPerTx = _maxMintPerTx;\n        baseURI = _baseURI;\n        _tokenIdCounter.increment();\n    }\n\n    // Stage 1 - Airdrop\n    function airdropCryptid(\n        uint8 mintAmount, \n        address to\n    ) \n        external\n        onlyOwner \n    {\n        require(stage > Stage.Init, \"No airdrops at init.\");\n        require(totalSupply()  + mintAmount <= totalSaleSupply, \"Mint amount will exceed total sale supply.\");\n        for (uint256 i = 1; i <= mintAmount; i++) {\n            _safeMint(to, _tokenIdCounter.current());\n            _tokenIdCounter.increment();\n        }\n    }\n\n    // Stage 2 - Whitelist Sale\n    function whitelistMint(\n        bytes32[] calldata merkleProof\n    ) \n        external\n        payable \n        nonReentrant \n        whenNotPaused \n    {\n        require(stage == Stage.Whitelist, \"Whitelist sale not initiated.\");\n        require(salePrice == msg.value, \"Incorrect ETH value sent.\");\n        require(merkleProof.verify(merkleRoot, keccak256(abi.encodePacked(msg.sender))), \"Address not in whitelist.\");\n        require(claimed[msg.sender] == false, \"Whitelist mint already claimed.\"); \n        claimed[msg.sender] = true;\n        _safeMint(msg.sender, _tokenIdCounter.current());\n        _tokenIdCounter.increment();\n    }\n\n    // Stage 3 - Team Mint\n    function teamMint(\n        uint8 mintAmount\n    ) \n        external \n        onlyOwner \n    {\n        require(stage == Stage.TeamMint, \"Team mint not initiated.\");\n        require(mintAmount + teamMintCount <= teamMintSupply, \"Transaction exceeds total team sale supply.\");     \n        teamMintCount += mintAmount;\n        for (uint256 i = 1; i <= mintAmount; i++) {\n            _safeMint(msg.sender, _tokenIdCounter.current());\n            _tokenIdCounter.increment();\n        }\n    }\n\n    // Stage 4 - Public Mint\n    function publicMint(\n        uint256 mintAmount\n    ) \n        external\n        payable \n        nonReentrant \n        whenNotPaused  \n    {\n        require(stage == Stage.PublicSale, \"Public Sale not initiated.\");\n        require(salePrice * mintAmount == msg.value, \"Incorrect ETH value sent.\");\n        require(totalSupply()  + mintAmount <= totalSaleSupply, \"Transaction exceeds total sale supply.\");\n        require(mintAmount <= maxMintPerTx, \"Exceeds max allowed mints per transaction.\");  \n        for (uint256 i = 1; i <= mintAmount; i++) {\n            _safeMint(msg.sender, _tokenIdCounter.current());\n            _tokenIdCounter.increment();\n        }\n    }\n\n    //Owner functions\n    function pause() external onlyOwner {\n        _pause();\n    }\n\n    function unpause() external onlyOwner {\n        _unpause();\n    }\n\n    // to be used in case of manual override\n    function setClaim(address wlAddress) external onlyOwner{\n        claimed[wlAddress] = true;\n    }\n\n    // to be used in case of WL error\n    function undoClaim(address wlAddress) external onlyOwner{\n        claimed[wlAddress] = false;\n    }\n\n    function setMerkleRoot(bytes32 _merkleRoot) external onlyOwner {\n        merkleRoot = _merkleRoot;\n    }\n\n    function setBaseURI(string memory _newBaseURI) external onlyOwner {\n        require(!tokenURIFrozen, \"BaseURI is frozen.\");\n        baseURI = _newBaseURI;\n    } \n    \n    function freezeBaseURI() external onlyOwner {\n        require(bytes(baseURI).length > 0, \"BaseURI cannot be empty.\");\n        require(!tokenURIFrozen, \"BaseURI is already frozen.\");\n        tokenURIFrozen = true;\n    }\n\n    function setBaseExtension(string memory _newBaseExtension) external onlyOwner {\n        baseExtension = _newBaseExtension;\n    }\n\n    function setProvenanceHash(string memory _provenanceHash) external onlyOwner {\n        require(bytes(_provenanceHash).length > 0, \"Provenance hash cannot be empty string.\");\n        require(!provenanceHashFrozen, \"Provenance hash is frozen.\");\n        provenanceHash = _provenanceHash;\n    }\n\n    function freezeProvenanceHash() external onlyOwner {\n        require(bytes(provenanceHash).length > 0, \"Provenance hash is not set.\");\n        require(!provenanceHashFrozen, \"Provenance hash is already frozen.\");\n        provenanceHashFrozen = true;\n    }\n\n    function setWithdrawlAddress(address _withdrawlAddress) external onlyOwner {\n        withdrawlAddress = _withdrawlAddress;\n    }\n\n    function setSalePrice(uint256 _salePrice) external onlyOwner {\n        salePrice = _salePrice;\n    }\n\n    function setMaxMintPerTx(uint256 _maxMintPerTx) external onlyOwner {\n        maxMintPerTx = _maxMintPerTx;\n    }\n\n    function withdraw() external payable onlyOwner {\n        require(address(this).balance > 0, \"Contract balance is 0.\");\n        (bool success, ) = payable(withdrawlAddress).call{value: address(this).balance}(\"\");\n        require(success, \"Withdrawl failed.\");\n    }\n\n    function setStage(Stage _stage) external onlyOwner {\n        require(provenanceHashFrozen == true, \"Provenance hash must be frozen before minting can start.\");\n        require(merkleRoot != 0, \"Merkle root must be set beefore minting can start.\");\n        stage = _stage;\n    }\n\n    // External view functions\n    function lastMintAddress() external view returns (address){\n        return ownerOf(totalSupply());\n    }\n\n    function lastMintID() external view returns (uint256){\n        return(totalSupply());\n    }\n\n    function tokenURI(uint256 tokenId) public view virtual override returns (string memory) {\n        require(_exists(tokenId), \"ERC721Metadata: URI query for nonexistent token.\");\n        return string(abi.encodePacked(baseURI, tokenId.toString(), baseExtension));\n    }\n\n    function getTokensLeft() external view returns (uint256) {\n        return totalSaleSupply - totalSupply();\n    }\n    \n    function walletOfOwner(address owner) external view returns (uint256[] memory) {\n        uint256 ownerTokenCount = balanceOf(owner);\n        uint256[] memory tokensIds = new uint256[](ownerTokenCount);\n        for (uint256 i; i < ownerTokenCount; i++) {\n            tokensIds[i] = tokenOfOwnerByIndex(owner, i);\n        }\n        return tokensIds;\n    }\n\n    function verify(address account, bytes32[] calldata merkleProof) external view returns (bool) {\n        if (merkleProof.verify(merkleRoot, keccak256(abi.encodePacked(account)))) {\n            return true;\n        }\n        return false;\n    }\n    \n    function _beforeTokenTransfer(address from, address to, uint256 tokenId) internal whenNotPaused override(ERC721, ERC721Enumerable) {\n        super._beforeTokenTransfer(from, to, tokenId);\n    }\n\n    // The following functions are overrides required by Solidity.\n\n    function supportsInterface(bytes4 interfaceId) public view override(ERC721, ERC721Enumerable) returns (bool) {\n        return super.supportsInterface(interfaceId);\n    }\n\n}",
  "sourcePath": "contracts/CryptidToken.sol",
  "type": "contract"
}