{
  "abi": [
    {
      "inputs": [
        {
          "internalType": "string",
          "name": "_name",
          "type": "string"
        },
        {
          "internalType": "string",
          "name": "_symbol",
          "type": "string"
        },
        {
          "internalType": "string",
          "name": "_baseURI",
          "type": "string"
        },
        {
          "internalType": "uint256",
          "name": "_whitelistSupply",
          "type": "uint256"
        },
        {
          "internalType": "uint256",
          "name": "_teamMintSupply",
          "type": "uint256"
        },
        {
          "internalType": "uint256",
          "name": "_totalSaleSupply",
          "type": "uint256"
        },
        {
          "internalType": "uint8",
          "name": "_maxMintPerTx",
          "type": "uint8"
        }
      ],
      "stateMutability": "nonpayable",
      "type": "constructor"
    },
    {
      "anonymous": false,
      "inputs": [
        {
          "indexed": true,
          "internalType": "address",
          "name": "owner",
          "type": "address"
        },
        {
          "indexed": true,
          "internalType": "address",
          "name": "approved",
          "type": "address"
        },
        {
          "indexed": true,
          "internalType": "uint256",
          "name": "tokenId",
          "type": "uint256"
        }
      ],
      "name": "Approval",
      "type": "event"
    },
    {
      "anonymous": false,
      "inputs": [
        {
          "indexed": true,
          "internalType": "address",
          "name": "owner",
          "type": "address"
        },
        {
          "indexed": true,
          "internalType": "address",
          "name": "operator",
          "type": "address"
        },
        {
          "indexed": false,
          "internalType": "bool",
          "name": "approved",
          "type": "bool"
        }
      ],
      "name": "ApprovalForAll",
      "type": "event"
    },
    {
      "anonymous": false,
      "inputs": [
        {
          "indexed": true,
          "internalType": "address",
          "name": "previousOwner",
          "type": "address"
        },
        {
          "indexed": true,
          "internalType": "address",
          "name": "newOwner",
          "type": "address"
        }
      ],
      "name": "OwnershipTransferred",
      "type": "event"
    },
    {
      "anonymous": false,
      "inputs": [
        {
          "indexed": false,
          "internalType": "address",
          "name": "account",
          "type": "address"
        }
      ],
      "name": "Paused",
      "type": "event"
    },
    {
      "anonymous": false,
      "inputs": [
        {
          "indexed": true,
          "internalType": "address",
          "name": "from",
          "type": "address"
        },
        {
          "indexed": true,
          "internalType": "address",
          "name": "to",
          "type": "address"
        },
        {
          "indexed": true,
          "internalType": "uint256",
          "name": "tokenId",
          "type": "uint256"
        }
      ],
      "name": "Transfer",
      "type": "event"
    },
    {
      "anonymous": false,
      "inputs": [
        {
          "indexed": false,
          "internalType": "address",
          "name": "account",
          "type": "address"
        }
      ],
      "name": "Unpaused",
      "type": "event"
    },
    {
      "inputs": [
        {
          "internalType": "uint8",
          "name": "_mintAmount",
          "type": "uint8"
        },
        {
          "internalType": "address",
          "name": "_to",
          "type": "address"
        }
      ],
      "name": "airdropCryptid",
      "outputs": [],
      "stateMutability": "nonpayable",
      "type": "function"
    },
    {
      "inputs": [
        {
          "internalType": "address",
          "name": "to",
          "type": "address"
        },
        {
          "internalType": "uint256",
          "name": "tokenId",
          "type": "uint256"
        }
      ],
      "name": "approve",
      "outputs": [],
      "stateMutability": "nonpayable",
      "type": "function"
    },
    {
      "inputs": [
        {
          "internalType": "address",
          "name": "owner",
          "type": "address"
        }
      ],
      "name": "balanceOf",
      "outputs": [
        {
          "internalType": "uint256",
          "name": "",
          "type": "uint256"
        }
      ],
      "stateMutability": "view",
      "type": "function"
    },
    {
      "inputs": [],
      "name": "baseExtension",
      "outputs": [
        {
          "internalType": "string",
          "name": "",
          "type": "string"
        }
      ],
      "stateMutability": "view",
      "type": "function"
    },
    {
      "inputs": [],
      "name": "baseURI",
      "outputs": [
        {
          "internalType": "string",
          "name": "",
          "type": "string"
        }
      ],
      "stateMutability": "view",
      "type": "function"
    },
    {
      "inputs": [
        {
          "internalType": "uint256",
          "name": "tokenId",
          "type": "uint256"
        }
      ],
      "name": "burn",
      "outputs": [],
      "stateMutability": "nonpayable",
      "type": "function"
    },
    {
      "inputs": [
        {
          "internalType": "address",
          "name": "",
          "type": "address"
        }
      ],
      "name": "claimed",
      "outputs": [
        {
          "internalType": "bool",
          "name": "",
          "type": "bool"
        }
      ],
      "stateMutability": "view",
      "type": "function"
    },
    {
      "inputs": [],
      "name": "freezeBaseURI",
      "outputs": [],
      "stateMutability": "nonpayable",
      "type": "function"
    },
    {
      "inputs": [],
      "name": "freezeProvenanceHash",
      "outputs": [],
      "stateMutability": "nonpayable",
      "type": "function"
    },
    {
      "inputs": [
        {
          "internalType": "uint256",
          "name": "tokenId",
          "type": "uint256"
        }
      ],
      "name": "getApproved",
      "outputs": [
        {
          "internalType": "address",
          "name": "",
          "type": "address"
        }
      ],
      "stateMutability": "view",
      "type": "function"
    },
    {
      "inputs": [],
      "name": "getStage",
      "outputs": [
        {
          "internalType": "uint8",
          "name": "",
          "type": "uint8"
        }
      ],
      "stateMutability": "view",
      "type": "function"
    },
    {
      "inputs": [],
      "name": "getTokensLeft",
      "outputs": [
        {
          "internalType": "uint256",
          "name": "",
          "type": "uint256"
        }
      ],
      "stateMutability": "view",
      "type": "function"
    },
    {
      "inputs": [
        {
          "internalType": "address",
          "name": "owner",
          "type": "address"
        },
        {
          "internalType": "address",
          "name": "operator",
          "type": "address"
        }
      ],
      "name": "isApprovedForAll",
      "outputs": [
        {
          "internalType": "bool",
          "name": "",
          "type": "bool"
        }
      ],
      "stateMutability": "view",
      "type": "function"
    },
    {
      "inputs": [],
      "name": "lastMintAddress",
      "outputs": [
        {
          "internalType": "address",
          "name": "",
          "type": "address"
        }
      ],
      "stateMutability": "view",
      "type": "function"
    },
    {
      "inputs": [],
      "name": "lastMintID",
      "outputs": [
        {
          "internalType": "uint256",
          "name": "",
          "type": "uint256"
        }
      ],
      "stateMutability": "view",
      "type": "function"
    },
    {
      "inputs": [],
      "name": "maxMintPerTx",
      "outputs": [
        {
          "internalType": "uint8",
          "name": "",
          "type": "uint8"
        }
      ],
      "stateMutability": "view",
      "type": "function"
    },
    {
      "inputs": [],
      "name": "merkleRoot",
      "outputs": [
        {
          "internalType": "bytes32",
          "name": "",
          "type": "bytes32"
        }
      ],
      "stateMutability": "view",
      "type": "function"
    },
    {
      "inputs": [],
      "name": "name",
      "outputs": [
        {
          "internalType": "string",
          "name": "",
          "type": "string"
        }
      ],
      "stateMutability": "view",
      "type": "function"
    },
    {
      "inputs": [],
      "name": "nextStage",
      "outputs": [],
      "stateMutability": "nonpayable",
      "type": "function"
    },
    {
      "inputs": [
        {
          "internalType": "address",
          "name": "_wlAddress",
          "type": "address"
        }
      ],
      "name": "overrideClaim",
      "outputs": [],
      "stateMutability": "nonpayable",
      "type": "function"
    },
    {
      "inputs": [],
      "name": "owner",
      "outputs": [
        {
          "internalType": "address",
          "name": "",
          "type": "address"
        }
      ],
      "stateMutability": "view",
      "type": "function"
    },
    {
      "inputs": [
        {
          "internalType": "uint256",
          "name": "tokenId",
          "type": "uint256"
        }
      ],
      "name": "ownerOf",
      "outputs": [
        {
          "internalType": "address",
          "name": "",
          "type": "address"
        }
      ],
      "stateMutability": "view",
      "type": "function"
    },
    {
      "inputs": [],
      "name": "pause",
      "outputs": [],
      "stateMutability": "nonpayable",
      "type": "function"
    },
    {
      "inputs": [],
      "name": "paused",
      "outputs": [
        {
          "internalType": "bool",
          "name": "",
          "type": "bool"
        }
      ],
      "stateMutability": "view",
      "type": "function"
    },
    {
      "inputs": [],
      "name": "prevStage",
      "outputs": [],
      "stateMutability": "nonpayable",
      "type": "function"
    },
    {
      "inputs": [],
      "name": "provenanceHash",
      "outputs": [
        {
          "internalType": "string",
          "name": "",
          "type": "string"
        }
      ],
      "stateMutability": "view",
      "type": "function"
    },
    {
      "inputs": [],
      "name": "provenanceHashFrozen",
      "outputs": [
        {
          "internalType": "bool",
          "name": "",
          "type": "bool"
        }
      ],
      "stateMutability": "view",
      "type": "function"
    },
    {
      "inputs": [
        {
          "internalType": "uint8",
          "name": "_mintAmount",
          "type": "uint8"
        }
      ],
      "name": "publicMint",
      "outputs": [],
      "stateMutability": "payable",
      "type": "function"
    },
    {
      "inputs": [],
      "name": "renounceOwnership",
      "outputs": [],
      "stateMutability": "nonpayable",
      "type": "function"
    },
    {
      "inputs": [
        {
          "internalType": "address",
          "name": "from",
          "type": "address"
        },
        {
          "internalType": "address",
          "name": "to",
          "type": "address"
        },
        {
          "internalType": "uint256",
          "name": "tokenId",
          "type": "uint256"
        }
      ],
      "name": "safeTransferFrom",
      "outputs": [],
      "stateMutability": "nonpayable",
      "type": "function"
    },
    {
      "inputs": [
        {
          "internalType": "address",
          "name": "from",
          "type": "address"
        },
        {
          "internalType": "address",
          "name": "to",
          "type": "address"
        },
        {
          "internalType": "uint256",
          "name": "tokenId",
          "type": "uint256"
        },
        {
          "internalType": "bytes",
          "name": "_data",
          "type": "bytes"
        }
      ],
      "name": "safeTransferFrom",
      "outputs": [],
      "stateMutability": "nonpayable",
      "type": "function"
    },
    {
      "inputs": [],
      "name": "salePrice",
      "outputs": [
        {
          "internalType": "uint256",
          "name": "",
          "type": "uint256"
        }
      ],
      "stateMutability": "view",
      "type": "function"
    },
    {
      "inputs": [
        {
          "internalType": "address",
          "name": "operator",
          "type": "address"
        },
        {
          "internalType": "bool",
          "name": "approved",
          "type": "bool"
        }
      ],
      "name": "setApprovalForAll",
      "outputs": [],
      "stateMutability": "nonpayable",
      "type": "function"
    },
    {
      "inputs": [
        {
          "internalType": "string",
          "name": "_newBaseExtension",
          "type": "string"
        }
      ],
      "name": "setBaseExtension",
      "outputs": [],
      "stateMutability": "nonpayable",
      "type": "function"
    },
    {
      "inputs": [
        {
          "internalType": "string",
          "name": "_newBaseURI",
          "type": "string"
        }
      ],
      "name": "setBaseURI",
      "outputs": [],
      "stateMutability": "nonpayable",
      "type": "function"
    },
    {
      "inputs": [
        {
          "internalType": "uint8",
          "name": "_newmaxMintPerTx",
          "type": "uint8"
        }
      ],
      "name": "setMaxMintPerTx",
      "outputs": [],
      "stateMutability": "nonpayable",
      "type": "function"
    },
    {
      "inputs": [
        {
          "internalType": "bytes32",
          "name": "_merkleRoot",
          "type": "bytes32"
        }
      ],
      "name": "setMerkleRoot",
      "outputs": [],
      "stateMutability": "nonpayable",
      "type": "function"
    },
    {
      "inputs": [
        {
          "internalType": "string",
          "name": "_provenanceHash",
          "type": "string"
        }
      ],
      "name": "setProvenanceHash",
      "outputs": [],
      "stateMutability": "nonpayable",
      "type": "function"
    },
    {
      "inputs": [
        {
          "internalType": "uint256",
          "name": "_newSalePrice",
          "type": "uint256"
        }
      ],
      "name": "setPublicSalePrice",
      "outputs": [],
      "stateMutability": "nonpayable",
      "type": "function"
    },
    {
      "inputs": [
        {
          "internalType": "uint256",
          "name": "_newTeamMintSupply",
          "type": "uint256"
        }
      ],
      "name": "setTeamMintSupply",
      "outputs": [],
      "stateMutability": "nonpayable",
      "type": "function"
    },
    {
      "inputs": [
        {
          "internalType": "address",
          "name": "_dest1",
          "type": "address"
        },
        {
          "internalType": "address",
          "name": "_dest2",
          "type": "address"
        },
        {
          "internalType": "address",
          "name": "_dest3",
          "type": "address"
        },
        {
          "internalType": "address",
          "name": "_dest4",
          "type": "address"
        },
        {
          "internalType": "address",
          "name": "_dest5",
          "type": "address"
        }
      ],
      "name": "setWithdrawAddress",
      "outputs": [],
      "stateMutability": "nonpayable",
      "type": "function"
    },
    {
      "inputs": [
        {
          "internalType": "bytes4",
          "name": "interfaceId",
          "type": "bytes4"
        }
      ],
      "name": "supportsInterface",
      "outputs": [
        {
          "internalType": "bool",
          "name": "",
          "type": "bool"
        }
      ],
      "stateMutability": "view",
      "type": "function"
    },
    {
      "inputs": [],
      "name": "symbol",
      "outputs": [
        {
          "internalType": "string",
          "name": "",
          "type": "string"
        }
      ],
      "stateMutability": "view",
      "type": "function"
    },
    {
      "inputs": [
        {
          "internalType": "uint8",
          "name": "_mintAmount",
          "type": "uint8"
        }
      ],
      "name": "teamMint",
      "outputs": [],
      "stateMutability": "nonpayable",
      "type": "function"
    },
    {
      "inputs": [],
      "name": "teamMintCount",
      "outputs": [
        {
          "internalType": "uint256",
          "name": "",
          "type": "uint256"
        }
      ],
      "stateMutability": "view",
      "type": "function"
    },
    {
      "inputs": [],
      "name": "teamMintSupply",
      "outputs": [
        {
          "internalType": "uint256",
          "name": "",
          "type": "uint256"
        }
      ],
      "stateMutability": "view",
      "type": "function"
    },
    {
      "inputs": [
        {
          "internalType": "uint256",
          "name": "tokenId",
          "type": "uint256"
        }
      ],
      "name": "tokenURI",
      "outputs": [
        {
          "internalType": "string",
          "name": "",
          "type": "string"
        }
      ],
      "stateMutability": "view",
      "type": "function"
    },
    {
      "inputs": [],
      "name": "tokenURIFrozen",
      "outputs": [
        {
          "internalType": "bool",
          "name": "",
          "type": "bool"
        }
      ],
      "stateMutability": "view",
      "type": "function"
    },
    {
      "inputs": [],
      "name": "totalSaleSupply",
      "outputs": [
        {
          "internalType": "uint256",
          "name": "",
          "type": "uint256"
        }
      ],
      "stateMutability": "view",
      "type": "function"
    },
    {
      "inputs": [],
      "name": "totalSupply",
      "outputs": [
        {
          "internalType": "uint256",
          "name": "",
          "type": "uint256"
        }
      ],
      "stateMutability": "view",
      "type": "function"
    },
    {
      "inputs": [
        {
          "internalType": "address",
          "name": "from",
          "type": "address"
        },
        {
          "internalType": "address",
          "name": "to",
          "type": "address"
        },
        {
          "internalType": "uint256",
          "name": "tokenId",
          "type": "uint256"
        }
      ],
      "name": "transferFrom",
      "outputs": [],
      "stateMutability": "nonpayable",
      "type": "function"
    },
    {
      "inputs": [
        {
          "internalType": "address",
          "name": "newOwner",
          "type": "address"
        }
      ],
      "name": "transferOwnership",
      "outputs": [],
      "stateMutability": "nonpayable",
      "type": "function"
    },
    {
      "inputs": [],
      "name": "unpause",
      "outputs": [],
      "stateMutability": "nonpayable",
      "type": "function"
    },
    {
      "inputs": [
        {
          "internalType": "bytes32[]",
          "name": "_merkleProof",
          "type": "bytes32[]"
        }
      ],
      "name": "whitelistMint",
      "outputs": [],
      "stateMutability": "payable",
      "type": "function"
    },
    {
      "inputs": [],
      "name": "whitelistSupply",
      "outputs": [
        {
          "internalType": "uint256",
          "name": "",
          "type": "uint256"
        }
      ],
      "stateMutability": "view",
      "type": "function"
    },
    {
      "inputs": [],
      "name": "withdraw",
      "outputs": [],
      "stateMutability": "payable",
      "type": "function"
    },
    {
      "inputs": [],
      "name": "withdrawDest1",
      "outputs": [
        {
          "internalType": "address",
          "name": "",
          "type": "address"
        }
      ],
      "stateMutability": "view",
      "type": "function"
    },
    {
      "inputs": [],
      "name": "withdrawDest2",
      "outputs": [
        {
          "internalType": "address",
          "name": "",
          "type": "address"
        }
      ],
      "stateMutability": "view",
      "type": "function"
    },
    {
      "inputs": [],
      "name": "withdrawDest3",
      "outputs": [
        {
          "internalType": "address",
          "name": "",
          "type": "address"
        }
      ],
      "stateMutability": "view",
      "type": "function"
    },
    {
      "inputs": [],
      "name": "withdrawDest4",
      "outputs": [
        {
          "internalType": "address",
          "name": "",
          "type": "address"
        }
      ],
      "stateMutability": "view",
      "type": "function"
    },
    {
      "inputs": [],
      "name": "withdrawDest5",
      "outputs": [
        {
          "internalType": "address",
          "name": "",
          "type": "address"
        }
      ],
      "stateMutability": "view",
      "type": "function"
    }
  ],
  "bytecode": "60a06040819052600060808190526200001b91600b916200021d565b5060408051808201909152600580825264173539b7b760d91b60209092019182526200004a91600c916200021d565b50600d805461ff01600160c01b031916771953bc1ff76f5e61cd775a4482bd85bac56ad1eb00000000179055600e80547312b58f5331a6dc897932aa7fb5101667acdf03e26001600160a01b03199182168117909255600f8054731953bc1ff76f5e61cd775a4482bd85bac56ad1eb9083161790556010805482168317905560118054909116909117905567016345785d8a0000601755348015620000ee57600080fd5b5060405162003f1938038062003f19833981016040819052620001119162000390565b8651879087906200012a9060009060208501906200021d565b508051620001409060019060208401906200021d565b50506006805460ff19169055506200015833620001ba565b6001600755601284905560148390556016829055600d805461ff00191661010060ff84160217905584516200019590600b9060208801906200021d565b50620001ad60086200021460201b620027a41760201c565b5050505050505062000497565b600680546001600160a01b03838116610100818102610100600160a81b031985161790945560405193909204169182907f8be0079c531659141344cd1fd0a4f28419497f9722a3daafe3b4186f6b6457e090600090a35050565b80546001019055565b8280546200022b906200045a565b90600052602060002090601f0160209004810192826200024f57600085556200029a565b82601f106200026a57805160ff19168380011785556200029a565b828001600101855582156200029a579182015b828111156200029a5782518255916020019190600101906200027d565b50620002a8929150620002ac565b5090565b5b80821115620002a85760008155600101620002ad565b634e487b7160e01b600052604160045260246000fd5b600082601f830112620002eb57600080fd5b81516001600160401b0380821115620003085762000308620002c3565b604051601f8301601f19908116603f01168101908282118183101715620003335762000333620002c3565b816040528381526020925086838588010111156200035057600080fd5b600091505b8382101562000374578582018301518183018401529082019062000355565b83821115620003865760008385830101525b9695505050505050565b600080600080600080600060e0888a031215620003ac57600080fd5b87516001600160401b0380821115620003c457600080fd5b620003d28b838c01620002d9565b985060208a0151915080821115620003e957600080fd5b620003f78b838c01620002d9565b975060408a01519150808211156200040e57600080fd5b506200041d8a828b01620002d9565b955050606088015193506080880151925060a0880151915060c088015160ff811681146200044a57600080fd5b8091505092959891949750929550565b600181811c908216806200046f57607f821691505b602082108114156200049157634e487b7160e01b600052602260045260246000fd5b50919050565b613a7280620004a76000396000f3fe6080604052600436106103a25760003560e01c806381c162f2116101e7578063c87b56dd1161010d578063de7fcb1d116100a0578063ee3743ab1161006f578063ee3743ab14610a56578063f2fde38b14610a6b578063f51f96dd14610a8b578063fcaa766414610aa157600080fd5b8063de7fcb1d146109a7578063e7bc8208146109d8578063e985e9c5146109ed578063ea74e19014610a3657600080fd5b8063d6d67a09116100dc578063d6d67a091461093d578063da3ef23f14610952578063db993f5614610972578063de5f98661461099257600080fd5b8063c87b56dd146108b8578063c884ef83146108d8578063cbd0a2b514610908578063d2fab8b91461091d57600080fd5b8063b121439211610185578063c29de63011610154578063c29de63014610858578063c321458114610878578063c66828621461088e578063c6ab67a3146108a357600080fd5b8063b1214392146107d8578063b3caad01146107f8578063b88d4fde14610818578063bbc903ea1461083857600080fd5b80638da5cb5b116101c15780638da5cb5b1461075f57806395d89b41146107825780639a2a9c3d14610797578063a22cb465146107b857600080fd5b806381c162f2146107225780638456cb5914610737578063858e83b51461074c57600080fd5b806342842e0e116102cc5780636c0360eb1161026a578063782319781161023957806378231978146106ac578063791a2519146106c25780637b671780146106e25780637cb647591461070257600080fd5b80636c0360eb1461064d5780636cbb89851461066257806370a0823114610677578063715018a61461069757600080fd5b80635c975abb116102a65780635c975abb146105cd57806361869a93146105e5578063622e4e781461060d5780636352211e1461062d57600080fd5b806342842e0e1461056d57806342966c681461058d57806355f804b3146105ad57600080fd5b806320841a6a11610344578063372f657c11610313578063372f657c1461051d5780633c795047146105305780633ccfd60b146105505780633f4ba83a1461055857600080fd5b806320841a6a146104b157806323b872dd146104d15780632eb4a7ab146104f157806333e614131461050757600080fd5b8063088139a611610380578063088139a614610436578063095ea7b31461045a578063109695231461047c57806318160ddd1461049c57600080fd5b806301ffc9a7146103a757806306fdde03146103dc578063081812fc146103fe575b600080fd5b3480156103b357600080fd5b506103c76103c23660046132a8565b610ab9565b60405190151581526020015b60405180910390f35b3480156103e857600080fd5b506103f1610b0b565b6040516103d3919061331d565b34801561040a57600080fd5b5061041e610419366004613330565b610b9d565b6040516001600160a01b0390911681526020016103d3565b34801561044257600080fd5b5061044c60155481565b6040519081526020016103d3565b34801561046657600080fd5b5061047a610475366004613365565b610c37565b005b34801561048857600080fd5b5061047a61049736600461341b565b610d4d565b3480156104a857600080fd5b5061044c610e4f565b3480156104bd57600080fd5b5061047a6104cc366004613330565b610e6b565b3480156104dd57600080fd5b5061047a6104ec366004613464565b610ea0565b3480156104fd57600080fd5b5061044c60095481565b34801561051357600080fd5b5061044c60125481565b61047a61052b3660046134a0565b610ed2565b34801561053c57600080fd5b50600f5461041e906001600160a01b031681565b61047a61122b565b34801561056457600080fd5b5061047a6115ee565b34801561057957600080fd5b5061047a610588366004613464565b611628565b34801561059957600080fd5b5061047a6105a8366004613330565b611643565b3480156105b957600080fd5b5061047a6105c836600461341b565b6116bd565b3480156105d957600080fd5b5060065460ff166103c7565b3480156105f157600080fd5b50600d5461041e9064010000000090046001600160a01b031681565b34801561061957600080fd5b5061047a610628366004613526565b61174e565b34801561063957600080fd5b5061041e610648366004613330565b61179a565b34801561065957600080fd5b506103f1611811565b34801561066e57600080fd5b5061041e61189f565b34801561068357600080fd5b5061044c610692366004613541565b6118fb565b3480156106a357600080fd5b5061047a611982565b3480156106b857600080fd5b5061044c60165481565b3480156106ce57600080fd5b5061047a6106dd366004613330565b6119bc565b3480156106ee57600080fd5b5061047a6106fd366004613526565b6119f1565b34801561070e57600080fd5b5061047a61071d366004613330565b611b3f565b34801561072e57600080fd5b5061047a611b74565b34801561074357600080fd5b5061047a611c7c565b61047a61075a366004613526565b611cb4565b34801561076b57600080fd5b5060065461010090046001600160a01b031661041e565b34801561078e57600080fd5b506103f1611fb8565b3480156107a357600080fd5b50600d546103c7906301000000900460ff1681565b3480156107c457600080fd5b5061047a6107d336600461355c565b611fc7565b3480156107e457600080fd5b50600e5461041e906001600160a01b031681565b34801561080457600080fd5b5061047a610813366004613598565b611fd2565b34801561082457600080fd5b5061047a6108333660046135cb565b612117565b34801561084457600080fd5b5061047a610853366004613541565b61214f565b34801561086457600080fd5b50600d546103c79062010000900460ff1681565b34801561088457600080fd5b5061044c60145481565b34801561089a57600080fd5b506103f16121a3565b3480156108af57600080fd5b506103f16121b0565b3480156108c457600080fd5b506103f16108d3366004613330565b6121bd565b3480156108e457600080fd5b506103c76108f3366004613541565b60136020526000908152604090205460ff1681565b34801561091457600080fd5b5061047a612271565b34801561092957600080fd5b5060105461041e906001600160a01b031681565b34801561094957600080fd5b5061044c612317565b34801561095e57600080fd5b5061047a61096d36600461341b565b612370565b34801561097e57600080fd5b5060115461041e906001600160a01b031681565b34801561099e57600080fd5b5061044c6123b3565b3480156109b357600080fd5b50600d546109c690610100900460ff1681565b60405160ff90911681526020016103d3565b3480156109e457600080fd5b5061047a6123ca565b3480156109f957600080fd5b506103c7610a08366004613647565b6001600160a01b03918216600090815260056020908152604080832093909416825291909152205460ff1690565b348015610a4257600080fd5b5061047a610a51366004613663565b6124c4565b348015610a6257600080fd5b5061047a612563565b348015610a7757600080fd5b5061047a610a86366004613541565b612706565b348015610a9757600080fd5b5061044c60175481565b348015610aad57600080fd5b50600d5460ff166109c6565b60006001600160e01b031982166380ac58cd60e01b1480610aea57506001600160e01b03198216635b5e139f60e01b145b80610b0557506301ffc9a760e01b6001600160e01b03198316145b92915050565b606060008054610b1a906136c8565b80601f0160208091040260200160405190810160405280929190818152602001828054610b46906136c8565b8015610b935780601f10610b6857610100808354040283529160200191610b93565b820191906000526020600020905b815481529060010190602001808311610b7657829003601f168201915b5050505050905090565b6000818152600260205260408120546001600160a01b0316610c1b5760405162461bcd60e51b815260206004820152602c60248201527f4552433732313a20617070726f76656420717565727920666f72206e6f6e657860448201526b34b9ba32b73a103a37b5b2b760a11b60648201526084015b60405180910390fd5b506000908152600460205260409020546001600160a01b031690565b6000610c428261179a565b9050806001600160a01b0316836001600160a01b03161415610cb05760405162461bcd60e51b815260206004820152602160248201527f4552433732313a20617070726f76616c20746f2063757272656e74206f776e656044820152603960f91b6064820152608401610c12565b336001600160a01b0382161480610ccc5750610ccc8133610a08565b610d3e5760405162461bcd60e51b815260206004820152603860248201527f4552433732313a20617070726f76652063616c6c6572206973206e6f74206f7760448201527f6e6572206e6f7220617070726f76656420666f7220616c6c00000000000000006064820152608401610c12565b610d4883836127ad565b505050565b6006546001600160a01b03610100909104163314610d7d5760405162461bcd60e51b8152600401610c1290613703565b6000815111610dde5760405162461bcd60e51b815260206004820152602760248201527f50726f76656e616e636520686173682063616e6e6f7420626520656d7074792060448201526639ba3934b7339760c91b6064820152608401610c12565b600d546301000000900460ff1615610e385760405162461bcd60e51b815260206004820152601a60248201527f50726f76656e616e636520686173682069732066726f7a656e2e0000000000006044820152606401610c12565b8051610e4b90600a9060208401906131f9565b5050565b60006001610e5c60085490565b610e66919061374e565b905090565b6006546001600160a01b03610100909104163314610e9b5760405162461bcd60e51b8152600401610c1290613703565b601455565b610eab335b8261281b565b610ec75760405162461bcd60e51b8152600401610c1290613765565b610d48838383612912565b8181600954610f49838380806020026020016040519081016040528093929190818152602001838360200280828437600092019190915250506040516bffffffffffffffffffffffff193360601b166020820152859250603401905060405160208183030381529060405280519060200120612abd565b610f955760405162461bcd60e51b815260206004820152601960248201527f41646472657373206e6f7420696e2077686974656c6973742e000000000000006044820152606401610c12565b601754600134610fa582846137b6565b14610fee5760405162461bcd60e51b815260206004820152601960248201527824b731b7b93932b1ba1022aa24103b30b63ab29039b2b73a1760391b6044820152606401610c12565b32331461103d5760405162461bcd60e51b815260206004820152601f60248201527f5468652063616c6c657220697320616e6f7468657220636f6e74726163742e006044820152606401610c12565b600260075414156110905760405162461bcd60e51b815260206004820152601f60248201527f5265656e7472616e637947756172643a207265656e7472616e742063616c6c006044820152606401610c12565b600260075560065460ff16156110b85760405162461bcd60e51b8152600401610c12906137d5565b600d5460ff1660021461110d5760405162461bcd60e51b815260206004820181905260248201527f57686974656c697374206d696e74696e67206e6f7420696e697469617465642e6044820152606401610c12565b3360009081526013602052604090205460ff161561116d5760405162461bcd60e51b815260206004820152601f60248201527f57686974656c697374206d696e7420616c726561647920636c61696d65642e006044820152606401610c12565b601254611178610e4f565b6111839060016137ff565b11156111e35760405162461bcd60e51b815260206004820152602960248201527f4d696e7420616d6f756e742077696c6c206578636565642077686974656c69736044820152683a1039bab838363c9760b91b6064820152608401610c12565b336000818152601360205260409020805460ff1916600117905561120f9061120a60085490565b612ad3565b61121d600880546001019055565b505060016007555050505050565b6006546001600160a01b0361010090910416331461125b5760405162461bcd60e51b8152600401610c1290613703565b600047116112a45760405162461bcd60e51b815260206004820152601660248201527521b7b73a3930b1ba103130b630b731b29034b990181760511b6044820152606401610c12565b600d5460009064010000000090046001600160a01b03166112d36103e86112cd476102bc612c21565b90612c34565b604051600081818185875af1925050503d806000811461130f576040519150601f19603f3d011682016040523d82523d6000602084013e611314565b606091505b505090508061135a5760405162461bcd60e51b81526020600482015260126024820152711dda5d1a191c985ddb080c4819985a5b195960721b6044820152606401610c12565b600e546000906001600160a01b031661137a6103e86112cd476069612c21565b604051600081818185875af1925050503d80600081146113b6576040519150601f19603f3d011682016040523d82523d6000602084013e6113bb565b606091505b50509050806114015760405162461bcd60e51b81526020600482015260126024820152711dda5d1a191c985ddb080c8819985a5b195960721b6044820152606401610c12565b600f546000906001600160a01b03166114216103e86112cd476069612c21565b604051600081818185875af1925050503d806000811461145d576040519150601f19603f3d011682016040523d82523d6000602084013e611462565b606091505b50509050806114a85760405162461bcd60e51b81526020600482015260126024820152711dda5d1a191c985ddb080cc819985a5b195960721b6044820152606401610c12565b6010546000906001600160a01b03166114c86103e86112cd47602d612c21565b604051600081818185875af1925050503d8060008114611504576040519150601f19603f3d011682016040523d82523d6000602084013e611509565b606091505b505090508061154f5760405162461bcd60e51b81526020600482015260126024820152711dda5d1a191c985ddb080d0819985a5b195960721b6044820152606401610c12565b6011546040516000916001600160a01b03169047908381818185875af1925050503d806000811461159c576040519150601f19603f3d011682016040523d82523d6000602084013e6115a1565b606091505b50509050806115e75760405162461bcd60e51b81526020600482015260126024820152711dda5d1a191c985ddb080d4819985a5b195960721b6044820152606401610c12565b5050505050565b6006546001600160a01b0361010090910416331461161e5760405162461bcd60e51b8152600401610c1290613703565b611626612c40565b565b610d4883838360405180602001604052806000815250612117565b61164c33610ea5565b6116b15760405162461bcd60e51b815260206004820152603060248201527f4552433732314275726e61626c653a2063616c6c6572206973206e6f74206f7760448201526f1b995c881b9bdc88185c1c1c9bdd995960821b6064820152608401610c12565b6116ba81612cd3565b50565b6006546001600160a01b036101009091041633146116ed5760405162461bcd60e51b8152600401610c1290613703565b600d5462010000900460ff161561173b5760405162461bcd60e51b81526020600482015260126024820152712130b9b2aaa9249034b990333937bd32b71760711b6044820152606401610c12565b8051610e4b90600b9060208401906131f9565b6006546001600160a01b0361010090910416331461177e5760405162461bcd60e51b8152600401610c1290613703565b600d805460ff9092166101000261ff0019909216919091179055565b6000818152600260205260408120546001600160a01b031680610b055760405162461bcd60e51b815260206004820152602960248201527f4552433732313a206f776e657220717565727920666f72206e6f6e657869737460448201526832b73a103a37b5b2b760b91b6064820152608401610c12565b600b805461181e906136c8565b80601f016020809104026020016040519081016040528092919081815260200182805461184a906136c8565b80156118975780601f1061186c57610100808354040283529160200191611897565b820191906000526020600020905b81548152906001019060200180831161187a57829003601f168201915b505050505081565b6000806118aa610e4f565b116118f05760405162461bcd60e51b815260206004820152601660248201527527379031b93cb83a34b21032bc34b9ba39903cb2ba1760511b6044820152606401610c12565b610e66610648610e4f565b60006001600160a01b0382166119665760405162461bcd60e51b815260206004820152602a60248201527f4552433732313a2062616c616e636520717565727920666f7220746865207a65604482015269726f206164647265737360b01b6064820152608401610c12565b506001600160a01b031660009081526003602052604090205490565b6006546001600160a01b036101009091041633146119b25760405162461bcd60e51b8152600401610c1290613703565b6116266000612d7a565b6006546001600160a01b036101009091041633146119ec5760405162461bcd60e51b8152600401610c1290613703565b601755565b6006546001600160a01b03610100909104163314611a215760405162461bcd60e51b8152600401610c1290613703565b600d5460ff16600314611a765760405162461bcd60e51b815260206004820152601860248201527f5465616d2073616c65206e6f7420696e697469617465642e00000000000000006044820152606401610c12565b601454601554611a899060ff84166137ff565b1115611aea5760405162461bcd60e51b815260206004820152602a60248201527f5472616e73616374696f6e206578636565647320746f74616c207465616d2d73604482015269616c6520737570706c7960b01b6064820152608401610c12565b8060ff1660156000828254611aff91906137ff565b90915550600190505b8160ff168111610e4b57611b1f3361120a60085490565b611b2d600880546001019055565b80611b3781613817565b915050611b08565b6006546001600160a01b03610100909104163314611b6f5760405162461bcd60e51b8152600401610c1290613703565b600955565b6006546001600160a01b03610100909104163314611ba45760405162461bcd60e51b8152600401610c1290613703565b6000600a8054611bb3906136c8565b905011611c025760405162461bcd60e51b815260206004820181905260248201527f50726f76656e616e636520686173682063616e6e6f7420626520656d7074792e6044820152606401610c12565b600d546301000000900460ff1615611c675760405162461bcd60e51b815260206004820152602260248201527f50726f76656e616e6365206861736820697320616c72656164792066726f7a65604482015261371760f11b6064820152608401610c12565b600d805463ff00000019166301000000179055565b6006546001600160a01b03610100909104163314611cac5760405162461bcd60e51b8152600401610c1290613703565b611626612dd4565b60175460ff821634611cc682846137b6565b14611d0f5760405162461bcd60e51b815260206004820152601960248201527824b731b7b93932b1ba1022aa24103b30b63ab29039b2b73a1760391b6044820152606401610c12565b323314611d5e5760405162461bcd60e51b815260206004820152601f60248201527f5468652063616c6c657220697320616e6f7468657220636f6e74726163742e006044820152606401610c12565b60026007541415611db15760405162461bcd60e51b815260206004820152601f60248201527f5265656e7472616e637947756172643a207265656e7472616e742063616c6c006044820152606401610c12565b600260075560065460ff1615611dd95760405162461bcd60e51b8152600401610c12906137d5565b600d5460ff16600414611e2e5760405162461bcd60e51b815260206004820152601b60248201527f5075626c6963206d696e74206e6f7420696e69746961697465642e00000000006044820152606401610c12565b6016548360ff16611e3d610e4f565b611e4791906137ff565b1115611ea35760405162461bcd60e51b815260206004820152602560248201527f5472616e73616374696f6e206578636565647320746f74616c2073616c6520736044820152647570706c7960d81b6064820152608401610c12565b60008360ff1611611f025760405162461bcd60e51b815260206004820152602360248201527f4d696e7420616d6f756e74206d7573742062652067726561746572207468616e60448201526210181760e91b6064820152608401610c12565b600d5460ff61010090910481169084161115611f735760405162461bcd60e51b815260206004820152602a60248201527f45786365656473206d617820616c6c6f776564206d696e74732070657220747260448201526930b739b0b1ba34b7b71760b11b6064820152608401610c12565b60015b8360ff168111611fad57611f8d3361120a60085490565b611f9b600880546001019055565b80611fa581613817565b915050611f76565b505060016007555050565b606060018054610b1a906136c8565b610e4b338383612e2c565b6006546001600160a01b036101009091041633146120025760405162461bcd60e51b8152600401610c1290613703565b60008260ff16116120635760405162461bcd60e51b815260206004820152602560248201527f41697264726f7020616d6f756e74206d75737420626520677265617465722074604482015264068616e20360dc1b6064820152608401610c12565b6016548260ff16612072610e4f565b61207c91906137ff565b11156120dd5760405162461bcd60e51b815260206004820152602a60248201527f4d696e7420616d6f756e742077696c6c2065786365656420746f74616c20736160448201526936329039bab838363c9760b11b6064820152608401610c12565b60015b8260ff168111610d48576120f78261120a60085490565b612105600880546001019055565b8061210f81613817565b9150506120e0565b612121338361281b565b61213d5760405162461bcd60e51b8152600401610c1290613765565b61214984848484612efb565b50505050565b6006546001600160a01b0361010090910416331461217f5760405162461bcd60e51b8152600401610c1290613703565b6001600160a01b03166000908152601360205260409020805460ff19166001179055565b600c805461181e906136c8565b600a805461181e906136c8565b6000818152600260205260409020546060906001600160a01b031661223c5760405162461bcd60e51b815260206004820152602f60248201527f4552433732314d657461646174613a2055524920717565727920666f72206e6f60448201526e3732bc34b9ba32b73a103a37b5b2b760891b6064820152608401610c12565b600b61224783612f2e565b600c60405160200161225b939291906138cc565b6040516020818303038152906040529050919050565b6006546001600160a01b036101009091041633146122a15760405162461bcd60e51b8152600401610c1290613703565b600d5460ff166122e95760405162461bcd60e51b815260206004820152601360248201527227379039ba30b3b2b9903132b337b93290181760691b6044820152606401610c12565b600d805460ff169060006122fc836138ff565b91906101000a81548160ff021916908360ff16021790555050565b600080612322610e4f565b116123685760405162461bcd60e51b815260206004820152601660248201527527379031b93cb83a34b21032bc34b9ba39903cb2ba1760511b6044820152606401610c12565b610e66610e4f565b6006546001600160a01b036101009091041633146123a05760405162461bcd60e51b8152600401610c1290613703565b8051610e4b90600c9060208401906131f9565b60006123bd610e4f565b601654610e66919061374e565b6006546001600160a01b036101009091041633146123fa5760405162461bcd60e51b8152600401610c1290613703565b6000600b8054612409906136c8565b9050116124585760405162461bcd60e51b815260206004820152601760248201527f626173655552492063616e6e6f7420626520656d7074790000000000000000006044820152606401610c12565b600d5462010000900460ff16156124b15760405162461bcd60e51b815260206004820152601a60248201527f4261736555524920697320616c72656164792066726f7a656e2e0000000000006044820152606401610c12565b600d805462ff0000191662010000179055565b6006546001600160a01b036101009091041633146124f45760405162461bcd60e51b8152600401610c1290613703565b600d80546001600160a01b0396871664010000000002640100000000600160c01b0319909116179055600e80549486166001600160a01b0319958616179055600f8054938616938516939093179092556010805491851691841691909117905560118054919093169116179055565b6006546001600160a01b036101009091041633146125935760405162461bcd60e51b8152600401610c1290613703565b600d546301000000900460ff1615156001146126175760405162461bcd60e51b815260206004820152603860248201527f50726f76656e616e63652068617368206d7573742062652066726f7a656e206260448201527f65666f7265206d696e74696e672063616e2073746172742e00000000000000006064820152608401610c12565b60095460001a60f81b6001600160f81b03191661269c5760405162461bcd60e51b815260206004820152603b60248201527f4d65726b6c6520726f6f74206d7573742062652073657420626565666f72652060448201527f77686974656c697374206d696e74696e672063616e20626567696e00000000006064820152608401610c12565b600d54600460ff909116106126f35760405162461bcd60e51b815260206004820152601b60248201527f4e6f20737461676573206166746572207075626c69632073616c6500000000006044820152606401610c12565b600d805460ff169060006122fc83613932565b6006546001600160a01b036101009091041633146127365760405162461bcd60e51b8152600401610c1290613703565b6001600160a01b03811661279b5760405162461bcd60e51b815260206004820152602660248201527f4f776e61626c653a206e6577206f776e657220697320746865207a65726f206160448201526564647265737360d01b6064820152608401610c12565b6116ba81612d7a565b80546001019055565b600081815260046020526040902080546001600160a01b0319166001600160a01b03841690811790915581906127e28261179a565b6001600160a01b03167f8c5be1e5ebec7d5bd14f71427d1e84f3dd0314c0f7b2291e5b200ac8c7c3b92560405160405180910390a45050565b6000818152600260205260408120546001600160a01b03166128945760405162461bcd60e51b815260206004820152602c60248201527f4552433732313a206f70657261746f7220717565727920666f72206e6f6e657860448201526b34b9ba32b73a103a37b5b2b760a11b6064820152608401610c12565b600061289f8361179a565b9050806001600160a01b0316846001600160a01b031614806128da5750836001600160a01b03166128cf84610b9d565b6001600160a01b0316145b8061290a57506001600160a01b0380821660009081526005602090815260408083209388168352929052205460ff165b949350505050565b826001600160a01b03166129258261179a565b6001600160a01b03161461298d5760405162461bcd60e51b815260206004820152602960248201527f4552433732313a207472616e73666572206f6620746f6b656e2074686174206960448201526839903737ba1037bbb760b91b6064820152608401610c12565b6001600160a01b0382166129ef5760405162461bcd60e51b8152602060048201526024808201527f4552433732313a207472616e7366657220746f20746865207a65726f206164646044820152637265737360e01b6064820152608401610c12565b6129fa83838361302c565b612a056000826127ad565b6001600160a01b0383166000908152600360205260408120805460019290612a2e90849061374e565b90915550506001600160a01b0382166000908152600360205260408120805460019290612a5c9084906137ff565b909155505060008181526002602052604080822080546001600160a01b0319166001600160a01b0386811691821790925591518493918716917fddf252ad1be2c89b69c2b068fc378daa952ba7f163c4a11628f55a4df523b3ef91a4505050565b600082612aca858461304f565b14949350505050565b6001600160a01b038216612b295760405162461bcd60e51b815260206004820181905260248201527f4552433732313a206d696e7420746f20746865207a65726f20616464726573736044820152606401610c12565b6000818152600260205260409020546001600160a01b031615612b8e5760405162461bcd60e51b815260206004820152601c60248201527f4552433732313a20746f6b656e20616c7265616479206d696e746564000000006044820152606401610c12565b612b9a6000838361302c565b6001600160a01b0382166000908152600360205260408120805460019290612bc39084906137ff565b909155505060008181526002602052604080822080546001600160a01b0319166001600160a01b03861690811790915590518392907fddf252ad1be2c89b69c2b068fc378daa952ba7f163c4a11628f55a4df523b3ef908290a45050565b6000612c2d82846137b6565b9392505050565b6000612c2d8284613968565b60065460ff16612c895760405162461bcd60e51b815260206004820152601460248201527314185d5cd8589b194e881b9bdd081c185d5cd95960621b6044820152606401610c12565b6006805460ff191690557f5db9ee0a495bf2e6ff9c91a7834c1ba4fdd244a5e8aa4e537bd38aeae4b073aa335b6040516001600160a01b03909116815260200160405180910390a1565b6000612cde8261179a565b9050612cec8160008461302c565b612cf76000836127ad565b6001600160a01b0381166000908152600360205260408120805460019290612d2090849061374e565b909155505060008281526002602052604080822080546001600160a01b0319169055518391906001600160a01b038416907fddf252ad1be2c89b69c2b068fc378daa952ba7f163c4a11628f55a4df523b3ef908390a45050565b600680546001600160a01b03838116610100818102610100600160a81b031985161790945560405193909204169182907f8be0079c531659141344cd1fd0a4f28419497f9722a3daafe3b4186f6b6457e090600090a35050565b60065460ff1615612df75760405162461bcd60e51b8152600401610c12906137d5565b6006805460ff191660011790557f62e78cea01bee320cd4e420270b5ea74000d11b0c9f74754ebdbfc544b05a258612cb63390565b816001600160a01b0316836001600160a01b03161415612e8e5760405162461bcd60e51b815260206004820152601960248201527f4552433732313a20617070726f766520746f2063616c6c6572000000000000006044820152606401610c12565b6001600160a01b03838116600081815260056020908152604080832094871680845294825291829020805460ff191686151590811790915591519182527f17307eab39ab6107e8899845ad3d59bd9653f200f220920489ca2b5937696c31910160405180910390a3505050565b612f06848484612912565b612f12848484846130fb565b6121495760405162461bcd60e51b8152600401610c129061397c565b606081612f525750506040805180820190915260018152600360fc1b602082015290565b8160005b8115612f7c5780612f6681613817565b9150612f759050600a83613968565b9150612f56565b60008167ffffffffffffffff811115612f9757612f9761338f565b6040519080825280601f01601f191660200182016040528015612fc1576020820181803683370190505b5090505b841561290a57612fd660018361374e565b9150612fe3600a866139ce565b612fee9060306137ff565b60f81b8183815181106130035761300361391c565b60200101906001600160f81b031916908160001a905350613025600a86613968565b9450612fc5565b60065460ff1615610d485760405162461bcd60e51b8152600401610c12906137d5565b600081815b84518110156130f35760008582815181106130715761307161391c565b602002602001015190508083116130b35760408051602081018590529081018290526060016040516020818303038152906040528051906020012092506130e0565b60408051602081018390529081018490526060016040516020818303038152906040528051906020012092505b50806130eb81613817565b915050613054565b509392505050565b60006001600160a01b0384163b156131ee57604051630a85bd0160e11b81526001600160a01b0385169063150b7a029061313f9033908990889088906004016139e2565b6020604051808303816000875af192505050801561317a575060408051601f3d908101601f1916820190925261317791810190613a1f565b60015b6131d4573d8080156131a8576040519150601f19603f3d011682016040523d82523d6000602084013e6131ad565b606091505b5080516131cc5760405162461bcd60e51b8152600401610c129061397c565b805181602001fd5b6001600160e01b031916630a85bd0160e11b14905061290a565b506001949350505050565b828054613205906136c8565b90600052602060002090601f016020900481019282613227576000855561326d565b82601f1061324057805160ff191683800117855561326d565b8280016001018555821561326d579182015b8281111561326d578251825591602001919060010190613252565b5061327992915061327d565b5090565b5b80821115613279576000815560010161327e565b6001600160e01b0319811681146116ba57600080fd5b6000602082840312156132ba57600080fd5b8135612c2d81613292565b60005b838110156132e05781810151838201526020016132c8565b838111156121495750506000910152565b600081518084526133098160208601602086016132c5565b601f01601f19169290920160200192915050565b602081526000612c2d60208301846132f1565b60006020828403121561334257600080fd5b5035919050565b80356001600160a01b038116811461336057600080fd5b919050565b6000806040838503121561337857600080fd5b61338183613349565b946020939093013593505050565b634e487b7160e01b600052604160045260246000fd5b600067ffffffffffffffff808411156133c0576133c061338f565b604051601f8501601f19908116603f011681019082821181831017156133e8576133e861338f565b8160405280935085815286868601111561340157600080fd5b858560208301376000602087830101525050509392505050565b60006020828403121561342d57600080fd5b813567ffffffffffffffff81111561344457600080fd5b8201601f8101841361345557600080fd5b61290a848235602084016133a5565b60008060006060848603121561347957600080fd5b61348284613349565b925061349060208501613349565b9150604084013590509250925092565b600080602083850312156134b357600080fd5b823567ffffffffffffffff808211156134cb57600080fd5b818501915085601f8301126134df57600080fd5b8135818111156134ee57600080fd5b8660208260051b850101111561350357600080fd5b60209290920196919550909350505050565b803560ff8116811461336057600080fd5b60006020828403121561353857600080fd5b612c2d82613515565b60006020828403121561355357600080fd5b612c2d82613349565b6000806040838503121561356f57600080fd5b61357883613349565b91506020830135801515811461358d57600080fd5b809150509250929050565b600080604083850312156135ab57600080fd5b6135b483613515565b91506135c260208401613349565b90509250929050565b600080600080608085870312156135e157600080fd5b6135ea85613349565b93506135f860208601613349565b925060408501359150606085013567ffffffffffffffff81111561361b57600080fd5b8501601f8101871361362c57600080fd5b61363b878235602084016133a5565b91505092959194509250565b6000806040838503121561365a57600080fd5b6135b483613349565b600080600080600060a0868803121561367b57600080fd5b61368486613349565b945061369260208701613349565b93506136a060408701613349565b92506136ae60608701613349565b91506136bc60808701613349565b90509295509295909350565b600181811c908216806136dc57607f821691505b602082108114156136fd57634e487b7160e01b600052602260045260246000fd5b50919050565b6020808252818101527f4f776e61626c653a2063616c6c6572206973206e6f7420746865206f776e6572604082015260600190565b634e487b7160e01b600052601160045260246000fd5b60008282101561376057613760613738565b500390565b60208082526031908201527f4552433732313a207472616e736665722063616c6c6572206973206e6f74206f6040820152701ddb995c881b9bdc88185c1c1c9bdd9959607a1b606082015260800190565b60008160001904831182151516156137d0576137d0613738565b500290565b60208082526010908201526f14185d5cd8589b194e881c185d5cd95960821b604082015260600190565b6000821982111561381257613812613738565b500190565b600060001982141561382b5761382b613738565b5060010190565b8054600090600181811c908083168061384c57607f831692505b602080841082141561386e57634e487b7160e01b600052602260045260246000fd5b8180156138825760018114613893576138c0565b60ff198616895284890196506138c0565b60008881526020902060005b868110156138b85781548b82015290850190830161389f565b505084890196505b50505050505092915050565b60006138d88286613832565b84516138e88183602089016132c5565b6138f481830186613832565b979650505050505050565b600060ff82168061391257613912613738565b6000190192915050565b634e487b7160e01b600052603260045260246000fd5b600060ff821660ff81141561394957613949613738565b60010192915050565b634e487b7160e01b600052601260045260246000fd5b60008261397757613977613952565b500490565b60208082526032908201527f4552433732313a207472616e7366657220746f206e6f6e20455243373231526560408201527131b2b4bb32b91034b6b83632b6b2b73a32b960711b606082015260800190565b6000826139dd576139dd613952565b500690565b6001600160a01b0385811682528416602082015260408101839052608060608201819052600090613a15908301846132f1565b9695505050505050565b600060208284031215613a3157600080fd5b8151612c2d8161329256fea2646970667358221220d6965f5a87b183e268c6d5f9e24bdd4af5adef5daebf90c0c876534384c3c3ed64736f6c634300080a0033",
  "bytecodeSha1": "58434c6835ea8250641bff87d4b7c586125568a1",
  "compiler": {
    "evm_version": "istanbul",
    "optimizer": {
      "enabled": true,
      "runs": 200
    },
    "version": "0.8.10+commit.fc410830"
  },
  "contractName": "CryptidToken",
  "language": "Solidity",
  "natspec": {
    "kind": "dev",
    "methods": {
      "approve(address,uint256)": {
        "details": "See {IERC721-approve}."
      },
      "balanceOf(address)": {
        "details": "See {IERC721-balanceOf}."
      },
      "burn(uint256)": {
        "details": "Burns `tokenId`. See {ERC721-_burn}. Requirements: - The caller must own `tokenId` or be an approved operator."
      },
      "getApproved(uint256)": {
        "details": "See {IERC721-getApproved}."
      },
      "isApprovedForAll(address,address)": {
        "details": "See {IERC721-isApprovedForAll}."
      },
      "name()": {
        "details": "See {IERC721Metadata-name}."
      },
      "owner()": {
        "details": "Returns the address of the current owner."
      },
      "ownerOf(uint256)": {
        "details": "See {IERC721-ownerOf}."
      },
      "paused()": {
        "details": "Returns true if the contract is paused, and false otherwise."
      },
      "renounceOwnership()": {
        "details": "Leaves the contract without owner. It will not be possible to call `onlyOwner` functions anymore. Can only be called by the current owner. NOTE: Renouncing ownership will leave the contract without an owner, thereby removing any functionality that is only available to the owner."
      },
      "safeTransferFrom(address,address,uint256)": {
        "details": "See {IERC721-safeTransferFrom}."
      },
      "safeTransferFrom(address,address,uint256,bytes)": {
        "details": "See {IERC721-safeTransferFrom}."
      },
      "setApprovalForAll(address,bool)": {
        "details": "See {IERC721-setApprovalForAll}."
      },
      "supportsInterface(bytes4)": {
        "details": "See {IERC165-supportsInterface}."
      },
      "symbol()": {
        "details": "See {IERC721Metadata-symbol}."
      },
      "tokenURI(uint256)": {
        "details": "See {IERC721Metadata-tokenURI}."
      },
      "transferFrom(address,address,uint256)": {
        "details": "See {IERC721-transferFrom}."
      },
      "transferOwnership(address)": {
        "details": "Transfers ownership of the contract to a new account (`newOwner`). Can only be called by the current owner."
      }
    },
    "version": 1
  },
  "opcodes": "PUSH1 0x80 PUSH1 0x40 MSTORE PUSH1 0x4 CALLDATASIZE LT PUSH2 0x3A2 JUMPI PUSH1 0x0 CALLDATALOAD PUSH1 0xE0 SHR DUP1 PUSH4 0x81C162F2 GT PUSH2 0x1E7 JUMPI DUP1 PUSH4 0xC87B56DD GT PUSH2 0x10D JUMPI DUP1 PUSH4 0xDE7FCB1D GT PUSH2 0xA0 JUMPI DUP1 PUSH4 0xEE3743AB GT PUSH2 0x6F JUMPI DUP1 PUSH4 0xEE3743AB EQ PUSH2 0xA56 JUMPI DUP1 PUSH4 0xF2FDE38B EQ PUSH2 0xA6B JUMPI DUP1 PUSH4 0xF51F96DD EQ PUSH2 0xA8B JUMPI DUP1 PUSH4 0xFCAA7664 EQ PUSH2 0xAA1 JUMPI PUSH1 0x0 DUP1 REVERT JUMPDEST DUP1 PUSH4 0xDE7FCB1D EQ PUSH2 0x9A7 JUMPI DUP1 PUSH4 0xE7BC8208 EQ PUSH2 0x9D8 JUMPI DUP1 PUSH4 0xE985E9C5 EQ PUSH2 0x9ED JUMPI DUP1 PUSH4 0xEA74E190 EQ PUSH2 0xA36 JUMPI PUSH1 0x0 DUP1 REVERT JUMPDEST DUP1 PUSH4 0xD6D67A09 GT PUSH2 0xDC JUMPI DUP1 PUSH4 0xD6D67A09 EQ PUSH2 0x93D JUMPI DUP1 PUSH4 0xDA3EF23F EQ PUSH2 0x952 JUMPI DUP1 PUSH4 0xDB993F56 EQ PUSH2 0x972 JUMPI DUP1 PUSH4 0xDE5F9866 EQ PUSH2 0x992 JUMPI PUSH1 0x0 DUP1 REVERT JUMPDEST DUP1 PUSH4 0xC87B56DD EQ PUSH2 0x8B8 JUMPI DUP1 PUSH4 0xC884EF83 EQ PUSH2 0x8D8 JUMPI DUP1 PUSH4 0xCBD0A2B5 EQ PUSH2 0x908 JUMPI DUP1 PUSH4 0xD2FAB8B9 EQ PUSH2 0x91D JUMPI PUSH1 0x0 DUP1 REVERT JUMPDEST DUP1 PUSH4 0xB1214392 GT PUSH2 0x185 JUMPI DUP1 PUSH4 0xC29DE630 GT PUSH2 0x154 JUMPI DUP1 PUSH4 0xC29DE630 EQ PUSH2 0x858 JUMPI DUP1 PUSH4 0xC3214581 EQ PUSH2 0x878 JUMPI DUP1 PUSH4 0xC6682862 EQ PUSH2 0x88E JUMPI DUP1 PUSH4 0xC6AB67A3 EQ PUSH2 0x8A3 JUMPI PUSH1 0x0 DUP1 REVERT JUMPDEST DUP1 PUSH4 0xB1214392 EQ PUSH2 0x7D8 JUMPI DUP1 PUSH4 0xB3CAAD01 EQ PUSH2 0x7F8 JUMPI DUP1 PUSH4 0xB88D4FDE EQ PUSH2 0x818 JUMPI DUP1 PUSH4 0xBBC903EA EQ PUSH2 0x838 JUMPI PUSH1 0x0 DUP1 REVERT JUMPDEST DUP1 PUSH4 0x8DA5CB5B GT PUSH2 0x1C1 JUMPI DUP1 PUSH4 0x8DA5CB5B EQ PUSH2 0x75F JUMPI DUP1 PUSH4 0x95D89B41 EQ PUSH2 0x782 JUMPI DUP1 PUSH4 0x9A2A9C3D EQ PUSH2 0x797 JUMPI DUP1 PUSH4 0xA22CB465 EQ PUSH2 0x7B8 JUMPI PUSH1 0x0 DUP1 REVERT JUMPDEST DUP1 PUSH4 0x81C162F2 EQ PUSH2 0x722 JUMPI DUP1 PUSH4 0x8456CB59 EQ PUSH2 0x737 JUMPI DUP1 PUSH4 0x858E83B5 EQ PUSH2 0x74C JUMPI PUSH1 0x0 DUP1 REVERT JUMPDEST DUP1 PUSH4 0x42842E0E GT PUSH2 0x2CC JUMPI DUP1 PUSH4 0x6C0360EB GT PUSH2 0x26A JUMPI DUP1 PUSH4 0x78231978 GT PUSH2 0x239 JUMPI DUP1 PUSH4 0x78231978 EQ PUSH2 0x6AC JUMPI DUP1 PUSH4 0x791A2519 EQ PUSH2 0x6C2 JUMPI DUP1 PUSH4 0x7B671780 EQ PUSH2 0x6E2 JUMPI DUP1 PUSH4 0x7CB64759 EQ PUSH2 0x702 JUMPI PUSH1 0x0 DUP1 REVERT JUMPDEST DUP1 PUSH4 0x6C0360EB EQ PUSH2 0x64D JUMPI DUP1 PUSH4 0x6CBB8985 EQ PUSH2 0x662 JUMPI DUP1 PUSH4 0x70A08231 EQ PUSH2 0x677 JUMPI DUP1 PUSH4 0x715018A6 EQ PUSH2 0x697 JUMPI PUSH1 0x0 DUP1 REVERT JUMPDEST DUP1 PUSH4 0x5C975ABB GT PUSH2 0x2A6 JUMPI DUP1 PUSH4 0x5C975ABB EQ PUSH2 0x5CD JUMPI DUP1 PUSH4 0x61869A93 EQ PUSH2 0x5E5 JUMPI DUP1 PUSH4 0x622E4E78 EQ PUSH2 0x60D JUMPI DUP1 PUSH4 0x6352211E EQ PUSH2 0x62D JUMPI PUSH1 0x0 DUP1 REVERT JUMPDEST DUP1 PUSH4 0x42842E0E EQ PUSH2 0x56D JUMPI DUP1 PUSH4 0x42966C68 EQ PUSH2 0x58D JUMPI DUP1 PUSH4 0x55F804B3 EQ PUSH2 0x5AD JUMPI PUSH1 0x0 DUP1 REVERT JUMPDEST DUP1 PUSH4 0x20841A6A GT PUSH2 0x344 JUMPI DUP1 PUSH4 0x372F657C GT PUSH2 0x313 JUMPI DUP1 PUSH4 0x372F657C EQ PUSH2 0x51D JUMPI DUP1 PUSH4 0x3C795047 EQ PUSH2 0x530 JUMPI DUP1 PUSH4 0x3CCFD60B EQ PUSH2 0x550 JUMPI DUP1 PUSH4 0x3F4BA83A EQ PUSH2 0x558 JUMPI PUSH1 0x0 DUP1 REVERT JUMPDEST DUP1 PUSH4 0x20841A6A EQ PUSH2 0x4B1 JUMPI DUP1 PUSH4 0x23B872DD EQ PUSH2 0x4D1 JUMPI DUP1 PUSH4 0x2EB4A7AB EQ PUSH2 0x4F1 JUMPI DUP1 PUSH4 0x33E61413 EQ PUSH2 0x507 JUMPI PUSH1 0x0 DUP1 REVERT JUMPDEST DUP1 PUSH4 0x88139A6 GT PUSH2 0x380 JUMPI DUP1 PUSH4 0x88139A6 EQ PUSH2 0x436 JUMPI DUP1 PUSH4 0x95EA7B3 EQ PUSH2 0x45A JUMPI DUP1 PUSH4 0x10969523 EQ PUSH2 0x47C JUMPI DUP1 PUSH4 0x18160DDD EQ PUSH2 0x49C JUMPI PUSH1 0x0 DUP1 REVERT JUMPDEST DUP1 PUSH4 0x1FFC9A7 EQ PUSH2 0x3A7 JUMPI DUP1 PUSH4 0x6FDDE03 EQ PUSH2 0x3DC JUMPI DUP1 PUSH4 0x81812FC EQ PUSH2 0x3FE JUMPI JUMPDEST PUSH1 0x0 DUP1 REVERT JUMPDEST CALLVALUE DUP1 ISZERO PUSH2 0x3B3 JUMPI PUSH1 0x0 DUP1 REVERT JUMPDEST POP PUSH2 0x3C7 PUSH2 0x3C2 CALLDATASIZE PUSH1 0x4 PUSH2 0x32A8 JUMP JUMPDEST PUSH2 0xAB9 JUMP JUMPDEST PUSH1 0x40 MLOAD SWAP1 ISZERO ISZERO DUP2 MSTORE PUSH1 0x20 ADD JUMPDEST PUSH1 0x40 MLOAD DUP1 SWAP2 SUB SWAP1 RETURN JUMPDEST CALLVALUE DUP1 ISZERO PUSH2 0x3E8 JUMPI PUSH1 0x0 DUP1 REVERT JUMPDEST POP PUSH2 0x3F1 PUSH2 0xB0B JUMP JUMPDEST PUSH1 0x40 MLOAD PUSH2 0x3D3 SWAP2 SWAP1 PUSH2 0x331D JUMP JUMPDEST CALLVALUE DUP1 ISZERO PUSH2 0x40A JUMPI PUSH1 0x0 DUP1 REVERT JUMPDEST POP PUSH2 0x41E PUSH2 0x419 CALLDATASIZE PUSH1 0x4 PUSH2 0x3330 JUMP JUMPDEST PUSH2 0xB9D JUMP JUMPDEST PUSH1 0x40 MLOAD PUSH1 0x1 PUSH1 0x1 PUSH1 0xA0 SHL SUB SWAP1 SWAP2 AND DUP2 MSTORE PUSH1 0x20 ADD PUSH2 0x3D3 JUMP JUMPDEST CALLVALUE DUP1 ISZERO PUSH2 0x442 JUMPI PUSH1 0x0 DUP1 REVERT JUMPDEST POP PUSH2 0x44C PUSH1 0x15 SLOAD DUP2 JUMP JUMPDEST PUSH1 0x40 MLOAD SWAP1 DUP2 MSTORE PUSH1 0x20 ADD PUSH2 0x3D3 JUMP JUMPDEST CALLVALUE DUP1 ISZERO PUSH2 0x466 JUMPI PUSH1 0x0 DUP1 REVERT JUMPDEST POP PUSH2 0x47A PUSH2 0x475 CALLDATASIZE PUSH1 0x4 PUSH2 0x3365 JUMP JUMPDEST PUSH2 0xC37 JUMP JUMPDEST STOP JUMPDEST CALLVALUE DUP1 ISZERO PUSH2 0x488 JUMPI PUSH1 0x0 DUP1 REVERT JUMPDEST POP PUSH2 0x47A PUSH2 0x497 CALLDATASIZE PUSH1 0x4 PUSH2 0x341B JUMP JUMPDEST PUSH2 0xD4D JUMP JUMPDEST CALLVALUE DUP1 ISZERO PUSH2 0x4A8 JUMPI PUSH1 0x0 DUP1 REVERT JUMPDEST POP PUSH2 0x44C PUSH2 0xE4F JUMP JUMPDEST CALLVALUE DUP1 ISZERO PUSH2 0x4BD JUMPI PUSH1 0x0 DUP1 REVERT JUMPDEST POP PUSH2 0x47A PUSH2 0x4CC CALLDATASIZE PUSH1 0x4 PUSH2 0x3330 JUMP JUMPDEST PUSH2 0xE6B JUMP JUMPDEST CALLVALUE DUP1 ISZERO PUSH2 0x4DD JUMPI PUSH1 0x0 DUP1 REVERT JUMPDEST POP PUSH2 0x47A PUSH2 0x4EC CALLDATASIZE PUSH1 0x4 PUSH2 0x3464 JUMP JUMPDEST PUSH2 0xEA0 JUMP JUMPDEST CALLVALUE DUP1 ISZERO PUSH2 0x4FD JUMPI PUSH1 0x0 DUP1 REVERT JUMPDEST POP PUSH2 0x44C PUSH1 0x9 SLOAD DUP2 JUMP JUMPDEST CALLVALUE DUP1 ISZERO PUSH2 0x513 JUMPI PUSH1 0x0 DUP1 REVERT JUMPDEST POP PUSH2 0x44C PUSH1 0x12 SLOAD DUP2 JUMP JUMPDEST PUSH2 0x47A PUSH2 0x52B CALLDATASIZE PUSH1 0x4 PUSH2 0x34A0 JUMP JUMPDEST PUSH2 0xED2 JUMP JUMPDEST CALLVALUE DUP1 ISZERO PUSH2 0x53C JUMPI PUSH1 0x0 DUP1 REVERT JUMPDEST POP PUSH1 0xF SLOAD PUSH2 0x41E SWAP1 PUSH1 0x1 PUSH1 0x1 PUSH1 0xA0 SHL SUB AND DUP2 JUMP JUMPDEST PUSH2 0x47A PUSH2 0x122B JUMP JUMPDEST CALLVALUE DUP1 ISZERO PUSH2 0x564 JUMPI PUSH1 0x0 DUP1 REVERT JUMPDEST POP PUSH2 0x47A PUSH2 0x15EE JUMP JUMPDEST CALLVALUE DUP1 ISZERO PUSH2 0x579 JUMPI PUSH1 0x0 DUP1 REVERT JUMPDEST POP PUSH2 0x47A PUSH2 0x588 CALLDATASIZE PUSH1 0x4 PUSH2 0x3464 JUMP JUMPDEST PUSH2 0x1628 JUMP JUMPDEST CALLVALUE DUP1 ISZERO PUSH2 0x599 JUMPI PUSH1 0x0 DUP1 REVERT JUMPDEST POP PUSH2 0x47A PUSH2 0x5A8 CALLDATASIZE PUSH1 0x4 PUSH2 0x3330 JUMP JUMPDEST PUSH2 0x1643 JUMP JUMPDEST CALLVALUE DUP1 ISZERO PUSH2 0x5B9 JUMPI PUSH1 0x0 DUP1 REVERT JUMPDEST POP PUSH2 0x47A PUSH2 0x5C8 CALLDATASIZE PUSH1 0x4 PUSH2 0x341B JUMP JUMPDEST PUSH2 0x16BD JUMP JUMPDEST CALLVALUE DUP1 ISZERO PUSH2 0x5D9 JUMPI PUSH1 0x0 DUP1 REVERT JUMPDEST POP PUSH1 0x6 SLOAD PUSH1 0xFF AND PUSH2 0x3C7 JUMP JUMPDEST CALLVALUE DUP1 ISZERO PUSH2 0x5F1 JUMPI PUSH1 0x0 DUP1 REVERT JUMPDEST POP PUSH1 0xD SLOAD PUSH2 0x41E SWAP1 PUSH5 0x100000000 SWAP1 DIV PUSH1 0x1 PUSH1 0x1 PUSH1 0xA0 SHL SUB AND DUP2 JUMP JUMPDEST CALLVALUE DUP1 ISZERO PUSH2 0x619 JUMPI PUSH1 0x0 DUP1 REVERT JUMPDEST POP PUSH2 0x47A PUSH2 0x628 CALLDATASIZE PUSH1 0x4 PUSH2 0x3526 JUMP JUMPDEST PUSH2 0x174E JUMP JUMPDEST CALLVALUE DUP1 ISZERO PUSH2 0x639 JUMPI PUSH1 0x0 DUP1 REVERT JUMPDEST POP PUSH2 0x41E PUSH2 0x648 CALLDATASIZE PUSH1 0x4 PUSH2 0x3330 JUMP JUMPDEST PUSH2 0x179A JUMP JUMPDEST CALLVALUE DUP1 ISZERO PUSH2 0x659 JUMPI PUSH1 0x0 DUP1 REVERT JUMPDEST POP PUSH2 0x3F1 PUSH2 0x1811 JUMP JUMPDEST CALLVALUE DUP1 ISZERO PUSH2 0x66E JUMPI PUSH1 0x0 DUP1 REVERT JUMPDEST POP PUSH2 0x41E PUSH2 0x189F JUMP JUMPDEST CALLVALUE DUP1 ISZERO PUSH2 0x683 JUMPI PUSH1 0x0 DUP1 REVERT JUMPDEST POP PUSH2 0x44C PUSH2 0x692 CALLDATASIZE PUSH1 0x4 PUSH2 0x3541 JUMP JUMPDEST PUSH2 0x18FB JUMP JUMPDEST CALLVALUE DUP1 ISZERO PUSH2 0x6A3 JUMPI PUSH1 0x0 DUP1 REVERT JUMPDEST POP PUSH2 0x47A PUSH2 0x1982 JUMP JUMPDEST CALLVALUE DUP1 ISZERO PUSH2 0x6B8 JUMPI PUSH1 0x0 DUP1 REVERT JUMPDEST POP PUSH2 0x44C PUSH1 0x16 SLOAD DUP2 JUMP JUMPDEST CALLVALUE DUP1 ISZERO PUSH2 0x6CE JUMPI PUSH1 0x0 DUP1 REVERT JUMPDEST POP PUSH2 0x47A PUSH2 0x6DD CALLDATASIZE PUSH1 0x4 PUSH2 0x3330 JUMP JUMPDEST PUSH2 0x19BC JUMP JUMPDEST CALLVALUE DUP1 ISZERO PUSH2 0x6EE JUMPI PUSH1 0x0 DUP1 REVERT JUMPDEST POP PUSH2 0x47A PUSH2 0x6FD CALLDATASIZE PUSH1 0x4 PUSH2 0x3526 JUMP JUMPDEST PUSH2 0x19F1 JUMP JUMPDEST CALLVALUE DUP1 ISZERO PUSH2 0x70E JUMPI PUSH1 0x0 DUP1 REVERT JUMPDEST POP PUSH2 0x47A PUSH2 0x71D CALLDATASIZE PUSH1 0x4 PUSH2 0x3330 JUMP JUMPDEST PUSH2 0x1B3F JUMP JUMPDEST CALLVALUE DUP1 ISZERO PUSH2 0x72E JUMPI PUSH1 0x0 DUP1 REVERT JUMPDEST POP PUSH2 0x47A PUSH2 0x1B74 JUMP JUMPDEST CALLVALUE DUP1 ISZERO PUSH2 0x743 JUMPI PUSH1 0x0 DUP1 REVERT JUMPDEST POP PUSH2 0x47A PUSH2 0x1C7C JUMP JUMPDEST PUSH2 0x47A PUSH2 0x75A CALLDATASIZE PUSH1 0x4 PUSH2 0x3526 JUMP JUMPDEST PUSH2 0x1CB4 JUMP JUMPDEST CALLVALUE DUP1 ISZERO PUSH2 0x76B JUMPI PUSH1 0x0 DUP1 REVERT JUMPDEST POP PUSH1 0x6 SLOAD PUSH2 0x100 SWAP1 DIV PUSH1 0x1 PUSH1 0x1 PUSH1 0xA0 SHL SUB AND PUSH2 0x41E JUMP JUMPDEST CALLVALUE DUP1 ISZERO PUSH2 0x78E JUMPI PUSH1 0x0 DUP1 REVERT JUMPDEST POP PUSH2 0x3F1 PUSH2 0x1FB8 JUMP JUMPDEST CALLVALUE DUP1 ISZERO PUSH2 0x7A3 JUMPI PUSH1 0x0 DUP1 REVERT JUMPDEST POP PUSH1 0xD SLOAD PUSH2 0x3C7 SWAP1 PUSH4 0x1000000 SWAP1 DIV PUSH1 0xFF AND DUP2 JUMP JUMPDEST CALLVALUE DUP1 ISZERO PUSH2 0x7C4 JUMPI PUSH1 0x0 DUP1 REVERT JUMPDEST POP PUSH2 0x47A PUSH2 0x7D3 CALLDATASIZE PUSH1 0x4 PUSH2 0x355C JUMP JUMPDEST PUSH2 0x1FC7 JUMP JUMPDEST CALLVALUE DUP1 ISZERO PUSH2 0x7E4 JUMPI PUSH1 0x0 DUP1 REVERT JUMPDEST POP PUSH1 0xE SLOAD PUSH2 0x41E SWAP1 PUSH1 0x1 PUSH1 0x1 PUSH1 0xA0 SHL SUB AND DUP2 JUMP JUMPDEST CALLVALUE DUP1 ISZERO PUSH2 0x804 JUMPI PUSH1 0x0 DUP1 REVERT JUMPDEST POP PUSH2 0x47A PUSH2 0x813 CALLDATASIZE PUSH1 0x4 PUSH2 0x3598 JUMP JUMPDEST PUSH2 0x1FD2 JUMP JUMPDEST CALLVALUE DUP1 ISZERO PUSH2 0x824 JUMPI PUSH1 0x0 DUP1 REVERT JUMPDEST POP PUSH2 0x47A PUSH2 0x833 CALLDATASIZE PUSH1 0x4 PUSH2 0x35CB JUMP JUMPDEST PUSH2 0x2117 JUMP JUMPDEST CALLVALUE DUP1 ISZERO PUSH2 0x844 JUMPI PUSH1 0x0 DUP1 REVERT JUMPDEST POP PUSH2 0x47A PUSH2 0x853 CALLDATASIZE PUSH1 0x4 PUSH2 0x3541 JUMP JUMPDEST PUSH2 0x214F JUMP JUMPDEST CALLVALUE DUP1 ISZERO PUSH2 0x864 JUMPI PUSH1 0x0 DUP1 REVERT JUMPDEST POP PUSH1 0xD SLOAD PUSH2 0x3C7 SWAP1 PUSH3 0x10000 SWAP1 DIV PUSH1 0xFF AND DUP2 JUMP JUMPDEST CALLVALUE DUP1 ISZERO PUSH2 0x884 JUMPI PUSH1 0x0 DUP1 REVERT JUMPDEST POP PUSH2 0x44C PUSH1 0x14 SLOAD DUP2 JUMP JUMPDEST CALLVALUE DUP1 ISZERO PUSH2 0x89A JUMPI PUSH1 0x0 DUP1 REVERT JUMPDEST POP PUSH2 0x3F1 PUSH2 0x21A3 JUMP JUMPDEST CALLVALUE DUP1 ISZERO PUSH2 0x8AF JUMPI PUSH1 0x0 DUP1 REVERT JUMPDEST POP PUSH2 0x3F1 PUSH2 0x21B0 JUMP JUMPDEST CALLVALUE DUP1 ISZERO PUSH2 0x8C4 JUMPI PUSH1 0x0 DUP1 REVERT JUMPDEST POP PUSH2 0x3F1 PUSH2 0x8D3 CALLDATASIZE PUSH1 0x4 PUSH2 0x3330 JUMP JUMPDEST PUSH2 0x21BD JUMP JUMPDEST CALLVALUE DUP1 ISZERO PUSH2 0x8E4 JUMPI PUSH1 0x0 DUP1 REVERT JUMPDEST POP PUSH2 0x3C7 PUSH2 0x8F3 CALLDATASIZE PUSH1 0x4 PUSH2 0x3541 JUMP JUMPDEST PUSH1 0x13 PUSH1 0x20 MSTORE PUSH1 0x0 SWAP1 DUP2 MSTORE PUSH1 0x40 SWAP1 KECCAK256 SLOAD PUSH1 0xFF AND DUP2 JUMP JUMPDEST CALLVALUE DUP1 ISZERO PUSH2 0x914 JUMPI PUSH1 0x0 DUP1 REVERT JUMPDEST POP PUSH2 0x47A PUSH2 0x2271 JUMP JUMPDEST CALLVALUE DUP1 ISZERO PUSH2 0x929 JUMPI PUSH1 0x0 DUP1 REVERT JUMPDEST POP PUSH1 0x10 SLOAD PUSH2 0x41E SWAP1 PUSH1 0x1 PUSH1 0x1 PUSH1 0xA0 SHL SUB AND DUP2 JUMP JUMPDEST CALLVALUE DUP1 ISZERO PUSH2 0x949 JUMPI PUSH1 0x0 DUP1 REVERT JUMPDEST POP PUSH2 0x44C PUSH2 0x2317 JUMP JUMPDEST CALLVALUE DUP1 ISZERO PUSH2 0x95E JUMPI PUSH1 0x0 DUP1 REVERT JUMPDEST POP PUSH2 0x47A PUSH2 0x96D CALLDATASIZE PUSH1 0x4 PUSH2 0x341B JUMP JUMPDEST PUSH2 0x2370 JUMP JUMPDEST CALLVALUE DUP1 ISZERO PUSH2 0x97E JUMPI PUSH1 0x0 DUP1 REVERT JUMPDEST POP PUSH1 0x11 SLOAD PUSH2 0x41E SWAP1 PUSH1 0x1 PUSH1 0x1 PUSH1 0xA0 SHL SUB AND DUP2 JUMP JUMPDEST CALLVALUE DUP1 ISZERO PUSH2 0x99E JUMPI PUSH1 0x0 DUP1 REVERT JUMPDEST POP PUSH2 0x44C PUSH2 0x23B3 JUMP JUMPDEST CALLVALUE DUP1 ISZERO PUSH2 0x9B3 JUMPI PUSH1 0x0 DUP1 REVERT JUMPDEST POP PUSH1 0xD SLOAD PUSH2 0x9C6 SWAP1 PUSH2 0x100 SWAP1 DIV PUSH1 0xFF AND DUP2 JUMP JUMPDEST PUSH1 0x40 MLOAD PUSH1 0xFF SWAP1 SWAP2 AND DUP2 MSTORE PUSH1 0x20 ADD PUSH2 0x3D3 JUMP JUMPDEST CALLVALUE DUP1 ISZERO PUSH2 0x9E4 JUMPI PUSH1 0x0 DUP1 REVERT JUMPDEST POP PUSH2 0x47A PUSH2 0x23CA JUMP JUMPDEST CALLVALUE DUP1 ISZERO PUSH2 0x9F9 JUMPI PUSH1 0x0 DUP1 REVERT JUMPDEST POP PUSH2 0x3C7 PUSH2 0xA08 CALLDATASIZE PUSH1 0x4 PUSH2 0x3647 JUMP JUMPDEST PUSH1 0x1 PUSH1 0x1 PUSH1 0xA0 SHL SUB SWAP2 DUP3 AND PUSH1 0x0 SWAP1 DUP2 MSTORE PUSH1 0x5 PUSH1 0x20 SWAP1 DUP2 MSTORE PUSH1 0x40 DUP1 DUP4 KECCAK256 SWAP4 SWAP1 SWAP5 AND DUP3 MSTORE SWAP2 SWAP1 SWAP2 MSTORE KECCAK256 SLOAD PUSH1 0xFF AND SWAP1 JUMP JUMPDEST CALLVALUE DUP1 ISZERO PUSH2 0xA42 JUMPI PUSH1 0x0 DUP1 REVERT JUMPDEST POP PUSH2 0x47A PUSH2 0xA51 CALLDATASIZE PUSH1 0x4 PUSH2 0x3663 JUMP JUMPDEST PUSH2 0x24C4 JUMP JUMPDEST CALLVALUE DUP1 ISZERO PUSH2 0xA62 JUMPI PUSH1 0x0 DUP1 REVERT JUMPDEST POP PUSH2 0x47A PUSH2 0x2563 JUMP JUMPDEST CALLVALUE DUP1 ISZERO PUSH2 0xA77 JUMPI PUSH1 0x0 DUP1 REVERT JUMPDEST POP PUSH2 0x47A PUSH2 0xA86 CALLDATASIZE PUSH1 0x4 PUSH2 0x3541 JUMP JUMPDEST PUSH2 0x2706 JUMP JUMPDEST CALLVALUE DUP1 ISZERO PUSH2 0xA97 JUMPI PUSH1 0x0 DUP1 REVERT JUMPDEST POP PUSH2 0x44C PUSH1 0x17 SLOAD DUP2 JUMP JUMPDEST CALLVALUE DUP1 ISZERO PUSH2 0xAAD JUMPI PUSH1 0x0 DUP1 REVERT JUMPDEST POP PUSH1 0xD SLOAD PUSH1 0xFF AND PUSH2 0x9C6 JUMP JUMPDEST PUSH1 0x0 PUSH1 0x1 PUSH1 0x1 PUSH1 0xE0 SHL SUB NOT DUP3 AND PUSH4 0x80AC58CD PUSH1 0xE0 SHL EQ DUP1 PUSH2 0xAEA JUMPI POP PUSH1 0x1 PUSH1 0x1 PUSH1 0xE0 SHL SUB NOT DUP3 AND PUSH4 0x5B5E139F PUSH1 0xE0 SHL EQ JUMPDEST DUP1 PUSH2 0xB05 JUMPI POP PUSH4 0x1FFC9A7 PUSH1 0xE0 SHL PUSH1 0x1 PUSH1 0x1 PUSH1 0xE0 SHL SUB NOT DUP4 AND EQ JUMPDEST SWAP3 SWAP2 POP POP JUMP JUMPDEST PUSH1 0x60 PUSH1 0x0 DUP1 SLOAD PUSH2 0xB1A SWAP1 PUSH2 0x36C8 JUMP JUMPDEST DUP1 PUSH1 0x1F ADD PUSH1 0x20 DUP1 SWAP2 DIV MUL PUSH1 0x20 ADD PUSH1 0x40 MLOAD SWAP1 DUP2 ADD PUSH1 0x40 MSTORE DUP1 SWAP3 SWAP2 SWAP1 DUP2 DUP2 MSTORE PUSH1 0x20 ADD DUP3 DUP1 SLOAD PUSH2 0xB46 SWAP1 PUSH2 0x36C8 JUMP JUMPDEST DUP1 ISZERO PUSH2 0xB93 JUMPI DUP1 PUSH1 0x1F LT PUSH2 0xB68 JUMPI PUSH2 0x100 DUP1 DUP4 SLOAD DIV MUL DUP4 MSTORE SWAP2 PUSH1 0x20 ADD SWAP2 PUSH2 0xB93 JUMP JUMPDEST DUP3 ADD SWAP2 SWAP1 PUSH1 0x0 MSTORE PUSH1 0x20 PUSH1 0x0 KECCAK256 SWAP1 JUMPDEST DUP2 SLOAD DUP2 MSTORE SWAP1 PUSH1 0x1 ADD SWAP1 PUSH1 0x20 ADD DUP1 DUP4 GT PUSH2 0xB76 JUMPI DUP3 SWAP1 SUB PUSH1 0x1F AND DUP3 ADD SWAP2 JUMPDEST POP POP POP POP POP SWAP1 POP SWAP1 JUMP JUMPDEST PUSH1 0x0 DUP2 DUP2 MSTORE PUSH1 0x2 PUSH1 0x20 MSTORE PUSH1 0x40 DUP2 KECCAK256 SLOAD PUSH1 0x1 PUSH1 0x1 PUSH1 0xA0 SHL SUB AND PUSH2 0xC1B JUMPI PUSH1 0x40 MLOAD PUSH3 0x461BCD PUSH1 0xE5 SHL DUP2 MSTORE PUSH1 0x20 PUSH1 0x4 DUP3 ADD MSTORE PUSH1 0x2C PUSH1 0x24 DUP3 ADD MSTORE PUSH32 0x4552433732313A20617070726F76656420717565727920666F72206E6F6E6578 PUSH1 0x44 DUP3 ADD MSTORE PUSH12 0x34B9BA32B73A103A37B5B2B7 PUSH1 0xA1 SHL PUSH1 0x64 DUP3 ADD MSTORE PUSH1 0x84 ADD JUMPDEST PUSH1 0x40 MLOAD DUP1 SWAP2 SUB SWAP1 REVERT JUMPDEST POP PUSH1 0x0 SWAP1 DUP2 MSTORE PUSH1 0x4 PUSH1 0x20 MSTORE PUSH1 0x40 SWAP1 KECCAK256 SLOAD PUSH1 0x1 PUSH1 0x1 PUSH1 0xA0 SHL SUB AND SWAP1 JUMP JUMPDEST PUSH1 0x0 PUSH2 0xC42 DUP3 PUSH2 0x179A JUMP JUMPDEST SWAP1 POP DUP1 PUSH1 0x1 PUSH1 0x1 PUSH1 0xA0 SHL SUB AND DUP4 PUSH1 0x1 PUSH1 0x1 PUSH1 0xA0 SHL SUB AND EQ ISZERO PUSH2 0xCB0 JUMPI PUSH1 0x40 MLOAD PUSH3 0x461BCD PUSH1 0xE5 SHL DUP2 MSTORE PUSH1 0x20 PUSH1 0x4 DUP3 ADD MSTORE PUSH1 0x21 PUSH1 0x24 DUP3 ADD MSTORE PUSH32 0x4552433732313A20617070726F76616C20746F2063757272656E74206F776E65 PUSH1 0x44 DUP3 ADD MSTORE PUSH1 0x39 PUSH1 0xF9 SHL PUSH1 0x64 DUP3 ADD MSTORE PUSH1 0x84 ADD PUSH2 0xC12 JUMP JUMPDEST CALLER PUSH1 0x1 PUSH1 0x1 PUSH1 0xA0 SHL SUB DUP3 AND EQ DUP1 PUSH2 0xCCC JUMPI POP PUSH2 0xCCC DUP2 CALLER PUSH2 0xA08 JUMP JUMPDEST PUSH2 0xD3E JUMPI PUSH1 0x40 MLOAD PUSH3 0x461BCD PUSH1 0xE5 SHL DUP2 MSTORE PUSH1 0x20 PUSH1 0x4 DUP3 ADD MSTORE PUSH1 0x38 PUSH1 0x24 DUP3 ADD MSTORE PUSH32 0x4552433732313A20617070726F76652063616C6C6572206973206E6F74206F77 PUSH1 0x44 DUP3 ADD MSTORE PUSH32 0x6E6572206E6F7220617070726F76656420666F7220616C6C0000000000000000 PUSH1 0x64 DUP3 ADD MSTORE PUSH1 0x84 ADD PUSH2 0xC12 JUMP JUMPDEST PUSH2 0xD48 DUP4 DUP4 PUSH2 0x27AD JUMP JUMPDEST POP POP POP JUMP JUMPDEST PUSH1 0x6 SLOAD PUSH1 0x1 PUSH1 0x1 PUSH1 0xA0 SHL SUB PUSH2 0x100 SWAP1 SWAP2 DIV AND CALLER EQ PUSH2 0xD7D JUMPI PUSH1 0x40 MLOAD PUSH3 0x461BCD PUSH1 0xE5 SHL DUP2 MSTORE PUSH1 0x4 ADD PUSH2 0xC12 SWAP1 PUSH2 0x3703 JUMP JUMPDEST PUSH1 0x0 DUP2 MLOAD GT PUSH2 0xDDE JUMPI PUSH1 0x40 MLOAD PUSH3 0x461BCD PUSH1 0xE5 SHL DUP2 MSTORE PUSH1 0x20 PUSH1 0x4 DUP3 ADD MSTORE PUSH1 0x27 PUSH1 0x24 DUP3 ADD MSTORE PUSH32 0x50726F76656E616E636520686173682063616E6E6F7420626520656D70747920 PUSH1 0x44 DUP3 ADD MSTORE PUSH7 0x39BA3934B73397 PUSH1 0xC9 SHL PUSH1 0x64 DUP3 ADD MSTORE PUSH1 0x84 ADD PUSH2 0xC12 JUMP JUMPDEST PUSH1 0xD SLOAD PUSH4 0x1000000 SWAP1 DIV PUSH1 0xFF AND ISZERO PUSH2 0xE38 JUMPI PUSH1 0x40 MLOAD PUSH3 0x461BCD PUSH1 0xE5 SHL DUP2 MSTORE PUSH1 0x20 PUSH1 0x4 DUP3 ADD MSTORE PUSH1 0x1A PUSH1 0x24 DUP3 ADD MSTORE PUSH32 0x50726F76656E616E636520686173682069732066726F7A656E2E000000000000 PUSH1 0x44 DUP3 ADD MSTORE PUSH1 0x64 ADD PUSH2 0xC12 JUMP JUMPDEST DUP1 MLOAD PUSH2 0xE4B SWAP1 PUSH1 0xA SWAP1 PUSH1 0x20 DUP5 ADD SWAP1 PUSH2 0x31F9 JUMP JUMPDEST POP POP JUMP JUMPDEST PUSH1 0x0 PUSH1 0x1 PUSH2 0xE5C PUSH1 0x8 SLOAD SWAP1 JUMP JUMPDEST PUSH2 0xE66 SWAP2 SWAP1 PUSH2 0x374E JUMP JUMPDEST SWAP1 POP SWAP1 JUMP JUMPDEST PUSH1 0x6 SLOAD PUSH1 0x1 PUSH1 0x1 PUSH1 0xA0 SHL SUB PUSH2 0x100 SWAP1 SWAP2 DIV AND CALLER EQ PUSH2 0xE9B JUMPI PUSH1 0x40 MLOAD PUSH3 0x461BCD PUSH1 0xE5 SHL DUP2 MSTORE PUSH1 0x4 ADD PUSH2 0xC12 SWAP1 PUSH2 0x3703 JUMP JUMPDEST PUSH1 0x14 SSTORE JUMP JUMPDEST PUSH2 0xEAB CALLER JUMPDEST DUP3 PUSH2 0x281B JUMP JUMPDEST PUSH2 0xEC7 JUMPI PUSH1 0x40 MLOAD PUSH3 0x461BCD PUSH1 0xE5 SHL DUP2 MSTORE PUSH1 0x4 ADD PUSH2 0xC12 SWAP1 PUSH2 0x3765 JUMP JUMPDEST PUSH2 0xD48 DUP4 DUP4 DUP4 PUSH2 0x2912 JUMP JUMPDEST DUP2 DUP2 PUSH1 0x9 SLOAD PUSH2 0xF49 DUP4 DUP4 DUP1 DUP1 PUSH1 0x20 MUL PUSH1 0x20 ADD PUSH1 0x40 MLOAD SWAP1 DUP2 ADD PUSH1 0x40 MSTORE DUP1 SWAP4 SWAP3 SWAP2 SWAP1 DUP2 DUP2 MSTORE PUSH1 0x20 ADD DUP4 DUP4 PUSH1 0x20 MUL DUP1 DUP3 DUP5 CALLDATACOPY PUSH1 0x0 SWAP3 ADD SWAP2 SWAP1 SWAP2 MSTORE POP POP PUSH1 0x40 MLOAD PUSH12 0xFFFFFFFFFFFFFFFFFFFFFFFF NOT CALLER PUSH1 0x60 SHL AND PUSH1 0x20 DUP3 ADD MSTORE DUP6 SWAP3 POP PUSH1 0x34 ADD SWAP1 POP PUSH1 0x40 MLOAD PUSH1 0x20 DUP2 DUP4 SUB SUB DUP2 MSTORE SWAP1 PUSH1 0x40 MSTORE DUP1 MLOAD SWAP1 PUSH1 0x20 ADD KECCAK256 PUSH2 0x2ABD JUMP JUMPDEST PUSH2 0xF95 JUMPI PUSH1 0x40 MLOAD PUSH3 0x461BCD PUSH1 0xE5 SHL DUP2 MSTORE PUSH1 0x20 PUSH1 0x4 DUP3 ADD MSTORE PUSH1 0x19 PUSH1 0x24 DUP3 ADD MSTORE PUSH32 0x41646472657373206E6F7420696E2077686974656C6973742E00000000000000 PUSH1 0x44 DUP3 ADD MSTORE PUSH1 0x64 ADD PUSH2 0xC12 JUMP JUMPDEST PUSH1 0x17 SLOAD PUSH1 0x1 CALLVALUE PUSH2 0xFA5 DUP3 DUP5 PUSH2 0x37B6 JUMP JUMPDEST EQ PUSH2 0xFEE JUMPI PUSH1 0x40 MLOAD PUSH3 0x461BCD PUSH1 0xE5 SHL DUP2 MSTORE PUSH1 0x20 PUSH1 0x4 DUP3 ADD MSTORE PUSH1 0x19 PUSH1 0x24 DUP3 ADD MSTORE PUSH25 0x24B731B7B93932B1BA1022AA24103B30B63AB29039B2B73A17 PUSH1 0x39 SHL PUSH1 0x44 DUP3 ADD MSTORE PUSH1 0x64 ADD PUSH2 0xC12 JUMP JUMPDEST ORIGIN CALLER EQ PUSH2 0x103D JUMPI PUSH1 0x40 MLOAD PUSH3 0x461BCD PUSH1 0xE5 SHL DUP2 MSTORE PUSH1 0x20 PUSH1 0x4 DUP3 ADD MSTORE PUSH1 0x1F PUSH1 0x24 DUP3 ADD MSTORE PUSH32 0x5468652063616C6C657220697320616E6F7468657220636F6E74726163742E00 PUSH1 0x44 DUP3 ADD MSTORE PUSH1 0x64 ADD PUSH2 0xC12 JUMP JUMPDEST PUSH1 0x2 PUSH1 0x7 SLOAD EQ ISZERO PUSH2 0x1090 JUMPI PUSH1 0x40 MLOAD PUSH3 0x461BCD PUSH1 0xE5 SHL DUP2 MSTORE PUSH1 0x20 PUSH1 0x4 DUP3 ADD MSTORE PUSH1 0x1F PUSH1 0x24 DUP3 ADD MSTORE PUSH32 0x5265656E7472616E637947756172643A207265656E7472616E742063616C6C00 PUSH1 0x44 DUP3 ADD MSTORE PUSH1 0x64 ADD PUSH2 0xC12 JUMP JUMPDEST PUSH1 0x2 PUSH1 0x7 SSTORE PUSH1 0x6 SLOAD PUSH1 0xFF AND ISZERO PUSH2 0x10B8 JUMPI PUSH1 0x40 MLOAD PUSH3 0x461BCD PUSH1 0xE5 SHL DUP2 MSTORE PUSH1 0x4 ADD PUSH2 0xC12 SWAP1 PUSH2 0x37D5 JUMP JUMPDEST PUSH1 0xD SLOAD PUSH1 0xFF AND PUSH1 0x2 EQ PUSH2 0x110D JUMPI PUSH1 0x40 MLOAD PUSH3 0x461BCD PUSH1 0xE5 SHL DUP2 MSTORE PUSH1 0x20 PUSH1 0x4 DUP3 ADD DUP2 SWAP1 MSTORE PUSH1 0x24 DUP3 ADD MSTORE PUSH32 0x57686974656C697374206D696E74696E67206E6F7420696E697469617465642E PUSH1 0x44 DUP3 ADD MSTORE PUSH1 0x64 ADD PUSH2 0xC12 JUMP JUMPDEST CALLER PUSH1 0x0 SWAP1 DUP2 MSTORE PUSH1 0x13 PUSH1 0x20 MSTORE PUSH1 0x40 SWAP1 KECCAK256 SLOAD PUSH1 0xFF AND ISZERO PUSH2 0x116D JUMPI PUSH1 0x40 MLOAD PUSH3 0x461BCD PUSH1 0xE5 SHL DUP2 MSTORE PUSH1 0x20 PUSH1 0x4 DUP3 ADD MSTORE PUSH1 0x1F PUSH1 0x24 DUP3 ADD MSTORE PUSH32 0x57686974656C697374206D696E7420616C726561647920636C61696D65642E00 PUSH1 0x44 DUP3 ADD MSTORE PUSH1 0x64 ADD PUSH2 0xC12 JUMP JUMPDEST PUSH1 0x12 SLOAD PUSH2 0x1178 PUSH2 0xE4F JUMP JUMPDEST PUSH2 0x1183 SWAP1 PUSH1 0x1 PUSH2 0x37FF JUMP JUMPDEST GT ISZERO PUSH2 0x11E3 JUMPI PUSH1 0x40 MLOAD PUSH3 0x461BCD PUSH1 0xE5 SHL DUP2 MSTORE PUSH1 0x20 PUSH1 0x4 DUP3 ADD MSTORE PUSH1 0x29 PUSH1 0x24 DUP3 ADD MSTORE PUSH32 0x4D696E7420616D6F756E742077696C6C206578636565642077686974656C6973 PUSH1 0x44 DUP3 ADD MSTORE PUSH9 0x3A1039BAB838363C97 PUSH1 0xB9 SHL PUSH1 0x64 DUP3 ADD MSTORE PUSH1 0x84 ADD PUSH2 0xC12 JUMP JUMPDEST CALLER PUSH1 0x0 DUP2 DUP2 MSTORE PUSH1 0x13 PUSH1 0x20 MSTORE PUSH1 0x40 SWAP1 KECCAK256 DUP1 SLOAD PUSH1 0xFF NOT AND PUSH1 0x1 OR SWAP1 SSTORE PUSH2 0x120F SWAP1 PUSH2 0x120A PUSH1 0x8 SLOAD SWAP1 JUMP JUMPDEST PUSH2 0x2AD3 JUMP JUMPDEST PUSH2 0x121D PUSH1 0x8 DUP1 SLOAD PUSH1 0x1 ADD SWAP1 SSTORE JUMP JUMPDEST POP POP PUSH1 0x1 PUSH1 0x7 SSTORE POP POP POP POP POP JUMP JUMPDEST PUSH1 0x6 SLOAD PUSH1 0x1 PUSH1 0x1 PUSH1 0xA0 SHL SUB PUSH2 0x100 SWAP1 SWAP2 DIV AND CALLER EQ PUSH2 0x125B JUMPI PUSH1 0x40 MLOAD PUSH3 0x461BCD PUSH1 0xE5 SHL DUP2 MSTORE PUSH1 0x4 ADD PUSH2 0xC12 SWAP1 PUSH2 0x3703 JUMP JUMPDEST PUSH1 0x0 SELFBALANCE GT PUSH2 0x12A4 JUMPI PUSH1 0x40 MLOAD PUSH3 0x461BCD PUSH1 0xE5 SHL DUP2 MSTORE PUSH1 0x20 PUSH1 0x4 DUP3 ADD MSTORE PUSH1 0x16 PUSH1 0x24 DUP3 ADD MSTORE PUSH22 0x21B7B73A3930B1BA103130B630B731B29034B9901817 PUSH1 0x51 SHL PUSH1 0x44 DUP3 ADD MSTORE PUSH1 0x64 ADD PUSH2 0xC12 JUMP JUMPDEST PUSH1 0xD SLOAD PUSH1 0x0 SWAP1 PUSH5 0x100000000 SWAP1 DIV PUSH1 0x1 PUSH1 0x1 PUSH1 0xA0 SHL SUB AND PUSH2 0x12D3 PUSH2 0x3E8 PUSH2 0x12CD SELFBALANCE PUSH2 0x2BC PUSH2 0x2C21 JUMP JUMPDEST SWAP1 PUSH2 0x2C34 JUMP JUMPDEST PUSH1 0x40 MLOAD PUSH1 0x0 DUP2 DUP2 DUP2 DUP6 DUP8 GAS CALL SWAP3 POP POP POP RETURNDATASIZE DUP1 PUSH1 0x0 DUP2 EQ PUSH2 0x130F JUMPI PUSH1 0x40 MLOAD SWAP2 POP PUSH1 0x1F NOT PUSH1 0x3F RETURNDATASIZE ADD AND DUP3 ADD PUSH1 0x40 MSTORE RETURNDATASIZE DUP3 MSTORE RETURNDATASIZE PUSH1 0x0 PUSH1 0x20 DUP5 ADD RETURNDATACOPY PUSH2 0x1314 JUMP JUMPDEST PUSH1 0x60 SWAP2 POP JUMPDEST POP POP SWAP1 POP DUP1 PUSH2 0x135A JUMPI PUSH1 0x40 MLOAD PUSH3 0x461BCD PUSH1 0xE5 SHL DUP2 MSTORE PUSH1 0x20 PUSH1 0x4 DUP3 ADD MSTORE PUSH1 0x12 PUSH1 0x24 DUP3 ADD MSTORE PUSH18 0x1DDA5D1A191C985DDB080C4819985A5B1959 PUSH1 0x72 SHL PUSH1 0x44 DUP3 ADD MSTORE PUSH1 0x64 ADD PUSH2 0xC12 JUMP JUMPDEST PUSH1 0xE SLOAD PUSH1 0x0 SWAP1 PUSH1 0x1 PUSH1 0x1 PUSH1 0xA0 SHL SUB AND PUSH2 0x137A PUSH2 0x3E8 PUSH2 0x12CD SELFBALANCE PUSH1 0x69 PUSH2 0x2C21 JUMP JUMPDEST PUSH1 0x40 MLOAD PUSH1 0x0 DUP2 DUP2 DUP2 DUP6 DUP8 GAS CALL SWAP3 POP POP POP RETURNDATASIZE DUP1 PUSH1 0x0 DUP2 EQ PUSH2 0x13B6 JUMPI PUSH1 0x40 MLOAD SWAP2 POP PUSH1 0x1F NOT PUSH1 0x3F RETURNDATASIZE ADD AND DUP3 ADD PUSH1 0x40 MSTORE RETURNDATASIZE DUP3 MSTORE RETURNDATASIZE PUSH1 0x0 PUSH1 0x20 DUP5 ADD RETURNDATACOPY PUSH2 0x13BB JUMP JUMPDEST PUSH1 0x60 SWAP2 POP JUMPDEST POP POP SWAP1 POP DUP1 PUSH2 0x1401 JUMPI PUSH1 0x40 MLOAD PUSH3 0x461BCD PUSH1 0xE5 SHL DUP2 MSTORE PUSH1 0x20 PUSH1 0x4 DUP3 ADD MSTORE PUSH1 0x12 PUSH1 0x24 DUP3 ADD MSTORE PUSH18 0x1DDA5D1A191C985DDB080C8819985A5B1959 PUSH1 0x72 SHL PUSH1 0x44 DUP3 ADD MSTORE PUSH1 0x64 ADD PUSH2 0xC12 JUMP JUMPDEST PUSH1 0xF SLOAD PUSH1 0x0 SWAP1 PUSH1 0x1 PUSH1 0x1 PUSH1 0xA0 SHL SUB AND PUSH2 0x1421 PUSH2 0x3E8 PUSH2 0x12CD SELFBALANCE PUSH1 0x69 PUSH2 0x2C21 JUMP JUMPDEST PUSH1 0x40 MLOAD PUSH1 0x0 DUP2 DUP2 DUP2 DUP6 DUP8 GAS CALL SWAP3 POP POP POP RETURNDATASIZE DUP1 PUSH1 0x0 DUP2 EQ PUSH2 0x145D JUMPI PUSH1 0x40 MLOAD SWAP2 POP PUSH1 0x1F NOT PUSH1 0x3F RETURNDATASIZE ADD AND DUP3 ADD PUSH1 0x40 MSTORE RETURNDATASIZE DUP3 MSTORE RETURNDATASIZE PUSH1 0x0 PUSH1 0x20 DUP5 ADD RETURNDATACOPY PUSH2 0x1462 JUMP JUMPDEST PUSH1 0x60 SWAP2 POP JUMPDEST POP POP SWAP1 POP DUP1 PUSH2 0x14A8 JUMPI PUSH1 0x40 MLOAD PUSH3 0x461BCD PUSH1 0xE5 SHL DUP2 MSTORE PUSH1 0x20 PUSH1 0x4 DUP3 ADD MSTORE PUSH1 0x12 PUSH1 0x24 DUP3 ADD MSTORE PUSH18 0x1DDA5D1A191C985DDB080CC819985A5B1959 PUSH1 0x72 SHL PUSH1 0x44 DUP3 ADD MSTORE PUSH1 0x64 ADD PUSH2 0xC12 JUMP JUMPDEST PUSH1 0x10 SLOAD PUSH1 0x0 SWAP1 PUSH1 0x1 PUSH1 0x1 PUSH1 0xA0 SHL SUB AND PUSH2 0x14C8 PUSH2 0x3E8 PUSH2 0x12CD SELFBALANCE PUSH1 0x2D PUSH2 0x2C21 JUMP JUMPDEST PUSH1 0x40 MLOAD PUSH1 0x0 DUP2 DUP2 DUP2 DUP6 DUP8 GAS CALL SWAP3 POP POP POP RETURNDATASIZE DUP1 PUSH1 0x0 DUP2 EQ PUSH2 0x1504 JUMPI PUSH1 0x40 MLOAD SWAP2 POP PUSH1 0x1F NOT PUSH1 0x3F RETURNDATASIZE ADD AND DUP3 ADD PUSH1 0x40 MSTORE RETURNDATASIZE DUP3 MSTORE RETURNDATASIZE PUSH1 0x0 PUSH1 0x20 DUP5 ADD RETURNDATACOPY PUSH2 0x1509 JUMP JUMPDEST PUSH1 0x60 SWAP2 POP JUMPDEST POP POP SWAP1 POP DUP1 PUSH2 0x154F JUMPI PUSH1 0x40 MLOAD PUSH3 0x461BCD PUSH1 0xE5 SHL DUP2 MSTORE PUSH1 0x20 PUSH1 0x4 DUP3 ADD MSTORE PUSH1 0x12 PUSH1 0x24 DUP3 ADD MSTORE PUSH18 0x1DDA5D1A191C985DDB080D0819985A5B1959 PUSH1 0x72 SHL PUSH1 0x44 DUP3 ADD MSTORE PUSH1 0x64 ADD PUSH2 0xC12 JUMP JUMPDEST PUSH1 0x11 SLOAD PUSH1 0x40 MLOAD PUSH1 0x0 SWAP2 PUSH1 0x1 PUSH1 0x1 PUSH1 0xA0 SHL SUB AND SWAP1 SELFBALANCE SWAP1 DUP4 DUP2 DUP2 DUP2 DUP6 DUP8 GAS CALL SWAP3 POP POP POP RETURNDATASIZE DUP1 PUSH1 0x0 DUP2 EQ PUSH2 0x159C JUMPI PUSH1 0x40 MLOAD SWAP2 POP PUSH1 0x1F NOT PUSH1 0x3F RETURNDATASIZE ADD AND DUP3 ADD PUSH1 0x40 MSTORE RETURNDATASIZE DUP3 MSTORE RETURNDATASIZE PUSH1 0x0 PUSH1 0x20 DUP5 ADD RETURNDATACOPY PUSH2 0x15A1 JUMP JUMPDEST PUSH1 0x60 SWAP2 POP JUMPDEST POP POP SWAP1 POP DUP1 PUSH2 0x15E7 JUMPI PUSH1 0x40 MLOAD PUSH3 0x461BCD PUSH1 0xE5 SHL DUP2 MSTORE PUSH1 0x20 PUSH1 0x4 DUP3 ADD MSTORE PUSH1 0x12 PUSH1 0x24 DUP3 ADD MSTORE PUSH18 0x1DDA5D1A191C985DDB080D4819985A5B1959 PUSH1 0x72 SHL PUSH1 0x44 DUP3 ADD MSTORE PUSH1 0x64 ADD PUSH2 0xC12 JUMP JUMPDEST POP POP POP POP POP JUMP JUMPDEST PUSH1 0x6 SLOAD PUSH1 0x1 PUSH1 0x1 PUSH1 0xA0 SHL SUB PUSH2 0x100 SWAP1 SWAP2 DIV AND CALLER EQ PUSH2 0x161E JUMPI PUSH1 0x40 MLOAD PUSH3 0x461BCD PUSH1 0xE5 SHL DUP2 MSTORE PUSH1 0x4 ADD PUSH2 0xC12 SWAP1 PUSH2 0x3703 JUMP JUMPDEST PUSH2 0x1626 PUSH2 0x2C40 JUMP JUMPDEST JUMP JUMPDEST PUSH2 0xD48 DUP4 DUP4 DUP4 PUSH1 0x40 MLOAD DUP1 PUSH1 0x20 ADD PUSH1 0x40 MSTORE DUP1 PUSH1 0x0 DUP2 MSTORE POP PUSH2 0x2117 JUMP JUMPDEST PUSH2 0x164C CALLER PUSH2 0xEA5 JUMP JUMPDEST PUSH2 0x16B1 JUMPI PUSH1 0x40 MLOAD PUSH3 0x461BCD PUSH1 0xE5 SHL DUP2 MSTORE PUSH1 0x20 PUSH1 0x4 DUP3 ADD MSTORE PUSH1 0x30 PUSH1 0x24 DUP3 ADD MSTORE PUSH32 0x4552433732314275726E61626C653A2063616C6C6572206973206E6F74206F77 PUSH1 0x44 DUP3 ADD MSTORE PUSH16 0x1B995C881B9BDC88185C1C1C9BDD9959 PUSH1 0x82 SHL PUSH1 0x64 DUP3 ADD MSTORE PUSH1 0x84 ADD PUSH2 0xC12 JUMP JUMPDEST PUSH2 0x16BA DUP2 PUSH2 0x2CD3 JUMP JUMPDEST POP JUMP JUMPDEST PUSH1 0x6 SLOAD PUSH1 0x1 PUSH1 0x1 PUSH1 0xA0 SHL SUB PUSH2 0x100 SWAP1 SWAP2 DIV AND CALLER EQ PUSH2 0x16ED JUMPI PUSH1 0x40 MLOAD PUSH3 0x461BCD PUSH1 0xE5 SHL DUP2 MSTORE PUSH1 0x4 ADD PUSH2 0xC12 SWAP1 PUSH2 0x3703 JUMP JUMPDEST PUSH1 0xD SLOAD PUSH3 0x10000 SWAP1 DIV PUSH1 0xFF AND ISZERO PUSH2 0x173B JUMPI PUSH1 0x40 MLOAD PUSH3 0x461BCD PUSH1 0xE5 SHL DUP2 MSTORE PUSH1 0x20 PUSH1 0x4 DUP3 ADD MSTORE PUSH1 0x12 PUSH1 0x24 DUP3 ADD MSTORE PUSH18 0x2130B9B2AAA9249034B990333937BD32B717 PUSH1 0x71 SHL PUSH1 0x44 DUP3 ADD MSTORE PUSH1 0x64 ADD PUSH2 0xC12 JUMP JUMPDEST DUP1 MLOAD PUSH2 0xE4B SWAP1 PUSH1 0xB SWAP1 PUSH1 0x20 DUP5 ADD SWAP1 PUSH2 0x31F9 JUMP JUMPDEST PUSH1 0x6 SLOAD PUSH1 0x1 PUSH1 0x1 PUSH1 0xA0 SHL SUB PUSH2 0x100 SWAP1 SWAP2 DIV AND CALLER EQ PUSH2 0x177E JUMPI PUSH1 0x40 MLOAD PUSH3 0x461BCD PUSH1 0xE5 SHL DUP2 MSTORE PUSH1 0x4 ADD PUSH2 0xC12 SWAP1 PUSH2 0x3703 JUMP JUMPDEST PUSH1 0xD DUP1 SLOAD PUSH1 0xFF SWAP1 SWAP3 AND PUSH2 0x100 MUL PUSH2 0xFF00 NOT SWAP1 SWAP3 AND SWAP2 SWAP1 SWAP2 OR SWAP1 SSTORE JUMP JUMPDEST PUSH1 0x0 DUP2 DUP2 MSTORE PUSH1 0x2 PUSH1 0x20 MSTORE PUSH1 0x40 DUP2 KECCAK256 SLOAD PUSH1 0x1 PUSH1 0x1 PUSH1 0xA0 SHL SUB AND DUP1 PUSH2 0xB05 JUMPI PUSH1 0x40 MLOAD PUSH3 0x461BCD PUSH1 0xE5 SHL DUP2 MSTORE PUSH1 0x20 PUSH1 0x4 DUP3 ADD MSTORE PUSH1 0x29 PUSH1 0x24 DUP3 ADD MSTORE PUSH32 0x4552433732313A206F776E657220717565727920666F72206E6F6E6578697374 PUSH1 0x44 DUP3 ADD MSTORE PUSH9 0x32B73A103A37B5B2B7 PUSH1 0xB9 SHL PUSH1 0x64 DUP3 ADD MSTORE PUSH1 0x84 ADD PUSH2 0xC12 JUMP JUMPDEST PUSH1 0xB DUP1 SLOAD PUSH2 0x181E SWAP1 PUSH2 0x36C8 JUMP JUMPDEST DUP1 PUSH1 0x1F ADD PUSH1 0x20 DUP1 SWAP2 DIV MUL PUSH1 0x20 ADD PUSH1 0x40 MLOAD SWAP1 DUP2 ADD PUSH1 0x40 MSTORE DUP1 SWAP3 SWAP2 SWAP1 DUP2 DUP2 MSTORE PUSH1 0x20 ADD DUP3 DUP1 SLOAD PUSH2 0x184A SWAP1 PUSH2 0x36C8 JUMP JUMPDEST DUP1 ISZERO PUSH2 0x1897 JUMPI DUP1 PUSH1 0x1F LT PUSH2 0x186C JUMPI PUSH2 0x100 DUP1 DUP4 SLOAD DIV MUL DUP4 MSTORE SWAP2 PUSH1 0x20 ADD SWAP2 PUSH2 0x1897 JUMP JUMPDEST DUP3 ADD SWAP2 SWAP1 PUSH1 0x0 MSTORE PUSH1 0x20 PUSH1 0x0 KECCAK256 SWAP1 JUMPDEST DUP2 SLOAD DUP2 MSTORE SWAP1 PUSH1 0x1 ADD SWAP1 PUSH1 0x20 ADD DUP1 DUP4 GT PUSH2 0x187A JUMPI DUP3 SWAP1 SUB PUSH1 0x1F AND DUP3 ADD SWAP2 JUMPDEST POP POP POP POP POP DUP2 JUMP JUMPDEST PUSH1 0x0 DUP1 PUSH2 0x18AA PUSH2 0xE4F JUMP JUMPDEST GT PUSH2 0x18F0 JUMPI PUSH1 0x40 MLOAD PUSH3 0x461BCD PUSH1 0xE5 SHL DUP2 MSTORE PUSH1 0x20 PUSH1 0x4 DUP3 ADD MSTORE PUSH1 0x16 PUSH1 0x24 DUP3 ADD MSTORE PUSH22 0x27379031B93CB83A34B21032BC34B9BA39903CB2BA17 PUSH1 0x51 SHL PUSH1 0x44 DUP3 ADD MSTORE PUSH1 0x64 ADD PUSH2 0xC12 JUMP JUMPDEST PUSH2 0xE66 PUSH2 0x648 PUSH2 0xE4F JUMP JUMPDEST PUSH1 0x0 PUSH1 0x1 PUSH1 0x1 PUSH1 0xA0 SHL SUB DUP3 AND PUSH2 0x1966 JUMPI PUSH1 0x40 MLOAD PUSH3 0x461BCD PUSH1 0xE5 SHL DUP2 MSTORE PUSH1 0x20 PUSH1 0x4 DUP3 ADD MSTORE PUSH1 0x2A PUSH1 0x24 DUP3 ADD MSTORE PUSH32 0x4552433732313A2062616C616E636520717565727920666F7220746865207A65 PUSH1 0x44 DUP3 ADD MSTORE PUSH10 0x726F2061646472657373 PUSH1 0xB0 SHL PUSH1 0x64 DUP3 ADD MSTORE PUSH1 0x84 ADD PUSH2 0xC12 JUMP JUMPDEST POP PUSH1 0x1 PUSH1 0x1 PUSH1 0xA0 SHL SUB AND PUSH1 0x0 SWAP1 DUP2 MSTORE PUSH1 0x3 PUSH1 0x20 MSTORE PUSH1 0x40 SWAP1 KECCAK256 SLOAD SWAP1 JUMP JUMPDEST PUSH1 0x6 SLOAD PUSH1 0x1 PUSH1 0x1 PUSH1 0xA0 SHL SUB PUSH2 0x100 SWAP1 SWAP2 DIV AND CALLER EQ PUSH2 0x19B2 JUMPI PUSH1 0x40 MLOAD PUSH3 0x461BCD PUSH1 0xE5 SHL DUP2 MSTORE PUSH1 0x4 ADD PUSH2 0xC12 SWAP1 PUSH2 0x3703 JUMP JUMPDEST PUSH2 0x1626 PUSH1 0x0 PUSH2 0x2D7A JUMP JUMPDEST PUSH1 0x6 SLOAD PUSH1 0x1 PUSH1 0x1 PUSH1 0xA0 SHL SUB PUSH2 0x100 SWAP1 SWAP2 DIV AND CALLER EQ PUSH2 0x19EC JUMPI PUSH1 0x40 MLOAD PUSH3 0x461BCD PUSH1 0xE5 SHL DUP2 MSTORE PUSH1 0x4 ADD PUSH2 0xC12 SWAP1 PUSH2 0x3703 JUMP JUMPDEST PUSH1 0x17 SSTORE JUMP JUMPDEST PUSH1 0x6 SLOAD PUSH1 0x1 PUSH1 0x1 PUSH1 0xA0 SHL SUB PUSH2 0x100 SWAP1 SWAP2 DIV AND CALLER EQ PUSH2 0x1A21 JUMPI PUSH1 0x40 MLOAD PUSH3 0x461BCD PUSH1 0xE5 SHL DUP2 MSTORE PUSH1 0x4 ADD PUSH2 0xC12 SWAP1 PUSH2 0x3703 JUMP JUMPDEST PUSH1 0xD SLOAD PUSH1 0xFF AND PUSH1 0x3 EQ PUSH2 0x1A76 JUMPI PUSH1 0x40 MLOAD PUSH3 0x461BCD PUSH1 0xE5 SHL DUP2 MSTORE PUSH1 0x20 PUSH1 0x4 DUP3 ADD MSTORE PUSH1 0x18 PUSH1 0x24 DUP3 ADD MSTORE PUSH32 0x5465616D2073616C65206E6F7420696E697469617465642E0000000000000000 PUSH1 0x44 DUP3 ADD MSTORE PUSH1 0x64 ADD PUSH2 0xC12 JUMP JUMPDEST PUSH1 0x14 SLOAD PUSH1 0x15 SLOAD PUSH2 0x1A89 SWAP1 PUSH1 0xFF DUP5 AND PUSH2 0x37FF JUMP JUMPDEST GT ISZERO PUSH2 0x1AEA JUMPI PUSH1 0x40 MLOAD PUSH3 0x461BCD PUSH1 0xE5 SHL DUP2 MSTORE PUSH1 0x20 PUSH1 0x4 DUP3 ADD MSTORE PUSH1 0x2A PUSH1 0x24 DUP3 ADD MSTORE PUSH32 0x5472616E73616374696F6E206578636565647320746F74616C207465616D2D73 PUSH1 0x44 DUP3 ADD MSTORE PUSH10 0x616C6520737570706C79 PUSH1 0xB0 SHL PUSH1 0x64 DUP3 ADD MSTORE PUSH1 0x84 ADD PUSH2 0xC12 JUMP JUMPDEST DUP1 PUSH1 0xFF AND PUSH1 0x15 PUSH1 0x0 DUP3 DUP3 SLOAD PUSH2 0x1AFF SWAP2 SWAP1 PUSH2 0x37FF JUMP JUMPDEST SWAP1 SWAP2 SSTORE POP PUSH1 0x1 SWAP1 POP JUMPDEST DUP2 PUSH1 0xFF AND DUP2 GT PUSH2 0xE4B JUMPI PUSH2 0x1B1F CALLER PUSH2 0x120A PUSH1 0x8 SLOAD SWAP1 JUMP JUMPDEST PUSH2 0x1B2D PUSH1 0x8 DUP1 SLOAD PUSH1 0x1 ADD SWAP1 SSTORE JUMP JUMPDEST DUP1 PUSH2 0x1B37 DUP2 PUSH2 0x3817 JUMP JUMPDEST SWAP2 POP POP PUSH2 0x1B08 JUMP JUMPDEST PUSH1 0x6 SLOAD PUSH1 0x1 PUSH1 0x1 PUSH1 0xA0 SHL SUB PUSH2 0x100 SWAP1 SWAP2 DIV AND CALLER EQ PUSH2 0x1B6F JUMPI PUSH1 0x40 MLOAD PUSH3 0x461BCD PUSH1 0xE5 SHL DUP2 MSTORE PUSH1 0x4 ADD PUSH2 0xC12 SWAP1 PUSH2 0x3703 JUMP JUMPDEST PUSH1 0x9 SSTORE JUMP JUMPDEST PUSH1 0x6 SLOAD PUSH1 0x1 PUSH1 0x1 PUSH1 0xA0 SHL SUB PUSH2 0x100 SWAP1 SWAP2 DIV AND CALLER EQ PUSH2 0x1BA4 JUMPI PUSH1 0x40 MLOAD PUSH3 0x461BCD PUSH1 0xE5 SHL DUP2 MSTORE PUSH1 0x4 ADD PUSH2 0xC12 SWAP1 PUSH2 0x3703 JUMP JUMPDEST PUSH1 0x0 PUSH1 0xA DUP1 SLOAD PUSH2 0x1BB3 SWAP1 PUSH2 0x36C8 JUMP JUMPDEST SWAP1 POP GT PUSH2 0x1C02 JUMPI PUSH1 0x40 MLOAD PUSH3 0x461BCD PUSH1 0xE5 SHL DUP2 MSTORE PUSH1 0x20 PUSH1 0x4 DUP3 ADD DUP2 SWAP1 MSTORE PUSH1 0x24 DUP3 ADD MSTORE PUSH32 0x50726F76656E616E636520686173682063616E6E6F7420626520656D7074792E PUSH1 0x44 DUP3 ADD MSTORE PUSH1 0x64 ADD PUSH2 0xC12 JUMP JUMPDEST PUSH1 0xD SLOAD PUSH4 0x1000000 SWAP1 DIV PUSH1 0xFF AND ISZERO PUSH2 0x1C67 JUMPI PUSH1 0x40 MLOAD PUSH3 0x461BCD PUSH1 0xE5 SHL DUP2 MSTORE PUSH1 0x20 PUSH1 0x4 DUP3 ADD MSTORE PUSH1 0x22 PUSH1 0x24 DUP3 ADD MSTORE PUSH32 0x50726F76656E616E6365206861736820697320616C72656164792066726F7A65 PUSH1 0x44 DUP3 ADD MSTORE PUSH2 0x3717 PUSH1 0xF1 SHL PUSH1 0x64 DUP3 ADD MSTORE PUSH1 0x84 ADD PUSH2 0xC12 JUMP JUMPDEST PUSH1 0xD DUP1 SLOAD PUSH4 0xFF000000 NOT AND PUSH4 0x1000000 OR SWAP1 SSTORE JUMP JUMPDEST PUSH1 0x6 SLOAD PUSH1 0x1 PUSH1 0x1 PUSH1 0xA0 SHL SUB PUSH2 0x100 SWAP1 SWAP2 DIV AND CALLER EQ PUSH2 0x1CAC JUMPI PUSH1 0x40 MLOAD PUSH3 0x461BCD PUSH1 0xE5 SHL DUP2 MSTORE PUSH1 0x4 ADD PUSH2 0xC12 SWAP1 PUSH2 0x3703 JUMP JUMPDEST PUSH2 0x1626 PUSH2 0x2DD4 JUMP JUMPDEST PUSH1 0x17 SLOAD PUSH1 0xFF DUP3 AND CALLVALUE PUSH2 0x1CC6 DUP3 DUP5 PUSH2 0x37B6 JUMP JUMPDEST EQ PUSH2 0x1D0F JUMPI PUSH1 0x40 MLOAD PUSH3 0x461BCD PUSH1 0xE5 SHL DUP2 MSTORE PUSH1 0x20 PUSH1 0x4 DUP3 ADD MSTORE PUSH1 0x19 PUSH1 0x24 DUP3 ADD MSTORE PUSH25 0x24B731B7B93932B1BA1022AA24103B30B63AB29039B2B73A17 PUSH1 0x39 SHL PUSH1 0x44 DUP3 ADD MSTORE PUSH1 0x64 ADD PUSH2 0xC12 JUMP JUMPDEST ORIGIN CALLER EQ PUSH2 0x1D5E JUMPI PUSH1 0x40 MLOAD PUSH3 0x461BCD PUSH1 0xE5 SHL DUP2 MSTORE PUSH1 0x20 PUSH1 0x4 DUP3 ADD MSTORE PUSH1 0x1F PUSH1 0x24 DUP3 ADD MSTORE PUSH32 0x5468652063616C6C657220697320616E6F7468657220636F6E74726163742E00 PUSH1 0x44 DUP3 ADD MSTORE PUSH1 0x64 ADD PUSH2 0xC12 JUMP JUMPDEST PUSH1 0x2 PUSH1 0x7 SLOAD EQ ISZERO PUSH2 0x1DB1 JUMPI PUSH1 0x40 MLOAD PUSH3 0x461BCD PUSH1 0xE5 SHL DUP2 MSTORE PUSH1 0x20 PUSH1 0x4 DUP3 ADD MSTORE PUSH1 0x1F PUSH1 0x24 DUP3 ADD MSTORE PUSH32 0x5265656E7472616E637947756172643A207265656E7472616E742063616C6C00 PUSH1 0x44 DUP3 ADD MSTORE PUSH1 0x64 ADD PUSH2 0xC12 JUMP JUMPDEST PUSH1 0x2 PUSH1 0x7 SSTORE PUSH1 0x6 SLOAD PUSH1 0xFF AND ISZERO PUSH2 0x1DD9 JUMPI PUSH1 0x40 MLOAD PUSH3 0x461BCD PUSH1 0xE5 SHL DUP2 MSTORE PUSH1 0x4 ADD PUSH2 0xC12 SWAP1 PUSH2 0x37D5 JUMP JUMPDEST PUSH1 0xD SLOAD PUSH1 0xFF AND PUSH1 0x4 EQ PUSH2 0x1E2E JUMPI PUSH1 0x40 MLOAD PUSH3 0x461BCD PUSH1 0xE5 SHL DUP2 MSTORE PUSH1 0x20 PUSH1 0x4 DUP3 ADD MSTORE PUSH1 0x1B PUSH1 0x24 DUP3 ADD MSTORE PUSH32 0x5075626C6963206D696E74206E6F7420696E69746961697465642E0000000000 PUSH1 0x44 DUP3 ADD MSTORE PUSH1 0x64 ADD PUSH2 0xC12 JUMP JUMPDEST PUSH1 0x16 SLOAD DUP4 PUSH1 0xFF AND PUSH2 0x1E3D PUSH2 0xE4F JUMP JUMPDEST PUSH2 0x1E47 SWAP2 SWAP1 PUSH2 0x37FF JUMP JUMPDEST GT ISZERO PUSH2 0x1EA3 JUMPI PUSH1 0x40 MLOAD PUSH3 0x461BCD PUSH1 0xE5 SHL DUP2 MSTORE PUSH1 0x20 PUSH1 0x4 DUP3 ADD MSTORE PUSH1 0x25 PUSH1 0x24 DUP3 ADD MSTORE PUSH32 0x5472616E73616374696F6E206578636565647320746F74616C2073616C652073 PUSH1 0x44 DUP3 ADD MSTORE PUSH5 0x7570706C79 PUSH1 0xD8 SHL PUSH1 0x64 DUP3 ADD MSTORE PUSH1 0x84 ADD PUSH2 0xC12 JUMP JUMPDEST PUSH1 0x0 DUP4 PUSH1 0xFF AND GT PUSH2 0x1F02 JUMPI PUSH1 0x40 MLOAD PUSH3 0x461BCD PUSH1 0xE5 SHL DUP2 MSTORE PUSH1 0x20 PUSH1 0x4 DUP3 ADD MSTORE PUSH1 0x23 PUSH1 0x24 DUP3 ADD MSTORE PUSH32 0x4D696E7420616D6F756E74206D7573742062652067726561746572207468616E PUSH1 0x44 DUP3 ADD MSTORE PUSH3 0x101817 PUSH1 0xE9 SHL PUSH1 0x64 DUP3 ADD MSTORE PUSH1 0x84 ADD PUSH2 0xC12 JUMP JUMPDEST PUSH1 0xD SLOAD PUSH1 0xFF PUSH2 0x100 SWAP1 SWAP2 DIV DUP2 AND SWAP1 DUP5 AND GT ISZERO PUSH2 0x1F73 JUMPI PUSH1 0x40 MLOAD PUSH3 0x461BCD PUSH1 0xE5 SHL DUP2 MSTORE PUSH1 0x20 PUSH1 0x4 DUP3 ADD MSTORE PUSH1 0x2A PUSH1 0x24 DUP3 ADD MSTORE PUSH32 0x45786365656473206D617820616C6C6F776564206D696E747320706572207472 PUSH1 0x44 DUP3 ADD MSTORE PUSH10 0x30B739B0B1BA34B7B717 PUSH1 0xB1 SHL PUSH1 0x64 DUP3 ADD MSTORE PUSH1 0x84 ADD PUSH2 0xC12 JUMP JUMPDEST PUSH1 0x1 JUMPDEST DUP4 PUSH1 0xFF AND DUP2 GT PUSH2 0x1FAD JUMPI PUSH2 0x1F8D CALLER PUSH2 0x120A PUSH1 0x8 SLOAD SWAP1 JUMP JUMPDEST PUSH2 0x1F9B PUSH1 0x8 DUP1 SLOAD PUSH1 0x1 ADD SWAP1 SSTORE JUMP JUMPDEST DUP1 PUSH2 0x1FA5 DUP2 PUSH2 0x3817 JUMP JUMPDEST SWAP2 POP POP PUSH2 0x1F76 JUMP JUMPDEST POP POP PUSH1 0x1 PUSH1 0x7 SSTORE POP POP JUMP JUMPDEST PUSH1 0x60 PUSH1 0x1 DUP1 SLOAD PUSH2 0xB1A SWAP1 PUSH2 0x36C8 JUMP JUMPDEST PUSH2 0xE4B CALLER DUP4 DUP4 PUSH2 0x2E2C JUMP JUMPDEST PUSH1 0x6 SLOAD PUSH1 0x1 PUSH1 0x1 PUSH1 0xA0 SHL SUB PUSH2 0x100 SWAP1 SWAP2 DIV AND CALLER EQ PUSH2 0x2002 JUMPI PUSH1 0x40 MLOAD PUSH3 0x461BCD PUSH1 0xE5 SHL DUP2 MSTORE PUSH1 0x4 ADD PUSH2 0xC12 SWAP1 PUSH2 0x3703 JUMP JUMPDEST PUSH1 0x0 DUP3 PUSH1 0xFF AND GT PUSH2 0x2063 JUMPI PUSH1 0x40 MLOAD PUSH3 0x461BCD PUSH1 0xE5 SHL DUP2 MSTORE PUSH1 0x20 PUSH1 0x4 DUP3 ADD MSTORE PUSH1 0x25 PUSH1 0x24 DUP3 ADD MSTORE PUSH32 0x41697264726F7020616D6F756E74206D75737420626520677265617465722074 PUSH1 0x44 DUP3 ADD MSTORE PUSH5 0x68616E203 PUSH1 0xDC SHL PUSH1 0x64 DUP3 ADD MSTORE PUSH1 0x84 ADD PUSH2 0xC12 JUMP JUMPDEST PUSH1 0x16 SLOAD DUP3 PUSH1 0xFF AND PUSH2 0x2072 PUSH2 0xE4F JUMP JUMPDEST PUSH2 0x207C SWAP2 SWAP1 PUSH2 0x37FF JUMP JUMPDEST GT ISZERO PUSH2 0x20DD JUMPI PUSH1 0x40 MLOAD PUSH3 0x461BCD PUSH1 0xE5 SHL DUP2 MSTORE PUSH1 0x20 PUSH1 0x4 DUP3 ADD MSTORE PUSH1 0x2A PUSH1 0x24 DUP3 ADD MSTORE PUSH32 0x4D696E7420616D6F756E742077696C6C2065786365656420746F74616C207361 PUSH1 0x44 DUP3 ADD MSTORE PUSH10 0x36329039BAB838363C97 PUSH1 0xB1 SHL PUSH1 0x64 DUP3 ADD MSTORE PUSH1 0x84 ADD PUSH2 0xC12 JUMP JUMPDEST PUSH1 0x1 JUMPDEST DUP3 PUSH1 0xFF AND DUP2 GT PUSH2 0xD48 JUMPI PUSH2 0x20F7 DUP3 PUSH2 0x120A PUSH1 0x8 SLOAD SWAP1 JUMP JUMPDEST PUSH2 0x2105 PUSH1 0x8 DUP1 SLOAD PUSH1 0x1 ADD SWAP1 SSTORE JUMP JUMPDEST DUP1 PUSH2 0x210F DUP2 PUSH2 0x3817 JUMP JUMPDEST SWAP2 POP POP PUSH2 0x20E0 JUMP JUMPDEST PUSH2 0x2121 CALLER DUP4 PUSH2 0x281B JUMP JUMPDEST PUSH2 0x213D JUMPI PUSH1 0x40 MLOAD PUSH3 0x461BCD PUSH1 0xE5 SHL DUP2 MSTORE PUSH1 0x4 ADD PUSH2 0xC12 SWAP1 PUSH2 0x3765 JUMP JUMPDEST PUSH2 0x2149 DUP5 DUP5 DUP5 DUP5 PUSH2 0x2EFB JUMP JUMPDEST POP POP POP POP JUMP JUMPDEST PUSH1 0x6 SLOAD PUSH1 0x1 PUSH1 0x1 PUSH1 0xA0 SHL SUB PUSH2 0x100 SWAP1 SWAP2 DIV AND CALLER EQ PUSH2 0x217F JUMPI PUSH1 0x40 MLOAD PUSH3 0x461BCD PUSH1 0xE5 SHL DUP2 MSTORE PUSH1 0x4 ADD PUSH2 0xC12 SWAP1 PUSH2 0x3703 JUMP JUMPDEST PUSH1 0x1 PUSH1 0x1 PUSH1 0xA0 SHL SUB AND PUSH1 0x0 SWAP1 DUP2 MSTORE PUSH1 0x13 PUSH1 0x20 MSTORE PUSH1 0x40 SWAP1 KECCAK256 DUP1 SLOAD PUSH1 0xFF NOT AND PUSH1 0x1 OR SWAP1 SSTORE JUMP JUMPDEST PUSH1 0xC DUP1 SLOAD PUSH2 0x181E SWAP1 PUSH2 0x36C8 JUMP JUMPDEST PUSH1 0xA DUP1 SLOAD PUSH2 0x181E SWAP1 PUSH2 0x36C8 JUMP JUMPDEST PUSH1 0x0 DUP2 DUP2 MSTORE PUSH1 0x2 PUSH1 0x20 MSTORE PUSH1 0x40 SWAP1 KECCAK256 SLOAD PUSH1 0x60 SWAP1 PUSH1 0x1 PUSH1 0x1 PUSH1 0xA0 SHL SUB AND PUSH2 0x223C JUMPI PUSH1 0x40 MLOAD PUSH3 0x461BCD PUSH1 0xE5 SHL DUP2 MSTORE PUSH1 0x20 PUSH1 0x4 DUP3 ADD MSTORE PUSH1 0x2F PUSH1 0x24 DUP3 ADD MSTORE PUSH32 0x4552433732314D657461646174613A2055524920717565727920666F72206E6F PUSH1 0x44 DUP3 ADD MSTORE PUSH15 0x3732BC34B9BA32B73A103A37B5B2B7 PUSH1 0x89 SHL PUSH1 0x64 DUP3 ADD MSTORE PUSH1 0x84 ADD PUSH2 0xC12 JUMP JUMPDEST PUSH1 0xB PUSH2 0x2247 DUP4 PUSH2 0x2F2E JUMP JUMPDEST PUSH1 0xC PUSH1 0x40 MLOAD PUSH1 0x20 ADD PUSH2 0x225B SWAP4 SWAP3 SWAP2 SWAP1 PUSH2 0x38CC JUMP JUMPDEST PUSH1 0x40 MLOAD PUSH1 0x20 DUP2 DUP4 SUB SUB DUP2 MSTORE SWAP1 PUSH1 0x40 MSTORE SWAP1 POP SWAP2 SWAP1 POP JUMP JUMPDEST PUSH1 0x6 SLOAD PUSH1 0x1 PUSH1 0x1 PUSH1 0xA0 SHL SUB PUSH2 0x100 SWAP1 SWAP2 DIV AND CALLER EQ PUSH2 0x22A1 JUMPI PUSH1 0x40 MLOAD PUSH3 0x461BCD PUSH1 0xE5 SHL DUP2 MSTORE PUSH1 0x4 ADD PUSH2 0xC12 SWAP1 PUSH2 0x3703 JUMP JUMPDEST PUSH1 0xD SLOAD PUSH1 0xFF AND PUSH2 0x22E9 JUMPI PUSH1 0x40 MLOAD PUSH3 0x461BCD PUSH1 0xE5 SHL DUP2 MSTORE PUSH1 0x20 PUSH1 0x4 DUP3 ADD MSTORE PUSH1 0x13 PUSH1 0x24 DUP3 ADD MSTORE PUSH19 0x27379039BA30B3B2B9903132B337B932901817 PUSH1 0x69 SHL PUSH1 0x44 DUP3 ADD MSTORE PUSH1 0x64 ADD PUSH2 0xC12 JUMP JUMPDEST PUSH1 0xD DUP1 SLOAD PUSH1 0xFF AND SWAP1 PUSH1 0x0 PUSH2 0x22FC DUP4 PUSH2 0x38FF JUMP JUMPDEST SWAP2 SWAP1 PUSH2 0x100 EXP DUP2 SLOAD DUP2 PUSH1 0xFF MUL NOT AND SWAP1 DUP4 PUSH1 0xFF AND MUL OR SWAP1 SSTORE POP POP JUMP JUMPDEST PUSH1 0x0 DUP1 PUSH2 0x2322 PUSH2 0xE4F JUMP JUMPDEST GT PUSH2 0x2368 JUMPI PUSH1 0x40 MLOAD PUSH3 0x461BCD PUSH1 0xE5 SHL DUP2 MSTORE PUSH1 0x20 PUSH1 0x4 DUP3 ADD MSTORE PUSH1 0x16 PUSH1 0x24 DUP3 ADD MSTORE PUSH22 0x27379031B93CB83A34B21032BC34B9BA39903CB2BA17 PUSH1 0x51 SHL PUSH1 0x44 DUP3 ADD MSTORE PUSH1 0x64 ADD PUSH2 0xC12 JUMP JUMPDEST PUSH2 0xE66 PUSH2 0xE4F JUMP JUMPDEST PUSH1 0x6 SLOAD PUSH1 0x1 PUSH1 0x1 PUSH1 0xA0 SHL SUB PUSH2 0x100 SWAP1 SWAP2 DIV AND CALLER EQ PUSH2 0x23A0 JUMPI PUSH1 0x40 MLOAD PUSH3 0x461BCD PUSH1 0xE5 SHL DUP2 MSTORE PUSH1 0x4 ADD PUSH2 0xC12 SWAP1 PUSH2 0x3703 JUMP JUMPDEST DUP1 MLOAD PUSH2 0xE4B SWAP1 PUSH1 0xC SWAP1 PUSH1 0x20 DUP5 ADD SWAP1 PUSH2 0x31F9 JUMP JUMPDEST PUSH1 0x0 PUSH2 0x23BD PUSH2 0xE4F JUMP JUMPDEST PUSH1 0x16 SLOAD PUSH2 0xE66 SWAP2 SWAP1 PUSH2 0x374E JUMP JUMPDEST PUSH1 0x6 SLOAD PUSH1 0x1 PUSH1 0x1 PUSH1 0xA0 SHL SUB PUSH2 0x100 SWAP1 SWAP2 DIV AND CALLER EQ PUSH2 0x23FA JUMPI PUSH1 0x40 MLOAD PUSH3 0x461BCD PUSH1 0xE5 SHL DUP2 MSTORE PUSH1 0x4 ADD PUSH2 0xC12 SWAP1 PUSH2 0x3703 JUMP JUMPDEST PUSH1 0x0 PUSH1 0xB DUP1 SLOAD PUSH2 0x2409 SWAP1 PUSH2 0x36C8 JUMP JUMPDEST SWAP1 POP GT PUSH2 0x2458 JUMPI PUSH1 0x40 MLOAD PUSH3 0x461BCD PUSH1 0xE5 SHL DUP2 MSTORE PUSH1 0x20 PUSH1 0x4 DUP3 ADD MSTORE PUSH1 0x17 PUSH1 0x24 DUP3 ADD MSTORE PUSH32 0x626173655552492063616E6E6F7420626520656D707479000000000000000000 PUSH1 0x44 DUP3 ADD MSTORE PUSH1 0x64 ADD PUSH2 0xC12 JUMP JUMPDEST PUSH1 0xD SLOAD PUSH3 0x10000 SWAP1 DIV PUSH1 0xFF AND ISZERO PUSH2 0x24B1 JUMPI PUSH1 0x40 MLOAD PUSH3 0x461BCD PUSH1 0xE5 SHL DUP2 MSTORE PUSH1 0x20 PUSH1 0x4 DUP3 ADD MSTORE PUSH1 0x1A PUSH1 0x24 DUP3 ADD MSTORE PUSH32 0x4261736555524920697320616C72656164792066726F7A656E2E000000000000 PUSH1 0x44 DUP3 ADD MSTORE PUSH1 0x64 ADD PUSH2 0xC12 JUMP JUMPDEST PUSH1 0xD DUP1 SLOAD PUSH3 0xFF0000 NOT AND PUSH3 0x10000 OR SWAP1 SSTORE JUMP JUMPDEST PUSH1 0x6 SLOAD PUSH1 0x1 PUSH1 0x1 PUSH1 0xA0 SHL SUB PUSH2 0x100 SWAP1 SWAP2 DIV AND CALLER EQ PUSH2 0x24F4 JUMPI PUSH1 0x40 MLOAD PUSH3 0x461BCD PUSH1 0xE5 SHL DUP2 MSTORE PUSH1 0x4 ADD PUSH2 0xC12 SWAP1 PUSH2 0x3703 JUMP JUMPDEST PUSH1 0xD DUP1 SLOAD PUSH1 0x1 PUSH1 0x1 PUSH1 0xA0 SHL SUB SWAP7 DUP8 AND PUSH5 0x100000000 MUL PUSH5 0x100000000 PUSH1 0x1 PUSH1 0xC0 SHL SUB NOT SWAP1 SWAP2 AND OR SWAP1 SSTORE PUSH1 0xE DUP1 SLOAD SWAP5 DUP7 AND PUSH1 0x1 PUSH1 0x1 PUSH1 0xA0 SHL SUB NOT SWAP6 DUP7 AND OR SWAP1 SSTORE PUSH1 0xF DUP1 SLOAD SWAP4 DUP7 AND SWAP4 DUP6 AND SWAP4 SWAP1 SWAP4 OR SWAP1 SWAP3 SSTORE PUSH1 0x10 DUP1 SLOAD SWAP2 DUP6 AND SWAP2 DUP5 AND SWAP2 SWAP1 SWAP2 OR SWAP1 SSTORE PUSH1 0x11 DUP1 SLOAD SWAP2 SWAP1 SWAP4 AND SWAP2 AND OR SWAP1 SSTORE JUMP JUMPDEST PUSH1 0x6 SLOAD PUSH1 0x1 PUSH1 0x1 PUSH1 0xA0 SHL SUB PUSH2 0x100 SWAP1 SWAP2 DIV AND CALLER EQ PUSH2 0x2593 JUMPI PUSH1 0x40 MLOAD PUSH3 0x461BCD PUSH1 0xE5 SHL DUP2 MSTORE PUSH1 0x4 ADD PUSH2 0xC12 SWAP1 PUSH2 0x3703 JUMP JUMPDEST PUSH1 0xD SLOAD PUSH4 0x1000000 SWAP1 DIV PUSH1 0xFF AND ISZERO ISZERO PUSH1 0x1 EQ PUSH2 0x2617 JUMPI PUSH1 0x40 MLOAD PUSH3 0x461BCD PUSH1 0xE5 SHL DUP2 MSTORE PUSH1 0x20 PUSH1 0x4 DUP3 ADD MSTORE PUSH1 0x38 PUSH1 0x24 DUP3 ADD MSTORE PUSH32 0x50726F76656E616E63652068617368206D7573742062652066726F7A656E2062 PUSH1 0x44 DUP3 ADD MSTORE PUSH32 0x65666F7265206D696E74696E672063616E2073746172742E0000000000000000 PUSH1 0x64 DUP3 ADD MSTORE PUSH1 0x84 ADD PUSH2 0xC12 JUMP JUMPDEST PUSH1 0x9 SLOAD PUSH1 0x0 BYTE PUSH1 0xF8 SHL PUSH1 0x1 PUSH1 0x1 PUSH1 0xF8 SHL SUB NOT AND PUSH2 0x269C JUMPI PUSH1 0x40 MLOAD PUSH3 0x461BCD PUSH1 0xE5 SHL DUP2 MSTORE PUSH1 0x20 PUSH1 0x4 DUP3 ADD MSTORE PUSH1 0x3B PUSH1 0x24 DUP3 ADD MSTORE PUSH32 0x4D65726B6C6520726F6F74206D7573742062652073657420626565666F726520 PUSH1 0x44 DUP3 ADD MSTORE PUSH32 0x77686974656C697374206D696E74696E672063616E20626567696E0000000000 PUSH1 0x64 DUP3 ADD MSTORE PUSH1 0x84 ADD PUSH2 0xC12 JUMP JUMPDEST PUSH1 0xD SLOAD PUSH1 0x4 PUSH1 0xFF SWAP1 SWAP2 AND LT PUSH2 0x26F3 JUMPI PUSH1 0x40 MLOAD PUSH3 0x461BCD PUSH1 0xE5 SHL DUP2 MSTORE PUSH1 0x20 PUSH1 0x4 DUP3 ADD MSTORE PUSH1 0x1B PUSH1 0x24 DUP3 ADD MSTORE PUSH32 0x4E6F20737461676573206166746572207075626C69632073616C650000000000 PUSH1 0x44 DUP3 ADD MSTORE PUSH1 0x64 ADD PUSH2 0xC12 JUMP JUMPDEST PUSH1 0xD DUP1 SLOAD PUSH1 0xFF AND SWAP1 PUSH1 0x0 PUSH2 0x22FC DUP4 PUSH2 0x3932 JUMP JUMPDEST PUSH1 0x6 SLOAD PUSH1 0x1 PUSH1 0x1 PUSH1 0xA0 SHL SUB PUSH2 0x100 SWAP1 SWAP2 DIV AND CALLER EQ PUSH2 0x2736 JUMPI PUSH1 0x40 MLOAD PUSH3 0x461BCD PUSH1 0xE5 SHL DUP2 MSTORE PUSH1 0x4 ADD PUSH2 0xC12 SWAP1 PUSH2 0x3703 JUMP JUMPDEST PUSH1 0x1 PUSH1 0x1 PUSH1 0xA0 SHL SUB DUP2 AND PUSH2 0x279B JUMPI PUSH1 0x40 MLOAD PUSH3 0x461BCD PUSH1 0xE5 SHL DUP2 MSTORE PUSH1 0x20 PUSH1 0x4 DUP3 ADD MSTORE PUSH1 0x26 PUSH1 0x24 DUP3 ADD MSTORE PUSH32 0x4F776E61626C653A206E6577206F776E657220697320746865207A65726F2061 PUSH1 0x44 DUP3 ADD MSTORE PUSH6 0x646472657373 PUSH1 0xD0 SHL PUSH1 0x64 DUP3 ADD MSTORE PUSH1 0x84 ADD PUSH2 0xC12 JUMP JUMPDEST PUSH2 0x16BA DUP2 PUSH2 0x2D7A JUMP JUMPDEST DUP1 SLOAD PUSH1 0x1 ADD SWAP1 SSTORE JUMP JUMPDEST PUSH1 0x0 DUP2 DUP2 MSTORE PUSH1 0x4 PUSH1 0x20 MSTORE PUSH1 0x40 SWAP1 KECCAK256 DUP1 SLOAD PUSH1 0x1 PUSH1 0x1 PUSH1 0xA0 SHL SUB NOT AND PUSH1 0x1 PUSH1 0x1 PUSH1 0xA0 SHL SUB DUP5 AND SWAP1 DUP2 OR SWAP1 SWAP2 SSTORE DUP2 SWAP1 PUSH2 0x27E2 DUP3 PUSH2 0x179A JUMP JUMPDEST PUSH1 0x1 PUSH1 0x1 PUSH1 0xA0 SHL SUB AND PUSH32 0x8C5BE1E5EBEC7D5BD14F71427D1E84F3DD0314C0F7B2291E5B200AC8C7C3B925 PUSH1 0x40 MLOAD PUSH1 0x40 MLOAD DUP1 SWAP2 SUB SWAP1 LOG4 POP POP JUMP JUMPDEST PUSH1 0x0 DUP2 DUP2 MSTORE PUSH1 0x2 PUSH1 0x20 MSTORE PUSH1 0x40 DUP2 KECCAK256 SLOAD PUSH1 0x1 PUSH1 0x1 PUSH1 0xA0 SHL SUB AND PUSH2 0x2894 JUMPI PUSH1 0x40 MLOAD PUSH3 0x461BCD PUSH1 0xE5 SHL DUP2 MSTORE PUSH1 0x20 PUSH1 0x4 DUP3 ADD MSTORE PUSH1 0x2C PUSH1 0x24 DUP3 ADD MSTORE PUSH32 0x4552433732313A206F70657261746F7220717565727920666F72206E6F6E6578 PUSH1 0x44 DUP3 ADD MSTORE PUSH12 0x34B9BA32B73A103A37B5B2B7 PUSH1 0xA1 SHL PUSH1 0x64 DUP3 ADD MSTORE PUSH1 0x84 ADD PUSH2 0xC12 JUMP JUMPDEST PUSH1 0x0 PUSH2 0x289F DUP4 PUSH2 0x179A JUMP JUMPDEST SWAP1 POP DUP1 PUSH1 0x1 PUSH1 0x1 PUSH1 0xA0 SHL SUB AND DUP5 PUSH1 0x1 PUSH1 0x1 PUSH1 0xA0 SHL SUB AND EQ DUP1 PUSH2 0x28DA JUMPI POP DUP4 PUSH1 0x1 PUSH1 0x1 PUSH1 0xA0 SHL SUB AND PUSH2 0x28CF DUP5 PUSH2 0xB9D JUMP JUMPDEST PUSH1 0x1 PUSH1 0x1 PUSH1 0xA0 SHL SUB AND EQ JUMPDEST DUP1 PUSH2 0x290A JUMPI POP PUSH1 0x1 PUSH1 0x1 PUSH1 0xA0 SHL SUB DUP1 DUP3 AND PUSH1 0x0 SWAP1 DUP2 MSTORE PUSH1 0x5 PUSH1 0x20 SWAP1 DUP2 MSTORE PUSH1 0x40 DUP1 DUP4 KECCAK256 SWAP4 DUP9 AND DUP4 MSTORE SWAP3 SWAP1 MSTORE KECCAK256 SLOAD PUSH1 0xFF AND JUMPDEST SWAP5 SWAP4 POP POP POP POP JUMP JUMPDEST DUP3 PUSH1 0x1 PUSH1 0x1 PUSH1 0xA0 SHL SUB AND PUSH2 0x2925 DUP3 PUSH2 0x179A JUMP JUMPDEST PUSH1 0x1 PUSH1 0x1 PUSH1 0xA0 SHL SUB AND EQ PUSH2 0x298D JUMPI PUSH1 0x40 MLOAD PUSH3 0x461BCD PUSH1 0xE5 SHL DUP2 MSTORE PUSH1 0x20 PUSH1 0x4 DUP3 ADD MSTORE PUSH1 0x29 PUSH1 0x24 DUP3 ADD MSTORE PUSH32 0x4552433732313A207472616E73666572206F6620746F6B656E20746861742069 PUSH1 0x44 DUP3 ADD MSTORE PUSH9 0x39903737BA1037BBB7 PUSH1 0xB9 SHL PUSH1 0x64 DUP3 ADD MSTORE PUSH1 0x84 ADD PUSH2 0xC12 JUMP JUMPDEST PUSH1 0x1 PUSH1 0x1 PUSH1 0xA0 SHL SUB DUP3 AND PUSH2 0x29EF JUMPI PUSH1 0x40 MLOAD PUSH3 0x461BCD PUSH1 0xE5 SHL DUP2 MSTORE PUSH1 0x20 PUSH1 0x4 DUP3 ADD MSTORE PUSH1 0x24 DUP1 DUP3 ADD MSTORE PUSH32 0x4552433732313A207472616E7366657220746F20746865207A65726F20616464 PUSH1 0x44 DUP3 ADD MSTORE PUSH4 0x72657373 PUSH1 0xE0 SHL PUSH1 0x64 DUP3 ADD MSTORE PUSH1 0x84 ADD PUSH2 0xC12 JUMP JUMPDEST PUSH2 0x29FA DUP4 DUP4 DUP4 PUSH2 0x302C JUMP JUMPDEST PUSH2 0x2A05 PUSH1 0x0 DUP3 PUSH2 0x27AD JUMP JUMPDEST PUSH1 0x1 PUSH1 0x1 PUSH1 0xA0 SHL SUB DUP4 AND PUSH1 0x0 SWAP1 DUP2 MSTORE PUSH1 0x3 PUSH1 0x20 MSTORE PUSH1 0x40 DUP2 KECCAK256 DUP1 SLOAD PUSH1 0x1 SWAP3 SWAP1 PUSH2 0x2A2E SWAP1 DUP5 SWAP1 PUSH2 0x374E JUMP JUMPDEST SWAP1 SWAP2 SSTORE POP POP PUSH1 0x1 PUSH1 0x1 PUSH1 0xA0 SHL SUB DUP3 AND PUSH1 0x0 SWAP1 DUP2 MSTORE PUSH1 0x3 PUSH1 0x20 MSTORE PUSH1 0x40 DUP2 KECCAK256 DUP1 SLOAD PUSH1 0x1 SWAP3 SWAP1 PUSH2 0x2A5C SWAP1 DUP5 SWAP1 PUSH2 0x37FF JUMP JUMPDEST SWAP1 SWAP2 SSTORE POP POP PUSH1 0x0 DUP2 DUP2 MSTORE PUSH1 0x2 PUSH1 0x20 MSTORE PUSH1 0x40 DUP1 DUP3 KECCAK256 DUP1 SLOAD PUSH1 0x1 PUSH1 0x1 PUSH1 0xA0 SHL SUB NOT AND PUSH1 0x1 PUSH1 0x1 PUSH1 0xA0 SHL SUB DUP7 DUP2 AND SWAP2 DUP3 OR SWAP1 SWAP3 SSTORE SWAP2 MLOAD DUP5 SWAP4 SWAP2 DUP8 AND SWAP2 PUSH32 0xDDF252AD1BE2C89B69C2B068FC378DAA952BA7F163C4A11628F55A4DF523B3EF SWAP2 LOG4 POP POP POP JUMP JUMPDEST PUSH1 0x0 DUP3 PUSH2 0x2ACA DUP6 DUP5 PUSH2 0x304F JUMP JUMPDEST EQ SWAP5 SWAP4 POP POP POP POP JUMP JUMPDEST PUSH1 0x1 PUSH1 0x1 PUSH1 0xA0 SHL SUB DUP3 AND PUSH2 0x2B29 JUMPI PUSH1 0x40 MLOAD PUSH3 0x461BCD PUSH1 0xE5 SHL DUP2 MSTORE PUSH1 0x20 PUSH1 0x4 DUP3 ADD DUP2 SWAP1 MSTORE PUSH1 0x24 DUP3 ADD MSTORE PUSH32 0x4552433732313A206D696E7420746F20746865207A65726F2061646472657373 PUSH1 0x44 DUP3 ADD MSTORE PUSH1 0x64 ADD PUSH2 0xC12 JUMP JUMPDEST PUSH1 0x0 DUP2 DUP2 MSTORE PUSH1 0x2 PUSH1 0x20 MSTORE PUSH1 0x40 SWAP1 KECCAK256 SLOAD PUSH1 0x1 PUSH1 0x1 PUSH1 0xA0 SHL SUB AND ISZERO PUSH2 0x2B8E JUMPI PUSH1 0x40 MLOAD PUSH3 0x461BCD PUSH1 0xE5 SHL DUP2 MSTORE PUSH1 0x20 PUSH1 0x4 DUP3 ADD MSTORE PUSH1 0x1C PUSH1 0x24 DUP3 ADD MSTORE PUSH32 0x4552433732313A20746F6B656E20616C7265616479206D696E74656400000000 PUSH1 0x44 DUP3 ADD MSTORE PUSH1 0x64 ADD PUSH2 0xC12 JUMP JUMPDEST PUSH2 0x2B9A PUSH1 0x0 DUP4 DUP4 PUSH2 0x302C JUMP JUMPDEST PUSH1 0x1 PUSH1 0x1 PUSH1 0xA0 SHL SUB DUP3 AND PUSH1 0x0 SWAP1 DUP2 MSTORE PUSH1 0x3 PUSH1 0x20 MSTORE PUSH1 0x40 DUP2 KECCAK256 DUP1 SLOAD PUSH1 0x1 SWAP3 SWAP1 PUSH2 0x2BC3 SWAP1 DUP5 SWAP1 PUSH2 0x37FF JUMP JUMPDEST SWAP1 SWAP2 SSTORE POP POP PUSH1 0x0 DUP2 DUP2 MSTORE PUSH1 0x2 PUSH1 0x20 MSTORE PUSH1 0x40 DUP1 DUP3 KECCAK256 DUP1 SLOAD PUSH1 0x1 PUSH1 0x1 PUSH1 0xA0 SHL SUB NOT AND PUSH1 0x1 PUSH1 0x1 PUSH1 0xA0 SHL SUB DUP7 AND SWAP1 DUP2 OR SWAP1 SWAP2 SSTORE SWAP1 MLOAD DUP4 SWAP3 SWAP1 PUSH32 0xDDF252AD1BE2C89B69C2B068FC378DAA952BA7F163C4A11628F55A4DF523B3EF SWAP1 DUP3 SWAP1 LOG4 POP POP JUMP JUMPDEST PUSH1 0x0 PUSH2 0x2C2D DUP3 DUP5 PUSH2 0x37B6 JUMP JUMPDEST SWAP4 SWAP3 POP POP POP JUMP JUMPDEST PUSH1 0x0 PUSH2 0x2C2D DUP3 DUP5 PUSH2 0x3968 JUMP JUMPDEST PUSH1 0x6 SLOAD PUSH1 0xFF AND PUSH2 0x2C89 JUMPI PUSH1 0x40 MLOAD PUSH3 0x461BCD PUSH1 0xE5 SHL DUP2 MSTORE PUSH1 0x20 PUSH1 0x4 DUP3 ADD MSTORE PUSH1 0x14 PUSH1 0x24 DUP3 ADD MSTORE PUSH20 0x14185D5CD8589B194E881B9BDD081C185D5CD959 PUSH1 0x62 SHL PUSH1 0x44 DUP3 ADD MSTORE PUSH1 0x64 ADD PUSH2 0xC12 JUMP JUMPDEST PUSH1 0x6 DUP1 SLOAD PUSH1 0xFF NOT AND SWAP1 SSTORE PUSH32 0x5DB9EE0A495BF2E6FF9C91A7834C1BA4FDD244A5E8AA4E537BD38AEAE4B073AA CALLER JUMPDEST PUSH1 0x40 MLOAD PUSH1 0x1 PUSH1 0x1 PUSH1 0xA0 SHL SUB SWAP1 SWAP2 AND DUP2 MSTORE PUSH1 0x20 ADD PUSH1 0x40 MLOAD DUP1 SWAP2 SUB SWAP1 LOG1 JUMP JUMPDEST PUSH1 0x0 PUSH2 0x2CDE DUP3 PUSH2 0x179A JUMP JUMPDEST SWAP1 POP PUSH2 0x2CEC DUP2 PUSH1 0x0 DUP5 PUSH2 0x302C JUMP JUMPDEST PUSH2 0x2CF7 PUSH1 0x0 DUP4 PUSH2 0x27AD JUMP JUMPDEST PUSH1 0x1 PUSH1 0x1 PUSH1 0xA0 SHL SUB DUP2 AND PUSH1 0x0 SWAP1 DUP2 MSTORE PUSH1 0x3 PUSH1 0x20 MSTORE PUSH1 0x40 DUP2 KECCAK256 DUP1 SLOAD PUSH1 0x1 SWAP3 SWAP1 PUSH2 0x2D20 SWAP1 DUP5 SWAP1 PUSH2 0x374E JUMP JUMPDEST SWAP1 SWAP2 SSTORE POP POP PUSH1 0x0 DUP3 DUP2 MSTORE PUSH1 0x2 PUSH1 0x20 MSTORE PUSH1 0x40 DUP1 DUP3 KECCAK256 DUP1 SLOAD PUSH1 0x1 PUSH1 0x1 PUSH1 0xA0 SHL SUB NOT AND SWAP1 SSTORE MLOAD DUP4 SWAP2 SWAP1 PUSH1 0x1 PUSH1 0x1 PUSH1 0xA0 SHL SUB DUP5 AND SWAP1 PUSH32 0xDDF252AD1BE2C89B69C2B068FC378DAA952BA7F163C4A11628F55A4DF523B3EF SWAP1 DUP4 SWAP1 LOG4 POP POP JUMP JUMPDEST PUSH1 0x6 DUP1 SLOAD PUSH1 0x1 PUSH1 0x1 PUSH1 0xA0 SHL SUB DUP4 DUP2 AND PUSH2 0x100 DUP2 DUP2 MUL PUSH2 0x100 PUSH1 0x1 PUSH1 0xA8 SHL SUB NOT DUP6 AND OR SWAP1 SWAP5 SSTORE PUSH1 0x40 MLOAD SWAP4 SWAP1 SWAP3 DIV AND SWAP2 DUP3 SWAP1 PUSH32 0x8BE0079C531659141344CD1FD0A4F28419497F9722A3DAAFE3B4186F6B6457E0 SWAP1 PUSH1 0x0 SWAP1 LOG3 POP POP JUMP JUMPDEST PUSH1 0x6 SLOAD PUSH1 0xFF AND ISZERO PUSH2 0x2DF7 JUMPI PUSH1 0x40 MLOAD PUSH3 0x461BCD PUSH1 0xE5 SHL DUP2 MSTORE PUSH1 0x4 ADD PUSH2 0xC12 SWAP1 PUSH2 0x37D5 JUMP JUMPDEST PUSH1 0x6 DUP1 SLOAD PUSH1 0xFF NOT AND PUSH1 0x1 OR SWAP1 SSTORE PUSH32 0x62E78CEA01BEE320CD4E420270B5EA74000D11B0C9F74754EBDBFC544B05A258 PUSH2 0x2CB6 CALLER SWAP1 JUMP JUMPDEST DUP2 PUSH1 0x1 PUSH1 0x1 PUSH1 0xA0 SHL SUB AND DUP4 PUSH1 0x1 PUSH1 0x1 PUSH1 0xA0 SHL SUB AND EQ ISZERO PUSH2 0x2E8E JUMPI PUSH1 0x40 MLOAD PUSH3 0x461BCD PUSH1 0xE5 SHL DUP2 MSTORE PUSH1 0x20 PUSH1 0x4 DUP3 ADD MSTORE PUSH1 0x19 PUSH1 0x24 DUP3 ADD MSTORE PUSH32 0x4552433732313A20617070726F766520746F2063616C6C657200000000000000 PUSH1 0x44 DUP3 ADD MSTORE PUSH1 0x64 ADD PUSH2 0xC12 JUMP JUMPDEST PUSH1 0x1 PUSH1 0x1 PUSH1 0xA0 SHL SUB DUP4 DUP2 AND PUSH1 0x0 DUP2 DUP2 MSTORE PUSH1 0x5 PUSH1 0x20 SWAP1 DUP2 MSTORE PUSH1 0x40 DUP1 DUP4 KECCAK256 SWAP5 DUP8 AND DUP1 DUP5 MSTORE SWAP5 DUP3 MSTORE SWAP2 DUP3 SWAP1 KECCAK256 DUP1 SLOAD PUSH1 0xFF NOT AND DUP7 ISZERO ISZERO SWAP1 DUP2 OR SWAP1 SWAP2 SSTORE SWAP2 MLOAD SWAP2 DUP3 MSTORE PUSH32 0x17307EAB39AB6107E8899845AD3D59BD9653F200F220920489CA2B5937696C31 SWAP2 ADD PUSH1 0x40 MLOAD DUP1 SWAP2 SUB SWAP1 LOG3 POP POP POP JUMP JUMPDEST PUSH2 0x2F06 DUP5 DUP5 DUP5 PUSH2 0x2912 JUMP JUMPDEST PUSH2 0x2F12 DUP5 DUP5 DUP5 DUP5 PUSH2 0x30FB JUMP JUMPDEST PUSH2 0x2149 JUMPI PUSH1 0x40 MLOAD PUSH3 0x461BCD PUSH1 0xE5 SHL DUP2 MSTORE PUSH1 0x4 ADD PUSH2 0xC12 SWAP1 PUSH2 0x397C JUMP JUMPDEST PUSH1 0x60 DUP2 PUSH2 0x2F52 JUMPI POP POP PUSH1 0x40 DUP1 MLOAD DUP1 DUP3 ADD SWAP1 SWAP2 MSTORE PUSH1 0x1 DUP2 MSTORE PUSH1 0x3 PUSH1 0xFC SHL PUSH1 0x20 DUP3 ADD MSTORE SWAP1 JUMP JUMPDEST DUP2 PUSH1 0x0 JUMPDEST DUP2 ISZERO PUSH2 0x2F7C JUMPI DUP1 PUSH2 0x2F66 DUP2 PUSH2 0x3817 JUMP JUMPDEST SWAP2 POP PUSH2 0x2F75 SWAP1 POP PUSH1 0xA DUP4 PUSH2 0x3968 JUMP JUMPDEST SWAP2 POP PUSH2 0x2F56 JUMP JUMPDEST PUSH1 0x0 DUP2 PUSH8 0xFFFFFFFFFFFFFFFF DUP2 GT ISZERO PUSH2 0x2F97 JUMPI PUSH2 0x2F97 PUSH2 0x338F JUMP JUMPDEST PUSH1 0x40 MLOAD SWAP1 DUP1 DUP3 MSTORE DUP1 PUSH1 0x1F ADD PUSH1 0x1F NOT AND PUSH1 0x20 ADD DUP3 ADD PUSH1 0x40 MSTORE DUP1 ISZERO PUSH2 0x2FC1 JUMPI PUSH1 0x20 DUP3 ADD DUP2 DUP1 CALLDATASIZE DUP4 CALLDATACOPY ADD SWAP1 POP JUMPDEST POP SWAP1 POP JUMPDEST DUP5 ISZERO PUSH2 0x290A JUMPI PUSH2 0x2FD6 PUSH1 0x1 DUP4 PUSH2 0x374E JUMP JUMPDEST SWAP2 POP PUSH2 0x2FE3 PUSH1 0xA DUP7 PUSH2 0x39CE JUMP JUMPDEST PUSH2 0x2FEE SWAP1 PUSH1 0x30 PUSH2 0x37FF JUMP JUMPDEST PUSH1 0xF8 SHL DUP2 DUP4 DUP2 MLOAD DUP2 LT PUSH2 0x3003 JUMPI PUSH2 0x3003 PUSH2 0x391C JUMP JUMPDEST PUSH1 0x20 ADD ADD SWAP1 PUSH1 0x1 PUSH1 0x1 PUSH1 0xF8 SHL SUB NOT AND SWAP1 DUP2 PUSH1 0x0 BYTE SWAP1 MSTORE8 POP PUSH2 0x3025 PUSH1 0xA DUP7 PUSH2 0x3968 JUMP JUMPDEST SWAP5 POP PUSH2 0x2FC5 JUMP JUMPDEST PUSH1 0x6 SLOAD PUSH1 0xFF AND ISZERO PUSH2 0xD48 JUMPI PUSH1 0x40 MLOAD PUSH3 0x461BCD PUSH1 0xE5 SHL DUP2 MSTORE PUSH1 0x4 ADD PUSH2 0xC12 SWAP1 PUSH2 0x37D5 JUMP JUMPDEST PUSH1 0x0 DUP2 DUP2 JUMPDEST DUP5 MLOAD DUP2 LT ISZERO PUSH2 0x30F3 JUMPI PUSH1 0x0 DUP6 DUP3 DUP2 MLOAD DUP2 LT PUSH2 0x3071 JUMPI PUSH2 0x3071 PUSH2 0x391C JUMP JUMPDEST PUSH1 0x20 MUL PUSH1 0x20 ADD ADD MLOAD SWAP1 POP DUP1 DUP4 GT PUSH2 0x30B3 JUMPI PUSH1 0x40 DUP1 MLOAD PUSH1 0x20 DUP2 ADD DUP6 SWAP1 MSTORE SWAP1 DUP2 ADD DUP3 SWAP1 MSTORE PUSH1 0x60 ADD PUSH1 0x40 MLOAD PUSH1 0x20 DUP2 DUP4 SUB SUB DUP2 MSTORE SWAP1 PUSH1 0x40 MSTORE DUP1 MLOAD SWAP1 PUSH1 0x20 ADD KECCAK256 SWAP3 POP PUSH2 0x30E0 JUMP JUMPDEST PUSH1 0x40 DUP1 MLOAD PUSH1 0x20 DUP2 ADD DUP4 SWAP1 MSTORE SWAP1 DUP2 ADD DUP5 SWAP1 MSTORE PUSH1 0x60 ADD PUSH1 0x40 MLOAD PUSH1 0x20 DUP2 DUP4 SUB SUB DUP2 MSTORE SWAP1 PUSH1 0x40 MSTORE DUP1 MLOAD SWAP1 PUSH1 0x20 ADD KECCAK256 SWAP3 POP JUMPDEST POP DUP1 PUSH2 0x30EB DUP2 PUSH2 0x3817 JUMP JUMPDEST SWAP2 POP POP PUSH2 0x3054 JUMP JUMPDEST POP SWAP4 SWAP3 POP POP POP JUMP JUMPDEST PUSH1 0x0 PUSH1 0x1 PUSH1 0x1 PUSH1 0xA0 SHL SUB DUP5 AND EXTCODESIZE ISZERO PUSH2 0x31EE JUMPI PUSH1 0x40 MLOAD PUSH4 0xA85BD01 PUSH1 0xE1 SHL DUP2 MSTORE PUSH1 0x1 PUSH1 0x1 PUSH1 0xA0 SHL SUB DUP6 AND SWAP1 PUSH4 0x150B7A02 SWAP1 PUSH2 0x313F SWAP1 CALLER SWAP1 DUP10 SWAP1 DUP9 SWAP1 DUP9 SWAP1 PUSH1 0x4 ADD PUSH2 0x39E2 JUMP JUMPDEST PUSH1 0x20 PUSH1 0x40 MLOAD DUP1 DUP4 SUB DUP2 PUSH1 0x0 DUP8 GAS CALL SWAP3 POP POP POP DUP1 ISZERO PUSH2 0x317A JUMPI POP PUSH1 0x40 DUP1 MLOAD PUSH1 0x1F RETURNDATASIZE SWAP1 DUP2 ADD PUSH1 0x1F NOT AND DUP3 ADD SWAP1 SWAP3 MSTORE PUSH2 0x3177 SWAP2 DUP2 ADD SWAP1 PUSH2 0x3A1F JUMP JUMPDEST PUSH1 0x1 JUMPDEST PUSH2 0x31D4 JUMPI RETURNDATASIZE DUP1 DUP1 ISZERO PUSH2 0x31A8 JUMPI PUSH1 0x40 MLOAD SWAP2 POP PUSH1 0x1F NOT PUSH1 0x3F RETURNDATASIZE ADD AND DUP3 ADD PUSH1 0x40 MSTORE RETURNDATASIZE DUP3 MSTORE RETURNDATASIZE PUSH1 0x0 PUSH1 0x20 DUP5 ADD RETURNDATACOPY PUSH2 0x31AD JUMP JUMPDEST PUSH1 0x60 SWAP2 POP JUMPDEST POP DUP1 MLOAD PUSH2 0x31CC JUMPI PUSH1 0x40 MLOAD PUSH3 0x461BCD PUSH1 0xE5 SHL DUP2 MSTORE PUSH1 0x4 ADD PUSH2 0xC12 SWAP1 PUSH2 0x397C JUMP JUMPDEST DUP1 MLOAD DUP2 PUSH1 0x20 ADD REVERT JUMPDEST PUSH1 0x1 PUSH1 0x1 PUSH1 0xE0 SHL SUB NOT AND PUSH4 0xA85BD01 PUSH1 0xE1 SHL EQ SWAP1 POP PUSH2 0x290A JUMP JUMPDEST POP PUSH1 0x1 SWAP5 SWAP4 POP POP POP POP JUMP JUMPDEST DUP3 DUP1 SLOAD PUSH2 0x3205 SWAP1 PUSH2 0x36C8 JUMP JUMPDEST SWAP1 PUSH1 0x0 MSTORE PUSH1 0x20 PUSH1 0x0 KECCAK256 SWAP1 PUSH1 0x1F ADD PUSH1 0x20 SWAP1 DIV DUP2 ADD SWAP3 DUP3 PUSH2 0x3227 JUMPI PUSH1 0x0 DUP6 SSTORE PUSH2 0x326D JUMP JUMPDEST DUP3 PUSH1 0x1F LT PUSH2 0x3240 JUMPI DUP1 MLOAD PUSH1 0xFF NOT AND DUP4 DUP1 ADD OR DUP6 SSTORE PUSH2 0x326D JUMP JUMPDEST DUP3 DUP1 ADD PUSH1 0x1 ADD DUP6 SSTORE DUP3 ISZERO PUSH2 0x326D JUMPI SWAP2 DUP3 ADD JUMPDEST DUP3 DUP2 GT ISZERO PUSH2 0x326D JUMPI DUP3 MLOAD DUP3 SSTORE SWAP2 PUSH1 0x20 ADD SWAP2 SWAP1 PUSH1 0x1 ADD SWAP1 PUSH2 0x3252 JUMP JUMPDEST POP PUSH2 0x3279 SWAP3 SWAP2 POP PUSH2 0x327D JUMP JUMPDEST POP SWAP1 JUMP JUMPDEST JUMPDEST DUP1 DUP3 GT ISZERO PUSH2 0x3279 JUMPI PUSH1 0x0 DUP2 SSTORE PUSH1 0x1 ADD PUSH2 0x327E JUMP JUMPDEST PUSH1 0x1 PUSH1 0x1 PUSH1 0xE0 SHL SUB NOT DUP2 AND DUP2 EQ PUSH2 0x16BA JUMPI PUSH1 0x0 DUP1 REVERT JUMPDEST PUSH1 0x0 PUSH1 0x20 DUP3 DUP5 SUB SLT ISZERO PUSH2 0x32BA JUMPI PUSH1 0x0 DUP1 REVERT JUMPDEST DUP2 CALLDATALOAD PUSH2 0x2C2D DUP2 PUSH2 0x3292 JUMP JUMPDEST PUSH1 0x0 JUMPDEST DUP4 DUP2 LT ISZERO PUSH2 0x32E0 JUMPI DUP2 DUP2 ADD MLOAD DUP4 DUP3 ADD MSTORE PUSH1 0x20 ADD PUSH2 0x32C8 JUMP JUMPDEST DUP4 DUP2 GT ISZERO PUSH2 0x2149 JUMPI POP POP PUSH1 0x0 SWAP2 ADD MSTORE JUMP JUMPDEST PUSH1 0x0 DUP2 MLOAD DUP1 DUP5 MSTORE PUSH2 0x3309 DUP2 PUSH1 0x20 DUP7 ADD PUSH1 0x20 DUP7 ADD PUSH2 0x32C5 JUMP JUMPDEST PUSH1 0x1F ADD PUSH1 0x1F NOT AND SWAP3 SWAP1 SWAP3 ADD PUSH1 0x20 ADD SWAP3 SWAP2 POP POP JUMP JUMPDEST PUSH1 0x20 DUP2 MSTORE PUSH1 0x0 PUSH2 0x2C2D PUSH1 0x20 DUP4 ADD DUP5 PUSH2 0x32F1 JUMP JUMPDEST PUSH1 0x0 PUSH1 0x20 DUP3 DUP5 SUB SLT ISZERO PUSH2 0x3342 JUMPI PUSH1 0x0 DUP1 REVERT JUMPDEST POP CALLDATALOAD SWAP2 SWAP1 POP JUMP JUMPDEST DUP1 CALLDATALOAD PUSH1 0x1 PUSH1 0x1 PUSH1 0xA0 SHL SUB DUP2 AND DUP2 EQ PUSH2 0x3360 JUMPI PUSH1 0x0 DUP1 REVERT JUMPDEST SWAP2 SWAP1 POP JUMP JUMPDEST PUSH1 0x0 DUP1 PUSH1 0x40 DUP4 DUP6 SUB SLT ISZERO PUSH2 0x3378 JUMPI PUSH1 0x0 DUP1 REVERT JUMPDEST PUSH2 0x3381 DUP4 PUSH2 0x3349 JUMP JUMPDEST SWAP5 PUSH1 0x20 SWAP4 SWAP1 SWAP4 ADD CALLDATALOAD SWAP4 POP POP POP JUMP JUMPDEST PUSH4 0x4E487B71 PUSH1 0xE0 SHL PUSH1 0x0 MSTORE PUSH1 0x41 PUSH1 0x4 MSTORE PUSH1 0x24 PUSH1 0x0 REVERT JUMPDEST PUSH1 0x0 PUSH8 0xFFFFFFFFFFFFFFFF DUP1 DUP5 GT ISZERO PUSH2 0x33C0 JUMPI PUSH2 0x33C0 PUSH2 0x338F JUMP JUMPDEST PUSH1 0x40 MLOAD PUSH1 0x1F DUP6 ADD PUSH1 0x1F NOT SWAP1 DUP2 AND PUSH1 0x3F ADD AND DUP2 ADD SWAP1 DUP3 DUP3 GT DUP2 DUP4 LT OR ISZERO PUSH2 0x33E8 JUMPI PUSH2 0x33E8 PUSH2 0x338F JUMP JUMPDEST DUP2 PUSH1 0x40 MSTORE DUP1 SWAP4 POP DUP6 DUP2 MSTORE DUP7 DUP7 DUP7 ADD GT ISZERO PUSH2 0x3401 JUMPI PUSH1 0x0 DUP1 REVERT JUMPDEST DUP6 DUP6 PUSH1 0x20 DUP4 ADD CALLDATACOPY PUSH1 0x0 PUSH1 0x20 DUP8 DUP4 ADD ADD MSTORE POP POP POP SWAP4 SWAP3 POP POP POP JUMP JUMPDEST PUSH1 0x0 PUSH1 0x20 DUP3 DUP5 SUB SLT ISZERO PUSH2 0x342D JUMPI PUSH1 0x0 DUP1 REVERT JUMPDEST DUP2 CALLDATALOAD PUSH8 0xFFFFFFFFFFFFFFFF DUP2 GT ISZERO PUSH2 0x3444 JUMPI PUSH1 0x0 DUP1 REVERT JUMPDEST DUP3 ADD PUSH1 0x1F DUP2 ADD DUP5 SGT PUSH2 0x3455 JUMPI PUSH1 0x0 DUP1 REVERT JUMPDEST PUSH2 0x290A DUP5 DUP3 CALLDATALOAD PUSH1 0x20 DUP5 ADD PUSH2 0x33A5 JUMP JUMPDEST PUSH1 0x0 DUP1 PUSH1 0x0 PUSH1 0x60 DUP5 DUP7 SUB SLT ISZERO PUSH2 0x3479 JUMPI PUSH1 0x0 DUP1 REVERT JUMPDEST PUSH2 0x3482 DUP5 PUSH2 0x3349 JUMP JUMPDEST SWAP3 POP PUSH2 0x3490 PUSH1 0x20 DUP6 ADD PUSH2 0x3349 JUMP JUMPDEST SWAP2 POP PUSH1 0x40 DUP5 ADD CALLDATALOAD SWAP1 POP SWAP3 POP SWAP3 POP SWAP3 JUMP JUMPDEST PUSH1 0x0 DUP1 PUSH1 0x20 DUP4 DUP6 SUB SLT ISZERO PUSH2 0x34B3 JUMPI PUSH1 0x0 DUP1 REVERT JUMPDEST DUP3 CALLDATALOAD PUSH8 0xFFFFFFFFFFFFFFFF DUP1 DUP3 GT ISZERO PUSH2 0x34CB JUMPI PUSH1 0x0 DUP1 REVERT JUMPDEST DUP2 DUP6 ADD SWAP2 POP DUP6 PUSH1 0x1F DUP4 ADD SLT PUSH2 0x34DF JUMPI PUSH1 0x0 DUP1 REVERT JUMPDEST DUP2 CALLDATALOAD DUP2 DUP2 GT ISZERO PUSH2 0x34EE JUMPI PUSH1 0x0 DUP1 REVERT JUMPDEST DUP7 PUSH1 0x20 DUP3 PUSH1 0x5 SHL DUP6 ADD ADD GT ISZERO PUSH2 0x3503 JUMPI PUSH1 0x0 DUP1 REVERT JUMPDEST PUSH1 0x20 SWAP3 SWAP1 SWAP3 ADD SWAP7 SWAP2 SWAP6 POP SWAP1 SWAP4 POP POP POP POP JUMP JUMPDEST DUP1 CALLDATALOAD PUSH1 0xFF DUP2 AND DUP2 EQ PUSH2 0x3360 JUMPI PUSH1 0x0 DUP1 REVERT JUMPDEST PUSH1 0x0 PUSH1 0x20 DUP3 DUP5 SUB SLT ISZERO PUSH2 0x3538 JUMPI PUSH1 0x0 DUP1 REVERT JUMPDEST PUSH2 0x2C2D DUP3 PUSH2 0x3515 JUMP JUMPDEST PUSH1 0x0 PUSH1 0x20 DUP3 DUP5 SUB SLT ISZERO PUSH2 0x3553 JUMPI PUSH1 0x0 DUP1 REVERT JUMPDEST PUSH2 0x2C2D DUP3 PUSH2 0x3349 JUMP JUMPDEST PUSH1 0x0 DUP1 PUSH1 0x40 DUP4 DUP6 SUB SLT ISZERO PUSH2 0x356F JUMPI PUSH1 0x0 DUP1 REVERT JUMPDEST PUSH2 0x3578 DUP4 PUSH2 0x3349 JUMP JUMPDEST SWAP2 POP PUSH1 0x20 DUP4 ADD CALLDATALOAD DUP1 ISZERO ISZERO DUP2 EQ PUSH2 0x358D JUMPI PUSH1 0x0 DUP1 REVERT JUMPDEST DUP1 SWAP2 POP POP SWAP3 POP SWAP3 SWAP1 POP JUMP JUMPDEST PUSH1 0x0 DUP1 PUSH1 0x40 DUP4 DUP6 SUB SLT ISZERO PUSH2 0x35AB JUMPI PUSH1 0x0 DUP1 REVERT JUMPDEST PUSH2 0x35B4 DUP4 PUSH2 0x3515 JUMP JUMPDEST SWAP2 POP PUSH2 0x35C2 PUSH1 0x20 DUP5 ADD PUSH2 0x3349 JUMP JUMPDEST SWAP1 POP SWAP3 POP SWAP3 SWAP1 POP JUMP JUMPDEST PUSH1 0x0 DUP1 PUSH1 0x0 DUP1 PUSH1 0x80 DUP6 DUP8 SUB SLT ISZERO PUSH2 0x35E1 JUMPI PUSH1 0x0 DUP1 REVERT JUMPDEST PUSH2 0x35EA DUP6 PUSH2 0x3349 JUMP JUMPDEST SWAP4 POP PUSH2 0x35F8 PUSH1 0x20 DUP7 ADD PUSH2 0x3349 JUMP JUMPDEST SWAP3 POP PUSH1 0x40 DUP6 ADD CALLDATALOAD SWAP2 POP PUSH1 0x60 DUP6 ADD CALLDATALOAD PUSH8 0xFFFFFFFFFFFFFFFF DUP2 GT ISZERO PUSH2 0x361B JUMPI PUSH1 0x0 DUP1 REVERT JUMPDEST DUP6 ADD PUSH1 0x1F DUP2 ADD DUP8 SGT PUSH2 0x362C JUMPI PUSH1 0x0 DUP1 REVERT JUMPDEST PUSH2 0x363B DUP8 DUP3 CALLDATALOAD PUSH1 0x20 DUP5 ADD PUSH2 0x33A5 JUMP JUMPDEST SWAP2 POP POP SWAP3 SWAP6 SWAP2 SWAP5 POP SWAP3 POP JUMP JUMPDEST PUSH1 0x0 DUP1 PUSH1 0x40 DUP4 DUP6 SUB SLT ISZERO PUSH2 0x365A JUMPI PUSH1 0x0 DUP1 REVERT JUMPDEST PUSH2 0x35B4 DUP4 PUSH2 0x3349 JUMP JUMPDEST PUSH1 0x0 DUP1 PUSH1 0x0 DUP1 PUSH1 0x0 PUSH1 0xA0 DUP7 DUP9 SUB SLT ISZERO PUSH2 0x367B JUMPI PUSH1 0x0 DUP1 REVERT JUMPDEST PUSH2 0x3684 DUP7 PUSH2 0x3349 JUMP JUMPDEST SWAP5 POP PUSH2 0x3692 PUSH1 0x20 DUP8 ADD PUSH2 0x3349 JUMP JUMPDEST SWAP4 POP PUSH2 0x36A0 PUSH1 0x40 DUP8 ADD PUSH2 0x3349 JUMP JUMPDEST SWAP3 POP PUSH2 0x36AE PUSH1 0x60 DUP8 ADD PUSH2 0x3349 JUMP JUMPDEST SWAP2 POP PUSH2 0x36BC PUSH1 0x80 DUP8 ADD PUSH2 0x3349 JUMP JUMPDEST SWAP1 POP SWAP3 SWAP6 POP SWAP3 SWAP6 SWAP1 SWAP4 POP JUMP JUMPDEST PUSH1 0x1 DUP2 DUP2 SHR SWAP1 DUP3 AND DUP1 PUSH2 0x36DC JUMPI PUSH1 0x7F DUP3 AND SWAP2 POP JUMPDEST PUSH1 0x20 DUP3 LT DUP2 EQ ISZERO PUSH2 0x36FD JUMPI PUSH4 0x4E487B71 PUSH1 0xE0 SHL PUSH1 0x0 MSTORE PUSH1 0x22 PUSH1 0x4 MSTORE PUSH1 0x24 PUSH1 0x0 REVERT JUMPDEST POP SWAP2 SWAP1 POP JUMP JUMPDEST PUSH1 0x20 DUP1 DUP3 MSTORE DUP2 DUP2 ADD MSTORE PUSH32 0x4F776E61626C653A2063616C6C6572206973206E6F7420746865206F776E6572 PUSH1 0x40 DUP3 ADD MSTORE PUSH1 0x60 ADD SWAP1 JUMP JUMPDEST PUSH4 0x4E487B71 PUSH1 0xE0 SHL PUSH1 0x0 MSTORE PUSH1 0x11 PUSH1 0x4 MSTORE PUSH1 0x24 PUSH1 0x0 REVERT JUMPDEST PUSH1 0x0 DUP3 DUP3 LT ISZERO PUSH2 0x3760 JUMPI PUSH2 0x3760 PUSH2 0x3738 JUMP JUMPDEST POP SUB SWAP1 JUMP JUMPDEST PUSH1 0x20 DUP1 DUP3 MSTORE PUSH1 0x31 SWAP1 DUP3 ADD MSTORE PUSH32 0x4552433732313A207472616E736665722063616C6C6572206973206E6F74206F PUSH1 0x40 DUP3 ADD MSTORE PUSH17 0x1DDB995C881B9BDC88185C1C1C9BDD9959 PUSH1 0x7A SHL PUSH1 0x60 DUP3 ADD MSTORE PUSH1 0x80 ADD SWAP1 JUMP JUMPDEST PUSH1 0x0 DUP2 PUSH1 0x0 NOT DIV DUP4 GT DUP3 ISZERO ISZERO AND ISZERO PUSH2 0x37D0 JUMPI PUSH2 0x37D0 PUSH2 0x3738 JUMP JUMPDEST POP MUL SWAP1 JUMP JUMPDEST PUSH1 0x20 DUP1 DUP3 MSTORE PUSH1 0x10 SWAP1 DUP3 ADD MSTORE PUSH16 0x14185D5CD8589B194E881C185D5CD959 PUSH1 0x82 SHL PUSH1 0x40 DUP3 ADD MSTORE PUSH1 0x60 ADD SWAP1 JUMP JUMPDEST PUSH1 0x0 DUP3 NOT DUP3 GT ISZERO PUSH2 0x3812 JUMPI PUSH2 0x3812 PUSH2 0x3738 JUMP JUMPDEST POP ADD SWAP1 JUMP JUMPDEST PUSH1 0x0 PUSH1 0x0 NOT DUP3 EQ ISZERO PUSH2 0x382B JUMPI PUSH2 0x382B PUSH2 0x3738 JUMP JUMPDEST POP PUSH1 0x1 ADD SWAP1 JUMP JUMPDEST DUP1 SLOAD PUSH1 0x0 SWAP1 PUSH1 0x1 DUP2 DUP2 SHR SWAP1 DUP1 DUP4 AND DUP1 PUSH2 0x384C JUMPI PUSH1 0x7F DUP4 AND SWAP3 POP JUMPDEST PUSH1 0x20 DUP1 DUP5 LT DUP3 EQ ISZERO PUSH2 0x386E JUMPI PUSH4 0x4E487B71 PUSH1 0xE0 SHL PUSH1 0x0 MSTORE PUSH1 0x22 PUSH1 0x4 MSTORE PUSH1 0x24 PUSH1 0x0 REVERT JUMPDEST DUP2 DUP1 ISZERO PUSH2 0x3882 JUMPI PUSH1 0x1 DUP2 EQ PUSH2 0x3893 JUMPI PUSH2 0x38C0 JUMP JUMPDEST PUSH1 0xFF NOT DUP7 AND DUP10 MSTORE DUP5 DUP10 ADD SWAP7 POP PUSH2 0x38C0 JUMP JUMPDEST PUSH1 0x0 DUP9 DUP2 MSTORE PUSH1 0x20 SWAP1 KECCAK256 PUSH1 0x0 JUMPDEST DUP7 DUP2 LT ISZERO PUSH2 0x38B8 JUMPI DUP2 SLOAD DUP12 DUP3 ADD MSTORE SWAP1 DUP6 ADD SWAP1 DUP4 ADD PUSH2 0x389F JUMP JUMPDEST POP POP DUP5 DUP10 ADD SWAP7 POP JUMPDEST POP POP POP POP POP POP SWAP3 SWAP2 POP POP JUMP JUMPDEST PUSH1 0x0 PUSH2 0x38D8 DUP3 DUP7 PUSH2 0x3832 JUMP JUMPDEST DUP5 MLOAD PUSH2 0x38E8 DUP2 DUP4 PUSH1 0x20 DUP10 ADD PUSH2 0x32C5 JUMP JUMPDEST PUSH2 0x38F4 DUP2 DUP4 ADD DUP7 PUSH2 0x3832 JUMP JUMPDEST SWAP8 SWAP7 POP POP POP POP POP POP POP JUMP JUMPDEST PUSH1 0x0 PUSH1 0xFF DUP3 AND DUP1 PUSH2 0x3912 JUMPI PUSH2 0x3912 PUSH2 0x3738 JUMP JUMPDEST PUSH1 0x0 NOT ADD SWAP3 SWAP2 POP POP JUMP JUMPDEST PUSH4 0x4E487B71 PUSH1 0xE0 SHL PUSH1 0x0 MSTORE PUSH1 0x32 PUSH1 0x4 MSTORE PUSH1 0x24 PUSH1 0x0 REVERT JUMPDEST PUSH1 0x0 PUSH1 0xFF DUP3 AND PUSH1 0xFF DUP2 EQ ISZERO PUSH2 0x3949 JUMPI PUSH2 0x3949 PUSH2 0x3738 JUMP JUMPDEST PUSH1 0x1 ADD SWAP3 SWAP2 POP POP JUMP JUMPDEST PUSH4 0x4E487B71 PUSH1 0xE0 SHL PUSH1 0x0 MSTORE PUSH1 0x12 PUSH1 0x4 MSTORE PUSH1 0x24 PUSH1 0x0 REVERT JUMPDEST PUSH1 0x0 DUP3 PUSH2 0x3977 JUMPI PUSH2 0x3977 PUSH2 0x3952 JUMP JUMPDEST POP DIV SWAP1 JUMP JUMPDEST PUSH1 0x20 DUP1 DUP3 MSTORE PUSH1 0x32 SWAP1 DUP3 ADD MSTORE PUSH32 0x4552433732313A207472616E7366657220746F206E6F6E204552433732315265 PUSH1 0x40 DUP3 ADD MSTORE PUSH18 0x31B2B4BB32B91034B6B83632B6B2B73A32B9 PUSH1 0x71 SHL PUSH1 0x60 DUP3 ADD MSTORE PUSH1 0x80 ADD SWAP1 JUMP JUMPDEST PUSH1 0x0 DUP3 PUSH2 0x39DD JUMPI PUSH2 0x39DD PUSH2 0x3952 JUMP JUMPDEST POP MOD SWAP1 JUMP JUMPDEST PUSH1 0x1 PUSH1 0x1 PUSH1 0xA0 SHL SUB DUP6 DUP2 AND DUP3 MSTORE DUP5 AND PUSH1 0x20 DUP3 ADD MSTORE PUSH1 0x40 DUP2 ADD DUP4 SWAP1 MSTORE PUSH1 0x80 PUSH1 0x60 DUP3 ADD DUP2 SWAP1 MSTORE PUSH1 0x0 SWAP1 PUSH2 0x3A15 SWAP1 DUP4 ADD DUP5 PUSH2 0x32F1 JUMP JUMPDEST SWAP7 SWAP6 POP POP POP POP POP POP JUMP JUMPDEST PUSH1 0x0 PUSH1 0x20 DUP3 DUP5 SUB SLT ISZERO PUSH2 0x3A31 JUMPI PUSH1 0x0 DUP1 REVERT JUMPDEST DUP2 MLOAD PUSH2 0x2C2D DUP2 PUSH2 0x3292 JUMP INVALID LOG2 PUSH5 0x6970667358 0x22 SLT KECCAK256 0xD6 SWAP7 0x5F GAS DUP8 0xB1 DUP4 0xE2 PUSH9 0xC6D5F9E24BDD4AF5AD 0xEF 0x5D 0xAE 0xBF SWAP1 0xC0 0xC8 PUSH23 0x534384C3C3ED64736F6C634300080A0033000000000000 ",
  "sha1": "24a1f1e1d57efe31c05d87512be14d87881e56a9",
  "source": "// SPDX-License-Identifier: MIT\npragma solidity ^0.8.10;\n\nimport '@openzeppelin/contracts/token/ERC721/ERC721.sol';\nimport '@openzeppelin/contracts/access/Ownable.sol';\nimport '@openzeppelin/contracts/security/ReentrancyGuard.sol';\nimport '@openzeppelin/contracts/utils/math/SafeMath.sol';\nimport '@openzeppelin/contracts/utils/Counters.sol';\nimport '@openzeppelin/contracts/security/Pausable.sol';\nimport '@openzeppelin/contracts/token/ERC721/extensions/ERC721Burnable.sol';\nimport '@openzeppelin/contracts/utils/cryptography/MerkleProof.sol';\n\ncontract CryptidToken is ERC721, Pausable, Ownable, ReentrancyGuard, ERC721Burnable{ \n    using Strings for uint256;\n    using SafeMath for uint256;\n    using Counters for Counters.Counter;\n    using MerkleProof for bytes32[];\n\n    Counters.Counter private _tokenIdCounter;\n    \n    bytes32 public merkleRoot;\n\n    string public provenanceHash;\n    string public baseURI = \"\";\n    string public baseExtension = \".json\";\n    uint8 private stage = 0;\n    uint8 public maxMintPerTx;     \n    bool public tokenURIFrozen = false;\n    bool public provenanceHashFrozen = false;\n\n    address public withdrawDest1 = 0x1953bc1fF76f5e61cD775A4482bd85BAc56aD1Eb; // trust\n    address public withdrawDest2 = 0x12B58f5331a6DC897932AA7FB5101667ACdf03e2; // founder 1\n    address public withdrawDest3 = 0x1953bc1fF76f5e61cD775A4482bd85BAc56aD1Eb; // founder 2\n    address public withdrawDest4 = 0x12B58f5331a6DC897932AA7FB5101667ACdf03e2; // founder 3\n    address public withdrawDest5 = 0x12B58f5331a6DC897932AA7FB5101667ACdf03e2; // founder 4\n    \n    // ~ Sale stages ~\n    // stage 0: Init\n    // stage 1: Airdrops for Trivia/Contest Winners\n    // stage 2: Whitelist\n    // stage 3: Team Mint \n    // stage 4: Public Sale\n\n    // Whitelist mint (stage=1)\n    uint256 public whitelistSupply;                       \n    mapping(address => bool) public claimed;              \n    \n    // Team Mint (stage=2)\n    uint256 public teamMintSupply;                          \n    uint256 public teamMintCount;\n\n    // Public Sale (stage=3)\n    uint256 public totalSaleSupply;         \n    uint256 public salePrice = 0.1 ether;  \n\n    constructor(\n        string memory _name,\n        string memory _symbol,\n        string memory _baseURI,\n        uint256 _whitelistSupply,\n        uint256 _teamMintSupply,\n        uint256 _totalSaleSupply,\n        uint8 _maxMintPerTx\n\n    )   ERC721(_name, _symbol) {\n        whitelistSupply = _whitelistSupply;\n        teamMintSupply = _teamMintSupply;\n        totalSaleSupply = _totalSaleSupply;\n        maxMintPerTx = _maxMintPerTx;\n        baseURI = _baseURI;\n        _tokenIdCounter.increment();\n    }\n\n    modifier isValidMerkleProof(bytes32[] calldata _proof, bytes32 _root) {\n        require(MerkleProof.verify(_proof, _root, keccak256(abi.encodePacked(msg.sender))), \"Address not in whitelist.\");\n        _;\n    }\n\n    modifier isCorrectPayment(uint256 _price, uint256 _numberOfTokens) {\n        require(_price * _numberOfTokens == msg.value, \"Incorrect ETH value sent.\");\n        _;\n    }\n\n    modifier callerIsUser() {\n        require(tx.origin == msg.sender, \"The caller is another contract.\");\n        _;\n    }\n\n    // Stage 1 - Airdrops \n    function airdropCryptid(\n        uint8 _mintAmount, \n        address _to\n    ) \n        public \n        onlyOwner \n    {\n        require(_mintAmount > 0, \"Airdrop amount must be greater than 0\");\n        require(totalSupply()  + _mintAmount <= totalSaleSupply, \"Mint amount will exceed total sale supply.\");\n        for (uint256 i = 1; i <= _mintAmount; i++) {\n            _mint(_to, _tokenIdCounter.current());\n            _tokenIdCounter.increment();\n        }\n    }\n\n    // Stage 2 - Whitelist Mint\n    function whitelistMint(\n        bytes32[] calldata _merkleProof\n    ) \n        public \n        payable \n        isValidMerkleProof(_merkleProof, merkleRoot) \n        isCorrectPayment(salePrice, 1) \n        callerIsUser\n        nonReentrant \n        whenNotPaused \n    {\n        require(stage == 2, \"Whitelist minting not initiated.\");\n        require(claimed[msg.sender] == false, \"Whitelist mint already claimed.\"); \n        require(totalSupply() + 1 <= whitelistSupply, \"Mint amount will exceed whitelist supply.\");\n        claimed[msg.sender] = true;\n        _mint(msg.sender, _tokenIdCounter.current());\n        _tokenIdCounter.increment();\n    }\n\n    // Stage 3 - Team Mint\n    function teamMint(\n        uint8 _mintAmount\n    ) \n        external \n        onlyOwner \n    {\n        require(stage == 3, \"Team sale not initiated.\");\n        require(_mintAmount + teamMintCount <= teamMintSupply, \"Transaction exceeds total team-sale supply\");      \n        teamMintCount += _mintAmount;\n        for (uint256 i = 1; i <= _mintAmount; i++) {\n            _mint(msg.sender, _tokenIdCounter.current());\n            _tokenIdCounter.increment();\n        }\n    }\n\n    // Stage 4 - Public Mint\n    function publicMint(\n        uint8 _mintAmount\n    ) \n        public \n        payable \n        isCorrectPayment(salePrice, _mintAmount) \n        callerIsUser\n        nonReentrant \n        whenNotPaused  \n    {\n        require(stage == 4, \"Public mint not initiaited.\");\n        require(totalSupply()  + _mintAmount <= totalSaleSupply, \"Transaction exceeds total sale supply\");\n        require(_mintAmount > 0, \"Mint amount must be greater than 0.\");\n        require(_mintAmount <= maxMintPerTx, \"Exceeds max allowed mints per transaction.\");  \n\n        for (uint256 i = 1; i <= _mintAmount; i++) {\n            _mint(msg.sender, _tokenIdCounter.current());\n            _tokenIdCounter.increment();\n        }\n    }\n\n    //Owner functions\n    function pause() public onlyOwner {\n        _pause();\n    }\n\n    function unpause() public onlyOwner {\n        _unpause();\n    }\n\n    // to be used in case of manual override\n    function overrideClaim(address _wlAddress) public onlyOwner{\n        claimed[_wlAddress] = true;\n    }\n\n    function setMerkleRoot(bytes32 _merkleRoot) public onlyOwner {\n        merkleRoot = _merkleRoot;\n    }\n\n    function setBaseURI(string memory _newBaseURI) public onlyOwner {\n        require(!tokenURIFrozen, \"BaseURI is frozen.\");\n        baseURI = _newBaseURI;\n    } \n    \n    function freezeBaseURI() public onlyOwner {\n        require(bytes(baseURI).length > 0, \"baseURI cannot be empty\");\n        require(!tokenURIFrozen, \"BaseURI is already frozen.\");\n        tokenURIFrozen = true;\n    }\n\n    function nextStage() public onlyOwner {\n        require(provenanceHashFrozen == true, \"Provenance hash must be frozen before minting can start.\");\n        require(merkleRoot[0] != 0, \"Merkle root must be set beefore whitelist minting can begin\");\n        require(stage < 4, \"No stages after public sale\");\n        stage++;\n    }\n\n    function prevStage() public onlyOwner {\n        require(stage > 0, \"No stages before 0.\");\n        stage--;\n    }\n\n    function setTeamMintSupply(uint256 _newTeamMintSupply) public onlyOwner {\n        teamMintSupply = _newTeamMintSupply;\n    }\n\n    function setBaseExtension(string memory _newBaseExtension) public onlyOwner {\n        baseExtension = _newBaseExtension;\n    }\n\n    function setPublicSalePrice(uint256 _newSalePrice) public onlyOwner {\n        salePrice = _newSalePrice;\n    }\n\n    function setMaxMintPerTx(uint8 _newmaxMintPerTx) public onlyOwner {\n        maxMintPerTx = _newmaxMintPerTx;\n    }\n\n    function setProvenanceHash(string memory _provenanceHash) public onlyOwner {\n        require(bytes(_provenanceHash).length > 0, \"Provenance hash cannot be empty string.\");\n        require(!provenanceHashFrozen, \"Provenance hash is frozen.\");\n        provenanceHash = _provenanceHash;\n    }\n\n    function freezeProvenanceHash() public onlyOwner {\n        require(bytes(provenanceHash).length > 0, \"Provenance hash cannot be empty.\");\n        require(!provenanceHashFrozen, \"Provenance hash is already frozen.\");\n        provenanceHashFrozen = true;\n    }\n\n    function setWithdrawAddress(address _dest1, address _dest2, address _dest3, address _dest4, address _dest5) public onlyOwner {\n        withdrawDest1 = _dest1;\n        withdrawDest2 = _dest2;\n        withdrawDest3 = _dest3;\n        withdrawDest4 = _dest4;\n        withdrawDest5 = _dest5;\n    }\n\n    function withdraw() public payable onlyOwner {\n        require(address(this).balance > 0, \"Contract balance is 0.\");\n        (bool ms, ) = payable(withdrawDest1).call{value: address(this).balance.mul(700).div(1000)}(\"\");\n        require(ms, \"withdrawl 1 failed\");\n        (bool ns, ) = payable(withdrawDest2).call{value: address(this).balance.mul(105).div(1000)}(\"\"); \n        require(ns, \"withdrawl 2 failed\");\n        (bool cr, ) = payable(withdrawDest3).call{value: address(this).balance.mul(105).div(1000)}(\"\"); \n        require(cr, \"withdrawl 3 failed\");\n        (bool sn, ) = payable(withdrawDest4).call{value: address(this).balance.mul(45).div(1000)}(\"\");\n        require(sn, \"withdrawl 4 failed\");\n        (bool gr, ) = payable(withdrawDest5).call{value: address(this).balance}(\"\");\n        require(gr, \"withdrawl 5 failed\");\n    }\n\n    // Public view functions\n    function lastMintAddress() public view returns (address){\n        require(totalSupply() > 0, \"No cryptid exists yet.\");\n        return ownerOf(totalSupply());\n    }\n\n    function lastMintID() public view returns (uint256){\n        require(totalSupply() > 0, \"No cryptid exists yet.\");\n        return(totalSupply());\n    }\n\n    function totalSupply() public view returns (uint256) {\n        return _tokenIdCounter.current() - 1;\n    }\n\n    function tokenURI(uint256 tokenId) public view virtual override returns (string memory) {\n        require(_exists(tokenId), \"ERC721Metadata: URI query for nonexistent token\");\n        return string(abi.encodePacked(baseURI, tokenId.toString(), baseExtension));\n    }\n\n    function getTokensLeft() public view returns (uint256) {\n        return totalSaleSupply - totalSupply();\n    }\n    \n    function getStage() public view returns (uint8) {\n        return stage;\n    }\n\n    function _beforeTokenTransfer(address from, address to, uint256 tokenId) internal whenNotPaused override(ERC721) {\n        super._beforeTokenTransfer(from, to, tokenId);\n    }\n\n}",
  "sourcePath": "contracts/CryptidToken.sol",
  "type": "contract"
}