{
  "abi": [
    {
      "inputs": [
        {
          "internalType": "string",
          "name": "_name",
          "type": "string"
        },
        {
          "internalType": "string",
          "name": "_symbol",
          "type": "string"
        },
        {
          "internalType": "string",
          "name": "_baseURI",
          "type": "string"
        },
        {
          "internalType": "uint256",
          "name": "_whitelistSupply",
          "type": "uint256"
        },
        {
          "internalType": "uint256",
          "name": "_teamMintSupply",
          "type": "uint256"
        },
        {
          "internalType": "uint256",
          "name": "_totalSaleSupply",
          "type": "uint256"
        },
        {
          "internalType": "uint256",
          "name": "_maxMintPerTx",
          "type": "uint256"
        }
      ],
      "stateMutability": "nonpayable",
      "type": "constructor"
    },
    {
      "anonymous": false,
      "inputs": [
        {
          "indexed": true,
          "internalType": "address",
          "name": "owner",
          "type": "address"
        },
        {
          "indexed": true,
          "internalType": "address",
          "name": "approved",
          "type": "address"
        },
        {
          "indexed": true,
          "internalType": "uint256",
          "name": "tokenId",
          "type": "uint256"
        }
      ],
      "name": "Approval",
      "type": "event"
    },
    {
      "anonymous": false,
      "inputs": [
        {
          "indexed": true,
          "internalType": "address",
          "name": "owner",
          "type": "address"
        },
        {
          "indexed": true,
          "internalType": "address",
          "name": "operator",
          "type": "address"
        },
        {
          "indexed": false,
          "internalType": "bool",
          "name": "approved",
          "type": "bool"
        }
      ],
      "name": "ApprovalForAll",
      "type": "event"
    },
    {
      "anonymous": false,
      "inputs": [
        {
          "indexed": true,
          "internalType": "address",
          "name": "previousOwner",
          "type": "address"
        },
        {
          "indexed": true,
          "internalType": "address",
          "name": "newOwner",
          "type": "address"
        }
      ],
      "name": "OwnershipTransferred",
      "type": "event"
    },
    {
      "anonymous": false,
      "inputs": [
        {
          "indexed": false,
          "internalType": "address",
          "name": "account",
          "type": "address"
        }
      ],
      "name": "Paused",
      "type": "event"
    },
    {
      "anonymous": false,
      "inputs": [
        {
          "indexed": true,
          "internalType": "address",
          "name": "from",
          "type": "address"
        },
        {
          "indexed": true,
          "internalType": "address",
          "name": "to",
          "type": "address"
        },
        {
          "indexed": true,
          "internalType": "uint256",
          "name": "tokenId",
          "type": "uint256"
        }
      ],
      "name": "Transfer",
      "type": "event"
    },
    {
      "anonymous": false,
      "inputs": [
        {
          "indexed": false,
          "internalType": "address",
          "name": "account",
          "type": "address"
        }
      ],
      "name": "Unpaused",
      "type": "event"
    },
    {
      "inputs": [
        {
          "internalType": "uint8",
          "name": "mintAmount",
          "type": "uint8"
        },
        {
          "internalType": "address",
          "name": "to",
          "type": "address"
        }
      ],
      "name": "airdropCryptid",
      "outputs": [],
      "stateMutability": "nonpayable",
      "type": "function"
    },
    {
      "inputs": [
        {
          "internalType": "address",
          "name": "to",
          "type": "address"
        },
        {
          "internalType": "uint256",
          "name": "tokenId",
          "type": "uint256"
        }
      ],
      "name": "approve",
      "outputs": [],
      "stateMutability": "nonpayable",
      "type": "function"
    },
    {
      "inputs": [
        {
          "internalType": "address",
          "name": "owner",
          "type": "address"
        }
      ],
      "name": "balanceOf",
      "outputs": [
        {
          "internalType": "uint256",
          "name": "",
          "type": "uint256"
        }
      ],
      "stateMutability": "view",
      "type": "function"
    },
    {
      "inputs": [],
      "name": "baseExtension",
      "outputs": [
        {
          "internalType": "string",
          "name": "",
          "type": "string"
        }
      ],
      "stateMutability": "view",
      "type": "function"
    },
    {
      "inputs": [],
      "name": "baseURI",
      "outputs": [
        {
          "internalType": "string",
          "name": "",
          "type": "string"
        }
      ],
      "stateMutability": "view",
      "type": "function"
    },
    {
      "inputs": [
        {
          "internalType": "address",
          "name": "",
          "type": "address"
        }
      ],
      "name": "claimed",
      "outputs": [
        {
          "internalType": "bool",
          "name": "",
          "type": "bool"
        }
      ],
      "stateMutability": "view",
      "type": "function"
    },
    {
      "inputs": [],
      "name": "freezeBaseURI",
      "outputs": [],
      "stateMutability": "nonpayable",
      "type": "function"
    },
    {
      "inputs": [],
      "name": "freezeProvenanceHash",
      "outputs": [],
      "stateMutability": "nonpayable",
      "type": "function"
    },
    {
      "inputs": [
        {
          "internalType": "uint256",
          "name": "tokenId",
          "type": "uint256"
        }
      ],
      "name": "getApproved",
      "outputs": [
        {
          "internalType": "address",
          "name": "",
          "type": "address"
        }
      ],
      "stateMutability": "view",
      "type": "function"
    },
    {
      "inputs": [],
      "name": "getTokensLeft",
      "outputs": [
        {
          "internalType": "uint256",
          "name": "",
          "type": "uint256"
        }
      ],
      "stateMutability": "view",
      "type": "function"
    },
    {
      "inputs": [
        {
          "internalType": "address",
          "name": "owner",
          "type": "address"
        },
        {
          "internalType": "address",
          "name": "operator",
          "type": "address"
        }
      ],
      "name": "isApprovedForAll",
      "outputs": [
        {
          "internalType": "bool",
          "name": "",
          "type": "bool"
        }
      ],
      "stateMutability": "view",
      "type": "function"
    },
    {
      "inputs": [],
      "name": "lastMintAddress",
      "outputs": [
        {
          "internalType": "address",
          "name": "",
          "type": "address"
        }
      ],
      "stateMutability": "view",
      "type": "function"
    },
    {
      "inputs": [],
      "name": "lastMintID",
      "outputs": [
        {
          "internalType": "uint256",
          "name": "",
          "type": "uint256"
        }
      ],
      "stateMutability": "view",
      "type": "function"
    },
    {
      "inputs": [],
      "name": "maxMintPerTx",
      "outputs": [
        {
          "internalType": "uint256",
          "name": "",
          "type": "uint256"
        }
      ],
      "stateMutability": "view",
      "type": "function"
    },
    {
      "inputs": [],
      "name": "merkleRoot",
      "outputs": [
        {
          "internalType": "bytes32",
          "name": "",
          "type": "bytes32"
        }
      ],
      "stateMutability": "view",
      "type": "function"
    },
    {
      "inputs": [],
      "name": "name",
      "outputs": [
        {
          "internalType": "string",
          "name": "",
          "type": "string"
        }
      ],
      "stateMutability": "view",
      "type": "function"
    },
    {
      "inputs": [],
      "name": "owner",
      "outputs": [
        {
          "internalType": "address",
          "name": "",
          "type": "address"
        }
      ],
      "stateMutability": "view",
      "type": "function"
    },
    {
      "inputs": [
        {
          "internalType": "uint256",
          "name": "tokenId",
          "type": "uint256"
        }
      ],
      "name": "ownerOf",
      "outputs": [
        {
          "internalType": "address",
          "name": "",
          "type": "address"
        }
      ],
      "stateMutability": "view",
      "type": "function"
    },
    {
      "inputs": [],
      "name": "pause",
      "outputs": [],
      "stateMutability": "nonpayable",
      "type": "function"
    },
    {
      "inputs": [],
      "name": "paused",
      "outputs": [
        {
          "internalType": "bool",
          "name": "",
          "type": "bool"
        }
      ],
      "stateMutability": "view",
      "type": "function"
    },
    {
      "inputs": [],
      "name": "provenanceHash",
      "outputs": [
        {
          "internalType": "string",
          "name": "",
          "type": "string"
        }
      ],
      "stateMutability": "view",
      "type": "function"
    },
    {
      "inputs": [],
      "name": "provenanceHashFrozen",
      "outputs": [
        {
          "internalType": "bool",
          "name": "",
          "type": "bool"
        }
      ],
      "stateMutability": "view",
      "type": "function"
    },
    {
      "inputs": [
        {
          "internalType": "uint256",
          "name": "mintAmount",
          "type": "uint256"
        }
      ],
      "name": "publicMint",
      "outputs": [],
      "stateMutability": "payable",
      "type": "function"
    },
    {
      "inputs": [],
      "name": "renounceOwnership",
      "outputs": [],
      "stateMutability": "nonpayable",
      "type": "function"
    },
    {
      "inputs": [
        {
          "internalType": "address",
          "name": "from",
          "type": "address"
        },
        {
          "internalType": "address",
          "name": "to",
          "type": "address"
        },
        {
          "internalType": "uint256",
          "name": "tokenId",
          "type": "uint256"
        }
      ],
      "name": "safeTransferFrom",
      "outputs": [],
      "stateMutability": "nonpayable",
      "type": "function"
    },
    {
      "inputs": [
        {
          "internalType": "address",
          "name": "from",
          "type": "address"
        },
        {
          "internalType": "address",
          "name": "to",
          "type": "address"
        },
        {
          "internalType": "uint256",
          "name": "tokenId",
          "type": "uint256"
        },
        {
          "internalType": "bytes",
          "name": "_data",
          "type": "bytes"
        }
      ],
      "name": "safeTransferFrom",
      "outputs": [],
      "stateMutability": "nonpayable",
      "type": "function"
    },
    {
      "inputs": [],
      "name": "salePrice",
      "outputs": [
        {
          "internalType": "uint256",
          "name": "",
          "type": "uint256"
        }
      ],
      "stateMutability": "view",
      "type": "function"
    },
    {
      "inputs": [
        {
          "internalType": "address",
          "name": "operator",
          "type": "address"
        },
        {
          "internalType": "bool",
          "name": "approved",
          "type": "bool"
        }
      ],
      "name": "setApprovalForAll",
      "outputs": [],
      "stateMutability": "nonpayable",
      "type": "function"
    },
    {
      "inputs": [
        {
          "internalType": "string",
          "name": "_newBaseExtension",
          "type": "string"
        }
      ],
      "name": "setBaseExtension",
      "outputs": [],
      "stateMutability": "nonpayable",
      "type": "function"
    },
    {
      "inputs": [
        {
          "internalType": "string",
          "name": "_newBaseURI",
          "type": "string"
        }
      ],
      "name": "setBaseURI",
      "outputs": [],
      "stateMutability": "nonpayable",
      "type": "function"
    },
    {
      "inputs": [
        {
          "internalType": "address",
          "name": "wlAddress",
          "type": "address"
        }
      ],
      "name": "setClaim",
      "outputs": [],
      "stateMutability": "nonpayable",
      "type": "function"
    },
    {
      "inputs": [
        {
          "internalType": "uint256",
          "name": "_maxMintPerTx",
          "type": "uint256"
        }
      ],
      "name": "setMaxMintPerTx",
      "outputs": [],
      "stateMutability": "nonpayable",
      "type": "function"
    },
    {
      "inputs": [
        {
          "internalType": "bytes32",
          "name": "_merkleRoot",
          "type": "bytes32"
        }
      ],
      "name": "setMerkleRoot",
      "outputs": [],
      "stateMutability": "nonpayable",
      "type": "function"
    },
    {
      "inputs": [
        {
          "internalType": "string",
          "name": "_provenanceHash",
          "type": "string"
        }
      ],
      "name": "setProvenanceHash",
      "outputs": [],
      "stateMutability": "nonpayable",
      "type": "function"
    },
    {
      "inputs": [
        {
          "internalType": "uint256",
          "name": "_salePrice",
          "type": "uint256"
        }
      ],
      "name": "setSalePrice",
      "outputs": [],
      "stateMutability": "nonpayable",
      "type": "function"
    },
    {
      "inputs": [
        {
          "internalType": "enum CryptidToken.Stage",
          "name": "_stage",
          "type": "uint8"
        }
      ],
      "name": "setStage",
      "outputs": [],
      "stateMutability": "nonpayable",
      "type": "function"
    },
    {
      "inputs": [
        {
          "internalType": "address",
          "name": "_withdrawlAddress",
          "type": "address"
        }
      ],
      "name": "setWithdrawlAddress",
      "outputs": [],
      "stateMutability": "nonpayable",
      "type": "function"
    },
    {
      "inputs": [],
      "name": "stage",
      "outputs": [
        {
          "internalType": "enum CryptidToken.Stage",
          "name": "",
          "type": "uint8"
        }
      ],
      "stateMutability": "view",
      "type": "function"
    },
    {
      "inputs": [
        {
          "internalType": "bytes4",
          "name": "interfaceId",
          "type": "bytes4"
        }
      ],
      "name": "supportsInterface",
      "outputs": [
        {
          "internalType": "bool",
          "name": "",
          "type": "bool"
        }
      ],
      "stateMutability": "view",
      "type": "function"
    },
    {
      "inputs": [],
      "name": "symbol",
      "outputs": [
        {
          "internalType": "string",
          "name": "",
          "type": "string"
        }
      ],
      "stateMutability": "view",
      "type": "function"
    },
    {
      "inputs": [
        {
          "internalType": "uint8",
          "name": "mintAmount",
          "type": "uint8"
        }
      ],
      "name": "teamMint",
      "outputs": [],
      "stateMutability": "nonpayable",
      "type": "function"
    },
    {
      "inputs": [],
      "name": "teamMintCount",
      "outputs": [
        {
          "internalType": "uint256",
          "name": "",
          "type": "uint256"
        }
      ],
      "stateMutability": "view",
      "type": "function"
    },
    {
      "inputs": [],
      "name": "teamMintSupply",
      "outputs": [
        {
          "internalType": "uint256",
          "name": "",
          "type": "uint256"
        }
      ],
      "stateMutability": "view",
      "type": "function"
    },
    {
      "inputs": [
        {
          "internalType": "uint256",
          "name": "index",
          "type": "uint256"
        }
      ],
      "name": "tokenByIndex",
      "outputs": [
        {
          "internalType": "uint256",
          "name": "",
          "type": "uint256"
        }
      ],
      "stateMutability": "view",
      "type": "function"
    },
    {
      "inputs": [
        {
          "internalType": "address",
          "name": "owner",
          "type": "address"
        },
        {
          "internalType": "uint256",
          "name": "index",
          "type": "uint256"
        }
      ],
      "name": "tokenOfOwnerByIndex",
      "outputs": [
        {
          "internalType": "uint256",
          "name": "",
          "type": "uint256"
        }
      ],
      "stateMutability": "view",
      "type": "function"
    },
    {
      "inputs": [
        {
          "internalType": "uint256",
          "name": "tokenId",
          "type": "uint256"
        }
      ],
      "name": "tokenURI",
      "outputs": [
        {
          "internalType": "string",
          "name": "",
          "type": "string"
        }
      ],
      "stateMutability": "view",
      "type": "function"
    },
    {
      "inputs": [],
      "name": "tokenURIFrozen",
      "outputs": [
        {
          "internalType": "bool",
          "name": "",
          "type": "bool"
        }
      ],
      "stateMutability": "view",
      "type": "function"
    },
    {
      "inputs": [],
      "name": "totalSaleSupply",
      "outputs": [
        {
          "internalType": "uint256",
          "name": "",
          "type": "uint256"
        }
      ],
      "stateMutability": "view",
      "type": "function"
    },
    {
      "inputs": [],
      "name": "totalSupply",
      "outputs": [
        {
          "internalType": "uint256",
          "name": "",
          "type": "uint256"
        }
      ],
      "stateMutability": "view",
      "type": "function"
    },
    {
      "inputs": [
        {
          "internalType": "address",
          "name": "from",
          "type": "address"
        },
        {
          "internalType": "address",
          "name": "to",
          "type": "address"
        },
        {
          "internalType": "uint256",
          "name": "tokenId",
          "type": "uint256"
        }
      ],
      "name": "transferFrom",
      "outputs": [],
      "stateMutability": "nonpayable",
      "type": "function"
    },
    {
      "inputs": [
        {
          "internalType": "address",
          "name": "newOwner",
          "type": "address"
        }
      ],
      "name": "transferOwnership",
      "outputs": [],
      "stateMutability": "nonpayable",
      "type": "function"
    },
    {
      "inputs": [
        {
          "internalType": "address",
          "name": "wlAddress",
          "type": "address"
        }
      ],
      "name": "undoClaim",
      "outputs": [],
      "stateMutability": "nonpayable",
      "type": "function"
    },
    {
      "inputs": [],
      "name": "unpause",
      "outputs": [],
      "stateMutability": "nonpayable",
      "type": "function"
    },
    {
      "inputs": [
        {
          "internalType": "address",
          "name": "account",
          "type": "address"
        },
        {
          "internalType": "bytes32[]",
          "name": "merkleProof",
          "type": "bytes32[]"
        }
      ],
      "name": "verify",
      "outputs": [
        {
          "internalType": "bool",
          "name": "",
          "type": "bool"
        }
      ],
      "stateMutability": "view",
      "type": "function"
    },
    {
      "inputs": [
        {
          "internalType": "address",
          "name": "owner",
          "type": "address"
        }
      ],
      "name": "walletOfOwner",
      "outputs": [
        {
          "internalType": "uint256[]",
          "name": "",
          "type": "uint256[]"
        }
      ],
      "stateMutability": "view",
      "type": "function"
    },
    {
      "inputs": [
        {
          "internalType": "bytes32[]",
          "name": "merkleProof",
          "type": "bytes32[]"
        }
      ],
      "name": "whitelistMint",
      "outputs": [],
      "stateMutability": "payable",
      "type": "function"
    },
    {
      "inputs": [],
      "name": "whitelistSupply",
      "outputs": [
        {
          "internalType": "uint256",
          "name": "",
          "type": "uint256"
        }
      ],
      "stateMutability": "view",
      "type": "function"
    },
    {
      "inputs": [],
      "name": "withdraw",
      "outputs": [],
      "stateMutability": "nonpayable",
      "type": "function"
    },
    {
      "inputs": [],
      "name": "withdrawlAddress",
      "outputs": [
        {
          "internalType": "address",
          "name": "",
          "type": "address"
        }
      ],
      "stateMutability": "view",
      "type": "function"
    }
  ],
  "bytecode": "60a06040819052600060808190526200001b91600f91620001ac565b5060408051808201909152600580825264173539b7b760d91b60209092019182526200004a91601091620001ac565b50601280546001600160b01b0319167512b58f5331a6dc897932aa7fb5101667acdf03e2000017905567016345785d8a00006018553480156200008c57600080fd5b5060405162003d6938038062003d69833981016040819052620000af916200031f565b865187908790620000c8906000906020850190620001ac565b508051620000de906001906020840190620001ac565b5050600a805460ff1916905550620000f63362000149565b6001600b55601384905560158390556017829055601181905584516200012490600f906020880190620001ac565b506200013c600c620001a360201b620023601760201c565b5050505050505062000414565b600a80546001600160a01b03838116610100818102610100600160a81b031985161790945560405193909204169182907f8be0079c531659141344cd1fd0a4f28419497f9722a3daafe3b4186f6b6457e090600090a35050565b80546001019055565b828054620001ba90620003d7565b90600052602060002090601f016020900481019282620001de576000855562000229565b82601f10620001f957805160ff191683800117855562000229565b8280016001018555821562000229579182015b82811115620002295782518255916020019190600101906200020c565b50620002379291506200023b565b5090565b5b808211156200023757600081556001016200023c565b634e487b7160e01b600052604160045260246000fd5b600082601f8301126200027a57600080fd5b81516001600160401b038082111562000297576200029762000252565b604051601f8301601f19908116603f01168101908282118183101715620002c257620002c262000252565b81604052838152602092508683858801011115620002df57600080fd5b600091505b83821015620003035785820183015181830184015290820190620002e4565b83821115620003155760008385830101525b9695505050505050565b600080600080600080600060e0888a0312156200033b57600080fd5b87516001600160401b03808211156200035357600080fd5b620003618b838c0162000268565b985060208a01519150808211156200037857600080fd5b620003868b838c0162000268565b975060408a01519150808211156200039d57600080fd5b50620003ac8a828b0162000268565b955050606088015193506080880151925060a0880151915060c0880151905092959891949750929550565b600181811c90821680620003ec57607f821691505b602082108114156200040e57634e487b7160e01b600052602260045260246000fd5b50919050565b61394580620004246000396000f3fe60806040526004361061038c5760003560e01c80637b671780116101dc578063c668286211610102578063de5f9866116100a0578063f2fde38b1161006f578063f2fde38b14610a01578063f4efa3e614610a21578063f51f96dd14610a41578063ffa9cd3b14610a5757600080fd5b8063de5f986614610978578063de7fcb1d1461098d578063e7bc8208146109a3578063e985e9c5146109b857600080fd5b8063c884ef83116100dc578063c884ef83146108f3578063ce3cd99714610923578063d6d67a0914610943578063da3ef23f1461095857600080fd5b8063c6682862146108a9578063c6ab67a3146108be578063c87b56dd146108d357600080fd5b8063a22cb4651161017a578063bb31b77b11610149578063bb31b77b14610832578063c040e6b814610852578063c29de63014610879578063c32145811461089357600080fd5b8063a22cb465146107b2578063b3caad01146107d2578063b76a0df4146107f2578063b88d4fde1461081257600080fd5b80638456cb59116101b65780638456cb59146107465780638da5cb5b1461075b57806395d89b411461077e5780639a2a9c3d1461079357600080fd5b80637b671780146106f15780637cb647591461071157806381c162f21461073157600080fd5b80633ccfd60b116102c15780635c975abb1161025f5780636cbb89851161022e5780636cbb89851461069157806370a08231146106a6578063715018a6146106c657806378231978146106db57600080fd5b80635c975abb14610624578063616cdb1e1461063c5780636352211e1461065c5780636c0360eb1461067c57600080fd5b8063438b63001161029b578063438b6300146105975780634f6ccce7146105c457806355f804b3146105e457806357ed9e4e1461060457600080fd5b80633ccfd60b1461054d5780633f4ba83a1461056257806342842e0e1461057757600080fd5b80631919fed71161032e5780632eb4a7ab116103085780632eb4a7ab146104ee5780632f745c591461050457806333e6141314610524578063372f657c1461053a57600080fd5b80631919fed71461049b57806323b872dd146104bb5780632db11544146104db57600080fd5b8063088139a61161036a578063088139a614610420578063095ea7b314610444578063109695231461046657806318160ddd1461048657600080fd5b806301ffc9a71461039157806306fdde03146103c6578063081812fc146103e8575b600080fd5b34801561039d57600080fd5b506103b16103ac36600461306f565b610a7d565b60405190151581526020015b60405180910390f35b3480156103d257600080fd5b506103db610a8e565b6040516103bd91906130e4565b3480156103f457600080fd5b506104086104033660046130f7565b610b20565b6040516001600160a01b0390911681526020016103bd565b34801561042c57600080fd5b5061043660165481565b6040519081526020016103bd565b34801561045057600080fd5b5061046461045f36600461312c565b610bba565b005b34801561047257600080fd5b506104646104813660046131e2565b610cd0565b34801561049257600080fd5b50600854610436565b3480156104a757600080fd5b506104646104b63660046130f7565b610dd0565b3480156104c757600080fd5b506104646104d636600461322b565b610e05565b6104646104e93660046130f7565b610e36565b3480156104fa57600080fd5b50610436600d5481565b34801561051057600080fd5b5061043661051f36600461312c565b61106e565b34801561053057600080fd5b5061043660135481565b6104646105483660046132b3565b611104565b34801561055957600080fd5b506104646113bb565b34801561056e57600080fd5b506104646114e2565b34801561058357600080fd5b5061046461059236600461322b565b61151c565b3480156105a357600080fd5b506105b76105b23660046132f5565b611537565b6040516103bd9190613310565b3480156105d057600080fd5b506104366105df3660046130f7565b6115d9565b3480156105f057600080fd5b506104646105ff3660046131e2565b61166c565b34801561061057600080fd5b5061046461061f3660046132f5565b6116f7565b34801561063057600080fd5b50600a5460ff166103b1565b34801561064857600080fd5b506104646106573660046130f7565b611748565b34801561066857600080fd5b506104086106773660046130f7565b61177d565b34801561068857600080fd5b506103db6117f4565b34801561069d57600080fd5b50610408611882565b3480156106b257600080fd5b506104366106c13660046132f5565b611895565b3480156106d257600080fd5b5061046461191c565b3480156106e757600080fd5b5061043660175481565b3480156106fd57600080fd5b5061046461070c366004613365565b611956565b34801561071d57600080fd5b5061046461072c3660046130f7565b611b11565b34801561073d57600080fd5b50610464611b46565b34801561075257600080fd5b50610464611c48565b34801561076757600080fd5b50600a5461010090046001600160a01b0316610408565b34801561078a57600080fd5b506103db611c80565b34801561079f57600080fd5b506012546103b190610100900460ff1681565b3480156107be57600080fd5b506104646107cd366004613380565b611c8f565b3480156107de57600080fd5b506104646107ed3660046133bc565b611c9a565b3480156107fe57600080fd5b506103b161080d3660046133ef565b611ddc565b34801561081e57600080fd5b5061046461082d366004613442565b611e70565b34801561083e57600080fd5b5061046461084d3660046132f5565b611ea8565b34801561085e57600080fd5b5060195461086c9060ff1681565b6040516103bd91906134d4565b34801561088557600080fd5b506012546103b19060ff1681565b34801561089f57600080fd5b5061043660155481565b3480156108b557600080fd5b506103db611efc565b3480156108ca57600080fd5b506103db611f09565b3480156108df57600080fd5b506103db6108ee3660046130f7565b611f16565b3480156108ff57600080fd5b506103b161090e3660046132f5565b60146020526000908152604090205460ff1681565b34801561092f57600080fd5b5061046461093e3660046134fc565b611fcb565b34801561094f57600080fd5b5061043661210f565b34801561096457600080fd5b506104646109733660046131e2565b61211a565b34801561098457600080fd5b5061043661215d565b34801561099957600080fd5b5061043660115481565b3480156109af57600080fd5b50610464612175565b3480156109c457600080fd5b506103b16109d336600461351d565b6001600160a01b03918216600090815260056020908152604080832093909416825291909152205460ff1690565b348015610a0d57600080fd5b50610464610a1c3660046132f5565b612265565b348015610a2d57600080fd5b50610464610a3c3660046132f5565b612306565b348015610a4d57600080fd5b5061043660185481565b348015610a6357600080fd5b50601254610408906201000090046001600160a01b031681565b6000610a8882612369565b92915050565b606060008054610a9d90613539565b80601f0160208091040260200160405190810160405280929190818152602001828054610ac990613539565b8015610b165780601f10610aeb57610100808354040283529160200191610b16565b820191906000526020600020905b815481529060010190602001808311610af957829003601f168201915b5050505050905090565b6000818152600260205260408120546001600160a01b0316610b9e5760405162461bcd60e51b815260206004820152602c60248201527f4552433732313a20617070726f76656420717565727920666f72206e6f6e657860448201526b34b9ba32b73a103a37b5b2b760a11b60648201526084015b60405180910390fd5b506000908152600460205260409020546001600160a01b031690565b6000610bc58261177d565b9050806001600160a01b0316836001600160a01b03161415610c335760405162461bcd60e51b815260206004820152602160248201527f4552433732313a20617070726f76616c20746f2063757272656e74206f776e656044820152603960f91b6064820152608401610b95565b336001600160a01b0382161480610c4f5750610c4f81336109d3565b610cc15760405162461bcd60e51b815260206004820152603860248201527f4552433732313a20617070726f76652063616c6c6572206973206e6f74206f7760448201527f6e6572206e6f7220617070726f76656420666f7220616c6c00000000000000006064820152608401610b95565b610ccb838361238e565b505050565b600a546001600160a01b03610100909104163314610d005760405162461bcd60e51b8152600401610b9590613574565b6000815111610d615760405162461bcd60e51b815260206004820152602760248201527f50726f76656e616e636520686173682063616e6e6f7420626520656d7074792060448201526639ba3934b7339760c91b6064820152608401610b95565b601254610100900460ff1615610db95760405162461bcd60e51b815260206004820152601a60248201527f50726f76656e616e636520686173682069732066726f7a656e2e0000000000006044820152606401610b95565b8051610dcc90600e906020840190612fc0565b5050565b600a546001600160a01b03610100909104163314610e005760405162461bcd60e51b8152600401610b9590613574565b601855565b610e0f33826123fc565b610e2b5760405162461bcd60e51b8152600401610b95906135a9565b610ccb8383836124f3565b6002600b541415610e895760405162461bcd60e51b815260206004820152601f60248201527f5265656e7472616e637947756172643a207265656e7472616e742063616c6c006044820152606401610b95565b6002600b55600a5460ff1615610eb15760405162461bcd60e51b8152600401610b95906135fa565b600460195460ff166004811115610eca57610eca6134be565b14610f175760405162461bcd60e51b815260206004820152601a60248201527f5075626c69632053616c65206e6f7420696e697469617465642e0000000000006044820152606401610b95565b3481601854610f26919061363a565b14610f6f5760405162461bcd60e51b815260206004820152601960248201527824b731b7b93932b1ba1022aa24103b30b63ab29039b2b73a1760391b6044820152606401610b95565b60008111610f8f5760405162461bcd60e51b8152600401610b9590613659565b60175481610f9c60085490565b610fa6919061369c565b1115610fc45760405162461bcd60e51b8152600401610b95906136b4565b6011548111156110295760405162461bcd60e51b815260206004820152602a60248201527f45786365656473206d617820616c6c6f776564206d696e74732070657220747260448201526930b739b0b1ba34b7b71760b11b6064820152608401610b95565b60015b8181116110655761104533611040600c5490565b61269a565b611053600c80546001019055565b8061105d816136fa565b91505061102c565b50506001600b55565b600061107983611895565b82106110db5760405162461bcd60e51b815260206004820152602b60248201527f455243373231456e756d657261626c653a206f776e657220696e646578206f7560448201526a74206f6620626f756e647360a81b6064820152608401610b95565b506001600160a01b03919091166000908152600660209081526040808320938352929052205490565b6002600b5414156111575760405162461bcd60e51b815260206004820152601f60248201527f5265656e7472616e637947756172643a207265656e7472616e742063616c6c006044820152606401610b95565b6002600b55600a5460ff161561117f5760405162461bcd60e51b8152600401610b95906135fa565b600260195460ff166004811115611198576111986134be565b146111e55760405162461bcd60e51b815260206004820152601d60248201527f57686974656c6973742073616c65206e6f7420696e697469617465642e0000006044820152606401610b95565b34601854146112325760405162461bcd60e51b815260206004820152601960248201527824b731b7b93932b1ba1022aa24103b30b63ab29039b2b73a1760391b6044820152606401610b95565b600d546040516bffffffffffffffffffffffff193360601b1660208201526112ab9190603401604051602081830303815290604052805190602001208484808060200260200160405190810160405280939291908181526020018383602002808284376000920191909152509294939250506126b49050565b6112f75760405162461bcd60e51b815260206004820152601960248201527f41646472657373206e6f74206f6e2077686974656c6973742e000000000000006044820152606401610b95565b60175460085461130890600161369c565b11156113265760405162461bcd60e51b8152600401610b95906136b4565b3360009081526014602052604090205460ff16156113865760405162461bcd60e51b815260206004820152601f60248201527f57686974656c697374206d696e7420616c726561647920636c61696d65642e006044820152606401610b95565b336000818152601460205260409020805460ff191660011790556113ad90611040600c5490565b611065600c80546001019055565b600a546001600160a01b036101009091041633146113eb5760405162461bcd60e51b8152600401610b9590613574565b47806114395760405162461bcd60e51b815260206004820152601760248201527f4e6f2062616c616e636520746f2077697468647261772e0000000000000000006044820152606401610b95565b6012546040516000916201000090046001600160a01b03169083908381818185875af1925050503d806000811461148c576040519150601f19603f3d011682016040523d82523d6000602084013e611491565b606091505b5050905080610dcc5760405162461bcd60e51b815260206004820152601b60248201527f4661696c656420746f2077697468647261772062616c616e63652e00000000006044820152606401610b95565b600a546001600160a01b036101009091041633146115125760405162461bcd60e51b8152600401610b9590613574565b61151a6126ca565b565b610ccb83838360405180602001604052806000815250611e70565b6060600061154483611895565b905060008167ffffffffffffffff81111561156157611561613156565b60405190808252806020026020018201604052801561158a578160200160208202803683370190505b50905060005b828110156115d1576115a2858261106e565b8282815181106115b4576115b4613715565b6020908102919091010152806115c9816136fa565b915050611590565b509392505050565b60006115e460085490565b82106116475760405162461bcd60e51b815260206004820152602c60248201527f455243373231456e756d657261626c653a20676c6f62616c20696e646578206f60448201526b7574206f6620626f756e647360a01b6064820152608401610b95565b6008828154811061165a5761165a613715565b90600052602060002001549050919050565b600a546001600160a01b0361010090910416331461169c5760405162461bcd60e51b8152600401610b9590613574565b60125460ff16156116e45760405162461bcd60e51b81526020600482015260126024820152712130b9b2aaa9249034b990333937bd32b71760711b6044820152606401610b95565b8051610dcc90600f906020840190612fc0565b600a546001600160a01b036101009091041633146117275760405162461bcd60e51b8152600401610b9590613574565b6001600160a01b03166000908152601460205260409020805460ff19169055565b600a546001600160a01b036101009091041633146117785760405162461bcd60e51b8152600401610b9590613574565b601155565b6000818152600260205260408120546001600160a01b031680610a885760405162461bcd60e51b815260206004820152602960248201527f4552433732313a206f776e657220717565727920666f72206e6f6e657869737460448201526832b73a103a37b5b2b760b91b6064820152608401610b95565b600f805461180190613539565b80601f016020809104026020016040519081016040528092919081815260200182805461182d90613539565b801561187a5780601f1061184f5761010080835404028352916020019161187a565b820191906000526020600020905b81548152906001019060200180831161185d57829003601f168201915b505050505081565b600061189061067760085490565b905090565b60006001600160a01b0382166119005760405162461bcd60e51b815260206004820152602a60248201527f4552433732313a2062616c616e636520717565727920666f7220746865207a65604482015269726f206164647265737360b01b6064820152608401610b95565b506001600160a01b031660009081526003602052604090205490565b600a546001600160a01b0361010090910416331461194c5760405162461bcd60e51b8152600401610b9590613574565b61151a600061275d565b600a546001600160a01b036101009091041633146119865760405162461bcd60e51b8152600401610b9590613574565b600360195460ff16600481111561199f5761199f6134be565b146119ec5760405162461bcd60e51b815260206004820152601860248201527f5465616d206d696e74206e6f7420696e697469617465642e00000000000000006044820152606401610b95565b60008160ff1611611a0f5760405162461bcd60e51b8152600401610b9590613659565b601554601654611a229060ff841661369c565b1115611a845760405162461bcd60e51b815260206004820152602b60248201527f5472616e73616374696f6e206578636565647320746f74616c207465616d207360448201526a30b6329039bab838363c9760a91b6064820152608401610b95565b6017548160ff16611a9460085490565b611a9e919061369c565b1115611abc5760405162461bcd60e51b8152600401610b95906136b4565b8060ff1660166000828254611ad1919061369c565b90915550600190505b8160ff168111610dcc57611af133611040600c5490565b611aff600c80546001019055565b80611b09816136fa565b915050611ada565b600a546001600160a01b03610100909104163314611b415760405162461bcd60e51b8152600401610b9590613574565b600d55565b600a546001600160a01b03610100909104163314611b765760405162461bcd60e51b8152600401610b9590613574565b6000600e8054611b8590613539565b905011611bd45760405162461bcd60e51b815260206004820152601b60248201527f50726f76656e616e63652068617368206973206e6f74207365742e00000000006044820152606401610b95565b601254610100900460ff1615611c375760405162461bcd60e51b815260206004820152602260248201527f50726f76656e616e6365206861736820697320616c72656164792066726f7a65604482015261371760f11b6064820152608401610b95565b6012805461ff001916610100179055565b600a546001600160a01b03610100909104163314611c785760405162461bcd60e51b8152600401610b9590613574565b61151a6127b7565b606060018054610a9d90613539565b610dcc33838361280f565b600a546001600160a01b03610100909104163314611cca5760405162461bcd60e51b8152600401610b9590613574565b600060195460ff166004811115611ce357611ce36134be565b11611d275760405162461bcd60e51b815260206004820152601460248201527327379030b4b9323937b8399030ba1034b734ba1760611b6044820152606401610b95565b6017548260ff16611d3760085490565b611d41919061369c565b1115611da25760405162461bcd60e51b815260206004820152602a60248201527f4d696e7420616d6f756e742077696c6c2065786365656420746f74616c20736160448201526936329039bab838363c9760b11b6064820152608401610b95565b60015b8260ff168111610ccb57611dbc82611040600c5490565b611dca600c80546001019055565b80611dd4816136fa565b915050611da5565b600d546040516bffffffffffffffffffffffff19606086901b166020820152600091611e5891603401604051602081830303815290604052805190602001208585808060200260200160405190810160405280939291908181526020018383602002808284376000920191909152509294939250506126b49050565b15611e6557506001611e69565b5060005b9392505050565b611e7a33836123fc565b611e965760405162461bcd60e51b8152600401610b95906135a9565b611ea2848484846128de565b50505050565b600a546001600160a01b03610100909104163314611ed85760405162461bcd60e51b8152600401610b9590613574565b6001600160a01b03166000908152601460205260409020805460ff19166001179055565b6010805461180190613539565b600e805461180190613539565b6000818152600260205260409020546060906001600160a01b0316611f965760405162461bcd60e51b815260206004820152603060248201527f4552433732314d657461646174613a2055524920717565727920666f72206e6f60448201526f3732bc34b9ba32b73a103a37b5b2b71760811b6064820152608401610b95565b600f611fa183612911565b6010604051602001611fb5939291906137c5565b6040516020818303038152906040529050919050565b600a546001600160a01b03610100909104163314611ffb5760405162461bcd60e51b8152600401610b9590613574565b60125460ff61010090910416151560011461207e5760405162461bcd60e51b815260206004820152603860248201527f50726f76656e616e63652068617368206d7573742062652066726f7a656e206260448201527f65666f7265206d696e74696e672063616e2073746172742e00000000000000006064820152608401610b95565b600d546120e85760405162461bcd60e51b815260206004820152603260248201527f4d65726b6c6520726f6f74206d7573742062652073657420626565666f72652060448201527136b4b73a34b7339031b0b71039ba30b93a1760711b6064820152608401610b95565b6019805482919060ff19166001836004811115612107576121076134be565b021790555050565b600061189060085490565b600a546001600160a01b0361010090910416331461214a5760405162461bcd60e51b8152600401610b9590613574565b8051610dcc906010906020840190612fc0565b600061216860085490565b60175461189091906137f8565b600a546001600160a01b036101009091041633146121a55760405162461bcd60e51b8152600401610b9590613574565b6000600f80546121b490613539565b9050116122035760405162461bcd60e51b815260206004820152601860248201527f426173655552492063616e6e6f7420626520656d7074792e00000000000000006044820152606401610b95565b60125460ff16156122565760405162461bcd60e51b815260206004820152601a60248201527f4261736555524920697320616c72656164792066726f7a656e2e0000000000006044820152606401610b95565b6012805460ff19166001179055565b600a546001600160a01b036101009091041633146122955760405162461bcd60e51b8152600401610b9590613574565b6001600160a01b0381166122fa5760405162461bcd60e51b815260206004820152602660248201527f4f776e61626c653a206e6577206f776e657220697320746865207a65726f206160448201526564647265737360d01b6064820152608401610b95565b6123038161275d565b50565b600a546001600160a01b036101009091041633146123365760405162461bcd60e51b8152600401610b9590613574565b601280546001600160a01b03909216620100000262010000600160b01b0319909216919091179055565b80546001019055565b60006001600160e01b0319821663780e9d6360e01b1480610a885750610a8882612a0f565b600081815260046020526040902080546001600160a01b0319166001600160a01b03841690811790915581906123c38261177d565b6001600160a01b03167f8c5be1e5ebec7d5bd14f71427d1e84f3dd0314c0f7b2291e5b200ac8c7c3b92560405160405180910390a45050565b6000818152600260205260408120546001600160a01b03166124755760405162461bcd60e51b815260206004820152602c60248201527f4552433732313a206f70657261746f7220717565727920666f72206e6f6e657860448201526b34b9ba32b73a103a37b5b2b760a11b6064820152608401610b95565b60006124808361177d565b9050806001600160a01b0316846001600160a01b031614806124bb5750836001600160a01b03166124b084610b20565b6001600160a01b0316145b806124eb57506001600160a01b0380821660009081526005602090815260408083209388168352929052205460ff165b949350505050565b826001600160a01b03166125068261177d565b6001600160a01b03161461256a5760405162461bcd60e51b815260206004820152602560248201527f4552433732313a207472616e736665722066726f6d20696e636f72726563742060448201526437bbb732b960d91b6064820152608401610b95565b6001600160a01b0382166125cc5760405162461bcd60e51b8152602060048201526024808201527f4552433732313a207472616e7366657220746f20746865207a65726f206164646044820152637265737360e01b6064820152608401610b95565b6125d7838383612a5f565b6125e260008261238e565b6001600160a01b038316600090815260036020526040812080546001929061260b9084906137f8565b90915550506001600160a01b038216600090815260036020526040812080546001929061263990849061369c565b909155505060008181526002602052604080822080546001600160a01b0319166001600160a01b0386811691821790925591518493918716917fddf252ad1be2c89b69c2b068fc378daa952ba7f163c4a11628f55a4df523b3ef91a4505050565b610dcc828260405180602001604052806000815250612a8d565b6000826126c18584612ac0565b14949350505050565b600a5460ff166127135760405162461bcd60e51b815260206004820152601460248201527314185d5cd8589b194e881b9bdd081c185d5cd95960621b6044820152606401610b95565b600a805460ff191690557f5db9ee0a495bf2e6ff9c91a7834c1ba4fdd244a5e8aa4e537bd38aeae4b073aa335b6040516001600160a01b03909116815260200160405180910390a1565b600a80546001600160a01b03838116610100818102610100600160a81b031985161790945560405193909204169182907f8be0079c531659141344cd1fd0a4f28419497f9722a3daafe3b4186f6b6457e090600090a35050565b600a5460ff16156127da5760405162461bcd60e51b8152600401610b95906135fa565b600a805460ff191660011790557f62e78cea01bee320cd4e420270b5ea74000d11b0c9f74754ebdbfc544b05a2586127403390565b816001600160a01b0316836001600160a01b031614156128715760405162461bcd60e51b815260206004820152601960248201527f4552433732313a20617070726f766520746f2063616c6c6572000000000000006044820152606401610b95565b6001600160a01b03838116600081815260056020908152604080832094871680845294825291829020805460ff191686151590811790915591519182527f17307eab39ab6107e8899845ad3d59bd9653f200f220920489ca2b5937696c31910160405180910390a3505050565b6128e98484846124f3565b6128f584848484612b2c565b611ea25760405162461bcd60e51b8152600401610b959061380f565b6060816129355750506040805180820190915260018152600360fc1b602082015290565b8160005b811561295f5780612949816136fa565b91506129589050600a83613877565b9150612939565b60008167ffffffffffffffff81111561297a5761297a613156565b6040519080825280601f01601f1916602001820160405280156129a4576020820181803683370190505b5090505b84156124eb576129b96001836137f8565b91506129c6600a8661388b565b6129d190603061369c565b60f81b8183815181106129e6576129e6613715565b60200101906001600160f81b031916908160001a905350612a08600a86613877565b94506129a8565b60006001600160e01b031982166380ac58cd60e01b1480612a4057506001600160e01b03198216635b5e139f60e01b145b80610a8857506301ffc9a760e01b6001600160e01b0319831614610a88565b600a5460ff1615612a825760405162461bcd60e51b8152600401610b95906135fa565b610ccb838383612c2a565b612a978383612ce2565b612aa46000848484612b2c565b610ccb5760405162461bcd60e51b8152600401610b959061380f565b600081815b84518110156115d1576000858281518110612ae257612ae2613715565b60200260200101519050808311612b085760008381526020829052604090209250612b19565b600081815260208490526040902092505b5080612b24816136fa565b915050612ac5565b60006001600160a01b0384163b15612c1f57604051630a85bd0160e11b81526001600160a01b0385169063150b7a0290612b7090339089908890889060040161389f565b6020604051808303816000875af1925050508015612bab575060408051601f3d908101601f19168201909252612ba8918101906138dc565b60015b612c05573d808015612bd9576040519150601f19603f3d011682016040523d82523d6000602084013e612bde565b606091505b508051612bfd5760405162461bcd60e51b8152600401610b959061380f565b805181602001fd5b6001600160e01b031916630a85bd0160e11b1490506124eb565b506001949350505050565b6001600160a01b038316612c8557612c8081600880546000838152600960205260408120829055600182018355919091527ff3f7a9fe364faab93b216da50a3214154f22a0a2b415b23a84c8169e8b636ee30155565b612ca8565b816001600160a01b0316836001600160a01b031614612ca857612ca88382612e30565b6001600160a01b038216612cbf57610ccb81612ecd565b826001600160a01b0316826001600160a01b031614610ccb57610ccb8282612f7c565b6001600160a01b038216612d385760405162461bcd60e51b815260206004820181905260248201527f4552433732313a206d696e7420746f20746865207a65726f20616464726573736044820152606401610b95565b6000818152600260205260409020546001600160a01b031615612d9d5760405162461bcd60e51b815260206004820152601c60248201527f4552433732313a20746f6b656e20616c7265616479206d696e746564000000006044820152606401610b95565b612da960008383612a5f565b6001600160a01b0382166000908152600360205260408120805460019290612dd290849061369c565b909155505060008181526002602052604080822080546001600160a01b0319166001600160a01b03861690811790915590518392907fddf252ad1be2c89b69c2b068fc378daa952ba7f163c4a11628f55a4df523b3ef908290a45050565b60006001612e3d84611895565b612e4791906137f8565b600083815260076020526040902054909150808214612e9a576001600160a01b03841660009081526006602090815260408083208584528252808320548484528184208190558352600790915290208190555b5060009182526007602090815260408084208490556001600160a01b039094168352600681528383209183525290812055565b600854600090612edf906001906137f8565b60008381526009602052604081205460088054939450909284908110612f0757612f07613715565b906000526020600020015490508060088381548110612f2857612f28613715565b6000918252602080832090910192909255828152600990915260408082208490558582528120556008805480612f6057612f606138f9565b6001900381819060005260206000200160009055905550505050565b6000612f8783611895565b6001600160a01b039093166000908152600660209081526040808320868452825280832085905593825260079052919091209190915550565b828054612fcc90613539565b90600052602060002090601f016020900481019282612fee5760008555613034565b82601f1061300757805160ff1916838001178555613034565b82800160010185558215613034579182015b82811115613034578251825591602001919060010190613019565b50613040929150613044565b5090565b5b808211156130405760008155600101613045565b6001600160e01b03198116811461230357600080fd5b60006020828403121561308157600080fd5b8135611e6981613059565b60005b838110156130a757818101518382015260200161308f565b83811115611ea25750506000910152565b600081518084526130d081602086016020860161308c565b601f01601f19169290920160200192915050565b602081526000611e6960208301846130b8565b60006020828403121561310957600080fd5b5035919050565b80356001600160a01b038116811461312757600080fd5b919050565b6000806040838503121561313f57600080fd5b61314883613110565b946020939093013593505050565b634e487b7160e01b600052604160045260246000fd5b600067ffffffffffffffff8084111561318757613187613156565b604051601f8501601f19908116603f011681019082821181831017156131af576131af613156565b816040528093508581528686860111156131c857600080fd5b858560208301376000602087830101525050509392505050565b6000602082840312156131f457600080fd5b813567ffffffffffffffff81111561320b57600080fd5b8201601f8101841361321c57600080fd5b6124eb8482356020840161316c565b60008060006060848603121561324057600080fd5b61324984613110565b925061325760208501613110565b9150604084013590509250925092565b60008083601f84011261327957600080fd5b50813567ffffffffffffffff81111561329157600080fd5b6020830191508360208260051b85010111156132ac57600080fd5b9250929050565b600080602083850312156132c657600080fd5b823567ffffffffffffffff8111156132dd57600080fd5b6132e985828601613267565b90969095509350505050565b60006020828403121561330757600080fd5b611e6982613110565b6020808252825182820181905260009190848201906040850190845b818110156133485783518352928401929184019160010161332c565b50909695505050505050565b803560ff8116811461312757600080fd5b60006020828403121561337757600080fd5b611e6982613354565b6000806040838503121561339357600080fd5b61339c83613110565b9150602083013580151581146133b157600080fd5b809150509250929050565b600080604083850312156133cf57600080fd5b6133d883613354565b91506133e660208401613110565b90509250929050565b60008060006040848603121561340457600080fd5b61340d84613110565b9250602084013567ffffffffffffffff81111561342957600080fd5b61343586828701613267565b9497909650939450505050565b6000806000806080858703121561345857600080fd5b61346185613110565b935061346f60208601613110565b925060408501359150606085013567ffffffffffffffff81111561349257600080fd5b8501601f810187136134a357600080fd5b6134b28782356020840161316c565b91505092959194509250565b634e487b7160e01b600052602160045260246000fd5b60208101600583106134f657634e487b7160e01b600052602160045260246000fd5b91905290565b60006020828403121561350e57600080fd5b813560058110611e6957600080fd5b6000806040838503121561353057600080fd5b6133d883613110565b600181811c9082168061354d57607f821691505b6020821081141561356e57634e487b7160e01b600052602260045260246000fd5b50919050565b6020808252818101527f4f776e61626c653a2063616c6c6572206973206e6f7420746865206f776e6572604082015260600190565b60208082526031908201527f4552433732313a207472616e736665722063616c6c6572206973206e6f74206f6040820152701ddb995c881b9bdc88185c1c1c9bdd9959607a1b606082015260800190565b60208082526010908201526f14185d5cd8589b194e881c185d5cd95960821b604082015260600190565b634e487b7160e01b600052601160045260246000fd5b600081600019048311821515161561365457613654613624565b500290565b60208082526023908201527f4d696e7420616d6f756e74206d7573742062652067726561746572207468616e60408201526210181760e91b606082015260800190565b600082198211156136af576136af613624565b500190565b60208082526026908201527f5472616e73616374696f6e206578636565647320746f74616c2073616c6520736040820152653ab838363c9760d11b606082015260800190565b600060001982141561370e5761370e613624565b5060010190565b634e487b7160e01b600052603260045260246000fd5b8054600090600181811c908083168061374557607f831692505b602080841082141561376757634e487b7160e01b600052602260045260246000fd5b81801561377b576001811461378c576137b9565b60ff198616895284890196506137b9565b60008881526020902060005b868110156137b15781548b820152908501908301613798565b505084890196505b50505050505092915050565b60006137d1828661372b565b84516137e181836020890161308c565b6137ed8183018661372b565b979650505050505050565b60008282101561380a5761380a613624565b500390565b60208082526032908201527f4552433732313a207472616e7366657220746f206e6f6e20455243373231526560408201527131b2b4bb32b91034b6b83632b6b2b73a32b960711b606082015260800190565b634e487b7160e01b600052601260045260246000fd5b60008261388657613886613861565b500490565b60008261389a5761389a613861565b500690565b6001600160a01b03858116825284166020820152604081018390526080606082018190526000906138d2908301846130b8565b9695505050505050565b6000602082840312156138ee57600080fd5b8151611e6981613059565b634e487b7160e01b600052603160045260246000fdfea264697066735822122001ee2a32cedc10468e1a396a3115e48fcb27960e57d205892514dde4b4498d4b64736f6c634300080b0033",
  "bytecodeSha1": "55f359fcf717fc8a832c23ef0e2e53b1a8517a40",
  "compiler": {
    "evm_version": "istanbul",
    "optimizer": {
      "enabled": true,
      "runs": 200
    },
    "version": "0.8.11+commit.d7f03943"
  },
  "contractName": "CryptidToken",
  "language": "Solidity",
  "natspec": {
    "author": "@chrisrusselljr",
    "details": "All function calls are currently implemented without side effects",
    "kind": "dev",
    "methods": {
      "approve(address,uint256)": {
        "details": "See {IERC721-approve}."
      },
      "balanceOf(address)": {
        "details": "See {IERC721-balanceOf}."
      },
      "getApproved(uint256)": {
        "details": "See {IERC721-getApproved}."
      },
      "isApprovedForAll(address,address)": {
        "details": "See {IERC721-isApprovedForAll}."
      },
      "name()": {
        "details": "See {IERC721Metadata-name}."
      },
      "owner()": {
        "details": "Returns the address of the current owner."
      },
      "ownerOf(uint256)": {
        "details": "See {IERC721-ownerOf}."
      },
      "paused()": {
        "details": "Returns true if the contract is paused, and false otherwise."
      },
      "renounceOwnership()": {
        "details": "Leaves the contract without owner. It will not be possible to call `onlyOwner` functions anymore. Can only be called by the current owner. NOTE: Renouncing ownership will leave the contract without an owner, thereby removing any functionality that is only available to the owner."
      },
      "safeTransferFrom(address,address,uint256)": {
        "details": "See {IERC721-safeTransferFrom}."
      },
      "safeTransferFrom(address,address,uint256,bytes)": {
        "details": "See {IERC721-safeTransferFrom}."
      },
      "setApprovalForAll(address,bool)": {
        "details": "See {IERC721-setApprovalForAll}."
      },
      "symbol()": {
        "details": "See {IERC721Metadata-symbol}."
      },
      "tokenByIndex(uint256)": {
        "details": "See {IERC721Enumerable-tokenByIndex}."
      },
      "tokenOfOwnerByIndex(address,uint256)": {
        "details": "See {IERC721Enumerable-tokenOfOwnerByIndex}."
      },
      "tokenURI(uint256)": {
        "details": "See {IERC721Metadata-tokenURI}."
      },
      "totalSupply()": {
        "details": "See {IERC721Enumerable-totalSupply}."
      },
      "transferFrom(address,address,uint256)": {
        "details": "See {IERC721-transferFrom}."
      },
      "transferOwnership(address)": {
        "details": "Transfers ownership of the contract to a new account (`newOwner`). Can only be called by the current owner."
      }
    },
    "notice": "You can use this contract to mint, send, and interact with CRYPTIDS",
    "title": "CryptidToken NFT Contract",
    "version": 1
  },
  "opcodes": "PUSH1 0x80 PUSH1 0x40 MSTORE PUSH1 0x4 CALLDATASIZE LT PUSH2 0x38C JUMPI PUSH1 0x0 CALLDATALOAD PUSH1 0xE0 SHR DUP1 PUSH4 0x7B671780 GT PUSH2 0x1DC JUMPI DUP1 PUSH4 0xC6682862 GT PUSH2 0x102 JUMPI DUP1 PUSH4 0xDE5F9866 GT PUSH2 0xA0 JUMPI DUP1 PUSH4 0xF2FDE38B GT PUSH2 0x6F JUMPI DUP1 PUSH4 0xF2FDE38B EQ PUSH2 0xA01 JUMPI DUP1 PUSH4 0xF4EFA3E6 EQ PUSH2 0xA21 JUMPI DUP1 PUSH4 0xF51F96DD EQ PUSH2 0xA41 JUMPI DUP1 PUSH4 0xFFA9CD3B EQ PUSH2 0xA57 JUMPI PUSH1 0x0 DUP1 REVERT JUMPDEST DUP1 PUSH4 0xDE5F9866 EQ PUSH2 0x978 JUMPI DUP1 PUSH4 0xDE7FCB1D EQ PUSH2 0x98D JUMPI DUP1 PUSH4 0xE7BC8208 EQ PUSH2 0x9A3 JUMPI DUP1 PUSH4 0xE985E9C5 EQ PUSH2 0x9B8 JUMPI PUSH1 0x0 DUP1 REVERT JUMPDEST DUP1 PUSH4 0xC884EF83 GT PUSH2 0xDC JUMPI DUP1 PUSH4 0xC884EF83 EQ PUSH2 0x8F3 JUMPI DUP1 PUSH4 0xCE3CD997 EQ PUSH2 0x923 JUMPI DUP1 PUSH4 0xD6D67A09 EQ PUSH2 0x943 JUMPI DUP1 PUSH4 0xDA3EF23F EQ PUSH2 0x958 JUMPI PUSH1 0x0 DUP1 REVERT JUMPDEST DUP1 PUSH4 0xC6682862 EQ PUSH2 0x8A9 JUMPI DUP1 PUSH4 0xC6AB67A3 EQ PUSH2 0x8BE JUMPI DUP1 PUSH4 0xC87B56DD EQ PUSH2 0x8D3 JUMPI PUSH1 0x0 DUP1 REVERT JUMPDEST DUP1 PUSH4 0xA22CB465 GT PUSH2 0x17A JUMPI DUP1 PUSH4 0xBB31B77B GT PUSH2 0x149 JUMPI DUP1 PUSH4 0xBB31B77B EQ PUSH2 0x832 JUMPI DUP1 PUSH4 0xC040E6B8 EQ PUSH2 0x852 JUMPI DUP1 PUSH4 0xC29DE630 EQ PUSH2 0x879 JUMPI DUP1 PUSH4 0xC3214581 EQ PUSH2 0x893 JUMPI PUSH1 0x0 DUP1 REVERT JUMPDEST DUP1 PUSH4 0xA22CB465 EQ PUSH2 0x7B2 JUMPI DUP1 PUSH4 0xB3CAAD01 EQ PUSH2 0x7D2 JUMPI DUP1 PUSH4 0xB76A0DF4 EQ PUSH2 0x7F2 JUMPI DUP1 PUSH4 0xB88D4FDE EQ PUSH2 0x812 JUMPI PUSH1 0x0 DUP1 REVERT JUMPDEST DUP1 PUSH4 0x8456CB59 GT PUSH2 0x1B6 JUMPI DUP1 PUSH4 0x8456CB59 EQ PUSH2 0x746 JUMPI DUP1 PUSH4 0x8DA5CB5B EQ PUSH2 0x75B JUMPI DUP1 PUSH4 0x95D89B41 EQ PUSH2 0x77E JUMPI DUP1 PUSH4 0x9A2A9C3D EQ PUSH2 0x793 JUMPI PUSH1 0x0 DUP1 REVERT JUMPDEST DUP1 PUSH4 0x7B671780 EQ PUSH2 0x6F1 JUMPI DUP1 PUSH4 0x7CB64759 EQ PUSH2 0x711 JUMPI DUP1 PUSH4 0x81C162F2 EQ PUSH2 0x731 JUMPI PUSH1 0x0 DUP1 REVERT JUMPDEST DUP1 PUSH4 0x3CCFD60B GT PUSH2 0x2C1 JUMPI DUP1 PUSH4 0x5C975ABB GT PUSH2 0x25F JUMPI DUP1 PUSH4 0x6CBB8985 GT PUSH2 0x22E JUMPI DUP1 PUSH4 0x6CBB8985 EQ PUSH2 0x691 JUMPI DUP1 PUSH4 0x70A08231 EQ PUSH2 0x6A6 JUMPI DUP1 PUSH4 0x715018A6 EQ PUSH2 0x6C6 JUMPI DUP1 PUSH4 0x78231978 EQ PUSH2 0x6DB JUMPI PUSH1 0x0 DUP1 REVERT JUMPDEST DUP1 PUSH4 0x5C975ABB EQ PUSH2 0x624 JUMPI DUP1 PUSH4 0x616CDB1E EQ PUSH2 0x63C JUMPI DUP1 PUSH4 0x6352211E EQ PUSH2 0x65C JUMPI DUP1 PUSH4 0x6C0360EB EQ PUSH2 0x67C JUMPI PUSH1 0x0 DUP1 REVERT JUMPDEST DUP1 PUSH4 0x438B6300 GT PUSH2 0x29B JUMPI DUP1 PUSH4 0x438B6300 EQ PUSH2 0x597 JUMPI DUP1 PUSH4 0x4F6CCCE7 EQ PUSH2 0x5C4 JUMPI DUP1 PUSH4 0x55F804B3 EQ PUSH2 0x5E4 JUMPI DUP1 PUSH4 0x57ED9E4E EQ PUSH2 0x604 JUMPI PUSH1 0x0 DUP1 REVERT JUMPDEST DUP1 PUSH4 0x3CCFD60B EQ PUSH2 0x54D JUMPI DUP1 PUSH4 0x3F4BA83A EQ PUSH2 0x562 JUMPI DUP1 PUSH4 0x42842E0E EQ PUSH2 0x577 JUMPI PUSH1 0x0 DUP1 REVERT JUMPDEST DUP1 PUSH4 0x1919FED7 GT PUSH2 0x32E JUMPI DUP1 PUSH4 0x2EB4A7AB GT PUSH2 0x308 JUMPI DUP1 PUSH4 0x2EB4A7AB EQ PUSH2 0x4EE JUMPI DUP1 PUSH4 0x2F745C59 EQ PUSH2 0x504 JUMPI DUP1 PUSH4 0x33E61413 EQ PUSH2 0x524 JUMPI DUP1 PUSH4 0x372F657C EQ PUSH2 0x53A JUMPI PUSH1 0x0 DUP1 REVERT JUMPDEST DUP1 PUSH4 0x1919FED7 EQ PUSH2 0x49B JUMPI DUP1 PUSH4 0x23B872DD EQ PUSH2 0x4BB JUMPI DUP1 PUSH4 0x2DB11544 EQ PUSH2 0x4DB JUMPI PUSH1 0x0 DUP1 REVERT JUMPDEST DUP1 PUSH4 0x88139A6 GT PUSH2 0x36A JUMPI DUP1 PUSH4 0x88139A6 EQ PUSH2 0x420 JUMPI DUP1 PUSH4 0x95EA7B3 EQ PUSH2 0x444 JUMPI DUP1 PUSH4 0x10969523 EQ PUSH2 0x466 JUMPI DUP1 PUSH4 0x18160DDD EQ PUSH2 0x486 JUMPI PUSH1 0x0 DUP1 REVERT JUMPDEST DUP1 PUSH4 0x1FFC9A7 EQ PUSH2 0x391 JUMPI DUP1 PUSH4 0x6FDDE03 EQ PUSH2 0x3C6 JUMPI DUP1 PUSH4 0x81812FC EQ PUSH2 0x3E8 JUMPI JUMPDEST PUSH1 0x0 DUP1 REVERT JUMPDEST CALLVALUE DUP1 ISZERO PUSH2 0x39D JUMPI PUSH1 0x0 DUP1 REVERT JUMPDEST POP PUSH2 0x3B1 PUSH2 0x3AC CALLDATASIZE PUSH1 0x4 PUSH2 0x306F JUMP JUMPDEST PUSH2 0xA7D JUMP JUMPDEST PUSH1 0x40 MLOAD SWAP1 ISZERO ISZERO DUP2 MSTORE PUSH1 0x20 ADD JUMPDEST PUSH1 0x40 MLOAD DUP1 SWAP2 SUB SWAP1 RETURN JUMPDEST CALLVALUE DUP1 ISZERO PUSH2 0x3D2 JUMPI PUSH1 0x0 DUP1 REVERT JUMPDEST POP PUSH2 0x3DB PUSH2 0xA8E JUMP JUMPDEST PUSH1 0x40 MLOAD PUSH2 0x3BD SWAP2 SWAP1 PUSH2 0x30E4 JUMP JUMPDEST CALLVALUE DUP1 ISZERO PUSH2 0x3F4 JUMPI PUSH1 0x0 DUP1 REVERT JUMPDEST POP PUSH2 0x408 PUSH2 0x403 CALLDATASIZE PUSH1 0x4 PUSH2 0x30F7 JUMP JUMPDEST PUSH2 0xB20 JUMP JUMPDEST PUSH1 0x40 MLOAD PUSH1 0x1 PUSH1 0x1 PUSH1 0xA0 SHL SUB SWAP1 SWAP2 AND DUP2 MSTORE PUSH1 0x20 ADD PUSH2 0x3BD JUMP JUMPDEST CALLVALUE DUP1 ISZERO PUSH2 0x42C JUMPI PUSH1 0x0 DUP1 REVERT JUMPDEST POP PUSH2 0x436 PUSH1 0x16 SLOAD DUP2 JUMP JUMPDEST PUSH1 0x40 MLOAD SWAP1 DUP2 MSTORE PUSH1 0x20 ADD PUSH2 0x3BD JUMP JUMPDEST CALLVALUE DUP1 ISZERO PUSH2 0x450 JUMPI PUSH1 0x0 DUP1 REVERT JUMPDEST POP PUSH2 0x464 PUSH2 0x45F CALLDATASIZE PUSH1 0x4 PUSH2 0x312C JUMP JUMPDEST PUSH2 0xBBA JUMP JUMPDEST STOP JUMPDEST CALLVALUE DUP1 ISZERO PUSH2 0x472 JUMPI PUSH1 0x0 DUP1 REVERT JUMPDEST POP PUSH2 0x464 PUSH2 0x481 CALLDATASIZE PUSH1 0x4 PUSH2 0x31E2 JUMP JUMPDEST PUSH2 0xCD0 JUMP JUMPDEST CALLVALUE DUP1 ISZERO PUSH2 0x492 JUMPI PUSH1 0x0 DUP1 REVERT JUMPDEST POP PUSH1 0x8 SLOAD PUSH2 0x436 JUMP JUMPDEST CALLVALUE DUP1 ISZERO PUSH2 0x4A7 JUMPI PUSH1 0x0 DUP1 REVERT JUMPDEST POP PUSH2 0x464 PUSH2 0x4B6 CALLDATASIZE PUSH1 0x4 PUSH2 0x30F7 JUMP JUMPDEST PUSH2 0xDD0 JUMP JUMPDEST CALLVALUE DUP1 ISZERO PUSH2 0x4C7 JUMPI PUSH1 0x0 DUP1 REVERT JUMPDEST POP PUSH2 0x464 PUSH2 0x4D6 CALLDATASIZE PUSH1 0x4 PUSH2 0x322B JUMP JUMPDEST PUSH2 0xE05 JUMP JUMPDEST PUSH2 0x464 PUSH2 0x4E9 CALLDATASIZE PUSH1 0x4 PUSH2 0x30F7 JUMP JUMPDEST PUSH2 0xE36 JUMP JUMPDEST CALLVALUE DUP1 ISZERO PUSH2 0x4FA JUMPI PUSH1 0x0 DUP1 REVERT JUMPDEST POP PUSH2 0x436 PUSH1 0xD SLOAD DUP2 JUMP JUMPDEST CALLVALUE DUP1 ISZERO PUSH2 0x510 JUMPI PUSH1 0x0 DUP1 REVERT JUMPDEST POP PUSH2 0x436 PUSH2 0x51F CALLDATASIZE PUSH1 0x4 PUSH2 0x312C JUMP JUMPDEST PUSH2 0x106E JUMP JUMPDEST CALLVALUE DUP1 ISZERO PUSH2 0x530 JUMPI PUSH1 0x0 DUP1 REVERT JUMPDEST POP PUSH2 0x436 PUSH1 0x13 SLOAD DUP2 JUMP JUMPDEST PUSH2 0x464 PUSH2 0x548 CALLDATASIZE PUSH1 0x4 PUSH2 0x32B3 JUMP JUMPDEST PUSH2 0x1104 JUMP JUMPDEST CALLVALUE DUP1 ISZERO PUSH2 0x559 JUMPI PUSH1 0x0 DUP1 REVERT JUMPDEST POP PUSH2 0x464 PUSH2 0x13BB JUMP JUMPDEST CALLVALUE DUP1 ISZERO PUSH2 0x56E JUMPI PUSH1 0x0 DUP1 REVERT JUMPDEST POP PUSH2 0x464 PUSH2 0x14E2 JUMP JUMPDEST CALLVALUE DUP1 ISZERO PUSH2 0x583 JUMPI PUSH1 0x0 DUP1 REVERT JUMPDEST POP PUSH2 0x464 PUSH2 0x592 CALLDATASIZE PUSH1 0x4 PUSH2 0x322B JUMP JUMPDEST PUSH2 0x151C JUMP JUMPDEST CALLVALUE DUP1 ISZERO PUSH2 0x5A3 JUMPI PUSH1 0x0 DUP1 REVERT JUMPDEST POP PUSH2 0x5B7 PUSH2 0x5B2 CALLDATASIZE PUSH1 0x4 PUSH2 0x32F5 JUMP JUMPDEST PUSH2 0x1537 JUMP JUMPDEST PUSH1 0x40 MLOAD PUSH2 0x3BD SWAP2 SWAP1 PUSH2 0x3310 JUMP JUMPDEST CALLVALUE DUP1 ISZERO PUSH2 0x5D0 JUMPI PUSH1 0x0 DUP1 REVERT JUMPDEST POP PUSH2 0x436 PUSH2 0x5DF CALLDATASIZE PUSH1 0x4 PUSH2 0x30F7 JUMP JUMPDEST PUSH2 0x15D9 JUMP JUMPDEST CALLVALUE DUP1 ISZERO PUSH2 0x5F0 JUMPI PUSH1 0x0 DUP1 REVERT JUMPDEST POP PUSH2 0x464 PUSH2 0x5FF CALLDATASIZE PUSH1 0x4 PUSH2 0x31E2 JUMP JUMPDEST PUSH2 0x166C JUMP JUMPDEST CALLVALUE DUP1 ISZERO PUSH2 0x610 JUMPI PUSH1 0x0 DUP1 REVERT JUMPDEST POP PUSH2 0x464 PUSH2 0x61F CALLDATASIZE PUSH1 0x4 PUSH2 0x32F5 JUMP JUMPDEST PUSH2 0x16F7 JUMP JUMPDEST CALLVALUE DUP1 ISZERO PUSH2 0x630 JUMPI PUSH1 0x0 DUP1 REVERT JUMPDEST POP PUSH1 0xA SLOAD PUSH1 0xFF AND PUSH2 0x3B1 JUMP JUMPDEST CALLVALUE DUP1 ISZERO PUSH2 0x648 JUMPI PUSH1 0x0 DUP1 REVERT JUMPDEST POP PUSH2 0x464 PUSH2 0x657 CALLDATASIZE PUSH1 0x4 PUSH2 0x30F7 JUMP JUMPDEST PUSH2 0x1748 JUMP JUMPDEST CALLVALUE DUP1 ISZERO PUSH2 0x668 JUMPI PUSH1 0x0 DUP1 REVERT JUMPDEST POP PUSH2 0x408 PUSH2 0x677 CALLDATASIZE PUSH1 0x4 PUSH2 0x30F7 JUMP JUMPDEST PUSH2 0x177D JUMP JUMPDEST CALLVALUE DUP1 ISZERO PUSH2 0x688 JUMPI PUSH1 0x0 DUP1 REVERT JUMPDEST POP PUSH2 0x3DB PUSH2 0x17F4 JUMP JUMPDEST CALLVALUE DUP1 ISZERO PUSH2 0x69D JUMPI PUSH1 0x0 DUP1 REVERT JUMPDEST POP PUSH2 0x408 PUSH2 0x1882 JUMP JUMPDEST CALLVALUE DUP1 ISZERO PUSH2 0x6B2 JUMPI PUSH1 0x0 DUP1 REVERT JUMPDEST POP PUSH2 0x436 PUSH2 0x6C1 CALLDATASIZE PUSH1 0x4 PUSH2 0x32F5 JUMP JUMPDEST PUSH2 0x1895 JUMP JUMPDEST CALLVALUE DUP1 ISZERO PUSH2 0x6D2 JUMPI PUSH1 0x0 DUP1 REVERT JUMPDEST POP PUSH2 0x464 PUSH2 0x191C JUMP JUMPDEST CALLVALUE DUP1 ISZERO PUSH2 0x6E7 JUMPI PUSH1 0x0 DUP1 REVERT JUMPDEST POP PUSH2 0x436 PUSH1 0x17 SLOAD DUP2 JUMP JUMPDEST CALLVALUE DUP1 ISZERO PUSH2 0x6FD JUMPI PUSH1 0x0 DUP1 REVERT JUMPDEST POP PUSH2 0x464 PUSH2 0x70C CALLDATASIZE PUSH1 0x4 PUSH2 0x3365 JUMP JUMPDEST PUSH2 0x1956 JUMP JUMPDEST CALLVALUE DUP1 ISZERO PUSH2 0x71D JUMPI PUSH1 0x0 DUP1 REVERT JUMPDEST POP PUSH2 0x464 PUSH2 0x72C CALLDATASIZE PUSH1 0x4 PUSH2 0x30F7 JUMP JUMPDEST PUSH2 0x1B11 JUMP JUMPDEST CALLVALUE DUP1 ISZERO PUSH2 0x73D JUMPI PUSH1 0x0 DUP1 REVERT JUMPDEST POP PUSH2 0x464 PUSH2 0x1B46 JUMP JUMPDEST CALLVALUE DUP1 ISZERO PUSH2 0x752 JUMPI PUSH1 0x0 DUP1 REVERT JUMPDEST POP PUSH2 0x464 PUSH2 0x1C48 JUMP JUMPDEST CALLVALUE DUP1 ISZERO PUSH2 0x767 JUMPI PUSH1 0x0 DUP1 REVERT JUMPDEST POP PUSH1 0xA SLOAD PUSH2 0x100 SWAP1 DIV PUSH1 0x1 PUSH1 0x1 PUSH1 0xA0 SHL SUB AND PUSH2 0x408 JUMP JUMPDEST CALLVALUE DUP1 ISZERO PUSH2 0x78A JUMPI PUSH1 0x0 DUP1 REVERT JUMPDEST POP PUSH2 0x3DB PUSH2 0x1C80 JUMP JUMPDEST CALLVALUE DUP1 ISZERO PUSH2 0x79F JUMPI PUSH1 0x0 DUP1 REVERT JUMPDEST POP PUSH1 0x12 SLOAD PUSH2 0x3B1 SWAP1 PUSH2 0x100 SWAP1 DIV PUSH1 0xFF AND DUP2 JUMP JUMPDEST CALLVALUE DUP1 ISZERO PUSH2 0x7BE JUMPI PUSH1 0x0 DUP1 REVERT JUMPDEST POP PUSH2 0x464 PUSH2 0x7CD CALLDATASIZE PUSH1 0x4 PUSH2 0x3380 JUMP JUMPDEST PUSH2 0x1C8F JUMP JUMPDEST CALLVALUE DUP1 ISZERO PUSH2 0x7DE JUMPI PUSH1 0x0 DUP1 REVERT JUMPDEST POP PUSH2 0x464 PUSH2 0x7ED CALLDATASIZE PUSH1 0x4 PUSH2 0x33BC JUMP JUMPDEST PUSH2 0x1C9A JUMP JUMPDEST CALLVALUE DUP1 ISZERO PUSH2 0x7FE JUMPI PUSH1 0x0 DUP1 REVERT JUMPDEST POP PUSH2 0x3B1 PUSH2 0x80D CALLDATASIZE PUSH1 0x4 PUSH2 0x33EF JUMP JUMPDEST PUSH2 0x1DDC JUMP JUMPDEST CALLVALUE DUP1 ISZERO PUSH2 0x81E JUMPI PUSH1 0x0 DUP1 REVERT JUMPDEST POP PUSH2 0x464 PUSH2 0x82D CALLDATASIZE PUSH1 0x4 PUSH2 0x3442 JUMP JUMPDEST PUSH2 0x1E70 JUMP JUMPDEST CALLVALUE DUP1 ISZERO PUSH2 0x83E JUMPI PUSH1 0x0 DUP1 REVERT JUMPDEST POP PUSH2 0x464 PUSH2 0x84D CALLDATASIZE PUSH1 0x4 PUSH2 0x32F5 JUMP JUMPDEST PUSH2 0x1EA8 JUMP JUMPDEST CALLVALUE DUP1 ISZERO PUSH2 0x85E JUMPI PUSH1 0x0 DUP1 REVERT JUMPDEST POP PUSH1 0x19 SLOAD PUSH2 0x86C SWAP1 PUSH1 0xFF AND DUP2 JUMP JUMPDEST PUSH1 0x40 MLOAD PUSH2 0x3BD SWAP2 SWAP1 PUSH2 0x34D4 JUMP JUMPDEST CALLVALUE DUP1 ISZERO PUSH2 0x885 JUMPI PUSH1 0x0 DUP1 REVERT JUMPDEST POP PUSH1 0x12 SLOAD PUSH2 0x3B1 SWAP1 PUSH1 0xFF AND DUP2 JUMP JUMPDEST CALLVALUE DUP1 ISZERO PUSH2 0x89F JUMPI PUSH1 0x0 DUP1 REVERT JUMPDEST POP PUSH2 0x436 PUSH1 0x15 SLOAD DUP2 JUMP JUMPDEST CALLVALUE DUP1 ISZERO PUSH2 0x8B5 JUMPI PUSH1 0x0 DUP1 REVERT JUMPDEST POP PUSH2 0x3DB PUSH2 0x1EFC JUMP JUMPDEST CALLVALUE DUP1 ISZERO PUSH2 0x8CA JUMPI PUSH1 0x0 DUP1 REVERT JUMPDEST POP PUSH2 0x3DB PUSH2 0x1F09 JUMP JUMPDEST CALLVALUE DUP1 ISZERO PUSH2 0x8DF JUMPI PUSH1 0x0 DUP1 REVERT JUMPDEST POP PUSH2 0x3DB PUSH2 0x8EE CALLDATASIZE PUSH1 0x4 PUSH2 0x30F7 JUMP JUMPDEST PUSH2 0x1F16 JUMP JUMPDEST CALLVALUE DUP1 ISZERO PUSH2 0x8FF JUMPI PUSH1 0x0 DUP1 REVERT JUMPDEST POP PUSH2 0x3B1 PUSH2 0x90E CALLDATASIZE PUSH1 0x4 PUSH2 0x32F5 JUMP JUMPDEST PUSH1 0x14 PUSH1 0x20 MSTORE PUSH1 0x0 SWAP1 DUP2 MSTORE PUSH1 0x40 SWAP1 KECCAK256 SLOAD PUSH1 0xFF AND DUP2 JUMP JUMPDEST CALLVALUE DUP1 ISZERO PUSH2 0x92F JUMPI PUSH1 0x0 DUP1 REVERT JUMPDEST POP PUSH2 0x464 PUSH2 0x93E CALLDATASIZE PUSH1 0x4 PUSH2 0x34FC JUMP JUMPDEST PUSH2 0x1FCB JUMP JUMPDEST CALLVALUE DUP1 ISZERO PUSH2 0x94F JUMPI PUSH1 0x0 DUP1 REVERT JUMPDEST POP PUSH2 0x436 PUSH2 0x210F JUMP JUMPDEST CALLVALUE DUP1 ISZERO PUSH2 0x964 JUMPI PUSH1 0x0 DUP1 REVERT JUMPDEST POP PUSH2 0x464 PUSH2 0x973 CALLDATASIZE PUSH1 0x4 PUSH2 0x31E2 JUMP JUMPDEST PUSH2 0x211A JUMP JUMPDEST CALLVALUE DUP1 ISZERO PUSH2 0x984 JUMPI PUSH1 0x0 DUP1 REVERT JUMPDEST POP PUSH2 0x436 PUSH2 0x215D JUMP JUMPDEST CALLVALUE DUP1 ISZERO PUSH2 0x999 JUMPI PUSH1 0x0 DUP1 REVERT JUMPDEST POP PUSH2 0x436 PUSH1 0x11 SLOAD DUP2 JUMP JUMPDEST CALLVALUE DUP1 ISZERO PUSH2 0x9AF JUMPI PUSH1 0x0 DUP1 REVERT JUMPDEST POP PUSH2 0x464 PUSH2 0x2175 JUMP JUMPDEST CALLVALUE DUP1 ISZERO PUSH2 0x9C4 JUMPI PUSH1 0x0 DUP1 REVERT JUMPDEST POP PUSH2 0x3B1 PUSH2 0x9D3 CALLDATASIZE PUSH1 0x4 PUSH2 0x351D JUMP JUMPDEST PUSH1 0x1 PUSH1 0x1 PUSH1 0xA0 SHL SUB SWAP2 DUP3 AND PUSH1 0x0 SWAP1 DUP2 MSTORE PUSH1 0x5 PUSH1 0x20 SWAP1 DUP2 MSTORE PUSH1 0x40 DUP1 DUP4 KECCAK256 SWAP4 SWAP1 SWAP5 AND DUP3 MSTORE SWAP2 SWAP1 SWAP2 MSTORE KECCAK256 SLOAD PUSH1 0xFF AND SWAP1 JUMP JUMPDEST CALLVALUE DUP1 ISZERO PUSH2 0xA0D JUMPI PUSH1 0x0 DUP1 REVERT JUMPDEST POP PUSH2 0x464 PUSH2 0xA1C CALLDATASIZE PUSH1 0x4 PUSH2 0x32F5 JUMP JUMPDEST PUSH2 0x2265 JUMP JUMPDEST CALLVALUE DUP1 ISZERO PUSH2 0xA2D JUMPI PUSH1 0x0 DUP1 REVERT JUMPDEST POP PUSH2 0x464 PUSH2 0xA3C CALLDATASIZE PUSH1 0x4 PUSH2 0x32F5 JUMP JUMPDEST PUSH2 0x2306 JUMP JUMPDEST CALLVALUE DUP1 ISZERO PUSH2 0xA4D JUMPI PUSH1 0x0 DUP1 REVERT JUMPDEST POP PUSH2 0x436 PUSH1 0x18 SLOAD DUP2 JUMP JUMPDEST CALLVALUE DUP1 ISZERO PUSH2 0xA63 JUMPI PUSH1 0x0 DUP1 REVERT JUMPDEST POP PUSH1 0x12 SLOAD PUSH2 0x408 SWAP1 PUSH3 0x10000 SWAP1 DIV PUSH1 0x1 PUSH1 0x1 PUSH1 0xA0 SHL SUB AND DUP2 JUMP JUMPDEST PUSH1 0x0 PUSH2 0xA88 DUP3 PUSH2 0x2369 JUMP JUMPDEST SWAP3 SWAP2 POP POP JUMP JUMPDEST PUSH1 0x60 PUSH1 0x0 DUP1 SLOAD PUSH2 0xA9D SWAP1 PUSH2 0x3539 JUMP JUMPDEST DUP1 PUSH1 0x1F ADD PUSH1 0x20 DUP1 SWAP2 DIV MUL PUSH1 0x20 ADD PUSH1 0x40 MLOAD SWAP1 DUP2 ADD PUSH1 0x40 MSTORE DUP1 SWAP3 SWAP2 SWAP1 DUP2 DUP2 MSTORE PUSH1 0x20 ADD DUP3 DUP1 SLOAD PUSH2 0xAC9 SWAP1 PUSH2 0x3539 JUMP JUMPDEST DUP1 ISZERO PUSH2 0xB16 JUMPI DUP1 PUSH1 0x1F LT PUSH2 0xAEB JUMPI PUSH2 0x100 DUP1 DUP4 SLOAD DIV MUL DUP4 MSTORE SWAP2 PUSH1 0x20 ADD SWAP2 PUSH2 0xB16 JUMP JUMPDEST DUP3 ADD SWAP2 SWAP1 PUSH1 0x0 MSTORE PUSH1 0x20 PUSH1 0x0 KECCAK256 SWAP1 JUMPDEST DUP2 SLOAD DUP2 MSTORE SWAP1 PUSH1 0x1 ADD SWAP1 PUSH1 0x20 ADD DUP1 DUP4 GT PUSH2 0xAF9 JUMPI DUP3 SWAP1 SUB PUSH1 0x1F AND DUP3 ADD SWAP2 JUMPDEST POP POP POP POP POP SWAP1 POP SWAP1 JUMP JUMPDEST PUSH1 0x0 DUP2 DUP2 MSTORE PUSH1 0x2 PUSH1 0x20 MSTORE PUSH1 0x40 DUP2 KECCAK256 SLOAD PUSH1 0x1 PUSH1 0x1 PUSH1 0xA0 SHL SUB AND PUSH2 0xB9E JUMPI PUSH1 0x40 MLOAD PUSH3 0x461BCD PUSH1 0xE5 SHL DUP2 MSTORE PUSH1 0x20 PUSH1 0x4 DUP3 ADD MSTORE PUSH1 0x2C PUSH1 0x24 DUP3 ADD MSTORE PUSH32 0x4552433732313A20617070726F76656420717565727920666F72206E6F6E6578 PUSH1 0x44 DUP3 ADD MSTORE PUSH12 0x34B9BA32B73A103A37B5B2B7 PUSH1 0xA1 SHL PUSH1 0x64 DUP3 ADD MSTORE PUSH1 0x84 ADD JUMPDEST PUSH1 0x40 MLOAD DUP1 SWAP2 SUB SWAP1 REVERT JUMPDEST POP PUSH1 0x0 SWAP1 DUP2 MSTORE PUSH1 0x4 PUSH1 0x20 MSTORE PUSH1 0x40 SWAP1 KECCAK256 SLOAD PUSH1 0x1 PUSH1 0x1 PUSH1 0xA0 SHL SUB AND SWAP1 JUMP JUMPDEST PUSH1 0x0 PUSH2 0xBC5 DUP3 PUSH2 0x177D JUMP JUMPDEST SWAP1 POP DUP1 PUSH1 0x1 PUSH1 0x1 PUSH1 0xA0 SHL SUB AND DUP4 PUSH1 0x1 PUSH1 0x1 PUSH1 0xA0 SHL SUB AND EQ ISZERO PUSH2 0xC33 JUMPI PUSH1 0x40 MLOAD PUSH3 0x461BCD PUSH1 0xE5 SHL DUP2 MSTORE PUSH1 0x20 PUSH1 0x4 DUP3 ADD MSTORE PUSH1 0x21 PUSH1 0x24 DUP3 ADD MSTORE PUSH32 0x4552433732313A20617070726F76616C20746F2063757272656E74206F776E65 PUSH1 0x44 DUP3 ADD MSTORE PUSH1 0x39 PUSH1 0xF9 SHL PUSH1 0x64 DUP3 ADD MSTORE PUSH1 0x84 ADD PUSH2 0xB95 JUMP JUMPDEST CALLER PUSH1 0x1 PUSH1 0x1 PUSH1 0xA0 SHL SUB DUP3 AND EQ DUP1 PUSH2 0xC4F JUMPI POP PUSH2 0xC4F DUP2 CALLER PUSH2 0x9D3 JUMP JUMPDEST PUSH2 0xCC1 JUMPI PUSH1 0x40 MLOAD PUSH3 0x461BCD PUSH1 0xE5 SHL DUP2 MSTORE PUSH1 0x20 PUSH1 0x4 DUP3 ADD MSTORE PUSH1 0x38 PUSH1 0x24 DUP3 ADD MSTORE PUSH32 0x4552433732313A20617070726F76652063616C6C6572206973206E6F74206F77 PUSH1 0x44 DUP3 ADD MSTORE PUSH32 0x6E6572206E6F7220617070726F76656420666F7220616C6C0000000000000000 PUSH1 0x64 DUP3 ADD MSTORE PUSH1 0x84 ADD PUSH2 0xB95 JUMP JUMPDEST PUSH2 0xCCB DUP4 DUP4 PUSH2 0x238E JUMP JUMPDEST POP POP POP JUMP JUMPDEST PUSH1 0xA SLOAD PUSH1 0x1 PUSH1 0x1 PUSH1 0xA0 SHL SUB PUSH2 0x100 SWAP1 SWAP2 DIV AND CALLER EQ PUSH2 0xD00 JUMPI PUSH1 0x40 MLOAD PUSH3 0x461BCD PUSH1 0xE5 SHL DUP2 MSTORE PUSH1 0x4 ADD PUSH2 0xB95 SWAP1 PUSH2 0x3574 JUMP JUMPDEST PUSH1 0x0 DUP2 MLOAD GT PUSH2 0xD61 JUMPI PUSH1 0x40 MLOAD PUSH3 0x461BCD PUSH1 0xE5 SHL DUP2 MSTORE PUSH1 0x20 PUSH1 0x4 DUP3 ADD MSTORE PUSH1 0x27 PUSH1 0x24 DUP3 ADD MSTORE PUSH32 0x50726F76656E616E636520686173682063616E6E6F7420626520656D70747920 PUSH1 0x44 DUP3 ADD MSTORE PUSH7 0x39BA3934B73397 PUSH1 0xC9 SHL PUSH1 0x64 DUP3 ADD MSTORE PUSH1 0x84 ADD PUSH2 0xB95 JUMP JUMPDEST PUSH1 0x12 SLOAD PUSH2 0x100 SWAP1 DIV PUSH1 0xFF AND ISZERO PUSH2 0xDB9 JUMPI PUSH1 0x40 MLOAD PUSH3 0x461BCD PUSH1 0xE5 SHL DUP2 MSTORE PUSH1 0x20 PUSH1 0x4 DUP3 ADD MSTORE PUSH1 0x1A PUSH1 0x24 DUP3 ADD MSTORE PUSH32 0x50726F76656E616E636520686173682069732066726F7A656E2E000000000000 PUSH1 0x44 DUP3 ADD MSTORE PUSH1 0x64 ADD PUSH2 0xB95 JUMP JUMPDEST DUP1 MLOAD PUSH2 0xDCC SWAP1 PUSH1 0xE SWAP1 PUSH1 0x20 DUP5 ADD SWAP1 PUSH2 0x2FC0 JUMP JUMPDEST POP POP JUMP JUMPDEST PUSH1 0xA SLOAD PUSH1 0x1 PUSH1 0x1 PUSH1 0xA0 SHL SUB PUSH2 0x100 SWAP1 SWAP2 DIV AND CALLER EQ PUSH2 0xE00 JUMPI PUSH1 0x40 MLOAD PUSH3 0x461BCD PUSH1 0xE5 SHL DUP2 MSTORE PUSH1 0x4 ADD PUSH2 0xB95 SWAP1 PUSH2 0x3574 JUMP JUMPDEST PUSH1 0x18 SSTORE JUMP JUMPDEST PUSH2 0xE0F CALLER DUP3 PUSH2 0x23FC JUMP JUMPDEST PUSH2 0xE2B JUMPI PUSH1 0x40 MLOAD PUSH3 0x461BCD PUSH1 0xE5 SHL DUP2 MSTORE PUSH1 0x4 ADD PUSH2 0xB95 SWAP1 PUSH2 0x35A9 JUMP JUMPDEST PUSH2 0xCCB DUP4 DUP4 DUP4 PUSH2 0x24F3 JUMP JUMPDEST PUSH1 0x2 PUSH1 0xB SLOAD EQ ISZERO PUSH2 0xE89 JUMPI PUSH1 0x40 MLOAD PUSH3 0x461BCD PUSH1 0xE5 SHL DUP2 MSTORE PUSH1 0x20 PUSH1 0x4 DUP3 ADD MSTORE PUSH1 0x1F PUSH1 0x24 DUP3 ADD MSTORE PUSH32 0x5265656E7472616E637947756172643A207265656E7472616E742063616C6C00 PUSH1 0x44 DUP3 ADD MSTORE PUSH1 0x64 ADD PUSH2 0xB95 JUMP JUMPDEST PUSH1 0x2 PUSH1 0xB SSTORE PUSH1 0xA SLOAD PUSH1 0xFF AND ISZERO PUSH2 0xEB1 JUMPI PUSH1 0x40 MLOAD PUSH3 0x461BCD PUSH1 0xE5 SHL DUP2 MSTORE PUSH1 0x4 ADD PUSH2 0xB95 SWAP1 PUSH2 0x35FA JUMP JUMPDEST PUSH1 0x4 PUSH1 0x19 SLOAD PUSH1 0xFF AND PUSH1 0x4 DUP2 GT ISZERO PUSH2 0xECA JUMPI PUSH2 0xECA PUSH2 0x34BE JUMP JUMPDEST EQ PUSH2 0xF17 JUMPI PUSH1 0x40 MLOAD PUSH3 0x461BCD PUSH1 0xE5 SHL DUP2 MSTORE PUSH1 0x20 PUSH1 0x4 DUP3 ADD MSTORE PUSH1 0x1A PUSH1 0x24 DUP3 ADD MSTORE PUSH32 0x5075626C69632053616C65206E6F7420696E697469617465642E000000000000 PUSH1 0x44 DUP3 ADD MSTORE PUSH1 0x64 ADD PUSH2 0xB95 JUMP JUMPDEST CALLVALUE DUP2 PUSH1 0x18 SLOAD PUSH2 0xF26 SWAP2 SWAP1 PUSH2 0x363A JUMP JUMPDEST EQ PUSH2 0xF6F JUMPI PUSH1 0x40 MLOAD PUSH3 0x461BCD PUSH1 0xE5 SHL DUP2 MSTORE PUSH1 0x20 PUSH1 0x4 DUP3 ADD MSTORE PUSH1 0x19 PUSH1 0x24 DUP3 ADD MSTORE PUSH25 0x24B731B7B93932B1BA1022AA24103B30B63AB29039B2B73A17 PUSH1 0x39 SHL PUSH1 0x44 DUP3 ADD MSTORE PUSH1 0x64 ADD PUSH2 0xB95 JUMP JUMPDEST PUSH1 0x0 DUP2 GT PUSH2 0xF8F JUMPI PUSH1 0x40 MLOAD PUSH3 0x461BCD PUSH1 0xE5 SHL DUP2 MSTORE PUSH1 0x4 ADD PUSH2 0xB95 SWAP1 PUSH2 0x3659 JUMP JUMPDEST PUSH1 0x17 SLOAD DUP2 PUSH2 0xF9C PUSH1 0x8 SLOAD SWAP1 JUMP JUMPDEST PUSH2 0xFA6 SWAP2 SWAP1 PUSH2 0x369C JUMP JUMPDEST GT ISZERO PUSH2 0xFC4 JUMPI PUSH1 0x40 MLOAD PUSH3 0x461BCD PUSH1 0xE5 SHL DUP2 MSTORE PUSH1 0x4 ADD PUSH2 0xB95 SWAP1 PUSH2 0x36B4 JUMP JUMPDEST PUSH1 0x11 SLOAD DUP2 GT ISZERO PUSH2 0x1029 JUMPI PUSH1 0x40 MLOAD PUSH3 0x461BCD PUSH1 0xE5 SHL DUP2 MSTORE PUSH1 0x20 PUSH1 0x4 DUP3 ADD MSTORE PUSH1 0x2A PUSH1 0x24 DUP3 ADD MSTORE PUSH32 0x45786365656473206D617820616C6C6F776564206D696E747320706572207472 PUSH1 0x44 DUP3 ADD MSTORE PUSH10 0x30B739B0B1BA34B7B717 PUSH1 0xB1 SHL PUSH1 0x64 DUP3 ADD MSTORE PUSH1 0x84 ADD PUSH2 0xB95 JUMP JUMPDEST PUSH1 0x1 JUMPDEST DUP2 DUP2 GT PUSH2 0x1065 JUMPI PUSH2 0x1045 CALLER PUSH2 0x1040 PUSH1 0xC SLOAD SWAP1 JUMP JUMPDEST PUSH2 0x269A JUMP JUMPDEST PUSH2 0x1053 PUSH1 0xC DUP1 SLOAD PUSH1 0x1 ADD SWAP1 SSTORE JUMP JUMPDEST DUP1 PUSH2 0x105D DUP2 PUSH2 0x36FA JUMP JUMPDEST SWAP2 POP POP PUSH2 0x102C JUMP JUMPDEST POP POP PUSH1 0x1 PUSH1 0xB SSTORE JUMP JUMPDEST PUSH1 0x0 PUSH2 0x1079 DUP4 PUSH2 0x1895 JUMP JUMPDEST DUP3 LT PUSH2 0x10DB JUMPI PUSH1 0x40 MLOAD PUSH3 0x461BCD PUSH1 0xE5 SHL DUP2 MSTORE PUSH1 0x20 PUSH1 0x4 DUP3 ADD MSTORE PUSH1 0x2B PUSH1 0x24 DUP3 ADD MSTORE PUSH32 0x455243373231456E756D657261626C653A206F776E657220696E646578206F75 PUSH1 0x44 DUP3 ADD MSTORE PUSH11 0x74206F6620626F756E6473 PUSH1 0xA8 SHL PUSH1 0x64 DUP3 ADD MSTORE PUSH1 0x84 ADD PUSH2 0xB95 JUMP JUMPDEST POP PUSH1 0x1 PUSH1 0x1 PUSH1 0xA0 SHL SUB SWAP2 SWAP1 SWAP2 AND PUSH1 0x0 SWAP1 DUP2 MSTORE PUSH1 0x6 PUSH1 0x20 SWAP1 DUP2 MSTORE PUSH1 0x40 DUP1 DUP4 KECCAK256 SWAP4 DUP4 MSTORE SWAP3 SWAP1 MSTORE KECCAK256 SLOAD SWAP1 JUMP JUMPDEST PUSH1 0x2 PUSH1 0xB SLOAD EQ ISZERO PUSH2 0x1157 JUMPI PUSH1 0x40 MLOAD PUSH3 0x461BCD PUSH1 0xE5 SHL DUP2 MSTORE PUSH1 0x20 PUSH1 0x4 DUP3 ADD MSTORE PUSH1 0x1F PUSH1 0x24 DUP3 ADD MSTORE PUSH32 0x5265656E7472616E637947756172643A207265656E7472616E742063616C6C00 PUSH1 0x44 DUP3 ADD MSTORE PUSH1 0x64 ADD PUSH2 0xB95 JUMP JUMPDEST PUSH1 0x2 PUSH1 0xB SSTORE PUSH1 0xA SLOAD PUSH1 0xFF AND ISZERO PUSH2 0x117F JUMPI PUSH1 0x40 MLOAD PUSH3 0x461BCD PUSH1 0xE5 SHL DUP2 MSTORE PUSH1 0x4 ADD PUSH2 0xB95 SWAP1 PUSH2 0x35FA JUMP JUMPDEST PUSH1 0x2 PUSH1 0x19 SLOAD PUSH1 0xFF AND PUSH1 0x4 DUP2 GT ISZERO PUSH2 0x1198 JUMPI PUSH2 0x1198 PUSH2 0x34BE JUMP JUMPDEST EQ PUSH2 0x11E5 JUMPI PUSH1 0x40 MLOAD PUSH3 0x461BCD PUSH1 0xE5 SHL DUP2 MSTORE PUSH1 0x20 PUSH1 0x4 DUP3 ADD MSTORE PUSH1 0x1D PUSH1 0x24 DUP3 ADD MSTORE PUSH32 0x57686974656C6973742073616C65206E6F7420696E697469617465642E000000 PUSH1 0x44 DUP3 ADD MSTORE PUSH1 0x64 ADD PUSH2 0xB95 JUMP JUMPDEST CALLVALUE PUSH1 0x18 SLOAD EQ PUSH2 0x1232 JUMPI PUSH1 0x40 MLOAD PUSH3 0x461BCD PUSH1 0xE5 SHL DUP2 MSTORE PUSH1 0x20 PUSH1 0x4 DUP3 ADD MSTORE PUSH1 0x19 PUSH1 0x24 DUP3 ADD MSTORE PUSH25 0x24B731B7B93932B1BA1022AA24103B30B63AB29039B2B73A17 PUSH1 0x39 SHL PUSH1 0x44 DUP3 ADD MSTORE PUSH1 0x64 ADD PUSH2 0xB95 JUMP JUMPDEST PUSH1 0xD SLOAD PUSH1 0x40 MLOAD PUSH12 0xFFFFFFFFFFFFFFFFFFFFFFFF NOT CALLER PUSH1 0x60 SHL AND PUSH1 0x20 DUP3 ADD MSTORE PUSH2 0x12AB SWAP2 SWAP1 PUSH1 0x34 ADD PUSH1 0x40 MLOAD PUSH1 0x20 DUP2 DUP4 SUB SUB DUP2 MSTORE SWAP1 PUSH1 0x40 MSTORE DUP1 MLOAD SWAP1 PUSH1 0x20 ADD KECCAK256 DUP5 DUP5 DUP1 DUP1 PUSH1 0x20 MUL PUSH1 0x20 ADD PUSH1 0x40 MLOAD SWAP1 DUP2 ADD PUSH1 0x40 MSTORE DUP1 SWAP4 SWAP3 SWAP2 SWAP1 DUP2 DUP2 MSTORE PUSH1 0x20 ADD DUP4 DUP4 PUSH1 0x20 MUL DUP1 DUP3 DUP5 CALLDATACOPY PUSH1 0x0 SWAP3 ADD SWAP2 SWAP1 SWAP2 MSTORE POP SWAP3 SWAP5 SWAP4 SWAP3 POP POP PUSH2 0x26B4 SWAP1 POP JUMP JUMPDEST PUSH2 0x12F7 JUMPI PUSH1 0x40 MLOAD PUSH3 0x461BCD PUSH1 0xE5 SHL DUP2 MSTORE PUSH1 0x20 PUSH1 0x4 DUP3 ADD MSTORE PUSH1 0x19 PUSH1 0x24 DUP3 ADD MSTORE PUSH32 0x41646472657373206E6F74206F6E2077686974656C6973742E00000000000000 PUSH1 0x44 DUP3 ADD MSTORE PUSH1 0x64 ADD PUSH2 0xB95 JUMP JUMPDEST PUSH1 0x17 SLOAD PUSH1 0x8 SLOAD PUSH2 0x1308 SWAP1 PUSH1 0x1 PUSH2 0x369C JUMP JUMPDEST GT ISZERO PUSH2 0x1326 JUMPI PUSH1 0x40 MLOAD PUSH3 0x461BCD PUSH1 0xE5 SHL DUP2 MSTORE PUSH1 0x4 ADD PUSH2 0xB95 SWAP1 PUSH2 0x36B4 JUMP JUMPDEST CALLER PUSH1 0x0 SWAP1 DUP2 MSTORE PUSH1 0x14 PUSH1 0x20 MSTORE PUSH1 0x40 SWAP1 KECCAK256 SLOAD PUSH1 0xFF AND ISZERO PUSH2 0x1386 JUMPI PUSH1 0x40 MLOAD PUSH3 0x461BCD PUSH1 0xE5 SHL DUP2 MSTORE PUSH1 0x20 PUSH1 0x4 DUP3 ADD MSTORE PUSH1 0x1F PUSH1 0x24 DUP3 ADD MSTORE PUSH32 0x57686974656C697374206D696E7420616C726561647920636C61696D65642E00 PUSH1 0x44 DUP3 ADD MSTORE PUSH1 0x64 ADD PUSH2 0xB95 JUMP JUMPDEST CALLER PUSH1 0x0 DUP2 DUP2 MSTORE PUSH1 0x14 PUSH1 0x20 MSTORE PUSH1 0x40 SWAP1 KECCAK256 DUP1 SLOAD PUSH1 0xFF NOT AND PUSH1 0x1 OR SWAP1 SSTORE PUSH2 0x13AD SWAP1 PUSH2 0x1040 PUSH1 0xC SLOAD SWAP1 JUMP JUMPDEST PUSH2 0x1065 PUSH1 0xC DUP1 SLOAD PUSH1 0x1 ADD SWAP1 SSTORE JUMP JUMPDEST PUSH1 0xA SLOAD PUSH1 0x1 PUSH1 0x1 PUSH1 0xA0 SHL SUB PUSH2 0x100 SWAP1 SWAP2 DIV AND CALLER EQ PUSH2 0x13EB JUMPI PUSH1 0x40 MLOAD PUSH3 0x461BCD PUSH1 0xE5 SHL DUP2 MSTORE PUSH1 0x4 ADD PUSH2 0xB95 SWAP1 PUSH2 0x3574 JUMP JUMPDEST SELFBALANCE DUP1 PUSH2 0x1439 JUMPI PUSH1 0x40 MLOAD PUSH3 0x461BCD PUSH1 0xE5 SHL DUP2 MSTORE PUSH1 0x20 PUSH1 0x4 DUP3 ADD MSTORE PUSH1 0x17 PUSH1 0x24 DUP3 ADD MSTORE PUSH32 0x4E6F2062616C616E636520746F2077697468647261772E000000000000000000 PUSH1 0x44 DUP3 ADD MSTORE PUSH1 0x64 ADD PUSH2 0xB95 JUMP JUMPDEST PUSH1 0x12 SLOAD PUSH1 0x40 MLOAD PUSH1 0x0 SWAP2 PUSH3 0x10000 SWAP1 DIV PUSH1 0x1 PUSH1 0x1 PUSH1 0xA0 SHL SUB AND SWAP1 DUP4 SWAP1 DUP4 DUP2 DUP2 DUP2 DUP6 DUP8 GAS CALL SWAP3 POP POP POP RETURNDATASIZE DUP1 PUSH1 0x0 DUP2 EQ PUSH2 0x148C JUMPI PUSH1 0x40 MLOAD SWAP2 POP PUSH1 0x1F NOT PUSH1 0x3F RETURNDATASIZE ADD AND DUP3 ADD PUSH1 0x40 MSTORE RETURNDATASIZE DUP3 MSTORE RETURNDATASIZE PUSH1 0x0 PUSH1 0x20 DUP5 ADD RETURNDATACOPY PUSH2 0x1491 JUMP JUMPDEST PUSH1 0x60 SWAP2 POP JUMPDEST POP POP SWAP1 POP DUP1 PUSH2 0xDCC JUMPI PUSH1 0x40 MLOAD PUSH3 0x461BCD PUSH1 0xE5 SHL DUP2 MSTORE PUSH1 0x20 PUSH1 0x4 DUP3 ADD MSTORE PUSH1 0x1B PUSH1 0x24 DUP3 ADD MSTORE PUSH32 0x4661696C656420746F2077697468647261772062616C616E63652E0000000000 PUSH1 0x44 DUP3 ADD MSTORE PUSH1 0x64 ADD PUSH2 0xB95 JUMP JUMPDEST PUSH1 0xA SLOAD PUSH1 0x1 PUSH1 0x1 PUSH1 0xA0 SHL SUB PUSH2 0x100 SWAP1 SWAP2 DIV AND CALLER EQ PUSH2 0x1512 JUMPI PUSH1 0x40 MLOAD PUSH3 0x461BCD PUSH1 0xE5 SHL DUP2 MSTORE PUSH1 0x4 ADD PUSH2 0xB95 SWAP1 PUSH2 0x3574 JUMP JUMPDEST PUSH2 0x151A PUSH2 0x26CA JUMP JUMPDEST JUMP JUMPDEST PUSH2 0xCCB DUP4 DUP4 DUP4 PUSH1 0x40 MLOAD DUP1 PUSH1 0x20 ADD PUSH1 0x40 MSTORE DUP1 PUSH1 0x0 DUP2 MSTORE POP PUSH2 0x1E70 JUMP JUMPDEST PUSH1 0x60 PUSH1 0x0 PUSH2 0x1544 DUP4 PUSH2 0x1895 JUMP JUMPDEST SWAP1 POP PUSH1 0x0 DUP2 PUSH8 0xFFFFFFFFFFFFFFFF DUP2 GT ISZERO PUSH2 0x1561 JUMPI PUSH2 0x1561 PUSH2 0x3156 JUMP JUMPDEST PUSH1 0x40 MLOAD SWAP1 DUP1 DUP3 MSTORE DUP1 PUSH1 0x20 MUL PUSH1 0x20 ADD DUP3 ADD PUSH1 0x40 MSTORE DUP1 ISZERO PUSH2 0x158A JUMPI DUP2 PUSH1 0x20 ADD PUSH1 0x20 DUP3 MUL DUP1 CALLDATASIZE DUP4 CALLDATACOPY ADD SWAP1 POP JUMPDEST POP SWAP1 POP PUSH1 0x0 JUMPDEST DUP3 DUP2 LT ISZERO PUSH2 0x15D1 JUMPI PUSH2 0x15A2 DUP6 DUP3 PUSH2 0x106E JUMP JUMPDEST DUP3 DUP3 DUP2 MLOAD DUP2 LT PUSH2 0x15B4 JUMPI PUSH2 0x15B4 PUSH2 0x3715 JUMP JUMPDEST PUSH1 0x20 SWAP1 DUP2 MUL SWAP2 SWAP1 SWAP2 ADD ADD MSTORE DUP1 PUSH2 0x15C9 DUP2 PUSH2 0x36FA JUMP JUMPDEST SWAP2 POP POP PUSH2 0x1590 JUMP JUMPDEST POP SWAP4 SWAP3 POP POP POP JUMP JUMPDEST PUSH1 0x0 PUSH2 0x15E4 PUSH1 0x8 SLOAD SWAP1 JUMP JUMPDEST DUP3 LT PUSH2 0x1647 JUMPI PUSH1 0x40 MLOAD PUSH3 0x461BCD PUSH1 0xE5 SHL DUP2 MSTORE PUSH1 0x20 PUSH1 0x4 DUP3 ADD MSTORE PUSH1 0x2C PUSH1 0x24 DUP3 ADD MSTORE PUSH32 0x455243373231456E756D657261626C653A20676C6F62616C20696E646578206F PUSH1 0x44 DUP3 ADD MSTORE PUSH12 0x7574206F6620626F756E6473 PUSH1 0xA0 SHL PUSH1 0x64 DUP3 ADD MSTORE PUSH1 0x84 ADD PUSH2 0xB95 JUMP JUMPDEST PUSH1 0x8 DUP3 DUP2 SLOAD DUP2 LT PUSH2 0x165A JUMPI PUSH2 0x165A PUSH2 0x3715 JUMP JUMPDEST SWAP1 PUSH1 0x0 MSTORE PUSH1 0x20 PUSH1 0x0 KECCAK256 ADD SLOAD SWAP1 POP SWAP2 SWAP1 POP JUMP JUMPDEST PUSH1 0xA SLOAD PUSH1 0x1 PUSH1 0x1 PUSH1 0xA0 SHL SUB PUSH2 0x100 SWAP1 SWAP2 DIV AND CALLER EQ PUSH2 0x169C JUMPI PUSH1 0x40 MLOAD PUSH3 0x461BCD PUSH1 0xE5 SHL DUP2 MSTORE PUSH1 0x4 ADD PUSH2 0xB95 SWAP1 PUSH2 0x3574 JUMP JUMPDEST PUSH1 0x12 SLOAD PUSH1 0xFF AND ISZERO PUSH2 0x16E4 JUMPI PUSH1 0x40 MLOAD PUSH3 0x461BCD PUSH1 0xE5 SHL DUP2 MSTORE PUSH1 0x20 PUSH1 0x4 DUP3 ADD MSTORE PUSH1 0x12 PUSH1 0x24 DUP3 ADD MSTORE PUSH18 0x2130B9B2AAA9249034B990333937BD32B717 PUSH1 0x71 SHL PUSH1 0x44 DUP3 ADD MSTORE PUSH1 0x64 ADD PUSH2 0xB95 JUMP JUMPDEST DUP1 MLOAD PUSH2 0xDCC SWAP1 PUSH1 0xF SWAP1 PUSH1 0x20 DUP5 ADD SWAP1 PUSH2 0x2FC0 JUMP JUMPDEST PUSH1 0xA SLOAD PUSH1 0x1 PUSH1 0x1 PUSH1 0xA0 SHL SUB PUSH2 0x100 SWAP1 SWAP2 DIV AND CALLER EQ PUSH2 0x1727 JUMPI PUSH1 0x40 MLOAD PUSH3 0x461BCD PUSH1 0xE5 SHL DUP2 MSTORE PUSH1 0x4 ADD PUSH2 0xB95 SWAP1 PUSH2 0x3574 JUMP JUMPDEST PUSH1 0x1 PUSH1 0x1 PUSH1 0xA0 SHL SUB AND PUSH1 0x0 SWAP1 DUP2 MSTORE PUSH1 0x14 PUSH1 0x20 MSTORE PUSH1 0x40 SWAP1 KECCAK256 DUP1 SLOAD PUSH1 0xFF NOT AND SWAP1 SSTORE JUMP JUMPDEST PUSH1 0xA SLOAD PUSH1 0x1 PUSH1 0x1 PUSH1 0xA0 SHL SUB PUSH2 0x100 SWAP1 SWAP2 DIV AND CALLER EQ PUSH2 0x1778 JUMPI PUSH1 0x40 MLOAD PUSH3 0x461BCD PUSH1 0xE5 SHL DUP2 MSTORE PUSH1 0x4 ADD PUSH2 0xB95 SWAP1 PUSH2 0x3574 JUMP JUMPDEST PUSH1 0x11 SSTORE JUMP JUMPDEST PUSH1 0x0 DUP2 DUP2 MSTORE PUSH1 0x2 PUSH1 0x20 MSTORE PUSH1 0x40 DUP2 KECCAK256 SLOAD PUSH1 0x1 PUSH1 0x1 PUSH1 0xA0 SHL SUB AND DUP1 PUSH2 0xA88 JUMPI PUSH1 0x40 MLOAD PUSH3 0x461BCD PUSH1 0xE5 SHL DUP2 MSTORE PUSH1 0x20 PUSH1 0x4 DUP3 ADD MSTORE PUSH1 0x29 PUSH1 0x24 DUP3 ADD MSTORE PUSH32 0x4552433732313A206F776E657220717565727920666F72206E6F6E6578697374 PUSH1 0x44 DUP3 ADD MSTORE PUSH9 0x32B73A103A37B5B2B7 PUSH1 0xB9 SHL PUSH1 0x64 DUP3 ADD MSTORE PUSH1 0x84 ADD PUSH2 0xB95 JUMP JUMPDEST PUSH1 0xF DUP1 SLOAD PUSH2 0x1801 SWAP1 PUSH2 0x3539 JUMP JUMPDEST DUP1 PUSH1 0x1F ADD PUSH1 0x20 DUP1 SWAP2 DIV MUL PUSH1 0x20 ADD PUSH1 0x40 MLOAD SWAP1 DUP2 ADD PUSH1 0x40 MSTORE DUP1 SWAP3 SWAP2 SWAP1 DUP2 DUP2 MSTORE PUSH1 0x20 ADD DUP3 DUP1 SLOAD PUSH2 0x182D SWAP1 PUSH2 0x3539 JUMP JUMPDEST DUP1 ISZERO PUSH2 0x187A JUMPI DUP1 PUSH1 0x1F LT PUSH2 0x184F JUMPI PUSH2 0x100 DUP1 DUP4 SLOAD DIV MUL DUP4 MSTORE SWAP2 PUSH1 0x20 ADD SWAP2 PUSH2 0x187A JUMP JUMPDEST DUP3 ADD SWAP2 SWAP1 PUSH1 0x0 MSTORE PUSH1 0x20 PUSH1 0x0 KECCAK256 SWAP1 JUMPDEST DUP2 SLOAD DUP2 MSTORE SWAP1 PUSH1 0x1 ADD SWAP1 PUSH1 0x20 ADD DUP1 DUP4 GT PUSH2 0x185D JUMPI DUP3 SWAP1 SUB PUSH1 0x1F AND DUP3 ADD SWAP2 JUMPDEST POP POP POP POP POP DUP2 JUMP JUMPDEST PUSH1 0x0 PUSH2 0x1890 PUSH2 0x677 PUSH1 0x8 SLOAD SWAP1 JUMP JUMPDEST SWAP1 POP SWAP1 JUMP JUMPDEST PUSH1 0x0 PUSH1 0x1 PUSH1 0x1 PUSH1 0xA0 SHL SUB DUP3 AND PUSH2 0x1900 JUMPI PUSH1 0x40 MLOAD PUSH3 0x461BCD PUSH1 0xE5 SHL DUP2 MSTORE PUSH1 0x20 PUSH1 0x4 DUP3 ADD MSTORE PUSH1 0x2A PUSH1 0x24 DUP3 ADD MSTORE PUSH32 0x4552433732313A2062616C616E636520717565727920666F7220746865207A65 PUSH1 0x44 DUP3 ADD MSTORE PUSH10 0x726F2061646472657373 PUSH1 0xB0 SHL PUSH1 0x64 DUP3 ADD MSTORE PUSH1 0x84 ADD PUSH2 0xB95 JUMP JUMPDEST POP PUSH1 0x1 PUSH1 0x1 PUSH1 0xA0 SHL SUB AND PUSH1 0x0 SWAP1 DUP2 MSTORE PUSH1 0x3 PUSH1 0x20 MSTORE PUSH1 0x40 SWAP1 KECCAK256 SLOAD SWAP1 JUMP JUMPDEST PUSH1 0xA SLOAD PUSH1 0x1 PUSH1 0x1 PUSH1 0xA0 SHL SUB PUSH2 0x100 SWAP1 SWAP2 DIV AND CALLER EQ PUSH2 0x194C JUMPI PUSH1 0x40 MLOAD PUSH3 0x461BCD PUSH1 0xE5 SHL DUP2 MSTORE PUSH1 0x4 ADD PUSH2 0xB95 SWAP1 PUSH2 0x3574 JUMP JUMPDEST PUSH2 0x151A PUSH1 0x0 PUSH2 0x275D JUMP JUMPDEST PUSH1 0xA SLOAD PUSH1 0x1 PUSH1 0x1 PUSH1 0xA0 SHL SUB PUSH2 0x100 SWAP1 SWAP2 DIV AND CALLER EQ PUSH2 0x1986 JUMPI PUSH1 0x40 MLOAD PUSH3 0x461BCD PUSH1 0xE5 SHL DUP2 MSTORE PUSH1 0x4 ADD PUSH2 0xB95 SWAP1 PUSH2 0x3574 JUMP JUMPDEST PUSH1 0x3 PUSH1 0x19 SLOAD PUSH1 0xFF AND PUSH1 0x4 DUP2 GT ISZERO PUSH2 0x199F JUMPI PUSH2 0x199F PUSH2 0x34BE JUMP JUMPDEST EQ PUSH2 0x19EC JUMPI PUSH1 0x40 MLOAD PUSH3 0x461BCD PUSH1 0xE5 SHL DUP2 MSTORE PUSH1 0x20 PUSH1 0x4 DUP3 ADD MSTORE PUSH1 0x18 PUSH1 0x24 DUP3 ADD MSTORE PUSH32 0x5465616D206D696E74206E6F7420696E697469617465642E0000000000000000 PUSH1 0x44 DUP3 ADD MSTORE PUSH1 0x64 ADD PUSH2 0xB95 JUMP JUMPDEST PUSH1 0x0 DUP2 PUSH1 0xFF AND GT PUSH2 0x1A0F JUMPI PUSH1 0x40 MLOAD PUSH3 0x461BCD PUSH1 0xE5 SHL DUP2 MSTORE PUSH1 0x4 ADD PUSH2 0xB95 SWAP1 PUSH2 0x3659 JUMP JUMPDEST PUSH1 0x15 SLOAD PUSH1 0x16 SLOAD PUSH2 0x1A22 SWAP1 PUSH1 0xFF DUP5 AND PUSH2 0x369C JUMP JUMPDEST GT ISZERO PUSH2 0x1A84 JUMPI PUSH1 0x40 MLOAD PUSH3 0x461BCD PUSH1 0xE5 SHL DUP2 MSTORE PUSH1 0x20 PUSH1 0x4 DUP3 ADD MSTORE PUSH1 0x2B PUSH1 0x24 DUP3 ADD MSTORE PUSH32 0x5472616E73616374696F6E206578636565647320746F74616C207465616D2073 PUSH1 0x44 DUP3 ADD MSTORE PUSH11 0x30B6329039BAB838363C97 PUSH1 0xA9 SHL PUSH1 0x64 DUP3 ADD MSTORE PUSH1 0x84 ADD PUSH2 0xB95 JUMP JUMPDEST PUSH1 0x17 SLOAD DUP2 PUSH1 0xFF AND PUSH2 0x1A94 PUSH1 0x8 SLOAD SWAP1 JUMP JUMPDEST PUSH2 0x1A9E SWAP2 SWAP1 PUSH2 0x369C JUMP JUMPDEST GT ISZERO PUSH2 0x1ABC JUMPI PUSH1 0x40 MLOAD PUSH3 0x461BCD PUSH1 0xE5 SHL DUP2 MSTORE PUSH1 0x4 ADD PUSH2 0xB95 SWAP1 PUSH2 0x36B4 JUMP JUMPDEST DUP1 PUSH1 0xFF AND PUSH1 0x16 PUSH1 0x0 DUP3 DUP3 SLOAD PUSH2 0x1AD1 SWAP2 SWAP1 PUSH2 0x369C JUMP JUMPDEST SWAP1 SWAP2 SSTORE POP PUSH1 0x1 SWAP1 POP JUMPDEST DUP2 PUSH1 0xFF AND DUP2 GT PUSH2 0xDCC JUMPI PUSH2 0x1AF1 CALLER PUSH2 0x1040 PUSH1 0xC SLOAD SWAP1 JUMP JUMPDEST PUSH2 0x1AFF PUSH1 0xC DUP1 SLOAD PUSH1 0x1 ADD SWAP1 SSTORE JUMP JUMPDEST DUP1 PUSH2 0x1B09 DUP2 PUSH2 0x36FA JUMP JUMPDEST SWAP2 POP POP PUSH2 0x1ADA JUMP JUMPDEST PUSH1 0xA SLOAD PUSH1 0x1 PUSH1 0x1 PUSH1 0xA0 SHL SUB PUSH2 0x100 SWAP1 SWAP2 DIV AND CALLER EQ PUSH2 0x1B41 JUMPI PUSH1 0x40 MLOAD PUSH3 0x461BCD PUSH1 0xE5 SHL DUP2 MSTORE PUSH1 0x4 ADD PUSH2 0xB95 SWAP1 PUSH2 0x3574 JUMP JUMPDEST PUSH1 0xD SSTORE JUMP JUMPDEST PUSH1 0xA SLOAD PUSH1 0x1 PUSH1 0x1 PUSH1 0xA0 SHL SUB PUSH2 0x100 SWAP1 SWAP2 DIV AND CALLER EQ PUSH2 0x1B76 JUMPI PUSH1 0x40 MLOAD PUSH3 0x461BCD PUSH1 0xE5 SHL DUP2 MSTORE PUSH1 0x4 ADD PUSH2 0xB95 SWAP1 PUSH2 0x3574 JUMP JUMPDEST PUSH1 0x0 PUSH1 0xE DUP1 SLOAD PUSH2 0x1B85 SWAP1 PUSH2 0x3539 JUMP JUMPDEST SWAP1 POP GT PUSH2 0x1BD4 JUMPI PUSH1 0x40 MLOAD PUSH3 0x461BCD PUSH1 0xE5 SHL DUP2 MSTORE PUSH1 0x20 PUSH1 0x4 DUP3 ADD MSTORE PUSH1 0x1B PUSH1 0x24 DUP3 ADD MSTORE PUSH32 0x50726F76656E616E63652068617368206973206E6F74207365742E0000000000 PUSH1 0x44 DUP3 ADD MSTORE PUSH1 0x64 ADD PUSH2 0xB95 JUMP JUMPDEST PUSH1 0x12 SLOAD PUSH2 0x100 SWAP1 DIV PUSH1 0xFF AND ISZERO PUSH2 0x1C37 JUMPI PUSH1 0x40 MLOAD PUSH3 0x461BCD PUSH1 0xE5 SHL DUP2 MSTORE PUSH1 0x20 PUSH1 0x4 DUP3 ADD MSTORE PUSH1 0x22 PUSH1 0x24 DUP3 ADD MSTORE PUSH32 0x50726F76656E616E6365206861736820697320616C72656164792066726F7A65 PUSH1 0x44 DUP3 ADD MSTORE PUSH2 0x3717 PUSH1 0xF1 SHL PUSH1 0x64 DUP3 ADD MSTORE PUSH1 0x84 ADD PUSH2 0xB95 JUMP JUMPDEST PUSH1 0x12 DUP1 SLOAD PUSH2 0xFF00 NOT AND PUSH2 0x100 OR SWAP1 SSTORE JUMP JUMPDEST PUSH1 0xA SLOAD PUSH1 0x1 PUSH1 0x1 PUSH1 0xA0 SHL SUB PUSH2 0x100 SWAP1 SWAP2 DIV AND CALLER EQ PUSH2 0x1C78 JUMPI PUSH1 0x40 MLOAD PUSH3 0x461BCD PUSH1 0xE5 SHL DUP2 MSTORE PUSH1 0x4 ADD PUSH2 0xB95 SWAP1 PUSH2 0x3574 JUMP JUMPDEST PUSH2 0x151A PUSH2 0x27B7 JUMP JUMPDEST PUSH1 0x60 PUSH1 0x1 DUP1 SLOAD PUSH2 0xA9D SWAP1 PUSH2 0x3539 JUMP JUMPDEST PUSH2 0xDCC CALLER DUP4 DUP4 PUSH2 0x280F JUMP JUMPDEST PUSH1 0xA SLOAD PUSH1 0x1 PUSH1 0x1 PUSH1 0xA0 SHL SUB PUSH2 0x100 SWAP1 SWAP2 DIV AND CALLER EQ PUSH2 0x1CCA JUMPI PUSH1 0x40 MLOAD PUSH3 0x461BCD PUSH1 0xE5 SHL DUP2 MSTORE PUSH1 0x4 ADD PUSH2 0xB95 SWAP1 PUSH2 0x3574 JUMP JUMPDEST PUSH1 0x0 PUSH1 0x19 SLOAD PUSH1 0xFF AND PUSH1 0x4 DUP2 GT ISZERO PUSH2 0x1CE3 JUMPI PUSH2 0x1CE3 PUSH2 0x34BE JUMP JUMPDEST GT PUSH2 0x1D27 JUMPI PUSH1 0x40 MLOAD PUSH3 0x461BCD PUSH1 0xE5 SHL DUP2 MSTORE PUSH1 0x20 PUSH1 0x4 DUP3 ADD MSTORE PUSH1 0x14 PUSH1 0x24 DUP3 ADD MSTORE PUSH20 0x27379030B4B9323937B8399030BA1034B734BA17 PUSH1 0x61 SHL PUSH1 0x44 DUP3 ADD MSTORE PUSH1 0x64 ADD PUSH2 0xB95 JUMP JUMPDEST PUSH1 0x17 SLOAD DUP3 PUSH1 0xFF AND PUSH2 0x1D37 PUSH1 0x8 SLOAD SWAP1 JUMP JUMPDEST PUSH2 0x1D41 SWAP2 SWAP1 PUSH2 0x369C JUMP JUMPDEST GT ISZERO PUSH2 0x1DA2 JUMPI PUSH1 0x40 MLOAD PUSH3 0x461BCD PUSH1 0xE5 SHL DUP2 MSTORE PUSH1 0x20 PUSH1 0x4 DUP3 ADD MSTORE PUSH1 0x2A PUSH1 0x24 DUP3 ADD MSTORE PUSH32 0x4D696E7420616D6F756E742077696C6C2065786365656420746F74616C207361 PUSH1 0x44 DUP3 ADD MSTORE PUSH10 0x36329039BAB838363C97 PUSH1 0xB1 SHL PUSH1 0x64 DUP3 ADD MSTORE PUSH1 0x84 ADD PUSH2 0xB95 JUMP JUMPDEST PUSH1 0x1 JUMPDEST DUP3 PUSH1 0xFF AND DUP2 GT PUSH2 0xCCB JUMPI PUSH2 0x1DBC DUP3 PUSH2 0x1040 PUSH1 0xC SLOAD SWAP1 JUMP JUMPDEST PUSH2 0x1DCA PUSH1 0xC DUP1 SLOAD PUSH1 0x1 ADD SWAP1 SSTORE JUMP JUMPDEST DUP1 PUSH2 0x1DD4 DUP2 PUSH2 0x36FA JUMP JUMPDEST SWAP2 POP POP PUSH2 0x1DA5 JUMP JUMPDEST PUSH1 0xD SLOAD PUSH1 0x40 MLOAD PUSH12 0xFFFFFFFFFFFFFFFFFFFFFFFF NOT PUSH1 0x60 DUP7 SWAP1 SHL AND PUSH1 0x20 DUP3 ADD MSTORE PUSH1 0x0 SWAP2 PUSH2 0x1E58 SWAP2 PUSH1 0x34 ADD PUSH1 0x40 MLOAD PUSH1 0x20 DUP2 DUP4 SUB SUB DUP2 MSTORE SWAP1 PUSH1 0x40 MSTORE DUP1 MLOAD SWAP1 PUSH1 0x20 ADD KECCAK256 DUP6 DUP6 DUP1 DUP1 PUSH1 0x20 MUL PUSH1 0x20 ADD PUSH1 0x40 MLOAD SWAP1 DUP2 ADD PUSH1 0x40 MSTORE DUP1 SWAP4 SWAP3 SWAP2 SWAP1 DUP2 DUP2 MSTORE PUSH1 0x20 ADD DUP4 DUP4 PUSH1 0x20 MUL DUP1 DUP3 DUP5 CALLDATACOPY PUSH1 0x0 SWAP3 ADD SWAP2 SWAP1 SWAP2 MSTORE POP SWAP3 SWAP5 SWAP4 SWAP3 POP POP PUSH2 0x26B4 SWAP1 POP JUMP JUMPDEST ISZERO PUSH2 0x1E65 JUMPI POP PUSH1 0x1 PUSH2 0x1E69 JUMP JUMPDEST POP PUSH1 0x0 JUMPDEST SWAP4 SWAP3 POP POP POP JUMP JUMPDEST PUSH2 0x1E7A CALLER DUP4 PUSH2 0x23FC JUMP JUMPDEST PUSH2 0x1E96 JUMPI PUSH1 0x40 MLOAD PUSH3 0x461BCD PUSH1 0xE5 SHL DUP2 MSTORE PUSH1 0x4 ADD PUSH2 0xB95 SWAP1 PUSH2 0x35A9 JUMP JUMPDEST PUSH2 0x1EA2 DUP5 DUP5 DUP5 DUP5 PUSH2 0x28DE JUMP JUMPDEST POP POP POP POP JUMP JUMPDEST PUSH1 0xA SLOAD PUSH1 0x1 PUSH1 0x1 PUSH1 0xA0 SHL SUB PUSH2 0x100 SWAP1 SWAP2 DIV AND CALLER EQ PUSH2 0x1ED8 JUMPI PUSH1 0x40 MLOAD PUSH3 0x461BCD PUSH1 0xE5 SHL DUP2 MSTORE PUSH1 0x4 ADD PUSH2 0xB95 SWAP1 PUSH2 0x3574 JUMP JUMPDEST PUSH1 0x1 PUSH1 0x1 PUSH1 0xA0 SHL SUB AND PUSH1 0x0 SWAP1 DUP2 MSTORE PUSH1 0x14 PUSH1 0x20 MSTORE PUSH1 0x40 SWAP1 KECCAK256 DUP1 SLOAD PUSH1 0xFF NOT AND PUSH1 0x1 OR SWAP1 SSTORE JUMP JUMPDEST PUSH1 0x10 DUP1 SLOAD PUSH2 0x1801 SWAP1 PUSH2 0x3539 JUMP JUMPDEST PUSH1 0xE DUP1 SLOAD PUSH2 0x1801 SWAP1 PUSH2 0x3539 JUMP JUMPDEST PUSH1 0x0 DUP2 DUP2 MSTORE PUSH1 0x2 PUSH1 0x20 MSTORE PUSH1 0x40 SWAP1 KECCAK256 SLOAD PUSH1 0x60 SWAP1 PUSH1 0x1 PUSH1 0x1 PUSH1 0xA0 SHL SUB AND PUSH2 0x1F96 JUMPI PUSH1 0x40 MLOAD PUSH3 0x461BCD PUSH1 0xE5 SHL DUP2 MSTORE PUSH1 0x20 PUSH1 0x4 DUP3 ADD MSTORE PUSH1 0x30 PUSH1 0x24 DUP3 ADD MSTORE PUSH32 0x4552433732314D657461646174613A2055524920717565727920666F72206E6F PUSH1 0x44 DUP3 ADD MSTORE PUSH16 0x3732BC34B9BA32B73A103A37B5B2B717 PUSH1 0x81 SHL PUSH1 0x64 DUP3 ADD MSTORE PUSH1 0x84 ADD PUSH2 0xB95 JUMP JUMPDEST PUSH1 0xF PUSH2 0x1FA1 DUP4 PUSH2 0x2911 JUMP JUMPDEST PUSH1 0x10 PUSH1 0x40 MLOAD PUSH1 0x20 ADD PUSH2 0x1FB5 SWAP4 SWAP3 SWAP2 SWAP1 PUSH2 0x37C5 JUMP JUMPDEST PUSH1 0x40 MLOAD PUSH1 0x20 DUP2 DUP4 SUB SUB DUP2 MSTORE SWAP1 PUSH1 0x40 MSTORE SWAP1 POP SWAP2 SWAP1 POP JUMP JUMPDEST PUSH1 0xA SLOAD PUSH1 0x1 PUSH1 0x1 PUSH1 0xA0 SHL SUB PUSH2 0x100 SWAP1 SWAP2 DIV AND CALLER EQ PUSH2 0x1FFB JUMPI PUSH1 0x40 MLOAD PUSH3 0x461BCD PUSH1 0xE5 SHL DUP2 MSTORE PUSH1 0x4 ADD PUSH2 0xB95 SWAP1 PUSH2 0x3574 JUMP JUMPDEST PUSH1 0x12 SLOAD PUSH1 0xFF PUSH2 0x100 SWAP1 SWAP2 DIV AND ISZERO ISZERO PUSH1 0x1 EQ PUSH2 0x207E JUMPI PUSH1 0x40 MLOAD PUSH3 0x461BCD PUSH1 0xE5 SHL DUP2 MSTORE PUSH1 0x20 PUSH1 0x4 DUP3 ADD MSTORE PUSH1 0x38 PUSH1 0x24 DUP3 ADD MSTORE PUSH32 0x50726F76656E616E63652068617368206D7573742062652066726F7A656E2062 PUSH1 0x44 DUP3 ADD MSTORE PUSH32 0x65666F7265206D696E74696E672063616E2073746172742E0000000000000000 PUSH1 0x64 DUP3 ADD MSTORE PUSH1 0x84 ADD PUSH2 0xB95 JUMP JUMPDEST PUSH1 0xD SLOAD PUSH2 0x20E8 JUMPI PUSH1 0x40 MLOAD PUSH3 0x461BCD PUSH1 0xE5 SHL DUP2 MSTORE PUSH1 0x20 PUSH1 0x4 DUP3 ADD MSTORE PUSH1 0x32 PUSH1 0x24 DUP3 ADD MSTORE PUSH32 0x4D65726B6C6520726F6F74206D7573742062652073657420626565666F726520 PUSH1 0x44 DUP3 ADD MSTORE PUSH18 0x36B4B73A34B7339031B0B71039BA30B93A17 PUSH1 0x71 SHL PUSH1 0x64 DUP3 ADD MSTORE PUSH1 0x84 ADD PUSH2 0xB95 JUMP JUMPDEST PUSH1 0x19 DUP1 SLOAD DUP3 SWAP2 SWAP1 PUSH1 0xFF NOT AND PUSH1 0x1 DUP4 PUSH1 0x4 DUP2 GT ISZERO PUSH2 0x2107 JUMPI PUSH2 0x2107 PUSH2 0x34BE JUMP JUMPDEST MUL OR SWAP1 SSTORE POP POP JUMP JUMPDEST PUSH1 0x0 PUSH2 0x1890 PUSH1 0x8 SLOAD SWAP1 JUMP JUMPDEST PUSH1 0xA SLOAD PUSH1 0x1 PUSH1 0x1 PUSH1 0xA0 SHL SUB PUSH2 0x100 SWAP1 SWAP2 DIV AND CALLER EQ PUSH2 0x214A JUMPI PUSH1 0x40 MLOAD PUSH3 0x461BCD PUSH1 0xE5 SHL DUP2 MSTORE PUSH1 0x4 ADD PUSH2 0xB95 SWAP1 PUSH2 0x3574 JUMP JUMPDEST DUP1 MLOAD PUSH2 0xDCC SWAP1 PUSH1 0x10 SWAP1 PUSH1 0x20 DUP5 ADD SWAP1 PUSH2 0x2FC0 JUMP JUMPDEST PUSH1 0x0 PUSH2 0x2168 PUSH1 0x8 SLOAD SWAP1 JUMP JUMPDEST PUSH1 0x17 SLOAD PUSH2 0x1890 SWAP2 SWAP1 PUSH2 0x37F8 JUMP JUMPDEST PUSH1 0xA SLOAD PUSH1 0x1 PUSH1 0x1 PUSH1 0xA0 SHL SUB PUSH2 0x100 SWAP1 SWAP2 DIV AND CALLER EQ PUSH2 0x21A5 JUMPI PUSH1 0x40 MLOAD PUSH3 0x461BCD PUSH1 0xE5 SHL DUP2 MSTORE PUSH1 0x4 ADD PUSH2 0xB95 SWAP1 PUSH2 0x3574 JUMP JUMPDEST PUSH1 0x0 PUSH1 0xF DUP1 SLOAD PUSH2 0x21B4 SWAP1 PUSH2 0x3539 JUMP JUMPDEST SWAP1 POP GT PUSH2 0x2203 JUMPI PUSH1 0x40 MLOAD PUSH3 0x461BCD PUSH1 0xE5 SHL DUP2 MSTORE PUSH1 0x20 PUSH1 0x4 DUP3 ADD MSTORE PUSH1 0x18 PUSH1 0x24 DUP3 ADD MSTORE PUSH32 0x426173655552492063616E6E6F7420626520656D7074792E0000000000000000 PUSH1 0x44 DUP3 ADD MSTORE PUSH1 0x64 ADD PUSH2 0xB95 JUMP JUMPDEST PUSH1 0x12 SLOAD PUSH1 0xFF AND ISZERO PUSH2 0x2256 JUMPI PUSH1 0x40 MLOAD PUSH3 0x461BCD PUSH1 0xE5 SHL DUP2 MSTORE PUSH1 0x20 PUSH1 0x4 DUP3 ADD MSTORE PUSH1 0x1A PUSH1 0x24 DUP3 ADD MSTORE PUSH32 0x4261736555524920697320616C72656164792066726F7A656E2E000000000000 PUSH1 0x44 DUP3 ADD MSTORE PUSH1 0x64 ADD PUSH2 0xB95 JUMP JUMPDEST PUSH1 0x12 DUP1 SLOAD PUSH1 0xFF NOT AND PUSH1 0x1 OR SWAP1 SSTORE JUMP JUMPDEST PUSH1 0xA SLOAD PUSH1 0x1 PUSH1 0x1 PUSH1 0xA0 SHL SUB PUSH2 0x100 SWAP1 SWAP2 DIV AND CALLER EQ PUSH2 0x2295 JUMPI PUSH1 0x40 MLOAD PUSH3 0x461BCD PUSH1 0xE5 SHL DUP2 MSTORE PUSH1 0x4 ADD PUSH2 0xB95 SWAP1 PUSH2 0x3574 JUMP JUMPDEST PUSH1 0x1 PUSH1 0x1 PUSH1 0xA0 SHL SUB DUP2 AND PUSH2 0x22FA JUMPI PUSH1 0x40 MLOAD PUSH3 0x461BCD PUSH1 0xE5 SHL DUP2 MSTORE PUSH1 0x20 PUSH1 0x4 DUP3 ADD MSTORE PUSH1 0x26 PUSH1 0x24 DUP3 ADD MSTORE PUSH32 0x4F776E61626C653A206E6577206F776E657220697320746865207A65726F2061 PUSH1 0x44 DUP3 ADD MSTORE PUSH6 0x646472657373 PUSH1 0xD0 SHL PUSH1 0x64 DUP3 ADD MSTORE PUSH1 0x84 ADD PUSH2 0xB95 JUMP JUMPDEST PUSH2 0x2303 DUP2 PUSH2 0x275D JUMP JUMPDEST POP JUMP JUMPDEST PUSH1 0xA SLOAD PUSH1 0x1 PUSH1 0x1 PUSH1 0xA0 SHL SUB PUSH2 0x100 SWAP1 SWAP2 DIV AND CALLER EQ PUSH2 0x2336 JUMPI PUSH1 0x40 MLOAD PUSH3 0x461BCD PUSH1 0xE5 SHL DUP2 MSTORE PUSH1 0x4 ADD PUSH2 0xB95 SWAP1 PUSH2 0x3574 JUMP JUMPDEST PUSH1 0x12 DUP1 SLOAD PUSH1 0x1 PUSH1 0x1 PUSH1 0xA0 SHL SUB SWAP1 SWAP3 AND PUSH3 0x10000 MUL PUSH3 0x10000 PUSH1 0x1 PUSH1 0xB0 SHL SUB NOT SWAP1 SWAP3 AND SWAP2 SWAP1 SWAP2 OR SWAP1 SSTORE JUMP JUMPDEST DUP1 SLOAD PUSH1 0x1 ADD SWAP1 SSTORE JUMP JUMPDEST PUSH1 0x0 PUSH1 0x1 PUSH1 0x1 PUSH1 0xE0 SHL SUB NOT DUP3 AND PUSH4 0x780E9D63 PUSH1 0xE0 SHL EQ DUP1 PUSH2 0xA88 JUMPI POP PUSH2 0xA88 DUP3 PUSH2 0x2A0F JUMP JUMPDEST PUSH1 0x0 DUP2 DUP2 MSTORE PUSH1 0x4 PUSH1 0x20 MSTORE PUSH1 0x40 SWAP1 KECCAK256 DUP1 SLOAD PUSH1 0x1 PUSH1 0x1 PUSH1 0xA0 SHL SUB NOT AND PUSH1 0x1 PUSH1 0x1 PUSH1 0xA0 SHL SUB DUP5 AND SWAP1 DUP2 OR SWAP1 SWAP2 SSTORE DUP2 SWAP1 PUSH2 0x23C3 DUP3 PUSH2 0x177D JUMP JUMPDEST PUSH1 0x1 PUSH1 0x1 PUSH1 0xA0 SHL SUB AND PUSH32 0x8C5BE1E5EBEC7D5BD14F71427D1E84F3DD0314C0F7B2291E5B200AC8C7C3B925 PUSH1 0x40 MLOAD PUSH1 0x40 MLOAD DUP1 SWAP2 SUB SWAP1 LOG4 POP POP JUMP JUMPDEST PUSH1 0x0 DUP2 DUP2 MSTORE PUSH1 0x2 PUSH1 0x20 MSTORE PUSH1 0x40 DUP2 KECCAK256 SLOAD PUSH1 0x1 PUSH1 0x1 PUSH1 0xA0 SHL SUB AND PUSH2 0x2475 JUMPI PUSH1 0x40 MLOAD PUSH3 0x461BCD PUSH1 0xE5 SHL DUP2 MSTORE PUSH1 0x20 PUSH1 0x4 DUP3 ADD MSTORE PUSH1 0x2C PUSH1 0x24 DUP3 ADD MSTORE PUSH32 0x4552433732313A206F70657261746F7220717565727920666F72206E6F6E6578 PUSH1 0x44 DUP3 ADD MSTORE PUSH12 0x34B9BA32B73A103A37B5B2B7 PUSH1 0xA1 SHL PUSH1 0x64 DUP3 ADD MSTORE PUSH1 0x84 ADD PUSH2 0xB95 JUMP JUMPDEST PUSH1 0x0 PUSH2 0x2480 DUP4 PUSH2 0x177D JUMP JUMPDEST SWAP1 POP DUP1 PUSH1 0x1 PUSH1 0x1 PUSH1 0xA0 SHL SUB AND DUP5 PUSH1 0x1 PUSH1 0x1 PUSH1 0xA0 SHL SUB AND EQ DUP1 PUSH2 0x24BB JUMPI POP DUP4 PUSH1 0x1 PUSH1 0x1 PUSH1 0xA0 SHL SUB AND PUSH2 0x24B0 DUP5 PUSH2 0xB20 JUMP JUMPDEST PUSH1 0x1 PUSH1 0x1 PUSH1 0xA0 SHL SUB AND EQ JUMPDEST DUP1 PUSH2 0x24EB JUMPI POP PUSH1 0x1 PUSH1 0x1 PUSH1 0xA0 SHL SUB DUP1 DUP3 AND PUSH1 0x0 SWAP1 DUP2 MSTORE PUSH1 0x5 PUSH1 0x20 SWAP1 DUP2 MSTORE PUSH1 0x40 DUP1 DUP4 KECCAK256 SWAP4 DUP9 AND DUP4 MSTORE SWAP3 SWAP1 MSTORE KECCAK256 SLOAD PUSH1 0xFF AND JUMPDEST SWAP5 SWAP4 POP POP POP POP JUMP JUMPDEST DUP3 PUSH1 0x1 PUSH1 0x1 PUSH1 0xA0 SHL SUB AND PUSH2 0x2506 DUP3 PUSH2 0x177D JUMP JUMPDEST PUSH1 0x1 PUSH1 0x1 PUSH1 0xA0 SHL SUB AND EQ PUSH2 0x256A JUMPI PUSH1 0x40 MLOAD PUSH3 0x461BCD PUSH1 0xE5 SHL DUP2 MSTORE PUSH1 0x20 PUSH1 0x4 DUP3 ADD MSTORE PUSH1 0x25 PUSH1 0x24 DUP3 ADD MSTORE PUSH32 0x4552433732313A207472616E736665722066726F6D20696E636F727265637420 PUSH1 0x44 DUP3 ADD MSTORE PUSH5 0x37BBB732B9 PUSH1 0xD9 SHL PUSH1 0x64 DUP3 ADD MSTORE PUSH1 0x84 ADD PUSH2 0xB95 JUMP JUMPDEST PUSH1 0x1 PUSH1 0x1 PUSH1 0xA0 SHL SUB DUP3 AND PUSH2 0x25CC JUMPI PUSH1 0x40 MLOAD PUSH3 0x461BCD PUSH1 0xE5 SHL DUP2 MSTORE PUSH1 0x20 PUSH1 0x4 DUP3 ADD MSTORE PUSH1 0x24 DUP1 DUP3 ADD MSTORE PUSH32 0x4552433732313A207472616E7366657220746F20746865207A65726F20616464 PUSH1 0x44 DUP3 ADD MSTORE PUSH4 0x72657373 PUSH1 0xE0 SHL PUSH1 0x64 DUP3 ADD MSTORE PUSH1 0x84 ADD PUSH2 0xB95 JUMP JUMPDEST PUSH2 0x25D7 DUP4 DUP4 DUP4 PUSH2 0x2A5F JUMP JUMPDEST PUSH2 0x25E2 PUSH1 0x0 DUP3 PUSH2 0x238E JUMP JUMPDEST PUSH1 0x1 PUSH1 0x1 PUSH1 0xA0 SHL SUB DUP4 AND PUSH1 0x0 SWAP1 DUP2 MSTORE PUSH1 0x3 PUSH1 0x20 MSTORE PUSH1 0x40 DUP2 KECCAK256 DUP1 SLOAD PUSH1 0x1 SWAP3 SWAP1 PUSH2 0x260B SWAP1 DUP5 SWAP1 PUSH2 0x37F8 JUMP JUMPDEST SWAP1 SWAP2 SSTORE POP POP PUSH1 0x1 PUSH1 0x1 PUSH1 0xA0 SHL SUB DUP3 AND PUSH1 0x0 SWAP1 DUP2 MSTORE PUSH1 0x3 PUSH1 0x20 MSTORE PUSH1 0x40 DUP2 KECCAK256 DUP1 SLOAD PUSH1 0x1 SWAP3 SWAP1 PUSH2 0x2639 SWAP1 DUP5 SWAP1 PUSH2 0x369C JUMP JUMPDEST SWAP1 SWAP2 SSTORE POP POP PUSH1 0x0 DUP2 DUP2 MSTORE PUSH1 0x2 PUSH1 0x20 MSTORE PUSH1 0x40 DUP1 DUP3 KECCAK256 DUP1 SLOAD PUSH1 0x1 PUSH1 0x1 PUSH1 0xA0 SHL SUB NOT AND PUSH1 0x1 PUSH1 0x1 PUSH1 0xA0 SHL SUB DUP7 DUP2 AND SWAP2 DUP3 OR SWAP1 SWAP3 SSTORE SWAP2 MLOAD DUP5 SWAP4 SWAP2 DUP8 AND SWAP2 PUSH32 0xDDF252AD1BE2C89B69C2B068FC378DAA952BA7F163C4A11628F55A4DF523B3EF SWAP2 LOG4 POP POP POP JUMP JUMPDEST PUSH2 0xDCC DUP3 DUP3 PUSH1 0x40 MLOAD DUP1 PUSH1 0x20 ADD PUSH1 0x40 MSTORE DUP1 PUSH1 0x0 DUP2 MSTORE POP PUSH2 0x2A8D JUMP JUMPDEST PUSH1 0x0 DUP3 PUSH2 0x26C1 DUP6 DUP5 PUSH2 0x2AC0 JUMP JUMPDEST EQ SWAP5 SWAP4 POP POP POP POP JUMP JUMPDEST PUSH1 0xA SLOAD PUSH1 0xFF AND PUSH2 0x2713 JUMPI PUSH1 0x40 MLOAD PUSH3 0x461BCD PUSH1 0xE5 SHL DUP2 MSTORE PUSH1 0x20 PUSH1 0x4 DUP3 ADD MSTORE PUSH1 0x14 PUSH1 0x24 DUP3 ADD MSTORE PUSH20 0x14185D5CD8589B194E881B9BDD081C185D5CD959 PUSH1 0x62 SHL PUSH1 0x44 DUP3 ADD MSTORE PUSH1 0x64 ADD PUSH2 0xB95 JUMP JUMPDEST PUSH1 0xA DUP1 SLOAD PUSH1 0xFF NOT AND SWAP1 SSTORE PUSH32 0x5DB9EE0A495BF2E6FF9C91A7834C1BA4FDD244A5E8AA4E537BD38AEAE4B073AA CALLER JUMPDEST PUSH1 0x40 MLOAD PUSH1 0x1 PUSH1 0x1 PUSH1 0xA0 SHL SUB SWAP1 SWAP2 AND DUP2 MSTORE PUSH1 0x20 ADD PUSH1 0x40 MLOAD DUP1 SWAP2 SUB SWAP1 LOG1 JUMP JUMPDEST PUSH1 0xA DUP1 SLOAD PUSH1 0x1 PUSH1 0x1 PUSH1 0xA0 SHL SUB DUP4 DUP2 AND PUSH2 0x100 DUP2 DUP2 MUL PUSH2 0x100 PUSH1 0x1 PUSH1 0xA8 SHL SUB NOT DUP6 AND OR SWAP1 SWAP5 SSTORE PUSH1 0x40 MLOAD SWAP4 SWAP1 SWAP3 DIV AND SWAP2 DUP3 SWAP1 PUSH32 0x8BE0079C531659141344CD1FD0A4F28419497F9722A3DAAFE3B4186F6B6457E0 SWAP1 PUSH1 0x0 SWAP1 LOG3 POP POP JUMP JUMPDEST PUSH1 0xA SLOAD PUSH1 0xFF AND ISZERO PUSH2 0x27DA JUMPI PUSH1 0x40 MLOAD PUSH3 0x461BCD PUSH1 0xE5 SHL DUP2 MSTORE PUSH1 0x4 ADD PUSH2 0xB95 SWAP1 PUSH2 0x35FA JUMP JUMPDEST PUSH1 0xA DUP1 SLOAD PUSH1 0xFF NOT AND PUSH1 0x1 OR SWAP1 SSTORE PUSH32 0x62E78CEA01BEE320CD4E420270B5EA74000D11B0C9F74754EBDBFC544B05A258 PUSH2 0x2740 CALLER SWAP1 JUMP JUMPDEST DUP2 PUSH1 0x1 PUSH1 0x1 PUSH1 0xA0 SHL SUB AND DUP4 PUSH1 0x1 PUSH1 0x1 PUSH1 0xA0 SHL SUB AND EQ ISZERO PUSH2 0x2871 JUMPI PUSH1 0x40 MLOAD PUSH3 0x461BCD PUSH1 0xE5 SHL DUP2 MSTORE PUSH1 0x20 PUSH1 0x4 DUP3 ADD MSTORE PUSH1 0x19 PUSH1 0x24 DUP3 ADD MSTORE PUSH32 0x4552433732313A20617070726F766520746F2063616C6C657200000000000000 PUSH1 0x44 DUP3 ADD MSTORE PUSH1 0x64 ADD PUSH2 0xB95 JUMP JUMPDEST PUSH1 0x1 PUSH1 0x1 PUSH1 0xA0 SHL SUB DUP4 DUP2 AND PUSH1 0x0 DUP2 DUP2 MSTORE PUSH1 0x5 PUSH1 0x20 SWAP1 DUP2 MSTORE PUSH1 0x40 DUP1 DUP4 KECCAK256 SWAP5 DUP8 AND DUP1 DUP5 MSTORE SWAP5 DUP3 MSTORE SWAP2 DUP3 SWAP1 KECCAK256 DUP1 SLOAD PUSH1 0xFF NOT AND DUP7 ISZERO ISZERO SWAP1 DUP2 OR SWAP1 SWAP2 SSTORE SWAP2 MLOAD SWAP2 DUP3 MSTORE PUSH32 0x17307EAB39AB6107E8899845AD3D59BD9653F200F220920489CA2B5937696C31 SWAP2 ADD PUSH1 0x40 MLOAD DUP1 SWAP2 SUB SWAP1 LOG3 POP POP POP JUMP JUMPDEST PUSH2 0x28E9 DUP5 DUP5 DUP5 PUSH2 0x24F3 JUMP JUMPDEST PUSH2 0x28F5 DUP5 DUP5 DUP5 DUP5 PUSH2 0x2B2C JUMP JUMPDEST PUSH2 0x1EA2 JUMPI PUSH1 0x40 MLOAD PUSH3 0x461BCD PUSH1 0xE5 SHL DUP2 MSTORE PUSH1 0x4 ADD PUSH2 0xB95 SWAP1 PUSH2 0x380F JUMP JUMPDEST PUSH1 0x60 DUP2 PUSH2 0x2935 JUMPI POP POP PUSH1 0x40 DUP1 MLOAD DUP1 DUP3 ADD SWAP1 SWAP2 MSTORE PUSH1 0x1 DUP2 MSTORE PUSH1 0x3 PUSH1 0xFC SHL PUSH1 0x20 DUP3 ADD MSTORE SWAP1 JUMP JUMPDEST DUP2 PUSH1 0x0 JUMPDEST DUP2 ISZERO PUSH2 0x295F JUMPI DUP1 PUSH2 0x2949 DUP2 PUSH2 0x36FA JUMP JUMPDEST SWAP2 POP PUSH2 0x2958 SWAP1 POP PUSH1 0xA DUP4 PUSH2 0x3877 JUMP JUMPDEST SWAP2 POP PUSH2 0x2939 JUMP JUMPDEST PUSH1 0x0 DUP2 PUSH8 0xFFFFFFFFFFFFFFFF DUP2 GT ISZERO PUSH2 0x297A JUMPI PUSH2 0x297A PUSH2 0x3156 JUMP JUMPDEST PUSH1 0x40 MLOAD SWAP1 DUP1 DUP3 MSTORE DUP1 PUSH1 0x1F ADD PUSH1 0x1F NOT AND PUSH1 0x20 ADD DUP3 ADD PUSH1 0x40 MSTORE DUP1 ISZERO PUSH2 0x29A4 JUMPI PUSH1 0x20 DUP3 ADD DUP2 DUP1 CALLDATASIZE DUP4 CALLDATACOPY ADD SWAP1 POP JUMPDEST POP SWAP1 POP JUMPDEST DUP5 ISZERO PUSH2 0x24EB JUMPI PUSH2 0x29B9 PUSH1 0x1 DUP4 PUSH2 0x37F8 JUMP JUMPDEST SWAP2 POP PUSH2 0x29C6 PUSH1 0xA DUP7 PUSH2 0x388B JUMP JUMPDEST PUSH2 0x29D1 SWAP1 PUSH1 0x30 PUSH2 0x369C JUMP JUMPDEST PUSH1 0xF8 SHL DUP2 DUP4 DUP2 MLOAD DUP2 LT PUSH2 0x29E6 JUMPI PUSH2 0x29E6 PUSH2 0x3715 JUMP JUMPDEST PUSH1 0x20 ADD ADD SWAP1 PUSH1 0x1 PUSH1 0x1 PUSH1 0xF8 SHL SUB NOT AND SWAP1 DUP2 PUSH1 0x0 BYTE SWAP1 MSTORE8 POP PUSH2 0x2A08 PUSH1 0xA DUP7 PUSH2 0x3877 JUMP JUMPDEST SWAP5 POP PUSH2 0x29A8 JUMP JUMPDEST PUSH1 0x0 PUSH1 0x1 PUSH1 0x1 PUSH1 0xE0 SHL SUB NOT DUP3 AND PUSH4 0x80AC58CD PUSH1 0xE0 SHL EQ DUP1 PUSH2 0x2A40 JUMPI POP PUSH1 0x1 PUSH1 0x1 PUSH1 0xE0 SHL SUB NOT DUP3 AND PUSH4 0x5B5E139F PUSH1 0xE0 SHL EQ JUMPDEST DUP1 PUSH2 0xA88 JUMPI POP PUSH4 0x1FFC9A7 PUSH1 0xE0 SHL PUSH1 0x1 PUSH1 0x1 PUSH1 0xE0 SHL SUB NOT DUP4 AND EQ PUSH2 0xA88 JUMP JUMPDEST PUSH1 0xA SLOAD PUSH1 0xFF AND ISZERO PUSH2 0x2A82 JUMPI PUSH1 0x40 MLOAD PUSH3 0x461BCD PUSH1 0xE5 SHL DUP2 MSTORE PUSH1 0x4 ADD PUSH2 0xB95 SWAP1 PUSH2 0x35FA JUMP JUMPDEST PUSH2 0xCCB DUP4 DUP4 DUP4 PUSH2 0x2C2A JUMP JUMPDEST PUSH2 0x2A97 DUP4 DUP4 PUSH2 0x2CE2 JUMP JUMPDEST PUSH2 0x2AA4 PUSH1 0x0 DUP5 DUP5 DUP5 PUSH2 0x2B2C JUMP JUMPDEST PUSH2 0xCCB JUMPI PUSH1 0x40 MLOAD PUSH3 0x461BCD PUSH1 0xE5 SHL DUP2 MSTORE PUSH1 0x4 ADD PUSH2 0xB95 SWAP1 PUSH2 0x380F JUMP JUMPDEST PUSH1 0x0 DUP2 DUP2 JUMPDEST DUP5 MLOAD DUP2 LT ISZERO PUSH2 0x15D1 JUMPI PUSH1 0x0 DUP6 DUP3 DUP2 MLOAD DUP2 LT PUSH2 0x2AE2 JUMPI PUSH2 0x2AE2 PUSH2 0x3715 JUMP JUMPDEST PUSH1 0x20 MUL PUSH1 0x20 ADD ADD MLOAD SWAP1 POP DUP1 DUP4 GT PUSH2 0x2B08 JUMPI PUSH1 0x0 DUP4 DUP2 MSTORE PUSH1 0x20 DUP3 SWAP1 MSTORE PUSH1 0x40 SWAP1 KECCAK256 SWAP3 POP PUSH2 0x2B19 JUMP JUMPDEST PUSH1 0x0 DUP2 DUP2 MSTORE PUSH1 0x20 DUP5 SWAP1 MSTORE PUSH1 0x40 SWAP1 KECCAK256 SWAP3 POP JUMPDEST POP DUP1 PUSH2 0x2B24 DUP2 PUSH2 0x36FA JUMP JUMPDEST SWAP2 POP POP PUSH2 0x2AC5 JUMP JUMPDEST PUSH1 0x0 PUSH1 0x1 PUSH1 0x1 PUSH1 0xA0 SHL SUB DUP5 AND EXTCODESIZE ISZERO PUSH2 0x2C1F JUMPI PUSH1 0x40 MLOAD PUSH4 0xA85BD01 PUSH1 0xE1 SHL DUP2 MSTORE PUSH1 0x1 PUSH1 0x1 PUSH1 0xA0 SHL SUB DUP6 AND SWAP1 PUSH4 0x150B7A02 SWAP1 PUSH2 0x2B70 SWAP1 CALLER SWAP1 DUP10 SWAP1 DUP9 SWAP1 DUP9 SWAP1 PUSH1 0x4 ADD PUSH2 0x389F JUMP JUMPDEST PUSH1 0x20 PUSH1 0x40 MLOAD DUP1 DUP4 SUB DUP2 PUSH1 0x0 DUP8 GAS CALL SWAP3 POP POP POP DUP1 ISZERO PUSH2 0x2BAB JUMPI POP PUSH1 0x40 DUP1 MLOAD PUSH1 0x1F RETURNDATASIZE SWAP1 DUP2 ADD PUSH1 0x1F NOT AND DUP3 ADD SWAP1 SWAP3 MSTORE PUSH2 0x2BA8 SWAP2 DUP2 ADD SWAP1 PUSH2 0x38DC JUMP JUMPDEST PUSH1 0x1 JUMPDEST PUSH2 0x2C05 JUMPI RETURNDATASIZE DUP1 DUP1 ISZERO PUSH2 0x2BD9 JUMPI PUSH1 0x40 MLOAD SWAP2 POP PUSH1 0x1F NOT PUSH1 0x3F RETURNDATASIZE ADD AND DUP3 ADD PUSH1 0x40 MSTORE RETURNDATASIZE DUP3 MSTORE RETURNDATASIZE PUSH1 0x0 PUSH1 0x20 DUP5 ADD RETURNDATACOPY PUSH2 0x2BDE JUMP JUMPDEST PUSH1 0x60 SWAP2 POP JUMPDEST POP DUP1 MLOAD PUSH2 0x2BFD JUMPI PUSH1 0x40 MLOAD PUSH3 0x461BCD PUSH1 0xE5 SHL DUP2 MSTORE PUSH1 0x4 ADD PUSH2 0xB95 SWAP1 PUSH2 0x380F JUMP JUMPDEST DUP1 MLOAD DUP2 PUSH1 0x20 ADD REVERT JUMPDEST PUSH1 0x1 PUSH1 0x1 PUSH1 0xE0 SHL SUB NOT AND PUSH4 0xA85BD01 PUSH1 0xE1 SHL EQ SWAP1 POP PUSH2 0x24EB JUMP JUMPDEST POP PUSH1 0x1 SWAP5 SWAP4 POP POP POP POP JUMP JUMPDEST PUSH1 0x1 PUSH1 0x1 PUSH1 0xA0 SHL SUB DUP4 AND PUSH2 0x2C85 JUMPI PUSH2 0x2C80 DUP2 PUSH1 0x8 DUP1 SLOAD PUSH1 0x0 DUP4 DUP2 MSTORE PUSH1 0x9 PUSH1 0x20 MSTORE PUSH1 0x40 DUP2 KECCAK256 DUP3 SWAP1 SSTORE PUSH1 0x1 DUP3 ADD DUP4 SSTORE SWAP2 SWAP1 SWAP2 MSTORE PUSH32 0xF3F7A9FE364FAAB93B216DA50A3214154F22A0A2B415B23A84C8169E8B636EE3 ADD SSTORE JUMP JUMPDEST PUSH2 0x2CA8 JUMP JUMPDEST DUP2 PUSH1 0x1 PUSH1 0x1 PUSH1 0xA0 SHL SUB AND DUP4 PUSH1 0x1 PUSH1 0x1 PUSH1 0xA0 SHL SUB AND EQ PUSH2 0x2CA8 JUMPI PUSH2 0x2CA8 DUP4 DUP3 PUSH2 0x2E30 JUMP JUMPDEST PUSH1 0x1 PUSH1 0x1 PUSH1 0xA0 SHL SUB DUP3 AND PUSH2 0x2CBF JUMPI PUSH2 0xCCB DUP2 PUSH2 0x2ECD JUMP JUMPDEST DUP3 PUSH1 0x1 PUSH1 0x1 PUSH1 0xA0 SHL SUB AND DUP3 PUSH1 0x1 PUSH1 0x1 PUSH1 0xA0 SHL SUB AND EQ PUSH2 0xCCB JUMPI PUSH2 0xCCB DUP3 DUP3 PUSH2 0x2F7C JUMP JUMPDEST PUSH1 0x1 PUSH1 0x1 PUSH1 0xA0 SHL SUB DUP3 AND PUSH2 0x2D38 JUMPI PUSH1 0x40 MLOAD PUSH3 0x461BCD PUSH1 0xE5 SHL DUP2 MSTORE PUSH1 0x20 PUSH1 0x4 DUP3 ADD DUP2 SWAP1 MSTORE PUSH1 0x24 DUP3 ADD MSTORE PUSH32 0x4552433732313A206D696E7420746F20746865207A65726F2061646472657373 PUSH1 0x44 DUP3 ADD MSTORE PUSH1 0x64 ADD PUSH2 0xB95 JUMP JUMPDEST PUSH1 0x0 DUP2 DUP2 MSTORE PUSH1 0x2 PUSH1 0x20 MSTORE PUSH1 0x40 SWAP1 KECCAK256 SLOAD PUSH1 0x1 PUSH1 0x1 PUSH1 0xA0 SHL SUB AND ISZERO PUSH2 0x2D9D JUMPI PUSH1 0x40 MLOAD PUSH3 0x461BCD PUSH1 0xE5 SHL DUP2 MSTORE PUSH1 0x20 PUSH1 0x4 DUP3 ADD MSTORE PUSH1 0x1C PUSH1 0x24 DUP3 ADD MSTORE PUSH32 0x4552433732313A20746F6B656E20616C7265616479206D696E74656400000000 PUSH1 0x44 DUP3 ADD MSTORE PUSH1 0x64 ADD PUSH2 0xB95 JUMP JUMPDEST PUSH2 0x2DA9 PUSH1 0x0 DUP4 DUP4 PUSH2 0x2A5F JUMP JUMPDEST PUSH1 0x1 PUSH1 0x1 PUSH1 0xA0 SHL SUB DUP3 AND PUSH1 0x0 SWAP1 DUP2 MSTORE PUSH1 0x3 PUSH1 0x20 MSTORE PUSH1 0x40 DUP2 KECCAK256 DUP1 SLOAD PUSH1 0x1 SWAP3 SWAP1 PUSH2 0x2DD2 SWAP1 DUP5 SWAP1 PUSH2 0x369C JUMP JUMPDEST SWAP1 SWAP2 SSTORE POP POP PUSH1 0x0 DUP2 DUP2 MSTORE PUSH1 0x2 PUSH1 0x20 MSTORE PUSH1 0x40 DUP1 DUP3 KECCAK256 DUP1 SLOAD PUSH1 0x1 PUSH1 0x1 PUSH1 0xA0 SHL SUB NOT AND PUSH1 0x1 PUSH1 0x1 PUSH1 0xA0 SHL SUB DUP7 AND SWAP1 DUP2 OR SWAP1 SWAP2 SSTORE SWAP1 MLOAD DUP4 SWAP3 SWAP1 PUSH32 0xDDF252AD1BE2C89B69C2B068FC378DAA952BA7F163C4A11628F55A4DF523B3EF SWAP1 DUP3 SWAP1 LOG4 POP POP JUMP JUMPDEST PUSH1 0x0 PUSH1 0x1 PUSH2 0x2E3D DUP5 PUSH2 0x1895 JUMP JUMPDEST PUSH2 0x2E47 SWAP2 SWAP1 PUSH2 0x37F8 JUMP JUMPDEST PUSH1 0x0 DUP4 DUP2 MSTORE PUSH1 0x7 PUSH1 0x20 MSTORE PUSH1 0x40 SWAP1 KECCAK256 SLOAD SWAP1 SWAP2 POP DUP1 DUP3 EQ PUSH2 0x2E9A JUMPI PUSH1 0x1 PUSH1 0x1 PUSH1 0xA0 SHL SUB DUP5 AND PUSH1 0x0 SWAP1 DUP2 MSTORE PUSH1 0x6 PUSH1 0x20 SWAP1 DUP2 MSTORE PUSH1 0x40 DUP1 DUP4 KECCAK256 DUP6 DUP5 MSTORE DUP3 MSTORE DUP1 DUP4 KECCAK256 SLOAD DUP5 DUP5 MSTORE DUP2 DUP5 KECCAK256 DUP2 SWAP1 SSTORE DUP4 MSTORE PUSH1 0x7 SWAP1 SWAP2 MSTORE SWAP1 KECCAK256 DUP2 SWAP1 SSTORE JUMPDEST POP PUSH1 0x0 SWAP2 DUP3 MSTORE PUSH1 0x7 PUSH1 0x20 SWAP1 DUP2 MSTORE PUSH1 0x40 DUP1 DUP5 KECCAK256 DUP5 SWAP1 SSTORE PUSH1 0x1 PUSH1 0x1 PUSH1 0xA0 SHL SUB SWAP1 SWAP5 AND DUP4 MSTORE PUSH1 0x6 DUP2 MSTORE DUP4 DUP4 KECCAK256 SWAP2 DUP4 MSTORE MSTORE SWAP1 DUP2 KECCAK256 SSTORE JUMP JUMPDEST PUSH1 0x8 SLOAD PUSH1 0x0 SWAP1 PUSH2 0x2EDF SWAP1 PUSH1 0x1 SWAP1 PUSH2 0x37F8 JUMP JUMPDEST PUSH1 0x0 DUP4 DUP2 MSTORE PUSH1 0x9 PUSH1 0x20 MSTORE PUSH1 0x40 DUP2 KECCAK256 SLOAD PUSH1 0x8 DUP1 SLOAD SWAP4 SWAP5 POP SWAP1 SWAP3 DUP5 SWAP1 DUP2 LT PUSH2 0x2F07 JUMPI PUSH2 0x2F07 PUSH2 0x3715 JUMP JUMPDEST SWAP1 PUSH1 0x0 MSTORE PUSH1 0x20 PUSH1 0x0 KECCAK256 ADD SLOAD SWAP1 POP DUP1 PUSH1 0x8 DUP4 DUP2 SLOAD DUP2 LT PUSH2 0x2F28 JUMPI PUSH2 0x2F28 PUSH2 0x3715 JUMP JUMPDEST PUSH1 0x0 SWAP2 DUP3 MSTORE PUSH1 0x20 DUP1 DUP4 KECCAK256 SWAP1 SWAP2 ADD SWAP3 SWAP1 SWAP3 SSTORE DUP3 DUP2 MSTORE PUSH1 0x9 SWAP1 SWAP2 MSTORE PUSH1 0x40 DUP1 DUP3 KECCAK256 DUP5 SWAP1 SSTORE DUP6 DUP3 MSTORE DUP2 KECCAK256 SSTORE PUSH1 0x8 DUP1 SLOAD DUP1 PUSH2 0x2F60 JUMPI PUSH2 0x2F60 PUSH2 0x38F9 JUMP JUMPDEST PUSH1 0x1 SWAP1 SUB DUP2 DUP2 SWAP1 PUSH1 0x0 MSTORE PUSH1 0x20 PUSH1 0x0 KECCAK256 ADD PUSH1 0x0 SWAP1 SSTORE SWAP1 SSTORE POP POP POP POP JUMP JUMPDEST PUSH1 0x0 PUSH2 0x2F87 DUP4 PUSH2 0x1895 JUMP JUMPDEST PUSH1 0x1 PUSH1 0x1 PUSH1 0xA0 SHL SUB SWAP1 SWAP4 AND PUSH1 0x0 SWAP1 DUP2 MSTORE PUSH1 0x6 PUSH1 0x20 SWAP1 DUP2 MSTORE PUSH1 0x40 DUP1 DUP4 KECCAK256 DUP7 DUP5 MSTORE DUP3 MSTORE DUP1 DUP4 KECCAK256 DUP6 SWAP1 SSTORE SWAP4 DUP3 MSTORE PUSH1 0x7 SWAP1 MSTORE SWAP2 SWAP1 SWAP2 KECCAK256 SWAP2 SWAP1 SWAP2 SSTORE POP JUMP JUMPDEST DUP3 DUP1 SLOAD PUSH2 0x2FCC SWAP1 PUSH2 0x3539 JUMP JUMPDEST SWAP1 PUSH1 0x0 MSTORE PUSH1 0x20 PUSH1 0x0 KECCAK256 SWAP1 PUSH1 0x1F ADD PUSH1 0x20 SWAP1 DIV DUP2 ADD SWAP3 DUP3 PUSH2 0x2FEE JUMPI PUSH1 0x0 DUP6 SSTORE PUSH2 0x3034 JUMP JUMPDEST DUP3 PUSH1 0x1F LT PUSH2 0x3007 JUMPI DUP1 MLOAD PUSH1 0xFF NOT AND DUP4 DUP1 ADD OR DUP6 SSTORE PUSH2 0x3034 JUMP JUMPDEST DUP3 DUP1 ADD PUSH1 0x1 ADD DUP6 SSTORE DUP3 ISZERO PUSH2 0x3034 JUMPI SWAP2 DUP3 ADD JUMPDEST DUP3 DUP2 GT ISZERO PUSH2 0x3034 JUMPI DUP3 MLOAD DUP3 SSTORE SWAP2 PUSH1 0x20 ADD SWAP2 SWAP1 PUSH1 0x1 ADD SWAP1 PUSH2 0x3019 JUMP JUMPDEST POP PUSH2 0x3040 SWAP3 SWAP2 POP PUSH2 0x3044 JUMP JUMPDEST POP SWAP1 JUMP JUMPDEST JUMPDEST DUP1 DUP3 GT ISZERO PUSH2 0x3040 JUMPI PUSH1 0x0 DUP2 SSTORE PUSH1 0x1 ADD PUSH2 0x3045 JUMP JUMPDEST PUSH1 0x1 PUSH1 0x1 PUSH1 0xE0 SHL SUB NOT DUP2 AND DUP2 EQ PUSH2 0x2303 JUMPI PUSH1 0x0 DUP1 REVERT JUMPDEST PUSH1 0x0 PUSH1 0x20 DUP3 DUP5 SUB SLT ISZERO PUSH2 0x3081 JUMPI PUSH1 0x0 DUP1 REVERT JUMPDEST DUP2 CALLDATALOAD PUSH2 0x1E69 DUP2 PUSH2 0x3059 JUMP JUMPDEST PUSH1 0x0 JUMPDEST DUP4 DUP2 LT ISZERO PUSH2 0x30A7 JUMPI DUP2 DUP2 ADD MLOAD DUP4 DUP3 ADD MSTORE PUSH1 0x20 ADD PUSH2 0x308F JUMP JUMPDEST DUP4 DUP2 GT ISZERO PUSH2 0x1EA2 JUMPI POP POP PUSH1 0x0 SWAP2 ADD MSTORE JUMP JUMPDEST PUSH1 0x0 DUP2 MLOAD DUP1 DUP5 MSTORE PUSH2 0x30D0 DUP2 PUSH1 0x20 DUP7 ADD PUSH1 0x20 DUP7 ADD PUSH2 0x308C JUMP JUMPDEST PUSH1 0x1F ADD PUSH1 0x1F NOT AND SWAP3 SWAP1 SWAP3 ADD PUSH1 0x20 ADD SWAP3 SWAP2 POP POP JUMP JUMPDEST PUSH1 0x20 DUP2 MSTORE PUSH1 0x0 PUSH2 0x1E69 PUSH1 0x20 DUP4 ADD DUP5 PUSH2 0x30B8 JUMP JUMPDEST PUSH1 0x0 PUSH1 0x20 DUP3 DUP5 SUB SLT ISZERO PUSH2 0x3109 JUMPI PUSH1 0x0 DUP1 REVERT JUMPDEST POP CALLDATALOAD SWAP2 SWAP1 POP JUMP JUMPDEST DUP1 CALLDATALOAD PUSH1 0x1 PUSH1 0x1 PUSH1 0xA0 SHL SUB DUP2 AND DUP2 EQ PUSH2 0x3127 JUMPI PUSH1 0x0 DUP1 REVERT JUMPDEST SWAP2 SWAP1 POP JUMP JUMPDEST PUSH1 0x0 DUP1 PUSH1 0x40 DUP4 DUP6 SUB SLT ISZERO PUSH2 0x313F JUMPI PUSH1 0x0 DUP1 REVERT JUMPDEST PUSH2 0x3148 DUP4 PUSH2 0x3110 JUMP JUMPDEST SWAP5 PUSH1 0x20 SWAP4 SWAP1 SWAP4 ADD CALLDATALOAD SWAP4 POP POP POP JUMP JUMPDEST PUSH4 0x4E487B71 PUSH1 0xE0 SHL PUSH1 0x0 MSTORE PUSH1 0x41 PUSH1 0x4 MSTORE PUSH1 0x24 PUSH1 0x0 REVERT JUMPDEST PUSH1 0x0 PUSH8 0xFFFFFFFFFFFFFFFF DUP1 DUP5 GT ISZERO PUSH2 0x3187 JUMPI PUSH2 0x3187 PUSH2 0x3156 JUMP JUMPDEST PUSH1 0x40 MLOAD PUSH1 0x1F DUP6 ADD PUSH1 0x1F NOT SWAP1 DUP2 AND PUSH1 0x3F ADD AND DUP2 ADD SWAP1 DUP3 DUP3 GT DUP2 DUP4 LT OR ISZERO PUSH2 0x31AF JUMPI PUSH2 0x31AF PUSH2 0x3156 JUMP JUMPDEST DUP2 PUSH1 0x40 MSTORE DUP1 SWAP4 POP DUP6 DUP2 MSTORE DUP7 DUP7 DUP7 ADD GT ISZERO PUSH2 0x31C8 JUMPI PUSH1 0x0 DUP1 REVERT JUMPDEST DUP6 DUP6 PUSH1 0x20 DUP4 ADD CALLDATACOPY PUSH1 0x0 PUSH1 0x20 DUP8 DUP4 ADD ADD MSTORE POP POP POP SWAP4 SWAP3 POP POP POP JUMP JUMPDEST PUSH1 0x0 PUSH1 0x20 DUP3 DUP5 SUB SLT ISZERO PUSH2 0x31F4 JUMPI PUSH1 0x0 DUP1 REVERT JUMPDEST DUP2 CALLDATALOAD PUSH8 0xFFFFFFFFFFFFFFFF DUP2 GT ISZERO PUSH2 0x320B JUMPI PUSH1 0x0 DUP1 REVERT JUMPDEST DUP3 ADD PUSH1 0x1F DUP2 ADD DUP5 SGT PUSH2 0x321C JUMPI PUSH1 0x0 DUP1 REVERT JUMPDEST PUSH2 0x24EB DUP5 DUP3 CALLDATALOAD PUSH1 0x20 DUP5 ADD PUSH2 0x316C JUMP JUMPDEST PUSH1 0x0 DUP1 PUSH1 0x0 PUSH1 0x60 DUP5 DUP7 SUB SLT ISZERO PUSH2 0x3240 JUMPI PUSH1 0x0 DUP1 REVERT JUMPDEST PUSH2 0x3249 DUP5 PUSH2 0x3110 JUMP JUMPDEST SWAP3 POP PUSH2 0x3257 PUSH1 0x20 DUP6 ADD PUSH2 0x3110 JUMP JUMPDEST SWAP2 POP PUSH1 0x40 DUP5 ADD CALLDATALOAD SWAP1 POP SWAP3 POP SWAP3 POP SWAP3 JUMP JUMPDEST PUSH1 0x0 DUP1 DUP4 PUSH1 0x1F DUP5 ADD SLT PUSH2 0x3279 JUMPI PUSH1 0x0 DUP1 REVERT JUMPDEST POP DUP2 CALLDATALOAD PUSH8 0xFFFFFFFFFFFFFFFF DUP2 GT ISZERO PUSH2 0x3291 JUMPI PUSH1 0x0 DUP1 REVERT JUMPDEST PUSH1 0x20 DUP4 ADD SWAP2 POP DUP4 PUSH1 0x20 DUP3 PUSH1 0x5 SHL DUP6 ADD ADD GT ISZERO PUSH2 0x32AC JUMPI PUSH1 0x0 DUP1 REVERT JUMPDEST SWAP3 POP SWAP3 SWAP1 POP JUMP JUMPDEST PUSH1 0x0 DUP1 PUSH1 0x20 DUP4 DUP6 SUB SLT ISZERO PUSH2 0x32C6 JUMPI PUSH1 0x0 DUP1 REVERT JUMPDEST DUP3 CALLDATALOAD PUSH8 0xFFFFFFFFFFFFFFFF DUP2 GT ISZERO PUSH2 0x32DD JUMPI PUSH1 0x0 DUP1 REVERT JUMPDEST PUSH2 0x32E9 DUP6 DUP3 DUP7 ADD PUSH2 0x3267 JUMP JUMPDEST SWAP1 SWAP7 SWAP1 SWAP6 POP SWAP4 POP POP POP POP JUMP JUMPDEST PUSH1 0x0 PUSH1 0x20 DUP3 DUP5 SUB SLT ISZERO PUSH2 0x3307 JUMPI PUSH1 0x0 DUP1 REVERT JUMPDEST PUSH2 0x1E69 DUP3 PUSH2 0x3110 JUMP JUMPDEST PUSH1 0x20 DUP1 DUP3 MSTORE DUP3 MLOAD DUP3 DUP3 ADD DUP2 SWAP1 MSTORE PUSH1 0x0 SWAP2 SWAP1 DUP5 DUP3 ADD SWAP1 PUSH1 0x40 DUP6 ADD SWAP1 DUP5 JUMPDEST DUP2 DUP2 LT ISZERO PUSH2 0x3348 JUMPI DUP4 MLOAD DUP4 MSTORE SWAP3 DUP5 ADD SWAP3 SWAP2 DUP5 ADD SWAP2 PUSH1 0x1 ADD PUSH2 0x332C JUMP JUMPDEST POP SWAP1 SWAP7 SWAP6 POP POP POP POP POP POP JUMP JUMPDEST DUP1 CALLDATALOAD PUSH1 0xFF DUP2 AND DUP2 EQ PUSH2 0x3127 JUMPI PUSH1 0x0 DUP1 REVERT JUMPDEST PUSH1 0x0 PUSH1 0x20 DUP3 DUP5 SUB SLT ISZERO PUSH2 0x3377 JUMPI PUSH1 0x0 DUP1 REVERT JUMPDEST PUSH2 0x1E69 DUP3 PUSH2 0x3354 JUMP JUMPDEST PUSH1 0x0 DUP1 PUSH1 0x40 DUP4 DUP6 SUB SLT ISZERO PUSH2 0x3393 JUMPI PUSH1 0x0 DUP1 REVERT JUMPDEST PUSH2 0x339C DUP4 PUSH2 0x3110 JUMP JUMPDEST SWAP2 POP PUSH1 0x20 DUP4 ADD CALLDATALOAD DUP1 ISZERO ISZERO DUP2 EQ PUSH2 0x33B1 JUMPI PUSH1 0x0 DUP1 REVERT JUMPDEST DUP1 SWAP2 POP POP SWAP3 POP SWAP3 SWAP1 POP JUMP JUMPDEST PUSH1 0x0 DUP1 PUSH1 0x40 DUP4 DUP6 SUB SLT ISZERO PUSH2 0x33CF JUMPI PUSH1 0x0 DUP1 REVERT JUMPDEST PUSH2 0x33D8 DUP4 PUSH2 0x3354 JUMP JUMPDEST SWAP2 POP PUSH2 0x33E6 PUSH1 0x20 DUP5 ADD PUSH2 0x3110 JUMP JUMPDEST SWAP1 POP SWAP3 POP SWAP3 SWAP1 POP JUMP JUMPDEST PUSH1 0x0 DUP1 PUSH1 0x0 PUSH1 0x40 DUP5 DUP7 SUB SLT ISZERO PUSH2 0x3404 JUMPI PUSH1 0x0 DUP1 REVERT JUMPDEST PUSH2 0x340D DUP5 PUSH2 0x3110 JUMP JUMPDEST SWAP3 POP PUSH1 0x20 DUP5 ADD CALLDATALOAD PUSH8 0xFFFFFFFFFFFFFFFF DUP2 GT ISZERO PUSH2 0x3429 JUMPI PUSH1 0x0 DUP1 REVERT JUMPDEST PUSH2 0x3435 DUP7 DUP3 DUP8 ADD PUSH2 0x3267 JUMP JUMPDEST SWAP5 SWAP8 SWAP1 SWAP7 POP SWAP4 SWAP5 POP POP POP POP JUMP JUMPDEST PUSH1 0x0 DUP1 PUSH1 0x0 DUP1 PUSH1 0x80 DUP6 DUP8 SUB SLT ISZERO PUSH2 0x3458 JUMPI PUSH1 0x0 DUP1 REVERT JUMPDEST PUSH2 0x3461 DUP6 PUSH2 0x3110 JUMP JUMPDEST SWAP4 POP PUSH2 0x346F PUSH1 0x20 DUP7 ADD PUSH2 0x3110 JUMP JUMPDEST SWAP3 POP PUSH1 0x40 DUP6 ADD CALLDATALOAD SWAP2 POP PUSH1 0x60 DUP6 ADD CALLDATALOAD PUSH8 0xFFFFFFFFFFFFFFFF DUP2 GT ISZERO PUSH2 0x3492 JUMPI PUSH1 0x0 DUP1 REVERT JUMPDEST DUP6 ADD PUSH1 0x1F DUP2 ADD DUP8 SGT PUSH2 0x34A3 JUMPI PUSH1 0x0 DUP1 REVERT JUMPDEST PUSH2 0x34B2 DUP8 DUP3 CALLDATALOAD PUSH1 0x20 DUP5 ADD PUSH2 0x316C JUMP JUMPDEST SWAP2 POP POP SWAP3 SWAP6 SWAP2 SWAP5 POP SWAP3 POP JUMP JUMPDEST PUSH4 0x4E487B71 PUSH1 0xE0 SHL PUSH1 0x0 MSTORE PUSH1 0x21 PUSH1 0x4 MSTORE PUSH1 0x24 PUSH1 0x0 REVERT JUMPDEST PUSH1 0x20 DUP2 ADD PUSH1 0x5 DUP4 LT PUSH2 0x34F6 JUMPI PUSH4 0x4E487B71 PUSH1 0xE0 SHL PUSH1 0x0 MSTORE PUSH1 0x21 PUSH1 0x4 MSTORE PUSH1 0x24 PUSH1 0x0 REVERT JUMPDEST SWAP2 SWAP1 MSTORE SWAP1 JUMP JUMPDEST PUSH1 0x0 PUSH1 0x20 DUP3 DUP5 SUB SLT ISZERO PUSH2 0x350E JUMPI PUSH1 0x0 DUP1 REVERT JUMPDEST DUP2 CALLDATALOAD PUSH1 0x5 DUP2 LT PUSH2 0x1E69 JUMPI PUSH1 0x0 DUP1 REVERT JUMPDEST PUSH1 0x0 DUP1 PUSH1 0x40 DUP4 DUP6 SUB SLT ISZERO PUSH2 0x3530 JUMPI PUSH1 0x0 DUP1 REVERT JUMPDEST PUSH2 0x33D8 DUP4 PUSH2 0x3110 JUMP JUMPDEST PUSH1 0x1 DUP2 DUP2 SHR SWAP1 DUP3 AND DUP1 PUSH2 0x354D JUMPI PUSH1 0x7F DUP3 AND SWAP2 POP JUMPDEST PUSH1 0x20 DUP3 LT DUP2 EQ ISZERO PUSH2 0x356E JUMPI PUSH4 0x4E487B71 PUSH1 0xE0 SHL PUSH1 0x0 MSTORE PUSH1 0x22 PUSH1 0x4 MSTORE PUSH1 0x24 PUSH1 0x0 REVERT JUMPDEST POP SWAP2 SWAP1 POP JUMP JUMPDEST PUSH1 0x20 DUP1 DUP3 MSTORE DUP2 DUP2 ADD MSTORE PUSH32 0x4F776E61626C653A2063616C6C6572206973206E6F7420746865206F776E6572 PUSH1 0x40 DUP3 ADD MSTORE PUSH1 0x60 ADD SWAP1 JUMP JUMPDEST PUSH1 0x20 DUP1 DUP3 MSTORE PUSH1 0x31 SWAP1 DUP3 ADD MSTORE PUSH32 0x4552433732313A207472616E736665722063616C6C6572206973206E6F74206F PUSH1 0x40 DUP3 ADD MSTORE PUSH17 0x1DDB995C881B9BDC88185C1C1C9BDD9959 PUSH1 0x7A SHL PUSH1 0x60 DUP3 ADD MSTORE PUSH1 0x80 ADD SWAP1 JUMP JUMPDEST PUSH1 0x20 DUP1 DUP3 MSTORE PUSH1 0x10 SWAP1 DUP3 ADD MSTORE PUSH16 0x14185D5CD8589B194E881C185D5CD959 PUSH1 0x82 SHL PUSH1 0x40 DUP3 ADD MSTORE PUSH1 0x60 ADD SWAP1 JUMP JUMPDEST PUSH4 0x4E487B71 PUSH1 0xE0 SHL PUSH1 0x0 MSTORE PUSH1 0x11 PUSH1 0x4 MSTORE PUSH1 0x24 PUSH1 0x0 REVERT JUMPDEST PUSH1 0x0 DUP2 PUSH1 0x0 NOT DIV DUP4 GT DUP3 ISZERO ISZERO AND ISZERO PUSH2 0x3654 JUMPI PUSH2 0x3654 PUSH2 0x3624 JUMP JUMPDEST POP MUL SWAP1 JUMP JUMPDEST PUSH1 0x20 DUP1 DUP3 MSTORE PUSH1 0x23 SWAP1 DUP3 ADD MSTORE PUSH32 0x4D696E7420616D6F756E74206D7573742062652067726561746572207468616E PUSH1 0x40 DUP3 ADD MSTORE PUSH3 0x101817 PUSH1 0xE9 SHL PUSH1 0x60 DUP3 ADD MSTORE PUSH1 0x80 ADD SWAP1 JUMP JUMPDEST PUSH1 0x0 DUP3 NOT DUP3 GT ISZERO PUSH2 0x36AF JUMPI PUSH2 0x36AF PUSH2 0x3624 JUMP JUMPDEST POP ADD SWAP1 JUMP JUMPDEST PUSH1 0x20 DUP1 DUP3 MSTORE PUSH1 0x26 SWAP1 DUP3 ADD MSTORE PUSH32 0x5472616E73616374696F6E206578636565647320746F74616C2073616C652073 PUSH1 0x40 DUP3 ADD MSTORE PUSH6 0x3AB838363C97 PUSH1 0xD1 SHL PUSH1 0x60 DUP3 ADD MSTORE PUSH1 0x80 ADD SWAP1 JUMP JUMPDEST PUSH1 0x0 PUSH1 0x0 NOT DUP3 EQ ISZERO PUSH2 0x370E JUMPI PUSH2 0x370E PUSH2 0x3624 JUMP JUMPDEST POP PUSH1 0x1 ADD SWAP1 JUMP JUMPDEST PUSH4 0x4E487B71 PUSH1 0xE0 SHL PUSH1 0x0 MSTORE PUSH1 0x32 PUSH1 0x4 MSTORE PUSH1 0x24 PUSH1 0x0 REVERT JUMPDEST DUP1 SLOAD PUSH1 0x0 SWAP1 PUSH1 0x1 DUP2 DUP2 SHR SWAP1 DUP1 DUP4 AND DUP1 PUSH2 0x3745 JUMPI PUSH1 0x7F DUP4 AND SWAP3 POP JUMPDEST PUSH1 0x20 DUP1 DUP5 LT DUP3 EQ ISZERO PUSH2 0x3767 JUMPI PUSH4 0x4E487B71 PUSH1 0xE0 SHL PUSH1 0x0 MSTORE PUSH1 0x22 PUSH1 0x4 MSTORE PUSH1 0x24 PUSH1 0x0 REVERT JUMPDEST DUP2 DUP1 ISZERO PUSH2 0x377B JUMPI PUSH1 0x1 DUP2 EQ PUSH2 0x378C JUMPI PUSH2 0x37B9 JUMP JUMPDEST PUSH1 0xFF NOT DUP7 AND DUP10 MSTORE DUP5 DUP10 ADD SWAP7 POP PUSH2 0x37B9 JUMP JUMPDEST PUSH1 0x0 DUP9 DUP2 MSTORE PUSH1 0x20 SWAP1 KECCAK256 PUSH1 0x0 JUMPDEST DUP7 DUP2 LT ISZERO PUSH2 0x37B1 JUMPI DUP2 SLOAD DUP12 DUP3 ADD MSTORE SWAP1 DUP6 ADD SWAP1 DUP4 ADD PUSH2 0x3798 JUMP JUMPDEST POP POP DUP5 DUP10 ADD SWAP7 POP JUMPDEST POP POP POP POP POP POP SWAP3 SWAP2 POP POP JUMP JUMPDEST PUSH1 0x0 PUSH2 0x37D1 DUP3 DUP7 PUSH2 0x372B JUMP JUMPDEST DUP5 MLOAD PUSH2 0x37E1 DUP2 DUP4 PUSH1 0x20 DUP10 ADD PUSH2 0x308C JUMP JUMPDEST PUSH2 0x37ED DUP2 DUP4 ADD DUP7 PUSH2 0x372B JUMP JUMPDEST SWAP8 SWAP7 POP POP POP POP POP POP POP JUMP JUMPDEST PUSH1 0x0 DUP3 DUP3 LT ISZERO PUSH2 0x380A JUMPI PUSH2 0x380A PUSH2 0x3624 JUMP JUMPDEST POP SUB SWAP1 JUMP JUMPDEST PUSH1 0x20 DUP1 DUP3 MSTORE PUSH1 0x32 SWAP1 DUP3 ADD MSTORE PUSH32 0x4552433732313A207472616E7366657220746F206E6F6E204552433732315265 PUSH1 0x40 DUP3 ADD MSTORE PUSH18 0x31B2B4BB32B91034B6B83632B6B2B73A32B9 PUSH1 0x71 SHL PUSH1 0x60 DUP3 ADD MSTORE PUSH1 0x80 ADD SWAP1 JUMP JUMPDEST PUSH4 0x4E487B71 PUSH1 0xE0 SHL PUSH1 0x0 MSTORE PUSH1 0x12 PUSH1 0x4 MSTORE PUSH1 0x24 PUSH1 0x0 REVERT JUMPDEST PUSH1 0x0 DUP3 PUSH2 0x3886 JUMPI PUSH2 0x3886 PUSH2 0x3861 JUMP JUMPDEST POP DIV SWAP1 JUMP JUMPDEST PUSH1 0x0 DUP3 PUSH2 0x389A JUMPI PUSH2 0x389A PUSH2 0x3861 JUMP JUMPDEST POP MOD SWAP1 JUMP JUMPDEST PUSH1 0x1 PUSH1 0x1 PUSH1 0xA0 SHL SUB DUP6 DUP2 AND DUP3 MSTORE DUP5 AND PUSH1 0x20 DUP3 ADD MSTORE PUSH1 0x40 DUP2 ADD DUP4 SWAP1 MSTORE PUSH1 0x80 PUSH1 0x60 DUP3 ADD DUP2 SWAP1 MSTORE PUSH1 0x0 SWAP1 PUSH2 0x38D2 SWAP1 DUP4 ADD DUP5 PUSH2 0x30B8 JUMP JUMPDEST SWAP7 SWAP6 POP POP POP POP POP POP JUMP JUMPDEST PUSH1 0x0 PUSH1 0x20 DUP3 DUP5 SUB SLT ISZERO PUSH2 0x38EE JUMPI PUSH1 0x0 DUP1 REVERT JUMPDEST DUP2 MLOAD PUSH2 0x1E69 DUP2 PUSH2 0x3059 JUMP JUMPDEST PUSH4 0x4E487B71 PUSH1 0xE0 SHL PUSH1 0x0 MSTORE PUSH1 0x31 PUSH1 0x4 MSTORE PUSH1 0x24 PUSH1 0x0 REVERT INVALID LOG2 PUSH5 0x6970667358 0x22 SLT KECCAK256 ADD 0xEE 0x2A ORIGIN 0xCE 0xDC LT CHAINID DUP15 BYTE CODECOPY PUSH11 0x3115E48FCB27960E57D205 DUP10 0x25 EQ 0xDD 0xE4 0xB4 0x49 DUP14 0x4B PUSH5 0x736F6C6343 STOP ADDMOD SIGNEXTEND STOP CALLER ",
  "sha1": "6da19abd9109fc6233eced72982d3d12b117994e",
  "source": "// SPDX-License-Identifier: MIT\npragma solidity ^0.8.10;\n\nimport '@openzeppelin/contracts/token/ERC721/ERC721.sol';\nimport '@openzeppelin/contracts/token/ERC721/extensions/ERC721Enumerable.sol';\nimport '@openzeppelin/contracts/access/Ownable.sol';\nimport '@openzeppelin/contracts/security/ReentrancyGuard.sol';\nimport '@openzeppelin/contracts/utils/Counters.sol';\nimport '@openzeppelin/contracts/security/Pausable.sol';\nimport '@openzeppelin/contracts/utils/cryptography/MerkleProof.sol';\n\n/// @title CryptidToken NFT Contract\n/// @author @chrisrusselljr\n/// @notice You can use this contract to mint, send, and interact with CRYPTIDS\n/// @dev All function calls are currently implemented without side effects\ncontract CryptidToken is ERC721, ERC721Enumerable, Pausable, Ownable, ReentrancyGuard{ \n    using Strings for uint256;\n    using Counters for Counters.Counter;\n    using MerkleProof for bytes32[];\n\n    enum Stage {\n        Init,\n        Airdrop,\n        Whitelist,\n        TeamMint,\n        PublicSale\n    }\n\n    Counters.Counter private _tokenIdCounter;\n    \n    bytes32 public merkleRoot;\n    string public provenanceHash;\n    string public baseURI = \"\";\n    string public baseExtension = \".json\";\n    uint256 public maxMintPerTx;     \n    bool public tokenURIFrozen = false;\n    bool public provenanceHashFrozen = false;\n\n    address public withdrawlAddress = 0x12B58f5331a6DC897932AA7FB5101667ACdf03e2;\n\n    // ~ Sale stages ~\n    // stage 0: Init\n    // stage 1: Airdrop\n    // stage 2: Whitelist\n    // stage 3: Team Mint \n    // stage 4: Public Sale\n\n    // Whitelist mint (stage=2)\n    uint256 public whitelistSupply;                       \n    mapping(address => bool) public claimed;              \n    \n    // Team Mint (stage=3)\n    uint256 public teamMintSupply;                          \n    uint256 public teamMintCount;\n\n    // Public Sale (stage=4)\n    uint256 public totalSaleSupply;         \n    uint256 public salePrice = 0.1 ether;  \n\n    Stage public stage;\n\n    constructor(\n        string memory _name,\n        string memory _symbol,\n        string memory _baseURI,\n        uint256 _whitelistSupply,\n        uint256 _teamMintSupply,\n        uint256 _totalSaleSupply,\n        uint256 _maxMintPerTx\n\n    )   ERC721(_name, _symbol) {\n        whitelistSupply = _whitelistSupply;\n        teamMintSupply = _teamMintSupply;\n        totalSaleSupply = _totalSaleSupply;\n        maxMintPerTx = _maxMintPerTx;\n        baseURI = _baseURI;\n        _tokenIdCounter.increment();\n    }\n\n    // Stage 1 - Airdrop\n    function airdropCryptid(\n        uint8 mintAmount, \n        address to\n    ) \n        external\n        onlyOwner \n    {\n        require(stage > Stage.Init, \"No airdrops at init.\");\n        require(totalSupply()  + mintAmount <= totalSaleSupply, \"Mint amount will exceed total sale supply.\");\n        for (uint256 i = 1; i <= mintAmount; i++) {\n            _safeMint(to, _tokenIdCounter.current());\n            _tokenIdCounter.increment();\n        }\n    }\n\n    // Stage 2 - Whitelist Sale\n    function whitelistMint(\n        bytes32[] calldata merkleProof\n    ) \n        external\n        payable \n        nonReentrant \n        whenNotPaused \n    {\n        require(stage == Stage.Whitelist, \"Whitelist sale not initiated.\");\n        require(salePrice == msg.value, \"Incorrect ETH value sent.\");\n        require(merkleProof.verify(merkleRoot, keccak256(abi.encodePacked(msg.sender))), \"Address not on whitelist.\");\n        require(totalSupply()  + 1 <= totalSaleSupply, \"Transaction exceeds total sale supply.\");  \n        require(claimed[msg.sender] == false, \"Whitelist mint already claimed.\"); \n        claimed[msg.sender] = true;\n        _safeMint(msg.sender, _tokenIdCounter.current());\n        _tokenIdCounter.increment();\n    }\n\n    // Stage 3 - Team Mint\n    function teamMint(\n        uint8 mintAmount\n    ) \n        external \n        onlyOwner \n    {\n        require(stage == Stage.TeamMint, \"Team mint not initiated.\");\n        require(mintAmount > 0, \"Mint amount must be greater than 0.\");\n        require(mintAmount + teamMintCount <= teamMintSupply, \"Transaction exceeds total team sale supply.\");   \n        require(totalSupply()  + mintAmount <= totalSaleSupply, \"Transaction exceeds total sale supply.\");  \n        teamMintCount += mintAmount;\n        for (uint256 i = 1; i <= mintAmount; i++) {\n            _safeMint(msg.sender, _tokenIdCounter.current());\n            _tokenIdCounter.increment();\n        }\n    }\n\n    // Stage 4 - Public Mint\n    function publicMint(\n        uint256 mintAmount\n    ) \n        external\n        payable \n        nonReentrant \n        whenNotPaused  \n    {\n        require(stage == Stage.PublicSale, \"Public Sale not initiated.\");\n        require(salePrice * mintAmount == msg.value, \"Incorrect ETH value sent.\");\n        require(mintAmount > 0, \"Mint amount must be greater than 0.\");\n        require(totalSupply()  + mintAmount <= totalSaleSupply, \"Transaction exceeds total sale supply.\");\n        require(mintAmount <= maxMintPerTx, \"Exceeds max allowed mints per transaction.\");  \n        for (uint256 i = 1; i <= mintAmount; i++) {\n            _safeMint(msg.sender, _tokenIdCounter.current());\n            _tokenIdCounter.increment();\n        }\n    }\n\n    //Owner functions\n    function pause() external onlyOwner {\n        _pause();\n    }\n\n    function unpause() external onlyOwner {\n        _unpause();\n    }\n\n    // to be used in case of manual override\n    function setClaim(address wlAddress) external onlyOwner{\n        claimed[wlAddress] = true;\n    }\n\n    // to be used in case of WL error\n    function undoClaim(address wlAddress) external onlyOwner{\n        claimed[wlAddress] = false;\n    }\n\n    function setMerkleRoot(bytes32 _merkleRoot) external onlyOwner {\n        merkleRoot = _merkleRoot;\n    }\n\n    function setBaseURI(string memory _newBaseURI) external onlyOwner {\n        require(!tokenURIFrozen, \"BaseURI is frozen.\");\n        baseURI = _newBaseURI;\n    } \n    \n    function freezeBaseURI() external onlyOwner {\n        require(bytes(baseURI).length > 0, \"BaseURI cannot be empty.\");\n        require(!tokenURIFrozen, \"BaseURI is already frozen.\");\n        tokenURIFrozen = true;\n    }\n\n    function setBaseExtension(string memory _newBaseExtension) external onlyOwner {\n        baseExtension = _newBaseExtension;\n    }\n\n    function setProvenanceHash(string memory _provenanceHash) external onlyOwner {\n        require(bytes(_provenanceHash).length > 0, \"Provenance hash cannot be empty string.\");\n        require(!provenanceHashFrozen, \"Provenance hash is frozen.\");\n        provenanceHash = _provenanceHash;\n    }\n\n    function freezeProvenanceHash() external onlyOwner {\n        require(bytes(provenanceHash).length > 0, \"Provenance hash is not set.\");\n        require(!provenanceHashFrozen, \"Provenance hash is already frozen.\");\n        provenanceHashFrozen = true;\n    }\n\n    function setWithdrawlAddress(address _withdrawlAddress) external onlyOwner {\n        withdrawlAddress = _withdrawlAddress;\n    }\n\n    function setSalePrice(uint256 _salePrice) external onlyOwner {\n        salePrice = _salePrice;\n    }\n\n    function setMaxMintPerTx(uint256 _maxMintPerTx) external onlyOwner {\n        maxMintPerTx = _maxMintPerTx;\n    }\n\n    function withdraw() external onlyOwner {\n        uint256 balance = address(this).balance;\n        require(balance > 0, \"No balance to withdraw.\");\n        (bool success, ) = payable(withdrawlAddress).call{value: balance}(\"\");\n        require(success, \"Failed to withdraw balance.\");\n    }\n\n    function setStage(Stage _stage) external onlyOwner {\n        require(provenanceHashFrozen == true, \"Provenance hash must be frozen before minting can start.\");\n        require(merkleRoot != 0, \"Merkle root must be set beefore minting can start.\");\n        stage = _stage;\n    }\n\n    // External view functions\n    function lastMintAddress() external view returns (address){\n        return ownerOf(totalSupply());\n    }\n\n    function lastMintID() external view returns (uint256){\n        return(totalSupply());\n    }\n\n    function tokenURI(uint256 tokenId) public view virtual override returns (string memory) {\n        require(_exists(tokenId), \"ERC721Metadata: URI query for nonexistent token.\");\n        return string(abi.encodePacked(baseURI, tokenId.toString(), baseExtension));\n    }\n\n    function getTokensLeft() external view returns (uint256) {\n        return totalSaleSupply - totalSupply();\n    }\n    \n    function walletOfOwner(address owner) external view returns (uint256[] memory) {\n        uint256 ownerTokenCount = balanceOf(owner);\n        uint256[] memory tokensIds = new uint256[](ownerTokenCount);\n        for (uint256 i; i < ownerTokenCount; i++) {\n            tokensIds[i] = tokenOfOwnerByIndex(owner, i);\n        }\n        return tokensIds;\n    }\n\n    function verify(address account, bytes32[] calldata merkleProof) external view returns (bool) {\n        if (merkleProof.verify(merkleRoot, keccak256(abi.encodePacked(account)))) {\n            return true;\n        }\n        return false;\n    }\n    \n    function _beforeTokenTransfer(address from, address to, uint256 tokenId) internal whenNotPaused override(ERC721, ERC721Enumerable) {\n        super._beforeTokenTransfer(from, to, tokenId);\n    }\n\n    // The following functions are overrides required by Solidity.\n\n    function supportsInterface(bytes4 interfaceId) public view override(ERC721, ERC721Enumerable) returns (bool) {\n        return super.supportsInterface(interfaceId);\n    }\n\n}",
  "sourcePath": "contracts/CryptidToken.sol",
  "type": "contract"
}