{
  "abi": [
    {
      "inputs": [
        {
          "internalType": "string",
          "name": "_name",
          "type": "string"
        },
        {
          "internalType": "string",
          "name": "_symbol",
          "type": "string"
        },
        {
          "internalType": "string",
          "name": "_baseURI",
          "type": "string"
        },
        {
          "internalType": "uint256",
          "name": "_whitelistSupply",
          "type": "uint256"
        },
        {
          "internalType": "uint256",
          "name": "_teamMintSupply",
          "type": "uint256"
        },
        {
          "internalType": "uint256",
          "name": "_totalSaleSupply",
          "type": "uint256"
        },
        {
          "internalType": "uint8",
          "name": "_maxMintPerTx",
          "type": "uint8"
        }
      ],
      "stateMutability": "nonpayable",
      "type": "constructor"
    },
    {
      "anonymous": false,
      "inputs": [
        {
          "indexed": true,
          "internalType": "address",
          "name": "owner",
          "type": "address"
        },
        {
          "indexed": true,
          "internalType": "address",
          "name": "approved",
          "type": "address"
        },
        {
          "indexed": true,
          "internalType": "uint256",
          "name": "tokenId",
          "type": "uint256"
        }
      ],
      "name": "Approval",
      "type": "event"
    },
    {
      "anonymous": false,
      "inputs": [
        {
          "indexed": true,
          "internalType": "address",
          "name": "owner",
          "type": "address"
        },
        {
          "indexed": true,
          "internalType": "address",
          "name": "operator",
          "type": "address"
        },
        {
          "indexed": false,
          "internalType": "bool",
          "name": "approved",
          "type": "bool"
        }
      ],
      "name": "ApprovalForAll",
      "type": "event"
    },
    {
      "anonymous": false,
      "inputs": [
        {
          "indexed": true,
          "internalType": "address",
          "name": "previousOwner",
          "type": "address"
        },
        {
          "indexed": true,
          "internalType": "address",
          "name": "newOwner",
          "type": "address"
        }
      ],
      "name": "OwnershipTransferred",
      "type": "event"
    },
    {
      "anonymous": false,
      "inputs": [
        {
          "indexed": false,
          "internalType": "address",
          "name": "account",
          "type": "address"
        }
      ],
      "name": "Paused",
      "type": "event"
    },
    {
      "anonymous": false,
      "inputs": [
        {
          "indexed": true,
          "internalType": "address",
          "name": "from",
          "type": "address"
        },
        {
          "indexed": true,
          "internalType": "address",
          "name": "to",
          "type": "address"
        },
        {
          "indexed": true,
          "internalType": "uint256",
          "name": "tokenId",
          "type": "uint256"
        }
      ],
      "name": "Transfer",
      "type": "event"
    },
    {
      "anonymous": false,
      "inputs": [
        {
          "indexed": false,
          "internalType": "address",
          "name": "account",
          "type": "address"
        }
      ],
      "name": "Unpaused",
      "type": "event"
    },
    {
      "inputs": [
        {
          "internalType": "uint8",
          "name": "_mintAmount",
          "type": "uint8"
        },
        {
          "internalType": "address",
          "name": "_to",
          "type": "address"
        }
      ],
      "name": "airdropCryptid",
      "outputs": [],
      "stateMutability": "nonpayable",
      "type": "function"
    },
    {
      "inputs": [
        {
          "internalType": "address",
          "name": "to",
          "type": "address"
        },
        {
          "internalType": "uint256",
          "name": "tokenId",
          "type": "uint256"
        }
      ],
      "name": "approve",
      "outputs": [],
      "stateMutability": "nonpayable",
      "type": "function"
    },
    {
      "inputs": [
        {
          "internalType": "address",
          "name": "owner",
          "type": "address"
        }
      ],
      "name": "balanceOf",
      "outputs": [
        {
          "internalType": "uint256",
          "name": "",
          "type": "uint256"
        }
      ],
      "stateMutability": "view",
      "type": "function"
    },
    {
      "inputs": [],
      "name": "baseExtension",
      "outputs": [
        {
          "internalType": "string",
          "name": "",
          "type": "string"
        }
      ],
      "stateMutability": "view",
      "type": "function"
    },
    {
      "inputs": [],
      "name": "baseURI",
      "outputs": [
        {
          "internalType": "string",
          "name": "",
          "type": "string"
        }
      ],
      "stateMutability": "view",
      "type": "function"
    },
    {
      "inputs": [
        {
          "internalType": "uint256",
          "name": "tokenId",
          "type": "uint256"
        }
      ],
      "name": "burn",
      "outputs": [],
      "stateMutability": "nonpayable",
      "type": "function"
    },
    {
      "inputs": [
        {
          "internalType": "address",
          "name": "",
          "type": "address"
        }
      ],
      "name": "freeMintCount",
      "outputs": [
        {
          "internalType": "uint8",
          "name": "",
          "type": "uint8"
        }
      ],
      "stateMutability": "view",
      "type": "function"
    },
    {
      "inputs": [
        {
          "internalType": "address",
          "name": "",
          "type": "address"
        }
      ],
      "name": "freeUsers",
      "outputs": [
        {
          "internalType": "uint8",
          "name": "",
          "type": "uint8"
        }
      ],
      "stateMutability": "view",
      "type": "function"
    },
    {
      "inputs": [],
      "name": "freezeBaseURI",
      "outputs": [],
      "stateMutability": "nonpayable",
      "type": "function"
    },
    {
      "inputs": [],
      "name": "freezeProvenanceHash",
      "outputs": [],
      "stateMutability": "nonpayable",
      "type": "function"
    },
    {
      "inputs": [
        {
          "internalType": "uint256",
          "name": "tokenId",
          "type": "uint256"
        }
      ],
      "name": "getApproved",
      "outputs": [
        {
          "internalType": "address",
          "name": "",
          "type": "address"
        }
      ],
      "stateMutability": "view",
      "type": "function"
    },
    {
      "inputs": [],
      "name": "getStage",
      "outputs": [
        {
          "internalType": "uint8",
          "name": "",
          "type": "uint8"
        }
      ],
      "stateMutability": "view",
      "type": "function"
    },
    {
      "inputs": [],
      "name": "getTokensLeft",
      "outputs": [
        {
          "internalType": "uint256",
          "name": "",
          "type": "uint256"
        }
      ],
      "stateMutability": "view",
      "type": "function"
    },
    {
      "inputs": [
        {
          "internalType": "address",
          "name": "owner",
          "type": "address"
        },
        {
          "internalType": "address",
          "name": "operator",
          "type": "address"
        }
      ],
      "name": "isApprovedForAll",
      "outputs": [
        {
          "internalType": "bool",
          "name": "",
          "type": "bool"
        }
      ],
      "stateMutability": "view",
      "type": "function"
    },
    {
      "inputs": [],
      "name": "lastMintAddress",
      "outputs": [
        {
          "internalType": "address",
          "name": "",
          "type": "address"
        }
      ],
      "stateMutability": "view",
      "type": "function"
    },
    {
      "inputs": [],
      "name": "lastMintID",
      "outputs": [
        {
          "internalType": "uint256",
          "name": "",
          "type": "uint256"
        }
      ],
      "stateMutability": "view",
      "type": "function"
    },
    {
      "inputs": [],
      "name": "maxMintPerTx",
      "outputs": [
        {
          "internalType": "uint8",
          "name": "",
          "type": "uint8"
        }
      ],
      "stateMutability": "view",
      "type": "function"
    },
    {
      "inputs": [],
      "name": "merkleRoot",
      "outputs": [
        {
          "internalType": "bytes32",
          "name": "",
          "type": "bytes32"
        }
      ],
      "stateMutability": "view",
      "type": "function"
    },
    {
      "inputs": [
        {
          "internalType": "uint8",
          "name": "_mintAmount",
          "type": "uint8"
        }
      ],
      "name": "mint",
      "outputs": [],
      "stateMutability": "payable",
      "type": "function"
    },
    {
      "inputs": [],
      "name": "name",
      "outputs": [
        {
          "internalType": "string",
          "name": "",
          "type": "string"
        }
      ],
      "stateMutability": "view",
      "type": "function"
    },
    {
      "inputs": [],
      "name": "nextStage",
      "outputs": [],
      "stateMutability": "nonpayable",
      "type": "function"
    },
    {
      "inputs": [],
      "name": "owner",
      "outputs": [
        {
          "internalType": "address",
          "name": "",
          "type": "address"
        }
      ],
      "stateMutability": "view",
      "type": "function"
    },
    {
      "inputs": [
        {
          "internalType": "uint256",
          "name": "tokenId",
          "type": "uint256"
        }
      ],
      "name": "ownerOf",
      "outputs": [
        {
          "internalType": "address",
          "name": "",
          "type": "address"
        }
      ],
      "stateMutability": "view",
      "type": "function"
    },
    {
      "inputs": [],
      "name": "pause",
      "outputs": [],
      "stateMutability": "nonpayable",
      "type": "function"
    },
    {
      "inputs": [],
      "name": "paused",
      "outputs": [
        {
          "internalType": "bool",
          "name": "",
          "type": "bool"
        }
      ],
      "stateMutability": "view",
      "type": "function"
    },
    {
      "inputs": [],
      "name": "prevStage",
      "outputs": [],
      "stateMutability": "nonpayable",
      "type": "function"
    },
    {
      "inputs": [],
      "name": "provenanceHash",
      "outputs": [
        {
          "internalType": "string",
          "name": "",
          "type": "string"
        }
      ],
      "stateMutability": "view",
      "type": "function"
    },
    {
      "inputs": [],
      "name": "provenanceHashFrozen",
      "outputs": [
        {
          "internalType": "bool",
          "name": "",
          "type": "bool"
        }
      ],
      "stateMutability": "view",
      "type": "function"
    },
    {
      "inputs": [
        {
          "internalType": "address",
          "name": "_user",
          "type": "address"
        }
      ],
      "name": "removeFreetUser",
      "outputs": [],
      "stateMutability": "nonpayable",
      "type": "function"
    },
    {
      "inputs": [
        {
          "internalType": "address",
          "name": "_user",
          "type": "address"
        }
      ],
      "name": "removeWhitelistUser",
      "outputs": [],
      "stateMutability": "nonpayable",
      "type": "function"
    },
    {
      "inputs": [],
      "name": "renounceOwnership",
      "outputs": [],
      "stateMutability": "nonpayable",
      "type": "function"
    },
    {
      "inputs": [
        {
          "internalType": "address",
          "name": "from",
          "type": "address"
        },
        {
          "internalType": "address",
          "name": "to",
          "type": "address"
        },
        {
          "internalType": "uint256",
          "name": "tokenId",
          "type": "uint256"
        }
      ],
      "name": "safeTransferFrom",
      "outputs": [],
      "stateMutability": "nonpayable",
      "type": "function"
    },
    {
      "inputs": [
        {
          "internalType": "address",
          "name": "from",
          "type": "address"
        },
        {
          "internalType": "address",
          "name": "to",
          "type": "address"
        },
        {
          "internalType": "uint256",
          "name": "tokenId",
          "type": "uint256"
        },
        {
          "internalType": "bytes",
          "name": "_data",
          "type": "bytes"
        }
      ],
      "name": "safeTransferFrom",
      "outputs": [],
      "stateMutability": "nonpayable",
      "type": "function"
    },
    {
      "inputs": [],
      "name": "salePrice",
      "outputs": [
        {
          "internalType": "uint256",
          "name": "",
          "type": "uint256"
        }
      ],
      "stateMutability": "view",
      "type": "function"
    },
    {
      "inputs": [
        {
          "internalType": "address",
          "name": "operator",
          "type": "address"
        },
        {
          "internalType": "bool",
          "name": "approved",
          "type": "bool"
        }
      ],
      "name": "setApprovalForAll",
      "outputs": [],
      "stateMutability": "nonpayable",
      "type": "function"
    },
    {
      "inputs": [
        {
          "internalType": "string",
          "name": "_newBaseExtension",
          "type": "string"
        }
      ],
      "name": "setBaseExtension",
      "outputs": [],
      "stateMutability": "nonpayable",
      "type": "function"
    },
    {
      "inputs": [
        {
          "internalType": "string",
          "name": "_newBaseURI",
          "type": "string"
        }
      ],
      "name": "setBaseURI",
      "outputs": [],
      "stateMutability": "nonpayable",
      "type": "function"
    },
    {
      "inputs": [
        {
          "internalType": "uint8",
          "name": "_newmaxMintPerTx",
          "type": "uint8"
        }
      ],
      "name": "setMaxMintPerTx",
      "outputs": [],
      "stateMutability": "nonpayable",
      "type": "function"
    },
    {
      "inputs": [
        {
          "internalType": "string",
          "name": "_provenanceHash",
          "type": "string"
        }
      ],
      "name": "setProvenanceHash",
      "outputs": [],
      "stateMutability": "nonpayable",
      "type": "function"
    },
    {
      "inputs": [
        {
          "internalType": "uint256",
          "name": "_newSalePrice",
          "type": "uint256"
        }
      ],
      "name": "setPublicSalePrice",
      "outputs": [],
      "stateMutability": "nonpayable",
      "type": "function"
    },
    {
      "inputs": [
        {
          "internalType": "uint256",
          "name": "_newTeamMintSupply",
          "type": "uint256"
        }
      ],
      "name": "setTeamMintSupply",
      "outputs": [],
      "stateMutability": "nonpayable",
      "type": "function"
    },
    {
      "inputs": [
        {
          "internalType": "uint256",
          "name": "_newWhitelistPrice",
          "type": "uint256"
        }
      ],
      "name": "setWhitelistPrice",
      "outputs": [],
      "stateMutability": "nonpayable",
      "type": "function"
    },
    {
      "inputs": [
        {
          "internalType": "address[]",
          "name": "_users",
          "type": "address[]"
        }
      ],
      "name": "setWhitelistUsers",
      "outputs": [],
      "stateMutability": "nonpayable",
      "type": "function"
    },
    {
      "inputs": [
        {
          "internalType": "address",
          "name": "_dest1",
          "type": "address"
        },
        {
          "internalType": "address",
          "name": "_dest2",
          "type": "address"
        }
      ],
      "name": "setWithdrawAddress",
      "outputs": [],
      "stateMutability": "nonpayable",
      "type": "function"
    },
    {
      "inputs": [
        {
          "internalType": "address[]",
          "name": "_users",
          "type": "address[]"
        },
        {
          "internalType": "uint8[]",
          "name": "_mints",
          "type": "uint8[]"
        }
      ],
      "name": "setfreeUsers",
      "outputs": [],
      "stateMutability": "nonpayable",
      "type": "function"
    },
    {
      "inputs": [
        {
          "internalType": "bytes4",
          "name": "interfaceId",
          "type": "bytes4"
        }
      ],
      "name": "supportsInterface",
      "outputs": [
        {
          "internalType": "bool",
          "name": "",
          "type": "bool"
        }
      ],
      "stateMutability": "view",
      "type": "function"
    },
    {
      "inputs": [],
      "name": "symbol",
      "outputs": [
        {
          "internalType": "string",
          "name": "",
          "type": "string"
        }
      ],
      "stateMutability": "view",
      "type": "function"
    },
    {
      "inputs": [],
      "name": "teamMintCount",
      "outputs": [
        {
          "internalType": "uint256",
          "name": "",
          "type": "uint256"
        }
      ],
      "stateMutability": "view",
      "type": "function"
    },
    {
      "inputs": [],
      "name": "teamMintSupply",
      "outputs": [
        {
          "internalType": "uint256",
          "name": "",
          "type": "uint256"
        }
      ],
      "stateMutability": "view",
      "type": "function"
    },
    {
      "inputs": [
        {
          "internalType": "uint256",
          "name": "tokenId",
          "type": "uint256"
        }
      ],
      "name": "tokenURI",
      "outputs": [
        {
          "internalType": "string",
          "name": "",
          "type": "string"
        }
      ],
      "stateMutability": "view",
      "type": "function"
    },
    {
      "inputs": [],
      "name": "tokenURIFrozen",
      "outputs": [
        {
          "internalType": "bool",
          "name": "",
          "type": "bool"
        }
      ],
      "stateMutability": "view",
      "type": "function"
    },
    {
      "inputs": [],
      "name": "totalSaleSupply",
      "outputs": [
        {
          "internalType": "uint256",
          "name": "",
          "type": "uint256"
        }
      ],
      "stateMutability": "view",
      "type": "function"
    },
    {
      "inputs": [],
      "name": "totalSupply",
      "outputs": [
        {
          "internalType": "uint256",
          "name": "",
          "type": "uint256"
        }
      ],
      "stateMutability": "view",
      "type": "function"
    },
    {
      "inputs": [
        {
          "internalType": "address",
          "name": "from",
          "type": "address"
        },
        {
          "internalType": "address",
          "name": "to",
          "type": "address"
        },
        {
          "internalType": "uint256",
          "name": "tokenId",
          "type": "uint256"
        }
      ],
      "name": "transferFrom",
      "outputs": [],
      "stateMutability": "nonpayable",
      "type": "function"
    },
    {
      "inputs": [
        {
          "internalType": "address",
          "name": "newOwner",
          "type": "address"
        }
      ],
      "name": "transferOwnership",
      "outputs": [],
      "stateMutability": "nonpayable",
      "type": "function"
    },
    {
      "inputs": [],
      "name": "unpause",
      "outputs": [],
      "stateMutability": "nonpayable",
      "type": "function"
    },
    {
      "inputs": [
        {
          "internalType": "address",
          "name": "",
          "type": "address"
        }
      ],
      "name": "whitelistMintCount",
      "outputs": [
        {
          "internalType": "uint8",
          "name": "",
          "type": "uint8"
        }
      ],
      "stateMutability": "view",
      "type": "function"
    },
    {
      "inputs": [],
      "name": "whitelistMintMax",
      "outputs": [
        {
          "internalType": "uint8",
          "name": "",
          "type": "uint8"
        }
      ],
      "stateMutability": "view",
      "type": "function"
    },
    {
      "inputs": [],
      "name": "whitelistPrice",
      "outputs": [
        {
          "internalType": "uint256",
          "name": "",
          "type": "uint256"
        }
      ],
      "stateMutability": "view",
      "type": "function"
    },
    {
      "inputs": [],
      "name": "whitelistSupply",
      "outputs": [
        {
          "internalType": "uint256",
          "name": "",
          "type": "uint256"
        }
      ],
      "stateMutability": "view",
      "type": "function"
    },
    {
      "inputs": [
        {
          "internalType": "address",
          "name": "",
          "type": "address"
        }
      ],
      "name": "whitelistUsers",
      "outputs": [
        {
          "internalType": "bool",
          "name": "",
          "type": "bool"
        }
      ],
      "stateMutability": "view",
      "type": "function"
    },
    {
      "inputs": [],
      "name": "withdraw",
      "outputs": [],
      "stateMutability": "payable",
      "type": "function"
    },
    {
      "inputs": [],
      "name": "withdrawDest1",
      "outputs": [
        {
          "internalType": "address",
          "name": "",
          "type": "address"
        }
      ],
      "stateMutability": "view",
      "type": "function"
    },
    {
      "inputs": [],
      "name": "withdrawDest2",
      "outputs": [
        {
          "internalType": "address",
          "name": "",
          "type": "address"
        }
      ],
      "stateMutability": "view",
      "type": "function"
    }
  ],
  "bytecode": "60a06040819052600060808190526200001b91600a91620001f3565b5060408051808201909152600580825264173539b7b760d91b60209092019182526200004a91600b91620001f3565b50600c8054771953bc1ff76f5e61cd775a4482bd85bac56ad1eb0000000061ff01600160c01b0319909116179055600d80546001600160a01b0319167312b58f5331a6dc897932aa7fb5101667acdf03e217905567011c37937e08000060128190556013805460ff19166002179055601755348015620000c957600080fd5b50604051620040d9380380620040d9833981016040819052620000ec9162000366565b86518790879062000105906000906020850190620001f3565b5080516200011b906001906020840190620001f3565b50506006805460ff1916905550620001333362000190565b601184905560158390556018829055600c805461ff00191661010060ff84160217905584516200016b90600a906020880190620001f3565b50620001836007620001ea60201b620028bb1760201c565b505050505050506200046d565b600680546001600160a01b03838116610100818102610100600160a81b031985161790945560405193909204169182907f8be0079c531659141344cd1fd0a4f28419497f9722a3daafe3b4186f6b6457e090600090a35050565b80546001019055565b828054620002019062000430565b90600052602060002090601f01602090048101928262000225576000855562000270565b82601f106200024057805160ff191683800117855562000270565b8280016001018555821562000270579182015b828111156200027057825182559160200191906001019062000253565b506200027e92915062000282565b5090565b5b808211156200027e576000815560010162000283565b634e487b7160e01b600052604160045260246000fd5b600082601f830112620002c157600080fd5b81516001600160401b0380821115620002de57620002de62000299565b604051601f8301601f19908116603f0116810190828211818310171562000309576200030962000299565b816040528381526020925086838588010111156200032657600080fd5b600091505b838210156200034a57858201830151818301840152908201906200032b565b838211156200035c5760008385830101525b9695505050505050565b600080600080600080600060e0888a0312156200038257600080fd5b87516001600160401b03808211156200039a57600080fd5b620003a88b838c01620002af565b985060208a0151915080821115620003bf57600080fd5b620003cd8b838c01620002af565b975060408a0151915080821115620003e457600080fd5b50620003f38a828b01620002af565b955050606088015193506080880151925060a0880151915060c088015160ff811681146200042057600080fd5b8091505092959891949750929550565b600181811c908216806200044557607f821691505b602082108114156200046757634e487b7160e01b600052602260045260246000fd5b50919050565b613c5c806200047d6000396000f3fe6080604052600436106103c35760003560e01c806378231978116101f2578063c66828621161010d578063e59a2f99116100a0578063f2fde38b1161006f578063f2fde38b14610b03578063f51f96dd14610b23578063fc1a1c3614610b39578063fcaa766414610b4f57600080fd5b8063e59a2f9914610a70578063e7bc820814610a90578063e985e9c514610aa5578063ee3743ab14610aee57600080fd5b8063d6d67a09116100dc578063d6d67a0914610a07578063da3ef23f14610a1c578063de5f986614610a3c578063de7fcb1d14610a5157600080fd5b8063c6682862146109a8578063c6ab67a3146109bd578063c87b56dd146109d2578063cbd0a2b5146109f257600080fd5b8063a62248a911610185578063b7353de611610154578063b7353de614610922578063b88d4fde14610952578063c29de63014610972578063c32145811461099257600080fd5b8063a62248a9146108a8578063a84ffcfc146108c2578063b1214392146108e2578063b3caad011461090257600080fd5b80638da5cb5b116101c15780638da5cb5b1461082f57806395d89b41146108525780639a2a9c3d14610867578063a22cb4651461088857600080fd5b806378231978146107cf578063791a2519146107e557806381c162f2146108055780638456cb591461081a57600080fd5b80633f4ba83a116102e25780636352211e116102755780636ecd2306116102445780636ecd23061461076757806370a082311461077a578063715018a61461079a578063717d57d3146107af57600080fd5b80636352211e146106ed5780636c0360eb1461070d5780636cbb8985146107225780636ec55dbc1461073757600080fd5b80635c975abb116102b15780635c975abb1461065d5780635ecf8a801461067557806361869a93146106a5578063622e4e78146106cd57600080fd5b80633f4ba83a146105e857806342842e0e146105fd57806342966c681461061d57806355f804b31461063d57600080fd5b806323b872dd1161035a57806330cc7ae01161032957806330cc7ae01461056857806333e61413146105885780633bdf4ac61461059e5780633ccfd60b146105e057600080fd5b806323b872dd146104f25780632beab4b7146105125780632eb4a7ab1461053257806330ba7bf91461054857600080fd5b8063095ea7b311610396578063095ea7b31461047b578063109695231461049d57806318160ddd146104bd57806320841a6a146104d257600080fd5b806301ffc9a7146103c857806306fdde03146103fd578063081812fc1461041f578063088139a614610457575b600080fd5b3480156103d457600080fd5b506103e86103e336600461334a565b610b67565b60405190151581526020015b60405180910390f35b34801561040957600080fd5b50610412610bb9565b6040516103f491906133bf565b34801561042b57600080fd5b5061043f61043a3660046133d2565b610c4b565b6040516001600160a01b0390911681526020016103f4565b34801561046357600080fd5b5061046d60165481565b6040519081526020016103f4565b34801561048757600080fd5b5061049b610496366004613407565b610ce5565b005b3480156104a957600080fd5b5061049b6104b83660046134d0565b610dfb565b3480156104c957600080fd5b5061046d610e9c565b3480156104de57600080fd5b5061049b6104ed3660046133d2565b610eb8565b3480156104fe57600080fd5b5061049b61050d366004613519565b610eed565b34801561051e57600080fd5b5061049b61052d3660046135eb565b610f1f565b34801561053e57600080fd5b5061046d60085481565b34801561055457600080fd5b5061049b610563366004613620565b611008565b34801561057457600080fd5b5061049b610583366004613620565b611118565b34801561059457600080fd5b5061046d60115481565b3480156105aa57600080fd5b506105ce6105b9366004613620565b60146020526000908152604090205460ff1681565b60405160ff90911681526020016103f4565b61049b6111d1565b3480156105f457600080fd5b5061049b611396565b34801561060957600080fd5b5061049b610618366004613519565b6113d0565b34801561062957600080fd5b5061049b6106383660046133d2565b6113eb565b34801561064957600080fd5b5061049b6106583660046134d0565b611465565b34801561066957600080fd5b5060065460ff166103e8565b34801561068157600080fd5b506105ce610690366004613620565b600f6020526000908152604090205460ff1681565b3480156106b157600080fd5b50600c5461043f9064010000000090046001600160a01b031681565b3480156106d957600080fd5b5061049b6106e836600461364c565b6114f6565b3480156106f957600080fd5b5061043f6107083660046133d2565b611542565b34801561071957600080fd5b506104126115b9565b34801561072e57600080fd5b5061043f611647565b34801561074357600080fd5b506103e8610752366004613620565b60106020526000908152604090205460ff1681565b61049b61077536600461364c565b6116a3565b34801561078657600080fd5b5061046d610795366004613620565b611d41565b3480156107a657600080fd5b5061049b611dc8565b3480156107bb57600080fd5b5061049b6107ca3660046133d2565b611e02565b3480156107db57600080fd5b5061046d60185481565b3480156107f157600080fd5b5061049b6108003660046133d2565b611e88565b34801561081157600080fd5b5061049b611ebd565b34801561082657600080fd5b5061049b611fc5565b34801561083b57600080fd5b5060065461010090046001600160a01b031661043f565b34801561085e57600080fd5b50610412611ffd565b34801561087357600080fd5b50600c546103e8906301000000900460ff1681565b34801561089457600080fd5b5061049b6108a3366004613667565b61200c565b3480156108b457600080fd5b506013546105ce9060ff1681565b3480156108ce57600080fd5b5061049b6108dd3660046136a3565b612017565b3480156108ee57600080fd5b50600d5461043f906001600160a01b031681565b34801561090e57600080fd5b5061049b61091d366004613765565b61212d565b34801561092e57600080fd5b506105ce61093d366004613620565b600e6020526000908152604090205460ff1681565b34801561095e57600080fd5b5061049b61096d366004613798565b61235e565b34801561097e57600080fd5b50600c546103e89062010000900460ff1681565b34801561099e57600080fd5b5061046d60155481565b3480156109b457600080fd5b50610412612396565b3480156109c957600080fd5b506104126123a3565b3480156109de57600080fd5b506104126109ed3660046133d2565b6123b0565b3480156109fe57600080fd5b5061049b612464565b348015610a1357600080fd5b5061046d61253a565b348015610a2857600080fd5b5061049b610a373660046134d0565b612593565b348015610a4857600080fd5b5061046d6125d6565b348015610a5d57600080fd5b50600c546105ce90610100900460ff1681565b348015610a7c57600080fd5b5061049b610a8b366004613814565b6125ed565b348015610a9c57600080fd5b5061049b61265b565b348015610ab157600080fd5b506103e8610ac0366004613814565b6001600160a01b03918216600090815260056020908152604080832093909416825291909152205460ff1690565b348015610afa57600080fd5b5061049b612755565b348015610b0f57600080fd5b5061049b610b1e366004613620565b61281d565b348015610b2f57600080fd5b5061046d60175481565b348015610b4557600080fd5b5061046d60125481565b348015610b5b57600080fd5b50600c5460ff166105ce565b60006001600160e01b031982166380ac58cd60e01b1480610b9857506001600160e01b03198216635b5e139f60e01b145b80610bb357506301ffc9a760e01b6001600160e01b03198316145b92915050565b606060008054610bc890613830565b80601f0160208091040260200160405190810160405280929190818152602001828054610bf490613830565b8015610c415780601f10610c1657610100808354040283529160200191610c41565b820191906000526020600020905b815481529060010190602001808311610c2457829003601f168201915b5050505050905090565b6000818152600260205260408120546001600160a01b0316610cc95760405162461bcd60e51b815260206004820152602c60248201527f4552433732313a20617070726f76656420717565727920666f72206e6f6e657860448201526b34b9ba32b73a103a37b5b2b760a11b60648201526084015b60405180910390fd5b506000908152600460205260409020546001600160a01b031690565b6000610cf082611542565b9050806001600160a01b0316836001600160a01b03161415610d5e5760405162461bcd60e51b815260206004820152602160248201527f4552433732313a20617070726f76616c20746f2063757272656e74206f776e656044820152603960f91b6064820152608401610cc0565b336001600160a01b0382161480610d7a5750610d7a8133610ac0565b610dec5760405162461bcd60e51b815260206004820152603860248201527f4552433732313a20617070726f76652063616c6c6572206973206e6f74206f7760448201527f6e6572206e6f7220617070726f76656420666f7220616c6c00000000000000006064820152608401610cc0565b610df683836128c4565b505050565b6006546001600160a01b03610100909104163314610e2b5760405162461bcd60e51b8152600401610cc09061386b565b600c546301000000900460ff1615610e855760405162461bcd60e51b815260206004820152601a60248201527f50726f76656e616e636520686173682069732066726f7a656e2e0000000000006044820152606401610cc0565b8051610e9890600990602084019061329b565b5050565b60006001610ea960075490565b610eb391906138b6565b905090565b6006546001600160a01b03610100909104163314610ee85760405162461bcd60e51b8152600401610cc09061386b565b601555565b610ef8335b82612932565b610f145760405162461bcd60e51b8152600401610cc0906138cd565b610df6838383612a29565b6006546001600160a01b03610100909104163314610f4f5760405162461bcd60e51b8152600401610cc09061386b565b600c54600360ff90911610610fa05760405162461bcd60e51b81526020600482015260176024820152762bb434ba32b634b9ba1034b99031b7b731b63ab232b21760491b6044820152606401610cc0565b60005b8151811015610e9857600160106000848481518110610fc457610fc461391e565b6020908102919091018101516001600160a01b03168252810191909152604001600020805460ff19169115159190911790558061100081613934565b915050610fa3565b6006546001600160a01b036101009091041633146110385760405162461bcd60e51b8152600401610cc09061386b565b600c54600260ff9091161061108f5760405162461bcd60e51b815260206004820152601c60248201527f46726565206d696e742073616c6520697320636f6e636c756465642e000000006044820152606401610cc0565b6001600160a01b0381166000908152600e602052604090205460ff166110f75760405162461bcd60e51b815260206004820152601b60248201527f55736572206e6f7420617761726465642066726565206d696e742e00000000006044820152606401610cc0565b6001600160a01b03166000908152600e60205260409020805460ff19169055565b6006546001600160a01b036101009091041633146111485760405162461bcd60e51b8152600401610cc09061386b565b6001600160a01b03811660009081526010602052604090205460ff166111b05760405162461bcd60e51b815260206004820152601b60248201527f55736572206e6f74206f6e2077686974656c697374206c6973742e00000000006044820152606401610cc0565b6001600160a01b03166000908152601060205260409020805460ff19169055565b6006546001600160a01b036101009091041633146112015760405162461bcd60e51b8152600401610cc09061386b565b6000471161124a5760405162461bcd60e51b815260206004820152601660248201527521b7b73a3930b1ba103130b630b731b29034b990181760511b6044820152606401610cc0565b600c5460009064010000000090046001600160a01b03166112776064611271476032612bd4565b90612be7565b604051600081818185875af1925050503d80600081146112b3576040519150601f19603f3d011682016040523d82523d6000602084013e6112b8565b606091505b50509050806112fe5760405162461bcd60e51b81526020600482015260126024820152711dda5d1a191c985ddb080c4819985a5b195960721b6044820152606401610cc0565b600d546040516000916001600160a01b03169047908381818185875af1925050503d806000811461134b576040519150601f19603f3d011682016040523d82523d6000602084013e611350565b606091505b5050905080610e985760405162461bcd60e51b81526020600482015260126024820152711dda5d1a191c985ddb080c8819985a5b195960721b6044820152606401610cc0565b6006546001600160a01b036101009091041633146113c65760405162461bcd60e51b8152600401610cc09061386b565b6113ce612bf3565b565b610df68383836040518060200160405280600081525061235e565b6113f433610ef2565b6114595760405162461bcd60e51b815260206004820152603060248201527f4552433732314275726e61626c653a2063616c6c6572206973206e6f74206f7760448201526f1b995c881b9bdc88185c1c1c9bdd995960821b6064820152608401610cc0565b61146281612c86565b50565b6006546001600160a01b036101009091041633146114955760405162461bcd60e51b8152600401610cc09061386b565b600c5462010000900460ff16156114e35760405162461bcd60e51b81526020600482015260126024820152712130b9b2aaa9249034b990333937bd32b71760711b6044820152606401610cc0565b8051610e9890600a90602084019061329b565b6006546001600160a01b036101009091041633146115265760405162461bcd60e51b8152600401610cc09061386b565b600c805460ff9092166101000261ff0019909216919091179055565b6000818152600260205260408120546001600160a01b031680610bb35760405162461bcd60e51b815260206004820152602960248201527f4552433732313a206f776e657220717565727920666f72206e6f6e657869737460448201526832b73a103a37b5b2b760b91b6064820152608401610cc0565b600a80546115c690613830565b80601f01602080910402602001604051908101604052809291908181526020018280546115f290613830565b801561163f5780601f106116145761010080835404028352916020019161163f565b820191906000526020600020905b81548152906001019060200180831161162257829003601f168201915b505050505081565b600080611652610e9c565b116116985760405162461bcd60e51b815260206004820152601660248201527527379031b93cb83a34b21032bc34b9ba39903cb2ba1760511b6044820152606401610cc0565b610eb3610708610e9c565b60065460ff16156116c65760405162461bcd60e51b8152600401610cc09061394f565b600c5460ff166117335760405162461bcd60e51b815260206004820152603260248201527f4d696e74696e67206e6f7420696e697469617465642e2043757272656e6c792060448201527137b71039ba30b3b29018101434b734ba149760711b6064820152608401610cc0565b60008160ff16116117925760405162461bcd60e51b815260206004820152602360248201527f4d696e7420616d6f756e74206d7573742062652067726561746572207468616e60448201526210181760e91b6064820152608401610cc0565b600c5460ff610100909104811690821611156118045760405162461bcd60e51b815260206004820152602b60248201527f45786365656473206d617820616c6c6f77656420616d6f756e7420706572207460448201526a3930b739b0b1ba34b7b71760a91b6064820152608401610cc0565b600c5460ff166001141561194057336000908152600e602052604090205460ff166118715760405162461bcd60e51b815260206004820152601e60248201527f4d696e746572206e6f7420617761726465642066726565206d696e74732e00006044820152606401610cc0565b336000908152600e6020908152604080832054600f9092529091205460ff9182169161189e911683613979565b60ff1611156119015760405162461bcd60e51b815260206004820152602960248201527f5472616e73616374696f6e20657863656564732072656d61696e696e6720667260448201526832b29036b4b73a399760b91b6064820152608401610cc0565b336000908152600f60205260408120805483929061192390849060ff16613979565b92506101000a81548160ff021916908360ff160217905550611d02565b600c5460ff1660021415611b2a5760125461195e9060ff8316612bd4565b3410156119a65760405162461bcd60e51b81526020600482015260166024820152752737ba1032b737bab3b41032ba3432b91039b2b73a1760511b6044820152606401610cc0565b3360009081526010602052604090205460ff16611a055760405162461bcd60e51b815260206004820152601960248201527f41646472657373206e6f74206f6e2077686974656c6973742e000000000000006044820152606401610cc0565b6011548160ff16611a14610e9c565b611a1e919061399e565b1115611a7a5760405162461bcd60e51b815260206004820152602560248201527f5472616e73616374696f6e20657863656564732077686974656c6973742073756044820152643838363c9760d91b6064820152608401610cc0565b6013543360009081526014602052604090205460ff91821691611a9e911683613979565b60ff161115611b085760405162461bcd60e51b815260206004820152603060248201527f5472616e73616374696f6e2065786365656473206d617820616c6c6f7765642060448201526f3bb434ba32b634b9ba1036b4b73a399760811b6064820152608401610cc0565b336000908152601460205260408120805483929061192390849060ff16613979565b600c5460ff1660031415611c36576006546001600160a01b03610100909104163314611ba25760405162461bcd60e51b815260206004820152602160248201527f4f6e6c79204f776e65722063616e206d696e74206174207468697320737461676044820152606560f81b6064820152608401610cc0565b601554601654611bb59060ff841661399e565b1115611c165760405162461bcd60e51b815260206004820152602a60248201527f5472616e73616374696f6e206578636565647320746f74616c207465616d2d73604482015269616c6520737570706c7960b01b6064820152608401610cc0565b8060ff1660166000828254611c2b919061399e565b90915550611d029050565b601754611c469060ff8316612bd4565b341015611c8d5760405162461bcd60e51b8152602060048201526015602482015274139bdd08195b9bdd59da08195d1a195c881cd95b9d605a1b6044820152606401610cc0565b6018548160ff16611c9c610e9c565b611ca6919061399e565b1115611d025760405162461bcd60e51b815260206004820152602560248201527f5472616e73616374696f6e206578636565647320746f74616c2073616c6520736044820152647570706c7960d81b6064820152608401610cc0565b60015b8160ff168111610e9857611d2133611d1c60075490565b612d2d565b611d2f600780546001019055565b80611d3981613934565b915050611d05565b60006001600160a01b038216611dac5760405162461bcd60e51b815260206004820152602a60248201527f4552433732313a2062616c616e636520717565727920666f7220746865207a65604482015269726f206164647265737360b01b6064820152608401610cc0565b506001600160a01b031660009081526003602052604090205490565b6006546001600160a01b03610100909104163314611df85760405162461bcd60e51b8152600401610cc09061386b565b6113ce6000612d47565b6006546001600160a01b03610100909104163314611e325760405162461bcd60e51b8152600401610cc09061386b565b600c54600360ff90911610611e835760405162461bcd60e51b81526020600482015260176024820152762bb434ba32b634b9ba1034b99031b7b731b63ab232b21760491b6044820152606401610cc0565b601255565b6006546001600160a01b03610100909104163314611eb85760405162461bcd60e51b8152600401610cc09061386b565b601755565b6006546001600160a01b03610100909104163314611eed5760405162461bcd60e51b8152600401610cc09061386b565b600060098054611efc90613830565b905011611f4b5760405162461bcd60e51b815260206004820181905260248201527f50726f76656e616e636520686173682063616e6e6f7420626520656d7074792e6044820152606401610cc0565b600c546301000000900460ff1615611fb05760405162461bcd60e51b815260206004820152602260248201527f50726f76656e616e6365206861736820697320616c72656164792066726f7a65604482015261371760f11b6064820152608401610cc0565b600c805463ff00000019166301000000179055565b6006546001600160a01b03610100909104163314611ff55760405162461bcd60e51b8152600401610cc09061386b565b6113ce612da1565b606060018054610bc890613830565b610e98338383612df9565b6006546001600160a01b036101009091041633146120475760405162461bcd60e51b8152600401610cc09061386b565b600c54600260ff9091161061209e5760405162461bcd60e51b815260206004820152601c60248201527f57686974656c6973742073616c6520697320636f6e636c756465642e000000006044820152606401610cc0565b60005b8251811015610df6578181815181106120bc576120bc61391e565b6020026020010151600e60008584815181106120da576120da61391e565b60200260200101516001600160a01b03166001600160a01b0316815260200190815260200160002060006101000a81548160ff021916908360ff160217905550808061212590613934565b9150506120a1565b6006546001600160a01b0361010090910416331461215d5760405162461bcd60e51b8152600401610cc09061386b565b600c546301000000900460ff16151560011461218b5760405162461bcd60e51b8152600401610cc0906139b6565b600c54600260ff909116106121d95760405162461bcd60e51b81526020600482015260146024820152732830b9ba10333932b29036b4b73a1039b0b6329760611b6044820152606401610cc0565b600c5460ff6101009091048116908316111561224a5760405162461bcd60e51b815260206004820152602a60248201527f45786365656473206d617820616c6c6f77656420616d6f756e742070657220746044820152693930b739b0b1ba34b7b760b11b6064820152608401610cc0565b60008260ff16116122ab5760405162461bcd60e51b815260206004820152602560248201527f41697264726f7020616d6f756e74206d75737420626520677265617465722074604482015264068616e20360dc1b6064820152608401610cc0565b6011548260ff166122ba610e9c565b6122c4919061399e565b11156123245760405162461bcd60e51b815260206004820152602960248201527f4d696e7420616d6f756e742077696c6c206578636565642077686974656c69736044820152683a1039bab838363c9760b91b6064820152608401610cc0565b60015b8260ff168111610df65761233e82611d1c60075490565b61234c600780546001019055565b8061235681613934565b915050612327565b6123683383612932565b6123845760405162461bcd60e51b8152600401610cc0906138cd565b61239084848484612ec8565b50505050565b600b80546115c690613830565b600980546115c690613830565b6000818152600260205260409020546060906001600160a01b031661242f5760405162461bcd60e51b815260206004820152602f60248201527f4552433732314d657461646174613a2055524920717565727920666f72206e6f60448201526e3732bc34b9ba32b73a103a37b5b2b760891b6064820152608401610cc0565b600a61243a83612efb565b600b60405160200161244e93929190613aad565b6040516020818303038152906040529050919050565b6006546001600160a01b036101009091041633146124945760405162461bcd60e51b8152600401610cc09061386b565b600c546301000000900460ff1615156001146124c25760405162461bcd60e51b8152600401610cc0906139b6565b600c5460ff1661250c5760405162461bcd60e51b8152602060048201526015602482015274139bc81cdd1859d95cc81899599bdc99481a5b9a5d605a1b6044820152606401610cc0565b600c805460ff1690600061251f83613ae0565b91906101000a81548160ff021916908360ff16021790555050565b600080612545610e9c565b1161258b5760405162461bcd60e51b815260206004820152601660248201527527379031b93cb83a34b21032bc34b9ba39903cb2ba1760511b6044820152606401610cc0565b610eb3610e9c565b6006546001600160a01b036101009091041633146125c35760405162461bcd60e51b8152600401610cc09061386b565b8051610e9890600b90602084019061329b565b60006125e0610e9c565b601854610eb391906138b6565b6006546001600160a01b0361010090910416331461261d5760405162461bcd60e51b8152600401610cc09061386b565b600c8054640100000000600160c01b0319166401000000006001600160a01b0394851602179055600d80546001600160a01b03191691909216179055565b6006546001600160a01b0361010090910416331461268b5760405162461bcd60e51b8152600401610cc09061386b565b6000600a805461269a90613830565b9050116126e95760405162461bcd60e51b815260206004820152601760248201527f626173655552492063616e6e6f7420626520656d7074790000000000000000006044820152606401610cc0565b600c5462010000900460ff16156127425760405162461bcd60e51b815260206004820152601a60248201527f4261736555524920697320616c72656164792066726f7a656e2e0000000000006044820152606401610cc0565b600c805462ff0000191662010000179055565b6006546001600160a01b036101009091041633146127855760405162461bcd60e51b8152600401610cc09061386b565b600c546301000000900460ff1615156001146127b35760405162461bcd60e51b8152600401610cc0906139b6565b600c54600460ff9091161061280a5760405162461bcd60e51b815260206004820152601b60248201527f4e6f20737461676573206166746572207075626c69632073616c6500000000006044820152606401610cc0565b600c805460ff1690600061251f83613afd565b6006546001600160a01b0361010090910416331461284d5760405162461bcd60e51b8152600401610cc09061386b565b6001600160a01b0381166128b25760405162461bcd60e51b815260206004820152602660248201527f4f776e61626c653a206e6577206f776e657220697320746865207a65726f206160448201526564647265737360d01b6064820152608401610cc0565b61146281612d47565b80546001019055565b600081815260046020526040902080546001600160a01b0319166001600160a01b03841690811790915581906128f982611542565b6001600160a01b03167f8c5be1e5ebec7d5bd14f71427d1e84f3dd0314c0f7b2291e5b200ac8c7c3b92560405160405180910390a45050565b6000818152600260205260408120546001600160a01b03166129ab5760405162461bcd60e51b815260206004820152602c60248201527f4552433732313a206f70657261746f7220717565727920666f72206e6f6e657860448201526b34b9ba32b73a103a37b5b2b760a11b6064820152608401610cc0565b60006129b683611542565b9050806001600160a01b0316846001600160a01b031614806129f15750836001600160a01b03166129e684610c4b565b6001600160a01b0316145b80612a2157506001600160a01b0380821660009081526005602090815260408083209388168352929052205460ff165b949350505050565b826001600160a01b0316612a3c82611542565b6001600160a01b031614612aa45760405162461bcd60e51b815260206004820152602960248201527f4552433732313a207472616e73666572206f6620746f6b656e2074686174206960448201526839903737ba1037bbb760b91b6064820152608401610cc0565b6001600160a01b038216612b065760405162461bcd60e51b8152602060048201526024808201527f4552433732313a207472616e7366657220746f20746865207a65726f206164646044820152637265737360e01b6064820152608401610cc0565b612b11838383612ff9565b612b1c6000826128c4565b6001600160a01b0383166000908152600360205260408120805460019290612b459084906138b6565b90915550506001600160a01b0382166000908152600360205260408120805460019290612b7390849061399e565b909155505060008181526002602052604080822080546001600160a01b0319166001600160a01b0386811691821790925591518493918716917fddf252ad1be2c89b69c2b068fc378daa952ba7f163c4a11628f55a4df523b3ef91a4505050565b6000612be08284613b1d565b9392505050565b6000612be08284613b52565b60065460ff16612c3c5760405162461bcd60e51b815260206004820152601460248201527314185d5cd8589b194e881b9bdd081c185d5cd95960621b6044820152606401610cc0565b6006805460ff191690557f5db9ee0a495bf2e6ff9c91a7834c1ba4fdd244a5e8aa4e537bd38aeae4b073aa335b6040516001600160a01b03909116815260200160405180910390a1565b6000612c9182611542565b9050612c9f81600084612ff9565b612caa6000836128c4565b6001600160a01b0381166000908152600360205260408120805460019290612cd39084906138b6565b909155505060008281526002602052604080822080546001600160a01b0319169055518391906001600160a01b038416907fddf252ad1be2c89b69c2b068fc378daa952ba7f163c4a11628f55a4df523b3ef908390a45050565b610e9882826040518060200160405280600081525061301c565b600680546001600160a01b03838116610100818102610100600160a81b031985161790945560405193909204169182907f8be0079c531659141344cd1fd0a4f28419497f9722a3daafe3b4186f6b6457e090600090a35050565b60065460ff1615612dc45760405162461bcd60e51b8152600401610cc09061394f565b6006805460ff191660011790557f62e78cea01bee320cd4e420270b5ea74000d11b0c9f74754ebdbfc544b05a258612c693390565b816001600160a01b0316836001600160a01b03161415612e5b5760405162461bcd60e51b815260206004820152601960248201527f4552433732313a20617070726f766520746f2063616c6c6572000000000000006044820152606401610cc0565b6001600160a01b03838116600081815260056020908152604080832094871680845294825291829020805460ff191686151590811790915591519182527f17307eab39ab6107e8899845ad3d59bd9653f200f220920489ca2b5937696c31910160405180910390a3505050565b612ed3848484612a29565b612edf8484848461304f565b6123905760405162461bcd60e51b8152600401610cc090613b66565b606081612f1f5750506040805180820190915260018152600360fc1b602082015290565b8160005b8115612f495780612f3381613934565b9150612f429050600a83613b52565b9150612f23565b60008167ffffffffffffffff811115612f6457612f64613431565b6040519080825280601f01601f191660200182016040528015612f8e576020820181803683370190505b5090505b8415612a2157612fa36001836138b6565b9150612fb0600a86613bb8565b612fbb90603061399e565b60f81b818381518110612fd057612fd061391e565b60200101906001600160f81b031916908160001a905350612ff2600a86613b52565b9450612f92565b60065460ff1615610df65760405162461bcd60e51b8152600401610cc09061394f565b613026838361314d565b613033600084848461304f565b610df65760405162461bcd60e51b8152600401610cc090613b66565b60006001600160a01b0384163b1561314257604051630a85bd0160e11b81526001600160a01b0385169063150b7a0290613093903390899088908890600401613bcc565b6020604051808303816000875af19250505080156130ce575060408051601f3d908101601f191682019092526130cb91810190613c09565b60015b613128573d8080156130fc576040519150601f19603f3d011682016040523d82523d6000602084013e613101565b606091505b5080516131205760405162461bcd60e51b8152600401610cc090613b66565b805181602001fd5b6001600160e01b031916630a85bd0160e11b149050612a21565b506001949350505050565b6001600160a01b0382166131a35760405162461bcd60e51b815260206004820181905260248201527f4552433732313a206d696e7420746f20746865207a65726f20616464726573736044820152606401610cc0565b6000818152600260205260409020546001600160a01b0316156132085760405162461bcd60e51b815260206004820152601c60248201527f4552433732313a20746f6b656e20616c7265616479206d696e746564000000006044820152606401610cc0565b61321460008383612ff9565b6001600160a01b038216600090815260036020526040812080546001929061323d90849061399e565b909155505060008181526002602052604080822080546001600160a01b0319166001600160a01b03861690811790915590518392907fddf252ad1be2c89b69c2b068fc378daa952ba7f163c4a11628f55a4df523b3ef908290a45050565b8280546132a790613830565b90600052602060002090601f0160209004810192826132c9576000855561330f565b82601f106132e257805160ff191683800117855561330f565b8280016001018555821561330f579182015b8281111561330f5782518255916020019190600101906132f4565b5061331b92915061331f565b5090565b5b8082111561331b5760008155600101613320565b6001600160e01b03198116811461146257600080fd5b60006020828403121561335c57600080fd5b8135612be081613334565b60005b8381101561338257818101518382015260200161336a565b838111156123905750506000910152565b600081518084526133ab816020860160208601613367565b601f01601f19169290920160200192915050565b602081526000612be06020830184613393565b6000602082840312156133e457600080fd5b5035919050565b80356001600160a01b038116811461340257600080fd5b919050565b6000806040838503121561341a57600080fd5b613423836133eb565b946020939093013593505050565b634e487b7160e01b600052604160045260246000fd5b604051601f8201601f1916810167ffffffffffffffff8111828210171561347057613470613431565b604052919050565b600067ffffffffffffffff83111561349257613492613431565b6134a5601f8401601f1916602001613447565b90508281528383830111156134b957600080fd5b828260208301376000602084830101529392505050565b6000602082840312156134e257600080fd5b813567ffffffffffffffff8111156134f957600080fd5b8201601f8101841361350a57600080fd5b612a2184823560208401613478565b60008060006060848603121561352e57600080fd5b613537846133eb565b9250613545602085016133eb565b9150604084013590509250925092565b600067ffffffffffffffff82111561356f5761356f613431565b5060051b60200190565b600082601f83011261358a57600080fd5b8135602061359f61359a83613555565b613447565b82815260059290921b840181019181810190868411156135be57600080fd5b8286015b848110156135e0576135d3816133eb565b83529183019183016135c2565b509695505050505050565b6000602082840312156135fd57600080fd5b813567ffffffffffffffff81111561361457600080fd5b612a2184828501613579565b60006020828403121561363257600080fd5b612be0826133eb565b803560ff8116811461340257600080fd5b60006020828403121561365e57600080fd5b612be08261363b565b6000806040838503121561367a57600080fd5b613683836133eb565b91506020830135801515811461369857600080fd5b809150509250929050565b600080604083850312156136b657600080fd5b823567ffffffffffffffff808211156136ce57600080fd5b6136da86838701613579565b93506020915081850135818111156136f157600080fd5b85019050601f8101861361370457600080fd5b803561371261359a82613555565b81815260059190911b8201830190838101908883111561373157600080fd5b928401925b82841015613756576137478461363b565b82529284019290840190613736565b80955050505050509250929050565b6000806040838503121561377857600080fd5b6137818361363b565b915061378f602084016133eb565b90509250929050565b600080600080608085870312156137ae57600080fd5b6137b7856133eb565b93506137c5602086016133eb565b925060408501359150606085013567ffffffffffffffff8111156137e857600080fd5b8501601f810187136137f957600080fd5b61380887823560208401613478565b91505092959194509250565b6000806040838503121561382757600080fd5b613781836133eb565b600181811c9082168061384457607f821691505b6020821081141561386557634e487b7160e01b600052602260045260246000fd5b50919050565b6020808252818101527f4f776e61626c653a2063616c6c6572206973206e6f7420746865206f776e6572604082015260600190565b634e487b7160e01b600052601160045260246000fd5b6000828210156138c8576138c86138a0565b500390565b60208082526031908201527f4552433732313a207472616e736665722063616c6c6572206973206e6f74206f6040820152701ddb995c881b9bdc88185c1c1c9bdd9959607a1b606082015260800190565b634e487b7160e01b600052603260045260246000fd5b6000600019821415613948576139486138a0565b5060010190565b60208082526010908201526f14185d5cd8589b194e881c185d5cd95960821b604082015260600190565b600060ff821660ff84168060ff03821115613996576139966138a0565b019392505050565b600082198211156139b1576139b16138a0565b500190565b60208082526038908201527f50726f76656e616e63652068617368206d7573742062652066726f7a656e206260408201527f65666f7265206d696e74696e672063616e2073746172742e0000000000000000606082015260800190565b8054600090600181811c9080831680613a2d57607f831692505b6020808410821415613a4f57634e487b7160e01b600052602260045260246000fd5b818015613a635760018114613a7457613aa1565b60ff19861689528489019650613aa1565b60008881526020902060005b86811015613a995781548b820152908501908301613a80565b505084890196505b50505050505092915050565b6000613ab98286613a13565b8451613ac9818360208901613367565b613ad581830186613a13565b979650505050505050565b600060ff821680613af357613af36138a0565b6000190192915050565b600060ff821660ff811415613b1457613b146138a0565b60010192915050565b6000816000190483118215151615613b3757613b376138a0565b500290565b634e487b7160e01b600052601260045260246000fd5b600082613b6157613b61613b3c565b500490565b60208082526032908201527f4552433732313a207472616e7366657220746f206e6f6e20455243373231526560408201527131b2b4bb32b91034b6b83632b6b2b73a32b960711b606082015260800190565b600082613bc757613bc7613b3c565b500690565b6001600160a01b0385811682528416602082015260408101839052608060608201819052600090613bff90830184613393565b9695505050505050565b600060208284031215613c1b57600080fd5b8151612be08161333456fea2646970667358221220702615b099562ddab1f9b5c0942f4521c605e7b4b59755b3a1f4cb7d75a749d164736f6c634300080a0033",
  "bytecodeSha1": "40e5a3fce09f950a9cb7f63a2ec0b9f7914471b8",
  "compiler": {
    "evm_version": "istanbul",
    "optimizer": {
      "enabled": true,
      "runs": 200
    },
    "version": "0.8.10+commit.fc410830"
  },
  "contractName": "CryptidToken",
  "language": "Solidity",
  "natspec": {
    "kind": "dev",
    "methods": {
      "approve(address,uint256)": {
        "details": "See {IERC721-approve}."
      },
      "balanceOf(address)": {
        "details": "See {IERC721-balanceOf}."
      },
      "burn(uint256)": {
        "details": "Burns `tokenId`. See {ERC721-_burn}. Requirements: - The caller must own `tokenId` or be an approved operator."
      },
      "getApproved(uint256)": {
        "details": "See {IERC721-getApproved}."
      },
      "isApprovedForAll(address,address)": {
        "details": "See {IERC721-isApprovedForAll}."
      },
      "name()": {
        "details": "See {IERC721Metadata-name}."
      },
      "owner()": {
        "details": "Returns the address of the current owner."
      },
      "ownerOf(uint256)": {
        "details": "See {IERC721-ownerOf}."
      },
      "paused()": {
        "details": "Returns true if the contract is paused, and false otherwise."
      },
      "renounceOwnership()": {
        "details": "Leaves the contract without owner. It will not be possible to call `onlyOwner` functions anymore. Can only be called by the current owner. NOTE: Renouncing ownership will leave the contract without an owner, thereby removing any functionality that is only available to the owner."
      },
      "safeTransferFrom(address,address,uint256)": {
        "details": "See {IERC721-safeTransferFrom}."
      },
      "safeTransferFrom(address,address,uint256,bytes)": {
        "details": "See {IERC721-safeTransferFrom}."
      },
      "setApprovalForAll(address,bool)": {
        "details": "See {IERC721-setApprovalForAll}."
      },
      "supportsInterface(bytes4)": {
        "details": "See {IERC165-supportsInterface}."
      },
      "symbol()": {
        "details": "See {IERC721Metadata-symbol}."
      },
      "tokenURI(uint256)": {
        "details": "See {IERC721Metadata-tokenURI}."
      },
      "transferFrom(address,address,uint256)": {
        "details": "See {IERC721-transferFrom}."
      },
      "transferOwnership(address)": {
        "details": "Transfers ownership of the contract to a new account (`newOwner`). Can only be called by the current owner."
      }
    },
    "version": 1
  },
  "opcodes": "PUSH1 0x80 PUSH1 0x40 MSTORE PUSH1 0x4 CALLDATASIZE LT PUSH2 0x3C3 JUMPI PUSH1 0x0 CALLDATALOAD PUSH1 0xE0 SHR DUP1 PUSH4 0x78231978 GT PUSH2 0x1F2 JUMPI DUP1 PUSH4 0xC6682862 GT PUSH2 0x10D JUMPI DUP1 PUSH4 0xE59A2F99 GT PUSH2 0xA0 JUMPI DUP1 PUSH4 0xF2FDE38B GT PUSH2 0x6F JUMPI DUP1 PUSH4 0xF2FDE38B EQ PUSH2 0xB03 JUMPI DUP1 PUSH4 0xF51F96DD EQ PUSH2 0xB23 JUMPI DUP1 PUSH4 0xFC1A1C36 EQ PUSH2 0xB39 JUMPI DUP1 PUSH4 0xFCAA7664 EQ PUSH2 0xB4F JUMPI PUSH1 0x0 DUP1 REVERT JUMPDEST DUP1 PUSH4 0xE59A2F99 EQ PUSH2 0xA70 JUMPI DUP1 PUSH4 0xE7BC8208 EQ PUSH2 0xA90 JUMPI DUP1 PUSH4 0xE985E9C5 EQ PUSH2 0xAA5 JUMPI DUP1 PUSH4 0xEE3743AB EQ PUSH2 0xAEE JUMPI PUSH1 0x0 DUP1 REVERT JUMPDEST DUP1 PUSH4 0xD6D67A09 GT PUSH2 0xDC JUMPI DUP1 PUSH4 0xD6D67A09 EQ PUSH2 0xA07 JUMPI DUP1 PUSH4 0xDA3EF23F EQ PUSH2 0xA1C JUMPI DUP1 PUSH4 0xDE5F9866 EQ PUSH2 0xA3C JUMPI DUP1 PUSH4 0xDE7FCB1D EQ PUSH2 0xA51 JUMPI PUSH1 0x0 DUP1 REVERT JUMPDEST DUP1 PUSH4 0xC6682862 EQ PUSH2 0x9A8 JUMPI DUP1 PUSH4 0xC6AB67A3 EQ PUSH2 0x9BD JUMPI DUP1 PUSH4 0xC87B56DD EQ PUSH2 0x9D2 JUMPI DUP1 PUSH4 0xCBD0A2B5 EQ PUSH2 0x9F2 JUMPI PUSH1 0x0 DUP1 REVERT JUMPDEST DUP1 PUSH4 0xA62248A9 GT PUSH2 0x185 JUMPI DUP1 PUSH4 0xB7353DE6 GT PUSH2 0x154 JUMPI DUP1 PUSH4 0xB7353DE6 EQ PUSH2 0x922 JUMPI DUP1 PUSH4 0xB88D4FDE EQ PUSH2 0x952 JUMPI DUP1 PUSH4 0xC29DE630 EQ PUSH2 0x972 JUMPI DUP1 PUSH4 0xC3214581 EQ PUSH2 0x992 JUMPI PUSH1 0x0 DUP1 REVERT JUMPDEST DUP1 PUSH4 0xA62248A9 EQ PUSH2 0x8A8 JUMPI DUP1 PUSH4 0xA84FFCFC EQ PUSH2 0x8C2 JUMPI DUP1 PUSH4 0xB1214392 EQ PUSH2 0x8E2 JUMPI DUP1 PUSH4 0xB3CAAD01 EQ PUSH2 0x902 JUMPI PUSH1 0x0 DUP1 REVERT JUMPDEST DUP1 PUSH4 0x8DA5CB5B GT PUSH2 0x1C1 JUMPI DUP1 PUSH4 0x8DA5CB5B EQ PUSH2 0x82F JUMPI DUP1 PUSH4 0x95D89B41 EQ PUSH2 0x852 JUMPI DUP1 PUSH4 0x9A2A9C3D EQ PUSH2 0x867 JUMPI DUP1 PUSH4 0xA22CB465 EQ PUSH2 0x888 JUMPI PUSH1 0x0 DUP1 REVERT JUMPDEST DUP1 PUSH4 0x78231978 EQ PUSH2 0x7CF JUMPI DUP1 PUSH4 0x791A2519 EQ PUSH2 0x7E5 JUMPI DUP1 PUSH4 0x81C162F2 EQ PUSH2 0x805 JUMPI DUP1 PUSH4 0x8456CB59 EQ PUSH2 0x81A JUMPI PUSH1 0x0 DUP1 REVERT JUMPDEST DUP1 PUSH4 0x3F4BA83A GT PUSH2 0x2E2 JUMPI DUP1 PUSH4 0x6352211E GT PUSH2 0x275 JUMPI DUP1 PUSH4 0x6ECD2306 GT PUSH2 0x244 JUMPI DUP1 PUSH4 0x6ECD2306 EQ PUSH2 0x767 JUMPI DUP1 PUSH4 0x70A08231 EQ PUSH2 0x77A JUMPI DUP1 PUSH4 0x715018A6 EQ PUSH2 0x79A JUMPI DUP1 PUSH4 0x717D57D3 EQ PUSH2 0x7AF JUMPI PUSH1 0x0 DUP1 REVERT JUMPDEST DUP1 PUSH4 0x6352211E EQ PUSH2 0x6ED JUMPI DUP1 PUSH4 0x6C0360EB EQ PUSH2 0x70D JUMPI DUP1 PUSH4 0x6CBB8985 EQ PUSH2 0x722 JUMPI DUP1 PUSH4 0x6EC55DBC EQ PUSH2 0x737 JUMPI PUSH1 0x0 DUP1 REVERT JUMPDEST DUP1 PUSH4 0x5C975ABB GT PUSH2 0x2B1 JUMPI DUP1 PUSH4 0x5C975ABB EQ PUSH2 0x65D JUMPI DUP1 PUSH4 0x5ECF8A80 EQ PUSH2 0x675 JUMPI DUP1 PUSH4 0x61869A93 EQ PUSH2 0x6A5 JUMPI DUP1 PUSH4 0x622E4E78 EQ PUSH2 0x6CD JUMPI PUSH1 0x0 DUP1 REVERT JUMPDEST DUP1 PUSH4 0x3F4BA83A EQ PUSH2 0x5E8 JUMPI DUP1 PUSH4 0x42842E0E EQ PUSH2 0x5FD JUMPI DUP1 PUSH4 0x42966C68 EQ PUSH2 0x61D JUMPI DUP1 PUSH4 0x55F804B3 EQ PUSH2 0x63D JUMPI PUSH1 0x0 DUP1 REVERT JUMPDEST DUP1 PUSH4 0x23B872DD GT PUSH2 0x35A JUMPI DUP1 PUSH4 0x30CC7AE0 GT PUSH2 0x329 JUMPI DUP1 PUSH4 0x30CC7AE0 EQ PUSH2 0x568 JUMPI DUP1 PUSH4 0x33E61413 EQ PUSH2 0x588 JUMPI DUP1 PUSH4 0x3BDF4AC6 EQ PUSH2 0x59E JUMPI DUP1 PUSH4 0x3CCFD60B EQ PUSH2 0x5E0 JUMPI PUSH1 0x0 DUP1 REVERT JUMPDEST DUP1 PUSH4 0x23B872DD EQ PUSH2 0x4F2 JUMPI DUP1 PUSH4 0x2BEAB4B7 EQ PUSH2 0x512 JUMPI DUP1 PUSH4 0x2EB4A7AB EQ PUSH2 0x532 JUMPI DUP1 PUSH4 0x30BA7BF9 EQ PUSH2 0x548 JUMPI PUSH1 0x0 DUP1 REVERT JUMPDEST DUP1 PUSH4 0x95EA7B3 GT PUSH2 0x396 JUMPI DUP1 PUSH4 0x95EA7B3 EQ PUSH2 0x47B JUMPI DUP1 PUSH4 0x10969523 EQ PUSH2 0x49D JUMPI DUP1 PUSH4 0x18160DDD EQ PUSH2 0x4BD JUMPI DUP1 PUSH4 0x20841A6A EQ PUSH2 0x4D2 JUMPI PUSH1 0x0 DUP1 REVERT JUMPDEST DUP1 PUSH4 0x1FFC9A7 EQ PUSH2 0x3C8 JUMPI DUP1 PUSH4 0x6FDDE03 EQ PUSH2 0x3FD JUMPI DUP1 PUSH4 0x81812FC EQ PUSH2 0x41F JUMPI DUP1 PUSH4 0x88139A6 EQ PUSH2 0x457 JUMPI JUMPDEST PUSH1 0x0 DUP1 REVERT JUMPDEST CALLVALUE DUP1 ISZERO PUSH2 0x3D4 JUMPI PUSH1 0x0 DUP1 REVERT JUMPDEST POP PUSH2 0x3E8 PUSH2 0x3E3 CALLDATASIZE PUSH1 0x4 PUSH2 0x334A JUMP JUMPDEST PUSH2 0xB67 JUMP JUMPDEST PUSH1 0x40 MLOAD SWAP1 ISZERO ISZERO DUP2 MSTORE PUSH1 0x20 ADD JUMPDEST PUSH1 0x40 MLOAD DUP1 SWAP2 SUB SWAP1 RETURN JUMPDEST CALLVALUE DUP1 ISZERO PUSH2 0x409 JUMPI PUSH1 0x0 DUP1 REVERT JUMPDEST POP PUSH2 0x412 PUSH2 0xBB9 JUMP JUMPDEST PUSH1 0x40 MLOAD PUSH2 0x3F4 SWAP2 SWAP1 PUSH2 0x33BF JUMP JUMPDEST CALLVALUE DUP1 ISZERO PUSH2 0x42B JUMPI PUSH1 0x0 DUP1 REVERT JUMPDEST POP PUSH2 0x43F PUSH2 0x43A CALLDATASIZE PUSH1 0x4 PUSH2 0x33D2 JUMP JUMPDEST PUSH2 0xC4B JUMP JUMPDEST PUSH1 0x40 MLOAD PUSH1 0x1 PUSH1 0x1 PUSH1 0xA0 SHL SUB SWAP1 SWAP2 AND DUP2 MSTORE PUSH1 0x20 ADD PUSH2 0x3F4 JUMP JUMPDEST CALLVALUE DUP1 ISZERO PUSH2 0x463 JUMPI PUSH1 0x0 DUP1 REVERT JUMPDEST POP PUSH2 0x46D PUSH1 0x16 SLOAD DUP2 JUMP JUMPDEST PUSH1 0x40 MLOAD SWAP1 DUP2 MSTORE PUSH1 0x20 ADD PUSH2 0x3F4 JUMP JUMPDEST CALLVALUE DUP1 ISZERO PUSH2 0x487 JUMPI PUSH1 0x0 DUP1 REVERT JUMPDEST POP PUSH2 0x49B PUSH2 0x496 CALLDATASIZE PUSH1 0x4 PUSH2 0x3407 JUMP JUMPDEST PUSH2 0xCE5 JUMP JUMPDEST STOP JUMPDEST CALLVALUE DUP1 ISZERO PUSH2 0x4A9 JUMPI PUSH1 0x0 DUP1 REVERT JUMPDEST POP PUSH2 0x49B PUSH2 0x4B8 CALLDATASIZE PUSH1 0x4 PUSH2 0x34D0 JUMP JUMPDEST PUSH2 0xDFB JUMP JUMPDEST CALLVALUE DUP1 ISZERO PUSH2 0x4C9 JUMPI PUSH1 0x0 DUP1 REVERT JUMPDEST POP PUSH2 0x46D PUSH2 0xE9C JUMP JUMPDEST CALLVALUE DUP1 ISZERO PUSH2 0x4DE JUMPI PUSH1 0x0 DUP1 REVERT JUMPDEST POP PUSH2 0x49B PUSH2 0x4ED CALLDATASIZE PUSH1 0x4 PUSH2 0x33D2 JUMP JUMPDEST PUSH2 0xEB8 JUMP JUMPDEST CALLVALUE DUP1 ISZERO PUSH2 0x4FE JUMPI PUSH1 0x0 DUP1 REVERT JUMPDEST POP PUSH2 0x49B PUSH2 0x50D CALLDATASIZE PUSH1 0x4 PUSH2 0x3519 JUMP JUMPDEST PUSH2 0xEED JUMP JUMPDEST CALLVALUE DUP1 ISZERO PUSH2 0x51E JUMPI PUSH1 0x0 DUP1 REVERT JUMPDEST POP PUSH2 0x49B PUSH2 0x52D CALLDATASIZE PUSH1 0x4 PUSH2 0x35EB JUMP JUMPDEST PUSH2 0xF1F JUMP JUMPDEST CALLVALUE DUP1 ISZERO PUSH2 0x53E JUMPI PUSH1 0x0 DUP1 REVERT JUMPDEST POP PUSH2 0x46D PUSH1 0x8 SLOAD DUP2 JUMP JUMPDEST CALLVALUE DUP1 ISZERO PUSH2 0x554 JUMPI PUSH1 0x0 DUP1 REVERT JUMPDEST POP PUSH2 0x49B PUSH2 0x563 CALLDATASIZE PUSH1 0x4 PUSH2 0x3620 JUMP JUMPDEST PUSH2 0x1008 JUMP JUMPDEST CALLVALUE DUP1 ISZERO PUSH2 0x574 JUMPI PUSH1 0x0 DUP1 REVERT JUMPDEST POP PUSH2 0x49B PUSH2 0x583 CALLDATASIZE PUSH1 0x4 PUSH2 0x3620 JUMP JUMPDEST PUSH2 0x1118 JUMP JUMPDEST CALLVALUE DUP1 ISZERO PUSH2 0x594 JUMPI PUSH1 0x0 DUP1 REVERT JUMPDEST POP PUSH2 0x46D PUSH1 0x11 SLOAD DUP2 JUMP JUMPDEST CALLVALUE DUP1 ISZERO PUSH2 0x5AA JUMPI PUSH1 0x0 DUP1 REVERT JUMPDEST POP PUSH2 0x5CE PUSH2 0x5B9 CALLDATASIZE PUSH1 0x4 PUSH2 0x3620 JUMP JUMPDEST PUSH1 0x14 PUSH1 0x20 MSTORE PUSH1 0x0 SWAP1 DUP2 MSTORE PUSH1 0x40 SWAP1 KECCAK256 SLOAD PUSH1 0xFF AND DUP2 JUMP JUMPDEST PUSH1 0x40 MLOAD PUSH1 0xFF SWAP1 SWAP2 AND DUP2 MSTORE PUSH1 0x20 ADD PUSH2 0x3F4 JUMP JUMPDEST PUSH2 0x49B PUSH2 0x11D1 JUMP JUMPDEST CALLVALUE DUP1 ISZERO PUSH2 0x5F4 JUMPI PUSH1 0x0 DUP1 REVERT JUMPDEST POP PUSH2 0x49B PUSH2 0x1396 JUMP JUMPDEST CALLVALUE DUP1 ISZERO PUSH2 0x609 JUMPI PUSH1 0x0 DUP1 REVERT JUMPDEST POP PUSH2 0x49B PUSH2 0x618 CALLDATASIZE PUSH1 0x4 PUSH2 0x3519 JUMP JUMPDEST PUSH2 0x13D0 JUMP JUMPDEST CALLVALUE DUP1 ISZERO PUSH2 0x629 JUMPI PUSH1 0x0 DUP1 REVERT JUMPDEST POP PUSH2 0x49B PUSH2 0x638 CALLDATASIZE PUSH1 0x4 PUSH2 0x33D2 JUMP JUMPDEST PUSH2 0x13EB JUMP JUMPDEST CALLVALUE DUP1 ISZERO PUSH2 0x649 JUMPI PUSH1 0x0 DUP1 REVERT JUMPDEST POP PUSH2 0x49B PUSH2 0x658 CALLDATASIZE PUSH1 0x4 PUSH2 0x34D0 JUMP JUMPDEST PUSH2 0x1465 JUMP JUMPDEST CALLVALUE DUP1 ISZERO PUSH2 0x669 JUMPI PUSH1 0x0 DUP1 REVERT JUMPDEST POP PUSH1 0x6 SLOAD PUSH1 0xFF AND PUSH2 0x3E8 JUMP JUMPDEST CALLVALUE DUP1 ISZERO PUSH2 0x681 JUMPI PUSH1 0x0 DUP1 REVERT JUMPDEST POP PUSH2 0x5CE PUSH2 0x690 CALLDATASIZE PUSH1 0x4 PUSH2 0x3620 JUMP JUMPDEST PUSH1 0xF PUSH1 0x20 MSTORE PUSH1 0x0 SWAP1 DUP2 MSTORE PUSH1 0x40 SWAP1 KECCAK256 SLOAD PUSH1 0xFF AND DUP2 JUMP JUMPDEST CALLVALUE DUP1 ISZERO PUSH2 0x6B1 JUMPI PUSH1 0x0 DUP1 REVERT JUMPDEST POP PUSH1 0xC SLOAD PUSH2 0x43F SWAP1 PUSH5 0x100000000 SWAP1 DIV PUSH1 0x1 PUSH1 0x1 PUSH1 0xA0 SHL SUB AND DUP2 JUMP JUMPDEST CALLVALUE DUP1 ISZERO PUSH2 0x6D9 JUMPI PUSH1 0x0 DUP1 REVERT JUMPDEST POP PUSH2 0x49B PUSH2 0x6E8 CALLDATASIZE PUSH1 0x4 PUSH2 0x364C JUMP JUMPDEST PUSH2 0x14F6 JUMP JUMPDEST CALLVALUE DUP1 ISZERO PUSH2 0x6F9 JUMPI PUSH1 0x0 DUP1 REVERT JUMPDEST POP PUSH2 0x43F PUSH2 0x708 CALLDATASIZE PUSH1 0x4 PUSH2 0x33D2 JUMP JUMPDEST PUSH2 0x1542 JUMP JUMPDEST CALLVALUE DUP1 ISZERO PUSH2 0x719 JUMPI PUSH1 0x0 DUP1 REVERT JUMPDEST POP PUSH2 0x412 PUSH2 0x15B9 JUMP JUMPDEST CALLVALUE DUP1 ISZERO PUSH2 0x72E JUMPI PUSH1 0x0 DUP1 REVERT JUMPDEST POP PUSH2 0x43F PUSH2 0x1647 JUMP JUMPDEST CALLVALUE DUP1 ISZERO PUSH2 0x743 JUMPI PUSH1 0x0 DUP1 REVERT JUMPDEST POP PUSH2 0x3E8 PUSH2 0x752 CALLDATASIZE PUSH1 0x4 PUSH2 0x3620 JUMP JUMPDEST PUSH1 0x10 PUSH1 0x20 MSTORE PUSH1 0x0 SWAP1 DUP2 MSTORE PUSH1 0x40 SWAP1 KECCAK256 SLOAD PUSH1 0xFF AND DUP2 JUMP JUMPDEST PUSH2 0x49B PUSH2 0x775 CALLDATASIZE PUSH1 0x4 PUSH2 0x364C JUMP JUMPDEST PUSH2 0x16A3 JUMP JUMPDEST CALLVALUE DUP1 ISZERO PUSH2 0x786 JUMPI PUSH1 0x0 DUP1 REVERT JUMPDEST POP PUSH2 0x46D PUSH2 0x795 CALLDATASIZE PUSH1 0x4 PUSH2 0x3620 JUMP JUMPDEST PUSH2 0x1D41 JUMP JUMPDEST CALLVALUE DUP1 ISZERO PUSH2 0x7A6 JUMPI PUSH1 0x0 DUP1 REVERT JUMPDEST POP PUSH2 0x49B PUSH2 0x1DC8 JUMP JUMPDEST CALLVALUE DUP1 ISZERO PUSH2 0x7BB JUMPI PUSH1 0x0 DUP1 REVERT JUMPDEST POP PUSH2 0x49B PUSH2 0x7CA CALLDATASIZE PUSH1 0x4 PUSH2 0x33D2 JUMP JUMPDEST PUSH2 0x1E02 JUMP JUMPDEST CALLVALUE DUP1 ISZERO PUSH2 0x7DB JUMPI PUSH1 0x0 DUP1 REVERT JUMPDEST POP PUSH2 0x46D PUSH1 0x18 SLOAD DUP2 JUMP JUMPDEST CALLVALUE DUP1 ISZERO PUSH2 0x7F1 JUMPI PUSH1 0x0 DUP1 REVERT JUMPDEST POP PUSH2 0x49B PUSH2 0x800 CALLDATASIZE PUSH1 0x4 PUSH2 0x33D2 JUMP JUMPDEST PUSH2 0x1E88 JUMP JUMPDEST CALLVALUE DUP1 ISZERO PUSH2 0x811 JUMPI PUSH1 0x0 DUP1 REVERT JUMPDEST POP PUSH2 0x49B PUSH2 0x1EBD JUMP JUMPDEST CALLVALUE DUP1 ISZERO PUSH2 0x826 JUMPI PUSH1 0x0 DUP1 REVERT JUMPDEST POP PUSH2 0x49B PUSH2 0x1FC5 JUMP JUMPDEST CALLVALUE DUP1 ISZERO PUSH2 0x83B JUMPI PUSH1 0x0 DUP1 REVERT JUMPDEST POP PUSH1 0x6 SLOAD PUSH2 0x100 SWAP1 DIV PUSH1 0x1 PUSH1 0x1 PUSH1 0xA0 SHL SUB AND PUSH2 0x43F JUMP JUMPDEST CALLVALUE DUP1 ISZERO PUSH2 0x85E JUMPI PUSH1 0x0 DUP1 REVERT JUMPDEST POP PUSH2 0x412 PUSH2 0x1FFD JUMP JUMPDEST CALLVALUE DUP1 ISZERO PUSH2 0x873 JUMPI PUSH1 0x0 DUP1 REVERT JUMPDEST POP PUSH1 0xC SLOAD PUSH2 0x3E8 SWAP1 PUSH4 0x1000000 SWAP1 DIV PUSH1 0xFF AND DUP2 JUMP JUMPDEST CALLVALUE DUP1 ISZERO PUSH2 0x894 JUMPI PUSH1 0x0 DUP1 REVERT JUMPDEST POP PUSH2 0x49B PUSH2 0x8A3 CALLDATASIZE PUSH1 0x4 PUSH2 0x3667 JUMP JUMPDEST PUSH2 0x200C JUMP JUMPDEST CALLVALUE DUP1 ISZERO PUSH2 0x8B4 JUMPI PUSH1 0x0 DUP1 REVERT JUMPDEST POP PUSH1 0x13 SLOAD PUSH2 0x5CE SWAP1 PUSH1 0xFF AND DUP2 JUMP JUMPDEST CALLVALUE DUP1 ISZERO PUSH2 0x8CE JUMPI PUSH1 0x0 DUP1 REVERT JUMPDEST POP PUSH2 0x49B PUSH2 0x8DD CALLDATASIZE PUSH1 0x4 PUSH2 0x36A3 JUMP JUMPDEST PUSH2 0x2017 JUMP JUMPDEST CALLVALUE DUP1 ISZERO PUSH2 0x8EE JUMPI PUSH1 0x0 DUP1 REVERT JUMPDEST POP PUSH1 0xD SLOAD PUSH2 0x43F SWAP1 PUSH1 0x1 PUSH1 0x1 PUSH1 0xA0 SHL SUB AND DUP2 JUMP JUMPDEST CALLVALUE DUP1 ISZERO PUSH2 0x90E JUMPI PUSH1 0x0 DUP1 REVERT JUMPDEST POP PUSH2 0x49B PUSH2 0x91D CALLDATASIZE PUSH1 0x4 PUSH2 0x3765 JUMP JUMPDEST PUSH2 0x212D JUMP JUMPDEST CALLVALUE DUP1 ISZERO PUSH2 0x92E JUMPI PUSH1 0x0 DUP1 REVERT JUMPDEST POP PUSH2 0x5CE PUSH2 0x93D CALLDATASIZE PUSH1 0x4 PUSH2 0x3620 JUMP JUMPDEST PUSH1 0xE PUSH1 0x20 MSTORE PUSH1 0x0 SWAP1 DUP2 MSTORE PUSH1 0x40 SWAP1 KECCAK256 SLOAD PUSH1 0xFF AND DUP2 JUMP JUMPDEST CALLVALUE DUP1 ISZERO PUSH2 0x95E JUMPI PUSH1 0x0 DUP1 REVERT JUMPDEST POP PUSH2 0x49B PUSH2 0x96D CALLDATASIZE PUSH1 0x4 PUSH2 0x3798 JUMP JUMPDEST PUSH2 0x235E JUMP JUMPDEST CALLVALUE DUP1 ISZERO PUSH2 0x97E JUMPI PUSH1 0x0 DUP1 REVERT JUMPDEST POP PUSH1 0xC SLOAD PUSH2 0x3E8 SWAP1 PUSH3 0x10000 SWAP1 DIV PUSH1 0xFF AND DUP2 JUMP JUMPDEST CALLVALUE DUP1 ISZERO PUSH2 0x99E JUMPI PUSH1 0x0 DUP1 REVERT JUMPDEST POP PUSH2 0x46D PUSH1 0x15 SLOAD DUP2 JUMP JUMPDEST CALLVALUE DUP1 ISZERO PUSH2 0x9B4 JUMPI PUSH1 0x0 DUP1 REVERT JUMPDEST POP PUSH2 0x412 PUSH2 0x2396 JUMP JUMPDEST CALLVALUE DUP1 ISZERO PUSH2 0x9C9 JUMPI PUSH1 0x0 DUP1 REVERT JUMPDEST POP PUSH2 0x412 PUSH2 0x23A3 JUMP JUMPDEST CALLVALUE DUP1 ISZERO PUSH2 0x9DE JUMPI PUSH1 0x0 DUP1 REVERT JUMPDEST POP PUSH2 0x412 PUSH2 0x9ED CALLDATASIZE PUSH1 0x4 PUSH2 0x33D2 JUMP JUMPDEST PUSH2 0x23B0 JUMP JUMPDEST CALLVALUE DUP1 ISZERO PUSH2 0x9FE JUMPI PUSH1 0x0 DUP1 REVERT JUMPDEST POP PUSH2 0x49B PUSH2 0x2464 JUMP JUMPDEST CALLVALUE DUP1 ISZERO PUSH2 0xA13 JUMPI PUSH1 0x0 DUP1 REVERT JUMPDEST POP PUSH2 0x46D PUSH2 0x253A JUMP JUMPDEST CALLVALUE DUP1 ISZERO PUSH2 0xA28 JUMPI PUSH1 0x0 DUP1 REVERT JUMPDEST POP PUSH2 0x49B PUSH2 0xA37 CALLDATASIZE PUSH1 0x4 PUSH2 0x34D0 JUMP JUMPDEST PUSH2 0x2593 JUMP JUMPDEST CALLVALUE DUP1 ISZERO PUSH2 0xA48 JUMPI PUSH1 0x0 DUP1 REVERT JUMPDEST POP PUSH2 0x46D PUSH2 0x25D6 JUMP JUMPDEST CALLVALUE DUP1 ISZERO PUSH2 0xA5D JUMPI PUSH1 0x0 DUP1 REVERT JUMPDEST POP PUSH1 0xC SLOAD PUSH2 0x5CE SWAP1 PUSH2 0x100 SWAP1 DIV PUSH1 0xFF AND DUP2 JUMP JUMPDEST CALLVALUE DUP1 ISZERO PUSH2 0xA7C JUMPI PUSH1 0x0 DUP1 REVERT JUMPDEST POP PUSH2 0x49B PUSH2 0xA8B CALLDATASIZE PUSH1 0x4 PUSH2 0x3814 JUMP JUMPDEST PUSH2 0x25ED JUMP JUMPDEST CALLVALUE DUP1 ISZERO PUSH2 0xA9C JUMPI PUSH1 0x0 DUP1 REVERT JUMPDEST POP PUSH2 0x49B PUSH2 0x265B JUMP JUMPDEST CALLVALUE DUP1 ISZERO PUSH2 0xAB1 JUMPI PUSH1 0x0 DUP1 REVERT JUMPDEST POP PUSH2 0x3E8 PUSH2 0xAC0 CALLDATASIZE PUSH1 0x4 PUSH2 0x3814 JUMP JUMPDEST PUSH1 0x1 PUSH1 0x1 PUSH1 0xA0 SHL SUB SWAP2 DUP3 AND PUSH1 0x0 SWAP1 DUP2 MSTORE PUSH1 0x5 PUSH1 0x20 SWAP1 DUP2 MSTORE PUSH1 0x40 DUP1 DUP4 KECCAK256 SWAP4 SWAP1 SWAP5 AND DUP3 MSTORE SWAP2 SWAP1 SWAP2 MSTORE KECCAK256 SLOAD PUSH1 0xFF AND SWAP1 JUMP JUMPDEST CALLVALUE DUP1 ISZERO PUSH2 0xAFA JUMPI PUSH1 0x0 DUP1 REVERT JUMPDEST POP PUSH2 0x49B PUSH2 0x2755 JUMP JUMPDEST CALLVALUE DUP1 ISZERO PUSH2 0xB0F JUMPI PUSH1 0x0 DUP1 REVERT JUMPDEST POP PUSH2 0x49B PUSH2 0xB1E CALLDATASIZE PUSH1 0x4 PUSH2 0x3620 JUMP JUMPDEST PUSH2 0x281D JUMP JUMPDEST CALLVALUE DUP1 ISZERO PUSH2 0xB2F JUMPI PUSH1 0x0 DUP1 REVERT JUMPDEST POP PUSH2 0x46D PUSH1 0x17 SLOAD DUP2 JUMP JUMPDEST CALLVALUE DUP1 ISZERO PUSH2 0xB45 JUMPI PUSH1 0x0 DUP1 REVERT JUMPDEST POP PUSH2 0x46D PUSH1 0x12 SLOAD DUP2 JUMP JUMPDEST CALLVALUE DUP1 ISZERO PUSH2 0xB5B JUMPI PUSH1 0x0 DUP1 REVERT JUMPDEST POP PUSH1 0xC SLOAD PUSH1 0xFF AND PUSH2 0x5CE JUMP JUMPDEST PUSH1 0x0 PUSH1 0x1 PUSH1 0x1 PUSH1 0xE0 SHL SUB NOT DUP3 AND PUSH4 0x80AC58CD PUSH1 0xE0 SHL EQ DUP1 PUSH2 0xB98 JUMPI POP PUSH1 0x1 PUSH1 0x1 PUSH1 0xE0 SHL SUB NOT DUP3 AND PUSH4 0x5B5E139F PUSH1 0xE0 SHL EQ JUMPDEST DUP1 PUSH2 0xBB3 JUMPI POP PUSH4 0x1FFC9A7 PUSH1 0xE0 SHL PUSH1 0x1 PUSH1 0x1 PUSH1 0xE0 SHL SUB NOT DUP4 AND EQ JUMPDEST SWAP3 SWAP2 POP POP JUMP JUMPDEST PUSH1 0x60 PUSH1 0x0 DUP1 SLOAD PUSH2 0xBC8 SWAP1 PUSH2 0x3830 JUMP JUMPDEST DUP1 PUSH1 0x1F ADD PUSH1 0x20 DUP1 SWAP2 DIV MUL PUSH1 0x20 ADD PUSH1 0x40 MLOAD SWAP1 DUP2 ADD PUSH1 0x40 MSTORE DUP1 SWAP3 SWAP2 SWAP1 DUP2 DUP2 MSTORE PUSH1 0x20 ADD DUP3 DUP1 SLOAD PUSH2 0xBF4 SWAP1 PUSH2 0x3830 JUMP JUMPDEST DUP1 ISZERO PUSH2 0xC41 JUMPI DUP1 PUSH1 0x1F LT PUSH2 0xC16 JUMPI PUSH2 0x100 DUP1 DUP4 SLOAD DIV MUL DUP4 MSTORE SWAP2 PUSH1 0x20 ADD SWAP2 PUSH2 0xC41 JUMP JUMPDEST DUP3 ADD SWAP2 SWAP1 PUSH1 0x0 MSTORE PUSH1 0x20 PUSH1 0x0 KECCAK256 SWAP1 JUMPDEST DUP2 SLOAD DUP2 MSTORE SWAP1 PUSH1 0x1 ADD SWAP1 PUSH1 0x20 ADD DUP1 DUP4 GT PUSH2 0xC24 JUMPI DUP3 SWAP1 SUB PUSH1 0x1F AND DUP3 ADD SWAP2 JUMPDEST POP POP POP POP POP SWAP1 POP SWAP1 JUMP JUMPDEST PUSH1 0x0 DUP2 DUP2 MSTORE PUSH1 0x2 PUSH1 0x20 MSTORE PUSH1 0x40 DUP2 KECCAK256 SLOAD PUSH1 0x1 PUSH1 0x1 PUSH1 0xA0 SHL SUB AND PUSH2 0xCC9 JUMPI PUSH1 0x40 MLOAD PUSH3 0x461BCD PUSH1 0xE5 SHL DUP2 MSTORE PUSH1 0x20 PUSH1 0x4 DUP3 ADD MSTORE PUSH1 0x2C PUSH1 0x24 DUP3 ADD MSTORE PUSH32 0x4552433732313A20617070726F76656420717565727920666F72206E6F6E6578 PUSH1 0x44 DUP3 ADD MSTORE PUSH12 0x34B9BA32B73A103A37B5B2B7 PUSH1 0xA1 SHL PUSH1 0x64 DUP3 ADD MSTORE PUSH1 0x84 ADD JUMPDEST PUSH1 0x40 MLOAD DUP1 SWAP2 SUB SWAP1 REVERT JUMPDEST POP PUSH1 0x0 SWAP1 DUP2 MSTORE PUSH1 0x4 PUSH1 0x20 MSTORE PUSH1 0x40 SWAP1 KECCAK256 SLOAD PUSH1 0x1 PUSH1 0x1 PUSH1 0xA0 SHL SUB AND SWAP1 JUMP JUMPDEST PUSH1 0x0 PUSH2 0xCF0 DUP3 PUSH2 0x1542 JUMP JUMPDEST SWAP1 POP DUP1 PUSH1 0x1 PUSH1 0x1 PUSH1 0xA0 SHL SUB AND DUP4 PUSH1 0x1 PUSH1 0x1 PUSH1 0xA0 SHL SUB AND EQ ISZERO PUSH2 0xD5E JUMPI PUSH1 0x40 MLOAD PUSH3 0x461BCD PUSH1 0xE5 SHL DUP2 MSTORE PUSH1 0x20 PUSH1 0x4 DUP3 ADD MSTORE PUSH1 0x21 PUSH1 0x24 DUP3 ADD MSTORE PUSH32 0x4552433732313A20617070726F76616C20746F2063757272656E74206F776E65 PUSH1 0x44 DUP3 ADD MSTORE PUSH1 0x39 PUSH1 0xF9 SHL PUSH1 0x64 DUP3 ADD MSTORE PUSH1 0x84 ADD PUSH2 0xCC0 JUMP JUMPDEST CALLER PUSH1 0x1 PUSH1 0x1 PUSH1 0xA0 SHL SUB DUP3 AND EQ DUP1 PUSH2 0xD7A JUMPI POP PUSH2 0xD7A DUP2 CALLER PUSH2 0xAC0 JUMP JUMPDEST PUSH2 0xDEC JUMPI PUSH1 0x40 MLOAD PUSH3 0x461BCD PUSH1 0xE5 SHL DUP2 MSTORE PUSH1 0x20 PUSH1 0x4 DUP3 ADD MSTORE PUSH1 0x38 PUSH1 0x24 DUP3 ADD MSTORE PUSH32 0x4552433732313A20617070726F76652063616C6C6572206973206E6F74206F77 PUSH1 0x44 DUP3 ADD MSTORE PUSH32 0x6E6572206E6F7220617070726F76656420666F7220616C6C0000000000000000 PUSH1 0x64 DUP3 ADD MSTORE PUSH1 0x84 ADD PUSH2 0xCC0 JUMP JUMPDEST PUSH2 0xDF6 DUP4 DUP4 PUSH2 0x28C4 JUMP JUMPDEST POP POP POP JUMP JUMPDEST PUSH1 0x6 SLOAD PUSH1 0x1 PUSH1 0x1 PUSH1 0xA0 SHL SUB PUSH2 0x100 SWAP1 SWAP2 DIV AND CALLER EQ PUSH2 0xE2B JUMPI PUSH1 0x40 MLOAD PUSH3 0x461BCD PUSH1 0xE5 SHL DUP2 MSTORE PUSH1 0x4 ADD PUSH2 0xCC0 SWAP1 PUSH2 0x386B JUMP JUMPDEST PUSH1 0xC SLOAD PUSH4 0x1000000 SWAP1 DIV PUSH1 0xFF AND ISZERO PUSH2 0xE85 JUMPI PUSH1 0x40 MLOAD PUSH3 0x461BCD PUSH1 0xE5 SHL DUP2 MSTORE PUSH1 0x20 PUSH1 0x4 DUP3 ADD MSTORE PUSH1 0x1A PUSH1 0x24 DUP3 ADD MSTORE PUSH32 0x50726F76656E616E636520686173682069732066726F7A656E2E000000000000 PUSH1 0x44 DUP3 ADD MSTORE PUSH1 0x64 ADD PUSH2 0xCC0 JUMP JUMPDEST DUP1 MLOAD PUSH2 0xE98 SWAP1 PUSH1 0x9 SWAP1 PUSH1 0x20 DUP5 ADD SWAP1 PUSH2 0x329B JUMP JUMPDEST POP POP JUMP JUMPDEST PUSH1 0x0 PUSH1 0x1 PUSH2 0xEA9 PUSH1 0x7 SLOAD SWAP1 JUMP JUMPDEST PUSH2 0xEB3 SWAP2 SWAP1 PUSH2 0x38B6 JUMP JUMPDEST SWAP1 POP SWAP1 JUMP JUMPDEST PUSH1 0x6 SLOAD PUSH1 0x1 PUSH1 0x1 PUSH1 0xA0 SHL SUB PUSH2 0x100 SWAP1 SWAP2 DIV AND CALLER EQ PUSH2 0xEE8 JUMPI PUSH1 0x40 MLOAD PUSH3 0x461BCD PUSH1 0xE5 SHL DUP2 MSTORE PUSH1 0x4 ADD PUSH2 0xCC0 SWAP1 PUSH2 0x386B JUMP JUMPDEST PUSH1 0x15 SSTORE JUMP JUMPDEST PUSH2 0xEF8 CALLER JUMPDEST DUP3 PUSH2 0x2932 JUMP JUMPDEST PUSH2 0xF14 JUMPI PUSH1 0x40 MLOAD PUSH3 0x461BCD PUSH1 0xE5 SHL DUP2 MSTORE PUSH1 0x4 ADD PUSH2 0xCC0 SWAP1 PUSH2 0x38CD JUMP JUMPDEST PUSH2 0xDF6 DUP4 DUP4 DUP4 PUSH2 0x2A29 JUMP JUMPDEST PUSH1 0x6 SLOAD PUSH1 0x1 PUSH1 0x1 PUSH1 0xA0 SHL SUB PUSH2 0x100 SWAP1 SWAP2 DIV AND CALLER EQ PUSH2 0xF4F JUMPI PUSH1 0x40 MLOAD PUSH3 0x461BCD PUSH1 0xE5 SHL DUP2 MSTORE PUSH1 0x4 ADD PUSH2 0xCC0 SWAP1 PUSH2 0x386B JUMP JUMPDEST PUSH1 0xC SLOAD PUSH1 0x3 PUSH1 0xFF SWAP1 SWAP2 AND LT PUSH2 0xFA0 JUMPI PUSH1 0x40 MLOAD PUSH3 0x461BCD PUSH1 0xE5 SHL DUP2 MSTORE PUSH1 0x20 PUSH1 0x4 DUP3 ADD MSTORE PUSH1 0x17 PUSH1 0x24 DUP3 ADD MSTORE PUSH23 0x2BB434BA32B634B9BA1034B99031B7B731B63AB232B217 PUSH1 0x49 SHL PUSH1 0x44 DUP3 ADD MSTORE PUSH1 0x64 ADD PUSH2 0xCC0 JUMP JUMPDEST PUSH1 0x0 JUMPDEST DUP2 MLOAD DUP2 LT ISZERO PUSH2 0xE98 JUMPI PUSH1 0x1 PUSH1 0x10 PUSH1 0x0 DUP5 DUP5 DUP2 MLOAD DUP2 LT PUSH2 0xFC4 JUMPI PUSH2 0xFC4 PUSH2 0x391E JUMP JUMPDEST PUSH1 0x20 SWAP1 DUP2 MUL SWAP2 SWAP1 SWAP2 ADD DUP2 ADD MLOAD PUSH1 0x1 PUSH1 0x1 PUSH1 0xA0 SHL SUB AND DUP3 MSTORE DUP2 ADD SWAP2 SWAP1 SWAP2 MSTORE PUSH1 0x40 ADD PUSH1 0x0 KECCAK256 DUP1 SLOAD PUSH1 0xFF NOT AND SWAP2 ISZERO ISZERO SWAP2 SWAP1 SWAP2 OR SWAP1 SSTORE DUP1 PUSH2 0x1000 DUP2 PUSH2 0x3934 JUMP JUMPDEST SWAP2 POP POP PUSH2 0xFA3 JUMP JUMPDEST PUSH1 0x6 SLOAD PUSH1 0x1 PUSH1 0x1 PUSH1 0xA0 SHL SUB PUSH2 0x100 SWAP1 SWAP2 DIV AND CALLER EQ PUSH2 0x1038 JUMPI PUSH1 0x40 MLOAD PUSH3 0x461BCD PUSH1 0xE5 SHL DUP2 MSTORE PUSH1 0x4 ADD PUSH2 0xCC0 SWAP1 PUSH2 0x386B JUMP JUMPDEST PUSH1 0xC SLOAD PUSH1 0x2 PUSH1 0xFF SWAP1 SWAP2 AND LT PUSH2 0x108F JUMPI PUSH1 0x40 MLOAD PUSH3 0x461BCD PUSH1 0xE5 SHL DUP2 MSTORE PUSH1 0x20 PUSH1 0x4 DUP3 ADD MSTORE PUSH1 0x1C PUSH1 0x24 DUP3 ADD MSTORE PUSH32 0x46726565206D696E742073616C6520697320636F6E636C756465642E00000000 PUSH1 0x44 DUP3 ADD MSTORE PUSH1 0x64 ADD PUSH2 0xCC0 JUMP JUMPDEST PUSH1 0x1 PUSH1 0x1 PUSH1 0xA0 SHL SUB DUP2 AND PUSH1 0x0 SWAP1 DUP2 MSTORE PUSH1 0xE PUSH1 0x20 MSTORE PUSH1 0x40 SWAP1 KECCAK256 SLOAD PUSH1 0xFF AND PUSH2 0x10F7 JUMPI PUSH1 0x40 MLOAD PUSH3 0x461BCD PUSH1 0xE5 SHL DUP2 MSTORE PUSH1 0x20 PUSH1 0x4 DUP3 ADD MSTORE PUSH1 0x1B PUSH1 0x24 DUP3 ADD MSTORE PUSH32 0x55736572206E6F7420617761726465642066726565206D696E742E0000000000 PUSH1 0x44 DUP3 ADD MSTORE PUSH1 0x64 ADD PUSH2 0xCC0 JUMP JUMPDEST PUSH1 0x1 PUSH1 0x1 PUSH1 0xA0 SHL SUB AND PUSH1 0x0 SWAP1 DUP2 MSTORE PUSH1 0xE PUSH1 0x20 MSTORE PUSH1 0x40 SWAP1 KECCAK256 DUP1 SLOAD PUSH1 0xFF NOT AND SWAP1 SSTORE JUMP JUMPDEST PUSH1 0x6 SLOAD PUSH1 0x1 PUSH1 0x1 PUSH1 0xA0 SHL SUB PUSH2 0x100 SWAP1 SWAP2 DIV AND CALLER EQ PUSH2 0x1148 JUMPI PUSH1 0x40 MLOAD PUSH3 0x461BCD PUSH1 0xE5 SHL DUP2 MSTORE PUSH1 0x4 ADD PUSH2 0xCC0 SWAP1 PUSH2 0x386B JUMP JUMPDEST PUSH1 0x1 PUSH1 0x1 PUSH1 0xA0 SHL SUB DUP2 AND PUSH1 0x0 SWAP1 DUP2 MSTORE PUSH1 0x10 PUSH1 0x20 MSTORE PUSH1 0x40 SWAP1 KECCAK256 SLOAD PUSH1 0xFF AND PUSH2 0x11B0 JUMPI PUSH1 0x40 MLOAD PUSH3 0x461BCD PUSH1 0xE5 SHL DUP2 MSTORE PUSH1 0x20 PUSH1 0x4 DUP3 ADD MSTORE PUSH1 0x1B PUSH1 0x24 DUP3 ADD MSTORE PUSH32 0x55736572206E6F74206F6E2077686974656C697374206C6973742E0000000000 PUSH1 0x44 DUP3 ADD MSTORE PUSH1 0x64 ADD PUSH2 0xCC0 JUMP JUMPDEST PUSH1 0x1 PUSH1 0x1 PUSH1 0xA0 SHL SUB AND PUSH1 0x0 SWAP1 DUP2 MSTORE PUSH1 0x10 PUSH1 0x20 MSTORE PUSH1 0x40 SWAP1 KECCAK256 DUP1 SLOAD PUSH1 0xFF NOT AND SWAP1 SSTORE JUMP JUMPDEST PUSH1 0x6 SLOAD PUSH1 0x1 PUSH1 0x1 PUSH1 0xA0 SHL SUB PUSH2 0x100 SWAP1 SWAP2 DIV AND CALLER EQ PUSH2 0x1201 JUMPI PUSH1 0x40 MLOAD PUSH3 0x461BCD PUSH1 0xE5 SHL DUP2 MSTORE PUSH1 0x4 ADD PUSH2 0xCC0 SWAP1 PUSH2 0x386B JUMP JUMPDEST PUSH1 0x0 SELFBALANCE GT PUSH2 0x124A JUMPI PUSH1 0x40 MLOAD PUSH3 0x461BCD PUSH1 0xE5 SHL DUP2 MSTORE PUSH1 0x20 PUSH1 0x4 DUP3 ADD MSTORE PUSH1 0x16 PUSH1 0x24 DUP3 ADD MSTORE PUSH22 0x21B7B73A3930B1BA103130B630B731B29034B9901817 PUSH1 0x51 SHL PUSH1 0x44 DUP3 ADD MSTORE PUSH1 0x64 ADD PUSH2 0xCC0 JUMP JUMPDEST PUSH1 0xC SLOAD PUSH1 0x0 SWAP1 PUSH5 0x100000000 SWAP1 DIV PUSH1 0x1 PUSH1 0x1 PUSH1 0xA0 SHL SUB AND PUSH2 0x1277 PUSH1 0x64 PUSH2 0x1271 SELFBALANCE PUSH1 0x32 PUSH2 0x2BD4 JUMP JUMPDEST SWAP1 PUSH2 0x2BE7 JUMP JUMPDEST PUSH1 0x40 MLOAD PUSH1 0x0 DUP2 DUP2 DUP2 DUP6 DUP8 GAS CALL SWAP3 POP POP POP RETURNDATASIZE DUP1 PUSH1 0x0 DUP2 EQ PUSH2 0x12B3 JUMPI PUSH1 0x40 MLOAD SWAP2 POP PUSH1 0x1F NOT PUSH1 0x3F RETURNDATASIZE ADD AND DUP3 ADD PUSH1 0x40 MSTORE RETURNDATASIZE DUP3 MSTORE RETURNDATASIZE PUSH1 0x0 PUSH1 0x20 DUP5 ADD RETURNDATACOPY PUSH2 0x12B8 JUMP JUMPDEST PUSH1 0x60 SWAP2 POP JUMPDEST POP POP SWAP1 POP DUP1 PUSH2 0x12FE JUMPI PUSH1 0x40 MLOAD PUSH3 0x461BCD PUSH1 0xE5 SHL DUP2 MSTORE PUSH1 0x20 PUSH1 0x4 DUP3 ADD MSTORE PUSH1 0x12 PUSH1 0x24 DUP3 ADD MSTORE PUSH18 0x1DDA5D1A191C985DDB080C4819985A5B1959 PUSH1 0x72 SHL PUSH1 0x44 DUP3 ADD MSTORE PUSH1 0x64 ADD PUSH2 0xCC0 JUMP JUMPDEST PUSH1 0xD SLOAD PUSH1 0x40 MLOAD PUSH1 0x0 SWAP2 PUSH1 0x1 PUSH1 0x1 PUSH1 0xA0 SHL SUB AND SWAP1 SELFBALANCE SWAP1 DUP4 DUP2 DUP2 DUP2 DUP6 DUP8 GAS CALL SWAP3 POP POP POP RETURNDATASIZE DUP1 PUSH1 0x0 DUP2 EQ PUSH2 0x134B JUMPI PUSH1 0x40 MLOAD SWAP2 POP PUSH1 0x1F NOT PUSH1 0x3F RETURNDATASIZE ADD AND DUP3 ADD PUSH1 0x40 MSTORE RETURNDATASIZE DUP3 MSTORE RETURNDATASIZE PUSH1 0x0 PUSH1 0x20 DUP5 ADD RETURNDATACOPY PUSH2 0x1350 JUMP JUMPDEST PUSH1 0x60 SWAP2 POP JUMPDEST POP POP SWAP1 POP DUP1 PUSH2 0xE98 JUMPI PUSH1 0x40 MLOAD PUSH3 0x461BCD PUSH1 0xE5 SHL DUP2 MSTORE PUSH1 0x20 PUSH1 0x4 DUP3 ADD MSTORE PUSH1 0x12 PUSH1 0x24 DUP3 ADD MSTORE PUSH18 0x1DDA5D1A191C985DDB080C8819985A5B1959 PUSH1 0x72 SHL PUSH1 0x44 DUP3 ADD MSTORE PUSH1 0x64 ADD PUSH2 0xCC0 JUMP JUMPDEST PUSH1 0x6 SLOAD PUSH1 0x1 PUSH1 0x1 PUSH1 0xA0 SHL SUB PUSH2 0x100 SWAP1 SWAP2 DIV AND CALLER EQ PUSH2 0x13C6 JUMPI PUSH1 0x40 MLOAD PUSH3 0x461BCD PUSH1 0xE5 SHL DUP2 MSTORE PUSH1 0x4 ADD PUSH2 0xCC0 SWAP1 PUSH2 0x386B JUMP JUMPDEST PUSH2 0x13CE PUSH2 0x2BF3 JUMP JUMPDEST JUMP JUMPDEST PUSH2 0xDF6 DUP4 DUP4 DUP4 PUSH1 0x40 MLOAD DUP1 PUSH1 0x20 ADD PUSH1 0x40 MSTORE DUP1 PUSH1 0x0 DUP2 MSTORE POP PUSH2 0x235E JUMP JUMPDEST PUSH2 0x13F4 CALLER PUSH2 0xEF2 JUMP JUMPDEST PUSH2 0x1459 JUMPI PUSH1 0x40 MLOAD PUSH3 0x461BCD PUSH1 0xE5 SHL DUP2 MSTORE PUSH1 0x20 PUSH1 0x4 DUP3 ADD MSTORE PUSH1 0x30 PUSH1 0x24 DUP3 ADD MSTORE PUSH32 0x4552433732314275726E61626C653A2063616C6C6572206973206E6F74206F77 PUSH1 0x44 DUP3 ADD MSTORE PUSH16 0x1B995C881B9BDC88185C1C1C9BDD9959 PUSH1 0x82 SHL PUSH1 0x64 DUP3 ADD MSTORE PUSH1 0x84 ADD PUSH2 0xCC0 JUMP JUMPDEST PUSH2 0x1462 DUP2 PUSH2 0x2C86 JUMP JUMPDEST POP JUMP JUMPDEST PUSH1 0x6 SLOAD PUSH1 0x1 PUSH1 0x1 PUSH1 0xA0 SHL SUB PUSH2 0x100 SWAP1 SWAP2 DIV AND CALLER EQ PUSH2 0x1495 JUMPI PUSH1 0x40 MLOAD PUSH3 0x461BCD PUSH1 0xE5 SHL DUP2 MSTORE PUSH1 0x4 ADD PUSH2 0xCC0 SWAP1 PUSH2 0x386B JUMP JUMPDEST PUSH1 0xC SLOAD PUSH3 0x10000 SWAP1 DIV PUSH1 0xFF AND ISZERO PUSH2 0x14E3 JUMPI PUSH1 0x40 MLOAD PUSH3 0x461BCD PUSH1 0xE5 SHL DUP2 MSTORE PUSH1 0x20 PUSH1 0x4 DUP3 ADD MSTORE PUSH1 0x12 PUSH1 0x24 DUP3 ADD MSTORE PUSH18 0x2130B9B2AAA9249034B990333937BD32B717 PUSH1 0x71 SHL PUSH1 0x44 DUP3 ADD MSTORE PUSH1 0x64 ADD PUSH2 0xCC0 JUMP JUMPDEST DUP1 MLOAD PUSH2 0xE98 SWAP1 PUSH1 0xA SWAP1 PUSH1 0x20 DUP5 ADD SWAP1 PUSH2 0x329B JUMP JUMPDEST PUSH1 0x6 SLOAD PUSH1 0x1 PUSH1 0x1 PUSH1 0xA0 SHL SUB PUSH2 0x100 SWAP1 SWAP2 DIV AND CALLER EQ PUSH2 0x1526 JUMPI PUSH1 0x40 MLOAD PUSH3 0x461BCD PUSH1 0xE5 SHL DUP2 MSTORE PUSH1 0x4 ADD PUSH2 0xCC0 SWAP1 PUSH2 0x386B JUMP JUMPDEST PUSH1 0xC DUP1 SLOAD PUSH1 0xFF SWAP1 SWAP3 AND PUSH2 0x100 MUL PUSH2 0xFF00 NOT SWAP1 SWAP3 AND SWAP2 SWAP1 SWAP2 OR SWAP1 SSTORE JUMP JUMPDEST PUSH1 0x0 DUP2 DUP2 MSTORE PUSH1 0x2 PUSH1 0x20 MSTORE PUSH1 0x40 DUP2 KECCAK256 SLOAD PUSH1 0x1 PUSH1 0x1 PUSH1 0xA0 SHL SUB AND DUP1 PUSH2 0xBB3 JUMPI PUSH1 0x40 MLOAD PUSH3 0x461BCD PUSH1 0xE5 SHL DUP2 MSTORE PUSH1 0x20 PUSH1 0x4 DUP3 ADD MSTORE PUSH1 0x29 PUSH1 0x24 DUP3 ADD MSTORE PUSH32 0x4552433732313A206F776E657220717565727920666F72206E6F6E6578697374 PUSH1 0x44 DUP3 ADD MSTORE PUSH9 0x32B73A103A37B5B2B7 PUSH1 0xB9 SHL PUSH1 0x64 DUP3 ADD MSTORE PUSH1 0x84 ADD PUSH2 0xCC0 JUMP JUMPDEST PUSH1 0xA DUP1 SLOAD PUSH2 0x15C6 SWAP1 PUSH2 0x3830 JUMP JUMPDEST DUP1 PUSH1 0x1F ADD PUSH1 0x20 DUP1 SWAP2 DIV MUL PUSH1 0x20 ADD PUSH1 0x40 MLOAD SWAP1 DUP2 ADD PUSH1 0x40 MSTORE DUP1 SWAP3 SWAP2 SWAP1 DUP2 DUP2 MSTORE PUSH1 0x20 ADD DUP3 DUP1 SLOAD PUSH2 0x15F2 SWAP1 PUSH2 0x3830 JUMP JUMPDEST DUP1 ISZERO PUSH2 0x163F JUMPI DUP1 PUSH1 0x1F LT PUSH2 0x1614 JUMPI PUSH2 0x100 DUP1 DUP4 SLOAD DIV MUL DUP4 MSTORE SWAP2 PUSH1 0x20 ADD SWAP2 PUSH2 0x163F JUMP JUMPDEST DUP3 ADD SWAP2 SWAP1 PUSH1 0x0 MSTORE PUSH1 0x20 PUSH1 0x0 KECCAK256 SWAP1 JUMPDEST DUP2 SLOAD DUP2 MSTORE SWAP1 PUSH1 0x1 ADD SWAP1 PUSH1 0x20 ADD DUP1 DUP4 GT PUSH2 0x1622 JUMPI DUP3 SWAP1 SUB PUSH1 0x1F AND DUP3 ADD SWAP2 JUMPDEST POP POP POP POP POP DUP2 JUMP JUMPDEST PUSH1 0x0 DUP1 PUSH2 0x1652 PUSH2 0xE9C JUMP JUMPDEST GT PUSH2 0x1698 JUMPI PUSH1 0x40 MLOAD PUSH3 0x461BCD PUSH1 0xE5 SHL DUP2 MSTORE PUSH1 0x20 PUSH1 0x4 DUP3 ADD MSTORE PUSH1 0x16 PUSH1 0x24 DUP3 ADD MSTORE PUSH22 0x27379031B93CB83A34B21032BC34B9BA39903CB2BA17 PUSH1 0x51 SHL PUSH1 0x44 DUP3 ADD MSTORE PUSH1 0x64 ADD PUSH2 0xCC0 JUMP JUMPDEST PUSH2 0xEB3 PUSH2 0x708 PUSH2 0xE9C JUMP JUMPDEST PUSH1 0x6 SLOAD PUSH1 0xFF AND ISZERO PUSH2 0x16C6 JUMPI PUSH1 0x40 MLOAD PUSH3 0x461BCD PUSH1 0xE5 SHL DUP2 MSTORE PUSH1 0x4 ADD PUSH2 0xCC0 SWAP1 PUSH2 0x394F JUMP JUMPDEST PUSH1 0xC SLOAD PUSH1 0xFF AND PUSH2 0x1733 JUMPI PUSH1 0x40 MLOAD PUSH3 0x461BCD PUSH1 0xE5 SHL DUP2 MSTORE PUSH1 0x20 PUSH1 0x4 DUP3 ADD MSTORE PUSH1 0x32 PUSH1 0x24 DUP3 ADD MSTORE PUSH32 0x4D696E74696E67206E6F7420696E697469617465642E2043757272656E6C7920 PUSH1 0x44 DUP3 ADD MSTORE PUSH18 0x37B71039BA30B3B29018101434B734BA1497 PUSH1 0x71 SHL PUSH1 0x64 DUP3 ADD MSTORE PUSH1 0x84 ADD PUSH2 0xCC0 JUMP JUMPDEST PUSH1 0x0 DUP2 PUSH1 0xFF AND GT PUSH2 0x1792 JUMPI PUSH1 0x40 MLOAD PUSH3 0x461BCD PUSH1 0xE5 SHL DUP2 MSTORE PUSH1 0x20 PUSH1 0x4 DUP3 ADD MSTORE PUSH1 0x23 PUSH1 0x24 DUP3 ADD MSTORE PUSH32 0x4D696E7420616D6F756E74206D7573742062652067726561746572207468616E PUSH1 0x44 DUP3 ADD MSTORE PUSH3 0x101817 PUSH1 0xE9 SHL PUSH1 0x64 DUP3 ADD MSTORE PUSH1 0x84 ADD PUSH2 0xCC0 JUMP JUMPDEST PUSH1 0xC SLOAD PUSH1 0xFF PUSH2 0x100 SWAP1 SWAP2 DIV DUP2 AND SWAP1 DUP3 AND GT ISZERO PUSH2 0x1804 JUMPI PUSH1 0x40 MLOAD PUSH3 0x461BCD PUSH1 0xE5 SHL DUP2 MSTORE PUSH1 0x20 PUSH1 0x4 DUP3 ADD MSTORE PUSH1 0x2B PUSH1 0x24 DUP3 ADD MSTORE PUSH32 0x45786365656473206D617820616C6C6F77656420616D6F756E74207065722074 PUSH1 0x44 DUP3 ADD MSTORE PUSH11 0x3930B739B0B1BA34B7B717 PUSH1 0xA9 SHL PUSH1 0x64 DUP3 ADD MSTORE PUSH1 0x84 ADD PUSH2 0xCC0 JUMP JUMPDEST PUSH1 0xC SLOAD PUSH1 0xFF AND PUSH1 0x1 EQ ISZERO PUSH2 0x1940 JUMPI CALLER PUSH1 0x0 SWAP1 DUP2 MSTORE PUSH1 0xE PUSH1 0x20 MSTORE PUSH1 0x40 SWAP1 KECCAK256 SLOAD PUSH1 0xFF AND PUSH2 0x1871 JUMPI PUSH1 0x40 MLOAD PUSH3 0x461BCD PUSH1 0xE5 SHL DUP2 MSTORE PUSH1 0x20 PUSH1 0x4 DUP3 ADD MSTORE PUSH1 0x1E PUSH1 0x24 DUP3 ADD MSTORE PUSH32 0x4D696E746572206E6F7420617761726465642066726565206D696E74732E0000 PUSH1 0x44 DUP3 ADD MSTORE PUSH1 0x64 ADD PUSH2 0xCC0 JUMP JUMPDEST CALLER PUSH1 0x0 SWAP1 DUP2 MSTORE PUSH1 0xE PUSH1 0x20 SWAP1 DUP2 MSTORE PUSH1 0x40 DUP1 DUP4 KECCAK256 SLOAD PUSH1 0xF SWAP1 SWAP3 MSTORE SWAP1 SWAP2 KECCAK256 SLOAD PUSH1 0xFF SWAP2 DUP3 AND SWAP2 PUSH2 0x189E SWAP2 AND DUP4 PUSH2 0x3979 JUMP JUMPDEST PUSH1 0xFF AND GT ISZERO PUSH2 0x1901 JUMPI PUSH1 0x40 MLOAD PUSH3 0x461BCD PUSH1 0xE5 SHL DUP2 MSTORE PUSH1 0x20 PUSH1 0x4 DUP3 ADD MSTORE PUSH1 0x29 PUSH1 0x24 DUP3 ADD MSTORE PUSH32 0x5472616E73616374696F6E20657863656564732072656D61696E696E67206672 PUSH1 0x44 DUP3 ADD MSTORE PUSH9 0x32B29036B4B73A3997 PUSH1 0xB9 SHL PUSH1 0x64 DUP3 ADD MSTORE PUSH1 0x84 ADD PUSH2 0xCC0 JUMP JUMPDEST CALLER PUSH1 0x0 SWAP1 DUP2 MSTORE PUSH1 0xF PUSH1 0x20 MSTORE PUSH1 0x40 DUP2 KECCAK256 DUP1 SLOAD DUP4 SWAP3 SWAP1 PUSH2 0x1923 SWAP1 DUP5 SWAP1 PUSH1 0xFF AND PUSH2 0x3979 JUMP JUMPDEST SWAP3 POP PUSH2 0x100 EXP DUP2 SLOAD DUP2 PUSH1 0xFF MUL NOT AND SWAP1 DUP4 PUSH1 0xFF AND MUL OR SWAP1 SSTORE POP PUSH2 0x1D02 JUMP JUMPDEST PUSH1 0xC SLOAD PUSH1 0xFF AND PUSH1 0x2 EQ ISZERO PUSH2 0x1B2A JUMPI PUSH1 0x12 SLOAD PUSH2 0x195E SWAP1 PUSH1 0xFF DUP4 AND PUSH2 0x2BD4 JUMP JUMPDEST CALLVALUE LT ISZERO PUSH2 0x19A6 JUMPI PUSH1 0x40 MLOAD PUSH3 0x461BCD PUSH1 0xE5 SHL DUP2 MSTORE PUSH1 0x20 PUSH1 0x4 DUP3 ADD MSTORE PUSH1 0x16 PUSH1 0x24 DUP3 ADD MSTORE PUSH22 0x2737BA1032B737BAB3B41032BA3432B91039B2B73A17 PUSH1 0x51 SHL PUSH1 0x44 DUP3 ADD MSTORE PUSH1 0x64 ADD PUSH2 0xCC0 JUMP JUMPDEST CALLER PUSH1 0x0 SWAP1 DUP2 MSTORE PUSH1 0x10 PUSH1 0x20 MSTORE PUSH1 0x40 SWAP1 KECCAK256 SLOAD PUSH1 0xFF AND PUSH2 0x1A05 JUMPI PUSH1 0x40 MLOAD PUSH3 0x461BCD PUSH1 0xE5 SHL DUP2 MSTORE PUSH1 0x20 PUSH1 0x4 DUP3 ADD MSTORE PUSH1 0x19 PUSH1 0x24 DUP3 ADD MSTORE PUSH32 0x41646472657373206E6F74206F6E2077686974656C6973742E00000000000000 PUSH1 0x44 DUP3 ADD MSTORE PUSH1 0x64 ADD PUSH2 0xCC0 JUMP JUMPDEST PUSH1 0x11 SLOAD DUP2 PUSH1 0xFF AND PUSH2 0x1A14 PUSH2 0xE9C JUMP JUMPDEST PUSH2 0x1A1E SWAP2 SWAP1 PUSH2 0x399E JUMP JUMPDEST GT ISZERO PUSH2 0x1A7A JUMPI PUSH1 0x40 MLOAD PUSH3 0x461BCD PUSH1 0xE5 SHL DUP2 MSTORE PUSH1 0x20 PUSH1 0x4 DUP3 ADD MSTORE PUSH1 0x25 PUSH1 0x24 DUP3 ADD MSTORE PUSH32 0x5472616E73616374696F6E20657863656564732077686974656C697374207375 PUSH1 0x44 DUP3 ADD MSTORE PUSH5 0x3838363C97 PUSH1 0xD9 SHL PUSH1 0x64 DUP3 ADD MSTORE PUSH1 0x84 ADD PUSH2 0xCC0 JUMP JUMPDEST PUSH1 0x13 SLOAD CALLER PUSH1 0x0 SWAP1 DUP2 MSTORE PUSH1 0x14 PUSH1 0x20 MSTORE PUSH1 0x40 SWAP1 KECCAK256 SLOAD PUSH1 0xFF SWAP2 DUP3 AND SWAP2 PUSH2 0x1A9E SWAP2 AND DUP4 PUSH2 0x3979 JUMP JUMPDEST PUSH1 0xFF AND GT ISZERO PUSH2 0x1B08 JUMPI PUSH1 0x40 MLOAD PUSH3 0x461BCD PUSH1 0xE5 SHL DUP2 MSTORE PUSH1 0x20 PUSH1 0x4 DUP3 ADD MSTORE PUSH1 0x30 PUSH1 0x24 DUP3 ADD MSTORE PUSH32 0x5472616E73616374696F6E2065786365656473206D617820616C6C6F77656420 PUSH1 0x44 DUP3 ADD MSTORE PUSH16 0x3BB434BA32B634B9BA1036B4B73A3997 PUSH1 0x81 SHL PUSH1 0x64 DUP3 ADD MSTORE PUSH1 0x84 ADD PUSH2 0xCC0 JUMP JUMPDEST CALLER PUSH1 0x0 SWAP1 DUP2 MSTORE PUSH1 0x14 PUSH1 0x20 MSTORE PUSH1 0x40 DUP2 KECCAK256 DUP1 SLOAD DUP4 SWAP3 SWAP1 PUSH2 0x1923 SWAP1 DUP5 SWAP1 PUSH1 0xFF AND PUSH2 0x3979 JUMP JUMPDEST PUSH1 0xC SLOAD PUSH1 0xFF AND PUSH1 0x3 EQ ISZERO PUSH2 0x1C36 JUMPI PUSH1 0x6 SLOAD PUSH1 0x1 PUSH1 0x1 PUSH1 0xA0 SHL SUB PUSH2 0x100 SWAP1 SWAP2 DIV AND CALLER EQ PUSH2 0x1BA2 JUMPI PUSH1 0x40 MLOAD PUSH3 0x461BCD PUSH1 0xE5 SHL DUP2 MSTORE PUSH1 0x20 PUSH1 0x4 DUP3 ADD MSTORE PUSH1 0x21 PUSH1 0x24 DUP3 ADD MSTORE PUSH32 0x4F6E6C79204F776E65722063616E206D696E7420617420746869732073746167 PUSH1 0x44 DUP3 ADD MSTORE PUSH1 0x65 PUSH1 0xF8 SHL PUSH1 0x64 DUP3 ADD MSTORE PUSH1 0x84 ADD PUSH2 0xCC0 JUMP JUMPDEST PUSH1 0x15 SLOAD PUSH1 0x16 SLOAD PUSH2 0x1BB5 SWAP1 PUSH1 0xFF DUP5 AND PUSH2 0x399E JUMP JUMPDEST GT ISZERO PUSH2 0x1C16 JUMPI PUSH1 0x40 MLOAD PUSH3 0x461BCD PUSH1 0xE5 SHL DUP2 MSTORE PUSH1 0x20 PUSH1 0x4 DUP3 ADD MSTORE PUSH1 0x2A PUSH1 0x24 DUP3 ADD MSTORE PUSH32 0x5472616E73616374696F6E206578636565647320746F74616C207465616D2D73 PUSH1 0x44 DUP3 ADD MSTORE PUSH10 0x616C6520737570706C79 PUSH1 0xB0 SHL PUSH1 0x64 DUP3 ADD MSTORE PUSH1 0x84 ADD PUSH2 0xCC0 JUMP JUMPDEST DUP1 PUSH1 0xFF AND PUSH1 0x16 PUSH1 0x0 DUP3 DUP3 SLOAD PUSH2 0x1C2B SWAP2 SWAP1 PUSH2 0x399E JUMP JUMPDEST SWAP1 SWAP2 SSTORE POP PUSH2 0x1D02 SWAP1 POP JUMP JUMPDEST PUSH1 0x17 SLOAD PUSH2 0x1C46 SWAP1 PUSH1 0xFF DUP4 AND PUSH2 0x2BD4 JUMP JUMPDEST CALLVALUE LT ISZERO PUSH2 0x1C8D JUMPI PUSH1 0x40 MLOAD PUSH3 0x461BCD PUSH1 0xE5 SHL DUP2 MSTORE PUSH1 0x20 PUSH1 0x4 DUP3 ADD MSTORE PUSH1 0x15 PUSH1 0x24 DUP3 ADD MSTORE PUSH21 0x139BDD08195B9BDD59DA08195D1A195C881CD95B9D PUSH1 0x5A SHL PUSH1 0x44 DUP3 ADD MSTORE PUSH1 0x64 ADD PUSH2 0xCC0 JUMP JUMPDEST PUSH1 0x18 SLOAD DUP2 PUSH1 0xFF AND PUSH2 0x1C9C PUSH2 0xE9C JUMP JUMPDEST PUSH2 0x1CA6 SWAP2 SWAP1 PUSH2 0x399E JUMP JUMPDEST GT ISZERO PUSH2 0x1D02 JUMPI PUSH1 0x40 MLOAD PUSH3 0x461BCD PUSH1 0xE5 SHL DUP2 MSTORE PUSH1 0x20 PUSH1 0x4 DUP3 ADD MSTORE PUSH1 0x25 PUSH1 0x24 DUP3 ADD MSTORE PUSH32 0x5472616E73616374696F6E206578636565647320746F74616C2073616C652073 PUSH1 0x44 DUP3 ADD MSTORE PUSH5 0x7570706C79 PUSH1 0xD8 SHL PUSH1 0x64 DUP3 ADD MSTORE PUSH1 0x84 ADD PUSH2 0xCC0 JUMP JUMPDEST PUSH1 0x1 JUMPDEST DUP2 PUSH1 0xFF AND DUP2 GT PUSH2 0xE98 JUMPI PUSH2 0x1D21 CALLER PUSH2 0x1D1C PUSH1 0x7 SLOAD SWAP1 JUMP JUMPDEST PUSH2 0x2D2D JUMP JUMPDEST PUSH2 0x1D2F PUSH1 0x7 DUP1 SLOAD PUSH1 0x1 ADD SWAP1 SSTORE JUMP JUMPDEST DUP1 PUSH2 0x1D39 DUP2 PUSH2 0x3934 JUMP JUMPDEST SWAP2 POP POP PUSH2 0x1D05 JUMP JUMPDEST PUSH1 0x0 PUSH1 0x1 PUSH1 0x1 PUSH1 0xA0 SHL SUB DUP3 AND PUSH2 0x1DAC JUMPI PUSH1 0x40 MLOAD PUSH3 0x461BCD PUSH1 0xE5 SHL DUP2 MSTORE PUSH1 0x20 PUSH1 0x4 DUP3 ADD MSTORE PUSH1 0x2A PUSH1 0x24 DUP3 ADD MSTORE PUSH32 0x4552433732313A2062616C616E636520717565727920666F7220746865207A65 PUSH1 0x44 DUP3 ADD MSTORE PUSH10 0x726F2061646472657373 PUSH1 0xB0 SHL PUSH1 0x64 DUP3 ADD MSTORE PUSH1 0x84 ADD PUSH2 0xCC0 JUMP JUMPDEST POP PUSH1 0x1 PUSH1 0x1 PUSH1 0xA0 SHL SUB AND PUSH1 0x0 SWAP1 DUP2 MSTORE PUSH1 0x3 PUSH1 0x20 MSTORE PUSH1 0x40 SWAP1 KECCAK256 SLOAD SWAP1 JUMP JUMPDEST PUSH1 0x6 SLOAD PUSH1 0x1 PUSH1 0x1 PUSH1 0xA0 SHL SUB PUSH2 0x100 SWAP1 SWAP2 DIV AND CALLER EQ PUSH2 0x1DF8 JUMPI PUSH1 0x40 MLOAD PUSH3 0x461BCD PUSH1 0xE5 SHL DUP2 MSTORE PUSH1 0x4 ADD PUSH2 0xCC0 SWAP1 PUSH2 0x386B JUMP JUMPDEST PUSH2 0x13CE PUSH1 0x0 PUSH2 0x2D47 JUMP JUMPDEST PUSH1 0x6 SLOAD PUSH1 0x1 PUSH1 0x1 PUSH1 0xA0 SHL SUB PUSH2 0x100 SWAP1 SWAP2 DIV AND CALLER EQ PUSH2 0x1E32 JUMPI PUSH1 0x40 MLOAD PUSH3 0x461BCD PUSH1 0xE5 SHL DUP2 MSTORE PUSH1 0x4 ADD PUSH2 0xCC0 SWAP1 PUSH2 0x386B JUMP JUMPDEST PUSH1 0xC SLOAD PUSH1 0x3 PUSH1 0xFF SWAP1 SWAP2 AND LT PUSH2 0x1E83 JUMPI PUSH1 0x40 MLOAD PUSH3 0x461BCD PUSH1 0xE5 SHL DUP2 MSTORE PUSH1 0x20 PUSH1 0x4 DUP3 ADD MSTORE PUSH1 0x17 PUSH1 0x24 DUP3 ADD MSTORE PUSH23 0x2BB434BA32B634B9BA1034B99031B7B731B63AB232B217 PUSH1 0x49 SHL PUSH1 0x44 DUP3 ADD MSTORE PUSH1 0x64 ADD PUSH2 0xCC0 JUMP JUMPDEST PUSH1 0x12 SSTORE JUMP JUMPDEST PUSH1 0x6 SLOAD PUSH1 0x1 PUSH1 0x1 PUSH1 0xA0 SHL SUB PUSH2 0x100 SWAP1 SWAP2 DIV AND CALLER EQ PUSH2 0x1EB8 JUMPI PUSH1 0x40 MLOAD PUSH3 0x461BCD PUSH1 0xE5 SHL DUP2 MSTORE PUSH1 0x4 ADD PUSH2 0xCC0 SWAP1 PUSH2 0x386B JUMP JUMPDEST PUSH1 0x17 SSTORE JUMP JUMPDEST PUSH1 0x6 SLOAD PUSH1 0x1 PUSH1 0x1 PUSH1 0xA0 SHL SUB PUSH2 0x100 SWAP1 SWAP2 DIV AND CALLER EQ PUSH2 0x1EED JUMPI PUSH1 0x40 MLOAD PUSH3 0x461BCD PUSH1 0xE5 SHL DUP2 MSTORE PUSH1 0x4 ADD PUSH2 0xCC0 SWAP1 PUSH2 0x386B JUMP JUMPDEST PUSH1 0x0 PUSH1 0x9 DUP1 SLOAD PUSH2 0x1EFC SWAP1 PUSH2 0x3830 JUMP JUMPDEST SWAP1 POP GT PUSH2 0x1F4B JUMPI PUSH1 0x40 MLOAD PUSH3 0x461BCD PUSH1 0xE5 SHL DUP2 MSTORE PUSH1 0x20 PUSH1 0x4 DUP3 ADD DUP2 SWAP1 MSTORE PUSH1 0x24 DUP3 ADD MSTORE PUSH32 0x50726F76656E616E636520686173682063616E6E6F7420626520656D7074792E PUSH1 0x44 DUP3 ADD MSTORE PUSH1 0x64 ADD PUSH2 0xCC0 JUMP JUMPDEST PUSH1 0xC SLOAD PUSH4 0x1000000 SWAP1 DIV PUSH1 0xFF AND ISZERO PUSH2 0x1FB0 JUMPI PUSH1 0x40 MLOAD PUSH3 0x461BCD PUSH1 0xE5 SHL DUP2 MSTORE PUSH1 0x20 PUSH1 0x4 DUP3 ADD MSTORE PUSH1 0x22 PUSH1 0x24 DUP3 ADD MSTORE PUSH32 0x50726F76656E616E6365206861736820697320616C72656164792066726F7A65 PUSH1 0x44 DUP3 ADD MSTORE PUSH2 0x3717 PUSH1 0xF1 SHL PUSH1 0x64 DUP3 ADD MSTORE PUSH1 0x84 ADD PUSH2 0xCC0 JUMP JUMPDEST PUSH1 0xC DUP1 SLOAD PUSH4 0xFF000000 NOT AND PUSH4 0x1000000 OR SWAP1 SSTORE JUMP JUMPDEST PUSH1 0x6 SLOAD PUSH1 0x1 PUSH1 0x1 PUSH1 0xA0 SHL SUB PUSH2 0x100 SWAP1 SWAP2 DIV AND CALLER EQ PUSH2 0x1FF5 JUMPI PUSH1 0x40 MLOAD PUSH3 0x461BCD PUSH1 0xE5 SHL DUP2 MSTORE PUSH1 0x4 ADD PUSH2 0xCC0 SWAP1 PUSH2 0x386B JUMP JUMPDEST PUSH2 0x13CE PUSH2 0x2DA1 JUMP JUMPDEST PUSH1 0x60 PUSH1 0x1 DUP1 SLOAD PUSH2 0xBC8 SWAP1 PUSH2 0x3830 JUMP JUMPDEST PUSH2 0xE98 CALLER DUP4 DUP4 PUSH2 0x2DF9 JUMP JUMPDEST PUSH1 0x6 SLOAD PUSH1 0x1 PUSH1 0x1 PUSH1 0xA0 SHL SUB PUSH2 0x100 SWAP1 SWAP2 DIV AND CALLER EQ PUSH2 0x2047 JUMPI PUSH1 0x40 MLOAD PUSH3 0x461BCD PUSH1 0xE5 SHL DUP2 MSTORE PUSH1 0x4 ADD PUSH2 0xCC0 SWAP1 PUSH2 0x386B JUMP JUMPDEST PUSH1 0xC SLOAD PUSH1 0x2 PUSH1 0xFF SWAP1 SWAP2 AND LT PUSH2 0x209E JUMPI PUSH1 0x40 MLOAD PUSH3 0x461BCD PUSH1 0xE5 SHL DUP2 MSTORE PUSH1 0x20 PUSH1 0x4 DUP3 ADD MSTORE PUSH1 0x1C PUSH1 0x24 DUP3 ADD MSTORE PUSH32 0x57686974656C6973742073616C6520697320636F6E636C756465642E00000000 PUSH1 0x44 DUP3 ADD MSTORE PUSH1 0x64 ADD PUSH2 0xCC0 JUMP JUMPDEST PUSH1 0x0 JUMPDEST DUP3 MLOAD DUP2 LT ISZERO PUSH2 0xDF6 JUMPI DUP2 DUP2 DUP2 MLOAD DUP2 LT PUSH2 0x20BC JUMPI PUSH2 0x20BC PUSH2 0x391E JUMP JUMPDEST PUSH1 0x20 MUL PUSH1 0x20 ADD ADD MLOAD PUSH1 0xE PUSH1 0x0 DUP6 DUP5 DUP2 MLOAD DUP2 LT PUSH2 0x20DA JUMPI PUSH2 0x20DA PUSH2 0x391E JUMP JUMPDEST PUSH1 0x20 MUL PUSH1 0x20 ADD ADD MLOAD PUSH1 0x1 PUSH1 0x1 PUSH1 0xA0 SHL SUB AND PUSH1 0x1 PUSH1 0x1 PUSH1 0xA0 SHL SUB AND DUP2 MSTORE PUSH1 0x20 ADD SWAP1 DUP2 MSTORE PUSH1 0x20 ADD PUSH1 0x0 KECCAK256 PUSH1 0x0 PUSH2 0x100 EXP DUP2 SLOAD DUP2 PUSH1 0xFF MUL NOT AND SWAP1 DUP4 PUSH1 0xFF AND MUL OR SWAP1 SSTORE POP DUP1 DUP1 PUSH2 0x2125 SWAP1 PUSH2 0x3934 JUMP JUMPDEST SWAP2 POP POP PUSH2 0x20A1 JUMP JUMPDEST PUSH1 0x6 SLOAD PUSH1 0x1 PUSH1 0x1 PUSH1 0xA0 SHL SUB PUSH2 0x100 SWAP1 SWAP2 DIV AND CALLER EQ PUSH2 0x215D JUMPI PUSH1 0x40 MLOAD PUSH3 0x461BCD PUSH1 0xE5 SHL DUP2 MSTORE PUSH1 0x4 ADD PUSH2 0xCC0 SWAP1 PUSH2 0x386B JUMP JUMPDEST PUSH1 0xC SLOAD PUSH4 0x1000000 SWAP1 DIV PUSH1 0xFF AND ISZERO ISZERO PUSH1 0x1 EQ PUSH2 0x218B JUMPI PUSH1 0x40 MLOAD PUSH3 0x461BCD PUSH1 0xE5 SHL DUP2 MSTORE PUSH1 0x4 ADD PUSH2 0xCC0 SWAP1 PUSH2 0x39B6 JUMP JUMPDEST PUSH1 0xC SLOAD PUSH1 0x2 PUSH1 0xFF SWAP1 SWAP2 AND LT PUSH2 0x21D9 JUMPI PUSH1 0x40 MLOAD PUSH3 0x461BCD PUSH1 0xE5 SHL DUP2 MSTORE PUSH1 0x20 PUSH1 0x4 DUP3 ADD MSTORE PUSH1 0x14 PUSH1 0x24 DUP3 ADD MSTORE PUSH20 0x2830B9BA10333932B29036B4B73A1039B0B63297 PUSH1 0x61 SHL PUSH1 0x44 DUP3 ADD MSTORE PUSH1 0x64 ADD PUSH2 0xCC0 JUMP JUMPDEST PUSH1 0xC SLOAD PUSH1 0xFF PUSH2 0x100 SWAP1 SWAP2 DIV DUP2 AND SWAP1 DUP4 AND GT ISZERO PUSH2 0x224A JUMPI PUSH1 0x40 MLOAD PUSH3 0x461BCD PUSH1 0xE5 SHL DUP2 MSTORE PUSH1 0x20 PUSH1 0x4 DUP3 ADD MSTORE PUSH1 0x2A PUSH1 0x24 DUP3 ADD MSTORE PUSH32 0x45786365656473206D617820616C6C6F77656420616D6F756E74207065722074 PUSH1 0x44 DUP3 ADD MSTORE PUSH10 0x3930B739B0B1BA34B7B7 PUSH1 0xB1 SHL PUSH1 0x64 DUP3 ADD MSTORE PUSH1 0x84 ADD PUSH2 0xCC0 JUMP JUMPDEST PUSH1 0x0 DUP3 PUSH1 0xFF AND GT PUSH2 0x22AB JUMPI PUSH1 0x40 MLOAD PUSH3 0x461BCD PUSH1 0xE5 SHL DUP2 MSTORE PUSH1 0x20 PUSH1 0x4 DUP3 ADD MSTORE PUSH1 0x25 PUSH1 0x24 DUP3 ADD MSTORE PUSH32 0x41697264726F7020616D6F756E74206D75737420626520677265617465722074 PUSH1 0x44 DUP3 ADD MSTORE PUSH5 0x68616E203 PUSH1 0xDC SHL PUSH1 0x64 DUP3 ADD MSTORE PUSH1 0x84 ADD PUSH2 0xCC0 JUMP JUMPDEST PUSH1 0x11 SLOAD DUP3 PUSH1 0xFF AND PUSH2 0x22BA PUSH2 0xE9C JUMP JUMPDEST PUSH2 0x22C4 SWAP2 SWAP1 PUSH2 0x399E JUMP JUMPDEST GT ISZERO PUSH2 0x2324 JUMPI PUSH1 0x40 MLOAD PUSH3 0x461BCD PUSH1 0xE5 SHL DUP2 MSTORE PUSH1 0x20 PUSH1 0x4 DUP3 ADD MSTORE PUSH1 0x29 PUSH1 0x24 DUP3 ADD MSTORE PUSH32 0x4D696E7420616D6F756E742077696C6C206578636565642077686974656C6973 PUSH1 0x44 DUP3 ADD MSTORE PUSH9 0x3A1039BAB838363C97 PUSH1 0xB9 SHL PUSH1 0x64 DUP3 ADD MSTORE PUSH1 0x84 ADD PUSH2 0xCC0 JUMP JUMPDEST PUSH1 0x1 JUMPDEST DUP3 PUSH1 0xFF AND DUP2 GT PUSH2 0xDF6 JUMPI PUSH2 0x233E DUP3 PUSH2 0x1D1C PUSH1 0x7 SLOAD SWAP1 JUMP JUMPDEST PUSH2 0x234C PUSH1 0x7 DUP1 SLOAD PUSH1 0x1 ADD SWAP1 SSTORE JUMP JUMPDEST DUP1 PUSH2 0x2356 DUP2 PUSH2 0x3934 JUMP JUMPDEST SWAP2 POP POP PUSH2 0x2327 JUMP JUMPDEST PUSH2 0x2368 CALLER DUP4 PUSH2 0x2932 JUMP JUMPDEST PUSH2 0x2384 JUMPI PUSH1 0x40 MLOAD PUSH3 0x461BCD PUSH1 0xE5 SHL DUP2 MSTORE PUSH1 0x4 ADD PUSH2 0xCC0 SWAP1 PUSH2 0x38CD JUMP JUMPDEST PUSH2 0x2390 DUP5 DUP5 DUP5 DUP5 PUSH2 0x2EC8 JUMP JUMPDEST POP POP POP POP JUMP JUMPDEST PUSH1 0xB DUP1 SLOAD PUSH2 0x15C6 SWAP1 PUSH2 0x3830 JUMP JUMPDEST PUSH1 0x9 DUP1 SLOAD PUSH2 0x15C6 SWAP1 PUSH2 0x3830 JUMP JUMPDEST PUSH1 0x0 DUP2 DUP2 MSTORE PUSH1 0x2 PUSH1 0x20 MSTORE PUSH1 0x40 SWAP1 KECCAK256 SLOAD PUSH1 0x60 SWAP1 PUSH1 0x1 PUSH1 0x1 PUSH1 0xA0 SHL SUB AND PUSH2 0x242F JUMPI PUSH1 0x40 MLOAD PUSH3 0x461BCD PUSH1 0xE5 SHL DUP2 MSTORE PUSH1 0x20 PUSH1 0x4 DUP3 ADD MSTORE PUSH1 0x2F PUSH1 0x24 DUP3 ADD MSTORE PUSH32 0x4552433732314D657461646174613A2055524920717565727920666F72206E6F PUSH1 0x44 DUP3 ADD MSTORE PUSH15 0x3732BC34B9BA32B73A103A37B5B2B7 PUSH1 0x89 SHL PUSH1 0x64 DUP3 ADD MSTORE PUSH1 0x84 ADD PUSH2 0xCC0 JUMP JUMPDEST PUSH1 0xA PUSH2 0x243A DUP4 PUSH2 0x2EFB JUMP JUMPDEST PUSH1 0xB PUSH1 0x40 MLOAD PUSH1 0x20 ADD PUSH2 0x244E SWAP4 SWAP3 SWAP2 SWAP1 PUSH2 0x3AAD JUMP JUMPDEST PUSH1 0x40 MLOAD PUSH1 0x20 DUP2 DUP4 SUB SUB DUP2 MSTORE SWAP1 PUSH1 0x40 MSTORE SWAP1 POP SWAP2 SWAP1 POP JUMP JUMPDEST PUSH1 0x6 SLOAD PUSH1 0x1 PUSH1 0x1 PUSH1 0xA0 SHL SUB PUSH2 0x100 SWAP1 SWAP2 DIV AND CALLER EQ PUSH2 0x2494 JUMPI PUSH1 0x40 MLOAD PUSH3 0x461BCD PUSH1 0xE5 SHL DUP2 MSTORE PUSH1 0x4 ADD PUSH2 0xCC0 SWAP1 PUSH2 0x386B JUMP JUMPDEST PUSH1 0xC SLOAD PUSH4 0x1000000 SWAP1 DIV PUSH1 0xFF AND ISZERO ISZERO PUSH1 0x1 EQ PUSH2 0x24C2 JUMPI PUSH1 0x40 MLOAD PUSH3 0x461BCD PUSH1 0xE5 SHL DUP2 MSTORE PUSH1 0x4 ADD PUSH2 0xCC0 SWAP1 PUSH2 0x39B6 JUMP JUMPDEST PUSH1 0xC SLOAD PUSH1 0xFF AND PUSH2 0x250C JUMPI PUSH1 0x40 MLOAD PUSH3 0x461BCD PUSH1 0xE5 SHL DUP2 MSTORE PUSH1 0x20 PUSH1 0x4 DUP3 ADD MSTORE PUSH1 0x15 PUSH1 0x24 DUP3 ADD MSTORE PUSH21 0x139BC81CDD1859D95CC81899599BDC99481A5B9A5D PUSH1 0x5A SHL PUSH1 0x44 DUP3 ADD MSTORE PUSH1 0x64 ADD PUSH2 0xCC0 JUMP JUMPDEST PUSH1 0xC DUP1 SLOAD PUSH1 0xFF AND SWAP1 PUSH1 0x0 PUSH2 0x251F DUP4 PUSH2 0x3AE0 JUMP JUMPDEST SWAP2 SWAP1 PUSH2 0x100 EXP DUP2 SLOAD DUP2 PUSH1 0xFF MUL NOT AND SWAP1 DUP4 PUSH1 0xFF AND MUL OR SWAP1 SSTORE POP POP JUMP JUMPDEST PUSH1 0x0 DUP1 PUSH2 0x2545 PUSH2 0xE9C JUMP JUMPDEST GT PUSH2 0x258B JUMPI PUSH1 0x40 MLOAD PUSH3 0x461BCD PUSH1 0xE5 SHL DUP2 MSTORE PUSH1 0x20 PUSH1 0x4 DUP3 ADD MSTORE PUSH1 0x16 PUSH1 0x24 DUP3 ADD MSTORE PUSH22 0x27379031B93CB83A34B21032BC34B9BA39903CB2BA17 PUSH1 0x51 SHL PUSH1 0x44 DUP3 ADD MSTORE PUSH1 0x64 ADD PUSH2 0xCC0 JUMP JUMPDEST PUSH2 0xEB3 PUSH2 0xE9C JUMP JUMPDEST PUSH1 0x6 SLOAD PUSH1 0x1 PUSH1 0x1 PUSH1 0xA0 SHL SUB PUSH2 0x100 SWAP1 SWAP2 DIV AND CALLER EQ PUSH2 0x25C3 JUMPI PUSH1 0x40 MLOAD PUSH3 0x461BCD PUSH1 0xE5 SHL DUP2 MSTORE PUSH1 0x4 ADD PUSH2 0xCC0 SWAP1 PUSH2 0x386B JUMP JUMPDEST DUP1 MLOAD PUSH2 0xE98 SWAP1 PUSH1 0xB SWAP1 PUSH1 0x20 DUP5 ADD SWAP1 PUSH2 0x329B JUMP JUMPDEST PUSH1 0x0 PUSH2 0x25E0 PUSH2 0xE9C JUMP JUMPDEST PUSH1 0x18 SLOAD PUSH2 0xEB3 SWAP2 SWAP1 PUSH2 0x38B6 JUMP JUMPDEST PUSH1 0x6 SLOAD PUSH1 0x1 PUSH1 0x1 PUSH1 0xA0 SHL SUB PUSH2 0x100 SWAP1 SWAP2 DIV AND CALLER EQ PUSH2 0x261D JUMPI PUSH1 0x40 MLOAD PUSH3 0x461BCD PUSH1 0xE5 SHL DUP2 MSTORE PUSH1 0x4 ADD PUSH2 0xCC0 SWAP1 PUSH2 0x386B JUMP JUMPDEST PUSH1 0xC DUP1 SLOAD PUSH5 0x100000000 PUSH1 0x1 PUSH1 0xC0 SHL SUB NOT AND PUSH5 0x100000000 PUSH1 0x1 PUSH1 0x1 PUSH1 0xA0 SHL SUB SWAP5 DUP6 AND MUL OR SWAP1 SSTORE PUSH1 0xD DUP1 SLOAD PUSH1 0x1 PUSH1 0x1 PUSH1 0xA0 SHL SUB NOT AND SWAP2 SWAP1 SWAP3 AND OR SWAP1 SSTORE JUMP JUMPDEST PUSH1 0x6 SLOAD PUSH1 0x1 PUSH1 0x1 PUSH1 0xA0 SHL SUB PUSH2 0x100 SWAP1 SWAP2 DIV AND CALLER EQ PUSH2 0x268B JUMPI PUSH1 0x40 MLOAD PUSH3 0x461BCD PUSH1 0xE5 SHL DUP2 MSTORE PUSH1 0x4 ADD PUSH2 0xCC0 SWAP1 PUSH2 0x386B JUMP JUMPDEST PUSH1 0x0 PUSH1 0xA DUP1 SLOAD PUSH2 0x269A SWAP1 PUSH2 0x3830 JUMP JUMPDEST SWAP1 POP GT PUSH2 0x26E9 JUMPI PUSH1 0x40 MLOAD PUSH3 0x461BCD PUSH1 0xE5 SHL DUP2 MSTORE PUSH1 0x20 PUSH1 0x4 DUP3 ADD MSTORE PUSH1 0x17 PUSH1 0x24 DUP3 ADD MSTORE PUSH32 0x626173655552492063616E6E6F7420626520656D707479000000000000000000 PUSH1 0x44 DUP3 ADD MSTORE PUSH1 0x64 ADD PUSH2 0xCC0 JUMP JUMPDEST PUSH1 0xC SLOAD PUSH3 0x10000 SWAP1 DIV PUSH1 0xFF AND ISZERO PUSH2 0x2742 JUMPI PUSH1 0x40 MLOAD PUSH3 0x461BCD PUSH1 0xE5 SHL DUP2 MSTORE PUSH1 0x20 PUSH1 0x4 DUP3 ADD MSTORE PUSH1 0x1A PUSH1 0x24 DUP3 ADD MSTORE PUSH32 0x4261736555524920697320616C72656164792066726F7A656E2E000000000000 PUSH1 0x44 DUP3 ADD MSTORE PUSH1 0x64 ADD PUSH2 0xCC0 JUMP JUMPDEST PUSH1 0xC DUP1 SLOAD PUSH3 0xFF0000 NOT AND PUSH3 0x10000 OR SWAP1 SSTORE JUMP JUMPDEST PUSH1 0x6 SLOAD PUSH1 0x1 PUSH1 0x1 PUSH1 0xA0 SHL SUB PUSH2 0x100 SWAP1 SWAP2 DIV AND CALLER EQ PUSH2 0x2785 JUMPI PUSH1 0x40 MLOAD PUSH3 0x461BCD PUSH1 0xE5 SHL DUP2 MSTORE PUSH1 0x4 ADD PUSH2 0xCC0 SWAP1 PUSH2 0x386B JUMP JUMPDEST PUSH1 0xC SLOAD PUSH4 0x1000000 SWAP1 DIV PUSH1 0xFF AND ISZERO ISZERO PUSH1 0x1 EQ PUSH2 0x27B3 JUMPI PUSH1 0x40 MLOAD PUSH3 0x461BCD PUSH1 0xE5 SHL DUP2 MSTORE PUSH1 0x4 ADD PUSH2 0xCC0 SWAP1 PUSH2 0x39B6 JUMP JUMPDEST PUSH1 0xC SLOAD PUSH1 0x4 PUSH1 0xFF SWAP1 SWAP2 AND LT PUSH2 0x280A JUMPI PUSH1 0x40 MLOAD PUSH3 0x461BCD PUSH1 0xE5 SHL DUP2 MSTORE PUSH1 0x20 PUSH1 0x4 DUP3 ADD MSTORE PUSH1 0x1B PUSH1 0x24 DUP3 ADD MSTORE PUSH32 0x4E6F20737461676573206166746572207075626C69632073616C650000000000 PUSH1 0x44 DUP3 ADD MSTORE PUSH1 0x64 ADD PUSH2 0xCC0 JUMP JUMPDEST PUSH1 0xC DUP1 SLOAD PUSH1 0xFF AND SWAP1 PUSH1 0x0 PUSH2 0x251F DUP4 PUSH2 0x3AFD JUMP JUMPDEST PUSH1 0x6 SLOAD PUSH1 0x1 PUSH1 0x1 PUSH1 0xA0 SHL SUB PUSH2 0x100 SWAP1 SWAP2 DIV AND CALLER EQ PUSH2 0x284D JUMPI PUSH1 0x40 MLOAD PUSH3 0x461BCD PUSH1 0xE5 SHL DUP2 MSTORE PUSH1 0x4 ADD PUSH2 0xCC0 SWAP1 PUSH2 0x386B JUMP JUMPDEST PUSH1 0x1 PUSH1 0x1 PUSH1 0xA0 SHL SUB DUP2 AND PUSH2 0x28B2 JUMPI PUSH1 0x40 MLOAD PUSH3 0x461BCD PUSH1 0xE5 SHL DUP2 MSTORE PUSH1 0x20 PUSH1 0x4 DUP3 ADD MSTORE PUSH1 0x26 PUSH1 0x24 DUP3 ADD MSTORE PUSH32 0x4F776E61626C653A206E6577206F776E657220697320746865207A65726F2061 PUSH1 0x44 DUP3 ADD MSTORE PUSH6 0x646472657373 PUSH1 0xD0 SHL PUSH1 0x64 DUP3 ADD MSTORE PUSH1 0x84 ADD PUSH2 0xCC0 JUMP JUMPDEST PUSH2 0x1462 DUP2 PUSH2 0x2D47 JUMP JUMPDEST DUP1 SLOAD PUSH1 0x1 ADD SWAP1 SSTORE JUMP JUMPDEST PUSH1 0x0 DUP2 DUP2 MSTORE PUSH1 0x4 PUSH1 0x20 MSTORE PUSH1 0x40 SWAP1 KECCAK256 DUP1 SLOAD PUSH1 0x1 PUSH1 0x1 PUSH1 0xA0 SHL SUB NOT AND PUSH1 0x1 PUSH1 0x1 PUSH1 0xA0 SHL SUB DUP5 AND SWAP1 DUP2 OR SWAP1 SWAP2 SSTORE DUP2 SWAP1 PUSH2 0x28F9 DUP3 PUSH2 0x1542 JUMP JUMPDEST PUSH1 0x1 PUSH1 0x1 PUSH1 0xA0 SHL SUB AND PUSH32 0x8C5BE1E5EBEC7D5BD14F71427D1E84F3DD0314C0F7B2291E5B200AC8C7C3B925 PUSH1 0x40 MLOAD PUSH1 0x40 MLOAD DUP1 SWAP2 SUB SWAP1 LOG4 POP POP JUMP JUMPDEST PUSH1 0x0 DUP2 DUP2 MSTORE PUSH1 0x2 PUSH1 0x20 MSTORE PUSH1 0x40 DUP2 KECCAK256 SLOAD PUSH1 0x1 PUSH1 0x1 PUSH1 0xA0 SHL SUB AND PUSH2 0x29AB JUMPI PUSH1 0x40 MLOAD PUSH3 0x461BCD PUSH1 0xE5 SHL DUP2 MSTORE PUSH1 0x20 PUSH1 0x4 DUP3 ADD MSTORE PUSH1 0x2C PUSH1 0x24 DUP3 ADD MSTORE PUSH32 0x4552433732313A206F70657261746F7220717565727920666F72206E6F6E6578 PUSH1 0x44 DUP3 ADD MSTORE PUSH12 0x34B9BA32B73A103A37B5B2B7 PUSH1 0xA1 SHL PUSH1 0x64 DUP3 ADD MSTORE PUSH1 0x84 ADD PUSH2 0xCC0 JUMP JUMPDEST PUSH1 0x0 PUSH2 0x29B6 DUP4 PUSH2 0x1542 JUMP JUMPDEST SWAP1 POP DUP1 PUSH1 0x1 PUSH1 0x1 PUSH1 0xA0 SHL SUB AND DUP5 PUSH1 0x1 PUSH1 0x1 PUSH1 0xA0 SHL SUB AND EQ DUP1 PUSH2 0x29F1 JUMPI POP DUP4 PUSH1 0x1 PUSH1 0x1 PUSH1 0xA0 SHL SUB AND PUSH2 0x29E6 DUP5 PUSH2 0xC4B JUMP JUMPDEST PUSH1 0x1 PUSH1 0x1 PUSH1 0xA0 SHL SUB AND EQ JUMPDEST DUP1 PUSH2 0x2A21 JUMPI POP PUSH1 0x1 PUSH1 0x1 PUSH1 0xA0 SHL SUB DUP1 DUP3 AND PUSH1 0x0 SWAP1 DUP2 MSTORE PUSH1 0x5 PUSH1 0x20 SWAP1 DUP2 MSTORE PUSH1 0x40 DUP1 DUP4 KECCAK256 SWAP4 DUP9 AND DUP4 MSTORE SWAP3 SWAP1 MSTORE KECCAK256 SLOAD PUSH1 0xFF AND JUMPDEST SWAP5 SWAP4 POP POP POP POP JUMP JUMPDEST DUP3 PUSH1 0x1 PUSH1 0x1 PUSH1 0xA0 SHL SUB AND PUSH2 0x2A3C DUP3 PUSH2 0x1542 JUMP JUMPDEST PUSH1 0x1 PUSH1 0x1 PUSH1 0xA0 SHL SUB AND EQ PUSH2 0x2AA4 JUMPI PUSH1 0x40 MLOAD PUSH3 0x461BCD PUSH1 0xE5 SHL DUP2 MSTORE PUSH1 0x20 PUSH1 0x4 DUP3 ADD MSTORE PUSH1 0x29 PUSH1 0x24 DUP3 ADD MSTORE PUSH32 0x4552433732313A207472616E73666572206F6620746F6B656E20746861742069 PUSH1 0x44 DUP3 ADD MSTORE PUSH9 0x39903737BA1037BBB7 PUSH1 0xB9 SHL PUSH1 0x64 DUP3 ADD MSTORE PUSH1 0x84 ADD PUSH2 0xCC0 JUMP JUMPDEST PUSH1 0x1 PUSH1 0x1 PUSH1 0xA0 SHL SUB DUP3 AND PUSH2 0x2B06 JUMPI PUSH1 0x40 MLOAD PUSH3 0x461BCD PUSH1 0xE5 SHL DUP2 MSTORE PUSH1 0x20 PUSH1 0x4 DUP3 ADD MSTORE PUSH1 0x24 DUP1 DUP3 ADD MSTORE PUSH32 0x4552433732313A207472616E7366657220746F20746865207A65726F20616464 PUSH1 0x44 DUP3 ADD MSTORE PUSH4 0x72657373 PUSH1 0xE0 SHL PUSH1 0x64 DUP3 ADD MSTORE PUSH1 0x84 ADD PUSH2 0xCC0 JUMP JUMPDEST PUSH2 0x2B11 DUP4 DUP4 DUP4 PUSH2 0x2FF9 JUMP JUMPDEST PUSH2 0x2B1C PUSH1 0x0 DUP3 PUSH2 0x28C4 JUMP JUMPDEST PUSH1 0x1 PUSH1 0x1 PUSH1 0xA0 SHL SUB DUP4 AND PUSH1 0x0 SWAP1 DUP2 MSTORE PUSH1 0x3 PUSH1 0x20 MSTORE PUSH1 0x40 DUP2 KECCAK256 DUP1 SLOAD PUSH1 0x1 SWAP3 SWAP1 PUSH2 0x2B45 SWAP1 DUP5 SWAP1 PUSH2 0x38B6 JUMP JUMPDEST SWAP1 SWAP2 SSTORE POP POP PUSH1 0x1 PUSH1 0x1 PUSH1 0xA0 SHL SUB DUP3 AND PUSH1 0x0 SWAP1 DUP2 MSTORE PUSH1 0x3 PUSH1 0x20 MSTORE PUSH1 0x40 DUP2 KECCAK256 DUP1 SLOAD PUSH1 0x1 SWAP3 SWAP1 PUSH2 0x2B73 SWAP1 DUP5 SWAP1 PUSH2 0x399E JUMP JUMPDEST SWAP1 SWAP2 SSTORE POP POP PUSH1 0x0 DUP2 DUP2 MSTORE PUSH1 0x2 PUSH1 0x20 MSTORE PUSH1 0x40 DUP1 DUP3 KECCAK256 DUP1 SLOAD PUSH1 0x1 PUSH1 0x1 PUSH1 0xA0 SHL SUB NOT AND PUSH1 0x1 PUSH1 0x1 PUSH1 0xA0 SHL SUB DUP7 DUP2 AND SWAP2 DUP3 OR SWAP1 SWAP3 SSTORE SWAP2 MLOAD DUP5 SWAP4 SWAP2 DUP8 AND SWAP2 PUSH32 0xDDF252AD1BE2C89B69C2B068FC378DAA952BA7F163C4A11628F55A4DF523B3EF SWAP2 LOG4 POP POP POP JUMP JUMPDEST PUSH1 0x0 PUSH2 0x2BE0 DUP3 DUP5 PUSH2 0x3B1D JUMP JUMPDEST SWAP4 SWAP3 POP POP POP JUMP JUMPDEST PUSH1 0x0 PUSH2 0x2BE0 DUP3 DUP5 PUSH2 0x3B52 JUMP JUMPDEST PUSH1 0x6 SLOAD PUSH1 0xFF AND PUSH2 0x2C3C JUMPI PUSH1 0x40 MLOAD PUSH3 0x461BCD PUSH1 0xE5 SHL DUP2 MSTORE PUSH1 0x20 PUSH1 0x4 DUP3 ADD MSTORE PUSH1 0x14 PUSH1 0x24 DUP3 ADD MSTORE PUSH20 0x14185D5CD8589B194E881B9BDD081C185D5CD959 PUSH1 0x62 SHL PUSH1 0x44 DUP3 ADD MSTORE PUSH1 0x64 ADD PUSH2 0xCC0 JUMP JUMPDEST PUSH1 0x6 DUP1 SLOAD PUSH1 0xFF NOT AND SWAP1 SSTORE PUSH32 0x5DB9EE0A495BF2E6FF9C91A7834C1BA4FDD244A5E8AA4E537BD38AEAE4B073AA CALLER JUMPDEST PUSH1 0x40 MLOAD PUSH1 0x1 PUSH1 0x1 PUSH1 0xA0 SHL SUB SWAP1 SWAP2 AND DUP2 MSTORE PUSH1 0x20 ADD PUSH1 0x40 MLOAD DUP1 SWAP2 SUB SWAP1 LOG1 JUMP JUMPDEST PUSH1 0x0 PUSH2 0x2C91 DUP3 PUSH2 0x1542 JUMP JUMPDEST SWAP1 POP PUSH2 0x2C9F DUP2 PUSH1 0x0 DUP5 PUSH2 0x2FF9 JUMP JUMPDEST PUSH2 0x2CAA PUSH1 0x0 DUP4 PUSH2 0x28C4 JUMP JUMPDEST PUSH1 0x1 PUSH1 0x1 PUSH1 0xA0 SHL SUB DUP2 AND PUSH1 0x0 SWAP1 DUP2 MSTORE PUSH1 0x3 PUSH1 0x20 MSTORE PUSH1 0x40 DUP2 KECCAK256 DUP1 SLOAD PUSH1 0x1 SWAP3 SWAP1 PUSH2 0x2CD3 SWAP1 DUP5 SWAP1 PUSH2 0x38B6 JUMP JUMPDEST SWAP1 SWAP2 SSTORE POP POP PUSH1 0x0 DUP3 DUP2 MSTORE PUSH1 0x2 PUSH1 0x20 MSTORE PUSH1 0x40 DUP1 DUP3 KECCAK256 DUP1 SLOAD PUSH1 0x1 PUSH1 0x1 PUSH1 0xA0 SHL SUB NOT AND SWAP1 SSTORE MLOAD DUP4 SWAP2 SWAP1 PUSH1 0x1 PUSH1 0x1 PUSH1 0xA0 SHL SUB DUP5 AND SWAP1 PUSH32 0xDDF252AD1BE2C89B69C2B068FC378DAA952BA7F163C4A11628F55A4DF523B3EF SWAP1 DUP4 SWAP1 LOG4 POP POP JUMP JUMPDEST PUSH2 0xE98 DUP3 DUP3 PUSH1 0x40 MLOAD DUP1 PUSH1 0x20 ADD PUSH1 0x40 MSTORE DUP1 PUSH1 0x0 DUP2 MSTORE POP PUSH2 0x301C JUMP JUMPDEST PUSH1 0x6 DUP1 SLOAD PUSH1 0x1 PUSH1 0x1 PUSH1 0xA0 SHL SUB DUP4 DUP2 AND PUSH2 0x100 DUP2 DUP2 MUL PUSH2 0x100 PUSH1 0x1 PUSH1 0xA8 SHL SUB NOT DUP6 AND OR SWAP1 SWAP5 SSTORE PUSH1 0x40 MLOAD SWAP4 SWAP1 SWAP3 DIV AND SWAP2 DUP3 SWAP1 PUSH32 0x8BE0079C531659141344CD1FD0A4F28419497F9722A3DAAFE3B4186F6B6457E0 SWAP1 PUSH1 0x0 SWAP1 LOG3 POP POP JUMP JUMPDEST PUSH1 0x6 SLOAD PUSH1 0xFF AND ISZERO PUSH2 0x2DC4 JUMPI PUSH1 0x40 MLOAD PUSH3 0x461BCD PUSH1 0xE5 SHL DUP2 MSTORE PUSH1 0x4 ADD PUSH2 0xCC0 SWAP1 PUSH2 0x394F JUMP JUMPDEST PUSH1 0x6 DUP1 SLOAD PUSH1 0xFF NOT AND PUSH1 0x1 OR SWAP1 SSTORE PUSH32 0x62E78CEA01BEE320CD4E420270B5EA74000D11B0C9F74754EBDBFC544B05A258 PUSH2 0x2C69 CALLER SWAP1 JUMP JUMPDEST DUP2 PUSH1 0x1 PUSH1 0x1 PUSH1 0xA0 SHL SUB AND DUP4 PUSH1 0x1 PUSH1 0x1 PUSH1 0xA0 SHL SUB AND EQ ISZERO PUSH2 0x2E5B JUMPI PUSH1 0x40 MLOAD PUSH3 0x461BCD PUSH1 0xE5 SHL DUP2 MSTORE PUSH1 0x20 PUSH1 0x4 DUP3 ADD MSTORE PUSH1 0x19 PUSH1 0x24 DUP3 ADD MSTORE PUSH32 0x4552433732313A20617070726F766520746F2063616C6C657200000000000000 PUSH1 0x44 DUP3 ADD MSTORE PUSH1 0x64 ADD PUSH2 0xCC0 JUMP JUMPDEST PUSH1 0x1 PUSH1 0x1 PUSH1 0xA0 SHL SUB DUP4 DUP2 AND PUSH1 0x0 DUP2 DUP2 MSTORE PUSH1 0x5 PUSH1 0x20 SWAP1 DUP2 MSTORE PUSH1 0x40 DUP1 DUP4 KECCAK256 SWAP5 DUP8 AND DUP1 DUP5 MSTORE SWAP5 DUP3 MSTORE SWAP2 DUP3 SWAP1 KECCAK256 DUP1 SLOAD PUSH1 0xFF NOT AND DUP7 ISZERO ISZERO SWAP1 DUP2 OR SWAP1 SWAP2 SSTORE SWAP2 MLOAD SWAP2 DUP3 MSTORE PUSH32 0x17307EAB39AB6107E8899845AD3D59BD9653F200F220920489CA2B5937696C31 SWAP2 ADD PUSH1 0x40 MLOAD DUP1 SWAP2 SUB SWAP1 LOG3 POP POP POP JUMP JUMPDEST PUSH2 0x2ED3 DUP5 DUP5 DUP5 PUSH2 0x2A29 JUMP JUMPDEST PUSH2 0x2EDF DUP5 DUP5 DUP5 DUP5 PUSH2 0x304F JUMP JUMPDEST PUSH2 0x2390 JUMPI PUSH1 0x40 MLOAD PUSH3 0x461BCD PUSH1 0xE5 SHL DUP2 MSTORE PUSH1 0x4 ADD PUSH2 0xCC0 SWAP1 PUSH2 0x3B66 JUMP JUMPDEST PUSH1 0x60 DUP2 PUSH2 0x2F1F JUMPI POP POP PUSH1 0x40 DUP1 MLOAD DUP1 DUP3 ADD SWAP1 SWAP2 MSTORE PUSH1 0x1 DUP2 MSTORE PUSH1 0x3 PUSH1 0xFC SHL PUSH1 0x20 DUP3 ADD MSTORE SWAP1 JUMP JUMPDEST DUP2 PUSH1 0x0 JUMPDEST DUP2 ISZERO PUSH2 0x2F49 JUMPI DUP1 PUSH2 0x2F33 DUP2 PUSH2 0x3934 JUMP JUMPDEST SWAP2 POP PUSH2 0x2F42 SWAP1 POP PUSH1 0xA DUP4 PUSH2 0x3B52 JUMP JUMPDEST SWAP2 POP PUSH2 0x2F23 JUMP JUMPDEST PUSH1 0x0 DUP2 PUSH8 0xFFFFFFFFFFFFFFFF DUP2 GT ISZERO PUSH2 0x2F64 JUMPI PUSH2 0x2F64 PUSH2 0x3431 JUMP JUMPDEST PUSH1 0x40 MLOAD SWAP1 DUP1 DUP3 MSTORE DUP1 PUSH1 0x1F ADD PUSH1 0x1F NOT AND PUSH1 0x20 ADD DUP3 ADD PUSH1 0x40 MSTORE DUP1 ISZERO PUSH2 0x2F8E JUMPI PUSH1 0x20 DUP3 ADD DUP2 DUP1 CALLDATASIZE DUP4 CALLDATACOPY ADD SWAP1 POP JUMPDEST POP SWAP1 POP JUMPDEST DUP5 ISZERO PUSH2 0x2A21 JUMPI PUSH2 0x2FA3 PUSH1 0x1 DUP4 PUSH2 0x38B6 JUMP JUMPDEST SWAP2 POP PUSH2 0x2FB0 PUSH1 0xA DUP7 PUSH2 0x3BB8 JUMP JUMPDEST PUSH2 0x2FBB SWAP1 PUSH1 0x30 PUSH2 0x399E JUMP JUMPDEST PUSH1 0xF8 SHL DUP2 DUP4 DUP2 MLOAD DUP2 LT PUSH2 0x2FD0 JUMPI PUSH2 0x2FD0 PUSH2 0x391E JUMP JUMPDEST PUSH1 0x20 ADD ADD SWAP1 PUSH1 0x1 PUSH1 0x1 PUSH1 0xF8 SHL SUB NOT AND SWAP1 DUP2 PUSH1 0x0 BYTE SWAP1 MSTORE8 POP PUSH2 0x2FF2 PUSH1 0xA DUP7 PUSH2 0x3B52 JUMP JUMPDEST SWAP5 POP PUSH2 0x2F92 JUMP JUMPDEST PUSH1 0x6 SLOAD PUSH1 0xFF AND ISZERO PUSH2 0xDF6 JUMPI PUSH1 0x40 MLOAD PUSH3 0x461BCD PUSH1 0xE5 SHL DUP2 MSTORE PUSH1 0x4 ADD PUSH2 0xCC0 SWAP1 PUSH2 0x394F JUMP JUMPDEST PUSH2 0x3026 DUP4 DUP4 PUSH2 0x314D JUMP JUMPDEST PUSH2 0x3033 PUSH1 0x0 DUP5 DUP5 DUP5 PUSH2 0x304F JUMP JUMPDEST PUSH2 0xDF6 JUMPI PUSH1 0x40 MLOAD PUSH3 0x461BCD PUSH1 0xE5 SHL DUP2 MSTORE PUSH1 0x4 ADD PUSH2 0xCC0 SWAP1 PUSH2 0x3B66 JUMP JUMPDEST PUSH1 0x0 PUSH1 0x1 PUSH1 0x1 PUSH1 0xA0 SHL SUB DUP5 AND EXTCODESIZE ISZERO PUSH2 0x3142 JUMPI PUSH1 0x40 MLOAD PUSH4 0xA85BD01 PUSH1 0xE1 SHL DUP2 MSTORE PUSH1 0x1 PUSH1 0x1 PUSH1 0xA0 SHL SUB DUP6 AND SWAP1 PUSH4 0x150B7A02 SWAP1 PUSH2 0x3093 SWAP1 CALLER SWAP1 DUP10 SWAP1 DUP9 SWAP1 DUP9 SWAP1 PUSH1 0x4 ADD PUSH2 0x3BCC JUMP JUMPDEST PUSH1 0x20 PUSH1 0x40 MLOAD DUP1 DUP4 SUB DUP2 PUSH1 0x0 DUP8 GAS CALL SWAP3 POP POP POP DUP1 ISZERO PUSH2 0x30CE JUMPI POP PUSH1 0x40 DUP1 MLOAD PUSH1 0x1F RETURNDATASIZE SWAP1 DUP2 ADD PUSH1 0x1F NOT AND DUP3 ADD SWAP1 SWAP3 MSTORE PUSH2 0x30CB SWAP2 DUP2 ADD SWAP1 PUSH2 0x3C09 JUMP JUMPDEST PUSH1 0x1 JUMPDEST PUSH2 0x3128 JUMPI RETURNDATASIZE DUP1 DUP1 ISZERO PUSH2 0x30FC JUMPI PUSH1 0x40 MLOAD SWAP2 POP PUSH1 0x1F NOT PUSH1 0x3F RETURNDATASIZE ADD AND DUP3 ADD PUSH1 0x40 MSTORE RETURNDATASIZE DUP3 MSTORE RETURNDATASIZE PUSH1 0x0 PUSH1 0x20 DUP5 ADD RETURNDATACOPY PUSH2 0x3101 JUMP JUMPDEST PUSH1 0x60 SWAP2 POP JUMPDEST POP DUP1 MLOAD PUSH2 0x3120 JUMPI PUSH1 0x40 MLOAD PUSH3 0x461BCD PUSH1 0xE5 SHL DUP2 MSTORE PUSH1 0x4 ADD PUSH2 0xCC0 SWAP1 PUSH2 0x3B66 JUMP JUMPDEST DUP1 MLOAD DUP2 PUSH1 0x20 ADD REVERT JUMPDEST PUSH1 0x1 PUSH1 0x1 PUSH1 0xE0 SHL SUB NOT AND PUSH4 0xA85BD01 PUSH1 0xE1 SHL EQ SWAP1 POP PUSH2 0x2A21 JUMP JUMPDEST POP PUSH1 0x1 SWAP5 SWAP4 POP POP POP POP JUMP JUMPDEST PUSH1 0x1 PUSH1 0x1 PUSH1 0xA0 SHL SUB DUP3 AND PUSH2 0x31A3 JUMPI PUSH1 0x40 MLOAD PUSH3 0x461BCD PUSH1 0xE5 SHL DUP2 MSTORE PUSH1 0x20 PUSH1 0x4 DUP3 ADD DUP2 SWAP1 MSTORE PUSH1 0x24 DUP3 ADD MSTORE PUSH32 0x4552433732313A206D696E7420746F20746865207A65726F2061646472657373 PUSH1 0x44 DUP3 ADD MSTORE PUSH1 0x64 ADD PUSH2 0xCC0 JUMP JUMPDEST PUSH1 0x0 DUP2 DUP2 MSTORE PUSH1 0x2 PUSH1 0x20 MSTORE PUSH1 0x40 SWAP1 KECCAK256 SLOAD PUSH1 0x1 PUSH1 0x1 PUSH1 0xA0 SHL SUB AND ISZERO PUSH2 0x3208 JUMPI PUSH1 0x40 MLOAD PUSH3 0x461BCD PUSH1 0xE5 SHL DUP2 MSTORE PUSH1 0x20 PUSH1 0x4 DUP3 ADD MSTORE PUSH1 0x1C PUSH1 0x24 DUP3 ADD MSTORE PUSH32 0x4552433732313A20746F6B656E20616C7265616479206D696E74656400000000 PUSH1 0x44 DUP3 ADD MSTORE PUSH1 0x64 ADD PUSH2 0xCC0 JUMP JUMPDEST PUSH2 0x3214 PUSH1 0x0 DUP4 DUP4 PUSH2 0x2FF9 JUMP JUMPDEST PUSH1 0x1 PUSH1 0x1 PUSH1 0xA0 SHL SUB DUP3 AND PUSH1 0x0 SWAP1 DUP2 MSTORE PUSH1 0x3 PUSH1 0x20 MSTORE PUSH1 0x40 DUP2 KECCAK256 DUP1 SLOAD PUSH1 0x1 SWAP3 SWAP1 PUSH2 0x323D SWAP1 DUP5 SWAP1 PUSH2 0x399E JUMP JUMPDEST SWAP1 SWAP2 SSTORE POP POP PUSH1 0x0 DUP2 DUP2 MSTORE PUSH1 0x2 PUSH1 0x20 MSTORE PUSH1 0x40 DUP1 DUP3 KECCAK256 DUP1 SLOAD PUSH1 0x1 PUSH1 0x1 PUSH1 0xA0 SHL SUB NOT AND PUSH1 0x1 PUSH1 0x1 PUSH1 0xA0 SHL SUB DUP7 AND SWAP1 DUP2 OR SWAP1 SWAP2 SSTORE SWAP1 MLOAD DUP4 SWAP3 SWAP1 PUSH32 0xDDF252AD1BE2C89B69C2B068FC378DAA952BA7F163C4A11628F55A4DF523B3EF SWAP1 DUP3 SWAP1 LOG4 POP POP JUMP JUMPDEST DUP3 DUP1 SLOAD PUSH2 0x32A7 SWAP1 PUSH2 0x3830 JUMP JUMPDEST SWAP1 PUSH1 0x0 MSTORE PUSH1 0x20 PUSH1 0x0 KECCAK256 SWAP1 PUSH1 0x1F ADD PUSH1 0x20 SWAP1 DIV DUP2 ADD SWAP3 DUP3 PUSH2 0x32C9 JUMPI PUSH1 0x0 DUP6 SSTORE PUSH2 0x330F JUMP JUMPDEST DUP3 PUSH1 0x1F LT PUSH2 0x32E2 JUMPI DUP1 MLOAD PUSH1 0xFF NOT AND DUP4 DUP1 ADD OR DUP6 SSTORE PUSH2 0x330F JUMP JUMPDEST DUP3 DUP1 ADD PUSH1 0x1 ADD DUP6 SSTORE DUP3 ISZERO PUSH2 0x330F JUMPI SWAP2 DUP3 ADD JUMPDEST DUP3 DUP2 GT ISZERO PUSH2 0x330F JUMPI DUP3 MLOAD DUP3 SSTORE SWAP2 PUSH1 0x20 ADD SWAP2 SWAP1 PUSH1 0x1 ADD SWAP1 PUSH2 0x32F4 JUMP JUMPDEST POP PUSH2 0x331B SWAP3 SWAP2 POP PUSH2 0x331F JUMP JUMPDEST POP SWAP1 JUMP JUMPDEST JUMPDEST DUP1 DUP3 GT ISZERO PUSH2 0x331B JUMPI PUSH1 0x0 DUP2 SSTORE PUSH1 0x1 ADD PUSH2 0x3320 JUMP JUMPDEST PUSH1 0x1 PUSH1 0x1 PUSH1 0xE0 SHL SUB NOT DUP2 AND DUP2 EQ PUSH2 0x1462 JUMPI PUSH1 0x0 DUP1 REVERT JUMPDEST PUSH1 0x0 PUSH1 0x20 DUP3 DUP5 SUB SLT ISZERO PUSH2 0x335C JUMPI PUSH1 0x0 DUP1 REVERT JUMPDEST DUP2 CALLDATALOAD PUSH2 0x2BE0 DUP2 PUSH2 0x3334 JUMP JUMPDEST PUSH1 0x0 JUMPDEST DUP4 DUP2 LT ISZERO PUSH2 0x3382 JUMPI DUP2 DUP2 ADD MLOAD DUP4 DUP3 ADD MSTORE PUSH1 0x20 ADD PUSH2 0x336A JUMP JUMPDEST DUP4 DUP2 GT ISZERO PUSH2 0x2390 JUMPI POP POP PUSH1 0x0 SWAP2 ADD MSTORE JUMP JUMPDEST PUSH1 0x0 DUP2 MLOAD DUP1 DUP5 MSTORE PUSH2 0x33AB DUP2 PUSH1 0x20 DUP7 ADD PUSH1 0x20 DUP7 ADD PUSH2 0x3367 JUMP JUMPDEST PUSH1 0x1F ADD PUSH1 0x1F NOT AND SWAP3 SWAP1 SWAP3 ADD PUSH1 0x20 ADD SWAP3 SWAP2 POP POP JUMP JUMPDEST PUSH1 0x20 DUP2 MSTORE PUSH1 0x0 PUSH2 0x2BE0 PUSH1 0x20 DUP4 ADD DUP5 PUSH2 0x3393 JUMP JUMPDEST PUSH1 0x0 PUSH1 0x20 DUP3 DUP5 SUB SLT ISZERO PUSH2 0x33E4 JUMPI PUSH1 0x0 DUP1 REVERT JUMPDEST POP CALLDATALOAD SWAP2 SWAP1 POP JUMP JUMPDEST DUP1 CALLDATALOAD PUSH1 0x1 PUSH1 0x1 PUSH1 0xA0 SHL SUB DUP2 AND DUP2 EQ PUSH2 0x3402 JUMPI PUSH1 0x0 DUP1 REVERT JUMPDEST SWAP2 SWAP1 POP JUMP JUMPDEST PUSH1 0x0 DUP1 PUSH1 0x40 DUP4 DUP6 SUB SLT ISZERO PUSH2 0x341A JUMPI PUSH1 0x0 DUP1 REVERT JUMPDEST PUSH2 0x3423 DUP4 PUSH2 0x33EB JUMP JUMPDEST SWAP5 PUSH1 0x20 SWAP4 SWAP1 SWAP4 ADD CALLDATALOAD SWAP4 POP POP POP JUMP JUMPDEST PUSH4 0x4E487B71 PUSH1 0xE0 SHL PUSH1 0x0 MSTORE PUSH1 0x41 PUSH1 0x4 MSTORE PUSH1 0x24 PUSH1 0x0 REVERT JUMPDEST PUSH1 0x40 MLOAD PUSH1 0x1F DUP3 ADD PUSH1 0x1F NOT AND DUP2 ADD PUSH8 0xFFFFFFFFFFFFFFFF DUP2 GT DUP3 DUP3 LT OR ISZERO PUSH2 0x3470 JUMPI PUSH2 0x3470 PUSH2 0x3431 JUMP JUMPDEST PUSH1 0x40 MSTORE SWAP2 SWAP1 POP JUMP JUMPDEST PUSH1 0x0 PUSH8 0xFFFFFFFFFFFFFFFF DUP4 GT ISZERO PUSH2 0x3492 JUMPI PUSH2 0x3492 PUSH2 0x3431 JUMP JUMPDEST PUSH2 0x34A5 PUSH1 0x1F DUP5 ADD PUSH1 0x1F NOT AND PUSH1 0x20 ADD PUSH2 0x3447 JUMP JUMPDEST SWAP1 POP DUP3 DUP2 MSTORE DUP4 DUP4 DUP4 ADD GT ISZERO PUSH2 0x34B9 JUMPI PUSH1 0x0 DUP1 REVERT JUMPDEST DUP3 DUP3 PUSH1 0x20 DUP4 ADD CALLDATACOPY PUSH1 0x0 PUSH1 0x20 DUP5 DUP4 ADD ADD MSTORE SWAP4 SWAP3 POP POP POP JUMP JUMPDEST PUSH1 0x0 PUSH1 0x20 DUP3 DUP5 SUB SLT ISZERO PUSH2 0x34E2 JUMPI PUSH1 0x0 DUP1 REVERT JUMPDEST DUP2 CALLDATALOAD PUSH8 0xFFFFFFFFFFFFFFFF DUP2 GT ISZERO PUSH2 0x34F9 JUMPI PUSH1 0x0 DUP1 REVERT JUMPDEST DUP3 ADD PUSH1 0x1F DUP2 ADD DUP5 SGT PUSH2 0x350A JUMPI PUSH1 0x0 DUP1 REVERT JUMPDEST PUSH2 0x2A21 DUP5 DUP3 CALLDATALOAD PUSH1 0x20 DUP5 ADD PUSH2 0x3478 JUMP JUMPDEST PUSH1 0x0 DUP1 PUSH1 0x0 PUSH1 0x60 DUP5 DUP7 SUB SLT ISZERO PUSH2 0x352E JUMPI PUSH1 0x0 DUP1 REVERT JUMPDEST PUSH2 0x3537 DUP5 PUSH2 0x33EB JUMP JUMPDEST SWAP3 POP PUSH2 0x3545 PUSH1 0x20 DUP6 ADD PUSH2 0x33EB JUMP JUMPDEST SWAP2 POP PUSH1 0x40 DUP5 ADD CALLDATALOAD SWAP1 POP SWAP3 POP SWAP3 POP SWAP3 JUMP JUMPDEST PUSH1 0x0 PUSH8 0xFFFFFFFFFFFFFFFF DUP3 GT ISZERO PUSH2 0x356F JUMPI PUSH2 0x356F PUSH2 0x3431 JUMP JUMPDEST POP PUSH1 0x5 SHL PUSH1 0x20 ADD SWAP1 JUMP JUMPDEST PUSH1 0x0 DUP3 PUSH1 0x1F DUP4 ADD SLT PUSH2 0x358A JUMPI PUSH1 0x0 DUP1 REVERT JUMPDEST DUP2 CALLDATALOAD PUSH1 0x20 PUSH2 0x359F PUSH2 0x359A DUP4 PUSH2 0x3555 JUMP JUMPDEST PUSH2 0x3447 JUMP JUMPDEST DUP3 DUP2 MSTORE PUSH1 0x5 SWAP3 SWAP1 SWAP3 SHL DUP5 ADD DUP2 ADD SWAP2 DUP2 DUP2 ADD SWAP1 DUP7 DUP5 GT ISZERO PUSH2 0x35BE JUMPI PUSH1 0x0 DUP1 REVERT JUMPDEST DUP3 DUP7 ADD JUMPDEST DUP5 DUP2 LT ISZERO PUSH2 0x35E0 JUMPI PUSH2 0x35D3 DUP2 PUSH2 0x33EB JUMP JUMPDEST DUP4 MSTORE SWAP2 DUP4 ADD SWAP2 DUP4 ADD PUSH2 0x35C2 JUMP JUMPDEST POP SWAP7 SWAP6 POP POP POP POP POP POP JUMP JUMPDEST PUSH1 0x0 PUSH1 0x20 DUP3 DUP5 SUB SLT ISZERO PUSH2 0x35FD JUMPI PUSH1 0x0 DUP1 REVERT JUMPDEST DUP2 CALLDATALOAD PUSH8 0xFFFFFFFFFFFFFFFF DUP2 GT ISZERO PUSH2 0x3614 JUMPI PUSH1 0x0 DUP1 REVERT JUMPDEST PUSH2 0x2A21 DUP5 DUP3 DUP6 ADD PUSH2 0x3579 JUMP JUMPDEST PUSH1 0x0 PUSH1 0x20 DUP3 DUP5 SUB SLT ISZERO PUSH2 0x3632 JUMPI PUSH1 0x0 DUP1 REVERT JUMPDEST PUSH2 0x2BE0 DUP3 PUSH2 0x33EB JUMP JUMPDEST DUP1 CALLDATALOAD PUSH1 0xFF DUP2 AND DUP2 EQ PUSH2 0x3402 JUMPI PUSH1 0x0 DUP1 REVERT JUMPDEST PUSH1 0x0 PUSH1 0x20 DUP3 DUP5 SUB SLT ISZERO PUSH2 0x365E JUMPI PUSH1 0x0 DUP1 REVERT JUMPDEST PUSH2 0x2BE0 DUP3 PUSH2 0x363B JUMP JUMPDEST PUSH1 0x0 DUP1 PUSH1 0x40 DUP4 DUP6 SUB SLT ISZERO PUSH2 0x367A JUMPI PUSH1 0x0 DUP1 REVERT JUMPDEST PUSH2 0x3683 DUP4 PUSH2 0x33EB JUMP JUMPDEST SWAP2 POP PUSH1 0x20 DUP4 ADD CALLDATALOAD DUP1 ISZERO ISZERO DUP2 EQ PUSH2 0x3698 JUMPI PUSH1 0x0 DUP1 REVERT JUMPDEST DUP1 SWAP2 POP POP SWAP3 POP SWAP3 SWAP1 POP JUMP JUMPDEST PUSH1 0x0 DUP1 PUSH1 0x40 DUP4 DUP6 SUB SLT ISZERO PUSH2 0x36B6 JUMPI PUSH1 0x0 DUP1 REVERT JUMPDEST DUP3 CALLDATALOAD PUSH8 0xFFFFFFFFFFFFFFFF DUP1 DUP3 GT ISZERO PUSH2 0x36CE JUMPI PUSH1 0x0 DUP1 REVERT JUMPDEST PUSH2 0x36DA DUP7 DUP4 DUP8 ADD PUSH2 0x3579 JUMP JUMPDEST SWAP4 POP PUSH1 0x20 SWAP2 POP DUP2 DUP6 ADD CALLDATALOAD DUP2 DUP2 GT ISZERO PUSH2 0x36F1 JUMPI PUSH1 0x0 DUP1 REVERT JUMPDEST DUP6 ADD SWAP1 POP PUSH1 0x1F DUP2 ADD DUP7 SGT PUSH2 0x3704 JUMPI PUSH1 0x0 DUP1 REVERT JUMPDEST DUP1 CALLDATALOAD PUSH2 0x3712 PUSH2 0x359A DUP3 PUSH2 0x3555 JUMP JUMPDEST DUP2 DUP2 MSTORE PUSH1 0x5 SWAP2 SWAP1 SWAP2 SHL DUP3 ADD DUP4 ADD SWAP1 DUP4 DUP2 ADD SWAP1 DUP9 DUP4 GT ISZERO PUSH2 0x3731 JUMPI PUSH1 0x0 DUP1 REVERT JUMPDEST SWAP3 DUP5 ADD SWAP3 JUMPDEST DUP3 DUP5 LT ISZERO PUSH2 0x3756 JUMPI PUSH2 0x3747 DUP5 PUSH2 0x363B JUMP JUMPDEST DUP3 MSTORE SWAP3 DUP5 ADD SWAP3 SWAP1 DUP5 ADD SWAP1 PUSH2 0x3736 JUMP JUMPDEST DUP1 SWAP6 POP POP POP POP POP POP SWAP3 POP SWAP3 SWAP1 POP JUMP JUMPDEST PUSH1 0x0 DUP1 PUSH1 0x40 DUP4 DUP6 SUB SLT ISZERO PUSH2 0x3778 JUMPI PUSH1 0x0 DUP1 REVERT JUMPDEST PUSH2 0x3781 DUP4 PUSH2 0x363B JUMP JUMPDEST SWAP2 POP PUSH2 0x378F PUSH1 0x20 DUP5 ADD PUSH2 0x33EB JUMP JUMPDEST SWAP1 POP SWAP3 POP SWAP3 SWAP1 POP JUMP JUMPDEST PUSH1 0x0 DUP1 PUSH1 0x0 DUP1 PUSH1 0x80 DUP6 DUP8 SUB SLT ISZERO PUSH2 0x37AE JUMPI PUSH1 0x0 DUP1 REVERT JUMPDEST PUSH2 0x37B7 DUP6 PUSH2 0x33EB JUMP JUMPDEST SWAP4 POP PUSH2 0x37C5 PUSH1 0x20 DUP7 ADD PUSH2 0x33EB JUMP JUMPDEST SWAP3 POP PUSH1 0x40 DUP6 ADD CALLDATALOAD SWAP2 POP PUSH1 0x60 DUP6 ADD CALLDATALOAD PUSH8 0xFFFFFFFFFFFFFFFF DUP2 GT ISZERO PUSH2 0x37E8 JUMPI PUSH1 0x0 DUP1 REVERT JUMPDEST DUP6 ADD PUSH1 0x1F DUP2 ADD DUP8 SGT PUSH2 0x37F9 JUMPI PUSH1 0x0 DUP1 REVERT JUMPDEST PUSH2 0x3808 DUP8 DUP3 CALLDATALOAD PUSH1 0x20 DUP5 ADD PUSH2 0x3478 JUMP JUMPDEST SWAP2 POP POP SWAP3 SWAP6 SWAP2 SWAP5 POP SWAP3 POP JUMP JUMPDEST PUSH1 0x0 DUP1 PUSH1 0x40 DUP4 DUP6 SUB SLT ISZERO PUSH2 0x3827 JUMPI PUSH1 0x0 DUP1 REVERT JUMPDEST PUSH2 0x3781 DUP4 PUSH2 0x33EB JUMP JUMPDEST PUSH1 0x1 DUP2 DUP2 SHR SWAP1 DUP3 AND DUP1 PUSH2 0x3844 JUMPI PUSH1 0x7F DUP3 AND SWAP2 POP JUMPDEST PUSH1 0x20 DUP3 LT DUP2 EQ ISZERO PUSH2 0x3865 JUMPI PUSH4 0x4E487B71 PUSH1 0xE0 SHL PUSH1 0x0 MSTORE PUSH1 0x22 PUSH1 0x4 MSTORE PUSH1 0x24 PUSH1 0x0 REVERT JUMPDEST POP SWAP2 SWAP1 POP JUMP JUMPDEST PUSH1 0x20 DUP1 DUP3 MSTORE DUP2 DUP2 ADD MSTORE PUSH32 0x4F776E61626C653A2063616C6C6572206973206E6F7420746865206F776E6572 PUSH1 0x40 DUP3 ADD MSTORE PUSH1 0x60 ADD SWAP1 JUMP JUMPDEST PUSH4 0x4E487B71 PUSH1 0xE0 SHL PUSH1 0x0 MSTORE PUSH1 0x11 PUSH1 0x4 MSTORE PUSH1 0x24 PUSH1 0x0 REVERT JUMPDEST PUSH1 0x0 DUP3 DUP3 LT ISZERO PUSH2 0x38C8 JUMPI PUSH2 0x38C8 PUSH2 0x38A0 JUMP JUMPDEST POP SUB SWAP1 JUMP JUMPDEST PUSH1 0x20 DUP1 DUP3 MSTORE PUSH1 0x31 SWAP1 DUP3 ADD MSTORE PUSH32 0x4552433732313A207472616E736665722063616C6C6572206973206E6F74206F PUSH1 0x40 DUP3 ADD MSTORE PUSH17 0x1DDB995C881B9BDC88185C1C1C9BDD9959 PUSH1 0x7A SHL PUSH1 0x60 DUP3 ADD MSTORE PUSH1 0x80 ADD SWAP1 JUMP JUMPDEST PUSH4 0x4E487B71 PUSH1 0xE0 SHL PUSH1 0x0 MSTORE PUSH1 0x32 PUSH1 0x4 MSTORE PUSH1 0x24 PUSH1 0x0 REVERT JUMPDEST PUSH1 0x0 PUSH1 0x0 NOT DUP3 EQ ISZERO PUSH2 0x3948 JUMPI PUSH2 0x3948 PUSH2 0x38A0 JUMP JUMPDEST POP PUSH1 0x1 ADD SWAP1 JUMP JUMPDEST PUSH1 0x20 DUP1 DUP3 MSTORE PUSH1 0x10 SWAP1 DUP3 ADD MSTORE PUSH16 0x14185D5CD8589B194E881C185D5CD959 PUSH1 0x82 SHL PUSH1 0x40 DUP3 ADD MSTORE PUSH1 0x60 ADD SWAP1 JUMP JUMPDEST PUSH1 0x0 PUSH1 0xFF DUP3 AND PUSH1 0xFF DUP5 AND DUP1 PUSH1 0xFF SUB DUP3 GT ISZERO PUSH2 0x3996 JUMPI PUSH2 0x3996 PUSH2 0x38A0 JUMP JUMPDEST ADD SWAP4 SWAP3 POP POP POP JUMP JUMPDEST PUSH1 0x0 DUP3 NOT DUP3 GT ISZERO PUSH2 0x39B1 JUMPI PUSH2 0x39B1 PUSH2 0x38A0 JUMP JUMPDEST POP ADD SWAP1 JUMP JUMPDEST PUSH1 0x20 DUP1 DUP3 MSTORE PUSH1 0x38 SWAP1 DUP3 ADD MSTORE PUSH32 0x50726F76656E616E63652068617368206D7573742062652066726F7A656E2062 PUSH1 0x40 DUP3 ADD MSTORE PUSH32 0x65666F7265206D696E74696E672063616E2073746172742E0000000000000000 PUSH1 0x60 DUP3 ADD MSTORE PUSH1 0x80 ADD SWAP1 JUMP JUMPDEST DUP1 SLOAD PUSH1 0x0 SWAP1 PUSH1 0x1 DUP2 DUP2 SHR SWAP1 DUP1 DUP4 AND DUP1 PUSH2 0x3A2D JUMPI PUSH1 0x7F DUP4 AND SWAP3 POP JUMPDEST PUSH1 0x20 DUP1 DUP5 LT DUP3 EQ ISZERO PUSH2 0x3A4F JUMPI PUSH4 0x4E487B71 PUSH1 0xE0 SHL PUSH1 0x0 MSTORE PUSH1 0x22 PUSH1 0x4 MSTORE PUSH1 0x24 PUSH1 0x0 REVERT JUMPDEST DUP2 DUP1 ISZERO PUSH2 0x3A63 JUMPI PUSH1 0x1 DUP2 EQ PUSH2 0x3A74 JUMPI PUSH2 0x3AA1 JUMP JUMPDEST PUSH1 0xFF NOT DUP7 AND DUP10 MSTORE DUP5 DUP10 ADD SWAP7 POP PUSH2 0x3AA1 JUMP JUMPDEST PUSH1 0x0 DUP9 DUP2 MSTORE PUSH1 0x20 SWAP1 KECCAK256 PUSH1 0x0 JUMPDEST DUP7 DUP2 LT ISZERO PUSH2 0x3A99 JUMPI DUP2 SLOAD DUP12 DUP3 ADD MSTORE SWAP1 DUP6 ADD SWAP1 DUP4 ADD PUSH2 0x3A80 JUMP JUMPDEST POP POP DUP5 DUP10 ADD SWAP7 POP JUMPDEST POP POP POP POP POP POP SWAP3 SWAP2 POP POP JUMP JUMPDEST PUSH1 0x0 PUSH2 0x3AB9 DUP3 DUP7 PUSH2 0x3A13 JUMP JUMPDEST DUP5 MLOAD PUSH2 0x3AC9 DUP2 DUP4 PUSH1 0x20 DUP10 ADD PUSH2 0x3367 JUMP JUMPDEST PUSH2 0x3AD5 DUP2 DUP4 ADD DUP7 PUSH2 0x3A13 JUMP JUMPDEST SWAP8 SWAP7 POP POP POP POP POP POP POP JUMP JUMPDEST PUSH1 0x0 PUSH1 0xFF DUP3 AND DUP1 PUSH2 0x3AF3 JUMPI PUSH2 0x3AF3 PUSH2 0x38A0 JUMP JUMPDEST PUSH1 0x0 NOT ADD SWAP3 SWAP2 POP POP JUMP JUMPDEST PUSH1 0x0 PUSH1 0xFF DUP3 AND PUSH1 0xFF DUP2 EQ ISZERO PUSH2 0x3B14 JUMPI PUSH2 0x3B14 PUSH2 0x38A0 JUMP JUMPDEST PUSH1 0x1 ADD SWAP3 SWAP2 POP POP JUMP JUMPDEST PUSH1 0x0 DUP2 PUSH1 0x0 NOT DIV DUP4 GT DUP3 ISZERO ISZERO AND ISZERO PUSH2 0x3B37 JUMPI PUSH2 0x3B37 PUSH2 0x38A0 JUMP JUMPDEST POP MUL SWAP1 JUMP JUMPDEST PUSH4 0x4E487B71 PUSH1 0xE0 SHL PUSH1 0x0 MSTORE PUSH1 0x12 PUSH1 0x4 MSTORE PUSH1 0x24 PUSH1 0x0 REVERT JUMPDEST PUSH1 0x0 DUP3 PUSH2 0x3B61 JUMPI PUSH2 0x3B61 PUSH2 0x3B3C JUMP JUMPDEST POP DIV SWAP1 JUMP JUMPDEST PUSH1 0x20 DUP1 DUP3 MSTORE PUSH1 0x32 SWAP1 DUP3 ADD MSTORE PUSH32 0x4552433732313A207472616E7366657220746F206E6F6E204552433732315265 PUSH1 0x40 DUP3 ADD MSTORE PUSH18 0x31B2B4BB32B91034B6B83632B6B2B73A32B9 PUSH1 0x71 SHL PUSH1 0x60 DUP3 ADD MSTORE PUSH1 0x80 ADD SWAP1 JUMP JUMPDEST PUSH1 0x0 DUP3 PUSH2 0x3BC7 JUMPI PUSH2 0x3BC7 PUSH2 0x3B3C JUMP JUMPDEST POP MOD SWAP1 JUMP JUMPDEST PUSH1 0x1 PUSH1 0x1 PUSH1 0xA0 SHL SUB DUP6 DUP2 AND DUP3 MSTORE DUP5 AND PUSH1 0x20 DUP3 ADD MSTORE PUSH1 0x40 DUP2 ADD DUP4 SWAP1 MSTORE PUSH1 0x80 PUSH1 0x60 DUP3 ADD DUP2 SWAP1 MSTORE PUSH1 0x0 SWAP1 PUSH2 0x3BFF SWAP1 DUP4 ADD DUP5 PUSH2 0x3393 JUMP JUMPDEST SWAP7 SWAP6 POP POP POP POP POP POP JUMP JUMPDEST PUSH1 0x0 PUSH1 0x20 DUP3 DUP5 SUB SLT ISZERO PUSH2 0x3C1B JUMPI PUSH1 0x0 DUP1 REVERT JUMPDEST DUP2 MLOAD PUSH2 0x2BE0 DUP2 PUSH2 0x3334 JUMP INVALID LOG2 PUSH5 0x6970667358 0x22 SLT KECCAK256 PUSH17 0x2615B099562DDAB1F9B5C0942F4521C605 0xE7 0xB4 0xB5 SWAP8 SSTORE 0xB3 LOG1 DELEGATECALL 0xCB PUSH30 0x75A749D164736F6C634300080A0033000000000000000000000000000000 ",
  "sha1": "343b7d4f5cde581cfd70ded6775bc11fd07579d9",
  "source": "// SPDX-License-Identifier: MIT\npragma solidity ^0.8.10;\n\nimport '@openzeppelin/contracts/token/ERC721/ERC721.sol';\nimport '@openzeppelin/contracts/access/Ownable.sol';\nimport '@openzeppelin/contracts/utils/math/SafeMath.sol';\nimport '@openzeppelin/contracts/utils/Counters.sol';\nimport '@openzeppelin/contracts/security/Pausable.sol';\nimport '@openzeppelin/contracts/token/ERC721/extensions/ERC721Burnable.sol';\nimport \"@openzeppelin/contracts/utils/cryptography/MerkleProof.sol\";\n\ncontract CryptidToken is ERC721, Pausable, Ownable, ERC721Burnable{ \n    using Strings for uint256;\n    using SafeMath for uint256;\n    using Counters for Counters.Counter;\n\n    Counters.Counter private _tokenIdCounter;\n\n    bytes32 public merkleRoot;\n    string public provenanceHash;\n    string public baseURI = \"\";\n    string public baseExtension = \".json\";\n    uint8 private stage = 0;\n    uint8 public maxMintPerTx;     \n    bool public tokenURIFrozen = false;\n    bool public provenanceHashFrozen = false;\n    address public withdrawDest1 = 0x1953bc1fF76f5e61cD775A4482bd85BAc56aD1Eb;\n    address public withdrawDest2 = 0x12B58f5331a6DC897932AA7FB5101667ACdf03e2;\n    \n    // ~ Sale stages ~\n    // stage 0: Init \n    // stage 1: Free Mints\n    // stage 2: Whitelist\n    // stage 3: Team Mint \n    // stage 4: Public Sale\n\n    // Free mint (stage=1)\n    mapping(address => uint8) public freeUsers;\n    mapping(address => uint8) public freeMintCount;\n\n    // Whitelist mint (stage=2)\n    mapping(address => bool) public whitelistUsers;\n    uint256 public whitelistSupply;                       \n    uint256 public whitelistPrice = 0.08 ether;\n    uint8 public whitelistMintMax = 2;                  \n    mapping(address => uint8) public whitelistMintCount;\n\n    // Team Mint (stage=3)\n    uint256 public teamMintSupply;                          \n    uint256 public teamMintCount;\n\n    // Public Sale (stage=4)\n    uint256 public salePrice = 0.08 ether;\n    uint256 public totalSaleSupply;         \n\n    constructor(\n        string memory _name,\n        string memory _symbol,\n        string memory _baseURI,\n        uint256 _whitelistSupply,\n        uint256 _teamMintSupply,\n        uint256 _totalSaleSupply,\n        uint8 _maxMintPerTx\n\n    )   ERC721(_name, _symbol) {\n        whitelistSupply = _whitelistSupply;\n        teamMintSupply = _teamMintSupply;\n        totalSaleSupply = _totalSaleSupply;\n        maxMintPerTx = _maxMintPerTx;\n        baseURI = _baseURI;\n        _tokenIdCounter.increment();\n    }\n\n    //Public mint function\n    function mint(uint8 _mintAmount) public payable whenNotPaused {\n        require(stage > 0, \"Minting not initiated. Currenly on stage 0 (init).\");\n        require(_mintAmount > 0, \"Mint amount must be greater than 0.\");\n        require(_mintAmount <= maxMintPerTx, \"Exceeds max allowed amount per transaction.\");\n        if (stage == 1) {\n        // Free Mint\n            require(freeUsers[msg.sender] > 0, \"Minter not awarded free mints.\");\n            require(_mintAmount + freeMintCount[msg.sender] <= freeUsers[msg.sender], \"Transaction exceeds remaining free mints.\");\n            freeMintCount[msg.sender] += _mintAmount;\n    }   else if (stage == 2) {\n        // Whitelist\n            \n            require(msg.value >= whitelistPrice.mul(_mintAmount), \"Not enough ether sent.\");\n            require(whitelistUsers[msg.sender], \"Address not on whitelist.\");\n            require(totalSupply() + _mintAmount <= whitelistSupply, \"Transaction exceeds whitelist supply.\");\n            require(_mintAmount + whitelistMintCount[msg.sender] <= whitelistMintMax, \"Transaction exceeds max allowed whitelist mints.\");      \n            whitelistMintCount[msg.sender] += _mintAmount;\n    }   else if (stage == 3) {\n        // Team Sale\n            require(owner() == msg.sender, \"Only Owner can mint at this stage\");\n            require(_mintAmount + teamMintCount <= teamMintSupply, \"Transaction exceeds total team-sale supply\");      \n            teamMintCount += _mintAmount;\n    }   else {\n        // Public Sale\n            require(msg.value >= salePrice.mul(_mintAmount), \"Not enough ether sent\");\n            require(totalSupply()  + _mintAmount <= totalSaleSupply, \"Transaction exceeds total sale supply\");\n        }\n        for (uint256 i = 1; i <= _mintAmount; i++) {\n            _safeMint(msg.sender, _tokenIdCounter.current());\n            _tokenIdCounter.increment();\n        }\n    }\n\n    //Owner functions\n    function pause() public onlyOwner {\n        _pause();\n    }\n\n    function unpause() public onlyOwner {\n        _unpause();\n    }\n\n    function airdropCryptid(uint8 _mintAmount, address _to) public onlyOwner {\n        require(provenanceHashFrozen == true, \"Provenance hash must be frozen before minting can start.\");\n        require(stage < 2, \"Past free mint sale.\");\n        require(_mintAmount <= maxMintPerTx, \"Exceeds max allowed amount per transaction\");\n        require(_mintAmount > 0, \"Airdrop amount must be greater than 0\");\n        require(totalSupply()+ _mintAmount <= whitelistSupply, \"Mint amount will exceed whitelist supply.\");\n        for (uint256 i = 1; i <= _mintAmount; i++) {\n            _safeMint(_to, _tokenIdCounter.current());\n            _tokenIdCounter.increment();\n        }\n    }\n\n    function setfreeUsers(address[] memory _users, uint8[] memory _mints) public onlyOwner {\n        require(stage < 2, \"Whitelist sale is concluded.\");\n        for(uint256 i=0;i<_users.length;i++)\n        freeUsers[_users[i]] = _mints[i];\n    }\n\n    function setWhitelistUsers(address[] memory _users) public onlyOwner {\n        require(stage < 3, \"Whitelist is concluded.\");\n        for(uint256 i=0;i<_users.length;i++)\n        whitelistUsers[_users[i]] = true;\n    }\n\n    function removeFreetUser(address _user) public onlyOwner {\n        require(stage < 2, \"Free mint sale is concluded.\");\n        require(freeUsers[_user] > 0, \"User not awarded free mint.\");\n        freeUsers[_user] = 0;\n    }\n\n    function removeWhitelistUser(address _user) public onlyOwner {\n        require(whitelistUsers[_user], \"User not on whitelist list.\");\n        whitelistUsers[_user] = false;\n    }\n\n    function setBaseURI(string memory _newBaseURI) public onlyOwner {\n        require(!tokenURIFrozen, \"BaseURI is frozen.\");\n        baseURI = _newBaseURI;\n    } \n    \n    function freezeBaseURI() public onlyOwner {\n        require(bytes(baseURI).length > 0, \"baseURI cannot be empty\");\n        require(!tokenURIFrozen, \"BaseURI is already frozen.\");\n        tokenURIFrozen = true;\n    }\n\n    function nextStage() public onlyOwner {\n        require(provenanceHashFrozen == true, \"Provenance hash must be frozen before minting can start.\");\n        require(stage < 4, \"No stages after public sale\");\n        stage++;\n    }\n\n    function prevStage() public onlyOwner {\n        require(provenanceHashFrozen == true, \"Provenance hash must be frozen before minting can start.\");\n        require(stage > 0, \"No stages before init\");\n        stage--;\n    }\n    \n    function setTeamMintSupply(uint256 _newTeamMintSupply) public onlyOwner {\n        teamMintSupply = _newTeamMintSupply;\n    }\n\n    function setBaseExtension(string memory _newBaseExtension) public onlyOwner {\n        baseExtension = _newBaseExtension;\n    }\n\n    function setWhitelistPrice(uint256 _newWhitelistPrice) public onlyOwner {\n        require(stage < 3, \"Whitelist is concluded.\");\n        whitelistPrice = _newWhitelistPrice;\n    }\n\n    function setPublicSalePrice(uint256 _newSalePrice) public onlyOwner {\n        salePrice = _newSalePrice;\n    }\n\n    function setMaxMintPerTx(uint8 _newmaxMintPerTx) public onlyOwner {\n        maxMintPerTx = _newmaxMintPerTx;\n    }\n\n    function setProvenanceHash(string memory _provenanceHash) public onlyOwner {\n        require(!provenanceHashFrozen, \"Provenance hash is frozen.\");\n        provenanceHash = _provenanceHash;\n    }\n\n    function setWithdrawAddress(address _dest1, address _dest2) public onlyOwner {\n        withdrawDest1 = _dest1;\n        withdrawDest2 = _dest2;\n    }\n\n    function freezeProvenanceHash() public onlyOwner {\n        require(bytes(provenanceHash).length > 0, \"Provenance hash cannot be empty.\");\n        require(!provenanceHashFrozen, \"Provenance hash is already frozen.\");\n        provenanceHashFrozen = true;\n    }\n\n    function withdraw() public payable onlyOwner {\n        require(address(this).balance > 0, \"Contract balance is 0.\");\n        (bool hs, ) = payable(withdrawDest1).call{value: address(this).balance.mul(50).div(100)}(\"\");\n        require(hs, \"withdrawl 1 failed\");\n        (bool os, ) = payable(withdrawDest2).call{value: address(this).balance}(\"\");\n        require(os, \"withdrawl 2 failed\");\n    }\n\n    // Public view functions\n    function lastMintAddress() public view returns (address){\n        require(totalSupply() > 0, \"No cryptid exists yet.\");\n        return ownerOf(totalSupply());\n    }\n\n    function lastMintID() public view returns (uint256){\n        require(totalSupply() > 0, \"No cryptid exists yet.\");\n        return(totalSupply());\n    }\n\n    function totalSupply() public view returns (uint256) {\n        return _tokenIdCounter.current() - 1;\n    }\n\n    function tokenURI(uint256 tokenId) public view virtual override returns (string memory) {\n        require(_exists(tokenId), \"ERC721Metadata: URI query for nonexistent token\");\n        return string(abi.encodePacked(baseURI, tokenId.toString(), baseExtension));\n            \n    }\n\n    function getTokensLeft() public view returns (uint256) {\n        return totalSaleSupply - totalSupply();\n    }\n    \n    function getStage() public view returns (uint8) {\n        return stage;\n    }\n\n    function _beforeTokenTransfer(address from, address to, uint256 tokenId) internal whenNotPaused override(ERC721) {\n        super._beforeTokenTransfer(from, to, tokenId);\n    }\n\n}",
  "sourcePath": "contracts/CryptidToken.sol",
  "type": "contract"
}