{
  "abi": [
    {
      "inputs": [
        {
          "internalType": "string",
          "name": "_name",
          "type": "string"
        },
        {
          "internalType": "string",
          "name": "_symbol",
          "type": "string"
        },
        {
          "internalType": "string",
          "name": "_baseURI",
          "type": "string"
        },
        {
          "internalType": "uint256",
          "name": "_presaleSupply",
          "type": "uint256"
        },
        {
          "internalType": "uint256",
          "name": "_teamMintSupply",
          "type": "uint256"
        },
        {
          "internalType": "uint256",
          "name": "_totalSaleSupply",
          "type": "uint256"
        },
        {
          "internalType": "uint8",
          "name": "_maxMintPerTx",
          "type": "uint8"
        }
      ],
      "stateMutability": "nonpayable",
      "type": "constructor"
    },
    {
      "anonymous": false,
      "inputs": [
        {
          "indexed": true,
          "internalType": "address",
          "name": "owner",
          "type": "address"
        },
        {
          "indexed": true,
          "internalType": "address",
          "name": "approved",
          "type": "address"
        },
        {
          "indexed": true,
          "internalType": "uint256",
          "name": "tokenId",
          "type": "uint256"
        }
      ],
      "name": "Approval",
      "type": "event"
    },
    {
      "anonymous": false,
      "inputs": [
        {
          "indexed": true,
          "internalType": "address",
          "name": "owner",
          "type": "address"
        },
        {
          "indexed": true,
          "internalType": "address",
          "name": "operator",
          "type": "address"
        },
        {
          "indexed": false,
          "internalType": "bool",
          "name": "approved",
          "type": "bool"
        }
      ],
      "name": "ApprovalForAll",
      "type": "event"
    },
    {
      "anonymous": false,
      "inputs": [
        {
          "indexed": true,
          "internalType": "address",
          "name": "previousOwner",
          "type": "address"
        },
        {
          "indexed": true,
          "internalType": "address",
          "name": "newOwner",
          "type": "address"
        }
      ],
      "name": "OwnershipTransferred",
      "type": "event"
    },
    {
      "anonymous": false,
      "inputs": [
        {
          "indexed": false,
          "internalType": "address",
          "name": "account",
          "type": "address"
        }
      ],
      "name": "Paused",
      "type": "event"
    },
    {
      "anonymous": false,
      "inputs": [
        {
          "indexed": true,
          "internalType": "address",
          "name": "from",
          "type": "address"
        },
        {
          "indexed": true,
          "internalType": "address",
          "name": "to",
          "type": "address"
        },
        {
          "indexed": true,
          "internalType": "uint256",
          "name": "tokenId",
          "type": "uint256"
        }
      ],
      "name": "Transfer",
      "type": "event"
    },
    {
      "anonymous": false,
      "inputs": [
        {
          "indexed": false,
          "internalType": "address",
          "name": "account",
          "type": "address"
        }
      ],
      "name": "Unpaused",
      "type": "event"
    },
    {
      "inputs": [
        {
          "internalType": "uint8",
          "name": "_mintAmount",
          "type": "uint8"
        },
        {
          "internalType": "address",
          "name": "_to",
          "type": "address"
        }
      ],
      "name": "airdropCryptid",
      "outputs": [],
      "stateMutability": "nonpayable",
      "type": "function"
    },
    {
      "inputs": [
        {
          "internalType": "address",
          "name": "to",
          "type": "address"
        },
        {
          "internalType": "uint256",
          "name": "tokenId",
          "type": "uint256"
        }
      ],
      "name": "approve",
      "outputs": [],
      "stateMutability": "nonpayable",
      "type": "function"
    },
    {
      "inputs": [
        {
          "internalType": "address",
          "name": "owner",
          "type": "address"
        }
      ],
      "name": "balanceOf",
      "outputs": [
        {
          "internalType": "uint256",
          "name": "",
          "type": "uint256"
        }
      ],
      "stateMutability": "view",
      "type": "function"
    },
    {
      "inputs": [],
      "name": "baseExtension",
      "outputs": [
        {
          "internalType": "string",
          "name": "",
          "type": "string"
        }
      ],
      "stateMutability": "view",
      "type": "function"
    },
    {
      "inputs": [],
      "name": "baseURI",
      "outputs": [
        {
          "internalType": "string",
          "name": "",
          "type": "string"
        }
      ],
      "stateMutability": "view",
      "type": "function"
    },
    {
      "inputs": [
        {
          "internalType": "uint256",
          "name": "tokenId",
          "type": "uint256"
        }
      ],
      "name": "burn",
      "outputs": [],
      "stateMutability": "nonpayable",
      "type": "function"
    },
    {
      "inputs": [],
      "name": "freezeBaseURI",
      "outputs": [],
      "stateMutability": "nonpayable",
      "type": "function"
    },
    {
      "inputs": [],
      "name": "freezeProvenanceHash",
      "outputs": [],
      "stateMutability": "nonpayable",
      "type": "function"
    },
    {
      "inputs": [
        {
          "internalType": "uint256",
          "name": "tokenId",
          "type": "uint256"
        }
      ],
      "name": "getApproved",
      "outputs": [
        {
          "internalType": "address",
          "name": "",
          "type": "address"
        }
      ],
      "stateMutability": "view",
      "type": "function"
    },
    {
      "inputs": [],
      "name": "getStage",
      "outputs": [
        {
          "internalType": "uint8",
          "name": "",
          "type": "uint8"
        }
      ],
      "stateMutability": "view",
      "type": "function"
    },
    {
      "inputs": [],
      "name": "getTokensLeft",
      "outputs": [
        {
          "internalType": "uint256",
          "name": "",
          "type": "uint256"
        }
      ],
      "stateMutability": "view",
      "type": "function"
    },
    {
      "inputs": [
        {
          "internalType": "address",
          "name": "owner",
          "type": "address"
        },
        {
          "internalType": "address",
          "name": "operator",
          "type": "address"
        }
      ],
      "name": "isApprovedForAll",
      "outputs": [
        {
          "internalType": "bool",
          "name": "",
          "type": "bool"
        }
      ],
      "stateMutability": "view",
      "type": "function"
    },
    {
      "inputs": [],
      "name": "lastMintAddress",
      "outputs": [
        {
          "internalType": "address",
          "name": "",
          "type": "address"
        }
      ],
      "stateMutability": "view",
      "type": "function"
    },
    {
      "inputs": [],
      "name": "lastMintID",
      "outputs": [
        {
          "internalType": "uint256",
          "name": "",
          "type": "uint256"
        }
      ],
      "stateMutability": "view",
      "type": "function"
    },
    {
      "inputs": [],
      "name": "maxMintPerTx",
      "outputs": [
        {
          "internalType": "uint8",
          "name": "",
          "type": "uint8"
        }
      ],
      "stateMutability": "view",
      "type": "function"
    },
    {
      "inputs": [
        {
          "internalType": "uint8",
          "name": "_mintAmount",
          "type": "uint8"
        }
      ],
      "name": "mint",
      "outputs": [],
      "stateMutability": "payable",
      "type": "function"
    },
    {
      "inputs": [],
      "name": "name",
      "outputs": [
        {
          "internalType": "string",
          "name": "",
          "type": "string"
        }
      ],
      "stateMutability": "view",
      "type": "function"
    },
    {
      "inputs": [],
      "name": "nextStage",
      "outputs": [],
      "stateMutability": "nonpayable",
      "type": "function"
    },
    {
      "inputs": [],
      "name": "owner",
      "outputs": [
        {
          "internalType": "address",
          "name": "",
          "type": "address"
        }
      ],
      "stateMutability": "view",
      "type": "function"
    },
    {
      "inputs": [
        {
          "internalType": "uint256",
          "name": "tokenId",
          "type": "uint256"
        }
      ],
      "name": "ownerOf",
      "outputs": [
        {
          "internalType": "address",
          "name": "",
          "type": "address"
        }
      ],
      "stateMutability": "view",
      "type": "function"
    },
    {
      "inputs": [],
      "name": "pause",
      "outputs": [],
      "stateMutability": "nonpayable",
      "type": "function"
    },
    {
      "inputs": [],
      "name": "paused",
      "outputs": [
        {
          "internalType": "bool",
          "name": "",
          "type": "bool"
        }
      ],
      "stateMutability": "view",
      "type": "function"
    },
    {
      "inputs": [
        {
          "internalType": "address",
          "name": "",
          "type": "address"
        }
      ],
      "name": "presaleMintCount",
      "outputs": [
        {
          "internalType": "uint8",
          "name": "",
          "type": "uint8"
        }
      ],
      "stateMutability": "view",
      "type": "function"
    },
    {
      "inputs": [],
      "name": "presaleMintMax",
      "outputs": [
        {
          "internalType": "uint8",
          "name": "",
          "type": "uint8"
        }
      ],
      "stateMutability": "view",
      "type": "function"
    },
    {
      "inputs": [],
      "name": "presalePrice",
      "outputs": [
        {
          "internalType": "uint256",
          "name": "",
          "type": "uint256"
        }
      ],
      "stateMutability": "view",
      "type": "function"
    },
    {
      "inputs": [],
      "name": "presaleSupply",
      "outputs": [
        {
          "internalType": "uint256",
          "name": "",
          "type": "uint256"
        }
      ],
      "stateMutability": "view",
      "type": "function"
    },
    {
      "inputs": [
        {
          "internalType": "address",
          "name": "",
          "type": "address"
        }
      ],
      "name": "presaleUsers",
      "outputs": [
        {
          "internalType": "bool",
          "name": "",
          "type": "bool"
        }
      ],
      "stateMutability": "view",
      "type": "function"
    },
    {
      "inputs": [],
      "name": "provenanceHash",
      "outputs": [
        {
          "internalType": "string",
          "name": "",
          "type": "string"
        }
      ],
      "stateMutability": "view",
      "type": "function"
    },
    {
      "inputs": [],
      "name": "provenanceHashFrozen",
      "outputs": [
        {
          "internalType": "bool",
          "name": "",
          "type": "bool"
        }
      ],
      "stateMutability": "view",
      "type": "function"
    },
    {
      "inputs": [
        {
          "internalType": "address",
          "name": "_user",
          "type": "address"
        }
      ],
      "name": "removePresaleUser",
      "outputs": [],
      "stateMutability": "nonpayable",
      "type": "function"
    },
    {
      "inputs": [
        {
          "internalType": "address",
          "name": "_user",
          "type": "address"
        }
      ],
      "name": "removeWhitelistUser",
      "outputs": [],
      "stateMutability": "nonpayable",
      "type": "function"
    },
    {
      "inputs": [],
      "name": "renounceOwnership",
      "outputs": [],
      "stateMutability": "nonpayable",
      "type": "function"
    },
    {
      "inputs": [
        {
          "internalType": "address",
          "name": "from",
          "type": "address"
        },
        {
          "internalType": "address",
          "name": "to",
          "type": "address"
        },
        {
          "internalType": "uint256",
          "name": "tokenId",
          "type": "uint256"
        }
      ],
      "name": "safeTransferFrom",
      "outputs": [],
      "stateMutability": "nonpayable",
      "type": "function"
    },
    {
      "inputs": [
        {
          "internalType": "address",
          "name": "from",
          "type": "address"
        },
        {
          "internalType": "address",
          "name": "to",
          "type": "address"
        },
        {
          "internalType": "uint256",
          "name": "tokenId",
          "type": "uint256"
        },
        {
          "internalType": "bytes",
          "name": "_data",
          "type": "bytes"
        }
      ],
      "name": "safeTransferFrom",
      "outputs": [],
      "stateMutability": "nonpayable",
      "type": "function"
    },
    {
      "inputs": [],
      "name": "salePrice",
      "outputs": [
        {
          "internalType": "uint256",
          "name": "",
          "type": "uint256"
        }
      ],
      "stateMutability": "view",
      "type": "function"
    },
    {
      "inputs": [
        {
          "internalType": "address",
          "name": "operator",
          "type": "address"
        },
        {
          "internalType": "bool",
          "name": "approved",
          "type": "bool"
        }
      ],
      "name": "setApprovalForAll",
      "outputs": [],
      "stateMutability": "nonpayable",
      "type": "function"
    },
    {
      "inputs": [
        {
          "internalType": "string",
          "name": "_newBaseExtension",
          "type": "string"
        }
      ],
      "name": "setBaseExtension",
      "outputs": [],
      "stateMutability": "nonpayable",
      "type": "function"
    },
    {
      "inputs": [
        {
          "internalType": "string",
          "name": "_newBaseURI",
          "type": "string"
        }
      ],
      "name": "setBaseURI",
      "outputs": [],
      "stateMutability": "nonpayable",
      "type": "function"
    },
    {
      "inputs": [
        {
          "internalType": "uint8",
          "name": "_newmaxMintPerTx",
          "type": "uint8"
        }
      ],
      "name": "setMaxMintPerTx",
      "outputs": [],
      "stateMutability": "nonpayable",
      "type": "function"
    },
    {
      "inputs": [
        {
          "internalType": "uint256",
          "name": "_newPresalePrice",
          "type": "uint256"
        }
      ],
      "name": "setPresalePrice",
      "outputs": [],
      "stateMutability": "nonpayable",
      "type": "function"
    },
    {
      "inputs": [
        {
          "internalType": "address[]",
          "name": "_users",
          "type": "address[]"
        }
      ],
      "name": "setPresaleUsers",
      "outputs": [],
      "stateMutability": "nonpayable",
      "type": "function"
    },
    {
      "inputs": [
        {
          "internalType": "string",
          "name": "_provenanceHash",
          "type": "string"
        }
      ],
      "name": "setProvenanceHash",
      "outputs": [],
      "stateMutability": "nonpayable",
      "type": "function"
    },
    {
      "inputs": [
        {
          "internalType": "uint256",
          "name": "_newSalePrice",
          "type": "uint256"
        }
      ],
      "name": "setPublicSalePrice",
      "outputs": [],
      "stateMutability": "nonpayable",
      "type": "function"
    },
    {
      "inputs": [
        {
          "internalType": "uint256",
          "name": "_newTeamMintSupply",
          "type": "uint256"
        }
      ],
      "name": "setTeamMintSupply",
      "outputs": [],
      "stateMutability": "nonpayable",
      "type": "function"
    },
    {
      "inputs": [
        {
          "internalType": "address[]",
          "name": "_users",
          "type": "address[]"
        },
        {
          "internalType": "uint8[]",
          "name": "_mints",
          "type": "uint8[]"
        }
      ],
      "name": "setWhitelistUsers",
      "outputs": [],
      "stateMutability": "nonpayable",
      "type": "function"
    },
    {
      "inputs": [
        {
          "internalType": "address",
          "name": "_dest1",
          "type": "address"
        },
        {
          "internalType": "address",
          "name": "_dest2",
          "type": "address"
        }
      ],
      "name": "setWithdrawAddress",
      "outputs": [],
      "stateMutability": "nonpayable",
      "type": "function"
    },
    {
      "inputs": [
        {
          "internalType": "bytes4",
          "name": "interfaceId",
          "type": "bytes4"
        }
      ],
      "name": "supportsInterface",
      "outputs": [
        {
          "internalType": "bool",
          "name": "",
          "type": "bool"
        }
      ],
      "stateMutability": "view",
      "type": "function"
    },
    {
      "inputs": [],
      "name": "symbol",
      "outputs": [
        {
          "internalType": "string",
          "name": "",
          "type": "string"
        }
      ],
      "stateMutability": "view",
      "type": "function"
    },
    {
      "inputs": [],
      "name": "teamMintCount",
      "outputs": [
        {
          "internalType": "uint256",
          "name": "",
          "type": "uint256"
        }
      ],
      "stateMutability": "view",
      "type": "function"
    },
    {
      "inputs": [],
      "name": "teamMintSupply",
      "outputs": [
        {
          "internalType": "uint256",
          "name": "",
          "type": "uint256"
        }
      ],
      "stateMutability": "view",
      "type": "function"
    },
    {
      "inputs": [
        {
          "internalType": "uint256",
          "name": "tokenId",
          "type": "uint256"
        }
      ],
      "name": "tokenURI",
      "outputs": [
        {
          "internalType": "string",
          "name": "",
          "type": "string"
        }
      ],
      "stateMutability": "view",
      "type": "function"
    },
    {
      "inputs": [],
      "name": "tokenURIFrozen",
      "outputs": [
        {
          "internalType": "bool",
          "name": "",
          "type": "bool"
        }
      ],
      "stateMutability": "view",
      "type": "function"
    },
    {
      "inputs": [],
      "name": "totalSaleSupply",
      "outputs": [
        {
          "internalType": "uint256",
          "name": "",
          "type": "uint256"
        }
      ],
      "stateMutability": "view",
      "type": "function"
    },
    {
      "inputs": [],
      "name": "totalSupply",
      "outputs": [
        {
          "internalType": "uint256",
          "name": "",
          "type": "uint256"
        }
      ],
      "stateMutability": "view",
      "type": "function"
    },
    {
      "inputs": [
        {
          "internalType": "address",
          "name": "from",
          "type": "address"
        },
        {
          "internalType": "address",
          "name": "to",
          "type": "address"
        },
        {
          "internalType": "uint256",
          "name": "tokenId",
          "type": "uint256"
        }
      ],
      "name": "transferFrom",
      "outputs": [],
      "stateMutability": "nonpayable",
      "type": "function"
    },
    {
      "inputs": [
        {
          "internalType": "address",
          "name": "newOwner",
          "type": "address"
        }
      ],
      "name": "transferOwnership",
      "outputs": [],
      "stateMutability": "nonpayable",
      "type": "function"
    },
    {
      "inputs": [],
      "name": "unpause",
      "outputs": [],
      "stateMutability": "nonpayable",
      "type": "function"
    },
    {
      "inputs": [
        {
          "internalType": "address",
          "name": "",
          "type": "address"
        }
      ],
      "name": "whitelistMintCount",
      "outputs": [
        {
          "internalType": "uint8",
          "name": "",
          "type": "uint8"
        }
      ],
      "stateMutability": "view",
      "type": "function"
    },
    {
      "inputs": [
        {
          "internalType": "address",
          "name": "",
          "type": "address"
        }
      ],
      "name": "whitelistUsers",
      "outputs": [
        {
          "internalType": "uint8",
          "name": "",
          "type": "uint8"
        }
      ],
      "stateMutability": "view",
      "type": "function"
    },
    {
      "inputs": [],
      "name": "withdraw",
      "outputs": [],
      "stateMutability": "payable",
      "type": "function"
    },
    {
      "inputs": [],
      "name": "withdrawDest1",
      "outputs": [
        {
          "internalType": "address",
          "name": "",
          "type": "address"
        }
      ],
      "stateMutability": "view",
      "type": "function"
    },
    {
      "inputs": [],
      "name": "withdrawDest2",
      "outputs": [
        {
          "internalType": "address",
          "name": "",
          "type": "address"
        }
      ],
      "stateMutability": "view",
      "type": "function"
    }
  ],
  "bytecode": "60a06040819052600060808190526200001b91600991620001f8565b5060408051808201909152600580825264173539b7b760d91b60209092019182526200004a91600a91620001f8565b50600b8054771953bc1ff76f5e61cd775a4482bd85bac56ad1eb0000000061ff01600160c01b0319909116179055600c80546001600160a01b0319167312b58f5331a6dc897932aa7fb5101667acdf03e2179055668e1bc9bf0400006011556012805460ff1916600517905566b1a2bc2ec50000601655348015620000ce57600080fd5b5060405162003f7e38038062003f7e833981016040819052620000f1916200036b565b8651879087906200010a906000906020850190620001f8565b50805162000120906001906020840190620001f8565b50506006805460ff1916905550620001383362000195565b601084905560148390556017829055600b805461ff00191661010060ff841602179055845162000170906009906020880190620001f8565b50620001886007620001ef60201b6200272e1760201c565b5050505050505062000472565b600680546001600160a01b03838116610100818102610100600160a81b031985161790945560405193909204169182907f8be0079c531659141344cd1fd0a4f28419497f9722a3daafe3b4186f6b6457e090600090a35050565b80546001019055565b828054620002069062000435565b90600052602060002090601f0160209004810192826200022a576000855562000275565b82601f106200024557805160ff191683800117855562000275565b8280016001018555821562000275579182015b828111156200027557825182559160200191906001019062000258565b506200028392915062000287565b5090565b5b8082111562000283576000815560010162000288565b634e487b7160e01b600052604160045260246000fd5b600082601f830112620002c657600080fd5b81516001600160401b0380821115620002e357620002e36200029e565b604051601f8301601f19908116603f011681019082821181831017156200030e576200030e6200029e565b816040528381526020925086838588010111156200032b57600080fd5b600091505b838210156200034f578582018301518183018401529082019062000330565b83821115620003615760008385830101525b9695505050505050565b600080600080600080600060e0888a0312156200038757600080fd5b87516001600160401b03808211156200039f57600080fd5b620003ad8b838c01620002b4565b985060208a0151915080821115620003c457600080fd5b620003d28b838c01620002b4565b975060408a0151915080821115620003e957600080fd5b50620003f88a828b01620002b4565b955050606088015193506080880151925060a0880151915060c088015160ff811681146200042557600080fd5b8091505092959891949750929550565b600181811c908216806200044a57607f821691505b602082108114156200046c57634e487b7160e01b600052602260045260246000fd5b50919050565b613afc80620004826000396000f3fe6080604052600436106103ac5760003560e01c806378231978116101e7578063c66828621161010d578063e6cbb6b1116100a0578063ee3743ab1161006f578063ee3743ab14610ac2578063f2fde38b14610ad7578063f51f96dd14610af7578063fcaa766414610b0d57600080fd5b8063e6cbb6b114610a2a578063e7bc820814610a44578063e985e9c514610a59578063ed931e1714610aa257600080fd5b8063da3ef23f116100dc578063da3ef23f146109b6578063de5f9866146109d6578063de7fcb1d146109eb578063e59a2f9914610a0a57600080fd5b8063c668286214610957578063c6ab67a31461096c578063c87b56dd14610981578063d6d67a09146109a157600080fd5b80639a2a9c3d11610185578063b3caad0111610154578063b3caad01146108e1578063b88d4fde14610901578063c29de63014610921578063c32145811461094157600080fd5b80639a2a9c3d1461086a578063a22cb4651461088b578063b1214392146108ab578063b3a196e9146108cb57600080fd5b80638456cb59116101c15780638456cb59146107fd578063865054ed146108125780638da5cb5b1461083257806395d89b411461085557600080fd5b806378231978146107b2578063791a2519146107c857806381c162f2146107e857600080fd5b80633bdf4ac6116102d7578063622e4e781161026a5780636ec55dbc116102395780636ec55dbc1461073a5780636ecd23061461076a57806370a082311461077d578063715018a61461079d57600080fd5b8063622e4e78146106d05780636352211e146106f05780636c0360eb146107105780636cbb89851461072557600080fd5b806342966c68116102a657806342966c681461065057806355f804b3146106705780635c975abb1461069057806361869a93146106a857600080fd5b80633bdf4ac6146105e35780633ccfd60b146106135780633f4ba83a1461061b57806342842e0e1461063057600080fd5b80630b0c312d1161034f57806323957c661161031e57806323957c661461056357806323b872dd1461058357806330cc7ae0146105a35780633549345e146105c357600080fd5b80630b0c312d146104de578063109695231461050e57806318160ddd1461052e57806320841a6a1461054357600080fd5b8063081812fc1161038b578063081812fc1461042c578063088139a614610464578063094e40721461047a578063095ea7b3146104bc57600080fd5b80620e7fa8146103b157806301ffc9a7146103da57806306fdde031461040a575b600080fd5b3480156103bd57600080fd5b506103c760115481565b6040519081526020015b60405180910390f35b3480156103e657600080fd5b506103fa6103f53660046131bd565b610b25565b60405190151581526020016103d1565b34801561041657600080fd5b5061041f610b77565b6040516103d19190613232565b34801561043857600080fd5b5061044c610447366004613245565b610c09565b6040516001600160a01b0390911681526020016103d1565b34801561047057600080fd5b506103c760155481565b34801561048657600080fd5b506104aa61049536600461327a565b60136020526000908152604090205460ff1681565b60405160ff90911681526020016103d1565b3480156104c857600080fd5b506104dc6104d7366004613295565b610ca3565b005b3480156104ea57600080fd5b506103fa6104f936600461327a565b600f6020526000908152604090205460ff1681565b34801561051a57600080fd5b506104dc61052936600461335e565b610db9565b34801561053a57600080fd5b506103c7610e5a565b34801561054f57600080fd5b506104dc61055e366004613245565b610e76565b34801561056f57600080fd5b506104dc61057e36600461343d565b610eab565b34801561058f57600080fd5b506104dc61059e366004613472565b610f92565b3480156105af57600080fd5b506104dc6105be36600461327a565b610fc4565b3480156105cf57600080fd5b506104dc6105de366004613245565b6110d4565b3480156105ef57600080fd5b506104aa6105fe36600461327a565b600e6020526000908152604090205460ff1681565b6104dc611158565b34801561062757600080fd5b506104dc61131d565b34801561063c57600080fd5b506104dc61064b366004613472565b611357565b34801561065c57600080fd5b506104dc61066b366004613245565b611372565b34801561067c57600080fd5b506104dc61068b36600461335e565b6113ec565b34801561069c57600080fd5b5060065460ff166103fa565b3480156106b457600080fd5b50600b5461044c9064010000000090046001600160a01b031681565b3480156106dc57600080fd5b506104dc6106eb3660046134bf565b61147d565b3480156106fc57600080fd5b5061044c61070b366004613245565b6114c9565b34801561071c57600080fd5b5061041f611540565b34801561073157600080fd5b5061044c6115ce565b34801561074657600080fd5b506104aa61075536600461327a565b600d6020526000908152604090205460ff1681565b6104dc6107783660046134bf565b61162a565b34801561078957600080fd5b506103c761079836600461327a565b611c81565b3480156107a957600080fd5b506104dc611d08565b3480156107be57600080fd5b506103c760175481565b3480156107d457600080fd5b506104dc6107e3366004613245565b611d42565b3480156107f457600080fd5b506104dc611d77565b34801561080957600080fd5b506104dc611e7f565b34801561081e57600080fd5b506104dc61082d3660046134da565b611eb7565b34801561083e57600080fd5b5060065461010090046001600160a01b031661044c565b34801561086157600080fd5b5061041f611fcd565b34801561087657600080fd5b50600b546103fa906301000000900460ff1681565b34801561089757600080fd5b506104dc6108a636600461359c565b611fdc565b3480156108b757600080fd5b50600c5461044c906001600160a01b031681565b3480156108d757600080fd5b506103c760105481565b3480156108ed57600080fd5b506104dc6108fc3660046135d8565b611fe7565b34801561090d57600080fd5b506104dc61091c36600461360b565b6121d3565b34801561092d57600080fd5b50600b546103fa9062010000900460ff1681565b34801561094d57600080fd5b506103c760145481565b34801561096357600080fd5b5061041f61220b565b34801561097857600080fd5b5061041f612218565b34801561098d57600080fd5b5061041f61099c366004613245565b612225565b3480156109ad57600080fd5b506103c76122d9565b3480156109c257600080fd5b506104dc6109d136600461335e565b612332565b3480156109e257600080fd5b506103c7612375565b3480156109f757600080fd5b50600b546104aa90610100900460ff1681565b348015610a1657600080fd5b506104dc610a25366004613687565b61238c565b348015610a3657600080fd5b506012546104aa9060ff1681565b348015610a5057600080fd5b506104dc6123fa565b348015610a6557600080fd5b506103fa610a74366004613687565b6001600160a01b03918216600090815260056020908152604080832093909416825291909152205460ff1690565b348015610aae57600080fd5b506104dc610abd36600461327a565b6124f4565b348015610ace57600080fd5b506104dc6125ad565b348015610ae357600080fd5b506104dc610af236600461327a565b612690565b348015610b0357600080fd5b506103c760165481565b348015610b1957600080fd5b50600b5460ff166104aa565b60006001600160e01b031982166380ac58cd60e01b1480610b5657506001600160e01b03198216635b5e139f60e01b145b80610b7157506301ffc9a760e01b6001600160e01b03198316145b92915050565b606060008054610b86906136a3565b80601f0160208091040260200160405190810160405280929190818152602001828054610bb2906136a3565b8015610bff5780601f10610bd457610100808354040283529160200191610bff565b820191906000526020600020905b815481529060010190602001808311610be257829003601f168201915b5050505050905090565b6000818152600260205260408120546001600160a01b0316610c875760405162461bcd60e51b815260206004820152602c60248201527f4552433732313a20617070726f76656420717565727920666f72206e6f6e657860448201526b34b9ba32b73a103a37b5b2b760a11b60648201526084015b60405180910390fd5b506000908152600460205260409020546001600160a01b031690565b6000610cae826114c9565b9050806001600160a01b0316836001600160a01b03161415610d1c5760405162461bcd60e51b815260206004820152602160248201527f4552433732313a20617070726f76616c20746f2063757272656e74206f776e656044820152603960f91b6064820152608401610c7e565b336001600160a01b0382161480610d385750610d388133610a74565b610daa5760405162461bcd60e51b815260206004820152603860248201527f4552433732313a20617070726f76652063616c6c6572206973206e6f74206f7760448201527f6e6572206e6f7220617070726f76656420666f7220616c6c00000000000000006064820152608401610c7e565b610db48383612737565b505050565b6006546001600160a01b03610100909104163314610de95760405162461bcd60e51b8152600401610c7e906136de565b600b546301000000900460ff1615610e435760405162461bcd60e51b815260206004820152601a60248201527f50726f76656e616e636520686173682069732066726f7a656e2e0000000000006044820152606401610c7e565b8051610e5690600890602084019061310e565b5050565b60006001610e6760075490565b610e719190613729565b905090565b6006546001600160a01b03610100909104163314610ea65760405162461bcd60e51b8152600401610c7e906136de565b601455565b6006546001600160a01b03610100909104163314610edb5760405162461bcd60e51b8152600401610c7e906136de565b600b54600360ff90911610610f2a5760405162461bcd60e51b8152602060048201526015602482015274283932b9b0b6329034b99031b7b731b63ab232b21760591b6044820152606401610c7e565b60005b8151811015610e56576001600f6000848481518110610f4e57610f4e613740565b6020908102919091018101516001600160a01b03168252810191909152604001600020805460ff191691151591909117905580610f8a81613756565b915050610f2d565b610f9d335b826127a5565b610fb95760405162461bcd60e51b8152600401610c7e90613771565b610db483838361289c565b6006546001600160a01b03610100909104163314610ff45760405162461bcd60e51b8152600401610c7e906136de565b600b54600260ff9091161061104b5760405162461bcd60e51b815260206004820152601c60248201527f57686974656c6973742073616c6520697320636f6e636c756465642e000000006044820152606401610c7e565b6001600160a01b0381166000908152600d602052604090205460ff166110b35760405162461bcd60e51b815260206004820152601960248201527f55736572206973206e6f74206f6e2077686974656c6973742e000000000000006044820152606401610c7e565b6001600160a01b03166000908152600d60205260409020805460ff19169055565b6006546001600160a01b036101009091041633146111045760405162461bcd60e51b8152600401610c7e906136de565b600b54600360ff909116106111535760405162461bcd60e51b8152602060048201526015602482015274283932b9b0b6329034b99031b7b731b63ab232b21760591b6044820152606401610c7e565b601155565b6006546001600160a01b036101009091041633146111885760405162461bcd60e51b8152600401610c7e906136de565b600047116111d15760405162461bcd60e51b815260206004820152601660248201527521b7b73a3930b1ba103130b630b731b29034b990181760511b6044820152606401610c7e565b600b5460009064010000000090046001600160a01b03166111fe60646111f8476032612a47565b90612a5a565b604051600081818185875af1925050503d806000811461123a576040519150601f19603f3d011682016040523d82523d6000602084013e61123f565b606091505b50509050806112855760405162461bcd60e51b81526020600482015260126024820152711dda5d1a191c985ddb080c4819985a5b195960721b6044820152606401610c7e565b600c546040516000916001600160a01b03169047908381818185875af1925050503d80600081146112d2576040519150601f19603f3d011682016040523d82523d6000602084013e6112d7565b606091505b5050905080610e565760405162461bcd60e51b81526020600482015260126024820152711dda5d1a191c985ddb080c8819985a5b195960721b6044820152606401610c7e565b6006546001600160a01b0361010090910416331461134d5760405162461bcd60e51b8152600401610c7e906136de565b611355612a66565b565b610db4838383604051806020016040528060008152506121d3565b61137b33610f97565b6113e05760405162461bcd60e51b815260206004820152603060248201527f4552433732314275726e61626c653a2063616c6c6572206973206e6f74206f7760448201526f1b995c881b9bdc88185c1c1c9bdd995960821b6064820152608401610c7e565b6113e981612af9565b50565b6006546001600160a01b0361010090910416331461141c5760405162461bcd60e51b8152600401610c7e906136de565b600b5462010000900460ff161561146a5760405162461bcd60e51b81526020600482015260126024820152712130b9b2aaa9249034b990333937bd32b71760711b6044820152606401610c7e565b8051610e5690600990602084019061310e565b6006546001600160a01b036101009091041633146114ad5760405162461bcd60e51b8152600401610c7e906136de565b600b805460ff9092166101000261ff0019909216919091179055565b6000818152600260205260408120546001600160a01b031680610b715760405162461bcd60e51b815260206004820152602960248201527f4552433732313a206f776e657220717565727920666f72206e6f6e657869737460448201526832b73a103a37b5b2b760b91b6064820152608401610c7e565b6009805461154d906136a3565b80601f0160208091040260200160405190810160405280929190818152602001828054611579906136a3565b80156115c65780601f1061159b576101008083540402835291602001916115c6565b820191906000526020600020905b8154815290600101906020018083116115a957829003601f168201915b505050505081565b6000806115d9610e5a565b1161161f5760405162461bcd60e51b815260206004820152601660248201527527379031b93cb83a34b21032bc34b9ba39903cb2ba1760511b6044820152606401610c7e565b610e7161070b610e5a565b60065460ff161561164d5760405162461bcd60e51b8152600401610c7e906137c2565b600b5460ff166116ba5760405162461bcd60e51b815260206004820152603260248201527f4d696e74696e67206e6f7420696e697469617465642e2043757272656e6c792060448201527137b71039ba30b3b29018101434b734ba149760711b6064820152608401610c7e565b60008160ff16116117185760405162461bcd60e51b815260206004820152602260248201527f4d696e7420616d6f756e74206d7573742062652067726561746572207468616e604482015261020360f41b6064820152608401610c7e565b600b5460ff610100909104811690821611156117465760405162461bcd60e51b8152600401610c7e906137ec565b600b5460ff166001141561188657336000908152600d602052604090205460ff166117b35760405162461bcd60e51b815260206004820152601760248201527f4d696e746572206e6f742077686974656c69737465642e0000000000000000006044820152606401610c7e565b336000908152600d6020908152604080832054600e9092529091205460ff918216916117e0911683613836565b60ff1611156118475760405162461bcd60e51b815260206004820152602d60248201527f5472616e73616374696f6e20657863656564732072656d61696e696e6720776860448201526c6974656c697374206d696e747360981b6064820152608401610c7e565b336000908152600e60205260408120805483929061186990849060ff16613836565b92506101000a81548160ff021916908360ff160217905550611c42565b600b5460ff1660021415611a6a576011546118a49060ff8316612a47565b3410156118eb5760405162461bcd60e51b8152602060048201526015602482015274139bdd08195b9bdd59da08195d1a195c881cd95b9d605a1b6044820152606401610c7e565b336000908152600f602052604090205460ff1661194a5760405162461bcd60e51b815260206004820152601b60248201527f41646472657373206e6f74206f6e2070726573616c65206c69737400000000006044820152606401610c7e565b6010548160ff16611959610e5a565b611963919061385b565b11156119bd5760405162461bcd60e51b815260206004820152602360248201527f5472616e73616374696f6e2065786365656473207072652d73616c6520737570604482015262706c7960e81b6064820152608401610c7e565b6012543360009081526013602052604090205460ff918216916119e1911683613836565b60ff161115611a485760405162461bcd60e51b815260206004820152602d60248201527f5472616e73616374696f6e2065786365656473206d617820616c6c6f7765642060448201526c70726573616c65206d696e747360981b6064820152608401610c7e565b336000908152601360205260408120805483929061186990849060ff16613836565b600b5460ff1660031415611b76576006546001600160a01b03610100909104163314611ae25760405162461bcd60e51b815260206004820152602160248201527f4f6e6c79204f776e65722063616e206d696e74206174207468697320737461676044820152606560f81b6064820152608401610c7e565b601454601554611af59060ff841661385b565b1115611b565760405162461bcd60e51b815260206004820152602a60248201527f5472616e73616374696f6e206578636565647320746f74616c207465616d2d73604482015269616c6520737570706c7960b01b6064820152608401610c7e565b8060ff1660156000828254611b6b919061385b565b90915550611c429050565b601654611b869060ff8316612a47565b341015611bcd5760405162461bcd60e51b8152602060048201526015602482015274139bdd08195b9bdd59da08195d1a195c881cd95b9d605a1b6044820152606401610c7e565b6017548160ff16611bdc610e5a565b611be6919061385b565b1115611c425760405162461bcd60e51b815260206004820152602560248201527f5472616e73616374696f6e206578636565647320746f74616c2073616c6520736044820152647570706c7960d81b6064820152608401610c7e565b60015b8160ff168111610e5657611c6133611c5c60075490565b612ba0565b611c6f600780546001019055565b80611c7981613756565b915050611c45565b60006001600160a01b038216611cec5760405162461bcd60e51b815260206004820152602a60248201527f4552433732313a2062616c616e636520717565727920666f7220746865207a65604482015269726f206164647265737360b01b6064820152608401610c7e565b506001600160a01b031660009081526003602052604090205490565b6006546001600160a01b03610100909104163314611d385760405162461bcd60e51b8152600401610c7e906136de565b6113556000612bba565b6006546001600160a01b03610100909104163314611d725760405162461bcd60e51b8152600401610c7e906136de565b601655565b6006546001600160a01b03610100909104163314611da75760405162461bcd60e51b8152600401610c7e906136de565b600060088054611db6906136a3565b905011611e055760405162461bcd60e51b815260206004820181905260248201527f50726f76656e616e636520686173682063616e6e6f7420626520656d7074792e6044820152606401610c7e565b600b546301000000900460ff1615611e6a5760405162461bcd60e51b815260206004820152602260248201527f50726f76656e616e6365206861736820697320616c72656164792066726f7a65604482015261371760f11b6064820152608401610c7e565b600b805463ff00000019166301000000179055565b6006546001600160a01b03610100909104163314611eaf5760405162461bcd60e51b8152600401610c7e906136de565b611355612c14565b6006546001600160a01b03610100909104163314611ee75760405162461bcd60e51b8152600401610c7e906136de565b600b54600260ff90911610611f3e5760405162461bcd60e51b815260206004820152601c60248201527f57686974656c6973742073616c6520697320636f6e636c756465642e000000006044820152606401610c7e565b60005b8251811015610db457818181518110611f5c57611f5c613740565b6020026020010151600d6000858481518110611f7a57611f7a613740565b60200260200101516001600160a01b03166001600160a01b0316815260200190815260200160002060006101000a81548160ff021916908360ff1602179055508080611fc590613756565b915050611f41565b606060018054610b86906136a3565b610e56338383612c6c565b6006546001600160a01b036101009091041633146120175760405162461bcd60e51b8152600401610c7e906136de565b600b546301000000900460ff1615156001146120455760405162461bcd60e51b8152600401610c7e90613873565b600b54600260ff909116106120935760405162461bcd60e51b81526020600482015260146024820152732830b9ba103bb434ba32b634b9ba1039b0b6329760611b6044820152606401610c7e565b600b5460ff610100909104811690831611156120c15760405162461bcd60e51b8152600401610c7e906137ec565b60008260ff16116121225760405162461bcd60e51b815260206004820152602560248201527f41697264726f7020616d6f756e74206d75737420626520677265617465722074604482015264068616e20360dc1b6064820152608401610c7e565b6010548260ff16612131610e5a565b61213b919061385b565b11156121995760405162461bcd60e51b815260206004820152602760248201527f4d696e7420616d6f756e742077696c6c206578636565642070726573616c652060448201526639bab838363c9760c91b6064820152608401610c7e565b60015b8260ff168111610db4576121b382611c5c60075490565b6121c1600780546001019055565b806121cb81613756565b91505061219c565b6121dd33836127a5565b6121f95760405162461bcd60e51b8152600401610c7e90613771565b61220584848484612d3b565b50505050565b600a805461154d906136a3565b6008805461154d906136a3565b6000818152600260205260409020546060906001600160a01b03166122a45760405162461bcd60e51b815260206004820152602f60248201527f4552433732314d657461646174613a2055524920717565727920666f72206e6f60448201526e3732bc34b9ba32b73a103a37b5b2b760891b6064820152608401610c7e565b60096122af83612d6e565b600a6040516020016122c39392919061396a565b6040516020818303038152906040529050919050565b6000806122e4610e5a565b1161232a5760405162461bcd60e51b815260206004820152601660248201527527379031b93cb83a34b21032bc34b9ba39903cb2ba1760511b6044820152606401610c7e565b610e71610e5a565b6006546001600160a01b036101009091041633146123625760405162461bcd60e51b8152600401610c7e906136de565b8051610e5690600a90602084019061310e565b600061237f610e5a565b601754610e719190613729565b6006546001600160a01b036101009091041633146123bc5760405162461bcd60e51b8152600401610c7e906136de565b600b8054640100000000600160c01b0319166401000000006001600160a01b0394851602179055600c80546001600160a01b03191691909216179055565b6006546001600160a01b0361010090910416331461242a5760405162461bcd60e51b8152600401610c7e906136de565b600060098054612439906136a3565b9050116124885760405162461bcd60e51b815260206004820152601760248201527f626173655552492063616e6e6f7420626520656d7074790000000000000000006044820152606401610c7e565b600b5462010000900460ff16156124e15760405162461bcd60e51b815260206004820152601a60248201527f4261736555524920697320616c72656164792066726f7a656e2e0000000000006044820152606401610c7e565b600b805462ff0000191662010000179055565b6006546001600160a01b036101009091041633146125245760405162461bcd60e51b8152600401610c7e906136de565b6001600160a01b0381166000908152600f602052604090205460ff1661258c5760405162461bcd60e51b815260206004820152601960248201527f55736572206e6f74206f6e2070726573616c65206c6973742e000000000000006044820152606401610c7e565b6001600160a01b03166000908152600f60205260409020805460ff19169055565b6006546001600160a01b036101009091041633146125dd5760405162461bcd60e51b8152600401610c7e906136de565b600b546301000000900460ff16151560011461260b5760405162461bcd60e51b8152600401610c7e90613873565b600b54600460ff909116106126625760405162461bcd60e51b815260206004820152601b60248201527f4e6f20737461676573206166746572207075626c69632073616c6500000000006044820152606401610c7e565b600b805460ff169060006126758361399d565b91906101000a81548160ff021916908360ff16021790555050565b6006546001600160a01b036101009091041633146126c05760405162461bcd60e51b8152600401610c7e906136de565b6001600160a01b0381166127255760405162461bcd60e51b815260206004820152602660248201527f4f776e61626c653a206e6577206f776e657220697320746865207a65726f206160448201526564647265737360d01b6064820152608401610c7e565b6113e981612bba565b80546001019055565b600081815260046020526040902080546001600160a01b0319166001600160a01b038416908117909155819061276c826114c9565b6001600160a01b03167f8c5be1e5ebec7d5bd14f71427d1e84f3dd0314c0f7b2291e5b200ac8c7c3b92560405160405180910390a45050565b6000818152600260205260408120546001600160a01b031661281e5760405162461bcd60e51b815260206004820152602c60248201527f4552433732313a206f70657261746f7220717565727920666f72206e6f6e657860448201526b34b9ba32b73a103a37b5b2b760a11b6064820152608401610c7e565b6000612829836114c9565b9050806001600160a01b0316846001600160a01b031614806128645750836001600160a01b031661285984610c09565b6001600160a01b0316145b8061289457506001600160a01b0380821660009081526005602090815260408083209388168352929052205460ff165b949350505050565b826001600160a01b03166128af826114c9565b6001600160a01b0316146129175760405162461bcd60e51b815260206004820152602960248201527f4552433732313a207472616e73666572206f6620746f6b656e2074686174206960448201526839903737ba1037bbb760b91b6064820152608401610c7e565b6001600160a01b0382166129795760405162461bcd60e51b8152602060048201526024808201527f4552433732313a207472616e7366657220746f20746865207a65726f206164646044820152637265737360e01b6064820152608401610c7e565b612984838383612e6c565b61298f600082612737565b6001600160a01b03831660009081526003602052604081208054600192906129b8908490613729565b90915550506001600160a01b03821660009081526003602052604081208054600192906129e690849061385b565b909155505060008181526002602052604080822080546001600160a01b0319166001600160a01b0386811691821790925591518493918716917fddf252ad1be2c89b69c2b068fc378daa952ba7f163c4a11628f55a4df523b3ef91a4505050565b6000612a5382846139bd565b9392505050565b6000612a5382846139f2565b60065460ff16612aaf5760405162461bcd60e51b815260206004820152601460248201527314185d5cd8589b194e881b9bdd081c185d5cd95960621b6044820152606401610c7e565b6006805460ff191690557f5db9ee0a495bf2e6ff9c91a7834c1ba4fdd244a5e8aa4e537bd38aeae4b073aa335b6040516001600160a01b03909116815260200160405180910390a1565b6000612b04826114c9565b9050612b1281600084612e6c565b612b1d600083612737565b6001600160a01b0381166000908152600360205260408120805460019290612b46908490613729565b909155505060008281526002602052604080822080546001600160a01b0319169055518391906001600160a01b038416907fddf252ad1be2c89b69c2b068fc378daa952ba7f163c4a11628f55a4df523b3ef908390a45050565b610e56828260405180602001604052806000815250612e8f565b600680546001600160a01b03838116610100818102610100600160a81b031985161790945560405193909204169182907f8be0079c531659141344cd1fd0a4f28419497f9722a3daafe3b4186f6b6457e090600090a35050565b60065460ff1615612c375760405162461bcd60e51b8152600401610c7e906137c2565b6006805460ff191660011790557f62e78cea01bee320cd4e420270b5ea74000d11b0c9f74754ebdbfc544b05a258612adc3390565b816001600160a01b0316836001600160a01b03161415612cce5760405162461bcd60e51b815260206004820152601960248201527f4552433732313a20617070726f766520746f2063616c6c6572000000000000006044820152606401610c7e565b6001600160a01b03838116600081815260056020908152604080832094871680845294825291829020805460ff191686151590811790915591519182527f17307eab39ab6107e8899845ad3d59bd9653f200f220920489ca2b5937696c31910160405180910390a3505050565b612d4684848461289c565b612d5284848484612ec2565b6122055760405162461bcd60e51b8152600401610c7e90613a06565b606081612d925750506040805180820190915260018152600360fc1b602082015290565b8160005b8115612dbc5780612da681613756565b9150612db59050600a836139f2565b9150612d96565b60008167ffffffffffffffff811115612dd757612dd76132bf565b6040519080825280601f01601f191660200182016040528015612e01576020820181803683370190505b5090505b841561289457612e16600183613729565b9150612e23600a86613a58565b612e2e90603061385b565b60f81b818381518110612e4357612e43613740565b60200101906001600160f81b031916908160001a905350612e65600a866139f2565b9450612e05565b60065460ff1615610db45760405162461bcd60e51b8152600401610c7e906137c2565b612e998383612fc0565b612ea66000848484612ec2565b610db45760405162461bcd60e51b8152600401610c7e90613a06565b60006001600160a01b0384163b15612fb557604051630a85bd0160e11b81526001600160a01b0385169063150b7a0290612f06903390899088908890600401613a6c565b6020604051808303816000875af1925050508015612f41575060408051601f3d908101601f19168201909252612f3e91810190613aa9565b60015b612f9b573d808015612f6f576040519150601f19603f3d011682016040523d82523d6000602084013e612f74565b606091505b508051612f935760405162461bcd60e51b8152600401610c7e90613a06565b805181602001fd5b6001600160e01b031916630a85bd0160e11b149050612894565b506001949350505050565b6001600160a01b0382166130165760405162461bcd60e51b815260206004820181905260248201527f4552433732313a206d696e7420746f20746865207a65726f20616464726573736044820152606401610c7e565b6000818152600260205260409020546001600160a01b03161561307b5760405162461bcd60e51b815260206004820152601c60248201527f4552433732313a20746f6b656e20616c7265616479206d696e746564000000006044820152606401610c7e565b61308760008383612e6c565b6001600160a01b03821660009081526003602052604081208054600192906130b090849061385b565b909155505060008181526002602052604080822080546001600160a01b0319166001600160a01b03861690811790915590518392907fddf252ad1be2c89b69c2b068fc378daa952ba7f163c4a11628f55a4df523b3ef908290a45050565b82805461311a906136a3565b90600052602060002090601f01602090048101928261313c5760008555613182565b82601f1061315557805160ff1916838001178555613182565b82800160010185558215613182579182015b82811115613182578251825591602001919060010190613167565b5061318e929150613192565b5090565b5b8082111561318e5760008155600101613193565b6001600160e01b0319811681146113e957600080fd5b6000602082840312156131cf57600080fd5b8135612a53816131a7565b60005b838110156131f55781810151838201526020016131dd565b838111156122055750506000910152565b6000815180845261321e8160208601602086016131da565b601f01601f19169290920160200192915050565b602081526000612a536020830184613206565b60006020828403121561325757600080fd5b5035919050565b80356001600160a01b038116811461327557600080fd5b919050565b60006020828403121561328c57600080fd5b612a538261325e565b600080604083850312156132a857600080fd5b6132b18361325e565b946020939093013593505050565b634e487b7160e01b600052604160045260246000fd5b604051601f8201601f1916810167ffffffffffffffff811182821017156132fe576132fe6132bf565b604052919050565b600067ffffffffffffffff831115613320576133206132bf565b613333601f8401601f19166020016132d5565b905082815283838301111561334757600080fd5b828260208301376000602084830101529392505050565b60006020828403121561337057600080fd5b813567ffffffffffffffff81111561338757600080fd5b8201601f8101841361339857600080fd5b61289484823560208401613306565b600067ffffffffffffffff8211156133c1576133c16132bf565b5060051b60200190565b600082601f8301126133dc57600080fd5b813560206133f16133ec836133a7565b6132d5565b82815260059290921b8401810191818101908684111561341057600080fd5b8286015b84811015613432576134258161325e565b8352918301918301613414565b509695505050505050565b60006020828403121561344f57600080fd5b813567ffffffffffffffff81111561346657600080fd5b612894848285016133cb565b60008060006060848603121561348757600080fd5b6134908461325e565b925061349e6020850161325e565b9150604084013590509250925092565b803560ff8116811461327557600080fd5b6000602082840312156134d157600080fd5b612a53826134ae565b600080604083850312156134ed57600080fd5b823567ffffffffffffffff8082111561350557600080fd5b613511868387016133cb565b935060209150818501358181111561352857600080fd5b85019050601f8101861361353b57600080fd5b80356135496133ec826133a7565b81815260059190911b8201830190838101908883111561356857600080fd5b928401925b8284101561358d5761357e846134ae565b8252928401929084019061356d565b80955050505050509250929050565b600080604083850312156135af57600080fd5b6135b88361325e565b9150602083013580151581146135cd57600080fd5b809150509250929050565b600080604083850312156135eb57600080fd5b6135f4836134ae565b91506136026020840161325e565b90509250929050565b6000806000806080858703121561362157600080fd5b61362a8561325e565b93506136386020860161325e565b925060408501359150606085013567ffffffffffffffff81111561365b57600080fd5b8501601f8101871361366c57600080fd5b61367b87823560208401613306565b91505092959194509250565b6000806040838503121561369a57600080fd5b6135f48361325e565b600181811c908216806136b757607f821691505b602082108114156136d857634e487b7160e01b600052602260045260246000fd5b50919050565b6020808252818101527f4f776e61626c653a2063616c6c6572206973206e6f7420746865206f776e6572604082015260600190565b634e487b7160e01b600052601160045260246000fd5b60008282101561373b5761373b613713565b500390565b634e487b7160e01b600052603260045260246000fd5b600060001982141561376a5761376a613713565b5060010190565b60208082526031908201527f4552433732313a207472616e736665722063616c6c6572206973206e6f74206f6040820152701ddb995c881b9bdc88185c1c1c9bdd9959607a1b606082015260800190565b60208082526010908201526f14185d5cd8589b194e881c185d5cd95960821b604082015260600190565b6020808252602a908201527f45786365656473206d617820616c6c6f77656420616d6f756e742070657220746040820152693930b739b0b1ba34b7b760b11b606082015260800190565b600060ff821660ff84168060ff0382111561385357613853613713565b019392505050565b6000821982111561386e5761386e613713565b500190565b60208082526038908201527f50726f76656e616e63652068617368206d7573742062652066726f7a656e206260408201527f65666f7265206d696e74696e672063616e2073746172742e0000000000000000606082015260800190565b8054600090600181811c90808316806138ea57607f831692505b602080841082141561390c57634e487b7160e01b600052602260045260246000fd5b81801561392057600181146139315761395e565b60ff1986168952848901965061395e565b60008881526020902060005b868110156139565781548b82015290850190830161393d565b505084890196505b50505050505092915050565b600061397682866138d0565b84516139868183602089016131da565b613992818301866138d0565b979650505050505050565b600060ff821660ff8114156139b4576139b4613713565b60010192915050565b60008160001904831182151516156139d7576139d7613713565b500290565b634e487b7160e01b600052601260045260246000fd5b600082613a0157613a016139dc565b500490565b60208082526032908201527f4552433732313a207472616e7366657220746f206e6f6e20455243373231526560408201527131b2b4bb32b91034b6b83632b6b2b73a32b960711b606082015260800190565b600082613a6757613a676139dc565b500690565b6001600160a01b0385811682528416602082015260408101839052608060608201819052600090613a9f90830184613206565b9695505050505050565b600060208284031215613abb57600080fd5b8151612a53816131a756fea26469706673582212203c5386b11b947c134a2c0b73d19cf0150a19485677458bc7af3fab5bf9901cb864736f6c634300080a0033",
  "bytecodeSha1": "b8ffb31b7dabd13a8a64bcd67e545b96d0bc4ad3",
  "compiler": {
    "evm_version": "istanbul",
    "optimizer": {
      "enabled": true,
      "runs": 200
    },
    "version": "0.8.10+commit.fc410830"
  },
  "contractName": "CryptidToken",
  "language": "Solidity",
  "natspec": {
    "kind": "dev",
    "methods": {
      "approve(address,uint256)": {
        "details": "See {IERC721-approve}."
      },
      "balanceOf(address)": {
        "details": "See {IERC721-balanceOf}."
      },
      "burn(uint256)": {
        "details": "Burns `tokenId`. See {ERC721-_burn}. Requirements: - The caller must own `tokenId` or be an approved operator."
      },
      "getApproved(uint256)": {
        "details": "See {IERC721-getApproved}."
      },
      "isApprovedForAll(address,address)": {
        "details": "See {IERC721-isApprovedForAll}."
      },
      "name()": {
        "details": "See {IERC721Metadata-name}."
      },
      "owner()": {
        "details": "Returns the address of the current owner."
      },
      "ownerOf(uint256)": {
        "details": "See {IERC721-ownerOf}."
      },
      "paused()": {
        "details": "Returns true if the contract is paused, and false otherwise."
      },
      "renounceOwnership()": {
        "details": "Leaves the contract without owner. It will not be possible to call `onlyOwner` functions anymore. Can only be called by the current owner. NOTE: Renouncing ownership will leave the contract without an owner, thereby removing any functionality that is only available to the owner."
      },
      "safeTransferFrom(address,address,uint256)": {
        "details": "See {IERC721-safeTransferFrom}."
      },
      "safeTransferFrom(address,address,uint256,bytes)": {
        "details": "See {IERC721-safeTransferFrom}."
      },
      "setApprovalForAll(address,bool)": {
        "details": "See {IERC721-setApprovalForAll}."
      },
      "supportsInterface(bytes4)": {
        "details": "See {IERC165-supportsInterface}."
      },
      "symbol()": {
        "details": "See {IERC721Metadata-symbol}."
      },
      "tokenURI(uint256)": {
        "details": "See {IERC721Metadata-tokenURI}."
      },
      "transferFrom(address,address,uint256)": {
        "details": "See {IERC721-transferFrom}."
      },
      "transferOwnership(address)": {
        "details": "Transfers ownership of the contract to a new account (`newOwner`). Can only be called by the current owner."
      }
    },
    "version": 1
  },
  "opcodes": "PUSH1 0x80 PUSH1 0x40 MSTORE PUSH1 0x4 CALLDATASIZE LT PUSH2 0x3AC JUMPI PUSH1 0x0 CALLDATALOAD PUSH1 0xE0 SHR DUP1 PUSH4 0x78231978 GT PUSH2 0x1E7 JUMPI DUP1 PUSH4 0xC6682862 GT PUSH2 0x10D JUMPI DUP1 PUSH4 0xE6CBB6B1 GT PUSH2 0xA0 JUMPI DUP1 PUSH4 0xEE3743AB GT PUSH2 0x6F JUMPI DUP1 PUSH4 0xEE3743AB EQ PUSH2 0xAC2 JUMPI DUP1 PUSH4 0xF2FDE38B EQ PUSH2 0xAD7 JUMPI DUP1 PUSH4 0xF51F96DD EQ PUSH2 0xAF7 JUMPI DUP1 PUSH4 0xFCAA7664 EQ PUSH2 0xB0D JUMPI PUSH1 0x0 DUP1 REVERT JUMPDEST DUP1 PUSH4 0xE6CBB6B1 EQ PUSH2 0xA2A JUMPI DUP1 PUSH4 0xE7BC8208 EQ PUSH2 0xA44 JUMPI DUP1 PUSH4 0xE985E9C5 EQ PUSH2 0xA59 JUMPI DUP1 PUSH4 0xED931E17 EQ PUSH2 0xAA2 JUMPI PUSH1 0x0 DUP1 REVERT JUMPDEST DUP1 PUSH4 0xDA3EF23F GT PUSH2 0xDC JUMPI DUP1 PUSH4 0xDA3EF23F EQ PUSH2 0x9B6 JUMPI DUP1 PUSH4 0xDE5F9866 EQ PUSH2 0x9D6 JUMPI DUP1 PUSH4 0xDE7FCB1D EQ PUSH2 0x9EB JUMPI DUP1 PUSH4 0xE59A2F99 EQ PUSH2 0xA0A JUMPI PUSH1 0x0 DUP1 REVERT JUMPDEST DUP1 PUSH4 0xC6682862 EQ PUSH2 0x957 JUMPI DUP1 PUSH4 0xC6AB67A3 EQ PUSH2 0x96C JUMPI DUP1 PUSH4 0xC87B56DD EQ PUSH2 0x981 JUMPI DUP1 PUSH4 0xD6D67A09 EQ PUSH2 0x9A1 JUMPI PUSH1 0x0 DUP1 REVERT JUMPDEST DUP1 PUSH4 0x9A2A9C3D GT PUSH2 0x185 JUMPI DUP1 PUSH4 0xB3CAAD01 GT PUSH2 0x154 JUMPI DUP1 PUSH4 0xB3CAAD01 EQ PUSH2 0x8E1 JUMPI DUP1 PUSH4 0xB88D4FDE EQ PUSH2 0x901 JUMPI DUP1 PUSH4 0xC29DE630 EQ PUSH2 0x921 JUMPI DUP1 PUSH4 0xC3214581 EQ PUSH2 0x941 JUMPI PUSH1 0x0 DUP1 REVERT JUMPDEST DUP1 PUSH4 0x9A2A9C3D EQ PUSH2 0x86A JUMPI DUP1 PUSH4 0xA22CB465 EQ PUSH2 0x88B JUMPI DUP1 PUSH4 0xB1214392 EQ PUSH2 0x8AB JUMPI DUP1 PUSH4 0xB3A196E9 EQ PUSH2 0x8CB JUMPI PUSH1 0x0 DUP1 REVERT JUMPDEST DUP1 PUSH4 0x8456CB59 GT PUSH2 0x1C1 JUMPI DUP1 PUSH4 0x8456CB59 EQ PUSH2 0x7FD JUMPI DUP1 PUSH4 0x865054ED EQ PUSH2 0x812 JUMPI DUP1 PUSH4 0x8DA5CB5B EQ PUSH2 0x832 JUMPI DUP1 PUSH4 0x95D89B41 EQ PUSH2 0x855 JUMPI PUSH1 0x0 DUP1 REVERT JUMPDEST DUP1 PUSH4 0x78231978 EQ PUSH2 0x7B2 JUMPI DUP1 PUSH4 0x791A2519 EQ PUSH2 0x7C8 JUMPI DUP1 PUSH4 0x81C162F2 EQ PUSH2 0x7E8 JUMPI PUSH1 0x0 DUP1 REVERT JUMPDEST DUP1 PUSH4 0x3BDF4AC6 GT PUSH2 0x2D7 JUMPI DUP1 PUSH4 0x622E4E78 GT PUSH2 0x26A JUMPI DUP1 PUSH4 0x6EC55DBC GT PUSH2 0x239 JUMPI DUP1 PUSH4 0x6EC55DBC EQ PUSH2 0x73A JUMPI DUP1 PUSH4 0x6ECD2306 EQ PUSH2 0x76A JUMPI DUP1 PUSH4 0x70A08231 EQ PUSH2 0x77D JUMPI DUP1 PUSH4 0x715018A6 EQ PUSH2 0x79D JUMPI PUSH1 0x0 DUP1 REVERT JUMPDEST DUP1 PUSH4 0x622E4E78 EQ PUSH2 0x6D0 JUMPI DUP1 PUSH4 0x6352211E EQ PUSH2 0x6F0 JUMPI DUP1 PUSH4 0x6C0360EB EQ PUSH2 0x710 JUMPI DUP1 PUSH4 0x6CBB8985 EQ PUSH2 0x725 JUMPI PUSH1 0x0 DUP1 REVERT JUMPDEST DUP1 PUSH4 0x42966C68 GT PUSH2 0x2A6 JUMPI DUP1 PUSH4 0x42966C68 EQ PUSH2 0x650 JUMPI DUP1 PUSH4 0x55F804B3 EQ PUSH2 0x670 JUMPI DUP1 PUSH4 0x5C975ABB EQ PUSH2 0x690 JUMPI DUP1 PUSH4 0x61869A93 EQ PUSH2 0x6A8 JUMPI PUSH1 0x0 DUP1 REVERT JUMPDEST DUP1 PUSH4 0x3BDF4AC6 EQ PUSH2 0x5E3 JUMPI DUP1 PUSH4 0x3CCFD60B EQ PUSH2 0x613 JUMPI DUP1 PUSH4 0x3F4BA83A EQ PUSH2 0x61B JUMPI DUP1 PUSH4 0x42842E0E EQ PUSH2 0x630 JUMPI PUSH1 0x0 DUP1 REVERT JUMPDEST DUP1 PUSH4 0xB0C312D GT PUSH2 0x34F JUMPI DUP1 PUSH4 0x23957C66 GT PUSH2 0x31E JUMPI DUP1 PUSH4 0x23957C66 EQ PUSH2 0x563 JUMPI DUP1 PUSH4 0x23B872DD EQ PUSH2 0x583 JUMPI DUP1 PUSH4 0x30CC7AE0 EQ PUSH2 0x5A3 JUMPI DUP1 PUSH4 0x3549345E EQ PUSH2 0x5C3 JUMPI PUSH1 0x0 DUP1 REVERT JUMPDEST DUP1 PUSH4 0xB0C312D EQ PUSH2 0x4DE JUMPI DUP1 PUSH4 0x10969523 EQ PUSH2 0x50E JUMPI DUP1 PUSH4 0x18160DDD EQ PUSH2 0x52E JUMPI DUP1 PUSH4 0x20841A6A EQ PUSH2 0x543 JUMPI PUSH1 0x0 DUP1 REVERT JUMPDEST DUP1 PUSH4 0x81812FC GT PUSH2 0x38B JUMPI DUP1 PUSH4 0x81812FC EQ PUSH2 0x42C JUMPI DUP1 PUSH4 0x88139A6 EQ PUSH2 0x464 JUMPI DUP1 PUSH4 0x94E4072 EQ PUSH2 0x47A JUMPI DUP1 PUSH4 0x95EA7B3 EQ PUSH2 0x4BC JUMPI PUSH1 0x0 DUP1 REVERT JUMPDEST DUP1 PUSH3 0xE7FA8 EQ PUSH2 0x3B1 JUMPI DUP1 PUSH4 0x1FFC9A7 EQ PUSH2 0x3DA JUMPI DUP1 PUSH4 0x6FDDE03 EQ PUSH2 0x40A JUMPI JUMPDEST PUSH1 0x0 DUP1 REVERT JUMPDEST CALLVALUE DUP1 ISZERO PUSH2 0x3BD JUMPI PUSH1 0x0 DUP1 REVERT JUMPDEST POP PUSH2 0x3C7 PUSH1 0x11 SLOAD DUP2 JUMP JUMPDEST PUSH1 0x40 MLOAD SWAP1 DUP2 MSTORE PUSH1 0x20 ADD JUMPDEST PUSH1 0x40 MLOAD DUP1 SWAP2 SUB SWAP1 RETURN JUMPDEST CALLVALUE DUP1 ISZERO PUSH2 0x3E6 JUMPI PUSH1 0x0 DUP1 REVERT JUMPDEST POP PUSH2 0x3FA PUSH2 0x3F5 CALLDATASIZE PUSH1 0x4 PUSH2 0x31BD JUMP JUMPDEST PUSH2 0xB25 JUMP JUMPDEST PUSH1 0x40 MLOAD SWAP1 ISZERO ISZERO DUP2 MSTORE PUSH1 0x20 ADD PUSH2 0x3D1 JUMP JUMPDEST CALLVALUE DUP1 ISZERO PUSH2 0x416 JUMPI PUSH1 0x0 DUP1 REVERT JUMPDEST POP PUSH2 0x41F PUSH2 0xB77 JUMP JUMPDEST PUSH1 0x40 MLOAD PUSH2 0x3D1 SWAP2 SWAP1 PUSH2 0x3232 JUMP JUMPDEST CALLVALUE DUP1 ISZERO PUSH2 0x438 JUMPI PUSH1 0x0 DUP1 REVERT JUMPDEST POP PUSH2 0x44C PUSH2 0x447 CALLDATASIZE PUSH1 0x4 PUSH2 0x3245 JUMP JUMPDEST PUSH2 0xC09 JUMP JUMPDEST PUSH1 0x40 MLOAD PUSH1 0x1 PUSH1 0x1 PUSH1 0xA0 SHL SUB SWAP1 SWAP2 AND DUP2 MSTORE PUSH1 0x20 ADD PUSH2 0x3D1 JUMP JUMPDEST CALLVALUE DUP1 ISZERO PUSH2 0x470 JUMPI PUSH1 0x0 DUP1 REVERT JUMPDEST POP PUSH2 0x3C7 PUSH1 0x15 SLOAD DUP2 JUMP JUMPDEST CALLVALUE DUP1 ISZERO PUSH2 0x486 JUMPI PUSH1 0x0 DUP1 REVERT JUMPDEST POP PUSH2 0x4AA PUSH2 0x495 CALLDATASIZE PUSH1 0x4 PUSH2 0x327A JUMP JUMPDEST PUSH1 0x13 PUSH1 0x20 MSTORE PUSH1 0x0 SWAP1 DUP2 MSTORE PUSH1 0x40 SWAP1 KECCAK256 SLOAD PUSH1 0xFF AND DUP2 JUMP JUMPDEST PUSH1 0x40 MLOAD PUSH1 0xFF SWAP1 SWAP2 AND DUP2 MSTORE PUSH1 0x20 ADD PUSH2 0x3D1 JUMP JUMPDEST CALLVALUE DUP1 ISZERO PUSH2 0x4C8 JUMPI PUSH1 0x0 DUP1 REVERT JUMPDEST POP PUSH2 0x4DC PUSH2 0x4D7 CALLDATASIZE PUSH1 0x4 PUSH2 0x3295 JUMP JUMPDEST PUSH2 0xCA3 JUMP JUMPDEST STOP JUMPDEST CALLVALUE DUP1 ISZERO PUSH2 0x4EA JUMPI PUSH1 0x0 DUP1 REVERT JUMPDEST POP PUSH2 0x3FA PUSH2 0x4F9 CALLDATASIZE PUSH1 0x4 PUSH2 0x327A JUMP JUMPDEST PUSH1 0xF PUSH1 0x20 MSTORE PUSH1 0x0 SWAP1 DUP2 MSTORE PUSH1 0x40 SWAP1 KECCAK256 SLOAD PUSH1 0xFF AND DUP2 JUMP JUMPDEST CALLVALUE DUP1 ISZERO PUSH2 0x51A JUMPI PUSH1 0x0 DUP1 REVERT JUMPDEST POP PUSH2 0x4DC PUSH2 0x529 CALLDATASIZE PUSH1 0x4 PUSH2 0x335E JUMP JUMPDEST PUSH2 0xDB9 JUMP JUMPDEST CALLVALUE DUP1 ISZERO PUSH2 0x53A JUMPI PUSH1 0x0 DUP1 REVERT JUMPDEST POP PUSH2 0x3C7 PUSH2 0xE5A JUMP JUMPDEST CALLVALUE DUP1 ISZERO PUSH2 0x54F JUMPI PUSH1 0x0 DUP1 REVERT JUMPDEST POP PUSH2 0x4DC PUSH2 0x55E CALLDATASIZE PUSH1 0x4 PUSH2 0x3245 JUMP JUMPDEST PUSH2 0xE76 JUMP JUMPDEST CALLVALUE DUP1 ISZERO PUSH2 0x56F JUMPI PUSH1 0x0 DUP1 REVERT JUMPDEST POP PUSH2 0x4DC PUSH2 0x57E CALLDATASIZE PUSH1 0x4 PUSH2 0x343D JUMP JUMPDEST PUSH2 0xEAB JUMP JUMPDEST CALLVALUE DUP1 ISZERO PUSH2 0x58F JUMPI PUSH1 0x0 DUP1 REVERT JUMPDEST POP PUSH2 0x4DC PUSH2 0x59E CALLDATASIZE PUSH1 0x4 PUSH2 0x3472 JUMP JUMPDEST PUSH2 0xF92 JUMP JUMPDEST CALLVALUE DUP1 ISZERO PUSH2 0x5AF JUMPI PUSH1 0x0 DUP1 REVERT JUMPDEST POP PUSH2 0x4DC PUSH2 0x5BE CALLDATASIZE PUSH1 0x4 PUSH2 0x327A JUMP JUMPDEST PUSH2 0xFC4 JUMP JUMPDEST CALLVALUE DUP1 ISZERO PUSH2 0x5CF JUMPI PUSH1 0x0 DUP1 REVERT JUMPDEST POP PUSH2 0x4DC PUSH2 0x5DE CALLDATASIZE PUSH1 0x4 PUSH2 0x3245 JUMP JUMPDEST PUSH2 0x10D4 JUMP JUMPDEST CALLVALUE DUP1 ISZERO PUSH2 0x5EF JUMPI PUSH1 0x0 DUP1 REVERT JUMPDEST POP PUSH2 0x4AA PUSH2 0x5FE CALLDATASIZE PUSH1 0x4 PUSH2 0x327A JUMP JUMPDEST PUSH1 0xE PUSH1 0x20 MSTORE PUSH1 0x0 SWAP1 DUP2 MSTORE PUSH1 0x40 SWAP1 KECCAK256 SLOAD PUSH1 0xFF AND DUP2 JUMP JUMPDEST PUSH2 0x4DC PUSH2 0x1158 JUMP JUMPDEST CALLVALUE DUP1 ISZERO PUSH2 0x627 JUMPI PUSH1 0x0 DUP1 REVERT JUMPDEST POP PUSH2 0x4DC PUSH2 0x131D JUMP JUMPDEST CALLVALUE DUP1 ISZERO PUSH2 0x63C JUMPI PUSH1 0x0 DUP1 REVERT JUMPDEST POP PUSH2 0x4DC PUSH2 0x64B CALLDATASIZE PUSH1 0x4 PUSH2 0x3472 JUMP JUMPDEST PUSH2 0x1357 JUMP JUMPDEST CALLVALUE DUP1 ISZERO PUSH2 0x65C JUMPI PUSH1 0x0 DUP1 REVERT JUMPDEST POP PUSH2 0x4DC PUSH2 0x66B CALLDATASIZE PUSH1 0x4 PUSH2 0x3245 JUMP JUMPDEST PUSH2 0x1372 JUMP JUMPDEST CALLVALUE DUP1 ISZERO PUSH2 0x67C JUMPI PUSH1 0x0 DUP1 REVERT JUMPDEST POP PUSH2 0x4DC PUSH2 0x68B CALLDATASIZE PUSH1 0x4 PUSH2 0x335E JUMP JUMPDEST PUSH2 0x13EC JUMP JUMPDEST CALLVALUE DUP1 ISZERO PUSH2 0x69C JUMPI PUSH1 0x0 DUP1 REVERT JUMPDEST POP PUSH1 0x6 SLOAD PUSH1 0xFF AND PUSH2 0x3FA JUMP JUMPDEST CALLVALUE DUP1 ISZERO PUSH2 0x6B4 JUMPI PUSH1 0x0 DUP1 REVERT JUMPDEST POP PUSH1 0xB SLOAD PUSH2 0x44C SWAP1 PUSH5 0x100000000 SWAP1 DIV PUSH1 0x1 PUSH1 0x1 PUSH1 0xA0 SHL SUB AND DUP2 JUMP JUMPDEST CALLVALUE DUP1 ISZERO PUSH2 0x6DC JUMPI PUSH1 0x0 DUP1 REVERT JUMPDEST POP PUSH2 0x4DC PUSH2 0x6EB CALLDATASIZE PUSH1 0x4 PUSH2 0x34BF JUMP JUMPDEST PUSH2 0x147D JUMP JUMPDEST CALLVALUE DUP1 ISZERO PUSH2 0x6FC JUMPI PUSH1 0x0 DUP1 REVERT JUMPDEST POP PUSH2 0x44C PUSH2 0x70B CALLDATASIZE PUSH1 0x4 PUSH2 0x3245 JUMP JUMPDEST PUSH2 0x14C9 JUMP JUMPDEST CALLVALUE DUP1 ISZERO PUSH2 0x71C JUMPI PUSH1 0x0 DUP1 REVERT JUMPDEST POP PUSH2 0x41F PUSH2 0x1540 JUMP JUMPDEST CALLVALUE DUP1 ISZERO PUSH2 0x731 JUMPI PUSH1 0x0 DUP1 REVERT JUMPDEST POP PUSH2 0x44C PUSH2 0x15CE JUMP JUMPDEST CALLVALUE DUP1 ISZERO PUSH2 0x746 JUMPI PUSH1 0x0 DUP1 REVERT JUMPDEST POP PUSH2 0x4AA PUSH2 0x755 CALLDATASIZE PUSH1 0x4 PUSH2 0x327A JUMP JUMPDEST PUSH1 0xD PUSH1 0x20 MSTORE PUSH1 0x0 SWAP1 DUP2 MSTORE PUSH1 0x40 SWAP1 KECCAK256 SLOAD PUSH1 0xFF AND DUP2 JUMP JUMPDEST PUSH2 0x4DC PUSH2 0x778 CALLDATASIZE PUSH1 0x4 PUSH2 0x34BF JUMP JUMPDEST PUSH2 0x162A JUMP JUMPDEST CALLVALUE DUP1 ISZERO PUSH2 0x789 JUMPI PUSH1 0x0 DUP1 REVERT JUMPDEST POP PUSH2 0x3C7 PUSH2 0x798 CALLDATASIZE PUSH1 0x4 PUSH2 0x327A JUMP JUMPDEST PUSH2 0x1C81 JUMP JUMPDEST CALLVALUE DUP1 ISZERO PUSH2 0x7A9 JUMPI PUSH1 0x0 DUP1 REVERT JUMPDEST POP PUSH2 0x4DC PUSH2 0x1D08 JUMP JUMPDEST CALLVALUE DUP1 ISZERO PUSH2 0x7BE JUMPI PUSH1 0x0 DUP1 REVERT JUMPDEST POP PUSH2 0x3C7 PUSH1 0x17 SLOAD DUP2 JUMP JUMPDEST CALLVALUE DUP1 ISZERO PUSH2 0x7D4 JUMPI PUSH1 0x0 DUP1 REVERT JUMPDEST POP PUSH2 0x4DC PUSH2 0x7E3 CALLDATASIZE PUSH1 0x4 PUSH2 0x3245 JUMP JUMPDEST PUSH2 0x1D42 JUMP JUMPDEST CALLVALUE DUP1 ISZERO PUSH2 0x7F4 JUMPI PUSH1 0x0 DUP1 REVERT JUMPDEST POP PUSH2 0x4DC PUSH2 0x1D77 JUMP JUMPDEST CALLVALUE DUP1 ISZERO PUSH2 0x809 JUMPI PUSH1 0x0 DUP1 REVERT JUMPDEST POP PUSH2 0x4DC PUSH2 0x1E7F JUMP JUMPDEST CALLVALUE DUP1 ISZERO PUSH2 0x81E JUMPI PUSH1 0x0 DUP1 REVERT JUMPDEST POP PUSH2 0x4DC PUSH2 0x82D CALLDATASIZE PUSH1 0x4 PUSH2 0x34DA JUMP JUMPDEST PUSH2 0x1EB7 JUMP JUMPDEST CALLVALUE DUP1 ISZERO PUSH2 0x83E JUMPI PUSH1 0x0 DUP1 REVERT JUMPDEST POP PUSH1 0x6 SLOAD PUSH2 0x100 SWAP1 DIV PUSH1 0x1 PUSH1 0x1 PUSH1 0xA0 SHL SUB AND PUSH2 0x44C JUMP JUMPDEST CALLVALUE DUP1 ISZERO PUSH2 0x861 JUMPI PUSH1 0x0 DUP1 REVERT JUMPDEST POP PUSH2 0x41F PUSH2 0x1FCD JUMP JUMPDEST CALLVALUE DUP1 ISZERO PUSH2 0x876 JUMPI PUSH1 0x0 DUP1 REVERT JUMPDEST POP PUSH1 0xB SLOAD PUSH2 0x3FA SWAP1 PUSH4 0x1000000 SWAP1 DIV PUSH1 0xFF AND DUP2 JUMP JUMPDEST CALLVALUE DUP1 ISZERO PUSH2 0x897 JUMPI PUSH1 0x0 DUP1 REVERT JUMPDEST POP PUSH2 0x4DC PUSH2 0x8A6 CALLDATASIZE PUSH1 0x4 PUSH2 0x359C JUMP JUMPDEST PUSH2 0x1FDC JUMP JUMPDEST CALLVALUE DUP1 ISZERO PUSH2 0x8B7 JUMPI PUSH1 0x0 DUP1 REVERT JUMPDEST POP PUSH1 0xC SLOAD PUSH2 0x44C SWAP1 PUSH1 0x1 PUSH1 0x1 PUSH1 0xA0 SHL SUB AND DUP2 JUMP JUMPDEST CALLVALUE DUP1 ISZERO PUSH2 0x8D7 JUMPI PUSH1 0x0 DUP1 REVERT JUMPDEST POP PUSH2 0x3C7 PUSH1 0x10 SLOAD DUP2 JUMP JUMPDEST CALLVALUE DUP1 ISZERO PUSH2 0x8ED JUMPI PUSH1 0x0 DUP1 REVERT JUMPDEST POP PUSH2 0x4DC PUSH2 0x8FC CALLDATASIZE PUSH1 0x4 PUSH2 0x35D8 JUMP JUMPDEST PUSH2 0x1FE7 JUMP JUMPDEST CALLVALUE DUP1 ISZERO PUSH2 0x90D JUMPI PUSH1 0x0 DUP1 REVERT JUMPDEST POP PUSH2 0x4DC PUSH2 0x91C CALLDATASIZE PUSH1 0x4 PUSH2 0x360B JUMP JUMPDEST PUSH2 0x21D3 JUMP JUMPDEST CALLVALUE DUP1 ISZERO PUSH2 0x92D JUMPI PUSH1 0x0 DUP1 REVERT JUMPDEST POP PUSH1 0xB SLOAD PUSH2 0x3FA SWAP1 PUSH3 0x10000 SWAP1 DIV PUSH1 0xFF AND DUP2 JUMP JUMPDEST CALLVALUE DUP1 ISZERO PUSH2 0x94D JUMPI PUSH1 0x0 DUP1 REVERT JUMPDEST POP PUSH2 0x3C7 PUSH1 0x14 SLOAD DUP2 JUMP JUMPDEST CALLVALUE DUP1 ISZERO PUSH2 0x963 JUMPI PUSH1 0x0 DUP1 REVERT JUMPDEST POP PUSH2 0x41F PUSH2 0x220B JUMP JUMPDEST CALLVALUE DUP1 ISZERO PUSH2 0x978 JUMPI PUSH1 0x0 DUP1 REVERT JUMPDEST POP PUSH2 0x41F PUSH2 0x2218 JUMP JUMPDEST CALLVALUE DUP1 ISZERO PUSH2 0x98D JUMPI PUSH1 0x0 DUP1 REVERT JUMPDEST POP PUSH2 0x41F PUSH2 0x99C CALLDATASIZE PUSH1 0x4 PUSH2 0x3245 JUMP JUMPDEST PUSH2 0x2225 JUMP JUMPDEST CALLVALUE DUP1 ISZERO PUSH2 0x9AD JUMPI PUSH1 0x0 DUP1 REVERT JUMPDEST POP PUSH2 0x3C7 PUSH2 0x22D9 JUMP JUMPDEST CALLVALUE DUP1 ISZERO PUSH2 0x9C2 JUMPI PUSH1 0x0 DUP1 REVERT JUMPDEST POP PUSH2 0x4DC PUSH2 0x9D1 CALLDATASIZE PUSH1 0x4 PUSH2 0x335E JUMP JUMPDEST PUSH2 0x2332 JUMP JUMPDEST CALLVALUE DUP1 ISZERO PUSH2 0x9E2 JUMPI PUSH1 0x0 DUP1 REVERT JUMPDEST POP PUSH2 0x3C7 PUSH2 0x2375 JUMP JUMPDEST CALLVALUE DUP1 ISZERO PUSH2 0x9F7 JUMPI PUSH1 0x0 DUP1 REVERT JUMPDEST POP PUSH1 0xB SLOAD PUSH2 0x4AA SWAP1 PUSH2 0x100 SWAP1 DIV PUSH1 0xFF AND DUP2 JUMP JUMPDEST CALLVALUE DUP1 ISZERO PUSH2 0xA16 JUMPI PUSH1 0x0 DUP1 REVERT JUMPDEST POP PUSH2 0x4DC PUSH2 0xA25 CALLDATASIZE PUSH1 0x4 PUSH2 0x3687 JUMP JUMPDEST PUSH2 0x238C JUMP JUMPDEST CALLVALUE DUP1 ISZERO PUSH2 0xA36 JUMPI PUSH1 0x0 DUP1 REVERT JUMPDEST POP PUSH1 0x12 SLOAD PUSH2 0x4AA SWAP1 PUSH1 0xFF AND DUP2 JUMP JUMPDEST CALLVALUE DUP1 ISZERO PUSH2 0xA50 JUMPI PUSH1 0x0 DUP1 REVERT JUMPDEST POP PUSH2 0x4DC PUSH2 0x23FA JUMP JUMPDEST CALLVALUE DUP1 ISZERO PUSH2 0xA65 JUMPI PUSH1 0x0 DUP1 REVERT JUMPDEST POP PUSH2 0x3FA PUSH2 0xA74 CALLDATASIZE PUSH1 0x4 PUSH2 0x3687 JUMP JUMPDEST PUSH1 0x1 PUSH1 0x1 PUSH1 0xA0 SHL SUB SWAP2 DUP3 AND PUSH1 0x0 SWAP1 DUP2 MSTORE PUSH1 0x5 PUSH1 0x20 SWAP1 DUP2 MSTORE PUSH1 0x40 DUP1 DUP4 KECCAK256 SWAP4 SWAP1 SWAP5 AND DUP3 MSTORE SWAP2 SWAP1 SWAP2 MSTORE KECCAK256 SLOAD PUSH1 0xFF AND SWAP1 JUMP JUMPDEST CALLVALUE DUP1 ISZERO PUSH2 0xAAE JUMPI PUSH1 0x0 DUP1 REVERT JUMPDEST POP PUSH2 0x4DC PUSH2 0xABD CALLDATASIZE PUSH1 0x4 PUSH2 0x327A JUMP JUMPDEST PUSH2 0x24F4 JUMP JUMPDEST CALLVALUE DUP1 ISZERO PUSH2 0xACE JUMPI PUSH1 0x0 DUP1 REVERT JUMPDEST POP PUSH2 0x4DC PUSH2 0x25AD JUMP JUMPDEST CALLVALUE DUP1 ISZERO PUSH2 0xAE3 JUMPI PUSH1 0x0 DUP1 REVERT JUMPDEST POP PUSH2 0x4DC PUSH2 0xAF2 CALLDATASIZE PUSH1 0x4 PUSH2 0x327A JUMP JUMPDEST PUSH2 0x2690 JUMP JUMPDEST CALLVALUE DUP1 ISZERO PUSH2 0xB03 JUMPI PUSH1 0x0 DUP1 REVERT JUMPDEST POP PUSH2 0x3C7 PUSH1 0x16 SLOAD DUP2 JUMP JUMPDEST CALLVALUE DUP1 ISZERO PUSH2 0xB19 JUMPI PUSH1 0x0 DUP1 REVERT JUMPDEST POP PUSH1 0xB SLOAD PUSH1 0xFF AND PUSH2 0x4AA JUMP JUMPDEST PUSH1 0x0 PUSH1 0x1 PUSH1 0x1 PUSH1 0xE0 SHL SUB NOT DUP3 AND PUSH4 0x80AC58CD PUSH1 0xE0 SHL EQ DUP1 PUSH2 0xB56 JUMPI POP PUSH1 0x1 PUSH1 0x1 PUSH1 0xE0 SHL SUB NOT DUP3 AND PUSH4 0x5B5E139F PUSH1 0xE0 SHL EQ JUMPDEST DUP1 PUSH2 0xB71 JUMPI POP PUSH4 0x1FFC9A7 PUSH1 0xE0 SHL PUSH1 0x1 PUSH1 0x1 PUSH1 0xE0 SHL SUB NOT DUP4 AND EQ JUMPDEST SWAP3 SWAP2 POP POP JUMP JUMPDEST PUSH1 0x60 PUSH1 0x0 DUP1 SLOAD PUSH2 0xB86 SWAP1 PUSH2 0x36A3 JUMP JUMPDEST DUP1 PUSH1 0x1F ADD PUSH1 0x20 DUP1 SWAP2 DIV MUL PUSH1 0x20 ADD PUSH1 0x40 MLOAD SWAP1 DUP2 ADD PUSH1 0x40 MSTORE DUP1 SWAP3 SWAP2 SWAP1 DUP2 DUP2 MSTORE PUSH1 0x20 ADD DUP3 DUP1 SLOAD PUSH2 0xBB2 SWAP1 PUSH2 0x36A3 JUMP JUMPDEST DUP1 ISZERO PUSH2 0xBFF JUMPI DUP1 PUSH1 0x1F LT PUSH2 0xBD4 JUMPI PUSH2 0x100 DUP1 DUP4 SLOAD DIV MUL DUP4 MSTORE SWAP2 PUSH1 0x20 ADD SWAP2 PUSH2 0xBFF JUMP JUMPDEST DUP3 ADD SWAP2 SWAP1 PUSH1 0x0 MSTORE PUSH1 0x20 PUSH1 0x0 KECCAK256 SWAP1 JUMPDEST DUP2 SLOAD DUP2 MSTORE SWAP1 PUSH1 0x1 ADD SWAP1 PUSH1 0x20 ADD DUP1 DUP4 GT PUSH2 0xBE2 JUMPI DUP3 SWAP1 SUB PUSH1 0x1F AND DUP3 ADD SWAP2 JUMPDEST POP POP POP POP POP SWAP1 POP SWAP1 JUMP JUMPDEST PUSH1 0x0 DUP2 DUP2 MSTORE PUSH1 0x2 PUSH1 0x20 MSTORE PUSH1 0x40 DUP2 KECCAK256 SLOAD PUSH1 0x1 PUSH1 0x1 PUSH1 0xA0 SHL SUB AND PUSH2 0xC87 JUMPI PUSH1 0x40 MLOAD PUSH3 0x461BCD PUSH1 0xE5 SHL DUP2 MSTORE PUSH1 0x20 PUSH1 0x4 DUP3 ADD MSTORE PUSH1 0x2C PUSH1 0x24 DUP3 ADD MSTORE PUSH32 0x4552433732313A20617070726F76656420717565727920666F72206E6F6E6578 PUSH1 0x44 DUP3 ADD MSTORE PUSH12 0x34B9BA32B73A103A37B5B2B7 PUSH1 0xA1 SHL PUSH1 0x64 DUP3 ADD MSTORE PUSH1 0x84 ADD JUMPDEST PUSH1 0x40 MLOAD DUP1 SWAP2 SUB SWAP1 REVERT JUMPDEST POP PUSH1 0x0 SWAP1 DUP2 MSTORE PUSH1 0x4 PUSH1 0x20 MSTORE PUSH1 0x40 SWAP1 KECCAK256 SLOAD PUSH1 0x1 PUSH1 0x1 PUSH1 0xA0 SHL SUB AND SWAP1 JUMP JUMPDEST PUSH1 0x0 PUSH2 0xCAE DUP3 PUSH2 0x14C9 JUMP JUMPDEST SWAP1 POP DUP1 PUSH1 0x1 PUSH1 0x1 PUSH1 0xA0 SHL SUB AND DUP4 PUSH1 0x1 PUSH1 0x1 PUSH1 0xA0 SHL SUB AND EQ ISZERO PUSH2 0xD1C JUMPI PUSH1 0x40 MLOAD PUSH3 0x461BCD PUSH1 0xE5 SHL DUP2 MSTORE PUSH1 0x20 PUSH1 0x4 DUP3 ADD MSTORE PUSH1 0x21 PUSH1 0x24 DUP3 ADD MSTORE PUSH32 0x4552433732313A20617070726F76616C20746F2063757272656E74206F776E65 PUSH1 0x44 DUP3 ADD MSTORE PUSH1 0x39 PUSH1 0xF9 SHL PUSH1 0x64 DUP3 ADD MSTORE PUSH1 0x84 ADD PUSH2 0xC7E JUMP JUMPDEST CALLER PUSH1 0x1 PUSH1 0x1 PUSH1 0xA0 SHL SUB DUP3 AND EQ DUP1 PUSH2 0xD38 JUMPI POP PUSH2 0xD38 DUP2 CALLER PUSH2 0xA74 JUMP JUMPDEST PUSH2 0xDAA JUMPI PUSH1 0x40 MLOAD PUSH3 0x461BCD PUSH1 0xE5 SHL DUP2 MSTORE PUSH1 0x20 PUSH1 0x4 DUP3 ADD MSTORE PUSH1 0x38 PUSH1 0x24 DUP3 ADD MSTORE PUSH32 0x4552433732313A20617070726F76652063616C6C6572206973206E6F74206F77 PUSH1 0x44 DUP3 ADD MSTORE PUSH32 0x6E6572206E6F7220617070726F76656420666F7220616C6C0000000000000000 PUSH1 0x64 DUP3 ADD MSTORE PUSH1 0x84 ADD PUSH2 0xC7E JUMP JUMPDEST PUSH2 0xDB4 DUP4 DUP4 PUSH2 0x2737 JUMP JUMPDEST POP POP POP JUMP JUMPDEST PUSH1 0x6 SLOAD PUSH1 0x1 PUSH1 0x1 PUSH1 0xA0 SHL SUB PUSH2 0x100 SWAP1 SWAP2 DIV AND CALLER EQ PUSH2 0xDE9 JUMPI PUSH1 0x40 MLOAD PUSH3 0x461BCD PUSH1 0xE5 SHL DUP2 MSTORE PUSH1 0x4 ADD PUSH2 0xC7E SWAP1 PUSH2 0x36DE JUMP JUMPDEST PUSH1 0xB SLOAD PUSH4 0x1000000 SWAP1 DIV PUSH1 0xFF AND ISZERO PUSH2 0xE43 JUMPI PUSH1 0x40 MLOAD PUSH3 0x461BCD PUSH1 0xE5 SHL DUP2 MSTORE PUSH1 0x20 PUSH1 0x4 DUP3 ADD MSTORE PUSH1 0x1A PUSH1 0x24 DUP3 ADD MSTORE PUSH32 0x50726F76656E616E636520686173682069732066726F7A656E2E000000000000 PUSH1 0x44 DUP3 ADD MSTORE PUSH1 0x64 ADD PUSH2 0xC7E JUMP JUMPDEST DUP1 MLOAD PUSH2 0xE56 SWAP1 PUSH1 0x8 SWAP1 PUSH1 0x20 DUP5 ADD SWAP1 PUSH2 0x310E JUMP JUMPDEST POP POP JUMP JUMPDEST PUSH1 0x0 PUSH1 0x1 PUSH2 0xE67 PUSH1 0x7 SLOAD SWAP1 JUMP JUMPDEST PUSH2 0xE71 SWAP2 SWAP1 PUSH2 0x3729 JUMP JUMPDEST SWAP1 POP SWAP1 JUMP JUMPDEST PUSH1 0x6 SLOAD PUSH1 0x1 PUSH1 0x1 PUSH1 0xA0 SHL SUB PUSH2 0x100 SWAP1 SWAP2 DIV AND CALLER EQ PUSH2 0xEA6 JUMPI PUSH1 0x40 MLOAD PUSH3 0x461BCD PUSH1 0xE5 SHL DUP2 MSTORE PUSH1 0x4 ADD PUSH2 0xC7E SWAP1 PUSH2 0x36DE JUMP JUMPDEST PUSH1 0x14 SSTORE JUMP JUMPDEST PUSH1 0x6 SLOAD PUSH1 0x1 PUSH1 0x1 PUSH1 0xA0 SHL SUB PUSH2 0x100 SWAP1 SWAP2 DIV AND CALLER EQ PUSH2 0xEDB JUMPI PUSH1 0x40 MLOAD PUSH3 0x461BCD PUSH1 0xE5 SHL DUP2 MSTORE PUSH1 0x4 ADD PUSH2 0xC7E SWAP1 PUSH2 0x36DE JUMP JUMPDEST PUSH1 0xB SLOAD PUSH1 0x3 PUSH1 0xFF SWAP1 SWAP2 AND LT PUSH2 0xF2A JUMPI PUSH1 0x40 MLOAD PUSH3 0x461BCD PUSH1 0xE5 SHL DUP2 MSTORE PUSH1 0x20 PUSH1 0x4 DUP3 ADD MSTORE PUSH1 0x15 PUSH1 0x24 DUP3 ADD MSTORE PUSH21 0x283932B9B0B6329034B99031B7B731B63AB232B217 PUSH1 0x59 SHL PUSH1 0x44 DUP3 ADD MSTORE PUSH1 0x64 ADD PUSH2 0xC7E JUMP JUMPDEST PUSH1 0x0 JUMPDEST DUP2 MLOAD DUP2 LT ISZERO PUSH2 0xE56 JUMPI PUSH1 0x1 PUSH1 0xF PUSH1 0x0 DUP5 DUP5 DUP2 MLOAD DUP2 LT PUSH2 0xF4E JUMPI PUSH2 0xF4E PUSH2 0x3740 JUMP JUMPDEST PUSH1 0x20 SWAP1 DUP2 MUL SWAP2 SWAP1 SWAP2 ADD DUP2 ADD MLOAD PUSH1 0x1 PUSH1 0x1 PUSH1 0xA0 SHL SUB AND DUP3 MSTORE DUP2 ADD SWAP2 SWAP1 SWAP2 MSTORE PUSH1 0x40 ADD PUSH1 0x0 KECCAK256 DUP1 SLOAD PUSH1 0xFF NOT AND SWAP2 ISZERO ISZERO SWAP2 SWAP1 SWAP2 OR SWAP1 SSTORE DUP1 PUSH2 0xF8A DUP2 PUSH2 0x3756 JUMP JUMPDEST SWAP2 POP POP PUSH2 0xF2D JUMP JUMPDEST PUSH2 0xF9D CALLER JUMPDEST DUP3 PUSH2 0x27A5 JUMP JUMPDEST PUSH2 0xFB9 JUMPI PUSH1 0x40 MLOAD PUSH3 0x461BCD PUSH1 0xE5 SHL DUP2 MSTORE PUSH1 0x4 ADD PUSH2 0xC7E SWAP1 PUSH2 0x3771 JUMP JUMPDEST PUSH2 0xDB4 DUP4 DUP4 DUP4 PUSH2 0x289C JUMP JUMPDEST PUSH1 0x6 SLOAD PUSH1 0x1 PUSH1 0x1 PUSH1 0xA0 SHL SUB PUSH2 0x100 SWAP1 SWAP2 DIV AND CALLER EQ PUSH2 0xFF4 JUMPI PUSH1 0x40 MLOAD PUSH3 0x461BCD PUSH1 0xE5 SHL DUP2 MSTORE PUSH1 0x4 ADD PUSH2 0xC7E SWAP1 PUSH2 0x36DE JUMP JUMPDEST PUSH1 0xB SLOAD PUSH1 0x2 PUSH1 0xFF SWAP1 SWAP2 AND LT PUSH2 0x104B JUMPI PUSH1 0x40 MLOAD PUSH3 0x461BCD PUSH1 0xE5 SHL DUP2 MSTORE PUSH1 0x20 PUSH1 0x4 DUP3 ADD MSTORE PUSH1 0x1C PUSH1 0x24 DUP3 ADD MSTORE PUSH32 0x57686974656C6973742073616C6520697320636F6E636C756465642E00000000 PUSH1 0x44 DUP3 ADD MSTORE PUSH1 0x64 ADD PUSH2 0xC7E JUMP JUMPDEST PUSH1 0x1 PUSH1 0x1 PUSH1 0xA0 SHL SUB DUP2 AND PUSH1 0x0 SWAP1 DUP2 MSTORE PUSH1 0xD PUSH1 0x20 MSTORE PUSH1 0x40 SWAP1 KECCAK256 SLOAD PUSH1 0xFF AND PUSH2 0x10B3 JUMPI PUSH1 0x40 MLOAD PUSH3 0x461BCD PUSH1 0xE5 SHL DUP2 MSTORE PUSH1 0x20 PUSH1 0x4 DUP3 ADD MSTORE PUSH1 0x19 PUSH1 0x24 DUP3 ADD MSTORE PUSH32 0x55736572206973206E6F74206F6E2077686974656C6973742E00000000000000 PUSH1 0x44 DUP3 ADD MSTORE PUSH1 0x64 ADD PUSH2 0xC7E JUMP JUMPDEST PUSH1 0x1 PUSH1 0x1 PUSH1 0xA0 SHL SUB AND PUSH1 0x0 SWAP1 DUP2 MSTORE PUSH1 0xD PUSH1 0x20 MSTORE PUSH1 0x40 SWAP1 KECCAK256 DUP1 SLOAD PUSH1 0xFF NOT AND SWAP1 SSTORE JUMP JUMPDEST PUSH1 0x6 SLOAD PUSH1 0x1 PUSH1 0x1 PUSH1 0xA0 SHL SUB PUSH2 0x100 SWAP1 SWAP2 DIV AND CALLER EQ PUSH2 0x1104 JUMPI PUSH1 0x40 MLOAD PUSH3 0x461BCD PUSH1 0xE5 SHL DUP2 MSTORE PUSH1 0x4 ADD PUSH2 0xC7E SWAP1 PUSH2 0x36DE JUMP JUMPDEST PUSH1 0xB SLOAD PUSH1 0x3 PUSH1 0xFF SWAP1 SWAP2 AND LT PUSH2 0x1153 JUMPI PUSH1 0x40 MLOAD PUSH3 0x461BCD PUSH1 0xE5 SHL DUP2 MSTORE PUSH1 0x20 PUSH1 0x4 DUP3 ADD MSTORE PUSH1 0x15 PUSH1 0x24 DUP3 ADD MSTORE PUSH21 0x283932B9B0B6329034B99031B7B731B63AB232B217 PUSH1 0x59 SHL PUSH1 0x44 DUP3 ADD MSTORE PUSH1 0x64 ADD PUSH2 0xC7E JUMP JUMPDEST PUSH1 0x11 SSTORE JUMP JUMPDEST PUSH1 0x6 SLOAD PUSH1 0x1 PUSH1 0x1 PUSH1 0xA0 SHL SUB PUSH2 0x100 SWAP1 SWAP2 DIV AND CALLER EQ PUSH2 0x1188 JUMPI PUSH1 0x40 MLOAD PUSH3 0x461BCD PUSH1 0xE5 SHL DUP2 MSTORE PUSH1 0x4 ADD PUSH2 0xC7E SWAP1 PUSH2 0x36DE JUMP JUMPDEST PUSH1 0x0 SELFBALANCE GT PUSH2 0x11D1 JUMPI PUSH1 0x40 MLOAD PUSH3 0x461BCD PUSH1 0xE5 SHL DUP2 MSTORE PUSH1 0x20 PUSH1 0x4 DUP3 ADD MSTORE PUSH1 0x16 PUSH1 0x24 DUP3 ADD MSTORE PUSH22 0x21B7B73A3930B1BA103130B630B731B29034B9901817 PUSH1 0x51 SHL PUSH1 0x44 DUP3 ADD MSTORE PUSH1 0x64 ADD PUSH2 0xC7E JUMP JUMPDEST PUSH1 0xB SLOAD PUSH1 0x0 SWAP1 PUSH5 0x100000000 SWAP1 DIV PUSH1 0x1 PUSH1 0x1 PUSH1 0xA0 SHL SUB AND PUSH2 0x11FE PUSH1 0x64 PUSH2 0x11F8 SELFBALANCE PUSH1 0x32 PUSH2 0x2A47 JUMP JUMPDEST SWAP1 PUSH2 0x2A5A JUMP JUMPDEST PUSH1 0x40 MLOAD PUSH1 0x0 DUP2 DUP2 DUP2 DUP6 DUP8 GAS CALL SWAP3 POP POP POP RETURNDATASIZE DUP1 PUSH1 0x0 DUP2 EQ PUSH2 0x123A JUMPI PUSH1 0x40 MLOAD SWAP2 POP PUSH1 0x1F NOT PUSH1 0x3F RETURNDATASIZE ADD AND DUP3 ADD PUSH1 0x40 MSTORE RETURNDATASIZE DUP3 MSTORE RETURNDATASIZE PUSH1 0x0 PUSH1 0x20 DUP5 ADD RETURNDATACOPY PUSH2 0x123F JUMP JUMPDEST PUSH1 0x60 SWAP2 POP JUMPDEST POP POP SWAP1 POP DUP1 PUSH2 0x1285 JUMPI PUSH1 0x40 MLOAD PUSH3 0x461BCD PUSH1 0xE5 SHL DUP2 MSTORE PUSH1 0x20 PUSH1 0x4 DUP3 ADD MSTORE PUSH1 0x12 PUSH1 0x24 DUP3 ADD MSTORE PUSH18 0x1DDA5D1A191C985DDB080C4819985A5B1959 PUSH1 0x72 SHL PUSH1 0x44 DUP3 ADD MSTORE PUSH1 0x64 ADD PUSH2 0xC7E JUMP JUMPDEST PUSH1 0xC SLOAD PUSH1 0x40 MLOAD PUSH1 0x0 SWAP2 PUSH1 0x1 PUSH1 0x1 PUSH1 0xA0 SHL SUB AND SWAP1 SELFBALANCE SWAP1 DUP4 DUP2 DUP2 DUP2 DUP6 DUP8 GAS CALL SWAP3 POP POP POP RETURNDATASIZE DUP1 PUSH1 0x0 DUP2 EQ PUSH2 0x12D2 JUMPI PUSH1 0x40 MLOAD SWAP2 POP PUSH1 0x1F NOT PUSH1 0x3F RETURNDATASIZE ADD AND DUP3 ADD PUSH1 0x40 MSTORE RETURNDATASIZE DUP3 MSTORE RETURNDATASIZE PUSH1 0x0 PUSH1 0x20 DUP5 ADD RETURNDATACOPY PUSH2 0x12D7 JUMP JUMPDEST PUSH1 0x60 SWAP2 POP JUMPDEST POP POP SWAP1 POP DUP1 PUSH2 0xE56 JUMPI PUSH1 0x40 MLOAD PUSH3 0x461BCD PUSH1 0xE5 SHL DUP2 MSTORE PUSH1 0x20 PUSH1 0x4 DUP3 ADD MSTORE PUSH1 0x12 PUSH1 0x24 DUP3 ADD MSTORE PUSH18 0x1DDA5D1A191C985DDB080C8819985A5B1959 PUSH1 0x72 SHL PUSH1 0x44 DUP3 ADD MSTORE PUSH1 0x64 ADD PUSH2 0xC7E JUMP JUMPDEST PUSH1 0x6 SLOAD PUSH1 0x1 PUSH1 0x1 PUSH1 0xA0 SHL SUB PUSH2 0x100 SWAP1 SWAP2 DIV AND CALLER EQ PUSH2 0x134D JUMPI PUSH1 0x40 MLOAD PUSH3 0x461BCD PUSH1 0xE5 SHL DUP2 MSTORE PUSH1 0x4 ADD PUSH2 0xC7E SWAP1 PUSH2 0x36DE JUMP JUMPDEST PUSH2 0x1355 PUSH2 0x2A66 JUMP JUMPDEST JUMP JUMPDEST PUSH2 0xDB4 DUP4 DUP4 DUP4 PUSH1 0x40 MLOAD DUP1 PUSH1 0x20 ADD PUSH1 0x40 MSTORE DUP1 PUSH1 0x0 DUP2 MSTORE POP PUSH2 0x21D3 JUMP JUMPDEST PUSH2 0x137B CALLER PUSH2 0xF97 JUMP JUMPDEST PUSH2 0x13E0 JUMPI PUSH1 0x40 MLOAD PUSH3 0x461BCD PUSH1 0xE5 SHL DUP2 MSTORE PUSH1 0x20 PUSH1 0x4 DUP3 ADD MSTORE PUSH1 0x30 PUSH1 0x24 DUP3 ADD MSTORE PUSH32 0x4552433732314275726E61626C653A2063616C6C6572206973206E6F74206F77 PUSH1 0x44 DUP3 ADD MSTORE PUSH16 0x1B995C881B9BDC88185C1C1C9BDD9959 PUSH1 0x82 SHL PUSH1 0x64 DUP3 ADD MSTORE PUSH1 0x84 ADD PUSH2 0xC7E JUMP JUMPDEST PUSH2 0x13E9 DUP2 PUSH2 0x2AF9 JUMP JUMPDEST POP JUMP JUMPDEST PUSH1 0x6 SLOAD PUSH1 0x1 PUSH1 0x1 PUSH1 0xA0 SHL SUB PUSH2 0x100 SWAP1 SWAP2 DIV AND CALLER EQ PUSH2 0x141C JUMPI PUSH1 0x40 MLOAD PUSH3 0x461BCD PUSH1 0xE5 SHL DUP2 MSTORE PUSH1 0x4 ADD PUSH2 0xC7E SWAP1 PUSH2 0x36DE JUMP JUMPDEST PUSH1 0xB SLOAD PUSH3 0x10000 SWAP1 DIV PUSH1 0xFF AND ISZERO PUSH2 0x146A JUMPI PUSH1 0x40 MLOAD PUSH3 0x461BCD PUSH1 0xE5 SHL DUP2 MSTORE PUSH1 0x20 PUSH1 0x4 DUP3 ADD MSTORE PUSH1 0x12 PUSH1 0x24 DUP3 ADD MSTORE PUSH18 0x2130B9B2AAA9249034B990333937BD32B717 PUSH1 0x71 SHL PUSH1 0x44 DUP3 ADD MSTORE PUSH1 0x64 ADD PUSH2 0xC7E JUMP JUMPDEST DUP1 MLOAD PUSH2 0xE56 SWAP1 PUSH1 0x9 SWAP1 PUSH1 0x20 DUP5 ADD SWAP1 PUSH2 0x310E JUMP JUMPDEST PUSH1 0x6 SLOAD PUSH1 0x1 PUSH1 0x1 PUSH1 0xA0 SHL SUB PUSH2 0x100 SWAP1 SWAP2 DIV AND CALLER EQ PUSH2 0x14AD JUMPI PUSH1 0x40 MLOAD PUSH3 0x461BCD PUSH1 0xE5 SHL DUP2 MSTORE PUSH1 0x4 ADD PUSH2 0xC7E SWAP1 PUSH2 0x36DE JUMP JUMPDEST PUSH1 0xB DUP1 SLOAD PUSH1 0xFF SWAP1 SWAP3 AND PUSH2 0x100 MUL PUSH2 0xFF00 NOT SWAP1 SWAP3 AND SWAP2 SWAP1 SWAP2 OR SWAP1 SSTORE JUMP JUMPDEST PUSH1 0x0 DUP2 DUP2 MSTORE PUSH1 0x2 PUSH1 0x20 MSTORE PUSH1 0x40 DUP2 KECCAK256 SLOAD PUSH1 0x1 PUSH1 0x1 PUSH1 0xA0 SHL SUB AND DUP1 PUSH2 0xB71 JUMPI PUSH1 0x40 MLOAD PUSH3 0x461BCD PUSH1 0xE5 SHL DUP2 MSTORE PUSH1 0x20 PUSH1 0x4 DUP3 ADD MSTORE PUSH1 0x29 PUSH1 0x24 DUP3 ADD MSTORE PUSH32 0x4552433732313A206F776E657220717565727920666F72206E6F6E6578697374 PUSH1 0x44 DUP3 ADD MSTORE PUSH9 0x32B73A103A37B5B2B7 PUSH1 0xB9 SHL PUSH1 0x64 DUP3 ADD MSTORE PUSH1 0x84 ADD PUSH2 0xC7E JUMP JUMPDEST PUSH1 0x9 DUP1 SLOAD PUSH2 0x154D SWAP1 PUSH2 0x36A3 JUMP JUMPDEST DUP1 PUSH1 0x1F ADD PUSH1 0x20 DUP1 SWAP2 DIV MUL PUSH1 0x20 ADD PUSH1 0x40 MLOAD SWAP1 DUP2 ADD PUSH1 0x40 MSTORE DUP1 SWAP3 SWAP2 SWAP1 DUP2 DUP2 MSTORE PUSH1 0x20 ADD DUP3 DUP1 SLOAD PUSH2 0x1579 SWAP1 PUSH2 0x36A3 JUMP JUMPDEST DUP1 ISZERO PUSH2 0x15C6 JUMPI DUP1 PUSH1 0x1F LT PUSH2 0x159B JUMPI PUSH2 0x100 DUP1 DUP4 SLOAD DIV MUL DUP4 MSTORE SWAP2 PUSH1 0x20 ADD SWAP2 PUSH2 0x15C6 JUMP JUMPDEST DUP3 ADD SWAP2 SWAP1 PUSH1 0x0 MSTORE PUSH1 0x20 PUSH1 0x0 KECCAK256 SWAP1 JUMPDEST DUP2 SLOAD DUP2 MSTORE SWAP1 PUSH1 0x1 ADD SWAP1 PUSH1 0x20 ADD DUP1 DUP4 GT PUSH2 0x15A9 JUMPI DUP3 SWAP1 SUB PUSH1 0x1F AND DUP3 ADD SWAP2 JUMPDEST POP POP POP POP POP DUP2 JUMP JUMPDEST PUSH1 0x0 DUP1 PUSH2 0x15D9 PUSH2 0xE5A JUMP JUMPDEST GT PUSH2 0x161F JUMPI PUSH1 0x40 MLOAD PUSH3 0x461BCD PUSH1 0xE5 SHL DUP2 MSTORE PUSH1 0x20 PUSH1 0x4 DUP3 ADD MSTORE PUSH1 0x16 PUSH1 0x24 DUP3 ADD MSTORE PUSH22 0x27379031B93CB83A34B21032BC34B9BA39903CB2BA17 PUSH1 0x51 SHL PUSH1 0x44 DUP3 ADD MSTORE PUSH1 0x64 ADD PUSH2 0xC7E JUMP JUMPDEST PUSH2 0xE71 PUSH2 0x70B PUSH2 0xE5A JUMP JUMPDEST PUSH1 0x6 SLOAD PUSH1 0xFF AND ISZERO PUSH2 0x164D JUMPI PUSH1 0x40 MLOAD PUSH3 0x461BCD PUSH1 0xE5 SHL DUP2 MSTORE PUSH1 0x4 ADD PUSH2 0xC7E SWAP1 PUSH2 0x37C2 JUMP JUMPDEST PUSH1 0xB SLOAD PUSH1 0xFF AND PUSH2 0x16BA JUMPI PUSH1 0x40 MLOAD PUSH3 0x461BCD PUSH1 0xE5 SHL DUP2 MSTORE PUSH1 0x20 PUSH1 0x4 DUP3 ADD MSTORE PUSH1 0x32 PUSH1 0x24 DUP3 ADD MSTORE PUSH32 0x4D696E74696E67206E6F7420696E697469617465642E2043757272656E6C7920 PUSH1 0x44 DUP3 ADD MSTORE PUSH18 0x37B71039BA30B3B29018101434B734BA1497 PUSH1 0x71 SHL PUSH1 0x64 DUP3 ADD MSTORE PUSH1 0x84 ADD PUSH2 0xC7E JUMP JUMPDEST PUSH1 0x0 DUP2 PUSH1 0xFF AND GT PUSH2 0x1718 JUMPI PUSH1 0x40 MLOAD PUSH3 0x461BCD PUSH1 0xE5 SHL DUP2 MSTORE PUSH1 0x20 PUSH1 0x4 DUP3 ADD MSTORE PUSH1 0x22 PUSH1 0x24 DUP3 ADD MSTORE PUSH32 0x4D696E7420616D6F756E74206D7573742062652067726561746572207468616E PUSH1 0x44 DUP3 ADD MSTORE PUSH2 0x203 PUSH1 0xF4 SHL PUSH1 0x64 DUP3 ADD MSTORE PUSH1 0x84 ADD PUSH2 0xC7E JUMP JUMPDEST PUSH1 0xB SLOAD PUSH1 0xFF PUSH2 0x100 SWAP1 SWAP2 DIV DUP2 AND SWAP1 DUP3 AND GT ISZERO PUSH2 0x1746 JUMPI PUSH1 0x40 MLOAD PUSH3 0x461BCD PUSH1 0xE5 SHL DUP2 MSTORE PUSH1 0x4 ADD PUSH2 0xC7E SWAP1 PUSH2 0x37EC JUMP JUMPDEST PUSH1 0xB SLOAD PUSH1 0xFF AND PUSH1 0x1 EQ ISZERO PUSH2 0x1886 JUMPI CALLER PUSH1 0x0 SWAP1 DUP2 MSTORE PUSH1 0xD PUSH1 0x20 MSTORE PUSH1 0x40 SWAP1 KECCAK256 SLOAD PUSH1 0xFF AND PUSH2 0x17B3 JUMPI PUSH1 0x40 MLOAD PUSH3 0x461BCD PUSH1 0xE5 SHL DUP2 MSTORE PUSH1 0x20 PUSH1 0x4 DUP3 ADD MSTORE PUSH1 0x17 PUSH1 0x24 DUP3 ADD MSTORE PUSH32 0x4D696E746572206E6F742077686974656C69737465642E000000000000000000 PUSH1 0x44 DUP3 ADD MSTORE PUSH1 0x64 ADD PUSH2 0xC7E JUMP JUMPDEST CALLER PUSH1 0x0 SWAP1 DUP2 MSTORE PUSH1 0xD PUSH1 0x20 SWAP1 DUP2 MSTORE PUSH1 0x40 DUP1 DUP4 KECCAK256 SLOAD PUSH1 0xE SWAP1 SWAP3 MSTORE SWAP1 SWAP2 KECCAK256 SLOAD PUSH1 0xFF SWAP2 DUP3 AND SWAP2 PUSH2 0x17E0 SWAP2 AND DUP4 PUSH2 0x3836 JUMP JUMPDEST PUSH1 0xFF AND GT ISZERO PUSH2 0x1847 JUMPI PUSH1 0x40 MLOAD PUSH3 0x461BCD PUSH1 0xE5 SHL DUP2 MSTORE PUSH1 0x20 PUSH1 0x4 DUP3 ADD MSTORE PUSH1 0x2D PUSH1 0x24 DUP3 ADD MSTORE PUSH32 0x5472616E73616374696F6E20657863656564732072656D61696E696E67207768 PUSH1 0x44 DUP3 ADD MSTORE PUSH13 0x6974656C697374206D696E7473 PUSH1 0x98 SHL PUSH1 0x64 DUP3 ADD MSTORE PUSH1 0x84 ADD PUSH2 0xC7E JUMP JUMPDEST CALLER PUSH1 0x0 SWAP1 DUP2 MSTORE PUSH1 0xE PUSH1 0x20 MSTORE PUSH1 0x40 DUP2 KECCAK256 DUP1 SLOAD DUP4 SWAP3 SWAP1 PUSH2 0x1869 SWAP1 DUP5 SWAP1 PUSH1 0xFF AND PUSH2 0x3836 JUMP JUMPDEST SWAP3 POP PUSH2 0x100 EXP DUP2 SLOAD DUP2 PUSH1 0xFF MUL NOT AND SWAP1 DUP4 PUSH1 0xFF AND MUL OR SWAP1 SSTORE POP PUSH2 0x1C42 JUMP JUMPDEST PUSH1 0xB SLOAD PUSH1 0xFF AND PUSH1 0x2 EQ ISZERO PUSH2 0x1A6A JUMPI PUSH1 0x11 SLOAD PUSH2 0x18A4 SWAP1 PUSH1 0xFF DUP4 AND PUSH2 0x2A47 JUMP JUMPDEST CALLVALUE LT ISZERO PUSH2 0x18EB JUMPI PUSH1 0x40 MLOAD PUSH3 0x461BCD PUSH1 0xE5 SHL DUP2 MSTORE PUSH1 0x20 PUSH1 0x4 DUP3 ADD MSTORE PUSH1 0x15 PUSH1 0x24 DUP3 ADD MSTORE PUSH21 0x139BDD08195B9BDD59DA08195D1A195C881CD95B9D PUSH1 0x5A SHL PUSH1 0x44 DUP3 ADD MSTORE PUSH1 0x64 ADD PUSH2 0xC7E JUMP JUMPDEST CALLER PUSH1 0x0 SWAP1 DUP2 MSTORE PUSH1 0xF PUSH1 0x20 MSTORE PUSH1 0x40 SWAP1 KECCAK256 SLOAD PUSH1 0xFF AND PUSH2 0x194A JUMPI PUSH1 0x40 MLOAD PUSH3 0x461BCD PUSH1 0xE5 SHL DUP2 MSTORE PUSH1 0x20 PUSH1 0x4 DUP3 ADD MSTORE PUSH1 0x1B PUSH1 0x24 DUP3 ADD MSTORE PUSH32 0x41646472657373206E6F74206F6E2070726573616C65206C6973740000000000 PUSH1 0x44 DUP3 ADD MSTORE PUSH1 0x64 ADD PUSH2 0xC7E JUMP JUMPDEST PUSH1 0x10 SLOAD DUP2 PUSH1 0xFF AND PUSH2 0x1959 PUSH2 0xE5A JUMP JUMPDEST PUSH2 0x1963 SWAP2 SWAP1 PUSH2 0x385B JUMP JUMPDEST GT ISZERO PUSH2 0x19BD JUMPI PUSH1 0x40 MLOAD PUSH3 0x461BCD PUSH1 0xE5 SHL DUP2 MSTORE PUSH1 0x20 PUSH1 0x4 DUP3 ADD MSTORE PUSH1 0x23 PUSH1 0x24 DUP3 ADD MSTORE PUSH32 0x5472616E73616374696F6E2065786365656473207072652D73616C6520737570 PUSH1 0x44 DUP3 ADD MSTORE PUSH3 0x706C79 PUSH1 0xE8 SHL PUSH1 0x64 DUP3 ADD MSTORE PUSH1 0x84 ADD PUSH2 0xC7E JUMP JUMPDEST PUSH1 0x12 SLOAD CALLER PUSH1 0x0 SWAP1 DUP2 MSTORE PUSH1 0x13 PUSH1 0x20 MSTORE PUSH1 0x40 SWAP1 KECCAK256 SLOAD PUSH1 0xFF SWAP2 DUP3 AND SWAP2 PUSH2 0x19E1 SWAP2 AND DUP4 PUSH2 0x3836 JUMP JUMPDEST PUSH1 0xFF AND GT ISZERO PUSH2 0x1A48 JUMPI PUSH1 0x40 MLOAD PUSH3 0x461BCD PUSH1 0xE5 SHL DUP2 MSTORE PUSH1 0x20 PUSH1 0x4 DUP3 ADD MSTORE PUSH1 0x2D PUSH1 0x24 DUP3 ADD MSTORE PUSH32 0x5472616E73616374696F6E2065786365656473206D617820616C6C6F77656420 PUSH1 0x44 DUP3 ADD MSTORE PUSH13 0x70726573616C65206D696E7473 PUSH1 0x98 SHL PUSH1 0x64 DUP3 ADD MSTORE PUSH1 0x84 ADD PUSH2 0xC7E JUMP JUMPDEST CALLER PUSH1 0x0 SWAP1 DUP2 MSTORE PUSH1 0x13 PUSH1 0x20 MSTORE PUSH1 0x40 DUP2 KECCAK256 DUP1 SLOAD DUP4 SWAP3 SWAP1 PUSH2 0x1869 SWAP1 DUP5 SWAP1 PUSH1 0xFF AND PUSH2 0x3836 JUMP JUMPDEST PUSH1 0xB SLOAD PUSH1 0xFF AND PUSH1 0x3 EQ ISZERO PUSH2 0x1B76 JUMPI PUSH1 0x6 SLOAD PUSH1 0x1 PUSH1 0x1 PUSH1 0xA0 SHL SUB PUSH2 0x100 SWAP1 SWAP2 DIV AND CALLER EQ PUSH2 0x1AE2 JUMPI PUSH1 0x40 MLOAD PUSH3 0x461BCD PUSH1 0xE5 SHL DUP2 MSTORE PUSH1 0x20 PUSH1 0x4 DUP3 ADD MSTORE PUSH1 0x21 PUSH1 0x24 DUP3 ADD MSTORE PUSH32 0x4F6E6C79204F776E65722063616E206D696E7420617420746869732073746167 PUSH1 0x44 DUP3 ADD MSTORE PUSH1 0x65 PUSH1 0xF8 SHL PUSH1 0x64 DUP3 ADD MSTORE PUSH1 0x84 ADD PUSH2 0xC7E JUMP JUMPDEST PUSH1 0x14 SLOAD PUSH1 0x15 SLOAD PUSH2 0x1AF5 SWAP1 PUSH1 0xFF DUP5 AND PUSH2 0x385B JUMP JUMPDEST GT ISZERO PUSH2 0x1B56 JUMPI PUSH1 0x40 MLOAD PUSH3 0x461BCD PUSH1 0xE5 SHL DUP2 MSTORE PUSH1 0x20 PUSH1 0x4 DUP3 ADD MSTORE PUSH1 0x2A PUSH1 0x24 DUP3 ADD MSTORE PUSH32 0x5472616E73616374696F6E206578636565647320746F74616C207465616D2D73 PUSH1 0x44 DUP3 ADD MSTORE PUSH10 0x616C6520737570706C79 PUSH1 0xB0 SHL PUSH1 0x64 DUP3 ADD MSTORE PUSH1 0x84 ADD PUSH2 0xC7E JUMP JUMPDEST DUP1 PUSH1 0xFF AND PUSH1 0x15 PUSH1 0x0 DUP3 DUP3 SLOAD PUSH2 0x1B6B SWAP2 SWAP1 PUSH2 0x385B JUMP JUMPDEST SWAP1 SWAP2 SSTORE POP PUSH2 0x1C42 SWAP1 POP JUMP JUMPDEST PUSH1 0x16 SLOAD PUSH2 0x1B86 SWAP1 PUSH1 0xFF DUP4 AND PUSH2 0x2A47 JUMP JUMPDEST CALLVALUE LT ISZERO PUSH2 0x1BCD JUMPI PUSH1 0x40 MLOAD PUSH3 0x461BCD PUSH1 0xE5 SHL DUP2 MSTORE PUSH1 0x20 PUSH1 0x4 DUP3 ADD MSTORE PUSH1 0x15 PUSH1 0x24 DUP3 ADD MSTORE PUSH21 0x139BDD08195B9BDD59DA08195D1A195C881CD95B9D PUSH1 0x5A SHL PUSH1 0x44 DUP3 ADD MSTORE PUSH1 0x64 ADD PUSH2 0xC7E JUMP JUMPDEST PUSH1 0x17 SLOAD DUP2 PUSH1 0xFF AND PUSH2 0x1BDC PUSH2 0xE5A JUMP JUMPDEST PUSH2 0x1BE6 SWAP2 SWAP1 PUSH2 0x385B JUMP JUMPDEST GT ISZERO PUSH2 0x1C42 JUMPI PUSH1 0x40 MLOAD PUSH3 0x461BCD PUSH1 0xE5 SHL DUP2 MSTORE PUSH1 0x20 PUSH1 0x4 DUP3 ADD MSTORE PUSH1 0x25 PUSH1 0x24 DUP3 ADD MSTORE PUSH32 0x5472616E73616374696F6E206578636565647320746F74616C2073616C652073 PUSH1 0x44 DUP3 ADD MSTORE PUSH5 0x7570706C79 PUSH1 0xD8 SHL PUSH1 0x64 DUP3 ADD MSTORE PUSH1 0x84 ADD PUSH2 0xC7E JUMP JUMPDEST PUSH1 0x1 JUMPDEST DUP2 PUSH1 0xFF AND DUP2 GT PUSH2 0xE56 JUMPI PUSH2 0x1C61 CALLER PUSH2 0x1C5C PUSH1 0x7 SLOAD SWAP1 JUMP JUMPDEST PUSH2 0x2BA0 JUMP JUMPDEST PUSH2 0x1C6F PUSH1 0x7 DUP1 SLOAD PUSH1 0x1 ADD SWAP1 SSTORE JUMP JUMPDEST DUP1 PUSH2 0x1C79 DUP2 PUSH2 0x3756 JUMP JUMPDEST SWAP2 POP POP PUSH2 0x1C45 JUMP JUMPDEST PUSH1 0x0 PUSH1 0x1 PUSH1 0x1 PUSH1 0xA0 SHL SUB DUP3 AND PUSH2 0x1CEC JUMPI PUSH1 0x40 MLOAD PUSH3 0x461BCD PUSH1 0xE5 SHL DUP2 MSTORE PUSH1 0x20 PUSH1 0x4 DUP3 ADD MSTORE PUSH1 0x2A PUSH1 0x24 DUP3 ADD MSTORE PUSH32 0x4552433732313A2062616C616E636520717565727920666F7220746865207A65 PUSH1 0x44 DUP3 ADD MSTORE PUSH10 0x726F2061646472657373 PUSH1 0xB0 SHL PUSH1 0x64 DUP3 ADD MSTORE PUSH1 0x84 ADD PUSH2 0xC7E JUMP JUMPDEST POP PUSH1 0x1 PUSH1 0x1 PUSH1 0xA0 SHL SUB AND PUSH1 0x0 SWAP1 DUP2 MSTORE PUSH1 0x3 PUSH1 0x20 MSTORE PUSH1 0x40 SWAP1 KECCAK256 SLOAD SWAP1 JUMP JUMPDEST PUSH1 0x6 SLOAD PUSH1 0x1 PUSH1 0x1 PUSH1 0xA0 SHL SUB PUSH2 0x100 SWAP1 SWAP2 DIV AND CALLER EQ PUSH2 0x1D38 JUMPI PUSH1 0x40 MLOAD PUSH3 0x461BCD PUSH1 0xE5 SHL DUP2 MSTORE PUSH1 0x4 ADD PUSH2 0xC7E SWAP1 PUSH2 0x36DE JUMP JUMPDEST PUSH2 0x1355 PUSH1 0x0 PUSH2 0x2BBA JUMP JUMPDEST PUSH1 0x6 SLOAD PUSH1 0x1 PUSH1 0x1 PUSH1 0xA0 SHL SUB PUSH2 0x100 SWAP1 SWAP2 DIV AND CALLER EQ PUSH2 0x1D72 JUMPI PUSH1 0x40 MLOAD PUSH3 0x461BCD PUSH1 0xE5 SHL DUP2 MSTORE PUSH1 0x4 ADD PUSH2 0xC7E SWAP1 PUSH2 0x36DE JUMP JUMPDEST PUSH1 0x16 SSTORE JUMP JUMPDEST PUSH1 0x6 SLOAD PUSH1 0x1 PUSH1 0x1 PUSH1 0xA0 SHL SUB PUSH2 0x100 SWAP1 SWAP2 DIV AND CALLER EQ PUSH2 0x1DA7 JUMPI PUSH1 0x40 MLOAD PUSH3 0x461BCD PUSH1 0xE5 SHL DUP2 MSTORE PUSH1 0x4 ADD PUSH2 0xC7E SWAP1 PUSH2 0x36DE JUMP JUMPDEST PUSH1 0x0 PUSH1 0x8 DUP1 SLOAD PUSH2 0x1DB6 SWAP1 PUSH2 0x36A3 JUMP JUMPDEST SWAP1 POP GT PUSH2 0x1E05 JUMPI PUSH1 0x40 MLOAD PUSH3 0x461BCD PUSH1 0xE5 SHL DUP2 MSTORE PUSH1 0x20 PUSH1 0x4 DUP3 ADD DUP2 SWAP1 MSTORE PUSH1 0x24 DUP3 ADD MSTORE PUSH32 0x50726F76656E616E636520686173682063616E6E6F7420626520656D7074792E PUSH1 0x44 DUP3 ADD MSTORE PUSH1 0x64 ADD PUSH2 0xC7E JUMP JUMPDEST PUSH1 0xB SLOAD PUSH4 0x1000000 SWAP1 DIV PUSH1 0xFF AND ISZERO PUSH2 0x1E6A JUMPI PUSH1 0x40 MLOAD PUSH3 0x461BCD PUSH1 0xE5 SHL DUP2 MSTORE PUSH1 0x20 PUSH1 0x4 DUP3 ADD MSTORE PUSH1 0x22 PUSH1 0x24 DUP3 ADD MSTORE PUSH32 0x50726F76656E616E6365206861736820697320616C72656164792066726F7A65 PUSH1 0x44 DUP3 ADD MSTORE PUSH2 0x3717 PUSH1 0xF1 SHL PUSH1 0x64 DUP3 ADD MSTORE PUSH1 0x84 ADD PUSH2 0xC7E JUMP JUMPDEST PUSH1 0xB DUP1 SLOAD PUSH4 0xFF000000 NOT AND PUSH4 0x1000000 OR SWAP1 SSTORE JUMP JUMPDEST PUSH1 0x6 SLOAD PUSH1 0x1 PUSH1 0x1 PUSH1 0xA0 SHL SUB PUSH2 0x100 SWAP1 SWAP2 DIV AND CALLER EQ PUSH2 0x1EAF JUMPI PUSH1 0x40 MLOAD PUSH3 0x461BCD PUSH1 0xE5 SHL DUP2 MSTORE PUSH1 0x4 ADD PUSH2 0xC7E SWAP1 PUSH2 0x36DE JUMP JUMPDEST PUSH2 0x1355 PUSH2 0x2C14 JUMP JUMPDEST PUSH1 0x6 SLOAD PUSH1 0x1 PUSH1 0x1 PUSH1 0xA0 SHL SUB PUSH2 0x100 SWAP1 SWAP2 DIV AND CALLER EQ PUSH2 0x1EE7 JUMPI PUSH1 0x40 MLOAD PUSH3 0x461BCD PUSH1 0xE5 SHL DUP2 MSTORE PUSH1 0x4 ADD PUSH2 0xC7E SWAP1 PUSH2 0x36DE JUMP JUMPDEST PUSH1 0xB SLOAD PUSH1 0x2 PUSH1 0xFF SWAP1 SWAP2 AND LT PUSH2 0x1F3E JUMPI PUSH1 0x40 MLOAD PUSH3 0x461BCD PUSH1 0xE5 SHL DUP2 MSTORE PUSH1 0x20 PUSH1 0x4 DUP3 ADD MSTORE PUSH1 0x1C PUSH1 0x24 DUP3 ADD MSTORE PUSH32 0x57686974656C6973742073616C6520697320636F6E636C756465642E00000000 PUSH1 0x44 DUP3 ADD MSTORE PUSH1 0x64 ADD PUSH2 0xC7E JUMP JUMPDEST PUSH1 0x0 JUMPDEST DUP3 MLOAD DUP2 LT ISZERO PUSH2 0xDB4 JUMPI DUP2 DUP2 DUP2 MLOAD DUP2 LT PUSH2 0x1F5C JUMPI PUSH2 0x1F5C PUSH2 0x3740 JUMP JUMPDEST PUSH1 0x20 MUL PUSH1 0x20 ADD ADD MLOAD PUSH1 0xD PUSH1 0x0 DUP6 DUP5 DUP2 MLOAD DUP2 LT PUSH2 0x1F7A JUMPI PUSH2 0x1F7A PUSH2 0x3740 JUMP JUMPDEST PUSH1 0x20 MUL PUSH1 0x20 ADD ADD MLOAD PUSH1 0x1 PUSH1 0x1 PUSH1 0xA0 SHL SUB AND PUSH1 0x1 PUSH1 0x1 PUSH1 0xA0 SHL SUB AND DUP2 MSTORE PUSH1 0x20 ADD SWAP1 DUP2 MSTORE PUSH1 0x20 ADD PUSH1 0x0 KECCAK256 PUSH1 0x0 PUSH2 0x100 EXP DUP2 SLOAD DUP2 PUSH1 0xFF MUL NOT AND SWAP1 DUP4 PUSH1 0xFF AND MUL OR SWAP1 SSTORE POP DUP1 DUP1 PUSH2 0x1FC5 SWAP1 PUSH2 0x3756 JUMP JUMPDEST SWAP2 POP POP PUSH2 0x1F41 JUMP JUMPDEST PUSH1 0x60 PUSH1 0x1 DUP1 SLOAD PUSH2 0xB86 SWAP1 PUSH2 0x36A3 JUMP JUMPDEST PUSH2 0xE56 CALLER DUP4 DUP4 PUSH2 0x2C6C JUMP JUMPDEST PUSH1 0x6 SLOAD PUSH1 0x1 PUSH1 0x1 PUSH1 0xA0 SHL SUB PUSH2 0x100 SWAP1 SWAP2 DIV AND CALLER EQ PUSH2 0x2017 JUMPI PUSH1 0x40 MLOAD PUSH3 0x461BCD PUSH1 0xE5 SHL DUP2 MSTORE PUSH1 0x4 ADD PUSH2 0xC7E SWAP1 PUSH2 0x36DE JUMP JUMPDEST PUSH1 0xB SLOAD PUSH4 0x1000000 SWAP1 DIV PUSH1 0xFF AND ISZERO ISZERO PUSH1 0x1 EQ PUSH2 0x2045 JUMPI PUSH1 0x40 MLOAD PUSH3 0x461BCD PUSH1 0xE5 SHL DUP2 MSTORE PUSH1 0x4 ADD PUSH2 0xC7E SWAP1 PUSH2 0x3873 JUMP JUMPDEST PUSH1 0xB SLOAD PUSH1 0x2 PUSH1 0xFF SWAP1 SWAP2 AND LT PUSH2 0x2093 JUMPI PUSH1 0x40 MLOAD PUSH3 0x461BCD PUSH1 0xE5 SHL DUP2 MSTORE PUSH1 0x20 PUSH1 0x4 DUP3 ADD MSTORE PUSH1 0x14 PUSH1 0x24 DUP3 ADD MSTORE PUSH20 0x2830B9BA103BB434BA32B634B9BA1039B0B63297 PUSH1 0x61 SHL PUSH1 0x44 DUP3 ADD MSTORE PUSH1 0x64 ADD PUSH2 0xC7E JUMP JUMPDEST PUSH1 0xB SLOAD PUSH1 0xFF PUSH2 0x100 SWAP1 SWAP2 DIV DUP2 AND SWAP1 DUP4 AND GT ISZERO PUSH2 0x20C1 JUMPI PUSH1 0x40 MLOAD PUSH3 0x461BCD PUSH1 0xE5 SHL DUP2 MSTORE PUSH1 0x4 ADD PUSH2 0xC7E SWAP1 PUSH2 0x37EC JUMP JUMPDEST PUSH1 0x0 DUP3 PUSH1 0xFF AND GT PUSH2 0x2122 JUMPI PUSH1 0x40 MLOAD PUSH3 0x461BCD PUSH1 0xE5 SHL DUP2 MSTORE PUSH1 0x20 PUSH1 0x4 DUP3 ADD MSTORE PUSH1 0x25 PUSH1 0x24 DUP3 ADD MSTORE PUSH32 0x41697264726F7020616D6F756E74206D75737420626520677265617465722074 PUSH1 0x44 DUP3 ADD MSTORE PUSH5 0x68616E203 PUSH1 0xDC SHL PUSH1 0x64 DUP3 ADD MSTORE PUSH1 0x84 ADD PUSH2 0xC7E JUMP JUMPDEST PUSH1 0x10 SLOAD DUP3 PUSH1 0xFF AND PUSH2 0x2131 PUSH2 0xE5A JUMP JUMPDEST PUSH2 0x213B SWAP2 SWAP1 PUSH2 0x385B JUMP JUMPDEST GT ISZERO PUSH2 0x2199 JUMPI PUSH1 0x40 MLOAD PUSH3 0x461BCD PUSH1 0xE5 SHL DUP2 MSTORE PUSH1 0x20 PUSH1 0x4 DUP3 ADD MSTORE PUSH1 0x27 PUSH1 0x24 DUP3 ADD MSTORE PUSH32 0x4D696E7420616D6F756E742077696C6C206578636565642070726573616C6520 PUSH1 0x44 DUP3 ADD MSTORE PUSH7 0x39BAB838363C97 PUSH1 0xC9 SHL PUSH1 0x64 DUP3 ADD MSTORE PUSH1 0x84 ADD PUSH2 0xC7E JUMP JUMPDEST PUSH1 0x1 JUMPDEST DUP3 PUSH1 0xFF AND DUP2 GT PUSH2 0xDB4 JUMPI PUSH2 0x21B3 DUP3 PUSH2 0x1C5C PUSH1 0x7 SLOAD SWAP1 JUMP JUMPDEST PUSH2 0x21C1 PUSH1 0x7 DUP1 SLOAD PUSH1 0x1 ADD SWAP1 SSTORE JUMP JUMPDEST DUP1 PUSH2 0x21CB DUP2 PUSH2 0x3756 JUMP JUMPDEST SWAP2 POP POP PUSH2 0x219C JUMP JUMPDEST PUSH2 0x21DD CALLER DUP4 PUSH2 0x27A5 JUMP JUMPDEST PUSH2 0x21F9 JUMPI PUSH1 0x40 MLOAD PUSH3 0x461BCD PUSH1 0xE5 SHL DUP2 MSTORE PUSH1 0x4 ADD PUSH2 0xC7E SWAP1 PUSH2 0x3771 JUMP JUMPDEST PUSH2 0x2205 DUP5 DUP5 DUP5 DUP5 PUSH2 0x2D3B JUMP JUMPDEST POP POP POP POP JUMP JUMPDEST PUSH1 0xA DUP1 SLOAD PUSH2 0x154D SWAP1 PUSH2 0x36A3 JUMP JUMPDEST PUSH1 0x8 DUP1 SLOAD PUSH2 0x154D SWAP1 PUSH2 0x36A3 JUMP JUMPDEST PUSH1 0x0 DUP2 DUP2 MSTORE PUSH1 0x2 PUSH1 0x20 MSTORE PUSH1 0x40 SWAP1 KECCAK256 SLOAD PUSH1 0x60 SWAP1 PUSH1 0x1 PUSH1 0x1 PUSH1 0xA0 SHL SUB AND PUSH2 0x22A4 JUMPI PUSH1 0x40 MLOAD PUSH3 0x461BCD PUSH1 0xE5 SHL DUP2 MSTORE PUSH1 0x20 PUSH1 0x4 DUP3 ADD MSTORE PUSH1 0x2F PUSH1 0x24 DUP3 ADD MSTORE PUSH32 0x4552433732314D657461646174613A2055524920717565727920666F72206E6F PUSH1 0x44 DUP3 ADD MSTORE PUSH15 0x3732BC34B9BA32B73A103A37B5B2B7 PUSH1 0x89 SHL PUSH1 0x64 DUP3 ADD MSTORE PUSH1 0x84 ADD PUSH2 0xC7E JUMP JUMPDEST PUSH1 0x9 PUSH2 0x22AF DUP4 PUSH2 0x2D6E JUMP JUMPDEST PUSH1 0xA PUSH1 0x40 MLOAD PUSH1 0x20 ADD PUSH2 0x22C3 SWAP4 SWAP3 SWAP2 SWAP1 PUSH2 0x396A JUMP JUMPDEST PUSH1 0x40 MLOAD PUSH1 0x20 DUP2 DUP4 SUB SUB DUP2 MSTORE SWAP1 PUSH1 0x40 MSTORE SWAP1 POP SWAP2 SWAP1 POP JUMP JUMPDEST PUSH1 0x0 DUP1 PUSH2 0x22E4 PUSH2 0xE5A JUMP JUMPDEST GT PUSH2 0x232A JUMPI PUSH1 0x40 MLOAD PUSH3 0x461BCD PUSH1 0xE5 SHL DUP2 MSTORE PUSH1 0x20 PUSH1 0x4 DUP3 ADD MSTORE PUSH1 0x16 PUSH1 0x24 DUP3 ADD MSTORE PUSH22 0x27379031B93CB83A34B21032BC34B9BA39903CB2BA17 PUSH1 0x51 SHL PUSH1 0x44 DUP3 ADD MSTORE PUSH1 0x64 ADD PUSH2 0xC7E JUMP JUMPDEST PUSH2 0xE71 PUSH2 0xE5A JUMP JUMPDEST PUSH1 0x6 SLOAD PUSH1 0x1 PUSH1 0x1 PUSH1 0xA0 SHL SUB PUSH2 0x100 SWAP1 SWAP2 DIV AND CALLER EQ PUSH2 0x2362 JUMPI PUSH1 0x40 MLOAD PUSH3 0x461BCD PUSH1 0xE5 SHL DUP2 MSTORE PUSH1 0x4 ADD PUSH2 0xC7E SWAP1 PUSH2 0x36DE JUMP JUMPDEST DUP1 MLOAD PUSH2 0xE56 SWAP1 PUSH1 0xA SWAP1 PUSH1 0x20 DUP5 ADD SWAP1 PUSH2 0x310E JUMP JUMPDEST PUSH1 0x0 PUSH2 0x237F PUSH2 0xE5A JUMP JUMPDEST PUSH1 0x17 SLOAD PUSH2 0xE71 SWAP2 SWAP1 PUSH2 0x3729 JUMP JUMPDEST PUSH1 0x6 SLOAD PUSH1 0x1 PUSH1 0x1 PUSH1 0xA0 SHL SUB PUSH2 0x100 SWAP1 SWAP2 DIV AND CALLER EQ PUSH2 0x23BC JUMPI PUSH1 0x40 MLOAD PUSH3 0x461BCD PUSH1 0xE5 SHL DUP2 MSTORE PUSH1 0x4 ADD PUSH2 0xC7E SWAP1 PUSH2 0x36DE JUMP JUMPDEST PUSH1 0xB DUP1 SLOAD PUSH5 0x100000000 PUSH1 0x1 PUSH1 0xC0 SHL SUB NOT AND PUSH5 0x100000000 PUSH1 0x1 PUSH1 0x1 PUSH1 0xA0 SHL SUB SWAP5 DUP6 AND MUL OR SWAP1 SSTORE PUSH1 0xC DUP1 SLOAD PUSH1 0x1 PUSH1 0x1 PUSH1 0xA0 SHL SUB NOT AND SWAP2 SWAP1 SWAP3 AND OR SWAP1 SSTORE JUMP JUMPDEST PUSH1 0x6 SLOAD PUSH1 0x1 PUSH1 0x1 PUSH1 0xA0 SHL SUB PUSH2 0x100 SWAP1 SWAP2 DIV AND CALLER EQ PUSH2 0x242A JUMPI PUSH1 0x40 MLOAD PUSH3 0x461BCD PUSH1 0xE5 SHL DUP2 MSTORE PUSH1 0x4 ADD PUSH2 0xC7E SWAP1 PUSH2 0x36DE JUMP JUMPDEST PUSH1 0x0 PUSH1 0x9 DUP1 SLOAD PUSH2 0x2439 SWAP1 PUSH2 0x36A3 JUMP JUMPDEST SWAP1 POP GT PUSH2 0x2488 JUMPI PUSH1 0x40 MLOAD PUSH3 0x461BCD PUSH1 0xE5 SHL DUP2 MSTORE PUSH1 0x20 PUSH1 0x4 DUP3 ADD MSTORE PUSH1 0x17 PUSH1 0x24 DUP3 ADD MSTORE PUSH32 0x626173655552492063616E6E6F7420626520656D707479000000000000000000 PUSH1 0x44 DUP3 ADD MSTORE PUSH1 0x64 ADD PUSH2 0xC7E JUMP JUMPDEST PUSH1 0xB SLOAD PUSH3 0x10000 SWAP1 DIV PUSH1 0xFF AND ISZERO PUSH2 0x24E1 JUMPI PUSH1 0x40 MLOAD PUSH3 0x461BCD PUSH1 0xE5 SHL DUP2 MSTORE PUSH1 0x20 PUSH1 0x4 DUP3 ADD MSTORE PUSH1 0x1A PUSH1 0x24 DUP3 ADD MSTORE PUSH32 0x4261736555524920697320616C72656164792066726F7A656E2E000000000000 PUSH1 0x44 DUP3 ADD MSTORE PUSH1 0x64 ADD PUSH2 0xC7E JUMP JUMPDEST PUSH1 0xB DUP1 SLOAD PUSH3 0xFF0000 NOT AND PUSH3 0x10000 OR SWAP1 SSTORE JUMP JUMPDEST PUSH1 0x6 SLOAD PUSH1 0x1 PUSH1 0x1 PUSH1 0xA0 SHL SUB PUSH2 0x100 SWAP1 SWAP2 DIV AND CALLER EQ PUSH2 0x2524 JUMPI PUSH1 0x40 MLOAD PUSH3 0x461BCD PUSH1 0xE5 SHL DUP2 MSTORE PUSH1 0x4 ADD PUSH2 0xC7E SWAP1 PUSH2 0x36DE JUMP JUMPDEST PUSH1 0x1 PUSH1 0x1 PUSH1 0xA0 SHL SUB DUP2 AND PUSH1 0x0 SWAP1 DUP2 MSTORE PUSH1 0xF PUSH1 0x20 MSTORE PUSH1 0x40 SWAP1 KECCAK256 SLOAD PUSH1 0xFF AND PUSH2 0x258C JUMPI PUSH1 0x40 MLOAD PUSH3 0x461BCD PUSH1 0xE5 SHL DUP2 MSTORE PUSH1 0x20 PUSH1 0x4 DUP3 ADD MSTORE PUSH1 0x19 PUSH1 0x24 DUP3 ADD MSTORE PUSH32 0x55736572206E6F74206F6E2070726573616C65206C6973742E00000000000000 PUSH1 0x44 DUP3 ADD MSTORE PUSH1 0x64 ADD PUSH2 0xC7E JUMP JUMPDEST PUSH1 0x1 PUSH1 0x1 PUSH1 0xA0 SHL SUB AND PUSH1 0x0 SWAP1 DUP2 MSTORE PUSH1 0xF PUSH1 0x20 MSTORE PUSH1 0x40 SWAP1 KECCAK256 DUP1 SLOAD PUSH1 0xFF NOT AND SWAP1 SSTORE JUMP JUMPDEST PUSH1 0x6 SLOAD PUSH1 0x1 PUSH1 0x1 PUSH1 0xA0 SHL SUB PUSH2 0x100 SWAP1 SWAP2 DIV AND CALLER EQ PUSH2 0x25DD JUMPI PUSH1 0x40 MLOAD PUSH3 0x461BCD PUSH1 0xE5 SHL DUP2 MSTORE PUSH1 0x4 ADD PUSH2 0xC7E SWAP1 PUSH2 0x36DE JUMP JUMPDEST PUSH1 0xB SLOAD PUSH4 0x1000000 SWAP1 DIV PUSH1 0xFF AND ISZERO ISZERO PUSH1 0x1 EQ PUSH2 0x260B JUMPI PUSH1 0x40 MLOAD PUSH3 0x461BCD PUSH1 0xE5 SHL DUP2 MSTORE PUSH1 0x4 ADD PUSH2 0xC7E SWAP1 PUSH2 0x3873 JUMP JUMPDEST PUSH1 0xB SLOAD PUSH1 0x4 PUSH1 0xFF SWAP1 SWAP2 AND LT PUSH2 0x2662 JUMPI PUSH1 0x40 MLOAD PUSH3 0x461BCD PUSH1 0xE5 SHL DUP2 MSTORE PUSH1 0x20 PUSH1 0x4 DUP3 ADD MSTORE PUSH1 0x1B PUSH1 0x24 DUP3 ADD MSTORE PUSH32 0x4E6F20737461676573206166746572207075626C69632073616C650000000000 PUSH1 0x44 DUP3 ADD MSTORE PUSH1 0x64 ADD PUSH2 0xC7E JUMP JUMPDEST PUSH1 0xB DUP1 SLOAD PUSH1 0xFF AND SWAP1 PUSH1 0x0 PUSH2 0x2675 DUP4 PUSH2 0x399D JUMP JUMPDEST SWAP2 SWAP1 PUSH2 0x100 EXP DUP2 SLOAD DUP2 PUSH1 0xFF MUL NOT AND SWAP1 DUP4 PUSH1 0xFF AND MUL OR SWAP1 SSTORE POP POP JUMP JUMPDEST PUSH1 0x6 SLOAD PUSH1 0x1 PUSH1 0x1 PUSH1 0xA0 SHL SUB PUSH2 0x100 SWAP1 SWAP2 DIV AND CALLER EQ PUSH2 0x26C0 JUMPI PUSH1 0x40 MLOAD PUSH3 0x461BCD PUSH1 0xE5 SHL DUP2 MSTORE PUSH1 0x4 ADD PUSH2 0xC7E SWAP1 PUSH2 0x36DE JUMP JUMPDEST PUSH1 0x1 PUSH1 0x1 PUSH1 0xA0 SHL SUB DUP2 AND PUSH2 0x2725 JUMPI PUSH1 0x40 MLOAD PUSH3 0x461BCD PUSH1 0xE5 SHL DUP2 MSTORE PUSH1 0x20 PUSH1 0x4 DUP3 ADD MSTORE PUSH1 0x26 PUSH1 0x24 DUP3 ADD MSTORE PUSH32 0x4F776E61626C653A206E6577206F776E657220697320746865207A65726F2061 PUSH1 0x44 DUP3 ADD MSTORE PUSH6 0x646472657373 PUSH1 0xD0 SHL PUSH1 0x64 DUP3 ADD MSTORE PUSH1 0x84 ADD PUSH2 0xC7E JUMP JUMPDEST PUSH2 0x13E9 DUP2 PUSH2 0x2BBA JUMP JUMPDEST DUP1 SLOAD PUSH1 0x1 ADD SWAP1 SSTORE JUMP JUMPDEST PUSH1 0x0 DUP2 DUP2 MSTORE PUSH1 0x4 PUSH1 0x20 MSTORE PUSH1 0x40 SWAP1 KECCAK256 DUP1 SLOAD PUSH1 0x1 PUSH1 0x1 PUSH1 0xA0 SHL SUB NOT AND PUSH1 0x1 PUSH1 0x1 PUSH1 0xA0 SHL SUB DUP5 AND SWAP1 DUP2 OR SWAP1 SWAP2 SSTORE DUP2 SWAP1 PUSH2 0x276C DUP3 PUSH2 0x14C9 JUMP JUMPDEST PUSH1 0x1 PUSH1 0x1 PUSH1 0xA0 SHL SUB AND PUSH32 0x8C5BE1E5EBEC7D5BD14F71427D1E84F3DD0314C0F7B2291E5B200AC8C7C3B925 PUSH1 0x40 MLOAD PUSH1 0x40 MLOAD DUP1 SWAP2 SUB SWAP1 LOG4 POP POP JUMP JUMPDEST PUSH1 0x0 DUP2 DUP2 MSTORE PUSH1 0x2 PUSH1 0x20 MSTORE PUSH1 0x40 DUP2 KECCAK256 SLOAD PUSH1 0x1 PUSH1 0x1 PUSH1 0xA0 SHL SUB AND PUSH2 0x281E JUMPI PUSH1 0x40 MLOAD PUSH3 0x461BCD PUSH1 0xE5 SHL DUP2 MSTORE PUSH1 0x20 PUSH1 0x4 DUP3 ADD MSTORE PUSH1 0x2C PUSH1 0x24 DUP3 ADD MSTORE PUSH32 0x4552433732313A206F70657261746F7220717565727920666F72206E6F6E6578 PUSH1 0x44 DUP3 ADD MSTORE PUSH12 0x34B9BA32B73A103A37B5B2B7 PUSH1 0xA1 SHL PUSH1 0x64 DUP3 ADD MSTORE PUSH1 0x84 ADD PUSH2 0xC7E JUMP JUMPDEST PUSH1 0x0 PUSH2 0x2829 DUP4 PUSH2 0x14C9 JUMP JUMPDEST SWAP1 POP DUP1 PUSH1 0x1 PUSH1 0x1 PUSH1 0xA0 SHL SUB AND DUP5 PUSH1 0x1 PUSH1 0x1 PUSH1 0xA0 SHL SUB AND EQ DUP1 PUSH2 0x2864 JUMPI POP DUP4 PUSH1 0x1 PUSH1 0x1 PUSH1 0xA0 SHL SUB AND PUSH2 0x2859 DUP5 PUSH2 0xC09 JUMP JUMPDEST PUSH1 0x1 PUSH1 0x1 PUSH1 0xA0 SHL SUB AND EQ JUMPDEST DUP1 PUSH2 0x2894 JUMPI POP PUSH1 0x1 PUSH1 0x1 PUSH1 0xA0 SHL SUB DUP1 DUP3 AND PUSH1 0x0 SWAP1 DUP2 MSTORE PUSH1 0x5 PUSH1 0x20 SWAP1 DUP2 MSTORE PUSH1 0x40 DUP1 DUP4 KECCAK256 SWAP4 DUP9 AND DUP4 MSTORE SWAP3 SWAP1 MSTORE KECCAK256 SLOAD PUSH1 0xFF AND JUMPDEST SWAP5 SWAP4 POP POP POP POP JUMP JUMPDEST DUP3 PUSH1 0x1 PUSH1 0x1 PUSH1 0xA0 SHL SUB AND PUSH2 0x28AF DUP3 PUSH2 0x14C9 JUMP JUMPDEST PUSH1 0x1 PUSH1 0x1 PUSH1 0xA0 SHL SUB AND EQ PUSH2 0x2917 JUMPI PUSH1 0x40 MLOAD PUSH3 0x461BCD PUSH1 0xE5 SHL DUP2 MSTORE PUSH1 0x20 PUSH1 0x4 DUP3 ADD MSTORE PUSH1 0x29 PUSH1 0x24 DUP3 ADD MSTORE PUSH32 0x4552433732313A207472616E73666572206F6620746F6B656E20746861742069 PUSH1 0x44 DUP3 ADD MSTORE PUSH9 0x39903737BA1037BBB7 PUSH1 0xB9 SHL PUSH1 0x64 DUP3 ADD MSTORE PUSH1 0x84 ADD PUSH2 0xC7E JUMP JUMPDEST PUSH1 0x1 PUSH1 0x1 PUSH1 0xA0 SHL SUB DUP3 AND PUSH2 0x2979 JUMPI PUSH1 0x40 MLOAD PUSH3 0x461BCD PUSH1 0xE5 SHL DUP2 MSTORE PUSH1 0x20 PUSH1 0x4 DUP3 ADD MSTORE PUSH1 0x24 DUP1 DUP3 ADD MSTORE PUSH32 0x4552433732313A207472616E7366657220746F20746865207A65726F20616464 PUSH1 0x44 DUP3 ADD MSTORE PUSH4 0x72657373 PUSH1 0xE0 SHL PUSH1 0x64 DUP3 ADD MSTORE PUSH1 0x84 ADD PUSH2 0xC7E JUMP JUMPDEST PUSH2 0x2984 DUP4 DUP4 DUP4 PUSH2 0x2E6C JUMP JUMPDEST PUSH2 0x298F PUSH1 0x0 DUP3 PUSH2 0x2737 JUMP JUMPDEST PUSH1 0x1 PUSH1 0x1 PUSH1 0xA0 SHL SUB DUP4 AND PUSH1 0x0 SWAP1 DUP2 MSTORE PUSH1 0x3 PUSH1 0x20 MSTORE PUSH1 0x40 DUP2 KECCAK256 DUP1 SLOAD PUSH1 0x1 SWAP3 SWAP1 PUSH2 0x29B8 SWAP1 DUP5 SWAP1 PUSH2 0x3729 JUMP JUMPDEST SWAP1 SWAP2 SSTORE POP POP PUSH1 0x1 PUSH1 0x1 PUSH1 0xA0 SHL SUB DUP3 AND PUSH1 0x0 SWAP1 DUP2 MSTORE PUSH1 0x3 PUSH1 0x20 MSTORE PUSH1 0x40 DUP2 KECCAK256 DUP1 SLOAD PUSH1 0x1 SWAP3 SWAP1 PUSH2 0x29E6 SWAP1 DUP5 SWAP1 PUSH2 0x385B JUMP JUMPDEST SWAP1 SWAP2 SSTORE POP POP PUSH1 0x0 DUP2 DUP2 MSTORE PUSH1 0x2 PUSH1 0x20 MSTORE PUSH1 0x40 DUP1 DUP3 KECCAK256 DUP1 SLOAD PUSH1 0x1 PUSH1 0x1 PUSH1 0xA0 SHL SUB NOT AND PUSH1 0x1 PUSH1 0x1 PUSH1 0xA0 SHL SUB DUP7 DUP2 AND SWAP2 DUP3 OR SWAP1 SWAP3 SSTORE SWAP2 MLOAD DUP5 SWAP4 SWAP2 DUP8 AND SWAP2 PUSH32 0xDDF252AD1BE2C89B69C2B068FC378DAA952BA7F163C4A11628F55A4DF523B3EF SWAP2 LOG4 POP POP POP JUMP JUMPDEST PUSH1 0x0 PUSH2 0x2A53 DUP3 DUP5 PUSH2 0x39BD JUMP JUMPDEST SWAP4 SWAP3 POP POP POP JUMP JUMPDEST PUSH1 0x0 PUSH2 0x2A53 DUP3 DUP5 PUSH2 0x39F2 JUMP JUMPDEST PUSH1 0x6 SLOAD PUSH1 0xFF AND PUSH2 0x2AAF JUMPI PUSH1 0x40 MLOAD PUSH3 0x461BCD PUSH1 0xE5 SHL DUP2 MSTORE PUSH1 0x20 PUSH1 0x4 DUP3 ADD MSTORE PUSH1 0x14 PUSH1 0x24 DUP3 ADD MSTORE PUSH20 0x14185D5CD8589B194E881B9BDD081C185D5CD959 PUSH1 0x62 SHL PUSH1 0x44 DUP3 ADD MSTORE PUSH1 0x64 ADD PUSH2 0xC7E JUMP JUMPDEST PUSH1 0x6 DUP1 SLOAD PUSH1 0xFF NOT AND SWAP1 SSTORE PUSH32 0x5DB9EE0A495BF2E6FF9C91A7834C1BA4FDD244A5E8AA4E537BD38AEAE4B073AA CALLER JUMPDEST PUSH1 0x40 MLOAD PUSH1 0x1 PUSH1 0x1 PUSH1 0xA0 SHL SUB SWAP1 SWAP2 AND DUP2 MSTORE PUSH1 0x20 ADD PUSH1 0x40 MLOAD DUP1 SWAP2 SUB SWAP1 LOG1 JUMP JUMPDEST PUSH1 0x0 PUSH2 0x2B04 DUP3 PUSH2 0x14C9 JUMP JUMPDEST SWAP1 POP PUSH2 0x2B12 DUP2 PUSH1 0x0 DUP5 PUSH2 0x2E6C JUMP JUMPDEST PUSH2 0x2B1D PUSH1 0x0 DUP4 PUSH2 0x2737 JUMP JUMPDEST PUSH1 0x1 PUSH1 0x1 PUSH1 0xA0 SHL SUB DUP2 AND PUSH1 0x0 SWAP1 DUP2 MSTORE PUSH1 0x3 PUSH1 0x20 MSTORE PUSH1 0x40 DUP2 KECCAK256 DUP1 SLOAD PUSH1 0x1 SWAP3 SWAP1 PUSH2 0x2B46 SWAP1 DUP5 SWAP1 PUSH2 0x3729 JUMP JUMPDEST SWAP1 SWAP2 SSTORE POP POP PUSH1 0x0 DUP3 DUP2 MSTORE PUSH1 0x2 PUSH1 0x20 MSTORE PUSH1 0x40 DUP1 DUP3 KECCAK256 DUP1 SLOAD PUSH1 0x1 PUSH1 0x1 PUSH1 0xA0 SHL SUB NOT AND SWAP1 SSTORE MLOAD DUP4 SWAP2 SWAP1 PUSH1 0x1 PUSH1 0x1 PUSH1 0xA0 SHL SUB DUP5 AND SWAP1 PUSH32 0xDDF252AD1BE2C89B69C2B068FC378DAA952BA7F163C4A11628F55A4DF523B3EF SWAP1 DUP4 SWAP1 LOG4 POP POP JUMP JUMPDEST PUSH2 0xE56 DUP3 DUP3 PUSH1 0x40 MLOAD DUP1 PUSH1 0x20 ADD PUSH1 0x40 MSTORE DUP1 PUSH1 0x0 DUP2 MSTORE POP PUSH2 0x2E8F JUMP JUMPDEST PUSH1 0x6 DUP1 SLOAD PUSH1 0x1 PUSH1 0x1 PUSH1 0xA0 SHL SUB DUP4 DUP2 AND PUSH2 0x100 DUP2 DUP2 MUL PUSH2 0x100 PUSH1 0x1 PUSH1 0xA8 SHL SUB NOT DUP6 AND OR SWAP1 SWAP5 SSTORE PUSH1 0x40 MLOAD SWAP4 SWAP1 SWAP3 DIV AND SWAP2 DUP3 SWAP1 PUSH32 0x8BE0079C531659141344CD1FD0A4F28419497F9722A3DAAFE3B4186F6B6457E0 SWAP1 PUSH1 0x0 SWAP1 LOG3 POP POP JUMP JUMPDEST PUSH1 0x6 SLOAD PUSH1 0xFF AND ISZERO PUSH2 0x2C37 JUMPI PUSH1 0x40 MLOAD PUSH3 0x461BCD PUSH1 0xE5 SHL DUP2 MSTORE PUSH1 0x4 ADD PUSH2 0xC7E SWAP1 PUSH2 0x37C2 JUMP JUMPDEST PUSH1 0x6 DUP1 SLOAD PUSH1 0xFF NOT AND PUSH1 0x1 OR SWAP1 SSTORE PUSH32 0x62E78CEA01BEE320CD4E420270B5EA74000D11B0C9F74754EBDBFC544B05A258 PUSH2 0x2ADC CALLER SWAP1 JUMP JUMPDEST DUP2 PUSH1 0x1 PUSH1 0x1 PUSH1 0xA0 SHL SUB AND DUP4 PUSH1 0x1 PUSH1 0x1 PUSH1 0xA0 SHL SUB AND EQ ISZERO PUSH2 0x2CCE JUMPI PUSH1 0x40 MLOAD PUSH3 0x461BCD PUSH1 0xE5 SHL DUP2 MSTORE PUSH1 0x20 PUSH1 0x4 DUP3 ADD MSTORE PUSH1 0x19 PUSH1 0x24 DUP3 ADD MSTORE PUSH32 0x4552433732313A20617070726F766520746F2063616C6C657200000000000000 PUSH1 0x44 DUP3 ADD MSTORE PUSH1 0x64 ADD PUSH2 0xC7E JUMP JUMPDEST PUSH1 0x1 PUSH1 0x1 PUSH1 0xA0 SHL SUB DUP4 DUP2 AND PUSH1 0x0 DUP2 DUP2 MSTORE PUSH1 0x5 PUSH1 0x20 SWAP1 DUP2 MSTORE PUSH1 0x40 DUP1 DUP4 KECCAK256 SWAP5 DUP8 AND DUP1 DUP5 MSTORE SWAP5 DUP3 MSTORE SWAP2 DUP3 SWAP1 KECCAK256 DUP1 SLOAD PUSH1 0xFF NOT AND DUP7 ISZERO ISZERO SWAP1 DUP2 OR SWAP1 SWAP2 SSTORE SWAP2 MLOAD SWAP2 DUP3 MSTORE PUSH32 0x17307EAB39AB6107E8899845AD3D59BD9653F200F220920489CA2B5937696C31 SWAP2 ADD PUSH1 0x40 MLOAD DUP1 SWAP2 SUB SWAP1 LOG3 POP POP POP JUMP JUMPDEST PUSH2 0x2D46 DUP5 DUP5 DUP5 PUSH2 0x289C JUMP JUMPDEST PUSH2 0x2D52 DUP5 DUP5 DUP5 DUP5 PUSH2 0x2EC2 JUMP JUMPDEST PUSH2 0x2205 JUMPI PUSH1 0x40 MLOAD PUSH3 0x461BCD PUSH1 0xE5 SHL DUP2 MSTORE PUSH1 0x4 ADD PUSH2 0xC7E SWAP1 PUSH2 0x3A06 JUMP JUMPDEST PUSH1 0x60 DUP2 PUSH2 0x2D92 JUMPI POP POP PUSH1 0x40 DUP1 MLOAD DUP1 DUP3 ADD SWAP1 SWAP2 MSTORE PUSH1 0x1 DUP2 MSTORE PUSH1 0x3 PUSH1 0xFC SHL PUSH1 0x20 DUP3 ADD MSTORE SWAP1 JUMP JUMPDEST DUP2 PUSH1 0x0 JUMPDEST DUP2 ISZERO PUSH2 0x2DBC JUMPI DUP1 PUSH2 0x2DA6 DUP2 PUSH2 0x3756 JUMP JUMPDEST SWAP2 POP PUSH2 0x2DB5 SWAP1 POP PUSH1 0xA DUP4 PUSH2 0x39F2 JUMP JUMPDEST SWAP2 POP PUSH2 0x2D96 JUMP JUMPDEST PUSH1 0x0 DUP2 PUSH8 0xFFFFFFFFFFFFFFFF DUP2 GT ISZERO PUSH2 0x2DD7 JUMPI PUSH2 0x2DD7 PUSH2 0x32BF JUMP JUMPDEST PUSH1 0x40 MLOAD SWAP1 DUP1 DUP3 MSTORE DUP1 PUSH1 0x1F ADD PUSH1 0x1F NOT AND PUSH1 0x20 ADD DUP3 ADD PUSH1 0x40 MSTORE DUP1 ISZERO PUSH2 0x2E01 JUMPI PUSH1 0x20 DUP3 ADD DUP2 DUP1 CALLDATASIZE DUP4 CALLDATACOPY ADD SWAP1 POP JUMPDEST POP SWAP1 POP JUMPDEST DUP5 ISZERO PUSH2 0x2894 JUMPI PUSH2 0x2E16 PUSH1 0x1 DUP4 PUSH2 0x3729 JUMP JUMPDEST SWAP2 POP PUSH2 0x2E23 PUSH1 0xA DUP7 PUSH2 0x3A58 JUMP JUMPDEST PUSH2 0x2E2E SWAP1 PUSH1 0x30 PUSH2 0x385B JUMP JUMPDEST PUSH1 0xF8 SHL DUP2 DUP4 DUP2 MLOAD DUP2 LT PUSH2 0x2E43 JUMPI PUSH2 0x2E43 PUSH2 0x3740 JUMP JUMPDEST PUSH1 0x20 ADD ADD SWAP1 PUSH1 0x1 PUSH1 0x1 PUSH1 0xF8 SHL SUB NOT AND SWAP1 DUP2 PUSH1 0x0 BYTE SWAP1 MSTORE8 POP PUSH2 0x2E65 PUSH1 0xA DUP7 PUSH2 0x39F2 JUMP JUMPDEST SWAP5 POP PUSH2 0x2E05 JUMP JUMPDEST PUSH1 0x6 SLOAD PUSH1 0xFF AND ISZERO PUSH2 0xDB4 JUMPI PUSH1 0x40 MLOAD PUSH3 0x461BCD PUSH1 0xE5 SHL DUP2 MSTORE PUSH1 0x4 ADD PUSH2 0xC7E SWAP1 PUSH2 0x37C2 JUMP JUMPDEST PUSH2 0x2E99 DUP4 DUP4 PUSH2 0x2FC0 JUMP JUMPDEST PUSH2 0x2EA6 PUSH1 0x0 DUP5 DUP5 DUP5 PUSH2 0x2EC2 JUMP JUMPDEST PUSH2 0xDB4 JUMPI PUSH1 0x40 MLOAD PUSH3 0x461BCD PUSH1 0xE5 SHL DUP2 MSTORE PUSH1 0x4 ADD PUSH2 0xC7E SWAP1 PUSH2 0x3A06 JUMP JUMPDEST PUSH1 0x0 PUSH1 0x1 PUSH1 0x1 PUSH1 0xA0 SHL SUB DUP5 AND EXTCODESIZE ISZERO PUSH2 0x2FB5 JUMPI PUSH1 0x40 MLOAD PUSH4 0xA85BD01 PUSH1 0xE1 SHL DUP2 MSTORE PUSH1 0x1 PUSH1 0x1 PUSH1 0xA0 SHL SUB DUP6 AND SWAP1 PUSH4 0x150B7A02 SWAP1 PUSH2 0x2F06 SWAP1 CALLER SWAP1 DUP10 SWAP1 DUP9 SWAP1 DUP9 SWAP1 PUSH1 0x4 ADD PUSH2 0x3A6C JUMP JUMPDEST PUSH1 0x20 PUSH1 0x40 MLOAD DUP1 DUP4 SUB DUP2 PUSH1 0x0 DUP8 GAS CALL SWAP3 POP POP POP DUP1 ISZERO PUSH2 0x2F41 JUMPI POP PUSH1 0x40 DUP1 MLOAD PUSH1 0x1F RETURNDATASIZE SWAP1 DUP2 ADD PUSH1 0x1F NOT AND DUP3 ADD SWAP1 SWAP3 MSTORE PUSH2 0x2F3E SWAP2 DUP2 ADD SWAP1 PUSH2 0x3AA9 JUMP JUMPDEST PUSH1 0x1 JUMPDEST PUSH2 0x2F9B JUMPI RETURNDATASIZE DUP1 DUP1 ISZERO PUSH2 0x2F6F JUMPI PUSH1 0x40 MLOAD SWAP2 POP PUSH1 0x1F NOT PUSH1 0x3F RETURNDATASIZE ADD AND DUP3 ADD PUSH1 0x40 MSTORE RETURNDATASIZE DUP3 MSTORE RETURNDATASIZE PUSH1 0x0 PUSH1 0x20 DUP5 ADD RETURNDATACOPY PUSH2 0x2F74 JUMP JUMPDEST PUSH1 0x60 SWAP2 POP JUMPDEST POP DUP1 MLOAD PUSH2 0x2F93 JUMPI PUSH1 0x40 MLOAD PUSH3 0x461BCD PUSH1 0xE5 SHL DUP2 MSTORE PUSH1 0x4 ADD PUSH2 0xC7E SWAP1 PUSH2 0x3A06 JUMP JUMPDEST DUP1 MLOAD DUP2 PUSH1 0x20 ADD REVERT JUMPDEST PUSH1 0x1 PUSH1 0x1 PUSH1 0xE0 SHL SUB NOT AND PUSH4 0xA85BD01 PUSH1 0xE1 SHL EQ SWAP1 POP PUSH2 0x2894 JUMP JUMPDEST POP PUSH1 0x1 SWAP5 SWAP4 POP POP POP POP JUMP JUMPDEST PUSH1 0x1 PUSH1 0x1 PUSH1 0xA0 SHL SUB DUP3 AND PUSH2 0x3016 JUMPI PUSH1 0x40 MLOAD PUSH3 0x461BCD PUSH1 0xE5 SHL DUP2 MSTORE PUSH1 0x20 PUSH1 0x4 DUP3 ADD DUP2 SWAP1 MSTORE PUSH1 0x24 DUP3 ADD MSTORE PUSH32 0x4552433732313A206D696E7420746F20746865207A65726F2061646472657373 PUSH1 0x44 DUP3 ADD MSTORE PUSH1 0x64 ADD PUSH2 0xC7E JUMP JUMPDEST PUSH1 0x0 DUP2 DUP2 MSTORE PUSH1 0x2 PUSH1 0x20 MSTORE PUSH1 0x40 SWAP1 KECCAK256 SLOAD PUSH1 0x1 PUSH1 0x1 PUSH1 0xA0 SHL SUB AND ISZERO PUSH2 0x307B JUMPI PUSH1 0x40 MLOAD PUSH3 0x461BCD PUSH1 0xE5 SHL DUP2 MSTORE PUSH1 0x20 PUSH1 0x4 DUP3 ADD MSTORE PUSH1 0x1C PUSH1 0x24 DUP3 ADD MSTORE PUSH32 0x4552433732313A20746F6B656E20616C7265616479206D696E74656400000000 PUSH1 0x44 DUP3 ADD MSTORE PUSH1 0x64 ADD PUSH2 0xC7E JUMP JUMPDEST PUSH2 0x3087 PUSH1 0x0 DUP4 DUP4 PUSH2 0x2E6C JUMP JUMPDEST PUSH1 0x1 PUSH1 0x1 PUSH1 0xA0 SHL SUB DUP3 AND PUSH1 0x0 SWAP1 DUP2 MSTORE PUSH1 0x3 PUSH1 0x20 MSTORE PUSH1 0x40 DUP2 KECCAK256 DUP1 SLOAD PUSH1 0x1 SWAP3 SWAP1 PUSH2 0x30B0 SWAP1 DUP5 SWAP1 PUSH2 0x385B JUMP JUMPDEST SWAP1 SWAP2 SSTORE POP POP PUSH1 0x0 DUP2 DUP2 MSTORE PUSH1 0x2 PUSH1 0x20 MSTORE PUSH1 0x40 DUP1 DUP3 KECCAK256 DUP1 SLOAD PUSH1 0x1 PUSH1 0x1 PUSH1 0xA0 SHL SUB NOT AND PUSH1 0x1 PUSH1 0x1 PUSH1 0xA0 SHL SUB DUP7 AND SWAP1 DUP2 OR SWAP1 SWAP2 SSTORE SWAP1 MLOAD DUP4 SWAP3 SWAP1 PUSH32 0xDDF252AD1BE2C89B69C2B068FC378DAA952BA7F163C4A11628F55A4DF523B3EF SWAP1 DUP3 SWAP1 LOG4 POP POP JUMP JUMPDEST DUP3 DUP1 SLOAD PUSH2 0x311A SWAP1 PUSH2 0x36A3 JUMP JUMPDEST SWAP1 PUSH1 0x0 MSTORE PUSH1 0x20 PUSH1 0x0 KECCAK256 SWAP1 PUSH1 0x1F ADD PUSH1 0x20 SWAP1 DIV DUP2 ADD SWAP3 DUP3 PUSH2 0x313C JUMPI PUSH1 0x0 DUP6 SSTORE PUSH2 0x3182 JUMP JUMPDEST DUP3 PUSH1 0x1F LT PUSH2 0x3155 JUMPI DUP1 MLOAD PUSH1 0xFF NOT AND DUP4 DUP1 ADD OR DUP6 SSTORE PUSH2 0x3182 JUMP JUMPDEST DUP3 DUP1 ADD PUSH1 0x1 ADD DUP6 SSTORE DUP3 ISZERO PUSH2 0x3182 JUMPI SWAP2 DUP3 ADD JUMPDEST DUP3 DUP2 GT ISZERO PUSH2 0x3182 JUMPI DUP3 MLOAD DUP3 SSTORE SWAP2 PUSH1 0x20 ADD SWAP2 SWAP1 PUSH1 0x1 ADD SWAP1 PUSH2 0x3167 JUMP JUMPDEST POP PUSH2 0x318E SWAP3 SWAP2 POP PUSH2 0x3192 JUMP JUMPDEST POP SWAP1 JUMP JUMPDEST JUMPDEST DUP1 DUP3 GT ISZERO PUSH2 0x318E JUMPI PUSH1 0x0 DUP2 SSTORE PUSH1 0x1 ADD PUSH2 0x3193 JUMP JUMPDEST PUSH1 0x1 PUSH1 0x1 PUSH1 0xE0 SHL SUB NOT DUP2 AND DUP2 EQ PUSH2 0x13E9 JUMPI PUSH1 0x0 DUP1 REVERT JUMPDEST PUSH1 0x0 PUSH1 0x20 DUP3 DUP5 SUB SLT ISZERO PUSH2 0x31CF JUMPI PUSH1 0x0 DUP1 REVERT JUMPDEST DUP2 CALLDATALOAD PUSH2 0x2A53 DUP2 PUSH2 0x31A7 JUMP JUMPDEST PUSH1 0x0 JUMPDEST DUP4 DUP2 LT ISZERO PUSH2 0x31F5 JUMPI DUP2 DUP2 ADD MLOAD DUP4 DUP3 ADD MSTORE PUSH1 0x20 ADD PUSH2 0x31DD JUMP JUMPDEST DUP4 DUP2 GT ISZERO PUSH2 0x2205 JUMPI POP POP PUSH1 0x0 SWAP2 ADD MSTORE JUMP JUMPDEST PUSH1 0x0 DUP2 MLOAD DUP1 DUP5 MSTORE PUSH2 0x321E DUP2 PUSH1 0x20 DUP7 ADD PUSH1 0x20 DUP7 ADD PUSH2 0x31DA JUMP JUMPDEST PUSH1 0x1F ADD PUSH1 0x1F NOT AND SWAP3 SWAP1 SWAP3 ADD PUSH1 0x20 ADD SWAP3 SWAP2 POP POP JUMP JUMPDEST PUSH1 0x20 DUP2 MSTORE PUSH1 0x0 PUSH2 0x2A53 PUSH1 0x20 DUP4 ADD DUP5 PUSH2 0x3206 JUMP JUMPDEST PUSH1 0x0 PUSH1 0x20 DUP3 DUP5 SUB SLT ISZERO PUSH2 0x3257 JUMPI PUSH1 0x0 DUP1 REVERT JUMPDEST POP CALLDATALOAD SWAP2 SWAP1 POP JUMP JUMPDEST DUP1 CALLDATALOAD PUSH1 0x1 PUSH1 0x1 PUSH1 0xA0 SHL SUB DUP2 AND DUP2 EQ PUSH2 0x3275 JUMPI PUSH1 0x0 DUP1 REVERT JUMPDEST SWAP2 SWAP1 POP JUMP JUMPDEST PUSH1 0x0 PUSH1 0x20 DUP3 DUP5 SUB SLT ISZERO PUSH2 0x328C JUMPI PUSH1 0x0 DUP1 REVERT JUMPDEST PUSH2 0x2A53 DUP3 PUSH2 0x325E JUMP JUMPDEST PUSH1 0x0 DUP1 PUSH1 0x40 DUP4 DUP6 SUB SLT ISZERO PUSH2 0x32A8 JUMPI PUSH1 0x0 DUP1 REVERT JUMPDEST PUSH2 0x32B1 DUP4 PUSH2 0x325E JUMP JUMPDEST SWAP5 PUSH1 0x20 SWAP4 SWAP1 SWAP4 ADD CALLDATALOAD SWAP4 POP POP POP JUMP JUMPDEST PUSH4 0x4E487B71 PUSH1 0xE0 SHL PUSH1 0x0 MSTORE PUSH1 0x41 PUSH1 0x4 MSTORE PUSH1 0x24 PUSH1 0x0 REVERT JUMPDEST PUSH1 0x40 MLOAD PUSH1 0x1F DUP3 ADD PUSH1 0x1F NOT AND DUP2 ADD PUSH8 0xFFFFFFFFFFFFFFFF DUP2 GT DUP3 DUP3 LT OR ISZERO PUSH2 0x32FE JUMPI PUSH2 0x32FE PUSH2 0x32BF JUMP JUMPDEST PUSH1 0x40 MSTORE SWAP2 SWAP1 POP JUMP JUMPDEST PUSH1 0x0 PUSH8 0xFFFFFFFFFFFFFFFF DUP4 GT ISZERO PUSH2 0x3320 JUMPI PUSH2 0x3320 PUSH2 0x32BF JUMP JUMPDEST PUSH2 0x3333 PUSH1 0x1F DUP5 ADD PUSH1 0x1F NOT AND PUSH1 0x20 ADD PUSH2 0x32D5 JUMP JUMPDEST SWAP1 POP DUP3 DUP2 MSTORE DUP4 DUP4 DUP4 ADD GT ISZERO PUSH2 0x3347 JUMPI PUSH1 0x0 DUP1 REVERT JUMPDEST DUP3 DUP3 PUSH1 0x20 DUP4 ADD CALLDATACOPY PUSH1 0x0 PUSH1 0x20 DUP5 DUP4 ADD ADD MSTORE SWAP4 SWAP3 POP POP POP JUMP JUMPDEST PUSH1 0x0 PUSH1 0x20 DUP3 DUP5 SUB SLT ISZERO PUSH2 0x3370 JUMPI PUSH1 0x0 DUP1 REVERT JUMPDEST DUP2 CALLDATALOAD PUSH8 0xFFFFFFFFFFFFFFFF DUP2 GT ISZERO PUSH2 0x3387 JUMPI PUSH1 0x0 DUP1 REVERT JUMPDEST DUP3 ADD PUSH1 0x1F DUP2 ADD DUP5 SGT PUSH2 0x3398 JUMPI PUSH1 0x0 DUP1 REVERT JUMPDEST PUSH2 0x2894 DUP5 DUP3 CALLDATALOAD PUSH1 0x20 DUP5 ADD PUSH2 0x3306 JUMP JUMPDEST PUSH1 0x0 PUSH8 0xFFFFFFFFFFFFFFFF DUP3 GT ISZERO PUSH2 0x33C1 JUMPI PUSH2 0x33C1 PUSH2 0x32BF JUMP JUMPDEST POP PUSH1 0x5 SHL PUSH1 0x20 ADD SWAP1 JUMP JUMPDEST PUSH1 0x0 DUP3 PUSH1 0x1F DUP4 ADD SLT PUSH2 0x33DC JUMPI PUSH1 0x0 DUP1 REVERT JUMPDEST DUP2 CALLDATALOAD PUSH1 0x20 PUSH2 0x33F1 PUSH2 0x33EC DUP4 PUSH2 0x33A7 JUMP JUMPDEST PUSH2 0x32D5 JUMP JUMPDEST DUP3 DUP2 MSTORE PUSH1 0x5 SWAP3 SWAP1 SWAP3 SHL DUP5 ADD DUP2 ADD SWAP2 DUP2 DUP2 ADD SWAP1 DUP7 DUP5 GT ISZERO PUSH2 0x3410 JUMPI PUSH1 0x0 DUP1 REVERT JUMPDEST DUP3 DUP7 ADD JUMPDEST DUP5 DUP2 LT ISZERO PUSH2 0x3432 JUMPI PUSH2 0x3425 DUP2 PUSH2 0x325E JUMP JUMPDEST DUP4 MSTORE SWAP2 DUP4 ADD SWAP2 DUP4 ADD PUSH2 0x3414 JUMP JUMPDEST POP SWAP7 SWAP6 POP POP POP POP POP POP JUMP JUMPDEST PUSH1 0x0 PUSH1 0x20 DUP3 DUP5 SUB SLT ISZERO PUSH2 0x344F JUMPI PUSH1 0x0 DUP1 REVERT JUMPDEST DUP2 CALLDATALOAD PUSH8 0xFFFFFFFFFFFFFFFF DUP2 GT ISZERO PUSH2 0x3466 JUMPI PUSH1 0x0 DUP1 REVERT JUMPDEST PUSH2 0x2894 DUP5 DUP3 DUP6 ADD PUSH2 0x33CB JUMP JUMPDEST PUSH1 0x0 DUP1 PUSH1 0x0 PUSH1 0x60 DUP5 DUP7 SUB SLT ISZERO PUSH2 0x3487 JUMPI PUSH1 0x0 DUP1 REVERT JUMPDEST PUSH2 0x3490 DUP5 PUSH2 0x325E JUMP JUMPDEST SWAP3 POP PUSH2 0x349E PUSH1 0x20 DUP6 ADD PUSH2 0x325E JUMP JUMPDEST SWAP2 POP PUSH1 0x40 DUP5 ADD CALLDATALOAD SWAP1 POP SWAP3 POP SWAP3 POP SWAP3 JUMP JUMPDEST DUP1 CALLDATALOAD PUSH1 0xFF DUP2 AND DUP2 EQ PUSH2 0x3275 JUMPI PUSH1 0x0 DUP1 REVERT JUMPDEST PUSH1 0x0 PUSH1 0x20 DUP3 DUP5 SUB SLT ISZERO PUSH2 0x34D1 JUMPI PUSH1 0x0 DUP1 REVERT JUMPDEST PUSH2 0x2A53 DUP3 PUSH2 0x34AE JUMP JUMPDEST PUSH1 0x0 DUP1 PUSH1 0x40 DUP4 DUP6 SUB SLT ISZERO PUSH2 0x34ED JUMPI PUSH1 0x0 DUP1 REVERT JUMPDEST DUP3 CALLDATALOAD PUSH8 0xFFFFFFFFFFFFFFFF DUP1 DUP3 GT ISZERO PUSH2 0x3505 JUMPI PUSH1 0x0 DUP1 REVERT JUMPDEST PUSH2 0x3511 DUP7 DUP4 DUP8 ADD PUSH2 0x33CB JUMP JUMPDEST SWAP4 POP PUSH1 0x20 SWAP2 POP DUP2 DUP6 ADD CALLDATALOAD DUP2 DUP2 GT ISZERO PUSH2 0x3528 JUMPI PUSH1 0x0 DUP1 REVERT JUMPDEST DUP6 ADD SWAP1 POP PUSH1 0x1F DUP2 ADD DUP7 SGT PUSH2 0x353B JUMPI PUSH1 0x0 DUP1 REVERT JUMPDEST DUP1 CALLDATALOAD PUSH2 0x3549 PUSH2 0x33EC DUP3 PUSH2 0x33A7 JUMP JUMPDEST DUP2 DUP2 MSTORE PUSH1 0x5 SWAP2 SWAP1 SWAP2 SHL DUP3 ADD DUP4 ADD SWAP1 DUP4 DUP2 ADD SWAP1 DUP9 DUP4 GT ISZERO PUSH2 0x3568 JUMPI PUSH1 0x0 DUP1 REVERT JUMPDEST SWAP3 DUP5 ADD SWAP3 JUMPDEST DUP3 DUP5 LT ISZERO PUSH2 0x358D JUMPI PUSH2 0x357E DUP5 PUSH2 0x34AE JUMP JUMPDEST DUP3 MSTORE SWAP3 DUP5 ADD SWAP3 SWAP1 DUP5 ADD SWAP1 PUSH2 0x356D JUMP JUMPDEST DUP1 SWAP6 POP POP POP POP POP POP SWAP3 POP SWAP3 SWAP1 POP JUMP JUMPDEST PUSH1 0x0 DUP1 PUSH1 0x40 DUP4 DUP6 SUB SLT ISZERO PUSH2 0x35AF JUMPI PUSH1 0x0 DUP1 REVERT JUMPDEST PUSH2 0x35B8 DUP4 PUSH2 0x325E JUMP JUMPDEST SWAP2 POP PUSH1 0x20 DUP4 ADD CALLDATALOAD DUP1 ISZERO ISZERO DUP2 EQ PUSH2 0x35CD JUMPI PUSH1 0x0 DUP1 REVERT JUMPDEST DUP1 SWAP2 POP POP SWAP3 POP SWAP3 SWAP1 POP JUMP JUMPDEST PUSH1 0x0 DUP1 PUSH1 0x40 DUP4 DUP6 SUB SLT ISZERO PUSH2 0x35EB JUMPI PUSH1 0x0 DUP1 REVERT JUMPDEST PUSH2 0x35F4 DUP4 PUSH2 0x34AE JUMP JUMPDEST SWAP2 POP PUSH2 0x3602 PUSH1 0x20 DUP5 ADD PUSH2 0x325E JUMP JUMPDEST SWAP1 POP SWAP3 POP SWAP3 SWAP1 POP JUMP JUMPDEST PUSH1 0x0 DUP1 PUSH1 0x0 DUP1 PUSH1 0x80 DUP6 DUP8 SUB SLT ISZERO PUSH2 0x3621 JUMPI PUSH1 0x0 DUP1 REVERT JUMPDEST PUSH2 0x362A DUP6 PUSH2 0x325E JUMP JUMPDEST SWAP4 POP PUSH2 0x3638 PUSH1 0x20 DUP7 ADD PUSH2 0x325E JUMP JUMPDEST SWAP3 POP PUSH1 0x40 DUP6 ADD CALLDATALOAD SWAP2 POP PUSH1 0x60 DUP6 ADD CALLDATALOAD PUSH8 0xFFFFFFFFFFFFFFFF DUP2 GT ISZERO PUSH2 0x365B JUMPI PUSH1 0x0 DUP1 REVERT JUMPDEST DUP6 ADD PUSH1 0x1F DUP2 ADD DUP8 SGT PUSH2 0x366C JUMPI PUSH1 0x0 DUP1 REVERT JUMPDEST PUSH2 0x367B DUP8 DUP3 CALLDATALOAD PUSH1 0x20 DUP5 ADD PUSH2 0x3306 JUMP JUMPDEST SWAP2 POP POP SWAP3 SWAP6 SWAP2 SWAP5 POP SWAP3 POP JUMP JUMPDEST PUSH1 0x0 DUP1 PUSH1 0x40 DUP4 DUP6 SUB SLT ISZERO PUSH2 0x369A JUMPI PUSH1 0x0 DUP1 REVERT JUMPDEST PUSH2 0x35F4 DUP4 PUSH2 0x325E JUMP JUMPDEST PUSH1 0x1 DUP2 DUP2 SHR SWAP1 DUP3 AND DUP1 PUSH2 0x36B7 JUMPI PUSH1 0x7F DUP3 AND SWAP2 POP JUMPDEST PUSH1 0x20 DUP3 LT DUP2 EQ ISZERO PUSH2 0x36D8 JUMPI PUSH4 0x4E487B71 PUSH1 0xE0 SHL PUSH1 0x0 MSTORE PUSH1 0x22 PUSH1 0x4 MSTORE PUSH1 0x24 PUSH1 0x0 REVERT JUMPDEST POP SWAP2 SWAP1 POP JUMP JUMPDEST PUSH1 0x20 DUP1 DUP3 MSTORE DUP2 DUP2 ADD MSTORE PUSH32 0x4F776E61626C653A2063616C6C6572206973206E6F7420746865206F776E6572 PUSH1 0x40 DUP3 ADD MSTORE PUSH1 0x60 ADD SWAP1 JUMP JUMPDEST PUSH4 0x4E487B71 PUSH1 0xE0 SHL PUSH1 0x0 MSTORE PUSH1 0x11 PUSH1 0x4 MSTORE PUSH1 0x24 PUSH1 0x0 REVERT JUMPDEST PUSH1 0x0 DUP3 DUP3 LT ISZERO PUSH2 0x373B JUMPI PUSH2 0x373B PUSH2 0x3713 JUMP JUMPDEST POP SUB SWAP1 JUMP JUMPDEST PUSH4 0x4E487B71 PUSH1 0xE0 SHL PUSH1 0x0 MSTORE PUSH1 0x32 PUSH1 0x4 MSTORE PUSH1 0x24 PUSH1 0x0 REVERT JUMPDEST PUSH1 0x0 PUSH1 0x0 NOT DUP3 EQ ISZERO PUSH2 0x376A JUMPI PUSH2 0x376A PUSH2 0x3713 JUMP JUMPDEST POP PUSH1 0x1 ADD SWAP1 JUMP JUMPDEST PUSH1 0x20 DUP1 DUP3 MSTORE PUSH1 0x31 SWAP1 DUP3 ADD MSTORE PUSH32 0x4552433732313A207472616E736665722063616C6C6572206973206E6F74206F PUSH1 0x40 DUP3 ADD MSTORE PUSH17 0x1DDB995C881B9BDC88185C1C1C9BDD9959 PUSH1 0x7A SHL PUSH1 0x60 DUP3 ADD MSTORE PUSH1 0x80 ADD SWAP1 JUMP JUMPDEST PUSH1 0x20 DUP1 DUP3 MSTORE PUSH1 0x10 SWAP1 DUP3 ADD MSTORE PUSH16 0x14185D5CD8589B194E881C185D5CD959 PUSH1 0x82 SHL PUSH1 0x40 DUP3 ADD MSTORE PUSH1 0x60 ADD SWAP1 JUMP JUMPDEST PUSH1 0x20 DUP1 DUP3 MSTORE PUSH1 0x2A SWAP1 DUP3 ADD MSTORE PUSH32 0x45786365656473206D617820616C6C6F77656420616D6F756E74207065722074 PUSH1 0x40 DUP3 ADD MSTORE PUSH10 0x3930B739B0B1BA34B7B7 PUSH1 0xB1 SHL PUSH1 0x60 DUP3 ADD MSTORE PUSH1 0x80 ADD SWAP1 JUMP JUMPDEST PUSH1 0x0 PUSH1 0xFF DUP3 AND PUSH1 0xFF DUP5 AND DUP1 PUSH1 0xFF SUB DUP3 GT ISZERO PUSH2 0x3853 JUMPI PUSH2 0x3853 PUSH2 0x3713 JUMP JUMPDEST ADD SWAP4 SWAP3 POP POP POP JUMP JUMPDEST PUSH1 0x0 DUP3 NOT DUP3 GT ISZERO PUSH2 0x386E JUMPI PUSH2 0x386E PUSH2 0x3713 JUMP JUMPDEST POP ADD SWAP1 JUMP JUMPDEST PUSH1 0x20 DUP1 DUP3 MSTORE PUSH1 0x38 SWAP1 DUP3 ADD MSTORE PUSH32 0x50726F76656E616E63652068617368206D7573742062652066726F7A656E2062 PUSH1 0x40 DUP3 ADD MSTORE PUSH32 0x65666F7265206D696E74696E672063616E2073746172742E0000000000000000 PUSH1 0x60 DUP3 ADD MSTORE PUSH1 0x80 ADD SWAP1 JUMP JUMPDEST DUP1 SLOAD PUSH1 0x0 SWAP1 PUSH1 0x1 DUP2 DUP2 SHR SWAP1 DUP1 DUP4 AND DUP1 PUSH2 0x38EA JUMPI PUSH1 0x7F DUP4 AND SWAP3 POP JUMPDEST PUSH1 0x20 DUP1 DUP5 LT DUP3 EQ ISZERO PUSH2 0x390C JUMPI PUSH4 0x4E487B71 PUSH1 0xE0 SHL PUSH1 0x0 MSTORE PUSH1 0x22 PUSH1 0x4 MSTORE PUSH1 0x24 PUSH1 0x0 REVERT JUMPDEST DUP2 DUP1 ISZERO PUSH2 0x3920 JUMPI PUSH1 0x1 DUP2 EQ PUSH2 0x3931 JUMPI PUSH2 0x395E JUMP JUMPDEST PUSH1 0xFF NOT DUP7 AND DUP10 MSTORE DUP5 DUP10 ADD SWAP7 POP PUSH2 0x395E JUMP JUMPDEST PUSH1 0x0 DUP9 DUP2 MSTORE PUSH1 0x20 SWAP1 KECCAK256 PUSH1 0x0 JUMPDEST DUP7 DUP2 LT ISZERO PUSH2 0x3956 JUMPI DUP2 SLOAD DUP12 DUP3 ADD MSTORE SWAP1 DUP6 ADD SWAP1 DUP4 ADD PUSH2 0x393D JUMP JUMPDEST POP POP DUP5 DUP10 ADD SWAP7 POP JUMPDEST POP POP POP POP POP POP SWAP3 SWAP2 POP POP JUMP JUMPDEST PUSH1 0x0 PUSH2 0x3976 DUP3 DUP7 PUSH2 0x38D0 JUMP JUMPDEST DUP5 MLOAD PUSH2 0x3986 DUP2 DUP4 PUSH1 0x20 DUP10 ADD PUSH2 0x31DA JUMP JUMPDEST PUSH2 0x3992 DUP2 DUP4 ADD DUP7 PUSH2 0x38D0 JUMP JUMPDEST SWAP8 SWAP7 POP POP POP POP POP POP POP JUMP JUMPDEST PUSH1 0x0 PUSH1 0xFF DUP3 AND PUSH1 0xFF DUP2 EQ ISZERO PUSH2 0x39B4 JUMPI PUSH2 0x39B4 PUSH2 0x3713 JUMP JUMPDEST PUSH1 0x1 ADD SWAP3 SWAP2 POP POP JUMP JUMPDEST PUSH1 0x0 DUP2 PUSH1 0x0 NOT DIV DUP4 GT DUP3 ISZERO ISZERO AND ISZERO PUSH2 0x39D7 JUMPI PUSH2 0x39D7 PUSH2 0x3713 JUMP JUMPDEST POP MUL SWAP1 JUMP JUMPDEST PUSH4 0x4E487B71 PUSH1 0xE0 SHL PUSH1 0x0 MSTORE PUSH1 0x12 PUSH1 0x4 MSTORE PUSH1 0x24 PUSH1 0x0 REVERT JUMPDEST PUSH1 0x0 DUP3 PUSH2 0x3A01 JUMPI PUSH2 0x3A01 PUSH2 0x39DC JUMP JUMPDEST POP DIV SWAP1 JUMP JUMPDEST PUSH1 0x20 DUP1 DUP3 MSTORE PUSH1 0x32 SWAP1 DUP3 ADD MSTORE PUSH32 0x4552433732313A207472616E7366657220746F206E6F6E204552433732315265 PUSH1 0x40 DUP3 ADD MSTORE PUSH18 0x31B2B4BB32B91034B6B83632B6B2B73A32B9 PUSH1 0x71 SHL PUSH1 0x60 DUP3 ADD MSTORE PUSH1 0x80 ADD SWAP1 JUMP JUMPDEST PUSH1 0x0 DUP3 PUSH2 0x3A67 JUMPI PUSH2 0x3A67 PUSH2 0x39DC JUMP JUMPDEST POP MOD SWAP1 JUMP JUMPDEST PUSH1 0x1 PUSH1 0x1 PUSH1 0xA0 SHL SUB DUP6 DUP2 AND DUP3 MSTORE DUP5 AND PUSH1 0x20 DUP3 ADD MSTORE PUSH1 0x40 DUP2 ADD DUP4 SWAP1 MSTORE PUSH1 0x80 PUSH1 0x60 DUP3 ADD DUP2 SWAP1 MSTORE PUSH1 0x0 SWAP1 PUSH2 0x3A9F SWAP1 DUP4 ADD DUP5 PUSH2 0x3206 JUMP JUMPDEST SWAP7 SWAP6 POP POP POP POP POP POP JUMP JUMPDEST PUSH1 0x0 PUSH1 0x20 DUP3 DUP5 SUB SLT ISZERO PUSH2 0x3ABB JUMPI PUSH1 0x0 DUP1 REVERT JUMPDEST DUP2 MLOAD PUSH2 0x2A53 DUP2 PUSH2 0x31A7 JUMP INVALID LOG2 PUSH5 0x6970667358 0x22 SLT KECCAK256 EXTCODECOPY MSTORE8 DUP7 0xB1 SHL SWAP5 PUSH29 0x134A2C0B73D19CF0150A19485677458BC7AF3FAB5BF9901CB864736F6C PUSH4 0x4300080A STOP CALLER ",
  "sha1": "3170a69c62c6335429fe7c17effb2798b22c26f6",
  "source": "// SPDX-License-Identifier: MIT\npragma solidity ^0.8.10;\n\nimport '@openzeppelin/contracts/token/ERC721/ERC721.sol';\nimport '@openzeppelin/contracts/access/Ownable.sol';\nimport '@openzeppelin/contracts/utils/math/SafeMath.sol';\nimport '@openzeppelin/contracts/utils/Counters.sol';\nimport '@openzeppelin/contracts/security/Pausable.sol';\nimport '@openzeppelin/contracts/token/ERC721/extensions/ERC721Burnable.sol';\n\ncontract CryptidToken is ERC721, Pausable, Ownable, ERC721Burnable{ \n    using Strings for uint256;\n    using SafeMath for uint256;\n    using Counters for Counters.Counter;\n\n    Counters.Counter private _tokenIdCounter;\n\n    string public provenanceHash;\n    string public baseURI = \"\";\n    string public baseExtension = \".json\";\n    uint8 private stage = 0;\n    uint8 public maxMintPerTx;     \n    bool public tokenURIFrozen = false;\n    bool public provenanceHashFrozen = false;\n    address public withdrawDest1 = 0x1953bc1fF76f5e61cD775A4482bd85BAc56aD1Eb;\n    address public withdrawDest2 = 0x12B58f5331a6DC897932AA7FB5101667ACdf03e2;\n    \n    // ~ Sale stages ~\n    // stage 0: Init \n    // stage 1: Free Whitelist \n    // stage 2: Presale \n    // stage 3: Team Mint \n    // stage 4: Public Sale\n\n    // Whitelist mint (stage=1)\n    mapping(address => uint8) public whitelistUsers;\n    mapping(address => uint8) public whitelistMintCount;\n\n    // Presale mint (stage=2)\n    mapping(address => bool) public presaleUsers;\n    uint256 public presaleSupply;                       \n    uint256 public presalePrice = 0.04 ether;\n    uint8 public presaleMintMax = 5;                  \n    mapping(address => uint8) public presaleMintCount;\n\n    // Team Mint (stage=3)\n    uint256 public teamMintSupply;                          \n    uint256 public teamMintCount;\n\n    // Public Sale (stage=4)\n    uint256 public salePrice = 0.05 ether;\n    uint256 public totalSaleSupply;         \n\n    constructor(\n        string memory _name,\n        string memory _symbol,\n        string memory _baseURI,\n        uint256 _presaleSupply,\n        uint256 _teamMintSupply,\n        uint256 _totalSaleSupply,\n        uint8 _maxMintPerTx\n\n    )   ERC721(_name, _symbol) {\n        presaleSupply = _presaleSupply;\n        teamMintSupply = _teamMintSupply;\n        totalSaleSupply = _totalSaleSupply;\n        maxMintPerTx = _maxMintPerTx;\n        baseURI = _baseURI;\n        _tokenIdCounter.increment();\n    }\n\n    //Public mint function\n    function mint(uint8 _mintAmount) public payable whenNotPaused {\n        require(stage > 0, \"Minting not initiated. Currenly on stage 0 (init).\");\n        require(_mintAmount > 0, \"Mint amount must be greater than 0\");\n        require(_mintAmount <= maxMintPerTx, \"Exceeds max allowed amount per transaction\");\n        if (stage == 1) {\n        // Whitelist\n            require(whitelistUsers[msg.sender] > 0, \"Minter not whitelisted.\");\n            require(_mintAmount + whitelistMintCount[msg.sender] <= whitelistUsers[msg.sender], \"Transaction exceeds remaining whitelist mints\");\n            whitelistMintCount[msg.sender] += _mintAmount;\n    }   else if (stage == 2) {\n        // Presale  \n            require(msg.value >= presalePrice.mul(_mintAmount), \"Not enough ether sent\");\n            require(presaleUsers[msg.sender], \"Address not on presale list\");\n            require(totalSupply() + _mintAmount <= presaleSupply, \"Transaction exceeds pre-sale supply\");\n            require(_mintAmount + presaleMintCount[msg.sender] <= presaleMintMax, \"Transaction exceeds max allowed presale mints\");      \n            presaleMintCount[msg.sender] += _mintAmount;\n    }   else if (stage == 3) {\n        // Team Sale\n            require(owner() == msg.sender, \"Only Owner can mint at this stage\");\n            require(_mintAmount + teamMintCount <= teamMintSupply, \"Transaction exceeds total team-sale supply\");      \n            teamMintCount += _mintAmount;\n    }   else {\n        // Public Sale\n            require(msg.value >= salePrice.mul(_mintAmount), \"Not enough ether sent\");\n            require(totalSupply()  + _mintAmount <= totalSaleSupply, \"Transaction exceeds total sale supply\");\n        }\n        for (uint256 i = 1; i <= _mintAmount; i++) {\n            _safeMint(msg.sender, _tokenIdCounter.current());\n            _tokenIdCounter.increment();\n        }\n    }\n\n    //Owner functions\n    function pause() public onlyOwner {\n        _pause();\n    }\n\n    function unpause() public onlyOwner {\n        _unpause();\n    }\n\n    function airdropCryptid(uint8 _mintAmount, address _to) public onlyOwner {\n        require(provenanceHashFrozen == true, \"Provenance hash must be frozen before minting can start.\");\n        require(stage < 2, \"Past whitelist sale.\");\n        require(_mintAmount <= maxMintPerTx, \"Exceeds max allowed amount per transaction\");\n        require(_mintAmount > 0, \"Airdrop amount must be greater than 0\");\n        require(totalSupply()+ _mintAmount <= presaleSupply, \"Mint amount will exceed presale supply.\");\n        for (uint256 i = 1; i <= _mintAmount; i++) {\n            _safeMint(_to, _tokenIdCounter.current());\n            _tokenIdCounter.increment();\n        }\n    }\n\n    function setWhitelistUsers(address[] memory _users, uint8[] memory _mints) public onlyOwner {\n        require(stage < 2, \"Whitelist sale is concluded.\");\n        for(uint256 i=0;i<_users.length;i++)\n        whitelistUsers[_users[i]] = _mints[i];\n    }\n\n    function setPresaleUsers(address[] memory _users) public onlyOwner {\n        require(stage < 3, \"Presale is concluded.\");\n        for(uint256 i=0;i<_users.length;i++)\n        presaleUsers[_users[i]] = true;\n    }\n\n    function removeWhitelistUser(address _user) public onlyOwner {\n        require(stage < 2, \"Whitelist sale is concluded.\");\n        require(whitelistUsers[_user] > 0, \"User is not on whitelist.\");\n        whitelistUsers[_user] = 0;\n    }\n\n    function removePresaleUser(address _user) public onlyOwner {\n        require(presaleUsers[_user], \"User not on presale list.\");\n        presaleUsers[_user] = false;\n    }\n\n    function setBaseURI(string memory _newBaseURI) public onlyOwner {\n        require(!tokenURIFrozen, \"BaseURI is frozen.\");\n        baseURI = _newBaseURI;\n    } \n    \n    function freezeBaseURI() public onlyOwner {\n        require(bytes(baseURI).length > 0, \"baseURI cannot be empty\");\n        require(!tokenURIFrozen, \"BaseURI is already frozen.\");\n        tokenURIFrozen = true;\n    }\n\n    function nextStage() public onlyOwner {\n        require(provenanceHashFrozen == true, \"Provenance hash must be frozen before minting can start.\");\n        require(stage < 4, \"No stages after public sale\");\n        stage++;\n    }\n    \n    function setTeamMintSupply(uint256 _newTeamMintSupply) public onlyOwner {\n        teamMintSupply = _newTeamMintSupply;\n    }\n\n    function setBaseExtension(string memory _newBaseExtension) public onlyOwner {\n        baseExtension = _newBaseExtension;\n    }\n\n    function setPresalePrice(uint256 _newPresalePrice) public onlyOwner {\n        require(stage < 3, \"Presale is concluded.\");\n        presalePrice = _newPresalePrice;\n    }\n\n    function setPublicSalePrice(uint256 _newSalePrice) public onlyOwner {\n        salePrice = _newSalePrice;\n    }\n\n    function setMaxMintPerTx(uint8 _newmaxMintPerTx) public onlyOwner {\n        maxMintPerTx = _newmaxMintPerTx;\n    }\n\n    function setProvenanceHash(string memory _provenanceHash) public onlyOwner {\n        require(!provenanceHashFrozen, \"Provenance hash is frozen.\");\n        provenanceHash = _provenanceHash;\n    }\n\n    function setWithdrawAddress(address _dest1, address _dest2) public onlyOwner {\n        withdrawDest1 = _dest1;\n        withdrawDest2 = _dest2;\n    }\n\n    function freezeProvenanceHash() public onlyOwner {\n        require(bytes(provenanceHash).length > 0, \"Provenance hash cannot be empty.\");\n        require(!provenanceHashFrozen, \"Provenance hash is already frozen.\");\n        provenanceHashFrozen = true;\n    }\n\n    function withdraw() public payable onlyOwner {\n        require(address(this).balance > 0, \"Contract balance is 0.\");\n        (bool hs, ) = payable(withdrawDest1).call{value: address(this).balance.mul(50).div(100)}(\"\");\n        require(hs, \"withdrawl 1 failed\");\n        (bool os, ) = payable(withdrawDest2).call{value: address(this).balance}(\"\");\n        require(os, \"withdrawl 2 failed\");\n    }\n\n    // Public view functions\n    function lastMintAddress() public view returns (address){\n        require(totalSupply() > 0, \"No cryptid exists yet.\");\n        return ownerOf(totalSupply());\n    }\n\n    function lastMintID() public view returns (uint256){\n        require(totalSupply() > 0, \"No cryptid exists yet.\");\n        return(totalSupply());\n    }\n\n    function totalSupply() public view returns (uint256) {\n        return _tokenIdCounter.current() - 1;\n    }\n\n    function tokenURI(uint256 tokenId) public view virtual override returns (string memory) {\n        require(_exists(tokenId), \"ERC721Metadata: URI query for nonexistent token\");\n        return string(abi.encodePacked(baseURI, tokenId.toString(), baseExtension));\n            \n    }\n\n    function getTokensLeft() public view returns (uint256) {\n        return totalSaleSupply - totalSupply();\n    }\n    \n    function getStage() public view returns (uint8) {\n        return stage;\n    }\n\n    function _beforeTokenTransfer(address from, address to, uint256 tokenId) internal whenNotPaused override(ERC721) {\n        super._beforeTokenTransfer(from, to, tokenId);\n    }\n\n}",
  "sourcePath": "contracts/CryptidToken.sol",
  "type": "contract"
}