{
  "abi": [
    {
      "inputs": [
        {
          "internalType": "string",
          "name": "_name",
          "type": "string"
        },
        {
          "internalType": "string",
          "name": "_symbol",
          "type": "string"
        },
        {
          "internalType": "string",
          "name": "_baseURI",
          "type": "string"
        },
        {
          "internalType": "uint256",
          "name": "_whitelistSupply",
          "type": "uint256"
        },
        {
          "internalType": "uint256",
          "name": "_teamMintSupply",
          "type": "uint256"
        },
        {
          "internalType": "uint256",
          "name": "_totalSaleSupply",
          "type": "uint256"
        },
        {
          "internalType": "uint8",
          "name": "_maxMintPerTx",
          "type": "uint8"
        }
      ],
      "stateMutability": "nonpayable",
      "type": "constructor"
    },
    {
      "anonymous": false,
      "inputs": [
        {
          "indexed": true,
          "internalType": "address",
          "name": "owner",
          "type": "address"
        },
        {
          "indexed": true,
          "internalType": "address",
          "name": "approved",
          "type": "address"
        },
        {
          "indexed": true,
          "internalType": "uint256",
          "name": "tokenId",
          "type": "uint256"
        }
      ],
      "name": "Approval",
      "type": "event"
    },
    {
      "anonymous": false,
      "inputs": [
        {
          "indexed": true,
          "internalType": "address",
          "name": "owner",
          "type": "address"
        },
        {
          "indexed": true,
          "internalType": "address",
          "name": "operator",
          "type": "address"
        },
        {
          "indexed": false,
          "internalType": "bool",
          "name": "approved",
          "type": "bool"
        }
      ],
      "name": "ApprovalForAll",
      "type": "event"
    },
    {
      "anonymous": false,
      "inputs": [
        {
          "indexed": true,
          "internalType": "address",
          "name": "previousOwner",
          "type": "address"
        },
        {
          "indexed": true,
          "internalType": "address",
          "name": "newOwner",
          "type": "address"
        }
      ],
      "name": "OwnershipTransferred",
      "type": "event"
    },
    {
      "anonymous": false,
      "inputs": [
        {
          "indexed": false,
          "internalType": "address",
          "name": "account",
          "type": "address"
        }
      ],
      "name": "Paused",
      "type": "event"
    },
    {
      "anonymous": false,
      "inputs": [
        {
          "indexed": true,
          "internalType": "address",
          "name": "from",
          "type": "address"
        },
        {
          "indexed": true,
          "internalType": "address",
          "name": "to",
          "type": "address"
        },
        {
          "indexed": true,
          "internalType": "uint256",
          "name": "tokenId",
          "type": "uint256"
        }
      ],
      "name": "Transfer",
      "type": "event"
    },
    {
      "anonymous": false,
      "inputs": [
        {
          "indexed": false,
          "internalType": "address",
          "name": "account",
          "type": "address"
        }
      ],
      "name": "Unpaused",
      "type": "event"
    },
    {
      "inputs": [
        {
          "internalType": "uint8",
          "name": "_mintAmount",
          "type": "uint8"
        },
        {
          "internalType": "address",
          "name": "_to",
          "type": "address"
        }
      ],
      "name": "airdropCryptid",
      "outputs": [],
      "stateMutability": "nonpayable",
      "type": "function"
    },
    {
      "inputs": [
        {
          "internalType": "address",
          "name": "to",
          "type": "address"
        },
        {
          "internalType": "uint256",
          "name": "tokenId",
          "type": "uint256"
        }
      ],
      "name": "approve",
      "outputs": [],
      "stateMutability": "nonpayable",
      "type": "function"
    },
    {
      "inputs": [
        {
          "internalType": "address",
          "name": "owner",
          "type": "address"
        }
      ],
      "name": "balanceOf",
      "outputs": [
        {
          "internalType": "uint256",
          "name": "",
          "type": "uint256"
        }
      ],
      "stateMutability": "view",
      "type": "function"
    },
    {
      "inputs": [],
      "name": "baseExtension",
      "outputs": [
        {
          "internalType": "string",
          "name": "",
          "type": "string"
        }
      ],
      "stateMutability": "view",
      "type": "function"
    },
    {
      "inputs": [],
      "name": "baseURI",
      "outputs": [
        {
          "internalType": "string",
          "name": "",
          "type": "string"
        }
      ],
      "stateMutability": "view",
      "type": "function"
    },
    {
      "inputs": [
        {
          "internalType": "address",
          "name": "",
          "type": "address"
        }
      ],
      "name": "blacklist",
      "outputs": [
        {
          "internalType": "bool",
          "name": "",
          "type": "bool"
        }
      ],
      "stateMutability": "view",
      "type": "function"
    },
    {
      "inputs": [
        {
          "internalType": "uint256",
          "name": "tokenId",
          "type": "uint256"
        }
      ],
      "name": "burn",
      "outputs": [],
      "stateMutability": "nonpayable",
      "type": "function"
    },
    {
      "inputs": [],
      "name": "freezeBaseURI",
      "outputs": [],
      "stateMutability": "nonpayable",
      "type": "function"
    },
    {
      "inputs": [],
      "name": "freezeProvenanceHash",
      "outputs": [],
      "stateMutability": "nonpayable",
      "type": "function"
    },
    {
      "inputs": [
        {
          "internalType": "uint256",
          "name": "tokenId",
          "type": "uint256"
        }
      ],
      "name": "getApproved",
      "outputs": [
        {
          "internalType": "address",
          "name": "",
          "type": "address"
        }
      ],
      "stateMutability": "view",
      "type": "function"
    },
    {
      "inputs": [],
      "name": "getStage",
      "outputs": [
        {
          "internalType": "uint8",
          "name": "",
          "type": "uint8"
        }
      ],
      "stateMutability": "view",
      "type": "function"
    },
    {
      "inputs": [],
      "name": "getTokensLeft",
      "outputs": [
        {
          "internalType": "uint256",
          "name": "",
          "type": "uint256"
        }
      ],
      "stateMutability": "view",
      "type": "function"
    },
    {
      "inputs": [
        {
          "internalType": "address",
          "name": "owner",
          "type": "address"
        },
        {
          "internalType": "address",
          "name": "operator",
          "type": "address"
        }
      ],
      "name": "isApprovedForAll",
      "outputs": [
        {
          "internalType": "bool",
          "name": "",
          "type": "bool"
        }
      ],
      "stateMutability": "view",
      "type": "function"
    },
    {
      "inputs": [],
      "name": "lastMintAddress",
      "outputs": [
        {
          "internalType": "address",
          "name": "",
          "type": "address"
        }
      ],
      "stateMutability": "view",
      "type": "function"
    },
    {
      "inputs": [],
      "name": "lastMintID",
      "outputs": [
        {
          "internalType": "uint256",
          "name": "",
          "type": "uint256"
        }
      ],
      "stateMutability": "view",
      "type": "function"
    },
    {
      "inputs": [],
      "name": "maxMintPerTx",
      "outputs": [
        {
          "internalType": "uint8",
          "name": "",
          "type": "uint8"
        }
      ],
      "stateMutability": "view",
      "type": "function"
    },
    {
      "inputs": [],
      "name": "merkleRoot",
      "outputs": [
        {
          "internalType": "bytes32",
          "name": "",
          "type": "bytes32"
        }
      ],
      "stateMutability": "view",
      "type": "function"
    },
    {
      "inputs": [
        {
          "internalType": "uint8",
          "name": "_mintAmount",
          "type": "uint8"
        },
        {
          "internalType": "bytes32[]",
          "name": "proof",
          "type": "bytes32[]"
        }
      ],
      "name": "mint",
      "outputs": [],
      "stateMutability": "payable",
      "type": "function"
    },
    {
      "inputs": [],
      "name": "name",
      "outputs": [
        {
          "internalType": "string",
          "name": "",
          "type": "string"
        }
      ],
      "stateMutability": "view",
      "type": "function"
    },
    {
      "inputs": [],
      "name": "nextStage",
      "outputs": [],
      "stateMutability": "nonpayable",
      "type": "function"
    },
    {
      "inputs": [],
      "name": "owner",
      "outputs": [
        {
          "internalType": "address",
          "name": "",
          "type": "address"
        }
      ],
      "stateMutability": "view",
      "type": "function"
    },
    {
      "inputs": [
        {
          "internalType": "uint256",
          "name": "tokenId",
          "type": "uint256"
        }
      ],
      "name": "ownerOf",
      "outputs": [
        {
          "internalType": "address",
          "name": "",
          "type": "address"
        }
      ],
      "stateMutability": "view",
      "type": "function"
    },
    {
      "inputs": [],
      "name": "pause",
      "outputs": [],
      "stateMutability": "nonpayable",
      "type": "function"
    },
    {
      "inputs": [],
      "name": "paused",
      "outputs": [
        {
          "internalType": "bool",
          "name": "",
          "type": "bool"
        }
      ],
      "stateMutability": "view",
      "type": "function"
    },
    {
      "inputs": [],
      "name": "prevStage",
      "outputs": [],
      "stateMutability": "nonpayable",
      "type": "function"
    },
    {
      "inputs": [],
      "name": "provenanceHash",
      "outputs": [
        {
          "internalType": "string",
          "name": "",
          "type": "string"
        }
      ],
      "stateMutability": "view",
      "type": "function"
    },
    {
      "inputs": [],
      "name": "provenanceHashFrozen",
      "outputs": [
        {
          "internalType": "bool",
          "name": "",
          "type": "bool"
        }
      ],
      "stateMutability": "view",
      "type": "function"
    },
    {
      "inputs": [],
      "name": "renounceOwnership",
      "outputs": [],
      "stateMutability": "nonpayable",
      "type": "function"
    },
    {
      "inputs": [
        {
          "internalType": "address",
          "name": "from",
          "type": "address"
        },
        {
          "internalType": "address",
          "name": "to",
          "type": "address"
        },
        {
          "internalType": "uint256",
          "name": "tokenId",
          "type": "uint256"
        }
      ],
      "name": "safeTransferFrom",
      "outputs": [],
      "stateMutability": "nonpayable",
      "type": "function"
    },
    {
      "inputs": [
        {
          "internalType": "address",
          "name": "from",
          "type": "address"
        },
        {
          "internalType": "address",
          "name": "to",
          "type": "address"
        },
        {
          "internalType": "uint256",
          "name": "tokenId",
          "type": "uint256"
        },
        {
          "internalType": "bytes",
          "name": "_data",
          "type": "bytes"
        }
      ],
      "name": "safeTransferFrom",
      "outputs": [],
      "stateMutability": "nonpayable",
      "type": "function"
    },
    {
      "inputs": [],
      "name": "salePrice",
      "outputs": [
        {
          "internalType": "uint256",
          "name": "",
          "type": "uint256"
        }
      ],
      "stateMutability": "view",
      "type": "function"
    },
    {
      "inputs": [
        {
          "internalType": "address",
          "name": "operator",
          "type": "address"
        },
        {
          "internalType": "bool",
          "name": "approved",
          "type": "bool"
        }
      ],
      "name": "setApprovalForAll",
      "outputs": [],
      "stateMutability": "nonpayable",
      "type": "function"
    },
    {
      "inputs": [
        {
          "internalType": "string",
          "name": "_newBaseExtension",
          "type": "string"
        }
      ],
      "name": "setBaseExtension",
      "outputs": [],
      "stateMutability": "nonpayable",
      "type": "function"
    },
    {
      "inputs": [
        {
          "internalType": "string",
          "name": "_newBaseURI",
          "type": "string"
        }
      ],
      "name": "setBaseURI",
      "outputs": [],
      "stateMutability": "nonpayable",
      "type": "function"
    },
    {
      "inputs": [
        {
          "internalType": "uint8",
          "name": "_newmaxMintPerTx",
          "type": "uint8"
        }
      ],
      "name": "setMaxMintPerTx",
      "outputs": [],
      "stateMutability": "nonpayable",
      "type": "function"
    },
    {
      "inputs": [
        {
          "internalType": "bytes32",
          "name": "_merkleRoot",
          "type": "bytes32"
        }
      ],
      "name": "setMerkleRoot",
      "outputs": [],
      "stateMutability": "nonpayable",
      "type": "function"
    },
    {
      "inputs": [
        {
          "internalType": "string",
          "name": "_provenanceHash",
          "type": "string"
        }
      ],
      "name": "setProvenanceHash",
      "outputs": [],
      "stateMutability": "nonpayable",
      "type": "function"
    },
    {
      "inputs": [
        {
          "internalType": "uint256",
          "name": "_newSalePrice",
          "type": "uint256"
        }
      ],
      "name": "setPublicSalePrice",
      "outputs": [],
      "stateMutability": "nonpayable",
      "type": "function"
    },
    {
      "inputs": [
        {
          "internalType": "uint256",
          "name": "_newTeamMintSupply",
          "type": "uint256"
        }
      ],
      "name": "setTeamMintSupply",
      "outputs": [],
      "stateMutability": "nonpayable",
      "type": "function"
    },
    {
      "inputs": [
        {
          "internalType": "address",
          "name": "_dest1",
          "type": "address"
        },
        {
          "internalType": "address",
          "name": "_dest2",
          "type": "address"
        },
        {
          "internalType": "address",
          "name": "_dest3",
          "type": "address"
        },
        {
          "internalType": "address",
          "name": "_dest4",
          "type": "address"
        },
        {
          "internalType": "address",
          "name": "_dest5",
          "type": "address"
        }
      ],
      "name": "setWithdrawAddress",
      "outputs": [],
      "stateMutability": "nonpayable",
      "type": "function"
    },
    {
      "inputs": [
        {
          "internalType": "bytes4",
          "name": "interfaceId",
          "type": "bytes4"
        }
      ],
      "name": "supportsInterface",
      "outputs": [
        {
          "internalType": "bool",
          "name": "",
          "type": "bool"
        }
      ],
      "stateMutability": "view",
      "type": "function"
    },
    {
      "inputs": [],
      "name": "symbol",
      "outputs": [
        {
          "internalType": "string",
          "name": "",
          "type": "string"
        }
      ],
      "stateMutability": "view",
      "type": "function"
    },
    {
      "inputs": [],
      "name": "teamMintCount",
      "outputs": [
        {
          "internalType": "uint256",
          "name": "",
          "type": "uint256"
        }
      ],
      "stateMutability": "view",
      "type": "function"
    },
    {
      "inputs": [],
      "name": "teamMintSupply",
      "outputs": [
        {
          "internalType": "uint256",
          "name": "",
          "type": "uint256"
        }
      ],
      "stateMutability": "view",
      "type": "function"
    },
    {
      "inputs": [
        {
          "internalType": "uint256",
          "name": "tokenId",
          "type": "uint256"
        }
      ],
      "name": "tokenURI",
      "outputs": [
        {
          "internalType": "string",
          "name": "",
          "type": "string"
        }
      ],
      "stateMutability": "view",
      "type": "function"
    },
    {
      "inputs": [],
      "name": "tokenURIFrozen",
      "outputs": [
        {
          "internalType": "bool",
          "name": "",
          "type": "bool"
        }
      ],
      "stateMutability": "view",
      "type": "function"
    },
    {
      "inputs": [],
      "name": "totalSaleSupply",
      "outputs": [
        {
          "internalType": "uint256",
          "name": "",
          "type": "uint256"
        }
      ],
      "stateMutability": "view",
      "type": "function"
    },
    {
      "inputs": [],
      "name": "totalSupply",
      "outputs": [
        {
          "internalType": "uint256",
          "name": "",
          "type": "uint256"
        }
      ],
      "stateMutability": "view",
      "type": "function"
    },
    {
      "inputs": [
        {
          "internalType": "address",
          "name": "from",
          "type": "address"
        },
        {
          "internalType": "address",
          "name": "to",
          "type": "address"
        },
        {
          "internalType": "uint256",
          "name": "tokenId",
          "type": "uint256"
        }
      ],
      "name": "transferFrom",
      "outputs": [],
      "stateMutability": "nonpayable",
      "type": "function"
    },
    {
      "inputs": [
        {
          "internalType": "address",
          "name": "newOwner",
          "type": "address"
        }
      ],
      "name": "transferOwnership",
      "outputs": [],
      "stateMutability": "nonpayable",
      "type": "function"
    },
    {
      "inputs": [],
      "name": "unpause",
      "outputs": [],
      "stateMutability": "nonpayable",
      "type": "function"
    },
    {
      "inputs": [],
      "name": "whitelistSupply",
      "outputs": [
        {
          "internalType": "uint256",
          "name": "",
          "type": "uint256"
        }
      ],
      "stateMutability": "view",
      "type": "function"
    },
    {
      "inputs": [],
      "name": "withdraw",
      "outputs": [],
      "stateMutability": "payable",
      "type": "function"
    },
    {
      "inputs": [],
      "name": "withdrawDest1",
      "outputs": [
        {
          "internalType": "address",
          "name": "",
          "type": "address"
        }
      ],
      "stateMutability": "view",
      "type": "function"
    },
    {
      "inputs": [],
      "name": "withdrawDest2",
      "outputs": [
        {
          "internalType": "address",
          "name": "",
          "type": "address"
        }
      ],
      "stateMutability": "view",
      "type": "function"
    },
    {
      "inputs": [],
      "name": "withdrawDest3",
      "outputs": [
        {
          "internalType": "address",
          "name": "",
          "type": "address"
        }
      ],
      "stateMutability": "view",
      "type": "function"
    },
    {
      "inputs": [],
      "name": "withdrawDest4",
      "outputs": [
        {
          "internalType": "address",
          "name": "",
          "type": "address"
        }
      ],
      "stateMutability": "view",
      "type": "function"
    },
    {
      "inputs": [],
      "name": "withdrawDest5",
      "outputs": [
        {
          "internalType": "address",
          "name": "",
          "type": "address"
        }
      ],
      "stateMutability": "view",
      "type": "function"
    }
  ],
  "bytecode": "60a06040819052600060808190526200001b91600a9162000218565b5060408051808201909152600580825264173539b7b760d91b60209092019182526200004a91600b9162000218565b50600c805461ff01600160c01b031916771953bc1ff76f5e61cd775a4482bd85bac56ad1eb00000000179055600d80547312b58f5331a6dc897932aa7fb5101667acdf03e26001600160a01b03199182168117909255600e8054731953bc1ff76f5e61cd775a4482bd85bac56ad1eb908316179055600f805482168317905560108054909116909117905567016345785d8a0000601155348015620000ee57600080fd5b5060405162003d5638038062003d5683398101604081905262000111916200038b565b8651879087906200012a90600090602085019062000218565b5080516200014090600190602084019062000218565b50506006805460ff19169055506200015833620001b5565b601284905560148390556016829055600c805461ff00191661010060ff84160217905584516200019090600a90602088019062000218565b50620001a860076200020f60201b620024e51760201c565b5050505050505062000492565b600680546001600160a01b03838116610100818102610100600160a81b031985161790945560405193909204169182907f8be0079c531659141344cd1fd0a4f28419497f9722a3daafe3b4186f6b6457e090600090a35050565b80546001019055565b828054620002269062000455565b90600052602060002090601f0160209004810192826200024a576000855562000295565b82601f106200026557805160ff191683800117855562000295565b8280016001018555821562000295579182015b828111156200029557825182559160200191906001019062000278565b50620002a3929150620002a7565b5090565b5b80821115620002a35760008155600101620002a8565b634e487b7160e01b600052604160045260246000fd5b600082601f830112620002e657600080fd5b81516001600160401b0380821115620003035762000303620002be565b604051601f8301601f19908116603f011681019082821181831017156200032e576200032e620002be565b816040528381526020925086838588010111156200034b57600080fd5b600091505b838210156200036f578582018301518183018401529082019062000350565b83821115620003815760008385830101525b9695505050505050565b600080600080600080600060e0888a031215620003a757600080fd5b87516001600160401b0380821115620003bf57600080fd5b620003cd8b838c01620002d4565b985060208a0151915080821115620003e457600080fd5b620003f28b838c01620002d4565b975060408a01519150808211156200040957600080fd5b50620004188a828b01620002d4565b955050606088015193506080880151925060a0880151915060c088015160ff811681146200044557600080fd5b8091505092959891949750929550565b600181811c908216806200046a57607f821691505b602082108114156200048c57634e487b7160e01b600052602260045260246000fd5b50919050565b6138b480620004a26000396000f3fe6080604052600436106103815760003560e01c80638456cb59116101d1578063cbd0a2b511610102578063e7bc8208116100a0578063f2fde38b1161006f578063f2fde38b146109c7578063f51f96dd146109e7578063f9f92be4146109fd578063fcaa766414610a2d57600080fd5b8063e7bc820814610934578063e985e9c514610949578063ea74e19014610992578063ee3743ab146109b257600080fd5b8063da3ef23f116100dc578063da3ef23f146108ae578063db993f56146108ce578063de5f9866146108ee578063de7fcb1d1461090357600080fd5b8063cbd0a2b514610864578063d2fab8b914610879578063d6d67a091461089957600080fd5b8063b61c5e691161016f578063c321458111610149578063c321458114610804578063c66828621461081a578063c6ab67a31461082f578063c87b56dd1461084457600080fd5b8063b61c5e69146107b1578063b88d4fde146107c4578063c29de630146107e457600080fd5b80639a2a9c3d116101ab5780639a2a9c3d14610730578063a22cb46514610751578063b121439214610771578063b3caad011461079157600080fd5b80638456cb59146106e35780638da5cb5b146106f857806395d89b411461071b57600080fd5b806342842e0e116102b65780636c0360eb1161025457806378231978116102235780637823197814610678578063791a25191461068e5780637cb64759146106ae57806381c162f2146106ce57600080fd5b80636c0360eb146106195780636cbb89851461062e57806370a0823114610643578063715018a61461066357600080fd5b80635c975abb116102905780635c975abb1461059957806361869a93146105b1578063622e4e78146105d95780636352211e146105f957600080fd5b806342842e0e1461053957806342966c681461055957806355f804b31461057957600080fd5b806320841a6a1161032357806333e61413116102fd57806333e61413146104e65780633c795047146104fc5780633ccfd60b1461051c5780633f4ba83a1461052457600080fd5b806320841a6a1461049057806323b872dd146104b05780632eb4a7ab146104d057600080fd5b8063088139a61161035f578063088139a614610415578063095ea7b314610439578063109695231461045b57806318160ddd1461047b57600080fd5b806301ffc9a71461038657806306fdde03146103bb578063081812fc146103dd575b600080fd5b34801561039257600080fd5b506103a66103a1366004613036565b610a45565b60405190151581526020015b60405180910390f35b3480156103c757600080fd5b506103d0610a97565b6040516103b291906130ab565b3480156103e957600080fd5b506103fd6103f83660046130be565b610b29565b6040516001600160a01b0390911681526020016103b2565b34801561042157600080fd5b5061042b60155481565b6040519081526020016103b2565b34801561044557600080fd5b506104596104543660046130f3565b610bc3565b005b34801561046757600080fd5b506104596104763660046131bc565b610cd9565b34801561048757600080fd5b5061042b610d7a565b34801561049c57600080fd5b506104596104ab3660046130be565b610d96565b3480156104bc57600080fd5b506104596104cb366004613205565b610dcb565b3480156104dc57600080fd5b5061042b60085481565b3480156104f257600080fd5b5061042b60125481565b34801561050857600080fd5b50600e546103fd906001600160a01b031681565b610459610dfd565b34801561053057600080fd5b506104596111c0565b34801561054557600080fd5b50610459610554366004613205565b6111fa565b34801561056557600080fd5b506104596105743660046130be565b611215565b34801561058557600080fd5b506104596105943660046131bc565b61128f565b3480156105a557600080fd5b5060065460ff166103a6565b3480156105bd57600080fd5b50600c546103fd9064010000000090046001600160a01b031681565b3480156105e557600080fd5b506104596105f4366004613252565b611320565b34801561060557600080fd5b506103fd6106143660046130be565b61136c565b34801561062557600080fd5b506103d06113e3565b34801561063a57600080fd5b506103fd611471565b34801561064f57600080fd5b5061042b61065e36600461326d565b6114cd565b34801561066f57600080fd5b50610459611554565b34801561068457600080fd5b5061042b60165481565b34801561069a57600080fd5b506104596106a93660046130be565b61158e565b3480156106ba57600080fd5b506104596106c93660046130be565b6115c3565b3480156106da57600080fd5b506104596115f8565b3480156106ef57600080fd5b50610459611700565b34801561070457600080fd5b5060065461010090046001600160a01b03166103fd565b34801561072757600080fd5b506103d0611738565b34801561073c57600080fd5b50600c546103a6906301000000900460ff1681565b34801561075d57600080fd5b5061045961076c366004613288565b611747565b34801561077d57600080fd5b50600d546103fd906001600160a01b031681565b34801561079d57600080fd5b506104596107ac3660046132c4565b611752565b6104596107bf3660046132f7565b611987565b3480156107d057600080fd5b506104596107df3660046133b0565b611f57565b3480156107f057600080fd5b50600c546103a69062010000900460ff1681565b34801561081057600080fd5b5061042b60145481565b34801561082657600080fd5b506103d0611f8f565b34801561083b57600080fd5b506103d0611f9c565b34801561085057600080fd5b506103d061085f3660046130be565b611fa9565b34801561087057600080fd5b5061045961205d565b34801561088557600080fd5b50600f546103fd906001600160a01b031681565b3480156108a557600080fd5b5061042b612133565b3480156108ba57600080fd5b506104596108c93660046131bc565b61218c565b3480156108da57600080fd5b506010546103fd906001600160a01b031681565b3480156108fa57600080fd5b5061042b6121cf565b34801561090f57600080fd5b50600c5461092290610100900460ff1681565b60405160ff90911681526020016103b2565b34801561094057600080fd5b506104596121e6565b34801561095557600080fd5b506103a661096436600461342c565b6001600160a01b03918216600090815260056020908152604080832093909416825291909152205460ff1690565b34801561099e57600080fd5b506104596109ad366004613448565b6122e0565b3480156109be57600080fd5b5061045961237f565b3480156109d357600080fd5b506104596109e236600461326d565b612447565b3480156109f357600080fd5b5061042b60115481565b348015610a0957600080fd5b506103a6610a1836600461326d565b60136020526000908152604090205460ff1681565b348015610a3957600080fd5b50600c5460ff16610922565b60006001600160e01b031982166380ac58cd60e01b1480610a7657506001600160e01b03198216635b5e139f60e01b145b80610a9157506301ffc9a760e01b6001600160e01b03198316145b92915050565b606060008054610aa6906134ad565b80601f0160208091040260200160405190810160405280929190818152602001828054610ad2906134ad565b8015610b1f5780601f10610af457610100808354040283529160200191610b1f565b820191906000526020600020905b815481529060010190602001808311610b0257829003601f168201915b5050505050905090565b6000818152600260205260408120546001600160a01b0316610ba75760405162461bcd60e51b815260206004820152602c60248201527f4552433732313a20617070726f76656420717565727920666f72206e6f6e657860448201526b34b9ba32b73a103a37b5b2b760a11b60648201526084015b60405180910390fd5b506000908152600460205260409020546001600160a01b031690565b6000610bce8261136c565b9050806001600160a01b0316836001600160a01b03161415610c3c5760405162461bcd60e51b815260206004820152602160248201527f4552433732313a20617070726f76616c20746f2063757272656e74206f776e656044820152603960f91b6064820152608401610b9e565b336001600160a01b0382161480610c585750610c588133610964565b610cca5760405162461bcd60e51b815260206004820152603860248201527f4552433732313a20617070726f76652063616c6c6572206973206e6f74206f7760448201527f6e6572206e6f7220617070726f76656420666f7220616c6c00000000000000006064820152608401610b9e565b610cd483836124ee565b505050565b6006546001600160a01b03610100909104163314610d095760405162461bcd60e51b8152600401610b9e906134e8565b600c546301000000900460ff1615610d635760405162461bcd60e51b815260206004820152601a60248201527f50726f76656e616e636520686173682069732066726f7a656e2e0000000000006044820152606401610b9e565b8051610d76906009906020840190612f87565b5050565b60006001610d8760075490565b610d919190613533565b905090565b6006546001600160a01b03610100909104163314610dc65760405162461bcd60e51b8152600401610b9e906134e8565b601455565b610dd6335b8261255c565b610df25760405162461bcd60e51b8152600401610b9e9061354a565b610cd4838383612653565b6006546001600160a01b03610100909104163314610e2d5760405162461bcd60e51b8152600401610b9e906134e8565b60004711610e765760405162461bcd60e51b815260206004820152601660248201527521b7b73a3930b1ba103130b630b731b29034b990181760511b6044820152606401610b9e565b600c5460009064010000000090046001600160a01b0316610ea56103e8610e9f476102bc6127fe565b90612811565b604051600081818185875af1925050503d8060008114610ee1576040519150601f19603f3d011682016040523d82523d6000602084013e610ee6565b606091505b5050905080610f2c5760405162461bcd60e51b81526020600482015260126024820152711dda5d1a191c985ddb080c4819985a5b195960721b6044820152606401610b9e565b600d546000906001600160a01b0316610f4c6103e8610e9f4760696127fe565b604051600081818185875af1925050503d8060008114610f88576040519150601f19603f3d011682016040523d82523d6000602084013e610f8d565b606091505b5050905080610fd35760405162461bcd60e51b81526020600482015260126024820152711dda5d1a191c985ddb080c8819985a5b195960721b6044820152606401610b9e565b600e546000906001600160a01b0316610ff36103e8610e9f4760696127fe565b604051600081818185875af1925050503d806000811461102f576040519150601f19603f3d011682016040523d82523d6000602084013e611034565b606091505b505090508061107a5760405162461bcd60e51b81526020600482015260126024820152711dda5d1a191c985ddb080cc819985a5b195960721b6044820152606401610b9e565b600f546000906001600160a01b031661109a6103e8610e9f47602d6127fe565b604051600081818185875af1925050503d80600081146110d6576040519150601f19603f3d011682016040523d82523d6000602084013e6110db565b606091505b50509050806111215760405162461bcd60e51b81526020600482015260126024820152711dda5d1a191c985ddb080d0819985a5b195960721b6044820152606401610b9e565b6010546040516000916001600160a01b03169047908381818185875af1925050503d806000811461116e576040519150601f19603f3d011682016040523d82523d6000602084013e611173565b606091505b50509050806111b95760405162461bcd60e51b81526020600482015260126024820152711dda5d1a191c985ddb080d4819985a5b195960721b6044820152606401610b9e565b5050505050565b6006546001600160a01b036101009091041633146111f05760405162461bcd60e51b8152600401610b9e906134e8565b6111f861281d565b565b610cd483838360405180602001604052806000815250611f57565b61121e33610dd0565b6112835760405162461bcd60e51b815260206004820152603060248201527f4552433732314275726e61626c653a2063616c6c6572206973206e6f74206f7760448201526f1b995c881b9bdc88185c1c1c9bdd995960821b6064820152608401610b9e565b61128c816128b0565b50565b6006546001600160a01b036101009091041633146112bf5760405162461bcd60e51b8152600401610b9e906134e8565b600c5462010000900460ff161561130d5760405162461bcd60e51b81526020600482015260126024820152712130b9b2aaa9249034b990333937bd32b71760711b6044820152606401610b9e565b8051610d7690600a906020840190612f87565b6006546001600160a01b036101009091041633146113505760405162461bcd60e51b8152600401610b9e906134e8565b600c805460ff9092166101000261ff0019909216919091179055565b6000818152600260205260408120546001600160a01b031680610a915760405162461bcd60e51b815260206004820152602960248201527f4552433732313a206f776e657220717565727920666f72206e6f6e657869737460448201526832b73a103a37b5b2b760b91b6064820152608401610b9e565b600a80546113f0906134ad565b80601f016020809104026020016040519081016040528092919081815260200182805461141c906134ad565b80156114695780601f1061143e57610100808354040283529160200191611469565b820191906000526020600020905b81548152906001019060200180831161144c57829003601f168201915b505050505081565b60008061147c610d7a565b116114c25760405162461bcd60e51b815260206004820152601660248201527527379031b93cb83a34b21032bc34b9ba39903cb2ba1760511b6044820152606401610b9e565b610d91610614610d7a565b60006001600160a01b0382166115385760405162461bcd60e51b815260206004820152602a60248201527f4552433732313a2062616c616e636520717565727920666f7220746865207a65604482015269726f206164647265737360b01b6064820152608401610b9e565b506001600160a01b031660009081526003602052604090205490565b6006546001600160a01b036101009091041633146115845760405162461bcd60e51b8152600401610b9e906134e8565b6111f86000612957565b6006546001600160a01b036101009091041633146115be5760405162461bcd60e51b8152600401610b9e906134e8565b601155565b6006546001600160a01b036101009091041633146115f35760405162461bcd60e51b8152600401610b9e906134e8565b600855565b6006546001600160a01b036101009091041633146116285760405162461bcd60e51b8152600401610b9e906134e8565b600060098054611637906134ad565b9050116116865760405162461bcd60e51b815260206004820181905260248201527f50726f76656e616e636520686173682063616e6e6f7420626520656d7074792e6044820152606401610b9e565b600c546301000000900460ff16156116eb5760405162461bcd60e51b815260206004820152602260248201527f50726f76656e616e6365206861736820697320616c72656164792066726f7a65604482015261371760f11b6064820152608401610b9e565b600c805463ff00000019166301000000179055565b6006546001600160a01b036101009091041633146117305760405162461bcd60e51b8152600401610b9e906134e8565b6111f86129b1565b606060018054610aa6906134ad565b610d76338383612a09565b6006546001600160a01b036101009091041633146117825760405162461bcd60e51b8152600401610b9e906134e8565b600c546301000000900460ff1615156001146117b05760405162461bcd60e51b8152600401610b9e9061359b565b600c54600160ff909116106117fd5760405162461bcd60e51b81526020600482015260136024820152722830b9ba1030b4b9323937b810383430b9b29760691b6044820152606401610b9e565b600c5460ff6101009091048116908316111561186e5760405162461bcd60e51b815260206004820152602a60248201527f45786365656473206d617820616c6c6f77656420616d6f756e742070657220746044820152693930b739b0b1ba34b7b760b11b6064820152608401610b9e565b60008260ff16116118cf5760405162461bcd60e51b815260206004820152602560248201527f41697264726f7020616d6f756e74206d75737420626520677265617465722074604482015264068616e20360dc1b6064820152608401610b9e565b6012548260ff166118de610d7a565b6118e891906135f8565b11156119485760405162461bcd60e51b815260206004820152602960248201527f4d696e7420616d6f756e742077696c6c206578636565642077686974656c69736044820152683a1039bab838363c9760b91b6064820152608401610b9e565b60015b8260ff168111610cd4576119678261196260075490565b612ad8565b611975600780546001019055565b8061197f81613610565b91505061194b565b60065460ff16156119aa5760405162461bcd60e51b8152600401610b9e9061362b565b600c5460ff16611a105760405162461bcd60e51b815260206004820152602b60248201527f4d696e74696e67206e6f7420696e697469617465642e2043757272656e6c792060448201526a37b71039ba30b3b290181760a91b6064820152608401610b9e565b60008260ff1611611a6f5760405162461bcd60e51b815260206004820152602360248201527f4d696e7420616d6f756e74206d7573742062652067726561746572207468616e60448201526210181760e91b6064820152608401610b9e565b600c5460ff61010090910481169083161115611ae15760405162461bcd60e51b815260206004820152602b60248201527f45786365656473206d617820616c6c6f77656420616d6f756e7420706572207460448201526a3930b739b0b1ba34b7b71760a91b6064820152608401610b9e565b600c5460ff1660011415611d45576008546040516bffffffffffffffffffffffff193360601b166020820152611b3b91906034016040516020818303038152906040528051906020012083612af29092919063ffffffff16565b611b875760405162461bcd60e51b815260206004820152601860248201527f41646472657373206e6f742077686974656c69737465642e00000000000000006044820152606401610b9e565b60028260ff1610611bd35760405162461bcd60e51b815260206004820152601660248201527526b4b73a1030b6b7bab73a1036bab9ba10313290189760511b6044820152606401610b9e565b601154611be39060ff84166127fe565b341015611c2b5760405162461bcd60e51b81526020600482015260166024820152752737ba1032b737bab3b41032ba3432b91039b2b73a1760511b6044820152606401610b9e565b6012548260ff16611c3a610d7a565b611c4491906135f8565b1115611ca05760405162461bcd60e51b815260206004820152602560248201527f5472616e73616374696f6e20657863656564732077686974656c6973742073756044820152643838363c9760d91b6064820152608401610b9e565b3360009081526013602052604090205460ff1615611d265760405162461bcd60e51b815260206004820152603960248201527f546869732077686974656c697374656420616464726573732077617320616c7260448201527f65616479207573656420666f72207468656972206d696e742e000000000000006064820152608401610b9e565b336000908152601360205260409020805460ff19166001179055611f1d565b600c5460ff1660021415611e51576006546001600160a01b03610100909104163314611dbd5760405162461bcd60e51b815260206004820152602160248201527f4f6e6c79204f776e65722063616e206d696e74206174207468697320737461676044820152606560f81b6064820152608401610b9e565b601454601554611dd09060ff85166135f8565b1115611e315760405162461bcd60e51b815260206004820152602a60248201527f5472616e73616374696f6e206578636565647320746f74616c207465616d2d73604482015269616c6520737570706c7960b01b6064820152608401610b9e565b8160ff1660156000828254611e4691906135f8565b90915550611f1d9050565b601154611e619060ff84166127fe565b341015611ea85760405162461bcd60e51b8152602060048201526015602482015274139bdd08195b9bdd59da08195d1a195c881cd95b9d605a1b6044820152606401610b9e565b6016548260ff16611eb7610d7a565b611ec191906135f8565b1115611f1d5760405162461bcd60e51b815260206004820152602560248201527f5472616e73616374696f6e206578636565647320746f74616c2073616c6520736044820152647570706c7960d81b6064820152608401610b9e565b60015b8260ff168111610cd457611f373361196260075490565b611f45600780546001019055565b80611f4f81613610565b915050611f20565b611f61338361255c565b611f7d5760405162461bcd60e51b8152600401610b9e9061354a565b611f8984848484612b08565b50505050565b600b80546113f0906134ad565b600980546113f0906134ad565b6000818152600260205260409020546060906001600160a01b03166120285760405162461bcd60e51b815260206004820152602f60248201527f4552433732314d657461646174613a2055524920717565727920666f72206e6f60448201526e3732bc34b9ba32b73a103a37b5b2b760891b6064820152608401610b9e565b600a61203383612b3b565b600b604051602001612047939291906136ef565b6040516020818303038152906040529050919050565b6006546001600160a01b0361010090910416331461208d5760405162461bcd60e51b8152600401610b9e906134e8565b600c546301000000900460ff1615156001146120bb5760405162461bcd60e51b8152600401610b9e9061359b565b600c5460ff166121055760405162461bcd60e51b8152602060048201526015602482015274139bc81cdd1859d95cc81899599bdc99481a5b9a5d605a1b6044820152606401610b9e565b600c805460ff1690600061211883613722565b91906101000a81548160ff021916908360ff16021790555050565b60008061213e610d7a565b116121845760405162461bcd60e51b815260206004820152601660248201527527379031b93cb83a34b21032bc34b9ba39903cb2ba1760511b6044820152606401610b9e565b610d91610d7a565b6006546001600160a01b036101009091041633146121bc5760405162461bcd60e51b8152600401610b9e906134e8565b8051610d7690600b906020840190612f87565b60006121d9610d7a565b601654610d919190613533565b6006546001600160a01b036101009091041633146122165760405162461bcd60e51b8152600401610b9e906134e8565b6000600a8054612225906134ad565b9050116122745760405162461bcd60e51b815260206004820152601760248201527f626173655552492063616e6e6f7420626520656d7074790000000000000000006044820152606401610b9e565b600c5462010000900460ff16156122cd5760405162461bcd60e51b815260206004820152601a60248201527f4261736555524920697320616c72656164792066726f7a656e2e0000000000006044820152606401610b9e565b600c805462ff0000191662010000179055565b6006546001600160a01b036101009091041633146123105760405162461bcd60e51b8152600401610b9e906134e8565b600c80546001600160a01b0396871664010000000002640100000000600160c01b0319909116179055600d80549486166001600160a01b0319958616179055600e805493861693851693909317909255600f805491851691841691909117905560108054919093169116179055565b6006546001600160a01b036101009091041633146123af5760405162461bcd60e51b8152600401610b9e906134e8565b600c546301000000900460ff1615156001146123dd5760405162461bcd60e51b8152600401610b9e9061359b565b600c54600460ff909116106124345760405162461bcd60e51b815260206004820152601b60248201527f4e6f20737461676573206166746572207075626c69632073616c6500000000006044820152606401610b9e565b600c805460ff169060006121188361373f565b6006546001600160a01b036101009091041633146124775760405162461bcd60e51b8152600401610b9e906134e8565b6001600160a01b0381166124dc5760405162461bcd60e51b815260206004820152602660248201527f4f776e61626c653a206e6577206f776e657220697320746865207a65726f206160448201526564647265737360d01b6064820152608401610b9e565b61128c81612957565b80546001019055565b600081815260046020526040902080546001600160a01b0319166001600160a01b03841690811790915581906125238261136c565b6001600160a01b03167f8c5be1e5ebec7d5bd14f71427d1e84f3dd0314c0f7b2291e5b200ac8c7c3b92560405160405180910390a45050565b6000818152600260205260408120546001600160a01b03166125d55760405162461bcd60e51b815260206004820152602c60248201527f4552433732313a206f70657261746f7220717565727920666f72206e6f6e657860448201526b34b9ba32b73a103a37b5b2b760a11b6064820152608401610b9e565b60006125e08361136c565b9050806001600160a01b0316846001600160a01b0316148061261b5750836001600160a01b031661261084610b29565b6001600160a01b0316145b8061264b57506001600160a01b0380821660009081526005602090815260408083209388168352929052205460ff165b949350505050565b826001600160a01b03166126668261136c565b6001600160a01b0316146126ce5760405162461bcd60e51b815260206004820152602960248201527f4552433732313a207472616e73666572206f6620746f6b656e2074686174206960448201526839903737ba1037bbb760b91b6064820152608401610b9e565b6001600160a01b0382166127305760405162461bcd60e51b8152602060048201526024808201527f4552433732313a207472616e7366657220746f20746865207a65726f206164646044820152637265737360e01b6064820152608401610b9e565b61273b838383612c39565b6127466000826124ee565b6001600160a01b038316600090815260036020526040812080546001929061276f908490613533565b90915550506001600160a01b038216600090815260036020526040812080546001929061279d9084906135f8565b909155505060008181526002602052604080822080546001600160a01b0319166001600160a01b0386811691821790925591518493918716917fddf252ad1be2c89b69c2b068fc378daa952ba7f163c4a11628f55a4df523b3ef91a4505050565b600061280a828461375f565b9392505050565b600061280a8284613794565b60065460ff166128665760405162461bcd60e51b815260206004820152601460248201527314185d5cd8589b194e881b9bdd081c185d5cd95960621b6044820152606401610b9e565b6006805460ff191690557f5db9ee0a495bf2e6ff9c91a7834c1ba4fdd244a5e8aa4e537bd38aeae4b073aa335b6040516001600160a01b03909116815260200160405180910390a1565b60006128bb8261136c565b90506128c981600084612c39565b6128d46000836124ee565b6001600160a01b03811660009081526003602052604081208054600192906128fd908490613533565b909155505060008281526002602052604080822080546001600160a01b0319169055518391906001600160a01b038416907fddf252ad1be2c89b69c2b068fc378daa952ba7f163c4a11628f55a4df523b3ef908390a45050565b600680546001600160a01b03838116610100818102610100600160a81b031985161790945560405193909204169182907f8be0079c531659141344cd1fd0a4f28419497f9722a3daafe3b4186f6b6457e090600090a35050565b60065460ff16156129d45760405162461bcd60e51b8152600401610b9e9061362b565b6006805460ff191660011790557f62e78cea01bee320cd4e420270b5ea74000d11b0c9f74754ebdbfc544b05a2586128933390565b816001600160a01b0316836001600160a01b03161415612a6b5760405162461bcd60e51b815260206004820152601960248201527f4552433732313a20617070726f766520746f2063616c6c6572000000000000006044820152606401610b9e565b6001600160a01b03838116600081815260056020908152604080832094871680845294825291829020805460ff191686151590811790915591519182527f17307eab39ab6107e8899845ad3d59bd9653f200f220920489ca2b5937696c31910160405180910390a3505050565b610d76828260405180602001604052806000815250612c5c565b600082612aff8584612c8f565b14949350505050565b612b13848484612653565b612b1f84848484612d3b565b611f895760405162461bcd60e51b8152600401610b9e906137a8565b606081612b5f5750506040805180820190915260018152600360fc1b602082015290565b8160005b8115612b895780612b7381613610565b9150612b829050600a83613794565b9150612b63565b60008167ffffffffffffffff811115612ba457612ba461311d565b6040519080825280601f01601f191660200182016040528015612bce576020820181803683370190505b5090505b841561264b57612be3600183613533565b9150612bf0600a866137fa565b612bfb9060306135f8565b60f81b818381518110612c1057612c1061380e565b60200101906001600160f81b031916908160001a905350612c32600a86613794565b9450612bd2565b60065460ff1615610cd45760405162461bcd60e51b8152600401610b9e9061362b565b612c668383612e39565b612c736000848484612d3b565b610cd45760405162461bcd60e51b8152600401610b9e906137a8565b600081815b8451811015612d33576000858281518110612cb157612cb161380e565b60200260200101519050808311612cf3576040805160208101859052908101829052606001604051602081830303815290604052805190602001209250612d20565b60408051602081018390529081018490526060016040516020818303038152906040528051906020012092505b5080612d2b81613610565b915050612c94565b509392505050565b60006001600160a01b0384163b15612e2e57604051630a85bd0160e11b81526001600160a01b0385169063150b7a0290612d7f903390899088908890600401613824565b6020604051808303816000875af1925050508015612dba575060408051601f3d908101601f19168201909252612db791810190613861565b60015b612e14573d808015612de8576040519150601f19603f3d011682016040523d82523d6000602084013e612ded565b606091505b508051612e0c5760405162461bcd60e51b8152600401610b9e906137a8565b805181602001fd5b6001600160e01b031916630a85bd0160e11b14905061264b565b506001949350505050565b6001600160a01b038216612e8f5760405162461bcd60e51b815260206004820181905260248201527f4552433732313a206d696e7420746f20746865207a65726f20616464726573736044820152606401610b9e565b6000818152600260205260409020546001600160a01b031615612ef45760405162461bcd60e51b815260206004820152601c60248201527f4552433732313a20746f6b656e20616c7265616479206d696e746564000000006044820152606401610b9e565b612f0060008383612c39565b6001600160a01b0382166000908152600360205260408120805460019290612f299084906135f8565b909155505060008181526002602052604080822080546001600160a01b0319166001600160a01b03861690811790915590518392907fddf252ad1be2c89b69c2b068fc378daa952ba7f163c4a11628f55a4df523b3ef908290a45050565b828054612f93906134ad565b90600052602060002090601f016020900481019282612fb55760008555612ffb565b82601f10612fce57805160ff1916838001178555612ffb565b82800160010185558215612ffb579182015b82811115612ffb578251825591602001919060010190612fe0565b5061300792915061300b565b5090565b5b80821115613007576000815560010161300c565b6001600160e01b03198116811461128c57600080fd5b60006020828403121561304857600080fd5b813561280a81613020565b60005b8381101561306e578181015183820152602001613056565b83811115611f895750506000910152565b60008151808452613097816020860160208601613053565b601f01601f19169290920160200192915050565b60208152600061280a602083018461307f565b6000602082840312156130d057600080fd5b5035919050565b80356001600160a01b03811681146130ee57600080fd5b919050565b6000806040838503121561310657600080fd5b61310f836130d7565b946020939093013593505050565b634e487b7160e01b600052604160045260246000fd5b604051601f8201601f1916810167ffffffffffffffff8111828210171561315c5761315c61311d565b604052919050565b600067ffffffffffffffff83111561317e5761317e61311d565b613191601f8401601f1916602001613133565b90508281528383830111156131a557600080fd5b828260208301376000602084830101529392505050565b6000602082840312156131ce57600080fd5b813567ffffffffffffffff8111156131e557600080fd5b8201601f810184136131f657600080fd5b61264b84823560208401613164565b60008060006060848603121561321a57600080fd5b613223846130d7565b9250613231602085016130d7565b9150604084013590509250925092565b803560ff811681146130ee57600080fd5b60006020828403121561326457600080fd5b61280a82613241565b60006020828403121561327f57600080fd5b61280a826130d7565b6000806040838503121561329b57600080fd5b6132a4836130d7565b9150602083013580151581146132b957600080fd5b809150509250929050565b600080604083850312156132d757600080fd5b6132e083613241565b91506132ee602084016130d7565b90509250929050565b6000806040838503121561330a57600080fd5b61331383613241565b915060208084013567ffffffffffffffff8082111561333157600080fd5b818601915086601f83011261334557600080fd5b8135818111156133575761335761311d565b8060051b9150613368848301613133565b818152918301840191848101908984111561338257600080fd5b938501935b838510156133a057843582529385019390850190613387565b8096505050505050509250929050565b600080600080608085870312156133c657600080fd5b6133cf856130d7565b93506133dd602086016130d7565b925060408501359150606085013567ffffffffffffffff81111561340057600080fd5b8501601f8101871361341157600080fd5b61342087823560208401613164565b91505092959194509250565b6000806040838503121561343f57600080fd5b6132e0836130d7565b600080600080600060a0868803121561346057600080fd5b613469866130d7565b9450613477602087016130d7565b9350613485604087016130d7565b9250613493606087016130d7565b91506134a1608087016130d7565b90509295509295909350565b600181811c908216806134c157607f821691505b602082108114156134e257634e487b7160e01b600052602260045260246000fd5b50919050565b6020808252818101527f4f776e61626c653a2063616c6c6572206973206e6f7420746865206f776e6572604082015260600190565b634e487b7160e01b600052601160045260246000fd5b6000828210156135455761354561351d565b500390565b60208082526031908201527f4552433732313a207472616e736665722063616c6c6572206973206e6f74206f6040820152701ddb995c881b9bdc88185c1c1c9bdd9959607a1b606082015260800190565b60208082526038908201527f50726f76656e616e63652068617368206d7573742062652066726f7a656e206260408201527f65666f7265206d696e74696e672063616e2073746172742e0000000000000000606082015260800190565b6000821982111561360b5761360b61351d565b500190565b60006000198214156136245761362461351d565b5060010190565b60208082526010908201526f14185d5cd8589b194e881c185d5cd95960821b604082015260600190565b8054600090600181811c908083168061366f57607f831692505b602080841082141561369157634e487b7160e01b600052602260045260246000fd5b8180156136a557600181146136b6576136e3565b60ff198616895284890196506136e3565b60008881526020902060005b868110156136db5781548b8201529085019083016136c2565b505084890196505b50505050505092915050565b60006136fb8286613655565b845161370b818360208901613053565b61371781830186613655565b979650505050505050565b600060ff8216806137355761373561351d565b6000190192915050565b600060ff821660ff8114156137565761375661351d565b60010192915050565b60008160001904831182151516156137795761377961351d565b500290565b634e487b7160e01b600052601260045260246000fd5b6000826137a3576137a361377e565b500490565b60208082526032908201527f4552433732313a207472616e7366657220746f206e6f6e20455243373231526560408201527131b2b4bb32b91034b6b83632b6b2b73a32b960711b606082015260800190565b6000826138095761380961377e565b500690565b634e487b7160e01b600052603260045260246000fd5b6001600160a01b03858116825284166020820152604081018390526080606082018190526000906138579083018461307f565b9695505050505050565b60006020828403121561387357600080fd5b815161280a8161302056fea2646970667358221220a18ad0f13c95097f536366f09ac42d91802a8673342e402d6c11e9e764916a1a64736f6c634300080a0033",
  "bytecodeSha1": "9eadc8f65634970ab3a41a6ce4c63b0c7ca62fb0",
  "compiler": {
    "evm_version": "istanbul",
    "optimizer": {
      "enabled": true,
      "runs": 200
    },
    "version": "0.8.10+commit.fc410830"
  },
  "contractName": "CryptidToken",
  "language": "Solidity",
  "natspec": {
    "kind": "dev",
    "methods": {
      "approve(address,uint256)": {
        "details": "See {IERC721-approve}."
      },
      "balanceOf(address)": {
        "details": "See {IERC721-balanceOf}."
      },
      "burn(uint256)": {
        "details": "Burns `tokenId`. See {ERC721-_burn}. Requirements: - The caller must own `tokenId` or be an approved operator."
      },
      "getApproved(uint256)": {
        "details": "See {IERC721-getApproved}."
      },
      "isApprovedForAll(address,address)": {
        "details": "See {IERC721-isApprovedForAll}."
      },
      "name()": {
        "details": "See {IERC721Metadata-name}."
      },
      "owner()": {
        "details": "Returns the address of the current owner."
      },
      "ownerOf(uint256)": {
        "details": "See {IERC721-ownerOf}."
      },
      "paused()": {
        "details": "Returns true if the contract is paused, and false otherwise."
      },
      "renounceOwnership()": {
        "details": "Leaves the contract without owner. It will not be possible to call `onlyOwner` functions anymore. Can only be called by the current owner. NOTE: Renouncing ownership will leave the contract without an owner, thereby removing any functionality that is only available to the owner."
      },
      "safeTransferFrom(address,address,uint256)": {
        "details": "See {IERC721-safeTransferFrom}."
      },
      "safeTransferFrom(address,address,uint256,bytes)": {
        "details": "See {IERC721-safeTransferFrom}."
      },
      "setApprovalForAll(address,bool)": {
        "details": "See {IERC721-setApprovalForAll}."
      },
      "supportsInterface(bytes4)": {
        "details": "See {IERC165-supportsInterface}."
      },
      "symbol()": {
        "details": "See {IERC721Metadata-symbol}."
      },
      "tokenURI(uint256)": {
        "details": "See {IERC721Metadata-tokenURI}."
      },
      "transferFrom(address,address,uint256)": {
        "details": "See {IERC721-transferFrom}."
      },
      "transferOwnership(address)": {
        "details": "Transfers ownership of the contract to a new account (`newOwner`). Can only be called by the current owner."
      }
    },
    "version": 1
  },
  "opcodes": "PUSH1 0x80 PUSH1 0x40 MSTORE PUSH1 0x4 CALLDATASIZE LT PUSH2 0x381 JUMPI PUSH1 0x0 CALLDATALOAD PUSH1 0xE0 SHR DUP1 PUSH4 0x8456CB59 GT PUSH2 0x1D1 JUMPI DUP1 PUSH4 0xCBD0A2B5 GT PUSH2 0x102 JUMPI DUP1 PUSH4 0xE7BC8208 GT PUSH2 0xA0 JUMPI DUP1 PUSH4 0xF2FDE38B GT PUSH2 0x6F JUMPI DUP1 PUSH4 0xF2FDE38B EQ PUSH2 0x9C7 JUMPI DUP1 PUSH4 0xF51F96DD EQ PUSH2 0x9E7 JUMPI DUP1 PUSH4 0xF9F92BE4 EQ PUSH2 0x9FD JUMPI DUP1 PUSH4 0xFCAA7664 EQ PUSH2 0xA2D JUMPI PUSH1 0x0 DUP1 REVERT JUMPDEST DUP1 PUSH4 0xE7BC8208 EQ PUSH2 0x934 JUMPI DUP1 PUSH4 0xE985E9C5 EQ PUSH2 0x949 JUMPI DUP1 PUSH4 0xEA74E190 EQ PUSH2 0x992 JUMPI DUP1 PUSH4 0xEE3743AB EQ PUSH2 0x9B2 JUMPI PUSH1 0x0 DUP1 REVERT JUMPDEST DUP1 PUSH4 0xDA3EF23F GT PUSH2 0xDC JUMPI DUP1 PUSH4 0xDA3EF23F EQ PUSH2 0x8AE JUMPI DUP1 PUSH4 0xDB993F56 EQ PUSH2 0x8CE JUMPI DUP1 PUSH4 0xDE5F9866 EQ PUSH2 0x8EE JUMPI DUP1 PUSH4 0xDE7FCB1D EQ PUSH2 0x903 JUMPI PUSH1 0x0 DUP1 REVERT JUMPDEST DUP1 PUSH4 0xCBD0A2B5 EQ PUSH2 0x864 JUMPI DUP1 PUSH4 0xD2FAB8B9 EQ PUSH2 0x879 JUMPI DUP1 PUSH4 0xD6D67A09 EQ PUSH2 0x899 JUMPI PUSH1 0x0 DUP1 REVERT JUMPDEST DUP1 PUSH4 0xB61C5E69 GT PUSH2 0x16F JUMPI DUP1 PUSH4 0xC3214581 GT PUSH2 0x149 JUMPI DUP1 PUSH4 0xC3214581 EQ PUSH2 0x804 JUMPI DUP1 PUSH4 0xC6682862 EQ PUSH2 0x81A JUMPI DUP1 PUSH4 0xC6AB67A3 EQ PUSH2 0x82F JUMPI DUP1 PUSH4 0xC87B56DD EQ PUSH2 0x844 JUMPI PUSH1 0x0 DUP1 REVERT JUMPDEST DUP1 PUSH4 0xB61C5E69 EQ PUSH2 0x7B1 JUMPI DUP1 PUSH4 0xB88D4FDE EQ PUSH2 0x7C4 JUMPI DUP1 PUSH4 0xC29DE630 EQ PUSH2 0x7E4 JUMPI PUSH1 0x0 DUP1 REVERT JUMPDEST DUP1 PUSH4 0x9A2A9C3D GT PUSH2 0x1AB JUMPI DUP1 PUSH4 0x9A2A9C3D EQ PUSH2 0x730 JUMPI DUP1 PUSH4 0xA22CB465 EQ PUSH2 0x751 JUMPI DUP1 PUSH4 0xB1214392 EQ PUSH2 0x771 JUMPI DUP1 PUSH4 0xB3CAAD01 EQ PUSH2 0x791 JUMPI PUSH1 0x0 DUP1 REVERT JUMPDEST DUP1 PUSH4 0x8456CB59 EQ PUSH2 0x6E3 JUMPI DUP1 PUSH4 0x8DA5CB5B EQ PUSH2 0x6F8 JUMPI DUP1 PUSH4 0x95D89B41 EQ PUSH2 0x71B JUMPI PUSH1 0x0 DUP1 REVERT JUMPDEST DUP1 PUSH4 0x42842E0E GT PUSH2 0x2B6 JUMPI DUP1 PUSH4 0x6C0360EB GT PUSH2 0x254 JUMPI DUP1 PUSH4 0x78231978 GT PUSH2 0x223 JUMPI DUP1 PUSH4 0x78231978 EQ PUSH2 0x678 JUMPI DUP1 PUSH4 0x791A2519 EQ PUSH2 0x68E JUMPI DUP1 PUSH4 0x7CB64759 EQ PUSH2 0x6AE JUMPI DUP1 PUSH4 0x81C162F2 EQ PUSH2 0x6CE JUMPI PUSH1 0x0 DUP1 REVERT JUMPDEST DUP1 PUSH4 0x6C0360EB EQ PUSH2 0x619 JUMPI DUP1 PUSH4 0x6CBB8985 EQ PUSH2 0x62E JUMPI DUP1 PUSH4 0x70A08231 EQ PUSH2 0x643 JUMPI DUP1 PUSH4 0x715018A6 EQ PUSH2 0x663 JUMPI PUSH1 0x0 DUP1 REVERT JUMPDEST DUP1 PUSH4 0x5C975ABB GT PUSH2 0x290 JUMPI DUP1 PUSH4 0x5C975ABB EQ PUSH2 0x599 JUMPI DUP1 PUSH4 0x61869A93 EQ PUSH2 0x5B1 JUMPI DUP1 PUSH4 0x622E4E78 EQ PUSH2 0x5D9 JUMPI DUP1 PUSH4 0x6352211E EQ PUSH2 0x5F9 JUMPI PUSH1 0x0 DUP1 REVERT JUMPDEST DUP1 PUSH4 0x42842E0E EQ PUSH2 0x539 JUMPI DUP1 PUSH4 0x42966C68 EQ PUSH2 0x559 JUMPI DUP1 PUSH4 0x55F804B3 EQ PUSH2 0x579 JUMPI PUSH1 0x0 DUP1 REVERT JUMPDEST DUP1 PUSH4 0x20841A6A GT PUSH2 0x323 JUMPI DUP1 PUSH4 0x33E61413 GT PUSH2 0x2FD JUMPI DUP1 PUSH4 0x33E61413 EQ PUSH2 0x4E6 JUMPI DUP1 PUSH4 0x3C795047 EQ PUSH2 0x4FC JUMPI DUP1 PUSH4 0x3CCFD60B EQ PUSH2 0x51C JUMPI DUP1 PUSH4 0x3F4BA83A EQ PUSH2 0x524 JUMPI PUSH1 0x0 DUP1 REVERT JUMPDEST DUP1 PUSH4 0x20841A6A EQ PUSH2 0x490 JUMPI DUP1 PUSH4 0x23B872DD EQ PUSH2 0x4B0 JUMPI DUP1 PUSH4 0x2EB4A7AB EQ PUSH2 0x4D0 JUMPI PUSH1 0x0 DUP1 REVERT JUMPDEST DUP1 PUSH4 0x88139A6 GT PUSH2 0x35F JUMPI DUP1 PUSH4 0x88139A6 EQ PUSH2 0x415 JUMPI DUP1 PUSH4 0x95EA7B3 EQ PUSH2 0x439 JUMPI DUP1 PUSH4 0x10969523 EQ PUSH2 0x45B JUMPI DUP1 PUSH4 0x18160DDD EQ PUSH2 0x47B JUMPI PUSH1 0x0 DUP1 REVERT JUMPDEST DUP1 PUSH4 0x1FFC9A7 EQ PUSH2 0x386 JUMPI DUP1 PUSH4 0x6FDDE03 EQ PUSH2 0x3BB JUMPI DUP1 PUSH4 0x81812FC EQ PUSH2 0x3DD JUMPI JUMPDEST PUSH1 0x0 DUP1 REVERT JUMPDEST CALLVALUE DUP1 ISZERO PUSH2 0x392 JUMPI PUSH1 0x0 DUP1 REVERT JUMPDEST POP PUSH2 0x3A6 PUSH2 0x3A1 CALLDATASIZE PUSH1 0x4 PUSH2 0x3036 JUMP JUMPDEST PUSH2 0xA45 JUMP JUMPDEST PUSH1 0x40 MLOAD SWAP1 ISZERO ISZERO DUP2 MSTORE PUSH1 0x20 ADD JUMPDEST PUSH1 0x40 MLOAD DUP1 SWAP2 SUB SWAP1 RETURN JUMPDEST CALLVALUE DUP1 ISZERO PUSH2 0x3C7 JUMPI PUSH1 0x0 DUP1 REVERT JUMPDEST POP PUSH2 0x3D0 PUSH2 0xA97 JUMP JUMPDEST PUSH1 0x40 MLOAD PUSH2 0x3B2 SWAP2 SWAP1 PUSH2 0x30AB JUMP JUMPDEST CALLVALUE DUP1 ISZERO PUSH2 0x3E9 JUMPI PUSH1 0x0 DUP1 REVERT JUMPDEST POP PUSH2 0x3FD PUSH2 0x3F8 CALLDATASIZE PUSH1 0x4 PUSH2 0x30BE JUMP JUMPDEST PUSH2 0xB29 JUMP JUMPDEST PUSH1 0x40 MLOAD PUSH1 0x1 PUSH1 0x1 PUSH1 0xA0 SHL SUB SWAP1 SWAP2 AND DUP2 MSTORE PUSH1 0x20 ADD PUSH2 0x3B2 JUMP JUMPDEST CALLVALUE DUP1 ISZERO PUSH2 0x421 JUMPI PUSH1 0x0 DUP1 REVERT JUMPDEST POP PUSH2 0x42B PUSH1 0x15 SLOAD DUP2 JUMP JUMPDEST PUSH1 0x40 MLOAD SWAP1 DUP2 MSTORE PUSH1 0x20 ADD PUSH2 0x3B2 JUMP JUMPDEST CALLVALUE DUP1 ISZERO PUSH2 0x445 JUMPI PUSH1 0x0 DUP1 REVERT JUMPDEST POP PUSH2 0x459 PUSH2 0x454 CALLDATASIZE PUSH1 0x4 PUSH2 0x30F3 JUMP JUMPDEST PUSH2 0xBC3 JUMP JUMPDEST STOP JUMPDEST CALLVALUE DUP1 ISZERO PUSH2 0x467 JUMPI PUSH1 0x0 DUP1 REVERT JUMPDEST POP PUSH2 0x459 PUSH2 0x476 CALLDATASIZE PUSH1 0x4 PUSH2 0x31BC JUMP JUMPDEST PUSH2 0xCD9 JUMP JUMPDEST CALLVALUE DUP1 ISZERO PUSH2 0x487 JUMPI PUSH1 0x0 DUP1 REVERT JUMPDEST POP PUSH2 0x42B PUSH2 0xD7A JUMP JUMPDEST CALLVALUE DUP1 ISZERO PUSH2 0x49C JUMPI PUSH1 0x0 DUP1 REVERT JUMPDEST POP PUSH2 0x459 PUSH2 0x4AB CALLDATASIZE PUSH1 0x4 PUSH2 0x30BE JUMP JUMPDEST PUSH2 0xD96 JUMP JUMPDEST CALLVALUE DUP1 ISZERO PUSH2 0x4BC JUMPI PUSH1 0x0 DUP1 REVERT JUMPDEST POP PUSH2 0x459 PUSH2 0x4CB CALLDATASIZE PUSH1 0x4 PUSH2 0x3205 JUMP JUMPDEST PUSH2 0xDCB JUMP JUMPDEST CALLVALUE DUP1 ISZERO PUSH2 0x4DC JUMPI PUSH1 0x0 DUP1 REVERT JUMPDEST POP PUSH2 0x42B PUSH1 0x8 SLOAD DUP2 JUMP JUMPDEST CALLVALUE DUP1 ISZERO PUSH2 0x4F2 JUMPI PUSH1 0x0 DUP1 REVERT JUMPDEST POP PUSH2 0x42B PUSH1 0x12 SLOAD DUP2 JUMP JUMPDEST CALLVALUE DUP1 ISZERO PUSH2 0x508 JUMPI PUSH1 0x0 DUP1 REVERT JUMPDEST POP PUSH1 0xE SLOAD PUSH2 0x3FD SWAP1 PUSH1 0x1 PUSH1 0x1 PUSH1 0xA0 SHL SUB AND DUP2 JUMP JUMPDEST PUSH2 0x459 PUSH2 0xDFD JUMP JUMPDEST CALLVALUE DUP1 ISZERO PUSH2 0x530 JUMPI PUSH1 0x0 DUP1 REVERT JUMPDEST POP PUSH2 0x459 PUSH2 0x11C0 JUMP JUMPDEST CALLVALUE DUP1 ISZERO PUSH2 0x545 JUMPI PUSH1 0x0 DUP1 REVERT JUMPDEST POP PUSH2 0x459 PUSH2 0x554 CALLDATASIZE PUSH1 0x4 PUSH2 0x3205 JUMP JUMPDEST PUSH2 0x11FA JUMP JUMPDEST CALLVALUE DUP1 ISZERO PUSH2 0x565 JUMPI PUSH1 0x0 DUP1 REVERT JUMPDEST POP PUSH2 0x459 PUSH2 0x574 CALLDATASIZE PUSH1 0x4 PUSH2 0x30BE JUMP JUMPDEST PUSH2 0x1215 JUMP JUMPDEST CALLVALUE DUP1 ISZERO PUSH2 0x585 JUMPI PUSH1 0x0 DUP1 REVERT JUMPDEST POP PUSH2 0x459 PUSH2 0x594 CALLDATASIZE PUSH1 0x4 PUSH2 0x31BC JUMP JUMPDEST PUSH2 0x128F JUMP JUMPDEST CALLVALUE DUP1 ISZERO PUSH2 0x5A5 JUMPI PUSH1 0x0 DUP1 REVERT JUMPDEST POP PUSH1 0x6 SLOAD PUSH1 0xFF AND PUSH2 0x3A6 JUMP JUMPDEST CALLVALUE DUP1 ISZERO PUSH2 0x5BD JUMPI PUSH1 0x0 DUP1 REVERT JUMPDEST POP PUSH1 0xC SLOAD PUSH2 0x3FD SWAP1 PUSH5 0x100000000 SWAP1 DIV PUSH1 0x1 PUSH1 0x1 PUSH1 0xA0 SHL SUB AND DUP2 JUMP JUMPDEST CALLVALUE DUP1 ISZERO PUSH2 0x5E5 JUMPI PUSH1 0x0 DUP1 REVERT JUMPDEST POP PUSH2 0x459 PUSH2 0x5F4 CALLDATASIZE PUSH1 0x4 PUSH2 0x3252 JUMP JUMPDEST PUSH2 0x1320 JUMP JUMPDEST CALLVALUE DUP1 ISZERO PUSH2 0x605 JUMPI PUSH1 0x0 DUP1 REVERT JUMPDEST POP PUSH2 0x3FD PUSH2 0x614 CALLDATASIZE PUSH1 0x4 PUSH2 0x30BE JUMP JUMPDEST PUSH2 0x136C JUMP JUMPDEST CALLVALUE DUP1 ISZERO PUSH2 0x625 JUMPI PUSH1 0x0 DUP1 REVERT JUMPDEST POP PUSH2 0x3D0 PUSH2 0x13E3 JUMP JUMPDEST CALLVALUE DUP1 ISZERO PUSH2 0x63A JUMPI PUSH1 0x0 DUP1 REVERT JUMPDEST POP PUSH2 0x3FD PUSH2 0x1471 JUMP JUMPDEST CALLVALUE DUP1 ISZERO PUSH2 0x64F JUMPI PUSH1 0x0 DUP1 REVERT JUMPDEST POP PUSH2 0x42B PUSH2 0x65E CALLDATASIZE PUSH1 0x4 PUSH2 0x326D JUMP JUMPDEST PUSH2 0x14CD JUMP JUMPDEST CALLVALUE DUP1 ISZERO PUSH2 0x66F JUMPI PUSH1 0x0 DUP1 REVERT JUMPDEST POP PUSH2 0x459 PUSH2 0x1554 JUMP JUMPDEST CALLVALUE DUP1 ISZERO PUSH2 0x684 JUMPI PUSH1 0x0 DUP1 REVERT JUMPDEST POP PUSH2 0x42B PUSH1 0x16 SLOAD DUP2 JUMP JUMPDEST CALLVALUE DUP1 ISZERO PUSH2 0x69A JUMPI PUSH1 0x0 DUP1 REVERT JUMPDEST POP PUSH2 0x459 PUSH2 0x6A9 CALLDATASIZE PUSH1 0x4 PUSH2 0x30BE JUMP JUMPDEST PUSH2 0x158E JUMP JUMPDEST CALLVALUE DUP1 ISZERO PUSH2 0x6BA JUMPI PUSH1 0x0 DUP1 REVERT JUMPDEST POP PUSH2 0x459 PUSH2 0x6C9 CALLDATASIZE PUSH1 0x4 PUSH2 0x30BE JUMP JUMPDEST PUSH2 0x15C3 JUMP JUMPDEST CALLVALUE DUP1 ISZERO PUSH2 0x6DA JUMPI PUSH1 0x0 DUP1 REVERT JUMPDEST POP PUSH2 0x459 PUSH2 0x15F8 JUMP JUMPDEST CALLVALUE DUP1 ISZERO PUSH2 0x6EF JUMPI PUSH1 0x0 DUP1 REVERT JUMPDEST POP PUSH2 0x459 PUSH2 0x1700 JUMP JUMPDEST CALLVALUE DUP1 ISZERO PUSH2 0x704 JUMPI PUSH1 0x0 DUP1 REVERT JUMPDEST POP PUSH1 0x6 SLOAD PUSH2 0x100 SWAP1 DIV PUSH1 0x1 PUSH1 0x1 PUSH1 0xA0 SHL SUB AND PUSH2 0x3FD JUMP JUMPDEST CALLVALUE DUP1 ISZERO PUSH2 0x727 JUMPI PUSH1 0x0 DUP1 REVERT JUMPDEST POP PUSH2 0x3D0 PUSH2 0x1738 JUMP JUMPDEST CALLVALUE DUP1 ISZERO PUSH2 0x73C JUMPI PUSH1 0x0 DUP1 REVERT JUMPDEST POP PUSH1 0xC SLOAD PUSH2 0x3A6 SWAP1 PUSH4 0x1000000 SWAP1 DIV PUSH1 0xFF AND DUP2 JUMP JUMPDEST CALLVALUE DUP1 ISZERO PUSH2 0x75D JUMPI PUSH1 0x0 DUP1 REVERT JUMPDEST POP PUSH2 0x459 PUSH2 0x76C CALLDATASIZE PUSH1 0x4 PUSH2 0x3288 JUMP JUMPDEST PUSH2 0x1747 JUMP JUMPDEST CALLVALUE DUP1 ISZERO PUSH2 0x77D JUMPI PUSH1 0x0 DUP1 REVERT JUMPDEST POP PUSH1 0xD SLOAD PUSH2 0x3FD SWAP1 PUSH1 0x1 PUSH1 0x1 PUSH1 0xA0 SHL SUB AND DUP2 JUMP JUMPDEST CALLVALUE DUP1 ISZERO PUSH2 0x79D JUMPI PUSH1 0x0 DUP1 REVERT JUMPDEST POP PUSH2 0x459 PUSH2 0x7AC CALLDATASIZE PUSH1 0x4 PUSH2 0x32C4 JUMP JUMPDEST PUSH2 0x1752 JUMP JUMPDEST PUSH2 0x459 PUSH2 0x7BF CALLDATASIZE PUSH1 0x4 PUSH2 0x32F7 JUMP JUMPDEST PUSH2 0x1987 JUMP JUMPDEST CALLVALUE DUP1 ISZERO PUSH2 0x7D0 JUMPI PUSH1 0x0 DUP1 REVERT JUMPDEST POP PUSH2 0x459 PUSH2 0x7DF CALLDATASIZE PUSH1 0x4 PUSH2 0x33B0 JUMP JUMPDEST PUSH2 0x1F57 JUMP JUMPDEST CALLVALUE DUP1 ISZERO PUSH2 0x7F0 JUMPI PUSH1 0x0 DUP1 REVERT JUMPDEST POP PUSH1 0xC SLOAD PUSH2 0x3A6 SWAP1 PUSH3 0x10000 SWAP1 DIV PUSH1 0xFF AND DUP2 JUMP JUMPDEST CALLVALUE DUP1 ISZERO PUSH2 0x810 JUMPI PUSH1 0x0 DUP1 REVERT JUMPDEST POP PUSH2 0x42B PUSH1 0x14 SLOAD DUP2 JUMP JUMPDEST CALLVALUE DUP1 ISZERO PUSH2 0x826 JUMPI PUSH1 0x0 DUP1 REVERT JUMPDEST POP PUSH2 0x3D0 PUSH2 0x1F8F JUMP JUMPDEST CALLVALUE DUP1 ISZERO PUSH2 0x83B JUMPI PUSH1 0x0 DUP1 REVERT JUMPDEST POP PUSH2 0x3D0 PUSH2 0x1F9C JUMP JUMPDEST CALLVALUE DUP1 ISZERO PUSH2 0x850 JUMPI PUSH1 0x0 DUP1 REVERT JUMPDEST POP PUSH2 0x3D0 PUSH2 0x85F CALLDATASIZE PUSH1 0x4 PUSH2 0x30BE JUMP JUMPDEST PUSH2 0x1FA9 JUMP JUMPDEST CALLVALUE DUP1 ISZERO PUSH2 0x870 JUMPI PUSH1 0x0 DUP1 REVERT JUMPDEST POP PUSH2 0x459 PUSH2 0x205D JUMP JUMPDEST CALLVALUE DUP1 ISZERO PUSH2 0x885 JUMPI PUSH1 0x0 DUP1 REVERT JUMPDEST POP PUSH1 0xF SLOAD PUSH2 0x3FD SWAP1 PUSH1 0x1 PUSH1 0x1 PUSH1 0xA0 SHL SUB AND DUP2 JUMP JUMPDEST CALLVALUE DUP1 ISZERO PUSH2 0x8A5 JUMPI PUSH1 0x0 DUP1 REVERT JUMPDEST POP PUSH2 0x42B PUSH2 0x2133 JUMP JUMPDEST CALLVALUE DUP1 ISZERO PUSH2 0x8BA JUMPI PUSH1 0x0 DUP1 REVERT JUMPDEST POP PUSH2 0x459 PUSH2 0x8C9 CALLDATASIZE PUSH1 0x4 PUSH2 0x31BC JUMP JUMPDEST PUSH2 0x218C JUMP JUMPDEST CALLVALUE DUP1 ISZERO PUSH2 0x8DA JUMPI PUSH1 0x0 DUP1 REVERT JUMPDEST POP PUSH1 0x10 SLOAD PUSH2 0x3FD SWAP1 PUSH1 0x1 PUSH1 0x1 PUSH1 0xA0 SHL SUB AND DUP2 JUMP JUMPDEST CALLVALUE DUP1 ISZERO PUSH2 0x8FA JUMPI PUSH1 0x0 DUP1 REVERT JUMPDEST POP PUSH2 0x42B PUSH2 0x21CF JUMP JUMPDEST CALLVALUE DUP1 ISZERO PUSH2 0x90F JUMPI PUSH1 0x0 DUP1 REVERT JUMPDEST POP PUSH1 0xC SLOAD PUSH2 0x922 SWAP1 PUSH2 0x100 SWAP1 DIV PUSH1 0xFF AND DUP2 JUMP JUMPDEST PUSH1 0x40 MLOAD PUSH1 0xFF SWAP1 SWAP2 AND DUP2 MSTORE PUSH1 0x20 ADD PUSH2 0x3B2 JUMP JUMPDEST CALLVALUE DUP1 ISZERO PUSH2 0x940 JUMPI PUSH1 0x0 DUP1 REVERT JUMPDEST POP PUSH2 0x459 PUSH2 0x21E6 JUMP JUMPDEST CALLVALUE DUP1 ISZERO PUSH2 0x955 JUMPI PUSH1 0x0 DUP1 REVERT JUMPDEST POP PUSH2 0x3A6 PUSH2 0x964 CALLDATASIZE PUSH1 0x4 PUSH2 0x342C JUMP JUMPDEST PUSH1 0x1 PUSH1 0x1 PUSH1 0xA0 SHL SUB SWAP2 DUP3 AND PUSH1 0x0 SWAP1 DUP2 MSTORE PUSH1 0x5 PUSH1 0x20 SWAP1 DUP2 MSTORE PUSH1 0x40 DUP1 DUP4 KECCAK256 SWAP4 SWAP1 SWAP5 AND DUP3 MSTORE SWAP2 SWAP1 SWAP2 MSTORE KECCAK256 SLOAD PUSH1 0xFF AND SWAP1 JUMP JUMPDEST CALLVALUE DUP1 ISZERO PUSH2 0x99E JUMPI PUSH1 0x0 DUP1 REVERT JUMPDEST POP PUSH2 0x459 PUSH2 0x9AD CALLDATASIZE PUSH1 0x4 PUSH2 0x3448 JUMP JUMPDEST PUSH2 0x22E0 JUMP JUMPDEST CALLVALUE DUP1 ISZERO PUSH2 0x9BE JUMPI PUSH1 0x0 DUP1 REVERT JUMPDEST POP PUSH2 0x459 PUSH2 0x237F JUMP JUMPDEST CALLVALUE DUP1 ISZERO PUSH2 0x9D3 JUMPI PUSH1 0x0 DUP1 REVERT JUMPDEST POP PUSH2 0x459 PUSH2 0x9E2 CALLDATASIZE PUSH1 0x4 PUSH2 0x326D JUMP JUMPDEST PUSH2 0x2447 JUMP JUMPDEST CALLVALUE DUP1 ISZERO PUSH2 0x9F3 JUMPI PUSH1 0x0 DUP1 REVERT JUMPDEST POP PUSH2 0x42B PUSH1 0x11 SLOAD DUP2 JUMP JUMPDEST CALLVALUE DUP1 ISZERO PUSH2 0xA09 JUMPI PUSH1 0x0 DUP1 REVERT JUMPDEST POP PUSH2 0x3A6 PUSH2 0xA18 CALLDATASIZE PUSH1 0x4 PUSH2 0x326D JUMP JUMPDEST PUSH1 0x13 PUSH1 0x20 MSTORE PUSH1 0x0 SWAP1 DUP2 MSTORE PUSH1 0x40 SWAP1 KECCAK256 SLOAD PUSH1 0xFF AND DUP2 JUMP JUMPDEST CALLVALUE DUP1 ISZERO PUSH2 0xA39 JUMPI PUSH1 0x0 DUP1 REVERT JUMPDEST POP PUSH1 0xC SLOAD PUSH1 0xFF AND PUSH2 0x922 JUMP JUMPDEST PUSH1 0x0 PUSH1 0x1 PUSH1 0x1 PUSH1 0xE0 SHL SUB NOT DUP3 AND PUSH4 0x80AC58CD PUSH1 0xE0 SHL EQ DUP1 PUSH2 0xA76 JUMPI POP PUSH1 0x1 PUSH1 0x1 PUSH1 0xE0 SHL SUB NOT DUP3 AND PUSH4 0x5B5E139F PUSH1 0xE0 SHL EQ JUMPDEST DUP1 PUSH2 0xA91 JUMPI POP PUSH4 0x1FFC9A7 PUSH1 0xE0 SHL PUSH1 0x1 PUSH1 0x1 PUSH1 0xE0 SHL SUB NOT DUP4 AND EQ JUMPDEST SWAP3 SWAP2 POP POP JUMP JUMPDEST PUSH1 0x60 PUSH1 0x0 DUP1 SLOAD PUSH2 0xAA6 SWAP1 PUSH2 0x34AD JUMP JUMPDEST DUP1 PUSH1 0x1F ADD PUSH1 0x20 DUP1 SWAP2 DIV MUL PUSH1 0x20 ADD PUSH1 0x40 MLOAD SWAP1 DUP2 ADD PUSH1 0x40 MSTORE DUP1 SWAP3 SWAP2 SWAP1 DUP2 DUP2 MSTORE PUSH1 0x20 ADD DUP3 DUP1 SLOAD PUSH2 0xAD2 SWAP1 PUSH2 0x34AD JUMP JUMPDEST DUP1 ISZERO PUSH2 0xB1F JUMPI DUP1 PUSH1 0x1F LT PUSH2 0xAF4 JUMPI PUSH2 0x100 DUP1 DUP4 SLOAD DIV MUL DUP4 MSTORE SWAP2 PUSH1 0x20 ADD SWAP2 PUSH2 0xB1F JUMP JUMPDEST DUP3 ADD SWAP2 SWAP1 PUSH1 0x0 MSTORE PUSH1 0x20 PUSH1 0x0 KECCAK256 SWAP1 JUMPDEST DUP2 SLOAD DUP2 MSTORE SWAP1 PUSH1 0x1 ADD SWAP1 PUSH1 0x20 ADD DUP1 DUP4 GT PUSH2 0xB02 JUMPI DUP3 SWAP1 SUB PUSH1 0x1F AND DUP3 ADD SWAP2 JUMPDEST POP POP POP POP POP SWAP1 POP SWAP1 JUMP JUMPDEST PUSH1 0x0 DUP2 DUP2 MSTORE PUSH1 0x2 PUSH1 0x20 MSTORE PUSH1 0x40 DUP2 KECCAK256 SLOAD PUSH1 0x1 PUSH1 0x1 PUSH1 0xA0 SHL SUB AND PUSH2 0xBA7 JUMPI PUSH1 0x40 MLOAD PUSH3 0x461BCD PUSH1 0xE5 SHL DUP2 MSTORE PUSH1 0x20 PUSH1 0x4 DUP3 ADD MSTORE PUSH1 0x2C PUSH1 0x24 DUP3 ADD MSTORE PUSH32 0x4552433732313A20617070726F76656420717565727920666F72206E6F6E6578 PUSH1 0x44 DUP3 ADD MSTORE PUSH12 0x34B9BA32B73A103A37B5B2B7 PUSH1 0xA1 SHL PUSH1 0x64 DUP3 ADD MSTORE PUSH1 0x84 ADD JUMPDEST PUSH1 0x40 MLOAD DUP1 SWAP2 SUB SWAP1 REVERT JUMPDEST POP PUSH1 0x0 SWAP1 DUP2 MSTORE PUSH1 0x4 PUSH1 0x20 MSTORE PUSH1 0x40 SWAP1 KECCAK256 SLOAD PUSH1 0x1 PUSH1 0x1 PUSH1 0xA0 SHL SUB AND SWAP1 JUMP JUMPDEST PUSH1 0x0 PUSH2 0xBCE DUP3 PUSH2 0x136C JUMP JUMPDEST SWAP1 POP DUP1 PUSH1 0x1 PUSH1 0x1 PUSH1 0xA0 SHL SUB AND DUP4 PUSH1 0x1 PUSH1 0x1 PUSH1 0xA0 SHL SUB AND EQ ISZERO PUSH2 0xC3C JUMPI PUSH1 0x40 MLOAD PUSH3 0x461BCD PUSH1 0xE5 SHL DUP2 MSTORE PUSH1 0x20 PUSH1 0x4 DUP3 ADD MSTORE PUSH1 0x21 PUSH1 0x24 DUP3 ADD MSTORE PUSH32 0x4552433732313A20617070726F76616C20746F2063757272656E74206F776E65 PUSH1 0x44 DUP3 ADD MSTORE PUSH1 0x39 PUSH1 0xF9 SHL PUSH1 0x64 DUP3 ADD MSTORE PUSH1 0x84 ADD PUSH2 0xB9E JUMP JUMPDEST CALLER PUSH1 0x1 PUSH1 0x1 PUSH1 0xA0 SHL SUB DUP3 AND EQ DUP1 PUSH2 0xC58 JUMPI POP PUSH2 0xC58 DUP2 CALLER PUSH2 0x964 JUMP JUMPDEST PUSH2 0xCCA JUMPI PUSH1 0x40 MLOAD PUSH3 0x461BCD PUSH1 0xE5 SHL DUP2 MSTORE PUSH1 0x20 PUSH1 0x4 DUP3 ADD MSTORE PUSH1 0x38 PUSH1 0x24 DUP3 ADD MSTORE PUSH32 0x4552433732313A20617070726F76652063616C6C6572206973206E6F74206F77 PUSH1 0x44 DUP3 ADD MSTORE PUSH32 0x6E6572206E6F7220617070726F76656420666F7220616C6C0000000000000000 PUSH1 0x64 DUP3 ADD MSTORE PUSH1 0x84 ADD PUSH2 0xB9E JUMP JUMPDEST PUSH2 0xCD4 DUP4 DUP4 PUSH2 0x24EE JUMP JUMPDEST POP POP POP JUMP JUMPDEST PUSH1 0x6 SLOAD PUSH1 0x1 PUSH1 0x1 PUSH1 0xA0 SHL SUB PUSH2 0x100 SWAP1 SWAP2 DIV AND CALLER EQ PUSH2 0xD09 JUMPI PUSH1 0x40 MLOAD PUSH3 0x461BCD PUSH1 0xE5 SHL DUP2 MSTORE PUSH1 0x4 ADD PUSH2 0xB9E SWAP1 PUSH2 0x34E8 JUMP JUMPDEST PUSH1 0xC SLOAD PUSH4 0x1000000 SWAP1 DIV PUSH1 0xFF AND ISZERO PUSH2 0xD63 JUMPI PUSH1 0x40 MLOAD PUSH3 0x461BCD PUSH1 0xE5 SHL DUP2 MSTORE PUSH1 0x20 PUSH1 0x4 DUP3 ADD MSTORE PUSH1 0x1A PUSH1 0x24 DUP3 ADD MSTORE PUSH32 0x50726F76656E616E636520686173682069732066726F7A656E2E000000000000 PUSH1 0x44 DUP3 ADD MSTORE PUSH1 0x64 ADD PUSH2 0xB9E JUMP JUMPDEST DUP1 MLOAD PUSH2 0xD76 SWAP1 PUSH1 0x9 SWAP1 PUSH1 0x20 DUP5 ADD SWAP1 PUSH2 0x2F87 JUMP JUMPDEST POP POP JUMP JUMPDEST PUSH1 0x0 PUSH1 0x1 PUSH2 0xD87 PUSH1 0x7 SLOAD SWAP1 JUMP JUMPDEST PUSH2 0xD91 SWAP2 SWAP1 PUSH2 0x3533 JUMP JUMPDEST SWAP1 POP SWAP1 JUMP JUMPDEST PUSH1 0x6 SLOAD PUSH1 0x1 PUSH1 0x1 PUSH1 0xA0 SHL SUB PUSH2 0x100 SWAP1 SWAP2 DIV AND CALLER EQ PUSH2 0xDC6 JUMPI PUSH1 0x40 MLOAD PUSH3 0x461BCD PUSH1 0xE5 SHL DUP2 MSTORE PUSH1 0x4 ADD PUSH2 0xB9E SWAP1 PUSH2 0x34E8 JUMP JUMPDEST PUSH1 0x14 SSTORE JUMP JUMPDEST PUSH2 0xDD6 CALLER JUMPDEST DUP3 PUSH2 0x255C JUMP JUMPDEST PUSH2 0xDF2 JUMPI PUSH1 0x40 MLOAD PUSH3 0x461BCD PUSH1 0xE5 SHL DUP2 MSTORE PUSH1 0x4 ADD PUSH2 0xB9E SWAP1 PUSH2 0x354A JUMP JUMPDEST PUSH2 0xCD4 DUP4 DUP4 DUP4 PUSH2 0x2653 JUMP JUMPDEST PUSH1 0x6 SLOAD PUSH1 0x1 PUSH1 0x1 PUSH1 0xA0 SHL SUB PUSH2 0x100 SWAP1 SWAP2 DIV AND CALLER EQ PUSH2 0xE2D JUMPI PUSH1 0x40 MLOAD PUSH3 0x461BCD PUSH1 0xE5 SHL DUP2 MSTORE PUSH1 0x4 ADD PUSH2 0xB9E SWAP1 PUSH2 0x34E8 JUMP JUMPDEST PUSH1 0x0 SELFBALANCE GT PUSH2 0xE76 JUMPI PUSH1 0x40 MLOAD PUSH3 0x461BCD PUSH1 0xE5 SHL DUP2 MSTORE PUSH1 0x20 PUSH1 0x4 DUP3 ADD MSTORE PUSH1 0x16 PUSH1 0x24 DUP3 ADD MSTORE PUSH22 0x21B7B73A3930B1BA103130B630B731B29034B9901817 PUSH1 0x51 SHL PUSH1 0x44 DUP3 ADD MSTORE PUSH1 0x64 ADD PUSH2 0xB9E JUMP JUMPDEST PUSH1 0xC SLOAD PUSH1 0x0 SWAP1 PUSH5 0x100000000 SWAP1 DIV PUSH1 0x1 PUSH1 0x1 PUSH1 0xA0 SHL SUB AND PUSH2 0xEA5 PUSH2 0x3E8 PUSH2 0xE9F SELFBALANCE PUSH2 0x2BC PUSH2 0x27FE JUMP JUMPDEST SWAP1 PUSH2 0x2811 JUMP JUMPDEST PUSH1 0x40 MLOAD PUSH1 0x0 DUP2 DUP2 DUP2 DUP6 DUP8 GAS CALL SWAP3 POP POP POP RETURNDATASIZE DUP1 PUSH1 0x0 DUP2 EQ PUSH2 0xEE1 JUMPI PUSH1 0x40 MLOAD SWAP2 POP PUSH1 0x1F NOT PUSH1 0x3F RETURNDATASIZE ADD AND DUP3 ADD PUSH1 0x40 MSTORE RETURNDATASIZE DUP3 MSTORE RETURNDATASIZE PUSH1 0x0 PUSH1 0x20 DUP5 ADD RETURNDATACOPY PUSH2 0xEE6 JUMP JUMPDEST PUSH1 0x60 SWAP2 POP JUMPDEST POP POP SWAP1 POP DUP1 PUSH2 0xF2C JUMPI PUSH1 0x40 MLOAD PUSH3 0x461BCD PUSH1 0xE5 SHL DUP2 MSTORE PUSH1 0x20 PUSH1 0x4 DUP3 ADD MSTORE PUSH1 0x12 PUSH1 0x24 DUP3 ADD MSTORE PUSH18 0x1DDA5D1A191C985DDB080C4819985A5B1959 PUSH1 0x72 SHL PUSH1 0x44 DUP3 ADD MSTORE PUSH1 0x64 ADD PUSH2 0xB9E JUMP JUMPDEST PUSH1 0xD SLOAD PUSH1 0x0 SWAP1 PUSH1 0x1 PUSH1 0x1 PUSH1 0xA0 SHL SUB AND PUSH2 0xF4C PUSH2 0x3E8 PUSH2 0xE9F SELFBALANCE PUSH1 0x69 PUSH2 0x27FE JUMP JUMPDEST PUSH1 0x40 MLOAD PUSH1 0x0 DUP2 DUP2 DUP2 DUP6 DUP8 GAS CALL SWAP3 POP POP POP RETURNDATASIZE DUP1 PUSH1 0x0 DUP2 EQ PUSH2 0xF88 JUMPI PUSH1 0x40 MLOAD SWAP2 POP PUSH1 0x1F NOT PUSH1 0x3F RETURNDATASIZE ADD AND DUP3 ADD PUSH1 0x40 MSTORE RETURNDATASIZE DUP3 MSTORE RETURNDATASIZE PUSH1 0x0 PUSH1 0x20 DUP5 ADD RETURNDATACOPY PUSH2 0xF8D JUMP JUMPDEST PUSH1 0x60 SWAP2 POP JUMPDEST POP POP SWAP1 POP DUP1 PUSH2 0xFD3 JUMPI PUSH1 0x40 MLOAD PUSH3 0x461BCD PUSH1 0xE5 SHL DUP2 MSTORE PUSH1 0x20 PUSH1 0x4 DUP3 ADD MSTORE PUSH1 0x12 PUSH1 0x24 DUP3 ADD MSTORE PUSH18 0x1DDA5D1A191C985DDB080C8819985A5B1959 PUSH1 0x72 SHL PUSH1 0x44 DUP3 ADD MSTORE PUSH1 0x64 ADD PUSH2 0xB9E JUMP JUMPDEST PUSH1 0xE SLOAD PUSH1 0x0 SWAP1 PUSH1 0x1 PUSH1 0x1 PUSH1 0xA0 SHL SUB AND PUSH2 0xFF3 PUSH2 0x3E8 PUSH2 0xE9F SELFBALANCE PUSH1 0x69 PUSH2 0x27FE JUMP JUMPDEST PUSH1 0x40 MLOAD PUSH1 0x0 DUP2 DUP2 DUP2 DUP6 DUP8 GAS CALL SWAP3 POP POP POP RETURNDATASIZE DUP1 PUSH1 0x0 DUP2 EQ PUSH2 0x102F JUMPI PUSH1 0x40 MLOAD SWAP2 POP PUSH1 0x1F NOT PUSH1 0x3F RETURNDATASIZE ADD AND DUP3 ADD PUSH1 0x40 MSTORE RETURNDATASIZE DUP3 MSTORE RETURNDATASIZE PUSH1 0x0 PUSH1 0x20 DUP5 ADD RETURNDATACOPY PUSH2 0x1034 JUMP JUMPDEST PUSH1 0x60 SWAP2 POP JUMPDEST POP POP SWAP1 POP DUP1 PUSH2 0x107A JUMPI PUSH1 0x40 MLOAD PUSH3 0x461BCD PUSH1 0xE5 SHL DUP2 MSTORE PUSH1 0x20 PUSH1 0x4 DUP3 ADD MSTORE PUSH1 0x12 PUSH1 0x24 DUP3 ADD MSTORE PUSH18 0x1DDA5D1A191C985DDB080CC819985A5B1959 PUSH1 0x72 SHL PUSH1 0x44 DUP3 ADD MSTORE PUSH1 0x64 ADD PUSH2 0xB9E JUMP JUMPDEST PUSH1 0xF SLOAD PUSH1 0x0 SWAP1 PUSH1 0x1 PUSH1 0x1 PUSH1 0xA0 SHL SUB AND PUSH2 0x109A PUSH2 0x3E8 PUSH2 0xE9F SELFBALANCE PUSH1 0x2D PUSH2 0x27FE JUMP JUMPDEST PUSH1 0x40 MLOAD PUSH1 0x0 DUP2 DUP2 DUP2 DUP6 DUP8 GAS CALL SWAP3 POP POP POP RETURNDATASIZE DUP1 PUSH1 0x0 DUP2 EQ PUSH2 0x10D6 JUMPI PUSH1 0x40 MLOAD SWAP2 POP PUSH1 0x1F NOT PUSH1 0x3F RETURNDATASIZE ADD AND DUP3 ADD PUSH1 0x40 MSTORE RETURNDATASIZE DUP3 MSTORE RETURNDATASIZE PUSH1 0x0 PUSH1 0x20 DUP5 ADD RETURNDATACOPY PUSH2 0x10DB JUMP JUMPDEST PUSH1 0x60 SWAP2 POP JUMPDEST POP POP SWAP1 POP DUP1 PUSH2 0x1121 JUMPI PUSH1 0x40 MLOAD PUSH3 0x461BCD PUSH1 0xE5 SHL DUP2 MSTORE PUSH1 0x20 PUSH1 0x4 DUP3 ADD MSTORE PUSH1 0x12 PUSH1 0x24 DUP3 ADD MSTORE PUSH18 0x1DDA5D1A191C985DDB080D0819985A5B1959 PUSH1 0x72 SHL PUSH1 0x44 DUP3 ADD MSTORE PUSH1 0x64 ADD PUSH2 0xB9E JUMP JUMPDEST PUSH1 0x10 SLOAD PUSH1 0x40 MLOAD PUSH1 0x0 SWAP2 PUSH1 0x1 PUSH1 0x1 PUSH1 0xA0 SHL SUB AND SWAP1 SELFBALANCE SWAP1 DUP4 DUP2 DUP2 DUP2 DUP6 DUP8 GAS CALL SWAP3 POP POP POP RETURNDATASIZE DUP1 PUSH1 0x0 DUP2 EQ PUSH2 0x116E JUMPI PUSH1 0x40 MLOAD SWAP2 POP PUSH1 0x1F NOT PUSH1 0x3F RETURNDATASIZE ADD AND DUP3 ADD PUSH1 0x40 MSTORE RETURNDATASIZE DUP3 MSTORE RETURNDATASIZE PUSH1 0x0 PUSH1 0x20 DUP5 ADD RETURNDATACOPY PUSH2 0x1173 JUMP JUMPDEST PUSH1 0x60 SWAP2 POP JUMPDEST POP POP SWAP1 POP DUP1 PUSH2 0x11B9 JUMPI PUSH1 0x40 MLOAD PUSH3 0x461BCD PUSH1 0xE5 SHL DUP2 MSTORE PUSH1 0x20 PUSH1 0x4 DUP3 ADD MSTORE PUSH1 0x12 PUSH1 0x24 DUP3 ADD MSTORE PUSH18 0x1DDA5D1A191C985DDB080D4819985A5B1959 PUSH1 0x72 SHL PUSH1 0x44 DUP3 ADD MSTORE PUSH1 0x64 ADD PUSH2 0xB9E JUMP JUMPDEST POP POP POP POP POP JUMP JUMPDEST PUSH1 0x6 SLOAD PUSH1 0x1 PUSH1 0x1 PUSH1 0xA0 SHL SUB PUSH2 0x100 SWAP1 SWAP2 DIV AND CALLER EQ PUSH2 0x11F0 JUMPI PUSH1 0x40 MLOAD PUSH3 0x461BCD PUSH1 0xE5 SHL DUP2 MSTORE PUSH1 0x4 ADD PUSH2 0xB9E SWAP1 PUSH2 0x34E8 JUMP JUMPDEST PUSH2 0x11F8 PUSH2 0x281D JUMP JUMPDEST JUMP JUMPDEST PUSH2 0xCD4 DUP4 DUP4 DUP4 PUSH1 0x40 MLOAD DUP1 PUSH1 0x20 ADD PUSH1 0x40 MSTORE DUP1 PUSH1 0x0 DUP2 MSTORE POP PUSH2 0x1F57 JUMP JUMPDEST PUSH2 0x121E CALLER PUSH2 0xDD0 JUMP JUMPDEST PUSH2 0x1283 JUMPI PUSH1 0x40 MLOAD PUSH3 0x461BCD PUSH1 0xE5 SHL DUP2 MSTORE PUSH1 0x20 PUSH1 0x4 DUP3 ADD MSTORE PUSH1 0x30 PUSH1 0x24 DUP3 ADD MSTORE PUSH32 0x4552433732314275726E61626C653A2063616C6C6572206973206E6F74206F77 PUSH1 0x44 DUP3 ADD MSTORE PUSH16 0x1B995C881B9BDC88185C1C1C9BDD9959 PUSH1 0x82 SHL PUSH1 0x64 DUP3 ADD MSTORE PUSH1 0x84 ADD PUSH2 0xB9E JUMP JUMPDEST PUSH2 0x128C DUP2 PUSH2 0x28B0 JUMP JUMPDEST POP JUMP JUMPDEST PUSH1 0x6 SLOAD PUSH1 0x1 PUSH1 0x1 PUSH1 0xA0 SHL SUB PUSH2 0x100 SWAP1 SWAP2 DIV AND CALLER EQ PUSH2 0x12BF JUMPI PUSH1 0x40 MLOAD PUSH3 0x461BCD PUSH1 0xE5 SHL DUP2 MSTORE PUSH1 0x4 ADD PUSH2 0xB9E SWAP1 PUSH2 0x34E8 JUMP JUMPDEST PUSH1 0xC SLOAD PUSH3 0x10000 SWAP1 DIV PUSH1 0xFF AND ISZERO PUSH2 0x130D JUMPI PUSH1 0x40 MLOAD PUSH3 0x461BCD PUSH1 0xE5 SHL DUP2 MSTORE PUSH1 0x20 PUSH1 0x4 DUP3 ADD MSTORE PUSH1 0x12 PUSH1 0x24 DUP3 ADD MSTORE PUSH18 0x2130B9B2AAA9249034B990333937BD32B717 PUSH1 0x71 SHL PUSH1 0x44 DUP3 ADD MSTORE PUSH1 0x64 ADD PUSH2 0xB9E JUMP JUMPDEST DUP1 MLOAD PUSH2 0xD76 SWAP1 PUSH1 0xA SWAP1 PUSH1 0x20 DUP5 ADD SWAP1 PUSH2 0x2F87 JUMP JUMPDEST PUSH1 0x6 SLOAD PUSH1 0x1 PUSH1 0x1 PUSH1 0xA0 SHL SUB PUSH2 0x100 SWAP1 SWAP2 DIV AND CALLER EQ PUSH2 0x1350 JUMPI PUSH1 0x40 MLOAD PUSH3 0x461BCD PUSH1 0xE5 SHL DUP2 MSTORE PUSH1 0x4 ADD PUSH2 0xB9E SWAP1 PUSH2 0x34E8 JUMP JUMPDEST PUSH1 0xC DUP1 SLOAD PUSH1 0xFF SWAP1 SWAP3 AND PUSH2 0x100 MUL PUSH2 0xFF00 NOT SWAP1 SWAP3 AND SWAP2 SWAP1 SWAP2 OR SWAP1 SSTORE JUMP JUMPDEST PUSH1 0x0 DUP2 DUP2 MSTORE PUSH1 0x2 PUSH1 0x20 MSTORE PUSH1 0x40 DUP2 KECCAK256 SLOAD PUSH1 0x1 PUSH1 0x1 PUSH1 0xA0 SHL SUB AND DUP1 PUSH2 0xA91 JUMPI PUSH1 0x40 MLOAD PUSH3 0x461BCD PUSH1 0xE5 SHL DUP2 MSTORE PUSH1 0x20 PUSH1 0x4 DUP3 ADD MSTORE PUSH1 0x29 PUSH1 0x24 DUP3 ADD MSTORE PUSH32 0x4552433732313A206F776E657220717565727920666F72206E6F6E6578697374 PUSH1 0x44 DUP3 ADD MSTORE PUSH9 0x32B73A103A37B5B2B7 PUSH1 0xB9 SHL PUSH1 0x64 DUP3 ADD MSTORE PUSH1 0x84 ADD PUSH2 0xB9E JUMP JUMPDEST PUSH1 0xA DUP1 SLOAD PUSH2 0x13F0 SWAP1 PUSH2 0x34AD JUMP JUMPDEST DUP1 PUSH1 0x1F ADD PUSH1 0x20 DUP1 SWAP2 DIV MUL PUSH1 0x20 ADD PUSH1 0x40 MLOAD SWAP1 DUP2 ADD PUSH1 0x40 MSTORE DUP1 SWAP3 SWAP2 SWAP1 DUP2 DUP2 MSTORE PUSH1 0x20 ADD DUP3 DUP1 SLOAD PUSH2 0x141C SWAP1 PUSH2 0x34AD JUMP JUMPDEST DUP1 ISZERO PUSH2 0x1469 JUMPI DUP1 PUSH1 0x1F LT PUSH2 0x143E JUMPI PUSH2 0x100 DUP1 DUP4 SLOAD DIV MUL DUP4 MSTORE SWAP2 PUSH1 0x20 ADD SWAP2 PUSH2 0x1469 JUMP JUMPDEST DUP3 ADD SWAP2 SWAP1 PUSH1 0x0 MSTORE PUSH1 0x20 PUSH1 0x0 KECCAK256 SWAP1 JUMPDEST DUP2 SLOAD DUP2 MSTORE SWAP1 PUSH1 0x1 ADD SWAP1 PUSH1 0x20 ADD DUP1 DUP4 GT PUSH2 0x144C JUMPI DUP3 SWAP1 SUB PUSH1 0x1F AND DUP3 ADD SWAP2 JUMPDEST POP POP POP POP POP DUP2 JUMP JUMPDEST PUSH1 0x0 DUP1 PUSH2 0x147C PUSH2 0xD7A JUMP JUMPDEST GT PUSH2 0x14C2 JUMPI PUSH1 0x40 MLOAD PUSH3 0x461BCD PUSH1 0xE5 SHL DUP2 MSTORE PUSH1 0x20 PUSH1 0x4 DUP3 ADD MSTORE PUSH1 0x16 PUSH1 0x24 DUP3 ADD MSTORE PUSH22 0x27379031B93CB83A34B21032BC34B9BA39903CB2BA17 PUSH1 0x51 SHL PUSH1 0x44 DUP3 ADD MSTORE PUSH1 0x64 ADD PUSH2 0xB9E JUMP JUMPDEST PUSH2 0xD91 PUSH2 0x614 PUSH2 0xD7A JUMP JUMPDEST PUSH1 0x0 PUSH1 0x1 PUSH1 0x1 PUSH1 0xA0 SHL SUB DUP3 AND PUSH2 0x1538 JUMPI PUSH1 0x40 MLOAD PUSH3 0x461BCD PUSH1 0xE5 SHL DUP2 MSTORE PUSH1 0x20 PUSH1 0x4 DUP3 ADD MSTORE PUSH1 0x2A PUSH1 0x24 DUP3 ADD MSTORE PUSH32 0x4552433732313A2062616C616E636520717565727920666F7220746865207A65 PUSH1 0x44 DUP3 ADD MSTORE PUSH10 0x726F2061646472657373 PUSH1 0xB0 SHL PUSH1 0x64 DUP3 ADD MSTORE PUSH1 0x84 ADD PUSH2 0xB9E JUMP JUMPDEST POP PUSH1 0x1 PUSH1 0x1 PUSH1 0xA0 SHL SUB AND PUSH1 0x0 SWAP1 DUP2 MSTORE PUSH1 0x3 PUSH1 0x20 MSTORE PUSH1 0x40 SWAP1 KECCAK256 SLOAD SWAP1 JUMP JUMPDEST PUSH1 0x6 SLOAD PUSH1 0x1 PUSH1 0x1 PUSH1 0xA0 SHL SUB PUSH2 0x100 SWAP1 SWAP2 DIV AND CALLER EQ PUSH2 0x1584 JUMPI PUSH1 0x40 MLOAD PUSH3 0x461BCD PUSH1 0xE5 SHL DUP2 MSTORE PUSH1 0x4 ADD PUSH2 0xB9E SWAP1 PUSH2 0x34E8 JUMP JUMPDEST PUSH2 0x11F8 PUSH1 0x0 PUSH2 0x2957 JUMP JUMPDEST PUSH1 0x6 SLOAD PUSH1 0x1 PUSH1 0x1 PUSH1 0xA0 SHL SUB PUSH2 0x100 SWAP1 SWAP2 DIV AND CALLER EQ PUSH2 0x15BE JUMPI PUSH1 0x40 MLOAD PUSH3 0x461BCD PUSH1 0xE5 SHL DUP2 MSTORE PUSH1 0x4 ADD PUSH2 0xB9E SWAP1 PUSH2 0x34E8 JUMP JUMPDEST PUSH1 0x11 SSTORE JUMP JUMPDEST PUSH1 0x6 SLOAD PUSH1 0x1 PUSH1 0x1 PUSH1 0xA0 SHL SUB PUSH2 0x100 SWAP1 SWAP2 DIV AND CALLER EQ PUSH2 0x15F3 JUMPI PUSH1 0x40 MLOAD PUSH3 0x461BCD PUSH1 0xE5 SHL DUP2 MSTORE PUSH1 0x4 ADD PUSH2 0xB9E SWAP1 PUSH2 0x34E8 JUMP JUMPDEST PUSH1 0x8 SSTORE JUMP JUMPDEST PUSH1 0x6 SLOAD PUSH1 0x1 PUSH1 0x1 PUSH1 0xA0 SHL SUB PUSH2 0x100 SWAP1 SWAP2 DIV AND CALLER EQ PUSH2 0x1628 JUMPI PUSH1 0x40 MLOAD PUSH3 0x461BCD PUSH1 0xE5 SHL DUP2 MSTORE PUSH1 0x4 ADD PUSH2 0xB9E SWAP1 PUSH2 0x34E8 JUMP JUMPDEST PUSH1 0x0 PUSH1 0x9 DUP1 SLOAD PUSH2 0x1637 SWAP1 PUSH2 0x34AD JUMP JUMPDEST SWAP1 POP GT PUSH2 0x1686 JUMPI PUSH1 0x40 MLOAD PUSH3 0x461BCD PUSH1 0xE5 SHL DUP2 MSTORE PUSH1 0x20 PUSH1 0x4 DUP3 ADD DUP2 SWAP1 MSTORE PUSH1 0x24 DUP3 ADD MSTORE PUSH32 0x50726F76656E616E636520686173682063616E6E6F7420626520656D7074792E PUSH1 0x44 DUP3 ADD MSTORE PUSH1 0x64 ADD PUSH2 0xB9E JUMP JUMPDEST PUSH1 0xC SLOAD PUSH4 0x1000000 SWAP1 DIV PUSH1 0xFF AND ISZERO PUSH2 0x16EB JUMPI PUSH1 0x40 MLOAD PUSH3 0x461BCD PUSH1 0xE5 SHL DUP2 MSTORE PUSH1 0x20 PUSH1 0x4 DUP3 ADD MSTORE PUSH1 0x22 PUSH1 0x24 DUP3 ADD MSTORE PUSH32 0x50726F76656E616E6365206861736820697320616C72656164792066726F7A65 PUSH1 0x44 DUP3 ADD MSTORE PUSH2 0x3717 PUSH1 0xF1 SHL PUSH1 0x64 DUP3 ADD MSTORE PUSH1 0x84 ADD PUSH2 0xB9E JUMP JUMPDEST PUSH1 0xC DUP1 SLOAD PUSH4 0xFF000000 NOT AND PUSH4 0x1000000 OR SWAP1 SSTORE JUMP JUMPDEST PUSH1 0x6 SLOAD PUSH1 0x1 PUSH1 0x1 PUSH1 0xA0 SHL SUB PUSH2 0x100 SWAP1 SWAP2 DIV AND CALLER EQ PUSH2 0x1730 JUMPI PUSH1 0x40 MLOAD PUSH3 0x461BCD PUSH1 0xE5 SHL DUP2 MSTORE PUSH1 0x4 ADD PUSH2 0xB9E SWAP1 PUSH2 0x34E8 JUMP JUMPDEST PUSH2 0x11F8 PUSH2 0x29B1 JUMP JUMPDEST PUSH1 0x60 PUSH1 0x1 DUP1 SLOAD PUSH2 0xAA6 SWAP1 PUSH2 0x34AD JUMP JUMPDEST PUSH2 0xD76 CALLER DUP4 DUP4 PUSH2 0x2A09 JUMP JUMPDEST PUSH1 0x6 SLOAD PUSH1 0x1 PUSH1 0x1 PUSH1 0xA0 SHL SUB PUSH2 0x100 SWAP1 SWAP2 DIV AND CALLER EQ PUSH2 0x1782 JUMPI PUSH1 0x40 MLOAD PUSH3 0x461BCD PUSH1 0xE5 SHL DUP2 MSTORE PUSH1 0x4 ADD PUSH2 0xB9E SWAP1 PUSH2 0x34E8 JUMP JUMPDEST PUSH1 0xC SLOAD PUSH4 0x1000000 SWAP1 DIV PUSH1 0xFF AND ISZERO ISZERO PUSH1 0x1 EQ PUSH2 0x17B0 JUMPI PUSH1 0x40 MLOAD PUSH3 0x461BCD PUSH1 0xE5 SHL DUP2 MSTORE PUSH1 0x4 ADD PUSH2 0xB9E SWAP1 PUSH2 0x359B JUMP JUMPDEST PUSH1 0xC SLOAD PUSH1 0x1 PUSH1 0xFF SWAP1 SWAP2 AND LT PUSH2 0x17FD JUMPI PUSH1 0x40 MLOAD PUSH3 0x461BCD PUSH1 0xE5 SHL DUP2 MSTORE PUSH1 0x20 PUSH1 0x4 DUP3 ADD MSTORE PUSH1 0x13 PUSH1 0x24 DUP3 ADD MSTORE PUSH19 0x2830B9BA1030B4B9323937B810383430B9B297 PUSH1 0x69 SHL PUSH1 0x44 DUP3 ADD MSTORE PUSH1 0x64 ADD PUSH2 0xB9E JUMP JUMPDEST PUSH1 0xC SLOAD PUSH1 0xFF PUSH2 0x100 SWAP1 SWAP2 DIV DUP2 AND SWAP1 DUP4 AND GT ISZERO PUSH2 0x186E JUMPI PUSH1 0x40 MLOAD PUSH3 0x461BCD PUSH1 0xE5 SHL DUP2 MSTORE PUSH1 0x20 PUSH1 0x4 DUP3 ADD MSTORE PUSH1 0x2A PUSH1 0x24 DUP3 ADD MSTORE PUSH32 0x45786365656473206D617820616C6C6F77656420616D6F756E74207065722074 PUSH1 0x44 DUP3 ADD MSTORE PUSH10 0x3930B739B0B1BA34B7B7 PUSH1 0xB1 SHL PUSH1 0x64 DUP3 ADD MSTORE PUSH1 0x84 ADD PUSH2 0xB9E JUMP JUMPDEST PUSH1 0x0 DUP3 PUSH1 0xFF AND GT PUSH2 0x18CF JUMPI PUSH1 0x40 MLOAD PUSH3 0x461BCD PUSH1 0xE5 SHL DUP2 MSTORE PUSH1 0x20 PUSH1 0x4 DUP3 ADD MSTORE PUSH1 0x25 PUSH1 0x24 DUP3 ADD MSTORE PUSH32 0x41697264726F7020616D6F756E74206D75737420626520677265617465722074 PUSH1 0x44 DUP3 ADD MSTORE PUSH5 0x68616E203 PUSH1 0xDC SHL PUSH1 0x64 DUP3 ADD MSTORE PUSH1 0x84 ADD PUSH2 0xB9E JUMP JUMPDEST PUSH1 0x12 SLOAD DUP3 PUSH1 0xFF AND PUSH2 0x18DE PUSH2 0xD7A JUMP JUMPDEST PUSH2 0x18E8 SWAP2 SWAP1 PUSH2 0x35F8 JUMP JUMPDEST GT ISZERO PUSH2 0x1948 JUMPI PUSH1 0x40 MLOAD PUSH3 0x461BCD PUSH1 0xE5 SHL DUP2 MSTORE PUSH1 0x20 PUSH1 0x4 DUP3 ADD MSTORE PUSH1 0x29 PUSH1 0x24 DUP3 ADD MSTORE PUSH32 0x4D696E7420616D6F756E742077696C6C206578636565642077686974656C6973 PUSH1 0x44 DUP3 ADD MSTORE PUSH9 0x3A1039BAB838363C97 PUSH1 0xB9 SHL PUSH1 0x64 DUP3 ADD MSTORE PUSH1 0x84 ADD PUSH2 0xB9E JUMP JUMPDEST PUSH1 0x1 JUMPDEST DUP3 PUSH1 0xFF AND DUP2 GT PUSH2 0xCD4 JUMPI PUSH2 0x1967 DUP3 PUSH2 0x1962 PUSH1 0x7 SLOAD SWAP1 JUMP JUMPDEST PUSH2 0x2AD8 JUMP JUMPDEST PUSH2 0x1975 PUSH1 0x7 DUP1 SLOAD PUSH1 0x1 ADD SWAP1 SSTORE JUMP JUMPDEST DUP1 PUSH2 0x197F DUP2 PUSH2 0x3610 JUMP JUMPDEST SWAP2 POP POP PUSH2 0x194B JUMP JUMPDEST PUSH1 0x6 SLOAD PUSH1 0xFF AND ISZERO PUSH2 0x19AA JUMPI PUSH1 0x40 MLOAD PUSH3 0x461BCD PUSH1 0xE5 SHL DUP2 MSTORE PUSH1 0x4 ADD PUSH2 0xB9E SWAP1 PUSH2 0x362B JUMP JUMPDEST PUSH1 0xC SLOAD PUSH1 0xFF AND PUSH2 0x1A10 JUMPI PUSH1 0x40 MLOAD PUSH3 0x461BCD PUSH1 0xE5 SHL DUP2 MSTORE PUSH1 0x20 PUSH1 0x4 DUP3 ADD MSTORE PUSH1 0x2B PUSH1 0x24 DUP3 ADD MSTORE PUSH32 0x4D696E74696E67206E6F7420696E697469617465642E2043757272656E6C7920 PUSH1 0x44 DUP3 ADD MSTORE PUSH11 0x37B71039BA30B3B2901817 PUSH1 0xA9 SHL PUSH1 0x64 DUP3 ADD MSTORE PUSH1 0x84 ADD PUSH2 0xB9E JUMP JUMPDEST PUSH1 0x0 DUP3 PUSH1 0xFF AND GT PUSH2 0x1A6F JUMPI PUSH1 0x40 MLOAD PUSH3 0x461BCD PUSH1 0xE5 SHL DUP2 MSTORE PUSH1 0x20 PUSH1 0x4 DUP3 ADD MSTORE PUSH1 0x23 PUSH1 0x24 DUP3 ADD MSTORE PUSH32 0x4D696E7420616D6F756E74206D7573742062652067726561746572207468616E PUSH1 0x44 DUP3 ADD MSTORE PUSH3 0x101817 PUSH1 0xE9 SHL PUSH1 0x64 DUP3 ADD MSTORE PUSH1 0x84 ADD PUSH2 0xB9E JUMP JUMPDEST PUSH1 0xC SLOAD PUSH1 0xFF PUSH2 0x100 SWAP1 SWAP2 DIV DUP2 AND SWAP1 DUP4 AND GT ISZERO PUSH2 0x1AE1 JUMPI PUSH1 0x40 MLOAD PUSH3 0x461BCD PUSH1 0xE5 SHL DUP2 MSTORE PUSH1 0x20 PUSH1 0x4 DUP3 ADD MSTORE PUSH1 0x2B PUSH1 0x24 DUP3 ADD MSTORE PUSH32 0x45786365656473206D617820616C6C6F77656420616D6F756E74207065722074 PUSH1 0x44 DUP3 ADD MSTORE PUSH11 0x3930B739B0B1BA34B7B717 PUSH1 0xA9 SHL PUSH1 0x64 DUP3 ADD MSTORE PUSH1 0x84 ADD PUSH2 0xB9E JUMP JUMPDEST PUSH1 0xC SLOAD PUSH1 0xFF AND PUSH1 0x1 EQ ISZERO PUSH2 0x1D45 JUMPI PUSH1 0x8 SLOAD PUSH1 0x40 MLOAD PUSH12 0xFFFFFFFFFFFFFFFFFFFFFFFF NOT CALLER PUSH1 0x60 SHL AND PUSH1 0x20 DUP3 ADD MSTORE PUSH2 0x1B3B SWAP2 SWAP1 PUSH1 0x34 ADD PUSH1 0x40 MLOAD PUSH1 0x20 DUP2 DUP4 SUB SUB DUP2 MSTORE SWAP1 PUSH1 0x40 MSTORE DUP1 MLOAD SWAP1 PUSH1 0x20 ADD KECCAK256 DUP4 PUSH2 0x2AF2 SWAP1 SWAP3 SWAP2 SWAP1 PUSH4 0xFFFFFFFF AND JUMP JUMPDEST PUSH2 0x1B87 JUMPI PUSH1 0x40 MLOAD PUSH3 0x461BCD PUSH1 0xE5 SHL DUP2 MSTORE PUSH1 0x20 PUSH1 0x4 DUP3 ADD MSTORE PUSH1 0x18 PUSH1 0x24 DUP3 ADD MSTORE PUSH32 0x41646472657373206E6F742077686974656C69737465642E0000000000000000 PUSH1 0x44 DUP3 ADD MSTORE PUSH1 0x64 ADD PUSH2 0xB9E JUMP JUMPDEST PUSH1 0x2 DUP3 PUSH1 0xFF AND LT PUSH2 0x1BD3 JUMPI PUSH1 0x40 MLOAD PUSH3 0x461BCD PUSH1 0xE5 SHL DUP2 MSTORE PUSH1 0x20 PUSH1 0x4 DUP3 ADD MSTORE PUSH1 0x16 PUSH1 0x24 DUP3 ADD MSTORE PUSH22 0x26B4B73A1030B6B7BAB73A1036BAB9BA103132901897 PUSH1 0x51 SHL PUSH1 0x44 DUP3 ADD MSTORE PUSH1 0x64 ADD PUSH2 0xB9E JUMP JUMPDEST PUSH1 0x11 SLOAD PUSH2 0x1BE3 SWAP1 PUSH1 0xFF DUP5 AND PUSH2 0x27FE JUMP JUMPDEST CALLVALUE LT ISZERO PUSH2 0x1C2B JUMPI PUSH1 0x40 MLOAD PUSH3 0x461BCD PUSH1 0xE5 SHL DUP2 MSTORE PUSH1 0x20 PUSH1 0x4 DUP3 ADD MSTORE PUSH1 0x16 PUSH1 0x24 DUP3 ADD MSTORE PUSH22 0x2737BA1032B737BAB3B41032BA3432B91039B2B73A17 PUSH1 0x51 SHL PUSH1 0x44 DUP3 ADD MSTORE PUSH1 0x64 ADD PUSH2 0xB9E JUMP JUMPDEST PUSH1 0x12 SLOAD DUP3 PUSH1 0xFF AND PUSH2 0x1C3A PUSH2 0xD7A JUMP JUMPDEST PUSH2 0x1C44 SWAP2 SWAP1 PUSH2 0x35F8 JUMP JUMPDEST GT ISZERO PUSH2 0x1CA0 JUMPI PUSH1 0x40 MLOAD PUSH3 0x461BCD PUSH1 0xE5 SHL DUP2 MSTORE PUSH1 0x20 PUSH1 0x4 DUP3 ADD MSTORE PUSH1 0x25 PUSH1 0x24 DUP3 ADD MSTORE PUSH32 0x5472616E73616374696F6E20657863656564732077686974656C697374207375 PUSH1 0x44 DUP3 ADD MSTORE PUSH5 0x3838363C97 PUSH1 0xD9 SHL PUSH1 0x64 DUP3 ADD MSTORE PUSH1 0x84 ADD PUSH2 0xB9E JUMP JUMPDEST CALLER PUSH1 0x0 SWAP1 DUP2 MSTORE PUSH1 0x13 PUSH1 0x20 MSTORE PUSH1 0x40 SWAP1 KECCAK256 SLOAD PUSH1 0xFF AND ISZERO PUSH2 0x1D26 JUMPI PUSH1 0x40 MLOAD PUSH3 0x461BCD PUSH1 0xE5 SHL DUP2 MSTORE PUSH1 0x20 PUSH1 0x4 DUP3 ADD MSTORE PUSH1 0x39 PUSH1 0x24 DUP3 ADD MSTORE PUSH32 0x546869732077686974656C697374656420616464726573732077617320616C72 PUSH1 0x44 DUP3 ADD MSTORE PUSH32 0x65616479207573656420666F72207468656972206D696E742E00000000000000 PUSH1 0x64 DUP3 ADD MSTORE PUSH1 0x84 ADD PUSH2 0xB9E JUMP JUMPDEST CALLER PUSH1 0x0 SWAP1 DUP2 MSTORE PUSH1 0x13 PUSH1 0x20 MSTORE PUSH1 0x40 SWAP1 KECCAK256 DUP1 SLOAD PUSH1 0xFF NOT AND PUSH1 0x1 OR SWAP1 SSTORE PUSH2 0x1F1D JUMP JUMPDEST PUSH1 0xC SLOAD PUSH1 0xFF AND PUSH1 0x2 EQ ISZERO PUSH2 0x1E51 JUMPI PUSH1 0x6 SLOAD PUSH1 0x1 PUSH1 0x1 PUSH1 0xA0 SHL SUB PUSH2 0x100 SWAP1 SWAP2 DIV AND CALLER EQ PUSH2 0x1DBD JUMPI PUSH1 0x40 MLOAD PUSH3 0x461BCD PUSH1 0xE5 SHL DUP2 MSTORE PUSH1 0x20 PUSH1 0x4 DUP3 ADD MSTORE PUSH1 0x21 PUSH1 0x24 DUP3 ADD MSTORE PUSH32 0x4F6E6C79204F776E65722063616E206D696E7420617420746869732073746167 PUSH1 0x44 DUP3 ADD MSTORE PUSH1 0x65 PUSH1 0xF8 SHL PUSH1 0x64 DUP3 ADD MSTORE PUSH1 0x84 ADD PUSH2 0xB9E JUMP JUMPDEST PUSH1 0x14 SLOAD PUSH1 0x15 SLOAD PUSH2 0x1DD0 SWAP1 PUSH1 0xFF DUP6 AND PUSH2 0x35F8 JUMP JUMPDEST GT ISZERO PUSH2 0x1E31 JUMPI PUSH1 0x40 MLOAD PUSH3 0x461BCD PUSH1 0xE5 SHL DUP2 MSTORE PUSH1 0x20 PUSH1 0x4 DUP3 ADD MSTORE PUSH1 0x2A PUSH1 0x24 DUP3 ADD MSTORE PUSH32 0x5472616E73616374696F6E206578636565647320746F74616C207465616D2D73 PUSH1 0x44 DUP3 ADD MSTORE PUSH10 0x616C6520737570706C79 PUSH1 0xB0 SHL PUSH1 0x64 DUP3 ADD MSTORE PUSH1 0x84 ADD PUSH2 0xB9E JUMP JUMPDEST DUP2 PUSH1 0xFF AND PUSH1 0x15 PUSH1 0x0 DUP3 DUP3 SLOAD PUSH2 0x1E46 SWAP2 SWAP1 PUSH2 0x35F8 JUMP JUMPDEST SWAP1 SWAP2 SSTORE POP PUSH2 0x1F1D SWAP1 POP JUMP JUMPDEST PUSH1 0x11 SLOAD PUSH2 0x1E61 SWAP1 PUSH1 0xFF DUP5 AND PUSH2 0x27FE JUMP JUMPDEST CALLVALUE LT ISZERO PUSH2 0x1EA8 JUMPI PUSH1 0x40 MLOAD PUSH3 0x461BCD PUSH1 0xE5 SHL DUP2 MSTORE PUSH1 0x20 PUSH1 0x4 DUP3 ADD MSTORE PUSH1 0x15 PUSH1 0x24 DUP3 ADD MSTORE PUSH21 0x139BDD08195B9BDD59DA08195D1A195C881CD95B9D PUSH1 0x5A SHL PUSH1 0x44 DUP3 ADD MSTORE PUSH1 0x64 ADD PUSH2 0xB9E JUMP JUMPDEST PUSH1 0x16 SLOAD DUP3 PUSH1 0xFF AND PUSH2 0x1EB7 PUSH2 0xD7A JUMP JUMPDEST PUSH2 0x1EC1 SWAP2 SWAP1 PUSH2 0x35F8 JUMP JUMPDEST GT ISZERO PUSH2 0x1F1D JUMPI PUSH1 0x40 MLOAD PUSH3 0x461BCD PUSH1 0xE5 SHL DUP2 MSTORE PUSH1 0x20 PUSH1 0x4 DUP3 ADD MSTORE PUSH1 0x25 PUSH1 0x24 DUP3 ADD MSTORE PUSH32 0x5472616E73616374696F6E206578636565647320746F74616C2073616C652073 PUSH1 0x44 DUP3 ADD MSTORE PUSH5 0x7570706C79 PUSH1 0xD8 SHL PUSH1 0x64 DUP3 ADD MSTORE PUSH1 0x84 ADD PUSH2 0xB9E JUMP JUMPDEST PUSH1 0x1 JUMPDEST DUP3 PUSH1 0xFF AND DUP2 GT PUSH2 0xCD4 JUMPI PUSH2 0x1F37 CALLER PUSH2 0x1962 PUSH1 0x7 SLOAD SWAP1 JUMP JUMPDEST PUSH2 0x1F45 PUSH1 0x7 DUP1 SLOAD PUSH1 0x1 ADD SWAP1 SSTORE JUMP JUMPDEST DUP1 PUSH2 0x1F4F DUP2 PUSH2 0x3610 JUMP JUMPDEST SWAP2 POP POP PUSH2 0x1F20 JUMP JUMPDEST PUSH2 0x1F61 CALLER DUP4 PUSH2 0x255C JUMP JUMPDEST PUSH2 0x1F7D JUMPI PUSH1 0x40 MLOAD PUSH3 0x461BCD PUSH1 0xE5 SHL DUP2 MSTORE PUSH1 0x4 ADD PUSH2 0xB9E SWAP1 PUSH2 0x354A JUMP JUMPDEST PUSH2 0x1F89 DUP5 DUP5 DUP5 DUP5 PUSH2 0x2B08 JUMP JUMPDEST POP POP POP POP JUMP JUMPDEST PUSH1 0xB DUP1 SLOAD PUSH2 0x13F0 SWAP1 PUSH2 0x34AD JUMP JUMPDEST PUSH1 0x9 DUP1 SLOAD PUSH2 0x13F0 SWAP1 PUSH2 0x34AD JUMP JUMPDEST PUSH1 0x0 DUP2 DUP2 MSTORE PUSH1 0x2 PUSH1 0x20 MSTORE PUSH1 0x40 SWAP1 KECCAK256 SLOAD PUSH1 0x60 SWAP1 PUSH1 0x1 PUSH1 0x1 PUSH1 0xA0 SHL SUB AND PUSH2 0x2028 JUMPI PUSH1 0x40 MLOAD PUSH3 0x461BCD PUSH1 0xE5 SHL DUP2 MSTORE PUSH1 0x20 PUSH1 0x4 DUP3 ADD MSTORE PUSH1 0x2F PUSH1 0x24 DUP3 ADD MSTORE PUSH32 0x4552433732314D657461646174613A2055524920717565727920666F72206E6F PUSH1 0x44 DUP3 ADD MSTORE PUSH15 0x3732BC34B9BA32B73A103A37B5B2B7 PUSH1 0x89 SHL PUSH1 0x64 DUP3 ADD MSTORE PUSH1 0x84 ADD PUSH2 0xB9E JUMP JUMPDEST PUSH1 0xA PUSH2 0x2033 DUP4 PUSH2 0x2B3B JUMP JUMPDEST PUSH1 0xB PUSH1 0x40 MLOAD PUSH1 0x20 ADD PUSH2 0x2047 SWAP4 SWAP3 SWAP2 SWAP1 PUSH2 0x36EF JUMP JUMPDEST PUSH1 0x40 MLOAD PUSH1 0x20 DUP2 DUP4 SUB SUB DUP2 MSTORE SWAP1 PUSH1 0x40 MSTORE SWAP1 POP SWAP2 SWAP1 POP JUMP JUMPDEST PUSH1 0x6 SLOAD PUSH1 0x1 PUSH1 0x1 PUSH1 0xA0 SHL SUB PUSH2 0x100 SWAP1 SWAP2 DIV AND CALLER EQ PUSH2 0x208D JUMPI PUSH1 0x40 MLOAD PUSH3 0x461BCD PUSH1 0xE5 SHL DUP2 MSTORE PUSH1 0x4 ADD PUSH2 0xB9E SWAP1 PUSH2 0x34E8 JUMP JUMPDEST PUSH1 0xC SLOAD PUSH4 0x1000000 SWAP1 DIV PUSH1 0xFF AND ISZERO ISZERO PUSH1 0x1 EQ PUSH2 0x20BB JUMPI PUSH1 0x40 MLOAD PUSH3 0x461BCD PUSH1 0xE5 SHL DUP2 MSTORE PUSH1 0x4 ADD PUSH2 0xB9E SWAP1 PUSH2 0x359B JUMP JUMPDEST PUSH1 0xC SLOAD PUSH1 0xFF AND PUSH2 0x2105 JUMPI PUSH1 0x40 MLOAD PUSH3 0x461BCD PUSH1 0xE5 SHL DUP2 MSTORE PUSH1 0x20 PUSH1 0x4 DUP3 ADD MSTORE PUSH1 0x15 PUSH1 0x24 DUP3 ADD MSTORE PUSH21 0x139BC81CDD1859D95CC81899599BDC99481A5B9A5D PUSH1 0x5A SHL PUSH1 0x44 DUP3 ADD MSTORE PUSH1 0x64 ADD PUSH2 0xB9E JUMP JUMPDEST PUSH1 0xC DUP1 SLOAD PUSH1 0xFF AND SWAP1 PUSH1 0x0 PUSH2 0x2118 DUP4 PUSH2 0x3722 JUMP JUMPDEST SWAP2 SWAP1 PUSH2 0x100 EXP DUP2 SLOAD DUP2 PUSH1 0xFF MUL NOT AND SWAP1 DUP4 PUSH1 0xFF AND MUL OR SWAP1 SSTORE POP POP JUMP JUMPDEST PUSH1 0x0 DUP1 PUSH2 0x213E PUSH2 0xD7A JUMP JUMPDEST GT PUSH2 0x2184 JUMPI PUSH1 0x40 MLOAD PUSH3 0x461BCD PUSH1 0xE5 SHL DUP2 MSTORE PUSH1 0x20 PUSH1 0x4 DUP3 ADD MSTORE PUSH1 0x16 PUSH1 0x24 DUP3 ADD MSTORE PUSH22 0x27379031B93CB83A34B21032BC34B9BA39903CB2BA17 PUSH1 0x51 SHL PUSH1 0x44 DUP3 ADD MSTORE PUSH1 0x64 ADD PUSH2 0xB9E JUMP JUMPDEST PUSH2 0xD91 PUSH2 0xD7A JUMP JUMPDEST PUSH1 0x6 SLOAD PUSH1 0x1 PUSH1 0x1 PUSH1 0xA0 SHL SUB PUSH2 0x100 SWAP1 SWAP2 DIV AND CALLER EQ PUSH2 0x21BC JUMPI PUSH1 0x40 MLOAD PUSH3 0x461BCD PUSH1 0xE5 SHL DUP2 MSTORE PUSH1 0x4 ADD PUSH2 0xB9E SWAP1 PUSH2 0x34E8 JUMP JUMPDEST DUP1 MLOAD PUSH2 0xD76 SWAP1 PUSH1 0xB SWAP1 PUSH1 0x20 DUP5 ADD SWAP1 PUSH2 0x2F87 JUMP JUMPDEST PUSH1 0x0 PUSH2 0x21D9 PUSH2 0xD7A JUMP JUMPDEST PUSH1 0x16 SLOAD PUSH2 0xD91 SWAP2 SWAP1 PUSH2 0x3533 JUMP JUMPDEST PUSH1 0x6 SLOAD PUSH1 0x1 PUSH1 0x1 PUSH1 0xA0 SHL SUB PUSH2 0x100 SWAP1 SWAP2 DIV AND CALLER EQ PUSH2 0x2216 JUMPI PUSH1 0x40 MLOAD PUSH3 0x461BCD PUSH1 0xE5 SHL DUP2 MSTORE PUSH1 0x4 ADD PUSH2 0xB9E SWAP1 PUSH2 0x34E8 JUMP JUMPDEST PUSH1 0x0 PUSH1 0xA DUP1 SLOAD PUSH2 0x2225 SWAP1 PUSH2 0x34AD JUMP JUMPDEST SWAP1 POP GT PUSH2 0x2274 JUMPI PUSH1 0x40 MLOAD PUSH3 0x461BCD PUSH1 0xE5 SHL DUP2 MSTORE PUSH1 0x20 PUSH1 0x4 DUP3 ADD MSTORE PUSH1 0x17 PUSH1 0x24 DUP3 ADD MSTORE PUSH32 0x626173655552492063616E6E6F7420626520656D707479000000000000000000 PUSH1 0x44 DUP3 ADD MSTORE PUSH1 0x64 ADD PUSH2 0xB9E JUMP JUMPDEST PUSH1 0xC SLOAD PUSH3 0x10000 SWAP1 DIV PUSH1 0xFF AND ISZERO PUSH2 0x22CD JUMPI PUSH1 0x40 MLOAD PUSH3 0x461BCD PUSH1 0xE5 SHL DUP2 MSTORE PUSH1 0x20 PUSH1 0x4 DUP3 ADD MSTORE PUSH1 0x1A PUSH1 0x24 DUP3 ADD MSTORE PUSH32 0x4261736555524920697320616C72656164792066726F7A656E2E000000000000 PUSH1 0x44 DUP3 ADD MSTORE PUSH1 0x64 ADD PUSH2 0xB9E JUMP JUMPDEST PUSH1 0xC DUP1 SLOAD PUSH3 0xFF0000 NOT AND PUSH3 0x10000 OR SWAP1 SSTORE JUMP JUMPDEST PUSH1 0x6 SLOAD PUSH1 0x1 PUSH1 0x1 PUSH1 0xA0 SHL SUB PUSH2 0x100 SWAP1 SWAP2 DIV AND CALLER EQ PUSH2 0x2310 JUMPI PUSH1 0x40 MLOAD PUSH3 0x461BCD PUSH1 0xE5 SHL DUP2 MSTORE PUSH1 0x4 ADD PUSH2 0xB9E SWAP1 PUSH2 0x34E8 JUMP JUMPDEST PUSH1 0xC DUP1 SLOAD PUSH1 0x1 PUSH1 0x1 PUSH1 0xA0 SHL SUB SWAP7 DUP8 AND PUSH5 0x100000000 MUL PUSH5 0x100000000 PUSH1 0x1 PUSH1 0xC0 SHL SUB NOT SWAP1 SWAP2 AND OR SWAP1 SSTORE PUSH1 0xD DUP1 SLOAD SWAP5 DUP7 AND PUSH1 0x1 PUSH1 0x1 PUSH1 0xA0 SHL SUB NOT SWAP6 DUP7 AND OR SWAP1 SSTORE PUSH1 0xE DUP1 SLOAD SWAP4 DUP7 AND SWAP4 DUP6 AND SWAP4 SWAP1 SWAP4 OR SWAP1 SWAP3 SSTORE PUSH1 0xF DUP1 SLOAD SWAP2 DUP6 AND SWAP2 DUP5 AND SWAP2 SWAP1 SWAP2 OR SWAP1 SSTORE PUSH1 0x10 DUP1 SLOAD SWAP2 SWAP1 SWAP4 AND SWAP2 AND OR SWAP1 SSTORE JUMP JUMPDEST PUSH1 0x6 SLOAD PUSH1 0x1 PUSH1 0x1 PUSH1 0xA0 SHL SUB PUSH2 0x100 SWAP1 SWAP2 DIV AND CALLER EQ PUSH2 0x23AF JUMPI PUSH1 0x40 MLOAD PUSH3 0x461BCD PUSH1 0xE5 SHL DUP2 MSTORE PUSH1 0x4 ADD PUSH2 0xB9E SWAP1 PUSH2 0x34E8 JUMP JUMPDEST PUSH1 0xC SLOAD PUSH4 0x1000000 SWAP1 DIV PUSH1 0xFF AND ISZERO ISZERO PUSH1 0x1 EQ PUSH2 0x23DD JUMPI PUSH1 0x40 MLOAD PUSH3 0x461BCD PUSH1 0xE5 SHL DUP2 MSTORE PUSH1 0x4 ADD PUSH2 0xB9E SWAP1 PUSH2 0x359B JUMP JUMPDEST PUSH1 0xC SLOAD PUSH1 0x4 PUSH1 0xFF SWAP1 SWAP2 AND LT PUSH2 0x2434 JUMPI PUSH1 0x40 MLOAD PUSH3 0x461BCD PUSH1 0xE5 SHL DUP2 MSTORE PUSH1 0x20 PUSH1 0x4 DUP3 ADD MSTORE PUSH1 0x1B PUSH1 0x24 DUP3 ADD MSTORE PUSH32 0x4E6F20737461676573206166746572207075626C69632073616C650000000000 PUSH1 0x44 DUP3 ADD MSTORE PUSH1 0x64 ADD PUSH2 0xB9E JUMP JUMPDEST PUSH1 0xC DUP1 SLOAD PUSH1 0xFF AND SWAP1 PUSH1 0x0 PUSH2 0x2118 DUP4 PUSH2 0x373F JUMP JUMPDEST PUSH1 0x6 SLOAD PUSH1 0x1 PUSH1 0x1 PUSH1 0xA0 SHL SUB PUSH2 0x100 SWAP1 SWAP2 DIV AND CALLER EQ PUSH2 0x2477 JUMPI PUSH1 0x40 MLOAD PUSH3 0x461BCD PUSH1 0xE5 SHL DUP2 MSTORE PUSH1 0x4 ADD PUSH2 0xB9E SWAP1 PUSH2 0x34E8 JUMP JUMPDEST PUSH1 0x1 PUSH1 0x1 PUSH1 0xA0 SHL SUB DUP2 AND PUSH2 0x24DC JUMPI PUSH1 0x40 MLOAD PUSH3 0x461BCD PUSH1 0xE5 SHL DUP2 MSTORE PUSH1 0x20 PUSH1 0x4 DUP3 ADD MSTORE PUSH1 0x26 PUSH1 0x24 DUP3 ADD MSTORE PUSH32 0x4F776E61626C653A206E6577206F776E657220697320746865207A65726F2061 PUSH1 0x44 DUP3 ADD MSTORE PUSH6 0x646472657373 PUSH1 0xD0 SHL PUSH1 0x64 DUP3 ADD MSTORE PUSH1 0x84 ADD PUSH2 0xB9E JUMP JUMPDEST PUSH2 0x128C DUP2 PUSH2 0x2957 JUMP JUMPDEST DUP1 SLOAD PUSH1 0x1 ADD SWAP1 SSTORE JUMP JUMPDEST PUSH1 0x0 DUP2 DUP2 MSTORE PUSH1 0x4 PUSH1 0x20 MSTORE PUSH1 0x40 SWAP1 KECCAK256 DUP1 SLOAD PUSH1 0x1 PUSH1 0x1 PUSH1 0xA0 SHL SUB NOT AND PUSH1 0x1 PUSH1 0x1 PUSH1 0xA0 SHL SUB DUP5 AND SWAP1 DUP2 OR SWAP1 SWAP2 SSTORE DUP2 SWAP1 PUSH2 0x2523 DUP3 PUSH2 0x136C JUMP JUMPDEST PUSH1 0x1 PUSH1 0x1 PUSH1 0xA0 SHL SUB AND PUSH32 0x8C5BE1E5EBEC7D5BD14F71427D1E84F3DD0314C0F7B2291E5B200AC8C7C3B925 PUSH1 0x40 MLOAD PUSH1 0x40 MLOAD DUP1 SWAP2 SUB SWAP1 LOG4 POP POP JUMP JUMPDEST PUSH1 0x0 DUP2 DUP2 MSTORE PUSH1 0x2 PUSH1 0x20 MSTORE PUSH1 0x40 DUP2 KECCAK256 SLOAD PUSH1 0x1 PUSH1 0x1 PUSH1 0xA0 SHL SUB AND PUSH2 0x25D5 JUMPI PUSH1 0x40 MLOAD PUSH3 0x461BCD PUSH1 0xE5 SHL DUP2 MSTORE PUSH1 0x20 PUSH1 0x4 DUP3 ADD MSTORE PUSH1 0x2C PUSH1 0x24 DUP3 ADD MSTORE PUSH32 0x4552433732313A206F70657261746F7220717565727920666F72206E6F6E6578 PUSH1 0x44 DUP3 ADD MSTORE PUSH12 0x34B9BA32B73A103A37B5B2B7 PUSH1 0xA1 SHL PUSH1 0x64 DUP3 ADD MSTORE PUSH1 0x84 ADD PUSH2 0xB9E JUMP JUMPDEST PUSH1 0x0 PUSH2 0x25E0 DUP4 PUSH2 0x136C JUMP JUMPDEST SWAP1 POP DUP1 PUSH1 0x1 PUSH1 0x1 PUSH1 0xA0 SHL SUB AND DUP5 PUSH1 0x1 PUSH1 0x1 PUSH1 0xA0 SHL SUB AND EQ DUP1 PUSH2 0x261B JUMPI POP DUP4 PUSH1 0x1 PUSH1 0x1 PUSH1 0xA0 SHL SUB AND PUSH2 0x2610 DUP5 PUSH2 0xB29 JUMP JUMPDEST PUSH1 0x1 PUSH1 0x1 PUSH1 0xA0 SHL SUB AND EQ JUMPDEST DUP1 PUSH2 0x264B JUMPI POP PUSH1 0x1 PUSH1 0x1 PUSH1 0xA0 SHL SUB DUP1 DUP3 AND PUSH1 0x0 SWAP1 DUP2 MSTORE PUSH1 0x5 PUSH1 0x20 SWAP1 DUP2 MSTORE PUSH1 0x40 DUP1 DUP4 KECCAK256 SWAP4 DUP9 AND DUP4 MSTORE SWAP3 SWAP1 MSTORE KECCAK256 SLOAD PUSH1 0xFF AND JUMPDEST SWAP5 SWAP4 POP POP POP POP JUMP JUMPDEST DUP3 PUSH1 0x1 PUSH1 0x1 PUSH1 0xA0 SHL SUB AND PUSH2 0x2666 DUP3 PUSH2 0x136C JUMP JUMPDEST PUSH1 0x1 PUSH1 0x1 PUSH1 0xA0 SHL SUB AND EQ PUSH2 0x26CE JUMPI PUSH1 0x40 MLOAD PUSH3 0x461BCD PUSH1 0xE5 SHL DUP2 MSTORE PUSH1 0x20 PUSH1 0x4 DUP3 ADD MSTORE PUSH1 0x29 PUSH1 0x24 DUP3 ADD MSTORE PUSH32 0x4552433732313A207472616E73666572206F6620746F6B656E20746861742069 PUSH1 0x44 DUP3 ADD MSTORE PUSH9 0x39903737BA1037BBB7 PUSH1 0xB9 SHL PUSH1 0x64 DUP3 ADD MSTORE PUSH1 0x84 ADD PUSH2 0xB9E JUMP JUMPDEST PUSH1 0x1 PUSH1 0x1 PUSH1 0xA0 SHL SUB DUP3 AND PUSH2 0x2730 JUMPI PUSH1 0x40 MLOAD PUSH3 0x461BCD PUSH1 0xE5 SHL DUP2 MSTORE PUSH1 0x20 PUSH1 0x4 DUP3 ADD MSTORE PUSH1 0x24 DUP1 DUP3 ADD MSTORE PUSH32 0x4552433732313A207472616E7366657220746F20746865207A65726F20616464 PUSH1 0x44 DUP3 ADD MSTORE PUSH4 0x72657373 PUSH1 0xE0 SHL PUSH1 0x64 DUP3 ADD MSTORE PUSH1 0x84 ADD PUSH2 0xB9E JUMP JUMPDEST PUSH2 0x273B DUP4 DUP4 DUP4 PUSH2 0x2C39 JUMP JUMPDEST PUSH2 0x2746 PUSH1 0x0 DUP3 PUSH2 0x24EE JUMP JUMPDEST PUSH1 0x1 PUSH1 0x1 PUSH1 0xA0 SHL SUB DUP4 AND PUSH1 0x0 SWAP1 DUP2 MSTORE PUSH1 0x3 PUSH1 0x20 MSTORE PUSH1 0x40 DUP2 KECCAK256 DUP1 SLOAD PUSH1 0x1 SWAP3 SWAP1 PUSH2 0x276F SWAP1 DUP5 SWAP1 PUSH2 0x3533 JUMP JUMPDEST SWAP1 SWAP2 SSTORE POP POP PUSH1 0x1 PUSH1 0x1 PUSH1 0xA0 SHL SUB DUP3 AND PUSH1 0x0 SWAP1 DUP2 MSTORE PUSH1 0x3 PUSH1 0x20 MSTORE PUSH1 0x40 DUP2 KECCAK256 DUP1 SLOAD PUSH1 0x1 SWAP3 SWAP1 PUSH2 0x279D SWAP1 DUP5 SWAP1 PUSH2 0x35F8 JUMP JUMPDEST SWAP1 SWAP2 SSTORE POP POP PUSH1 0x0 DUP2 DUP2 MSTORE PUSH1 0x2 PUSH1 0x20 MSTORE PUSH1 0x40 DUP1 DUP3 KECCAK256 DUP1 SLOAD PUSH1 0x1 PUSH1 0x1 PUSH1 0xA0 SHL SUB NOT AND PUSH1 0x1 PUSH1 0x1 PUSH1 0xA0 SHL SUB DUP7 DUP2 AND SWAP2 DUP3 OR SWAP1 SWAP3 SSTORE SWAP2 MLOAD DUP5 SWAP4 SWAP2 DUP8 AND SWAP2 PUSH32 0xDDF252AD1BE2C89B69C2B068FC378DAA952BA7F163C4A11628F55A4DF523B3EF SWAP2 LOG4 POP POP POP JUMP JUMPDEST PUSH1 0x0 PUSH2 0x280A DUP3 DUP5 PUSH2 0x375F JUMP JUMPDEST SWAP4 SWAP3 POP POP POP JUMP JUMPDEST PUSH1 0x0 PUSH2 0x280A DUP3 DUP5 PUSH2 0x3794 JUMP JUMPDEST PUSH1 0x6 SLOAD PUSH1 0xFF AND PUSH2 0x2866 JUMPI PUSH1 0x40 MLOAD PUSH3 0x461BCD PUSH1 0xE5 SHL DUP2 MSTORE PUSH1 0x20 PUSH1 0x4 DUP3 ADD MSTORE PUSH1 0x14 PUSH1 0x24 DUP3 ADD MSTORE PUSH20 0x14185D5CD8589B194E881B9BDD081C185D5CD959 PUSH1 0x62 SHL PUSH1 0x44 DUP3 ADD MSTORE PUSH1 0x64 ADD PUSH2 0xB9E JUMP JUMPDEST PUSH1 0x6 DUP1 SLOAD PUSH1 0xFF NOT AND SWAP1 SSTORE PUSH32 0x5DB9EE0A495BF2E6FF9C91A7834C1BA4FDD244A5E8AA4E537BD38AEAE4B073AA CALLER JUMPDEST PUSH1 0x40 MLOAD PUSH1 0x1 PUSH1 0x1 PUSH1 0xA0 SHL SUB SWAP1 SWAP2 AND DUP2 MSTORE PUSH1 0x20 ADD PUSH1 0x40 MLOAD DUP1 SWAP2 SUB SWAP1 LOG1 JUMP JUMPDEST PUSH1 0x0 PUSH2 0x28BB DUP3 PUSH2 0x136C JUMP JUMPDEST SWAP1 POP PUSH2 0x28C9 DUP2 PUSH1 0x0 DUP5 PUSH2 0x2C39 JUMP JUMPDEST PUSH2 0x28D4 PUSH1 0x0 DUP4 PUSH2 0x24EE JUMP JUMPDEST PUSH1 0x1 PUSH1 0x1 PUSH1 0xA0 SHL SUB DUP2 AND PUSH1 0x0 SWAP1 DUP2 MSTORE PUSH1 0x3 PUSH1 0x20 MSTORE PUSH1 0x40 DUP2 KECCAK256 DUP1 SLOAD PUSH1 0x1 SWAP3 SWAP1 PUSH2 0x28FD SWAP1 DUP5 SWAP1 PUSH2 0x3533 JUMP JUMPDEST SWAP1 SWAP2 SSTORE POP POP PUSH1 0x0 DUP3 DUP2 MSTORE PUSH1 0x2 PUSH1 0x20 MSTORE PUSH1 0x40 DUP1 DUP3 KECCAK256 DUP1 SLOAD PUSH1 0x1 PUSH1 0x1 PUSH1 0xA0 SHL SUB NOT AND SWAP1 SSTORE MLOAD DUP4 SWAP2 SWAP1 PUSH1 0x1 PUSH1 0x1 PUSH1 0xA0 SHL SUB DUP5 AND SWAP1 PUSH32 0xDDF252AD1BE2C89B69C2B068FC378DAA952BA7F163C4A11628F55A4DF523B3EF SWAP1 DUP4 SWAP1 LOG4 POP POP JUMP JUMPDEST PUSH1 0x6 DUP1 SLOAD PUSH1 0x1 PUSH1 0x1 PUSH1 0xA0 SHL SUB DUP4 DUP2 AND PUSH2 0x100 DUP2 DUP2 MUL PUSH2 0x100 PUSH1 0x1 PUSH1 0xA8 SHL SUB NOT DUP6 AND OR SWAP1 SWAP5 SSTORE PUSH1 0x40 MLOAD SWAP4 SWAP1 SWAP3 DIV AND SWAP2 DUP3 SWAP1 PUSH32 0x8BE0079C531659141344CD1FD0A4F28419497F9722A3DAAFE3B4186F6B6457E0 SWAP1 PUSH1 0x0 SWAP1 LOG3 POP POP JUMP JUMPDEST PUSH1 0x6 SLOAD PUSH1 0xFF AND ISZERO PUSH2 0x29D4 JUMPI PUSH1 0x40 MLOAD PUSH3 0x461BCD PUSH1 0xE5 SHL DUP2 MSTORE PUSH1 0x4 ADD PUSH2 0xB9E SWAP1 PUSH2 0x362B JUMP JUMPDEST PUSH1 0x6 DUP1 SLOAD PUSH1 0xFF NOT AND PUSH1 0x1 OR SWAP1 SSTORE PUSH32 0x62E78CEA01BEE320CD4E420270B5EA74000D11B0C9F74754EBDBFC544B05A258 PUSH2 0x2893 CALLER SWAP1 JUMP JUMPDEST DUP2 PUSH1 0x1 PUSH1 0x1 PUSH1 0xA0 SHL SUB AND DUP4 PUSH1 0x1 PUSH1 0x1 PUSH1 0xA0 SHL SUB AND EQ ISZERO PUSH2 0x2A6B JUMPI PUSH1 0x40 MLOAD PUSH3 0x461BCD PUSH1 0xE5 SHL DUP2 MSTORE PUSH1 0x20 PUSH1 0x4 DUP3 ADD MSTORE PUSH1 0x19 PUSH1 0x24 DUP3 ADD MSTORE PUSH32 0x4552433732313A20617070726F766520746F2063616C6C657200000000000000 PUSH1 0x44 DUP3 ADD MSTORE PUSH1 0x64 ADD PUSH2 0xB9E JUMP JUMPDEST PUSH1 0x1 PUSH1 0x1 PUSH1 0xA0 SHL SUB DUP4 DUP2 AND PUSH1 0x0 DUP2 DUP2 MSTORE PUSH1 0x5 PUSH1 0x20 SWAP1 DUP2 MSTORE PUSH1 0x40 DUP1 DUP4 KECCAK256 SWAP5 DUP8 AND DUP1 DUP5 MSTORE SWAP5 DUP3 MSTORE SWAP2 DUP3 SWAP1 KECCAK256 DUP1 SLOAD PUSH1 0xFF NOT AND DUP7 ISZERO ISZERO SWAP1 DUP2 OR SWAP1 SWAP2 SSTORE SWAP2 MLOAD SWAP2 DUP3 MSTORE PUSH32 0x17307EAB39AB6107E8899845AD3D59BD9653F200F220920489CA2B5937696C31 SWAP2 ADD PUSH1 0x40 MLOAD DUP1 SWAP2 SUB SWAP1 LOG3 POP POP POP JUMP JUMPDEST PUSH2 0xD76 DUP3 DUP3 PUSH1 0x40 MLOAD DUP1 PUSH1 0x20 ADD PUSH1 0x40 MSTORE DUP1 PUSH1 0x0 DUP2 MSTORE POP PUSH2 0x2C5C JUMP JUMPDEST PUSH1 0x0 DUP3 PUSH2 0x2AFF DUP6 DUP5 PUSH2 0x2C8F JUMP JUMPDEST EQ SWAP5 SWAP4 POP POP POP POP JUMP JUMPDEST PUSH2 0x2B13 DUP5 DUP5 DUP5 PUSH2 0x2653 JUMP JUMPDEST PUSH2 0x2B1F DUP5 DUP5 DUP5 DUP5 PUSH2 0x2D3B JUMP JUMPDEST PUSH2 0x1F89 JUMPI PUSH1 0x40 MLOAD PUSH3 0x461BCD PUSH1 0xE5 SHL DUP2 MSTORE PUSH1 0x4 ADD PUSH2 0xB9E SWAP1 PUSH2 0x37A8 JUMP JUMPDEST PUSH1 0x60 DUP2 PUSH2 0x2B5F JUMPI POP POP PUSH1 0x40 DUP1 MLOAD DUP1 DUP3 ADD SWAP1 SWAP2 MSTORE PUSH1 0x1 DUP2 MSTORE PUSH1 0x3 PUSH1 0xFC SHL PUSH1 0x20 DUP3 ADD MSTORE SWAP1 JUMP JUMPDEST DUP2 PUSH1 0x0 JUMPDEST DUP2 ISZERO PUSH2 0x2B89 JUMPI DUP1 PUSH2 0x2B73 DUP2 PUSH2 0x3610 JUMP JUMPDEST SWAP2 POP PUSH2 0x2B82 SWAP1 POP PUSH1 0xA DUP4 PUSH2 0x3794 JUMP JUMPDEST SWAP2 POP PUSH2 0x2B63 JUMP JUMPDEST PUSH1 0x0 DUP2 PUSH8 0xFFFFFFFFFFFFFFFF DUP2 GT ISZERO PUSH2 0x2BA4 JUMPI PUSH2 0x2BA4 PUSH2 0x311D JUMP JUMPDEST PUSH1 0x40 MLOAD SWAP1 DUP1 DUP3 MSTORE DUP1 PUSH1 0x1F ADD PUSH1 0x1F NOT AND PUSH1 0x20 ADD DUP3 ADD PUSH1 0x40 MSTORE DUP1 ISZERO PUSH2 0x2BCE JUMPI PUSH1 0x20 DUP3 ADD DUP2 DUP1 CALLDATASIZE DUP4 CALLDATACOPY ADD SWAP1 POP JUMPDEST POP SWAP1 POP JUMPDEST DUP5 ISZERO PUSH2 0x264B JUMPI PUSH2 0x2BE3 PUSH1 0x1 DUP4 PUSH2 0x3533 JUMP JUMPDEST SWAP2 POP PUSH2 0x2BF0 PUSH1 0xA DUP7 PUSH2 0x37FA JUMP JUMPDEST PUSH2 0x2BFB SWAP1 PUSH1 0x30 PUSH2 0x35F8 JUMP JUMPDEST PUSH1 0xF8 SHL DUP2 DUP4 DUP2 MLOAD DUP2 LT PUSH2 0x2C10 JUMPI PUSH2 0x2C10 PUSH2 0x380E JUMP JUMPDEST PUSH1 0x20 ADD ADD SWAP1 PUSH1 0x1 PUSH1 0x1 PUSH1 0xF8 SHL SUB NOT AND SWAP1 DUP2 PUSH1 0x0 BYTE SWAP1 MSTORE8 POP PUSH2 0x2C32 PUSH1 0xA DUP7 PUSH2 0x3794 JUMP JUMPDEST SWAP5 POP PUSH2 0x2BD2 JUMP JUMPDEST PUSH1 0x6 SLOAD PUSH1 0xFF AND ISZERO PUSH2 0xCD4 JUMPI PUSH1 0x40 MLOAD PUSH3 0x461BCD PUSH1 0xE5 SHL DUP2 MSTORE PUSH1 0x4 ADD PUSH2 0xB9E SWAP1 PUSH2 0x362B JUMP JUMPDEST PUSH2 0x2C66 DUP4 DUP4 PUSH2 0x2E39 JUMP JUMPDEST PUSH2 0x2C73 PUSH1 0x0 DUP5 DUP5 DUP5 PUSH2 0x2D3B JUMP JUMPDEST PUSH2 0xCD4 JUMPI PUSH1 0x40 MLOAD PUSH3 0x461BCD PUSH1 0xE5 SHL DUP2 MSTORE PUSH1 0x4 ADD PUSH2 0xB9E SWAP1 PUSH2 0x37A8 JUMP JUMPDEST PUSH1 0x0 DUP2 DUP2 JUMPDEST DUP5 MLOAD DUP2 LT ISZERO PUSH2 0x2D33 JUMPI PUSH1 0x0 DUP6 DUP3 DUP2 MLOAD DUP2 LT PUSH2 0x2CB1 JUMPI PUSH2 0x2CB1 PUSH2 0x380E JUMP JUMPDEST PUSH1 0x20 MUL PUSH1 0x20 ADD ADD MLOAD SWAP1 POP DUP1 DUP4 GT PUSH2 0x2CF3 JUMPI PUSH1 0x40 DUP1 MLOAD PUSH1 0x20 DUP2 ADD DUP6 SWAP1 MSTORE SWAP1 DUP2 ADD DUP3 SWAP1 MSTORE PUSH1 0x60 ADD PUSH1 0x40 MLOAD PUSH1 0x20 DUP2 DUP4 SUB SUB DUP2 MSTORE SWAP1 PUSH1 0x40 MSTORE DUP1 MLOAD SWAP1 PUSH1 0x20 ADD KECCAK256 SWAP3 POP PUSH2 0x2D20 JUMP JUMPDEST PUSH1 0x40 DUP1 MLOAD PUSH1 0x20 DUP2 ADD DUP4 SWAP1 MSTORE SWAP1 DUP2 ADD DUP5 SWAP1 MSTORE PUSH1 0x60 ADD PUSH1 0x40 MLOAD PUSH1 0x20 DUP2 DUP4 SUB SUB DUP2 MSTORE SWAP1 PUSH1 0x40 MSTORE DUP1 MLOAD SWAP1 PUSH1 0x20 ADD KECCAK256 SWAP3 POP JUMPDEST POP DUP1 PUSH2 0x2D2B DUP2 PUSH2 0x3610 JUMP JUMPDEST SWAP2 POP POP PUSH2 0x2C94 JUMP JUMPDEST POP SWAP4 SWAP3 POP POP POP JUMP JUMPDEST PUSH1 0x0 PUSH1 0x1 PUSH1 0x1 PUSH1 0xA0 SHL SUB DUP5 AND EXTCODESIZE ISZERO PUSH2 0x2E2E JUMPI PUSH1 0x40 MLOAD PUSH4 0xA85BD01 PUSH1 0xE1 SHL DUP2 MSTORE PUSH1 0x1 PUSH1 0x1 PUSH1 0xA0 SHL SUB DUP6 AND SWAP1 PUSH4 0x150B7A02 SWAP1 PUSH2 0x2D7F SWAP1 CALLER SWAP1 DUP10 SWAP1 DUP9 SWAP1 DUP9 SWAP1 PUSH1 0x4 ADD PUSH2 0x3824 JUMP JUMPDEST PUSH1 0x20 PUSH1 0x40 MLOAD DUP1 DUP4 SUB DUP2 PUSH1 0x0 DUP8 GAS CALL SWAP3 POP POP POP DUP1 ISZERO PUSH2 0x2DBA JUMPI POP PUSH1 0x40 DUP1 MLOAD PUSH1 0x1F RETURNDATASIZE SWAP1 DUP2 ADD PUSH1 0x1F NOT AND DUP3 ADD SWAP1 SWAP3 MSTORE PUSH2 0x2DB7 SWAP2 DUP2 ADD SWAP1 PUSH2 0x3861 JUMP JUMPDEST PUSH1 0x1 JUMPDEST PUSH2 0x2E14 JUMPI RETURNDATASIZE DUP1 DUP1 ISZERO PUSH2 0x2DE8 JUMPI PUSH1 0x40 MLOAD SWAP2 POP PUSH1 0x1F NOT PUSH1 0x3F RETURNDATASIZE ADD AND DUP3 ADD PUSH1 0x40 MSTORE RETURNDATASIZE DUP3 MSTORE RETURNDATASIZE PUSH1 0x0 PUSH1 0x20 DUP5 ADD RETURNDATACOPY PUSH2 0x2DED JUMP JUMPDEST PUSH1 0x60 SWAP2 POP JUMPDEST POP DUP1 MLOAD PUSH2 0x2E0C JUMPI PUSH1 0x40 MLOAD PUSH3 0x461BCD PUSH1 0xE5 SHL DUP2 MSTORE PUSH1 0x4 ADD PUSH2 0xB9E SWAP1 PUSH2 0x37A8 JUMP JUMPDEST DUP1 MLOAD DUP2 PUSH1 0x20 ADD REVERT JUMPDEST PUSH1 0x1 PUSH1 0x1 PUSH1 0xE0 SHL SUB NOT AND PUSH4 0xA85BD01 PUSH1 0xE1 SHL EQ SWAP1 POP PUSH2 0x264B JUMP JUMPDEST POP PUSH1 0x1 SWAP5 SWAP4 POP POP POP POP JUMP JUMPDEST PUSH1 0x1 PUSH1 0x1 PUSH1 0xA0 SHL SUB DUP3 AND PUSH2 0x2E8F JUMPI PUSH1 0x40 MLOAD PUSH3 0x461BCD PUSH1 0xE5 SHL DUP2 MSTORE PUSH1 0x20 PUSH1 0x4 DUP3 ADD DUP2 SWAP1 MSTORE PUSH1 0x24 DUP3 ADD MSTORE PUSH32 0x4552433732313A206D696E7420746F20746865207A65726F2061646472657373 PUSH1 0x44 DUP3 ADD MSTORE PUSH1 0x64 ADD PUSH2 0xB9E JUMP JUMPDEST PUSH1 0x0 DUP2 DUP2 MSTORE PUSH1 0x2 PUSH1 0x20 MSTORE PUSH1 0x40 SWAP1 KECCAK256 SLOAD PUSH1 0x1 PUSH1 0x1 PUSH1 0xA0 SHL SUB AND ISZERO PUSH2 0x2EF4 JUMPI PUSH1 0x40 MLOAD PUSH3 0x461BCD PUSH1 0xE5 SHL DUP2 MSTORE PUSH1 0x20 PUSH1 0x4 DUP3 ADD MSTORE PUSH1 0x1C PUSH1 0x24 DUP3 ADD MSTORE PUSH32 0x4552433732313A20746F6B656E20616C7265616479206D696E74656400000000 PUSH1 0x44 DUP3 ADD MSTORE PUSH1 0x64 ADD PUSH2 0xB9E JUMP JUMPDEST PUSH2 0x2F00 PUSH1 0x0 DUP4 DUP4 PUSH2 0x2C39 JUMP JUMPDEST PUSH1 0x1 PUSH1 0x1 PUSH1 0xA0 SHL SUB DUP3 AND PUSH1 0x0 SWAP1 DUP2 MSTORE PUSH1 0x3 PUSH1 0x20 MSTORE PUSH1 0x40 DUP2 KECCAK256 DUP1 SLOAD PUSH1 0x1 SWAP3 SWAP1 PUSH2 0x2F29 SWAP1 DUP5 SWAP1 PUSH2 0x35F8 JUMP JUMPDEST SWAP1 SWAP2 SSTORE POP POP PUSH1 0x0 DUP2 DUP2 MSTORE PUSH1 0x2 PUSH1 0x20 MSTORE PUSH1 0x40 DUP1 DUP3 KECCAK256 DUP1 SLOAD PUSH1 0x1 PUSH1 0x1 PUSH1 0xA0 SHL SUB NOT AND PUSH1 0x1 PUSH1 0x1 PUSH1 0xA0 SHL SUB DUP7 AND SWAP1 DUP2 OR SWAP1 SWAP2 SSTORE SWAP1 MLOAD DUP4 SWAP3 SWAP1 PUSH32 0xDDF252AD1BE2C89B69C2B068FC378DAA952BA7F163C4A11628F55A4DF523B3EF SWAP1 DUP3 SWAP1 LOG4 POP POP JUMP JUMPDEST DUP3 DUP1 SLOAD PUSH2 0x2F93 SWAP1 PUSH2 0x34AD JUMP JUMPDEST SWAP1 PUSH1 0x0 MSTORE PUSH1 0x20 PUSH1 0x0 KECCAK256 SWAP1 PUSH1 0x1F ADD PUSH1 0x20 SWAP1 DIV DUP2 ADD SWAP3 DUP3 PUSH2 0x2FB5 JUMPI PUSH1 0x0 DUP6 SSTORE PUSH2 0x2FFB JUMP JUMPDEST DUP3 PUSH1 0x1F LT PUSH2 0x2FCE JUMPI DUP1 MLOAD PUSH1 0xFF NOT AND DUP4 DUP1 ADD OR DUP6 SSTORE PUSH2 0x2FFB JUMP JUMPDEST DUP3 DUP1 ADD PUSH1 0x1 ADD DUP6 SSTORE DUP3 ISZERO PUSH2 0x2FFB JUMPI SWAP2 DUP3 ADD JUMPDEST DUP3 DUP2 GT ISZERO PUSH2 0x2FFB JUMPI DUP3 MLOAD DUP3 SSTORE SWAP2 PUSH1 0x20 ADD SWAP2 SWAP1 PUSH1 0x1 ADD SWAP1 PUSH2 0x2FE0 JUMP JUMPDEST POP PUSH2 0x3007 SWAP3 SWAP2 POP PUSH2 0x300B JUMP JUMPDEST POP SWAP1 JUMP JUMPDEST JUMPDEST DUP1 DUP3 GT ISZERO PUSH2 0x3007 JUMPI PUSH1 0x0 DUP2 SSTORE PUSH1 0x1 ADD PUSH2 0x300C JUMP JUMPDEST PUSH1 0x1 PUSH1 0x1 PUSH1 0xE0 SHL SUB NOT DUP2 AND DUP2 EQ PUSH2 0x128C JUMPI PUSH1 0x0 DUP1 REVERT JUMPDEST PUSH1 0x0 PUSH1 0x20 DUP3 DUP5 SUB SLT ISZERO PUSH2 0x3048 JUMPI PUSH1 0x0 DUP1 REVERT JUMPDEST DUP2 CALLDATALOAD PUSH2 0x280A DUP2 PUSH2 0x3020 JUMP JUMPDEST PUSH1 0x0 JUMPDEST DUP4 DUP2 LT ISZERO PUSH2 0x306E JUMPI DUP2 DUP2 ADD MLOAD DUP4 DUP3 ADD MSTORE PUSH1 0x20 ADD PUSH2 0x3056 JUMP JUMPDEST DUP4 DUP2 GT ISZERO PUSH2 0x1F89 JUMPI POP POP PUSH1 0x0 SWAP2 ADD MSTORE JUMP JUMPDEST PUSH1 0x0 DUP2 MLOAD DUP1 DUP5 MSTORE PUSH2 0x3097 DUP2 PUSH1 0x20 DUP7 ADD PUSH1 0x20 DUP7 ADD PUSH2 0x3053 JUMP JUMPDEST PUSH1 0x1F ADD PUSH1 0x1F NOT AND SWAP3 SWAP1 SWAP3 ADD PUSH1 0x20 ADD SWAP3 SWAP2 POP POP JUMP JUMPDEST PUSH1 0x20 DUP2 MSTORE PUSH1 0x0 PUSH2 0x280A PUSH1 0x20 DUP4 ADD DUP5 PUSH2 0x307F JUMP JUMPDEST PUSH1 0x0 PUSH1 0x20 DUP3 DUP5 SUB SLT ISZERO PUSH2 0x30D0 JUMPI PUSH1 0x0 DUP1 REVERT JUMPDEST POP CALLDATALOAD SWAP2 SWAP1 POP JUMP JUMPDEST DUP1 CALLDATALOAD PUSH1 0x1 PUSH1 0x1 PUSH1 0xA0 SHL SUB DUP2 AND DUP2 EQ PUSH2 0x30EE JUMPI PUSH1 0x0 DUP1 REVERT JUMPDEST SWAP2 SWAP1 POP JUMP JUMPDEST PUSH1 0x0 DUP1 PUSH1 0x40 DUP4 DUP6 SUB SLT ISZERO PUSH2 0x3106 JUMPI PUSH1 0x0 DUP1 REVERT JUMPDEST PUSH2 0x310F DUP4 PUSH2 0x30D7 JUMP JUMPDEST SWAP5 PUSH1 0x20 SWAP4 SWAP1 SWAP4 ADD CALLDATALOAD SWAP4 POP POP POP JUMP JUMPDEST PUSH4 0x4E487B71 PUSH1 0xE0 SHL PUSH1 0x0 MSTORE PUSH1 0x41 PUSH1 0x4 MSTORE PUSH1 0x24 PUSH1 0x0 REVERT JUMPDEST PUSH1 0x40 MLOAD PUSH1 0x1F DUP3 ADD PUSH1 0x1F NOT AND DUP2 ADD PUSH8 0xFFFFFFFFFFFFFFFF DUP2 GT DUP3 DUP3 LT OR ISZERO PUSH2 0x315C JUMPI PUSH2 0x315C PUSH2 0x311D JUMP JUMPDEST PUSH1 0x40 MSTORE SWAP2 SWAP1 POP JUMP JUMPDEST PUSH1 0x0 PUSH8 0xFFFFFFFFFFFFFFFF DUP4 GT ISZERO PUSH2 0x317E JUMPI PUSH2 0x317E PUSH2 0x311D JUMP JUMPDEST PUSH2 0x3191 PUSH1 0x1F DUP5 ADD PUSH1 0x1F NOT AND PUSH1 0x20 ADD PUSH2 0x3133 JUMP JUMPDEST SWAP1 POP DUP3 DUP2 MSTORE DUP4 DUP4 DUP4 ADD GT ISZERO PUSH2 0x31A5 JUMPI PUSH1 0x0 DUP1 REVERT JUMPDEST DUP3 DUP3 PUSH1 0x20 DUP4 ADD CALLDATACOPY PUSH1 0x0 PUSH1 0x20 DUP5 DUP4 ADD ADD MSTORE SWAP4 SWAP3 POP POP POP JUMP JUMPDEST PUSH1 0x0 PUSH1 0x20 DUP3 DUP5 SUB SLT ISZERO PUSH2 0x31CE JUMPI PUSH1 0x0 DUP1 REVERT JUMPDEST DUP2 CALLDATALOAD PUSH8 0xFFFFFFFFFFFFFFFF DUP2 GT ISZERO PUSH2 0x31E5 JUMPI PUSH1 0x0 DUP1 REVERT JUMPDEST DUP3 ADD PUSH1 0x1F DUP2 ADD DUP5 SGT PUSH2 0x31F6 JUMPI PUSH1 0x0 DUP1 REVERT JUMPDEST PUSH2 0x264B DUP5 DUP3 CALLDATALOAD PUSH1 0x20 DUP5 ADD PUSH2 0x3164 JUMP JUMPDEST PUSH1 0x0 DUP1 PUSH1 0x0 PUSH1 0x60 DUP5 DUP7 SUB SLT ISZERO PUSH2 0x321A JUMPI PUSH1 0x0 DUP1 REVERT JUMPDEST PUSH2 0x3223 DUP5 PUSH2 0x30D7 JUMP JUMPDEST SWAP3 POP PUSH2 0x3231 PUSH1 0x20 DUP6 ADD PUSH2 0x30D7 JUMP JUMPDEST SWAP2 POP PUSH1 0x40 DUP5 ADD CALLDATALOAD SWAP1 POP SWAP3 POP SWAP3 POP SWAP3 JUMP JUMPDEST DUP1 CALLDATALOAD PUSH1 0xFF DUP2 AND DUP2 EQ PUSH2 0x30EE JUMPI PUSH1 0x0 DUP1 REVERT JUMPDEST PUSH1 0x0 PUSH1 0x20 DUP3 DUP5 SUB SLT ISZERO PUSH2 0x3264 JUMPI PUSH1 0x0 DUP1 REVERT JUMPDEST PUSH2 0x280A DUP3 PUSH2 0x3241 JUMP JUMPDEST PUSH1 0x0 PUSH1 0x20 DUP3 DUP5 SUB SLT ISZERO PUSH2 0x327F JUMPI PUSH1 0x0 DUP1 REVERT JUMPDEST PUSH2 0x280A DUP3 PUSH2 0x30D7 JUMP JUMPDEST PUSH1 0x0 DUP1 PUSH1 0x40 DUP4 DUP6 SUB SLT ISZERO PUSH2 0x329B JUMPI PUSH1 0x0 DUP1 REVERT JUMPDEST PUSH2 0x32A4 DUP4 PUSH2 0x30D7 JUMP JUMPDEST SWAP2 POP PUSH1 0x20 DUP4 ADD CALLDATALOAD DUP1 ISZERO ISZERO DUP2 EQ PUSH2 0x32B9 JUMPI PUSH1 0x0 DUP1 REVERT JUMPDEST DUP1 SWAP2 POP POP SWAP3 POP SWAP3 SWAP1 POP JUMP JUMPDEST PUSH1 0x0 DUP1 PUSH1 0x40 DUP4 DUP6 SUB SLT ISZERO PUSH2 0x32D7 JUMPI PUSH1 0x0 DUP1 REVERT JUMPDEST PUSH2 0x32E0 DUP4 PUSH2 0x3241 JUMP JUMPDEST SWAP2 POP PUSH2 0x32EE PUSH1 0x20 DUP5 ADD PUSH2 0x30D7 JUMP JUMPDEST SWAP1 POP SWAP3 POP SWAP3 SWAP1 POP JUMP JUMPDEST PUSH1 0x0 DUP1 PUSH1 0x40 DUP4 DUP6 SUB SLT ISZERO PUSH2 0x330A JUMPI PUSH1 0x0 DUP1 REVERT JUMPDEST PUSH2 0x3313 DUP4 PUSH2 0x3241 JUMP JUMPDEST SWAP2 POP PUSH1 0x20 DUP1 DUP5 ADD CALLDATALOAD PUSH8 0xFFFFFFFFFFFFFFFF DUP1 DUP3 GT ISZERO PUSH2 0x3331 JUMPI PUSH1 0x0 DUP1 REVERT JUMPDEST DUP2 DUP7 ADD SWAP2 POP DUP7 PUSH1 0x1F DUP4 ADD SLT PUSH2 0x3345 JUMPI PUSH1 0x0 DUP1 REVERT JUMPDEST DUP2 CALLDATALOAD DUP2 DUP2 GT ISZERO PUSH2 0x3357 JUMPI PUSH2 0x3357 PUSH2 0x311D JUMP JUMPDEST DUP1 PUSH1 0x5 SHL SWAP2 POP PUSH2 0x3368 DUP5 DUP4 ADD PUSH2 0x3133 JUMP JUMPDEST DUP2 DUP2 MSTORE SWAP2 DUP4 ADD DUP5 ADD SWAP2 DUP5 DUP2 ADD SWAP1 DUP10 DUP5 GT ISZERO PUSH2 0x3382 JUMPI PUSH1 0x0 DUP1 REVERT JUMPDEST SWAP4 DUP6 ADD SWAP4 JUMPDEST DUP4 DUP6 LT ISZERO PUSH2 0x33A0 JUMPI DUP5 CALLDATALOAD DUP3 MSTORE SWAP4 DUP6 ADD SWAP4 SWAP1 DUP6 ADD SWAP1 PUSH2 0x3387 JUMP JUMPDEST DUP1 SWAP7 POP POP POP POP POP POP POP SWAP3 POP SWAP3 SWAP1 POP JUMP JUMPDEST PUSH1 0x0 DUP1 PUSH1 0x0 DUP1 PUSH1 0x80 DUP6 DUP8 SUB SLT ISZERO PUSH2 0x33C6 JUMPI PUSH1 0x0 DUP1 REVERT JUMPDEST PUSH2 0x33CF DUP6 PUSH2 0x30D7 JUMP JUMPDEST SWAP4 POP PUSH2 0x33DD PUSH1 0x20 DUP7 ADD PUSH2 0x30D7 JUMP JUMPDEST SWAP3 POP PUSH1 0x40 DUP6 ADD CALLDATALOAD SWAP2 POP PUSH1 0x60 DUP6 ADD CALLDATALOAD PUSH8 0xFFFFFFFFFFFFFFFF DUP2 GT ISZERO PUSH2 0x3400 JUMPI PUSH1 0x0 DUP1 REVERT JUMPDEST DUP6 ADD PUSH1 0x1F DUP2 ADD DUP8 SGT PUSH2 0x3411 JUMPI PUSH1 0x0 DUP1 REVERT JUMPDEST PUSH2 0x3420 DUP8 DUP3 CALLDATALOAD PUSH1 0x20 DUP5 ADD PUSH2 0x3164 JUMP JUMPDEST SWAP2 POP POP SWAP3 SWAP6 SWAP2 SWAP5 POP SWAP3 POP JUMP JUMPDEST PUSH1 0x0 DUP1 PUSH1 0x40 DUP4 DUP6 SUB SLT ISZERO PUSH2 0x343F JUMPI PUSH1 0x0 DUP1 REVERT JUMPDEST PUSH2 0x32E0 DUP4 PUSH2 0x30D7 JUMP JUMPDEST PUSH1 0x0 DUP1 PUSH1 0x0 DUP1 PUSH1 0x0 PUSH1 0xA0 DUP7 DUP9 SUB SLT ISZERO PUSH2 0x3460 JUMPI PUSH1 0x0 DUP1 REVERT JUMPDEST PUSH2 0x3469 DUP7 PUSH2 0x30D7 JUMP JUMPDEST SWAP5 POP PUSH2 0x3477 PUSH1 0x20 DUP8 ADD PUSH2 0x30D7 JUMP JUMPDEST SWAP4 POP PUSH2 0x3485 PUSH1 0x40 DUP8 ADD PUSH2 0x30D7 JUMP JUMPDEST SWAP3 POP PUSH2 0x3493 PUSH1 0x60 DUP8 ADD PUSH2 0x30D7 JUMP JUMPDEST SWAP2 POP PUSH2 0x34A1 PUSH1 0x80 DUP8 ADD PUSH2 0x30D7 JUMP JUMPDEST SWAP1 POP SWAP3 SWAP6 POP SWAP3 SWAP6 SWAP1 SWAP4 POP JUMP JUMPDEST PUSH1 0x1 DUP2 DUP2 SHR SWAP1 DUP3 AND DUP1 PUSH2 0x34C1 JUMPI PUSH1 0x7F DUP3 AND SWAP2 POP JUMPDEST PUSH1 0x20 DUP3 LT DUP2 EQ ISZERO PUSH2 0x34E2 JUMPI PUSH4 0x4E487B71 PUSH1 0xE0 SHL PUSH1 0x0 MSTORE PUSH1 0x22 PUSH1 0x4 MSTORE PUSH1 0x24 PUSH1 0x0 REVERT JUMPDEST POP SWAP2 SWAP1 POP JUMP JUMPDEST PUSH1 0x20 DUP1 DUP3 MSTORE DUP2 DUP2 ADD MSTORE PUSH32 0x4F776E61626C653A2063616C6C6572206973206E6F7420746865206F776E6572 PUSH1 0x40 DUP3 ADD MSTORE PUSH1 0x60 ADD SWAP1 JUMP JUMPDEST PUSH4 0x4E487B71 PUSH1 0xE0 SHL PUSH1 0x0 MSTORE PUSH1 0x11 PUSH1 0x4 MSTORE PUSH1 0x24 PUSH1 0x0 REVERT JUMPDEST PUSH1 0x0 DUP3 DUP3 LT ISZERO PUSH2 0x3545 JUMPI PUSH2 0x3545 PUSH2 0x351D JUMP JUMPDEST POP SUB SWAP1 JUMP JUMPDEST PUSH1 0x20 DUP1 DUP3 MSTORE PUSH1 0x31 SWAP1 DUP3 ADD MSTORE PUSH32 0x4552433732313A207472616E736665722063616C6C6572206973206E6F74206F PUSH1 0x40 DUP3 ADD MSTORE PUSH17 0x1DDB995C881B9BDC88185C1C1C9BDD9959 PUSH1 0x7A SHL PUSH1 0x60 DUP3 ADD MSTORE PUSH1 0x80 ADD SWAP1 JUMP JUMPDEST PUSH1 0x20 DUP1 DUP3 MSTORE PUSH1 0x38 SWAP1 DUP3 ADD MSTORE PUSH32 0x50726F76656E616E63652068617368206D7573742062652066726F7A656E2062 PUSH1 0x40 DUP3 ADD MSTORE PUSH32 0x65666F7265206D696E74696E672063616E2073746172742E0000000000000000 PUSH1 0x60 DUP3 ADD MSTORE PUSH1 0x80 ADD SWAP1 JUMP JUMPDEST PUSH1 0x0 DUP3 NOT DUP3 GT ISZERO PUSH2 0x360B JUMPI PUSH2 0x360B PUSH2 0x351D JUMP JUMPDEST POP ADD SWAP1 JUMP JUMPDEST PUSH1 0x0 PUSH1 0x0 NOT DUP3 EQ ISZERO PUSH2 0x3624 JUMPI PUSH2 0x3624 PUSH2 0x351D JUMP JUMPDEST POP PUSH1 0x1 ADD SWAP1 JUMP JUMPDEST PUSH1 0x20 DUP1 DUP3 MSTORE PUSH1 0x10 SWAP1 DUP3 ADD MSTORE PUSH16 0x14185D5CD8589B194E881C185D5CD959 PUSH1 0x82 SHL PUSH1 0x40 DUP3 ADD MSTORE PUSH1 0x60 ADD SWAP1 JUMP JUMPDEST DUP1 SLOAD PUSH1 0x0 SWAP1 PUSH1 0x1 DUP2 DUP2 SHR SWAP1 DUP1 DUP4 AND DUP1 PUSH2 0x366F JUMPI PUSH1 0x7F DUP4 AND SWAP3 POP JUMPDEST PUSH1 0x20 DUP1 DUP5 LT DUP3 EQ ISZERO PUSH2 0x3691 JUMPI PUSH4 0x4E487B71 PUSH1 0xE0 SHL PUSH1 0x0 MSTORE PUSH1 0x22 PUSH1 0x4 MSTORE PUSH1 0x24 PUSH1 0x0 REVERT JUMPDEST DUP2 DUP1 ISZERO PUSH2 0x36A5 JUMPI PUSH1 0x1 DUP2 EQ PUSH2 0x36B6 JUMPI PUSH2 0x36E3 JUMP JUMPDEST PUSH1 0xFF NOT DUP7 AND DUP10 MSTORE DUP5 DUP10 ADD SWAP7 POP PUSH2 0x36E3 JUMP JUMPDEST PUSH1 0x0 DUP9 DUP2 MSTORE PUSH1 0x20 SWAP1 KECCAK256 PUSH1 0x0 JUMPDEST DUP7 DUP2 LT ISZERO PUSH2 0x36DB JUMPI DUP2 SLOAD DUP12 DUP3 ADD MSTORE SWAP1 DUP6 ADD SWAP1 DUP4 ADD PUSH2 0x36C2 JUMP JUMPDEST POP POP DUP5 DUP10 ADD SWAP7 POP JUMPDEST POP POP POP POP POP POP SWAP3 SWAP2 POP POP JUMP JUMPDEST PUSH1 0x0 PUSH2 0x36FB DUP3 DUP7 PUSH2 0x3655 JUMP JUMPDEST DUP5 MLOAD PUSH2 0x370B DUP2 DUP4 PUSH1 0x20 DUP10 ADD PUSH2 0x3053 JUMP JUMPDEST PUSH2 0x3717 DUP2 DUP4 ADD DUP7 PUSH2 0x3655 JUMP JUMPDEST SWAP8 SWAP7 POP POP POP POP POP POP POP JUMP JUMPDEST PUSH1 0x0 PUSH1 0xFF DUP3 AND DUP1 PUSH2 0x3735 JUMPI PUSH2 0x3735 PUSH2 0x351D JUMP JUMPDEST PUSH1 0x0 NOT ADD SWAP3 SWAP2 POP POP JUMP JUMPDEST PUSH1 0x0 PUSH1 0xFF DUP3 AND PUSH1 0xFF DUP2 EQ ISZERO PUSH2 0x3756 JUMPI PUSH2 0x3756 PUSH2 0x351D JUMP JUMPDEST PUSH1 0x1 ADD SWAP3 SWAP2 POP POP JUMP JUMPDEST PUSH1 0x0 DUP2 PUSH1 0x0 NOT DIV DUP4 GT DUP3 ISZERO ISZERO AND ISZERO PUSH2 0x3779 JUMPI PUSH2 0x3779 PUSH2 0x351D JUMP JUMPDEST POP MUL SWAP1 JUMP JUMPDEST PUSH4 0x4E487B71 PUSH1 0xE0 SHL PUSH1 0x0 MSTORE PUSH1 0x12 PUSH1 0x4 MSTORE PUSH1 0x24 PUSH1 0x0 REVERT JUMPDEST PUSH1 0x0 DUP3 PUSH2 0x37A3 JUMPI PUSH2 0x37A3 PUSH2 0x377E JUMP JUMPDEST POP DIV SWAP1 JUMP JUMPDEST PUSH1 0x20 DUP1 DUP3 MSTORE PUSH1 0x32 SWAP1 DUP3 ADD MSTORE PUSH32 0x4552433732313A207472616E7366657220746F206E6F6E204552433732315265 PUSH1 0x40 DUP3 ADD MSTORE PUSH18 0x31B2B4BB32B91034B6B83632B6B2B73A32B9 PUSH1 0x71 SHL PUSH1 0x60 DUP3 ADD MSTORE PUSH1 0x80 ADD SWAP1 JUMP JUMPDEST PUSH1 0x0 DUP3 PUSH2 0x3809 JUMPI PUSH2 0x3809 PUSH2 0x377E JUMP JUMPDEST POP MOD SWAP1 JUMP JUMPDEST PUSH4 0x4E487B71 PUSH1 0xE0 SHL PUSH1 0x0 MSTORE PUSH1 0x32 PUSH1 0x4 MSTORE PUSH1 0x24 PUSH1 0x0 REVERT JUMPDEST PUSH1 0x1 PUSH1 0x1 PUSH1 0xA0 SHL SUB DUP6 DUP2 AND DUP3 MSTORE DUP5 AND PUSH1 0x20 DUP3 ADD MSTORE PUSH1 0x40 DUP2 ADD DUP4 SWAP1 MSTORE PUSH1 0x80 PUSH1 0x60 DUP3 ADD DUP2 SWAP1 MSTORE PUSH1 0x0 SWAP1 PUSH2 0x3857 SWAP1 DUP4 ADD DUP5 PUSH2 0x307F JUMP JUMPDEST SWAP7 SWAP6 POP POP POP POP POP POP JUMP JUMPDEST PUSH1 0x0 PUSH1 0x20 DUP3 DUP5 SUB SLT ISZERO PUSH2 0x3873 JUMPI PUSH1 0x0 DUP1 REVERT JUMPDEST DUP2 MLOAD PUSH2 0x280A DUP2 PUSH2 0x3020 JUMP INVALID LOG2 PUSH5 0x6970667358 0x22 SLT KECCAK256 LOG1 DUP11 0xD0 CALL EXTCODECOPY SWAP6 MULMOD PUSH32 0x536366F09AC42D91802A8673342E402D6C11E9E764916A1A64736F6C63430008 EXP STOP CALLER ",
  "sha1": "78658211f2b9a751fdb4752f39e84fc649461f5b",
  "source": "// SPDX-License-Identifier: MIT\npragma solidity ^0.8.10;\n\nimport '@openzeppelin/contracts/token/ERC721/ERC721.sol';\nimport '@openzeppelin/contracts/access/Ownable.sol';\nimport '@openzeppelin/contracts/utils/math/SafeMath.sol';\nimport '@openzeppelin/contracts/utils/Counters.sol';\nimport '@openzeppelin/contracts/security/Pausable.sol';\nimport '@openzeppelin/contracts/token/ERC721/extensions/ERC721Burnable.sol';\nimport \"@openzeppelin/contracts/utils/cryptography/MerkleProof.sol\";\n\ncontract CryptidToken is ERC721, Pausable, Ownable, ERC721Burnable{ \n    using Strings for uint256;\n    using SafeMath for uint256;\n    using Counters for Counters.Counter;\n    using MerkleProof for bytes32[];\n\n    Counters.Counter private _tokenIdCounter;\n    \n    bytes32 public merkleRoot;\n    string public provenanceHash;\n    string public baseURI = \"\";\n    string public baseExtension = \".json\";\n    uint8 private stage = 0;\n    uint8 public maxMintPerTx;     \n    bool public tokenURIFrozen = false;\n    bool public provenanceHashFrozen = false;\n\n    address public withdrawDest1 = 0x1953bc1fF76f5e61cD775A4482bd85BAc56aD1Eb; // trust\n    address public withdrawDest2 = 0x12B58f5331a6DC897932AA7FB5101667ACdf03e2; // founder 1\n    address public withdrawDest3 = 0x1953bc1fF76f5e61cD775A4482bd85BAc56aD1Eb; // founder 2\n    address public withdrawDest4 = 0x12B58f5331a6DC897932AA7FB5101667ACdf03e2; // founder 3\n    address public withdrawDest5 = 0x12B58f5331a6DC897932AA7FB5101667ACdf03e2; // founder 4\n    \n    // ~ Sale stages ~\n    // stage 0: Airdrops\n    // stage 1: Whitelist\n    // stage 2: Team Mint \n    // stage 3: Public Sale\n\n    uint256 public salePrice = 0.1 ether;  \n\n    // Whitelist mint (stage=1)\n    uint256 public whitelistSupply;                       \n    mapping(address => bool) public blacklist;              \n    \n    // Team Mint (stage=2)\n    uint256 public teamMintSupply;                          \n    uint256 public teamMintCount;\n\n    // Public Sale (stage=3)\n    uint256 public totalSaleSupply;         \n\n    constructor(\n        string memory _name,\n        string memory _symbol,\n        string memory _baseURI,\n        uint256 _whitelistSupply,\n        uint256 _teamMintSupply,\n        uint256 _totalSaleSupply,\n        uint8 _maxMintPerTx\n\n    )   ERC721(_name, _symbol) {\n        whitelistSupply = _whitelistSupply;\n        teamMintSupply = _teamMintSupply;\n        totalSaleSupply = _totalSaleSupply;\n        maxMintPerTx = _maxMintPerTx;\n        baseURI = _baseURI;\n        _tokenIdCounter.increment();\n    }\n\n    //Public mint function\n    function mint(uint8 _mintAmount, bytes32[] memory proof) public payable whenNotPaused {\n        require(stage > 0, \"Minting not initiated. Currenly on stage 0.\");\n        require(_mintAmount > 0, \"Mint amount must be greater than 0.\");\n        require(_mintAmount <= maxMintPerTx, \"Exceeds max allowed amount per transaction.\");\n        if (stage == 1) {\n        // Whitelist\n            require(proof.verify(merkleRoot, keccak256(abi.encodePacked(msg.sender))), \"Address not whitelisted.\");\n            require(_mintAmount < 2, \"Mint amount must be 1.\");\n            require(msg.value >= salePrice.mul(_mintAmount), \"Not enough ether sent.\");\n            require(totalSupply() + _mintAmount <= whitelistSupply, \"Transaction exceeds whitelist supply.\");\n            require(blacklist[msg.sender] == false, \"This whitelisted address was already used for their mint.\");    \n            blacklist[msg.sender] = true;\n    }   else if (stage == 2) {\n        // Team Sale\n            require(owner() == msg.sender, \"Only Owner can mint at this stage\");\n            require(_mintAmount + teamMintCount <= teamMintSupply, \"Transaction exceeds total team-sale supply\");      \n            teamMintCount += _mintAmount;\n    }   else {\n        // Public Sale\n            require(msg.value >= salePrice.mul(_mintAmount), \"Not enough ether sent\");\n            require(totalSupply()  + _mintAmount <= totalSaleSupply, \"Transaction exceeds total sale supply\");\n        }\n        for (uint256 i = 1; i <= _mintAmount; i++) {\n            _safeMint(msg.sender, _tokenIdCounter.current());\n            _tokenIdCounter.increment();\n        }\n    }\n\n    //Owner functions\n    function pause() public onlyOwner {\n        _pause();\n    }\n\n    function unpause() public onlyOwner {\n        _unpause();\n    }\n\n    function airdropCryptid(uint8 _mintAmount, address _to) public onlyOwner {\n        require(provenanceHashFrozen == true, \"Provenance hash must be frozen before minting can start.\");\n        require(stage < 1, \"Past airdrop phase.\");\n        require(_mintAmount <= maxMintPerTx, \"Exceeds max allowed amount per transaction\");\n        require(_mintAmount > 0, \"Airdrop amount must be greater than 0\");\n        require(totalSupply()+ _mintAmount <= whitelistSupply, \"Mint amount will exceed whitelist supply.\");\n        for (uint256 i = 1; i <= _mintAmount; i++) {\n            _safeMint(_to, _tokenIdCounter.current());\n            _tokenIdCounter.increment();\n        }\n    }\n\n    function setMerkleRoot(bytes32 _merkleRoot) public onlyOwner {\n        merkleRoot = _merkleRoot;\n    }\n\n    function setBaseURI(string memory _newBaseURI) public onlyOwner {\n        require(!tokenURIFrozen, \"BaseURI is frozen.\");\n        baseURI = _newBaseURI;\n    } \n    \n    function freezeBaseURI() public onlyOwner {\n        require(bytes(baseURI).length > 0, \"baseURI cannot be empty\");\n        require(!tokenURIFrozen, \"BaseURI is already frozen.\");\n        tokenURIFrozen = true;\n    }\n\n    function nextStage() public onlyOwner {\n        require(provenanceHashFrozen == true, \"Provenance hash must be frozen before minting can start.\");\n        require(stage < 4, \"No stages after public sale\");\n        stage++;\n    }\n\n    function prevStage() public onlyOwner {\n        require(provenanceHashFrozen == true, \"Provenance hash must be frozen before minting can start.\");\n        require(stage > 0, \"No stages before init\");\n        stage--;\n    }\n    \n    function setTeamMintSupply(uint256 _newTeamMintSupply) public onlyOwner {\n        teamMintSupply = _newTeamMintSupply;\n    }\n\n    function setBaseExtension(string memory _newBaseExtension) public onlyOwner {\n        baseExtension = _newBaseExtension;\n    }\n\n\n    function setPublicSalePrice(uint256 _newSalePrice) public onlyOwner {\n        salePrice = _newSalePrice;\n    }\n\n    function setMaxMintPerTx(uint8 _newmaxMintPerTx) public onlyOwner {\n        maxMintPerTx = _newmaxMintPerTx;\n    }\n\n    function setProvenanceHash(string memory _provenanceHash) public onlyOwner {\n        require(!provenanceHashFrozen, \"Provenance hash is frozen.\");\n        provenanceHash = _provenanceHash;\n    }\n\n    function setWithdrawAddress(address _dest1, address _dest2, address _dest3, address _dest4, address _dest5) public onlyOwner {\n        withdrawDest1 = _dest1;\n        withdrawDest2 = _dest2;\n        withdrawDest3 = _dest3;\n        withdrawDest4 = _dest4;\n        withdrawDest5 = _dest5;\n    }\n\n    function freezeProvenanceHash() public onlyOwner {\n        require(bytes(provenanceHash).length > 0, \"Provenance hash cannot be empty.\");\n        require(!provenanceHashFrozen, \"Provenance hash is already frozen.\");\n        provenanceHashFrozen = true;\n    }\n\n    function withdraw() public payable onlyOwner {\n        require(address(this).balance > 0, \"Contract balance is 0.\");\n        (bool ms, ) = payable(withdrawDest1).call{value: address(this).balance.mul(700).div(1000)}(\"\");\n        require(ms, \"withdrawl 1 failed\");\n        (bool ns, ) = payable(withdrawDest2).call{value: address(this).balance.mul(105).div(1000)}(\"\"); \n        require(ns, \"withdrawl 2 failed\");\n        (bool cr, ) = payable(withdrawDest3).call{value: address(this).balance.mul(105).div(1000)}(\"\"); \n        require(cr, \"withdrawl 3 failed\");\n        (bool sn, ) = payable(withdrawDest4).call{value: address(this).balance.mul(45).div(1000)}(\"\");\n        require(sn, \"withdrawl 4 failed\");\n        (bool gr, ) = payable(withdrawDest5).call{value: address(this).balance}(\"\");\n        require(gr, \"withdrawl 5 failed\");\n    }\n\n    // Public view functions\n    function lastMintAddress() public view returns (address){\n        require(totalSupply() > 0, \"No cryptid exists yet.\");\n        return ownerOf(totalSupply());\n    }\n\n    function lastMintID() public view returns (uint256){\n        require(totalSupply() > 0, \"No cryptid exists yet.\");\n        return(totalSupply());\n    }\n\n    function totalSupply() public view returns (uint256) {\n        return _tokenIdCounter.current() - 1;\n    }\n\n    function tokenURI(uint256 tokenId) public view virtual override returns (string memory) {\n        require(_exists(tokenId), \"ERC721Metadata: URI query for nonexistent token\");\n        return string(abi.encodePacked(baseURI, tokenId.toString(), baseExtension));\n    }\n\n    function getTokensLeft() public view returns (uint256) {\n        return totalSaleSupply - totalSupply();\n    }\n    \n    function getStage() public view returns (uint8) {\n        return stage;\n    }\n\n    function _beforeTokenTransfer(address from, address to, uint256 tokenId) internal whenNotPaused override(ERC721) {\n        super._beforeTokenTransfer(from, to, tokenId);\n    }\n\n}",
  "sourcePath": "contracts/CryptidToken.sol",
  "type": "contract"
}