{
  "abi": [
    {
      "inputs": [],
      "name": "getData",
      "outputs": [
        {
          "internalType": "bytes",
          "name": "",
          "type": "bytes"
        }
      ],
      "stateMutability": "view",
      "type": "function"
    },
    {
      "inputs": [],
      "name": "getInvocationCount",
      "outputs": [
        {
          "internalType": "uint256",
          "name": "",
          "type": "uint256"
        }
      ],
      "stateMutability": "view",
      "type": "function"
    },
    {
      "inputs": [
        {
          "internalType": "address",
          "name": "",
          "type": "address"
        },
        {
          "internalType": "address",
          "name": "",
          "type": "address"
        },
        {
          "internalType": "uint256",
          "name": "",
          "type": "uint256"
        },
        {
          "internalType": "bytes",
          "name": "_data",
          "type": "bytes"
        }
      ],
      "name": "onERC721Received",
      "outputs": [
        {
          "internalType": "bytes4",
          "name": "",
          "type": "bytes4"
        }
      ],
      "stateMutability": "payable",
      "type": "function"
    },
    {
      "inputs": [
        {
          "internalType": "bool",
          "name": "value",
          "type": "bool"
        }
      ],
      "name": "setReturnCorrectValue",
      "outputs": [],
      "stateMutability": "nonpayable",
      "type": "function"
    },
    {
      "stateMutability": "payable",
      "type": "receive"
    }
  ],
  "bytecode": "60806040526001805460ff19168117905534801561001c57600080fd5b506104948061002c6000396000f3fe6080604052600436106100435760003560e01c8063150b7a021461004f578063332a9aac146100805780633bc5de301461009e57806341a3436b146100c057600080fd5b3661004a57005b600080fd5b61006261005d3660046102a0565b6100f0565b6040516001600160e01b031990911681526020015b60405180910390f35b34801561008c57600080fd5b50600054604051908152602001610077565b3480156100aa57600080fd5b506100b3610143565b604051610077919061037c565b3480156100cc57600080fd5b506100ee6100db3660046103d1565b6001805460ff1916911515919091179055565b005b6000805481806100ff836103fa565b909155505081516101179060029060208501906101d5565b5060015460ff16156101315750630a85bd0160e11b61013b565b5063150b7a0160e01b5b949350505050565b60606002805461015290610423565b80601f016020809104026020016040519081016040528092919081815260200182805461017e90610423565b80156101cb5780601f106101a0576101008083540402835291602001916101cb565b820191906000526020600020905b8154815290600101906020018083116101ae57829003601f168201915b5050505050905090565b8280546101e190610423565b90600052602060002090601f0160209004810192826102035760008555610249565b82601f1061021c57805160ff1916838001178555610249565b82800160010185558215610249579182015b8281111561024957825182559160200191906001019061022e565b50610255929150610259565b5090565b5b80821115610255576000815560010161025a565b80356001600160a01b038116811461028557600080fd5b919050565b634e487b7160e01b600052604160045260246000fd5b600080600080608085870312156102b657600080fd5b6102bf8561026e565b93506102cd6020860161026e565b925060408501359150606085013567ffffffffffffffff808211156102f157600080fd5b818701915087601f83011261030557600080fd5b8135818111156103175761031761028a565b604051601f8201601f19908116603f0116810190838211818310171561033f5761033f61028a565b816040528281528a602084870101111561035857600080fd5b82602086016020830137600060208483010152809550505050505092959194509250565b600060208083528351808285015260005b818110156103a95785810183015185820160400152820161038d565b818111156103bb576000604083870101525b50601f01601f1916929092016040019392505050565b6000602082840312156103e357600080fd5b813580151581146103f357600080fd5b9392505050565b600060001982141561041c57634e487b7160e01b600052601160045260246000fd5b5060010190565b600181811c9082168061043757607f821691505b6020821081141561045857634e487b7160e01b600052602260045260246000fd5b5091905056fea2646970667358221220a0090eccb9f1098f87490ed43a4048e1faa7e6a847a5289ca487da84ff58323664736f6c634300080b0033",
  "bytecodeSha1": "3c6650de6245781f7d8aca76ecf8b3d8d95bf080",
  "compiler": {
    "evm_version": "istanbul",
    "optimizer": {
      "enabled": true,
      "runs": 200
    },
    "version": "0.8.11+commit.d7f03943"
  },
  "contractName": "ReceiverContract",
  "language": "Solidity",
  "natspec": {
    "kind": "dev",
    "methods": {},
    "version": 1
  },
  "opcodes": "PUSH1 0x80 PUSH1 0x40 MSTORE PUSH1 0x4 CALLDATASIZE LT PUSH2 0x43 JUMPI PUSH1 0x0 CALLDATALOAD PUSH1 0xE0 SHR DUP1 PUSH4 0x150B7A02 EQ PUSH2 0x4F JUMPI DUP1 PUSH4 0x332A9AAC EQ PUSH2 0x80 JUMPI DUP1 PUSH4 0x3BC5DE30 EQ PUSH2 0x9E JUMPI DUP1 PUSH4 0x41A3436B EQ PUSH2 0xC0 JUMPI PUSH1 0x0 DUP1 REVERT JUMPDEST CALLDATASIZE PUSH2 0x4A JUMPI STOP JUMPDEST PUSH1 0x0 DUP1 REVERT JUMPDEST PUSH2 0x62 PUSH2 0x5D CALLDATASIZE PUSH1 0x4 PUSH2 0x2A0 JUMP JUMPDEST PUSH2 0xF0 JUMP JUMPDEST PUSH1 0x40 MLOAD PUSH1 0x1 PUSH1 0x1 PUSH1 0xE0 SHL SUB NOT SWAP1 SWAP2 AND DUP2 MSTORE PUSH1 0x20 ADD JUMPDEST PUSH1 0x40 MLOAD DUP1 SWAP2 SUB SWAP1 RETURN JUMPDEST CALLVALUE DUP1 ISZERO PUSH2 0x8C JUMPI PUSH1 0x0 DUP1 REVERT JUMPDEST POP PUSH1 0x0 SLOAD PUSH1 0x40 MLOAD SWAP1 DUP2 MSTORE PUSH1 0x20 ADD PUSH2 0x77 JUMP JUMPDEST CALLVALUE DUP1 ISZERO PUSH2 0xAA JUMPI PUSH1 0x0 DUP1 REVERT JUMPDEST POP PUSH2 0xB3 PUSH2 0x143 JUMP JUMPDEST PUSH1 0x40 MLOAD PUSH2 0x77 SWAP2 SWAP1 PUSH2 0x37C JUMP JUMPDEST CALLVALUE DUP1 ISZERO PUSH2 0xCC JUMPI PUSH1 0x0 DUP1 REVERT JUMPDEST POP PUSH2 0xEE PUSH2 0xDB CALLDATASIZE PUSH1 0x4 PUSH2 0x3D1 JUMP JUMPDEST PUSH1 0x1 DUP1 SLOAD PUSH1 0xFF NOT AND SWAP2 ISZERO ISZERO SWAP2 SWAP1 SWAP2 OR SWAP1 SSTORE JUMP JUMPDEST STOP JUMPDEST PUSH1 0x0 DUP1 SLOAD DUP2 DUP1 PUSH2 0xFF DUP4 PUSH2 0x3FA JUMP JUMPDEST SWAP1 SWAP2 SSTORE POP POP DUP2 MLOAD PUSH2 0x117 SWAP1 PUSH1 0x2 SWAP1 PUSH1 0x20 DUP6 ADD SWAP1 PUSH2 0x1D5 JUMP JUMPDEST POP PUSH1 0x1 SLOAD PUSH1 0xFF AND ISZERO PUSH2 0x131 JUMPI POP PUSH4 0xA85BD01 PUSH1 0xE1 SHL PUSH2 0x13B JUMP JUMPDEST POP PUSH4 0x150B7A01 PUSH1 0xE0 SHL JUMPDEST SWAP5 SWAP4 POP POP POP POP JUMP JUMPDEST PUSH1 0x60 PUSH1 0x2 DUP1 SLOAD PUSH2 0x152 SWAP1 PUSH2 0x423 JUMP JUMPDEST DUP1 PUSH1 0x1F ADD PUSH1 0x20 DUP1 SWAP2 DIV MUL PUSH1 0x20 ADD PUSH1 0x40 MLOAD SWAP1 DUP2 ADD PUSH1 0x40 MSTORE DUP1 SWAP3 SWAP2 SWAP1 DUP2 DUP2 MSTORE PUSH1 0x20 ADD DUP3 DUP1 SLOAD PUSH2 0x17E SWAP1 PUSH2 0x423 JUMP JUMPDEST DUP1 ISZERO PUSH2 0x1CB JUMPI DUP1 PUSH1 0x1F LT PUSH2 0x1A0 JUMPI PUSH2 0x100 DUP1 DUP4 SLOAD DIV MUL DUP4 MSTORE SWAP2 PUSH1 0x20 ADD SWAP2 PUSH2 0x1CB JUMP JUMPDEST DUP3 ADD SWAP2 SWAP1 PUSH1 0x0 MSTORE PUSH1 0x20 PUSH1 0x0 KECCAK256 SWAP1 JUMPDEST DUP2 SLOAD DUP2 MSTORE SWAP1 PUSH1 0x1 ADD SWAP1 PUSH1 0x20 ADD DUP1 DUP4 GT PUSH2 0x1AE JUMPI DUP3 SWAP1 SUB PUSH1 0x1F AND DUP3 ADD SWAP2 JUMPDEST POP POP POP POP POP SWAP1 POP SWAP1 JUMP JUMPDEST DUP3 DUP1 SLOAD PUSH2 0x1E1 SWAP1 PUSH2 0x423 JUMP JUMPDEST SWAP1 PUSH1 0x0 MSTORE PUSH1 0x20 PUSH1 0x0 KECCAK256 SWAP1 PUSH1 0x1F ADD PUSH1 0x20 SWAP1 DIV DUP2 ADD SWAP3 DUP3 PUSH2 0x203 JUMPI PUSH1 0x0 DUP6 SSTORE PUSH2 0x249 JUMP JUMPDEST DUP3 PUSH1 0x1F LT PUSH2 0x21C JUMPI DUP1 MLOAD PUSH1 0xFF NOT AND DUP4 DUP1 ADD OR DUP6 SSTORE PUSH2 0x249 JUMP JUMPDEST DUP3 DUP1 ADD PUSH1 0x1 ADD DUP6 SSTORE DUP3 ISZERO PUSH2 0x249 JUMPI SWAP2 DUP3 ADD JUMPDEST DUP3 DUP2 GT ISZERO PUSH2 0x249 JUMPI DUP3 MLOAD DUP3 SSTORE SWAP2 PUSH1 0x20 ADD SWAP2 SWAP1 PUSH1 0x1 ADD SWAP1 PUSH2 0x22E JUMP JUMPDEST POP PUSH2 0x255 SWAP3 SWAP2 POP PUSH2 0x259 JUMP JUMPDEST POP SWAP1 JUMP JUMPDEST JUMPDEST DUP1 DUP3 GT ISZERO PUSH2 0x255 JUMPI PUSH1 0x0 DUP2 SSTORE PUSH1 0x1 ADD PUSH2 0x25A JUMP JUMPDEST DUP1 CALLDATALOAD PUSH1 0x1 PUSH1 0x1 PUSH1 0xA0 SHL SUB DUP2 AND DUP2 EQ PUSH2 0x285 JUMPI PUSH1 0x0 DUP1 REVERT JUMPDEST SWAP2 SWAP1 POP JUMP JUMPDEST PUSH4 0x4E487B71 PUSH1 0xE0 SHL PUSH1 0x0 MSTORE PUSH1 0x41 PUSH1 0x4 MSTORE PUSH1 0x24 PUSH1 0x0 REVERT JUMPDEST PUSH1 0x0 DUP1 PUSH1 0x0 DUP1 PUSH1 0x80 DUP6 DUP8 SUB SLT ISZERO PUSH2 0x2B6 JUMPI PUSH1 0x0 DUP1 REVERT JUMPDEST PUSH2 0x2BF DUP6 PUSH2 0x26E JUMP JUMPDEST SWAP4 POP PUSH2 0x2CD PUSH1 0x20 DUP7 ADD PUSH2 0x26E JUMP JUMPDEST SWAP3 POP PUSH1 0x40 DUP6 ADD CALLDATALOAD SWAP2 POP PUSH1 0x60 DUP6 ADD CALLDATALOAD PUSH8 0xFFFFFFFFFFFFFFFF DUP1 DUP3 GT ISZERO PUSH2 0x2F1 JUMPI PUSH1 0x0 DUP1 REVERT JUMPDEST DUP2 DUP8 ADD SWAP2 POP DUP8 PUSH1 0x1F DUP4 ADD SLT PUSH2 0x305 JUMPI PUSH1 0x0 DUP1 REVERT JUMPDEST DUP2 CALLDATALOAD DUP2 DUP2 GT ISZERO PUSH2 0x317 JUMPI PUSH2 0x317 PUSH2 0x28A JUMP JUMPDEST PUSH1 0x40 MLOAD PUSH1 0x1F DUP3 ADD PUSH1 0x1F NOT SWAP1 DUP2 AND PUSH1 0x3F ADD AND DUP2 ADD SWAP1 DUP4 DUP3 GT DUP2 DUP4 LT OR ISZERO PUSH2 0x33F JUMPI PUSH2 0x33F PUSH2 0x28A JUMP JUMPDEST DUP2 PUSH1 0x40 MSTORE DUP3 DUP2 MSTORE DUP11 PUSH1 0x20 DUP5 DUP8 ADD ADD GT ISZERO PUSH2 0x358 JUMPI PUSH1 0x0 DUP1 REVERT JUMPDEST DUP3 PUSH1 0x20 DUP7 ADD PUSH1 0x20 DUP4 ADD CALLDATACOPY PUSH1 0x0 PUSH1 0x20 DUP5 DUP4 ADD ADD MSTORE DUP1 SWAP6 POP POP POP POP POP POP SWAP3 SWAP6 SWAP2 SWAP5 POP SWAP3 POP JUMP JUMPDEST PUSH1 0x0 PUSH1 0x20 DUP1 DUP4 MSTORE DUP4 MLOAD DUP1 DUP3 DUP6 ADD MSTORE PUSH1 0x0 JUMPDEST DUP2 DUP2 LT ISZERO PUSH2 0x3A9 JUMPI DUP6 DUP2 ADD DUP4 ADD MLOAD DUP6 DUP3 ADD PUSH1 0x40 ADD MSTORE DUP3 ADD PUSH2 0x38D JUMP JUMPDEST DUP2 DUP2 GT ISZERO PUSH2 0x3BB JUMPI PUSH1 0x0 PUSH1 0x40 DUP4 DUP8 ADD ADD MSTORE JUMPDEST POP PUSH1 0x1F ADD PUSH1 0x1F NOT AND SWAP3 SWAP1 SWAP3 ADD PUSH1 0x40 ADD SWAP4 SWAP3 POP POP POP JUMP JUMPDEST PUSH1 0x0 PUSH1 0x20 DUP3 DUP5 SUB SLT ISZERO PUSH2 0x3E3 JUMPI PUSH1 0x0 DUP1 REVERT JUMPDEST DUP2 CALLDATALOAD DUP1 ISZERO ISZERO DUP2 EQ PUSH2 0x3F3 JUMPI PUSH1 0x0 DUP1 REVERT JUMPDEST SWAP4 SWAP3 POP POP POP JUMP JUMPDEST PUSH1 0x0 PUSH1 0x0 NOT DUP3 EQ ISZERO PUSH2 0x41C JUMPI PUSH4 0x4E487B71 PUSH1 0xE0 SHL PUSH1 0x0 MSTORE PUSH1 0x11 PUSH1 0x4 MSTORE PUSH1 0x24 PUSH1 0x0 REVERT JUMPDEST POP PUSH1 0x1 ADD SWAP1 JUMP JUMPDEST PUSH1 0x1 DUP2 DUP2 SHR SWAP1 DUP3 AND DUP1 PUSH2 0x437 JUMPI PUSH1 0x7F DUP3 AND SWAP2 POP JUMPDEST PUSH1 0x20 DUP3 LT DUP2 EQ ISZERO PUSH2 0x458 JUMPI PUSH4 0x4E487B71 PUSH1 0xE0 SHL PUSH1 0x0 MSTORE PUSH1 0x22 PUSH1 0x4 MSTORE PUSH1 0x24 PUSH1 0x0 REVERT JUMPDEST POP SWAP2 SWAP1 POP JUMP INVALID LOG2 PUSH5 0x6970667358 0x22 SLT KECCAK256 LOG0 MULMOD 0xE 0xCC 0xB9 CALL MULMOD DUP16 DUP8 0x49 0xE 0xD4 GASPRICE BLOCKHASH BASEFEE 0xE1 STATICCALL 0xA7 0xE6 0xA8 SELFBALANCE 0xA5 0x28 SWAP13 LOG4 DUP8 0xDA DUP5 SELFDESTRUCT PC ORIGIN CALLDATASIZE PUSH5 0x736F6C6343 STOP ADDMOD SIGNEXTEND STOP CALLER ",
  "sha1": "01552209e3455a8d6468adeb6878eea3e847b9c8",
  "source": "// contracts/MyContract.sol\n// SPDX-License-Identifier: MIT\npragma solidity ^0.8.10;\n\ncontract ReceiverContract {\n\n    bytes4 internal constant magicValue = 0x150b7a02;\n    bytes4 internal constant wrongMagicValue = 0x150b7a01;\n    uint256 internal invocationCount;\n    bool internal returnCorrectValue = true;\n    bytes data; \n\n    function onERC721Received(address, address,  uint256, bytes memory _data ) external payable returns(bytes4) {\n        invocationCount++;\n        data = _data;\n        if (returnCorrectValue) {\n            return magicValue;\n        }\n        return wrongMagicValue;\n    }\n\n    receive() external payable {\n            // React to receiving ether\n        }\n\n    function getInvocationCount() public view returns(uint256) {\n        return invocationCount;\n    }\n\n    function getData() public view returns(bytes memory) {\n        return data;\n    }\n\n    function setReturnCorrectValue(bool value) external {\n        returnCorrectValue = value;\n    }\n\n}",
  "sourcePath": "contracts/ReceiverContract.sol",
  "type": "contract"
}