{"abi":[{"inputs":[{"internalType":"string","name":"_name","type":"string"},{"internalType":"string","name":"_symbol","type":"string"},{"internalType":"string","name":"_initBaseURI","type":"string"},{"internalType":"uint256","name":"_presaleSupply","type":"uint256"},{"internalType":"uint256","name":"_teamMintSupply","type":"uint256"},{"internalType":"uint256","name":"_totalSaleSupply","type":"uint256"},{"internalType":"uint256","name":"_maxMintPerTx","type":"uint256"}],"stateMutability":"nonpayable","type":"constructor","name":"constructor"},{"anonymous":false,"inputs":[{"indexed":true,"internalType":"address","name":"owner","type":"address"},{"indexed":true,"internalType":"address","name":"approved","type":"address"},{"indexed":true,"internalType":"uint256","name":"tokenId","type":"uint256"}],"name":"Approval","type":"event"},{"anonymous":false,"inputs":[{"indexed":true,"internalType":"address","name":"owner","type":"address"},{"indexed":true,"internalType":"address","name":"operator","type":"address"},{"indexed":false,"internalType":"bool","name":"approved","type":"bool"}],"name":"ApprovalForAll","type":"event"},{"anonymous":false,"inputs":[{"indexed":false,"internalType":"string","name":"baseURI","type":"string"}],"name":"BaseURIChanged","type":"event"},{"anonymous":false,"inputs":[{"indexed":false,"internalType":"address","name":"minter","type":"address"},{"indexed":false,"internalType":"uint8","name":"mintAmount","type":"uint8"},{"indexed":false,"internalType":"uint256","name":"LastTokenMinted","type":"uint256"}],"name":"Mint","type":"event"},{"anonymous":false,"inputs":[{"indexed":true,"internalType":"address","name":"previousOwner","type":"address"},{"indexed":true,"internalType":"address","name":"newOwner","type":"address"}],"name":"OwnershipTransferred","type":"event"},{"anonymous":false,"inputs":[{"indexed":false,"internalType":"address","name":"account","type":"address"}],"name":"Paused","type":"event"},{"anonymous":false,"inputs":[{"indexed":true,"internalType":"address","name":"from","type":"address"},{"indexed":true,"internalType":"address","name":"to","type":"address"},{"indexed":true,"internalType":"uint256","name":"tokenId","type":"uint256"}],"name":"Transfer","type":"event"},{"anonymous":false,"inputs":[{"indexed":false,"internalType":"address","name":"account","type":"address"}],"name":"Unpaused","type":"event"},{"inputs":[{"internalType":"address","name":"to","type":"address"},{"internalType":"uint256","name":"tokenId","type":"uint256"}],"name":"approve","outputs":[],"stateMutability":"nonpayable","type":"function"},{"inputs":[{"internalType":"address","name":"owner","type":"address"}],"name":"balanceOf","outputs":[{"internalType":"uint256","name":"","type":"uint256"}],"stateMutability":"view","type":"function"},{"inputs":[],"name":"baseExtension","outputs":[{"internalType":"string","name":"","type":"string"}],"stateMutability":"view","type":"function"},{"inputs":[],"name":"baseURI","outputs":[{"internalType":"string","name":"","type":"string"}],"stateMutability":"view","type":"function"},{"inputs":[],"name":"freezeBaseURI","outputs":[],"stateMutability":"nonpayable","type":"function"},{"inputs":[],"name":"freezeProvenanceHash","outputs":[],"stateMutability":"nonpayable","type":"function"},{"inputs":[{"internalType":"uint256","name":"tokenId","type":"uint256"}],"name":"getApproved","outputs":[{"internalType":"address","name":"","type":"address"}],"stateMutability":"view","type":"function"},{"inputs":[],"name":"getTokensLeft","outputs":[{"internalType":"uint256","name":"","type":"uint256"}],"stateMutability":"view","type":"function"},{"inputs":[{"internalType":"address","name":"owner","type":"address"},{"internalType":"address","name":"operator","type":"address"}],"name":"isApprovedForAll","outputs":[{"internalType":"bool","name":"","type":"bool"}],"stateMutability":"view","type":"function"},{"inputs":[],"name":"lastMintAddress","outputs":[{"internalType":"address","name":"","type":"address"}],"stateMutability":"view","type":"function"},{"inputs":[],"name":"lastMintID","outputs":[{"internalType":"uint256","name":"","type":"uint256"}],"stateMutability":"view","type":"function"},{"inputs":[],"name":"maxMintPerTx","outputs":[{"internalType":"uint256","name":"","type":"uint256"}],"stateMutability":"view","type":"function"},{"inputs":[{"internalType":"uint8","name":"_mintAmount","type":"uint8"}],"name":"mint","outputs":[],"stateMutability":"payable","type":"function"},{"inputs":[],"name":"name","outputs":[{"internalType":"string","name":"","type":"string"}],"stateMutability":"view","type":"function"},{"inputs":[],"name":"nextStage","outputs":[],"stateMutability":"nonpayable","type":"function"},{"inputs":[],"name":"owner","outputs":[{"internalType":"address","name":"","type":"address"}],"stateMutability":"view","type":"function"},{"inputs":[{"internalType":"uint256","name":"tokenId","type":"uint256"}],"name":"ownerOf","outputs":[{"internalType":"address","name":"","type":"address"}],"stateMutability":"view","type":"function"},{"inputs":[],"name":"pause","outputs":[],"stateMutability":"nonpayable","type":"function"},{"inputs":[],"name":"paused","outputs":[{"internalType":"bool","name":"","type":"bool"}],"stateMutability":"view","type":"function"},{"inputs":[{"internalType":"address","name":"","type":"address"}],"name":"presaleMintCount","outputs":[{"internalType":"uint8","name":"","type":"uint8"}],"stateMutability":"view","type":"function"},{"inputs":[],"name":"presaleMintMax","outputs":[{"internalType":"uint256","name":"","type":"uint256"}],"stateMutability":"view","type":"function"},{"inputs":[],"name":"presalePrice","outputs":[{"internalType":"uint256","name":"","type":"uint256"}],"stateMutability":"view","type":"function"},{"inputs":[],"name":"presaleSupply","outputs":[{"internalType":"uint256","name":"","type":"uint256"}],"stateMutability":"view","type":"function"},{"inputs":[{"internalType":"address","name":"","type":"address"}],"name":"presaleUsers","outputs":[{"internalType":"bool","name":"","type":"bool"}],"stateMutability":"view","type":"function"},{"inputs":[],"name":"provenanceHash","outputs":[{"internalType":"string","name":"","type":"string"}],"stateMutability":"view","type":"function"},{"inputs":[],"name":"provenanceHashFrozen","outputs":[{"internalType":"bool","name":"","type":"bool"}],"stateMutability":"view","type":"function"},{"inputs":[{"internalType":"address","name":"_user","type":"address"}],"name":"removePresaleUser","outputs":[],"stateMutability":"nonpayable","type":"function"},{"inputs":[{"internalType":"address","name":"_user","type":"address"}],"name":"removeWhitelistUser","outputs":[],"stateMutability":"nonpayable","type":"function"},{"inputs":[],"name":"renounceOwnership","outputs":[],"stateMutability":"nonpayable","type":"function"},{"inputs":[{"internalType":"address","name":"from","type":"address"},{"internalType":"address","name":"to","type":"address"},{"internalType":"uint256","name":"tokenId","type":"uint256"}],"name":"safeTransferFrom","outputs":[],"stateMutability":"nonpayable","type":"function"},{"inputs":[{"internalType":"address","name":"from","type":"address"},{"internalType":"address","name":"to","type":"address"},{"internalType":"uint256","name":"tokenId","type":"uint256"},{"internalType":"bytes","name":"_data","type":"bytes"}],"name":"safeTransferFrom","outputs":[],"stateMutability":"nonpayable","type":"function"},{"inputs":[],"name":"salePrice","outputs":[{"internalType":"uint256","name":"","type":"uint256"}],"stateMutability":"view","type":"function"},{"inputs":[{"internalType":"address","name":"operator","type":"address"},{"internalType":"bool","name":"approved","type":"bool"}],"name":"setApprovalForAll","outputs":[],"stateMutability":"nonpayable","type":"function"},{"inputs":[{"internalType":"string","name":"_newBaseURI","type":"string"}],"name":"setBaseURI","outputs":[],"stateMutability":"nonpayable","type":"function"},{"inputs":[{"internalType":"uint256","name":"_newmaxMintPerTx","type":"uint256"}],"name":"setMaxMintPerTx","outputs":[],"stateMutability":"nonpayable","type":"function"},{"inputs":[{"internalType":"uint256","name":"_newPresalePrice","type":"uint256"}],"name":"setPresalePrice","outputs":[],"stateMutability":"nonpayable","type":"function"},{"inputs":[{"internalType":"address[]","name":"_users","type":"address[]"}],"name":"setPresaleUsers","outputs":[],"stateMutability":"nonpayable","type":"function"},{"inputs":[{"internalType":"string","name":"_provenanceHash","type":"string"}],"name":"setProvenanceHash","outputs":[],"stateMutability":"nonpayable","type":"function"},{"inputs":[{"internalType":"uint256","name":"_newSalePrice","type":"uint256"}],"name":"setPublicSalePrice","outputs":[],"stateMutability":"nonpayable","type":"function"},{"inputs":[{"internalType":"uint256","name":"_newTeamMintSupply","type":"uint256"}],"name":"setTeamMintSupply","outputs":[],"stateMutability":"nonpayable","type":"function"},{"inputs":[{"internalType":"address[]","name":"_users","type":"address[]"},{"internalType":"uint8[]","name":"_mints","type":"uint8[]"}],"name":"setWhitelistUsers","outputs":[],"stateMutability":"nonpayable","type":"function"},{"inputs":[],"name":"stage","outputs":[{"internalType":"uint8","name":"","type":"uint8"}],"stateMutability":"view","type":"function"},{"inputs":[{"internalType":"bytes4","name":"interfaceId","type":"bytes4"}],"name":"supportsInterface","outputs":[{"internalType":"bool","name":"","type":"bool"}],"stateMutability":"view","type":"function"},{"inputs":[],"name":"symbol","outputs":[{"internalType":"string","name":"","type":"string"}],"stateMutability":"view","type":"function"},{"inputs":[],"name":"teamMintCount","outputs":[{"internalType":"uint256","name":"","type":"uint256"}],"stateMutability":"view","type":"function"},{"inputs":[],"name":"teamMintSupply","outputs":[{"internalType":"uint256","name":"","type":"uint256"}],"stateMutability":"view","type":"function"},{"inputs":[{"internalType":"uint256","name":"index","type":"uint256"}],"name":"tokenByIndex","outputs":[{"internalType":"uint256","name":"","type":"uint256"}],"stateMutability":"view","type":"function"},{"inputs":[{"internalType":"address","name":"owner","type":"address"},{"internalType":"uint256","name":"index","type":"uint256"}],"name":"tokenOfOwnerByIndex","outputs":[{"internalType":"uint256","name":"","type":"uint256"}],"stateMutability":"view","type":"function"},{"inputs":[{"internalType":"uint256","name":"tokenId","type":"uint256"}],"name":"tokenURI","outputs":[{"internalType":"string","name":"","type":"string"}],"stateMutability":"view","type":"function"},{"inputs":[],"name":"tokenURIFrozen","outputs":[{"internalType":"bool","name":"","type":"bool"}],"stateMutability":"view","type":"function"},{"inputs":[],"name":"totalSaleSupply","outputs":[{"internalType":"uint256","name":"","type":"uint256"}],"stateMutability":"view","type":"function"},{"inputs":[],"name":"totalSupply","outputs":[{"internalType":"uint256","name":"","type":"uint256"}],"stateMutability":"view","type":"function"},{"inputs":[{"internalType":"address","name":"from","type":"address"},{"internalType":"address","name":"to","type":"address"},{"internalType":"uint256","name":"tokenId","type":"uint256"}],"name":"transferFrom","outputs":[],"stateMutability":"nonpayable","type":"function"},{"inputs":[{"internalType":"address","name":"newOwner","type":"address"}],"name":"transferOwnership","outputs":[],"stateMutability":"nonpayable","type":"function"},{"inputs":[],"name":"unpause","outputs":[],"stateMutability":"nonpayable","type":"function"},{"inputs":[{"internalType":"address","name":"_owner","type":"address"}],"name":"walletOfOwner","outputs":[{"internalType":"uint256[]","name":"","type":"uint256[]"}],"stateMutability":"view","type":"function"},{"inputs":[{"internalType":"address","name":"","type":"address"}],"name":"whitelistUsers","outputs":[{"internalType":"uint8","name":"","type":"uint8"}],"stateMutability":"view","type":"function"},{"inputs":[],"name":"withdraw","outputs":[],"stateMutability":"payable","type":"function"}],"bytecode":"60c06040526005608081905264173539b7b760d91b60a09081526200002891600e919062000279565b50600f805460ff191690556011805461ffff19169055668e1bc9bf040000601555600560165566b1a2bc2ec50000601a553480156200006657600080fd5b50604051620042d5380380620042d58339810160408190526200008991620003ec565b865187908790620000a290600090602085019062000279565b508051620000b890600190602084019062000279565b5050600a805460ff1916905550620000d03362000113565b60148490556018839055601b8290556010819055620000ef856200016d565b62000106600b6200027060201b6200273e1760201c565b5050505050505062000591565b600a80546001600160a01b03838116610100818102610100600160a81b031985161790945560405193909204169182907f8be0079c531659141344cd1fd0a4f28419497f9722a3daafe3b4186f6b6457e090600090a35050565b600a546001600160a01b03610100909104163314620001d35760405162461bcd60e51b815260206004820181905260248201527f4f776e61626c653a2063616c6c6572206973206e6f7420746865206f776e657260448201526064015b60405180910390fd5b60115460ff16156200021d5760405162461bcd60e51b81526020600482015260126024820152712130b9b2aaa9249034b990333937bd32b71760711b6044820152606401620001ca565b80516200023290600d90602084019062000279565b507f5411e8ebf1636d9e83d5fc4900bf80cbac82e8790da2a4c94db4895e889eedf6600d604051620002659190620004e1565b60405180910390a150565b80546001019055565b8280546200028790620004a4565b90600052602060002090601f016020900481019282620002ab5760008555620002f6565b82601f10620002c657805160ff1916838001178555620002f6565b82800160010185558215620002f6579182015b82811115620002f6578251825591602001919060010190620002d9565b506200030492915062000308565b5090565b5b8082111562000304576000815560010162000309565b634e487b7160e01b600052604160045260246000fd5b600082601f8301126200034757600080fd5b81516001600160401b03808211156200036457620003646200031f565b604051601f8301601f19908116603f011681019082821181831017156200038f576200038f6200031f565b81604052838152602092508683858801011115620003ac57600080fd5b600091505b83821015620003d05785820183015181830184015290820190620003b1565b83821115620003e25760008385830101525b9695505050505050565b600080600080600080600060e0888a0312156200040857600080fd5b87516001600160401b03808211156200042057600080fd5b6200042e8b838c0162000335565b985060208a01519150808211156200044557600080fd5b620004538b838c0162000335565b975060408a01519150808211156200046a57600080fd5b50620004798a828b0162000335565b955050606088015193506080880151925060a0880151915060c0880151905092959891949750929550565b600181811c90821680620004b957607f821691505b60208210811415620004db57634e487b7160e01b600052602260045260246000fd5b50919050565b600060208083526000845481600182811c9150808316806200050457607f831692505b8583108114156200052357634e487b7160e01b85526022600452602485fd5b878601838152602001818015620005435760018114620005555762000582565b60ff1986168252878201965062000582565b60008b81526020902060005b868110156200057c5781548482015290850190890162000561565b83019750505b50949998505050505050505050565b613d3480620005a16000396000f3fe6080604052600436106103805760003560e01c806370a08231116101d1578063c29de63011610102578063de7fcb1d116100a0578063ed931e171161006f578063ed931e17146109f0578063ee3743ab14610a10578063f2fde38b14610a25578063f51f96dd14610a4557600080fd5b8063de7fcb1d14610966578063e6cbb6b11461097c578063e7bc820814610992578063e985e9c5146109a757600080fd5b8063c6ab67a3116100dc578063c6ab67a314610907578063c87b56dd1461091c578063d6d67a091461093c578063de5f98661461095157600080fd5b8063c29de630146108c2578063c3214581146108dc578063c6682862146108f257600080fd5b80638da5cb5b1161016f578063a22cb46511610149578063a22cb46514610852578063b3a196e914610872578063b88d4fde14610888578063c040e6b8146108a857600080fd5b80638da5cb5b146107fb57806395d89b411461081e5780639a2a9c3d1461083357600080fd5b8063791a2519116101ab578063791a25191461079157806381c162f2146107b15780638456cb59146107c6578063865054ed146107db57600080fd5b806370a0823114610746578063715018a614610766578063782319781461077b57600080fd5b806330cc7ae0116102b657806355f804b3116102545780636c0360eb116102235780636c0360eb146106d95780636cbb8985146106ee5780636ec55dbc146107035780636ecd23061461073357600080fd5b806355f804b3146106615780635c975abb14610681578063616cdb1e146106995780636352211e146106b957600080fd5b80633f4ba83a116102905780633f4ba83a146105df57806342842e0e146105f4578063438b6300146106145780634f6ccce71461064157600080fd5b806330cc7ae0146105975780633549345e146105b75780633ccfd60b146105d757600080fd5b80630b0c312d1161032357806320841a6a116102fd57806320841a6a1461051757806323957c661461053757806323b872dd146105575780632f745c591461057757600080fd5b80630b0c312d146104b257806310969523146104e257806318160ddd1461050257600080fd5b8063081812fc1161035f578063081812fc14610400578063088139a614610438578063094e40721461044e578063095ea7b31461049057600080fd5b80620e7fa81461038557806301ffc9a7146103ae57806306fdde03146103de575b600080fd5b34801561039157600080fd5b5061039b60155481565b6040519081526020015b60405180910390f35b3480156103ba57600080fd5b506103ce6103c93660046133e7565b610a5b565b60405190151581526020016103a5565b3480156103ea57600080fd5b506103f3610a6c565b6040516103a5919061345c565b34801561040c57600080fd5b5061042061041b36600461346f565b610afe565b6040516001600160a01b0390911681526020016103a5565b34801561044457600080fd5b5061039b60195481565b34801561045a57600080fd5b5061047e6104693660046134a4565b60176020526000908152604090205460ff1681565b60405160ff90911681526020016103a5565b34801561049c57600080fd5b506104b06104ab3660046134bf565b610b98565b005b3480156104be57600080fd5b506103ce6104cd3660046134a4565b60136020526000908152604090205460ff1681565b3480156104ee57600080fd5b506104b06104fd366004613588565b610cae565b34801561050e57600080fd5b5061039b610d4d565b34801561052357600080fd5b506104b061053236600461346f565b610d69565b34801561054357600080fd5b506104b0610552366004613667565b610df5565b34801561056357600080fd5b506104b061057236600461369c565b610edc565b34801561058357600080fd5b5061039b6105923660046134bf565b610f0d565b3480156105a357600080fd5b506104b06105b23660046134a4565b610fa3565b3480156105c357600080fd5b506104b06105d236600461346f565b6110c7565b6104b061114b565b3480156105eb57600080fd5b506104b0611315565b34801561060057600080fd5b506104b061060f36600461369c565b61134f565b34801561062057600080fd5b5061063461062f3660046134a4565b61136a565b6040516103a591906136d8565b34801561064d57600080fd5b5061039b61065c36600461346f565b61140c565b34801561066d57600080fd5b506104b061067c366004613588565b61149f565b34801561068d57600080fd5b50600a5460ff166103ce565b3480156106a557600080fd5b506104b06106b436600461346f565b611566565b3480156106c557600080fd5b506104206106d436600461346f565b61159b565b3480156106e557600080fd5b506103f3611612565b3480156106fa57600080fd5b506104206116a0565b34801561070f57600080fd5b5061047e61071e3660046134a4565b60126020526000908152604090205460ff1681565b6104b061074136600461372d565b6116fa565b34801561075257600080fd5b5061039b6107613660046134a4565b611e49565b34801561077257600080fd5b506104b0611ed0565b34801561078757600080fd5b5061039b601b5481565b34801561079d57600080fd5b506104b06107ac36600461346f565b611f0a565b3480156107bd57600080fd5b506104b0611f3f565b3480156107d257600080fd5b506104b0612041565b3480156107e757600080fd5b506104b06107f6366004613748565b612079565b34801561080757600080fd5b50600a5461010090046001600160a01b0316610420565b34801561082a57600080fd5b506103f361218f565b34801561083f57600080fd5b506011546103ce90610100900460ff1681565b34801561085e57600080fd5b506104b061086d36600461380a565b61219e565b34801561087e57600080fd5b5061039b60145481565b34801561089457600080fd5b506104b06108a3366004613846565b6121a9565b3480156108b457600080fd5b50600f5461047e9060ff1681565b3480156108ce57600080fd5b506011546103ce9060ff1681565b3480156108e857600080fd5b5061039b60185481565b3480156108fe57600080fd5b506103f36121e1565b34801561091357600080fd5b506103f36121ee565b34801561092857600080fd5b506103f361093736600461346f565b6121fb565b34801561094857600080fd5b5061039b61235c565b34801561095d57600080fd5b5061039b6123b3565b34801561097257600080fd5b5061039b60105481565b34801561098857600080fd5b5061039b60165481565b34801561099e57600080fd5b506104b06123ca565b3480156109b357600080fd5b506103ce6109c23660046138c2565b6001600160a01b03918216600090815260056020908152604080832093909416825291909152205460ff1690565b3480156109fc57600080fd5b506104b0610a0b3660046134a4565b6124ba565b348015610a1c57600080fd5b506104b0612573565b348015610a3157600080fd5b506104b0610a403660046134a4565b61269d565b348015610a5157600080fd5b5061039b601a5481565b6000610a6682612747565b92915050565b606060008054610a7b906138f5565b80601f0160208091040260200160405190810160405280929190818152602001828054610aa7906138f5565b8015610af45780601f10610ac957610100808354040283529160200191610af4565b820191906000526020600020905b815481529060010190602001808311610ad757829003601f168201915b5050505050905090565b6000818152600260205260408120546001600160a01b0316610b7c5760405162461bcd60e51b815260206004820152602c60248201527f4552433732313a20617070726f76656420717565727920666f72206e6f6e657860448201526b34b9ba32b73a103a37b5b2b760a11b60648201526084015b60405180910390fd5b506000908152600460205260409020546001600160a01b031690565b6000610ba38261159b565b9050806001600160a01b0316836001600160a01b03161415610c115760405162461bcd60e51b815260206004820152602160248201527f4552433732313a20617070726f76616c20746f2063757272656e74206f776e656044820152603960f91b6064820152608401610b73565b336001600160a01b0382161480610c2d5750610c2d81336109c2565b610c9f5760405162461bcd60e51b815260206004820152603860248201527f4552433732313a20617070726f76652063616c6c6572206973206e6f74206f7760448201527f6e6572206e6f7220617070726f76656420666f7220616c6c00000000000000006064820152608401610b73565b610ca9838361276c565b505050565b600a546001600160a01b03610100909104163314610cde5760405162461bcd60e51b8152600401610b7390613930565b601154610100900460ff1615610d365760405162461bcd60e51b815260206004820152601a60248201527f50726f76656e616e636520686173682069732066726f7a656e2e0000000000006044820152606401610b73565b8051610d4990600c906020840190613338565b5050565b60006001610d5a600b5490565b610d64919061397b565b905090565b600a546001600160a01b03610100909104163314610d995760405162461bcd60e51b8152600401610b7390613930565b600f54600460ff90911610610df05760405162461bcd60e51b815260206004820152601760248201527f5465616d2073616c6520697320636f6e636c756465642e0000000000000000006044820152606401610b73565b601855565b600a546001600160a01b03610100909104163314610e255760405162461bcd60e51b8152600401610b7390613930565b600f54600360ff90911610610e745760405162461bcd60e51b8152602060048201526015602482015274283932b9b0b6329034b99031b7b731b63ab232b21760591b6044820152606401610b73565b60005b8151811015610d4957600160136000848481518110610e9857610e98613992565b6020908102919091018101516001600160a01b03168252810191909152604001600020805460ff191691151591909117905580610ed4816139a8565b915050610e77565b610ee633826127da565b610f025760405162461bcd60e51b8152600401610b73906139c3565b610ca98383836128d1565b6000610f1883611e49565b8210610f7a5760405162461bcd60e51b815260206004820152602b60248201527f455243373231456e756d657261626c653a206f776e657220696e646578206f7560448201526a74206f6620626f756e647360a81b6064820152608401610b73565b506001600160a01b03919091166000908152600660209081526040808320938352929052205490565b600a546001600160a01b03610100909104163314610fd35760405162461bcd60e51b8152600401610b7390613930565b600f54600260ff9091161061102a5760405162461bcd60e51b815260206004820152601c60248201527f57686974656c6973742073616c6520697320636f6e636c756465642e000000006044820152606401610b73565b3360009081526012602052604090205460ff166110a65760405162461bcd60e51b815260206004820152603460248201527f55736572206973206e6f74206f6e2077686974656c697374206f72206861732060448201527330b6361036b4b73a39903932ba3934b2bb32b21760611b6064820152608401610b73565b6001600160a01b03166000908152601260205260409020805460ff19169055565b600a546001600160a01b036101009091041633146110f75760405162461bcd60e51b8152600401610b7390613930565b600f54600360ff909116106111465760405162461bcd60e51b8152602060048201526015602482015274283932b9b0b6329034b99031b7b731b63ab232b21760591b6044820152606401610b73565b601555565b600a546001600160a01b0361010090910416331461117b5760405162461bcd60e51b8152600401610b7390613930565b600047116111c45760405162461bcd60e51b815260206004820152601660248201527521b7b73a3930b1ba103130b630b731b29034b990181760511b6044820152606401610b73565b6000731953bc1ff76f5e61cd775a4482bd85bac56ad1eb6111f160646111eb476032612a7c565b90612a88565b604051600081818185875af1925050503d806000811461122d576040519150601f19603f3d011682016040523d82523d6000602084013e611232565b606091505b50509050806112785760405162461bcd60e51b81526020600482015260126024820152711dda5d1a191c985ddb080c4819985a5b195960721b6044820152606401610b73565b600a5460405160009161010090046001600160a01b03169047908381818185875af1925050503d80600081146112ca576040519150601f19603f3d011682016040523d82523d6000602084013e6112cf565b606091505b5050905080610d495760405162461bcd60e51b81526020600482015260126024820152711dda5d1a191c985ddb080c8819985a5b195960721b6044820152606401610b73565b600a546001600160a01b036101009091041633146113455760405162461bcd60e51b8152600401610b7390613930565b61134d612a94565b565b610ca9838383604051806020016040528060008152506121a9565b6060600061137783611e49565b905060008167ffffffffffffffff811115611394576113946134e9565b6040519080825280602002602001820160405280156113bd578160200160208202803683370190505b50905060005b82811015611404576113d58582610f0d565b8282815181106113e7576113e7613992565b6020908102919091010152806113fc816139a8565b9150506113c3565b509392505050565b600061141760085490565b821061147a5760405162461bcd60e51b815260206004820152602c60248201527f455243373231456e756d657261626c653a20676c6f62616c20696e646578206f60448201526b7574206f6620626f756e647360a01b6064820152608401610b73565b6008828154811061148d5761148d613992565b90600052602060002001549050919050565b600a546001600160a01b036101009091041633146114cf5760405162461bcd60e51b8152600401610b7390613930565b60115460ff16156115175760405162461bcd60e51b81526020600482015260126024820152712130b9b2aaa9249034b990333937bd32b71760711b6044820152606401610b73565b805161152a90600d906020840190613338565b507f5411e8ebf1636d9e83d5fc4900bf80cbac82e8790da2a4c94db4895e889eedf6600d60405161155b9190613a14565b60405180910390a150565b600a546001600160a01b036101009091041633146115965760405162461bcd60e51b8152600401610b7390613930565b601055565b6000818152600260205260408120546001600160a01b031680610a665760405162461bcd60e51b815260206004820152602960248201527f4552433732313a206f776e657220717565727920666f72206e6f6e657869737460448201526832b73a103a37b5b2b760b91b6064820152608401610b73565b600d805461161f906138f5565b80601f016020809104026020016040519081016040528092919081815260200182805461164b906138f5565b80156116985780601f1061166d57610100808354040283529160200191611698565b820191906000526020600020905b81548152906001019060200180831161167b57829003601f168201915b505050505081565b6000806116ab610d4d565b116116ef5760405162461bcd60e51b8152602060048201526014602482015273139bc818dc9e5c1d1a590819d95b995c985d195960621b6044820152606401610b73565b610d646106d4610d4d565b600a5460ff161561171d5760405162461bcd60e51b8152600401610b7390613a99565b601b54611728610d4d565b106117755760405162461bcd60e51b815260206004820152601860248201527f416c6c20637279707469647320617265206d696e7465642e00000000000000006044820152606401610b73565b600f5460ff166117e25760405162461bcd60e51b815260206004820152603260248201527f4d696e74696e67206e6f7420696e697469617465642e2043757272656e6c792060448201527137b71039ba30b3b29018101434b734ba149760711b6064820152608401610b73565b60008160ff16116118405760405162461bcd60e51b815260206004820152602260248201527f4d696e7420616d6f756e74206d7573742062652067726561746572207468616e604482015261020360f41b6064820152608401610b73565b6010548160ff1611156118a85760405162461bcd60e51b815260206004820152602a60248201527f45786365656473206d617820616c6c6f77656420616d6f756e742070657220746044820152693930b739b0b1ba34b7b760b11b6064820152608401610b73565b601b548160ff166118b7610d4d565b6118c19190613ac3565b111561191d5760405162461bcd60e51b815260206004820152602560248201527f5472616e73616374696f6e206578636565647320746f74616c2073616c6520736044820152647570706c7960d81b6064820152608401610b73565b600f5460ff1660011415611a6a573360009081526012602052604090205460ff166119a75760405162461bcd60e51b815260206004820152603460248201527f4d696e746572206e6f74206f6e20667265652077686974656c697374206f722060448201527330b6361036b4b73a39903932ba3934b2bb32b21760611b6064820152608401610b73565b336000908152601260205260408120546119c590839060ff16613adb565b60ff161015611a2b5760405162461bcd60e51b815260206004820152602c60248201527f5472616e73616374696f6e20657863656564732061776172646564206672656560448201526b0b5b5a5b9d08185b5bdd5b9d60a21b6064820152608401610b73565b3360009081526012602052604081208054839290611a4d90849060ff16613adb565b92506101000a81548160ff021916908360ff160217905550611db7565b600f5460ff1660021415611c54573360009081526013602052604090205460ff16611ae35760405162461bcd60e51b815260206004820152602360248201527f41646472657373206e6f742077686974656c697374656420666f722070726573604482015262616c6560e81b6064820152608401610b73565b6014548160ff16611af2610d4d565b611afc9190613ac3565b1115611b565760405162461bcd60e51b815260206004820152602360248201527f5472616e73616374696f6e2065786365656473207072652d73616c6520737570604482015262706c7960e81b6064820152608401610b73565b60165433600090815260176020526040902054611b769060ff1683613afe565b60ff161115611bdb5760405162461bcd60e51b815260206004820152602b60248201527f5472616e73616374696f6e2065786365656473206d617820616c6c6f7720707260448201526a6573616c65206d696e747360a81b6064820152608401610b73565b601554611beb9060ff8316612a7c565b341015611c325760405162461bcd60e51b8152602060048201526015602482015274139bdd08195b9bdd59da08195d1a195c881cd95b9d605a1b6044820152606401610b73565b3360009081526017602052604081208054839290611a4d90849060ff16613afe565b600f5460ff1660031415611d6057600a546001600160a01b03610100909104163314611ccc5760405162461bcd60e51b815260206004820152602160248201527f4f6e6c79204f776e65722063616e206d696e74206174207468697320737461676044820152606560f81b6064820152608401610b73565b601854601954611cdf9060ff8416613ac3565b1115611d405760405162461bcd60e51b815260206004820152602a60248201527f5472616e73616374696f6e206578636565647320746f74616c207465616d2d73604482015269616c6520737570706c7960b01b6064820152608401610b73565b8060ff1660196000828254611d559190613ac3565b90915550611db79050565b601a54611d709060ff8316612a7c565b341015611db75760405162461bcd60e51b8152602060048201526015602482015274139bdd08195b9bdd59da08195d1a195c881cd95b9d605a1b6044820152606401610b73565b60015b8160ff168111611df657611dd633611dd1600b5490565b612b27565b611de4600b80546001019055565b80611dee816139a8565b915050611dba565b507ffe446fb36fbb8c47e4ee0d7e1e9fca431c3a2314854d8de0f3bb04fa156d6e713382611e22610d4d565b604080516001600160a01b03909416845260ff90921660208401529082015260600161155b565b60006001600160a01b038216611eb45760405162461bcd60e51b815260206004820152602a60248201527f4552433732313a2062616c616e636520717565727920666f7220746865207a65604482015269726f206164647265737360b01b6064820152608401610b73565b506001600160a01b031660009081526003602052604090205490565b600a546001600160a01b03610100909104163314611f005760405162461bcd60e51b8152600401610b7390613930565b61134d6000612b41565b600a546001600160a01b03610100909104163314611f3a5760405162461bcd60e51b8152600401610b7390613930565b601a55565b600a546001600160a01b03610100909104163314611f6f5760405162461bcd60e51b8152600401610b7390613930565b6000600c8054611f7e906138f5565b905011611fcd5760405162461bcd60e51b815260206004820181905260248201527f50726f76656e616e636520686173682063616e6e6f7420626520656d7074792e6044820152606401610b73565b601154610100900460ff16156120305760405162461bcd60e51b815260206004820152602260248201527f50726f76656e616e6365206861736820697320616c72656164792066726f7a65604482015261371760f11b6064820152608401610b73565b6011805461ff001916610100179055565b600a546001600160a01b036101009091041633146120715760405162461bcd60e51b8152600401610b7390613930565b61134d612b9b565b600a546001600160a01b036101009091041633146120a95760405162461bcd60e51b8152600401610b7390613930565b600f54600260ff909116106121005760405162461bcd60e51b815260206004820152601c60248201527f57686974656c6973742073616c6520697320636f6e636c756465642e000000006044820152606401610b73565b60005b8251811015610ca95781818151811061211e5761211e613992565b60200260200101516012600085848151811061213c5761213c613992565b60200260200101516001600160a01b03166001600160a01b0316815260200190815260200160002060006101000a81548160ff021916908360ff1602179055508080612187906139a8565b915050612103565b606060018054610a7b906138f5565b610d49338383612bf3565b6121b333836127da565b6121cf5760405162461bcd60e51b8152600401610b73906139c3565b6121db84848484612cc2565b50505050565b600e805461161f906138f5565b600c805461161f906138f5565b6000818152600260205260409020546060906001600160a01b031661227a5760405162461bcd60e51b815260206004820152602f60248201527f4552433732314d657461646174613a2055524920717565727920666f72206e6f60448201526e3732bc34b9ba32b73a103a37b5b2b760891b6064820152608401610b73565b6000600d8054612289906138f5565b80601f01602080910402602001604051908101604052809291908181526020018280546122b5906138f5565b80156123025780601f106122d757610100808354040283529160200191612302565b820191906000526020600020905b8154815290600101906020018083116122e557829003601f168201915b5050505050905060008151116123275760405180602001604052806000815250612355565b8061233184612cf5565b600e60405160200161234593929190613b23565b6040516020818303038152906040525b9392505050565b600080612367610d4d565b116123ab5760405162461bcd60e51b8152602060048201526014602482015273139bc818dc9e5c1d1a590819d95b995c985d195960621b6044820152606401610b73565b610d64610d4d565b60006123bd610d4d565b601b54610d64919061397b565b600a546001600160a01b036101009091041633146123fa5760405162461bcd60e51b8152600401610b7390613930565b6000600d8054612409906138f5565b9050116124585760405162461bcd60e51b815260206004820152601760248201527f626173655552492063616e6e6f7420626520656d7074790000000000000000006044820152606401610b73565b60115460ff16156124ab5760405162461bcd60e51b815260206004820152601a60248201527f4261736555524920697320616c72656164792066726f7a656e2e0000000000006044820152606401610b73565b6011805460ff19166001179055565b600a546001600160a01b036101009091041633146124ea5760405162461bcd60e51b8152600401610b7390613930565b6001600160a01b03811660009081526013602052604090205460ff166125525760405162461bcd60e51b815260206004820152601960248201527f55736572206e6f74206f6e2070726573616c65206c6973742e000000000000006044820152606401610b73565b6001600160a01b03166000908152601360205260409020805460ff19169055565b600a546001600160a01b036101009091041633146125a35760405162461bcd60e51b8152600401610b7390613930565b601154610100900460ff166126185760405162461bcd60e51b815260206004820152603560248201527f50726f76656e616e63652068617368206d75737420626520736574206265666f60448201527439329036b4b73a34b7339031b0b71039ba30b93a1760591b6064820152608401610b73565b600f54600460ff9091161061266f5760405162461bcd60e51b815260206004820152601b60248201527f4e6f20737461676573206166746572207075626c69632073616c6500000000006044820152606401610b73565b600f805460ff1690600061268283613bbf565b91906101000a81548160ff021916908360ff16021790555050565b600a546001600160a01b036101009091041633146126cd5760405162461bcd60e51b8152600401610b7390613930565b6001600160a01b0381166127325760405162461bcd60e51b815260206004820152602660248201527f4f776e61626c653a206e6577206f776e657220697320746865207a65726f206160448201526564647265737360d01b6064820152608401610b73565b61273b81612b41565b50565b80546001019055565b60006001600160e01b0319821663780e9d6360e01b1480610a665750610a6682612df3565b600081815260046020526040902080546001600160a01b0319166001600160a01b03841690811790915581906127a18261159b565b6001600160a01b03167f8c5be1e5ebec7d5bd14f71427d1e84f3dd0314c0f7b2291e5b200ac8c7c3b92560405160405180910390a45050565b6000818152600260205260408120546001600160a01b03166128535760405162461bcd60e51b815260206004820152602c60248201527f4552433732313a206f70657261746f7220717565727920666f72206e6f6e657860448201526b34b9ba32b73a103a37b5b2b760a11b6064820152608401610b73565b600061285e8361159b565b9050806001600160a01b0316846001600160a01b031614806128995750836001600160a01b031661288e84610afe565b6001600160a01b0316145b806128c957506001600160a01b0380821660009081526005602090815260408083209388168352929052205460ff165b949350505050565b826001600160a01b03166128e48261159b565b6001600160a01b03161461294c5760405162461bcd60e51b815260206004820152602960248201527f4552433732313a207472616e73666572206f6620746f6b656e2074686174206960448201526839903737ba1037bbb760b91b6064820152608401610b73565b6001600160a01b0382166129ae5760405162461bcd60e51b8152602060048201526024808201527f4552433732313a207472616e7366657220746f20746865207a65726f206164646044820152637265737360e01b6064820152608401610b73565b6129b9838383612e43565b6129c460008261276c565b6001600160a01b03831660009081526003602052604081208054600192906129ed90849061397b565b90915550506001600160a01b0382166000908152600360205260408120805460019290612a1b908490613ac3565b909155505060008181526002602052604080822080546001600160a01b0319166001600160a01b0386811691821790925591518493918716917fddf252ad1be2c89b69c2b068fc378daa952ba7f163c4a11628f55a4df523b3ef91a4505050565b60006123558284613bdf565b60006123558284613c14565b600a5460ff16612add5760405162461bcd60e51b815260206004820152601460248201527314185d5cd8589b194e881b9bdd081c185d5cd95960621b6044820152606401610b73565b600a805460ff191690557f5db9ee0a495bf2e6ff9c91a7834c1ba4fdd244a5e8aa4e537bd38aeae4b073aa335b6040516001600160a01b03909116815260200160405180910390a1565b610d49828260405180602001604052806000815250612e71565b600a80546001600160a01b03838116610100818102610100600160a81b031985161790945560405193909204169182907f8be0079c531659141344cd1fd0a4f28419497f9722a3daafe3b4186f6b6457e090600090a35050565b600a5460ff1615612bbe5760405162461bcd60e51b8152600401610b7390613a99565b600a805460ff191660011790557f62e78cea01bee320cd4e420270b5ea74000d11b0c9f74754ebdbfc544b05a258612b0a3390565b816001600160a01b0316836001600160a01b03161415612c555760405162461bcd60e51b815260206004820152601960248201527f4552433732313a20617070726f766520746f2063616c6c6572000000000000006044820152606401610b73565b6001600160a01b03838116600081815260056020908152604080832094871680845294825291829020805460ff191686151590811790915591519182527f17307eab39ab6107e8899845ad3d59bd9653f200f220920489ca2b5937696c31910160405180910390a3505050565b612ccd8484846128d1565b612cd984848484612ea4565b6121db5760405162461bcd60e51b8152600401610b7390613c28565b606081612d195750506040805180820190915260018152600360fc1b602082015290565b8160005b8115612d435780612d2d816139a8565b9150612d3c9050600a83613c14565b9150612d1d565b60008167ffffffffffffffff811115612d5e57612d5e6134e9565b6040519080825280601f01601f191660200182016040528015612d88576020820181803683370190505b5090505b84156128c957612d9d60018361397b565b9150612daa600a86613c7a565b612db5906030613ac3565b60f81b818381518110612dca57612dca613992565b60200101906001600160f81b031916908160001a905350612dec600a86613c14565b9450612d8c565b60006001600160e01b031982166380ac58cd60e01b1480612e2457506001600160e01b03198216635b5e139f60e01b145b80610a6657506301ffc9a760e01b6001600160e01b0319831614610a66565b600a5460ff1615612e665760405162461bcd60e51b8152600401610b7390613a99565b610ca9838383612fa2565b612e7b838361305a565b612e886000848484612ea4565b610ca95760405162461bcd60e51b8152600401610b7390613c28565b60006001600160a01b0384163b15612f9757604051630a85bd0160e11b81526001600160a01b0385169063150b7a0290612ee8903390899088908890600401613c8e565b6020604051808303816000875af1925050508015612f23575060408051601f3d908101601f19168201909252612f2091810190613ccb565b60015b612f7d573d808015612f51576040519150601f19603f3d011682016040523d82523d6000602084013e612f56565b606091505b508051612f755760405162461bcd60e51b8152600401610b7390613c28565b805181602001fd5b6001600160e01b031916630a85bd0160e11b1490506128c9565b506001949350505050565b6001600160a01b038316612ffd57612ff881600880546000838152600960205260408120829055600182018355919091527ff3f7a9fe364faab93b216da50a3214154f22a0a2b415b23a84c8169e8b636ee30155565b613020565b816001600160a01b0316836001600160a01b0316146130205761302083826131a8565b6001600160a01b03821661303757610ca981613245565b826001600160a01b0316826001600160a01b031614610ca957610ca982826132f4565b6001600160a01b0382166130b05760405162461bcd60e51b815260206004820181905260248201527f4552433732313a206d696e7420746f20746865207a65726f20616464726573736044820152606401610b73565b6000818152600260205260409020546001600160a01b0316156131155760405162461bcd60e51b815260206004820152601c60248201527f4552433732313a20746f6b656e20616c7265616479206d696e746564000000006044820152606401610b73565b61312160008383612e43565b6001600160a01b038216600090815260036020526040812080546001929061314a908490613ac3565b909155505060008181526002602052604080822080546001600160a01b0319166001600160a01b03861690811790915590518392907fddf252ad1be2c89b69c2b068fc378daa952ba7f163c4a11628f55a4df523b3ef908290a45050565b600060016131b584611e49565b6131bf919061397b565b600083815260076020526040902054909150808214613212576001600160a01b03841660009081526006602090815260408083208584528252808320548484528184208190558352600790915290208190555b5060009182526007602090815260408084208490556001600160a01b039094168352600681528383209183525290812055565b6008546000906132579060019061397b565b6000838152600960205260408120546008805493945090928490811061327f5761327f613992565b9060005260206000200154905080600883815481106132a0576132a0613992565b60009182526020808320909101929092558281526009909152604080822084905585825281205560088054806132d8576132d8613ce8565b6001900381819060005260206000200160009055905550505050565b60006132ff83611e49565b6001600160a01b039093166000908152600660209081526040808320868452825280832085905593825260079052919091209190915550565b828054613344906138f5565b90600052602060002090601f01602090048101928261336657600085556133ac565b82601f1061337f57805160ff19168380011785556133ac565b828001600101855582156133ac579182015b828111156133ac578251825591602001919060010190613391565b506133b89291506133bc565b5090565b5b808211156133b857600081556001016133bd565b6001600160e01b03198116811461273b57600080fd5b6000602082840312156133f957600080fd5b8135612355816133d1565b60005b8381101561341f578181015183820152602001613407565b838111156121db5750506000910152565b60008151808452613448816020860160208601613404565b601f01601f19169290920160200192915050565b6020815260006123556020830184613430565b60006020828403121561348157600080fd5b5035919050565b80356001600160a01b038116811461349f57600080fd5b919050565b6000602082840312156134b657600080fd5b61235582613488565b600080604083850312156134d257600080fd5b6134db83613488565b946020939093013593505050565b634e487b7160e01b600052604160045260246000fd5b604051601f8201601f1916810167ffffffffffffffff81118282101715613528576135286134e9565b604052919050565b600067ffffffffffffffff83111561354a5761354a6134e9565b61355d601f8401601f19166020016134ff565b905082815283838301111561357157600080fd5b828260208301376000602084830101529392505050565b60006020828403121561359a57600080fd5b813567ffffffffffffffff8111156135b157600080fd5b8201601f810184136135c257600080fd5b6128c984823560208401613530565b600067ffffffffffffffff8211156135eb576135eb6134e9565b5060051b60200190565b600082601f83011261360657600080fd5b8135602061361b613616836135d1565b6134ff565b82815260059290921b8401810191818101908684111561363a57600080fd5b8286015b8481101561365c5761364f81613488565b835291830191830161363e565b509695505050505050565b60006020828403121561367957600080fd5b813567ffffffffffffffff81111561369057600080fd5b6128c9848285016135f5565b6000806000606084860312156136b157600080fd5b6136ba84613488565b92506136c860208501613488565b9150604084013590509250925092565b6020808252825182820181905260009190848201906040850190845b81811015613710578351835292840192918401916001016136f4565b50909695505050505050565b803560ff8116811461349f57600080fd5b60006020828403121561373f57600080fd5b6123558261371c565b6000806040838503121561375b57600080fd5b823567ffffffffffffffff8082111561377357600080fd5b61377f868387016135f5565b935060209150818501358181111561379657600080fd5b85019050601f810186136137a957600080fd5b80356137b7613616826135d1565b81815260059190911b820183019083810190888311156137d657600080fd5b928401925b828410156137fb576137ec8461371c565b825292840192908401906137db565b80955050505050509250929050565b6000806040838503121561381d57600080fd5b61382683613488565b91506020830135801515811461383b57600080fd5b809150509250929050565b6000806000806080858703121561385c57600080fd5b61386585613488565b935061387360208601613488565b925060408501359150606085013567ffffffffffffffff81111561389657600080fd5b8501601f810187136138a757600080fd5b6138b687823560208401613530565b91505092959194509250565b600080604083850312156138d557600080fd5b6138de83613488565b91506138ec60208401613488565b90509250929050565b600181811c9082168061390957607f821691505b6020821081141561392a57634e487b7160e01b600052602260045260246000fd5b50919050565b6020808252818101527f4f776e61626c653a2063616c6c6572206973206e6f7420746865206f776e6572604082015260600190565b634e487b7160e01b600052601160045260246000fd5b60008282101561398d5761398d613965565b500390565b634e487b7160e01b600052603260045260246000fd5b60006000198214156139bc576139bc613965565b5060010190565b60208082526031908201527f4552433732313a207472616e736665722063616c6c6572206973206e6f74206f6040820152701ddb995c881b9bdc88185c1c1c9bdd9959607a1b606082015260800190565b6000602080835260008454613a28816138f5565b80848701526040600180841660008114613a495760018114613a5d57613a8b565b60ff19851689840152606089019550613a8b565b896000528660002060005b85811015613a835781548b8201860152908301908801613a68565b8a0184019650505b509398975050505050505050565b60208082526010908201526f14185d5cd8589b194e881c185d5cd95960821b604082015260600190565b60008219821115613ad657613ad6613965565b500190565b600060ff821660ff841680821015613af557613af5613965565b90039392505050565b600060ff821660ff84168060ff03821115613b1b57613b1b613965565b019392505050565b600084516020613b368285838a01613404565b855191840191613b498184848a01613404565b8554920191600090613b5a816138f5565b60018281168015613b725760018114613b8357613baf565b60ff19841687528287019450613baf565b896000528560002060005b84811015613ba757815489820152908301908701613b8e565b505082870194505b50929a9950505050505050505050565b600060ff821660ff811415613bd657613bd6613965565b60010192915050565b6000816000190483118215151615613bf957613bf9613965565b500290565b634e487b7160e01b600052601260045260246000fd5b600082613c2357613c23613bfe565b500490565b60208082526032908201527f4552433732313a207472616e7366657220746f206e6f6e20455243373231526560408201527131b2b4bb32b91034b6b83632b6b2b73a32b960711b606082015260800190565b600082613c8957613c89613bfe565b500690565b6001600160a01b0385811682528416602082015260408101839052608060608201819052600090613cc190830184613430565b9695505050505050565b600060208284031215613cdd57600080fd5b8151612355816133d1565b634e487b7160e01b600052603160045260246000fdfea2646970667358221220effedb12151a96f9621c11742f4a38befce2c359ad236540fe575b17327bf72d64736f6c634300080a0033","bytecodeSha1":"3bb0ecc95e5ad1da1bd0e8dda7d1ac5550904f84","compiler":{"evm_version":"istanbul","optimizer":{"enabled":true,"runs":200},"version":"0.8.10+commit.fc410830"},"contractName":"CryptidToken","language":"Solidity","natspec":{"kind":"dev","methods":{"approve(address,uint256)":{"details":"See {IERC721-approve}."},"balanceOf(address)":{"details":"See {IERC721-balanceOf}."},"getApproved(uint256)":{"details":"See {IERC721-getApproved}."},"isApprovedForAll(address,address)":{"details":"See {IERC721-isApprovedForAll}."},"name()":{"details":"See {IERC721Metadata-name}."},"owner()":{"details":"Returns the address of the current owner."},"ownerOf(uint256)":{"details":"See {IERC721-ownerOf}."},"paused()":{"details":"Returns true if the contract is paused, and false otherwise."},"renounceOwnership()":{"details":"Leaves the contract without owner. It will not be possible to call `onlyOwner` functions anymore. Can only be called by the current owner. NOTE: Renouncing ownership will leave the contract without an owner, thereby removing any functionality that is only available to the owner."},"safeTransferFrom(address,address,uint256)":{"details":"See {IERC721-safeTransferFrom}."},"safeTransferFrom(address,address,uint256,bytes)":{"details":"See {IERC721-safeTransferFrom}."},"setApprovalForAll(address,bool)":{"details":"See {IERC721-setApprovalForAll}."},"symbol()":{"details":"See {IERC721Metadata-symbol}."},"tokenByIndex(uint256)":{"details":"See {IERC721Enumerable-tokenByIndex}."},"tokenOfOwnerByIndex(address,uint256)":{"details":"See {IERC721Enumerable-tokenOfOwnerByIndex}."},"tokenURI(uint256)":{"details":"See {IERC721Metadata-tokenURI}."},"totalSupply()":{"details":"See {IERC721Enumerable-totalSupply}."},"transferFrom(address,address,uint256)":{"details":"See {IERC721-transferFrom}."},"transferOwnership(address)":{"details":"Transfers ownership of the contract to a new account (`newOwner`). Can only be called by the current owner."}},"version":1},"opcodes":"PUSH1 0x80 PUSH1 0x40 MSTORE PUSH1 0x4 CALLDATASIZE LT PUSH2 0x380 JUMPI PUSH1 0x0 CALLDATALOAD PUSH1 0xE0 SHR DUP1 PUSH4 0x70A08231 GT PUSH2 0x1D1 JUMPI DUP1 PUSH4 0xC29DE630 GT PUSH2 0x102 JUMPI DUP1 PUSH4 0xDE7FCB1D GT PUSH2 0xA0 JUMPI DUP1 PUSH4 0xED931E17 GT PUSH2 0x6F JUMPI DUP1 PUSH4 0xED931E17 EQ PUSH2 0x9F0 JUMPI DUP1 PUSH4 0xEE3743AB EQ PUSH2 0xA10 JUMPI DUP1 PUSH4 0xF2FDE38B EQ PUSH2 0xA25 JUMPI DUP1 PUSH4 0xF51F96DD EQ PUSH2 0xA45 JUMPI PUSH1 0x0 DUP1 REVERT JUMPDEST DUP1 PUSH4 0xDE7FCB1D EQ PUSH2 0x966 JUMPI DUP1 PUSH4 0xE6CBB6B1 EQ PUSH2 0x97C JUMPI DUP1 PUSH4 0xE7BC8208 EQ PUSH2 0x992 JUMPI DUP1 PUSH4 0xE985E9C5 EQ PUSH2 0x9A7 JUMPI PUSH1 0x0 DUP1 REVERT JUMPDEST DUP1 PUSH4 0xC6AB67A3 GT PUSH2 0xDC JUMPI DUP1 PUSH4 0xC6AB67A3 EQ PUSH2 0x907 JUMPI DUP1 PUSH4 0xC87B56DD EQ PUSH2 0x91C JUMPI DUP1 PUSH4 0xD6D67A09 EQ PUSH2 0x93C JUMPI DUP1 PUSH4 0xDE5F9866 EQ PUSH2 0x951 JUMPI PUSH1 0x0 DUP1 REVERT JUMPDEST DUP1 PUSH4 0xC29DE630 EQ PUSH2 0x8C2 JUMPI DUP1 PUSH4 0xC3214581 EQ PUSH2 0x8DC JUMPI DUP1 PUSH4 0xC6682862 EQ PUSH2 0x8F2 JUMPI PUSH1 0x0 DUP1 REVERT JUMPDEST DUP1 PUSH4 0x8DA5CB5B GT PUSH2 0x16F JUMPI DUP1 PUSH4 0xA22CB465 GT PUSH2 0x149 JUMPI DUP1 PUSH4 0xA22CB465 EQ PUSH2 0x852 JUMPI DUP1 PUSH4 0xB3A196E9 EQ PUSH2 0x872 JUMPI DUP1 PUSH4 0xB88D4FDE EQ PUSH2 0x888 JUMPI DUP1 PUSH4 0xC040E6B8 EQ PUSH2 0x8A8 JUMPI PUSH1 0x0 DUP1 REVERT JUMPDEST DUP1 PUSH4 0x8DA5CB5B EQ PUSH2 0x7FB JUMPI DUP1 PUSH4 0x95D89B41 EQ PUSH2 0x81E JUMPI DUP1 PUSH4 0x9A2A9C3D EQ PUSH2 0x833 JUMPI PUSH1 0x0 DUP1 REVERT JUMPDEST DUP1 PUSH4 0x791A2519 GT PUSH2 0x1AB JUMPI DUP1 PUSH4 0x791A2519 EQ PUSH2 0x791 JUMPI DUP1 PUSH4 0x81C162F2 EQ PUSH2 0x7B1 JUMPI DUP1 PUSH4 0x8456CB59 EQ PUSH2 0x7C6 JUMPI DUP1 PUSH4 0x865054ED EQ PUSH2 0x7DB JUMPI PUSH1 0x0 DUP1 REVERT JUMPDEST DUP1 PUSH4 0x70A08231 EQ PUSH2 0x746 JUMPI DUP1 PUSH4 0x715018A6 EQ PUSH2 0x766 JUMPI DUP1 PUSH4 0x78231978 EQ PUSH2 0x77B JUMPI PUSH1 0x0 DUP1 REVERT JUMPDEST DUP1 PUSH4 0x30CC7AE0 GT PUSH2 0x2B6 JUMPI DUP1 PUSH4 0x55F804B3 GT PUSH2 0x254 JUMPI DUP1 PUSH4 0x6C0360EB GT PUSH2 0x223 JUMPI DUP1 PUSH4 0x6C0360EB EQ PUSH2 0x6D9 JUMPI DUP1 PUSH4 0x6CBB8985 EQ PUSH2 0x6EE JUMPI DUP1 PUSH4 0x6EC55DBC EQ PUSH2 0x703 JUMPI DUP1 PUSH4 0x6ECD2306 EQ PUSH2 0x733 JUMPI PUSH1 0x0 DUP1 REVERT JUMPDEST DUP1 PUSH4 0x55F804B3 EQ PUSH2 0x661 JUMPI DUP1 PUSH4 0x5C975ABB EQ PUSH2 0x681 JUMPI DUP1 PUSH4 0x616CDB1E EQ PUSH2 0x699 JUMPI DUP1 PUSH4 0x6352211E EQ PUSH2 0x6B9 JUMPI PUSH1 0x0 DUP1 REVERT JUMPDEST DUP1 PUSH4 0x3F4BA83A GT PUSH2 0x290 JUMPI DUP1 PUSH4 0x3F4BA83A EQ PUSH2 0x5DF JUMPI DUP1 PUSH4 0x42842E0E EQ PUSH2 0x5F4 JUMPI DUP1 PUSH4 0x438B6300 EQ PUSH2 0x614 JUMPI DUP1 PUSH4 0x4F6CCCE7 EQ PUSH2 0x641 JUMPI PUSH1 0x0 DUP1 REVERT JUMPDEST DUP1 PUSH4 0x30CC7AE0 EQ PUSH2 0x597 JUMPI DUP1 PUSH4 0x3549345E EQ PUSH2 0x5B7 JUMPI DUP1 PUSH4 0x3CCFD60B EQ PUSH2 0x5D7 JUMPI PUSH1 0x0 DUP1 REVERT JUMPDEST DUP1 PUSH4 0xB0C312D GT PUSH2 0x323 JUMPI DUP1 PUSH4 0x20841A6A GT PUSH2 0x2FD JUMPI DUP1 PUSH4 0x20841A6A EQ PUSH2 0x517 JUMPI DUP1 PUSH4 0x23957C66 EQ PUSH2 0x537 JUMPI DUP1 PUSH4 0x23B872DD EQ PUSH2 0x557 JUMPI DUP1 PUSH4 0x2F745C59 EQ PUSH2 0x577 JUMPI PUSH1 0x0 DUP1 REVERT JUMPDEST DUP1 PUSH4 0xB0C312D EQ PUSH2 0x4B2 JUMPI DUP1 PUSH4 0x10969523 EQ PUSH2 0x4E2 JUMPI DUP1 PUSH4 0x18160DDD EQ PUSH2 0x502 JUMPI PUSH1 0x0 DUP1 REVERT JUMPDEST DUP1 PUSH4 0x81812FC GT PUSH2 0x35F JUMPI DUP1 PUSH4 0x81812FC EQ PUSH2 0x400 JUMPI DUP1 PUSH4 0x88139A6 EQ PUSH2 0x438 JUMPI DUP1 PUSH4 0x94E4072 EQ PUSH2 0x44E JUMPI DUP1 PUSH4 0x95EA7B3 EQ PUSH2 0x490 JUMPI PUSH1 0x0 DUP1 REVERT JUMPDEST DUP1 PUSH3 0xE7FA8 EQ PUSH2 0x385 JUMPI DUP1 PUSH4 0x1FFC9A7 EQ PUSH2 0x3AE JUMPI DUP1 PUSH4 0x6FDDE03 EQ PUSH2 0x3DE JUMPI JUMPDEST PUSH1 0x0 DUP1 REVERT JUMPDEST CALLVALUE DUP1 ISZERO PUSH2 0x391 JUMPI PUSH1 0x0 DUP1 REVERT JUMPDEST POP PUSH2 0x39B PUSH1 0x15 SLOAD DUP2 JUMP JUMPDEST PUSH1 0x40 MLOAD SWAP1 DUP2 MSTORE PUSH1 0x20 ADD JUMPDEST PUSH1 0x40 MLOAD DUP1 SWAP2 SUB SWAP1 RETURN JUMPDEST CALLVALUE DUP1 ISZERO PUSH2 0x3BA JUMPI PUSH1 0x0 DUP1 REVERT JUMPDEST POP PUSH2 0x3CE PUSH2 0x3C9 CALLDATASIZE PUSH1 0x4 PUSH2 0x33E7 JUMP JUMPDEST PUSH2 0xA5B JUMP JUMPDEST PUSH1 0x40 MLOAD SWAP1 ISZERO ISZERO DUP2 MSTORE PUSH1 0x20 ADD PUSH2 0x3A5 JUMP JUMPDEST CALLVALUE DUP1 ISZERO PUSH2 0x3EA JUMPI PUSH1 0x0 DUP1 REVERT JUMPDEST POP PUSH2 0x3F3 PUSH2 0xA6C JUMP JUMPDEST PUSH1 0x40 MLOAD PUSH2 0x3A5 SWAP2 SWAP1 PUSH2 0x345C JUMP JUMPDEST CALLVALUE DUP1 ISZERO PUSH2 0x40C JUMPI PUSH1 0x0 DUP1 REVERT JUMPDEST POP PUSH2 0x420 PUSH2 0x41B CALLDATASIZE PUSH1 0x4 PUSH2 0x346F JUMP JUMPDEST PUSH2 0xAFE JUMP JUMPDEST PUSH1 0x40 MLOAD PUSH1 0x1 PUSH1 0x1 PUSH1 0xA0 SHL SUB SWAP1 SWAP2 AND DUP2 MSTORE PUSH1 0x20 ADD PUSH2 0x3A5 JUMP JUMPDEST CALLVALUE DUP1 ISZERO PUSH2 0x444 JUMPI PUSH1 0x0 DUP1 REVERT JUMPDEST POP PUSH2 0x39B PUSH1 0x19 SLOAD DUP2 JUMP JUMPDEST CALLVALUE DUP1 ISZERO PUSH2 0x45A JUMPI PUSH1 0x0 DUP1 REVERT JUMPDEST POP PUSH2 0x47E PUSH2 0x469 CALLDATASIZE PUSH1 0x4 PUSH2 0x34A4 JUMP JUMPDEST PUSH1 0x17 PUSH1 0x20 MSTORE PUSH1 0x0 SWAP1 DUP2 MSTORE PUSH1 0x40 SWAP1 KECCAK256 SLOAD PUSH1 0xFF AND DUP2 JUMP JUMPDEST PUSH1 0x40 MLOAD PUSH1 0xFF SWAP1 SWAP2 AND DUP2 MSTORE PUSH1 0x20 ADD PUSH2 0x3A5 JUMP JUMPDEST CALLVALUE DUP1 ISZERO PUSH2 0x49C JUMPI PUSH1 0x0 DUP1 REVERT JUMPDEST POP PUSH2 0x4B0 PUSH2 0x4AB CALLDATASIZE PUSH1 0x4 PUSH2 0x34BF JUMP JUMPDEST PUSH2 0xB98 JUMP JUMPDEST STOP JUMPDEST CALLVALUE DUP1 ISZERO PUSH2 0x4BE JUMPI PUSH1 0x0 DUP1 REVERT JUMPDEST POP PUSH2 0x3CE PUSH2 0x4CD CALLDATASIZE PUSH1 0x4 PUSH2 0x34A4 JUMP JUMPDEST PUSH1 0x13 PUSH1 0x20 MSTORE PUSH1 0x0 SWAP1 DUP2 MSTORE PUSH1 0x40 SWAP1 KECCAK256 SLOAD PUSH1 0xFF AND DUP2 JUMP JUMPDEST CALLVALUE DUP1 ISZERO PUSH2 0x4EE JUMPI PUSH1 0x0 DUP1 REVERT JUMPDEST POP PUSH2 0x4B0 PUSH2 0x4FD CALLDATASIZE PUSH1 0x4 PUSH2 0x3588 JUMP JUMPDEST PUSH2 0xCAE JUMP JUMPDEST CALLVALUE DUP1 ISZERO PUSH2 0x50E JUMPI PUSH1 0x0 DUP1 REVERT JUMPDEST POP PUSH2 0x39B PUSH2 0xD4D JUMP JUMPDEST CALLVALUE DUP1 ISZERO PUSH2 0x523 JUMPI PUSH1 0x0 DUP1 REVERT JUMPDEST POP PUSH2 0x4B0 PUSH2 0x532 CALLDATASIZE PUSH1 0x4 PUSH2 0x346F JUMP JUMPDEST PUSH2 0xD69 JUMP JUMPDEST CALLVALUE DUP1 ISZERO PUSH2 0x543 JUMPI PUSH1 0x0 DUP1 REVERT JUMPDEST POP PUSH2 0x4B0 PUSH2 0x552 CALLDATASIZE PUSH1 0x4 PUSH2 0x3667 JUMP JUMPDEST PUSH2 0xDF5 JUMP JUMPDEST CALLVALUE DUP1 ISZERO PUSH2 0x563 JUMPI PUSH1 0x0 DUP1 REVERT JUMPDEST POP PUSH2 0x4B0 PUSH2 0x572 CALLDATASIZE PUSH1 0x4 PUSH2 0x369C JUMP JUMPDEST PUSH2 0xEDC JUMP JUMPDEST CALLVALUE DUP1 ISZERO PUSH2 0x583 JUMPI PUSH1 0x0 DUP1 REVERT JUMPDEST POP PUSH2 0x39B PUSH2 0x592 CALLDATASIZE PUSH1 0x4 PUSH2 0x34BF JUMP JUMPDEST PUSH2 0xF0D JUMP JUMPDEST CALLVALUE DUP1 ISZERO PUSH2 0x5A3 JUMPI PUSH1 0x0 DUP1 REVERT JUMPDEST POP PUSH2 0x4B0 PUSH2 0x5B2 CALLDATASIZE PUSH1 0x4 PUSH2 0x34A4 JUMP JUMPDEST PUSH2 0xFA3 JUMP JUMPDEST CALLVALUE DUP1 ISZERO PUSH2 0x5C3 JUMPI PUSH1 0x0 DUP1 REVERT JUMPDEST POP PUSH2 0x4B0 PUSH2 0x5D2 CALLDATASIZE PUSH1 0x4 PUSH2 0x346F JUMP JUMPDEST PUSH2 0x10C7 JUMP JUMPDEST PUSH2 0x4B0 PUSH2 0x114B JUMP JUMPDEST CALLVALUE DUP1 ISZERO PUSH2 0x5EB JUMPI PUSH1 0x0 DUP1 REVERT JUMPDEST POP PUSH2 0x4B0 PUSH2 0x1315 JUMP JUMPDEST CALLVALUE DUP1 ISZERO PUSH2 0x600 JUMPI PUSH1 0x0 DUP1 REVERT JUMPDEST POP PUSH2 0x4B0 PUSH2 0x60F CALLDATASIZE PUSH1 0x4 PUSH2 0x369C JUMP JUMPDEST PUSH2 0x134F JUMP JUMPDEST CALLVALUE DUP1 ISZERO PUSH2 0x620 JUMPI PUSH1 0x0 DUP1 REVERT JUMPDEST POP PUSH2 0x634 PUSH2 0x62F CALLDATASIZE PUSH1 0x4 PUSH2 0x34A4 JUMP JUMPDEST PUSH2 0x136A JUMP JUMPDEST PUSH1 0x40 MLOAD PUSH2 0x3A5 SWAP2 SWAP1 PUSH2 0x36D8 JUMP JUMPDEST CALLVALUE DUP1 ISZERO PUSH2 0x64D JUMPI PUSH1 0x0 DUP1 REVERT JUMPDEST POP PUSH2 0x39B PUSH2 0x65C CALLDATASIZE PUSH1 0x4 PUSH2 0x346F JUMP JUMPDEST PUSH2 0x140C JUMP JUMPDEST CALLVALUE DUP1 ISZERO PUSH2 0x66D JUMPI PUSH1 0x0 DUP1 REVERT JUMPDEST POP PUSH2 0x4B0 PUSH2 0x67C CALLDATASIZE PUSH1 0x4 PUSH2 0x3588 JUMP JUMPDEST PUSH2 0x149F JUMP JUMPDEST CALLVALUE DUP1 ISZERO PUSH2 0x68D JUMPI PUSH1 0x0 DUP1 REVERT JUMPDEST POP PUSH1 0xA SLOAD PUSH1 0xFF AND PUSH2 0x3CE JUMP JUMPDEST CALLVALUE DUP1 ISZERO PUSH2 0x6A5 JUMPI PUSH1 0x0 DUP1 REVERT JUMPDEST POP PUSH2 0x4B0 PUSH2 0x6B4 CALLDATASIZE PUSH1 0x4 PUSH2 0x346F JUMP JUMPDEST PUSH2 0x1566 JUMP JUMPDEST CALLVALUE DUP1 ISZERO PUSH2 0x6C5 JUMPI PUSH1 0x0 DUP1 REVERT JUMPDEST POP PUSH2 0x420 PUSH2 0x6D4 CALLDATASIZE PUSH1 0x4 PUSH2 0x346F JUMP JUMPDEST PUSH2 0x159B JUMP JUMPDEST CALLVALUE DUP1 ISZERO PUSH2 0x6E5 JUMPI PUSH1 0x0 DUP1 REVERT JUMPDEST POP PUSH2 0x3F3 PUSH2 0x1612 JUMP JUMPDEST CALLVALUE DUP1 ISZERO PUSH2 0x6FA JUMPI PUSH1 0x0 DUP1 REVERT JUMPDEST POP PUSH2 0x420 PUSH2 0x16A0 JUMP JUMPDEST CALLVALUE DUP1 ISZERO PUSH2 0x70F JUMPI PUSH1 0x0 DUP1 REVERT JUMPDEST POP PUSH2 0x47E PUSH2 0x71E CALLDATASIZE PUSH1 0x4 PUSH2 0x34A4 JUMP JUMPDEST PUSH1 0x12 PUSH1 0x20 MSTORE PUSH1 0x0 SWAP1 DUP2 MSTORE PUSH1 0x40 SWAP1 KECCAK256 SLOAD PUSH1 0xFF AND DUP2 JUMP JUMPDEST PUSH2 0x4B0 PUSH2 0x741 CALLDATASIZE PUSH1 0x4 PUSH2 0x372D JUMP JUMPDEST PUSH2 0x16FA JUMP JUMPDEST CALLVALUE DUP1 ISZERO PUSH2 0x752 JUMPI PUSH1 0x0 DUP1 REVERT JUMPDEST POP PUSH2 0x39B PUSH2 0x761 CALLDATASIZE PUSH1 0x4 PUSH2 0x34A4 JUMP JUMPDEST PUSH2 0x1E49 JUMP JUMPDEST CALLVALUE DUP1 ISZERO PUSH2 0x772 JUMPI PUSH1 0x0 DUP1 REVERT JUMPDEST POP PUSH2 0x4B0 PUSH2 0x1ED0 JUMP JUMPDEST CALLVALUE DUP1 ISZERO PUSH2 0x787 JUMPI PUSH1 0x0 DUP1 REVERT JUMPDEST POP PUSH2 0x39B PUSH1 0x1B SLOAD DUP2 JUMP JUMPDEST CALLVALUE DUP1 ISZERO PUSH2 0x79D JUMPI PUSH1 0x0 DUP1 REVERT JUMPDEST POP PUSH2 0x4B0 PUSH2 0x7AC CALLDATASIZE PUSH1 0x4 PUSH2 0x346F JUMP JUMPDEST PUSH2 0x1F0A JUMP JUMPDEST CALLVALUE DUP1 ISZERO PUSH2 0x7BD JUMPI PUSH1 0x0 DUP1 REVERT JUMPDEST POP PUSH2 0x4B0 PUSH2 0x1F3F JUMP JUMPDEST CALLVALUE DUP1 ISZERO PUSH2 0x7D2 JUMPI PUSH1 0x0 DUP1 REVERT JUMPDEST POP PUSH2 0x4B0 PUSH2 0x2041 JUMP JUMPDEST CALLVALUE DUP1 ISZERO PUSH2 0x7E7 JUMPI PUSH1 0x0 DUP1 REVERT JUMPDEST POP PUSH2 0x4B0 PUSH2 0x7F6 CALLDATASIZE PUSH1 0x4 PUSH2 0x3748 JUMP JUMPDEST PUSH2 0x2079 JUMP JUMPDEST CALLVALUE DUP1 ISZERO PUSH2 0x807 JUMPI PUSH1 0x0 DUP1 REVERT JUMPDEST POP PUSH1 0xA SLOAD PUSH2 0x100 SWAP1 DIV PUSH1 0x1 PUSH1 0x1 PUSH1 0xA0 SHL SUB AND PUSH2 0x420 JUMP JUMPDEST CALLVALUE DUP1 ISZERO PUSH2 0x82A JUMPI PUSH1 0x0 DUP1 REVERT JUMPDEST POP PUSH2 0x3F3 PUSH2 0x218F JUMP JUMPDEST CALLVALUE DUP1 ISZERO PUSH2 0x83F JUMPI PUSH1 0x0 DUP1 REVERT JUMPDEST POP PUSH1 0x11 SLOAD PUSH2 0x3CE SWAP1 PUSH2 0x100 SWAP1 DIV PUSH1 0xFF AND DUP2 JUMP JUMPDEST CALLVALUE DUP1 ISZERO PUSH2 0x85E JUMPI PUSH1 0x0 DUP1 REVERT JUMPDEST POP PUSH2 0x4B0 PUSH2 0x86D CALLDATASIZE PUSH1 0x4 PUSH2 0x380A JUMP JUMPDEST PUSH2 0x219E JUMP JUMPDEST CALLVALUE DUP1 ISZERO PUSH2 0x87E JUMPI PUSH1 0x0 DUP1 REVERT JUMPDEST POP PUSH2 0x39B PUSH1 0x14 SLOAD DUP2 JUMP JUMPDEST CALLVALUE DUP1 ISZERO PUSH2 0x894 JUMPI PUSH1 0x0 DUP1 REVERT JUMPDEST POP PUSH2 0x4B0 PUSH2 0x8A3 CALLDATASIZE PUSH1 0x4 PUSH2 0x3846 JUMP JUMPDEST PUSH2 0x21A9 JUMP JUMPDEST CALLVALUE DUP1 ISZERO PUSH2 0x8B4 JUMPI PUSH1 0x0 DUP1 REVERT JUMPDEST POP PUSH1 0xF SLOAD PUSH2 0x47E SWAP1 PUSH1 0xFF AND DUP2 JUMP JUMPDEST CALLVALUE DUP1 ISZERO PUSH2 0x8CE JUMPI PUSH1 0x0 DUP1 REVERT JUMPDEST POP PUSH1 0x11 SLOAD PUSH2 0x3CE SWAP1 PUSH1 0xFF AND DUP2 JUMP JUMPDEST CALLVALUE DUP1 ISZERO PUSH2 0x8E8 JUMPI PUSH1 0x0 DUP1 REVERT JUMPDEST POP PUSH2 0x39B PUSH1 0x18 SLOAD DUP2 JUMP JUMPDEST CALLVALUE DUP1 ISZERO PUSH2 0x8FE JUMPI PUSH1 0x0 DUP1 REVERT JUMPDEST POP PUSH2 0x3F3 PUSH2 0x21E1 JUMP JUMPDEST CALLVALUE DUP1 ISZERO PUSH2 0x913 JUMPI PUSH1 0x0 DUP1 REVERT JUMPDEST POP PUSH2 0x3F3 PUSH2 0x21EE JUMP JUMPDEST CALLVALUE DUP1 ISZERO PUSH2 0x928 JUMPI PUSH1 0x0 DUP1 REVERT JUMPDEST POP PUSH2 0x3F3 PUSH2 0x937 CALLDATASIZE PUSH1 0x4 PUSH2 0x346F JUMP JUMPDEST PUSH2 0x21FB JUMP JUMPDEST CALLVALUE DUP1 ISZERO PUSH2 0x948 JUMPI PUSH1 0x0 DUP1 REVERT JUMPDEST POP PUSH2 0x39B PUSH2 0x235C JUMP JUMPDEST CALLVALUE DUP1 ISZERO PUSH2 0x95D JUMPI PUSH1 0x0 DUP1 REVERT JUMPDEST POP PUSH2 0x39B PUSH2 0x23B3 JUMP JUMPDEST CALLVALUE DUP1 ISZERO PUSH2 0x972 JUMPI PUSH1 0x0 DUP1 REVERT JUMPDEST POP PUSH2 0x39B PUSH1 0x10 SLOAD DUP2 JUMP JUMPDEST CALLVALUE DUP1 ISZERO PUSH2 0x988 JUMPI PUSH1 0x0 DUP1 REVERT JUMPDEST POP PUSH2 0x39B PUSH1 0x16 SLOAD DUP2 JUMP JUMPDEST CALLVALUE DUP1 ISZERO PUSH2 0x99E JUMPI PUSH1 0x0 DUP1 REVERT JUMPDEST POP PUSH2 0x4B0 PUSH2 0x23CA JUMP JUMPDEST CALLVALUE DUP1 ISZERO PUSH2 0x9B3 JUMPI PUSH1 0x0 DUP1 REVERT JUMPDEST POP PUSH2 0x3CE PUSH2 0x9C2 CALLDATASIZE PUSH1 0x4 PUSH2 0x38C2 JUMP JUMPDEST PUSH1 0x1 PUSH1 0x1 PUSH1 0xA0 SHL SUB SWAP2 DUP3 AND PUSH1 0x0 SWAP1 DUP2 MSTORE PUSH1 0x5 PUSH1 0x20 SWAP1 DUP2 MSTORE PUSH1 0x40 DUP1 DUP4 KECCAK256 SWAP4 SWAP1 SWAP5 AND DUP3 MSTORE SWAP2 SWAP1 SWAP2 MSTORE KECCAK256 SLOAD PUSH1 0xFF AND SWAP1 JUMP JUMPDEST CALLVALUE DUP1 ISZERO PUSH2 0x9FC JUMPI PUSH1 0x0 DUP1 REVERT JUMPDEST POP PUSH2 0x4B0 PUSH2 0xA0B CALLDATASIZE PUSH1 0x4 PUSH2 0x34A4 JUMP JUMPDEST PUSH2 0x24BA JUMP JUMPDEST CALLVALUE DUP1 ISZERO PUSH2 0xA1C JUMPI PUSH1 0x0 DUP1 REVERT JUMPDEST POP PUSH2 0x4B0 PUSH2 0x2573 JUMP JUMPDEST CALLVALUE DUP1 ISZERO PUSH2 0xA31 JUMPI PUSH1 0x0 DUP1 REVERT JUMPDEST POP PUSH2 0x4B0 PUSH2 0xA40 CALLDATASIZE PUSH1 0x4 PUSH2 0x34A4 JUMP JUMPDEST PUSH2 0x269D JUMP JUMPDEST CALLVALUE DUP1 ISZERO PUSH2 0xA51 JUMPI PUSH1 0x0 DUP1 REVERT JUMPDEST POP PUSH2 0x39B PUSH1 0x1A SLOAD DUP2 JUMP JUMPDEST PUSH1 0x0 PUSH2 0xA66 DUP3 PUSH2 0x2747 JUMP JUMPDEST SWAP3 SWAP2 POP POP JUMP JUMPDEST PUSH1 0x60 PUSH1 0x0 DUP1 SLOAD PUSH2 0xA7B SWAP1 PUSH2 0x38F5 JUMP JUMPDEST DUP1 PUSH1 0x1F ADD PUSH1 0x20 DUP1 SWAP2 DIV MUL PUSH1 0x20 ADD PUSH1 0x40 MLOAD SWAP1 DUP2 ADD PUSH1 0x40 MSTORE DUP1 SWAP3 SWAP2 SWAP1 DUP2 DUP2 MSTORE PUSH1 0x20 ADD DUP3 DUP1 SLOAD PUSH2 0xAA7 SWAP1 PUSH2 0x38F5 JUMP JUMPDEST DUP1 ISZERO PUSH2 0xAF4 JUMPI DUP1 PUSH1 0x1F LT PUSH2 0xAC9 JUMPI PUSH2 0x100 DUP1 DUP4 SLOAD DIV MUL DUP4 MSTORE SWAP2 PUSH1 0x20 ADD SWAP2 PUSH2 0xAF4 JUMP JUMPDEST DUP3 ADD SWAP2 SWAP1 PUSH1 0x0 MSTORE PUSH1 0x20 PUSH1 0x0 KECCAK256 SWAP1 JUMPDEST DUP2 SLOAD DUP2 MSTORE SWAP1 PUSH1 0x1 ADD SWAP1 PUSH1 0x20 ADD DUP1 DUP4 GT PUSH2 0xAD7 JUMPI DUP3 SWAP1 SUB PUSH1 0x1F AND DUP3 ADD SWAP2 JUMPDEST POP POP POP POP POP SWAP1 POP SWAP1 JUMP JUMPDEST PUSH1 0x0 DUP2 DUP2 MSTORE PUSH1 0x2 PUSH1 0x20 MSTORE PUSH1 0x40 DUP2 KECCAK256 SLOAD PUSH1 0x1 PUSH1 0x1 PUSH1 0xA0 SHL SUB AND PUSH2 0xB7C JUMPI PUSH1 0x40 MLOAD PUSH3 0x461BCD PUSH1 0xE5 SHL DUP2 MSTORE PUSH1 0x20 PUSH1 0x4 DUP3 ADD MSTORE PUSH1 0x2C PUSH1 0x24 DUP3 ADD MSTORE PUSH32 0x4552433732313A20617070726F76656420717565727920666F72206E6F6E6578 PUSH1 0x44 DUP3 ADD MSTORE PUSH12 0x34B9BA32B73A103A37B5B2B7 PUSH1 0xA1 SHL PUSH1 0x64 DUP3 ADD MSTORE PUSH1 0x84 ADD JUMPDEST PUSH1 0x40 MLOAD DUP1 SWAP2 SUB SWAP1 REVERT JUMPDEST POP PUSH1 0x0 SWAP1 DUP2 MSTORE PUSH1 0x4 PUSH1 0x20 MSTORE PUSH1 0x40 SWAP1 KECCAK256 SLOAD PUSH1 0x1 PUSH1 0x1 PUSH1 0xA0 SHL SUB AND SWAP1 JUMP JUMPDEST PUSH1 0x0 PUSH2 0xBA3 DUP3 PUSH2 0x159B JUMP JUMPDEST SWAP1 POP DUP1 PUSH1 0x1 PUSH1 0x1 PUSH1 0xA0 SHL SUB AND DUP4 PUSH1 0x1 PUSH1 0x1 PUSH1 0xA0 SHL SUB AND EQ ISZERO PUSH2 0xC11 JUMPI PUSH1 0x40 MLOAD PUSH3 0x461BCD PUSH1 0xE5 SHL DUP2 MSTORE PUSH1 0x20 PUSH1 0x4 DUP3 ADD MSTORE PUSH1 0x21 PUSH1 0x24 DUP3 ADD MSTORE PUSH32 0x4552433732313A20617070726F76616C20746F2063757272656E74206F776E65 PUSH1 0x44 DUP3 ADD MSTORE PUSH1 0x39 PUSH1 0xF9 SHL PUSH1 0x64 DUP3 ADD MSTORE PUSH1 0x84 ADD PUSH2 0xB73 JUMP JUMPDEST CALLER PUSH1 0x1 PUSH1 0x1 PUSH1 0xA0 SHL SUB DUP3 AND EQ DUP1 PUSH2 0xC2D JUMPI POP PUSH2 0xC2D DUP2 CALLER PUSH2 0x9C2 JUMP JUMPDEST PUSH2 0xC9F JUMPI PUSH1 0x40 MLOAD PUSH3 0x461BCD PUSH1 0xE5 SHL DUP2 MSTORE PUSH1 0x20 PUSH1 0x4 DUP3 ADD MSTORE PUSH1 0x38 PUSH1 0x24 DUP3 ADD MSTORE PUSH32 0x4552433732313A20617070726F76652063616C6C6572206973206E6F74206F77 PUSH1 0x44 DUP3 ADD MSTORE PUSH32 0x6E6572206E6F7220617070726F76656420666F7220616C6C0000000000000000 PUSH1 0x64 DUP3 ADD MSTORE PUSH1 0x84 ADD PUSH2 0xB73 JUMP JUMPDEST PUSH2 0xCA9 DUP4 DUP4 PUSH2 0x276C JUMP JUMPDEST POP POP POP JUMP JUMPDEST PUSH1 0xA SLOAD PUSH1 0x1 PUSH1 0x1 PUSH1 0xA0 SHL SUB PUSH2 0x100 SWAP1 SWAP2 DIV AND CALLER EQ PUSH2 0xCDE JUMPI PUSH1 0x40 MLOAD PUSH3 0x461BCD PUSH1 0xE5 SHL DUP2 MSTORE PUSH1 0x4 ADD PUSH2 0xB73 SWAP1 PUSH2 0x3930 JUMP JUMPDEST PUSH1 0x11 SLOAD PUSH2 0x100 SWAP1 DIV PUSH1 0xFF AND ISZERO PUSH2 0xD36 JUMPI PUSH1 0x40 MLOAD PUSH3 0x461BCD PUSH1 0xE5 SHL DUP2 MSTORE PUSH1 0x20 PUSH1 0x4 DUP3 ADD MSTORE PUSH1 0x1A PUSH1 0x24 DUP3 ADD MSTORE PUSH32 0x50726F76656E616E636520686173682069732066726F7A656E2E000000000000 PUSH1 0x44 DUP3 ADD MSTORE PUSH1 0x64 ADD PUSH2 0xB73 JUMP JUMPDEST DUP1 MLOAD PUSH2 0xD49 SWAP1 PUSH1 0xC SWAP1 PUSH1 0x20 DUP5 ADD SWAP1 PUSH2 0x3338 JUMP JUMPDEST POP POP JUMP JUMPDEST PUSH1 0x0 PUSH1 0x1 PUSH2 0xD5A PUSH1 0xB SLOAD SWAP1 JUMP JUMPDEST PUSH2 0xD64 SWAP2 SWAP1 PUSH2 0x397B JUMP JUMPDEST SWAP1 POP SWAP1 JUMP JUMPDEST PUSH1 0xA SLOAD PUSH1 0x1 PUSH1 0x1 PUSH1 0xA0 SHL SUB PUSH2 0x100 SWAP1 SWAP2 DIV AND CALLER EQ PUSH2 0xD99 JUMPI PUSH1 0x40 MLOAD PUSH3 0x461BCD PUSH1 0xE5 SHL DUP2 MSTORE PUSH1 0x4 ADD PUSH2 0xB73 SWAP1 PUSH2 0x3930 JUMP JUMPDEST PUSH1 0xF SLOAD PUSH1 0x4 PUSH1 0xFF SWAP1 SWAP2 AND LT PUSH2 0xDF0 JUMPI PUSH1 0x40 MLOAD PUSH3 0x461BCD PUSH1 0xE5 SHL DUP2 MSTORE PUSH1 0x20 PUSH1 0x4 DUP3 ADD MSTORE PUSH1 0x17 PUSH1 0x24 DUP3 ADD MSTORE PUSH32 0x5465616D2073616C6520697320636F6E636C756465642E000000000000000000 PUSH1 0x44 DUP3 ADD MSTORE PUSH1 0x64 ADD PUSH2 0xB73 JUMP JUMPDEST PUSH1 0x18 SSTORE JUMP JUMPDEST PUSH1 0xA SLOAD PUSH1 0x1 PUSH1 0x1 PUSH1 0xA0 SHL SUB PUSH2 0x100 SWAP1 SWAP2 DIV AND CALLER EQ PUSH2 0xE25 JUMPI PUSH1 0x40 MLOAD PUSH3 0x461BCD PUSH1 0xE5 SHL DUP2 MSTORE PUSH1 0x4 ADD PUSH2 0xB73 SWAP1 PUSH2 0x3930 JUMP JUMPDEST PUSH1 0xF SLOAD PUSH1 0x3 PUSH1 0xFF SWAP1 SWAP2 AND LT PUSH2 0xE74 JUMPI PUSH1 0x40 MLOAD PUSH3 0x461BCD PUSH1 0xE5 SHL DUP2 MSTORE PUSH1 0x20 PUSH1 0x4 DUP3 ADD MSTORE PUSH1 0x15 PUSH1 0x24 DUP3 ADD MSTORE PUSH21 0x283932B9B0B6329034B99031B7B731B63AB232B217 PUSH1 0x59 SHL PUSH1 0x44 DUP3 ADD MSTORE PUSH1 0x64 ADD PUSH2 0xB73 JUMP JUMPDEST PUSH1 0x0 JUMPDEST DUP2 MLOAD DUP2 LT ISZERO PUSH2 0xD49 JUMPI PUSH1 0x1 PUSH1 0x13 PUSH1 0x0 DUP5 DUP5 DUP2 MLOAD DUP2 LT PUSH2 0xE98 JUMPI PUSH2 0xE98 PUSH2 0x3992 JUMP JUMPDEST PUSH1 0x20 SWAP1 DUP2 MUL SWAP2 SWAP1 SWAP2 ADD DUP2 ADD MLOAD PUSH1 0x1 PUSH1 0x1 PUSH1 0xA0 SHL SUB AND DUP3 MSTORE DUP2 ADD SWAP2 SWAP1 SWAP2 MSTORE PUSH1 0x40 ADD PUSH1 0x0 KECCAK256 DUP1 SLOAD PUSH1 0xFF NOT AND SWAP2 ISZERO ISZERO SWAP2 SWAP1 SWAP2 OR SWAP1 SSTORE DUP1 PUSH2 0xED4 DUP2 PUSH2 0x39A8 JUMP JUMPDEST SWAP2 POP POP PUSH2 0xE77 JUMP JUMPDEST PUSH2 0xEE6 CALLER DUP3 PUSH2 0x27DA JUMP JUMPDEST PUSH2 0xF02 JUMPI PUSH1 0x40 MLOAD PUSH3 0x461BCD PUSH1 0xE5 SHL DUP2 MSTORE PUSH1 0x4 ADD PUSH2 0xB73 SWAP1 PUSH2 0x39C3 JUMP JUMPDEST PUSH2 0xCA9 DUP4 DUP4 DUP4 PUSH2 0x28D1 JUMP JUMPDEST PUSH1 0x0 PUSH2 0xF18 DUP4 PUSH2 0x1E49 JUMP JUMPDEST DUP3 LT PUSH2 0xF7A JUMPI PUSH1 0x40 MLOAD PUSH3 0x461BCD PUSH1 0xE5 SHL DUP2 MSTORE PUSH1 0x20 PUSH1 0x4 DUP3 ADD MSTORE PUSH1 0x2B PUSH1 0x24 DUP3 ADD MSTORE PUSH32 0x455243373231456E756D657261626C653A206F776E657220696E646578206F75 PUSH1 0x44 DUP3 ADD MSTORE PUSH11 0x74206F6620626F756E6473 PUSH1 0xA8 SHL PUSH1 0x64 DUP3 ADD MSTORE PUSH1 0x84 ADD PUSH2 0xB73 JUMP JUMPDEST POP PUSH1 0x1 PUSH1 0x1 PUSH1 0xA0 SHL SUB SWAP2 SWAP1 SWAP2 AND PUSH1 0x0 SWAP1 DUP2 MSTORE PUSH1 0x6 PUSH1 0x20 SWAP1 DUP2 MSTORE PUSH1 0x40 DUP1 DUP4 KECCAK256 SWAP4 DUP4 MSTORE SWAP3 SWAP1 MSTORE KECCAK256 SLOAD SWAP1 JUMP JUMPDEST PUSH1 0xA SLOAD PUSH1 0x1 PUSH1 0x1 PUSH1 0xA0 SHL SUB PUSH2 0x100 SWAP1 SWAP2 DIV AND CALLER EQ PUSH2 0xFD3 JUMPI PUSH1 0x40 MLOAD PUSH3 0x461BCD PUSH1 0xE5 SHL DUP2 MSTORE PUSH1 0x4 ADD PUSH2 0xB73 SWAP1 PUSH2 0x3930 JUMP JUMPDEST PUSH1 0xF SLOAD PUSH1 0x2 PUSH1 0xFF SWAP1 SWAP2 AND LT PUSH2 0x102A JUMPI PUSH1 0x40 MLOAD PUSH3 0x461BCD PUSH1 0xE5 SHL DUP2 MSTORE PUSH1 0x20 PUSH1 0x4 DUP3 ADD MSTORE PUSH1 0x1C PUSH1 0x24 DUP3 ADD MSTORE PUSH32 0x57686974656C6973742073616C6520697320636F6E636C756465642E00000000 PUSH1 0x44 DUP3 ADD MSTORE PUSH1 0x64 ADD PUSH2 0xB73 JUMP JUMPDEST CALLER PUSH1 0x0 SWAP1 DUP2 MSTORE PUSH1 0x12 PUSH1 0x20 MSTORE PUSH1 0x40 SWAP1 KECCAK256 SLOAD PUSH1 0xFF AND PUSH2 0x10A6 JUMPI PUSH1 0x40 MLOAD PUSH3 0x461BCD PUSH1 0xE5 SHL DUP2 MSTORE PUSH1 0x20 PUSH1 0x4 DUP3 ADD MSTORE PUSH1 0x34 PUSH1 0x24 DUP3 ADD MSTORE PUSH32 0x55736572206973206E6F74206F6E2077686974656C697374206F722068617320 PUSH1 0x44 DUP3 ADD MSTORE PUSH20 0x30B6361036B4B73A39903932BA3934B2BB32B217 PUSH1 0x61 SHL PUSH1 0x64 DUP3 ADD MSTORE PUSH1 0x84 ADD PUSH2 0xB73 JUMP JUMPDEST PUSH1 0x1 PUSH1 0x1 PUSH1 0xA0 SHL SUB AND PUSH1 0x0 SWAP1 DUP2 MSTORE PUSH1 0x12 PUSH1 0x20 MSTORE PUSH1 0x40 SWAP1 KECCAK256 DUP1 SLOAD PUSH1 0xFF NOT AND SWAP1 SSTORE JUMP JUMPDEST PUSH1 0xA SLOAD PUSH1 0x1 PUSH1 0x1 PUSH1 0xA0 SHL SUB PUSH2 0x100 SWAP1 SWAP2 DIV AND CALLER EQ PUSH2 0x10F7 JUMPI PUSH1 0x40 MLOAD PUSH3 0x461BCD PUSH1 0xE5 SHL DUP2 MSTORE PUSH1 0x4 ADD PUSH2 0xB73 SWAP1 PUSH2 0x3930 JUMP JUMPDEST PUSH1 0xF SLOAD PUSH1 0x3 PUSH1 0xFF SWAP1 SWAP2 AND LT PUSH2 0x1146 JUMPI PUSH1 0x40 MLOAD PUSH3 0x461BCD PUSH1 0xE5 SHL DUP2 MSTORE PUSH1 0x20 PUSH1 0x4 DUP3 ADD MSTORE PUSH1 0x15 PUSH1 0x24 DUP3 ADD MSTORE PUSH21 0x283932B9B0B6329034B99031B7B731B63AB232B217 PUSH1 0x59 SHL PUSH1 0x44 DUP3 ADD MSTORE PUSH1 0x64 ADD PUSH2 0xB73 JUMP JUMPDEST PUSH1 0x15 SSTORE JUMP JUMPDEST PUSH1 0xA SLOAD PUSH1 0x1 PUSH1 0x1 PUSH1 0xA0 SHL SUB PUSH2 0x100 SWAP1 SWAP2 DIV AND CALLER EQ PUSH2 0x117B JUMPI PUSH1 0x40 MLOAD PUSH3 0x461BCD PUSH1 0xE5 SHL DUP2 MSTORE PUSH1 0x4 ADD PUSH2 0xB73 SWAP1 PUSH2 0x3930 JUMP JUMPDEST PUSH1 0x0 SELFBALANCE GT PUSH2 0x11C4 JUMPI PUSH1 0x40 MLOAD PUSH3 0x461BCD PUSH1 0xE5 SHL DUP2 MSTORE PUSH1 0x20 PUSH1 0x4 DUP3 ADD MSTORE PUSH1 0x16 PUSH1 0x24 DUP3 ADD MSTORE PUSH22 0x21B7B73A3930B1BA103130B630B731B29034B9901817 PUSH1 0x51 SHL PUSH1 0x44 DUP3 ADD MSTORE PUSH1 0x64 ADD PUSH2 0xB73 JUMP JUMPDEST PUSH1 0x0 PUSH20 0x1953BC1FF76F5E61CD775A4482BD85BAC56AD1EB PUSH2 0x11F1 PUSH1 0x64 PUSH2 0x11EB SELFBALANCE PUSH1 0x32 PUSH2 0x2A7C JUMP JUMPDEST SWAP1 PUSH2 0x2A88 JUMP JUMPDEST PUSH1 0x40 MLOAD PUSH1 0x0 DUP2 DUP2 DUP2 DUP6 DUP8 GAS CALL SWAP3 POP POP POP RETURNDATASIZE DUP1 PUSH1 0x0 DUP2 EQ PUSH2 0x122D JUMPI PUSH1 0x40 MLOAD SWAP2 POP PUSH1 0x1F NOT PUSH1 0x3F RETURNDATASIZE ADD AND DUP3 ADD PUSH1 0x40 MSTORE RETURNDATASIZE DUP3 MSTORE RETURNDATASIZE PUSH1 0x0 PUSH1 0x20 DUP5 ADD RETURNDATACOPY PUSH2 0x1232 JUMP JUMPDEST PUSH1 0x60 SWAP2 POP JUMPDEST POP POP SWAP1 POP DUP1 PUSH2 0x1278 JUMPI PUSH1 0x40 MLOAD PUSH3 0x461BCD PUSH1 0xE5 SHL DUP2 MSTORE PUSH1 0x20 PUSH1 0x4 DUP3 ADD MSTORE PUSH1 0x12 PUSH1 0x24 DUP3 ADD MSTORE PUSH18 0x1DDA5D1A191C985DDB080C4819985A5B1959 PUSH1 0x72 SHL PUSH1 0x44 DUP3 ADD MSTORE PUSH1 0x64 ADD PUSH2 0xB73 JUMP JUMPDEST PUSH1 0xA SLOAD PUSH1 0x40 MLOAD PUSH1 0x0 SWAP2 PUSH2 0x100 SWAP1 DIV PUSH1 0x1 PUSH1 0x1 PUSH1 0xA0 SHL SUB AND SWAP1 SELFBALANCE SWAP1 DUP4 DUP2 DUP2 DUP2 DUP6 DUP8 GAS CALL SWAP3 POP POP POP RETURNDATASIZE DUP1 PUSH1 0x0 DUP2 EQ PUSH2 0x12CA JUMPI PUSH1 0x40 MLOAD SWAP2 POP PUSH1 0x1F NOT PUSH1 0x3F RETURNDATASIZE ADD AND DUP3 ADD PUSH1 0x40 MSTORE RETURNDATASIZE DUP3 MSTORE RETURNDATASIZE PUSH1 0x0 PUSH1 0x20 DUP5 ADD RETURNDATACOPY PUSH2 0x12CF JUMP JUMPDEST PUSH1 0x60 SWAP2 POP JUMPDEST POP POP SWAP1 POP DUP1 PUSH2 0xD49 JUMPI PUSH1 0x40 MLOAD PUSH3 0x461BCD PUSH1 0xE5 SHL DUP2 MSTORE PUSH1 0x20 PUSH1 0x4 DUP3 ADD MSTORE PUSH1 0x12 PUSH1 0x24 DUP3 ADD MSTORE PUSH18 0x1DDA5D1A191C985DDB080C8819985A5B1959 PUSH1 0x72 SHL PUSH1 0x44 DUP3 ADD MSTORE PUSH1 0x64 ADD PUSH2 0xB73 JUMP JUMPDEST PUSH1 0xA SLOAD PUSH1 0x1 PUSH1 0x1 PUSH1 0xA0 SHL SUB PUSH2 0x100 SWAP1 SWAP2 DIV AND CALLER EQ PUSH2 0x1345 JUMPI PUSH1 0x40 MLOAD PUSH3 0x461BCD PUSH1 0xE5 SHL DUP2 MSTORE PUSH1 0x4 ADD PUSH2 0xB73 SWAP1 PUSH2 0x3930 JUMP JUMPDEST PUSH2 0x134D PUSH2 0x2A94 JUMP JUMPDEST JUMP JUMPDEST PUSH2 0xCA9 DUP4 DUP4 DUP4 PUSH1 0x40 MLOAD DUP1 PUSH1 0x20 ADD PUSH1 0x40 MSTORE DUP1 PUSH1 0x0 DUP2 MSTORE POP PUSH2 0x21A9 JUMP JUMPDEST PUSH1 0x60 PUSH1 0x0 PUSH2 0x1377 DUP4 PUSH2 0x1E49 JUMP JUMPDEST SWAP1 POP PUSH1 0x0 DUP2 PUSH8 0xFFFFFFFFFFFFFFFF DUP2 GT ISZERO PUSH2 0x1394 JUMPI PUSH2 0x1394 PUSH2 0x34E9 JUMP JUMPDEST PUSH1 0x40 MLOAD SWAP1 DUP1 DUP3 MSTORE DUP1 PUSH1 0x20 MUL PUSH1 0x20 ADD DUP3 ADD PUSH1 0x40 MSTORE DUP1 ISZERO PUSH2 0x13BD JUMPI DUP2 PUSH1 0x20 ADD PUSH1 0x20 DUP3 MUL DUP1 CALLDATASIZE DUP4 CALLDATACOPY ADD SWAP1 POP JUMPDEST POP SWAP1 POP PUSH1 0x0 JUMPDEST DUP3 DUP2 LT ISZERO PUSH2 0x1404 JUMPI PUSH2 0x13D5 DUP6 DUP3 PUSH2 0xF0D JUMP JUMPDEST DUP3 DUP3 DUP2 MLOAD DUP2 LT PUSH2 0x13E7 JUMPI PUSH2 0x13E7 PUSH2 0x3992 JUMP JUMPDEST PUSH1 0x20 SWAP1 DUP2 MUL SWAP2 SWAP1 SWAP2 ADD ADD MSTORE DUP1 PUSH2 0x13FC DUP2 PUSH2 0x39A8 JUMP JUMPDEST SWAP2 POP POP PUSH2 0x13C3 JUMP JUMPDEST POP SWAP4 SWAP3 POP POP POP JUMP JUMPDEST PUSH1 0x0 PUSH2 0x1417 PUSH1 0x8 SLOAD SWAP1 JUMP JUMPDEST DUP3 LT PUSH2 0x147A JUMPI PUSH1 0x40 MLOAD PUSH3 0x461BCD PUSH1 0xE5 SHL DUP2 MSTORE PUSH1 0x20 PUSH1 0x4 DUP3 ADD MSTORE PUSH1 0x2C PUSH1 0x24 DUP3 ADD MSTORE PUSH32 0x455243373231456E756D657261626C653A20676C6F62616C20696E646578206F PUSH1 0x44 DUP3 ADD MSTORE PUSH12 0x7574206F6620626F756E6473 PUSH1 0xA0 SHL PUSH1 0x64 DUP3 ADD MSTORE PUSH1 0x84 ADD PUSH2 0xB73 JUMP JUMPDEST PUSH1 0x8 DUP3 DUP2 SLOAD DUP2 LT PUSH2 0x148D JUMPI PUSH2 0x148D PUSH2 0x3992 JUMP JUMPDEST SWAP1 PUSH1 0x0 MSTORE PUSH1 0x20 PUSH1 0x0 KECCAK256 ADD SLOAD SWAP1 POP SWAP2 SWAP1 POP JUMP JUMPDEST PUSH1 0xA SLOAD PUSH1 0x1 PUSH1 0x1 PUSH1 0xA0 SHL SUB PUSH2 0x100 SWAP1 SWAP2 DIV AND CALLER EQ PUSH2 0x14CF JUMPI PUSH1 0x40 MLOAD PUSH3 0x461BCD PUSH1 0xE5 SHL DUP2 MSTORE PUSH1 0x4 ADD PUSH2 0xB73 SWAP1 PUSH2 0x3930 JUMP JUMPDEST PUSH1 0x11 SLOAD PUSH1 0xFF AND ISZERO PUSH2 0x1517 JUMPI PUSH1 0x40 MLOAD PUSH3 0x461BCD PUSH1 0xE5 SHL DUP2 MSTORE PUSH1 0x20 PUSH1 0x4 DUP3 ADD MSTORE PUSH1 0x12 PUSH1 0x24 DUP3 ADD MSTORE PUSH18 0x2130B9B2AAA9249034B990333937BD32B717 PUSH1 0x71 SHL PUSH1 0x44 DUP3 ADD MSTORE PUSH1 0x64 ADD PUSH2 0xB73 JUMP JUMPDEST DUP1 MLOAD PUSH2 0x152A SWAP1 PUSH1 0xD SWAP1 PUSH1 0x20 DUP5 ADD SWAP1 PUSH2 0x3338 JUMP JUMPDEST POP PUSH32 0x5411E8EBF1636D9E83D5FC4900BF80CBAC82E8790DA2A4C94DB4895E889EEDF6 PUSH1 0xD PUSH1 0x40 MLOAD PUSH2 0x155B SWAP2 SWAP1 PUSH2 0x3A14 JUMP JUMPDEST PUSH1 0x40 MLOAD DUP1 SWAP2 SUB SWAP1 LOG1 POP JUMP JUMPDEST PUSH1 0xA SLOAD PUSH1 0x1 PUSH1 0x1 PUSH1 0xA0 SHL SUB PUSH2 0x100 SWAP1 SWAP2 DIV AND CALLER EQ PUSH2 0x1596 JUMPI PUSH1 0x40 MLOAD PUSH3 0x461BCD PUSH1 0xE5 SHL DUP2 MSTORE PUSH1 0x4 ADD PUSH2 0xB73 SWAP1 PUSH2 0x3930 JUMP JUMPDEST PUSH1 0x10 SSTORE JUMP JUMPDEST PUSH1 0x0 DUP2 DUP2 MSTORE PUSH1 0x2 PUSH1 0x20 MSTORE PUSH1 0x40 DUP2 KECCAK256 SLOAD PUSH1 0x1 PUSH1 0x1 PUSH1 0xA0 SHL SUB AND DUP1 PUSH2 0xA66 JUMPI PUSH1 0x40 MLOAD PUSH3 0x461BCD PUSH1 0xE5 SHL DUP2 MSTORE PUSH1 0x20 PUSH1 0x4 DUP3 ADD MSTORE PUSH1 0x29 PUSH1 0x24 DUP3 ADD MSTORE PUSH32 0x4552433732313A206F776E657220717565727920666F72206E6F6E6578697374 PUSH1 0x44 DUP3 ADD MSTORE PUSH9 0x32B73A103A37B5B2B7 PUSH1 0xB9 SHL PUSH1 0x64 DUP3 ADD MSTORE PUSH1 0x84 ADD PUSH2 0xB73 JUMP JUMPDEST PUSH1 0xD DUP1 SLOAD PUSH2 0x161F SWAP1 PUSH2 0x38F5 JUMP JUMPDEST DUP1 PUSH1 0x1F ADD PUSH1 0x20 DUP1 SWAP2 DIV MUL PUSH1 0x20 ADD PUSH1 0x40 MLOAD SWAP1 DUP2 ADD PUSH1 0x40 MSTORE DUP1 SWAP3 SWAP2 SWAP1 DUP2 DUP2 MSTORE PUSH1 0x20 ADD DUP3 DUP1 SLOAD PUSH2 0x164B SWAP1 PUSH2 0x38F5 JUMP JUMPDEST DUP1 ISZERO PUSH2 0x1698 JUMPI DUP1 PUSH1 0x1F LT PUSH2 0x166D JUMPI PUSH2 0x100 DUP1 DUP4 SLOAD DIV MUL DUP4 MSTORE SWAP2 PUSH1 0x20 ADD SWAP2 PUSH2 0x1698 JUMP JUMPDEST DUP3 ADD SWAP2 SWAP1 PUSH1 0x0 MSTORE PUSH1 0x20 PUSH1 0x0 KECCAK256 SWAP1 JUMPDEST DUP2 SLOAD DUP2 MSTORE SWAP1 PUSH1 0x1 ADD SWAP1 PUSH1 0x20 ADD DUP1 DUP4 GT PUSH2 0x167B JUMPI DUP3 SWAP1 SUB PUSH1 0x1F AND DUP3 ADD SWAP2 JUMPDEST POP POP POP POP POP DUP2 JUMP JUMPDEST PUSH1 0x0 DUP1 PUSH2 0x16AB PUSH2 0xD4D JUMP JUMPDEST GT PUSH2 0x16EF JUMPI PUSH1 0x40 MLOAD PUSH3 0x461BCD PUSH1 0xE5 SHL DUP2 MSTORE PUSH1 0x20 PUSH1 0x4 DUP3 ADD MSTORE PUSH1 0x14 PUSH1 0x24 DUP3 ADD MSTORE PUSH20 0x139BC818DC9E5C1D1A590819D95B995C985D1959 PUSH1 0x62 SHL PUSH1 0x44 DUP3 ADD MSTORE PUSH1 0x64 ADD PUSH2 0xB73 JUMP JUMPDEST PUSH2 0xD64 PUSH2 0x6D4 PUSH2 0xD4D JUMP JUMPDEST PUSH1 0xA SLOAD PUSH1 0xFF AND ISZERO PUSH2 0x171D JUMPI PUSH1 0x40 MLOAD PUSH3 0x461BCD PUSH1 0xE5 SHL DUP2 MSTORE PUSH1 0x4 ADD PUSH2 0xB73 SWAP1 PUSH2 0x3A99 JUMP JUMPDEST PUSH1 0x1B SLOAD PUSH2 0x1728 PUSH2 0xD4D JUMP JUMPDEST LT PUSH2 0x1775 JUMPI PUSH1 0x40 MLOAD PUSH3 0x461BCD PUSH1 0xE5 SHL DUP2 MSTORE PUSH1 0x20 PUSH1 0x4 DUP3 ADD MSTORE PUSH1 0x18 PUSH1 0x24 DUP3 ADD MSTORE PUSH32 0x416C6C20637279707469647320617265206D696E7465642E0000000000000000 PUSH1 0x44 DUP3 ADD MSTORE PUSH1 0x64 ADD PUSH2 0xB73 JUMP JUMPDEST PUSH1 0xF SLOAD PUSH1 0xFF AND PUSH2 0x17E2 JUMPI PUSH1 0x40 MLOAD PUSH3 0x461BCD PUSH1 0xE5 SHL DUP2 MSTORE PUSH1 0x20 PUSH1 0x4 DUP3 ADD MSTORE PUSH1 0x32 PUSH1 0x24 DUP3 ADD MSTORE PUSH32 0x4D696E74696E67206E6F7420696E697469617465642E2043757272656E6C7920 PUSH1 0x44 DUP3 ADD MSTORE PUSH18 0x37B71039BA30B3B29018101434B734BA1497 PUSH1 0x71 SHL PUSH1 0x64 DUP3 ADD MSTORE PUSH1 0x84 ADD PUSH2 0xB73 JUMP JUMPDEST PUSH1 0x0 DUP2 PUSH1 0xFF AND GT PUSH2 0x1840 JUMPI PUSH1 0x40 MLOAD PUSH3 0x461BCD PUSH1 0xE5 SHL DUP2 MSTORE PUSH1 0x20 PUSH1 0x4 DUP3 ADD MSTORE PUSH1 0x22 PUSH1 0x24 DUP3 ADD MSTORE PUSH32 0x4D696E7420616D6F756E74206D7573742062652067726561746572207468616E PUSH1 0x44 DUP3 ADD MSTORE PUSH2 0x203 PUSH1 0xF4 SHL PUSH1 0x64 DUP3 ADD MSTORE PUSH1 0x84 ADD PUSH2 0xB73 JUMP JUMPDEST PUSH1 0x10 SLOAD DUP2 PUSH1 0xFF AND GT ISZERO PUSH2 0x18A8 JUMPI PUSH1 0x40 MLOAD PUSH3 0x461BCD PUSH1 0xE5 SHL DUP2 MSTORE PUSH1 0x20 PUSH1 0x4 DUP3 ADD MSTORE PUSH1 0x2A PUSH1 0x24 DUP3 ADD MSTORE PUSH32 0x45786365656473206D617820616C6C6F77656420616D6F756E74207065722074 PUSH1 0x44 DUP3 ADD MSTORE PUSH10 0x3930B739B0B1BA34B7B7 PUSH1 0xB1 SHL PUSH1 0x64 DUP3 ADD MSTORE PUSH1 0x84 ADD PUSH2 0xB73 JUMP JUMPDEST PUSH1 0x1B SLOAD DUP2 PUSH1 0xFF AND PUSH2 0x18B7 PUSH2 0xD4D JUMP JUMPDEST PUSH2 0x18C1 SWAP2 SWAP1 PUSH2 0x3AC3 JUMP JUMPDEST GT ISZERO PUSH2 0x191D JUMPI PUSH1 0x40 MLOAD PUSH3 0x461BCD PUSH1 0xE5 SHL DUP2 MSTORE PUSH1 0x20 PUSH1 0x4 DUP3 ADD MSTORE PUSH1 0x25 PUSH1 0x24 DUP3 ADD MSTORE PUSH32 0x5472616E73616374696F6E206578636565647320746F74616C2073616C652073 PUSH1 0x44 DUP3 ADD MSTORE PUSH5 0x7570706C79 PUSH1 0xD8 SHL PUSH1 0x64 DUP3 ADD MSTORE PUSH1 0x84 ADD PUSH2 0xB73 JUMP JUMPDEST PUSH1 0xF SLOAD PUSH1 0xFF AND PUSH1 0x1 EQ ISZERO PUSH2 0x1A6A JUMPI CALLER PUSH1 0x0 SWAP1 DUP2 MSTORE PUSH1 0x12 PUSH1 0x20 MSTORE PUSH1 0x40 SWAP1 KECCAK256 SLOAD PUSH1 0xFF AND PUSH2 0x19A7 JUMPI PUSH1 0x40 MLOAD PUSH3 0x461BCD PUSH1 0xE5 SHL DUP2 MSTORE PUSH1 0x20 PUSH1 0x4 DUP3 ADD MSTORE PUSH1 0x34 PUSH1 0x24 DUP3 ADD MSTORE PUSH32 0x4D696E746572206E6F74206F6E20667265652077686974656C697374206F7220 PUSH1 0x44 DUP3 ADD MSTORE PUSH20 0x30B6361036B4B73A39903932BA3934B2BB32B217 PUSH1 0x61 SHL PUSH1 0x64 DUP3 ADD MSTORE PUSH1 0x84 ADD PUSH2 0xB73 JUMP JUMPDEST CALLER PUSH1 0x0 SWAP1 DUP2 MSTORE PUSH1 0x12 PUSH1 0x20 MSTORE PUSH1 0x40 DUP2 KECCAK256 SLOAD PUSH2 0x19C5 SWAP1 DUP4 SWAP1 PUSH1 0xFF AND PUSH2 0x3ADB JUMP JUMPDEST PUSH1 0xFF AND LT ISZERO PUSH2 0x1A2B JUMPI PUSH1 0x40 MLOAD PUSH3 0x461BCD PUSH1 0xE5 SHL DUP2 MSTORE PUSH1 0x20 PUSH1 0x4 DUP3 ADD MSTORE PUSH1 0x2C PUSH1 0x24 DUP3 ADD MSTORE PUSH32 0x5472616E73616374696F6E206578636565647320617761726465642066726565 PUSH1 0x44 DUP3 ADD MSTORE PUSH12 0xB5B5A5B9D08185B5BDD5B9D PUSH1 0xA2 SHL PUSH1 0x64 DUP3 ADD MSTORE PUSH1 0x84 ADD PUSH2 0xB73 JUMP JUMPDEST CALLER PUSH1 0x0 SWAP1 DUP2 MSTORE PUSH1 0x12 PUSH1 0x20 MSTORE PUSH1 0x40 DUP2 KECCAK256 DUP1 SLOAD DUP4 SWAP3 SWAP1 PUSH2 0x1A4D SWAP1 DUP5 SWAP1 PUSH1 0xFF AND PUSH2 0x3ADB JUMP JUMPDEST SWAP3 POP PUSH2 0x100 EXP DUP2 SLOAD DUP2 PUSH1 0xFF MUL NOT AND SWAP1 DUP4 PUSH1 0xFF AND MUL OR SWAP1 SSTORE POP PUSH2 0x1DB7 JUMP JUMPDEST PUSH1 0xF SLOAD PUSH1 0xFF AND PUSH1 0x2 EQ ISZERO PUSH2 0x1C54 JUMPI CALLER PUSH1 0x0 SWAP1 DUP2 MSTORE PUSH1 0x13 PUSH1 0x20 MSTORE PUSH1 0x40 SWAP1 KECCAK256 SLOAD PUSH1 0xFF AND PUSH2 0x1AE3 JUMPI PUSH1 0x40 MLOAD PUSH3 0x461BCD PUSH1 0xE5 SHL DUP2 MSTORE PUSH1 0x20 PUSH1 0x4 DUP3 ADD MSTORE PUSH1 0x23 PUSH1 0x24 DUP3 ADD MSTORE PUSH32 0x41646472657373206E6F742077686974656C697374656420666F722070726573 PUSH1 0x44 DUP3 ADD MSTORE PUSH3 0x616C65 PUSH1 0xE8 SHL PUSH1 0x64 DUP3 ADD MSTORE PUSH1 0x84 ADD PUSH2 0xB73 JUMP JUMPDEST PUSH1 0x14 SLOAD DUP2 PUSH1 0xFF AND PUSH2 0x1AF2 PUSH2 0xD4D JUMP JUMPDEST PUSH2 0x1AFC SWAP2 SWAP1 PUSH2 0x3AC3 JUMP JUMPDEST GT ISZERO PUSH2 0x1B56 JUMPI PUSH1 0x40 MLOAD PUSH3 0x461BCD PUSH1 0xE5 SHL DUP2 MSTORE PUSH1 0x20 PUSH1 0x4 DUP3 ADD MSTORE PUSH1 0x23 PUSH1 0x24 DUP3 ADD MSTORE PUSH32 0x5472616E73616374696F6E2065786365656473207072652D73616C6520737570 PUSH1 0x44 DUP3 ADD MSTORE PUSH3 0x706C79 PUSH1 0xE8 SHL PUSH1 0x64 DUP3 ADD MSTORE PUSH1 0x84 ADD PUSH2 0xB73 JUMP JUMPDEST PUSH1 0x16 SLOAD CALLER PUSH1 0x0 SWAP1 DUP2 MSTORE PUSH1 0x17 PUSH1 0x20 MSTORE PUSH1 0x40 SWAP1 KECCAK256 SLOAD PUSH2 0x1B76 SWAP1 PUSH1 0xFF AND DUP4 PUSH2 0x3AFE JUMP JUMPDEST PUSH1 0xFF AND GT ISZERO PUSH2 0x1BDB JUMPI PUSH1 0x40 MLOAD PUSH3 0x461BCD PUSH1 0xE5 SHL DUP2 MSTORE PUSH1 0x20 PUSH1 0x4 DUP3 ADD MSTORE PUSH1 0x2B PUSH1 0x24 DUP3 ADD MSTORE PUSH32 0x5472616E73616374696F6E2065786365656473206D617820616C6C6F77207072 PUSH1 0x44 DUP3 ADD MSTORE PUSH11 0x6573616C65206D696E7473 PUSH1 0xA8 SHL PUSH1 0x64 DUP3 ADD MSTORE PUSH1 0x84 ADD PUSH2 0xB73 JUMP JUMPDEST PUSH1 0x15 SLOAD PUSH2 0x1BEB SWAP1 PUSH1 0xFF DUP4 AND PUSH2 0x2A7C JUMP JUMPDEST CALLVALUE LT ISZERO PUSH2 0x1C32 JUMPI PUSH1 0x40 MLOAD PUSH3 0x461BCD PUSH1 0xE5 SHL DUP2 MSTORE PUSH1 0x20 PUSH1 0x4 DUP3 ADD MSTORE PUSH1 0x15 PUSH1 0x24 DUP3 ADD MSTORE PUSH21 0x139BDD08195B9BDD59DA08195D1A195C881CD95B9D PUSH1 0x5A SHL PUSH1 0x44 DUP3 ADD MSTORE PUSH1 0x64 ADD PUSH2 0xB73 JUMP JUMPDEST CALLER PUSH1 0x0 SWAP1 DUP2 MSTORE PUSH1 0x17 PUSH1 0x20 MSTORE PUSH1 0x40 DUP2 KECCAK256 DUP1 SLOAD DUP4 SWAP3 SWAP1 PUSH2 0x1A4D SWAP1 DUP5 SWAP1 PUSH1 0xFF AND PUSH2 0x3AFE JUMP JUMPDEST PUSH1 0xF SLOAD PUSH1 0xFF AND PUSH1 0x3 EQ ISZERO PUSH2 0x1D60 JUMPI PUSH1 0xA SLOAD PUSH1 0x1 PUSH1 0x1 PUSH1 0xA0 SHL SUB PUSH2 0x100 SWAP1 SWAP2 DIV AND CALLER EQ PUSH2 0x1CCC JUMPI PUSH1 0x40 MLOAD PUSH3 0x461BCD PUSH1 0xE5 SHL DUP2 MSTORE PUSH1 0x20 PUSH1 0x4 DUP3 ADD MSTORE PUSH1 0x21 PUSH1 0x24 DUP3 ADD MSTORE PUSH32 0x4F6E6C79204F776E65722063616E206D696E7420617420746869732073746167 PUSH1 0x44 DUP3 ADD MSTORE PUSH1 0x65 PUSH1 0xF8 SHL PUSH1 0x64 DUP3 ADD MSTORE PUSH1 0x84 ADD PUSH2 0xB73 JUMP JUMPDEST PUSH1 0x18 SLOAD PUSH1 0x19 SLOAD PUSH2 0x1CDF SWAP1 PUSH1 0xFF DUP5 AND PUSH2 0x3AC3 JUMP JUMPDEST GT ISZERO PUSH2 0x1D40 JUMPI PUSH1 0x40 MLOAD PUSH3 0x461BCD PUSH1 0xE5 SHL DUP2 MSTORE PUSH1 0x20 PUSH1 0x4 DUP3 ADD MSTORE PUSH1 0x2A PUSH1 0x24 DUP3 ADD MSTORE PUSH32 0x5472616E73616374696F6E206578636565647320746F74616C207465616D2D73 PUSH1 0x44 DUP3 ADD MSTORE PUSH10 0x616C6520737570706C79 PUSH1 0xB0 SHL PUSH1 0x64 DUP3 ADD MSTORE PUSH1 0x84 ADD PUSH2 0xB73 JUMP JUMPDEST DUP1 PUSH1 0xFF AND PUSH1 0x19 PUSH1 0x0 DUP3 DUP3 SLOAD PUSH2 0x1D55 SWAP2 SWAP1 PUSH2 0x3AC3 JUMP JUMPDEST SWAP1 SWAP2 SSTORE POP PUSH2 0x1DB7 SWAP1 POP JUMP JUMPDEST PUSH1 0x1A SLOAD PUSH2 0x1D70 SWAP1 PUSH1 0xFF DUP4 AND PUSH2 0x2A7C JUMP JUMPDEST CALLVALUE LT ISZERO PUSH2 0x1DB7 JUMPI PUSH1 0x40 MLOAD PUSH3 0x461BCD PUSH1 0xE5 SHL DUP2 MSTORE PUSH1 0x20 PUSH1 0x4 DUP3 ADD MSTORE PUSH1 0x15 PUSH1 0x24 DUP3 ADD MSTORE PUSH21 0x139BDD08195B9BDD59DA08195D1A195C881CD95B9D PUSH1 0x5A SHL PUSH1 0x44 DUP3 ADD MSTORE PUSH1 0x64 ADD PUSH2 0xB73 JUMP JUMPDEST PUSH1 0x1 JUMPDEST DUP2 PUSH1 0xFF AND DUP2 GT PUSH2 0x1DF6 JUMPI PUSH2 0x1DD6 CALLER PUSH2 0x1DD1 PUSH1 0xB SLOAD SWAP1 JUMP JUMPDEST PUSH2 0x2B27 JUMP JUMPDEST PUSH2 0x1DE4 PUSH1 0xB DUP1 SLOAD PUSH1 0x1 ADD SWAP1 SSTORE JUMP JUMPDEST DUP1 PUSH2 0x1DEE DUP2 PUSH2 0x39A8 JUMP JUMPDEST SWAP2 POP POP PUSH2 0x1DBA JUMP JUMPDEST POP PUSH32 0xFE446FB36FBB8C47E4EE0D7E1E9FCA431C3A2314854D8DE0F3BB04FA156D6E71 CALLER DUP3 PUSH2 0x1E22 PUSH2 0xD4D JUMP JUMPDEST PUSH1 0x40 DUP1 MLOAD PUSH1 0x1 PUSH1 0x1 PUSH1 0xA0 SHL SUB SWAP1 SWAP5 AND DUP5 MSTORE PUSH1 0xFF SWAP1 SWAP3 AND PUSH1 0x20 DUP5 ADD MSTORE SWAP1 DUP3 ADD MSTORE PUSH1 0x60 ADD PUSH2 0x155B JUMP JUMPDEST PUSH1 0x0 PUSH1 0x1 PUSH1 0x1 PUSH1 0xA0 SHL SUB DUP3 AND PUSH2 0x1EB4 JUMPI PUSH1 0x40 MLOAD PUSH3 0x461BCD PUSH1 0xE5 SHL DUP2 MSTORE PUSH1 0x20 PUSH1 0x4 DUP3 ADD MSTORE PUSH1 0x2A PUSH1 0x24 DUP3 ADD MSTORE PUSH32 0x4552433732313A2062616C616E636520717565727920666F7220746865207A65 PUSH1 0x44 DUP3 ADD MSTORE PUSH10 0x726F2061646472657373 PUSH1 0xB0 SHL PUSH1 0x64 DUP3 ADD MSTORE PUSH1 0x84 ADD PUSH2 0xB73 JUMP JUMPDEST POP PUSH1 0x1 PUSH1 0x1 PUSH1 0xA0 SHL SUB AND PUSH1 0x0 SWAP1 DUP2 MSTORE PUSH1 0x3 PUSH1 0x20 MSTORE PUSH1 0x40 SWAP1 KECCAK256 SLOAD SWAP1 JUMP JUMPDEST PUSH1 0xA SLOAD PUSH1 0x1 PUSH1 0x1 PUSH1 0xA0 SHL SUB PUSH2 0x100 SWAP1 SWAP2 DIV AND CALLER EQ PUSH2 0x1F00 JUMPI PUSH1 0x40 MLOAD PUSH3 0x461BCD PUSH1 0xE5 SHL DUP2 MSTORE PUSH1 0x4 ADD PUSH2 0xB73 SWAP1 PUSH2 0x3930 JUMP JUMPDEST PUSH2 0x134D PUSH1 0x0 PUSH2 0x2B41 JUMP JUMPDEST PUSH1 0xA SLOAD PUSH1 0x1 PUSH1 0x1 PUSH1 0xA0 SHL SUB PUSH2 0x100 SWAP1 SWAP2 DIV AND CALLER EQ PUSH2 0x1F3A JUMPI PUSH1 0x40 MLOAD PUSH3 0x461BCD PUSH1 0xE5 SHL DUP2 MSTORE PUSH1 0x4 ADD PUSH2 0xB73 SWAP1 PUSH2 0x3930 JUMP JUMPDEST PUSH1 0x1A SSTORE JUMP JUMPDEST PUSH1 0xA SLOAD PUSH1 0x1 PUSH1 0x1 PUSH1 0xA0 SHL SUB PUSH2 0x100 SWAP1 SWAP2 DIV AND CALLER EQ PUSH2 0x1F6F JUMPI PUSH1 0x40 MLOAD PUSH3 0x461BCD PUSH1 0xE5 SHL DUP2 MSTORE PUSH1 0x4 ADD PUSH2 0xB73 SWAP1 PUSH2 0x3930 JUMP JUMPDEST PUSH1 0x0 PUSH1 0xC DUP1 SLOAD PUSH2 0x1F7E SWAP1 PUSH2 0x38F5 JUMP JUMPDEST SWAP1 POP GT PUSH2 0x1FCD JUMPI PUSH1 0x40 MLOAD PUSH3 0x461BCD PUSH1 0xE5 SHL DUP2 MSTORE PUSH1 0x20 PUSH1 0x4 DUP3 ADD DUP2 SWAP1 MSTORE PUSH1 0x24 DUP3 ADD MSTORE PUSH32 0x50726F76656E616E636520686173682063616E6E6F7420626520656D7074792E PUSH1 0x44 DUP3 ADD MSTORE PUSH1 0x64 ADD PUSH2 0xB73 JUMP JUMPDEST PUSH1 0x11 SLOAD PUSH2 0x100 SWAP1 DIV PUSH1 0xFF AND ISZERO PUSH2 0x2030 JUMPI PUSH1 0x40 MLOAD PUSH3 0x461BCD PUSH1 0xE5 SHL DUP2 MSTORE PUSH1 0x20 PUSH1 0x4 DUP3 ADD MSTORE PUSH1 0x22 PUSH1 0x24 DUP3 ADD MSTORE PUSH32 0x50726F76656E616E6365206861736820697320616C72656164792066726F7A65 PUSH1 0x44 DUP3 ADD MSTORE PUSH2 0x3717 PUSH1 0xF1 SHL PUSH1 0x64 DUP3 ADD MSTORE PUSH1 0x84 ADD PUSH2 0xB73 JUMP JUMPDEST PUSH1 0x11 DUP1 SLOAD PUSH2 0xFF00 NOT AND PUSH2 0x100 OR SWAP1 SSTORE JUMP JUMPDEST PUSH1 0xA SLOAD PUSH1 0x1 PUSH1 0x1 PUSH1 0xA0 SHL SUB PUSH2 0x100 SWAP1 SWAP2 DIV AND CALLER EQ PUSH2 0x2071 JUMPI PUSH1 0x40 MLOAD PUSH3 0x461BCD PUSH1 0xE5 SHL DUP2 MSTORE PUSH1 0x4 ADD PUSH2 0xB73 SWAP1 PUSH2 0x3930 JUMP JUMPDEST PUSH2 0x134D PUSH2 0x2B9B JUMP JUMPDEST PUSH1 0xA SLOAD PUSH1 0x1 PUSH1 0x1 PUSH1 0xA0 SHL SUB PUSH2 0x100 SWAP1 SWAP2 DIV AND CALLER EQ PUSH2 0x20A9 JUMPI PUSH1 0x40 MLOAD PUSH3 0x461BCD PUSH1 0xE5 SHL DUP2 MSTORE PUSH1 0x4 ADD PUSH2 0xB73 SWAP1 PUSH2 0x3930 JUMP JUMPDEST PUSH1 0xF SLOAD PUSH1 0x2 PUSH1 0xFF SWAP1 SWAP2 AND LT PUSH2 0x2100 JUMPI PUSH1 0x40 MLOAD PUSH3 0x461BCD PUSH1 0xE5 SHL DUP2 MSTORE PUSH1 0x20 PUSH1 0x4 DUP3 ADD MSTORE PUSH1 0x1C PUSH1 0x24 DUP3 ADD MSTORE PUSH32 0x57686974656C6973742073616C6520697320636F6E636C756465642E00000000 PUSH1 0x44 DUP3 ADD MSTORE PUSH1 0x64 ADD PUSH2 0xB73 JUMP JUMPDEST PUSH1 0x0 JUMPDEST DUP3 MLOAD DUP2 LT ISZERO PUSH2 0xCA9 JUMPI DUP2 DUP2 DUP2 MLOAD DUP2 LT PUSH2 0x211E JUMPI PUSH2 0x211E PUSH2 0x3992 JUMP JUMPDEST PUSH1 0x20 MUL PUSH1 0x20 ADD ADD MLOAD PUSH1 0x12 PUSH1 0x0 DUP6 DUP5 DUP2 MLOAD DUP2 LT PUSH2 0x213C JUMPI PUSH2 0x213C PUSH2 0x3992 JUMP JUMPDEST PUSH1 0x20 MUL PUSH1 0x20 ADD ADD MLOAD PUSH1 0x1 PUSH1 0x1 PUSH1 0xA0 SHL SUB AND PUSH1 0x1 PUSH1 0x1 PUSH1 0xA0 SHL SUB AND DUP2 MSTORE PUSH1 0x20 ADD SWAP1 DUP2 MSTORE PUSH1 0x20 ADD PUSH1 0x0 KECCAK256 PUSH1 0x0 PUSH2 0x100 EXP DUP2 SLOAD DUP2 PUSH1 0xFF MUL NOT AND SWAP1 DUP4 PUSH1 0xFF AND MUL OR SWAP1 SSTORE POP DUP1 DUP1 PUSH2 0x2187 SWAP1 PUSH2 0x39A8 JUMP JUMPDEST SWAP2 POP POP PUSH2 0x2103 JUMP JUMPDEST PUSH1 0x60 PUSH1 0x1 DUP1 SLOAD PUSH2 0xA7B SWAP1 PUSH2 0x38F5 JUMP JUMPDEST PUSH2 0xD49 CALLER DUP4 DUP4 PUSH2 0x2BF3 JUMP JUMPDEST PUSH2 0x21B3 CALLER DUP4 PUSH2 0x27DA JUMP JUMPDEST PUSH2 0x21CF JUMPI PUSH1 0x40 MLOAD PUSH3 0x461BCD PUSH1 0xE5 SHL DUP2 MSTORE PUSH1 0x4 ADD PUSH2 0xB73 SWAP1 PUSH2 0x39C3 JUMP JUMPDEST PUSH2 0x21DB DUP5 DUP5 DUP5 DUP5 PUSH2 0x2CC2 JUMP JUMPDEST POP POP POP POP JUMP JUMPDEST PUSH1 0xE DUP1 SLOAD PUSH2 0x161F SWAP1 PUSH2 0x38F5 JUMP JUMPDEST PUSH1 0xC DUP1 SLOAD PUSH2 0x161F SWAP1 PUSH2 0x38F5 JUMP JUMPDEST PUSH1 0x0 DUP2 DUP2 MSTORE PUSH1 0x2 PUSH1 0x20 MSTORE PUSH1 0x40 SWAP1 KECCAK256 SLOAD PUSH1 0x60 SWAP1 PUSH1 0x1 PUSH1 0x1 PUSH1 0xA0 SHL SUB AND PUSH2 0x227A JUMPI PUSH1 0x40 MLOAD PUSH3 0x461BCD PUSH1 0xE5 SHL DUP2 MSTORE PUSH1 0x20 PUSH1 0x4 DUP3 ADD MSTORE PUSH1 0x2F PUSH1 0x24 DUP3 ADD MSTORE PUSH32 0x4552433732314D657461646174613A2055524920717565727920666F72206E6F PUSH1 0x44 DUP3 ADD MSTORE PUSH15 0x3732BC34B9BA32B73A103A37B5B2B7 PUSH1 0x89 SHL PUSH1 0x64 DUP3 ADD MSTORE PUSH1 0x84 ADD PUSH2 0xB73 JUMP JUMPDEST PUSH1 0x0 PUSH1 0xD DUP1 SLOAD PUSH2 0x2289 SWAP1 PUSH2 0x38F5 JUMP JUMPDEST DUP1 PUSH1 0x1F ADD PUSH1 0x20 DUP1 SWAP2 DIV MUL PUSH1 0x20 ADD PUSH1 0x40 MLOAD SWAP1 DUP2 ADD PUSH1 0x40 MSTORE DUP1 SWAP3 SWAP2 SWAP1 DUP2 DUP2 MSTORE PUSH1 0x20 ADD DUP3 DUP1 SLOAD PUSH2 0x22B5 SWAP1 PUSH2 0x38F5 JUMP JUMPDEST DUP1 ISZERO PUSH2 0x2302 JUMPI DUP1 PUSH1 0x1F LT PUSH2 0x22D7 JUMPI PUSH2 0x100 DUP1 DUP4 SLOAD DIV MUL DUP4 MSTORE SWAP2 PUSH1 0x20 ADD SWAP2 PUSH2 0x2302 JUMP JUMPDEST DUP3 ADD SWAP2 SWAP1 PUSH1 0x0 MSTORE PUSH1 0x20 PUSH1 0x0 KECCAK256 SWAP1 JUMPDEST DUP2 SLOAD DUP2 MSTORE SWAP1 PUSH1 0x1 ADD SWAP1 PUSH1 0x20 ADD DUP1 DUP4 GT PUSH2 0x22E5 JUMPI DUP3 SWAP1 SUB PUSH1 0x1F AND DUP3 ADD SWAP2 JUMPDEST POP POP POP POP POP SWAP1 POP PUSH1 0x0 DUP2 MLOAD GT PUSH2 0x2327 JUMPI PUSH1 0x40 MLOAD DUP1 PUSH1 0x20 ADD PUSH1 0x40 MSTORE DUP1 PUSH1 0x0 DUP2 MSTORE POP PUSH2 0x2355 JUMP JUMPDEST DUP1 PUSH2 0x2331 DUP5 PUSH2 0x2CF5 JUMP JUMPDEST PUSH1 0xE PUSH1 0x40 MLOAD PUSH1 0x20 ADD PUSH2 0x2345 SWAP4 SWAP3 SWAP2 SWAP1 PUSH2 0x3B23 JUMP JUMPDEST PUSH1 0x40 MLOAD PUSH1 0x20 DUP2 DUP4 SUB SUB DUP2 MSTORE SWAP1 PUSH1 0x40 MSTORE JUMPDEST SWAP4 SWAP3 POP POP POP JUMP JUMPDEST PUSH1 0x0 DUP1 PUSH2 0x2367 PUSH2 0xD4D JUMP JUMPDEST GT PUSH2 0x23AB JUMPI PUSH1 0x40 MLOAD PUSH3 0x461BCD PUSH1 0xE5 SHL DUP2 MSTORE PUSH1 0x20 PUSH1 0x4 DUP3 ADD MSTORE PUSH1 0x14 PUSH1 0x24 DUP3 ADD MSTORE PUSH20 0x139BC818DC9E5C1D1A590819D95B995C985D1959 PUSH1 0x62 SHL PUSH1 0x44 DUP3 ADD MSTORE PUSH1 0x64 ADD PUSH2 0xB73 JUMP JUMPDEST PUSH2 0xD64 PUSH2 0xD4D JUMP JUMPDEST PUSH1 0x0 PUSH2 0x23BD PUSH2 0xD4D JUMP JUMPDEST PUSH1 0x1B SLOAD PUSH2 0xD64 SWAP2 SWAP1 PUSH2 0x397B JUMP JUMPDEST PUSH1 0xA SLOAD PUSH1 0x1 PUSH1 0x1 PUSH1 0xA0 SHL SUB PUSH2 0x100 SWAP1 SWAP2 DIV AND CALLER EQ PUSH2 0x23FA JUMPI PUSH1 0x40 MLOAD PUSH3 0x461BCD PUSH1 0xE5 SHL DUP2 MSTORE PUSH1 0x4 ADD PUSH2 0xB73 SWAP1 PUSH2 0x3930 JUMP JUMPDEST PUSH1 0x0 PUSH1 0xD DUP1 SLOAD PUSH2 0x2409 SWAP1 PUSH2 0x38F5 JUMP JUMPDEST SWAP1 POP GT PUSH2 0x2458 JUMPI PUSH1 0x40 MLOAD PUSH3 0x461BCD PUSH1 0xE5 SHL DUP2 MSTORE PUSH1 0x20 PUSH1 0x4 DUP3 ADD MSTORE PUSH1 0x17 PUSH1 0x24 DUP3 ADD MSTORE PUSH32 0x626173655552492063616E6E6F7420626520656D707479000000000000000000 PUSH1 0x44 DUP3 ADD MSTORE PUSH1 0x64 ADD PUSH2 0xB73 JUMP JUMPDEST PUSH1 0x11 SLOAD PUSH1 0xFF AND ISZERO PUSH2 0x24AB JUMPI PUSH1 0x40 MLOAD PUSH3 0x461BCD PUSH1 0xE5 SHL DUP2 MSTORE PUSH1 0x20 PUSH1 0x4 DUP3 ADD MSTORE PUSH1 0x1A PUSH1 0x24 DUP3 ADD MSTORE PUSH32 0x4261736555524920697320616C72656164792066726F7A656E2E000000000000 PUSH1 0x44 DUP3 ADD MSTORE PUSH1 0x64 ADD PUSH2 0xB73 JUMP JUMPDEST PUSH1 0x11 DUP1 SLOAD PUSH1 0xFF NOT AND PUSH1 0x1 OR SWAP1 SSTORE JUMP JUMPDEST PUSH1 0xA SLOAD PUSH1 0x1 PUSH1 0x1 PUSH1 0xA0 SHL SUB PUSH2 0x100 SWAP1 SWAP2 DIV AND CALLER EQ PUSH2 0x24EA JUMPI PUSH1 0x40 MLOAD PUSH3 0x461BCD PUSH1 0xE5 SHL DUP2 MSTORE PUSH1 0x4 ADD PUSH2 0xB73 SWAP1 PUSH2 0x3930 JUMP JUMPDEST PUSH1 0x1 PUSH1 0x1 PUSH1 0xA0 SHL SUB DUP2 AND PUSH1 0x0 SWAP1 DUP2 MSTORE PUSH1 0x13 PUSH1 0x20 MSTORE PUSH1 0x40 SWAP1 KECCAK256 SLOAD PUSH1 0xFF AND PUSH2 0x2552 JUMPI PUSH1 0x40 MLOAD PUSH3 0x461BCD PUSH1 0xE5 SHL DUP2 MSTORE PUSH1 0x20 PUSH1 0x4 DUP3 ADD MSTORE PUSH1 0x19 PUSH1 0x24 DUP3 ADD MSTORE PUSH32 0x55736572206E6F74206F6E2070726573616C65206C6973742E00000000000000 PUSH1 0x44 DUP3 ADD MSTORE PUSH1 0x64 ADD PUSH2 0xB73 JUMP JUMPDEST PUSH1 0x1 PUSH1 0x1 PUSH1 0xA0 SHL SUB AND PUSH1 0x0 SWAP1 DUP2 MSTORE PUSH1 0x13 PUSH1 0x20 MSTORE PUSH1 0x40 SWAP1 KECCAK256 DUP1 SLOAD PUSH1 0xFF NOT AND SWAP1 SSTORE JUMP JUMPDEST PUSH1 0xA SLOAD PUSH1 0x1 PUSH1 0x1 PUSH1 0xA0 SHL SUB PUSH2 0x100 SWAP1 SWAP2 DIV AND CALLER EQ PUSH2 0x25A3 JUMPI PUSH1 0x40 MLOAD PUSH3 0x461BCD PUSH1 0xE5 SHL DUP2 MSTORE PUSH1 0x4 ADD PUSH2 0xB73 SWAP1 PUSH2 0x3930 JUMP JUMPDEST PUSH1 0x11 SLOAD PUSH2 0x100 SWAP1 DIV PUSH1 0xFF AND PUSH2 0x2618 JUMPI PUSH1 0x40 MLOAD PUSH3 0x461BCD PUSH1 0xE5 SHL DUP2 MSTORE PUSH1 0x20 PUSH1 0x4 DUP3 ADD MSTORE PUSH1 0x35 PUSH1 0x24 DUP3 ADD MSTORE PUSH32 0x50726F76656E616E63652068617368206D75737420626520736574206265666F PUSH1 0x44 DUP3 ADD MSTORE PUSH21 0x39329036B4B73A34B7339031B0B71039BA30B93A17 PUSH1 0x59 SHL PUSH1 0x64 DUP3 ADD MSTORE PUSH1 0x84 ADD PUSH2 0xB73 JUMP JUMPDEST PUSH1 0xF SLOAD PUSH1 0x4 PUSH1 0xFF SWAP1 SWAP2 AND LT PUSH2 0x266F JUMPI PUSH1 0x40 MLOAD PUSH3 0x461BCD PUSH1 0xE5 SHL DUP2 MSTORE PUSH1 0x20 PUSH1 0x4 DUP3 ADD MSTORE PUSH1 0x1B PUSH1 0x24 DUP3 ADD MSTORE PUSH32 0x4E6F20737461676573206166746572207075626C69632073616C650000000000 PUSH1 0x44 DUP3 ADD MSTORE PUSH1 0x64 ADD PUSH2 0xB73 JUMP JUMPDEST PUSH1 0xF DUP1 SLOAD PUSH1 0xFF AND SWAP1 PUSH1 0x0 PUSH2 0x2682 DUP4 PUSH2 0x3BBF JUMP JUMPDEST SWAP2 SWAP1 PUSH2 0x100 EXP DUP2 SLOAD DUP2 PUSH1 0xFF MUL NOT AND SWAP1 DUP4 PUSH1 0xFF AND MUL OR SWAP1 SSTORE POP POP JUMP JUMPDEST PUSH1 0xA SLOAD PUSH1 0x1 PUSH1 0x1 PUSH1 0xA0 SHL SUB PUSH2 0x100 SWAP1 SWAP2 DIV AND CALLER EQ PUSH2 0x26CD JUMPI PUSH1 0x40 MLOAD PUSH3 0x461BCD PUSH1 0xE5 SHL DUP2 MSTORE PUSH1 0x4 ADD PUSH2 0xB73 SWAP1 PUSH2 0x3930 JUMP JUMPDEST PUSH1 0x1 PUSH1 0x1 PUSH1 0xA0 SHL SUB DUP2 AND PUSH2 0x2732 JUMPI PUSH1 0x40 MLOAD PUSH3 0x461BCD PUSH1 0xE5 SHL DUP2 MSTORE PUSH1 0x20 PUSH1 0x4 DUP3 ADD MSTORE PUSH1 0x26 PUSH1 0x24 DUP3 ADD MSTORE PUSH32 0x4F776E61626C653A206E6577206F776E657220697320746865207A65726F2061 PUSH1 0x44 DUP3 ADD MSTORE PUSH6 0x646472657373 PUSH1 0xD0 SHL PUSH1 0x64 DUP3 ADD MSTORE PUSH1 0x84 ADD PUSH2 0xB73 JUMP JUMPDEST PUSH2 0x273B DUP2 PUSH2 0x2B41 JUMP JUMPDEST POP JUMP JUMPDEST DUP1 SLOAD PUSH1 0x1 ADD SWAP1 SSTORE JUMP JUMPDEST PUSH1 0x0 PUSH1 0x1 PUSH1 0x1 PUSH1 0xE0 SHL SUB NOT DUP3 AND PUSH4 0x780E9D63 PUSH1 0xE0 SHL EQ DUP1 PUSH2 0xA66 JUMPI POP PUSH2 0xA66 DUP3 PUSH2 0x2DF3 JUMP JUMPDEST PUSH1 0x0 DUP2 DUP2 MSTORE PUSH1 0x4 PUSH1 0x20 MSTORE PUSH1 0x40 SWAP1 KECCAK256 DUP1 SLOAD PUSH1 0x1 PUSH1 0x1 PUSH1 0xA0 SHL SUB NOT AND PUSH1 0x1 PUSH1 0x1 PUSH1 0xA0 SHL SUB DUP5 AND SWAP1 DUP2 OR SWAP1 SWAP2 SSTORE DUP2 SWAP1 PUSH2 0x27A1 DUP3 PUSH2 0x159B JUMP JUMPDEST PUSH1 0x1 PUSH1 0x1 PUSH1 0xA0 SHL SUB AND PUSH32 0x8C5BE1E5EBEC7D5BD14F71427D1E84F3DD0314C0F7B2291E5B200AC8C7C3B925 PUSH1 0x40 MLOAD PUSH1 0x40 MLOAD DUP1 SWAP2 SUB SWAP1 LOG4 POP POP JUMP JUMPDEST PUSH1 0x0 DUP2 DUP2 MSTORE PUSH1 0x2 PUSH1 0x20 MSTORE PUSH1 0x40 DUP2 KECCAK256 SLOAD PUSH1 0x1 PUSH1 0x1 PUSH1 0xA0 SHL SUB AND PUSH2 0x2853 JUMPI PUSH1 0x40 MLOAD PUSH3 0x461BCD PUSH1 0xE5 SHL DUP2 MSTORE PUSH1 0x20 PUSH1 0x4 DUP3 ADD MSTORE PUSH1 0x2C PUSH1 0x24 DUP3 ADD MSTORE PUSH32 0x4552433732313A206F70657261746F7220717565727920666F72206E6F6E6578 PUSH1 0x44 DUP3 ADD MSTORE PUSH12 0x34B9BA32B73A103A37B5B2B7 PUSH1 0xA1 SHL PUSH1 0x64 DUP3 ADD MSTORE PUSH1 0x84 ADD PUSH2 0xB73 JUMP JUMPDEST PUSH1 0x0 PUSH2 0x285E DUP4 PUSH2 0x159B JUMP JUMPDEST SWAP1 POP DUP1 PUSH1 0x1 PUSH1 0x1 PUSH1 0xA0 SHL SUB AND DUP5 PUSH1 0x1 PUSH1 0x1 PUSH1 0xA0 SHL SUB AND EQ DUP1 PUSH2 0x2899 JUMPI POP DUP4 PUSH1 0x1 PUSH1 0x1 PUSH1 0xA0 SHL SUB AND PUSH2 0x288E DUP5 PUSH2 0xAFE JUMP JUMPDEST PUSH1 0x1 PUSH1 0x1 PUSH1 0xA0 SHL SUB AND EQ JUMPDEST DUP1 PUSH2 0x28C9 JUMPI POP PUSH1 0x1 PUSH1 0x1 PUSH1 0xA0 SHL SUB DUP1 DUP3 AND PUSH1 0x0 SWAP1 DUP2 MSTORE PUSH1 0x5 PUSH1 0x20 SWAP1 DUP2 MSTORE PUSH1 0x40 DUP1 DUP4 KECCAK256 SWAP4 DUP9 AND DUP4 MSTORE SWAP3 SWAP1 MSTORE KECCAK256 SLOAD PUSH1 0xFF AND JUMPDEST SWAP5 SWAP4 POP POP POP POP JUMP JUMPDEST DUP3 PUSH1 0x1 PUSH1 0x1 PUSH1 0xA0 SHL SUB AND PUSH2 0x28E4 DUP3 PUSH2 0x159B JUMP JUMPDEST PUSH1 0x1 PUSH1 0x1 PUSH1 0xA0 SHL SUB AND EQ PUSH2 0x294C JUMPI PUSH1 0x40 MLOAD PUSH3 0x461BCD PUSH1 0xE5 SHL DUP2 MSTORE PUSH1 0x20 PUSH1 0x4 DUP3 ADD MSTORE PUSH1 0x29 PUSH1 0x24 DUP3 ADD MSTORE PUSH32 0x4552433732313A207472616E73666572206F6620746F6B656E20746861742069 PUSH1 0x44 DUP3 ADD MSTORE PUSH9 0x39903737BA1037BBB7 PUSH1 0xB9 SHL PUSH1 0x64 DUP3 ADD MSTORE PUSH1 0x84 ADD PUSH2 0xB73 JUMP JUMPDEST PUSH1 0x1 PUSH1 0x1 PUSH1 0xA0 SHL SUB DUP3 AND PUSH2 0x29AE JUMPI PUSH1 0x40 MLOAD PUSH3 0x461BCD PUSH1 0xE5 SHL DUP2 MSTORE PUSH1 0x20 PUSH1 0x4 DUP3 ADD MSTORE PUSH1 0x24 DUP1 DUP3 ADD MSTORE PUSH32 0x4552433732313A207472616E7366657220746F20746865207A65726F20616464 PUSH1 0x44 DUP3 ADD MSTORE PUSH4 0x72657373 PUSH1 0xE0 SHL PUSH1 0x64 DUP3 ADD MSTORE PUSH1 0x84 ADD PUSH2 0xB73 JUMP JUMPDEST PUSH2 0x29B9 DUP4 DUP4 DUP4 PUSH2 0x2E43 JUMP JUMPDEST PUSH2 0x29C4 PUSH1 0x0 DUP3 PUSH2 0x276C JUMP JUMPDEST PUSH1 0x1 PUSH1 0x1 PUSH1 0xA0 SHL SUB DUP4 AND PUSH1 0x0 SWAP1 DUP2 MSTORE PUSH1 0x3 PUSH1 0x20 MSTORE PUSH1 0x40 DUP2 KECCAK256 DUP1 SLOAD PUSH1 0x1 SWAP3 SWAP1 PUSH2 0x29ED SWAP1 DUP5 SWAP1 PUSH2 0x397B JUMP JUMPDEST SWAP1 SWAP2 SSTORE POP POP PUSH1 0x1 PUSH1 0x1 PUSH1 0xA0 SHL SUB DUP3 AND PUSH1 0x0 SWAP1 DUP2 MSTORE PUSH1 0x3 PUSH1 0x20 MSTORE PUSH1 0x40 DUP2 KECCAK256 DUP1 SLOAD PUSH1 0x1 SWAP3 SWAP1 PUSH2 0x2A1B SWAP1 DUP5 SWAP1 PUSH2 0x3AC3 JUMP JUMPDEST SWAP1 SWAP2 SSTORE POP POP PUSH1 0x0 DUP2 DUP2 MSTORE PUSH1 0x2 PUSH1 0x20 MSTORE PUSH1 0x40 DUP1 DUP3 KECCAK256 DUP1 SLOAD PUSH1 0x1 PUSH1 0x1 PUSH1 0xA0 SHL SUB NOT AND PUSH1 0x1 PUSH1 0x1 PUSH1 0xA0 SHL SUB DUP7 DUP2 AND SWAP2 DUP3 OR SWAP1 SWAP3 SSTORE SWAP2 MLOAD DUP5 SWAP4 SWAP2 DUP8 AND SWAP2 PUSH32 0xDDF252AD1BE2C89B69C2B068FC378DAA952BA7F163C4A11628F55A4DF523B3EF SWAP2 LOG4 POP POP POP JUMP JUMPDEST PUSH1 0x0 PUSH2 0x2355 DUP3 DUP5 PUSH2 0x3BDF JUMP JUMPDEST PUSH1 0x0 PUSH2 0x2355 DUP3 DUP5 PUSH2 0x3C14 JUMP JUMPDEST PUSH1 0xA SLOAD PUSH1 0xFF AND PUSH2 0x2ADD JUMPI PUSH1 0x40 MLOAD PUSH3 0x461BCD PUSH1 0xE5 SHL DUP2 MSTORE PUSH1 0x20 PUSH1 0x4 DUP3 ADD MSTORE PUSH1 0x14 PUSH1 0x24 DUP3 ADD MSTORE PUSH20 0x14185D5CD8589B194E881B9BDD081C185D5CD959 PUSH1 0x62 SHL PUSH1 0x44 DUP3 ADD MSTORE PUSH1 0x64 ADD PUSH2 0xB73 JUMP JUMPDEST PUSH1 0xA DUP1 SLOAD PUSH1 0xFF NOT AND SWAP1 SSTORE PUSH32 0x5DB9EE0A495BF2E6FF9C91A7834C1BA4FDD244A5E8AA4E537BD38AEAE4B073AA CALLER JUMPDEST PUSH1 0x40 MLOAD PUSH1 0x1 PUSH1 0x1 PUSH1 0xA0 SHL SUB SWAP1 SWAP2 AND DUP2 MSTORE PUSH1 0x20 ADD PUSH1 0x40 MLOAD DUP1 SWAP2 SUB SWAP1 LOG1 JUMP JUMPDEST PUSH2 0xD49 DUP3 DUP3 PUSH1 0x40 MLOAD DUP1 PUSH1 0x20 ADD PUSH1 0x40 MSTORE DUP1 PUSH1 0x0 DUP2 MSTORE POP PUSH2 0x2E71 JUMP JUMPDEST PUSH1 0xA DUP1 SLOAD PUSH1 0x1 PUSH1 0x1 PUSH1 0xA0 SHL SUB DUP4 DUP2 AND PUSH2 0x100 DUP2 DUP2 MUL PUSH2 0x100 PUSH1 0x1 PUSH1 0xA8 SHL SUB NOT DUP6 AND OR SWAP1 SWAP5 SSTORE PUSH1 0x40 MLOAD SWAP4 SWAP1 SWAP3 DIV AND SWAP2 DUP3 SWAP1 PUSH32 0x8BE0079C531659141344CD1FD0A4F28419497F9722A3DAAFE3B4186F6B6457E0 SWAP1 PUSH1 0x0 SWAP1 LOG3 POP POP JUMP JUMPDEST PUSH1 0xA SLOAD PUSH1 0xFF AND ISZERO PUSH2 0x2BBE JUMPI PUSH1 0x40 MLOAD PUSH3 0x461BCD PUSH1 0xE5 SHL DUP2 MSTORE PUSH1 0x4 ADD PUSH2 0xB73 SWAP1 PUSH2 0x3A99 JUMP JUMPDEST PUSH1 0xA DUP1 SLOAD PUSH1 0xFF NOT AND PUSH1 0x1 OR SWAP1 SSTORE PUSH32 0x62E78CEA01BEE320CD4E420270B5EA74000D11B0C9F74754EBDBFC544B05A258 PUSH2 0x2B0A CALLER SWAP1 JUMP JUMPDEST DUP2 PUSH1 0x1 PUSH1 0x1 PUSH1 0xA0 SHL SUB AND DUP4 PUSH1 0x1 PUSH1 0x1 PUSH1 0xA0 SHL SUB AND EQ ISZERO PUSH2 0x2C55 JUMPI PUSH1 0x40 MLOAD PUSH3 0x461BCD PUSH1 0xE5 SHL DUP2 MSTORE PUSH1 0x20 PUSH1 0x4 DUP3 ADD MSTORE PUSH1 0x19 PUSH1 0x24 DUP3 ADD MSTORE PUSH32 0x4552433732313A20617070726F766520746F2063616C6C657200000000000000 PUSH1 0x44 DUP3 ADD MSTORE PUSH1 0x64 ADD PUSH2 0xB73 JUMP JUMPDEST PUSH1 0x1 PUSH1 0x1 PUSH1 0xA0 SHL SUB DUP4 DUP2 AND PUSH1 0x0 DUP2 DUP2 MSTORE PUSH1 0x5 PUSH1 0x20 SWAP1 DUP2 MSTORE PUSH1 0x40 DUP1 DUP4 KECCAK256 SWAP5 DUP8 AND DUP1 DUP5 MSTORE SWAP5 DUP3 MSTORE SWAP2 DUP3 SWAP1 KECCAK256 DUP1 SLOAD PUSH1 0xFF NOT AND DUP7 ISZERO ISZERO SWAP1 DUP2 OR SWAP1 SWAP2 SSTORE SWAP2 MLOAD SWAP2 DUP3 MSTORE PUSH32 0x17307EAB39AB6107E8899845AD3D59BD9653F200F220920489CA2B5937696C31 SWAP2 ADD PUSH1 0x40 MLOAD DUP1 SWAP2 SUB SWAP1 LOG3 POP POP POP JUMP JUMPDEST PUSH2 0x2CCD DUP5 DUP5 DUP5 PUSH2 0x28D1 JUMP JUMPDEST PUSH2 0x2CD9 DUP5 DUP5 DUP5 DUP5 PUSH2 0x2EA4 JUMP JUMPDEST PUSH2 0x21DB JUMPI PUSH1 0x40 MLOAD PUSH3 0x461BCD PUSH1 0xE5 SHL DUP2 MSTORE PUSH1 0x4 ADD PUSH2 0xB73 SWAP1 PUSH2 0x3C28 JUMP JUMPDEST PUSH1 0x60 DUP2 PUSH2 0x2D19 JUMPI POP POP PUSH1 0x40 DUP1 MLOAD DUP1 DUP3 ADD SWAP1 SWAP2 MSTORE PUSH1 0x1 DUP2 MSTORE PUSH1 0x3 PUSH1 0xFC SHL PUSH1 0x20 DUP3 ADD MSTORE SWAP1 JUMP JUMPDEST DUP2 PUSH1 0x0 JUMPDEST DUP2 ISZERO PUSH2 0x2D43 JUMPI DUP1 PUSH2 0x2D2D DUP2 PUSH2 0x39A8 JUMP JUMPDEST SWAP2 POP PUSH2 0x2D3C SWAP1 POP PUSH1 0xA DUP4 PUSH2 0x3C14 JUMP JUMPDEST SWAP2 POP PUSH2 0x2D1D JUMP JUMPDEST PUSH1 0x0 DUP2 PUSH8 0xFFFFFFFFFFFFFFFF DUP2 GT ISZERO PUSH2 0x2D5E JUMPI PUSH2 0x2D5E PUSH2 0x34E9 JUMP JUMPDEST PUSH1 0x40 MLOAD SWAP1 DUP1 DUP3 MSTORE DUP1 PUSH1 0x1F ADD PUSH1 0x1F NOT AND PUSH1 0x20 ADD DUP3 ADD PUSH1 0x40 MSTORE DUP1 ISZERO PUSH2 0x2D88 JUMPI PUSH1 0x20 DUP3 ADD DUP2 DUP1 CALLDATASIZE DUP4 CALLDATACOPY ADD SWAP1 POP JUMPDEST POP SWAP1 POP JUMPDEST DUP5 ISZERO PUSH2 0x28C9 JUMPI PUSH2 0x2D9D PUSH1 0x1 DUP4 PUSH2 0x397B JUMP JUMPDEST SWAP2 POP PUSH2 0x2DAA PUSH1 0xA DUP7 PUSH2 0x3C7A JUMP JUMPDEST PUSH2 0x2DB5 SWAP1 PUSH1 0x30 PUSH2 0x3AC3 JUMP JUMPDEST PUSH1 0xF8 SHL DUP2 DUP4 DUP2 MLOAD DUP2 LT PUSH2 0x2DCA JUMPI PUSH2 0x2DCA PUSH2 0x3992 JUMP JUMPDEST PUSH1 0x20 ADD ADD SWAP1 PUSH1 0x1 PUSH1 0x1 PUSH1 0xF8 SHL SUB NOT AND SWAP1 DUP2 PUSH1 0x0 BYTE SWAP1 MSTORE8 POP PUSH2 0x2DEC PUSH1 0xA DUP7 PUSH2 0x3C14 JUMP JUMPDEST SWAP5 POP PUSH2 0x2D8C JUMP JUMPDEST PUSH1 0x0 PUSH1 0x1 PUSH1 0x1 PUSH1 0xE0 SHL SUB NOT DUP3 AND PUSH4 0x80AC58CD PUSH1 0xE0 SHL EQ DUP1 PUSH2 0x2E24 JUMPI POP PUSH1 0x1 PUSH1 0x1 PUSH1 0xE0 SHL SUB NOT DUP3 AND PUSH4 0x5B5E139F PUSH1 0xE0 SHL EQ JUMPDEST DUP1 PUSH2 0xA66 JUMPI POP PUSH4 0x1FFC9A7 PUSH1 0xE0 SHL PUSH1 0x1 PUSH1 0x1 PUSH1 0xE0 SHL SUB NOT DUP4 AND EQ PUSH2 0xA66 JUMP JUMPDEST PUSH1 0xA SLOAD PUSH1 0xFF AND ISZERO PUSH2 0x2E66 JUMPI PUSH1 0x40 MLOAD PUSH3 0x461BCD PUSH1 0xE5 SHL DUP2 MSTORE PUSH1 0x4 ADD PUSH2 0xB73 SWAP1 PUSH2 0x3A99 JUMP JUMPDEST PUSH2 0xCA9 DUP4 DUP4 DUP4 PUSH2 0x2FA2 JUMP JUMPDEST PUSH2 0x2E7B DUP4 DUP4 PUSH2 0x305A JUMP JUMPDEST PUSH2 0x2E88 PUSH1 0x0 DUP5 DUP5 DUP5 PUSH2 0x2EA4 JUMP JUMPDEST PUSH2 0xCA9 JUMPI PUSH1 0x40 MLOAD PUSH3 0x461BCD PUSH1 0xE5 SHL DUP2 MSTORE PUSH1 0x4 ADD PUSH2 0xB73 SWAP1 PUSH2 0x3C28 JUMP JUMPDEST PUSH1 0x0 PUSH1 0x1 PUSH1 0x1 PUSH1 0xA0 SHL SUB DUP5 AND EXTCODESIZE ISZERO PUSH2 0x2F97 JUMPI PUSH1 0x40 MLOAD PUSH4 0xA85BD01 PUSH1 0xE1 SHL DUP2 MSTORE PUSH1 0x1 PUSH1 0x1 PUSH1 0xA0 SHL SUB DUP6 AND SWAP1 PUSH4 0x150B7A02 SWAP1 PUSH2 0x2EE8 SWAP1 CALLER SWAP1 DUP10 SWAP1 DUP9 SWAP1 DUP9 SWAP1 PUSH1 0x4 ADD PUSH2 0x3C8E JUMP JUMPDEST PUSH1 0x20 PUSH1 0x40 MLOAD DUP1 DUP4 SUB DUP2 PUSH1 0x0 DUP8 GAS CALL SWAP3 POP POP POP DUP1 ISZERO PUSH2 0x2F23 JUMPI POP PUSH1 0x40 DUP1 MLOAD PUSH1 0x1F RETURNDATASIZE SWAP1 DUP2 ADD PUSH1 0x1F NOT AND DUP3 ADD SWAP1 SWAP3 MSTORE PUSH2 0x2F20 SWAP2 DUP2 ADD SWAP1 PUSH2 0x3CCB JUMP JUMPDEST PUSH1 0x1 JUMPDEST PUSH2 0x2F7D JUMPI RETURNDATASIZE DUP1 DUP1 ISZERO PUSH2 0x2F51 JUMPI PUSH1 0x40 MLOAD SWAP2 POP PUSH1 0x1F NOT PUSH1 0x3F RETURNDATASIZE ADD AND DUP3 ADD PUSH1 0x40 MSTORE RETURNDATASIZE DUP3 MSTORE RETURNDATASIZE PUSH1 0x0 PUSH1 0x20 DUP5 ADD RETURNDATACOPY PUSH2 0x2F56 JUMP JUMPDEST PUSH1 0x60 SWAP2 POP JUMPDEST POP DUP1 MLOAD PUSH2 0x2F75 JUMPI PUSH1 0x40 MLOAD PUSH3 0x461BCD PUSH1 0xE5 SHL DUP2 MSTORE PUSH1 0x4 ADD PUSH2 0xB73 SWAP1 PUSH2 0x3C28 JUMP JUMPDEST DUP1 MLOAD DUP2 PUSH1 0x20 ADD REVERT JUMPDEST PUSH1 0x1 PUSH1 0x1 PUSH1 0xE0 SHL SUB NOT AND PUSH4 0xA85BD01 PUSH1 0xE1 SHL EQ SWAP1 POP PUSH2 0x28C9 JUMP JUMPDEST POP PUSH1 0x1 SWAP5 SWAP4 POP POP POP POP JUMP JUMPDEST PUSH1 0x1 PUSH1 0x1 PUSH1 0xA0 SHL SUB DUP4 AND PUSH2 0x2FFD JUMPI PUSH2 0x2FF8 DUP2 PUSH1 0x8 DUP1 SLOAD PUSH1 0x0 DUP4 DUP2 MSTORE PUSH1 0x9 PUSH1 0x20 MSTORE PUSH1 0x40 DUP2 KECCAK256 DUP3 SWAP1 SSTORE PUSH1 0x1 DUP3 ADD DUP4 SSTORE SWAP2 SWAP1 SWAP2 MSTORE PUSH32 0xF3F7A9FE364FAAB93B216DA50A3214154F22A0A2B415B23A84C8169E8B636EE3 ADD SSTORE JUMP JUMPDEST PUSH2 0x3020 JUMP JUMPDEST DUP2 PUSH1 0x1 PUSH1 0x1 PUSH1 0xA0 SHL SUB AND DUP4 PUSH1 0x1 PUSH1 0x1 PUSH1 0xA0 SHL SUB AND EQ PUSH2 0x3020 JUMPI PUSH2 0x3020 DUP4 DUP3 PUSH2 0x31A8 JUMP JUMPDEST PUSH1 0x1 PUSH1 0x1 PUSH1 0xA0 SHL SUB DUP3 AND PUSH2 0x3037 JUMPI PUSH2 0xCA9 DUP2 PUSH2 0x3245 JUMP JUMPDEST DUP3 PUSH1 0x1 PUSH1 0x1 PUSH1 0xA0 SHL SUB AND DUP3 PUSH1 0x1 PUSH1 0x1 PUSH1 0xA0 SHL SUB AND EQ PUSH2 0xCA9 JUMPI PUSH2 0xCA9 DUP3 DUP3 PUSH2 0x32F4 JUMP JUMPDEST PUSH1 0x1 PUSH1 0x1 PUSH1 0xA0 SHL SUB DUP3 AND PUSH2 0x30B0 JUMPI PUSH1 0x40 MLOAD PUSH3 0x461BCD PUSH1 0xE5 SHL DUP2 MSTORE PUSH1 0x20 PUSH1 0x4 DUP3 ADD DUP2 SWAP1 MSTORE PUSH1 0x24 DUP3 ADD MSTORE PUSH32 0x4552433732313A206D696E7420746F20746865207A65726F2061646472657373 PUSH1 0x44 DUP3 ADD MSTORE PUSH1 0x64 ADD PUSH2 0xB73 JUMP JUMPDEST PUSH1 0x0 DUP2 DUP2 MSTORE PUSH1 0x2 PUSH1 0x20 MSTORE PUSH1 0x40 SWAP1 KECCAK256 SLOAD PUSH1 0x1 PUSH1 0x1 PUSH1 0xA0 SHL SUB AND ISZERO PUSH2 0x3115 JUMPI PUSH1 0x40 MLOAD PUSH3 0x461BCD PUSH1 0xE5 SHL DUP2 MSTORE PUSH1 0x20 PUSH1 0x4 DUP3 ADD MSTORE PUSH1 0x1C PUSH1 0x24 DUP3 ADD MSTORE PUSH32 0x4552433732313A20746F6B656E20616C7265616479206D696E74656400000000 PUSH1 0x44 DUP3 ADD MSTORE PUSH1 0x64 ADD PUSH2 0xB73 JUMP JUMPDEST PUSH2 0x3121 PUSH1 0x0 DUP4 DUP4 PUSH2 0x2E43 JUMP JUMPDEST PUSH1 0x1 PUSH1 0x1 PUSH1 0xA0 SHL SUB DUP3 AND PUSH1 0x0 SWAP1 DUP2 MSTORE PUSH1 0x3 PUSH1 0x20 MSTORE PUSH1 0x40 DUP2 KECCAK256 DUP1 SLOAD PUSH1 0x1 SWAP3 SWAP1 PUSH2 0x314A SWAP1 DUP5 SWAP1 PUSH2 0x3AC3 JUMP JUMPDEST SWAP1 SWAP2 SSTORE POP POP PUSH1 0x0 DUP2 DUP2 MSTORE PUSH1 0x2 PUSH1 0x20 MSTORE PUSH1 0x40 DUP1 DUP3 KECCAK256 DUP1 SLOAD PUSH1 0x1 PUSH1 0x1 PUSH1 0xA0 SHL SUB NOT AND PUSH1 0x1 PUSH1 0x1 PUSH1 0xA0 SHL SUB DUP7 AND SWAP1 DUP2 OR SWAP1 SWAP2 SSTORE SWAP1 MLOAD DUP4 SWAP3 SWAP1 PUSH32 0xDDF252AD1BE2C89B69C2B068FC378DAA952BA7F163C4A11628F55A4DF523B3EF SWAP1 DUP3 SWAP1 LOG4 POP POP JUMP JUMPDEST PUSH1 0x0 PUSH1 0x1 PUSH2 0x31B5 DUP5 PUSH2 0x1E49 JUMP JUMPDEST PUSH2 0x31BF SWAP2 SWAP1 PUSH2 0x397B JUMP JUMPDEST PUSH1 0x0 DUP4 DUP2 MSTORE PUSH1 0x7 PUSH1 0x20 MSTORE PUSH1 0x40 SWAP1 KECCAK256 SLOAD SWAP1 SWAP2 POP DUP1 DUP3 EQ PUSH2 0x3212 JUMPI PUSH1 0x1 PUSH1 0x1 PUSH1 0xA0 SHL SUB DUP5 AND PUSH1 0x0 SWAP1 DUP2 MSTORE PUSH1 0x6 PUSH1 0x20 SWAP1 DUP2 MSTORE PUSH1 0x40 DUP1 DUP4 KECCAK256 DUP6 DUP5 MSTORE DUP3 MSTORE DUP1 DUP4 KECCAK256 SLOAD DUP5 DUP5 MSTORE DUP2 DUP5 KECCAK256 DUP2 SWAP1 SSTORE DUP4 MSTORE PUSH1 0x7 SWAP1 SWAP2 MSTORE SWAP1 KECCAK256 DUP2 SWAP1 SSTORE JUMPDEST POP PUSH1 0x0 SWAP2 DUP3 MSTORE PUSH1 0x7 PUSH1 0x20 SWAP1 DUP2 MSTORE PUSH1 0x40 DUP1 DUP5 KECCAK256 DUP5 SWAP1 SSTORE PUSH1 0x1 PUSH1 0x1 PUSH1 0xA0 SHL SUB SWAP1 SWAP5 AND DUP4 MSTORE PUSH1 0x6 DUP2 MSTORE DUP4 DUP4 KECCAK256 SWAP2 DUP4 MSTORE MSTORE SWAP1 DUP2 KECCAK256 SSTORE JUMP JUMPDEST PUSH1 0x8 SLOAD PUSH1 0x0 SWAP1 PUSH2 0x3257 SWAP1 PUSH1 0x1 SWAP1 PUSH2 0x397B JUMP JUMPDEST PUSH1 0x0 DUP4 DUP2 MSTORE PUSH1 0x9 PUSH1 0x20 MSTORE PUSH1 0x40 DUP2 KECCAK256 SLOAD PUSH1 0x8 DUP1 SLOAD SWAP4 SWAP5 POP SWAP1 SWAP3 DUP5 SWAP1 DUP2 LT PUSH2 0x327F JUMPI PUSH2 0x327F PUSH2 0x3992 JUMP JUMPDEST SWAP1 PUSH1 0x0 MSTORE PUSH1 0x20 PUSH1 0x0 KECCAK256 ADD SLOAD SWAP1 POP DUP1 PUSH1 0x8 DUP4 DUP2 SLOAD DUP2 LT PUSH2 0x32A0 JUMPI PUSH2 0x32A0 PUSH2 0x3992 JUMP JUMPDEST PUSH1 0x0 SWAP2 DUP3 MSTORE PUSH1 0x20 DUP1 DUP4 KECCAK256 SWAP1 SWAP2 ADD SWAP3 SWAP1 SWAP3 SSTORE DUP3 DUP2 MSTORE PUSH1 0x9 SWAP1 SWAP2 MSTORE PUSH1 0x40 DUP1 DUP3 KECCAK256 DUP5 SWAP1 SSTORE DUP6 DUP3 MSTORE DUP2 KECCAK256 SSTORE PUSH1 0x8 DUP1 SLOAD DUP1 PUSH2 0x32D8 JUMPI PUSH2 0x32D8 PUSH2 0x3CE8 JUMP JUMPDEST PUSH1 0x1 SWAP1 SUB DUP2 DUP2 SWAP1 PUSH1 0x0 MSTORE PUSH1 0x20 PUSH1 0x0 KECCAK256 ADD PUSH1 0x0 SWAP1 SSTORE SWAP1 SSTORE POP POP POP POP JUMP JUMPDEST PUSH1 0x0 PUSH2 0x32FF DUP4 PUSH2 0x1E49 JUMP JUMPDEST PUSH1 0x1 PUSH1 0x1 PUSH1 0xA0 SHL SUB SWAP1 SWAP4 AND PUSH1 0x0 SWAP1 DUP2 MSTORE PUSH1 0x6 PUSH1 0x20 SWAP1 DUP2 MSTORE PUSH1 0x40 DUP1 DUP4 KECCAK256 DUP7 DUP5 MSTORE DUP3 MSTORE DUP1 DUP4 KECCAK256 DUP6 SWAP1 SSTORE SWAP4 DUP3 MSTORE PUSH1 0x7 SWAP1 MSTORE SWAP2 SWAP1 SWAP2 KECCAK256 SWAP2 SWAP1 SWAP2 SSTORE POP JUMP JUMPDEST DUP3 DUP1 SLOAD PUSH2 0x3344 SWAP1 PUSH2 0x38F5 JUMP JUMPDEST SWAP1 PUSH1 0x0 MSTORE PUSH1 0x20 PUSH1 0x0 KECCAK256 SWAP1 PUSH1 0x1F ADD PUSH1 0x20 SWAP1 DIV DUP2 ADD SWAP3 DUP3 PUSH2 0x3366 JUMPI PUSH1 0x0 DUP6 SSTORE PUSH2 0x33AC JUMP JUMPDEST DUP3 PUSH1 0x1F LT PUSH2 0x337F JUMPI DUP1 MLOAD PUSH1 0xFF NOT AND DUP4 DUP1 ADD OR DUP6 SSTORE PUSH2 0x33AC JUMP JUMPDEST DUP3 DUP1 ADD PUSH1 0x1 ADD DUP6 SSTORE DUP3 ISZERO PUSH2 0x33AC JUMPI SWAP2 DUP3 ADD JUMPDEST DUP3 DUP2 GT ISZERO PUSH2 0x33AC JUMPI DUP3 MLOAD DUP3 SSTORE SWAP2 PUSH1 0x20 ADD SWAP2 SWAP1 PUSH1 0x1 ADD SWAP1 PUSH2 0x3391 JUMP JUMPDEST POP PUSH2 0x33B8 SWAP3 SWAP2 POP PUSH2 0x33BC JUMP JUMPDEST POP SWAP1 JUMP JUMPDEST JUMPDEST DUP1 DUP3 GT ISZERO PUSH2 0x33B8 JUMPI PUSH1 0x0 DUP2 SSTORE PUSH1 0x1 ADD PUSH2 0x33BD JUMP JUMPDEST PUSH1 0x1 PUSH1 0x1 PUSH1 0xE0 SHL SUB NOT DUP2 AND DUP2 EQ PUSH2 0x273B JUMPI PUSH1 0x0 DUP1 REVERT JUMPDEST PUSH1 0x0 PUSH1 0x20 DUP3 DUP5 SUB SLT ISZERO PUSH2 0x33F9 JUMPI PUSH1 0x0 DUP1 REVERT JUMPDEST DUP2 CALLDATALOAD PUSH2 0x2355 DUP2 PUSH2 0x33D1 JUMP JUMPDEST PUSH1 0x0 JUMPDEST DUP4 DUP2 LT ISZERO PUSH2 0x341F JUMPI DUP2 DUP2 ADD MLOAD DUP4 DUP3 ADD MSTORE PUSH1 0x20 ADD PUSH2 0x3407 JUMP JUMPDEST DUP4 DUP2 GT ISZERO PUSH2 0x21DB JUMPI POP POP PUSH1 0x0 SWAP2 ADD MSTORE JUMP JUMPDEST PUSH1 0x0 DUP2 MLOAD DUP1 DUP5 MSTORE PUSH2 0x3448 DUP2 PUSH1 0x20 DUP7 ADD PUSH1 0x20 DUP7 ADD PUSH2 0x3404 JUMP JUMPDEST PUSH1 0x1F ADD PUSH1 0x1F NOT AND SWAP3 SWAP1 SWAP3 ADD PUSH1 0x20 ADD SWAP3 SWAP2 POP POP JUMP JUMPDEST PUSH1 0x20 DUP2 MSTORE PUSH1 0x0 PUSH2 0x2355 PUSH1 0x20 DUP4 ADD DUP5 PUSH2 0x3430 JUMP JUMPDEST PUSH1 0x0 PUSH1 0x20 DUP3 DUP5 SUB SLT ISZERO PUSH2 0x3481 JUMPI PUSH1 0x0 DUP1 REVERT JUMPDEST POP CALLDATALOAD SWAP2 SWAP1 POP JUMP JUMPDEST DUP1 CALLDATALOAD PUSH1 0x1 PUSH1 0x1 PUSH1 0xA0 SHL SUB DUP2 AND DUP2 EQ PUSH2 0x349F JUMPI PUSH1 0x0 DUP1 REVERT JUMPDEST SWAP2 SWAP1 POP JUMP JUMPDEST PUSH1 0x0 PUSH1 0x20 DUP3 DUP5 SUB SLT ISZERO PUSH2 0x34B6 JUMPI PUSH1 0x0 DUP1 REVERT JUMPDEST PUSH2 0x2355 DUP3 PUSH2 0x3488 JUMP JUMPDEST PUSH1 0x0 DUP1 PUSH1 0x40 DUP4 DUP6 SUB SLT ISZERO PUSH2 0x34D2 JUMPI PUSH1 0x0 DUP1 REVERT JUMPDEST PUSH2 0x34DB DUP4 PUSH2 0x3488 JUMP JUMPDEST SWAP5 PUSH1 0x20 SWAP4 SWAP1 SWAP4 ADD CALLDATALOAD SWAP4 POP POP POP JUMP JUMPDEST PUSH4 0x4E487B71 PUSH1 0xE0 SHL PUSH1 0x0 MSTORE PUSH1 0x41 PUSH1 0x4 MSTORE PUSH1 0x24 PUSH1 0x0 REVERT JUMPDEST PUSH1 0x40 MLOAD PUSH1 0x1F DUP3 ADD PUSH1 0x1F NOT AND DUP2 ADD PUSH8 0xFFFFFFFFFFFFFFFF DUP2 GT DUP3 DUP3 LT OR ISZERO PUSH2 0x3528 JUMPI PUSH2 0x3528 PUSH2 0x34E9 JUMP JUMPDEST PUSH1 0x40 MSTORE SWAP2 SWAP1 POP JUMP JUMPDEST PUSH1 0x0 PUSH8 0xFFFFFFFFFFFFFFFF DUP4 GT ISZERO PUSH2 0x354A JUMPI PUSH2 0x354A PUSH2 0x34E9 JUMP JUMPDEST PUSH2 0x355D PUSH1 0x1F DUP5 ADD PUSH1 0x1F NOT AND PUSH1 0x20 ADD PUSH2 0x34FF JUMP JUMPDEST SWAP1 POP DUP3 DUP2 MSTORE DUP4 DUP4 DUP4 ADD GT ISZERO PUSH2 0x3571 JUMPI PUSH1 0x0 DUP1 REVERT JUMPDEST DUP3 DUP3 PUSH1 0x20 DUP4 ADD CALLDATACOPY PUSH1 0x0 PUSH1 0x20 DUP5 DUP4 ADD ADD MSTORE SWAP4 SWAP3 POP POP POP JUMP JUMPDEST PUSH1 0x0 PUSH1 0x20 DUP3 DUP5 SUB SLT ISZERO PUSH2 0x359A JUMPI PUSH1 0x0 DUP1 REVERT JUMPDEST DUP2 CALLDATALOAD PUSH8 0xFFFFFFFFFFFFFFFF DUP2 GT ISZERO PUSH2 0x35B1 JUMPI PUSH1 0x0 DUP1 REVERT JUMPDEST DUP3 ADD PUSH1 0x1F DUP2 ADD DUP5 SGT PUSH2 0x35C2 JUMPI PUSH1 0x0 DUP1 REVERT JUMPDEST PUSH2 0x28C9 DUP5 DUP3 CALLDATALOAD PUSH1 0x20 DUP5 ADD PUSH2 0x3530 JUMP JUMPDEST PUSH1 0x0 PUSH8 0xFFFFFFFFFFFFFFFF DUP3 GT ISZERO PUSH2 0x35EB JUMPI PUSH2 0x35EB PUSH2 0x34E9 JUMP JUMPDEST POP PUSH1 0x5 SHL PUSH1 0x20 ADD SWAP1 JUMP JUMPDEST PUSH1 0x0 DUP3 PUSH1 0x1F DUP4 ADD SLT PUSH2 0x3606 JUMPI PUSH1 0x0 DUP1 REVERT JUMPDEST DUP2 CALLDATALOAD PUSH1 0x20 PUSH2 0x361B PUSH2 0x3616 DUP4 PUSH2 0x35D1 JUMP JUMPDEST PUSH2 0x34FF JUMP JUMPDEST DUP3 DUP2 MSTORE PUSH1 0x5 SWAP3 SWAP1 SWAP3 SHL DUP5 ADD DUP2 ADD SWAP2 DUP2 DUP2 ADD SWAP1 DUP7 DUP5 GT ISZERO PUSH2 0x363A JUMPI PUSH1 0x0 DUP1 REVERT JUMPDEST DUP3 DUP7 ADD JUMPDEST DUP5 DUP2 LT ISZERO PUSH2 0x365C JUMPI PUSH2 0x364F DUP2 PUSH2 0x3488 JUMP JUMPDEST DUP4 MSTORE SWAP2 DUP4 ADD SWAP2 DUP4 ADD PUSH2 0x363E JUMP JUMPDEST POP SWAP7 SWAP6 POP POP POP POP POP POP JUMP JUMPDEST PUSH1 0x0 PUSH1 0x20 DUP3 DUP5 SUB SLT ISZERO PUSH2 0x3679 JUMPI PUSH1 0x0 DUP1 REVERT JUMPDEST DUP2 CALLDATALOAD PUSH8 0xFFFFFFFFFFFFFFFF DUP2 GT ISZERO PUSH2 0x3690 JUMPI PUSH1 0x0 DUP1 REVERT JUMPDEST PUSH2 0x28C9 DUP5 DUP3 DUP6 ADD PUSH2 0x35F5 JUMP JUMPDEST PUSH1 0x0 DUP1 PUSH1 0x0 PUSH1 0x60 DUP5 DUP7 SUB SLT ISZERO PUSH2 0x36B1 JUMPI PUSH1 0x0 DUP1 REVERT JUMPDEST PUSH2 0x36BA DUP5 PUSH2 0x3488 JUMP JUMPDEST SWAP3 POP PUSH2 0x36C8 PUSH1 0x20 DUP6 ADD PUSH2 0x3488 JUMP JUMPDEST SWAP2 POP PUSH1 0x40 DUP5 ADD CALLDATALOAD SWAP1 POP SWAP3 POP SWAP3 POP SWAP3 JUMP JUMPDEST PUSH1 0x20 DUP1 DUP3 MSTORE DUP3 MLOAD DUP3 DUP3 ADD DUP2 SWAP1 MSTORE PUSH1 0x0 SWAP2 SWAP1 DUP5 DUP3 ADD SWAP1 PUSH1 0x40 DUP6 ADD SWAP1 DUP5 JUMPDEST DUP2 DUP2 LT ISZERO PUSH2 0x3710 JUMPI DUP4 MLOAD DUP4 MSTORE SWAP3 DUP5 ADD SWAP3 SWAP2 DUP5 ADD SWAP2 PUSH1 0x1 ADD PUSH2 0x36F4 JUMP JUMPDEST POP SWAP1 SWAP7 SWAP6 POP POP POP POP POP POP JUMP JUMPDEST DUP1 CALLDATALOAD PUSH1 0xFF DUP2 AND DUP2 EQ PUSH2 0x349F JUMPI PUSH1 0x0 DUP1 REVERT JUMPDEST PUSH1 0x0 PUSH1 0x20 DUP3 DUP5 SUB SLT ISZERO PUSH2 0x373F JUMPI PUSH1 0x0 DUP1 REVERT JUMPDEST PUSH2 0x2355 DUP3 PUSH2 0x371C JUMP JUMPDEST PUSH1 0x0 DUP1 PUSH1 0x40 DUP4 DUP6 SUB SLT ISZERO PUSH2 0x375B JUMPI PUSH1 0x0 DUP1 REVERT JUMPDEST DUP3 CALLDATALOAD PUSH8 0xFFFFFFFFFFFFFFFF DUP1 DUP3 GT ISZERO PUSH2 0x3773 JUMPI PUSH1 0x0 DUP1 REVERT JUMPDEST PUSH2 0x377F DUP7 DUP4 DUP8 ADD PUSH2 0x35F5 JUMP JUMPDEST SWAP4 POP PUSH1 0x20 SWAP2 POP DUP2 DUP6 ADD CALLDATALOAD DUP2 DUP2 GT ISZERO PUSH2 0x3796 JUMPI PUSH1 0x0 DUP1 REVERT JUMPDEST DUP6 ADD SWAP1 POP PUSH1 0x1F DUP2 ADD DUP7 SGT PUSH2 0x37A9 JUMPI PUSH1 0x0 DUP1 REVERT JUMPDEST DUP1 CALLDATALOAD PUSH2 0x37B7 PUSH2 0x3616 DUP3 PUSH2 0x35D1 JUMP JUMPDEST DUP2 DUP2 MSTORE PUSH1 0x5 SWAP2 SWAP1 SWAP2 SHL DUP3 ADD DUP4 ADD SWAP1 DUP4 DUP2 ADD SWAP1 DUP9 DUP4 GT ISZERO PUSH2 0x37D6 JUMPI PUSH1 0x0 DUP1 REVERT JUMPDEST SWAP3 DUP5 ADD SWAP3 JUMPDEST DUP3 DUP5 LT ISZERO PUSH2 0x37FB JUMPI PUSH2 0x37EC DUP5 PUSH2 0x371C JUMP JUMPDEST DUP3 MSTORE SWAP3 DUP5 ADD SWAP3 SWAP1 DUP5 ADD SWAP1 PUSH2 0x37DB JUMP JUMPDEST DUP1 SWAP6 POP POP POP POP POP POP SWAP3 POP SWAP3 SWAP1 POP JUMP JUMPDEST PUSH1 0x0 DUP1 PUSH1 0x40 DUP4 DUP6 SUB SLT ISZERO PUSH2 0x381D JUMPI PUSH1 0x0 DUP1 REVERT JUMPDEST PUSH2 0x3826 DUP4 PUSH2 0x3488 JUMP JUMPDEST SWAP2 POP PUSH1 0x20 DUP4 ADD CALLDATALOAD DUP1 ISZERO ISZERO DUP2 EQ PUSH2 0x383B JUMPI PUSH1 0x0 DUP1 REVERT JUMPDEST DUP1 SWAP2 POP POP SWAP3 POP SWAP3 SWAP1 POP JUMP JUMPDEST PUSH1 0x0 DUP1 PUSH1 0x0 DUP1 PUSH1 0x80 DUP6 DUP8 SUB SLT ISZERO PUSH2 0x385C JUMPI PUSH1 0x0 DUP1 REVERT JUMPDEST PUSH2 0x3865 DUP6 PUSH2 0x3488 JUMP JUMPDEST SWAP4 POP PUSH2 0x3873 PUSH1 0x20 DUP7 ADD PUSH2 0x3488 JUMP JUMPDEST SWAP3 POP PUSH1 0x40 DUP6 ADD CALLDATALOAD SWAP2 POP PUSH1 0x60 DUP6 ADD CALLDATALOAD PUSH8 0xFFFFFFFFFFFFFFFF DUP2 GT ISZERO PUSH2 0x3896 JUMPI PUSH1 0x0 DUP1 REVERT JUMPDEST DUP6 ADD PUSH1 0x1F DUP2 ADD DUP8 SGT PUSH2 0x38A7 JUMPI PUSH1 0x0 DUP1 REVERT JUMPDEST PUSH2 0x38B6 DUP8 DUP3 CALLDATALOAD PUSH1 0x20 DUP5 ADD PUSH2 0x3530 JUMP JUMPDEST SWAP2 POP POP SWAP3 SWAP6 SWAP2 SWAP5 POP SWAP3 POP JUMP JUMPDEST PUSH1 0x0 DUP1 PUSH1 0x40 DUP4 DUP6 SUB SLT ISZERO PUSH2 0x38D5 JUMPI PUSH1 0x0 DUP1 REVERT JUMPDEST PUSH2 0x38DE DUP4 PUSH2 0x3488 JUMP JUMPDEST SWAP2 POP PUSH2 0x38EC PUSH1 0x20 DUP5 ADD PUSH2 0x3488 JUMP JUMPDEST SWAP1 POP SWAP3 POP SWAP3 SWAP1 POP JUMP JUMPDEST PUSH1 0x1 DUP2 DUP2 SHR SWAP1 DUP3 AND DUP1 PUSH2 0x3909 JUMPI PUSH1 0x7F DUP3 AND SWAP2 POP JUMPDEST PUSH1 0x20 DUP3 LT DUP2 EQ ISZERO PUSH2 0x392A JUMPI PUSH4 0x4E487B71 PUSH1 0xE0 SHL PUSH1 0x0 MSTORE PUSH1 0x22 PUSH1 0x4 MSTORE PUSH1 0x24 PUSH1 0x0 REVERT JUMPDEST POP SWAP2 SWAP1 POP JUMP JUMPDEST PUSH1 0x20 DUP1 DUP3 MSTORE DUP2 DUP2 ADD MSTORE PUSH32 0x4F776E61626C653A2063616C6C6572206973206E6F7420746865206F776E6572 PUSH1 0x40 DUP3 ADD MSTORE PUSH1 0x60 ADD SWAP1 JUMP JUMPDEST PUSH4 0x4E487B71 PUSH1 0xE0 SHL PUSH1 0x0 MSTORE PUSH1 0x11 PUSH1 0x4 MSTORE PUSH1 0x24 PUSH1 0x0 REVERT JUMPDEST PUSH1 0x0 DUP3 DUP3 LT ISZERO PUSH2 0x398D JUMPI PUSH2 0x398D PUSH2 0x3965 JUMP JUMPDEST POP SUB SWAP1 JUMP JUMPDEST PUSH4 0x4E487B71 PUSH1 0xE0 SHL PUSH1 0x0 MSTORE PUSH1 0x32 PUSH1 0x4 MSTORE PUSH1 0x24 PUSH1 0x0 REVERT JUMPDEST PUSH1 0x0 PUSH1 0x0 NOT DUP3 EQ ISZERO PUSH2 0x39BC JUMPI PUSH2 0x39BC PUSH2 0x3965 JUMP JUMPDEST POP PUSH1 0x1 ADD SWAP1 JUMP JUMPDEST PUSH1 0x20 DUP1 DUP3 MSTORE PUSH1 0x31 SWAP1 DUP3 ADD MSTORE PUSH32 0x4552433732313A207472616E736665722063616C6C6572206973206E6F74206F PUSH1 0x40 DUP3 ADD MSTORE PUSH17 0x1DDB995C881B9BDC88185C1C1C9BDD9959 PUSH1 0x7A SHL PUSH1 0x60 DUP3 ADD MSTORE PUSH1 0x80 ADD SWAP1 JUMP JUMPDEST PUSH1 0x0 PUSH1 0x20 DUP1 DUP4 MSTORE PUSH1 0x0 DUP5 SLOAD PUSH2 0x3A28 DUP2 PUSH2 0x38F5 JUMP JUMPDEST DUP1 DUP5 DUP8 ADD MSTORE PUSH1 0x40 PUSH1 0x1 DUP1 DUP5 AND PUSH1 0x0 DUP2 EQ PUSH2 0x3A49 JUMPI PUSH1 0x1 DUP2 EQ PUSH2 0x3A5D JUMPI PUSH2 0x3A8B JUMP JUMPDEST PUSH1 0xFF NOT DUP6 AND DUP10 DUP5 ADD MSTORE PUSH1 0x60 DUP10 ADD SWAP6 POP PUSH2 0x3A8B JUMP JUMPDEST DUP10 PUSH1 0x0 MSTORE DUP7 PUSH1 0x0 KECCAK256 PUSH1 0x0 JUMPDEST DUP6 DUP2 LT ISZERO PUSH2 0x3A83 JUMPI DUP2 SLOAD DUP12 DUP3 ADD DUP7 ADD MSTORE SWAP1 DUP4 ADD SWAP1 DUP9 ADD PUSH2 0x3A68 JUMP JUMPDEST DUP11 ADD DUP5 ADD SWAP7 POP POP JUMPDEST POP SWAP4 SWAP9 SWAP8 POP POP POP POP POP POP POP POP JUMP JUMPDEST PUSH1 0x20 DUP1 DUP3 MSTORE PUSH1 0x10 SWAP1 DUP3 ADD MSTORE PUSH16 0x14185D5CD8589B194E881C185D5CD959 PUSH1 0x82 SHL PUSH1 0x40 DUP3 ADD MSTORE PUSH1 0x60 ADD SWAP1 JUMP JUMPDEST PUSH1 0x0 DUP3 NOT DUP3 GT ISZERO PUSH2 0x3AD6 JUMPI PUSH2 0x3AD6 PUSH2 0x3965 JUMP JUMPDEST POP ADD SWAP1 JUMP JUMPDEST PUSH1 0x0 PUSH1 0xFF DUP3 AND PUSH1 0xFF DUP5 AND DUP1 DUP3 LT ISZERO PUSH2 0x3AF5 JUMPI PUSH2 0x3AF5 PUSH2 0x3965 JUMP JUMPDEST SWAP1 SUB SWAP4 SWAP3 POP POP POP JUMP JUMPDEST PUSH1 0x0 PUSH1 0xFF DUP3 AND PUSH1 0xFF DUP5 AND DUP1 PUSH1 0xFF SUB DUP3 GT ISZERO PUSH2 0x3B1B JUMPI PUSH2 0x3B1B PUSH2 0x3965 JUMP JUMPDEST ADD SWAP4 SWAP3 POP POP POP JUMP JUMPDEST PUSH1 0x0 DUP5 MLOAD PUSH1 0x20 PUSH2 0x3B36 DUP3 DUP6 DUP4 DUP11 ADD PUSH2 0x3404 JUMP JUMPDEST DUP6 MLOAD SWAP2 DUP5 ADD SWAP2 PUSH2 0x3B49 DUP2 DUP5 DUP5 DUP11 ADD PUSH2 0x3404 JUMP JUMPDEST DUP6 SLOAD SWAP3 ADD SWAP2 PUSH1 0x0 SWAP1 PUSH2 0x3B5A DUP2 PUSH2 0x38F5 JUMP JUMPDEST PUSH1 0x1 DUP3 DUP2 AND DUP1 ISZERO PUSH2 0x3B72 JUMPI PUSH1 0x1 DUP2 EQ PUSH2 0x3B83 JUMPI PUSH2 0x3BAF JUMP JUMPDEST PUSH1 0xFF NOT DUP5 AND DUP8 MSTORE DUP3 DUP8 ADD SWAP5 POP PUSH2 0x3BAF JUMP JUMPDEST DUP10 PUSH1 0x0 MSTORE DUP6 PUSH1 0x0 KECCAK256 PUSH1 0x0 JUMPDEST DUP5 DUP2 LT ISZERO PUSH2 0x3BA7 JUMPI DUP2 SLOAD DUP10 DUP3 ADD MSTORE SWAP1 DUP4 ADD SWAP1 DUP8 ADD PUSH2 0x3B8E JUMP JUMPDEST POP POP DUP3 DUP8 ADD SWAP5 POP JUMPDEST POP SWAP3 SWAP11 SWAP10 POP POP POP POP POP POP POP POP POP POP JUMP JUMPDEST PUSH1 0x0 PUSH1 0xFF DUP3 AND PUSH1 0xFF DUP2 EQ ISZERO PUSH2 0x3BD6 JUMPI PUSH2 0x3BD6 PUSH2 0x3965 JUMP JUMPDEST PUSH1 0x1 ADD SWAP3 SWAP2 POP POP JUMP JUMPDEST PUSH1 0x0 DUP2 PUSH1 0x0 NOT DIV DUP4 GT DUP3 ISZERO ISZERO AND ISZERO PUSH2 0x3BF9 JUMPI PUSH2 0x3BF9 PUSH2 0x3965 JUMP JUMPDEST POP MUL SWAP1 JUMP JUMPDEST PUSH4 0x4E487B71 PUSH1 0xE0 SHL PUSH1 0x0 MSTORE PUSH1 0x12 PUSH1 0x4 MSTORE PUSH1 0x24 PUSH1 0x0 REVERT JUMPDEST PUSH1 0x0 DUP3 PUSH2 0x3C23 JUMPI PUSH2 0x3C23 PUSH2 0x3BFE JUMP JUMPDEST POP DIV SWAP1 JUMP JUMPDEST PUSH1 0x20 DUP1 DUP3 MSTORE PUSH1 0x32 SWAP1 DUP3 ADD MSTORE PUSH32 0x4552433732313A207472616E7366657220746F206E6F6E204552433732315265 PUSH1 0x40 DUP3 ADD MSTORE PUSH18 0x31B2B4BB32B91034B6B83632B6B2B73A32B9 PUSH1 0x71 SHL PUSH1 0x60 DUP3 ADD MSTORE PUSH1 0x80 ADD SWAP1 JUMP JUMPDEST PUSH1 0x0 DUP3 PUSH2 0x3C89 JUMPI PUSH2 0x3C89 PUSH2 0x3BFE JUMP JUMPDEST POP MOD SWAP1 JUMP JUMPDEST PUSH1 0x1 PUSH1 0x1 PUSH1 0xA0 SHL SUB DUP6 DUP2 AND DUP3 MSTORE DUP5 AND PUSH1 0x20 DUP3 ADD MSTORE PUSH1 0x40 DUP2 ADD DUP4 SWAP1 MSTORE PUSH1 0x80 PUSH1 0x60 DUP3 ADD DUP2 SWAP1 MSTORE PUSH1 0x0 SWAP1 PUSH2 0x3CC1 SWAP1 DUP4 ADD DUP5 PUSH2 0x3430 JUMP JUMPDEST SWAP7 SWAP6 POP POP POP POP POP POP JUMP JUMPDEST PUSH1 0x0 PUSH1 0x20 DUP3 DUP5 SUB SLT ISZERO PUSH2 0x3CDD JUMPI PUSH1 0x0 DUP1 REVERT JUMPDEST DUP2 MLOAD PUSH2 0x2355 DUP2 PUSH2 0x33D1 JUMP JUMPDEST PUSH4 0x4E487B71 PUSH1 0xE0 SHL PUSH1 0x0 MSTORE PUSH1 0x31 PUSH1 0x4 MSTORE PUSH1 0x24 PUSH1 0x0 REVERT INVALID LOG2 PUSH5 0x6970667358 0x22 SLT KECCAK256 0xEF INVALID 0xDB SLT ISZERO BYTE SWAP7 0xF9 PUSH3 0x1C1174 0x2F 0x4A CODESIZE 0xBE 0xFC 0xE2 0xC3 MSIZE 0xAD 0x23 PUSH6 0x40FE575B1732 PUSH28 0xF72D64736F6C634300080A0033000000000000000000000000000000 ","sha1":"a2633fffc22dc97651eec14d9a19d0da68f814bd","source":"// SPDX-License-Identifier: MIT\npragma solidity ^0.8.2;\n\n/*\n▄█▄    █▄▄▄▄ ▀▄    ▄ █ ▄▄     ▄▄▄▄▀ ▄█ ██▄      ▄▄▄▄▄   \n█▀ ▀▄  █  ▄▀   █  █  █   █ ▀▀▀ █    ██ █  █    █     ▀▄ \n█   ▀  █▀▀▌     ▀█   █▀▀▀      █    ██ █   █ ▄  ▀▀▀▀▄   \n█▄  ▄▀ █  █     █    █        █     ▐█ █  █   ▀▄▄▄▄▀    \n▀███▀    █    ▄▀      █      ▀       ▐ ███▀             \n        ▀              ▀                                \n*/    \n\n// made by crussell\n\nimport '@openzeppelin/contracts/token/ERC721/ERC721.sol';\nimport '@openzeppelin/contracts/token/ERC721/extensions/ERC721Enumerable.sol';\nimport '@openzeppelin/contracts/access/Ownable.sol';\nimport '@openzeppelin/contracts/utils/math/SafeMath.sol';\nimport '@openzeppelin/contracts/utils/Counters.sol';\nimport '@openzeppelin/contracts/security/Pausable.sol';\n\ncontract CryptidToken is ERC721, ERC721Enumerable, Pausable, Ownable {\n    using Strings for uint256;\n    using SafeMath for uint256;\n    using Counters for Counters.Counter;\n\n    Counters.Counter private _tokenIdCounter;\n\n    string public provenanceHash;\n    string public baseURI;\n    string public baseExtension = \".json\";\n    uint8 public stage = 0;\n    uint256 public maxMintPerTx;     \n    bool public tokenURIFrozen = false;\n    bool public provenanceHashFrozen = false;\n    \n    event BaseURIChanged(string baseURI);\n    event Mint(address minter, uint8 mintAmount, uint256 LastTokenMinted);\n\n    // ~ Sale stages ~\n    // stage 0: Init (no minting)\n    // stage 1: Whitelist mint (free)\n    // stage 2: Presale (up to 3000 total, including free mint)\n    // stage 3: Team Mint \n    // stage 4: Public sale\n\n    // Whitelist mint (stage=1)\n    mapping(address => uint8) public whitelistUsers;\n\n    // Presale mint (stage=2)\n    mapping(address => bool) public presaleUsers;\n    uint256 public presaleSupply;                       \n    uint256 public presalePrice = 0.04 ether;\n    uint256 public presaleMintMax = 5;                  \n    mapping(address => uint8) public presaleMintCount;\n\n    // Team Mint (stage=3)\n    uint256 public teamMintSupply;                          \n    uint256 public teamMintCount;\n\n    // Public Sale (stage=4)\n    uint256 public salePrice = 0.05 ether;\n    uint256 public totalSaleSupply;         \n\n    constructor(\n        string memory _name,\n        string memory _symbol,\n        string memory _initBaseURI,\n        uint256 _presaleSupply,\n        uint256 _teamMintSupply,\n        uint256 _totalSaleSupply,\n        uint256 _maxMintPerTx\n\n    )   ERC721(_name, _symbol) {\n        presaleSupply = _presaleSupply;\n        teamMintSupply = _teamMintSupply;\n        totalSaleSupply = _totalSaleSupply;\n        maxMintPerTx = _maxMintPerTx;\n        setBaseURI(_initBaseURI);\n        _tokenIdCounter.increment();\n    }\n\n    function lastMintAddress() public view returns (address){\n \n        require(totalSupply() > 0, \"No cryptid generated\");\n        return ownerOf(totalSupply());\n    }\n\n    function lastMintID() public view returns (uint256){\n        require(totalSupply() > 0, \"No cryptid generated\");\n        return(totalSupply());\n    }\n\n    // Public\n    function mint(uint8 _mintAmount) public whenNotPaused payable {\n        require(totalSupply() < totalSaleSupply, \"All cryptids are minted.\");\n        require(stage > 0, \"Minting not initiated. Currenly on stage 0 (init).\");\n        require(_mintAmount > 0, \"Mint amount must be greater than 0\");\n        require(_mintAmount <= maxMintPerTx, \"Exceeds max allowed amount per transaction\");\n        require(totalSupply() + _mintAmount <= totalSaleSupply, \"Transaction exceeds total sale supply\");\n        \n        if (stage == 1) {\n        // Whitelist\n            require(whitelistUsers[msg.sender] > 0, \"Minter not on free whitelist or all mints retrieved.\");\n            require(whitelistUsers[msg.sender] - _mintAmount >= 0, \"Transaction exceeds awarded free-mint amount\");\n            whitelistUsers[msg.sender] -= _mintAmount;\n    }   else if (stage == 2) {\n        // Presale  \n            require(presaleUsers[msg.sender], \"Address not whitelisted for presale\");\n            require(totalSupply() + _mintAmount <= presaleSupply, \"Transaction exceeds pre-sale supply\");\n            require(_mintAmount + presaleMintCount[msg.sender] <= presaleMintMax, \"Transaction exceeds max allow presale mints\");      \n            require(msg.value >= presalePrice.mul(_mintAmount), \"Not enough ether sent\");\n            presaleMintCount[msg.sender] += _mintAmount;\n    }   else if (stage == 3) {\n        // Team Sale\n            require(owner() == msg.sender, \"Only Owner can mint at this stage\");\n            require(_mintAmount + teamMintCount <= teamMintSupply, \"Transaction exceeds total team-sale supply\");      \n            teamMintCount += _mintAmount;\n    }   else {\n        // Public Sale\n            require(msg.value >= salePrice.mul(_mintAmount), \"Not enough ether sent\");\n        }\n        for (uint256 i = 1; i <= _mintAmount; i++) {\n\n            _safeMint(msg.sender, _tokenIdCounter.current());\n            _tokenIdCounter.increment();\n        }\n        emit Mint(msg.sender, _mintAmount, totalSupply());\n    }\n    \n    function setWhitelistUsers(address[] memory _users, uint8[] memory _mints) public onlyOwner {\n        require(stage < 2, \"Whitelist sale is concluded.\");\n        for(uint256 i=0;i<_users.length;i++)\n        whitelistUsers[_users[i]] = _mints[i];\n    }\n\n    function setPresaleUsers(address[] memory _users) public onlyOwner {\n        require(stage < 3, \"Presale is concluded.\");\n        for(uint256 i=0;i<_users.length;i++)\n        presaleUsers[_users[i]] = true;\n    }\n\n    function removeWhitelistUser(address _user) public onlyOwner {\n        require(stage < 2, \"Whitelist sale is concluded.\");\n        require(whitelistUsers[msg.sender] > 0, \"User is not on whitelist or has all mints retrieved.\");\n        whitelistUsers[_user] = 0;\n    }\n\n    function removePresaleUser(address _user) public onlyOwner {\n        require(presaleUsers[_user], \"User not on presale list.\");\n        presaleUsers[_user] = false;\n    }\n    function pause() public onlyOwner {\n        _pause();\n    }\n\n    function unpause() public onlyOwner {\n        _unpause();\n    }\n\n    function totalSupply() public view override returns (uint256) {\n        return _tokenIdCounter.current() - 1;\n    }\n\n    // Change Max Mint per transaction\n    function setMaxMintPerTx(uint256 _newmaxMintPerTx) public onlyOwner {\n        maxMintPerTx = _newmaxMintPerTx;\n    }\n\n    // Set baseURI - require tokenURI is not frozen\n    function setBaseURI(string memory _newBaseURI) public onlyOwner {\n        require(!tokenURIFrozen, \"BaseURI is frozen.\");\n        baseURI = _newBaseURI;\n        emit BaseURIChanged(baseURI);\n    }\n\n    // Check if tokenId has assigned address, return TokenURI\n    function tokenURI(uint256 tokenId)\n        public\n        view\n        virtual\n        override\n        returns (string memory){\n        require(_exists(tokenId), \"ERC721Metadata: URI query for nonexistent token\");\n\n        string memory currentBaseURI = baseURI;\n        return bytes(currentBaseURI).length > 0\n        ? string(abi.encodePacked(currentBaseURI, tokenId.toString(), baseExtension))\n        : \"\";\n    }\n\n    // Move sale to next stage (4 max)\n    function nextStage() public onlyOwner() {\n        require(provenanceHashFrozen, \"Provenance hash must be set before minting can start.\");\n        require(stage < 4, \"No stages after public sale\");\n        stage++;\n    }\n\n    // Set new Team Mint Supply\n    function setTeamMintSupply(uint256 _newTeamMintSupply) public onlyOwner() {\n        require(stage < 4, \"Team sale is concluded.\");\n        teamMintSupply = _newTeamMintSupply;\n    }\n\n    // Set Presale Price\n    function setPresalePrice(uint256 _newPresalePrice) public onlyOwner {\n        require(stage < 3, \"Presale is concluded.\");\n        presalePrice = _newPresalePrice;\n    }\n\n\n    // Set Public Sale price\n    function setPublicSalePrice(uint256 _newSalePrice) public onlyOwner {\n        salePrice = _newSalePrice;\n    }\n\n    // Freeze base URI (once final cryptid is sold)\n    function freezeBaseURI() public onlyOwner {\n        require(bytes(baseURI).length > 0, \"baseURI cannot be empty\");\n        require(!tokenURIFrozen, \"BaseURI is already frozen.\");\n        tokenURIFrozen = true;\n    }\n\n    // Get list of token IDs for single owner\n    function walletOfOwner(address _owner) public view returns (uint256[] memory){\n        uint256 ownerTokenCount = balanceOf(_owner);\n        uint256[] memory tokenIds = new uint256[](ownerTokenCount);\n        for (uint256 i; i < ownerTokenCount; i++) {\n            tokenIds[i] = tokenOfOwnerByIndex(_owner, i);\n        }\n    return tokenIds;\n    }\n\n    function getTokensLeft() public view returns (uint256) {\n        return totalSaleSupply - totalSupply();\n    }\n\n    function setProvenanceHash(string memory _provenanceHash) public onlyOwner {\n        require(!provenanceHashFrozen, \"Provenance hash is frozen.\");\n        provenanceHash = _provenanceHash;\n    }\n\n    function freezeProvenanceHash() public onlyOwner {\n        require(bytes(provenanceHash).length > 0, \"Provenance hash cannot be empty.\");\n        require(!provenanceHashFrozen, \"Provenance hash is already frozen.\");\n        provenanceHashFrozen = true;\n    }\n\n    function withdraw() public payable onlyOwner {\n        require(address(this).balance > 0, \"Contract balance is 0.\");\n        (bool hs, ) = payable(0x1953bc1fF76f5e61cD775A4482bd85BAc56aD1Eb).call{value: address(this).balance.mul(50).div(100)}(\"\");\n        require(hs, \"withdrawl 1 failed\");\n        (bool os, ) = payable(owner()).call{value: address(this).balance}(\"\");\n        require(os, \"withdrawl 2 failed\");\n    }\n\n    // The following functions are overrides required by Solidity.\n    function _beforeTokenTransfer(address from, address to, uint256 tokenId) internal whenNotPaused override(ERC721, ERC721Enumerable) {\n        super._beforeTokenTransfer(from, to, tokenId);\n    }\n\n    function supportsInterface(bytes4 interfaceId) public view override(ERC721, ERC721Enumerable) returns (bool) {\n        return super.supportsInterface(interfaceId);\n    }\n\n}","sourcePath":"contracts/CryptidToken.sol","type":"contract","deployment":{"address":"0xB5d3537C676aD9f07D124ebD7ACE597f9e8D9A76","chainid":"42","blockHeight":28917192}}