{"abi":[{"inputs":[{"internalType":"string","name":"_name","type":"string"},{"internalType":"string","name":"_symbol","type":"string"},{"internalType":"string","name":"_defaultURI","type":"string"},{"internalType":"uint256","name":"_presaleSupply","type":"uint256"},{"internalType":"uint256","name":"_teamMintSupply","type":"uint256"},{"internalType":"uint256","name":"_totalSaleSupply","type":"uint256"},{"internalType":"uint8","name":"_maxMintPerTx","type":"uint8"}],"stateMutability":"nonpayable","type":"constructor","name":"constructor"},{"anonymous":false,"inputs":[{"indexed":true,"internalType":"address","name":"owner","type":"address"},{"indexed":true,"internalType":"address","name":"approved","type":"address"},{"indexed":true,"internalType":"uint256","name":"tokenId","type":"uint256"}],"name":"Approval","type":"event"},{"anonymous":false,"inputs":[{"indexed":true,"internalType":"address","name":"owner","type":"address"},{"indexed":true,"internalType":"address","name":"operator","type":"address"},{"indexed":false,"internalType":"bool","name":"approved","type":"bool"}],"name":"ApprovalForAll","type":"event"},{"anonymous":false,"inputs":[{"indexed":true,"internalType":"address","name":"previousOwner","type":"address"},{"indexed":true,"internalType":"address","name":"newOwner","type":"address"}],"name":"OwnershipTransferred","type":"event"},{"anonymous":false,"inputs":[{"indexed":false,"internalType":"address","name":"account","type":"address"}],"name":"Paused","type":"event"},{"anonymous":false,"inputs":[{"indexed":true,"internalType":"address","name":"from","type":"address"},{"indexed":true,"internalType":"address","name":"to","type":"address"},{"indexed":true,"internalType":"uint256","name":"tokenId","type":"uint256"}],"name":"Transfer","type":"event"},{"anonymous":false,"inputs":[{"indexed":false,"internalType":"address","name":"account","type":"address"}],"name":"Unpaused","type":"event"},{"inputs":[{"internalType":"uint8","name":"_mintAmount","type":"uint8"},{"internalType":"address","name":"_to","type":"address"}],"name":"airdropCryptid","outputs":[],"stateMutability":"nonpayable","type":"function"},{"inputs":[{"internalType":"address","name":"to","type":"address"},{"internalType":"uint256","name":"tokenId","type":"uint256"}],"name":"approve","outputs":[],"stateMutability":"nonpayable","type":"function"},{"inputs":[{"internalType":"address","name":"owner","type":"address"}],"name":"balanceOf","outputs":[{"internalType":"uint256","name":"","type":"uint256"}],"stateMutability":"view","type":"function"},{"inputs":[],"name":"baseExtension","outputs":[{"internalType":"string","name":"","type":"string"}],"stateMutability":"view","type":"function"},{"inputs":[],"name":"baseURI","outputs":[{"internalType":"string","name":"","type":"string"}],"stateMutability":"view","type":"function"},{"inputs":[{"internalType":"uint256","name":"tokenId","type":"uint256"}],"name":"burn","outputs":[],"stateMutability":"nonpayable","type":"function"},{"inputs":[],"name":"defaultURI","outputs":[{"internalType":"string","name":"","type":"string"}],"stateMutability":"view","type":"function"},{"inputs":[],"name":"freezeBaseURI","outputs":[],"stateMutability":"nonpayable","type":"function"},{"inputs":[],"name":"freezeProvenanceHash","outputs":[],"stateMutability":"nonpayable","type":"function"},{"inputs":[{"internalType":"uint256","name":"tokenId","type":"uint256"}],"name":"getApproved","outputs":[{"internalType":"address","name":"","type":"address"}],"stateMutability":"view","type":"function"},{"inputs":[],"name":"getStage","outputs":[{"internalType":"uint8","name":"","type":"uint8"}],"stateMutability":"view","type":"function"},{"inputs":[],"name":"getTokensLeft","outputs":[{"internalType":"uint256","name":"","type":"uint256"}],"stateMutability":"view","type":"function"},{"inputs":[{"internalType":"address","name":"owner","type":"address"},{"internalType":"address","name":"operator","type":"address"}],"name":"isApprovedForAll","outputs":[{"internalType":"bool","name":"","type":"bool"}],"stateMutability":"view","type":"function"},{"inputs":[],"name":"lastMintAddress","outputs":[{"internalType":"address","name":"","type":"address"}],"stateMutability":"view","type":"function"},{"inputs":[],"name":"lastMintID","outputs":[{"internalType":"uint256","name":"","type":"uint256"}],"stateMutability":"view","type":"function"},{"inputs":[],"name":"maxMintPerTx","outputs":[{"internalType":"uint8","name":"","type":"uint8"}],"stateMutability":"view","type":"function"},{"inputs":[{"internalType":"uint8","name":"_mintAmount","type":"uint8"}],"name":"mint","outputs":[],"stateMutability":"payable","type":"function"},{"inputs":[],"name":"name","outputs":[{"internalType":"string","name":"","type":"string"}],"stateMutability":"view","type":"function"},{"inputs":[],"name":"nextStage","outputs":[],"stateMutability":"nonpayable","type":"function"},{"inputs":[],"name":"owner","outputs":[{"internalType":"address","name":"","type":"address"}],"stateMutability":"view","type":"function"},{"inputs":[{"internalType":"uint256","name":"tokenId","type":"uint256"}],"name":"ownerOf","outputs":[{"internalType":"address","name":"","type":"address"}],"stateMutability":"view","type":"function"},{"inputs":[],"name":"pause","outputs":[],"stateMutability":"nonpayable","type":"function"},{"inputs":[],"name":"paused","outputs":[{"internalType":"bool","name":"","type":"bool"}],"stateMutability":"view","type":"function"},{"inputs":[{"internalType":"address","name":"","type":"address"}],"name":"presaleMintCount","outputs":[{"internalType":"uint8","name":"","type":"uint8"}],"stateMutability":"view","type":"function"},{"inputs":[],"name":"presaleMintMax","outputs":[{"internalType":"uint8","name":"","type":"uint8"}],"stateMutability":"view","type":"function"},{"inputs":[],"name":"presalePrice","outputs":[{"internalType":"uint256","name":"","type":"uint256"}],"stateMutability":"view","type":"function"},{"inputs":[],"name":"presaleSupply","outputs":[{"internalType":"uint256","name":"","type":"uint256"}],"stateMutability":"view","type":"function"},{"inputs":[{"internalType":"address","name":"","type":"address"}],"name":"presaleUsers","outputs":[{"internalType":"bool","name":"","type":"bool"}],"stateMutability":"view","type":"function"},{"inputs":[],"name":"provenanceHash","outputs":[{"internalType":"string","name":"","type":"string"}],"stateMutability":"view","type":"function"},{"inputs":[],"name":"provenanceHashFrozen","outputs":[{"internalType":"bool","name":"","type":"bool"}],"stateMutability":"view","type":"function"},{"inputs":[{"internalType":"address","name":"_user","type":"address"}],"name":"removePresaleUser","outputs":[],"stateMutability":"nonpayable","type":"function"},{"inputs":[{"internalType":"address","name":"_user","type":"address"}],"name":"removeWhitelistUser","outputs":[],"stateMutability":"nonpayable","type":"function"},{"inputs":[],"name":"renounceOwnership","outputs":[],"stateMutability":"nonpayable","type":"function"},{"inputs":[{"internalType":"address","name":"from","type":"address"},{"internalType":"address","name":"to","type":"address"},{"internalType":"uint256","name":"tokenId","type":"uint256"}],"name":"safeTransferFrom","outputs":[],"stateMutability":"nonpayable","type":"function"},{"inputs":[{"internalType":"address","name":"from","type":"address"},{"internalType":"address","name":"to","type":"address"},{"internalType":"uint256","name":"tokenId","type":"uint256"},{"internalType":"bytes","name":"_data","type":"bytes"}],"name":"safeTransferFrom","outputs":[],"stateMutability":"nonpayable","type":"function"},{"inputs":[],"name":"salePrice","outputs":[{"internalType":"uint256","name":"","type":"uint256"}],"stateMutability":"view","type":"function"},{"inputs":[{"internalType":"address","name":"operator","type":"address"},{"internalType":"bool","name":"approved","type":"bool"}],"name":"setApprovalForAll","outputs":[],"stateMutability":"nonpayable","type":"function"},{"inputs":[{"internalType":"string","name":"_newBaseExtension","type":"string"}],"name":"setBaseExtension","outputs":[],"stateMutability":"nonpayable","type":"function"},{"inputs":[{"internalType":"string","name":"_newBaseURI","type":"string"}],"name":"setBaseURI","outputs":[],"stateMutability":"nonpayable","type":"function"},{"inputs":[{"internalType":"string","name":"_newDefaultURI","type":"string"}],"name":"setDefaultURI","outputs":[],"stateMutability":"nonpayable","type":"function"},{"inputs":[{"internalType":"uint8","name":"_newmaxMintPerTx","type":"uint8"}],"name":"setMaxMintPerTx","outputs":[],"stateMutability":"nonpayable","type":"function"},{"inputs":[{"internalType":"uint256","name":"_newPresalePrice","type":"uint256"}],"name":"setPresalePrice","outputs":[],"stateMutability":"nonpayable","type":"function"},{"inputs":[{"internalType":"address[]","name":"_users","type":"address[]"}],"name":"setPresaleUsers","outputs":[],"stateMutability":"nonpayable","type":"function"},{"inputs":[{"internalType":"string","name":"_provenanceHash","type":"string"}],"name":"setProvenanceHash","outputs":[],"stateMutability":"nonpayable","type":"function"},{"inputs":[{"internalType":"uint256","name":"_newSalePrice","type":"uint256"}],"name":"setPublicSalePrice","outputs":[],"stateMutability":"nonpayable","type":"function"},{"inputs":[{"internalType":"uint256","name":"_newTeamMintSupply","type":"uint256"}],"name":"setTeamMintSupply","outputs":[],"stateMutability":"nonpayable","type":"function"},{"inputs":[{"internalType":"address[]","name":"_users","type":"address[]"},{"internalType":"uint8[]","name":"_mints","type":"uint8[]"}],"name":"setWhitelistUsers","outputs":[],"stateMutability":"nonpayable","type":"function"},{"inputs":[{"internalType":"address","name":"_dest1","type":"address"},{"internalType":"address","name":"_dest2","type":"address"}],"name":"setWithdrawAddress","outputs":[],"stateMutability":"nonpayable","type":"function"},{"inputs":[{"internalType":"bytes4","name":"interfaceId","type":"bytes4"}],"name":"supportsInterface","outputs":[{"internalType":"bool","name":"","type":"bool"}],"stateMutability":"view","type":"function"},{"inputs":[],"name":"symbol","outputs":[{"internalType":"string","name":"","type":"string"}],"stateMutability":"view","type":"function"},{"inputs":[],"name":"teamMintCount","outputs":[{"internalType":"uint256","name":"","type":"uint256"}],"stateMutability":"view","type":"function"},{"inputs":[],"name":"teamMintSupply","outputs":[{"internalType":"uint256","name":"","type":"uint256"}],"stateMutability":"view","type":"function"},{"inputs":[{"internalType":"uint256","name":"tokenId","type":"uint256"}],"name":"tokenURI","outputs":[{"internalType":"string","name":"","type":"string"}],"stateMutability":"view","type":"function"},{"inputs":[],"name":"tokenURIFrozen","outputs":[{"internalType":"bool","name":"","type":"bool"}],"stateMutability":"view","type":"function"},{"inputs":[],"name":"totalSaleSupply","outputs":[{"internalType":"uint256","name":"","type":"uint256"}],"stateMutability":"view","type":"function"},{"inputs":[],"name":"totalSupply","outputs":[{"internalType":"uint256","name":"","type":"uint256"}],"stateMutability":"view","type":"function"},{"inputs":[{"internalType":"address","name":"from","type":"address"},{"internalType":"address","name":"to","type":"address"},{"internalType":"uint256","name":"tokenId","type":"uint256"}],"name":"transferFrom","outputs":[],"stateMutability":"nonpayable","type":"function"},{"inputs":[{"internalType":"address","name":"newOwner","type":"address"}],"name":"transferOwnership","outputs":[],"stateMutability":"nonpayable","type":"function"},{"inputs":[],"name":"unpause","outputs":[],"stateMutability":"nonpayable","type":"function"},{"inputs":[{"internalType":"address","name":"","type":"address"}],"name":"whitelistMintCount","outputs":[{"internalType":"uint8","name":"","type":"uint8"}],"stateMutability":"view","type":"function"},{"inputs":[{"internalType":"address","name":"","type":"address"}],"name":"whitelistUsers","outputs":[{"internalType":"uint8","name":"","type":"uint8"}],"stateMutability":"view","type":"function"},{"inputs":[],"name":"withdraw","outputs":[],"stateMutability":"payable","type":"function"},{"inputs":[],"name":"withdrawDest1","outputs":[{"internalType":"address","name":"","type":"address"}],"stateMutability":"view","type":"function"},{"inputs":[],"name":"withdrawDest2","outputs":[{"internalType":"address","name":"","type":"address"}],"stateMutability":"view","type":"function"}],"bytecode":"60a06040819052600060808190526200001b91600991620001f8565b5060408051808201909152600580825264173539b7b760d91b60209092019182526200004a91600b91620001f8565b50600c8054771953bc1ff76f5e61cd775a4482bd85bac56ad1eb0000000061ff01600160c01b0319909116179055600d80546001600160a01b0319167312b58f5331a6dc897932aa7fb5101667acdf03e2179055668e1bc9bf0400006012556013805460ff1916600517905566b1a2bc2ec50000601755348015620000ce57600080fd5b50604051620040be380380620040be833981016040819052620000f1916200036b565b8651879087906200010a906000906020850190620001f8565b50805162000120906001906020840190620001f8565b50506006805460ff1916905550620001383362000195565b601184905560158390556018829055600c805461ff00191661010060ff84160217905584516200017090600a906020880190620001f8565b50620001886007620001ef60201b6200286e1760201c565b5050505050505062000472565b600680546001600160a01b03838116610100818102610100600160a81b031985161790945560405193909204169182907f8be0079c531659141344cd1fd0a4f28419497f9722a3daafe3b4186f6b6457e090600090a35050565b80546001019055565b828054620002069062000435565b90600052602060002090601f0160209004810192826200022a576000855562000275565b82601f106200024557805160ff191683800117855562000275565b8280016001018555821562000275579182015b828111156200027557825182559160200191906001019062000258565b506200028392915062000287565b5090565b5b8082111562000283576000815560010162000288565b634e487b7160e01b600052604160045260246000fd5b600082601f830112620002c657600080fd5b81516001600160401b0380821115620002e357620002e36200029e565b604051601f8301601f19908116603f011681019082821181831017156200030e576200030e6200029e565b816040528381526020925086838588010111156200032b57600080fd5b600091505b838210156200034f578582018301518183018401529082019062000330565b83821115620003615760008385830101525b9695505050505050565b600080600080600080600060e0888a0312156200038757600080fd5b87516001600160401b03808211156200039f57600080fd5b620003ad8b838c01620002b4565b985060208a0151915080821115620003c457600080fd5b620003d28b838c01620002b4565b975060408a0151915080821115620003e957600080fd5b50620003f88a828b01620002b4565b955050606088015193506080880151925060a0880151915060c088015160ff811681146200042557600080fd5b8091505092959891949750929550565b600181811c908216806200044a57607f821691505b602082108114156200046c57634e487b7160e01b600052602260045260246000fd5b50919050565b613c3c80620004826000396000f3fe6080604052600436106103c25760003560e01c806378231978116101f2578063c6ab67a31161010d578063e6cbb6b1116100a0578063ee3743ab1161006f578063ee3743ab14610b0d578063f2fde38b14610b22578063f51f96dd14610b42578063fcaa766414610b5857600080fd5b8063e6cbb6b114610a75578063e7bc820814610a8f578063e985e9c514610aa4578063ed931e1714610aed57600080fd5b8063da3ef23f116100dc578063da3ef23f14610a01578063de5f986614610a21578063de7fcb1d14610a36578063e59a2f9914610a5557600080fd5b8063c6ab67a314610997578063c87b56dd146109ac578063d6d67a09146109cc578063da1b9e08146109e157600080fd5b8063a22cb46511610185578063b88d4fde11610154578063b88d4fde1461092c578063c29de6301461094c578063c32145811461096c578063c66828621461098257600080fd5b8063a22cb465146108b6578063b1214392146108d6578063b3a196e9146108f6578063b3caad011461090c57600080fd5b8063865054ed116101c1578063865054ed1461083d5780638da5cb5b1461085d57806395d89b41146108805780639a2a9c3d1461089557600080fd5b806378231978146107dd578063791a2519146107f357806381c162f2146108135780638456cb591461082857600080fd5b80633bdf4ac6116102e2578063622e4e78116102755780636ec55dbc116102445780636ec55dbc146107655780636ecd23061461079557806370a08231146107a8578063715018a6146107c857600080fd5b8063622e4e78146106fb5780636352211e1461071b5780636c0360eb1461073b5780636cbb89851461075057600080fd5b806342966c68116102b157806342966c681461067b57806355f804b31461069b5780635c975abb146106bb57806361869a93146106d357600080fd5b80633bdf4ac61461060e5780633ccfd60b1461063e5780633f4ba83a1461064657806342842e0e1461065b57600080fd5b8063109695231161035a57806323b872dd1161032957806323b872dd1461059957806330cc7ae0146105b95780633549345e146105d95780633a367a67146105f957600080fd5b8063109695231461052457806318160ddd1461054457806320841a6a1461055957806323957c661461057957600080fd5b8063088139a611610396578063088139a61461047a578063094e407214610490578063095ea7b3146104d25780630b0c312d146104f457600080fd5b80620e7fa8146103c757806301ffc9a7146103f057806306fdde0314610420578063081812fc14610442575b600080fd5b3480156103d357600080fd5b506103dd60125481565b6040519081526020015b60405180910390f35b3480156103fc57600080fd5b5061041061040b3660046132fd565b610b70565b60405190151581526020016103e7565b34801561042c57600080fd5b50610435610bc2565b6040516103e79190613372565b34801561044e57600080fd5b5061046261045d366004613385565b610c54565b6040516001600160a01b0390911681526020016103e7565b34801561048657600080fd5b506103dd60165481565b34801561049c57600080fd5b506104c06104ab3660046133ba565b60146020526000908152604090205460ff1681565b60405160ff90911681526020016103e7565b3480156104de57600080fd5b506104f26104ed3660046133d5565b610cee565b005b34801561050057600080fd5b5061041061050f3660046133ba565b60106020526000908152604090205460ff1681565b34801561053057600080fd5b506104f261053f36600461349e565b610e04565b34801561055057600080fd5b506103dd610ea5565b34801561056557600080fd5b506104f2610574366004613385565b610ec1565b34801561058557600080fd5b506104f261059436600461357d565b610ef6565b3480156105a557600080fd5b506104f26105b43660046135b2565b610fdd565b3480156105c557600080fd5b506104f26105d43660046133ba565b61100f565b3480156105e557600080fd5b506104f26105f4366004613385565b61111f565b34801561060557600080fd5b506104356111a3565b34801561061a57600080fd5b506104c06106293660046133ba565b600f6020526000908152604090205460ff1681565b6104f2611231565b34801561065257600080fd5b506104f26113f6565b34801561066757600080fd5b506104f26106763660046135b2565b611430565b34801561068757600080fd5b506104f2610696366004613385565b61144b565b3480156106a757600080fd5b506104f26106b636600461349e565b6114c5565b3480156106c757600080fd5b5060065460ff16610410565b3480156106df57600080fd5b50600c546104629064010000000090046001600160a01b031681565b34801561070757600080fd5b506104f26107163660046135ff565b611556565b34801561072757600080fd5b50610462610736366004613385565b6115a2565b34801561074757600080fd5b50610435611619565b34801561075c57600080fd5b50610462611626565b34801561077157600080fd5b506104c06107803660046133ba565b600e6020526000908152604090205460ff1681565b6104f26107a33660046135ff565b611682565b3480156107b457600080fd5b506103dd6107c33660046133ba565b611cd9565b3480156107d457600080fd5b506104f2611d60565b3480156107e957600080fd5b506103dd60185481565b3480156107ff57600080fd5b506104f261080e366004613385565b611d9a565b34801561081f57600080fd5b506104f2611dcf565b34801561083457600080fd5b506104f2611ed7565b34801561084957600080fd5b506104f261085836600461361a565b611f0f565b34801561086957600080fd5b5060065461010090046001600160a01b0316610462565b34801561088c57600080fd5b50610435612025565b3480156108a157600080fd5b50600c54610410906301000000900460ff1681565b3480156108c257600080fd5b506104f26108d13660046136dc565b612034565b3480156108e257600080fd5b50600d54610462906001600160a01b031681565b34801561090257600080fd5b506103dd60115481565b34801561091857600080fd5b506104f2610927366004613718565b61203f565b34801561093857600080fd5b506104f261094736600461374b565b61222b565b34801561095857600080fd5b50600c546104109062010000900460ff1681565b34801561097857600080fd5b506103dd60155481565b34801561098e57600080fd5b50610435612263565b3480156109a357600080fd5b50610435612270565b3480156109b857600080fd5b506104356109c7366004613385565b61227d565b3480156109d857600080fd5b506103dd6123d6565b3480156109ed57600080fd5b506104f26109fc36600461349e565b61242f565b348015610a0d57600080fd5b506104f2610a1c36600461349e565b612472565b348015610a2d57600080fd5b506103dd6124b5565b348015610a4257600080fd5b50600c546104c090610100900460ff1681565b348015610a6157600080fd5b506104f2610a703660046137c7565b6124cc565b348015610a8157600080fd5b506013546104c09060ff1681565b348015610a9b57600080fd5b506104f261253a565b348015610ab057600080fd5b50610410610abf3660046137c7565b6001600160a01b03918216600090815260056020908152604080832093909416825291909152205460ff1690565b348015610af957600080fd5b506104f2610b083660046133ba565b612634565b348015610b1957600080fd5b506104f26126ed565b348015610b2e57600080fd5b506104f2610b3d3660046133ba565b6127d0565b348015610b4e57600080fd5b506103dd60175481565b348015610b6457600080fd5b50600c5460ff166104c0565b60006001600160e01b031982166380ac58cd60e01b1480610ba157506001600160e01b03198216635b5e139f60e01b145b80610bbc57506301ffc9a760e01b6001600160e01b03198316145b92915050565b606060008054610bd1906137e3565b80601f0160208091040260200160405190810160405280929190818152602001828054610bfd906137e3565b8015610c4a5780601f10610c1f57610100808354040283529160200191610c4a565b820191906000526020600020905b815481529060010190602001808311610c2d57829003601f168201915b5050505050905090565b6000818152600260205260408120546001600160a01b0316610cd25760405162461bcd60e51b815260206004820152602c60248201527f4552433732313a20617070726f76656420717565727920666f72206e6f6e657860448201526b34b9ba32b73a103a37b5b2b760a11b60648201526084015b60405180910390fd5b506000908152600460205260409020546001600160a01b031690565b6000610cf9826115a2565b9050806001600160a01b0316836001600160a01b03161415610d675760405162461bcd60e51b815260206004820152602160248201527f4552433732313a20617070726f76616c20746f2063757272656e74206f776e656044820152603960f91b6064820152608401610cc9565b336001600160a01b0382161480610d835750610d838133610abf565b610df55760405162461bcd60e51b815260206004820152603860248201527f4552433732313a20617070726f76652063616c6c6572206973206e6f74206f7760448201527f6e6572206e6f7220617070726f76656420666f7220616c6c00000000000000006064820152608401610cc9565b610dff8383612877565b505050565b6006546001600160a01b03610100909104163314610e345760405162461bcd60e51b8152600401610cc99061381e565b600c546301000000900460ff1615610e8e5760405162461bcd60e51b815260206004820152601a60248201527f50726f76656e616e636520686173682069732066726f7a656e2e0000000000006044820152606401610cc9565b8051610ea190600890602084019061324e565b5050565b60006001610eb260075490565b610ebc9190613869565b905090565b6006546001600160a01b03610100909104163314610ef15760405162461bcd60e51b8152600401610cc99061381e565b601555565b6006546001600160a01b03610100909104163314610f265760405162461bcd60e51b8152600401610cc99061381e565b600c54600360ff90911610610f755760405162461bcd60e51b8152602060048201526015602482015274283932b9b0b6329034b99031b7b731b63ab232b21760591b6044820152606401610cc9565b60005b8151811015610ea157600160106000848481518110610f9957610f99613880565b6020908102919091018101516001600160a01b03168252810191909152604001600020805460ff191691151591909117905580610fd581613896565b915050610f78565b610fe8335b826128e5565b6110045760405162461bcd60e51b8152600401610cc9906138b1565b610dff8383836129dc565b6006546001600160a01b0361010090910416331461103f5760405162461bcd60e51b8152600401610cc99061381e565b600c54600260ff909116106110965760405162461bcd60e51b815260206004820152601c60248201527f57686974656c6973742073616c6520697320636f6e636c756465642e000000006044820152606401610cc9565b6001600160a01b0381166000908152600e602052604090205460ff166110fe5760405162461bcd60e51b815260206004820152601960248201527f55736572206973206e6f74206f6e2077686974656c6973742e000000000000006044820152606401610cc9565b6001600160a01b03166000908152600e60205260409020805460ff19169055565b6006546001600160a01b0361010090910416331461114f5760405162461bcd60e51b8152600401610cc99061381e565b600c54600360ff9091161061119e5760405162461bcd60e51b8152602060048201526015602482015274283932b9b0b6329034b99031b7b731b63ab232b21760591b6044820152606401610cc9565b601255565b600a80546111b0906137e3565b80601f01602080910402602001604051908101604052809291908181526020018280546111dc906137e3565b80156112295780601f106111fe57610100808354040283529160200191611229565b820191906000526020600020905b81548152906001019060200180831161120c57829003601f168201915b505050505081565b6006546001600160a01b036101009091041633146112615760405162461bcd60e51b8152600401610cc99061381e565b600047116112aa5760405162461bcd60e51b815260206004820152601660248201527521b7b73a3930b1ba103130b630b731b29034b990181760511b6044820152606401610cc9565b600c5460009064010000000090046001600160a01b03166112d760646112d1476032612b87565b90612b9a565b604051600081818185875af1925050503d8060008114611313576040519150601f19603f3d011682016040523d82523d6000602084013e611318565b606091505b505090508061135e5760405162461bcd60e51b81526020600482015260126024820152711dda5d1a191c985ddb080c4819985a5b195960721b6044820152606401610cc9565b600d546040516000916001600160a01b03169047908381818185875af1925050503d80600081146113ab576040519150601f19603f3d011682016040523d82523d6000602084013e6113b0565b606091505b5050905080610ea15760405162461bcd60e51b81526020600482015260126024820152711dda5d1a191c985ddb080c8819985a5b195960721b6044820152606401610cc9565b6006546001600160a01b036101009091041633146114265760405162461bcd60e51b8152600401610cc99061381e565b61142e612ba6565b565b610dff8383836040518060200160405280600081525061222b565b61145433610fe2565b6114b95760405162461bcd60e51b815260206004820152603060248201527f4552433732314275726e61626c653a2063616c6c6572206973206e6f74206f7760448201526f1b995c881b9bdc88185c1c1c9bdd995960821b6064820152608401610cc9565b6114c281612c39565b50565b6006546001600160a01b036101009091041633146114f55760405162461bcd60e51b8152600401610cc99061381e565b600c5462010000900460ff16156115435760405162461bcd60e51b81526020600482015260126024820152712130b9b2aaa9249034b990333937bd32b71760711b6044820152606401610cc9565b8051610ea190600990602084019061324e565b6006546001600160a01b036101009091041633146115865760405162461bcd60e51b8152600401610cc99061381e565b600c805460ff9092166101000261ff0019909216919091179055565b6000818152600260205260408120546001600160a01b031680610bbc5760405162461bcd60e51b815260206004820152602960248201527f4552433732313a206f776e657220717565727920666f72206e6f6e657869737460448201526832b73a103a37b5b2b760b91b6064820152608401610cc9565b600980546111b0906137e3565b600080611631610ea5565b116116775760405162461bcd60e51b815260206004820152601660248201527527379031b93cb83a34b21032bc34b9ba39903cb2ba1760511b6044820152606401610cc9565b610ebc610736610ea5565b60065460ff16156116a55760405162461bcd60e51b8152600401610cc990613902565b600c5460ff166117125760405162461bcd60e51b815260206004820152603260248201527f4d696e74696e67206e6f7420696e697469617465642e2043757272656e6c792060448201527137b71039ba30b3b29018101434b734ba149760711b6064820152608401610cc9565b60008160ff16116117705760405162461bcd60e51b815260206004820152602260248201527f4d696e7420616d6f756e74206d7573742062652067726561746572207468616e604482015261020360f41b6064820152608401610cc9565b600c5460ff6101009091048116908216111561179e5760405162461bcd60e51b8152600401610cc99061392c565b600c5460ff16600114156118de57336000908152600e602052604090205460ff1661180b5760405162461bcd60e51b815260206004820152601760248201527f4d696e746572206e6f742077686974656c69737465642e0000000000000000006044820152606401610cc9565b336000908152600e6020908152604080832054600f9092529091205460ff91821691611838911683613976565b60ff16111561189f5760405162461bcd60e51b815260206004820152602d60248201527f5472616e73616374696f6e20657863656564732072656d61696e696e6720776860448201526c6974656c697374206d696e747360981b6064820152608401610cc9565b336000908152600f6020526040812080548392906118c190849060ff16613976565b92506101000a81548160ff021916908360ff160217905550611c9a565b600c5460ff1660021415611ac2576012546118fc9060ff8316612b87565b3410156119435760405162461bcd60e51b8152602060048201526015602482015274139bdd08195b9bdd59da08195d1a195c881cd95b9d605a1b6044820152606401610cc9565b3360009081526010602052604090205460ff166119a25760405162461bcd60e51b815260206004820152601b60248201527f41646472657373206e6f74206f6e2070726573616c65206c69737400000000006044820152606401610cc9565b6011548160ff166119b1610ea5565b6119bb919061399b565b1115611a155760405162461bcd60e51b815260206004820152602360248201527f5472616e73616374696f6e2065786365656473207072652d73616c6520737570604482015262706c7960e81b6064820152608401610cc9565b6013543360009081526014602052604090205460ff91821691611a39911683613976565b60ff161115611aa05760405162461bcd60e51b815260206004820152602d60248201527f5472616e73616374696f6e2065786365656473206d617820616c6c6f7765642060448201526c70726573616c65206d696e747360981b6064820152608401610cc9565b33600090815260146020526040812080548392906118c190849060ff16613976565b600c5460ff1660031415611bce576006546001600160a01b03610100909104163314611b3a5760405162461bcd60e51b815260206004820152602160248201527f4f6e6c79204f776e65722063616e206d696e74206174207468697320737461676044820152606560f81b6064820152608401610cc9565b601554601654611b4d9060ff841661399b565b1115611bae5760405162461bcd60e51b815260206004820152602a60248201527f5472616e73616374696f6e206578636565647320746f74616c207465616d2d73604482015269616c6520737570706c7960b01b6064820152608401610cc9565b8060ff1660166000828254611bc3919061399b565b90915550611c9a9050565b601754611bde9060ff8316612b87565b341015611c255760405162461bcd60e51b8152602060048201526015602482015274139bdd08195b9bdd59da08195d1a195c881cd95b9d605a1b6044820152606401610cc9565b6018548160ff16611c34610ea5565b611c3e919061399b565b1115611c9a5760405162461bcd60e51b815260206004820152602560248201527f5472616e73616374696f6e206578636565647320746f74616c2073616c6520736044820152647570706c7960d81b6064820152608401610cc9565b60015b8160ff168111610ea157611cb933611cb460075490565b612ce0565b611cc7600780546001019055565b80611cd181613896565b915050611c9d565b60006001600160a01b038216611d445760405162461bcd60e51b815260206004820152602a60248201527f4552433732313a2062616c616e636520717565727920666f7220746865207a65604482015269726f206164647265737360b01b6064820152608401610cc9565b506001600160a01b031660009081526003602052604090205490565b6006546001600160a01b03610100909104163314611d905760405162461bcd60e51b8152600401610cc99061381e565b61142e6000612cfa565b6006546001600160a01b03610100909104163314611dca5760405162461bcd60e51b8152600401610cc99061381e565b601755565b6006546001600160a01b03610100909104163314611dff5760405162461bcd60e51b8152600401610cc99061381e565b600060088054611e0e906137e3565b905011611e5d5760405162461bcd60e51b815260206004820181905260248201527f50726f76656e616e636520686173682063616e6e6f7420626520656d7074792e6044820152606401610cc9565b600c546301000000900460ff1615611ec25760405162461bcd60e51b815260206004820152602260248201527f50726f76656e616e6365206861736820697320616c72656164792066726f7a65604482015261371760f11b6064820152608401610cc9565b600c805463ff00000019166301000000179055565b6006546001600160a01b03610100909104163314611f075760405162461bcd60e51b8152600401610cc99061381e565b61142e612d54565b6006546001600160a01b03610100909104163314611f3f5760405162461bcd60e51b8152600401610cc99061381e565b600c54600260ff90911610611f965760405162461bcd60e51b815260206004820152601c60248201527f57686974656c6973742073616c6520697320636f6e636c756465642e000000006044820152606401610cc9565b60005b8251811015610dff57818181518110611fb457611fb4613880565b6020026020010151600e6000858481518110611fd257611fd2613880565b60200260200101516001600160a01b03166001600160a01b0316815260200190815260200160002060006101000a81548160ff021916908360ff160217905550808061201d90613896565b915050611f99565b606060018054610bd1906137e3565b610ea1338383612dac565b6006546001600160a01b0361010090910416331461206f5760405162461bcd60e51b8152600401610cc99061381e565b600c546301000000900460ff16151560011461209d5760405162461bcd60e51b8152600401610cc9906139b3565b600c54600260ff909116106120eb5760405162461bcd60e51b81526020600482015260146024820152732830b9ba103bb434ba32b634b9ba1039b0b6329760611b6044820152606401610cc9565b600c5460ff610100909104811690831611156121195760405162461bcd60e51b8152600401610cc99061392c565b60008260ff161161217a5760405162461bcd60e51b815260206004820152602560248201527f41697264726f7020616d6f756e74206d75737420626520677265617465722074604482015264068616e20360dc1b6064820152608401610cc9565b6011548260ff16612189610ea5565b612193919061399b565b11156121f15760405162461bcd60e51b815260206004820152602760248201527f4d696e7420616d6f756e742077696c6c206578636565642070726573616c652060448201526639bab838363c9760c91b6064820152608401610cc9565b60015b8260ff168111610dff5761220b82611cb460075490565b612219600780546001019055565b8061222381613896565b9150506121f4565b61223533836128e5565b6122515760405162461bcd60e51b8152600401610cc9906138b1565b61225d84848484612e7b565b50505050565b600b80546111b0906137e3565b600880546111b0906137e3565b6000818152600260205260409020546060906001600160a01b03166122fc5760405162461bcd60e51b815260206004820152602f60248201527f4552433732314d657461646174613a2055524920717565727920666f72206e6f60448201526e3732bc34b9ba32b73a103a37b5b2b760891b6064820152608401610cc9565b60006009805461230b906137e3565b9050116123a257600a805461231f906137e3565b80601f016020809104026020016040519081016040528092919081815260200182805461234b906137e3565b80156123985780601f1061236d57610100808354040283529160200191612398565b820191906000526020600020905b81548152906001019060200180831161237b57829003601f168201915b5050505050610bbc565b60096123ad83612eae565b600b6040516020016123c193929190613aaa565b60405160208183030381529060405292915050565b6000806123e1610ea5565b116124275760405162461bcd60e51b815260206004820152601660248201527527379031b93cb83a34b21032bc34b9ba39903cb2ba1760511b6044820152606401610cc9565b610ebc610ea5565b6006546001600160a01b0361010090910416331461245f5760405162461bcd60e51b8152600401610cc99061381e565b8051610ea190600a90602084019061324e565b6006546001600160a01b036101009091041633146124a25760405162461bcd60e51b8152600401610cc99061381e565b8051610ea190600b90602084019061324e565b60006124bf610ea5565b601854610ebc9190613869565b6006546001600160a01b036101009091041633146124fc5760405162461bcd60e51b8152600401610cc99061381e565b600c8054640100000000600160c01b0319166401000000006001600160a01b0394851602179055600d80546001600160a01b03191691909216179055565b6006546001600160a01b0361010090910416331461256a5760405162461bcd60e51b8152600401610cc99061381e565b600060098054612579906137e3565b9050116125c85760405162461bcd60e51b815260206004820152601760248201527f626173655552492063616e6e6f7420626520656d7074790000000000000000006044820152606401610cc9565b600c5462010000900460ff16156126215760405162461bcd60e51b815260206004820152601a60248201527f4261736555524920697320616c72656164792066726f7a656e2e0000000000006044820152606401610cc9565b600c805462ff0000191662010000179055565b6006546001600160a01b036101009091041633146126645760405162461bcd60e51b8152600401610cc99061381e565b6001600160a01b03811660009081526010602052604090205460ff166126cc5760405162461bcd60e51b815260206004820152601960248201527f55736572206e6f74206f6e2070726573616c65206c6973742e000000000000006044820152606401610cc9565b6001600160a01b03166000908152601060205260409020805460ff19169055565b6006546001600160a01b0361010090910416331461271d5760405162461bcd60e51b8152600401610cc99061381e565b600c546301000000900460ff16151560011461274b5760405162461bcd60e51b8152600401610cc9906139b3565b600c54600460ff909116106127a25760405162461bcd60e51b815260206004820152601b60248201527f4e6f20737461676573206166746572207075626c69632073616c6500000000006044820152606401610cc9565b600c805460ff169060006127b583613add565b91906101000a81548160ff021916908360ff16021790555050565b6006546001600160a01b036101009091041633146128005760405162461bcd60e51b8152600401610cc99061381e565b6001600160a01b0381166128655760405162461bcd60e51b815260206004820152602660248201527f4f776e61626c653a206e6577206f776e657220697320746865207a65726f206160448201526564647265737360d01b6064820152608401610cc9565b6114c281612cfa565b80546001019055565b600081815260046020526040902080546001600160a01b0319166001600160a01b03841690811790915581906128ac826115a2565b6001600160a01b03167f8c5be1e5ebec7d5bd14f71427d1e84f3dd0314c0f7b2291e5b200ac8c7c3b92560405160405180910390a45050565b6000818152600260205260408120546001600160a01b031661295e5760405162461bcd60e51b815260206004820152602c60248201527f4552433732313a206f70657261746f7220717565727920666f72206e6f6e657860448201526b34b9ba32b73a103a37b5b2b760a11b6064820152608401610cc9565b6000612969836115a2565b9050806001600160a01b0316846001600160a01b031614806129a45750836001600160a01b031661299984610c54565b6001600160a01b0316145b806129d457506001600160a01b0380821660009081526005602090815260408083209388168352929052205460ff165b949350505050565b826001600160a01b03166129ef826115a2565b6001600160a01b031614612a575760405162461bcd60e51b815260206004820152602960248201527f4552433732313a207472616e73666572206f6620746f6b656e2074686174206960448201526839903737ba1037bbb760b91b6064820152608401610cc9565b6001600160a01b038216612ab95760405162461bcd60e51b8152602060048201526024808201527f4552433732313a207472616e7366657220746f20746865207a65726f206164646044820152637265737360e01b6064820152608401610cc9565b612ac4838383612fac565b612acf600082612877565b6001600160a01b0383166000908152600360205260408120805460019290612af8908490613869565b90915550506001600160a01b0382166000908152600360205260408120805460019290612b2690849061399b565b909155505060008181526002602052604080822080546001600160a01b0319166001600160a01b0386811691821790925591518493918716917fddf252ad1be2c89b69c2b068fc378daa952ba7f163c4a11628f55a4df523b3ef91a4505050565b6000612b938284613afd565b9392505050565b6000612b938284613b32565b60065460ff16612bef5760405162461bcd60e51b815260206004820152601460248201527314185d5cd8589b194e881b9bdd081c185d5cd95960621b6044820152606401610cc9565b6006805460ff191690557f5db9ee0a495bf2e6ff9c91a7834c1ba4fdd244a5e8aa4e537bd38aeae4b073aa335b6040516001600160a01b03909116815260200160405180910390a1565b6000612c44826115a2565b9050612c5281600084612fac565b612c5d600083612877565b6001600160a01b0381166000908152600360205260408120805460019290612c86908490613869565b909155505060008281526002602052604080822080546001600160a01b0319169055518391906001600160a01b038416907fddf252ad1be2c89b69c2b068fc378daa952ba7f163c4a11628f55a4df523b3ef908390a45050565b610ea1828260405180602001604052806000815250612fcf565b600680546001600160a01b03838116610100818102610100600160a81b031985161790945560405193909204169182907f8be0079c531659141344cd1fd0a4f28419497f9722a3daafe3b4186f6b6457e090600090a35050565b60065460ff1615612d775760405162461bcd60e51b8152600401610cc990613902565b6006805460ff191660011790557f62e78cea01bee320cd4e420270b5ea74000d11b0c9f74754ebdbfc544b05a258612c1c3390565b816001600160a01b0316836001600160a01b03161415612e0e5760405162461bcd60e51b815260206004820152601960248201527f4552433732313a20617070726f766520746f2063616c6c6572000000000000006044820152606401610cc9565b6001600160a01b03838116600081815260056020908152604080832094871680845294825291829020805460ff191686151590811790915591519182527f17307eab39ab6107e8899845ad3d59bd9653f200f220920489ca2b5937696c31910160405180910390a3505050565b612e868484846129dc565b612e9284848484613002565b61225d5760405162461bcd60e51b8152600401610cc990613b46565b606081612ed25750506040805180820190915260018152600360fc1b602082015290565b8160005b8115612efc5780612ee681613896565b9150612ef59050600a83613b32565b9150612ed6565b60008167ffffffffffffffff811115612f1757612f176133ff565b6040519080825280601f01601f191660200182016040528015612f41576020820181803683370190505b5090505b84156129d457612f56600183613869565b9150612f63600a86613b98565b612f6e90603061399b565b60f81b818381518110612f8357612f83613880565b60200101906001600160f81b031916908160001a905350612fa5600a86613b32565b9450612f45565b60065460ff1615610dff5760405162461bcd60e51b8152600401610cc990613902565b612fd98383613100565b612fe66000848484613002565b610dff5760405162461bcd60e51b8152600401610cc990613b46565b60006001600160a01b0384163b156130f557604051630a85bd0160e11b81526001600160a01b0385169063150b7a0290613046903390899088908890600401613bac565b6020604051808303816000875af1925050508015613081575060408051601f3d908101601f1916820190925261307e91810190613be9565b60015b6130db573d8080156130af576040519150601f19603f3d011682016040523d82523d6000602084013e6130b4565b606091505b5080516130d35760405162461bcd60e51b8152600401610cc990613b46565b805181602001fd5b6001600160e01b031916630a85bd0160e11b1490506129d4565b506001949350505050565b6001600160a01b0382166131565760405162461bcd60e51b815260206004820181905260248201527f4552433732313a206d696e7420746f20746865207a65726f20616464726573736044820152606401610cc9565b6000818152600260205260409020546001600160a01b0316156131bb5760405162461bcd60e51b815260206004820152601c60248201527f4552433732313a20746f6b656e20616c7265616479206d696e746564000000006044820152606401610cc9565b6131c760008383612fac565b6001600160a01b03821660009081526003602052604081208054600192906131f090849061399b565b909155505060008181526002602052604080822080546001600160a01b0319166001600160a01b03861690811790915590518392907fddf252ad1be2c89b69c2b068fc378daa952ba7f163c4a11628f55a4df523b3ef908290a45050565b82805461325a906137e3565b90600052602060002090601f01602090048101928261327c57600085556132c2565b82601f1061329557805160ff19168380011785556132c2565b828001600101855582156132c2579182015b828111156132c25782518255916020019190600101906132a7565b506132ce9291506132d2565b5090565b5b808211156132ce57600081556001016132d3565b6001600160e01b0319811681146114c257600080fd5b60006020828403121561330f57600080fd5b8135612b93816132e7565b60005b8381101561333557818101518382015260200161331d565b8381111561225d5750506000910152565b6000815180845261335e81602086016020860161331a565b601f01601f19169290920160200192915050565b602081526000612b936020830184613346565b60006020828403121561339757600080fd5b5035919050565b80356001600160a01b03811681146133b557600080fd5b919050565b6000602082840312156133cc57600080fd5b612b938261339e565b600080604083850312156133e857600080fd5b6133f18361339e565b946020939093013593505050565b634e487b7160e01b600052604160045260246000fd5b604051601f8201601f1916810167ffffffffffffffff8111828210171561343e5761343e6133ff565b604052919050565b600067ffffffffffffffff831115613460576134606133ff565b613473601f8401601f1916602001613415565b905082815283838301111561348757600080fd5b828260208301376000602084830101529392505050565b6000602082840312156134b057600080fd5b813567ffffffffffffffff8111156134c757600080fd5b8201601f810184136134d857600080fd5b6129d484823560208401613446565b600067ffffffffffffffff821115613501576135016133ff565b5060051b60200190565b600082601f83011261351c57600080fd5b8135602061353161352c836134e7565b613415565b82815260059290921b8401810191818101908684111561355057600080fd5b8286015b84811015613572576135658161339e565b8352918301918301613554565b509695505050505050565b60006020828403121561358f57600080fd5b813567ffffffffffffffff8111156135a657600080fd5b6129d48482850161350b565b6000806000606084860312156135c757600080fd5b6135d08461339e565b92506135de6020850161339e565b9150604084013590509250925092565b803560ff811681146133b557600080fd5b60006020828403121561361157600080fd5b612b93826135ee565b6000806040838503121561362d57600080fd5b823567ffffffffffffffff8082111561364557600080fd5b6136518683870161350b565b935060209150818501358181111561366857600080fd5b85019050601f8101861361367b57600080fd5b803561368961352c826134e7565b81815260059190911b820183019083810190888311156136a857600080fd5b928401925b828410156136cd576136be846135ee565b825292840192908401906136ad565b80955050505050509250929050565b600080604083850312156136ef57600080fd5b6136f88361339e565b91506020830135801515811461370d57600080fd5b809150509250929050565b6000806040838503121561372b57600080fd5b613734836135ee565b91506137426020840161339e565b90509250929050565b6000806000806080858703121561376157600080fd5b61376a8561339e565b93506137786020860161339e565b925060408501359150606085013567ffffffffffffffff81111561379b57600080fd5b8501601f810187136137ac57600080fd5b6137bb87823560208401613446565b91505092959194509250565b600080604083850312156137da57600080fd5b6137348361339e565b600181811c908216806137f757607f821691505b6020821081141561381857634e487b7160e01b600052602260045260246000fd5b50919050565b6020808252818101527f4f776e61626c653a2063616c6c6572206973206e6f7420746865206f776e6572604082015260600190565b634e487b7160e01b600052601160045260246000fd5b60008282101561387b5761387b613853565b500390565b634e487b7160e01b600052603260045260246000fd5b60006000198214156138aa576138aa613853565b5060010190565b60208082526031908201527f4552433732313a207472616e736665722063616c6c6572206973206e6f74206f6040820152701ddb995c881b9bdc88185c1c1c9bdd9959607a1b606082015260800190565b60208082526010908201526f14185d5cd8589b194e881c185d5cd95960821b604082015260600190565b6020808252602a908201527f45786365656473206d617820616c6c6f77656420616d6f756e742070657220746040820152693930b739b0b1ba34b7b760b11b606082015260800190565b600060ff821660ff84168060ff0382111561399357613993613853565b019392505050565b600082198211156139ae576139ae613853565b500190565b60208082526038908201527f50726f76656e616e63652068617368206d7573742062652066726f7a656e206260408201527f65666f7265206d696e74696e672063616e2073746172742e0000000000000000606082015260800190565b8054600090600181811c9080831680613a2a57607f831692505b6020808410821415613a4c57634e487b7160e01b600052602260045260246000fd5b818015613a605760018114613a7157613a9e565b60ff19861689528489019650613a9e565b60008881526020902060005b86811015613a965781548b820152908501908301613a7d565b505084890196505b50505050505092915050565b6000613ab68286613a10565b8451613ac681836020890161331a565b613ad281830186613a10565b979650505050505050565b600060ff821660ff811415613af457613af4613853565b60010192915050565b6000816000190483118215151615613b1757613b17613853565b500290565b634e487b7160e01b600052601260045260246000fd5b600082613b4157613b41613b1c565b500490565b60208082526032908201527f4552433732313a207472616e7366657220746f206e6f6e20455243373231526560408201527131b2b4bb32b91034b6b83632b6b2b73a32b960711b606082015260800190565b600082613ba757613ba7613b1c565b500690565b6001600160a01b0385811682528416602082015260408101839052608060608201819052600090613bdf90830184613346565b9695505050505050565b600060208284031215613bfb57600080fd5b8151612b93816132e756fea2646970667358221220bd8bacdbb7fc75d28ff1d454c8d3715e8a2d9a470732fb8818faa00142a7e84764736f6c634300080a0033","bytecodeSha1":"fa1bbc6913dc13a54cb13a660aeb3c79f29c2a20","compiler":{"evm_version":"istanbul","optimizer":{"enabled":true,"runs":200},"version":"0.8.10+commit.fc410830"},"contractName":"CryptidToken","language":"Solidity","natspec":{"kind":"dev","methods":{"approve(address,uint256)":{"details":"See {IERC721-approve}."},"balanceOf(address)":{"details":"See {IERC721-balanceOf}."},"burn(uint256)":{"details":"Burns `tokenId`. See {ERC721-_burn}. Requirements: - The caller must own `tokenId` or be an approved operator."},"getApproved(uint256)":{"details":"See {IERC721-getApproved}."},"isApprovedForAll(address,address)":{"details":"See {IERC721-isApprovedForAll}."},"name()":{"details":"See {IERC721Metadata-name}."},"owner()":{"details":"Returns the address of the current owner."},"ownerOf(uint256)":{"details":"See {IERC721-ownerOf}."},"paused()":{"details":"Returns true if the contract is paused, and false otherwise."},"renounceOwnership()":{"details":"Leaves the contract without owner. It will not be possible to call `onlyOwner` functions anymore. Can only be called by the current owner. NOTE: Renouncing ownership will leave the contract without an owner, thereby removing any functionality that is only available to the owner."},"safeTransferFrom(address,address,uint256)":{"details":"See {IERC721-safeTransferFrom}."},"safeTransferFrom(address,address,uint256,bytes)":{"details":"See {IERC721-safeTransferFrom}."},"setApprovalForAll(address,bool)":{"details":"See {IERC721-setApprovalForAll}."},"supportsInterface(bytes4)":{"details":"See {IERC165-supportsInterface}."},"symbol()":{"details":"See {IERC721Metadata-symbol}."},"tokenURI(uint256)":{"details":"See {IERC721Metadata-tokenURI}."},"transferFrom(address,address,uint256)":{"details":"See {IERC721-transferFrom}."},"transferOwnership(address)":{"details":"Transfers ownership of the contract to a new account (`newOwner`). Can only be called by the current owner."}},"version":1},"opcodes":"PUSH1 0x80 PUSH1 0x40 MSTORE PUSH1 0x4 CALLDATASIZE LT PUSH2 0x3C2 JUMPI PUSH1 0x0 CALLDATALOAD PUSH1 0xE0 SHR DUP1 PUSH4 0x78231978 GT PUSH2 0x1F2 JUMPI DUP1 PUSH4 0xC6AB67A3 GT PUSH2 0x10D JUMPI DUP1 PUSH4 0xE6CBB6B1 GT PUSH2 0xA0 JUMPI DUP1 PUSH4 0xEE3743AB GT PUSH2 0x6F JUMPI DUP1 PUSH4 0xEE3743AB EQ PUSH2 0xB0D JUMPI DUP1 PUSH4 0xF2FDE38B EQ PUSH2 0xB22 JUMPI DUP1 PUSH4 0xF51F96DD EQ PUSH2 0xB42 JUMPI DUP1 PUSH4 0xFCAA7664 EQ PUSH2 0xB58 JUMPI PUSH1 0x0 DUP1 REVERT JUMPDEST DUP1 PUSH4 0xE6CBB6B1 EQ PUSH2 0xA75 JUMPI DUP1 PUSH4 0xE7BC8208 EQ PUSH2 0xA8F JUMPI DUP1 PUSH4 0xE985E9C5 EQ PUSH2 0xAA4 JUMPI DUP1 PUSH4 0xED931E17 EQ PUSH2 0xAED JUMPI PUSH1 0x0 DUP1 REVERT JUMPDEST DUP1 PUSH4 0xDA3EF23F GT PUSH2 0xDC JUMPI DUP1 PUSH4 0xDA3EF23F EQ PUSH2 0xA01 JUMPI DUP1 PUSH4 0xDE5F9866 EQ PUSH2 0xA21 JUMPI DUP1 PUSH4 0xDE7FCB1D EQ PUSH2 0xA36 JUMPI DUP1 PUSH4 0xE59A2F99 EQ PUSH2 0xA55 JUMPI PUSH1 0x0 DUP1 REVERT JUMPDEST DUP1 PUSH4 0xC6AB67A3 EQ PUSH2 0x997 JUMPI DUP1 PUSH4 0xC87B56DD EQ PUSH2 0x9AC JUMPI DUP1 PUSH4 0xD6D67A09 EQ PUSH2 0x9CC JUMPI DUP1 PUSH4 0xDA1B9E08 EQ PUSH2 0x9E1 JUMPI PUSH1 0x0 DUP1 REVERT JUMPDEST DUP1 PUSH4 0xA22CB465 GT PUSH2 0x185 JUMPI DUP1 PUSH4 0xB88D4FDE GT PUSH2 0x154 JUMPI DUP1 PUSH4 0xB88D4FDE EQ PUSH2 0x92C JUMPI DUP1 PUSH4 0xC29DE630 EQ PUSH2 0x94C JUMPI DUP1 PUSH4 0xC3214581 EQ PUSH2 0x96C JUMPI DUP1 PUSH4 0xC6682862 EQ PUSH2 0x982 JUMPI PUSH1 0x0 DUP1 REVERT JUMPDEST DUP1 PUSH4 0xA22CB465 EQ PUSH2 0x8B6 JUMPI DUP1 PUSH4 0xB1214392 EQ PUSH2 0x8D6 JUMPI DUP1 PUSH4 0xB3A196E9 EQ PUSH2 0x8F6 JUMPI DUP1 PUSH4 0xB3CAAD01 EQ PUSH2 0x90C JUMPI PUSH1 0x0 DUP1 REVERT JUMPDEST DUP1 PUSH4 0x865054ED GT PUSH2 0x1C1 JUMPI DUP1 PUSH4 0x865054ED EQ PUSH2 0x83D JUMPI DUP1 PUSH4 0x8DA5CB5B EQ PUSH2 0x85D JUMPI DUP1 PUSH4 0x95D89B41 EQ PUSH2 0x880 JUMPI DUP1 PUSH4 0x9A2A9C3D EQ PUSH2 0x895 JUMPI PUSH1 0x0 DUP1 REVERT JUMPDEST DUP1 PUSH4 0x78231978 EQ PUSH2 0x7DD JUMPI DUP1 PUSH4 0x791A2519 EQ PUSH2 0x7F3 JUMPI DUP1 PUSH4 0x81C162F2 EQ PUSH2 0x813 JUMPI DUP1 PUSH4 0x8456CB59 EQ PUSH2 0x828 JUMPI PUSH1 0x0 DUP1 REVERT JUMPDEST DUP1 PUSH4 0x3BDF4AC6 GT PUSH2 0x2E2 JUMPI DUP1 PUSH4 0x622E4E78 GT PUSH2 0x275 JUMPI DUP1 PUSH4 0x6EC55DBC GT PUSH2 0x244 JUMPI DUP1 PUSH4 0x6EC55DBC EQ PUSH2 0x765 JUMPI DUP1 PUSH4 0x6ECD2306 EQ PUSH2 0x795 JUMPI DUP1 PUSH4 0x70A08231 EQ PUSH2 0x7A8 JUMPI DUP1 PUSH4 0x715018A6 EQ PUSH2 0x7C8 JUMPI PUSH1 0x0 DUP1 REVERT JUMPDEST DUP1 PUSH4 0x622E4E78 EQ PUSH2 0x6FB JUMPI DUP1 PUSH4 0x6352211E EQ PUSH2 0x71B JUMPI DUP1 PUSH4 0x6C0360EB EQ PUSH2 0x73B JUMPI DUP1 PUSH4 0x6CBB8985 EQ PUSH2 0x750 JUMPI PUSH1 0x0 DUP1 REVERT JUMPDEST DUP1 PUSH4 0x42966C68 GT PUSH2 0x2B1 JUMPI DUP1 PUSH4 0x42966C68 EQ PUSH2 0x67B JUMPI DUP1 PUSH4 0x55F804B3 EQ PUSH2 0x69B JUMPI DUP1 PUSH4 0x5C975ABB EQ PUSH2 0x6BB JUMPI DUP1 PUSH4 0x61869A93 EQ PUSH2 0x6D3 JUMPI PUSH1 0x0 DUP1 REVERT JUMPDEST DUP1 PUSH4 0x3BDF4AC6 EQ PUSH2 0x60E JUMPI DUP1 PUSH4 0x3CCFD60B EQ PUSH2 0x63E JUMPI DUP1 PUSH4 0x3F4BA83A EQ PUSH2 0x646 JUMPI DUP1 PUSH4 0x42842E0E EQ PUSH2 0x65B JUMPI PUSH1 0x0 DUP1 REVERT JUMPDEST DUP1 PUSH4 0x10969523 GT PUSH2 0x35A JUMPI DUP1 PUSH4 0x23B872DD GT PUSH2 0x329 JUMPI DUP1 PUSH4 0x23B872DD EQ PUSH2 0x599 JUMPI DUP1 PUSH4 0x30CC7AE0 EQ PUSH2 0x5B9 JUMPI DUP1 PUSH4 0x3549345E EQ PUSH2 0x5D9 JUMPI DUP1 PUSH4 0x3A367A67 EQ PUSH2 0x5F9 JUMPI PUSH1 0x0 DUP1 REVERT JUMPDEST DUP1 PUSH4 0x10969523 EQ PUSH2 0x524 JUMPI DUP1 PUSH4 0x18160DDD EQ PUSH2 0x544 JUMPI DUP1 PUSH4 0x20841A6A EQ PUSH2 0x559 JUMPI DUP1 PUSH4 0x23957C66 EQ PUSH2 0x579 JUMPI PUSH1 0x0 DUP1 REVERT JUMPDEST DUP1 PUSH4 0x88139A6 GT PUSH2 0x396 JUMPI DUP1 PUSH4 0x88139A6 EQ PUSH2 0x47A JUMPI DUP1 PUSH4 0x94E4072 EQ PUSH2 0x490 JUMPI DUP1 PUSH4 0x95EA7B3 EQ PUSH2 0x4D2 JUMPI DUP1 PUSH4 0xB0C312D EQ PUSH2 0x4F4 JUMPI PUSH1 0x0 DUP1 REVERT JUMPDEST DUP1 PUSH3 0xE7FA8 EQ PUSH2 0x3C7 JUMPI DUP1 PUSH4 0x1FFC9A7 EQ PUSH2 0x3F0 JUMPI DUP1 PUSH4 0x6FDDE03 EQ PUSH2 0x420 JUMPI DUP1 PUSH4 0x81812FC EQ PUSH2 0x442 JUMPI JUMPDEST PUSH1 0x0 DUP1 REVERT JUMPDEST CALLVALUE DUP1 ISZERO PUSH2 0x3D3 JUMPI PUSH1 0x0 DUP1 REVERT JUMPDEST POP PUSH2 0x3DD PUSH1 0x12 SLOAD DUP2 JUMP JUMPDEST PUSH1 0x40 MLOAD SWAP1 DUP2 MSTORE PUSH1 0x20 ADD JUMPDEST PUSH1 0x40 MLOAD DUP1 SWAP2 SUB SWAP1 RETURN JUMPDEST CALLVALUE DUP1 ISZERO PUSH2 0x3FC JUMPI PUSH1 0x0 DUP1 REVERT JUMPDEST POP PUSH2 0x410 PUSH2 0x40B CALLDATASIZE PUSH1 0x4 PUSH2 0x32FD JUMP JUMPDEST PUSH2 0xB70 JUMP JUMPDEST PUSH1 0x40 MLOAD SWAP1 ISZERO ISZERO DUP2 MSTORE PUSH1 0x20 ADD PUSH2 0x3E7 JUMP JUMPDEST CALLVALUE DUP1 ISZERO PUSH2 0x42C JUMPI PUSH1 0x0 DUP1 REVERT JUMPDEST POP PUSH2 0x435 PUSH2 0xBC2 JUMP JUMPDEST PUSH1 0x40 MLOAD PUSH2 0x3E7 SWAP2 SWAP1 PUSH2 0x3372 JUMP JUMPDEST CALLVALUE DUP1 ISZERO PUSH2 0x44E JUMPI PUSH1 0x0 DUP1 REVERT JUMPDEST POP PUSH2 0x462 PUSH2 0x45D CALLDATASIZE PUSH1 0x4 PUSH2 0x3385 JUMP JUMPDEST PUSH2 0xC54 JUMP JUMPDEST PUSH1 0x40 MLOAD PUSH1 0x1 PUSH1 0x1 PUSH1 0xA0 SHL SUB SWAP1 SWAP2 AND DUP2 MSTORE PUSH1 0x20 ADD PUSH2 0x3E7 JUMP JUMPDEST CALLVALUE DUP1 ISZERO PUSH2 0x486 JUMPI PUSH1 0x0 DUP1 REVERT JUMPDEST POP PUSH2 0x3DD PUSH1 0x16 SLOAD DUP2 JUMP JUMPDEST CALLVALUE DUP1 ISZERO PUSH2 0x49C JUMPI PUSH1 0x0 DUP1 REVERT JUMPDEST POP PUSH2 0x4C0 PUSH2 0x4AB CALLDATASIZE PUSH1 0x4 PUSH2 0x33BA JUMP JUMPDEST PUSH1 0x14 PUSH1 0x20 MSTORE PUSH1 0x0 SWAP1 DUP2 MSTORE PUSH1 0x40 SWAP1 KECCAK256 SLOAD PUSH1 0xFF AND DUP2 JUMP JUMPDEST PUSH1 0x40 MLOAD PUSH1 0xFF SWAP1 SWAP2 AND DUP2 MSTORE PUSH1 0x20 ADD PUSH2 0x3E7 JUMP JUMPDEST CALLVALUE DUP1 ISZERO PUSH2 0x4DE JUMPI PUSH1 0x0 DUP1 REVERT JUMPDEST POP PUSH2 0x4F2 PUSH2 0x4ED CALLDATASIZE PUSH1 0x4 PUSH2 0x33D5 JUMP JUMPDEST PUSH2 0xCEE JUMP JUMPDEST STOP JUMPDEST CALLVALUE DUP1 ISZERO PUSH2 0x500 JUMPI PUSH1 0x0 DUP1 REVERT JUMPDEST POP PUSH2 0x410 PUSH2 0x50F CALLDATASIZE PUSH1 0x4 PUSH2 0x33BA JUMP JUMPDEST PUSH1 0x10 PUSH1 0x20 MSTORE PUSH1 0x0 SWAP1 DUP2 MSTORE PUSH1 0x40 SWAP1 KECCAK256 SLOAD PUSH1 0xFF AND DUP2 JUMP JUMPDEST CALLVALUE DUP1 ISZERO PUSH2 0x530 JUMPI PUSH1 0x0 DUP1 REVERT JUMPDEST POP PUSH2 0x4F2 PUSH2 0x53F CALLDATASIZE PUSH1 0x4 PUSH2 0x349E JUMP JUMPDEST PUSH2 0xE04 JUMP JUMPDEST CALLVALUE DUP1 ISZERO PUSH2 0x550 JUMPI PUSH1 0x0 DUP1 REVERT JUMPDEST POP PUSH2 0x3DD PUSH2 0xEA5 JUMP JUMPDEST CALLVALUE DUP1 ISZERO PUSH2 0x565 JUMPI PUSH1 0x0 DUP1 REVERT JUMPDEST POP PUSH2 0x4F2 PUSH2 0x574 CALLDATASIZE PUSH1 0x4 PUSH2 0x3385 JUMP JUMPDEST PUSH2 0xEC1 JUMP JUMPDEST CALLVALUE DUP1 ISZERO PUSH2 0x585 JUMPI PUSH1 0x0 DUP1 REVERT JUMPDEST POP PUSH2 0x4F2 PUSH2 0x594 CALLDATASIZE PUSH1 0x4 PUSH2 0x357D JUMP JUMPDEST PUSH2 0xEF6 JUMP JUMPDEST CALLVALUE DUP1 ISZERO PUSH2 0x5A5 JUMPI PUSH1 0x0 DUP1 REVERT JUMPDEST POP PUSH2 0x4F2 PUSH2 0x5B4 CALLDATASIZE PUSH1 0x4 PUSH2 0x35B2 JUMP JUMPDEST PUSH2 0xFDD JUMP JUMPDEST CALLVALUE DUP1 ISZERO PUSH2 0x5C5 JUMPI PUSH1 0x0 DUP1 REVERT JUMPDEST POP PUSH2 0x4F2 PUSH2 0x5D4 CALLDATASIZE PUSH1 0x4 PUSH2 0x33BA JUMP JUMPDEST PUSH2 0x100F JUMP JUMPDEST CALLVALUE DUP1 ISZERO PUSH2 0x5E5 JUMPI PUSH1 0x0 DUP1 REVERT JUMPDEST POP PUSH2 0x4F2 PUSH2 0x5F4 CALLDATASIZE PUSH1 0x4 PUSH2 0x3385 JUMP JUMPDEST PUSH2 0x111F JUMP JUMPDEST CALLVALUE DUP1 ISZERO PUSH2 0x605 JUMPI PUSH1 0x0 DUP1 REVERT JUMPDEST POP PUSH2 0x435 PUSH2 0x11A3 JUMP JUMPDEST CALLVALUE DUP1 ISZERO PUSH2 0x61A JUMPI PUSH1 0x0 DUP1 REVERT JUMPDEST POP PUSH2 0x4C0 PUSH2 0x629 CALLDATASIZE PUSH1 0x4 PUSH2 0x33BA JUMP JUMPDEST PUSH1 0xF PUSH1 0x20 MSTORE PUSH1 0x0 SWAP1 DUP2 MSTORE PUSH1 0x40 SWAP1 KECCAK256 SLOAD PUSH1 0xFF AND DUP2 JUMP JUMPDEST PUSH2 0x4F2 PUSH2 0x1231 JUMP JUMPDEST CALLVALUE DUP1 ISZERO PUSH2 0x652 JUMPI PUSH1 0x0 DUP1 REVERT JUMPDEST POP PUSH2 0x4F2 PUSH2 0x13F6 JUMP JUMPDEST CALLVALUE DUP1 ISZERO PUSH2 0x667 JUMPI PUSH1 0x0 DUP1 REVERT JUMPDEST POP PUSH2 0x4F2 PUSH2 0x676 CALLDATASIZE PUSH1 0x4 PUSH2 0x35B2 JUMP JUMPDEST PUSH2 0x1430 JUMP JUMPDEST CALLVALUE DUP1 ISZERO PUSH2 0x687 JUMPI PUSH1 0x0 DUP1 REVERT JUMPDEST POP PUSH2 0x4F2 PUSH2 0x696 CALLDATASIZE PUSH1 0x4 PUSH2 0x3385 JUMP JUMPDEST PUSH2 0x144B JUMP JUMPDEST CALLVALUE DUP1 ISZERO PUSH2 0x6A7 JUMPI PUSH1 0x0 DUP1 REVERT JUMPDEST POP PUSH2 0x4F2 PUSH2 0x6B6 CALLDATASIZE PUSH1 0x4 PUSH2 0x349E JUMP JUMPDEST PUSH2 0x14C5 JUMP JUMPDEST CALLVALUE DUP1 ISZERO PUSH2 0x6C7 JUMPI PUSH1 0x0 DUP1 REVERT JUMPDEST POP PUSH1 0x6 SLOAD PUSH1 0xFF AND PUSH2 0x410 JUMP JUMPDEST CALLVALUE DUP1 ISZERO PUSH2 0x6DF JUMPI PUSH1 0x0 DUP1 REVERT JUMPDEST POP PUSH1 0xC SLOAD PUSH2 0x462 SWAP1 PUSH5 0x100000000 SWAP1 DIV PUSH1 0x1 PUSH1 0x1 PUSH1 0xA0 SHL SUB AND DUP2 JUMP JUMPDEST CALLVALUE DUP1 ISZERO PUSH2 0x707 JUMPI PUSH1 0x0 DUP1 REVERT JUMPDEST POP PUSH2 0x4F2 PUSH2 0x716 CALLDATASIZE PUSH1 0x4 PUSH2 0x35FF JUMP JUMPDEST PUSH2 0x1556 JUMP JUMPDEST CALLVALUE DUP1 ISZERO PUSH2 0x727 JUMPI PUSH1 0x0 DUP1 REVERT JUMPDEST POP PUSH2 0x462 PUSH2 0x736 CALLDATASIZE PUSH1 0x4 PUSH2 0x3385 JUMP JUMPDEST PUSH2 0x15A2 JUMP JUMPDEST CALLVALUE DUP1 ISZERO PUSH2 0x747 JUMPI PUSH1 0x0 DUP1 REVERT JUMPDEST POP PUSH2 0x435 PUSH2 0x1619 JUMP JUMPDEST CALLVALUE DUP1 ISZERO PUSH2 0x75C JUMPI PUSH1 0x0 DUP1 REVERT JUMPDEST POP PUSH2 0x462 PUSH2 0x1626 JUMP JUMPDEST CALLVALUE DUP1 ISZERO PUSH2 0x771 JUMPI PUSH1 0x0 DUP1 REVERT JUMPDEST POP PUSH2 0x4C0 PUSH2 0x780 CALLDATASIZE PUSH1 0x4 PUSH2 0x33BA JUMP JUMPDEST PUSH1 0xE PUSH1 0x20 MSTORE PUSH1 0x0 SWAP1 DUP2 MSTORE PUSH1 0x40 SWAP1 KECCAK256 SLOAD PUSH1 0xFF AND DUP2 JUMP JUMPDEST PUSH2 0x4F2 PUSH2 0x7A3 CALLDATASIZE PUSH1 0x4 PUSH2 0x35FF JUMP JUMPDEST PUSH2 0x1682 JUMP JUMPDEST CALLVALUE DUP1 ISZERO PUSH2 0x7B4 JUMPI PUSH1 0x0 DUP1 REVERT JUMPDEST POP PUSH2 0x3DD PUSH2 0x7C3 CALLDATASIZE PUSH1 0x4 PUSH2 0x33BA JUMP JUMPDEST PUSH2 0x1CD9 JUMP JUMPDEST CALLVALUE DUP1 ISZERO PUSH2 0x7D4 JUMPI PUSH1 0x0 DUP1 REVERT JUMPDEST POP PUSH2 0x4F2 PUSH2 0x1D60 JUMP JUMPDEST CALLVALUE DUP1 ISZERO PUSH2 0x7E9 JUMPI PUSH1 0x0 DUP1 REVERT JUMPDEST POP PUSH2 0x3DD PUSH1 0x18 SLOAD DUP2 JUMP JUMPDEST CALLVALUE DUP1 ISZERO PUSH2 0x7FF JUMPI PUSH1 0x0 DUP1 REVERT JUMPDEST POP PUSH2 0x4F2 PUSH2 0x80E CALLDATASIZE PUSH1 0x4 PUSH2 0x3385 JUMP JUMPDEST PUSH2 0x1D9A JUMP JUMPDEST CALLVALUE DUP1 ISZERO PUSH2 0x81F JUMPI PUSH1 0x0 DUP1 REVERT JUMPDEST POP PUSH2 0x4F2 PUSH2 0x1DCF JUMP JUMPDEST CALLVALUE DUP1 ISZERO PUSH2 0x834 JUMPI PUSH1 0x0 DUP1 REVERT JUMPDEST POP PUSH2 0x4F2 PUSH2 0x1ED7 JUMP JUMPDEST CALLVALUE DUP1 ISZERO PUSH2 0x849 JUMPI PUSH1 0x0 DUP1 REVERT JUMPDEST POP PUSH2 0x4F2 PUSH2 0x858 CALLDATASIZE PUSH1 0x4 PUSH2 0x361A JUMP JUMPDEST PUSH2 0x1F0F JUMP JUMPDEST CALLVALUE DUP1 ISZERO PUSH2 0x869 JUMPI PUSH1 0x0 DUP1 REVERT JUMPDEST POP PUSH1 0x6 SLOAD PUSH2 0x100 SWAP1 DIV PUSH1 0x1 PUSH1 0x1 PUSH1 0xA0 SHL SUB AND PUSH2 0x462 JUMP JUMPDEST CALLVALUE DUP1 ISZERO PUSH2 0x88C JUMPI PUSH1 0x0 DUP1 REVERT JUMPDEST POP PUSH2 0x435 PUSH2 0x2025 JUMP JUMPDEST CALLVALUE DUP1 ISZERO PUSH2 0x8A1 JUMPI PUSH1 0x0 DUP1 REVERT JUMPDEST POP PUSH1 0xC SLOAD PUSH2 0x410 SWAP1 PUSH4 0x1000000 SWAP1 DIV PUSH1 0xFF AND DUP2 JUMP JUMPDEST CALLVALUE DUP1 ISZERO PUSH2 0x8C2 JUMPI PUSH1 0x0 DUP1 REVERT JUMPDEST POP PUSH2 0x4F2 PUSH2 0x8D1 CALLDATASIZE PUSH1 0x4 PUSH2 0x36DC JUMP JUMPDEST PUSH2 0x2034 JUMP JUMPDEST CALLVALUE DUP1 ISZERO PUSH2 0x8E2 JUMPI PUSH1 0x0 DUP1 REVERT JUMPDEST POP PUSH1 0xD SLOAD PUSH2 0x462 SWAP1 PUSH1 0x1 PUSH1 0x1 PUSH1 0xA0 SHL SUB AND DUP2 JUMP JUMPDEST CALLVALUE DUP1 ISZERO PUSH2 0x902 JUMPI PUSH1 0x0 DUP1 REVERT JUMPDEST POP PUSH2 0x3DD PUSH1 0x11 SLOAD DUP2 JUMP JUMPDEST CALLVALUE DUP1 ISZERO PUSH2 0x918 JUMPI PUSH1 0x0 DUP1 REVERT JUMPDEST POP PUSH2 0x4F2 PUSH2 0x927 CALLDATASIZE PUSH1 0x4 PUSH2 0x3718 JUMP JUMPDEST PUSH2 0x203F JUMP JUMPDEST CALLVALUE DUP1 ISZERO PUSH2 0x938 JUMPI PUSH1 0x0 DUP1 REVERT JUMPDEST POP PUSH2 0x4F2 PUSH2 0x947 CALLDATASIZE PUSH1 0x4 PUSH2 0x374B JUMP JUMPDEST PUSH2 0x222B JUMP JUMPDEST CALLVALUE DUP1 ISZERO PUSH2 0x958 JUMPI PUSH1 0x0 DUP1 REVERT JUMPDEST POP PUSH1 0xC SLOAD PUSH2 0x410 SWAP1 PUSH3 0x10000 SWAP1 DIV PUSH1 0xFF AND DUP2 JUMP JUMPDEST CALLVALUE DUP1 ISZERO PUSH2 0x978 JUMPI PUSH1 0x0 DUP1 REVERT JUMPDEST POP PUSH2 0x3DD PUSH1 0x15 SLOAD DUP2 JUMP JUMPDEST CALLVALUE DUP1 ISZERO PUSH2 0x98E JUMPI PUSH1 0x0 DUP1 REVERT JUMPDEST POP PUSH2 0x435 PUSH2 0x2263 JUMP JUMPDEST CALLVALUE DUP1 ISZERO PUSH2 0x9A3 JUMPI PUSH1 0x0 DUP1 REVERT JUMPDEST POP PUSH2 0x435 PUSH2 0x2270 JUMP JUMPDEST CALLVALUE DUP1 ISZERO PUSH2 0x9B8 JUMPI PUSH1 0x0 DUP1 REVERT JUMPDEST POP PUSH2 0x435 PUSH2 0x9C7 CALLDATASIZE PUSH1 0x4 PUSH2 0x3385 JUMP JUMPDEST PUSH2 0x227D JUMP JUMPDEST CALLVALUE DUP1 ISZERO PUSH2 0x9D8 JUMPI PUSH1 0x0 DUP1 REVERT JUMPDEST POP PUSH2 0x3DD PUSH2 0x23D6 JUMP JUMPDEST CALLVALUE DUP1 ISZERO PUSH2 0x9ED JUMPI PUSH1 0x0 DUP1 REVERT JUMPDEST POP PUSH2 0x4F2 PUSH2 0x9FC CALLDATASIZE PUSH1 0x4 PUSH2 0x349E JUMP JUMPDEST PUSH2 0x242F JUMP JUMPDEST CALLVALUE DUP1 ISZERO PUSH2 0xA0D JUMPI PUSH1 0x0 DUP1 REVERT JUMPDEST POP PUSH2 0x4F2 PUSH2 0xA1C CALLDATASIZE PUSH1 0x4 PUSH2 0x349E JUMP JUMPDEST PUSH2 0x2472 JUMP JUMPDEST CALLVALUE DUP1 ISZERO PUSH2 0xA2D JUMPI PUSH1 0x0 DUP1 REVERT JUMPDEST POP PUSH2 0x3DD PUSH2 0x24B5 JUMP JUMPDEST CALLVALUE DUP1 ISZERO PUSH2 0xA42 JUMPI PUSH1 0x0 DUP1 REVERT JUMPDEST POP PUSH1 0xC SLOAD PUSH2 0x4C0 SWAP1 PUSH2 0x100 SWAP1 DIV PUSH1 0xFF AND DUP2 JUMP JUMPDEST CALLVALUE DUP1 ISZERO PUSH2 0xA61 JUMPI PUSH1 0x0 DUP1 REVERT JUMPDEST POP PUSH2 0x4F2 PUSH2 0xA70 CALLDATASIZE PUSH1 0x4 PUSH2 0x37C7 JUMP JUMPDEST PUSH2 0x24CC JUMP JUMPDEST CALLVALUE DUP1 ISZERO PUSH2 0xA81 JUMPI PUSH1 0x0 DUP1 REVERT JUMPDEST POP PUSH1 0x13 SLOAD PUSH2 0x4C0 SWAP1 PUSH1 0xFF AND DUP2 JUMP JUMPDEST CALLVALUE DUP1 ISZERO PUSH2 0xA9B JUMPI PUSH1 0x0 DUP1 REVERT JUMPDEST POP PUSH2 0x4F2 PUSH2 0x253A JUMP JUMPDEST CALLVALUE DUP1 ISZERO PUSH2 0xAB0 JUMPI PUSH1 0x0 DUP1 REVERT JUMPDEST POP PUSH2 0x410 PUSH2 0xABF CALLDATASIZE PUSH1 0x4 PUSH2 0x37C7 JUMP JUMPDEST PUSH1 0x1 PUSH1 0x1 PUSH1 0xA0 SHL SUB SWAP2 DUP3 AND PUSH1 0x0 SWAP1 DUP2 MSTORE PUSH1 0x5 PUSH1 0x20 SWAP1 DUP2 MSTORE PUSH1 0x40 DUP1 DUP4 KECCAK256 SWAP4 SWAP1 SWAP5 AND DUP3 MSTORE SWAP2 SWAP1 SWAP2 MSTORE KECCAK256 SLOAD PUSH1 0xFF AND SWAP1 JUMP JUMPDEST CALLVALUE DUP1 ISZERO PUSH2 0xAF9 JUMPI PUSH1 0x0 DUP1 REVERT JUMPDEST POP PUSH2 0x4F2 PUSH2 0xB08 CALLDATASIZE PUSH1 0x4 PUSH2 0x33BA JUMP JUMPDEST PUSH2 0x2634 JUMP JUMPDEST CALLVALUE DUP1 ISZERO PUSH2 0xB19 JUMPI PUSH1 0x0 DUP1 REVERT JUMPDEST POP PUSH2 0x4F2 PUSH2 0x26ED JUMP JUMPDEST CALLVALUE DUP1 ISZERO PUSH2 0xB2E JUMPI PUSH1 0x0 DUP1 REVERT JUMPDEST POP PUSH2 0x4F2 PUSH2 0xB3D CALLDATASIZE PUSH1 0x4 PUSH2 0x33BA JUMP JUMPDEST PUSH2 0x27D0 JUMP JUMPDEST CALLVALUE DUP1 ISZERO PUSH2 0xB4E JUMPI PUSH1 0x0 DUP1 REVERT JUMPDEST POP PUSH2 0x3DD PUSH1 0x17 SLOAD DUP2 JUMP JUMPDEST CALLVALUE DUP1 ISZERO PUSH2 0xB64 JUMPI PUSH1 0x0 DUP1 REVERT JUMPDEST POP PUSH1 0xC SLOAD PUSH1 0xFF AND PUSH2 0x4C0 JUMP JUMPDEST PUSH1 0x0 PUSH1 0x1 PUSH1 0x1 PUSH1 0xE0 SHL SUB NOT DUP3 AND PUSH4 0x80AC58CD PUSH1 0xE0 SHL EQ DUP1 PUSH2 0xBA1 JUMPI POP PUSH1 0x1 PUSH1 0x1 PUSH1 0xE0 SHL SUB NOT DUP3 AND PUSH4 0x5B5E139F PUSH1 0xE0 SHL EQ JUMPDEST DUP1 PUSH2 0xBBC JUMPI POP PUSH4 0x1FFC9A7 PUSH1 0xE0 SHL PUSH1 0x1 PUSH1 0x1 PUSH1 0xE0 SHL SUB NOT DUP4 AND EQ JUMPDEST SWAP3 SWAP2 POP POP JUMP JUMPDEST PUSH1 0x60 PUSH1 0x0 DUP1 SLOAD PUSH2 0xBD1 SWAP1 PUSH2 0x37E3 JUMP JUMPDEST DUP1 PUSH1 0x1F ADD PUSH1 0x20 DUP1 SWAP2 DIV MUL PUSH1 0x20 ADD PUSH1 0x40 MLOAD SWAP1 DUP2 ADD PUSH1 0x40 MSTORE DUP1 SWAP3 SWAP2 SWAP1 DUP2 DUP2 MSTORE PUSH1 0x20 ADD DUP3 DUP1 SLOAD PUSH2 0xBFD SWAP1 PUSH2 0x37E3 JUMP JUMPDEST DUP1 ISZERO PUSH2 0xC4A JUMPI DUP1 PUSH1 0x1F LT PUSH2 0xC1F JUMPI PUSH2 0x100 DUP1 DUP4 SLOAD DIV MUL DUP4 MSTORE SWAP2 PUSH1 0x20 ADD SWAP2 PUSH2 0xC4A JUMP JUMPDEST DUP3 ADD SWAP2 SWAP1 PUSH1 0x0 MSTORE PUSH1 0x20 PUSH1 0x0 KECCAK256 SWAP1 JUMPDEST DUP2 SLOAD DUP2 MSTORE SWAP1 PUSH1 0x1 ADD SWAP1 PUSH1 0x20 ADD DUP1 DUP4 GT PUSH2 0xC2D JUMPI DUP3 SWAP1 SUB PUSH1 0x1F AND DUP3 ADD SWAP2 JUMPDEST POP POP POP POP POP SWAP1 POP SWAP1 JUMP JUMPDEST PUSH1 0x0 DUP2 DUP2 MSTORE PUSH1 0x2 PUSH1 0x20 MSTORE PUSH1 0x40 DUP2 KECCAK256 SLOAD PUSH1 0x1 PUSH1 0x1 PUSH1 0xA0 SHL SUB AND PUSH2 0xCD2 JUMPI PUSH1 0x40 MLOAD PUSH3 0x461BCD PUSH1 0xE5 SHL DUP2 MSTORE PUSH1 0x20 PUSH1 0x4 DUP3 ADD MSTORE PUSH1 0x2C PUSH1 0x24 DUP3 ADD MSTORE PUSH32 0x4552433732313A20617070726F76656420717565727920666F72206E6F6E6578 PUSH1 0x44 DUP3 ADD MSTORE PUSH12 0x34B9BA32B73A103A37B5B2B7 PUSH1 0xA1 SHL PUSH1 0x64 DUP3 ADD MSTORE PUSH1 0x84 ADD JUMPDEST PUSH1 0x40 MLOAD DUP1 SWAP2 SUB SWAP1 REVERT JUMPDEST POP PUSH1 0x0 SWAP1 DUP2 MSTORE PUSH1 0x4 PUSH1 0x20 MSTORE PUSH1 0x40 SWAP1 KECCAK256 SLOAD PUSH1 0x1 PUSH1 0x1 PUSH1 0xA0 SHL SUB AND SWAP1 JUMP JUMPDEST PUSH1 0x0 PUSH2 0xCF9 DUP3 PUSH2 0x15A2 JUMP JUMPDEST SWAP1 POP DUP1 PUSH1 0x1 PUSH1 0x1 PUSH1 0xA0 SHL SUB AND DUP4 PUSH1 0x1 PUSH1 0x1 PUSH1 0xA0 SHL SUB AND EQ ISZERO PUSH2 0xD67 JUMPI PUSH1 0x40 MLOAD PUSH3 0x461BCD PUSH1 0xE5 SHL DUP2 MSTORE PUSH1 0x20 PUSH1 0x4 DUP3 ADD MSTORE PUSH1 0x21 PUSH1 0x24 DUP3 ADD MSTORE PUSH32 0x4552433732313A20617070726F76616C20746F2063757272656E74206F776E65 PUSH1 0x44 DUP3 ADD MSTORE PUSH1 0x39 PUSH1 0xF9 SHL PUSH1 0x64 DUP3 ADD MSTORE PUSH1 0x84 ADD PUSH2 0xCC9 JUMP JUMPDEST CALLER PUSH1 0x1 PUSH1 0x1 PUSH1 0xA0 SHL SUB DUP3 AND EQ DUP1 PUSH2 0xD83 JUMPI POP PUSH2 0xD83 DUP2 CALLER PUSH2 0xABF JUMP JUMPDEST PUSH2 0xDF5 JUMPI PUSH1 0x40 MLOAD PUSH3 0x461BCD PUSH1 0xE5 SHL DUP2 MSTORE PUSH1 0x20 PUSH1 0x4 DUP3 ADD MSTORE PUSH1 0x38 PUSH1 0x24 DUP3 ADD MSTORE PUSH32 0x4552433732313A20617070726F76652063616C6C6572206973206E6F74206F77 PUSH1 0x44 DUP3 ADD MSTORE PUSH32 0x6E6572206E6F7220617070726F76656420666F7220616C6C0000000000000000 PUSH1 0x64 DUP3 ADD MSTORE PUSH1 0x84 ADD PUSH2 0xCC9 JUMP JUMPDEST PUSH2 0xDFF DUP4 DUP4 PUSH2 0x2877 JUMP JUMPDEST POP POP POP JUMP JUMPDEST PUSH1 0x6 SLOAD PUSH1 0x1 PUSH1 0x1 PUSH1 0xA0 SHL SUB PUSH2 0x100 SWAP1 SWAP2 DIV AND CALLER EQ PUSH2 0xE34 JUMPI PUSH1 0x40 MLOAD PUSH3 0x461BCD PUSH1 0xE5 SHL DUP2 MSTORE PUSH1 0x4 ADD PUSH2 0xCC9 SWAP1 PUSH2 0x381E JUMP JUMPDEST PUSH1 0xC SLOAD PUSH4 0x1000000 SWAP1 DIV PUSH1 0xFF AND ISZERO PUSH2 0xE8E JUMPI PUSH1 0x40 MLOAD PUSH3 0x461BCD PUSH1 0xE5 SHL DUP2 MSTORE PUSH1 0x20 PUSH1 0x4 DUP3 ADD MSTORE PUSH1 0x1A PUSH1 0x24 DUP3 ADD MSTORE PUSH32 0x50726F76656E616E636520686173682069732066726F7A656E2E000000000000 PUSH1 0x44 DUP3 ADD MSTORE PUSH1 0x64 ADD PUSH2 0xCC9 JUMP JUMPDEST DUP1 MLOAD PUSH2 0xEA1 SWAP1 PUSH1 0x8 SWAP1 PUSH1 0x20 DUP5 ADD SWAP1 PUSH2 0x324E JUMP JUMPDEST POP POP JUMP JUMPDEST PUSH1 0x0 PUSH1 0x1 PUSH2 0xEB2 PUSH1 0x7 SLOAD SWAP1 JUMP JUMPDEST PUSH2 0xEBC SWAP2 SWAP1 PUSH2 0x3869 JUMP JUMPDEST SWAP1 POP SWAP1 JUMP JUMPDEST PUSH1 0x6 SLOAD PUSH1 0x1 PUSH1 0x1 PUSH1 0xA0 SHL SUB PUSH2 0x100 SWAP1 SWAP2 DIV AND CALLER EQ PUSH2 0xEF1 JUMPI PUSH1 0x40 MLOAD PUSH3 0x461BCD PUSH1 0xE5 SHL DUP2 MSTORE PUSH1 0x4 ADD PUSH2 0xCC9 SWAP1 PUSH2 0x381E JUMP JUMPDEST PUSH1 0x15 SSTORE JUMP JUMPDEST PUSH1 0x6 SLOAD PUSH1 0x1 PUSH1 0x1 PUSH1 0xA0 SHL SUB PUSH2 0x100 SWAP1 SWAP2 DIV AND CALLER EQ PUSH2 0xF26 JUMPI PUSH1 0x40 MLOAD PUSH3 0x461BCD PUSH1 0xE5 SHL DUP2 MSTORE PUSH1 0x4 ADD PUSH2 0xCC9 SWAP1 PUSH2 0x381E JUMP JUMPDEST PUSH1 0xC SLOAD PUSH1 0x3 PUSH1 0xFF SWAP1 SWAP2 AND LT PUSH2 0xF75 JUMPI PUSH1 0x40 MLOAD PUSH3 0x461BCD PUSH1 0xE5 SHL DUP2 MSTORE PUSH1 0x20 PUSH1 0x4 DUP3 ADD MSTORE PUSH1 0x15 PUSH1 0x24 DUP3 ADD MSTORE PUSH21 0x283932B9B0B6329034B99031B7B731B63AB232B217 PUSH1 0x59 SHL PUSH1 0x44 DUP3 ADD MSTORE PUSH1 0x64 ADD PUSH2 0xCC9 JUMP JUMPDEST PUSH1 0x0 JUMPDEST DUP2 MLOAD DUP2 LT ISZERO PUSH2 0xEA1 JUMPI PUSH1 0x1 PUSH1 0x10 PUSH1 0x0 DUP5 DUP5 DUP2 MLOAD DUP2 LT PUSH2 0xF99 JUMPI PUSH2 0xF99 PUSH2 0x3880 JUMP JUMPDEST PUSH1 0x20 SWAP1 DUP2 MUL SWAP2 SWAP1 SWAP2 ADD DUP2 ADD MLOAD PUSH1 0x1 PUSH1 0x1 PUSH1 0xA0 SHL SUB AND DUP3 MSTORE DUP2 ADD SWAP2 SWAP1 SWAP2 MSTORE PUSH1 0x40 ADD PUSH1 0x0 KECCAK256 DUP1 SLOAD PUSH1 0xFF NOT AND SWAP2 ISZERO ISZERO SWAP2 SWAP1 SWAP2 OR SWAP1 SSTORE DUP1 PUSH2 0xFD5 DUP2 PUSH2 0x3896 JUMP JUMPDEST SWAP2 POP POP PUSH2 0xF78 JUMP JUMPDEST PUSH2 0xFE8 CALLER JUMPDEST DUP3 PUSH2 0x28E5 JUMP JUMPDEST PUSH2 0x1004 JUMPI PUSH1 0x40 MLOAD PUSH3 0x461BCD PUSH1 0xE5 SHL DUP2 MSTORE PUSH1 0x4 ADD PUSH2 0xCC9 SWAP1 PUSH2 0x38B1 JUMP JUMPDEST PUSH2 0xDFF DUP4 DUP4 DUP4 PUSH2 0x29DC JUMP JUMPDEST PUSH1 0x6 SLOAD PUSH1 0x1 PUSH1 0x1 PUSH1 0xA0 SHL SUB PUSH2 0x100 SWAP1 SWAP2 DIV AND CALLER EQ PUSH2 0x103F JUMPI PUSH1 0x40 MLOAD PUSH3 0x461BCD PUSH1 0xE5 SHL DUP2 MSTORE PUSH1 0x4 ADD PUSH2 0xCC9 SWAP1 PUSH2 0x381E JUMP JUMPDEST PUSH1 0xC SLOAD PUSH1 0x2 PUSH1 0xFF SWAP1 SWAP2 AND LT PUSH2 0x1096 JUMPI PUSH1 0x40 MLOAD PUSH3 0x461BCD PUSH1 0xE5 SHL DUP2 MSTORE PUSH1 0x20 PUSH1 0x4 DUP3 ADD MSTORE PUSH1 0x1C PUSH1 0x24 DUP3 ADD MSTORE PUSH32 0x57686974656C6973742073616C6520697320636F6E636C756465642E00000000 PUSH1 0x44 DUP3 ADD MSTORE PUSH1 0x64 ADD PUSH2 0xCC9 JUMP JUMPDEST PUSH1 0x1 PUSH1 0x1 PUSH1 0xA0 SHL SUB DUP2 AND PUSH1 0x0 SWAP1 DUP2 MSTORE PUSH1 0xE PUSH1 0x20 MSTORE PUSH1 0x40 SWAP1 KECCAK256 SLOAD PUSH1 0xFF AND PUSH2 0x10FE JUMPI PUSH1 0x40 MLOAD PUSH3 0x461BCD PUSH1 0xE5 SHL DUP2 MSTORE PUSH1 0x20 PUSH1 0x4 DUP3 ADD MSTORE PUSH1 0x19 PUSH1 0x24 DUP3 ADD MSTORE PUSH32 0x55736572206973206E6F74206F6E2077686974656C6973742E00000000000000 PUSH1 0x44 DUP3 ADD MSTORE PUSH1 0x64 ADD PUSH2 0xCC9 JUMP JUMPDEST PUSH1 0x1 PUSH1 0x1 PUSH1 0xA0 SHL SUB AND PUSH1 0x0 SWAP1 DUP2 MSTORE PUSH1 0xE PUSH1 0x20 MSTORE PUSH1 0x40 SWAP1 KECCAK256 DUP1 SLOAD PUSH1 0xFF NOT AND SWAP1 SSTORE JUMP JUMPDEST PUSH1 0x6 SLOAD PUSH1 0x1 PUSH1 0x1 PUSH1 0xA0 SHL SUB PUSH2 0x100 SWAP1 SWAP2 DIV AND CALLER EQ PUSH2 0x114F JUMPI PUSH1 0x40 MLOAD PUSH3 0x461BCD PUSH1 0xE5 SHL DUP2 MSTORE PUSH1 0x4 ADD PUSH2 0xCC9 SWAP1 PUSH2 0x381E JUMP JUMPDEST PUSH1 0xC SLOAD PUSH1 0x3 PUSH1 0xFF SWAP1 SWAP2 AND LT PUSH2 0x119E JUMPI PUSH1 0x40 MLOAD PUSH3 0x461BCD PUSH1 0xE5 SHL DUP2 MSTORE PUSH1 0x20 PUSH1 0x4 DUP3 ADD MSTORE PUSH1 0x15 PUSH1 0x24 DUP3 ADD MSTORE PUSH21 0x283932B9B0B6329034B99031B7B731B63AB232B217 PUSH1 0x59 SHL PUSH1 0x44 DUP3 ADD MSTORE PUSH1 0x64 ADD PUSH2 0xCC9 JUMP JUMPDEST PUSH1 0x12 SSTORE JUMP JUMPDEST PUSH1 0xA DUP1 SLOAD PUSH2 0x11B0 SWAP1 PUSH2 0x37E3 JUMP JUMPDEST DUP1 PUSH1 0x1F ADD PUSH1 0x20 DUP1 SWAP2 DIV MUL PUSH1 0x20 ADD PUSH1 0x40 MLOAD SWAP1 DUP2 ADD PUSH1 0x40 MSTORE DUP1 SWAP3 SWAP2 SWAP1 DUP2 DUP2 MSTORE PUSH1 0x20 ADD DUP3 DUP1 SLOAD PUSH2 0x11DC SWAP1 PUSH2 0x37E3 JUMP JUMPDEST DUP1 ISZERO PUSH2 0x1229 JUMPI DUP1 PUSH1 0x1F LT PUSH2 0x11FE JUMPI PUSH2 0x100 DUP1 DUP4 SLOAD DIV MUL DUP4 MSTORE SWAP2 PUSH1 0x20 ADD SWAP2 PUSH2 0x1229 JUMP JUMPDEST DUP3 ADD SWAP2 SWAP1 PUSH1 0x0 MSTORE PUSH1 0x20 PUSH1 0x0 KECCAK256 SWAP1 JUMPDEST DUP2 SLOAD DUP2 MSTORE SWAP1 PUSH1 0x1 ADD SWAP1 PUSH1 0x20 ADD DUP1 DUP4 GT PUSH2 0x120C JUMPI DUP3 SWAP1 SUB PUSH1 0x1F AND DUP3 ADD SWAP2 JUMPDEST POP POP POP POP POP DUP2 JUMP JUMPDEST PUSH1 0x6 SLOAD PUSH1 0x1 PUSH1 0x1 PUSH1 0xA0 SHL SUB PUSH2 0x100 SWAP1 SWAP2 DIV AND CALLER EQ PUSH2 0x1261 JUMPI PUSH1 0x40 MLOAD PUSH3 0x461BCD PUSH1 0xE5 SHL DUP2 MSTORE PUSH1 0x4 ADD PUSH2 0xCC9 SWAP1 PUSH2 0x381E JUMP JUMPDEST PUSH1 0x0 SELFBALANCE GT PUSH2 0x12AA JUMPI PUSH1 0x40 MLOAD PUSH3 0x461BCD PUSH1 0xE5 SHL DUP2 MSTORE PUSH1 0x20 PUSH1 0x4 DUP3 ADD MSTORE PUSH1 0x16 PUSH1 0x24 DUP3 ADD MSTORE PUSH22 0x21B7B73A3930B1BA103130B630B731B29034B9901817 PUSH1 0x51 SHL PUSH1 0x44 DUP3 ADD MSTORE PUSH1 0x64 ADD PUSH2 0xCC9 JUMP JUMPDEST PUSH1 0xC SLOAD PUSH1 0x0 SWAP1 PUSH5 0x100000000 SWAP1 DIV PUSH1 0x1 PUSH1 0x1 PUSH1 0xA0 SHL SUB AND PUSH2 0x12D7 PUSH1 0x64 PUSH2 0x12D1 SELFBALANCE PUSH1 0x32 PUSH2 0x2B87 JUMP JUMPDEST SWAP1 PUSH2 0x2B9A JUMP JUMPDEST PUSH1 0x40 MLOAD PUSH1 0x0 DUP2 DUP2 DUP2 DUP6 DUP8 GAS CALL SWAP3 POP POP POP RETURNDATASIZE DUP1 PUSH1 0x0 DUP2 EQ PUSH2 0x1313 JUMPI PUSH1 0x40 MLOAD SWAP2 POP PUSH1 0x1F NOT PUSH1 0x3F RETURNDATASIZE ADD AND DUP3 ADD PUSH1 0x40 MSTORE RETURNDATASIZE DUP3 MSTORE RETURNDATASIZE PUSH1 0x0 PUSH1 0x20 DUP5 ADD RETURNDATACOPY PUSH2 0x1318 JUMP JUMPDEST PUSH1 0x60 SWAP2 POP JUMPDEST POP POP SWAP1 POP DUP1 PUSH2 0x135E JUMPI PUSH1 0x40 MLOAD PUSH3 0x461BCD PUSH1 0xE5 SHL DUP2 MSTORE PUSH1 0x20 PUSH1 0x4 DUP3 ADD MSTORE PUSH1 0x12 PUSH1 0x24 DUP3 ADD MSTORE PUSH18 0x1DDA5D1A191C985DDB080C4819985A5B1959 PUSH1 0x72 SHL PUSH1 0x44 DUP3 ADD MSTORE PUSH1 0x64 ADD PUSH2 0xCC9 JUMP JUMPDEST PUSH1 0xD SLOAD PUSH1 0x40 MLOAD PUSH1 0x0 SWAP2 PUSH1 0x1 PUSH1 0x1 PUSH1 0xA0 SHL SUB AND SWAP1 SELFBALANCE SWAP1 DUP4 DUP2 DUP2 DUP2 DUP6 DUP8 GAS CALL SWAP3 POP POP POP RETURNDATASIZE DUP1 PUSH1 0x0 DUP2 EQ PUSH2 0x13AB JUMPI PUSH1 0x40 MLOAD SWAP2 POP PUSH1 0x1F NOT PUSH1 0x3F RETURNDATASIZE ADD AND DUP3 ADD PUSH1 0x40 MSTORE RETURNDATASIZE DUP3 MSTORE RETURNDATASIZE PUSH1 0x0 PUSH1 0x20 DUP5 ADD RETURNDATACOPY PUSH2 0x13B0 JUMP JUMPDEST PUSH1 0x60 SWAP2 POP JUMPDEST POP POP SWAP1 POP DUP1 PUSH2 0xEA1 JUMPI PUSH1 0x40 MLOAD PUSH3 0x461BCD PUSH1 0xE5 SHL DUP2 MSTORE PUSH1 0x20 PUSH1 0x4 DUP3 ADD MSTORE PUSH1 0x12 PUSH1 0x24 DUP3 ADD MSTORE PUSH18 0x1DDA5D1A191C985DDB080C8819985A5B1959 PUSH1 0x72 SHL PUSH1 0x44 DUP3 ADD MSTORE PUSH1 0x64 ADD PUSH2 0xCC9 JUMP JUMPDEST PUSH1 0x6 SLOAD PUSH1 0x1 PUSH1 0x1 PUSH1 0xA0 SHL SUB PUSH2 0x100 SWAP1 SWAP2 DIV AND CALLER EQ PUSH2 0x1426 JUMPI PUSH1 0x40 MLOAD PUSH3 0x461BCD PUSH1 0xE5 SHL DUP2 MSTORE PUSH1 0x4 ADD PUSH2 0xCC9 SWAP1 PUSH2 0x381E JUMP JUMPDEST PUSH2 0x142E PUSH2 0x2BA6 JUMP JUMPDEST JUMP JUMPDEST PUSH2 0xDFF DUP4 DUP4 DUP4 PUSH1 0x40 MLOAD DUP1 PUSH1 0x20 ADD PUSH1 0x40 MSTORE DUP1 PUSH1 0x0 DUP2 MSTORE POP PUSH2 0x222B JUMP JUMPDEST PUSH2 0x1454 CALLER PUSH2 0xFE2 JUMP JUMPDEST PUSH2 0x14B9 JUMPI PUSH1 0x40 MLOAD PUSH3 0x461BCD PUSH1 0xE5 SHL DUP2 MSTORE PUSH1 0x20 PUSH1 0x4 DUP3 ADD MSTORE PUSH1 0x30 PUSH1 0x24 DUP3 ADD MSTORE PUSH32 0x4552433732314275726E61626C653A2063616C6C6572206973206E6F74206F77 PUSH1 0x44 DUP3 ADD MSTORE PUSH16 0x1B995C881B9BDC88185C1C1C9BDD9959 PUSH1 0x82 SHL PUSH1 0x64 DUP3 ADD MSTORE PUSH1 0x84 ADD PUSH2 0xCC9 JUMP JUMPDEST PUSH2 0x14C2 DUP2 PUSH2 0x2C39 JUMP JUMPDEST POP JUMP JUMPDEST PUSH1 0x6 SLOAD PUSH1 0x1 PUSH1 0x1 PUSH1 0xA0 SHL SUB PUSH2 0x100 SWAP1 SWAP2 DIV AND CALLER EQ PUSH2 0x14F5 JUMPI PUSH1 0x40 MLOAD PUSH3 0x461BCD PUSH1 0xE5 SHL DUP2 MSTORE PUSH1 0x4 ADD PUSH2 0xCC9 SWAP1 PUSH2 0x381E JUMP JUMPDEST PUSH1 0xC SLOAD PUSH3 0x10000 SWAP1 DIV PUSH1 0xFF AND ISZERO PUSH2 0x1543 JUMPI PUSH1 0x40 MLOAD PUSH3 0x461BCD PUSH1 0xE5 SHL DUP2 MSTORE PUSH1 0x20 PUSH1 0x4 DUP3 ADD MSTORE PUSH1 0x12 PUSH1 0x24 DUP3 ADD MSTORE PUSH18 0x2130B9B2AAA9249034B990333937BD32B717 PUSH1 0x71 SHL PUSH1 0x44 DUP3 ADD MSTORE PUSH1 0x64 ADD PUSH2 0xCC9 JUMP JUMPDEST DUP1 MLOAD PUSH2 0xEA1 SWAP1 PUSH1 0x9 SWAP1 PUSH1 0x20 DUP5 ADD SWAP1 PUSH2 0x324E JUMP JUMPDEST PUSH1 0x6 SLOAD PUSH1 0x1 PUSH1 0x1 PUSH1 0xA0 SHL SUB PUSH2 0x100 SWAP1 SWAP2 DIV AND CALLER EQ PUSH2 0x1586 JUMPI PUSH1 0x40 MLOAD PUSH3 0x461BCD PUSH1 0xE5 SHL DUP2 MSTORE PUSH1 0x4 ADD PUSH2 0xCC9 SWAP1 PUSH2 0x381E JUMP JUMPDEST PUSH1 0xC DUP1 SLOAD PUSH1 0xFF SWAP1 SWAP3 AND PUSH2 0x100 MUL PUSH2 0xFF00 NOT SWAP1 SWAP3 AND SWAP2 SWAP1 SWAP2 OR SWAP1 SSTORE JUMP JUMPDEST PUSH1 0x0 DUP2 DUP2 MSTORE PUSH1 0x2 PUSH1 0x20 MSTORE PUSH1 0x40 DUP2 KECCAK256 SLOAD PUSH1 0x1 PUSH1 0x1 PUSH1 0xA0 SHL SUB AND DUP1 PUSH2 0xBBC JUMPI PUSH1 0x40 MLOAD PUSH3 0x461BCD PUSH1 0xE5 SHL DUP2 MSTORE PUSH1 0x20 PUSH1 0x4 DUP3 ADD MSTORE PUSH1 0x29 PUSH1 0x24 DUP3 ADD MSTORE PUSH32 0x4552433732313A206F776E657220717565727920666F72206E6F6E6578697374 PUSH1 0x44 DUP3 ADD MSTORE PUSH9 0x32B73A103A37B5B2B7 PUSH1 0xB9 SHL PUSH1 0x64 DUP3 ADD MSTORE PUSH1 0x84 ADD PUSH2 0xCC9 JUMP JUMPDEST PUSH1 0x9 DUP1 SLOAD PUSH2 0x11B0 SWAP1 PUSH2 0x37E3 JUMP JUMPDEST PUSH1 0x0 DUP1 PUSH2 0x1631 PUSH2 0xEA5 JUMP JUMPDEST GT PUSH2 0x1677 JUMPI PUSH1 0x40 MLOAD PUSH3 0x461BCD PUSH1 0xE5 SHL DUP2 MSTORE PUSH1 0x20 PUSH1 0x4 DUP3 ADD MSTORE PUSH1 0x16 PUSH1 0x24 DUP3 ADD MSTORE PUSH22 0x27379031B93CB83A34B21032BC34B9BA39903CB2BA17 PUSH1 0x51 SHL PUSH1 0x44 DUP3 ADD MSTORE PUSH1 0x64 ADD PUSH2 0xCC9 JUMP JUMPDEST PUSH2 0xEBC PUSH2 0x736 PUSH2 0xEA5 JUMP JUMPDEST PUSH1 0x6 SLOAD PUSH1 0xFF AND ISZERO PUSH2 0x16A5 JUMPI PUSH1 0x40 MLOAD PUSH3 0x461BCD PUSH1 0xE5 SHL DUP2 MSTORE PUSH1 0x4 ADD PUSH2 0xCC9 SWAP1 PUSH2 0x3902 JUMP JUMPDEST PUSH1 0xC SLOAD PUSH1 0xFF AND PUSH2 0x1712 JUMPI PUSH1 0x40 MLOAD PUSH3 0x461BCD PUSH1 0xE5 SHL DUP2 MSTORE PUSH1 0x20 PUSH1 0x4 DUP3 ADD MSTORE PUSH1 0x32 PUSH1 0x24 DUP3 ADD MSTORE PUSH32 0x4D696E74696E67206E6F7420696E697469617465642E2043757272656E6C7920 PUSH1 0x44 DUP3 ADD MSTORE PUSH18 0x37B71039BA30B3B29018101434B734BA1497 PUSH1 0x71 SHL PUSH1 0x64 DUP3 ADD MSTORE PUSH1 0x84 ADD PUSH2 0xCC9 JUMP JUMPDEST PUSH1 0x0 DUP2 PUSH1 0xFF AND GT PUSH2 0x1770 JUMPI PUSH1 0x40 MLOAD PUSH3 0x461BCD PUSH1 0xE5 SHL DUP2 MSTORE PUSH1 0x20 PUSH1 0x4 DUP3 ADD MSTORE PUSH1 0x22 PUSH1 0x24 DUP3 ADD MSTORE PUSH32 0x4D696E7420616D6F756E74206D7573742062652067726561746572207468616E PUSH1 0x44 DUP3 ADD MSTORE PUSH2 0x203 PUSH1 0xF4 SHL PUSH1 0x64 DUP3 ADD MSTORE PUSH1 0x84 ADD PUSH2 0xCC9 JUMP JUMPDEST PUSH1 0xC SLOAD PUSH1 0xFF PUSH2 0x100 SWAP1 SWAP2 DIV DUP2 AND SWAP1 DUP3 AND GT ISZERO PUSH2 0x179E JUMPI PUSH1 0x40 MLOAD PUSH3 0x461BCD PUSH1 0xE5 SHL DUP2 MSTORE PUSH1 0x4 ADD PUSH2 0xCC9 SWAP1 PUSH2 0x392C JUMP JUMPDEST PUSH1 0xC SLOAD PUSH1 0xFF AND PUSH1 0x1 EQ ISZERO PUSH2 0x18DE JUMPI CALLER PUSH1 0x0 SWAP1 DUP2 MSTORE PUSH1 0xE PUSH1 0x20 MSTORE PUSH1 0x40 SWAP1 KECCAK256 SLOAD PUSH1 0xFF AND PUSH2 0x180B JUMPI PUSH1 0x40 MLOAD PUSH3 0x461BCD PUSH1 0xE5 SHL DUP2 MSTORE PUSH1 0x20 PUSH1 0x4 DUP3 ADD MSTORE PUSH1 0x17 PUSH1 0x24 DUP3 ADD MSTORE PUSH32 0x4D696E746572206E6F742077686974656C69737465642E000000000000000000 PUSH1 0x44 DUP3 ADD MSTORE PUSH1 0x64 ADD PUSH2 0xCC9 JUMP JUMPDEST CALLER PUSH1 0x0 SWAP1 DUP2 MSTORE PUSH1 0xE PUSH1 0x20 SWAP1 DUP2 MSTORE PUSH1 0x40 DUP1 DUP4 KECCAK256 SLOAD PUSH1 0xF SWAP1 SWAP3 MSTORE SWAP1 SWAP2 KECCAK256 SLOAD PUSH1 0xFF SWAP2 DUP3 AND SWAP2 PUSH2 0x1838 SWAP2 AND DUP4 PUSH2 0x3976 JUMP JUMPDEST PUSH1 0xFF AND GT ISZERO PUSH2 0x189F JUMPI PUSH1 0x40 MLOAD PUSH3 0x461BCD PUSH1 0xE5 SHL DUP2 MSTORE PUSH1 0x20 PUSH1 0x4 DUP3 ADD MSTORE PUSH1 0x2D PUSH1 0x24 DUP3 ADD MSTORE PUSH32 0x5472616E73616374696F6E20657863656564732072656D61696E696E67207768 PUSH1 0x44 DUP3 ADD MSTORE PUSH13 0x6974656C697374206D696E7473 PUSH1 0x98 SHL PUSH1 0x64 DUP3 ADD MSTORE PUSH1 0x84 ADD PUSH2 0xCC9 JUMP JUMPDEST CALLER PUSH1 0x0 SWAP1 DUP2 MSTORE PUSH1 0xF PUSH1 0x20 MSTORE PUSH1 0x40 DUP2 KECCAK256 DUP1 SLOAD DUP4 SWAP3 SWAP1 PUSH2 0x18C1 SWAP1 DUP5 SWAP1 PUSH1 0xFF AND PUSH2 0x3976 JUMP JUMPDEST SWAP3 POP PUSH2 0x100 EXP DUP2 SLOAD DUP2 PUSH1 0xFF MUL NOT AND SWAP1 DUP4 PUSH1 0xFF AND MUL OR SWAP1 SSTORE POP PUSH2 0x1C9A JUMP JUMPDEST PUSH1 0xC SLOAD PUSH1 0xFF AND PUSH1 0x2 EQ ISZERO PUSH2 0x1AC2 JUMPI PUSH1 0x12 SLOAD PUSH2 0x18FC SWAP1 PUSH1 0xFF DUP4 AND PUSH2 0x2B87 JUMP JUMPDEST CALLVALUE LT ISZERO PUSH2 0x1943 JUMPI PUSH1 0x40 MLOAD PUSH3 0x461BCD PUSH1 0xE5 SHL DUP2 MSTORE PUSH1 0x20 PUSH1 0x4 DUP3 ADD MSTORE PUSH1 0x15 PUSH1 0x24 DUP3 ADD MSTORE PUSH21 0x139BDD08195B9BDD59DA08195D1A195C881CD95B9D PUSH1 0x5A SHL PUSH1 0x44 DUP3 ADD MSTORE PUSH1 0x64 ADD PUSH2 0xCC9 JUMP JUMPDEST CALLER PUSH1 0x0 SWAP1 DUP2 MSTORE PUSH1 0x10 PUSH1 0x20 MSTORE PUSH1 0x40 SWAP1 KECCAK256 SLOAD PUSH1 0xFF AND PUSH2 0x19A2 JUMPI PUSH1 0x40 MLOAD PUSH3 0x461BCD PUSH1 0xE5 SHL DUP2 MSTORE PUSH1 0x20 PUSH1 0x4 DUP3 ADD MSTORE PUSH1 0x1B PUSH1 0x24 DUP3 ADD MSTORE PUSH32 0x41646472657373206E6F74206F6E2070726573616C65206C6973740000000000 PUSH1 0x44 DUP3 ADD MSTORE PUSH1 0x64 ADD PUSH2 0xCC9 JUMP JUMPDEST PUSH1 0x11 SLOAD DUP2 PUSH1 0xFF AND PUSH2 0x19B1 PUSH2 0xEA5 JUMP JUMPDEST PUSH2 0x19BB SWAP2 SWAP1 PUSH2 0x399B JUMP JUMPDEST GT ISZERO PUSH2 0x1A15 JUMPI PUSH1 0x40 MLOAD PUSH3 0x461BCD PUSH1 0xE5 SHL DUP2 MSTORE PUSH1 0x20 PUSH1 0x4 DUP3 ADD MSTORE PUSH1 0x23 PUSH1 0x24 DUP3 ADD MSTORE PUSH32 0x5472616E73616374696F6E2065786365656473207072652D73616C6520737570 PUSH1 0x44 DUP3 ADD MSTORE PUSH3 0x706C79 PUSH1 0xE8 SHL PUSH1 0x64 DUP3 ADD MSTORE PUSH1 0x84 ADD PUSH2 0xCC9 JUMP JUMPDEST PUSH1 0x13 SLOAD CALLER PUSH1 0x0 SWAP1 DUP2 MSTORE PUSH1 0x14 PUSH1 0x20 MSTORE PUSH1 0x40 SWAP1 KECCAK256 SLOAD PUSH1 0xFF SWAP2 DUP3 AND SWAP2 PUSH2 0x1A39 SWAP2 AND DUP4 PUSH2 0x3976 JUMP JUMPDEST PUSH1 0xFF AND GT ISZERO PUSH2 0x1AA0 JUMPI PUSH1 0x40 MLOAD PUSH3 0x461BCD PUSH1 0xE5 SHL DUP2 MSTORE PUSH1 0x20 PUSH1 0x4 DUP3 ADD MSTORE PUSH1 0x2D PUSH1 0x24 DUP3 ADD MSTORE PUSH32 0x5472616E73616374696F6E2065786365656473206D617820616C6C6F77656420 PUSH1 0x44 DUP3 ADD MSTORE PUSH13 0x70726573616C65206D696E7473 PUSH1 0x98 SHL PUSH1 0x64 DUP3 ADD MSTORE PUSH1 0x84 ADD PUSH2 0xCC9 JUMP JUMPDEST CALLER PUSH1 0x0 SWAP1 DUP2 MSTORE PUSH1 0x14 PUSH1 0x20 MSTORE PUSH1 0x40 DUP2 KECCAK256 DUP1 SLOAD DUP4 SWAP3 SWAP1 PUSH2 0x18C1 SWAP1 DUP5 SWAP1 PUSH1 0xFF AND PUSH2 0x3976 JUMP JUMPDEST PUSH1 0xC SLOAD PUSH1 0xFF AND PUSH1 0x3 EQ ISZERO PUSH2 0x1BCE JUMPI PUSH1 0x6 SLOAD PUSH1 0x1 PUSH1 0x1 PUSH1 0xA0 SHL SUB PUSH2 0x100 SWAP1 SWAP2 DIV AND CALLER EQ PUSH2 0x1B3A JUMPI PUSH1 0x40 MLOAD PUSH3 0x461BCD PUSH1 0xE5 SHL DUP2 MSTORE PUSH1 0x20 PUSH1 0x4 DUP3 ADD MSTORE PUSH1 0x21 PUSH1 0x24 DUP3 ADD MSTORE PUSH32 0x4F6E6C79204F776E65722063616E206D696E7420617420746869732073746167 PUSH1 0x44 DUP3 ADD MSTORE PUSH1 0x65 PUSH1 0xF8 SHL PUSH1 0x64 DUP3 ADD MSTORE PUSH1 0x84 ADD PUSH2 0xCC9 JUMP JUMPDEST PUSH1 0x15 SLOAD PUSH1 0x16 SLOAD PUSH2 0x1B4D SWAP1 PUSH1 0xFF DUP5 AND PUSH2 0x399B JUMP JUMPDEST GT ISZERO PUSH2 0x1BAE JUMPI PUSH1 0x40 MLOAD PUSH3 0x461BCD PUSH1 0xE5 SHL DUP2 MSTORE PUSH1 0x20 PUSH1 0x4 DUP3 ADD MSTORE PUSH1 0x2A PUSH1 0x24 DUP3 ADD MSTORE PUSH32 0x5472616E73616374696F6E206578636565647320746F74616C207465616D2D73 PUSH1 0x44 DUP3 ADD MSTORE PUSH10 0x616C6520737570706C79 PUSH1 0xB0 SHL PUSH1 0x64 DUP3 ADD MSTORE PUSH1 0x84 ADD PUSH2 0xCC9 JUMP JUMPDEST DUP1 PUSH1 0xFF AND PUSH1 0x16 PUSH1 0x0 DUP3 DUP3 SLOAD PUSH2 0x1BC3 SWAP2 SWAP1 PUSH2 0x399B JUMP JUMPDEST SWAP1 SWAP2 SSTORE POP PUSH2 0x1C9A SWAP1 POP JUMP JUMPDEST PUSH1 0x17 SLOAD PUSH2 0x1BDE SWAP1 PUSH1 0xFF DUP4 AND PUSH2 0x2B87 JUMP JUMPDEST CALLVALUE LT ISZERO PUSH2 0x1C25 JUMPI PUSH1 0x40 MLOAD PUSH3 0x461BCD PUSH1 0xE5 SHL DUP2 MSTORE PUSH1 0x20 PUSH1 0x4 DUP3 ADD MSTORE PUSH1 0x15 PUSH1 0x24 DUP3 ADD MSTORE PUSH21 0x139BDD08195B9BDD59DA08195D1A195C881CD95B9D PUSH1 0x5A SHL PUSH1 0x44 DUP3 ADD MSTORE PUSH1 0x64 ADD PUSH2 0xCC9 JUMP JUMPDEST PUSH1 0x18 SLOAD DUP2 PUSH1 0xFF AND PUSH2 0x1C34 PUSH2 0xEA5 JUMP JUMPDEST PUSH2 0x1C3E SWAP2 SWAP1 PUSH2 0x399B JUMP JUMPDEST GT ISZERO PUSH2 0x1C9A JUMPI PUSH1 0x40 MLOAD PUSH3 0x461BCD PUSH1 0xE5 SHL DUP2 MSTORE PUSH1 0x20 PUSH1 0x4 DUP3 ADD MSTORE PUSH1 0x25 PUSH1 0x24 DUP3 ADD MSTORE PUSH32 0x5472616E73616374696F6E206578636565647320746F74616C2073616C652073 PUSH1 0x44 DUP3 ADD MSTORE PUSH5 0x7570706C79 PUSH1 0xD8 SHL PUSH1 0x64 DUP3 ADD MSTORE PUSH1 0x84 ADD PUSH2 0xCC9 JUMP JUMPDEST PUSH1 0x1 JUMPDEST DUP2 PUSH1 0xFF AND DUP2 GT PUSH2 0xEA1 JUMPI PUSH2 0x1CB9 CALLER PUSH2 0x1CB4 PUSH1 0x7 SLOAD SWAP1 JUMP JUMPDEST PUSH2 0x2CE0 JUMP JUMPDEST PUSH2 0x1CC7 PUSH1 0x7 DUP1 SLOAD PUSH1 0x1 ADD SWAP1 SSTORE JUMP JUMPDEST DUP1 PUSH2 0x1CD1 DUP2 PUSH2 0x3896 JUMP JUMPDEST SWAP2 POP POP PUSH2 0x1C9D JUMP JUMPDEST PUSH1 0x0 PUSH1 0x1 PUSH1 0x1 PUSH1 0xA0 SHL SUB DUP3 AND PUSH2 0x1D44 JUMPI PUSH1 0x40 MLOAD PUSH3 0x461BCD PUSH1 0xE5 SHL DUP2 MSTORE PUSH1 0x20 PUSH1 0x4 DUP3 ADD MSTORE PUSH1 0x2A PUSH1 0x24 DUP3 ADD MSTORE PUSH32 0x4552433732313A2062616C616E636520717565727920666F7220746865207A65 PUSH1 0x44 DUP3 ADD MSTORE PUSH10 0x726F2061646472657373 PUSH1 0xB0 SHL PUSH1 0x64 DUP3 ADD MSTORE PUSH1 0x84 ADD PUSH2 0xCC9 JUMP JUMPDEST POP PUSH1 0x1 PUSH1 0x1 PUSH1 0xA0 SHL SUB AND PUSH1 0x0 SWAP1 DUP2 MSTORE PUSH1 0x3 PUSH1 0x20 MSTORE PUSH1 0x40 SWAP1 KECCAK256 SLOAD SWAP1 JUMP JUMPDEST PUSH1 0x6 SLOAD PUSH1 0x1 PUSH1 0x1 PUSH1 0xA0 SHL SUB PUSH2 0x100 SWAP1 SWAP2 DIV AND CALLER EQ PUSH2 0x1D90 JUMPI PUSH1 0x40 MLOAD PUSH3 0x461BCD PUSH1 0xE5 SHL DUP2 MSTORE PUSH1 0x4 ADD PUSH2 0xCC9 SWAP1 PUSH2 0x381E JUMP JUMPDEST PUSH2 0x142E PUSH1 0x0 PUSH2 0x2CFA JUMP JUMPDEST PUSH1 0x6 SLOAD PUSH1 0x1 PUSH1 0x1 PUSH1 0xA0 SHL SUB PUSH2 0x100 SWAP1 SWAP2 DIV AND CALLER EQ PUSH2 0x1DCA JUMPI PUSH1 0x40 MLOAD PUSH3 0x461BCD PUSH1 0xE5 SHL DUP2 MSTORE PUSH1 0x4 ADD PUSH2 0xCC9 SWAP1 PUSH2 0x381E JUMP JUMPDEST PUSH1 0x17 SSTORE JUMP JUMPDEST PUSH1 0x6 SLOAD PUSH1 0x1 PUSH1 0x1 PUSH1 0xA0 SHL SUB PUSH2 0x100 SWAP1 SWAP2 DIV AND CALLER EQ PUSH2 0x1DFF JUMPI PUSH1 0x40 MLOAD PUSH3 0x461BCD PUSH1 0xE5 SHL DUP2 MSTORE PUSH1 0x4 ADD PUSH2 0xCC9 SWAP1 PUSH2 0x381E JUMP JUMPDEST PUSH1 0x0 PUSH1 0x8 DUP1 SLOAD PUSH2 0x1E0E SWAP1 PUSH2 0x37E3 JUMP JUMPDEST SWAP1 POP GT PUSH2 0x1E5D JUMPI PUSH1 0x40 MLOAD PUSH3 0x461BCD PUSH1 0xE5 SHL DUP2 MSTORE PUSH1 0x20 PUSH1 0x4 DUP3 ADD DUP2 SWAP1 MSTORE PUSH1 0x24 DUP3 ADD MSTORE PUSH32 0x50726F76656E616E636520686173682063616E6E6F7420626520656D7074792E PUSH1 0x44 DUP3 ADD MSTORE PUSH1 0x64 ADD PUSH2 0xCC9 JUMP JUMPDEST PUSH1 0xC SLOAD PUSH4 0x1000000 SWAP1 DIV PUSH1 0xFF AND ISZERO PUSH2 0x1EC2 JUMPI PUSH1 0x40 MLOAD PUSH3 0x461BCD PUSH1 0xE5 SHL DUP2 MSTORE PUSH1 0x20 PUSH1 0x4 DUP3 ADD MSTORE PUSH1 0x22 PUSH1 0x24 DUP3 ADD MSTORE PUSH32 0x50726F76656E616E6365206861736820697320616C72656164792066726F7A65 PUSH1 0x44 DUP3 ADD MSTORE PUSH2 0x3717 PUSH1 0xF1 SHL PUSH1 0x64 DUP3 ADD MSTORE PUSH1 0x84 ADD PUSH2 0xCC9 JUMP JUMPDEST PUSH1 0xC DUP1 SLOAD PUSH4 0xFF000000 NOT AND PUSH4 0x1000000 OR SWAP1 SSTORE JUMP JUMPDEST PUSH1 0x6 SLOAD PUSH1 0x1 PUSH1 0x1 PUSH1 0xA0 SHL SUB PUSH2 0x100 SWAP1 SWAP2 DIV AND CALLER EQ PUSH2 0x1F07 JUMPI PUSH1 0x40 MLOAD PUSH3 0x461BCD PUSH1 0xE5 SHL DUP2 MSTORE PUSH1 0x4 ADD PUSH2 0xCC9 SWAP1 PUSH2 0x381E JUMP JUMPDEST PUSH2 0x142E PUSH2 0x2D54 JUMP JUMPDEST PUSH1 0x6 SLOAD PUSH1 0x1 PUSH1 0x1 PUSH1 0xA0 SHL SUB PUSH2 0x100 SWAP1 SWAP2 DIV AND CALLER EQ PUSH2 0x1F3F JUMPI PUSH1 0x40 MLOAD PUSH3 0x461BCD PUSH1 0xE5 SHL DUP2 MSTORE PUSH1 0x4 ADD PUSH2 0xCC9 SWAP1 PUSH2 0x381E JUMP JUMPDEST PUSH1 0xC SLOAD PUSH1 0x2 PUSH1 0xFF SWAP1 SWAP2 AND LT PUSH2 0x1F96 JUMPI PUSH1 0x40 MLOAD PUSH3 0x461BCD PUSH1 0xE5 SHL DUP2 MSTORE PUSH1 0x20 PUSH1 0x4 DUP3 ADD MSTORE PUSH1 0x1C PUSH1 0x24 DUP3 ADD MSTORE PUSH32 0x57686974656C6973742073616C6520697320636F6E636C756465642E00000000 PUSH1 0x44 DUP3 ADD MSTORE PUSH1 0x64 ADD PUSH2 0xCC9 JUMP JUMPDEST PUSH1 0x0 JUMPDEST DUP3 MLOAD DUP2 LT ISZERO PUSH2 0xDFF JUMPI DUP2 DUP2 DUP2 MLOAD DUP2 LT PUSH2 0x1FB4 JUMPI PUSH2 0x1FB4 PUSH2 0x3880 JUMP JUMPDEST PUSH1 0x20 MUL PUSH1 0x20 ADD ADD MLOAD PUSH1 0xE PUSH1 0x0 DUP6 DUP5 DUP2 MLOAD DUP2 LT PUSH2 0x1FD2 JUMPI PUSH2 0x1FD2 PUSH2 0x3880 JUMP JUMPDEST PUSH1 0x20 MUL PUSH1 0x20 ADD ADD MLOAD PUSH1 0x1 PUSH1 0x1 PUSH1 0xA0 SHL SUB AND PUSH1 0x1 PUSH1 0x1 PUSH1 0xA0 SHL SUB AND DUP2 MSTORE PUSH1 0x20 ADD SWAP1 DUP2 MSTORE PUSH1 0x20 ADD PUSH1 0x0 KECCAK256 PUSH1 0x0 PUSH2 0x100 EXP DUP2 SLOAD DUP2 PUSH1 0xFF MUL NOT AND SWAP1 DUP4 PUSH1 0xFF AND MUL OR SWAP1 SSTORE POP DUP1 DUP1 PUSH2 0x201D SWAP1 PUSH2 0x3896 JUMP JUMPDEST SWAP2 POP POP PUSH2 0x1F99 JUMP JUMPDEST PUSH1 0x60 PUSH1 0x1 DUP1 SLOAD PUSH2 0xBD1 SWAP1 PUSH2 0x37E3 JUMP JUMPDEST PUSH2 0xEA1 CALLER DUP4 DUP4 PUSH2 0x2DAC JUMP JUMPDEST PUSH1 0x6 SLOAD PUSH1 0x1 PUSH1 0x1 PUSH1 0xA0 SHL SUB PUSH2 0x100 SWAP1 SWAP2 DIV AND CALLER EQ PUSH2 0x206F JUMPI PUSH1 0x40 MLOAD PUSH3 0x461BCD PUSH1 0xE5 SHL DUP2 MSTORE PUSH1 0x4 ADD PUSH2 0xCC9 SWAP1 PUSH2 0x381E JUMP JUMPDEST PUSH1 0xC SLOAD PUSH4 0x1000000 SWAP1 DIV PUSH1 0xFF AND ISZERO ISZERO PUSH1 0x1 EQ PUSH2 0x209D JUMPI PUSH1 0x40 MLOAD PUSH3 0x461BCD PUSH1 0xE5 SHL DUP2 MSTORE PUSH1 0x4 ADD PUSH2 0xCC9 SWAP1 PUSH2 0x39B3 JUMP JUMPDEST PUSH1 0xC SLOAD PUSH1 0x2 PUSH1 0xFF SWAP1 SWAP2 AND LT PUSH2 0x20EB JUMPI PUSH1 0x40 MLOAD PUSH3 0x461BCD PUSH1 0xE5 SHL DUP2 MSTORE PUSH1 0x20 PUSH1 0x4 DUP3 ADD MSTORE PUSH1 0x14 PUSH1 0x24 DUP3 ADD MSTORE PUSH20 0x2830B9BA103BB434BA32B634B9BA1039B0B63297 PUSH1 0x61 SHL PUSH1 0x44 DUP3 ADD MSTORE PUSH1 0x64 ADD PUSH2 0xCC9 JUMP JUMPDEST PUSH1 0xC SLOAD PUSH1 0xFF PUSH2 0x100 SWAP1 SWAP2 DIV DUP2 AND SWAP1 DUP4 AND GT ISZERO PUSH2 0x2119 JUMPI PUSH1 0x40 MLOAD PUSH3 0x461BCD PUSH1 0xE5 SHL DUP2 MSTORE PUSH1 0x4 ADD PUSH2 0xCC9 SWAP1 PUSH2 0x392C JUMP JUMPDEST PUSH1 0x0 DUP3 PUSH1 0xFF AND GT PUSH2 0x217A JUMPI PUSH1 0x40 MLOAD PUSH3 0x461BCD PUSH1 0xE5 SHL DUP2 MSTORE PUSH1 0x20 PUSH1 0x4 DUP3 ADD MSTORE PUSH1 0x25 PUSH1 0x24 DUP3 ADD MSTORE PUSH32 0x41697264726F7020616D6F756E74206D75737420626520677265617465722074 PUSH1 0x44 DUP3 ADD MSTORE PUSH5 0x68616E203 PUSH1 0xDC SHL PUSH1 0x64 DUP3 ADD MSTORE PUSH1 0x84 ADD PUSH2 0xCC9 JUMP JUMPDEST PUSH1 0x11 SLOAD DUP3 PUSH1 0xFF AND PUSH2 0x2189 PUSH2 0xEA5 JUMP JUMPDEST PUSH2 0x2193 SWAP2 SWAP1 PUSH2 0x399B JUMP JUMPDEST GT ISZERO PUSH2 0x21F1 JUMPI PUSH1 0x40 MLOAD PUSH3 0x461BCD PUSH1 0xE5 SHL DUP2 MSTORE PUSH1 0x20 PUSH1 0x4 DUP3 ADD MSTORE PUSH1 0x27 PUSH1 0x24 DUP3 ADD MSTORE PUSH32 0x4D696E7420616D6F756E742077696C6C206578636565642070726573616C6520 PUSH1 0x44 DUP3 ADD MSTORE PUSH7 0x39BAB838363C97 PUSH1 0xC9 SHL PUSH1 0x64 DUP3 ADD MSTORE PUSH1 0x84 ADD PUSH2 0xCC9 JUMP JUMPDEST PUSH1 0x1 JUMPDEST DUP3 PUSH1 0xFF AND DUP2 GT PUSH2 0xDFF JUMPI PUSH2 0x220B DUP3 PUSH2 0x1CB4 PUSH1 0x7 SLOAD SWAP1 JUMP JUMPDEST PUSH2 0x2219 PUSH1 0x7 DUP1 SLOAD PUSH1 0x1 ADD SWAP1 SSTORE JUMP JUMPDEST DUP1 PUSH2 0x2223 DUP2 PUSH2 0x3896 JUMP JUMPDEST SWAP2 POP POP PUSH2 0x21F4 JUMP JUMPDEST PUSH2 0x2235 CALLER DUP4 PUSH2 0x28E5 JUMP JUMPDEST PUSH2 0x2251 JUMPI PUSH1 0x40 MLOAD PUSH3 0x461BCD PUSH1 0xE5 SHL DUP2 MSTORE PUSH1 0x4 ADD PUSH2 0xCC9 SWAP1 PUSH2 0x38B1 JUMP JUMPDEST PUSH2 0x225D DUP5 DUP5 DUP5 DUP5 PUSH2 0x2E7B JUMP JUMPDEST POP POP POP POP JUMP JUMPDEST PUSH1 0xB DUP1 SLOAD PUSH2 0x11B0 SWAP1 PUSH2 0x37E3 JUMP JUMPDEST PUSH1 0x8 DUP1 SLOAD PUSH2 0x11B0 SWAP1 PUSH2 0x37E3 JUMP JUMPDEST PUSH1 0x0 DUP2 DUP2 MSTORE PUSH1 0x2 PUSH1 0x20 MSTORE PUSH1 0x40 SWAP1 KECCAK256 SLOAD PUSH1 0x60 SWAP1 PUSH1 0x1 PUSH1 0x1 PUSH1 0xA0 SHL SUB AND PUSH2 0x22FC JUMPI PUSH1 0x40 MLOAD PUSH3 0x461BCD PUSH1 0xE5 SHL DUP2 MSTORE PUSH1 0x20 PUSH1 0x4 DUP3 ADD MSTORE PUSH1 0x2F PUSH1 0x24 DUP3 ADD MSTORE PUSH32 0x4552433732314D657461646174613A2055524920717565727920666F72206E6F PUSH1 0x44 DUP3 ADD MSTORE PUSH15 0x3732BC34B9BA32B73A103A37B5B2B7 PUSH1 0x89 SHL PUSH1 0x64 DUP3 ADD MSTORE PUSH1 0x84 ADD PUSH2 0xCC9 JUMP JUMPDEST PUSH1 0x0 PUSH1 0x9 DUP1 SLOAD PUSH2 0x230B SWAP1 PUSH2 0x37E3 JUMP JUMPDEST SWAP1 POP GT PUSH2 0x23A2 JUMPI PUSH1 0xA DUP1 SLOAD PUSH2 0x231F SWAP1 PUSH2 0x37E3 JUMP JUMPDEST DUP1 PUSH1 0x1F ADD PUSH1 0x20 DUP1 SWAP2 DIV MUL PUSH1 0x20 ADD PUSH1 0x40 MLOAD SWAP1 DUP2 ADD PUSH1 0x40 MSTORE DUP1 SWAP3 SWAP2 SWAP1 DUP2 DUP2 MSTORE PUSH1 0x20 ADD DUP3 DUP1 SLOAD PUSH2 0x234B SWAP1 PUSH2 0x37E3 JUMP JUMPDEST DUP1 ISZERO PUSH2 0x2398 JUMPI DUP1 PUSH1 0x1F LT PUSH2 0x236D JUMPI PUSH2 0x100 DUP1 DUP4 SLOAD DIV MUL DUP4 MSTORE SWAP2 PUSH1 0x20 ADD SWAP2 PUSH2 0x2398 JUMP JUMPDEST DUP3 ADD SWAP2 SWAP1 PUSH1 0x0 MSTORE PUSH1 0x20 PUSH1 0x0 KECCAK256 SWAP1 JUMPDEST DUP2 SLOAD DUP2 MSTORE SWAP1 PUSH1 0x1 ADD SWAP1 PUSH1 0x20 ADD DUP1 DUP4 GT PUSH2 0x237B JUMPI DUP3 SWAP1 SUB PUSH1 0x1F AND DUP3 ADD SWAP2 JUMPDEST POP POP POP POP POP PUSH2 0xBBC JUMP JUMPDEST PUSH1 0x9 PUSH2 0x23AD DUP4 PUSH2 0x2EAE JUMP JUMPDEST PUSH1 0xB PUSH1 0x40 MLOAD PUSH1 0x20 ADD PUSH2 0x23C1 SWAP4 SWAP3 SWAP2 SWAP1 PUSH2 0x3AAA JUMP JUMPDEST PUSH1 0x40 MLOAD PUSH1 0x20 DUP2 DUP4 SUB SUB DUP2 MSTORE SWAP1 PUSH1 0x40 MSTORE SWAP3 SWAP2 POP POP JUMP JUMPDEST PUSH1 0x0 DUP1 PUSH2 0x23E1 PUSH2 0xEA5 JUMP JUMPDEST GT PUSH2 0x2427 JUMPI PUSH1 0x40 MLOAD PUSH3 0x461BCD PUSH1 0xE5 SHL DUP2 MSTORE PUSH1 0x20 PUSH1 0x4 DUP3 ADD MSTORE PUSH1 0x16 PUSH1 0x24 DUP3 ADD MSTORE PUSH22 0x27379031B93CB83A34B21032BC34B9BA39903CB2BA17 PUSH1 0x51 SHL PUSH1 0x44 DUP3 ADD MSTORE PUSH1 0x64 ADD PUSH2 0xCC9 JUMP JUMPDEST PUSH2 0xEBC PUSH2 0xEA5 JUMP JUMPDEST PUSH1 0x6 SLOAD PUSH1 0x1 PUSH1 0x1 PUSH1 0xA0 SHL SUB PUSH2 0x100 SWAP1 SWAP2 DIV AND CALLER EQ PUSH2 0x245F JUMPI PUSH1 0x40 MLOAD PUSH3 0x461BCD PUSH1 0xE5 SHL DUP2 MSTORE PUSH1 0x4 ADD PUSH2 0xCC9 SWAP1 PUSH2 0x381E JUMP JUMPDEST DUP1 MLOAD PUSH2 0xEA1 SWAP1 PUSH1 0xA SWAP1 PUSH1 0x20 DUP5 ADD SWAP1 PUSH2 0x324E JUMP JUMPDEST PUSH1 0x6 SLOAD PUSH1 0x1 PUSH1 0x1 PUSH1 0xA0 SHL SUB PUSH2 0x100 SWAP1 SWAP2 DIV AND CALLER EQ PUSH2 0x24A2 JUMPI PUSH1 0x40 MLOAD PUSH3 0x461BCD PUSH1 0xE5 SHL DUP2 MSTORE PUSH1 0x4 ADD PUSH2 0xCC9 SWAP1 PUSH2 0x381E JUMP JUMPDEST DUP1 MLOAD PUSH2 0xEA1 SWAP1 PUSH1 0xB SWAP1 PUSH1 0x20 DUP5 ADD SWAP1 PUSH2 0x324E JUMP JUMPDEST PUSH1 0x0 PUSH2 0x24BF PUSH2 0xEA5 JUMP JUMPDEST PUSH1 0x18 SLOAD PUSH2 0xEBC SWAP2 SWAP1 PUSH2 0x3869 JUMP JUMPDEST PUSH1 0x6 SLOAD PUSH1 0x1 PUSH1 0x1 PUSH1 0xA0 SHL SUB PUSH2 0x100 SWAP1 SWAP2 DIV AND CALLER EQ PUSH2 0x24FC JUMPI PUSH1 0x40 MLOAD PUSH3 0x461BCD PUSH1 0xE5 SHL DUP2 MSTORE PUSH1 0x4 ADD PUSH2 0xCC9 SWAP1 PUSH2 0x381E JUMP JUMPDEST PUSH1 0xC DUP1 SLOAD PUSH5 0x100000000 PUSH1 0x1 PUSH1 0xC0 SHL SUB NOT AND PUSH5 0x100000000 PUSH1 0x1 PUSH1 0x1 PUSH1 0xA0 SHL SUB SWAP5 DUP6 AND MUL OR SWAP1 SSTORE PUSH1 0xD DUP1 SLOAD PUSH1 0x1 PUSH1 0x1 PUSH1 0xA0 SHL SUB NOT AND SWAP2 SWAP1 SWAP3 AND OR SWAP1 SSTORE JUMP JUMPDEST PUSH1 0x6 SLOAD PUSH1 0x1 PUSH1 0x1 PUSH1 0xA0 SHL SUB PUSH2 0x100 SWAP1 SWAP2 DIV AND CALLER EQ PUSH2 0x256A JUMPI PUSH1 0x40 MLOAD PUSH3 0x461BCD PUSH1 0xE5 SHL DUP2 MSTORE PUSH1 0x4 ADD PUSH2 0xCC9 SWAP1 PUSH2 0x381E JUMP JUMPDEST PUSH1 0x0 PUSH1 0x9 DUP1 SLOAD PUSH2 0x2579 SWAP1 PUSH2 0x37E3 JUMP JUMPDEST SWAP1 POP GT PUSH2 0x25C8 JUMPI PUSH1 0x40 MLOAD PUSH3 0x461BCD PUSH1 0xE5 SHL DUP2 MSTORE PUSH1 0x20 PUSH1 0x4 DUP3 ADD MSTORE PUSH1 0x17 PUSH1 0x24 DUP3 ADD MSTORE PUSH32 0x626173655552492063616E6E6F7420626520656D707479000000000000000000 PUSH1 0x44 DUP3 ADD MSTORE PUSH1 0x64 ADD PUSH2 0xCC9 JUMP JUMPDEST PUSH1 0xC SLOAD PUSH3 0x10000 SWAP1 DIV PUSH1 0xFF AND ISZERO PUSH2 0x2621 JUMPI PUSH1 0x40 MLOAD PUSH3 0x461BCD PUSH1 0xE5 SHL DUP2 MSTORE PUSH1 0x20 PUSH1 0x4 DUP3 ADD MSTORE PUSH1 0x1A PUSH1 0x24 DUP3 ADD MSTORE PUSH32 0x4261736555524920697320616C72656164792066726F7A656E2E000000000000 PUSH1 0x44 DUP3 ADD MSTORE PUSH1 0x64 ADD PUSH2 0xCC9 JUMP JUMPDEST PUSH1 0xC DUP1 SLOAD PUSH3 0xFF0000 NOT AND PUSH3 0x10000 OR SWAP1 SSTORE JUMP JUMPDEST PUSH1 0x6 SLOAD PUSH1 0x1 PUSH1 0x1 PUSH1 0xA0 SHL SUB PUSH2 0x100 SWAP1 SWAP2 DIV AND CALLER EQ PUSH2 0x2664 JUMPI PUSH1 0x40 MLOAD PUSH3 0x461BCD PUSH1 0xE5 SHL DUP2 MSTORE PUSH1 0x4 ADD PUSH2 0xCC9 SWAP1 PUSH2 0x381E JUMP JUMPDEST PUSH1 0x1 PUSH1 0x1 PUSH1 0xA0 SHL SUB DUP2 AND PUSH1 0x0 SWAP1 DUP2 MSTORE PUSH1 0x10 PUSH1 0x20 MSTORE PUSH1 0x40 SWAP1 KECCAK256 SLOAD PUSH1 0xFF AND PUSH2 0x26CC JUMPI PUSH1 0x40 MLOAD PUSH3 0x461BCD PUSH1 0xE5 SHL DUP2 MSTORE PUSH1 0x20 PUSH1 0x4 DUP3 ADD MSTORE PUSH1 0x19 PUSH1 0x24 DUP3 ADD MSTORE PUSH32 0x55736572206E6F74206F6E2070726573616C65206C6973742E00000000000000 PUSH1 0x44 DUP3 ADD MSTORE PUSH1 0x64 ADD PUSH2 0xCC9 JUMP JUMPDEST PUSH1 0x1 PUSH1 0x1 PUSH1 0xA0 SHL SUB AND PUSH1 0x0 SWAP1 DUP2 MSTORE PUSH1 0x10 PUSH1 0x20 MSTORE PUSH1 0x40 SWAP1 KECCAK256 DUP1 SLOAD PUSH1 0xFF NOT AND SWAP1 SSTORE JUMP JUMPDEST PUSH1 0x6 SLOAD PUSH1 0x1 PUSH1 0x1 PUSH1 0xA0 SHL SUB PUSH2 0x100 SWAP1 SWAP2 DIV AND CALLER EQ PUSH2 0x271D JUMPI PUSH1 0x40 MLOAD PUSH3 0x461BCD PUSH1 0xE5 SHL DUP2 MSTORE PUSH1 0x4 ADD PUSH2 0xCC9 SWAP1 PUSH2 0x381E JUMP JUMPDEST PUSH1 0xC SLOAD PUSH4 0x1000000 SWAP1 DIV PUSH1 0xFF AND ISZERO ISZERO PUSH1 0x1 EQ PUSH2 0x274B JUMPI PUSH1 0x40 MLOAD PUSH3 0x461BCD PUSH1 0xE5 SHL DUP2 MSTORE PUSH1 0x4 ADD PUSH2 0xCC9 SWAP1 PUSH2 0x39B3 JUMP JUMPDEST PUSH1 0xC SLOAD PUSH1 0x4 PUSH1 0xFF SWAP1 SWAP2 AND LT PUSH2 0x27A2 JUMPI PUSH1 0x40 MLOAD PUSH3 0x461BCD PUSH1 0xE5 SHL DUP2 MSTORE PUSH1 0x20 PUSH1 0x4 DUP3 ADD MSTORE PUSH1 0x1B PUSH1 0x24 DUP3 ADD MSTORE PUSH32 0x4E6F20737461676573206166746572207075626C69632073616C650000000000 PUSH1 0x44 DUP3 ADD MSTORE PUSH1 0x64 ADD PUSH2 0xCC9 JUMP JUMPDEST PUSH1 0xC DUP1 SLOAD PUSH1 0xFF AND SWAP1 PUSH1 0x0 PUSH2 0x27B5 DUP4 PUSH2 0x3ADD JUMP JUMPDEST SWAP2 SWAP1 PUSH2 0x100 EXP DUP2 SLOAD DUP2 PUSH1 0xFF MUL NOT AND SWAP1 DUP4 PUSH1 0xFF AND MUL OR SWAP1 SSTORE POP POP JUMP JUMPDEST PUSH1 0x6 SLOAD PUSH1 0x1 PUSH1 0x1 PUSH1 0xA0 SHL SUB PUSH2 0x100 SWAP1 SWAP2 DIV AND CALLER EQ PUSH2 0x2800 JUMPI PUSH1 0x40 MLOAD PUSH3 0x461BCD PUSH1 0xE5 SHL DUP2 MSTORE PUSH1 0x4 ADD PUSH2 0xCC9 SWAP1 PUSH2 0x381E JUMP JUMPDEST PUSH1 0x1 PUSH1 0x1 PUSH1 0xA0 SHL SUB DUP2 AND PUSH2 0x2865 JUMPI PUSH1 0x40 MLOAD PUSH3 0x461BCD PUSH1 0xE5 SHL DUP2 MSTORE PUSH1 0x20 PUSH1 0x4 DUP3 ADD MSTORE PUSH1 0x26 PUSH1 0x24 DUP3 ADD MSTORE PUSH32 0x4F776E61626C653A206E6577206F776E657220697320746865207A65726F2061 PUSH1 0x44 DUP3 ADD MSTORE PUSH6 0x646472657373 PUSH1 0xD0 SHL PUSH1 0x64 DUP3 ADD MSTORE PUSH1 0x84 ADD PUSH2 0xCC9 JUMP JUMPDEST PUSH2 0x14C2 DUP2 PUSH2 0x2CFA JUMP JUMPDEST DUP1 SLOAD PUSH1 0x1 ADD SWAP1 SSTORE JUMP JUMPDEST PUSH1 0x0 DUP2 DUP2 MSTORE PUSH1 0x4 PUSH1 0x20 MSTORE PUSH1 0x40 SWAP1 KECCAK256 DUP1 SLOAD PUSH1 0x1 PUSH1 0x1 PUSH1 0xA0 SHL SUB NOT AND PUSH1 0x1 PUSH1 0x1 PUSH1 0xA0 SHL SUB DUP5 AND SWAP1 DUP2 OR SWAP1 SWAP2 SSTORE DUP2 SWAP1 PUSH2 0x28AC DUP3 PUSH2 0x15A2 JUMP JUMPDEST PUSH1 0x1 PUSH1 0x1 PUSH1 0xA0 SHL SUB AND PUSH32 0x8C5BE1E5EBEC7D5BD14F71427D1E84F3DD0314C0F7B2291E5B200AC8C7C3B925 PUSH1 0x40 MLOAD PUSH1 0x40 MLOAD DUP1 SWAP2 SUB SWAP1 LOG4 POP POP JUMP JUMPDEST PUSH1 0x0 DUP2 DUP2 MSTORE PUSH1 0x2 PUSH1 0x20 MSTORE PUSH1 0x40 DUP2 KECCAK256 SLOAD PUSH1 0x1 PUSH1 0x1 PUSH1 0xA0 SHL SUB AND PUSH2 0x295E JUMPI PUSH1 0x40 MLOAD PUSH3 0x461BCD PUSH1 0xE5 SHL DUP2 MSTORE PUSH1 0x20 PUSH1 0x4 DUP3 ADD MSTORE PUSH1 0x2C PUSH1 0x24 DUP3 ADD MSTORE PUSH32 0x4552433732313A206F70657261746F7220717565727920666F72206E6F6E6578 PUSH1 0x44 DUP3 ADD MSTORE PUSH12 0x34B9BA32B73A103A37B5B2B7 PUSH1 0xA1 SHL PUSH1 0x64 DUP3 ADD MSTORE PUSH1 0x84 ADD PUSH2 0xCC9 JUMP JUMPDEST PUSH1 0x0 PUSH2 0x2969 DUP4 PUSH2 0x15A2 JUMP JUMPDEST SWAP1 POP DUP1 PUSH1 0x1 PUSH1 0x1 PUSH1 0xA0 SHL SUB AND DUP5 PUSH1 0x1 PUSH1 0x1 PUSH1 0xA0 SHL SUB AND EQ DUP1 PUSH2 0x29A4 JUMPI POP DUP4 PUSH1 0x1 PUSH1 0x1 PUSH1 0xA0 SHL SUB AND PUSH2 0x2999 DUP5 PUSH2 0xC54 JUMP JUMPDEST PUSH1 0x1 PUSH1 0x1 PUSH1 0xA0 SHL SUB AND EQ JUMPDEST DUP1 PUSH2 0x29D4 JUMPI POP PUSH1 0x1 PUSH1 0x1 PUSH1 0xA0 SHL SUB DUP1 DUP3 AND PUSH1 0x0 SWAP1 DUP2 MSTORE PUSH1 0x5 PUSH1 0x20 SWAP1 DUP2 MSTORE PUSH1 0x40 DUP1 DUP4 KECCAK256 SWAP4 DUP9 AND DUP4 MSTORE SWAP3 SWAP1 MSTORE KECCAK256 SLOAD PUSH1 0xFF AND JUMPDEST SWAP5 SWAP4 POP POP POP POP JUMP JUMPDEST DUP3 PUSH1 0x1 PUSH1 0x1 PUSH1 0xA0 SHL SUB AND PUSH2 0x29EF DUP3 PUSH2 0x15A2 JUMP JUMPDEST PUSH1 0x1 PUSH1 0x1 PUSH1 0xA0 SHL SUB AND EQ PUSH2 0x2A57 JUMPI PUSH1 0x40 MLOAD PUSH3 0x461BCD PUSH1 0xE5 SHL DUP2 MSTORE PUSH1 0x20 PUSH1 0x4 DUP3 ADD MSTORE PUSH1 0x29 PUSH1 0x24 DUP3 ADD MSTORE PUSH32 0x4552433732313A207472616E73666572206F6620746F6B656E20746861742069 PUSH1 0x44 DUP3 ADD MSTORE PUSH9 0x39903737BA1037BBB7 PUSH1 0xB9 SHL PUSH1 0x64 DUP3 ADD MSTORE PUSH1 0x84 ADD PUSH2 0xCC9 JUMP JUMPDEST PUSH1 0x1 PUSH1 0x1 PUSH1 0xA0 SHL SUB DUP3 AND PUSH2 0x2AB9 JUMPI PUSH1 0x40 MLOAD PUSH3 0x461BCD PUSH1 0xE5 SHL DUP2 MSTORE PUSH1 0x20 PUSH1 0x4 DUP3 ADD MSTORE PUSH1 0x24 DUP1 DUP3 ADD MSTORE PUSH32 0x4552433732313A207472616E7366657220746F20746865207A65726F20616464 PUSH1 0x44 DUP3 ADD MSTORE PUSH4 0x72657373 PUSH1 0xE0 SHL PUSH1 0x64 DUP3 ADD MSTORE PUSH1 0x84 ADD PUSH2 0xCC9 JUMP JUMPDEST PUSH2 0x2AC4 DUP4 DUP4 DUP4 PUSH2 0x2FAC JUMP JUMPDEST PUSH2 0x2ACF PUSH1 0x0 DUP3 PUSH2 0x2877 JUMP JUMPDEST PUSH1 0x1 PUSH1 0x1 PUSH1 0xA0 SHL SUB DUP4 AND PUSH1 0x0 SWAP1 DUP2 MSTORE PUSH1 0x3 PUSH1 0x20 MSTORE PUSH1 0x40 DUP2 KECCAK256 DUP1 SLOAD PUSH1 0x1 SWAP3 SWAP1 PUSH2 0x2AF8 SWAP1 DUP5 SWAP1 PUSH2 0x3869 JUMP JUMPDEST SWAP1 SWAP2 SSTORE POP POP PUSH1 0x1 PUSH1 0x1 PUSH1 0xA0 SHL SUB DUP3 AND PUSH1 0x0 SWAP1 DUP2 MSTORE PUSH1 0x3 PUSH1 0x20 MSTORE PUSH1 0x40 DUP2 KECCAK256 DUP1 SLOAD PUSH1 0x1 SWAP3 SWAP1 PUSH2 0x2B26 SWAP1 DUP5 SWAP1 PUSH2 0x399B JUMP JUMPDEST SWAP1 SWAP2 SSTORE POP POP PUSH1 0x0 DUP2 DUP2 MSTORE PUSH1 0x2 PUSH1 0x20 MSTORE PUSH1 0x40 DUP1 DUP3 KECCAK256 DUP1 SLOAD PUSH1 0x1 PUSH1 0x1 PUSH1 0xA0 SHL SUB NOT AND PUSH1 0x1 PUSH1 0x1 PUSH1 0xA0 SHL SUB DUP7 DUP2 AND SWAP2 DUP3 OR SWAP1 SWAP3 SSTORE SWAP2 MLOAD DUP5 SWAP4 SWAP2 DUP8 AND SWAP2 PUSH32 0xDDF252AD1BE2C89B69C2B068FC378DAA952BA7F163C4A11628F55A4DF523B3EF SWAP2 LOG4 POP POP POP JUMP JUMPDEST PUSH1 0x0 PUSH2 0x2B93 DUP3 DUP5 PUSH2 0x3AFD JUMP JUMPDEST SWAP4 SWAP3 POP POP POP JUMP JUMPDEST PUSH1 0x0 PUSH2 0x2B93 DUP3 DUP5 PUSH2 0x3B32 JUMP JUMPDEST PUSH1 0x6 SLOAD PUSH1 0xFF AND PUSH2 0x2BEF JUMPI PUSH1 0x40 MLOAD PUSH3 0x461BCD PUSH1 0xE5 SHL DUP2 MSTORE PUSH1 0x20 PUSH1 0x4 DUP3 ADD MSTORE PUSH1 0x14 PUSH1 0x24 DUP3 ADD MSTORE PUSH20 0x14185D5CD8589B194E881B9BDD081C185D5CD959 PUSH1 0x62 SHL PUSH1 0x44 DUP3 ADD MSTORE PUSH1 0x64 ADD PUSH2 0xCC9 JUMP JUMPDEST PUSH1 0x6 DUP1 SLOAD PUSH1 0xFF NOT AND SWAP1 SSTORE PUSH32 0x5DB9EE0A495BF2E6FF9C91A7834C1BA4FDD244A5E8AA4E537BD38AEAE4B073AA CALLER JUMPDEST PUSH1 0x40 MLOAD PUSH1 0x1 PUSH1 0x1 PUSH1 0xA0 SHL SUB SWAP1 SWAP2 AND DUP2 MSTORE PUSH1 0x20 ADD PUSH1 0x40 MLOAD DUP1 SWAP2 SUB SWAP1 LOG1 JUMP JUMPDEST PUSH1 0x0 PUSH2 0x2C44 DUP3 PUSH2 0x15A2 JUMP JUMPDEST SWAP1 POP PUSH2 0x2C52 DUP2 PUSH1 0x0 DUP5 PUSH2 0x2FAC JUMP JUMPDEST PUSH2 0x2C5D PUSH1 0x0 DUP4 PUSH2 0x2877 JUMP JUMPDEST PUSH1 0x1 PUSH1 0x1 PUSH1 0xA0 SHL SUB DUP2 AND PUSH1 0x0 SWAP1 DUP2 MSTORE PUSH1 0x3 PUSH1 0x20 MSTORE PUSH1 0x40 DUP2 KECCAK256 DUP1 SLOAD PUSH1 0x1 SWAP3 SWAP1 PUSH2 0x2C86 SWAP1 DUP5 SWAP1 PUSH2 0x3869 JUMP JUMPDEST SWAP1 SWAP2 SSTORE POP POP PUSH1 0x0 DUP3 DUP2 MSTORE PUSH1 0x2 PUSH1 0x20 MSTORE PUSH1 0x40 DUP1 DUP3 KECCAK256 DUP1 SLOAD PUSH1 0x1 PUSH1 0x1 PUSH1 0xA0 SHL SUB NOT AND SWAP1 SSTORE MLOAD DUP4 SWAP2 SWAP1 PUSH1 0x1 PUSH1 0x1 PUSH1 0xA0 SHL SUB DUP5 AND SWAP1 PUSH32 0xDDF252AD1BE2C89B69C2B068FC378DAA952BA7F163C4A11628F55A4DF523B3EF SWAP1 DUP4 SWAP1 LOG4 POP POP JUMP JUMPDEST PUSH2 0xEA1 DUP3 DUP3 PUSH1 0x40 MLOAD DUP1 PUSH1 0x20 ADD PUSH1 0x40 MSTORE DUP1 PUSH1 0x0 DUP2 MSTORE POP PUSH2 0x2FCF JUMP JUMPDEST PUSH1 0x6 DUP1 SLOAD PUSH1 0x1 PUSH1 0x1 PUSH1 0xA0 SHL SUB DUP4 DUP2 AND PUSH2 0x100 DUP2 DUP2 MUL PUSH2 0x100 PUSH1 0x1 PUSH1 0xA8 SHL SUB NOT DUP6 AND OR SWAP1 SWAP5 SSTORE PUSH1 0x40 MLOAD SWAP4 SWAP1 SWAP3 DIV AND SWAP2 DUP3 SWAP1 PUSH32 0x8BE0079C531659141344CD1FD0A4F28419497F9722A3DAAFE3B4186F6B6457E0 SWAP1 PUSH1 0x0 SWAP1 LOG3 POP POP JUMP JUMPDEST PUSH1 0x6 SLOAD PUSH1 0xFF AND ISZERO PUSH2 0x2D77 JUMPI PUSH1 0x40 MLOAD PUSH3 0x461BCD PUSH1 0xE5 SHL DUP2 MSTORE PUSH1 0x4 ADD PUSH2 0xCC9 SWAP1 PUSH2 0x3902 JUMP JUMPDEST PUSH1 0x6 DUP1 SLOAD PUSH1 0xFF NOT AND PUSH1 0x1 OR SWAP1 SSTORE PUSH32 0x62E78CEA01BEE320CD4E420270B5EA74000D11B0C9F74754EBDBFC544B05A258 PUSH2 0x2C1C CALLER SWAP1 JUMP JUMPDEST DUP2 PUSH1 0x1 PUSH1 0x1 PUSH1 0xA0 SHL SUB AND DUP4 PUSH1 0x1 PUSH1 0x1 PUSH1 0xA0 SHL SUB AND EQ ISZERO PUSH2 0x2E0E JUMPI PUSH1 0x40 MLOAD PUSH3 0x461BCD PUSH1 0xE5 SHL DUP2 MSTORE PUSH1 0x20 PUSH1 0x4 DUP3 ADD MSTORE PUSH1 0x19 PUSH1 0x24 DUP3 ADD MSTORE PUSH32 0x4552433732313A20617070726F766520746F2063616C6C657200000000000000 PUSH1 0x44 DUP3 ADD MSTORE PUSH1 0x64 ADD PUSH2 0xCC9 JUMP JUMPDEST PUSH1 0x1 PUSH1 0x1 PUSH1 0xA0 SHL SUB DUP4 DUP2 AND PUSH1 0x0 DUP2 DUP2 MSTORE PUSH1 0x5 PUSH1 0x20 SWAP1 DUP2 MSTORE PUSH1 0x40 DUP1 DUP4 KECCAK256 SWAP5 DUP8 AND DUP1 DUP5 MSTORE SWAP5 DUP3 MSTORE SWAP2 DUP3 SWAP1 KECCAK256 DUP1 SLOAD PUSH1 0xFF NOT AND DUP7 ISZERO ISZERO SWAP1 DUP2 OR SWAP1 SWAP2 SSTORE SWAP2 MLOAD SWAP2 DUP3 MSTORE PUSH32 0x17307EAB39AB6107E8899845AD3D59BD9653F200F220920489CA2B5937696C31 SWAP2 ADD PUSH1 0x40 MLOAD DUP1 SWAP2 SUB SWAP1 LOG3 POP POP POP JUMP JUMPDEST PUSH2 0x2E86 DUP5 DUP5 DUP5 PUSH2 0x29DC JUMP JUMPDEST PUSH2 0x2E92 DUP5 DUP5 DUP5 DUP5 PUSH2 0x3002 JUMP JUMPDEST PUSH2 0x225D JUMPI PUSH1 0x40 MLOAD PUSH3 0x461BCD PUSH1 0xE5 SHL DUP2 MSTORE PUSH1 0x4 ADD PUSH2 0xCC9 SWAP1 PUSH2 0x3B46 JUMP JUMPDEST PUSH1 0x60 DUP2 PUSH2 0x2ED2 JUMPI POP POP PUSH1 0x40 DUP1 MLOAD DUP1 DUP3 ADD SWAP1 SWAP2 MSTORE PUSH1 0x1 DUP2 MSTORE PUSH1 0x3 PUSH1 0xFC SHL PUSH1 0x20 DUP3 ADD MSTORE SWAP1 JUMP JUMPDEST DUP2 PUSH1 0x0 JUMPDEST DUP2 ISZERO PUSH2 0x2EFC JUMPI DUP1 PUSH2 0x2EE6 DUP2 PUSH2 0x3896 JUMP JUMPDEST SWAP2 POP PUSH2 0x2EF5 SWAP1 POP PUSH1 0xA DUP4 PUSH2 0x3B32 JUMP JUMPDEST SWAP2 POP PUSH2 0x2ED6 JUMP JUMPDEST PUSH1 0x0 DUP2 PUSH8 0xFFFFFFFFFFFFFFFF DUP2 GT ISZERO PUSH2 0x2F17 JUMPI PUSH2 0x2F17 PUSH2 0x33FF JUMP JUMPDEST PUSH1 0x40 MLOAD SWAP1 DUP1 DUP3 MSTORE DUP1 PUSH1 0x1F ADD PUSH1 0x1F NOT AND PUSH1 0x20 ADD DUP3 ADD PUSH1 0x40 MSTORE DUP1 ISZERO PUSH2 0x2F41 JUMPI PUSH1 0x20 DUP3 ADD DUP2 DUP1 CALLDATASIZE DUP4 CALLDATACOPY ADD SWAP1 POP JUMPDEST POP SWAP1 POP JUMPDEST DUP5 ISZERO PUSH2 0x29D4 JUMPI PUSH2 0x2F56 PUSH1 0x1 DUP4 PUSH2 0x3869 JUMP JUMPDEST SWAP2 POP PUSH2 0x2F63 PUSH1 0xA DUP7 PUSH2 0x3B98 JUMP JUMPDEST PUSH2 0x2F6E SWAP1 PUSH1 0x30 PUSH2 0x399B JUMP JUMPDEST PUSH1 0xF8 SHL DUP2 DUP4 DUP2 MLOAD DUP2 LT PUSH2 0x2F83 JUMPI PUSH2 0x2F83 PUSH2 0x3880 JUMP JUMPDEST PUSH1 0x20 ADD ADD SWAP1 PUSH1 0x1 PUSH1 0x1 PUSH1 0xF8 SHL SUB NOT AND SWAP1 DUP2 PUSH1 0x0 BYTE SWAP1 MSTORE8 POP PUSH2 0x2FA5 PUSH1 0xA DUP7 PUSH2 0x3B32 JUMP JUMPDEST SWAP5 POP PUSH2 0x2F45 JUMP JUMPDEST PUSH1 0x6 SLOAD PUSH1 0xFF AND ISZERO PUSH2 0xDFF JUMPI PUSH1 0x40 MLOAD PUSH3 0x461BCD PUSH1 0xE5 SHL DUP2 MSTORE PUSH1 0x4 ADD PUSH2 0xCC9 SWAP1 PUSH2 0x3902 JUMP JUMPDEST PUSH2 0x2FD9 DUP4 DUP4 PUSH2 0x3100 JUMP JUMPDEST PUSH2 0x2FE6 PUSH1 0x0 DUP5 DUP5 DUP5 PUSH2 0x3002 JUMP JUMPDEST PUSH2 0xDFF JUMPI PUSH1 0x40 MLOAD PUSH3 0x461BCD PUSH1 0xE5 SHL DUP2 MSTORE PUSH1 0x4 ADD PUSH2 0xCC9 SWAP1 PUSH2 0x3B46 JUMP JUMPDEST PUSH1 0x0 PUSH1 0x1 PUSH1 0x1 PUSH1 0xA0 SHL SUB DUP5 AND EXTCODESIZE ISZERO PUSH2 0x30F5 JUMPI PUSH1 0x40 MLOAD PUSH4 0xA85BD01 PUSH1 0xE1 SHL DUP2 MSTORE PUSH1 0x1 PUSH1 0x1 PUSH1 0xA0 SHL SUB DUP6 AND SWAP1 PUSH4 0x150B7A02 SWAP1 PUSH2 0x3046 SWAP1 CALLER SWAP1 DUP10 SWAP1 DUP9 SWAP1 DUP9 SWAP1 PUSH1 0x4 ADD PUSH2 0x3BAC JUMP JUMPDEST PUSH1 0x20 PUSH1 0x40 MLOAD DUP1 DUP4 SUB DUP2 PUSH1 0x0 DUP8 GAS CALL SWAP3 POP POP POP DUP1 ISZERO PUSH2 0x3081 JUMPI POP PUSH1 0x40 DUP1 MLOAD PUSH1 0x1F RETURNDATASIZE SWAP1 DUP2 ADD PUSH1 0x1F NOT AND DUP3 ADD SWAP1 SWAP3 MSTORE PUSH2 0x307E SWAP2 DUP2 ADD SWAP1 PUSH2 0x3BE9 JUMP JUMPDEST PUSH1 0x1 JUMPDEST PUSH2 0x30DB JUMPI RETURNDATASIZE DUP1 DUP1 ISZERO PUSH2 0x30AF JUMPI PUSH1 0x40 MLOAD SWAP2 POP PUSH1 0x1F NOT PUSH1 0x3F RETURNDATASIZE ADD AND DUP3 ADD PUSH1 0x40 MSTORE RETURNDATASIZE DUP3 MSTORE RETURNDATASIZE PUSH1 0x0 PUSH1 0x20 DUP5 ADD RETURNDATACOPY PUSH2 0x30B4 JUMP JUMPDEST PUSH1 0x60 SWAP2 POP JUMPDEST POP DUP1 MLOAD PUSH2 0x30D3 JUMPI PUSH1 0x40 MLOAD PUSH3 0x461BCD PUSH1 0xE5 SHL DUP2 MSTORE PUSH1 0x4 ADD PUSH2 0xCC9 SWAP1 PUSH2 0x3B46 JUMP JUMPDEST DUP1 MLOAD DUP2 PUSH1 0x20 ADD REVERT JUMPDEST PUSH1 0x1 PUSH1 0x1 PUSH1 0xE0 SHL SUB NOT AND PUSH4 0xA85BD01 PUSH1 0xE1 SHL EQ SWAP1 POP PUSH2 0x29D4 JUMP JUMPDEST POP PUSH1 0x1 SWAP5 SWAP4 POP POP POP POP JUMP JUMPDEST PUSH1 0x1 PUSH1 0x1 PUSH1 0xA0 SHL SUB DUP3 AND PUSH2 0x3156 JUMPI PUSH1 0x40 MLOAD PUSH3 0x461BCD PUSH1 0xE5 SHL DUP2 MSTORE PUSH1 0x20 PUSH1 0x4 DUP3 ADD DUP2 SWAP1 MSTORE PUSH1 0x24 DUP3 ADD MSTORE PUSH32 0x4552433732313A206D696E7420746F20746865207A65726F2061646472657373 PUSH1 0x44 DUP3 ADD MSTORE PUSH1 0x64 ADD PUSH2 0xCC9 JUMP JUMPDEST PUSH1 0x0 DUP2 DUP2 MSTORE PUSH1 0x2 PUSH1 0x20 MSTORE PUSH1 0x40 SWAP1 KECCAK256 SLOAD PUSH1 0x1 PUSH1 0x1 PUSH1 0xA0 SHL SUB AND ISZERO PUSH2 0x31BB JUMPI PUSH1 0x40 MLOAD PUSH3 0x461BCD PUSH1 0xE5 SHL DUP2 MSTORE PUSH1 0x20 PUSH1 0x4 DUP3 ADD MSTORE PUSH1 0x1C PUSH1 0x24 DUP3 ADD MSTORE PUSH32 0x4552433732313A20746F6B656E20616C7265616479206D696E74656400000000 PUSH1 0x44 DUP3 ADD MSTORE PUSH1 0x64 ADD PUSH2 0xCC9 JUMP JUMPDEST PUSH2 0x31C7 PUSH1 0x0 DUP4 DUP4 PUSH2 0x2FAC JUMP JUMPDEST PUSH1 0x1 PUSH1 0x1 PUSH1 0xA0 SHL SUB DUP3 AND PUSH1 0x0 SWAP1 DUP2 MSTORE PUSH1 0x3 PUSH1 0x20 MSTORE PUSH1 0x40 DUP2 KECCAK256 DUP1 SLOAD PUSH1 0x1 SWAP3 SWAP1 PUSH2 0x31F0 SWAP1 DUP5 SWAP1 PUSH2 0x399B JUMP JUMPDEST SWAP1 SWAP2 SSTORE POP POP PUSH1 0x0 DUP2 DUP2 MSTORE PUSH1 0x2 PUSH1 0x20 MSTORE PUSH1 0x40 DUP1 DUP3 KECCAK256 DUP1 SLOAD PUSH1 0x1 PUSH1 0x1 PUSH1 0xA0 SHL SUB NOT AND PUSH1 0x1 PUSH1 0x1 PUSH1 0xA0 SHL SUB DUP7 AND SWAP1 DUP2 OR SWAP1 SWAP2 SSTORE SWAP1 MLOAD DUP4 SWAP3 SWAP1 PUSH32 0xDDF252AD1BE2C89B69C2B068FC378DAA952BA7F163C4A11628F55A4DF523B3EF SWAP1 DUP3 SWAP1 LOG4 POP POP JUMP JUMPDEST DUP3 DUP1 SLOAD PUSH2 0x325A SWAP1 PUSH2 0x37E3 JUMP JUMPDEST SWAP1 PUSH1 0x0 MSTORE PUSH1 0x20 PUSH1 0x0 KECCAK256 SWAP1 PUSH1 0x1F ADD PUSH1 0x20 SWAP1 DIV DUP2 ADD SWAP3 DUP3 PUSH2 0x327C JUMPI PUSH1 0x0 DUP6 SSTORE PUSH2 0x32C2 JUMP JUMPDEST DUP3 PUSH1 0x1F LT PUSH2 0x3295 JUMPI DUP1 MLOAD PUSH1 0xFF NOT AND DUP4 DUP1 ADD OR DUP6 SSTORE PUSH2 0x32C2 JUMP JUMPDEST DUP3 DUP1 ADD PUSH1 0x1 ADD DUP6 SSTORE DUP3 ISZERO PUSH2 0x32C2 JUMPI SWAP2 DUP3 ADD JUMPDEST DUP3 DUP2 GT ISZERO PUSH2 0x32C2 JUMPI DUP3 MLOAD DUP3 SSTORE SWAP2 PUSH1 0x20 ADD SWAP2 SWAP1 PUSH1 0x1 ADD SWAP1 PUSH2 0x32A7 JUMP JUMPDEST POP PUSH2 0x32CE SWAP3 SWAP2 POP PUSH2 0x32D2 JUMP JUMPDEST POP SWAP1 JUMP JUMPDEST JUMPDEST DUP1 DUP3 GT ISZERO PUSH2 0x32CE JUMPI PUSH1 0x0 DUP2 SSTORE PUSH1 0x1 ADD PUSH2 0x32D3 JUMP JUMPDEST PUSH1 0x1 PUSH1 0x1 PUSH1 0xE0 SHL SUB NOT DUP2 AND DUP2 EQ PUSH2 0x14C2 JUMPI PUSH1 0x0 DUP1 REVERT JUMPDEST PUSH1 0x0 PUSH1 0x20 DUP3 DUP5 SUB SLT ISZERO PUSH2 0x330F JUMPI PUSH1 0x0 DUP1 REVERT JUMPDEST DUP2 CALLDATALOAD PUSH2 0x2B93 DUP2 PUSH2 0x32E7 JUMP JUMPDEST PUSH1 0x0 JUMPDEST DUP4 DUP2 LT ISZERO PUSH2 0x3335 JUMPI DUP2 DUP2 ADD MLOAD DUP4 DUP3 ADD MSTORE PUSH1 0x20 ADD PUSH2 0x331D JUMP JUMPDEST DUP4 DUP2 GT ISZERO PUSH2 0x225D JUMPI POP POP PUSH1 0x0 SWAP2 ADD MSTORE JUMP JUMPDEST PUSH1 0x0 DUP2 MLOAD DUP1 DUP5 MSTORE PUSH2 0x335E DUP2 PUSH1 0x20 DUP7 ADD PUSH1 0x20 DUP7 ADD PUSH2 0x331A JUMP JUMPDEST PUSH1 0x1F ADD PUSH1 0x1F NOT AND SWAP3 SWAP1 SWAP3 ADD PUSH1 0x20 ADD SWAP3 SWAP2 POP POP JUMP JUMPDEST PUSH1 0x20 DUP2 MSTORE PUSH1 0x0 PUSH2 0x2B93 PUSH1 0x20 DUP4 ADD DUP5 PUSH2 0x3346 JUMP JUMPDEST PUSH1 0x0 PUSH1 0x20 DUP3 DUP5 SUB SLT ISZERO PUSH2 0x3397 JUMPI PUSH1 0x0 DUP1 REVERT JUMPDEST POP CALLDATALOAD SWAP2 SWAP1 POP JUMP JUMPDEST DUP1 CALLDATALOAD PUSH1 0x1 PUSH1 0x1 PUSH1 0xA0 SHL SUB DUP2 AND DUP2 EQ PUSH2 0x33B5 JUMPI PUSH1 0x0 DUP1 REVERT JUMPDEST SWAP2 SWAP1 POP JUMP JUMPDEST PUSH1 0x0 PUSH1 0x20 DUP3 DUP5 SUB SLT ISZERO PUSH2 0x33CC JUMPI PUSH1 0x0 DUP1 REVERT JUMPDEST PUSH2 0x2B93 DUP3 PUSH2 0x339E JUMP JUMPDEST PUSH1 0x0 DUP1 PUSH1 0x40 DUP4 DUP6 SUB SLT ISZERO PUSH2 0x33E8 JUMPI PUSH1 0x0 DUP1 REVERT JUMPDEST PUSH2 0x33F1 DUP4 PUSH2 0x339E JUMP JUMPDEST SWAP5 PUSH1 0x20 SWAP4 SWAP1 SWAP4 ADD CALLDATALOAD SWAP4 POP POP POP JUMP JUMPDEST PUSH4 0x4E487B71 PUSH1 0xE0 SHL PUSH1 0x0 MSTORE PUSH1 0x41 PUSH1 0x4 MSTORE PUSH1 0x24 PUSH1 0x0 REVERT JUMPDEST PUSH1 0x40 MLOAD PUSH1 0x1F DUP3 ADD PUSH1 0x1F NOT AND DUP2 ADD PUSH8 0xFFFFFFFFFFFFFFFF DUP2 GT DUP3 DUP3 LT OR ISZERO PUSH2 0x343E JUMPI PUSH2 0x343E PUSH2 0x33FF JUMP JUMPDEST PUSH1 0x40 MSTORE SWAP2 SWAP1 POP JUMP JUMPDEST PUSH1 0x0 PUSH8 0xFFFFFFFFFFFFFFFF DUP4 GT ISZERO PUSH2 0x3460 JUMPI PUSH2 0x3460 PUSH2 0x33FF JUMP JUMPDEST PUSH2 0x3473 PUSH1 0x1F DUP5 ADD PUSH1 0x1F NOT AND PUSH1 0x20 ADD PUSH2 0x3415 JUMP JUMPDEST SWAP1 POP DUP3 DUP2 MSTORE DUP4 DUP4 DUP4 ADD GT ISZERO PUSH2 0x3487 JUMPI PUSH1 0x0 DUP1 REVERT JUMPDEST DUP3 DUP3 PUSH1 0x20 DUP4 ADD CALLDATACOPY PUSH1 0x0 PUSH1 0x20 DUP5 DUP4 ADD ADD MSTORE SWAP4 SWAP3 POP POP POP JUMP JUMPDEST PUSH1 0x0 PUSH1 0x20 DUP3 DUP5 SUB SLT ISZERO PUSH2 0x34B0 JUMPI PUSH1 0x0 DUP1 REVERT JUMPDEST DUP2 CALLDATALOAD PUSH8 0xFFFFFFFFFFFFFFFF DUP2 GT ISZERO PUSH2 0x34C7 JUMPI PUSH1 0x0 DUP1 REVERT JUMPDEST DUP3 ADD PUSH1 0x1F DUP2 ADD DUP5 SGT PUSH2 0x34D8 JUMPI PUSH1 0x0 DUP1 REVERT JUMPDEST PUSH2 0x29D4 DUP5 DUP3 CALLDATALOAD PUSH1 0x20 DUP5 ADD PUSH2 0x3446 JUMP JUMPDEST PUSH1 0x0 PUSH8 0xFFFFFFFFFFFFFFFF DUP3 GT ISZERO PUSH2 0x3501 JUMPI PUSH2 0x3501 PUSH2 0x33FF JUMP JUMPDEST POP PUSH1 0x5 SHL PUSH1 0x20 ADD SWAP1 JUMP JUMPDEST PUSH1 0x0 DUP3 PUSH1 0x1F DUP4 ADD SLT PUSH2 0x351C JUMPI PUSH1 0x0 DUP1 REVERT JUMPDEST DUP2 CALLDATALOAD PUSH1 0x20 PUSH2 0x3531 PUSH2 0x352C DUP4 PUSH2 0x34E7 JUMP JUMPDEST PUSH2 0x3415 JUMP JUMPDEST DUP3 DUP2 MSTORE PUSH1 0x5 SWAP3 SWAP1 SWAP3 SHL DUP5 ADD DUP2 ADD SWAP2 DUP2 DUP2 ADD SWAP1 DUP7 DUP5 GT ISZERO PUSH2 0x3550 JUMPI PUSH1 0x0 DUP1 REVERT JUMPDEST DUP3 DUP7 ADD JUMPDEST DUP5 DUP2 LT ISZERO PUSH2 0x3572 JUMPI PUSH2 0x3565 DUP2 PUSH2 0x339E JUMP JUMPDEST DUP4 MSTORE SWAP2 DUP4 ADD SWAP2 DUP4 ADD PUSH2 0x3554 JUMP JUMPDEST POP SWAP7 SWAP6 POP POP POP POP POP POP JUMP JUMPDEST PUSH1 0x0 PUSH1 0x20 DUP3 DUP5 SUB SLT ISZERO PUSH2 0x358F JUMPI PUSH1 0x0 DUP1 REVERT JUMPDEST DUP2 CALLDATALOAD PUSH8 0xFFFFFFFFFFFFFFFF DUP2 GT ISZERO PUSH2 0x35A6 JUMPI PUSH1 0x0 DUP1 REVERT JUMPDEST PUSH2 0x29D4 DUP5 DUP3 DUP6 ADD PUSH2 0x350B JUMP JUMPDEST PUSH1 0x0 DUP1 PUSH1 0x0 PUSH1 0x60 DUP5 DUP7 SUB SLT ISZERO PUSH2 0x35C7 JUMPI PUSH1 0x0 DUP1 REVERT JUMPDEST PUSH2 0x35D0 DUP5 PUSH2 0x339E JUMP JUMPDEST SWAP3 POP PUSH2 0x35DE PUSH1 0x20 DUP6 ADD PUSH2 0x339E JUMP JUMPDEST SWAP2 POP PUSH1 0x40 DUP5 ADD CALLDATALOAD SWAP1 POP SWAP3 POP SWAP3 POP SWAP3 JUMP JUMPDEST DUP1 CALLDATALOAD PUSH1 0xFF DUP2 AND DUP2 EQ PUSH2 0x33B5 JUMPI PUSH1 0x0 DUP1 REVERT JUMPDEST PUSH1 0x0 PUSH1 0x20 DUP3 DUP5 SUB SLT ISZERO PUSH2 0x3611 JUMPI PUSH1 0x0 DUP1 REVERT JUMPDEST PUSH2 0x2B93 DUP3 PUSH2 0x35EE JUMP JUMPDEST PUSH1 0x0 DUP1 PUSH1 0x40 DUP4 DUP6 SUB SLT ISZERO PUSH2 0x362D JUMPI PUSH1 0x0 DUP1 REVERT JUMPDEST DUP3 CALLDATALOAD PUSH8 0xFFFFFFFFFFFFFFFF DUP1 DUP3 GT ISZERO PUSH2 0x3645 JUMPI PUSH1 0x0 DUP1 REVERT JUMPDEST PUSH2 0x3651 DUP7 DUP4 DUP8 ADD PUSH2 0x350B JUMP JUMPDEST SWAP4 POP PUSH1 0x20 SWAP2 POP DUP2 DUP6 ADD CALLDATALOAD DUP2 DUP2 GT ISZERO PUSH2 0x3668 JUMPI PUSH1 0x0 DUP1 REVERT JUMPDEST DUP6 ADD SWAP1 POP PUSH1 0x1F DUP2 ADD DUP7 SGT PUSH2 0x367B JUMPI PUSH1 0x0 DUP1 REVERT JUMPDEST DUP1 CALLDATALOAD PUSH2 0x3689 PUSH2 0x352C DUP3 PUSH2 0x34E7 JUMP JUMPDEST DUP2 DUP2 MSTORE PUSH1 0x5 SWAP2 SWAP1 SWAP2 SHL DUP3 ADD DUP4 ADD SWAP1 DUP4 DUP2 ADD SWAP1 DUP9 DUP4 GT ISZERO PUSH2 0x36A8 JUMPI PUSH1 0x0 DUP1 REVERT JUMPDEST SWAP3 DUP5 ADD SWAP3 JUMPDEST DUP3 DUP5 LT ISZERO PUSH2 0x36CD JUMPI PUSH2 0x36BE DUP5 PUSH2 0x35EE JUMP JUMPDEST DUP3 MSTORE SWAP3 DUP5 ADD SWAP3 SWAP1 DUP5 ADD SWAP1 PUSH2 0x36AD JUMP JUMPDEST DUP1 SWAP6 POP POP POP POP POP POP SWAP3 POP SWAP3 SWAP1 POP JUMP JUMPDEST PUSH1 0x0 DUP1 PUSH1 0x40 DUP4 DUP6 SUB SLT ISZERO PUSH2 0x36EF JUMPI PUSH1 0x0 DUP1 REVERT JUMPDEST PUSH2 0x36F8 DUP4 PUSH2 0x339E JUMP JUMPDEST SWAP2 POP PUSH1 0x20 DUP4 ADD CALLDATALOAD DUP1 ISZERO ISZERO DUP2 EQ PUSH2 0x370D JUMPI PUSH1 0x0 DUP1 REVERT JUMPDEST DUP1 SWAP2 POP POP SWAP3 POP SWAP3 SWAP1 POP JUMP JUMPDEST PUSH1 0x0 DUP1 PUSH1 0x40 DUP4 DUP6 SUB SLT ISZERO PUSH2 0x372B JUMPI PUSH1 0x0 DUP1 REVERT JUMPDEST PUSH2 0x3734 DUP4 PUSH2 0x35EE JUMP JUMPDEST SWAP2 POP PUSH2 0x3742 PUSH1 0x20 DUP5 ADD PUSH2 0x339E JUMP JUMPDEST SWAP1 POP SWAP3 POP SWAP3 SWAP1 POP JUMP JUMPDEST PUSH1 0x0 DUP1 PUSH1 0x0 DUP1 PUSH1 0x80 DUP6 DUP8 SUB SLT ISZERO PUSH2 0x3761 JUMPI PUSH1 0x0 DUP1 REVERT JUMPDEST PUSH2 0x376A DUP6 PUSH2 0x339E JUMP JUMPDEST SWAP4 POP PUSH2 0x3778 PUSH1 0x20 DUP7 ADD PUSH2 0x339E JUMP JUMPDEST SWAP3 POP PUSH1 0x40 DUP6 ADD CALLDATALOAD SWAP2 POP PUSH1 0x60 DUP6 ADD CALLDATALOAD PUSH8 0xFFFFFFFFFFFFFFFF DUP2 GT ISZERO PUSH2 0x379B JUMPI PUSH1 0x0 DUP1 REVERT JUMPDEST DUP6 ADD PUSH1 0x1F DUP2 ADD DUP8 SGT PUSH2 0x37AC JUMPI PUSH1 0x0 DUP1 REVERT JUMPDEST PUSH2 0x37BB DUP8 DUP3 CALLDATALOAD PUSH1 0x20 DUP5 ADD PUSH2 0x3446 JUMP JUMPDEST SWAP2 POP POP SWAP3 SWAP6 SWAP2 SWAP5 POP SWAP3 POP JUMP JUMPDEST PUSH1 0x0 DUP1 PUSH1 0x40 DUP4 DUP6 SUB SLT ISZERO PUSH2 0x37DA JUMPI PUSH1 0x0 DUP1 REVERT JUMPDEST PUSH2 0x3734 DUP4 PUSH2 0x339E JUMP JUMPDEST PUSH1 0x1 DUP2 DUP2 SHR SWAP1 DUP3 AND DUP1 PUSH2 0x37F7 JUMPI PUSH1 0x7F DUP3 AND SWAP2 POP JUMPDEST PUSH1 0x20 DUP3 LT DUP2 EQ ISZERO PUSH2 0x3818 JUMPI PUSH4 0x4E487B71 PUSH1 0xE0 SHL PUSH1 0x0 MSTORE PUSH1 0x22 PUSH1 0x4 MSTORE PUSH1 0x24 PUSH1 0x0 REVERT JUMPDEST POP SWAP2 SWAP1 POP JUMP JUMPDEST PUSH1 0x20 DUP1 DUP3 MSTORE DUP2 DUP2 ADD MSTORE PUSH32 0x4F776E61626C653A2063616C6C6572206973206E6F7420746865206F776E6572 PUSH1 0x40 DUP3 ADD MSTORE PUSH1 0x60 ADD SWAP1 JUMP JUMPDEST PUSH4 0x4E487B71 PUSH1 0xE0 SHL PUSH1 0x0 MSTORE PUSH1 0x11 PUSH1 0x4 MSTORE PUSH1 0x24 PUSH1 0x0 REVERT JUMPDEST PUSH1 0x0 DUP3 DUP3 LT ISZERO PUSH2 0x387B JUMPI PUSH2 0x387B PUSH2 0x3853 JUMP JUMPDEST POP SUB SWAP1 JUMP JUMPDEST PUSH4 0x4E487B71 PUSH1 0xE0 SHL PUSH1 0x0 MSTORE PUSH1 0x32 PUSH1 0x4 MSTORE PUSH1 0x24 PUSH1 0x0 REVERT JUMPDEST PUSH1 0x0 PUSH1 0x0 NOT DUP3 EQ ISZERO PUSH2 0x38AA JUMPI PUSH2 0x38AA PUSH2 0x3853 JUMP JUMPDEST POP PUSH1 0x1 ADD SWAP1 JUMP JUMPDEST PUSH1 0x20 DUP1 DUP3 MSTORE PUSH1 0x31 SWAP1 DUP3 ADD MSTORE PUSH32 0x4552433732313A207472616E736665722063616C6C6572206973206E6F74206F PUSH1 0x40 DUP3 ADD MSTORE PUSH17 0x1DDB995C881B9BDC88185C1C1C9BDD9959 PUSH1 0x7A SHL PUSH1 0x60 DUP3 ADD MSTORE PUSH1 0x80 ADD SWAP1 JUMP JUMPDEST PUSH1 0x20 DUP1 DUP3 MSTORE PUSH1 0x10 SWAP1 DUP3 ADD MSTORE PUSH16 0x14185D5CD8589B194E881C185D5CD959 PUSH1 0x82 SHL PUSH1 0x40 DUP3 ADD MSTORE PUSH1 0x60 ADD SWAP1 JUMP JUMPDEST PUSH1 0x20 DUP1 DUP3 MSTORE PUSH1 0x2A SWAP1 DUP3 ADD MSTORE PUSH32 0x45786365656473206D617820616C6C6F77656420616D6F756E74207065722074 PUSH1 0x40 DUP3 ADD MSTORE PUSH10 0x3930B739B0B1BA34B7B7 PUSH1 0xB1 SHL PUSH1 0x60 DUP3 ADD MSTORE PUSH1 0x80 ADD SWAP1 JUMP JUMPDEST PUSH1 0x0 PUSH1 0xFF DUP3 AND PUSH1 0xFF DUP5 AND DUP1 PUSH1 0xFF SUB DUP3 GT ISZERO PUSH2 0x3993 JUMPI PUSH2 0x3993 PUSH2 0x3853 JUMP JUMPDEST ADD SWAP4 SWAP3 POP POP POP JUMP JUMPDEST PUSH1 0x0 DUP3 NOT DUP3 GT ISZERO PUSH2 0x39AE JUMPI PUSH2 0x39AE PUSH2 0x3853 JUMP JUMPDEST POP ADD SWAP1 JUMP JUMPDEST PUSH1 0x20 DUP1 DUP3 MSTORE PUSH1 0x38 SWAP1 DUP3 ADD MSTORE PUSH32 0x50726F76656E616E63652068617368206D7573742062652066726F7A656E2062 PUSH1 0x40 DUP3 ADD MSTORE PUSH32 0x65666F7265206D696E74696E672063616E2073746172742E0000000000000000 PUSH1 0x60 DUP3 ADD MSTORE PUSH1 0x80 ADD SWAP1 JUMP JUMPDEST DUP1 SLOAD PUSH1 0x0 SWAP1 PUSH1 0x1 DUP2 DUP2 SHR SWAP1 DUP1 DUP4 AND DUP1 PUSH2 0x3A2A JUMPI PUSH1 0x7F DUP4 AND SWAP3 POP JUMPDEST PUSH1 0x20 DUP1 DUP5 LT DUP3 EQ ISZERO PUSH2 0x3A4C JUMPI PUSH4 0x4E487B71 PUSH1 0xE0 SHL PUSH1 0x0 MSTORE PUSH1 0x22 PUSH1 0x4 MSTORE PUSH1 0x24 PUSH1 0x0 REVERT JUMPDEST DUP2 DUP1 ISZERO PUSH2 0x3A60 JUMPI PUSH1 0x1 DUP2 EQ PUSH2 0x3A71 JUMPI PUSH2 0x3A9E JUMP JUMPDEST PUSH1 0xFF NOT DUP7 AND DUP10 MSTORE DUP5 DUP10 ADD SWAP7 POP PUSH2 0x3A9E JUMP JUMPDEST PUSH1 0x0 DUP9 DUP2 MSTORE PUSH1 0x20 SWAP1 KECCAK256 PUSH1 0x0 JUMPDEST DUP7 DUP2 LT ISZERO PUSH2 0x3A96 JUMPI DUP2 SLOAD DUP12 DUP3 ADD MSTORE SWAP1 DUP6 ADD SWAP1 DUP4 ADD PUSH2 0x3A7D JUMP JUMPDEST POP POP DUP5 DUP10 ADD SWAP7 POP JUMPDEST POP POP POP POP POP POP SWAP3 SWAP2 POP POP JUMP JUMPDEST PUSH1 0x0 PUSH2 0x3AB6 DUP3 DUP7 PUSH2 0x3A10 JUMP JUMPDEST DUP5 MLOAD PUSH2 0x3AC6 DUP2 DUP4 PUSH1 0x20 DUP10 ADD PUSH2 0x331A JUMP JUMPDEST PUSH2 0x3AD2 DUP2 DUP4 ADD DUP7 PUSH2 0x3A10 JUMP JUMPDEST SWAP8 SWAP7 POP POP POP POP POP POP POP JUMP JUMPDEST PUSH1 0x0 PUSH1 0xFF DUP3 AND PUSH1 0xFF DUP2 EQ ISZERO PUSH2 0x3AF4 JUMPI PUSH2 0x3AF4 PUSH2 0x3853 JUMP JUMPDEST PUSH1 0x1 ADD SWAP3 SWAP2 POP POP JUMP JUMPDEST PUSH1 0x0 DUP2 PUSH1 0x0 NOT DIV DUP4 GT DUP3 ISZERO ISZERO AND ISZERO PUSH2 0x3B17 JUMPI PUSH2 0x3B17 PUSH2 0x3853 JUMP JUMPDEST POP MUL SWAP1 JUMP JUMPDEST PUSH4 0x4E487B71 PUSH1 0xE0 SHL PUSH1 0x0 MSTORE PUSH1 0x12 PUSH1 0x4 MSTORE PUSH1 0x24 PUSH1 0x0 REVERT JUMPDEST PUSH1 0x0 DUP3 PUSH2 0x3B41 JUMPI PUSH2 0x3B41 PUSH2 0x3B1C JUMP JUMPDEST POP DIV SWAP1 JUMP JUMPDEST PUSH1 0x20 DUP1 DUP3 MSTORE PUSH1 0x32 SWAP1 DUP3 ADD MSTORE PUSH32 0x4552433732313A207472616E7366657220746F206E6F6E204552433732315265 PUSH1 0x40 DUP3 ADD MSTORE PUSH18 0x31B2B4BB32B91034B6B83632B6B2B73A32B9 PUSH1 0x71 SHL PUSH1 0x60 DUP3 ADD MSTORE PUSH1 0x80 ADD SWAP1 JUMP JUMPDEST PUSH1 0x0 DUP3 PUSH2 0x3BA7 JUMPI PUSH2 0x3BA7 PUSH2 0x3B1C JUMP JUMPDEST POP MOD SWAP1 JUMP JUMPDEST PUSH1 0x1 PUSH1 0x1 PUSH1 0xA0 SHL SUB DUP6 DUP2 AND DUP3 MSTORE DUP5 AND PUSH1 0x20 DUP3 ADD MSTORE PUSH1 0x40 DUP2 ADD DUP4 SWAP1 MSTORE PUSH1 0x80 PUSH1 0x60 DUP3 ADD DUP2 SWAP1 MSTORE PUSH1 0x0 SWAP1 PUSH2 0x3BDF SWAP1 DUP4 ADD DUP5 PUSH2 0x3346 JUMP JUMPDEST SWAP7 SWAP6 POP POP POP POP POP POP JUMP JUMPDEST PUSH1 0x0 PUSH1 0x20 DUP3 DUP5 SUB SLT ISZERO PUSH2 0x3BFB JUMPI PUSH1 0x0 DUP1 REVERT JUMPDEST DUP2 MLOAD PUSH2 0x2B93 DUP2 PUSH2 0x32E7 JUMP INVALID LOG2 PUSH5 0x6970667358 0x22 SLT KECCAK256 0xBD DUP12 0xAC 0xDB 0xB7 0xFC PUSH22 0xD28FF1D454C8D3715E8A2D9A470732FB8818FAA00142 0xA7 0xE8 SELFBALANCE PUSH5 0x736F6C6343 STOP ADDMOD EXP STOP CALLER ","sha1":"61f87656bfd6ae63b9957e5fb34dbfe4ec424373","source":"// SPDX-License-Identifier: MIT\npragma solidity ^0.8.10;\n\nimport '@openzeppelin/contracts/token/ERC721/ERC721.sol';\nimport '@openzeppelin/contracts/access/Ownable.sol';\nimport '@openzeppelin/contracts/utils/math/SafeMath.sol';\nimport '@openzeppelin/contracts/utils/Counters.sol';\nimport '@openzeppelin/contracts/security/Pausable.sol';\nimport '@openzeppelin/contracts/token/ERC721/extensions/ERC721Burnable.sol';\n\ncontract CryptidToken is ERC721, Pausable, Ownable, ERC721Burnable{ \n    using Strings for uint256;\n    using SafeMath for uint256;\n    using Counters for Counters.Counter;\n\n    Counters.Counter private _tokenIdCounter;\n\n    string public provenanceHash;\n    string public baseURI = \"\";\n    string public defaultURI;\n    string public baseExtension = \".json\";\n    uint8 private stage = 0;\n    uint8 public maxMintPerTx;     \n    bool public tokenURIFrozen = false;\n    bool public provenanceHashFrozen = false;\n    address public withdrawDest1 = 0x1953bc1fF76f5e61cD775A4482bd85BAc56aD1Eb;\n    address public withdrawDest2 = 0x12B58f5331a6DC897932AA7FB5101667ACdf03e2;\n    \n    // ~ Sale stages ~\n    // stage 0: Init \n    // stage 1: Free Whitelist \n    // stage 2: Presale \n    // stage 3: Team Mint \n    // stage 4: Public Sale\n\n    // Whitelist mint (stage=1)\n    mapping(address => uint8) public whitelistUsers;\n    mapping(address => uint8) public whitelistMintCount;\n\n    // Presale mint (stage=2)\n    mapping(address => bool) public presaleUsers;\n    uint256 public presaleSupply;                       \n    uint256 public presalePrice = 0.04 ether;\n    uint8 public presaleMintMax = 5;                  \n    mapping(address => uint8) public presaleMintCount;\n\n    // Team Mint (stage=3)\n    uint256 public teamMintSupply;                          \n    uint256 public teamMintCount;\n\n    // Public Sale (stage=4)\n    uint256 public salePrice = 0.05 ether;\n    uint256 public totalSaleSupply;         \n\n    constructor(\n        string memory _name,\n        string memory _symbol,\n        string memory _defaultURI,\n        uint256 _presaleSupply,\n        uint256 _teamMintSupply,\n        uint256 _totalSaleSupply,\n        uint8 _maxMintPerTx\n\n    )   ERC721(_name, _symbol) {\n        presaleSupply = _presaleSupply;\n        teamMintSupply = _teamMintSupply;\n        totalSaleSupply = _totalSaleSupply;\n        maxMintPerTx = _maxMintPerTx;\n        defaultURI = _defaultURI;\n        _tokenIdCounter.increment();\n    }\n\n    //Public mint function\n    function mint(uint8 _mintAmount) public payable whenNotPaused {\n        require(stage > 0, \"Minting not initiated. Currenly on stage 0 (init).\");\n        require(_mintAmount > 0, \"Mint amount must be greater than 0\");\n        require(_mintAmount <= maxMintPerTx, \"Exceeds max allowed amount per transaction\");\n        if (stage == 1) {\n        // Whitelist\n            require(whitelistUsers[msg.sender] > 0, \"Minter not whitelisted.\");\n            require(_mintAmount + whitelistMintCount[msg.sender] <= whitelistUsers[msg.sender], \"Transaction exceeds remaining whitelist mints\");\n            whitelistMintCount[msg.sender] += _mintAmount;\n    }   else if (stage == 2) {\n        // Presale  \n            require(msg.value >= presalePrice.mul(_mintAmount), \"Not enough ether sent\");\n            require(presaleUsers[msg.sender], \"Address not on presale list\");\n            require(totalSupply() + _mintAmount <= presaleSupply, \"Transaction exceeds pre-sale supply\");\n            require(_mintAmount + presaleMintCount[msg.sender] <= presaleMintMax, \"Transaction exceeds max allowed presale mints\");      \n            presaleMintCount[msg.sender] += _mintAmount;\n    }   else if (stage == 3) {\n        // Team Sale\n            require(owner() == msg.sender, \"Only Owner can mint at this stage\");\n            require(_mintAmount + teamMintCount <= teamMintSupply, \"Transaction exceeds total team-sale supply\");      \n            teamMintCount += _mintAmount;\n    }   else {\n        // Public Sale\n            require(msg.value >= salePrice.mul(_mintAmount), \"Not enough ether sent\");\n            require(totalSupply()  + _mintAmount <= totalSaleSupply, \"Transaction exceeds total sale supply\");\n        }\n        for (uint256 i = 1; i <= _mintAmount; i++) {\n            _safeMint(msg.sender, _tokenIdCounter.current());\n            _tokenIdCounter.increment();\n        }\n    }\n\n    //Owner functions\n    function pause() public onlyOwner {\n        _pause();\n    }\n\n    function unpause() public onlyOwner {\n        _unpause();\n    }\n\n    function airdropCryptid(uint8 _mintAmount, address _to) public onlyOwner {\n        require(provenanceHashFrozen == true, \"Provenance hash must be frozen before minting can start.\");\n        require(stage < 2, \"Past whitelist sale.\");\n        require(_mintAmount <= maxMintPerTx, \"Exceeds max allowed amount per transaction\");\n        require(_mintAmount > 0, \"Airdrop amount must be greater than 0\");\n        require(totalSupply()+ _mintAmount <= presaleSupply, \"Mint amount will exceed presale supply.\");\n        for (uint256 i = 1; i <= _mintAmount; i++) {\n            _safeMint(_to, _tokenIdCounter.current());\n            _tokenIdCounter.increment();\n        }\n    }\n\n    function setWhitelistUsers(address[] memory _users, uint8[] memory _mints) public onlyOwner {\n        require(stage < 2, \"Whitelist sale is concluded.\");\n        for(uint256 i=0;i<_users.length;i++)\n        whitelistUsers[_users[i]] = _mints[i];\n    }\n\n    function setPresaleUsers(address[] memory _users) public onlyOwner {\n        require(stage < 3, \"Presale is concluded.\");\n        for(uint256 i=0;i<_users.length;i++)\n        presaleUsers[_users[i]] = true;\n    }\n\n    function removeWhitelistUser(address _user) public onlyOwner {\n        require(stage < 2, \"Whitelist sale is concluded.\");\n        require(whitelistUsers[_user] > 0, \"User is not on whitelist.\");\n        whitelistUsers[_user] = 0;\n    }\n\n    function removePresaleUser(address _user) public onlyOwner {\n        require(presaleUsers[_user], \"User not on presale list.\");\n        presaleUsers[_user] = false;\n    }\n\n    function setBaseURI(string memory _newBaseURI) public onlyOwner {\n        require(!tokenURIFrozen, \"BaseURI is frozen.\");\n        baseURI = _newBaseURI;\n    }\n\n    function setDefaultURI(string memory _newDefaultURI) public onlyOwner {\n        defaultURI = _newDefaultURI;\n    }    \n    \n    function freezeBaseURI() public onlyOwner {\n        require(bytes(baseURI).length > 0, \"baseURI cannot be empty\");\n        require(!tokenURIFrozen, \"BaseURI is already frozen.\");\n        tokenURIFrozen = true;\n    }\n\n    function nextStage() public onlyOwner {\n        require(provenanceHashFrozen == true, \"Provenance hash must be frozen before minting can start.\");\n        require(stage < 4, \"No stages after public sale\");\n        stage++;\n    }\n    \n    function setTeamMintSupply(uint256 _newTeamMintSupply) public onlyOwner {\n        teamMintSupply = _newTeamMintSupply;\n    }\n\n    function setBaseExtension(string memory _newBaseExtension) public onlyOwner {\n        baseExtension = _newBaseExtension;\n    }\n\n    function setPresalePrice(uint256 _newPresalePrice) public onlyOwner {\n        require(stage < 3, \"Presale is concluded.\");\n        presalePrice = _newPresalePrice;\n    }\n\n    function setPublicSalePrice(uint256 _newSalePrice) public onlyOwner {\n        salePrice = _newSalePrice;\n    }\n\n    function setMaxMintPerTx(uint8 _newmaxMintPerTx) public onlyOwner {\n        maxMintPerTx = _newmaxMintPerTx;\n    }\n\n    function setProvenanceHash(string memory _provenanceHash) public onlyOwner {\n        require(!provenanceHashFrozen, \"Provenance hash is frozen.\");\n        provenanceHash = _provenanceHash;\n    }\n\n    function setWithdrawAddress(address _dest1, address _dest2) public onlyOwner {\n        withdrawDest1 = _dest1;\n        withdrawDest2 = _dest2;\n    }\n\n    function freezeProvenanceHash() public onlyOwner {\n        require(bytes(provenanceHash).length > 0, \"Provenance hash cannot be empty.\");\n        require(!provenanceHashFrozen, \"Provenance hash is already frozen.\");\n        provenanceHashFrozen = true;\n    }\n\n    function withdraw() public payable onlyOwner {\n        require(address(this).balance > 0, \"Contract balance is 0.\");\n        (bool hs, ) = payable(withdrawDest1).call{value: address(this).balance.mul(50).div(100)}(\"\");\n        require(hs, \"withdrawl 1 failed\");\n        (bool os, ) = payable(withdrawDest2).call{value: address(this).balance}(\"\");\n        require(os, \"withdrawl 2 failed\");\n    }\n\n    // Public view functions\n    function lastMintAddress() public view returns (address){\n        require(totalSupply() > 0, \"No cryptid exists yet.\");\n        return ownerOf(totalSupply());\n    }\n\n    function lastMintID() public view returns (uint256){\n        require(totalSupply() > 0, \"No cryptid exists yet.\");\n        return(totalSupply());\n    }\n\n    function totalSupply() public view returns (uint256) {\n        return _tokenIdCounter.current() - 1;\n    }\n\n    function tokenURI(uint256 tokenId) public view virtual override returns (string memory) {\n        require(_exists(tokenId), \"ERC721Metadata: URI query for nonexistent token\");\n        return bytes(baseURI).length > 0\n            ? string(abi.encodePacked(baseURI, tokenId.toString(), baseExtension))\n            : defaultURI;\n    }\n\n    function getTokensLeft() public view returns (uint256) {\n        return totalSaleSupply - totalSupply();\n    }\n    \n    function getStage() public view returns (uint8) {\n        return stage;\n    }\n\n    function _beforeTokenTransfer(address from, address to, uint256 tokenId) internal whenNotPaused override(ERC721) {\n        super._beforeTokenTransfer(from, to, tokenId);\n    }\n\n}","sourcePath":"contracts/CryptidToken.sol","type":"contract","deployment":{"address":"0xA7a53f94c7bB1Db60d77eEb2B81271323C559aC6","chainid":"4","blockHeight":9936435}}